{
	"CYBCC.sol": {
		"CYBCC": {
			"abi": [
				{
					"inputs": [],
					"stateMutability": "nonpayable",
					"type": "constructor"
				},
				{
					"inputs": [
						{
							"internalType": "address",
							"name": "spender",
							"type": "address"
						},
						{
							"internalType": "uint256",
							"name": "allowance",
							"type": "uint256"
						},
						{
							"internalType": "uint256",
							"name": "needed",
							"type": "uint256"
						}
					],
					"name": "ERC20InsufficientAllowance",
					"type": "error"
				},
				{
					"inputs": [
						{
							"internalType": "address",
							"name": "sender",
							"type": "address"
						},
						{
							"internalType": "uint256",
							"name": "balance",
							"type": "uint256"
						},
						{
							"internalType": "uint256",
							"name": "needed",
							"type": "uint256"
						}
					],
					"name": "ERC20InsufficientBalance",
					"type": "error"
				},
				{
					"inputs": [
						{
							"internalType": "address",
							"name": "approver",
							"type": "address"
						}
					],
					"name": "ERC20InvalidApprover",
					"type": "error"
				},
				{
					"inputs": [
						{
							"internalType": "address",
							"name": "receiver",
							"type": "address"
						}
					],
					"name": "ERC20InvalidReceiver",
					"type": "error"
				},
				{
					"inputs": [
						{
							"internalType": "address",
							"name": "sender",
							"type": "address"
						}
					],
					"name": "ERC20InvalidSender",
					"type": "error"
				},
				{
					"inputs": [
						{
							"internalType": "address",
							"name": "spender",
							"type": "address"
						}
					],
					"name": "ERC20InvalidSpender",
					"type": "error"
				},
				{
					"anonymous": false,
					"inputs": [
						{
							"indexed": true,
							"internalType": "address",
							"name": "owner",
							"type": "address"
						},
						{
							"indexed": true,
							"internalType": "address",
							"name": "spender",
							"type": "address"
						},
						{
							"indexed": false,
							"internalType": "uint256",
							"name": "value",
							"type": "uint256"
						}
					],
					"name": "Approval",
					"type": "event"
				},
				{
					"anonymous": false,
					"inputs": [
						{
							"indexed": true,
							"internalType": "address",
							"name": "from",
							"type": "address"
						},
						{
							"indexed": true,
							"internalType": "address",
							"name": "to",
							"type": "address"
						},
						{
							"indexed": false,
							"internalType": "uint256",
							"name": "value",
							"type": "uint256"
						}
					],
					"name": "Transfer",
					"type": "event"
				},
				{
					"inputs": [
						{
							"internalType": "address",
							"name": "owner",
							"type": "address"
						},
						{
							"internalType": "address",
							"name": "spender",
							"type": "address"
						}
					],
					"name": "allowance",
					"outputs": [
						{
							"internalType": "uint256",
							"name": "",
							"type": "uint256"
						}
					],
					"stateMutability": "view",
					"type": "function"
				},
				{
					"inputs": [
						{
							"internalType": "address",
							"name": "spender",
							"type": "address"
						},
						{
							"internalType": "uint256",
							"name": "value",
							"type": "uint256"
						}
					],
					"name": "approve",
					"outputs": [
						{
							"internalType": "bool",
							"name": "",
							"type": "bool"
						}
					],
					"stateMutability": "nonpayable",
					"type": "function"
				},
				{
					"inputs": [
						{
							"internalType": "address",
							"name": "sender",
							"type": "address"
						}
					],
					"name": "balanceOf",
					"outputs": [
						{
							"internalType": "uint256",
							"name": "",
							"type": "uint256"
						}
					],
					"stateMutability": "view",
					"type": "function"
				},
				{
					"inputs": [
						{
							"internalType": "address",
							"name": "_pairAddress",
							"type": "address"
						}
					],
					"name": "changePairAddress",
					"outputs": [],
					"stateMutability": "nonpayable",
					"type": "function"
				},
				{
					"inputs": [],
					"name": "decimals",
					"outputs": [
						{
							"internalType": "uint8",
							"name": "",
							"type": "uint8"
						}
					],
					"stateMutability": "view",
					"type": "function"
				},
				{
					"inputs": [],
					"name": "disbleAntiWhale",
					"outputs": [],
					"stateMutability": "nonpayable",
					"type": "function"
				},
				{
					"inputs": [],
					"name": "enableAntiWhale",
					"outputs": [],
					"stateMutability": "nonpayable",
					"type": "function"
				},
				{
					"inputs": [
						{
							"internalType": "address",
							"name": "account",
							"type": "address"
						}
					],
					"name": "excludeAccountFromReward",
					"outputs": [],
					"stateMutability": "nonpayable",
					"type": "function"
				},
				{
					"inputs": [
						{
							"internalType": "address",
							"name": "account",
							"type": "address"
						}
					],
					"name": "excludeFromFee",
					"outputs": [],
					"stateMutability": "nonpayable",
					"type": "function"
				},
				{
					"inputs": [],
					"name": "getMarketingAndDevelopmentAccount",
					"outputs": [
						{
							"internalType": "address",
							"name": "",
							"type": "address"
						}
					],
					"stateMutability": "view",
					"type": "function"
				},
				{
					"inputs": [],
					"name": "getTaxFee",
					"outputs": [
						{
							"internalType": "uint256",
							"name": "",
							"type": "uint256"
						}
					],
					"stateMutability": "view",
					"type": "function"
				},
				{
					"inputs": [
						{
							"internalType": "address",
							"name": "account",
							"type": "address"
						}
					],
					"name": "includeAccountinReward",
					"outputs": [],
					"stateMutability": "nonpayable",
					"type": "function"
				},
				{
					"inputs": [
						{
							"internalType": "address",
							"name": "account",
							"type": "address"
						}
					],
					"name": "isExcluded",
					"outputs": [
						{
							"internalType": "bool",
							"name": "",
							"type": "bool"
						}
					],
					"stateMutability": "view",
					"type": "function"
				},
				{
					"inputs": [
						{
							"internalType": "address",
							"name": "account",
							"type": "address"
						}
					],
					"name": "isExcludedFromFee",
					"outputs": [
						{
							"internalType": "bool",
							"name": "",
							"type": "bool"
						}
					],
					"stateMutability": "view",
					"type": "function"
				},
				{
					"inputs": [],
					"name": "name",
					"outputs": [
						{
							"internalType": "string",
							"name": "",
							"type": "string"
						}
					],
					"stateMutability": "view",
					"type": "function"
				},
				{
					"inputs": [],
					"name": "owner",
					"outputs": [
						{
							"internalType": "address",
							"name": "",
							"type": "address"
						}
					],
					"stateMutability": "view",
					"type": "function"
				},
				{
					"inputs": [],
					"name": "pairAddress",
					"outputs": [
						{
							"internalType": "address",
							"name": "",
							"type": "address"
						}
					],
					"stateMutability": "view",
					"type": "function"
				},
				{
					"inputs": [
						{
							"internalType": "uint256",
							"name": "tAmount",
							"type": "uint256"
						}
					],
					"name": "reflect",
					"outputs": [],
					"stateMutability": "nonpayable",
					"type": "function"
				},
				{
					"inputs": [],
					"name": "reflectionFee",
					"outputs": [
						{
							"internalType": "uint256",
							"name": "",
							"type": "uint256"
						}
					],
					"stateMutability": "view",
					"type": "function"
				},
				{
					"inputs": [
						{
							"internalType": "uint256",
							"name": "tAmount",
							"type": "uint256"
						},
						{
							"internalType": "bool",
							"name": "deductTransferFee",
							"type": "bool"
						}
					],
					"name": "reflectionFromToken",
					"outputs": [
						{
							"internalType": "uint256",
							"name": "",
							"type": "uint256"
						}
					],
					"stateMutability": "view",
					"type": "function"
				},
				{
					"inputs": [],
					"name": "renounceOwnership",
					"outputs": [],
					"stateMutability": "nonpayable",
					"type": "function"
				},
				{
					"inputs": [],
					"name": "symbol",
					"outputs": [
						{
							"internalType": "string",
							"name": "",
							"type": "string"
						}
					],
					"stateMutability": "view",
					"type": "function"
				},
				{
					"inputs": [],
					"name": "totalFeesRedistributed",
					"outputs": [
						{
							"internalType": "uint256",
							"name": "",
							"type": "uint256"
						}
					],
					"stateMutability": "view",
					"type": "function"
				},
				{
					"inputs": [],
					"name": "totalSupply",
					"outputs": [
						{
							"internalType": "uint256",
							"name": "",
							"type": "uint256"
						}
					],
					"stateMutability": "view",
					"type": "function"
				},
				{
					"inputs": [
						{
							"internalType": "address",
							"name": "to",
							"type": "address"
						},
						{
							"internalType": "uint256",
							"name": "value",
							"type": "uint256"
						}
					],
					"name": "transfer",
					"outputs": [
						{
							"internalType": "bool",
							"name": "",
							"type": "bool"
						}
					],
					"stateMutability": "nonpayable",
					"type": "function"
				},
				{
					"inputs": [
						{
							"internalType": "address",
							"name": "from",
							"type": "address"
						},
						{
							"internalType": "address",
							"name": "to",
							"type": "address"
						},
						{
							"internalType": "uint256",
							"name": "value",
							"type": "uint256"
						}
					],
					"name": "transferFrom",
					"outputs": [
						{
							"internalType": "bool",
							"name": "",
							"type": "bool"
						}
					],
					"stateMutability": "nonpayable",
					"type": "function"
				},
				{
					"inputs": [
						{
							"internalType": "address",
							"name": "newOwner",
							"type": "address"
						}
					],
					"name": "transferOwnership",
					"outputs": [],
					"stateMutability": "nonpayable",
					"type": "function"
				},
				{
					"stateMutability": "payable",
					"type": "receive"
				}
			],
			"devdoc": {
				"errors": {
					"ERC20InsufficientAllowance(address,uint256,uint256)": [
						{
							"details": "Indicates a failure with the `spender`’s `allowance`. Used in transfers.",
							"params": {
								"allowance": "Amount of tokens a `spender` is allowed to operate with.",
								"needed": "Minimum amount required to perform a transfer.",
								"spender": "Address that may be allowed to operate on tokens without being their owner."
							}
						}
					],
					"ERC20InsufficientBalance(address,uint256,uint256)": [
						{
							"details": "Indicates an error related to the current `balance` of a `sender`. Used in transfers.",
							"params": {
								"balance": "Current balance for the interacting account.",
								"needed": "Minimum amount required to perform a transfer.",
								"sender": "Address whose tokens are being transferred."
							}
						}
					],
					"ERC20InvalidApprover(address)": [
						{
							"details": "Indicates a failure with the `approver` of a token to be approved. Used in approvals.",
							"params": {
								"approver": "Address initiating an approval operation."
							}
						}
					],
					"ERC20InvalidReceiver(address)": [
						{
							"details": "Indicates a failure with the token `receiver`. Used in transfers.",
							"params": {
								"receiver": "Address to which tokens are being transferred."
							}
						}
					],
					"ERC20InvalidSender(address)": [
						{
							"details": "Indicates a failure with the token `sender`. Used in transfers.",
							"params": {
								"sender": "Address whose tokens are being transferred."
							}
						}
					],
					"ERC20InvalidSpender(address)": [
						{
							"details": "Indicates a failure with the `spender` to be approved. Used in approvals.",
							"params": {
								"spender": "Address that may be allowed to operate on tokens without being their owner."
							}
						}
					]
				},
				"events": {
					"Approval(address,address,uint256)": {
						"details": "Emitted when the allowance of a `spender` for an `owner` is set by a call to {approve}. `value` is the new allowance."
					},
					"Transfer(address,address,uint256)": {
						"details": "Emitted when `value` tokens are moved from one account (`from`) to another (`to`). Note that `value` may be zero."
					}
				},
				"kind": "dev",
				"methods": {
					"allowance(address,address)": {
						"details": "See {IERC20-allowance}."
					},
					"approve(address,uint256)": {
						"details": "See {IERC20-approve}. NOTE: If `value` is the maximum `uint256`, the allowance is not updated on `transferFrom`. This is semantically equivalent to an infinite approval. Requirements: - `spender` cannot be the zero address."
					},
					"decimals()": {
						"details": "Returns the number of decimals used to get its user representation. For example, if `decimals` equals `2`, a balance of `505` tokens should be displayed to a user as `5.05` (`505 / 10 ** 2`). Tokens usually opt for a value of 18, imitating the relationship between Ether and Wei. This is the default value returned by this function, unless it's overridden. NOTE: This information is only used for _display_ purposes: it in no way affects any of the arithmetic of the contract, including {IERC20-balanceOf} and {IERC20-transfer}."
					},
					"name()": {
						"details": "Returns the name of the token."
					},
					"symbol()": {
						"details": "Returns the symbol of the token, usually a shorter version of the name."
					},
					"totalSupply()": {
						"details": "See {IERC20-totalSupply}."
					},
					"transfer(address,uint256)": {
						"details": "See {IERC20-transfer}. Requirements: - `to` cannot be the zero address. - the caller must have a balance of at least `value`."
					},
					"transferFrom(address,address,uint256)": {
						"details": "See {IERC20-transferFrom}. Skips emitting an {Approval} event indicating an allowance update. This is not required by the ERC. See {xref-ERC20-_approve-address-address-uint256-bool-}[_approve]. NOTE: Does not update the allowance if the current allowance is the maximum `uint256`. Requirements: - `from` and `to` cannot be the zero address. - `from` must have a balance of at least `value`. - the caller must have allowance for ``from``'s tokens of at least `value`."
					}
				},
				"version": 1
			},
			"evm": {
				"assembly": "    /* \"CYBCC.sol\":17775:30342  contract CYBCC is ERC20 {... */\n  mstore(0x40, 0x80)\n    /* \"CYBCC.sol\":18078:18113  address private _owner = msg.sender */\n  0x0a\n  dup1\n  sload\n  not(sub(shl(0xa8, 0x01), 0x0100))\n  and\n    /* \"CYBCC.sol\":18103:18113  msg.sender */\n  caller\n    /* \"CYBCC.sol\":18078:18113  address private _owner = msg.sender */\n  0x0100\n  mul\n  or\n  swap1\n  sstore\n  0x00\n    /* \"CYBCC.sol\":18229:18259  uint256 private _tFeeTotal = 0 */\n  0x0d\n  sstore\n    /* \"CYBCC.sol\":18540:18562  bool antiWhale = false */\n  0x15\n  dup1\n  sload\n  not(0xff)\n  and\n  swap1\n  sstore\n    /* \"CYBCC.sol\":18569:19215  constructor() ERC20(\"abc coin\", \"CYBCC\") {... */\n  callvalue\n  dup1\n  iszero\n  tag_1\n  jumpi\n  revert(0x00, 0x00)\ntag_1:\n  pop\n    /* \"CYBCC.sol\":8096:8209  constructor(string memory name_, string memory symbol_) {... */\n  mload(0x40)\n  dup1\n  0x40\n  add\n  0x40\n  mstore\n  dup1\n  0x08\n  dup2\n  mstore\n  0x20\n  add\n  shl(0xc1, 0x30b1319031b7b4b7)\n  dup2\n  mstore\n  pop\n  mload(0x40)\n  dup1\n  0x40\n  add\n  0x40\n  mstore\n  dup1\n  0x05\n  dup2\n  mstore\n  0x20\n  add\n  shl(0xd8, 0x4359424343)\n  dup2\n  mstore\n  pop\n    /* \"CYBCC.sol\":8170:8175  name_ */\n  dup2\n    /* \"CYBCC.sol\":8162:8167  _name */\n  0x03\n    /* \"CYBCC.sol\":8162:8175  _name = name_ */\n  swap1\n  dup2\n  tag_5\n  swap2\n  swap1\n  tag_6\n  jump\t// in\ntag_5:\n  pop\n    /* \"CYBCC.sol\":8185:8192  _symbol */\n  0x04\n    /* \"CYBCC.sol\":8185:8202  _symbol = symbol_ */\n  tag_7\n    /* \"CYBCC.sol\":8195:8202  symbol_ */\n  dup3\n    /* \"CYBCC.sol\":8185:8192  _symbol */\n  dup3\n    /* \"CYBCC.sol\":8185:8202  _symbol = symbol_ */\n  tag_6\n  jump\t// in\ntag_7:\n  pop\n  pop\n    /* \"CYBCC.sol\":18620:18629  _decimals */\n  0x0a\n    /* \"CYBCC.sol\":18620:18634  _decimals = 18 */\n  dup1\n  sload\n  not(0xff)\n  and\n    /* \"CYBCC.sol\":18632:18634  18 */\n  0x12\n    /* \"CYBCC.sol\":18620:18634  _decimals = 18 */\n  swap1\n  dup2\n  or\n  dup3\n  sstore\n    /* \"CYBCC.sol\":18668:18690  10**uint256(_decimals) */\n  tag_9\n  swap3\n  pop\n    /* \"CYBCC.sol\":18632:18634  18 */\n  swap1\n    /* \"CYBCC.sol\":18668:18690  10**uint256(_decimals) */\n  tag_10\n  jump\t// in\ntag_9:\n    /* \"CYBCC.sol\":18655:18690  1000000000 * 10**uint256(_decimals) */\n  tag_11\n  swap1\n    /* \"CYBCC.sol\":18655:18665  1000000000 */\n  0x3b9aca00\n    /* \"CYBCC.sol\":18655:18690  1000000000 * 10**uint256(_decimals) */\n  tag_12\n  jump\t// in\ntag_11:\n    /* \"CYBCC.sol\":18645:18652  _tTotal */\n  0x0b\n    /* \"CYBCC.sol\":18645:18690  _tTotal = 1000000000 * 10**uint256(_decimals) */\n  dup2\n  swap1\n  sstore\n    /* \"CYBCC.sol\":18719:18732  MAX % _tTotal */\n  tag_13\n  swap1\n  not(0x00)\n  tag_14\n  jump\t// in\ntag_13:\n    /* \"CYBCC.sol\":18712:18733  MAX - (MAX % _tTotal) */\n  tag_15\n  swap1\n  not(0x00)\n  tag_16\n  jump\t// in\ntag_15:\n    /* \"CYBCC.sol\":18701:18708  _rTotal */\n  0x0c\n    /* \"CYBCC.sol\":18701:18734  _rTotal = (MAX - (MAX % _tTotal)) */\n  sstore\n    /* \"CYBCC.sol\":18762:18763  2 */\n  0x02\n    /* \"CYBCC.sol\":18745:18759  _reflectionFee */\n  0x0e\n    /* \"CYBCC.sol\":18745:18763  _reflectionFee = 2 */\n  dup2\n  swap1\n  sstore\n    /* \"CYBCC.sol\":18774:18796  _previousReflectionFee */\n  0x0f\n    /* \"CYBCC.sol\":18774:18813  _previousReflectionFee = _reflectionFee */\n  sstore\n    /* \"CYBCC.sol\":18834:18835  1 */\n  0x01\n    /* \"CYBCC.sol\":18824:18831  _taxFee */\n  0x10\n    /* \"CYBCC.sol\":18824:18835  _taxFee = 1 */\n  dup2\n  swap1\n  sstore\n    /* \"CYBCC.sol\":18846:18861  _previousTaxFee */\n  0x11\n    /* \"CYBCC.sol\":18846:18871  _previousTaxFee = _taxFee */\n  sstore\n    /* \"CYBCC.sol\":18916:18922  _owner */\n  sload(0x0a)\n    /* \"CYBCC.sol\":18882:18913  _marketingAndDevelopmentAccount */\n  0x12\n    /* \"CYBCC.sol\":18882:18922  _marketingAndDevelopmentAccount = _owner */\n  dup1\n  sload\n    /* \"CYBCC.sol\":18916:18922  _owner */\n  0x0100\n  swap1\n  swap3\n  div\n  sub(shl(0xa0, 0x01), 0x01)\n  and\n  not(sub(shl(0xa0, 0x01), 0x01))\n    /* \"CYBCC.sol\":18882:18922  _marketingAndDevelopmentAccount = _owner */\n  swap1\n  swap3\n  and\n  swap2\n  swap1\n  swap2\n  or\n  swap1\n  sstore\n    /* \"CYBCC.sol\":18956:18963  _tTotal */\n  sload(0x0b)\n    /* \"CYBCC.sol\":18956:18969  _tTotal / 100 */\n  tag_17\n  swap1\n    /* \"CYBCC.sol\":18966:18969  100 */\n  0x64\n  swap1\n    /* \"CYBCC.sol\":18956:18969  _tTotal / 100 */\n  tag_18\n  jump\t// in\ntag_17:\n    /* \"CYBCC.sol\":18951:18970  2 * (_tTotal / 100) */\n  tag_19\n  swap1\n    /* \"CYBCC.sol\":18951:18952  2 */\n  0x02\n    /* \"CYBCC.sol\":18951:18970  2 * (_tTotal / 100) */\n  tag_12\n  jump\t// in\ntag_19:\n    /* \"CYBCC.sol\":18933:18948  maxWalletAmount */\n  0x14\n    /* \"CYBCC.sol\":18933:18970  maxWalletAmount = 2 * (_tTotal / 100) */\n  sstore\n    /* \"CYBCC.sol\":19011:19015  true */\n  0x01\n    /* \"CYBCC.sol\":18981:18999  _isExcludedFromFee */\n  0x07\n    /* \"CYBCC.sol\":18981:19008  _isExcludedFromFee[owner()] */\n  0x00\n    /* \"CYBCC.sol\":19000:19007  owner() */\n  tag_20\n    /* \"CYBCC.sol\":19328:19334  _owner */\n  sload(0x0a)\n  0x0100\n  swap1\n  div\n  sub(shl(0xa0, 0x01), 0x01)\n  and\n  swap1\n    /* \"CYBCC.sol\":19256:19341  function owner() public view virtual returns (address) {... */\n  jump\n    /* \"CYBCC.sol\":19000:19007  owner() */\ntag_20:\n  sub(shl(0xa0, 0x01), 0x01)\n    /* \"CYBCC.sol\":18981:19008  _isExcludedFromFee[owner()] */\n  swap1\n  dup2\n  and\n  dup3\n  mstore\n  0x20\n  dup1\n  dup4\n  add\n  swap4\n  swap1\n  swap4\n  mstore\n  0x40\n  swap2\n  dup3\n  add\n  0x00\n  swap1\n  dup2\n  keccak256\n    /* \"CYBCC.sol\":18981:19015  _isExcludedFromFee[owner()] = true */\n  dup1\n  sload\n  swap6\n  iszero\n  iszero\n  not(0xff)\n  swap7\n  dup8\n  and\n  or\n  swap1\n  sstore\n    /* \"CYBCC.sol\":19045:19076  _marketingAndDevelopmentAccount */\n  sload(0x12)\n  dup3\n  and\n    /* \"CYBCC.sol\":19026:19077  _isExcludedFromFee[_marketingAndDevelopmentAccount] */\n  dup2\n  mstore\n    /* \"CYBCC.sol\":19026:19044  _isExcludedFromFee */\n  0x07\n    /* \"CYBCC.sol\":19026:19077  _isExcludedFromFee[_marketingAndDevelopmentAccount] */\n  dup5\n  mstore\n  dup3\n  dup2\n  keccak256\n    /* \"CYBCC.sol\":19026:19084  _isExcludedFromFee[_marketingAndDevelopmentAccount] = true */\n  dup1\n  sload\n  dup7\n  and\n    /* \"CYBCC.sol\":18981:19015  _isExcludedFromFee[owner()] = true */\n  0x01\n    /* \"CYBCC.sol\":19026:19084  _isExcludedFromFee[_marketingAndDevelopmentAccount] = true */\n  swap1\n  dup2\n  or\n  swap1\n  swap2\n  sstore\n    /* \"CYBCC.sol\":19122:19126  this */\n  address\n    /* \"CYBCC.sol\":19095:19128  _isExcludedFromFee[address(this)] */\n  dup3\n  mstore\n  dup4\n  dup3\n  keccak256\n    /* \"CYBCC.sol\":19095:19135  _isExcludedFromFee[address(this)] = true */\n  dup1\n  sload\n  swap1\n  swap7\n  and\n  or\n  swap1\n  swap5\n  sstore\n    /* \"CYBCC.sol\":19164:19171  _rTotal */\n  sload(0x0c)\n    /* \"CYBCC.sol\":19154:19160  _owner */\n  sload(0x0a)\n    /* \"CYBCC.sol\":18981:19015  _isExcludedFromFee[owner()] = true */\n  0x0100\n    /* \"CYBCC.sol\":19154:19160  _owner */\n  swap1\n  div\n  swap1\n  swap2\n  and\n    /* \"CYBCC.sol\":19146:19161  _rOwned[_owner] */\n  dup5\n  mstore\n    /* \"CYBCC.sol\":19146:19153  _rOwned */\n  0x05\n    /* \"CYBCC.sol\":19146:19161  _rOwned[_owner] */\n  swap1\n  swap3\n  mstore\n  swap1\n  swap2\n  keccak256\n    /* \"CYBCC.sol\":19146:19171  _rOwned[_owner] = _rTotal */\n  dup2\n  swap1\n  sstore\n    /* \"CYBCC.sol\":19182:19208  _mint(msg.sender, _rTotal) */\n  tag_22\n  swap1\n    /* \"CYBCC.sol\":19188:19198  msg.sender */\n  caller\n  swap1\n    /* \"CYBCC.sol\":19182:19187  _mint */\n  tag_23\n    /* \"CYBCC.sol\":19182:19208  _mint(msg.sender, _rTotal) */\n  jump\t// in\ntag_22:\n    /* \"CYBCC.sol\":17775:30342  contract CYBCC is ERC20 {... */\n  jump(tag_53)\n    /* \"CYBCC.sol\":14115:14323  function _mint(address account, uint256 value) internal {... */\ntag_23:\n  sub(shl(0xa0, 0x01), 0x01)\n    /* \"CYBCC.sol\":14185:14206  account == address(0) */\n  dup3\n  and\n    /* \"CYBCC.sol\":14181:14272  if (account == address(0)) {... */\n  tag_27\n  jumpi\n    /* \"CYBCC.sol\":14229:14261  ERC20InvalidReceiver(address(0)) */\n  mload(0x40)\n  shl(0xe0, 0xec442f05)\n  dup2\n  mstore\n    /* \"CYBCC.sol\":14258:14259  0 */\n  0x00\n    /* \"CYBCC.sol\":14229:14261  ERC20InvalidReceiver(address(0)) */\n  0x04\n  dup3\n  add\n    /* \"#utility.yul\":5036:5087   */\n  mstore\n    /* \"#utility.yul\":5009:5027   */\n  0x24\n  add\n    /* \"CYBCC.sol\":14229:14261  ERC20InvalidReceiver(address(0)) */\ntag_28:\n  mload(0x40)\n  dup1\n  swap2\n  sub\n  swap1\n  revert\n    /* \"CYBCC.sol\":14181:14272  if (account == address(0)) {... */\ntag_27:\n    /* \"CYBCC.sol\":14281:14316  _update(address(0), account, value) */\n  tag_30\n    /* \"CYBCC.sol\":14297:14298  0 */\n  0x00\n    /* \"CYBCC.sol\":14301:14308  account */\n  dup4\n    /* \"CYBCC.sol\":14310:14315  value */\n  dup4\n    /* \"CYBCC.sol\":14281:14288  _update */\n  tag_31\n    /* \"CYBCC.sol\":14281:14316  _update(address(0), account, value) */\n  jump\t// in\ntag_30:\n    /* \"CYBCC.sol\":14115:14323  function _mint(address account, uint256 value) internal {... */\n  pop\n  pop\n  jump\t// out\n    /* \"CYBCC.sol\":12635:13772  function _update(... */\ntag_31:\n  sub(shl(0xa0, 0x01), 0x01)\n    /* \"CYBCC.sol\":12754:12772  from == address(0) */\n  dup4\n  and\n    /* \"CYBCC.sol\":12750:13290  if (from == address(0)) {... */\n  tag_33\n  jumpi\n    /* \"CYBCC.sol\":12906:12911  value */\n  dup1\n    /* \"CYBCC.sol\":12890:12902  _totalSupply */\n  0x02\n  0x00\n    /* \"CYBCC.sol\":12890:12911  _totalSupply += value */\n  dup3\n  dup3\n  sload\n  tag_34\n  swap2\n  swap1\n  tag_35\n  jump\t// in\ntag_34:\n  swap1\n  swap2\n  sstore\n  pop\n    /* \"CYBCC.sol\":12750:13290  if (from == address(0)) {... */\n  tag_36\n  swap1\n  pop\n  jump\ntag_33:\n  sub(shl(0xa0, 0x01), 0x01)\n    /* \"CYBCC.sol\":12964:12979  _balances[from] */\n  dup4\n  and\n    /* \"CYBCC.sol\":12942:12961  uint256 fromBalance */\n  0x00\n    /* \"CYBCC.sol\":12964:12979  _balances[from] */\n  swap1\n  dup2\n  mstore\n  0x20\n  dup2\n  swap1\n  mstore\n  0x40\n  swap1\n  keccak256\n  sload\n    /* \"CYBCC.sol\":12997:13016  fromBalance < value */\n  dup2\n  dup2\n  lt\n    /* \"CYBCC.sol\":12993:13108  if (fromBalance < value) {... */\n  iszero\n  tag_37\n  jumpi\n    /* \"CYBCC.sol\":13043:13093  ERC20InsufficientBalance(from, fromBalance, value) */\n  mload(0x40)\n  shl(0xe2, 0x391434e3)\n  dup2\n  mstore\n  sub(shl(0xa0, 0x01), 0x01)\n    /* \"#utility.yul\":5448:5480   */\n  dup6\n  and\n    /* \"CYBCC.sol\":13043:13093  ERC20InsufficientBalance(from, fromBalance, value) */\n  0x04\n  dup3\n  add\n    /* \"#utility.yul\":5430:5481   */\n  mstore\n    /* \"#utility.yul\":5497:5515   */\n  0x24\n  dup2\n  add\n    /* \"#utility.yul\":5490:5524   */\n  dup3\n  swap1\n  mstore\n    /* \"#utility.yul\":5540:5558   */\n  0x44\n  dup2\n  add\n    /* \"#utility.yul\":5533:5567   */\n  dup4\n  swap1\n  mstore\n    /* \"#utility.yul\":5403:5421   */\n  0x64\n  add\n    /* \"CYBCC.sol\":13043:13093  ERC20InsufficientBalance(from, fromBalance, value) */\n  tag_28\n    /* \"#utility.yul\":5228:5573   */\n  jump\n    /* \"CYBCC.sol\":12993:13108  if (fromBalance < value) {... */\ntag_37:\n  sub(shl(0xa0, 0x01), 0x01)\n    /* \"CYBCC.sol\":13228:13243  _balances[from] */\n  dup5\n  and\n    /* \"CYBCC.sol\":13228:13237  _balances */\n  0x00\n    /* \"CYBCC.sol\":13228:13243  _balances[from] */\n  swap1\n  dup2\n  mstore\n  0x20\n  dup2\n  swap1\n  mstore\n  0x40\n  swap1\n  keccak256\n    /* \"CYBCC.sol\":13246:13265  fromBalance - value */\n  swap1\n  dup3\n  swap1\n  sub\n    /* \"CYBCC.sol\":13228:13265  _balances[from] = fromBalance - value */\n  swap1\n  sstore\n    /* \"CYBCC.sol\":12750:13290  if (from == address(0)) {... */\ntag_36:\n  sub(shl(0xa0, 0x01), 0x01)\n    /* \"CYBCC.sol\":13304:13320  to == address(0) */\n  dup3\n  and\n    /* \"CYBCC.sol\":13300:13725  if (to == address(0)) {... */\n  tag_40\n  jumpi\n    /* \"CYBCC.sol\":13467:13479  _totalSupply */\n  0x02\n    /* \"CYBCC.sol\":13467:13488  _totalSupply -= value */\n  dup1\n  sload\n  dup3\n  swap1\n  sub\n  swap1\n  sstore\n    /* \"CYBCC.sol\":13300:13725  if (to == address(0)) {... */\n  jump(tag_41)\ntag_40:\n  sub(shl(0xa0, 0x01), 0x01)\n    /* \"CYBCC.sol\":13678:13691  _balances[to] */\n  dup3\n  and\n    /* \"CYBCC.sol\":13678:13687  _balances */\n  0x00\n    /* \"CYBCC.sol\":13678:13691  _balances[to] */\n  swap1\n  dup2\n  mstore\n  0x20\n  dup2\n  swap1\n  mstore\n  0x40\n  swap1\n  keccak256\n    /* \"CYBCC.sol\":13678:13700  _balances[to] += value */\n  dup1\n  sload\n  dup3\n  add\n  swap1\n  sstore\n    /* \"CYBCC.sol\":13300:13725  if (to == address(0)) {... */\ntag_41:\n    /* \"CYBCC.sol\":13755:13757  to */\n  dup2\n  sub(shl(0xa0, 0x01), 0x01)\n    /* \"CYBCC.sol\":13740:13765  Transfer(from, to, value) */\n  and\n    /* \"CYBCC.sol\":13749:13753  from */\n  dup4\n  sub(shl(0xa0, 0x01), 0x01)\n    /* \"CYBCC.sol\":13740:13765  Transfer(from, to, value) */\n  and\n  0xddf252ad1be2c89b69c2b068fc378daa952ba7f163c4a11628f55a4df523b3ef\n    /* \"CYBCC.sol\":13759:13764  value */\n  dup4\n    /* \"CYBCC.sol\":13740:13765  Transfer(from, to, value) */\n  mload(0x40)\n  tag_42\n  swap2\n    /* \"#utility.yul\":5724:5749   */\n  dup2\n  mstore\n    /* \"#utility.yul\":5712:5714   */\n  0x20\n    /* \"#utility.yul\":5697:5715   */\n  add\n  swap1\n    /* \"#utility.yul\":5578:5755   */\n  jump\n    /* \"CYBCC.sol\":13740:13765  Transfer(from, to, value) */\ntag_42:\n  mload(0x40)\n  dup1\n  swap2\n  sub\n  swap1\n  log3\n    /* \"CYBCC.sol\":12635:13772  function _update(... */\n  pop\n  pop\n  pop\n  jump\t// out\n    /* \"#utility.yul\":14:141   */\ntag_44:\n    /* \"#utility.yul\":75:85   */\n  0x4e487b71\n    /* \"#utility.yul\":70:73   */\n  0xe0\n    /* \"#utility.yul\":66:86   */\n  shl\n    /* \"#utility.yul\":63:64   */\n  0x00\n    /* \"#utility.yul\":56:87   */\n  mstore\n    /* \"#utility.yul\":106:110   */\n  0x41\n    /* \"#utility.yul\":103:104   */\n  0x04\n    /* \"#utility.yul\":96:111   */\n  mstore\n    /* \"#utility.yul\":130:134   */\n  0x24\n    /* \"#utility.yul\":127:128   */\n  0x00\n    /* \"#utility.yul\":120:135   */\n  revert\n    /* \"#utility.yul\":146:526   */\ntag_45:\n    /* \"#utility.yul\":225:226   */\n  0x01\n    /* \"#utility.yul\":221:233   */\n  dup2\n  dup2\n  shr\n  swap1\n    /* \"#utility.yul\":268:280   */\n  dup3\n  and\n  dup1\n    /* \"#utility.yul\":289:350   */\n  tag_56\n  jumpi\n    /* \"#utility.yul\":343:347   */\n  0x7f\n    /* \"#utility.yul\":335:341   */\n  dup3\n    /* \"#utility.yul\":331:348   */\n  and\n    /* \"#utility.yul\":321:348   */\n  swap2\n  pop\n    /* \"#utility.yul\":289:350   */\ntag_56:\n    /* \"#utility.yul\":396:398   */\n  0x20\n    /* \"#utility.yul\":388:394   */\n  dup3\n    /* \"#utility.yul\":385:399   */\n  lt\n    /* \"#utility.yul\":365:383   */\n  dup2\n    /* \"#utility.yul\":362:400   */\n  sub\n    /* \"#utility.yul\":359:520   */\n  tag_57\n  jumpi\n    /* \"#utility.yul\":442:452   */\n  0x4e487b71\n    /* \"#utility.yul\":437:440   */\n  0xe0\n    /* \"#utility.yul\":433:453   */\n  shl\n    /* \"#utility.yul\":430:431   */\n  0x00\n    /* \"#utility.yul\":423:454   */\n  mstore\n    /* \"#utility.yul\":477:481   */\n  0x22\n    /* \"#utility.yul\":474:475   */\n  0x04\n    /* \"#utility.yul\":467:482   */\n  mstore\n    /* \"#utility.yul\":505:509   */\n  0x24\n    /* \"#utility.yul\":502:503   */\n  0x00\n    /* \"#utility.yul\":495:510   */\n  revert\n    /* \"#utility.yul\":359:520   */\ntag_57:\n  pop\n    /* \"#utility.yul\":146:526   */\n  swap2\n  swap1\n  pop\n  jump\t// out\n    /* \"#utility.yul\":657:1175   */\ntag_47:\n    /* \"#utility.yul\":759:761   */\n  0x1f\n    /* \"#utility.yul\":754:757   */\n  dup3\n    /* \"#utility.yul\":751:762   */\n  gt\n    /* \"#utility.yul\":748:1169   */\n  iszero\n  tag_60\n  jumpi\n    /* \"#utility.yul\":795:800   */\n  dup1\n    /* \"#utility.yul\":792:793   */\n  0x00\n    /* \"#utility.yul\":785:801   */\n  mstore\n    /* \"#utility.yul\":839:843   */\n  0x20\n    /* \"#utility.yul\":836:837   */\n  0x00\n    /* \"#utility.yul\":826:844   */\n  keccak256\n    /* \"#utility.yul\":909:911   */\n  0x1f\n    /* \"#utility.yul\":897:907   */\n  dup5\n    /* \"#utility.yul\":893:912   */\n  add\n    /* \"#utility.yul\":890:891   */\n  0x05\n    /* \"#utility.yul\":886:913   */\n  shr\n    /* \"#utility.yul\":880:884   */\n  dup2\n    /* \"#utility.yul\":876:914   */\n  add\n    /* \"#utility.yul\":945:949   */\n  0x20\n    /* \"#utility.yul\":933:943   */\n  dup6\n    /* \"#utility.yul\":930:950   */\n  lt\n    /* \"#utility.yul\":927:974   */\n  iszero\n  tag_61\n  jumpi\n  pop\n    /* \"#utility.yul\":968:972   */\n  dup1\n    /* \"#utility.yul\":927:974   */\ntag_61:\n    /* \"#utility.yul\":1023:1025   */\n  0x1f\n    /* \"#utility.yul\":1018:1021   */\n  dup5\n    /* \"#utility.yul\":1014:1026   */\n  add\n    /* \"#utility.yul\":1011:1012   */\n  0x05\n    /* \"#utility.yul\":1007:1027   */\n  shr\n    /* \"#utility.yul\":1001:1005   */\n  dup3\n    /* \"#utility.yul\":997:1028   */\n  add\n    /* \"#utility.yul\":987:1028   */\n  swap2\n  pop\n    /* \"#utility.yul\":1078:1159   */\ntag_62:\n    /* \"#utility.yul\":1096:1098   */\n  dup2\n    /* \"#utility.yul\":1089:1094   */\n  dup2\n    /* \"#utility.yul\":1086:1099   */\n  lt\n    /* \"#utility.yul\":1078:1159   */\n  iszero\n  tag_64\n  jumpi\n    /* \"#utility.yul\":1155:1156   */\n  0x00\n    /* \"#utility.yul\":1141:1157   */\n  dup2\n  sstore\n    /* \"#utility.yul\":1122:1123   */\n  0x01\n    /* \"#utility.yul\":1111:1124   */\n  add\n    /* \"#utility.yul\":1078:1159   */\n  jump(tag_62)\ntag_64:\n    /* \"#utility.yul\":1082:1085   */\n  pop\n  pop\n    /* \"#utility.yul\":748:1169   */\ntag_60:\n    /* \"#utility.yul\":657:1175   */\n  pop\n  pop\n  pop\n  jump\t// out\n    /* \"#utility.yul\":1351:2650   */\ntag_6:\n    /* \"#utility.yul\":1471:1481   */\n  dup2\n  mload\n  sub(shl(0x40, 0x01), 0x01)\n    /* \"#utility.yul\":1493:1523   */\n  dup2\n  gt\n    /* \"#utility.yul\":1490:1546   */\n  iszero\n  tag_68\n  jumpi\n    /* \"#utility.yul\":1526:1544   */\n  tag_68\n  tag_44\n  jump\t// in\ntag_68:\n    /* \"#utility.yul\":1555:1652   */\n  tag_69\n    /* \"#utility.yul\":1645:1651   */\n  dup2\n    /* \"#utility.yul\":1605:1643   */\n  tag_70\n    /* \"#utility.yul\":1637:1641   */\n  dup5\n    /* \"#utility.yul\":1631:1642   */\n  sload\n    /* \"#utility.yul\":1605:1643   */\n  tag_45\n  jump\t// in\ntag_70:\n    /* \"#utility.yul\":1599:1603   */\n  dup5\n    /* \"#utility.yul\":1555:1652   */\n  tag_47\n  jump\t// in\ntag_69:\n    /* \"#utility.yul\":1701:1705   */\n  0x20\n    /* \"#utility.yul\":1732:1734   */\n  0x1f\n    /* \"#utility.yul\":1721:1735   */\n  dup3\n  gt\n    /* \"#utility.yul\":1749:1750   */\n  0x01\n    /* \"#utility.yul\":1744:2393   */\n  dup2\n  eq\n  tag_72\n  jumpi\n    /* \"#utility.yul\":2437:2438   */\n  0x00\n    /* \"#utility.yul\":2454:2460   */\n  dup4\n    /* \"#utility.yul\":2451:2540   */\n  iszero\n  tag_73\n  jumpi\n  pop\n    /* \"#utility.yul\":2506:2525   */\n  dup5\n  dup3\n  add\n    /* \"#utility.yul\":2500:2526   */\n  mload\n    /* \"#utility.yul\":2451:2540   */\ntag_73:\n  not(0x00)\n    /* \"#utility.yul\":1308:1309   */\n  0x03\n    /* \"#utility.yul\":1304:1315   */\n  dup6\n  swap1\n  shl\n    /* \"#utility.yul\":1300:1324   */\n  shr\n    /* \"#utility.yul\":1296:1325   */\n  not\n    /* \"#utility.yul\":1286:1326   */\n  and\n    /* \"#utility.yul\":1332:1333   */\n  0x01\n    /* \"#utility.yul\":1328:1339   */\n  dup5\n  swap1\n  shl\n    /* \"#utility.yul\":1283:1340   */\n  or\n    /* \"#utility.yul\":2553:2634   */\n  dup5\n  sstore\n    /* \"#utility.yul\":1714:2644   */\n  jump(tag_64)\n    /* \"#utility.yul\":1744:2393   */\ntag_72:\n    /* \"#utility.yul\":604:605   */\n  0x00\n    /* \"#utility.yul\":597:611   */\n  dup5\n  dup2\n  mstore\n    /* \"#utility.yul\":641:645   */\n  0x20\n    /* \"#utility.yul\":628:646   */\n  dup2\n  keccak256\n  not(0x1f)\n    /* \"#utility.yul\":1780:1800   */\n  dup6\n  and\n  swap2\n    /* \"#utility.yul\":1898:2120   */\ntag_76:\n    /* \"#utility.yul\":1912:1919   */\n  dup3\n    /* \"#utility.yul\":1909:1910   */\n  dup2\n    /* \"#utility.yul\":1906:1920   */\n  lt\n    /* \"#utility.yul\":1898:2120   */\n  iszero\n  tag_78\n  jumpi\n    /* \"#utility.yul\":1994:2013   */\n  dup8\n  dup6\n  add\n    /* \"#utility.yul\":1988:2014   */\n  mload\n    /* \"#utility.yul\":1973:2015   */\n  dup3\n  sstore\n    /* \"#utility.yul\":2101:2105   */\n  0x20\n    /* \"#utility.yul\":2086:2106   */\n  swap5\n  dup6\n  add\n  swap5\n    /* \"#utility.yul\":2054:2055   */\n  0x01\n    /* \"#utility.yul\":2042:2056   */\n  swap1\n  swap3\n  add\n  swap2\n    /* \"#utility.yul\":1928:1940   */\n  add\n    /* \"#utility.yul\":1898:2120   */\n  jump(tag_76)\ntag_78:\n    /* \"#utility.yul\":1902:1905   */\n  pop\n    /* \"#utility.yul\":2148:2154   */\n  dup5\n    /* \"#utility.yul\":2139:2146   */\n  dup3\n    /* \"#utility.yul\":2136:2155   */\n  lt\n    /* \"#utility.yul\":2133:2334   */\n  iszero\n  tag_79\n  jumpi\n    /* \"#utility.yul\":2209:2228   */\n  dup7\n  dup5\n  add\n    /* \"#utility.yul\":2203:2229   */\n  mload\n  not(0x00)\n    /* \"#utility.yul\":2292:2293   */\n  0x03\n    /* \"#utility.yul\":2288:2302   */\n  dup8\n  swap1\n  shl\n    /* \"#utility.yul\":2304:2307   */\n  0xf8\n    /* \"#utility.yul\":2284:2308   */\n  and\n    /* \"#utility.yul\":2280:2317   */\n  shr\n    /* \"#utility.yul\":2276:2318   */\n  not\n    /* \"#utility.yul\":2261:2319   */\n  and\n    /* \"#utility.yul\":2246:2320   */\n  dup2\n  sstore\n    /* \"#utility.yul\":2133:2334   */\ntag_79:\n  pop\n  pop\n  pop\n  pop\n    /* \"#utility.yul\":2380:2381   */\n  0x01\n    /* \"#utility.yul\":2364:2378   */\n  swap1\n  dup2\n  shl\n    /* \"#utility.yul\":2360:2382   */\n  add\n    /* \"#utility.yul\":2347:2383   */\n  swap1\n  sstore\n  pop\n    /* \"#utility.yul\":1351:2650   */\n  jump\t// out\n    /* \"#utility.yul\":2655:2782   */\ntag_49:\n    /* \"#utility.yul\":2716:2726   */\n  0x4e487b71\n    /* \"#utility.yul\":2711:2714   */\n  0xe0\n    /* \"#utility.yul\":2707:2727   */\n  shl\n    /* \"#utility.yul\":2704:2705   */\n  0x00\n    /* \"#utility.yul\":2697:2728   */\n  mstore\n    /* \"#utility.yul\":2747:2751   */\n  0x11\n    /* \"#utility.yul\":2744:2745   */\n  0x04\n    /* \"#utility.yul\":2737:2752   */\n  mstore\n    /* \"#utility.yul\":2771:2775   */\n  0x24\n    /* \"#utility.yul\":2768:2769   */\n  0x00\n    /* \"#utility.yul\":2761:2776   */\n  revert\n    /* \"#utility.yul\":2787:3162   */\ntag_50:\n    /* \"#utility.yul\":2875:2876   */\n  0x01\n    /* \"#utility.yul\":2893:2898   */\n  dup2\n    /* \"#utility.yul\":2907:3156   */\ntag_82:\n    /* \"#utility.yul\":2928:2929   */\n  0x01\n    /* \"#utility.yul\":2918:2926   */\n  dup5\n    /* \"#utility.yul\":2915:2930   */\n  gt\n    /* \"#utility.yul\":2907:3156   */\n  iszero\n  tag_84\n  jumpi\n    /* \"#utility.yul\":2978:2982   */\n  dup1\n    /* \"#utility.yul\":2973:2976   */\n  dup6\n    /* \"#utility.yul\":2969:2983   */\n  div\n    /* \"#utility.yul\":2963:2967   */\n  dup2\n    /* \"#utility.yul\":2960:2984   */\n  gt\n    /* \"#utility.yul\":2957:3007   */\n  iszero\n  tag_86\n  jumpi\n    /* \"#utility.yul\":2987:3005   */\n  tag_86\n  tag_49\n  jump\t// in\ntag_86:\n    /* \"#utility.yul\":3037:3038   */\n  0x01\n    /* \"#utility.yul\":3027:3035   */\n  dup5\n    /* \"#utility.yul\":3023:3039   */\n  and\n    /* \"#utility.yul\":3020:3069   */\n  iszero\n  tag_87\n  jumpi\n    /* \"#utility.yul\":3051:3067   */\n  swap1\n  dup2\n  mul\n  swap1\n    /* \"#utility.yul\":3020:3069   */\ntag_87:\n    /* \"#utility.yul\":3134:3135   */\n  0x01\n    /* \"#utility.yul\":3130:3146   */\n  swap4\n  swap1\n  swap4\n  shr\n  swap3\n    /* \"#utility.yul\":3090:3105   */\n  dup1\n  mul\n    /* \"#utility.yul\":2907:3156   */\n  jump(tag_82)\ntag_84:\n    /* \"#utility.yul\":2787:3162   */\n  swap4\n  pop\n  swap4\n  swap2\n  pop\n  pop\n  jump\t// out\n    /* \"#utility.yul\":3167:4069   */\ntag_51:\n    /* \"#utility.yul\":3216:3221   */\n  0x00\n    /* \"#utility.yul\":3246:3254   */\n  dup3\n    /* \"#utility.yul\":3236:3316   */\n  tag_89\n  jumpi\n  pop\n    /* \"#utility.yul\":3287:3288   */\n  0x01\n    /* \"#utility.yul\":3301:3306   */\n  jump(tag_88)\n    /* \"#utility.yul\":3236:3316   */\ntag_89:\n    /* \"#utility.yul\":3335:3339   */\n  dup2\n    /* \"#utility.yul\":3325:3401   */\n  tag_90\n  jumpi\n  pop\n    /* \"#utility.yul\":3372:3373   */\n  0x00\n    /* \"#utility.yul\":3386:3391   */\n  jump(tag_88)\n    /* \"#utility.yul\":3325:3401   */\ntag_90:\n    /* \"#utility.yul\":3417:3421   */\n  dup2\n    /* \"#utility.yul\":3435:3436   */\n  0x01\n    /* \"#utility.yul\":3430:3489   */\n  dup2\n  eq\n  tag_92\n  jumpi\n    /* \"#utility.yul\":3503:3504   */\n  0x02\n    /* \"#utility.yul\":3498:3672   */\n  dup2\n  eq\n  tag_93\n  jumpi\n    /* \"#utility.yul\":3410:3672   */\n  jump(tag_91)\n    /* \"#utility.yul\":3430:3489   */\ntag_92:\n    /* \"#utility.yul\":3460:3461   */\n  0x01\n    /* \"#utility.yul\":3451:3461   */\n  swap2\n  pop\n    /* \"#utility.yul\":3474:3479   */\n  pop\n  jump(tag_88)\n    /* \"#utility.yul\":3498:3672   */\ntag_93:\n    /* \"#utility.yul\":3535:3538   */\n  0xff\n    /* \"#utility.yul\":3525:3533   */\n  dup5\n    /* \"#utility.yul\":3522:3539   */\n  gt\n    /* \"#utility.yul\":3519:3562   */\n  iszero\n  tag_95\n  jumpi\n    /* \"#utility.yul\":3542:3560   */\n  tag_95\n  tag_49\n  jump\t// in\ntag_95:\n  pop\n  pop\n    /* \"#utility.yul\":3598:3599   */\n  0x01\n    /* \"#utility.yul\":3584:3600   */\n  dup3\n  shl\n    /* \"#utility.yul\":3657:3662   */\n  jump(tag_88)\n    /* \"#utility.yul\":3410:3672   */\ntag_91:\n  pop\n    /* \"#utility.yul\":3756:3758   */\n  0x20\n    /* \"#utility.yul\":3746:3754   */\n  dup4\n    /* \"#utility.yul\":3743:3759   */\n  lt\n    /* \"#utility.yul\":3737:3740   */\n  0x0133\n    /* \"#utility.yul\":3731:3735   */\n  dup4\n    /* \"#utility.yul\":3728:3741   */\n  lt\n    /* \"#utility.yul\":3724:3760   */\n  and\n    /* \"#utility.yul\":3718:3720   */\n  0x4e\n    /* \"#utility.yul\":3708:3716   */\n  dup5\n    /* \"#utility.yul\":3705:3721   */\n  lt\n    /* \"#utility.yul\":3700:3702   */\n  0x0b\n    /* \"#utility.yul\":3694:3698   */\n  dup5\n    /* \"#utility.yul\":3691:3703   */\n  lt\n    /* \"#utility.yul\":3687:3722   */\n  and\n    /* \"#utility.yul\":3684:3761   */\n  or\n    /* \"#utility.yul\":3681:3884   */\n  iszero\n  tag_96\n  jumpi\n  pop\n    /* \"#utility.yul\":3793:3812   */\n  dup2\n  dup2\n  exp\n    /* \"#utility.yul\":3869:3874   */\n  jump(tag_88)\n    /* \"#utility.yul\":3681:3884   */\ntag_96:\n    /* \"#utility.yul\":3916:3958   */\n  tag_97\n  not(0x00)\n    /* \"#utility.yul\":3941:3949   */\n  dup5\n    /* \"#utility.yul\":3935:3939   */\n  dup5\n    /* \"#utility.yul\":3916:3958   */\n  tag_50\n  jump\t// in\ntag_97:\n    /* \"#utility.yul\":3994:4000   */\n  dup1\n    /* \"#utility.yul\":3990:3991   */\n  0x00\n    /* \"#utility.yul\":3986:3992   */\n  not\n    /* \"#utility.yul\":3982:4001   */\n  div\n    /* \"#utility.yul\":3973:3980   */\n  dup3\n    /* \"#utility.yul\":3970:4002   */\n  gt\n    /* \"#utility.yul\":3967:4025   */\n  iszero\n  tag_99\n  jumpi\n    /* \"#utility.yul\":4005:4023   */\n  tag_99\n  tag_49\n  jump\t// in\ntag_99:\n    /* \"#utility.yul\":4043:4063   */\n  mul\n  swap1\n  pop\n    /* \"#utility.yul\":3167:4069   */\ntag_88:\n  swap3\n  swap2\n  pop\n  pop\n  jump\t// out\n    /* \"#utility.yul\":4074:4205   */\ntag_10:\n    /* \"#utility.yul\":4134:4139   */\n  0x00\n    /* \"#utility.yul\":4163:4199   */\n  tag_101\n    /* \"#utility.yul\":4190:4198   */\n  dup4\n    /* \"#utility.yul\":4184:4188   */\n  dup4\n    /* \"#utility.yul\":4163:4199   */\n  tag_51\n  jump\t// in\ntag_101:\n    /* \"#utility.yul\":4154:4199   */\n  swap4\n    /* \"#utility.yul\":4074:4205   */\n  swap3\n  pop\n  pop\n  pop\n  jump\t// out\n    /* \"#utility.yul\":4210:4378   */\ntag_12:\n    /* \"#utility.yul\":4283:4292   */\n  dup1\n  dup3\n  mul\n    /* \"#utility.yul\":4314:4323   */\n  dup2\n  iszero\n    /* \"#utility.yul\":4331:4346   */\n  dup3\n  dup3\n  div\n    /* \"#utility.yul\":4325:4347   */\n  dup5\n  eq\n    /* \"#utility.yul\":4311:4348   */\n  or\n    /* \"#utility.yul\":4301:4372   */\n  tag_88\n  jumpi\n    /* \"#utility.yul\":4352:4370   */\n  tag_88\n  tag_49\n  jump\t// in\n    /* \"#utility.yul\":4383:4510   */\ntag_52:\n    /* \"#utility.yul\":4444:4454   */\n  0x4e487b71\n    /* \"#utility.yul\":4439:4442   */\n  0xe0\n    /* \"#utility.yul\":4435:4455   */\n  shl\n    /* \"#utility.yul\":4432:4433   */\n  0x00\n    /* \"#utility.yul\":4425:4456   */\n  mstore\n    /* \"#utility.yul\":4475:4479   */\n  0x12\n    /* \"#utility.yul\":4472:4473   */\n  0x04\n    /* \"#utility.yul\":4465:4480   */\n  mstore\n    /* \"#utility.yul\":4499:4503   */\n  0x24\n    /* \"#utility.yul\":4496:4497   */\n  0x00\n    /* \"#utility.yul\":4489:4504   */\n  revert\n    /* \"#utility.yul\":4515:4627   */\ntag_14:\n    /* \"#utility.yul\":4547:4548   */\n  0x00\n    /* \"#utility.yul\":4573:4574   */\n  dup3\n    /* \"#utility.yul\":4563:4598   */\n  tag_108\n  jumpi\n    /* \"#utility.yul\":4578:4596   */\n  tag_108\n  tag_52\n  jump\t// in\ntag_108:\n  pop\n    /* \"#utility.yul\":4612:4621   */\n  mod\n  swap1\n    /* \"#utility.yul\":4515:4627   */\n  jump\t// out\n    /* \"#utility.yul\":4632:4760   */\ntag_16:\n    /* \"#utility.yul\":4699:4708   */\n  dup2\n  dup2\n  sub\n    /* \"#utility.yul\":4720:4731   */\n  dup2\n  dup2\n  gt\n    /* \"#utility.yul\":4717:4754   */\n  iszero\n  tag_88\n  jumpi\n    /* \"#utility.yul\":4734:4752   */\n  tag_88\n  tag_49\n  jump\t// in\n    /* \"#utility.yul\":4765:4885   */\ntag_18:\n    /* \"#utility.yul\":4805:4806   */\n  0x00\n    /* \"#utility.yul\":4831:4832   */\n  dup3\n    /* \"#utility.yul\":4821:4856   */\n  tag_114\n  jumpi\n    /* \"#utility.yul\":4836:4854   */\n  tag_114\n  tag_52\n  jump\t// in\ntag_114:\n  pop\n    /* \"#utility.yul\":4870:4879   */\n  div\n  swap1\n    /* \"#utility.yul\":4765:4885   */\n  jump\t// out\n    /* \"#utility.yul\":5098:5223   */\ntag_35:\n    /* \"#utility.yul\":5163:5172   */\n  dup1\n  dup3\n  add\n    /* \"#utility.yul\":5184:5194   */\n  dup1\n  dup3\n  gt\n    /* \"#utility.yul\":5181:5217   */\n  iszero\n  tag_88\n  jumpi\n    /* \"#utility.yul\":5197:5215   */\n  tag_88\n  tag_49\n  jump\t// in\n    /* \"#utility.yul\":5578:5755   */\ntag_53:\n    /* \"CYBCC.sol\":17775:30342  contract CYBCC is ERC20 {... */\n  dataSize(sub_0)\n  dup1\n  dataOffset(sub_0)\n  0x00\n  codecopy\n  0x00\n  return\nstop\n\nsub_0: assembly {\n        /* \"CYBCC.sol\":17775:30342  contract CYBCC is ERC20 {... */\n      mstore(0x40, 0x80)\n      jumpi(tag_1, lt(calldatasize, 0x04))\n      shr(0xe0, calldataload(0x00))\n      dup1\n      0x70a08231\n      gt\n      tag_30\n      jumpi\n      dup1\n      0xa9059cbb\n      gt\n      tag_31\n      jumpi\n      dup1\n      0xdd62ed3e\n      gt\n      tag_32\n      jumpi\n      dup1\n      0xdd62ed3e\n      eq\n      tag_26\n      jumpi\n      dup1\n      0xf2fde38b\n      eq\n      tag_27\n      jumpi\n      dup1\n      0xf66608fe\n      eq\n      tag_28\n      jumpi\n      dup1\n      0xfdeb889f\n      eq\n      tag_29\n      jumpi\n      revert(0x00, 0x00)\n    tag_32:\n      dup1\n      0xa9059cbb\n      eq\n      tag_23\n      jumpi\n      dup1\n      0xcba0e996\n      eq\n      tag_24\n      jumpi\n      dup1\n      0xd12dc1c1\n      eq\n      tag_25\n      jumpi\n      revert(0x00, 0x00)\n    tag_31:\n      dup1\n      0x8873b15f\n      gt\n      tag_33\n      jumpi\n      dup1\n      0x8873b15f\n      eq\n      tag_19\n      jumpi\n      dup1\n      0x8da5cb5b\n      eq\n      tag_20\n      jumpi\n      dup1\n      0x95d89b41\n      eq\n      tag_21\n      jumpi\n      dup1\n      0xa8b08982\n      eq\n      tag_22\n      jumpi\n      revert(0x00, 0x00)\n    tag_33:\n      dup1\n      0x70a08231\n      eq\n      tag_16\n      jumpi\n      dup1\n      0x715018a6\n      eq\n      tag_17\n      jumpi\n      dup1\n      0x83ad7994\n      eq\n      tag_18\n      jumpi\n      revert(0x00, 0x00)\n    tag_30:\n      dup1\n      0x32035504\n      gt\n      tag_34\n      jumpi\n      dup1\n      0x5342acb4\n      gt\n      tag_35\n      jumpi\n      dup1\n      0x5342acb4\n      eq\n      tag_12\n      jumpi\n      dup1\n      0x5c7ffc88\n      eq\n      tag_13\n      jumpi\n      dup1\n      0x6049876e\n      eq\n      tag_14\n      jumpi\n      dup1\n      0x60c3ae84\n      eq\n      tag_15\n      jumpi\n      revert(0x00, 0x00)\n    tag_35:\n      dup1\n      0x32035504\n      eq\n      tag_9\n      jumpi\n      dup1\n      0x437823ec\n      eq\n      tag_10\n      jumpi\n      dup1\n      0x4549b039\n      eq\n      tag_11\n      jumpi\n      revert(0x00, 0x00)\n    tag_34:\n      dup1\n      0x053ab182\n      eq\n      tag_3\n      jumpi\n      dup1\n      0x06fdde03\n      eq\n      tag_4\n      jumpi\n      dup1\n      0x095ea7b3\n      eq\n      tag_5\n      jumpi\n      dup1\n      0x18160ddd\n      eq\n      tag_6\n      jumpi\n      dup1\n      0x23b872dd\n      eq\n      tag_7\n      jumpi\n      dup1\n      0x313ce567\n      eq\n      tag_8\n      jumpi\n      revert(0x00, 0x00)\n    tag_1:\n      jumpi(tag_2, calldatasize)\n      stop\n    tag_2:\n      revert(0x00, 0x00)\n        /* \"CYBCC.sol\":20803:21212  function reflect(uint256 tAmount) public {... */\n    tag_3:\n      callvalue\n      dup1\n      iszero\n      tag_38\n      jumpi\n      revert(0x00, 0x00)\n    tag_38:\n      pop\n      tag_39\n      tag_40\n      calldatasize\n      0x04\n      tag_41\n      jump\t// in\n    tag_40:\n      tag_42\n      jump\t// in\n    tag_39:\n      stop\n        /* \"CYBCC.sol\":8274:8363  function name() public view virtual returns (string memory) {... */\n    tag_4:\n      callvalue\n      dup1\n      iszero\n      tag_43\n      jumpi\n      revert(0x00, 0x00)\n    tag_43:\n      pop\n      tag_44\n      tag_45\n      jump\t// in\n    tag_44:\n      mload(0x40)\n      tag_46\n      swap2\n      swap1\n      tag_47\n      jump\t// in\n    tag_46:\n      mload(0x40)\n      dup1\n      swap2\n      sub\n      swap1\n      return\n        /* \"CYBCC.sol\":10529:10743  function approve(address spender, uint256 value)... */\n    tag_5:\n      callvalue\n      dup1\n      iszero\n      tag_48\n      jumpi\n      revert(0x00, 0x00)\n    tag_48:\n      pop\n      tag_49\n      tag_50\n      calldatasize\n      0x04\n      tag_51\n      jump\t// in\n    tag_50:\n      tag_52\n      jump\t// in\n    tag_49:\n      mload(0x40)\n        /* \"#utility.yul\":1316:1330   */\n      swap1\n      iszero\n        /* \"#utility.yul\":1309:1331   */\n      iszero\n        /* \"#utility.yul\":1291:1332   */\n      dup2\n      mstore\n        /* \"#utility.yul\":1279:1281   */\n      0x20\n        /* \"#utility.yul\":1264:1282   */\n      add\n        /* \"CYBCC.sol\":10529:10743  function approve(address spender, uint256 value)... */\n      tag_46\n        /* \"#utility.yul\":1151:1338   */\n      jump\n        /* \"CYBCC.sol\":19523:19624  function totalSupply() public view virtual override returns (uint256) {... */\n    tag_6:\n      callvalue\n      dup1\n      iszero\n      tag_55\n      jumpi\n      revert(0x00, 0x00)\n    tag_55:\n      pop\n        /* \"CYBCC.sol\":19610:19617  _tTotal */\n      sload(0x0b)\n        /* \"CYBCC.sol\":19523:19624  function totalSupply() public view virtual override returns (uint256) {... */\n    tag_56:\n      mload(0x40)\n        /* \"#utility.yul\":1489:1514   */\n      swap1\n      dup2\n      mstore\n        /* \"#utility.yul\":1477:1479   */\n      0x20\n        /* \"#utility.yul\":1462:1480   */\n      add\n        /* \"CYBCC.sol\":19523:19624  function totalSupply() public view virtual override returns (uint256) {... */\n      tag_46\n        /* \"#utility.yul\":1343:1520   */\n      jump\n        /* \"CYBCC.sol\":11335:11609  function transferFrom(... */\n    tag_7:\n      callvalue\n      dup1\n      iszero\n      tag_60\n      jumpi\n      revert(0x00, 0x00)\n    tag_60:\n      pop\n      tag_49\n      tag_62\n      calldatasize\n      0x04\n      tag_63\n      jump\t// in\n    tag_62:\n      tag_64\n      jump\t// in\n        /* \"CYBCC.sol\":19419:19517  function decimals() public view virtual override returns (uint8) {... */\n    tag_8:\n      callvalue\n      dup1\n      iszero\n      tag_66\n      jumpi\n      revert(0x00, 0x00)\n    tag_66:\n      pop\n        /* \"CYBCC.sol\":19501:19510  _decimals */\n      sload(0x0a)\n        /* \"CYBCC.sol\":19419:19517  function decimals() public view virtual override returns (uint8) {... */\n      mload(0x40)\n        /* \"CYBCC.sol\":19501:19510  _decimals */\n      0xff\n      swap1\n      swap2\n      and\n        /* \"#utility.yul\":2046:2082   */\n      dup2\n      mstore\n        /* \"#utility.yul\":2034:2036   */\n      0x20\n        /* \"#utility.yul\":2019:2037   */\n      add\n        /* \"CYBCC.sol\":19419:19517  function decimals() public view virtual override returns (uint8) {... */\n      tag_46\n        /* \"#utility.yul\":1904:2088   */\n      jump\n        /* \"CYBCC.sol\":20469:20567  function totalFeesRedistributed() public view returns (uint256) {... */\n    tag_9:\n      callvalue\n      dup1\n      iszero\n      tag_71\n      jumpi\n      revert(0x00, 0x00)\n    tag_71:\n      pop\n        /* \"CYBCC.sol\":20550:20560  _tFeeTotal */\n      sload(0x0d)\n        /* \"CYBCC.sol\":20469:20567  function totalFeesRedistributed() public view returns (uint256) {... */\n      jump(tag_56)\n        /* \"CYBCC.sol\":20573:20682  function excludeFromFee(address account) public onlyOwner {... */\n    tag_10:\n      callvalue\n      dup1\n      iszero\n      tag_75\n      jumpi\n      revert(0x00, 0x00)\n    tag_75:\n      pop\n      tag_39\n      tag_77\n      calldatasize\n      0x04\n      tag_78\n      jump\t// in\n    tag_77:\n      tag_79\n      jump\t// in\n        /* \"CYBCC.sol\":21218:21695  function reflectionFromToken(uint256 tAmount, bool deductTransferFee)... */\n    tag_11:\n      callvalue\n      dup1\n      iszero\n      tag_80\n      jumpi\n      revert(0x00, 0x00)\n    tag_80:\n      pop\n      tag_56\n      tag_82\n      calldatasize\n      0x04\n      tag_83\n      jump\t// in\n    tag_82:\n      tag_84\n      jump\t// in\n        /* \"CYBCC.sol\":19953:20075  function isExcludedFromFee(address account) public view returns (bool) {... */\n    tag_12:\n      callvalue\n      dup1\n      iszero\n      tag_86\n      jumpi\n      revert(0x00, 0x00)\n    tag_86:\n      pop\n      tag_49\n      tag_88\n      calldatasize\n      0x04\n      tag_78\n      jump\t// in\n    tag_88:\n      sub(shl(0xa0, 0x01), 0x01)\n        /* \"CYBCC.sol\":20041:20068  _isExcludedFromFee[account] */\n      and\n        /* \"CYBCC.sol\":20018:20022  bool */\n      0x00\n        /* \"CYBCC.sol\":20041:20068  _isExcludedFromFee[account] */\n      swap1\n      dup2\n      mstore\n        /* \"CYBCC.sol\":20041:20059  _isExcludedFromFee */\n      0x07\n        /* \"CYBCC.sol\":20041:20068  _isExcludedFromFee[account] */\n      0x20\n      mstore\n      0x40\n      swap1\n      keccak256\n      sload\n      0xff\n      and\n      swap1\n        /* \"CYBCC.sol\":19953:20075  function isExcludedFromFee(address account) public view returns (bool) {... */\n      jump\n        /* \"CYBCC.sol\":22841:22918  function enableAntiWhale() public onlyOwner {... */\n    tag_13:\n      callvalue\n      dup1\n      iszero\n      tag_91\n      jumpi\n      revert(0x00, 0x00)\n    tag_91:\n      pop\n      tag_39\n      tag_93\n      jump\t// in\n        /* \"CYBCC.sol\":22018:22353  function excludeAccountFromReward(address account) public onlyOwner {... */\n    tag_14:\n      callvalue\n      dup1\n      iszero\n      tag_94\n      jumpi\n      revert(0x00, 0x00)\n    tag_94:\n      pop\n      tag_39\n      tag_96\n      calldatasize\n      0x04\n      tag_78\n      jump\t// in\n    tag_96:\n      tag_97\n      jump\t// in\n        /* \"CYBCC.sol\":22924:23002  function disbleAntiWhale() public onlyOwner {... */\n    tag_15:\n      callvalue\n      dup1\n      iszero\n      tag_98\n      jumpi\n      revert(0x00, 0x00)\n    tag_98:\n      pop\n      tag_39\n      tag_100\n      jump\t// in\n        /* \"CYBCC.sol\":20081:20349  function balanceOf(address sender)... */\n    tag_16:\n      callvalue\n      dup1\n      iszero\n      tag_101\n      jumpi\n      revert(0x00, 0x00)\n    tag_101:\n      pop\n      tag_56\n      tag_103\n      calldatasize\n      0x04\n      tag_78\n      jump\t// in\n    tag_103:\n      tag_104\n      jump\t// in\n        /* \"CYBCC.sol\":29605:29747  function renounceOwnership() public onlyOwner {... */\n    tag_17:\n      callvalue\n      dup1\n      iszero\n      tag_106\n      jumpi\n      revert(0x00, 0x00)\n    tag_106:\n      pop\n      tag_39\n      tag_108\n      jump\t// in\n        /* \"CYBCC.sol\":19630:19723  function reflectionFee() public view returns (uint256) {... */\n    tag_18:\n      callvalue\n      dup1\n      iszero\n      tag_109\n      jumpi\n      revert(0x00, 0x00)\n    tag_109:\n      pop\n        /* \"CYBCC.sol\":19702:19716  _reflectionFee */\n      sload(0x0e)\n        /* \"CYBCC.sol\":19630:19723  function reflectionFee() public view returns (uint256) {... */\n      jump(tag_56)\n        /* \"CYBCC.sol\":20688:20797  function changePairAddress(address _pairAddress) public onlyOwner {... */\n    tag_19:\n      callvalue\n      dup1\n      iszero\n      tag_113\n      jumpi\n      revert(0x00, 0x00)\n    tag_113:\n      pop\n      tag_39\n      tag_115\n      calldatasize\n      0x04\n      tag_78\n      jump\t// in\n    tag_115:\n      tag_116\n      jump\t// in\n        /* \"CYBCC.sol\":19256:19341  function owner() public view virtual returns (address) {... */\n    tag_20:\n      callvalue\n      dup1\n      iszero\n      tag_117\n      jumpi\n      revert(0x00, 0x00)\n    tag_117:\n      pop\n        /* \"CYBCC.sol\":19328:19334  _owner */\n      sload(0x0a)\n      0x0100\n      swap1\n      div\n      sub(shl(0xa0, 0x01), 0x01)\n      and\n        /* \"CYBCC.sol\":19256:19341  function owner() public view virtual returns (address) {... */\n    tag_118:\n      mload(0x40)\n      sub(shl(0xa0, 0x01), 0x01)\n        /* \"#utility.yul\":2848:2880   */\n      swap1\n      swap2\n      and\n        /* \"#utility.yul\":2830:2881   */\n      dup2\n      mstore\n        /* \"#utility.yul\":2818:2820   */\n      0x20\n        /* \"#utility.yul\":2803:2821   */\n      add\n        /* \"CYBCC.sol\":19256:19341  function owner() public view virtual returns (address) {... */\n      tag_46\n        /* \"#utility.yul\":2684:2887   */\n      jump\n        /* \"CYBCC.sol\":8476:8569  function symbol() public view virtual returns (string memory) {... */\n    tag_21:\n      callvalue\n      dup1\n      iszero\n      tag_122\n      jumpi\n      revert(0x00, 0x00)\n    tag_122:\n      pop\n      tag_44\n      tag_124\n      jump\t// in\n        /* \"CYBCC.sol\":18470:18496  address public pairAddress */\n    tag_22:\n      callvalue\n      dup1\n      iszero\n      tag_126\n      jumpi\n      revert(0x00, 0x00)\n    tag_126:\n      pop\n      sload(0x13)\n      tag_118\n      swap1\n      sub(shl(0xa0, 0x01), 0x01)\n      and\n      dup2\n      jump\n        /* \"CYBCC.sol\":9810:9988  function transfer(address to, uint256 value) public virtual returns (bool) {... */\n    tag_23:\n      callvalue\n      dup1\n      iszero\n      tag_130\n      jumpi\n      revert(0x00, 0x00)\n    tag_130:\n      pop\n      tag_49\n      tag_132\n      calldatasize\n      0x04\n      tag_51\n      jump\t// in\n    tag_132:\n      tag_133\n      jump\t// in\n        /* \"CYBCC.sol\":20355:20463  function isExcluded(address account) public view returns (bool) {... */\n    tag_24:\n      callvalue\n      dup1\n      iszero\n      tag_135\n      jumpi\n      revert(0x00, 0x00)\n    tag_135:\n      pop\n      tag_49\n      tag_137\n      calldatasize\n      0x04\n      tag_78\n      jump\t// in\n    tag_137:\n      sub(shl(0xa0, 0x01), 0x01)\n        /* \"CYBCC.sol\":20436:20456  _isExcluded[account] */\n      and\n        /* \"CYBCC.sol\":20413:20417  bool */\n      0x00\n        /* \"CYBCC.sol\":20436:20456  _isExcluded[account] */\n      swap1\n      dup2\n      mstore\n        /* \"CYBCC.sol\":20436:20447  _isExcluded */\n      0x08\n        /* \"CYBCC.sol\":20436:20456  _isExcluded[account] */\n      0x20\n      mstore\n      0x40\n      swap1\n      keccak256\n      sload\n      0xff\n      and\n      swap1\n        /* \"CYBCC.sol\":20355:20463  function isExcluded(address account) public view returns (bool) {... */\n      jump\n        /* \"CYBCC.sol\":19817:19947  function getMarketingAndDevelopmentAccount() public view returns (address) {... */\n    tag_25:\n      callvalue\n      dup1\n      iszero\n      tag_140\n      jumpi\n      revert(0x00, 0x00)\n    tag_140:\n      pop\n        /* \"CYBCC.sol\":19909:19940  _marketingAndDevelopmentAccount */\n      and(sub(shl(0xa0, 0x01), 0x01), sload(0x12))\n        /* \"CYBCC.sol\":19817:19947  function getMarketingAndDevelopmentAccount() public view returns (address) {... */\n      jump(tag_118)\n        /* \"CYBCC.sol\":10046:10222  function allowance(address owner, address spender)... */\n    tag_26:\n      callvalue\n      dup1\n      iszero\n      tag_144\n      jumpi\n      revert(0x00, 0x00)\n    tag_144:\n      pop\n      tag_56\n      tag_146\n      calldatasize\n      0x04\n      tag_147\n      jump\t// in\n    tag_146:\n      sub(shl(0xa0, 0x01), 0x01)\n        /* \"CYBCC.sol\":10188:10206  _allowances[owner] */\n      swap2\n      dup3\n      and\n        /* \"CYBCC.sol\":10158:10165  uint256 */\n      0x00\n        /* \"CYBCC.sol\":10188:10206  _allowances[owner] */\n      swap1\n      dup2\n      mstore\n        /* \"CYBCC.sol\":10188:10199  _allowances */\n      0x01\n        /* \"CYBCC.sol\":10188:10206  _allowances[owner] */\n      0x20\n      swap1\n      dup2\n      mstore\n      0x40\n      dup1\n      dup4\n      keccak256\n        /* \"CYBCC.sol\":10188:10215  _allowances[owner][spender] */\n      swap4\n      swap1\n      swap5\n      and\n      dup3\n      mstore\n      swap2\n      swap1\n      swap2\n      mstore\n      keccak256\n      sload\n      swap1\n        /* \"CYBCC.sol\":10046:10222  function allowance(address owner, address spender)... */\n      jump\n        /* \"CYBCC.sol\":29753:29849  function transferOwnership(address newOwner) public onlyOwner {... */\n    tag_27:\n      callvalue\n      dup1\n      iszero\n      tag_150\n      jumpi\n      revert(0x00, 0x00)\n    tag_150:\n      pop\n      tag_39\n      tag_152\n      calldatasize\n      0x04\n      tag_78\n      jump\t// in\n    tag_152:\n      tag_153\n      jump\t// in\n        /* \"CYBCC.sol\":19729:19811  function getTaxFee() public view returns (uint256) {... */\n    tag_28:\n      callvalue\n      dup1\n      iszero\n      tag_154\n      jumpi\n      revert(0x00, 0x00)\n    tag_154:\n      pop\n        /* \"CYBCC.sol\":19797:19804  _taxFee */\n      sload(0x10)\n        /* \"CYBCC.sol\":19729:19811  function getTaxFee() public view returns (uint256) {... */\n      jump(tag_56)\n        /* \"CYBCC.sol\":22359:22835  function includeAccountinReward(address account) public onlyOwner {... */\n    tag_29:\n      callvalue\n      dup1\n      iszero\n      tag_158\n      jumpi\n      revert(0x00, 0x00)\n    tag_158:\n      pop\n      tag_39\n      tag_160\n      calldatasize\n      0x04\n      tag_78\n      jump\t// in\n    tag_160:\n      tag_161\n      jump\t// in\n        /* \"CYBCC.sol\":20803:21212  function reflect(uint256 tAmount) public {... */\n    tag_42:\n        /* \"CYBCC.sol\":4366:4376  msg.sender */\n      caller\n        /* \"CYBCC.sol\":20854:20868  address sender */\n      0x00\n        /* \"CYBCC.sol\":20916:20935  _isExcluded[sender] */\n      dup2\n      dup2\n      mstore\n        /* \"CYBCC.sol\":20916:20927  _isExcluded */\n      0x08\n        /* \"CYBCC.sol\":20916:20935  _isExcluded[sender] */\n      0x20\n      mstore\n      0x40\n      swap1\n      keccak256\n      sload\n      0xff\n      and\n        /* \"CYBCC.sol\":20915:20935  !_isExcluded[sender] */\n      iszero\n        /* \"CYBCC.sol\":20894:21005  require(... */\n      tag_165\n      jumpi\n      mload(0x40)\n      shl(0xe5, 0x461bcd)\n      dup2\n      mstore\n        /* \"#utility.yul\":3359:3361   */\n      0x20\n        /* \"CYBCC.sol\":20894:21005  require(... */\n      0x04\n      dup3\n      add\n        /* \"#utility.yul\":3341:3362   */\n      mstore\n        /* \"#utility.yul\":3398:3400   */\n      0x2c\n        /* \"#utility.yul\":3378:3396   */\n      0x24\n      dup3\n      add\n        /* \"#utility.yul\":3371:3401   */\n      mstore\n        /* \"#utility.yul\":3437:3471   */\n      0x4578636c75646564206164647265737365732063616e6e6f742063616c6c2074\n        /* \"#utility.yul\":3417:3435   */\n      0x44\n      dup3\n      add\n        /* \"#utility.yul\":3410:3472   */\n      mstore\n      shl(0xa1, 0x3434b990333ab731ba34b7b7)\n        /* \"#utility.yul\":3488:3506   */\n      0x64\n      dup3\n      add\n        /* \"#utility.yul\":3481:3523   */\n      mstore\n        /* \"#utility.yul\":3540:3559   */\n      0x84\n      add\n        /* \"CYBCC.sol\":20894:21005  require(... */\n    tag_166:\n      mload(0x40)\n      dup1\n      swap2\n      sub\n      swap1\n      revert\n    tag_165:\n        /* \"CYBCC.sol\":21017:21032  uint256 rAmount */\n      0x00\n        /* \"CYBCC.sol\":21042:21069  _getTransferValues(tAmount) */\n      tag_168\n        /* \"CYBCC.sol\":21061:21068  tAmount */\n      dup4\n        /* \"CYBCC.sol\":21042:21060  _getTransferValues */\n      tag_169\n        /* \"CYBCC.sol\":21042:21069  _getTransferValues(tAmount) */\n      jump\t// in\n    tag_168:\n      pop\n      pop\n      pop\n      sub(shl(0xa0, 0x01), 0x01)\n        /* \"CYBCC.sol\":21098:21113  _rOwned[sender] */\n      dup4\n      and\n      0x00\n      swap1\n      dup2\n      mstore\n        /* \"CYBCC.sol\":21098:21105  _rOwned */\n      0x05\n        /* \"CYBCC.sol\":21098:21113  _rOwned[sender] */\n      0x20\n      mstore\n      0x40\n      swap1\n      keccak256\n      sload\n        /* \"CYBCC.sol\":21016:21069  (uint256 rAmount, , , ) = _getTransferValues(tAmount) */\n      swap1\n      swap2\n      pop\n        /* \"CYBCC.sol\":21098:21123  _rOwned[sender] - rAmount */\n      tag_170\n      swap1\n        /* \"CYBCC.sol\":21016:21069  (uint256 rAmount, , , ) = _getTransferValues(tAmount) */\n      dup3\n      swap1\n        /* \"CYBCC.sol\":21098:21123  _rOwned[sender] - rAmount */\n      tag_171\n      jump\t// in\n    tag_170:\n      sub(shl(0xa0, 0x01), 0x01)\n        /* \"CYBCC.sol\":21080:21095  _rOwned[sender] */\n      dup4\n      and\n      0x00\n      swap1\n      dup2\n      mstore\n        /* \"CYBCC.sol\":21080:21087  _rOwned */\n      0x05\n        /* \"CYBCC.sol\":21080:21095  _rOwned[sender] */\n      0x20\n      mstore\n      0x40\n      swap1\n      keccak256\n        /* \"CYBCC.sol\":21080:21123  _rOwned[sender] = _rOwned[sender] - rAmount */\n      sstore\n        /* \"CYBCC.sol\":21144:21151  _rTotal */\n      sload(0x0c)\n        /* \"CYBCC.sol\":21144:21161  _rTotal - rAmount */\n      tag_172\n      swap1\n        /* \"CYBCC.sol\":21154:21161  rAmount */\n      dup3\n      swap1\n        /* \"CYBCC.sol\":21144:21161  _rTotal - rAmount */\n      tag_171\n      jump\t// in\n    tag_172:\n        /* \"CYBCC.sol\":21134:21141  _rTotal */\n      0x0c\n        /* \"CYBCC.sol\":21134:21161  _rTotal = _rTotal - rAmount */\n      sstore\n        /* \"CYBCC.sol\":21185:21195  _tFeeTotal */\n      sload(0x0d)\n        /* \"CYBCC.sol\":21185:21205  _tFeeTotal + tAmount */\n      tag_173\n      swap1\n        /* \"CYBCC.sol\":21198:21205  tAmount */\n      dup5\n      swap1\n        /* \"CYBCC.sol\":21185:21205  _tFeeTotal + tAmount */\n      tag_174\n      jump\t// in\n    tag_173:\n        /* \"CYBCC.sol\":21172:21182  _tFeeTotal */\n      0x0d\n        /* \"CYBCC.sol\":21172:21205  _tFeeTotal = _tFeeTotal + tAmount */\n      sstore\n      pop\n      pop\n      pop\n        /* \"CYBCC.sol\":20803:21212  function reflect(uint256 tAmount) public {... */\n      jump\t// out\n        /* \"CYBCC.sol\":8274:8363  function name() public view virtual returns (string memory) {... */\n    tag_45:\n        /* \"CYBCC.sol\":8319:8332  string memory */\n      0x60\n        /* \"CYBCC.sol\":8351:8356  _name */\n      0x03\n        /* \"CYBCC.sol\":8344:8356  return _name */\n      dup1\n      sload\n      tag_176\n      swap1\n      tag_177\n      jump\t// in\n    tag_176:\n      dup1\n      0x1f\n      add\n      0x20\n      dup1\n      swap2\n      div\n      mul\n      0x20\n      add\n      mload(0x40)\n      swap1\n      dup2\n      add\n      0x40\n      mstore\n      dup1\n      swap3\n      swap2\n      swap1\n      dup2\n      dup2\n      mstore\n      0x20\n      add\n      dup3\n      dup1\n      sload\n      tag_178\n      swap1\n      tag_177\n      jump\t// in\n    tag_178:\n      dup1\n      iszero\n      tag_179\n      jumpi\n      dup1\n      0x1f\n      lt\n      tag_180\n      jumpi\n      0x0100\n      dup1\n      dup4\n      sload\n      div\n      mul\n      dup4\n      mstore\n      swap2\n      0x20\n      add\n      swap2\n      jump(tag_179)\n    tag_180:\n      dup3\n      add\n      swap2\n      swap1\n      0x00\n      mstore\n      keccak256(0x00, 0x20)\n      swap1\n    tag_181:\n      dup2\n      sload\n      dup2\n      mstore\n      swap1\n      0x01\n      add\n      swap1\n      0x20\n      add\n      dup1\n      dup4\n      gt\n      tag_181\n      jumpi\n      dup3\n      swap1\n      sub\n      0x1f\n      and\n      dup3\n      add\n      swap2\n    tag_179:\n      pop\n      pop\n      pop\n      pop\n      pop\n      swap1\n      pop\n        /* \"CYBCC.sol\":8274:8363  function name() public view virtual returns (string memory) {... */\n      swap1\n      jump\t// out\n        /* \"CYBCC.sol\":10529:10743  function approve(address spender, uint256 value)... */\n    tag_52:\n        /* \"CYBCC.sol\":10626:10630  bool */\n      0x00\n        /* \"CYBCC.sol\":4366:4376  msg.sender */\n      caller\n        /* \"CYBCC.sol\":10684:10715  _approve(owner, spender, value) */\n      tag_184\n        /* \"CYBCC.sol\":4366:4376  msg.sender */\n      dup2\n        /* \"CYBCC.sol\":10700:10707  spender */\n      dup6\n        /* \"CYBCC.sol\":10709:10714  value */\n      dup6\n        /* \"CYBCC.sol\":10684:10692  _approve */\n      tag_185\n        /* \"CYBCC.sol\":10684:10715  _approve(owner, spender, value) */\n      jump\t// in\n    tag_184:\n        /* \"CYBCC.sol\":10732:10736  true */\n      0x01\n        /* \"CYBCC.sol\":10725:10736  return true */\n      swap2\n      pop\n      pop\n        /* \"CYBCC.sol\":10529:10743  function approve(address spender, uint256 value)... */\n    tag_182:\n      swap3\n      swap2\n      pop\n      pop\n      jump\t// out\n        /* \"CYBCC.sol\":11335:11609  function transferFrom(... */\n    tag_64:\n        /* \"CYBCC.sol\":11452:11456  bool */\n      0x00\n        /* \"CYBCC.sol\":4366:4376  msg.sender */\n      caller\n        /* \"CYBCC.sol\":11508:11545  _spendAllowance(from, spender, value) */\n      tag_189\n        /* \"CYBCC.sol\":11524:11528  from */\n      dup6\n        /* \"CYBCC.sol\":4366:4376  msg.sender */\n      dup3\n        /* \"CYBCC.sol\":11539:11544  value */\n      dup6\n        /* \"CYBCC.sol\":11508:11523  _spendAllowance */\n      tag_190\n        /* \"CYBCC.sol\":11508:11545  _spendAllowance(from, spender, value) */\n      jump\t// in\n    tag_189:\n        /* \"CYBCC.sol\":11555:11581  _transfer(from, to, value) */\n      tag_191\n        /* \"CYBCC.sol\":11565:11569  from */\n      dup6\n        /* \"CYBCC.sol\":11571:11573  to */\n      dup6\n        /* \"CYBCC.sol\":11575:11580  value */\n      dup6\n        /* \"CYBCC.sol\":11555:11564  _transfer */\n      tag_192\n        /* \"CYBCC.sol\":11555:11581  _transfer(from, to, value) */\n      jump\t// in\n    tag_191:\n      pop\n        /* \"CYBCC.sol\":11598:11602  true */\n      0x01\n      swap5\n        /* \"CYBCC.sol\":11335:11609  function transferFrom(... */\n      swap4\n      pop\n      pop\n      pop\n      pop\n      jump\t// out\n        /* \"CYBCC.sol\":20573:20682  function excludeFromFee(address account) public onlyOwner {... */\n    tag_79:\n        /* \"CYBCC.sol\":19328:19334  _owner */\n      sload(0x0a)\n        /* \"CYBCC.sol\":19393:19403  msg.sender */\n      caller\n      swap1\n        /* \"CYBCC.sol\":19328:19334  _owner */\n      0x0100\n      swap1\n      div\n      sub(shl(0xa0, 0x01), 0x01)\n      and\n      sub(shl(0xa0, 0x01), 0x01)\n        /* \"CYBCC.sol\":19382:19403  owner() == msg.sender */\n      and\n      sub\n        /* \"CYBCC.sol\":19378:19406  if (owner() == msg.sender) _ */\n      tag_197\n      jumpi\n      sub(shl(0xa0, 0x01), 0x01)\n        /* \"CYBCC.sol\":20641:20668  _isExcludedFromFee[account] */\n      dup2\n      and\n      0x00\n      swap1\n      dup2\n      mstore\n        /* \"CYBCC.sol\":20641:20659  _isExcludedFromFee */\n      0x07\n        /* \"CYBCC.sol\":20641:20668  _isExcludedFromFee[account] */\n      0x20\n      mstore\n      0x40\n      swap1\n      keccak256\n        /* \"CYBCC.sol\":20641:20675  _isExcludedFromFee[account] = true */\n      dup1\n      sload\n      not(0xff)\n      and\n        /* \"CYBCC.sol\":20671:20675  true */\n      0x01\n        /* \"CYBCC.sol\":20641:20675  _isExcludedFromFee[account] = true */\n      or\n      swap1\n      sstore\n        /* \"CYBCC.sol\":19378:19406  if (owner() == msg.sender) _ */\n    tag_197:\n        /* \"CYBCC.sol\":20573:20682  function excludeFromFee(address account) public onlyOwner {... */\n      pop\n      jump\t// out\n        /* \"CYBCC.sol\":21218:21695  function reflectionFromToken(uint256 tAmount, bool deductTransferFee)... */\n    tag_84:\n        /* \"CYBCC.sol\":21333:21340  uint256 */\n      0x00\n        /* \"CYBCC.sol\":21375:21382  _tTotal */\n      sload(0x0b)\n        /* \"CYBCC.sol\":21364:21371  tAmount */\n      dup4\n        /* \"CYBCC.sol\":21364:21382  tAmount <= _tTotal */\n      gt\n      iszero\n        /* \"CYBCC.sol\":21356:21418  require(tAmount <= _tTotal, \"Amount must be less than supply\") */\n      tag_200\n      jumpi\n      mload(0x40)\n      shl(0xe5, 0x461bcd)\n      dup2\n      mstore\n        /* \"#utility.yul\":4552:4554   */\n      0x20\n        /* \"CYBCC.sol\":21356:21418  require(tAmount <= _tTotal, \"Amount must be less than supply\") */\n      0x04\n      dup3\n      add\n        /* \"#utility.yul\":4534:4555   */\n      mstore\n        /* \"#utility.yul\":4591:4593   */\n      0x1f\n        /* \"#utility.yul\":4571:4589   */\n      0x24\n      dup3\n      add\n        /* \"#utility.yul\":4564:4594   */\n      mstore\n        /* \"#utility.yul\":4630:4663   */\n      0x416d6f756e74206d757374206265206c657373207468616e20737570706c7900\n        /* \"#utility.yul\":4610:4628   */\n      0x44\n      dup3\n      add\n        /* \"#utility.yul\":4603:4664   */\n      mstore\n        /* \"#utility.yul\":4681:4699   */\n      0x64\n      add\n        /* \"CYBCC.sol\":21356:21418  require(tAmount <= _tTotal, \"Amount must be less than supply\") */\n      tag_166\n        /* \"#utility.yul\":4350:4705   */\n      jump\n        /* \"CYBCC.sol\":21356:21418  require(tAmount <= _tTotal, \"Amount must be less than supply\") */\n    tag_200:\n        /* \"CYBCC.sol\":21434:21451  deductTransferFee */\n      dup2\n        /* \"CYBCC.sol\":21429:21689  if (!deductTransferFee) {... */\n      tag_203\n      jumpi\n        /* \"CYBCC.sol\":21468:21483  uint256 rAmount */\n      0x00\n        /* \"CYBCC.sol\":21493:21520  _getTransferValues(tAmount) */\n      tag_204\n        /* \"CYBCC.sol\":21512:21519  tAmount */\n      dup5\n        /* \"CYBCC.sol\":21493:21511  _getTransferValues */\n      tag_169\n        /* \"CYBCC.sol\":21493:21520  _getTransferValues(tAmount) */\n      jump\t// in\n    tag_204:\n      pop\n        /* \"CYBCC.sol\":21467:21520  (uint256 rAmount, , , ) = _getTransferValues(tAmount) */\n      swap2\n      swap4\n      pop\n        /* \"CYBCC.sol\":21535:21549  return rAmount */\n      tag_182\n      swap3\n      pop\n      pop\n      pop\n      jump\n        /* \"CYBCC.sol\":21429:21689  if (!deductTransferFee) {... */\n    tag_203:\n        /* \"CYBCC.sol\":21583:21606  uint256 rTransferAmount */\n      0x00\n        /* \"CYBCC.sol\":21614:21641  _getTransferValues(tAmount) */\n      tag_206\n        /* \"CYBCC.sol\":21633:21640  tAmount */\n      dup5\n        /* \"CYBCC.sol\":21614:21632  _getTransferValues */\n      tag_169\n        /* \"CYBCC.sol\":21614:21641  _getTransferValues(tAmount) */\n      jump\t// in\n    tag_206:\n      pop\n        /* \"CYBCC.sol\":21580:21641  (, uint256 rTransferAmount, , ) = _getTransferValues(tAmount) */\n      swap1\n      swap4\n      pop\n        /* \"CYBCC.sol\":21656:21678  return rTransferAmount */\n      tag_182\n      swap3\n      pop\n      pop\n      pop\n      jump\n        /* \"CYBCC.sol\":22841:22918  function enableAntiWhale() public onlyOwner {... */\n    tag_93:\n        /* \"CYBCC.sol\":19328:19334  _owner */\n      sload(0x0a)\n        /* \"CYBCC.sol\":19393:19403  msg.sender */\n      caller\n      swap1\n        /* \"CYBCC.sol\":19328:19334  _owner */\n      0x0100\n      swap1\n      div\n      sub(shl(0xa0, 0x01), 0x01)\n      and\n      sub(shl(0xa0, 0x01), 0x01)\n        /* \"CYBCC.sol\":19382:19403  owner() == msg.sender */\n      and\n      sub\n        /* \"CYBCC.sol\":19378:19406  if (owner() == msg.sender) _ */\n      tag_210\n      jumpi\n        /* \"CYBCC.sol\":22895:22904  antiWhale */\n      0x15\n        /* \"CYBCC.sol\":22895:22911  antiWhale = true */\n      dup1\n      sload\n      not(0xff)\n      and\n        /* \"CYBCC.sol\":22907:22911  true */\n      0x01\n        /* \"CYBCC.sol\":22895:22911  antiWhale = true */\n      or\n      swap1\n      sstore\n        /* \"CYBCC.sol\":19378:19406  if (owner() == msg.sender) _ */\n    tag_210:\n        /* \"CYBCC.sol\":22841:22918  function enableAntiWhale() public onlyOwner {... */\n      jump\t// out\n        /* \"CYBCC.sol\":22018:22353  function excludeAccountFromReward(address account) public onlyOwner {... */\n    tag_97:\n        /* \"CYBCC.sol\":19328:19334  _owner */\n      sload(0x0a)\n        /* \"CYBCC.sol\":19393:19403  msg.sender */\n      caller\n      swap1\n        /* \"CYBCC.sol\":19328:19334  _owner */\n      0x0100\n      swap1\n      div\n      sub(shl(0xa0, 0x01), 0x01)\n      and\n      sub(shl(0xa0, 0x01), 0x01)\n        /* \"CYBCC.sol\":19382:19403  owner() == msg.sender */\n      and\n      sub\n        /* \"CYBCC.sol\":19378:19406  if (owner() == msg.sender) _ */\n      tag_197\n      jumpi\n      sub(shl(0xa0, 0x01), 0x01)\n        /* \"CYBCC.sol\":22105:22125  _isExcluded[account] */\n      dup2\n      and\n      0x00\n      swap1\n      dup2\n      mstore\n        /* \"CYBCC.sol\":22105:22116  _isExcluded */\n      0x08\n        /* \"CYBCC.sol\":22105:22125  _isExcluded[account] */\n      0x20\n      mstore\n      0x40\n      swap1\n      keccak256\n      sload\n      0xff\n      and\n        /* \"CYBCC.sol\":22104:22125  !_isExcluded[account] */\n      iszero\n        /* \"CYBCC.sol\":22096:22157  require(!_isExcluded[account], \"Account is already excluded\") */\n      tag_216\n      jumpi\n      mload(0x40)\n      shl(0xe5, 0x461bcd)\n      dup2\n      mstore\n        /* \"#utility.yul\":4912:4914   */\n      0x20\n        /* \"CYBCC.sol\":22096:22157  require(!_isExcluded[account], \"Account is already excluded\") */\n      0x04\n      dup3\n      add\n        /* \"#utility.yul\":4894:4915   */\n      mstore\n        /* \"#utility.yul\":4951:4953   */\n      0x1b\n        /* \"#utility.yul\":4931:4949   */\n      0x24\n      dup3\n      add\n        /* \"#utility.yul\":4924:4954   */\n      mstore\n        /* \"#utility.yul\":4990:5019   */\n      0x4163636f756e7420697320616c7265616479206578636c756465640000000000\n        /* \"#utility.yul\":4970:4988   */\n      0x44\n      dup3\n      add\n        /* \"#utility.yul\":4963:5020   */\n      mstore\n        /* \"#utility.yul\":5037:5055   */\n      0x64\n      add\n        /* \"CYBCC.sol\":22096:22157  require(!_isExcluded[account], \"Account is already excluded\") */\n      tag_166\n        /* \"#utility.yul\":4710:5061   */\n      jump\n        /* \"CYBCC.sol\":22096:22157  require(!_isExcluded[account], \"Account is already excluded\") */\n    tag_216:\n      sub(shl(0xa0, 0x01), 0x01)\n        /* \"CYBCC.sol\":22172:22188  _rOwned[account] */\n      dup2\n      and\n        /* \"CYBCC.sol\":22191:22192  0 */\n      0x00\n        /* \"CYBCC.sol\":22172:22188  _rOwned[account] */\n      swap1\n      dup2\n      mstore\n        /* \"CYBCC.sol\":22172:22179  _rOwned */\n      0x05\n        /* \"CYBCC.sol\":22172:22188  _rOwned[account] */\n      0x20\n      mstore\n      0x40\n      swap1\n      keccak256\n      sload\n        /* \"CYBCC.sol\":22172:22192  _rOwned[account] > 0 */\n      iszero\n        /* \"CYBCC.sol\":22168:22275  if (_rOwned[account] > 0) {... */\n      tag_219\n      jumpi\n      sub(shl(0xa0, 0x01), 0x01)\n        /* \"CYBCC.sol\":22247:22263  _rOwned[account] */\n      dup2\n      and\n      0x00\n      swap1\n      dup2\n      mstore\n        /* \"CYBCC.sol\":22247:22254  _rOwned */\n      0x05\n        /* \"CYBCC.sol\":22247:22263  _rOwned[account] */\n      0x20\n      mstore\n      0x40\n      swap1\n      keccak256\n      sload\n        /* \"CYBCC.sol\":22227:22264  tokenFromReflection(_rOwned[account]) */\n      tag_220\n      swap1\n        /* \"CYBCC.sol\":22227:22246  tokenFromReflection */\n      tag_221\n        /* \"CYBCC.sol\":22227:22264  tokenFromReflection(_rOwned[account]) */\n      jump\t// in\n    tag_220:\n      sub(shl(0xa0, 0x01), 0x01)\n        /* \"CYBCC.sol\":22208:22224  _tOwned[account] */\n      dup3\n      and\n      0x00\n      swap1\n      dup2\n      mstore\n        /* \"CYBCC.sol\":22208:22215  _tOwned */\n      0x06\n        /* \"CYBCC.sol\":22208:22224  _tOwned[account] */\n      0x20\n      mstore\n      0x40\n      swap1\n      keccak256\n        /* \"CYBCC.sol\":22208:22264  _tOwned[account] = tokenFromReflection(_rOwned[account]) */\n      sstore\n        /* \"CYBCC.sol\":22168:22275  if (_rOwned[account] > 0) {... */\n    tag_219:\n      sub(shl(0xa0, 0x01), 0x01)\n        /* \"CYBCC.sol\":22285:22305  _isExcluded[account] */\n      and\n      0x00\n      dup2\n      dup2\n      mstore\n        /* \"CYBCC.sol\":22285:22296  _isExcluded */\n      0x08\n        /* \"CYBCC.sol\":22285:22305  _isExcluded[account] */\n      0x20\n      mstore\n      0x40\n      dup2\n      keccak256\n        /* \"CYBCC.sol\":22285:22312  _isExcluded[account] = true */\n      dup1\n      sload\n      not(0xff)\n      and\n        /* \"CYBCC.sol\":22308:22312  true */\n      0x01\n        /* \"CYBCC.sol\":22285:22312  _isExcluded[account] = true */\n      swap1\n      dup2\n      or\n      swap1\n      swap2\n      sstore\n        /* \"CYBCC.sol\":22323:22332  _excluded */\n      0x09\n        /* \"CYBCC.sol\":22323:22346  _excluded.push(account) */\n      dup1\n      sload\n      swap2\n      dup3\n      add\n      dup2\n      sstore\n      swap1\n      swap2\n      mstore\n      0x6e1540171b6c0c960b71a7020d9f60077f6af931a8bbf590da0223dacf75c7af\n      add\n      dup1\n      sload\n      not(sub(shl(0xa0, 0x01), 0x01))\n      and\n      swap1\n      swap2\n      or\n      swap1\n      sstore\n        /* \"CYBCC.sol\":22018:22353  function excludeAccountFromReward(address account) public onlyOwner {... */\n      jump\t// out\n        /* \"CYBCC.sol\":22924:23002  function disbleAntiWhale() public onlyOwner {... */\n    tag_100:\n        /* \"CYBCC.sol\":19328:19334  _owner */\n      sload(0x0a)\n        /* \"CYBCC.sol\":19393:19403  msg.sender */\n      caller\n      swap1\n        /* \"CYBCC.sol\":19328:19334  _owner */\n      0x0100\n      swap1\n      div\n      sub(shl(0xa0, 0x01), 0x01)\n      and\n      sub(shl(0xa0, 0x01), 0x01)\n        /* \"CYBCC.sol\":19382:19403  owner() == msg.sender */\n      and\n      sub\n        /* \"CYBCC.sol\":19378:19406  if (owner() == msg.sender) _ */\n      tag_210\n      jumpi\n        /* \"CYBCC.sol\":22978:22987  antiWhale */\n      0x15\n        /* \"CYBCC.sol\":22978:22995  antiWhale = false */\n      dup1\n      sload\n      not(0xff)\n      and\n      swap1\n      sstore\n        /* \"CYBCC.sol\":22924:23002  function disbleAntiWhale() public onlyOwner {... */\n      jump\t// out\n        /* \"CYBCC.sol\":20081:20349  function balanceOf(address sender)... */\n    tag_104:\n      sub(shl(0xa0, 0x01), 0x01)\n        /* \"CYBCC.sol\":20221:20240  _isExcluded[sender] */\n      dup2\n      and\n        /* \"CYBCC.sol\":20194:20201  uint256 */\n      0x00\n        /* \"CYBCC.sol\":20221:20240  _isExcluded[sender] */\n      swap1\n      dup2\n      mstore\n        /* \"CYBCC.sol\":20221:20232  _isExcluded */\n      0x08\n        /* \"CYBCC.sol\":20221:20240  _isExcluded[sender] */\n      0x20\n      mstore\n      0x40\n      dup2\n      keccak256\n      sload\n      0xff\n      and\n        /* \"CYBCC.sol\":20217:20289  if (_isExcluded[sender]) {... */\n      iszero\n      tag_228\n      jumpi\n      pop\n      sub(shl(0xa0, 0x01), 0x01)\n        /* \"CYBCC.sol\":20263:20278  _tOwned[sender] */\n      and\n      0x00\n      swap1\n      dup2\n      mstore\n        /* \"CYBCC.sol\":20263:20270  _tOwned */\n      0x06\n        /* \"CYBCC.sol\":20263:20278  _tOwned[sender] */\n      0x20\n      mstore\n      0x40\n      swap1\n      keccak256\n      sload\n      swap1\n        /* \"CYBCC.sol\":20081:20349  function balanceOf(address sender)... */\n      jump\t// out\n        /* \"CYBCC.sol\":20217:20289  if (_isExcluded[sender]) {... */\n    tag_228:\n      sub(shl(0xa0, 0x01), 0x01)\n        /* \"CYBCC.sol\":20326:20341  _rOwned[sender] */\n      dup3\n      and\n      0x00\n      swap1\n      dup2\n      mstore\n        /* \"CYBCC.sol\":20326:20333  _rOwned */\n      0x05\n        /* \"CYBCC.sol\":20326:20341  _rOwned[sender] */\n      0x20\n      mstore\n      0x40\n      swap1\n      keccak256\n      sload\n        /* \"CYBCC.sol\":20306:20342  tokenFromReflection(_rOwned[sender]) */\n      tag_182\n      swap1\n        /* \"CYBCC.sol\":20306:20325  tokenFromReflection */\n      tag_221\n        /* \"CYBCC.sol\":20306:20342  tokenFromReflection(_rOwned[sender]) */\n      jump\t// in\n        /* \"CYBCC.sol\":29605:29747  function renounceOwnership() public onlyOwner {... */\n    tag_108:\n        /* \"CYBCC.sol\":19328:19334  _owner */\n      sload(0x0a)\n        /* \"CYBCC.sol\":19393:19403  msg.sender */\n      caller\n      swap1\n        /* \"CYBCC.sol\":19328:19334  _owner */\n      0x0100\n      swap1\n      div\n      sub(shl(0xa0, 0x01), 0x01)\n      and\n      sub(shl(0xa0, 0x01), 0x01)\n        /* \"CYBCC.sol\":19382:19403  owner() == msg.sender */\n      and\n      sub\n        /* \"CYBCC.sol\":19378:19406  if (owner() == msg.sender) _ */\n      tag_210\n      jumpi\n        /* \"CYBCC.sol\":29669:29675  _owner */\n      sload(0x0a)\n      0x0100\n      swap1\n      div\n      sub(shl(0xa0, 0x01), 0x01)\n      and\n        /* \"CYBCC.sol\":29661:29711  require(_owner != address(0), \"already renounced\") */\n      tag_234\n      jumpi\n      mload(0x40)\n      shl(0xe5, 0x461bcd)\n      dup2\n      mstore\n        /* \"#utility.yul\":5268:5270   */\n      0x20\n        /* \"CYBCC.sol\":29661:29711  require(_owner != address(0), \"already renounced\") */\n      0x04\n      dup3\n      add\n        /* \"#utility.yul\":5250:5271   */\n      mstore\n        /* \"#utility.yul\":5307:5309   */\n      0x11\n        /* \"#utility.yul\":5287:5305   */\n      0x24\n      dup3\n      add\n        /* \"#utility.yul\":5280:5310   */\n      mstore\n      shl(0x7a, 0x185b1c9958591e481c995b9bdd5b98d959)\n        /* \"#utility.yul\":5326:5344   */\n      0x44\n      dup3\n      add\n        /* \"#utility.yul\":5319:5366   */\n      mstore\n        /* \"#utility.yul\":5383:5401   */\n      0x64\n      add\n        /* \"CYBCC.sol\":29661:29711  require(_owner != address(0), \"already renounced\") */\n      tag_166\n        /* \"#utility.yul\":5066:5407   */\n      jump\n        /* \"CYBCC.sol\":29661:29711  require(_owner != address(0), \"already renounced\") */\n    tag_234:\n        /* \"CYBCC.sol\":29721:29727  _owner */\n      0x0a\n        /* \"CYBCC.sol\":29721:29740  _owner = address(0) */\n      dup1\n      sload\n      not(sub(shl(0xa8, 0x01), 0x0100))\n      and\n      swap1\n      sstore\n        /* \"CYBCC.sol\":29605:29747  function renounceOwnership() public onlyOwner {... */\n      jump\t// out\n        /* \"CYBCC.sol\":20688:20797  function changePairAddress(address _pairAddress) public onlyOwner {... */\n    tag_116:\n        /* \"CYBCC.sol\":19328:19334  _owner */\n      sload(0x0a)\n        /* \"CYBCC.sol\":19393:19403  msg.sender */\n      caller\n      swap1\n        /* \"CYBCC.sol\":19328:19334  _owner */\n      0x0100\n      swap1\n      div\n      sub(shl(0xa0, 0x01), 0x01)\n      and\n      sub(shl(0xa0, 0x01), 0x01)\n        /* \"CYBCC.sol\":19382:19403  owner() == msg.sender */\n      and\n      sub\n        /* \"CYBCC.sol\":19378:19406  if (owner() == msg.sender) _ */\n      tag_197\n      jumpi\n        /* \"CYBCC.sol\":20764:20775  pairAddress */\n      0x13\n        /* \"CYBCC.sol\":20764:20790  pairAddress = _pairAddress */\n      dup1\n      sload\n      sub(shl(0xa0, 0x01), 0x01)\n      dup4\n      and\n      not(sub(shl(0xa0, 0x01), 0x01))\n      swap1\n      swap2\n      and\n      or\n      swap1\n      sstore\n        /* \"CYBCC.sol\":20688:20797  function changePairAddress(address _pairAddress) public onlyOwner {... */\n      pop\n      jump\t// out\n        /* \"CYBCC.sol\":8476:8569  function symbol() public view virtual returns (string memory) {... */\n    tag_124:\n        /* \"CYBCC.sol\":8523:8536  string memory */\n      0x60\n        /* \"CYBCC.sol\":8555:8562  _symbol */\n      0x04\n        /* \"CYBCC.sol\":8548:8562  return _symbol */\n      dup1\n      sload\n      tag_176\n      swap1\n      tag_177\n      jump\t// in\n        /* \"CYBCC.sol\":9810:9988  function transfer(address to, uint256 value) public virtual returns (bool) {... */\n    tag_133:\n        /* \"CYBCC.sol\":9879:9883  bool */\n      0x00\n        /* \"CYBCC.sol\":4366:4376  msg.sender */\n      caller\n        /* \"CYBCC.sol\":9933:9960  _transfer(owner, to, value) */\n      tag_184\n        /* \"CYBCC.sol\":4366:4376  msg.sender */\n      dup2\n        /* \"CYBCC.sol\":9950:9952  to */\n      dup6\n        /* \"CYBCC.sol\":9954:9959  value */\n      dup6\n        /* \"CYBCC.sol\":9933:9942  _transfer */\n      tag_192\n        /* \"CYBCC.sol\":9933:9960  _transfer(owner, to, value) */\n      jump\t// in\n        /* \"CYBCC.sol\":29753:29849  function transferOwnership(address newOwner) public onlyOwner {... */\n    tag_153:\n        /* \"CYBCC.sol\":19328:19334  _owner */\n      sload(0x0a)\n        /* \"CYBCC.sol\":19393:19403  msg.sender */\n      caller\n      swap1\n        /* \"CYBCC.sol\":19328:19334  _owner */\n      0x0100\n      swap1\n      div\n      sub(shl(0xa0, 0x01), 0x01)\n      and\n      sub(shl(0xa0, 0x01), 0x01)\n        /* \"CYBCC.sol\":19382:19403  owner() == msg.sender */\n      and\n      sub\n        /* \"CYBCC.sol\":19378:19406  if (owner() == msg.sender) _ */\n      tag_197\n      jumpi\n        /* \"CYBCC.sol\":29825:29831  _owner */\n      0x0a\n        /* \"CYBCC.sol\":29825:29842  _owner = newOwner */\n      dup1\n      sload\n      sub(shl(0xa0, 0x01), 0x01)\n      dup4\n      and\n      0x0100\n      mul\n      not(sub(shl(0xa8, 0x01), 0x0100))\n      swap1\n      swap2\n      and\n      or\n      swap1\n      sstore\n        /* \"CYBCC.sol\":29753:29849  function transferOwnership(address newOwner) public onlyOwner {... */\n      pop\n      jump\t// out\n        /* \"CYBCC.sol\":22359:22835  function includeAccountinReward(address account) public onlyOwner {... */\n    tag_161:\n        /* \"CYBCC.sol\":19328:19334  _owner */\n      sload(0x0a)\n        /* \"CYBCC.sol\":19393:19403  msg.sender */\n      caller\n      swap1\n        /* \"CYBCC.sol\":19328:19334  _owner */\n      0x0100\n      swap1\n      div\n      sub(shl(0xa0, 0x01), 0x01)\n      and\n      sub(shl(0xa0, 0x01), 0x01)\n        /* \"CYBCC.sol\":19382:19403  owner() == msg.sender */\n      and\n      sub\n        /* \"CYBCC.sol\":19378:19406  if (owner() == msg.sender) _ */\n      tag_197\n      jumpi\n      sub(shl(0xa0, 0x01), 0x01)\n        /* \"CYBCC.sol\":22443:22463  _isExcluded[account] */\n      dup2\n      and\n      0x00\n      swap1\n      dup2\n      mstore\n        /* \"CYBCC.sol\":22443:22454  _isExcluded */\n      0x08\n        /* \"CYBCC.sol\":22443:22463  _isExcluded[account] */\n      0x20\n      mstore\n      0x40\n      swap1\n      keccak256\n      sload\n      0xff\n      and\n        /* \"CYBCC.sol\":22435:22495  require(_isExcluded[account], \"Account is already included\") */\n      tag_264\n      jumpi\n      mload(0x40)\n      shl(0xe5, 0x461bcd)\n      dup2\n      mstore\n        /* \"#utility.yul\":5614:5616   */\n      0x20\n        /* \"CYBCC.sol\":22435:22495  require(_isExcluded[account], \"Account is already included\") */\n      0x04\n      dup3\n      add\n        /* \"#utility.yul\":5596:5617   */\n      mstore\n        /* \"#utility.yul\":5653:5655   */\n      0x1b\n        /* \"#utility.yul\":5633:5651   */\n      0x24\n      dup3\n      add\n        /* \"#utility.yul\":5626:5656   */\n      mstore\n        /* \"#utility.yul\":5692:5721   */\n      0x4163636f756e7420697320616c726561647920696e636c756465640000000000\n        /* \"#utility.yul\":5672:5690   */\n      0x44\n      dup3\n      add\n        /* \"#utility.yul\":5665:5722   */\n      mstore\n        /* \"#utility.yul\":5739:5757   */\n      0x64\n      add\n        /* \"CYBCC.sol\":22435:22495  require(_isExcluded[account], \"Account is already included\") */\n      tag_166\n        /* \"#utility.yul\":5412:5763   */\n      jump\n        /* \"CYBCC.sol\":22435:22495  require(_isExcluded[account], \"Account is already included\") */\n    tag_264:\n        /* \"CYBCC.sol\":22511:22520  uint256 i */\n      0x00\n        /* \"CYBCC.sol\":22506:22829  for (uint256 i = 0; i < _excluded.length; i++) {... */\n    tag_267:\n        /* \"CYBCC.sol\":22530:22539  _excluded */\n      0x09\n        /* \"CYBCC.sol\":22530:22546  _excluded.length */\n      sload\n        /* \"CYBCC.sol\":22526:22546  i < _excluded.length */\n      dup2\n      lt\n        /* \"CYBCC.sol\":22506:22829  for (uint256 i = 0; i < _excluded.length; i++) {... */\n      iszero\n      tag_268\n      jumpi\n        /* \"CYBCC.sol\":22587:22594  account */\n      dup2\n      sub(shl(0xa0, 0x01), 0x01)\n        /* \"CYBCC.sol\":22571:22594  _excluded[i] == account */\n      and\n        /* \"CYBCC.sol\":22571:22580  _excluded */\n      0x09\n        /* \"CYBCC.sol\":22581:22582  i */\n      dup3\n        /* \"CYBCC.sol\":22571:22583  _excluded[i] */\n      dup2\n      sload\n      dup2\n      lt\n      tag_271\n      jumpi\n      tag_271\n      tag_272\n      jump\t// in\n    tag_271:\n      0x00\n      swap2\n      dup3\n      mstore\n      0x20\n      swap1\n      swap2\n      keccak256\n      add\n      sload\n      sub(shl(0xa0, 0x01), 0x01)\n      and\n        /* \"CYBCC.sol\":22571:22594  _excluded[i] == account */\n      sub\n        /* \"CYBCC.sol\":22567:22819  if (_excluded[i] == account) {... */\n      tag_274\n      jumpi\n        /* \"CYBCC.sol\":22629:22638  _excluded */\n      0x09\n        /* \"CYBCC.sol\":22639:22655  _excluded.length */\n      dup1\n      sload\n        /* \"CYBCC.sol\":22639:22659  _excluded.length - 1 */\n      tag_275\n      swap1\n        /* \"CYBCC.sol\":22658:22659  1 */\n      0x01\n      swap1\n        /* \"CYBCC.sol\":22639:22659  _excluded.length - 1 */\n      tag_171\n      jump\t// in\n    tag_275:\n        /* \"CYBCC.sol\":22629:22660  _excluded[_excluded.length - 1] */\n      dup2\n      sload\n      dup2\n      lt\n      tag_277\n      jumpi\n      tag_277\n      tag_272\n      jump\t// in\n    tag_277:\n      0x00\n      swap2\n      dup3\n      mstore\n      0x20\n      swap1\n      swap2\n      keccak256\n      add\n      sload\n        /* \"CYBCC.sol\":22614:22623  _excluded */\n      0x09\n        /* \"CYBCC.sol\":22614:22626  _excluded[i] */\n      dup1\n      sload\n      sub(shl(0xa0, 0x01), 0x01)\n        /* \"CYBCC.sol\":22629:22660  _excluded[_excluded.length - 1] */\n      swap1\n      swap3\n      and\n      swap2\n        /* \"CYBCC.sol\":22624:22625  i */\n      dup4\n      swap1\n        /* \"CYBCC.sol\":22614:22626  _excluded[i] */\n      dup2\n      lt\n      tag_280\n      jumpi\n      tag_280\n      tag_272\n      jump\t// in\n    tag_280:\n      0x00\n      swap2\n      dup3\n      mstore\n      0x20\n      dup1\n      dup4\n      keccak256\n      swap2\n      swap1\n      swap2\n      add\n        /* \"CYBCC.sol\":22614:22660  _excluded[i] = _excluded[_excluded.length - 1] */\n      dup1\n      sload\n      not(sub(shl(0xa0, 0x01), 0x01))\n      and\n      sub(shl(0xa0, 0x01), 0x01)\n      swap5\n      dup6\n      and\n      or\n      swap1\n      sstore\n        /* \"CYBCC.sol\":22679:22695  _tOwned[account] */\n      swap2\n      dup5\n      and\n      dup2\n      mstore\n        /* \"CYBCC.sol\":22679:22686  _tOwned */\n      0x06\n        /* \"CYBCC.sol\":22679:22695  _tOwned[account] */\n      dup3\n      mstore\n      0x40\n      dup1\n      dup3\n      keccak256\n        /* \"CYBCC.sol\":22679:22699  _tOwned[account] = 0 */\n      dup3\n      swap1\n      sstore\n        /* \"CYBCC.sol\":22718:22729  _isExcluded */\n      0x08\n        /* \"CYBCC.sol\":22718:22738  _isExcluded[account] */\n      swap1\n      swap3\n      mstore\n      keccak256\n        /* \"CYBCC.sol\":22718:22746  _isExcluded[account] = false */\n      dup1\n      sload\n      not(0xff)\n      and\n      swap1\n      sstore\n        /* \"CYBCC.sol\":22765:22774  _excluded */\n      0x09\n        /* \"CYBCC.sol\":22765:22780  _excluded.pop() */\n      dup1\n      sload\n      dup1\n      tag_283\n      jumpi\n      tag_283\n      tag_284\n      jump\t// in\n    tag_283:\n      0x00\n      dup3\n      dup2\n      mstore\n      0x20\n      swap1\n      keccak256\n      dup2\n      add\n      not(0x00)\n      swap1\n      dup2\n      add\n      dup1\n      sload\n      not(sub(shl(0xa0, 0x01), 0x01))\n      and\n      swap1\n      sstore\n      add\n      swap1\n      sstore\n        /* \"CYBCC.sol\":22506:22829  for (uint256 i = 0; i < _excluded.length; i++) {... */\n      pop\n        /* \"CYBCC.sol\":22359:22835  function includeAccountinReward(address account) public onlyOwner {... */\n      pop\n      jump\t// out\n        /* \"CYBCC.sol\":22567:22819  if (_excluded[i] == account) {... */\n    tag_274:\n        /* \"CYBCC.sol\":22548:22551  i++ */\n      0x01\n      add\n        /* \"CYBCC.sol\":22506:22829  for (uint256 i = 0; i < _excluded.length; i++) {... */\n      jump(tag_267)\n    tag_268:\n      pop\n        /* \"CYBCC.sol\":22359:22835  function includeAccountinReward(address account) public onlyOwner {... */\n      pop\n      jump\t// out\n        /* \"CYBCC.sol\":27984:28526  function _getTransferValues(uint256 tAmount)... */\n    tag_169:\n        /* \"CYBCC.sol\":28088:28095  uint256 */\n      0x00\n        /* \"CYBCC.sol\":28109:28116  uint256 */\n      0x00\n        /* \"CYBCC.sol\":28130:28137  uint256 */\n      0x00\n        /* \"CYBCC.sol\":28151:28158  uint256 */\n      0x00\n        /* \"CYBCC.sol\":28183:28199  uint256 taxValue */\n      0x00\n        /* \"CYBCC.sol\":28202:28231  _getCompleteTaxValue(tAmount) */\n      tag_288\n        /* \"CYBCC.sol\":28223:28230  tAmount */\n      dup7\n        /* \"CYBCC.sol\":28202:28222  _getCompleteTaxValue */\n      tag_289\n        /* \"CYBCC.sol\":28202:28231  _getCompleteTaxValue(tAmount) */\n      jump\t// in\n    tag_288:\n        /* \"CYBCC.sol\":28183:28231  uint256 taxValue = _getCompleteTaxValue(tAmount) */\n      swap1\n      pop\n        /* \"CYBCC.sol\":28242:28265  uint256 tTransferAmount */\n      0x00\n        /* \"CYBCC.sol\":28268:28286  tAmount - taxValue */\n      tag_290\n        /* \"CYBCC.sol\":28183:28231  uint256 taxValue = _getCompleteTaxValue(tAmount) */\n      dup3\n        /* \"CYBCC.sol\":28268:28275  tAmount */\n      dup9\n        /* \"CYBCC.sol\":28268:28286  tAmount - taxValue */\n      tag_171\n      jump\t// in\n    tag_290:\n        /* \"CYBCC.sol\":28242:28286  uint256 tTransferAmount = tAmount - taxValue */\n      swap1\n      pop\n        /* \"CYBCC.sol\":28297:28316  uint256 currentRate */\n      0x00\n        /* \"CYBCC.sol\":28319:28329  _getRate() */\n      tag_291\n        /* \"CYBCC.sol\":28319:28327  _getRate */\n      tag_292\n        /* \"CYBCC.sol\":28319:28329  _getRate() */\n      jump\t// in\n    tag_291:\n        /* \"CYBCC.sol\":28297:28329  uint256 currentRate = _getRate() */\n      swap1\n      pop\n        /* \"CYBCC.sol\":28340:28363  uint256 rTransferAmount */\n      0x00\n        /* \"CYBCC.sol\":28366:28395  tTransferAmount * currentRate */\n      tag_293\n        /* \"CYBCC.sol\":28297:28329  uint256 currentRate = _getRate() */\n      dup3\n        /* \"CYBCC.sol\":28366:28381  tTransferAmount */\n      dup5\n        /* \"CYBCC.sol\":28366:28395  tTransferAmount * currentRate */\n      tag_294\n      jump\t// in\n    tag_293:\n        /* \"CYBCC.sol\":28340:28395  uint256 rTransferAmount = tTransferAmount * currentRate */\n      swap1\n      pop\n        /* \"CYBCC.sol\":28406:28421  uint256 rAmount */\n      0x00\n        /* \"CYBCC.sol\":28424:28445  tAmount * currentRate */\n      tag_295\n        /* \"CYBCC.sol\":28434:28445  currentRate */\n      dup4\n        /* \"CYBCC.sol\":28424:28431  tAmount */\n      dup12\n        /* \"CYBCC.sol\":28424:28445  tAmount * currentRate */\n      tag_294\n      jump\t// in\n    tag_295:\n        /* \"CYBCC.sol\":28406:28445  uint256 rAmount = tAmount * currentRate */\n      swap11\n        /* \"CYBCC.sol\":28473:28488  rTransferAmount */\n      swap2\n      swap10\n      pop\n        /* \"CYBCC.sol\":28490:28505  tTransferAmount */\n      swap3\n      swap8\n      pop\n        /* \"CYBCC.sol\":28507:28518  currentRate */\n      swap1\n      swap6\n      pop\n        /* \"CYBCC.sol\":27984:28526  function _getTransferValues(uint256 tAmount)... */\n      swap4\n      pop\n      pop\n      pop\n      pop\n      jump\t// out\n        /* \"CYBCC.sol\":15383:15541  function _approve(... */\n    tag_185:\n        /* \"CYBCC.sol\":15497:15534  _approve(owner, spender, value, true) */\n      tag_297\n        /* \"CYBCC.sol\":15506:15511  owner */\n      dup4\n        /* \"CYBCC.sol\":15513:15520  spender */\n      dup4\n        /* \"CYBCC.sol\":15522:15527  value */\n      dup4\n        /* \"CYBCC.sol\":15529:15533  true */\n      0x01\n        /* \"CYBCC.sol\":15497:15505  _approve */\n      tag_298\n        /* \"CYBCC.sol\":15497:15534  _approve(owner, spender, value, true) */\n      jump\t// in\n    tag_297:\n        /* \"CYBCC.sol\":15383:15541  function _approve(... */\n      pop\n      pop\n      pop\n      jump\t// out\n        /* \"CYBCC.sol\":17140:17724  function _spendAllowance(... */\n    tag_190:\n      sub(shl(0xa0, 0x01), 0x01)\n        /* \"CYBCC.sol\":10188:10206  _allowances[owner] */\n      dup4\n      dup2\n      and\n        /* \"CYBCC.sol\":17269:17293  uint256 currentAllowance */\n      0x00\n        /* \"CYBCC.sol\":10188:10206  _allowances[owner] */\n      swap1\n      dup2\n      mstore\n        /* \"CYBCC.sol\":10188:10199  _allowances */\n      0x01\n        /* \"CYBCC.sol\":10188:10206  _allowances[owner] */\n      0x20\n      swap1\n      dup2\n      mstore\n      0x40\n      dup1\n      dup4\n      keccak256\n        /* \"CYBCC.sol\":10188:10215  _allowances[owner][spender] */\n      swap4\n      dup7\n      and\n      dup4\n      mstore\n      swap3\n      swap1\n      mstore\n      keccak256\n      sload\n      not(0x00)\n        /* \"CYBCC.sol\":17335:17371  currentAllowance < type(uint256).max */\n      dup2\n      lt\n        /* \"CYBCC.sol\":17331:17718  if (currentAllowance < type(uint256).max) {... */\n      iszero\n      tag_305\n      jumpi\n        /* \"CYBCC.sol\":17410:17415  value */\n      dup2\n        /* \"CYBCC.sol\":17391:17407  currentAllowance */\n      dup2\n        /* \"CYBCC.sol\":17391:17415  currentAllowance < value */\n      lt\n        /* \"CYBCC.sol\":17387:17595  if (currentAllowance < value) {... */\n      iszero\n      tag_302\n      jumpi\n        /* \"CYBCC.sol\":17442:17580  ERC20InsufficientAllowance(... */\n      mload(0x40)\n      shl(0xe1, 0x7dc7a0d9)\n      dup2\n      mstore\n      sub(shl(0xa0, 0x01), 0x01)\n        /* \"#utility.yul\":6425:6457   */\n      dup5\n      and\n        /* \"CYBCC.sol\":17442:17580  ERC20InsufficientAllowance(... */\n      0x04\n      dup3\n      add\n        /* \"#utility.yul\":6407:6458   */\n      mstore\n        /* \"#utility.yul\":6474:6492   */\n      0x24\n      dup2\n      add\n        /* \"#utility.yul\":6467:6501   */\n      dup3\n      swap1\n      mstore\n        /* \"#utility.yul\":6517:6535   */\n      0x44\n      dup2\n      add\n        /* \"#utility.yul\":6510:6544   */\n      dup4\n      swap1\n      mstore\n        /* \"#utility.yul\":6380:6398   */\n      0x64\n      add\n        /* \"CYBCC.sol\":17442:17580  ERC20InsufficientAllowance(... */\n      tag_166\n        /* \"#utility.yul\":6205:6550   */\n      jump\n        /* \"CYBCC.sol\":17387:17595  if (currentAllowance < value) {... */\n    tag_302:\n        /* \"CYBCC.sol\":17636:17693  _approve(owner, spender, currentAllowance - value, false) */\n      tag_305\n        /* \"CYBCC.sol\":17645:17650  owner */\n      dup5\n        /* \"CYBCC.sol\":17652:17659  spender */\n      dup5\n        /* \"CYBCC.sol\":17680:17685  value */\n      dup5\n        /* \"CYBCC.sol\":17661:17677  currentAllowance */\n      dup5\n        /* \"CYBCC.sol\":17661:17685  currentAllowance - value */\n      sub\n        /* \"CYBCC.sol\":17687:17692  false */\n      0x00\n        /* \"CYBCC.sol\":17636:17644  _approve */\n      tag_298\n        /* \"CYBCC.sol\":17636:17693  _approve(owner, spender, currentAllowance - value, false) */\n      jump\t// in\n    tag_305:\n        /* \"CYBCC.sol\":17259:17724  {... */\n      pop\n        /* \"CYBCC.sol\":17140:17724  function _spendAllowance(... */\n      pop\n      pop\n      pop\n      jump\t// out\n        /* \"CYBCC.sol\":23008:23937  function _transfer(... */\n    tag_192:\n      sub(shl(0xa0, 0x01), 0x01)\n        /* \"CYBCC.sol\":23152:23172  sender != address(0) */\n      dup4\n      and\n        /* \"CYBCC.sol\":23144:23214  require(sender != address(0), \"ERC20: transfer from the zero address\") */\n      tag_307\n      jumpi\n      mload(0x40)\n      shl(0xe5, 0x461bcd)\n      dup2\n      mstore\n        /* \"#utility.yul\":6757:6759   */\n      0x20\n        /* \"CYBCC.sol\":23144:23214  require(sender != address(0), \"ERC20: transfer from the zero address\") */\n      0x04\n      dup3\n      add\n        /* \"#utility.yul\":6739:6760   */\n      mstore\n        /* \"#utility.yul\":6796:6798   */\n      0x25\n        /* \"#utility.yul\":6776:6794   */\n      0x24\n      dup3\n      add\n        /* \"#utility.yul\":6769:6799   */\n      mstore\n        /* \"#utility.yul\":6835:6869   */\n      0x45524332303a207472616e736665722066726f6d20746865207a65726f206164\n        /* \"#utility.yul\":6815:6833   */\n      0x44\n      dup3\n      add\n        /* \"#utility.yul\":6808:6870   */\n      mstore\n      shl(0xd8, 0x6472657373)\n        /* \"#utility.yul\":6886:6904   */\n      0x64\n      dup3\n      add\n        /* \"#utility.yul\":6879:6914   */\n      mstore\n        /* \"#utility.yul\":6931:6950   */\n      0x84\n      add\n        /* \"CYBCC.sol\":23144:23214  require(sender != address(0), \"ERC20: transfer from the zero address\") */\n      tag_166\n        /* \"#utility.yul\":6555:6956   */\n      jump\n        /* \"CYBCC.sol\":23144:23214  require(sender != address(0), \"ERC20: transfer from the zero address\") */\n    tag_307:\n      sub(shl(0xa0, 0x01), 0x01)\n        /* \"CYBCC.sol\":23233:23256  recipient != address(0) */\n      dup3\n      and\n        /* \"CYBCC.sol\":23225:23296  require(recipient != address(0), \"ERC20: transfer to the zero address\") */\n      tag_310\n      jumpi\n      mload(0x40)\n      shl(0xe5, 0x461bcd)\n      dup2\n      mstore\n        /* \"#utility.yul\":7163:7165   */\n      0x20\n        /* \"CYBCC.sol\":23225:23296  require(recipient != address(0), \"ERC20: transfer to the zero address\") */\n      0x04\n      dup3\n      add\n        /* \"#utility.yul\":7145:7166   */\n      mstore\n        /* \"#utility.yul\":7202:7204   */\n      0x23\n        /* \"#utility.yul\":7182:7200   */\n      0x24\n      dup3\n      add\n        /* \"#utility.yul\":7175:7205   */\n      mstore\n        /* \"#utility.yul\":7241:7275   */\n      0x45524332303a207472616e7366657220746f20746865207a65726f2061646472\n        /* \"#utility.yul\":7221:7239   */\n      0x44\n      dup3\n      add\n        /* \"#utility.yul\":7214:7276   */\n      mstore\n      shl(0xe8, 0x657373)\n        /* \"#utility.yul\":7292:7310   */\n      0x64\n      dup3\n      add\n        /* \"#utility.yul\":7285:7318   */\n      mstore\n        /* \"#utility.yul\":7335:7354   */\n      0x84\n      add\n        /* \"CYBCC.sol\":23225:23296  require(recipient != address(0), \"ERC20: transfer to the zero address\") */\n      tag_166\n        /* \"#utility.yul\":6961:7360   */\n      jump\n        /* \"CYBCC.sol\":23225:23296  require(recipient != address(0), \"ERC20: transfer to the zero address\") */\n    tag_310:\n        /* \"CYBCC.sol\":23307:23328  uint256 senderBalance */\n      0x00\n        /* \"CYBCC.sol\":23331:23348  balanceOf(sender) */\n      tag_313\n        /* \"CYBCC.sol\":23341:23347  sender */\n      dup5\n        /* \"CYBCC.sol\":23331:23340  balanceOf */\n      tag_104\n        /* \"CYBCC.sol\":23331:23348  balanceOf(sender) */\n      jump\t// in\n    tag_313:\n        /* \"CYBCC.sol\":23307:23348  uint256 senderBalance = balanceOf(sender) */\n      swap1\n      pop\n        /* \"CYBCC.sol\":23397:23403  amount */\n      dup2\n        /* \"CYBCC.sol\":23380:23393  senderBalance */\n      dup2\n        /* \"CYBCC.sol\":23380:23403  senderBalance >= amount */\n      lt\n      iszero\n        /* \"CYBCC.sol\":23359:23467  require(... */\n      tag_314\n      jumpi\n      mload(0x40)\n      shl(0xe5, 0x461bcd)\n      dup2\n      mstore\n        /* \"#utility.yul\":7567:7569   */\n      0x20\n        /* \"CYBCC.sol\":23359:23467  require(... */\n      0x04\n      dup3\n      add\n        /* \"#utility.yul\":7549:7570   */\n      mstore\n        /* \"#utility.yul\":7606:7608   */\n      0x26\n        /* \"#utility.yul\":7586:7604   */\n      0x24\n      dup3\n      add\n        /* \"#utility.yul\":7579:7609   */\n      mstore\n        /* \"#utility.yul\":7645:7679   */\n      0x45524332303a207472616e7366657220616d6f756e7420657863656564732062\n        /* \"#utility.yul\":7625:7643   */\n      0x44\n      dup3\n      add\n        /* \"#utility.yul\":7618:7680   */\n      mstore\n      shl(0xd0, 0x616c616e6365)\n        /* \"#utility.yul\":7696:7714   */\n      0x64\n      dup3\n      add\n        /* \"#utility.yul\":7689:7725   */\n      mstore\n        /* \"#utility.yul\":7742:7761   */\n      0x84\n      add\n        /* \"CYBCC.sol\":23359:23467  require(... */\n      tag_166\n        /* \"#utility.yul\":7365:7767   */\n      jump\n        /* \"CYBCC.sol\":23359:23467  require(... */\n    tag_314:\n        /* \"CYBCC.sol\":19328:19334  _owner */\n      sload(0x0a)\n      sub(shl(0xa0, 0x01), 0x01)\n        /* \"CYBCC.sol\":23482:23499  sender != owner() */\n      dup6\n      dup2\n      and\n        /* \"CYBCC.sol\":19328:19334  _owner */\n      0x0100\n      swap1\n      swap3\n      div\n      and\n        /* \"CYBCC.sol\":23482:23499  sender != owner() */\n      eq\n      dup1\n      iszero\n      swap1\n        /* \"CYBCC.sol\":23482:23512  sender != owner() && antiWhale */\n      tag_318\n      jumpi\n      pop\n        /* \"CYBCC.sol\":23503:23512  antiWhale */\n      and(0xff, sload(0x15))\n        /* \"CYBCC.sol\":23482:23512  sender != owner() && antiWhale */\n    tag_318:\n        /* \"CYBCC.sol\":23478:23662  if (sender != owner() && antiWhale) {... */\n      iszero\n      tag_322\n      jumpi\n        /* \"CYBCC.sol\":23586:23601  maxWalletAmount */\n      sload(0x14)\n        /* \"CYBCC.sol\":23576:23582  amount */\n      dup3\n        /* \"CYBCC.sol\":23553:23573  balanceOf(recipient) */\n      tag_320\n        /* \"CYBCC.sol\":23563:23572  recipient */\n      dup6\n        /* \"CYBCC.sol\":23553:23562  balanceOf */\n      tag_104\n        /* \"CYBCC.sol\":23553:23573  balanceOf(recipient) */\n      jump\t// in\n    tag_320:\n        /* \"CYBCC.sol\":23553:23582  balanceOf(recipient) + amount */\n      tag_321\n      swap2\n      swap1\n      tag_174\n      jump\t// in\n    tag_321:\n        /* \"CYBCC.sol\":23553:23601  balanceOf(recipient) + amount <= maxWalletAmount */\n      gt\n      iszero\n        /* \"CYBCC.sol\":23528:23651  require(... */\n      tag_322\n      jumpi\n      mload(0x40)\n      shl(0xe5, 0x461bcd)\n      dup2\n      mstore\n        /* \"#utility.yul\":7974:7976   */\n      0x20\n        /* \"CYBCC.sol\":23528:23651  require(... */\n      0x04\n      dup3\n      add\n        /* \"#utility.yul\":7956:7977   */\n      mstore\n        /* \"#utility.yul\":8013:8015   */\n      0x10\n        /* \"#utility.yul\":7993:8011   */\n      0x24\n      dup3\n      add\n        /* \"#utility.yul\":7986:8016   */\n      mstore\n      shl(0x80, 0x5768616c652064657465637465642121)\n        /* \"#utility.yul\":8032:8050   */\n      0x44\n      dup3\n      add\n        /* \"#utility.yul\":8025:8071   */\n      mstore\n        /* \"#utility.yul\":8088:8106   */\n      0x64\n      add\n        /* \"CYBCC.sol\":23528:23651  require(... */\n      tag_166\n        /* \"#utility.yul\":7772:8112   */\n      jump\n        /* \"CYBCC.sol\":23528:23651  require(... */\n    tag_322:\n        /* \"CYBCC.sol\":23709:23720  pairAddress */\n      sload(0x13)\n        /* \"CYBCC.sol\":23672:23684  bool takeFee */\n      0x00\n      swap1\n      sub(shl(0xa0, 0x01), 0x01)\n        /* \"CYBCC.sol\":23699:23720  sender == pairAddress */\n      dup7\n      dup2\n      and\n        /* \"CYBCC.sol\":23709:23720  pairAddress */\n      swap2\n      and\n        /* \"CYBCC.sol\":23699:23720  sender == pairAddress */\n      eq\n      dup1\n        /* \"CYBCC.sol\":23699:23748  sender == pairAddress || recipient == pairAddress */\n      tag_325\n      jumpi\n      pop\n        /* \"CYBCC.sol\":23737:23748  pairAddress */\n      sload(0x13)\n      sub(shl(0xa0, 0x01), 0x01)\n        /* \"CYBCC.sol\":23724:23748  recipient == pairAddress */\n      dup6\n      dup2\n      and\n        /* \"CYBCC.sol\":23737:23748  pairAddress */\n      swap2\n      and\n        /* \"CYBCC.sol\":23724:23748  recipient == pairAddress */\n      eq\n        /* \"CYBCC.sol\":23699:23748  sender == pairAddress || recipient == pairAddress */\n    tag_325:\n        /* \"CYBCC.sol\":23695:23789  if (sender == pairAddress || recipient == pairAddress) {... */\n      iszero\n      tag_326\n      jumpi\n      pop\n        /* \"CYBCC.sol\":23774:23778  true */\n      0x01\n        /* \"CYBCC.sol\":23695:23789  if (sender == pairAddress || recipient == pairAddress) {... */\n    tag_326:\n      sub(shl(0xa0, 0x01), 0x01)\n        /* \"CYBCC.sol\":20041:20068  _isExcludedFromFee[account] */\n      dup6\n      and\n        /* \"CYBCC.sol\":20018:20022  bool */\n      0x00\n        /* \"CYBCC.sol\":20041:20068  _isExcludedFromFee[account] */\n      swap1\n      dup2\n      mstore\n        /* \"CYBCC.sol\":20041:20059  _isExcludedFromFee */\n      0x07\n        /* \"CYBCC.sol\":20041:20068  _isExcludedFromFee[account] */\n      0x20\n      mstore\n      0x40\n      swap1\n      keccak256\n      sload\n      0xff\n      and\n        /* \"CYBCC.sol\":23799:23870  if (isExcludedFromFee(sender)) {... */\n      iszero\n      tag_328\n      jumpi\n      pop\n        /* \"CYBCC.sol\":23854:23859  false */\n      0x00\n        /* \"CYBCC.sol\":23799:23870  if (isExcludedFromFee(sender)) {... */\n    tag_328:\n        /* \"CYBCC.sol\":23880:23930  _tokenTransfer(sender, recipient, amount, takeFee) */\n      tag_329\n        /* \"CYBCC.sol\":23895:23901  sender */\n      dup6\n        /* \"CYBCC.sol\":23903:23912  recipient */\n      dup6\n        /* \"CYBCC.sol\":23914:23920  amount */\n      dup6\n        /* \"CYBCC.sol\":23922:23929  takeFee */\n      dup5\n        /* \"CYBCC.sol\":23880:23894  _tokenTransfer */\n      tag_330\n        /* \"CYBCC.sol\":23880:23930  _tokenTransfer(sender, recipient, amount, takeFee) */\n      jump\t// in\n    tag_329:\n        /* \"CYBCC.sol\":23134:23937  {... */\n      pop\n      pop\n        /* \"CYBCC.sol\":23008:23937  function _transfer(... */\n      pop\n      pop\n      pop\n      jump\t// out\n        /* \"CYBCC.sol\":21701:22012  function tokenFromReflection(uint256 rAmount)... */\n    tag_221:\n        /* \"CYBCC.sol\":21793:21800  uint256 */\n      0x00\n        /* \"CYBCC.sol\":21848:21855  _rTotal */\n      sload(0x0c)\n        /* \"CYBCC.sol\":21837:21844  rAmount */\n      dup3\n        /* \"CYBCC.sol\":21837:21855  rAmount <= _rTotal */\n      gt\n      iszero\n        /* \"CYBCC.sol\":21816:21923  require(... */\n      tag_332\n      jumpi\n      mload(0x40)\n      shl(0xe5, 0x461bcd)\n      dup2\n      mstore\n        /* \"#utility.yul\":8319:8321   */\n      0x20\n        /* \"CYBCC.sol\":21816:21923  require(... */\n      0x04\n      dup3\n      add\n        /* \"#utility.yul\":8301:8322   */\n      mstore\n        /* \"#utility.yul\":8358:8360   */\n      0x2a\n        /* \"#utility.yul\":8338:8356   */\n      0x24\n      dup3\n      add\n        /* \"#utility.yul\":8331:8361   */\n      mstore\n        /* \"#utility.yul\":8397:8431   */\n      0x416d6f756e74206d757374206265206c657373207468616e20746f74616c2072\n        /* \"#utility.yul\":8377:8395   */\n      0x44\n      dup3\n      add\n        /* \"#utility.yul\":8370:8432   */\n      mstore\n      shl(0xb0, 0x65666c656374696f6e73)\n        /* \"#utility.yul\":8448:8466   */\n      0x64\n      dup3\n      add\n        /* \"#utility.yul\":8441:8481   */\n      mstore\n        /* \"#utility.yul\":8498:8517   */\n      0x84\n      add\n        /* \"CYBCC.sol\":21816:21923  require(... */\n      tag_166\n        /* \"#utility.yul\":8117:8523   */\n      jump\n        /* \"CYBCC.sol\":21816:21923  require(... */\n    tag_332:\n        /* \"CYBCC.sol\":21934:21953  uint256 currentRate */\n      0x00\n        /* \"CYBCC.sol\":21956:21966  _getRate() */\n      tag_335\n        /* \"CYBCC.sol\":21956:21964  _getRate */\n      tag_292\n        /* \"CYBCC.sol\":21956:21966  _getRate() */\n      jump\t// in\n    tag_335:\n        /* \"CYBCC.sol\":21934:21966  uint256 currentRate = _getRate() */\n      swap1\n      pop\n        /* \"CYBCC.sol\":21984:22005  rAmount / currentRate */\n      tag_336\n        /* \"CYBCC.sol\":21934:21966  uint256 currentRate = _getRate() */\n      dup2\n        /* \"CYBCC.sol\":21984:21991  rAmount */\n      dup5\n        /* \"CYBCC.sol\":21984:22005  rAmount / currentRate */\n      tag_337\n      jump\t// in\n    tag_336:\n        /* \"CYBCC.sol\":21977:22005  return rAmount / currentRate */\n      swap4\n        /* \"CYBCC.sol\":21701:22012  function tokenFromReflection(uint256 rAmount)... */\n      swap3\n      pop\n      pop\n      pop\n      jump\t// out\n        /* \"CYBCC.sol\":27730:27978  function _getCompleteTaxValue(uint256 tAmount)... */\n    tag_289:\n        /* \"CYBCC.sol\":27823:27830  uint256 */\n      0x00\n        /* \"CYBCC.sol\":27846:27862  uint256 allTaxes */\n      0x00\n        /* \"CYBCC.sol\":27882:27889  _taxFee */\n      sload(0x10)\n        /* \"CYBCC.sol\":27865:27879  _reflectionFee */\n      sload(0x0e)\n        /* \"CYBCC.sol\":27865:27889  _reflectionFee + _taxFee */\n      tag_339\n      swap2\n      swap1\n      tag_174\n      jump\t// in\n    tag_339:\n        /* \"CYBCC.sol\":27846:27889  uint256 allTaxes = _reflectionFee + _taxFee */\n      swap1\n      pop\n        /* \"CYBCC.sol\":27900:27916  uint256 taxValue */\n      0x00\n        /* \"CYBCC.sol\":27942:27945  100 */\n      0x64\n        /* \"CYBCC.sol\":27920:27938  tAmount * allTaxes */\n      tag_340\n        /* \"CYBCC.sol\":27846:27889  uint256 allTaxes = _reflectionFee + _taxFee */\n      dup4\n        /* \"CYBCC.sol\":27920:27927  tAmount */\n      dup7\n        /* \"CYBCC.sol\":27920:27938  tAmount * allTaxes */\n      tag_294\n      jump\t// in\n    tag_340:\n        /* \"CYBCC.sol\":27919:27945  (tAmount * allTaxes) / 100 */\n      tag_341\n      swap2\n      swap1\n      tag_337\n      jump\t// in\n    tag_341:\n        /* \"CYBCC.sol\":27900:27945  uint256 taxValue = (tAmount * allTaxes) / 100 */\n      swap5\n        /* \"CYBCC.sol\":27730:27978  function _getCompleteTaxValue(uint256 tAmount)... */\n      swap4\n      pop\n      pop\n      pop\n      pop\n      jump\t// out\n        /* \"CYBCC.sol\":28789:28948  function _getRate() private view returns (uint256) {... */\n    tag_292:\n        /* \"CYBCC.sol\":28831:28838  uint256 */\n      0x00\n        /* \"CYBCC.sol\":28851:28866  uint256 rSupply */\n      0x00\n        /* \"CYBCC.sol\":28868:28883  uint256 tSupply */\n      0x00\n        /* \"CYBCC.sol\":28887:28906  _getCurrentSupply() */\n      tag_343\n        /* \"CYBCC.sol\":28887:28904  _getCurrentSupply */\n      tag_344\n        /* \"CYBCC.sol\":28887:28906  _getCurrentSupply() */\n      jump\t// in\n    tag_343:\n        /* \"CYBCC.sol\":28850:28906  (uint256 rSupply, uint256 tSupply) = _getCurrentSupply() */\n      swap1\n      swap3\n      pop\n      swap1\n      pop\n        /* \"CYBCC.sol\":28924:28941  rSupply / tSupply */\n      tag_345\n        /* \"CYBCC.sol\":28850:28906  (uint256 rSupply, uint256 tSupply) = _getCurrentSupply() */\n      dup2\n      dup4\n        /* \"CYBCC.sol\":28924:28941  rSupply / tSupply */\n      tag_337\n      jump\t// in\n    tag_345:\n        /* \"CYBCC.sol\":28917:28941  return rSupply / tSupply */\n      swap3\n      pop\n      pop\n      pop\n        /* \"CYBCC.sol\":28789:28948  function _getRate() private view returns (uint256) {... */\n      swap1\n      jump\t// out\n        /* \"CYBCC.sol\":16388:16858  function _approve(... */\n    tag_298:\n      sub(shl(0xa0, 0x01), 0x01)\n        /* \"CYBCC.sol\":16538:16557  owner == address(0) */\n      dup5\n      and\n        /* \"CYBCC.sol\":16534:16623  if (owner == address(0)) {... */\n      tag_347\n      jumpi\n        /* \"CYBCC.sol\":16580:16612  ERC20InvalidApprover(address(0)) */\n      mload(0x40)\n      shl(0xe0, 0xe602df05)\n      dup2\n      mstore\n        /* \"CYBCC.sol\":16609:16610  0 */\n      0x00\n        /* \"CYBCC.sol\":16580:16612  ERC20InvalidApprover(address(0)) */\n      0x04\n      dup3\n      add\n        /* \"#utility.yul\":2830:2881   */\n      mstore\n        /* \"#utility.yul\":2803:2821   */\n      0x24\n      add\n        /* \"CYBCC.sol\":16580:16612  ERC20InvalidApprover(address(0)) */\n      tag_166\n        /* \"#utility.yul\":2684:2887   */\n      jump\n        /* \"CYBCC.sol\":16534:16623  if (owner == address(0)) {... */\n    tag_347:\n      sub(shl(0xa0, 0x01), 0x01)\n        /* \"CYBCC.sol\":16636:16657  spender == address(0) */\n      dup4\n      and\n        /* \"CYBCC.sol\":16632:16722  if (spender == address(0)) {... */\n      tag_349\n      jumpi\n        /* \"CYBCC.sol\":16680:16711  ERC20InvalidSpender(address(0)) */\n      mload(0x40)\n      shl(0xe1, 0x4a1406b1)\n      dup2\n      mstore\n        /* \"CYBCC.sol\":16708:16709  0 */\n      0x00\n        /* \"CYBCC.sol\":16680:16711  ERC20InvalidSpender(address(0)) */\n      0x04\n      dup3\n      add\n        /* \"#utility.yul\":2830:2881   */\n      mstore\n        /* \"#utility.yul\":2803:2821   */\n      0x24\n      add\n        /* \"CYBCC.sol\":16680:16711  ERC20InvalidSpender(address(0)) */\n      tag_166\n        /* \"#utility.yul\":2684:2887   */\n      jump\n        /* \"CYBCC.sol\":16632:16722  if (spender == address(0)) {... */\n    tag_349:\n      sub(shl(0xa0, 0x01), 0x01)\n        /* \"CYBCC.sol\":16731:16749  _allowances[owner] */\n      dup1\n      dup6\n      and\n      0x00\n      swap1\n      dup2\n      mstore\n        /* \"CYBCC.sol\":16731:16742  _allowances */\n      0x01\n        /* \"CYBCC.sol\":16731:16749  _allowances[owner] */\n      0x20\n      swap1\n      dup2\n      mstore\n      0x40\n      dup1\n      dup4\n      keccak256\n        /* \"CYBCC.sol\":16731:16758  _allowances[owner][spender] */\n      swap4\n      dup8\n      and\n      dup4\n      mstore\n      swap3\n      swap1\n      mstore\n      keccak256\n        /* \"CYBCC.sol\":16731:16766  _allowances[owner][spender] = value */\n      dup3\n      swap1\n      sstore\n        /* \"CYBCC.sol\":16776:16852  if (emitEvent) {... */\n      dup1\n      iszero\n      tag_305\n      jumpi\n        /* \"CYBCC.sol\":16826:16833  spender */\n      dup3\n      sub(shl(0xa0, 0x01), 0x01)\n        /* \"CYBCC.sol\":16810:16841  Approval(owner, spender, value) */\n      and\n        /* \"CYBCC.sol\":16819:16824  owner */\n      dup5\n      sub(shl(0xa0, 0x01), 0x01)\n        /* \"CYBCC.sol\":16810:16841  Approval(owner, spender, value) */\n      and\n      0x8c5be1e5ebec7d5bd14f71427d1e84f3dd0314c0f7b2291e5b200ac8c7c3b925\n        /* \"CYBCC.sol\":16835:16840  value */\n      dup5\n        /* \"CYBCC.sol\":16810:16841  Approval(owner, spender, value) */\n      mload(0x40)\n      tag_352\n      swap2\n        /* \"#utility.yul\":1489:1514   */\n      dup2\n      mstore\n        /* \"#utility.yul\":1477:1479   */\n      0x20\n        /* \"#utility.yul\":1462:1480   */\n      add\n      swap1\n        /* \"#utility.yul\":1343:1520   */\n      jump\n        /* \"CYBCC.sol\":16810:16841  Approval(owner, spender, value) */\n    tag_352:\n      mload(0x40)\n      dup1\n      swap2\n      sub\n      swap1\n      log3\n        /* \"CYBCC.sol\":16388:16858  function _approve(... */\n      pop\n      pop\n      pop\n      pop\n      jump\t// out\n        /* \"CYBCC.sol\":23943:24712  function _tokenTransfer(... */\n    tag_330:\n        /* \"CYBCC.sol\":24083:24090  takeFee */\n      dup1\n        /* \"CYBCC.sol\":24078:24131  if (!takeFee) {... */\n      tag_355\n      jumpi\n        /* \"CYBCC.sol\":24106:24120  removeAllFee() */\n      tag_355\n        /* \"CYBCC.sol\":24106:24118  removeAllFee */\n      tag_356\n        /* \"CYBCC.sol\":24106:24120  removeAllFee() */\n      jump\t// in\n    tag_355:\n      sub(shl(0xa0, 0x01), 0x01)\n        /* \"CYBCC.sol\":24145:24162  _isExcluded[from] */\n      dup5\n      and\n      0x00\n      swap1\n      dup2\n      mstore\n        /* \"CYBCC.sol\":24145:24156  _isExcluded */\n      0x08\n        /* \"CYBCC.sol\":24145:24162  _isExcluded[from] */\n      0x20\n      mstore\n      0x40\n      swap1\n      keccak256\n      sload\n      0xff\n      and\n        /* \"CYBCC.sol\":24145:24182  _isExcluded[from] && !_isExcluded[to] */\n      dup1\n      iszero\n      tag_357\n      jumpi\n      pop\n      sub(shl(0xa0, 0x01), 0x01)\n        /* \"CYBCC.sol\":24167:24182  _isExcluded[to] */\n      dup4\n      and\n      0x00\n      swap1\n      dup2\n      mstore\n        /* \"CYBCC.sol\":24167:24178  _isExcluded */\n      0x08\n        /* \"CYBCC.sol\":24167:24182  _isExcluded[to] */\n      0x20\n      mstore\n      0x40\n      swap1\n      keccak256\n      sload\n      0xff\n      and\n        /* \"CYBCC.sol\":24166:24182  !_isExcluded[to] */\n      iszero\n        /* \"CYBCC.sol\":24145:24182  _isExcluded[from] && !_isExcluded[to] */\n    tag_357:\n        /* \"CYBCC.sol\":24141:24642  if (_isExcluded[from] && !_isExcluded[to]) {... */\n      iszero\n      tag_358\n      jumpi\n        /* \"CYBCC.sol\":24198:24236  _transferFromExcluded(from, to, value) */\n      tag_359\n        /* \"CYBCC.sol\":24220:24224  from */\n      dup5\n        /* \"CYBCC.sol\":24226:24228  to */\n      dup5\n        /* \"CYBCC.sol\":24230:24235  value */\n      dup5\n        /* \"CYBCC.sol\":24198:24219  _transferFromExcluded */\n      tag_360\n        /* \"CYBCC.sol\":24198:24236  _transferFromExcluded(from, to, value) */\n      jump\t// in\n    tag_359:\n        /* \"CYBCC.sol\":24141:24642  if (_isExcluded[from] && !_isExcluded[to]) {... */\n      jump(tag_377)\n    tag_358:\n      sub(shl(0xa0, 0x01), 0x01)\n        /* \"CYBCC.sol\":24258:24275  _isExcluded[from] */\n      dup5\n      and\n      0x00\n      swap1\n      dup2\n      mstore\n        /* \"CYBCC.sol\":24258:24269  _isExcluded */\n      0x08\n        /* \"CYBCC.sol\":24258:24275  _isExcluded[from] */\n      0x20\n      mstore\n      0x40\n      swap1\n      keccak256\n      sload\n      0xff\n      and\n        /* \"CYBCC.sol\":24257:24275  !_isExcluded[from] */\n      iszero\n        /* \"CYBCC.sol\":24257:24294  !_isExcluded[from] && _isExcluded[to] */\n      dup1\n      iszero\n      tag_362\n      jumpi\n      pop\n      sub(shl(0xa0, 0x01), 0x01)\n        /* \"CYBCC.sol\":24279:24294  _isExcluded[to] */\n      dup4\n      and\n      0x00\n      swap1\n      dup2\n      mstore\n        /* \"CYBCC.sol\":24279:24290  _isExcluded */\n      0x08\n        /* \"CYBCC.sol\":24279:24294  _isExcluded[to] */\n      0x20\n      mstore\n      0x40\n      swap1\n      keccak256\n      sload\n      0xff\n      and\n        /* \"CYBCC.sol\":24257:24294  !_isExcluded[from] && _isExcluded[to] */\n    tag_362:\n        /* \"CYBCC.sol\":24253:24642  if (!_isExcluded[from] && _isExcluded[to]) {... */\n      iszero\n      tag_363\n      jumpi\n        /* \"CYBCC.sol\":24310:24346  _transferToExcluded(from, to, value) */\n      tag_359\n        /* \"CYBCC.sol\":24330:24334  from */\n      dup5\n        /* \"CYBCC.sol\":24336:24338  to */\n      dup5\n        /* \"CYBCC.sol\":24340:24345  value */\n      dup5\n        /* \"CYBCC.sol\":24310:24329  _transferToExcluded */\n      tag_365\n        /* \"CYBCC.sol\":24310:24346  _transferToExcluded(from, to, value) */\n      jump\t// in\n        /* \"CYBCC.sol\":24253:24642  if (!_isExcluded[from] && _isExcluded[to]) {... */\n    tag_363:\n      sub(shl(0xa0, 0x01), 0x01)\n        /* \"CYBCC.sol\":24368:24385  _isExcluded[from] */\n      dup5\n      and\n      0x00\n      swap1\n      dup2\n      mstore\n        /* \"CYBCC.sol\":24368:24379  _isExcluded */\n      0x08\n        /* \"CYBCC.sol\":24368:24385  _isExcluded[from] */\n      0x20\n      mstore\n      0x40\n      swap1\n      keccak256\n      sload\n      0xff\n      and\n        /* \"CYBCC.sol\":24367:24385  !_isExcluded[from] */\n      iszero\n        /* \"CYBCC.sol\":24367:24405  !_isExcluded[from] && !_isExcluded[to] */\n      dup1\n      iszero\n      tag_367\n      jumpi\n      pop\n      sub(shl(0xa0, 0x01), 0x01)\n        /* \"CYBCC.sol\":24390:24405  _isExcluded[to] */\n      dup4\n      and\n      0x00\n      swap1\n      dup2\n      mstore\n        /* \"CYBCC.sol\":24390:24401  _isExcluded */\n      0x08\n        /* \"CYBCC.sol\":24390:24405  _isExcluded[to] */\n      0x20\n      mstore\n      0x40\n      swap1\n      keccak256\n      sload\n      0xff\n      and\n        /* \"CYBCC.sol\":24389:24405  !_isExcluded[to] */\n      iszero\n        /* \"CYBCC.sol\":24367:24405  !_isExcluded[from] && !_isExcluded[to] */\n    tag_367:\n        /* \"CYBCC.sol\":24363:24642  if (!_isExcluded[from] && !_isExcluded[to]) {... */\n      iszero\n      tag_368\n      jumpi\n        /* \"CYBCC.sol\":24421:24455  _transferStandard(from, to, value) */\n      tag_359\n        /* \"CYBCC.sol\":24439:24443  from */\n      dup5\n        /* \"CYBCC.sol\":24445:24447  to */\n      dup5\n        /* \"CYBCC.sol\":24449:24454  value */\n      dup5\n        /* \"CYBCC.sol\":24421:24438  _transferStandard */\n      tag_370\n        /* \"CYBCC.sol\":24421:24455  _transferStandard(from, to, value) */\n      jump\t// in\n        /* \"CYBCC.sol\":24363:24642  if (!_isExcluded[from] && !_isExcluded[to]) {... */\n    tag_368:\n      sub(shl(0xa0, 0x01), 0x01)\n        /* \"CYBCC.sol\":24476:24493  _isExcluded[from] */\n      dup5\n      and\n      0x00\n      swap1\n      dup2\n      mstore\n        /* \"CYBCC.sol\":24476:24487  _isExcluded */\n      0x08\n        /* \"CYBCC.sol\":24476:24493  _isExcluded[from] */\n      0x20\n      mstore\n      0x40\n      swap1\n      keccak256\n      sload\n      0xff\n      and\n        /* \"CYBCC.sol\":24476:24512  _isExcluded[from] && _isExcluded[to] */\n      dup1\n      iszero\n      tag_372\n      jumpi\n      pop\n      sub(shl(0xa0, 0x01), 0x01)\n        /* \"CYBCC.sol\":24497:24512  _isExcluded[to] */\n      dup4\n      and\n      0x00\n      swap1\n      dup2\n      mstore\n        /* \"CYBCC.sol\":24497:24508  _isExcluded */\n      0x08\n        /* \"CYBCC.sol\":24497:24512  _isExcluded[to] */\n      0x20\n      mstore\n      0x40\n      swap1\n      keccak256\n      sload\n      0xff\n      and\n        /* \"CYBCC.sol\":24476:24512  _isExcluded[from] && _isExcluded[to] */\n    tag_372:\n        /* \"CYBCC.sol\":24472:24642  if (_isExcluded[from] && _isExcluded[to]) {... */\n      iszero\n      tag_373\n      jumpi\n        /* \"CYBCC.sol\":24528:24566  _transferBothExcluded(from, to, value) */\n      tag_359\n        /* \"CYBCC.sol\":24550:24554  from */\n      dup5\n        /* \"CYBCC.sol\":24556:24558  to */\n      dup5\n        /* \"CYBCC.sol\":24560:24565  value */\n      dup5\n        /* \"CYBCC.sol\":24528:24549  _transferBothExcluded */\n      tag_375\n        /* \"CYBCC.sol\":24528:24566  _transferBothExcluded(from, to, value) */\n      jump\t// in\n        /* \"CYBCC.sol\":24472:24642  if (_isExcluded[from] && _isExcluded[to]) {... */\n    tag_373:\n        /* \"CYBCC.sol\":24597:24631  _transferStandard(from, to, value) */\n      tag_377\n        /* \"CYBCC.sol\":24615:24619  from */\n      dup5\n        /* \"CYBCC.sol\":24621:24623  to */\n      dup5\n        /* \"CYBCC.sol\":24625:24630  value */\n      dup5\n        /* \"CYBCC.sol\":24597:24614  _transferStandard */\n      tag_370\n        /* \"CYBCC.sol\":24597:24631  _transferStandard(from, to, value) */\n      jump\t// in\n    tag_377:\n        /* \"CYBCC.sol\":24657:24664  takeFee */\n      dup1\n        /* \"CYBCC.sol\":24652:24706  if (!takeFee) {... */\n      tag_305\n      jumpi\n        /* \"CYBCC.sol\":24680:24695  restoreAllFee() */\n      tag_305\n        /* \"CYBCC.sol\":25017:25039  _previousReflectionFee */\n      sload(0x0f)\n        /* \"CYBCC.sol\":25000:25014  _reflectionFee */\n      0x0e\n        /* \"CYBCC.sol\":25000:25039  _reflectionFee = _previousReflectionFee */\n      sstore\n        /* \"CYBCC.sol\":25060:25075  _previousTaxFee */\n      sload(0x11)\n        /* \"CYBCC.sol\":25050:25057  _taxFee */\n      0x10\n        /* \"CYBCC.sol\":25050:25075  _taxFee = _previousTaxFee */\n      sstore\n        /* \"CYBCC.sol\":24957:25082  function restoreAllFee() private {... */\n      jump\n        /* \"CYBCC.sol\":28954:29599  function _getCurrentSupply() private view returns (uint256, uint256) {... */\n    tag_344:\n        /* \"CYBCC.sol\":29051:29058  _rTotal */\n      sload(0x0c)\n        /* \"CYBCC.sol\":29087:29094  _tTotal */\n      sload(0x0b)\n        /* \"CYBCC.sol\":29005:29012  uint256 */\n      0x00\n      swap2\n      dup3\n      swap2\n      dup3\n        /* \"CYBCC.sol\":29105:29464  for (uint256 i = 0; i < _excluded.length; i++) {... */\n    tag_382:\n        /* \"CYBCC.sol\":29129:29138  _excluded */\n      0x09\n        /* \"CYBCC.sol\":29129:29145  _excluded.length */\n      sload\n        /* \"CYBCC.sol\":29125:29145  i < _excluded.length */\n      dup2\n      lt\n        /* \"CYBCC.sol\":29105:29464  for (uint256 i = 0; i < _excluded.length; i++) {... */\n      iszero\n      tag_383\n      jumpi\n        /* \"CYBCC.sol\":29211:29218  rSupply */\n      dup3\n        /* \"CYBCC.sol\":29187:29194  _rOwned */\n      0x05\n        /* \"CYBCC.sol\":29187:29208  _rOwned[_excluded[i]] */\n      0x00\n        /* \"CYBCC.sol\":29195:29204  _excluded */\n      0x09\n        /* \"CYBCC.sol\":29205:29206  i */\n      dup5\n        /* \"CYBCC.sol\":29195:29207  _excluded[i] */\n      dup2\n      sload\n      dup2\n      lt\n      tag_386\n      jumpi\n      tag_386\n      tag_272\n      jump\t// in\n    tag_386:\n      0x00\n      swap2\n      dup3\n      mstore\n      0x20\n      dup1\n      dup4\n      keccak256\n      swap1\n      swap2\n      add\n      sload\n      sub(shl(0xa0, 0x01), 0x01)\n      and\n        /* \"CYBCC.sol\":29187:29208  _rOwned[_excluded[i]] */\n      dup4\n      mstore\n      dup3\n      add\n      swap3\n      swap1\n      swap3\n      mstore\n      0x40\n      add\n      swap1\n      keccak256\n      sload\n        /* \"CYBCC.sol\":29187:29218  _rOwned[_excluded[i]] > rSupply */\n      gt\n      dup1\n        /* \"CYBCC.sol\":29187:29269  _rOwned[_excluded[i]] > rSupply ||... */\n      tag_388\n      jumpi\n      pop\n        /* \"CYBCC.sol\":29262:29269  tSupply */\n      dup2\n        /* \"CYBCC.sol\":29238:29245  _tOwned */\n      0x06\n        /* \"CYBCC.sol\":29238:29259  _tOwned[_excluded[i]] */\n      0x00\n        /* \"CYBCC.sol\":29246:29255  _excluded */\n      0x09\n        /* \"CYBCC.sol\":29256:29257  i */\n      dup5\n        /* \"CYBCC.sol\":29246:29258  _excluded[i] */\n      dup2\n      sload\n      dup2\n      lt\n      tag_390\n      jumpi\n      tag_390\n      tag_272\n      jump\t// in\n    tag_390:\n      0x00\n      swap2\n      dup3\n      mstore\n      0x20\n      dup1\n      dup4\n      keccak256\n      swap1\n      swap2\n      add\n      sload\n      sub(shl(0xa0, 0x01), 0x01)\n      and\n        /* \"CYBCC.sol\":29238:29259  _tOwned[_excluded[i]] */\n      dup4\n      mstore\n      dup3\n      add\n      swap3\n      swap1\n      swap3\n      mstore\n      0x40\n      add\n      swap1\n      keccak256\n      sload\n        /* \"CYBCC.sol\":29238:29269  _tOwned[_excluded[i]] > tSupply */\n      gt\n        /* \"CYBCC.sol\":29187:29269  _rOwned[_excluded[i]] > rSupply ||... */\n    tag_388:\n        /* \"CYBCC.sol\":29166:29342  if (... */\n      iszero\n      tag_392\n      jumpi\n        /* \"CYBCC.sol\":29310:29317  _rTotal */\n      sload(0x0c)\n        /* \"CYBCC.sol\":29319:29326  _tTotal */\n      sload(0x0b)\n        /* \"CYBCC.sol\":29302:29327  return (_rTotal, _tTotal) */\n      swap5\n      pop\n      swap5\n      pop\n      pop\n      pop\n      pop\n        /* \"CYBCC.sol\":28954:29599  function _getCurrentSupply() private view returns (uint256, uint256) {... */\n      swap1\n      swap2\n      jump\t// out\n        /* \"CYBCC.sol\":29166:29342  if (... */\n    tag_392:\n        /* \"CYBCC.sol\":29376:29383  _rOwned */\n      0x05\n        /* \"CYBCC.sol\":29376:29397  _rOwned[_excluded[i]] */\n      0x00\n        /* \"CYBCC.sol\":29384:29393  _excluded */\n      0x09\n        /* \"CYBCC.sol\":29394:29395  i */\n      dup4\n        /* \"CYBCC.sol\":29384:29396  _excluded[i] */\n      dup2\n      sload\n      dup2\n      lt\n      tag_394\n      jumpi\n      tag_394\n      tag_272\n      jump\t// in\n    tag_394:\n      0x00\n      swap2\n      dup3\n      mstore\n      0x20\n      dup1\n      dup4\n      keccak256\n      swap1\n      swap2\n      add\n      sload\n      sub(shl(0xa0, 0x01), 0x01)\n      and\n        /* \"CYBCC.sol\":29376:29397  _rOwned[_excluded[i]] */\n      dup4\n      mstore\n      dup3\n      add\n      swap3\n      swap1\n      swap3\n      mstore\n      0x40\n      add\n      swap1\n      keccak256\n      sload\n        /* \"CYBCC.sol\":29366:29397  rSupply - _rOwned[_excluded[i]] */\n      tag_396\n      swap1\n        /* \"CYBCC.sol\":29366:29373  rSupply */\n      dup5\n        /* \"CYBCC.sol\":29366:29397  rSupply - _rOwned[_excluded[i]] */\n      tag_171\n      jump\t// in\n    tag_396:\n        /* \"CYBCC.sol\":29356:29397  rSupply = rSupply - _rOwned[_excluded[i]] */\n      swap3\n      pop\n        /* \"CYBCC.sol\":29432:29439  _tOwned */\n      0x06\n        /* \"CYBCC.sol\":29432:29453  _tOwned[_excluded[i]] */\n      0x00\n        /* \"CYBCC.sol\":29440:29449  _excluded */\n      0x09\n        /* \"CYBCC.sol\":29450:29451  i */\n      dup4\n        /* \"CYBCC.sol\":29440:29452  _excluded[i] */\n      dup2\n      sload\n      dup2\n      lt\n      tag_398\n      jumpi\n      tag_398\n      tag_272\n      jump\t// in\n    tag_398:\n      0x00\n      swap2\n      dup3\n      mstore\n      0x20\n      dup1\n      dup4\n      keccak256\n      swap1\n      swap2\n      add\n      sload\n      sub(shl(0xa0, 0x01), 0x01)\n      and\n        /* \"CYBCC.sol\":29432:29453  _tOwned[_excluded[i]] */\n      dup4\n      mstore\n      dup3\n      add\n      swap3\n      swap1\n      swap3\n      mstore\n      0x40\n      add\n      swap1\n      keccak256\n      sload\n        /* \"CYBCC.sol\":29422:29453  tSupply - _tOwned[_excluded[i]] */\n      tag_400\n      swap1\n        /* \"CYBCC.sol\":29422:29429  tSupply */\n      dup4\n        /* \"CYBCC.sol\":29422:29453  tSupply - _tOwned[_excluded[i]] */\n      tag_171\n      jump\t// in\n    tag_400:\n        /* \"CYBCC.sol\":29412:29453  tSupply = tSupply - _tOwned[_excluded[i]] */\n      swap2\n      pop\n        /* \"CYBCC.sol\":29147:29150  i++ */\n      0x01\n      add\n        /* \"CYBCC.sol\":29105:29464  for (uint256 i = 0; i < _excluded.length; i++) {... */\n      jump(tag_382)\n    tag_383:\n      pop\n        /* \"CYBCC.sol\":29498:29505  _tTotal */\n      sload(0x0b)\n        /* \"CYBCC.sol\":29488:29495  _rTotal */\n      sload(0x0c)\n        /* \"CYBCC.sol\":29488:29505  _rTotal / _tTotal */\n      tag_401\n      swap2\n      swap1\n      tag_337\n      jump\t// in\n    tag_401:\n        /* \"CYBCC.sol\":29478:29485  rSupply */\n      dup3\n        /* \"CYBCC.sol\":29478:29505  rSupply < _rTotal / _tTotal */\n      lt\n        /* \"CYBCC.sol\":29474:29557  if (rSupply < _rTotal / _tTotal) {... */\n      iszero\n      tag_402\n      jumpi\n        /* \"CYBCC.sol\":29529:29536  _rTotal */\n      sload(0x0c)\n        /* \"CYBCC.sol\":29538:29545  _tTotal */\n      sload(0x0b)\n        /* \"CYBCC.sol\":29521:29546  return (_rTotal, _tTotal) */\n      swap4\n      pop\n      swap4\n      pop\n      pop\n      pop\n        /* \"CYBCC.sol\":28954:29599  function _getCurrentSupply() private view returns (uint256, uint256) {... */\n      swap1\n      swap2\n      jump\t// out\n        /* \"CYBCC.sol\":29474:29557  if (rSupply < _rTotal / _tTotal) {... */\n    tag_402:\n        /* \"CYBCC.sol\":29575:29582  rSupply */\n      swap1\n      swap4\n        /* \"CYBCC.sol\":29584:29591  tSupply */\n      swap1\n      swap3\n      pop\n        /* \"CYBCC.sol\":28954:29599  function _getCurrentSupply() private view returns (uint256, uint256) {... */\n      swap1\n      pop\n      jump\t// out\n        /* \"CYBCC.sol\":24718:24951  function removeAllFee() private {... */\n    tag_356:\n        /* \"CYBCC.sol\":24764:24778  _reflectionFee */\n      sload(0x0e)\n        /* \"CYBCC.sol\":24764:24783  _reflectionFee == 0 */\n      iszero\n        /* \"CYBCC.sol\":24764:24799  _reflectionFee == 0 && _taxFee == 0 */\n      dup1\n      iszero\n      tag_404\n      jumpi\n      pop\n        /* \"CYBCC.sol\":24787:24794  _taxFee */\n      sload(0x10)\n        /* \"CYBCC.sol\":24787:24799  _taxFee == 0 */\n      iszero\n        /* \"CYBCC.sol\":24764:24799  _reflectionFee == 0 && _taxFee == 0 */\n    tag_404:\n        /* \"CYBCC.sol\":24760:24808  if (_reflectionFee == 0 && _taxFee == 0) return; */\n      iszero\n      tag_405\n      jumpi\n        /* \"CYBCC.sol\":24718:24951  function removeAllFee() private {... */\n      jump\t// out\n        /* \"CYBCC.sol\":24760:24808  if (_reflectionFee == 0 && _taxFee == 0) return; */\n    tag_405:\n        /* \"CYBCC.sol\":24843:24857  _reflectionFee */\n      0x0e\n      dup1\n      sload\n        /* \"CYBCC.sol\":24818:24840  _previousReflectionFee */\n      0x0f\n        /* \"CYBCC.sol\":24818:24857  _previousReflectionFee = _reflectionFee */\n      sstore\n        /* \"CYBCC.sol\":24886:24893  _taxFee */\n      0x10\n      dup1\n      sload\n        /* \"CYBCC.sol\":24868:24883  _previousTaxFee */\n      0x11\n        /* \"CYBCC.sol\":24868:24893  _previousTaxFee = _taxFee */\n      sstore\n      0x00\n        /* \"CYBCC.sol\":24904:24922  _reflectionFee = 0 */\n      swap2\n      dup3\n      swap1\n      sstore\n        /* \"CYBCC.sol\":24933:24944  _taxFee = 0 */\n      sstore\n        /* \"CYBCC.sol\":24718:24951  function removeAllFee() private {... */\n      jump\t// out\n        /* \"CYBCC.sol\":26352:27001  function _transferFromExcluded(... */\n    tag_360:\n        /* \"CYBCC.sol\":26497:26512  uint256 rAmount */\n      0x00\n        /* \"CYBCC.sol\":26526:26549  uint256 rTransferAmount */\n      0x00\n        /* \"CYBCC.sol\":26563:26586  uint256 tTransferAmount */\n      0x00\n        /* \"CYBCC.sol\":26600:26619  uint256 currentRate */\n      0x00\n        /* \"CYBCC.sol\":26632:26659  _getTransferValues(tAmount) */\n      tag_407\n        /* \"CYBCC.sol\":26651:26658  tAmount */\n      dup6\n        /* \"CYBCC.sol\":26632:26650  _getTransferValues */\n      tag_169\n        /* \"CYBCC.sol\":26632:26659  _getTransferValues(tAmount) */\n      jump\t// in\n    tag_407:\n      sub(shl(0xa0, 0x01), 0x01)\n        /* \"CYBCC.sol\":26688:26703  _tOwned[sender] */\n      dup12\n      and\n      0x00\n      swap1\n      dup2\n      mstore\n        /* \"CYBCC.sol\":26688:26695  _tOwned */\n      0x06\n        /* \"CYBCC.sol\":26688:26703  _tOwned[sender] */\n      0x20\n      mstore\n      0x40\n      swap1\n      keccak256\n      sload\n        /* \"CYBCC.sol\":26483:26659  (... */\n      swap4\n      swap8\n      pop\n      swap2\n      swap6\n      pop\n      swap4\n      pop\n      swap2\n      pop\n        /* \"CYBCC.sol\":26688:26713  _tOwned[sender] - tAmount */\n      tag_408\n      swap1\n        /* \"CYBCC.sol\":26706:26713  tAmount */\n      dup7\n      swap1\n        /* \"CYBCC.sol\":26688:26713  _tOwned[sender] - tAmount */\n      tag_171\n      jump\t// in\n    tag_408:\n      sub(shl(0xa0, 0x01), 0x01)\n        /* \"CYBCC.sol\":26670:26685  _tOwned[sender] */\n      dup9\n      and\n      0x00\n      swap1\n      dup2\n      mstore\n        /* \"CYBCC.sol\":26670:26677  _tOwned */\n      0x06\n        /* \"CYBCC.sol\":26670:26685  _tOwned[sender] */\n      0x20\n      swap1\n      dup2\n      mstore\n      0x40\n      dup1\n      dup4\n      keccak256\n        /* \"CYBCC.sol\":26670:26713  _tOwned[sender] = _tOwned[sender] - tAmount */\n      swap4\n      swap1\n      swap4\n      sstore\n        /* \"CYBCC.sol\":26742:26749  _rOwned */\n      0x05\n        /* \"CYBCC.sol\":26742:26757  _rOwned[sender] */\n      swap1\n      mstore\n      keccak256\n      sload\n        /* \"CYBCC.sol\":26742:26767  _rOwned[sender] - rAmount */\n      tag_409\n      swap1\n        /* \"CYBCC.sol\":26760:26767  rAmount */\n      dup6\n      swap1\n        /* \"CYBCC.sol\":26742:26767  _rOwned[sender] - rAmount */\n      tag_171\n      jump\t// in\n    tag_409:\n      sub(shl(0xa0, 0x01), 0x01)\n        /* \"CYBCC.sol\":26724:26739  _rOwned[sender] */\n      dup1\n      dup10\n      and\n      0x00\n      swap1\n      dup2\n      mstore\n        /* \"CYBCC.sol\":26724:26731  _rOwned */\n      0x05\n        /* \"CYBCC.sol\":26724:26739  _rOwned[sender] */\n      0x20\n      mstore\n      0x40\n      dup1\n      dup3\n      keccak256\n        /* \"CYBCC.sol\":26724:26767  _rOwned[sender] = _rOwned[sender] - rAmount */\n      swap4\n      swap1\n      swap4\n      sstore\n        /* \"CYBCC.sol\":26799:26817  _rOwned[recipient] */\n      swap1\n      dup9\n      and\n      dup2\n      mstore\n      keccak256\n      sload\n        /* \"CYBCC.sol\":26799:26835  _rOwned[recipient] + rTransferAmount */\n      tag_410\n      swap1\n        /* \"CYBCC.sol\":26820:26835  rTransferAmount */\n      dup5\n      swap1\n        /* \"CYBCC.sol\":26799:26835  _rOwned[recipient] + rTransferAmount */\n      tag_174\n      jump\t// in\n    tag_410:\n      sub(shl(0xa0, 0x01), 0x01)\n        /* \"CYBCC.sol\":26778:26796  _rOwned[recipient] */\n      dup8\n      and\n      0x00\n      swap1\n      dup2\n      mstore\n        /* \"CYBCC.sol\":26778:26785  _rOwned */\n      0x05\n        /* \"CYBCC.sol\":26778:26796  _rOwned[recipient] */\n      0x20\n      mstore\n      0x40\n      swap1\n      keccak256\n        /* \"CYBCC.sol\":26778:26835  _rOwned[recipient] = _rOwned[recipient] + rTransferAmount */\n      sstore\n        /* \"CYBCC.sol\":26846:26890  taxFeeTransfer(sender, tAmount, currentRate) */\n      tag_411\n        /* \"CYBCC.sol\":26861:26867  sender */\n      dup8\n        /* \"CYBCC.sol\":26869:26876  tAmount */\n      dup7\n        /* \"CYBCC.sol\":26878:26889  currentRate */\n      dup4\n        /* \"CYBCC.sol\":26846:26860  taxFeeTransfer */\n      tag_412\n        /* \"CYBCC.sol\":26846:26890  taxFeeTransfer(sender, tAmount, currentRate) */\n      jump\t// in\n    tag_411:\n        /* \"CYBCC.sol\":26901:26934  _reflectFee(tAmount, currentRate) */\n      tag_413\n        /* \"CYBCC.sol\":26913:26920  tAmount */\n      dup6\n        /* \"CYBCC.sol\":26922:26933  currentRate */\n      dup3\n        /* \"CYBCC.sol\":26901:26912  _reflectFee */\n      tag_414\n        /* \"CYBCC.sol\":26901:26934  _reflectFee(tAmount, currentRate) */\n      jump\t// in\n    tag_413:\n        /* \"CYBCC.sol\":26967:26976  recipient */\n      dup6\n      sub(shl(0xa0, 0x01), 0x01)\n        /* \"CYBCC.sol\":26950:26994  Transfer(sender, recipient, tTransferAmount) */\n      and\n        /* \"CYBCC.sol\":26959:26965  sender */\n      dup8\n      sub(shl(0xa0, 0x01), 0x01)\n        /* \"CYBCC.sol\":26950:26994  Transfer(sender, recipient, tTransferAmount) */\n      and\n      0xddf252ad1be2c89b69c2b068fc378daa952ba7f163c4a11628f55a4df523b3ef\n        /* \"CYBCC.sol\":26978:26993  tTransferAmount */\n      dup5\n        /* \"CYBCC.sol\":26950:26994  Transfer(sender, recipient, tTransferAmount) */\n      mload(0x40)\n      tag_415\n      swap2\n        /* \"#utility.yul\":1489:1514   */\n      dup2\n      mstore\n        /* \"#utility.yul\":1477:1479   */\n      0x20\n        /* \"#utility.yul\":1462:1480   */\n      add\n      swap1\n        /* \"#utility.yul\":1343:1520   */\n      jump\n        /* \"CYBCC.sol\":26950:26994  Transfer(sender, recipient, tTransferAmount) */\n    tag_415:\n      mload(0x40)\n      dup1\n      swap2\n      sub\n      swap1\n      log3\n        /* \"CYBCC.sol\":26473:27001  {... */\n      pop\n      pop\n      pop\n      pop\n        /* \"CYBCC.sol\":26352:27001  function _transferFromExcluded(... */\n      pop\n      pop\n      pop\n      jump\t// out\n        /* \"CYBCC.sol\":25685:26346  function _transferToExcluded(... */\n    tag_365:\n        /* \"CYBCC.sol\":25828:25843  uint256 rAmount */\n      0x00\n        /* \"CYBCC.sol\":25857:25880  uint256 rTransferAmount */\n      0x00\n        /* \"CYBCC.sol\":25894:25917  uint256 tTransferAmount */\n      0x00\n        /* \"CYBCC.sol\":25931:25950  uint256 currentRate */\n      0x00\n        /* \"CYBCC.sol\":25963:25990  _getTransferValues(tAmount) */\n      tag_417\n        /* \"CYBCC.sol\":25982:25989  tAmount */\n      dup6\n        /* \"CYBCC.sol\":25963:25981  _getTransferValues */\n      tag_169\n        /* \"CYBCC.sol\":25963:25990  _getTransferValues(tAmount) */\n      jump\t// in\n    tag_417:\n      sub(shl(0xa0, 0x01), 0x01)\n        /* \"CYBCC.sol\":26019:26034  _rOwned[sender] */\n      dup12\n      and\n      0x00\n      swap1\n      dup2\n      mstore\n        /* \"CYBCC.sol\":26019:26026  _rOwned */\n      0x05\n        /* \"CYBCC.sol\":26019:26034  _rOwned[sender] */\n      0x20\n      mstore\n      0x40\n      swap1\n      keccak256\n      sload\n        /* \"CYBCC.sol\":25814:25990  (... */\n      swap4\n      swap8\n      pop\n      swap2\n      swap6\n      pop\n      swap4\n      pop\n      swap2\n      pop\n        /* \"CYBCC.sol\":26019:26044  _rOwned[sender] - rAmount */\n      tag_418\n      swap1\n        /* \"CYBCC.sol\":25814:25990  (... */\n      dup6\n      swap1\n        /* \"CYBCC.sol\":26019:26044  _rOwned[sender] - rAmount */\n      tag_171\n      jump\t// in\n    tag_418:\n      sub(shl(0xa0, 0x01), 0x01)\n        /* \"CYBCC.sol\":26001:26016  _rOwned[sender] */\n      dup1\n      dup10\n      and\n      0x00\n      swap1\n      dup2\n      mstore\n        /* \"CYBCC.sol\":26001:26008  _rOwned */\n      0x05\n        /* \"CYBCC.sol\":26001:26016  _rOwned[sender] */\n      0x20\n      swap1\n      dup2\n      mstore\n      0x40\n      dup1\n      dup4\n      keccak256\n        /* \"CYBCC.sol\":26001:26044  _rOwned[sender] = _rOwned[sender] - rAmount */\n      swap5\n      swap1\n      swap5\n      sstore\n        /* \"CYBCC.sol\":26076:26094  _tOwned[recipient] */\n      swap2\n      dup10\n      and\n      dup2\n      mstore\n        /* \"CYBCC.sol\":26076:26083  _tOwned */\n      0x06\n        /* \"CYBCC.sol\":26076:26094  _tOwned[recipient] */\n      swap1\n      swap2\n      mstore\n      keccak256\n      sload\n        /* \"CYBCC.sol\":26076:26112  _tOwned[recipient] + tTransferAmount */\n      tag_419\n      swap1\n        /* \"CYBCC.sol\":26097:26112  tTransferAmount */\n      dup4\n      swap1\n        /* \"CYBCC.sol\":26076:26112  _tOwned[recipient] + tTransferAmount */\n      tag_174\n      jump\t// in\n    tag_419:\n      sub(shl(0xa0, 0x01), 0x01)\n        /* \"CYBCC.sol\":26055:26073  _tOwned[recipient] */\n      dup8\n      and\n      0x00\n      swap1\n      dup2\n      mstore\n        /* \"CYBCC.sol\":26055:26062  _tOwned */\n      0x06\n        /* \"CYBCC.sol\":26055:26073  _tOwned[recipient] */\n      0x20\n      swap1\n      dup2\n      mstore\n      0x40\n      dup1\n      dup4\n      keccak256\n        /* \"CYBCC.sol\":26055:26112  _tOwned[recipient] = _tOwned[recipient] + tTransferAmount */\n      swap4\n      swap1\n      swap4\n      sstore\n        /* \"CYBCC.sol\":26144:26151  _rOwned */\n      0x05\n        /* \"CYBCC.sol\":26144:26162  _rOwned[recipient] */\n      swap1\n      mstore\n      keccak256\n      sload\n        /* \"CYBCC.sol\":26144:26180  _rOwned[recipient] + rTransferAmount */\n      tag_410\n      swap1\n        /* \"CYBCC.sol\":26165:26180  rTransferAmount */\n      dup5\n      swap1\n        /* \"CYBCC.sol\":26144:26180  _rOwned[recipient] + rTransferAmount */\n      tag_174\n      jump\t// in\n        /* \"CYBCC.sol\":25088:25679  function _transferStandard(... */\n    tag_370:\n        /* \"CYBCC.sol\":25229:25244  uint256 rAmount */\n      0x00\n        /* \"CYBCC.sol\":25258:25281  uint256 rTransferAmount */\n      0x00\n        /* \"CYBCC.sol\":25295:25318  uint256 tTransferAmount */\n      0x00\n        /* \"CYBCC.sol\":25332:25351  uint256 currentRate */\n      0x00\n        /* \"CYBCC.sol\":25364:25391  _getTransferValues(tAmount) */\n      tag_425\n        /* \"CYBCC.sol\":25383:25390  tAmount */\n      dup6\n        /* \"CYBCC.sol\":25364:25382  _getTransferValues */\n      tag_169\n        /* \"CYBCC.sol\":25364:25391  _getTransferValues(tAmount) */\n      jump\t// in\n    tag_425:\n      sub(shl(0xa0, 0x01), 0x01)\n        /* \"CYBCC.sol\":25420:25435  _rOwned[sender] */\n      dup12\n      and\n      0x00\n      swap1\n      dup2\n      mstore\n        /* \"CYBCC.sol\":25420:25427  _rOwned */\n      0x05\n        /* \"CYBCC.sol\":25420:25435  _rOwned[sender] */\n      0x20\n      mstore\n      0x40\n      swap1\n      keccak256\n      sload\n        /* \"CYBCC.sol\":25215:25391  (... */\n      swap4\n      swap8\n      pop\n      swap2\n      swap6\n      pop\n      swap4\n      pop\n      swap2\n      pop\n        /* \"CYBCC.sol\":25420:25445  _rOwned[sender] - rAmount */\n      tag_409\n      swap1\n        /* \"CYBCC.sol\":25215:25391  (... */\n      dup6\n      swap1\n        /* \"CYBCC.sol\":25420:25445  _rOwned[sender] - rAmount */\n      tag_171\n      jump\t// in\n        /* \"CYBCC.sol\":27007:27724  function _transferBothExcluded(... */\n    tag_375:\n        /* \"CYBCC.sol\":27152:27167  uint256 rAmount */\n      0x00\n        /* \"CYBCC.sol\":27181:27204  uint256 rTransferAmount */\n      0x00\n        /* \"CYBCC.sol\":27218:27241  uint256 tTransferAmount */\n      0x00\n        /* \"CYBCC.sol\":27255:27274  uint256 currentRate */\n      0x00\n        /* \"CYBCC.sol\":27287:27314  _getTransferValues(tAmount) */\n      tag_432\n        /* \"CYBCC.sol\":27306:27313  tAmount */\n      dup6\n        /* \"CYBCC.sol\":27287:27305  _getTransferValues */\n      tag_169\n        /* \"CYBCC.sol\":27287:27314  _getTransferValues(tAmount) */\n      jump\t// in\n    tag_432:\n      sub(shl(0xa0, 0x01), 0x01)\n        /* \"CYBCC.sol\":27343:27358  _tOwned[sender] */\n      dup12\n      and\n      0x00\n      swap1\n      dup2\n      mstore\n        /* \"CYBCC.sol\":27343:27350  _tOwned */\n      0x06\n        /* \"CYBCC.sol\":27343:27358  _tOwned[sender] */\n      0x20\n      mstore\n      0x40\n      swap1\n      keccak256\n      sload\n        /* \"CYBCC.sol\":27138:27314  (... */\n      swap4\n      swap8\n      pop\n      swap2\n      swap6\n      pop\n      swap4\n      pop\n      swap2\n      pop\n        /* \"CYBCC.sol\":27343:27368  _tOwned[sender] - tAmount */\n      tag_433\n      swap1\n        /* \"CYBCC.sol\":27361:27368  tAmount */\n      dup7\n      swap1\n        /* \"CYBCC.sol\":27343:27368  _tOwned[sender] - tAmount */\n      tag_171\n      jump\t// in\n    tag_433:\n      sub(shl(0xa0, 0x01), 0x01)\n        /* \"CYBCC.sol\":27325:27340  _tOwned[sender] */\n      dup9\n      and\n      0x00\n      swap1\n      dup2\n      mstore\n        /* \"CYBCC.sol\":27325:27332  _tOwned */\n      0x06\n        /* \"CYBCC.sol\":27325:27340  _tOwned[sender] */\n      0x20\n      swap1\n      dup2\n      mstore\n      0x40\n      dup1\n      dup4\n      keccak256\n        /* \"CYBCC.sol\":27325:27368  _tOwned[sender] = _tOwned[sender] - tAmount */\n      swap4\n      swap1\n      swap4\n      sstore\n        /* \"CYBCC.sol\":27397:27404  _rOwned */\n      0x05\n        /* \"CYBCC.sol\":27397:27412  _rOwned[sender] */\n      swap1\n      mstore\n      keccak256\n      sload\n        /* \"CYBCC.sol\":27397:27422  _rOwned[sender] - rAmount */\n      tag_418\n      swap1\n        /* \"CYBCC.sol\":27415:27422  rAmount */\n      dup6\n      swap1\n        /* \"CYBCC.sol\":27397:27422  _rOwned[sender] - rAmount */\n      tag_171\n      jump\t// in\n        /* \"CYBCC.sol\":29855:30340  function taxFeeTransfer(... */\n    tag_412:\n        /* \"CYBCC.sol\":29981:29996  uint256 tTaxFee */\n      0x00\n        /* \"CYBCC.sol\":30021:30024  100 */\n      0x64\n        /* \"CYBCC.sol\":30010:30017  _taxFee */\n      sload(0x10)\n        /* \"CYBCC.sol\":30000:30007  tAmount */\n      dup5\n        /* \"CYBCC.sol\":30000:30017  tAmount * _taxFee */\n      tag_442\n      swap2\n      swap1\n      tag_294\n      jump\t// in\n    tag_442:\n        /* \"CYBCC.sol\":29999:30024  (tAmount * _taxFee) / 100 */\n      tag_443\n      swap2\n      swap1\n      tag_337\n      jump\t// in\n    tag_443:\n        /* \"CYBCC.sol\":29981:30024  uint256 tTaxFee = (tAmount * _taxFee) / 100 */\n      swap1\n      pop\n        /* \"CYBCC.sol\":30039:30050  tTaxFee > 0 */\n      dup1\n      iszero\n        /* \"CYBCC.sol\":30035:30334  if (tTaxFee > 0) {... */\n      tag_305\n      jumpi\n        /* \"CYBCC.sol\":30066:30081  uint256 rTaxFee */\n      0x00\n        /* \"CYBCC.sol\":30084:30105  tTaxFee * currentRate */\n      tag_445\n        /* \"CYBCC.sol\":30094:30105  currentRate */\n      dup4\n        /* \"CYBCC.sol\":30084:30091  tTaxFee */\n      dup4\n        /* \"CYBCC.sol\":30084:30105  tTaxFee * currentRate */\n      tag_294\n      jump\t// in\n    tag_445:\n        /* \"CYBCC.sol\":30187:30218  _marketingAndDevelopmentAccount */\n      and(sub(shl(0xa0, 0x01), 0x01), sload(0x12))\n        /* \"CYBCC.sol\":30179:30219  _rOwned[_marketingAndDevelopmentAccount] */\n      0x00\n      swap1\n      dup2\n      mstore\n        /* \"CYBCC.sol\":30179:30186  _rOwned */\n      0x05\n        /* \"CYBCC.sol\":30179:30219  _rOwned[_marketingAndDevelopmentAccount] */\n      0x20\n      mstore\n      0x40\n      swap1\n      keccak256\n      sload\n        /* \"CYBCC.sol\":30066:30105  uint256 rTaxFee = tTaxFee * currentRate */\n      swap1\n      swap2\n      pop\n        /* \"CYBCC.sol\":30179:30245  _rOwned[_marketingAndDevelopmentAccount] +... */\n      tag_446\n      swap1\n        /* \"CYBCC.sol\":30066:30105  uint256 rTaxFee = tTaxFee * currentRate */\n      dup3\n      swap1\n        /* \"CYBCC.sol\":30179:30245  _rOwned[_marketingAndDevelopmentAccount] +... */\n      tag_174\n      jump\t// in\n    tag_446:\n        /* \"CYBCC.sol\":30128:30159  _marketingAndDevelopmentAccount */\n      0x12\n      dup1\n      sload\n      sub(shl(0xa0, 0x01), 0x01)\n      swap1\n      dup2\n      and\n        /* \"CYBCC.sol\":30120:30160  _rOwned[_marketingAndDevelopmentAccount] */\n      0x00\n      swap1\n      dup2\n      mstore\n        /* \"CYBCC.sol\":30120:30127  _rOwned */\n      0x05\n        /* \"CYBCC.sol\":30120:30160  _rOwned[_marketingAndDevelopmentAccount] */\n      0x20\n      swap1\n      dup2\n      mstore\n      0x40\n      swap2\n      dup3\n      swap1\n      keccak256\n        /* \"CYBCC.sol\":30120:30245  _rOwned[_marketingAndDevelopmentAccount] =... */\n      swap5\n      swap1\n      swap5\n      sstore\n        /* \"CYBCC.sol\":30282:30313  _marketingAndDevelopmentAccount */\n      swap2\n      sload\n        /* \"CYBCC.sol\":30265:30323  Transfer(sender, _marketingAndDevelopmentAccount, tTaxFee) */\n      swap2\n      mload\n        /* \"#utility.yul\":1489:1514   */\n      dup6\n      dup2\n      mstore\n        /* \"CYBCC.sol\":30282:30313  _marketingAndDevelopmentAccount */\n      swap2\n      dup2\n      and\n      swap3\n        /* \"CYBCC.sol\":30265:30323  Transfer(sender, _marketingAndDevelopmentAccount, tTaxFee) */\n      swap1\n      dup9\n      and\n      swap2\n      0xddf252ad1be2c89b69c2b068fc378daa952ba7f163c4a11628f55a4df523b3ef\n      swap2\n        /* \"#utility.yul\":1462:1480   */\n      add\n        /* \"CYBCC.sol\":30265:30323  Transfer(sender, _marketingAndDevelopmentAccount, tTaxFee) */\n      mload(0x40)\n      dup1\n      swap2\n      sub\n      swap1\n      log3\n        /* \"CYBCC.sol\":30052:30334  {... */\n      pop\n        /* \"CYBCC.sol\":29971:30340  {... */\n      pop\n        /* \"CYBCC.sol\":29855:30340  function taxFeeTransfer(... */\n      pop\n      pop\n      pop\n      jump\t// out\n        /* \"CYBCC.sol\":28532:28783  function _reflectFee(uint256 tAmount, uint256 currentRate) private {... */\n    tag_414:\n        /* \"CYBCC.sol\":28609:28621  uint256 tFee */\n      0x00\n        /* \"CYBCC.sol\":28653:28656  100 */\n      0x64\n        /* \"CYBCC.sol\":28635:28649  _reflectionFee */\n      sload(0x0e)\n        /* \"CYBCC.sol\":28625:28632  tAmount */\n      dup5\n        /* \"CYBCC.sol\":28625:28649  tAmount * _reflectionFee */\n      tag_449\n      swap2\n      swap1\n      tag_294\n      jump\t// in\n    tag_449:\n        /* \"CYBCC.sol\":28624:28656  (tAmount * _reflectionFee) / 100 */\n      tag_450\n      swap2\n      swap1\n      tag_337\n      jump\t// in\n    tag_450:\n        /* \"CYBCC.sol\":28609:28656  uint256 tFee = (tAmount * _reflectionFee) / 100 */\n      swap1\n      pop\n        /* \"CYBCC.sol\":28667:28679  uint256 rFee */\n      0x00\n        /* \"CYBCC.sol\":28682:28700  tFee * currentRate */\n      tag_451\n        /* \"CYBCC.sol\":28689:28700  currentRate */\n      dup4\n        /* \"CYBCC.sol\":28609:28656  uint256 tFee = (tAmount * _reflectionFee) / 100 */\n      dup4\n        /* \"CYBCC.sol\":28682:28700  tFee * currentRate */\n      tag_294\n      jump\t// in\n    tag_451:\n        /* \"CYBCC.sol\":28667:28700  uint256 rFee = tFee * currentRate */\n      swap1\n      pop\n        /* \"CYBCC.sol\":28731:28735  rFee */\n      dup1\n        /* \"CYBCC.sol\":28721:28728  _rTotal */\n      sload(0x0c)\n        /* \"CYBCC.sol\":28721:28735  _rTotal - rFee */\n      tag_452\n      swap2\n      swap1\n      tag_171\n      jump\t// in\n    tag_452:\n        /* \"CYBCC.sol\":28711:28718  _rTotal */\n      0x0c\n        /* \"CYBCC.sol\":28711:28735  _rTotal = _rTotal - rFee */\n      sstore\n        /* \"CYBCC.sol\":28759:28769  _tFeeTotal */\n      sload(0x0d)\n        /* \"CYBCC.sol\":28759:28776  _tFeeTotal + tFee */\n      tag_453\n      swap1\n        /* \"CYBCC.sol\":28772:28776  tFee */\n      dup4\n      swap1\n        /* \"CYBCC.sol\":28759:28776  _tFeeTotal + tFee */\n      tag_174\n      jump\t// in\n    tag_453:\n        /* \"CYBCC.sol\":28746:28756  _tFeeTotal */\n      0x0d\n        /* \"CYBCC.sol\":28746:28776  _tFeeTotal = _tFeeTotal + tFee */\n      sstore\n      pop\n      pop\n      pop\n      pop\n        /* \"CYBCC.sol\":28532:28783  function _reflectFee(uint256 tAmount, uint256 currentRate) private {... */\n      jump\t// out\n        /* \"#utility.yul\":14:240   */\n    tag_41:\n        /* \"#utility.yul\":73:79   */\n      0x00\n        /* \"#utility.yul\":126:128   */\n      0x20\n        /* \"#utility.yul\":114:123   */\n      dup3\n        /* \"#utility.yul\":105:112   */\n      dup5\n        /* \"#utility.yul\":101:124   */\n      sub\n        /* \"#utility.yul\":97:129   */\n      slt\n        /* \"#utility.yul\":94:146   */\n      iszero\n      tag_458\n      jumpi\n        /* \"#utility.yul\":142:143   */\n      0x00\n        /* \"#utility.yul\":139:140   */\n      0x00\n        /* \"#utility.yul\":132:144   */\n      revert\n        /* \"#utility.yul\":94:146   */\n    tag_458:\n      pop\n        /* \"#utility.yul\":187:210   */\n      calldataload\n      swap2\n        /* \"#utility.yul\":14:240   */\n      swap1\n      pop\n      jump\t// out\n        /* \"#utility.yul\":245:663   */\n    tag_47:\n        /* \"#utility.yul\":394:396   */\n      0x20\n        /* \"#utility.yul\":383:392   */\n      dup2\n        /* \"#utility.yul\":376:397   */\n      mstore\n        /* \"#utility.yul\":357:361   */\n      0x00\n        /* \"#utility.yul\":426:432   */\n      dup3\n        /* \"#utility.yul\":420:433   */\n      mload\n        /* \"#utility.yul\":469:475   */\n      dup1\n        /* \"#utility.yul\":464:466   */\n      0x20\n        /* \"#utility.yul\":453:462   */\n      dup5\n        /* \"#utility.yul\":449:467   */\n      add\n        /* \"#utility.yul\":442:476   */\n      mstore\n        /* \"#utility.yul\":528:534   */\n      dup1\n        /* \"#utility.yul\":523:525   */\n      0x20\n        /* \"#utility.yul\":515:521   */\n      dup6\n        /* \"#utility.yul\":511:526   */\n      add\n        /* \"#utility.yul\":506:508   */\n      0x40\n        /* \"#utility.yul\":495:504   */\n      dup6\n        /* \"#utility.yul\":491:509   */\n      add\n        /* \"#utility.yul\":485:535   */\n      mcopy\n        /* \"#utility.yul\":584:585   */\n      0x00\n        /* \"#utility.yul\":579:581   */\n      0x40\n        /* \"#utility.yul\":570:576   */\n      dup3\n        /* \"#utility.yul\":559:568   */\n      dup6\n        /* \"#utility.yul\":555:577   */\n      add\n        /* \"#utility.yul\":551:582   */\n      add\n        /* \"#utility.yul\":544:586   */\n      mstore\n        /* \"#utility.yul\":654:656   */\n      0x40\n        /* \"#utility.yul\":647:649   */\n      0x1f\n        /* \"#utility.yul\":643:650   */\n      not\n        /* \"#utility.yul\":638:640   */\n      0x1f\n        /* \"#utility.yul\":630:636   */\n      dup4\n        /* \"#utility.yul\":626:641   */\n      add\n        /* \"#utility.yul\":622:651   */\n      and\n        /* \"#utility.yul\":611:620   */\n      dup5\n        /* \"#utility.yul\":607:652   */\n      add\n        /* \"#utility.yul\":603:657   */\n      add\n        /* \"#utility.yul\":595:657   */\n      swap2\n      pop\n      pop\n        /* \"#utility.yul\":245:663   */\n      swap3\n      swap2\n      pop\n      pop\n      jump\t// out\n        /* \"#utility.yul\":668:841   */\n    tag_454:\n        /* \"#utility.yul\":736:756   */\n      dup1\n      calldataload\n      sub(shl(0xa0, 0x01), 0x01)\n        /* \"#utility.yul\":785:816   */\n      dup2\n      and\n        /* \"#utility.yul\":775:817   */\n      dup2\n      eq\n        /* \"#utility.yul\":765:835   */\n      tag_461\n      jumpi\n        /* \"#utility.yul\":831:832   */\n      0x00\n        /* \"#utility.yul\":828:829   */\n      0x00\n        /* \"#utility.yul\":821:833   */\n      revert\n        /* \"#utility.yul\":765:835   */\n    tag_461:\n        /* \"#utility.yul\":668:841   */\n      swap2\n      swap1\n      pop\n      jump\t// out\n        /* \"#utility.yul\":846:1146   */\n    tag_51:\n        /* \"#utility.yul\":914:920   */\n      0x00\n        /* \"#utility.yul\":922:928   */\n      0x00\n        /* \"#utility.yul\":975:977   */\n      0x40\n        /* \"#utility.yul\":963:972   */\n      dup4\n        /* \"#utility.yul\":954:961   */\n      dup6\n        /* \"#utility.yul\":950:973   */\n      sub\n        /* \"#utility.yul\":946:978   */\n      slt\n        /* \"#utility.yul\":943:995   */\n      iszero\n      tag_463\n      jumpi\n        /* \"#utility.yul\":991:992   */\n      0x00\n        /* \"#utility.yul\":988:989   */\n      0x00\n        /* \"#utility.yul\":981:993   */\n      revert\n        /* \"#utility.yul\":943:995   */\n    tag_463:\n        /* \"#utility.yul\":1014:1043   */\n      tag_464\n        /* \"#utility.yul\":1033:1042   */\n      dup4\n        /* \"#utility.yul\":1014:1043   */\n      tag_454\n      jump\t// in\n    tag_464:\n        /* \"#utility.yul\":1004:1043   */\n      swap5\n        /* \"#utility.yul\":1112:1114   */\n      0x20\n        /* \"#utility.yul\":1097:1115   */\n      swap4\n      swap1\n      swap4\n      add\n        /* \"#utility.yul\":1084:1116   */\n      calldataload\n      swap4\n      pop\n      pop\n      pop\n        /* \"#utility.yul\":846:1146   */\n      jump\t// out\n        /* \"#utility.yul\":1525:1899   */\n    tag_63:\n        /* \"#utility.yul\":1602:1608   */\n      0x00\n        /* \"#utility.yul\":1610:1616   */\n      0x00\n        /* \"#utility.yul\":1618:1624   */\n      0x00\n        /* \"#utility.yul\":1671:1673   */\n      0x60\n        /* \"#utility.yul\":1659:1668   */\n      dup5\n        /* \"#utility.yul\":1650:1657   */\n      dup7\n        /* \"#utility.yul\":1646:1669   */\n      sub\n        /* \"#utility.yul\":1642:1674   */\n      slt\n        /* \"#utility.yul\":1639:1691   */\n      iszero\n      tag_468\n      jumpi\n        /* \"#utility.yul\":1687:1688   */\n      0x00\n        /* \"#utility.yul\":1684:1685   */\n      0x00\n        /* \"#utility.yul\":1677:1689   */\n      revert\n        /* \"#utility.yul\":1639:1691   */\n    tag_468:\n        /* \"#utility.yul\":1710:1739   */\n      tag_469\n        /* \"#utility.yul\":1729:1738   */\n      dup5\n        /* \"#utility.yul\":1710:1739   */\n      tag_454\n      jump\t// in\n    tag_469:\n        /* \"#utility.yul\":1700:1739   */\n      swap3\n      pop\n        /* \"#utility.yul\":1758:1796   */\n      tag_470\n        /* \"#utility.yul\":1792:1794   */\n      0x20\n        /* \"#utility.yul\":1781:1790   */\n      dup6\n        /* \"#utility.yul\":1777:1795   */\n      add\n        /* \"#utility.yul\":1758:1796   */\n      tag_454\n      jump\t// in\n    tag_470:\n        /* \"#utility.yul\":1525:1899   */\n      swap3\n      swap6\n        /* \"#utility.yul\":1748:1796   */\n      swap3\n      swap5\n      pop\n      pop\n      pop\n        /* \"#utility.yul\":1865:1867   */\n      0x40\n        /* \"#utility.yul\":1850:1868   */\n      swap2\n      swap1\n      swap2\n      add\n        /* \"#utility.yul\":1837:1869   */\n      calldataload\n      swap1\n        /* \"#utility.yul\":1525:1899   */\n      jump\t// out\n        /* \"#utility.yul\":2093:2279   */\n    tag_78:\n        /* \"#utility.yul\":2152:2158   */\n      0x00\n        /* \"#utility.yul\":2205:2207   */\n      0x20\n        /* \"#utility.yul\":2193:2202   */\n      dup3\n        /* \"#utility.yul\":2184:2191   */\n      dup5\n        /* \"#utility.yul\":2180:2203   */\n      sub\n        /* \"#utility.yul\":2176:2208   */\n      slt\n        /* \"#utility.yul\":2173:2225   */\n      iszero\n      tag_473\n      jumpi\n        /* \"#utility.yul\":2221:2222   */\n      0x00\n        /* \"#utility.yul\":2218:2219   */\n      0x00\n        /* \"#utility.yul\":2211:2223   */\n      revert\n        /* \"#utility.yul\":2173:2225   */\n    tag_473:\n        /* \"#utility.yul\":2244:2273   */\n      tag_336\n        /* \"#utility.yul\":2263:2272   */\n      dup3\n        /* \"#utility.yul\":2244:2273   */\n      tag_454\n      jump\t// in\n        /* \"#utility.yul\":2284:2679   */\n    tag_83:\n        /* \"#utility.yul\":2349:2355   */\n      0x00\n        /* \"#utility.yul\":2357:2363   */\n      0x00\n        /* \"#utility.yul\":2410:2412   */\n      0x40\n        /* \"#utility.yul\":2398:2407   */\n      dup4\n        /* \"#utility.yul\":2389:2396   */\n      dup6\n        /* \"#utility.yul\":2385:2408   */\n      sub\n        /* \"#utility.yul\":2381:2413   */\n      slt\n        /* \"#utility.yul\":2378:2430   */\n      iszero\n      tag_476\n      jumpi\n        /* \"#utility.yul\":2426:2427   */\n      0x00\n        /* \"#utility.yul\":2423:2424   */\n      0x00\n        /* \"#utility.yul\":2416:2428   */\n      revert\n        /* \"#utility.yul\":2378:2430   */\n    tag_476:\n        /* \"#utility.yul\":2471:2494   */\n      dup3\n      calldataload\n      swap2\n      pop\n        /* \"#utility.yul\":2570:2572   */\n      0x20\n        /* \"#utility.yul\":2555:2573   */\n      dup4\n      add\n        /* \"#utility.yul\":2542:2574   */\n      calldataload\n        /* \"#utility.yul\":2612:2627   */\n      dup1\n      iszero\n        /* \"#utility.yul\":2605:2628   */\n      iszero\n        /* \"#utility.yul\":2593:2629   */\n      dup2\n      eq\n        /* \"#utility.yul\":2583:2647   */\n      tag_477\n      jumpi\n        /* \"#utility.yul\":2643:2644   */\n      0x00\n        /* \"#utility.yul\":2640:2641   */\n      0x00\n        /* \"#utility.yul\":2633:2645   */\n      revert\n        /* \"#utility.yul\":2583:2647   */\n    tag_477:\n        /* \"#utility.yul\":2666:2673   */\n      dup1\n        /* \"#utility.yul\":2656:2673   */\n      swap2\n      pop\n      pop\n        /* \"#utility.yul\":2284:2679   */\n      swap3\n      pop\n      swap3\n      swap1\n      pop\n      jump\t// out\n        /* \"#utility.yul\":2892:3152   */\n    tag_147:\n        /* \"#utility.yul\":2960:2966   */\n      0x00\n        /* \"#utility.yul\":2968:2974   */\n      0x00\n        /* \"#utility.yul\":3021:3023   */\n      0x40\n        /* \"#utility.yul\":3009:3018   */\n      dup4\n        /* \"#utility.yul\":3000:3007   */\n      dup6\n        /* \"#utility.yul\":2996:3019   */\n      sub\n        /* \"#utility.yul\":2992:3024   */\n      slt\n        /* \"#utility.yul\":2989:3041   */\n      iszero\n      tag_480\n      jumpi\n        /* \"#utility.yul\":3037:3038   */\n      0x00\n        /* \"#utility.yul\":3034:3035   */\n      0x00\n        /* \"#utility.yul\":3027:3039   */\n      revert\n        /* \"#utility.yul\":2989:3041   */\n    tag_480:\n        /* \"#utility.yul\":3060:3089   */\n      tag_481\n        /* \"#utility.yul\":3079:3088   */\n      dup4\n        /* \"#utility.yul\":3060:3089   */\n      tag_454\n      jump\t// in\n    tag_481:\n        /* \"#utility.yul\":3050:3089   */\n      swap2\n      pop\n        /* \"#utility.yul\":3108:3146   */\n      tag_482\n        /* \"#utility.yul\":3142:3144   */\n      0x20\n        /* \"#utility.yul\":3131:3140   */\n      dup5\n        /* \"#utility.yul\":3127:3145   */\n      add\n        /* \"#utility.yul\":3108:3146   */\n      tag_454\n      jump\t// in\n    tag_482:\n        /* \"#utility.yul\":3098:3146   */\n      swap1\n      pop\n        /* \"#utility.yul\":2892:3152   */\n      swap3\n      pop\n      swap3\n      swap1\n      pop\n      jump\t// out\n        /* \"#utility.yul\":3570:3697   */\n    tag_455:\n        /* \"#utility.yul\":3631:3641   */\n      0x4e487b71\n        /* \"#utility.yul\":3626:3629   */\n      0xe0\n        /* \"#utility.yul\":3622:3642   */\n      shl\n        /* \"#utility.yul\":3619:3620   */\n      0x00\n        /* \"#utility.yul\":3612:3643   */\n      mstore\n        /* \"#utility.yul\":3662:3666   */\n      0x11\n        /* \"#utility.yul\":3659:3660   */\n      0x04\n        /* \"#utility.yul\":3652:3667   */\n      mstore\n        /* \"#utility.yul\":3686:3690   */\n      0x24\n        /* \"#utility.yul\":3683:3684   */\n      0x00\n        /* \"#utility.yul\":3676:3691   */\n      revert\n        /* \"#utility.yul\":3702:3830   */\n    tag_171:\n        /* \"#utility.yul\":3769:3778   */\n      dup2\n      dup2\n      sub\n        /* \"#utility.yul\":3790:3801   */\n      dup2\n      dup2\n      gt\n        /* \"#utility.yul\":3787:3824   */\n      iszero\n      tag_182\n      jumpi\n        /* \"#utility.yul\":3804:3822   */\n      tag_182\n      tag_455\n      jump\t// in\n        /* \"#utility.yul\":3835:3960   */\n    tag_174:\n        /* \"#utility.yul\":3900:3909   */\n      dup1\n      dup3\n      add\n        /* \"#utility.yul\":3921:3931   */\n      dup1\n      dup3\n      gt\n        /* \"#utility.yul\":3918:3954   */\n      iszero\n      tag_182\n      jumpi\n        /* \"#utility.yul\":3934:3952   */\n      tag_182\n      tag_455\n      jump\t// in\n        /* \"#utility.yul\":3965:4345   */\n    tag_177:\n        /* \"#utility.yul\":4044:4045   */\n      0x01\n        /* \"#utility.yul\":4040:4052   */\n      dup2\n      dup2\n      shr\n      swap1\n        /* \"#utility.yul\":4087:4099   */\n      dup3\n      and\n      dup1\n        /* \"#utility.yul\":4108:4169   */\n      tag_492\n      jumpi\n        /* \"#utility.yul\":4162:4166   */\n      0x7f\n        /* \"#utility.yul\":4154:4160   */\n      dup3\n        /* \"#utility.yul\":4150:4167   */\n      and\n        /* \"#utility.yul\":4140:4167   */\n      swap2\n      pop\n        /* \"#utility.yul\":4108:4169   */\n    tag_492:\n        /* \"#utility.yul\":4215:4217   */\n      0x20\n        /* \"#utility.yul\":4207:4213   */\n      dup3\n        /* \"#utility.yul\":4204:4218   */\n      lt\n        /* \"#utility.yul\":4184:4202   */\n      dup2\n        /* \"#utility.yul\":4181:4219   */\n      sub\n        /* \"#utility.yul\":4178:4339   */\n      tag_493\n      jumpi\n        /* \"#utility.yul\":4261:4271   */\n      0x4e487b71\n        /* \"#utility.yul\":4256:4259   */\n      0xe0\n        /* \"#utility.yul\":4252:4272   */\n      shl\n        /* \"#utility.yul\":4249:4250   */\n      0x00\n        /* \"#utility.yul\":4242:4273   */\n      mstore\n        /* \"#utility.yul\":4296:4300   */\n      0x22\n        /* \"#utility.yul\":4293:4294   */\n      0x04\n        /* \"#utility.yul\":4286:4301   */\n      mstore\n        /* \"#utility.yul\":4324:4328   */\n      0x24\n        /* \"#utility.yul\":4321:4322   */\n      0x00\n        /* \"#utility.yul\":4314:4329   */\n      revert\n        /* \"#utility.yul\":4178:4339   */\n    tag_493:\n      pop\n        /* \"#utility.yul\":3965:4345   */\n      swap2\n      swap1\n      pop\n      jump\t// out\n        /* \"#utility.yul\":5768:5895   */\n    tag_272:\n        /* \"#utility.yul\":5829:5839   */\n      0x4e487b71\n        /* \"#utility.yul\":5824:5827   */\n      0xe0\n        /* \"#utility.yul\":5820:5840   */\n      shl\n        /* \"#utility.yul\":5817:5818   */\n      0x00\n        /* \"#utility.yul\":5810:5841   */\n      mstore\n        /* \"#utility.yul\":5860:5864   */\n      0x32\n        /* \"#utility.yul\":5857:5858   */\n      0x04\n        /* \"#utility.yul\":5850:5865   */\n      mstore\n        /* \"#utility.yul\":5884:5888   */\n      0x24\n        /* \"#utility.yul\":5881:5882   */\n      0x00\n        /* \"#utility.yul\":5874:5889   */\n      revert\n        /* \"#utility.yul\":5900:6027   */\n    tag_284:\n        /* \"#utility.yul\":5961:5971   */\n      0x4e487b71\n        /* \"#utility.yul\":5956:5959   */\n      0xe0\n        /* \"#utility.yul\":5952:5972   */\n      shl\n        /* \"#utility.yul\":5949:5950   */\n      0x00\n        /* \"#utility.yul\":5942:5973   */\n      mstore\n        /* \"#utility.yul\":5992:5996   */\n      0x31\n        /* \"#utility.yul\":5989:5990   */\n      0x04\n        /* \"#utility.yul\":5982:5997   */\n      mstore\n        /* \"#utility.yul\":6016:6020   */\n      0x24\n        /* \"#utility.yul\":6013:6014   */\n      0x00\n        /* \"#utility.yul\":6006:6021   */\n      revert\n        /* \"#utility.yul\":6032:6200   */\n    tag_294:\n        /* \"#utility.yul\":6105:6114   */\n      dup1\n      dup3\n      mul\n        /* \"#utility.yul\":6136:6145   */\n      dup2\n      iszero\n        /* \"#utility.yul\":6153:6168   */\n      dup3\n      dup3\n      div\n        /* \"#utility.yul\":6147:6169   */\n      dup5\n      eq\n        /* \"#utility.yul\":6133:6170   */\n      or\n        /* \"#utility.yul\":6123:6194   */\n      tag_182\n      jumpi\n        /* \"#utility.yul\":6174:6192   */\n      tag_182\n      tag_455\n      jump\t// in\n        /* \"#utility.yul\":8528:8745   */\n    tag_337:\n        /* \"#utility.yul\":8568:8569   */\n      0x00\n        /* \"#utility.yul\":8594:8595   */\n      dup3\n        /* \"#utility.yul\":8584:8716   */\n      tag_510\n      jumpi\n        /* \"#utility.yul\":8638:8648   */\n      0x4e487b71\n        /* \"#utility.yul\":8633:8636   */\n      0xe0\n        /* \"#utility.yul\":8629:8649   */\n      shl\n        /* \"#utility.yul\":8626:8627   */\n      0x00\n        /* \"#utility.yul\":8619:8650   */\n      mstore\n        /* \"#utility.yul\":8673:8677   */\n      0x12\n        /* \"#utility.yul\":8670:8671   */\n      0x04\n        /* \"#utility.yul\":8663:8678   */\n      mstore\n        /* \"#utility.yul\":8701:8705   */\n      0x24\n        /* \"#utility.yul\":8698:8699   */\n      0x00\n        /* \"#utility.yul\":8691:8706   */\n      revert\n        /* \"#utility.yul\":8584:8716   */\n    tag_510:\n      pop\n        /* \"#utility.yul\":8730:8739   */\n      div\n      swap1\n        /* \"#utility.yul\":8528:8745   */\n      jump\t// out\n\n    auxdata: 0xa26469706673582212208ab1c7a2b81eb2dfc34c1ae004f9c08d3e69c0d60981b535865e31a9a307e7c264736f6c634300081d0033\n}\n",
				"bytecode": {
					"linkReferences": {},
					"object": "6080604052600a8054610100600160a81b03191633610100021790555f600d556015805460ff19169055348015610034575f5ffd5b506040518060400160405280600881526020016730b1319031b7b4b760c11b81525060405180604001604052806005815260200164435942434360d81b815250816003908161008391906103c9565b50600461009082826103c9565b5050600a805460ff1916601290811782556100ac92509061057c565b6100ba90633b9aca0061058e565b600b8190556100ca905f196105b9565b6100d5905f196105cc565b600c556002600e819055600f5560016010819055601155600a54601280546101009092046001600160a01b03166001600160a01b0319909216919091179055600b54610123906064906105df565b61012e90600261058e565b601455600160075f61014d600a5461010090046001600160a01b031690565b6001600160a01b03908116825260208083019390935260409182015f908120805495151560ff199687161790556012548216815260078452828120805486166001908117909155308252838220805490961617909455600c54600a546101009004909116845260059092529091208190556101c99033906101ce565b610605565b6001600160a01b0382166101fc5760405163ec442f0560e01b81525f60048201526024015b60405180910390fd5b6102075f838361020b565b5050565b6001600160a01b038316610235578060025f82825461022a91906105f2565b909155506102a59050565b6001600160a01b0383165f90815260208190526040902054818110156102875760405163391434e360e21b81526001600160a01b038516600482015260248101829052604481018390526064016101f3565b6001600160a01b0384165f9081526020819052604090209082900390555b6001600160a01b0382166102c1576002805482900390556102df565b6001600160a01b0382165f9081526020819052604090208054820190555b816001600160a01b0316836001600160a01b03167fddf252ad1be2c89b69c2b068fc378daa952ba7f163c4a11628f55a4df523b3ef8360405161032491815260200190565b60405180910390a3505050565b634e487b7160e01b5f52604160045260245ffd5b600181811c9082168061035957607f821691505b60208210810361037757634e487b7160e01b5f52602260045260245ffd5b50919050565b601f8211156103c457805f5260205f20601f840160051c810160208510156103a25750805b601f840160051c820191505b818110156103c1575f81556001016103ae565b50505b505050565b81516001600160401b038111156103e2576103e2610331565b6103f6816103f08454610345565b8461037d565b6020601f821160018114610428575f83156104115750848201515b5f19600385901b1c1916600184901b1784556103c1565b5f84815260208120601f198516915b828110156104575787850151825560209485019460019092019101610437565b508482101561047457868401515f19600387901b60f8161c191681555b50505050600190811b01905550565b634e487b7160e01b5f52601160045260245ffd5b6001815b60018411156104d2578085048111156104b6576104b6610483565b60018416156104c457908102905b60019390931c92800261049b565b935093915050565b5f826104e857506001610576565b816104f457505f610576565b816001811461050a576002811461051457610530565b6001915050610576565b60ff84111561052557610525610483565b50506001821b610576565b5060208310610133831016604e8410600b8410161715610553575081810a610576565b61055f5f198484610497565b805f190482111561057257610572610483565b0290505b92915050565b5f61058783836104da565b9392505050565b808202811582820484141761057657610576610483565b634e487b7160e01b5f52601260045260245ffd5b5f826105c7576105c76105a5565b500690565b8181038181111561057657610576610483565b5f826105ed576105ed6105a5565b500490565b8082018082111561057657610576610483565b6119cf806106125f395ff3fe608060405260043610610198575f3560e01c806370a08231116100e7578063a9059cbb11610087578063dd62ed3e11610062578063dd62ed3e1461048d578063f2fde38b146104d1578063f66608fe146104f0578063fdeb889f14610504575f5ffd5b8063a9059cbb1461041a578063cba0e99614610439578063d12dc1c114610470575f5ffd5b80638873b15f116100c25780638873b15f146103925780638da5cb5b146103b157806395d89b41146103e7578063a8b08982146103fb575f5ffd5b806370a082311461034b578063715018a61461036a57806383ad79941461037e575f5ffd5b806332035504116101525780635342acb41161012d5780635342acb4146102cd5780635c7ffc88146103045780636049876e1461031857806360c3ae8414610337575f5ffd5b8063320355041461027b578063437823ec1461028f5780634549b039146102ae575f5ffd5b8063053ab182146101a357806306fdde03146101c4578063095ea7b3146101ee57806318160ddd1461021d57806323b872dd1461023b578063313ce5671461025a575f5ffd5b3661019f57005b5f5ffd5b3480156101ae575f5ffd5b506101c26101bd366004611784565b610523565b005b3480156101cf575f5ffd5b506101d861060e565b6040516101e5919061179b565b60405180910390f35b3480156101f9575f5ffd5b5061020d6102083660046117eb565b61069e565b60405190151581526020016101e5565b348015610228575f5ffd5b50600b545b6040519081526020016101e5565b348015610246575f5ffd5b5061020d610255366004611813565b6106b7565b348015610265575f5ffd5b50600a5460405160ff90911681526020016101e5565b348015610286575f5ffd5b50600d5461022d565b34801561029a575f5ffd5b506101c26102a936600461184d565b6106da565b3480156102b9575f5ffd5b5061022d6102c8366004611866565b610721565b3480156102d8575f5ffd5b5061020d6102e736600461184d565b6001600160a01b03165f9081526007602052604090205460ff1690565b34801561030f575f5ffd5b506101c26107a7565b348015610323575f5ffd5b506101c261033236600461184d565b6107d8565b348015610342575f5ffd5b506101c261091d565b348015610356575f5ffd5b5061022d61036536600461184d565b61094a565b348015610375575f5ffd5b506101c26109a6565b348015610389575f5ffd5b50600e5461022d565b34801561039d575f5ffd5b506101c26103ac36600461184d565b610a2b565b3480156103bc575f5ffd5b50600a5461010090046001600160a01b03165b6040516001600160a01b0390911681526020016101e5565b3480156103f2575f5ffd5b506101d8610a6c565b348015610406575f5ffd5b506013546103cf906001600160a01b031681565b348015610425575f5ffd5b5061020d6104343660046117eb565b610a7b565b348015610444575f5ffd5b5061020d61045336600461184d565b6001600160a01b03165f9081526008602052604090205460ff1690565b34801561047b575f5ffd5b506012546001600160a01b03166103cf565b348015610498575f5ffd5b5061022d6104a7366004611898565b6001600160a01b039182165f90815260016020908152604080832093909416825291909152205490565b3480156104dc575f5ffd5b506101c26104eb36600461184d565b610a88565b3480156104fb575f5ffd5b5060105461022d565b34801561050f575f5ffd5b506101c261051e36600461184d565b610ace565b335f8181526008602052604090205460ff161561059c5760405162461bcd60e51b815260206004820152602c60248201527f4578636c75646564206164647265737365732063616e6e6f742063616c6c207460448201526b3434b990333ab731ba34b7b760a11b60648201526084015b60405180910390fd5b5f6105a683610c6a565b5050506001600160a01b0383165f908152600560205260409020549091506105cf9082906118dd565b6001600160a01b0383165f90815260056020526040902055600c546105f59082906118dd565b600c55600d546106069084906118f0565b600d55505050565b60606003805461061d90611903565b80601f016020809104026020016040519081016040528092919081815260200182805461064990611903565b80156106945780601f1061066b57610100808354040283529160200191610694565b820191905f5260205f20905b81548152906001019060200180831161067757829003601f168201915b5050505050905090565b5f336106ab818585610cbb565b60019150505b92915050565b5f336106c4858285610ccd565b6106cf858585610d49565b506001949350505050565b600a54339061010090046001600160a01b03166001600160a01b03160361071e576001600160a01b0381165f908152600760205260409020805460ff191660011790555b50565b5f600b548311156107745760405162461bcd60e51b815260206004820152601f60248201527f416d6f756e74206d757374206265206c657373207468616e20737570706c79006044820152606401610593565b81610790575f61078384610c6a565b509193506106b192505050565b5f61079a84610c6a565b509093506106b192505050565b600a54339061010090046001600160a01b03166001600160a01b0316036107d6576015805460ff191660011790555b565b600a54339061010090046001600160a01b03166001600160a01b03160361071e576001600160a01b0381165f9081526008602052604090205460ff16156108615760405162461bcd60e51b815260206004820152601b60248201527f4163636f756e7420697320616c7265616479206578636c7564656400000000006044820152606401610593565b6001600160a01b0381165f90815260056020526040902054156108b8576001600160a01b0381165f9081526005602052604090205461089f90610f66565b6001600160a01b0382165f908152600660205260409020555b6001600160a01b03165f818152600860205260408120805460ff191660019081179091556009805491820181559091527f6e1540171b6c0c960b71a7020d9f60077f6af931a8bbf590da0223dacf75c7af0180546001600160a01b0319169091179055565b600a54339061010090046001600160a01b03166001600160a01b0316036107d6576015805460ff19169055565b6001600160a01b0381165f9081526008602052604081205460ff161561098557506001600160a01b03165f9081526006602052604090205490565b6001600160a01b0382165f908152600560205260409020546106b190610f66565b600a54339061010090046001600160a01b03166001600160a01b0316036107d657600a5461010090046001600160a01b0316610a185760405162461bcd60e51b8152602060048201526011602482015270185b1c9958591e481c995b9bdd5b98d959607a1b6044820152606401610593565b600a8054610100600160a81b0319169055565b600a54339061010090046001600160a01b03166001600160a01b03160361071e57601380546001600160a01b0383166001600160a01b031990911617905550565b60606004805461061d90611903565b5f336106ab818585610d49565b600a54339061010090046001600160a01b03166001600160a01b03160361071e57600a80546001600160a01b03831661010002610100600160a81b031990911617905550565b600a54339061010090046001600160a01b03166001600160a01b03160361071e576001600160a01b0381165f9081526008602052604090205460ff16610b565760405162461bcd60e51b815260206004820152601b60248201527f4163636f756e7420697320616c726561647920696e636c7564656400000000006044820152606401610593565b5f5b600954811015610c6657816001600160a01b031660098281548110610b7f57610b7f61193b565b5f918252602090912001546001600160a01b031603610c5e5760098054610ba8906001906118dd565b81548110610bb857610bb861193b565b5f91825260209091200154600980546001600160a01b039092169183908110610be357610be361193b565b5f91825260208083209190910180546001600160a01b0319166001600160a01b039485161790559184168152600682526040808220829055600890925220805460ff191690556009805480610c3a57610c3a61194f565b5f8281526020902081015f1990810180546001600160a01b03191690550190555050565b600101610b58565b5050565b5f5f5f5f5f610c7886610fe8565b90505f610c8582886118dd565b90505f610c9061101b565b90505f610c9d8284611963565b90505f610caa838b611963565b9a9199509297509095509350505050565b610cc8838383600161103c565b505050565b6001600160a01b038381165f908152600160209081526040808320938616835292905220545f19811015610d435781811015610d3557604051637dc7a0d960e11b81526001600160a01b03841660048201526024810182905260448101839052606401610593565b610d4384848484035f61103c565b50505050565b6001600160a01b038316610dad5760405162461bcd60e51b815260206004820152602560248201527f45524332303a207472616e736665722066726f6d20746865207a65726f206164604482015264647265737360d81b6064820152608401610593565b6001600160a01b038216610e0f5760405162461bcd60e51b815260206004820152602360248201527f45524332303a207472616e7366657220746f20746865207a65726f206164647260448201526265737360e81b6064820152608401610593565b5f610e198461094a565b905081811015610e7a5760405162461bcd60e51b815260206004820152602660248201527f45524332303a207472616e7366657220616d6f756e7420657863656564732062604482015265616c616e636560d01b6064820152608401610593565b600a546001600160a01b038581166101009092041614801590610e9f575060155460ff165b15610efc5760145482610eb18561094a565b610ebb91906118f0565b1115610efc5760405162461bcd60e51b815260206004820152601060248201526f5768616c65206465746563746564212160801b6044820152606401610593565b6013545f906001600160a01b0386811691161480610f2757506013546001600160a01b038581169116145b15610f30575060015b6001600160a01b0385165f9081526007602052604090205460ff1615610f5357505f5b610f5f8585858461110e565b5050505050565b5f600c54821115610fcc5760405162461bcd60e51b815260206004820152602a60248201527f416d6f756e74206d757374206265206c657373207468616e20746f74616c207260448201526965666c656374696f6e7360b01b6064820152608401610593565b5f610fd561101b565b9050610fe1818461197a565b9392505050565b5f5f601054600e54610ffa91906118f0565b90505f60646110098386611963565b611013919061197a565b949350505050565b5f5f5f61102661127d565b9092509050611035818361197a565b9250505090565b6001600160a01b0384166110655760405163e602df0560e01b81525f6004820152602401610593565b6001600160a01b03831661108e57604051634a1406b160e11b81525f6004820152602401610593565b6001600160a01b038085165f9081526001602090815260408083209387168352929052208290558015610d4357826001600160a01b0316846001600160a01b03167f8c5be1e5ebec7d5bd14f71427d1e84f3dd0314c0f7b2291e5b200ac8c7c3b9258460405161110091815260200190565b60405180910390a350505050565b8061111b5761111b6113ed565b6001600160a01b0384165f9081526008602052604090205460ff16801561115a57506001600160a01b0383165f9081526008602052604090205460ff16155b1561116f5761116a84848461141a565b611267565b6001600160a01b0384165f9081526008602052604090205460ff161580156111ae57506001600160a01b0383165f9081526008602052604090205460ff165b156111be5761116a848484611535565b6001600160a01b0384165f9081526008602052604090205460ff161580156111fe57506001600160a01b0383165f9081526008602052604090205460ff16155b1561120e5761116a8484846115d4565b6001600160a01b0384165f9081526008602052604090205460ff16801561124c57506001600160a01b0383165f9081526008602052604090205460ff165b1561125c5761116a84848461160e565b6112678484846115d4565b80610d4357610d43600f54600e55601154601055565b600c54600b545f918291825b6009548110156113bc578260055f600984815481106112aa576112aa61193b565b5f9182526020808320909101546001600160a01b03168352820192909252604001902054118061131257508160065f600984815481106112ec576112ec61193b565b5f9182526020808320909101546001600160a01b03168352820192909252604001902054115b1561132857600c54600b54945094505050509091565b60055f6009838154811061133e5761133e61193b565b5f9182526020808320909101546001600160a01b0316835282019290925260400190205461136c90846118dd565b925060065f600983815481106113845761138461193b565b5f9182526020808320909101546001600160a01b031683528201929092526040019020546113b290836118dd565b9150600101611289565b50600b54600c546113cd919061197a565b8210156113e457600c54600b549350935050509091565b90939092509050565b600e541580156113fd5750601054155b1561140457565b600e8054600f55601080546011555f9182905555565b5f5f5f5f61142785610c6a565b6001600160a01b038b165f90815260066020526040902054939750919550935091506114549086906118dd565b6001600160a01b0388165f908152600660209081526040808320939093556005905220546114839085906118dd565b6001600160a01b038089165f9081526005602052604080822093909355908816815220546114b29084906118f0565b6001600160a01b0387165f908152600560205260409020556114d5878683611677565b6114df8582611732565b856001600160a01b0316876001600160a01b03167fddf252ad1be2c89b69c2b068fc378daa952ba7f163c4a11628f55a4df523b3ef8460405161152491815260200190565b60405180910390a350505050505050565b5f5f5f5f61154285610c6a565b6001600160a01b038b165f908152600560205260409020549397509195509350915061156f9085906118dd565b6001600160a01b038089165f908152600560209081526040808320949094559189168152600690915220546115a59083906118f0565b6001600160a01b0387165f908152600660209081526040808320939093556005905220546114b29084906118f0565b5f5f5f5f6115e185610c6a565b6001600160a01b038b165f90815260056020526040902054939750919550935091506114839085906118dd565b5f5f5f5f61161b85610c6a565b6001600160a01b038b165f90815260066020526040902054939750919550935091506116489086906118dd565b6001600160a01b0388165f9081526006602090815260408083209390935560059052205461156f9085906118dd565b5f6064601054846116889190611963565b611692919061197a565b90508015610d43575f6116a58383611963565b6012546001600160a01b03165f908152600560205260409020549091506116cd9082906118f0565b601280546001600160a01b039081165f90815260056020908152604091829020949094559154915185815291811692908816917fddf252ad1be2c89b69c2b068fc378daa952ba7f163c4a11628f55a4df523b3ef910160405180910390a35050505050565b5f6064600e54846117439190611963565b61174d919061197a565b90505f61175a8383611963565b905080600c5461176a91906118dd565b600c55600d5461177b9083906118f0565b600d5550505050565b5f60208284031215611794575f5ffd5b5035919050565b602081525f82518060208401528060208501604085015e5f604082850101526040601f19601f83011684010191505092915050565b80356001600160a01b03811681146117e6575f5ffd5b919050565b5f5f604083850312156117fc575f5ffd5b611805836117d0565b946020939093013593505050565b5f5f5f60608486031215611825575f5ffd5b61182e846117d0565b925061183c602085016117d0565b929592945050506040919091013590565b5f6020828403121561185d575f5ffd5b610fe1826117d0565b5f5f60408385031215611877575f5ffd5b823591506020830135801515811461188d575f5ffd5b809150509250929050565b5f5f604083850312156118a9575f5ffd5b6118b2836117d0565b91506118c0602084016117d0565b90509250929050565b634e487b7160e01b5f52601160045260245ffd5b818103818111156106b1576106b16118c9565b808201808211156106b1576106b16118c9565b600181811c9082168061191757607f821691505b60208210810361193557634e487b7160e01b5f52602260045260245ffd5b50919050565b634e487b7160e01b5f52603260045260245ffd5b634e487b7160e01b5f52603160045260245ffd5b80820281158282048414176106b1576106b16118c9565b5f8261199457634e487b7160e01b5f52601260045260245ffd5b50049056fea26469706673582212208ab1c7a2b81eb2dfc34c1ae004f9c08d3e69c0d60981b535865e31a9a307e7c264736f6c634300081d0033",
					"opcodes": "PUSH1 0x80 PUSH1 0x40 MSTORE PUSH1 0xA DUP1 SLOAD PUSH2 0x100 PUSH1 0x1 PUSH1 0xA8 SHL SUB NOT AND CALLER PUSH2 0x100 MUL OR SWAP1 SSTORE PUSH0 PUSH1 0xD SSTORE PUSH1 0x15 DUP1 SLOAD PUSH1 0xFF NOT AND SWAP1 SSTORE CALLVALUE DUP1 ISZERO PUSH2 0x34 JUMPI PUSH0 PUSH0 REVERT JUMPDEST POP PUSH1 0x40 MLOAD DUP1 PUSH1 0x40 ADD PUSH1 0x40 MSTORE DUP1 PUSH1 0x8 DUP2 MSTORE PUSH1 0x20 ADD PUSH8 0x30B1319031B7B4B7 PUSH1 0xC1 SHL DUP2 MSTORE POP PUSH1 0x40 MLOAD DUP1 PUSH1 0x40 ADD PUSH1 0x40 MSTORE DUP1 PUSH1 0x5 DUP2 MSTORE PUSH1 0x20 ADD PUSH5 0x4359424343 PUSH1 0xD8 SHL DUP2 MSTORE POP DUP2 PUSH1 0x3 SWAP1 DUP2 PUSH2 0x83 SWAP2 SWAP1 PUSH2 0x3C9 JUMP JUMPDEST POP PUSH1 0x4 PUSH2 0x90 DUP3 DUP3 PUSH2 0x3C9 JUMP JUMPDEST POP POP PUSH1 0xA DUP1 SLOAD PUSH1 0xFF NOT AND PUSH1 0x12 SWAP1 DUP2 OR DUP3 SSTORE PUSH2 0xAC SWAP3 POP SWAP1 PUSH2 0x57C JUMP JUMPDEST PUSH2 0xBA SWAP1 PUSH4 0x3B9ACA00 PUSH2 0x58E JUMP JUMPDEST PUSH1 0xB DUP2 SWAP1 SSTORE PUSH2 0xCA SWAP1 PUSH0 NOT PUSH2 0x5B9 JUMP JUMPDEST PUSH2 0xD5 SWAP1 PUSH0 NOT PUSH2 0x5CC JUMP JUMPDEST PUSH1 0xC SSTORE PUSH1 0x2 PUSH1 0xE DUP2 SWAP1 SSTORE PUSH1 0xF SSTORE PUSH1 0x1 PUSH1 0x10 DUP2 SWAP1 SSTORE PUSH1 0x11 SSTORE PUSH1 0xA SLOAD PUSH1 0x12 DUP1 SLOAD PUSH2 0x100 SWAP1 SWAP3 DIV PUSH1 0x1 PUSH1 0x1 PUSH1 0xA0 SHL SUB AND PUSH1 0x1 PUSH1 0x1 PUSH1 0xA0 SHL SUB NOT SWAP1 SWAP3 AND SWAP2 SWAP1 SWAP2 OR SWAP1 SSTORE PUSH1 0xB SLOAD PUSH2 0x123 SWAP1 PUSH1 0x64 SWAP1 PUSH2 0x5DF JUMP JUMPDEST PUSH2 0x12E SWAP1 PUSH1 0x2 PUSH2 0x58E JUMP JUMPDEST PUSH1 0x14 SSTORE PUSH1 0x1 PUSH1 0x7 PUSH0 PUSH2 0x14D PUSH1 0xA SLOAD PUSH2 0x100 SWAP1 DIV PUSH1 0x1 PUSH1 0x1 PUSH1 0xA0 SHL SUB AND SWAP1 JUMP JUMPDEST PUSH1 0x1 PUSH1 0x1 PUSH1 0xA0 SHL SUB SWAP1 DUP2 AND DUP3 MSTORE PUSH1 0x20 DUP1 DUP4 ADD SWAP4 SWAP1 SWAP4 MSTORE PUSH1 0x40 SWAP2 DUP3 ADD PUSH0 SWAP1 DUP2 KECCAK256 DUP1 SLOAD SWAP6 ISZERO ISZERO PUSH1 0xFF NOT SWAP7 DUP8 AND OR SWAP1 SSTORE PUSH1 0x12 SLOAD DUP3 AND DUP2 MSTORE PUSH1 0x7 DUP5 MSTORE DUP3 DUP2 KECCAK256 DUP1 SLOAD DUP7 AND PUSH1 0x1 SWAP1 DUP2 OR SWAP1 SWAP2 SSTORE ADDRESS DUP3 MSTORE DUP4 DUP3 KECCAK256 DUP1 SLOAD SWAP1 SWAP7 AND OR SWAP1 SWAP5 SSTORE PUSH1 0xC SLOAD PUSH1 0xA SLOAD PUSH2 0x100 SWAP1 DIV SWAP1 SWAP2 AND DUP5 MSTORE PUSH1 0x5 SWAP1 SWAP3 MSTORE SWAP1 SWAP2 KECCAK256 DUP2 SWAP1 SSTORE PUSH2 0x1C9 SWAP1 CALLER SWAP1 PUSH2 0x1CE JUMP JUMPDEST PUSH2 0x605 JUMP JUMPDEST PUSH1 0x1 PUSH1 0x1 PUSH1 0xA0 SHL SUB DUP3 AND PUSH2 0x1FC JUMPI PUSH1 0x40 MLOAD PUSH4 0xEC442F05 PUSH1 0xE0 SHL DUP2 MSTORE PUSH0 PUSH1 0x4 DUP3 ADD MSTORE PUSH1 0x24 ADD JUMPDEST PUSH1 0x40 MLOAD DUP1 SWAP2 SUB SWAP1 REVERT JUMPDEST PUSH2 0x207 PUSH0 DUP4 DUP4 PUSH2 0x20B JUMP JUMPDEST POP POP JUMP JUMPDEST PUSH1 0x1 PUSH1 0x1 PUSH1 0xA0 SHL SUB DUP4 AND PUSH2 0x235 JUMPI DUP1 PUSH1 0x2 PUSH0 DUP3 DUP3 SLOAD PUSH2 0x22A SWAP2 SWAP1 PUSH2 0x5F2 JUMP JUMPDEST SWAP1 SWAP2 SSTORE POP PUSH2 0x2A5 SWAP1 POP JUMP JUMPDEST PUSH1 0x1 PUSH1 0x1 PUSH1 0xA0 SHL SUB DUP4 AND PUSH0 SWAP1 DUP2 MSTORE PUSH1 0x20 DUP2 SWAP1 MSTORE PUSH1 0x40 SWAP1 KECCAK256 SLOAD DUP2 DUP2 LT ISZERO PUSH2 0x287 JUMPI PUSH1 0x40 MLOAD PUSH4 0x391434E3 PUSH1 0xE2 SHL DUP2 MSTORE PUSH1 0x1 PUSH1 0x1 PUSH1 0xA0 SHL SUB DUP6 AND PUSH1 0x4 DUP3 ADD MSTORE PUSH1 0x24 DUP2 ADD DUP3 SWAP1 MSTORE PUSH1 0x44 DUP2 ADD DUP4 SWAP1 MSTORE PUSH1 0x64 ADD PUSH2 0x1F3 JUMP JUMPDEST PUSH1 0x1 PUSH1 0x1 PUSH1 0xA0 SHL SUB DUP5 AND PUSH0 SWAP1 DUP2 MSTORE PUSH1 0x20 DUP2 SWAP1 MSTORE PUSH1 0x40 SWAP1 KECCAK256 SWAP1 DUP3 SWAP1 SUB SWAP1 SSTORE JUMPDEST PUSH1 0x1 PUSH1 0x1 PUSH1 0xA0 SHL SUB DUP3 AND PUSH2 0x2C1 JUMPI PUSH1 0x2 DUP1 SLOAD DUP3 SWAP1 SUB SWAP1 SSTORE PUSH2 0x2DF JUMP JUMPDEST PUSH1 0x1 PUSH1 0x1 PUSH1 0xA0 SHL SUB DUP3 AND PUSH0 SWAP1 DUP2 MSTORE PUSH1 0x20 DUP2 SWAP1 MSTORE PUSH1 0x40 SWAP1 KECCAK256 DUP1 SLOAD DUP3 ADD SWAP1 SSTORE JUMPDEST DUP2 PUSH1 0x1 PUSH1 0x1 PUSH1 0xA0 SHL SUB AND DUP4 PUSH1 0x1 PUSH1 0x1 PUSH1 0xA0 SHL SUB AND PUSH32 0xDDF252AD1BE2C89B69C2B068FC378DAA952BA7F163C4A11628F55A4DF523B3EF DUP4 PUSH1 0x40 MLOAD PUSH2 0x324 SWAP2 DUP2 MSTORE PUSH1 0x20 ADD SWAP1 JUMP JUMPDEST PUSH1 0x40 MLOAD DUP1 SWAP2 SUB SWAP1 LOG3 POP POP POP JUMP JUMPDEST PUSH4 0x4E487B71 PUSH1 0xE0 SHL PUSH0 MSTORE PUSH1 0x41 PUSH1 0x4 MSTORE PUSH1 0x24 PUSH0 REVERT JUMPDEST PUSH1 0x1 DUP2 DUP2 SHR SWAP1 DUP3 AND DUP1 PUSH2 0x359 JUMPI PUSH1 0x7F DUP3 AND SWAP2 POP JUMPDEST PUSH1 0x20 DUP3 LT DUP2 SUB PUSH2 0x377 JUMPI PUSH4 0x4E487B71 PUSH1 0xE0 SHL PUSH0 MSTORE PUSH1 0x22 PUSH1 0x4 MSTORE PUSH1 0x24 PUSH0 REVERT JUMPDEST POP SWAP2 SWAP1 POP JUMP JUMPDEST PUSH1 0x1F DUP3 GT ISZERO PUSH2 0x3C4 JUMPI DUP1 PUSH0 MSTORE PUSH1 0x20 PUSH0 KECCAK256 PUSH1 0x1F DUP5 ADD PUSH1 0x5 SHR DUP2 ADD PUSH1 0x20 DUP6 LT ISZERO PUSH2 0x3A2 JUMPI POP DUP1 JUMPDEST PUSH1 0x1F DUP5 ADD PUSH1 0x5 SHR DUP3 ADD SWAP2 POP JUMPDEST DUP2 DUP2 LT ISZERO PUSH2 0x3C1 JUMPI PUSH0 DUP2 SSTORE PUSH1 0x1 ADD PUSH2 0x3AE JUMP JUMPDEST POP POP JUMPDEST POP POP POP JUMP JUMPDEST DUP2 MLOAD PUSH1 0x1 PUSH1 0x1 PUSH1 0x40 SHL SUB DUP2 GT ISZERO PUSH2 0x3E2 JUMPI PUSH2 0x3E2 PUSH2 0x331 JUMP JUMPDEST PUSH2 0x3F6 DUP2 PUSH2 0x3F0 DUP5 SLOAD PUSH2 0x345 JUMP JUMPDEST DUP5 PUSH2 0x37D JUMP JUMPDEST PUSH1 0x20 PUSH1 0x1F DUP3 GT PUSH1 0x1 DUP2 EQ PUSH2 0x428 JUMPI PUSH0 DUP4 ISZERO PUSH2 0x411 JUMPI POP DUP5 DUP3 ADD MLOAD JUMPDEST PUSH0 NOT PUSH1 0x3 DUP6 SWAP1 SHL SHR NOT AND PUSH1 0x1 DUP5 SWAP1 SHL OR DUP5 SSTORE PUSH2 0x3C1 JUMP JUMPDEST PUSH0 DUP5 DUP2 MSTORE PUSH1 0x20 DUP2 KECCAK256 PUSH1 0x1F NOT DUP6 AND SWAP2 JUMPDEST DUP3 DUP2 LT ISZERO PUSH2 0x457 JUMPI DUP8 DUP6 ADD MLOAD DUP3 SSTORE PUSH1 0x20 SWAP5 DUP6 ADD SWAP5 PUSH1 0x1 SWAP1 SWAP3 ADD SWAP2 ADD PUSH2 0x437 JUMP JUMPDEST POP DUP5 DUP3 LT ISZERO PUSH2 0x474 JUMPI DUP7 DUP5 ADD MLOAD PUSH0 NOT PUSH1 0x3 DUP8 SWAP1 SHL PUSH1 0xF8 AND SHR NOT AND DUP2 SSTORE JUMPDEST POP POP POP POP PUSH1 0x1 SWAP1 DUP2 SHL ADD SWAP1 SSTORE POP JUMP JUMPDEST PUSH4 0x4E487B71 PUSH1 0xE0 SHL PUSH0 MSTORE PUSH1 0x11 PUSH1 0x4 MSTORE PUSH1 0x24 PUSH0 REVERT JUMPDEST PUSH1 0x1 DUP2 JUMPDEST PUSH1 0x1 DUP5 GT ISZERO PUSH2 0x4D2 JUMPI DUP1 DUP6 DIV DUP2 GT ISZERO PUSH2 0x4B6 JUMPI PUSH2 0x4B6 PUSH2 0x483 JUMP JUMPDEST PUSH1 0x1 DUP5 AND ISZERO PUSH2 0x4C4 JUMPI SWAP1 DUP2 MUL SWAP1 JUMPDEST PUSH1 0x1 SWAP4 SWAP1 SWAP4 SHR SWAP3 DUP1 MUL PUSH2 0x49B JUMP JUMPDEST SWAP4 POP SWAP4 SWAP2 POP POP JUMP JUMPDEST PUSH0 DUP3 PUSH2 0x4E8 JUMPI POP PUSH1 0x1 PUSH2 0x576 JUMP JUMPDEST DUP2 PUSH2 0x4F4 JUMPI POP PUSH0 PUSH2 0x576 JUMP JUMPDEST DUP2 PUSH1 0x1 DUP2 EQ PUSH2 0x50A JUMPI PUSH1 0x2 DUP2 EQ PUSH2 0x514 JUMPI PUSH2 0x530 JUMP JUMPDEST PUSH1 0x1 SWAP2 POP POP PUSH2 0x576 JUMP JUMPDEST PUSH1 0xFF DUP5 GT ISZERO PUSH2 0x525 JUMPI PUSH2 0x525 PUSH2 0x483 JUMP JUMPDEST POP POP PUSH1 0x1 DUP3 SHL PUSH2 0x576 JUMP JUMPDEST POP PUSH1 0x20 DUP4 LT PUSH2 0x133 DUP4 LT AND PUSH1 0x4E DUP5 LT PUSH1 0xB DUP5 LT AND OR ISZERO PUSH2 0x553 JUMPI POP DUP2 DUP2 EXP PUSH2 0x576 JUMP JUMPDEST PUSH2 0x55F PUSH0 NOT DUP5 DUP5 PUSH2 0x497 JUMP JUMPDEST DUP1 PUSH0 NOT DIV DUP3 GT ISZERO PUSH2 0x572 JUMPI PUSH2 0x572 PUSH2 0x483 JUMP JUMPDEST MUL SWAP1 POP JUMPDEST SWAP3 SWAP2 POP POP JUMP JUMPDEST PUSH0 PUSH2 0x587 DUP4 DUP4 PUSH2 0x4DA JUMP JUMPDEST SWAP4 SWAP3 POP POP POP JUMP JUMPDEST DUP1 DUP3 MUL DUP2 ISZERO DUP3 DUP3 DIV DUP5 EQ OR PUSH2 0x576 JUMPI PUSH2 0x576 PUSH2 0x483 JUMP JUMPDEST PUSH4 0x4E487B71 PUSH1 0xE0 SHL PUSH0 MSTORE PUSH1 0x12 PUSH1 0x4 MSTORE PUSH1 0x24 PUSH0 REVERT JUMPDEST PUSH0 DUP3 PUSH2 0x5C7 JUMPI PUSH2 0x5C7 PUSH2 0x5A5 JUMP JUMPDEST POP MOD SWAP1 JUMP JUMPDEST DUP2 DUP2 SUB DUP2 DUP2 GT ISZERO PUSH2 0x576 JUMPI PUSH2 0x576 PUSH2 0x483 JUMP JUMPDEST PUSH0 DUP3 PUSH2 0x5ED JUMPI PUSH2 0x5ED PUSH2 0x5A5 JUMP JUMPDEST POP DIV SWAP1 JUMP JUMPDEST DUP1 DUP3 ADD DUP1 DUP3 GT ISZERO PUSH2 0x576 JUMPI PUSH2 0x576 PUSH2 0x483 JUMP JUMPDEST PUSH2 0x19CF DUP1 PUSH2 0x612 PUSH0 CODECOPY PUSH0 RETURN INVALID PUSH1 0x80 PUSH1 0x40 MSTORE PUSH1 0x4 CALLDATASIZE LT PUSH2 0x198 JUMPI PUSH0 CALLDATALOAD PUSH1 0xE0 SHR DUP1 PUSH4 0x70A08231 GT PUSH2 0xE7 JUMPI DUP1 PUSH4 0xA9059CBB GT PUSH2 0x87 JUMPI DUP1 PUSH4 0xDD62ED3E GT PUSH2 0x62 JUMPI DUP1 PUSH4 0xDD62ED3E EQ PUSH2 0x48D JUMPI DUP1 PUSH4 0xF2FDE38B EQ PUSH2 0x4D1 JUMPI DUP1 PUSH4 0xF66608FE EQ PUSH2 0x4F0 JUMPI DUP1 PUSH4 0xFDEB889F EQ PUSH2 0x504 JUMPI PUSH0 PUSH0 REVERT JUMPDEST DUP1 PUSH4 0xA9059CBB EQ PUSH2 0x41A JUMPI DUP1 PUSH4 0xCBA0E996 EQ PUSH2 0x439 JUMPI DUP1 PUSH4 0xD12DC1C1 EQ PUSH2 0x470 JUMPI PUSH0 PUSH0 REVERT JUMPDEST DUP1 PUSH4 0x8873B15F GT PUSH2 0xC2 JUMPI DUP1 PUSH4 0x8873B15F EQ PUSH2 0x392 JUMPI DUP1 PUSH4 0x8DA5CB5B EQ PUSH2 0x3B1 JUMPI DUP1 PUSH4 0x95D89B41 EQ PUSH2 0x3E7 JUMPI DUP1 PUSH4 0xA8B08982 EQ PUSH2 0x3FB JUMPI PUSH0 PUSH0 REVERT JUMPDEST DUP1 PUSH4 0x70A08231 EQ PUSH2 0x34B JUMPI DUP1 PUSH4 0x715018A6 EQ PUSH2 0x36A JUMPI DUP1 PUSH4 0x83AD7994 EQ PUSH2 0x37E JUMPI PUSH0 PUSH0 REVERT JUMPDEST DUP1 PUSH4 0x32035504 GT PUSH2 0x152 JUMPI DUP1 PUSH4 0x5342ACB4 GT PUSH2 0x12D JUMPI DUP1 PUSH4 0x5342ACB4 EQ PUSH2 0x2CD JUMPI DUP1 PUSH4 0x5C7FFC88 EQ PUSH2 0x304 JUMPI DUP1 PUSH4 0x6049876E EQ PUSH2 0x318 JUMPI DUP1 PUSH4 0x60C3AE84 EQ PUSH2 0x337 JUMPI PUSH0 PUSH0 REVERT JUMPDEST DUP1 PUSH4 0x32035504 EQ PUSH2 0x27B JUMPI DUP1 PUSH4 0x437823EC EQ PUSH2 0x28F JUMPI DUP1 PUSH4 0x4549B039 EQ PUSH2 0x2AE JUMPI PUSH0 PUSH0 REVERT JUMPDEST DUP1 PUSH4 0x53AB182 EQ PUSH2 0x1A3 JUMPI DUP1 PUSH4 0x6FDDE03 EQ PUSH2 0x1C4 JUMPI DUP1 PUSH4 0x95EA7B3 EQ PUSH2 0x1EE JUMPI DUP1 PUSH4 0x18160DDD EQ PUSH2 0x21D JUMPI DUP1 PUSH4 0x23B872DD EQ PUSH2 0x23B JUMPI DUP1 PUSH4 0x313CE567 EQ PUSH2 0x25A JUMPI PUSH0 PUSH0 REVERT JUMPDEST CALLDATASIZE PUSH2 0x19F JUMPI STOP JUMPDEST PUSH0 PUSH0 REVERT JUMPDEST CALLVALUE DUP1 ISZERO PUSH2 0x1AE JUMPI PUSH0 PUSH0 REVERT JUMPDEST POP PUSH2 0x1C2 PUSH2 0x1BD CALLDATASIZE PUSH1 0x4 PUSH2 0x1784 JUMP JUMPDEST PUSH2 0x523 JUMP JUMPDEST STOP JUMPDEST CALLVALUE DUP1 ISZERO PUSH2 0x1CF JUMPI PUSH0 PUSH0 REVERT JUMPDEST POP PUSH2 0x1D8 PUSH2 0x60E JUMP JUMPDEST PUSH1 0x40 MLOAD PUSH2 0x1E5 SWAP2 SWAP1 PUSH2 0x179B JUMP JUMPDEST PUSH1 0x40 MLOAD DUP1 SWAP2 SUB SWAP1 RETURN JUMPDEST CALLVALUE DUP1 ISZERO PUSH2 0x1F9 JUMPI PUSH0 PUSH0 REVERT JUMPDEST POP PUSH2 0x20D PUSH2 0x208 CALLDATASIZE PUSH1 0x4 PUSH2 0x17EB JUMP JUMPDEST PUSH2 0x69E JUMP JUMPDEST PUSH1 0x40 MLOAD SWAP1 ISZERO ISZERO DUP2 MSTORE PUSH1 0x20 ADD PUSH2 0x1E5 JUMP JUMPDEST CALLVALUE DUP1 ISZERO PUSH2 0x228 JUMPI PUSH0 PUSH0 REVERT JUMPDEST POP PUSH1 0xB SLOAD JUMPDEST PUSH1 0x40 MLOAD SWAP1 DUP2 MSTORE PUSH1 0x20 ADD PUSH2 0x1E5 JUMP JUMPDEST CALLVALUE DUP1 ISZERO PUSH2 0x246 JUMPI PUSH0 PUSH0 REVERT JUMPDEST POP PUSH2 0x20D PUSH2 0x255 CALLDATASIZE PUSH1 0x4 PUSH2 0x1813 JUMP JUMPDEST PUSH2 0x6B7 JUMP JUMPDEST CALLVALUE DUP1 ISZERO PUSH2 0x265 JUMPI PUSH0 PUSH0 REVERT JUMPDEST POP PUSH1 0xA SLOAD PUSH1 0x40 MLOAD PUSH1 0xFF SWAP1 SWAP2 AND DUP2 MSTORE PUSH1 0x20 ADD PUSH2 0x1E5 JUMP JUMPDEST CALLVALUE DUP1 ISZERO PUSH2 0x286 JUMPI PUSH0 PUSH0 REVERT JUMPDEST POP PUSH1 0xD SLOAD PUSH2 0x22D JUMP JUMPDEST CALLVALUE DUP1 ISZERO PUSH2 0x29A JUMPI PUSH0 PUSH0 REVERT JUMPDEST POP PUSH2 0x1C2 PUSH2 0x2A9 CALLDATASIZE PUSH1 0x4 PUSH2 0x184D JUMP JUMPDEST PUSH2 0x6DA JUMP JUMPDEST CALLVALUE DUP1 ISZERO PUSH2 0x2B9 JUMPI PUSH0 PUSH0 REVERT JUMPDEST POP PUSH2 0x22D PUSH2 0x2C8 CALLDATASIZE PUSH1 0x4 PUSH2 0x1866 JUMP JUMPDEST PUSH2 0x721 JUMP JUMPDEST CALLVALUE DUP1 ISZERO PUSH2 0x2D8 JUMPI PUSH0 PUSH0 REVERT JUMPDEST POP PUSH2 0x20D PUSH2 0x2E7 CALLDATASIZE PUSH1 0x4 PUSH2 0x184D JUMP JUMPDEST PUSH1 0x1 PUSH1 0x1 PUSH1 0xA0 SHL SUB AND PUSH0 SWAP1 DUP2 MSTORE PUSH1 0x7 PUSH1 0x20 MSTORE PUSH1 0x40 SWAP1 KECCAK256 SLOAD PUSH1 0xFF AND SWAP1 JUMP JUMPDEST CALLVALUE DUP1 ISZERO PUSH2 0x30F JUMPI PUSH0 PUSH0 REVERT JUMPDEST POP PUSH2 0x1C2 PUSH2 0x7A7 JUMP JUMPDEST CALLVALUE DUP1 ISZERO PUSH2 0x323 JUMPI PUSH0 PUSH0 REVERT JUMPDEST POP PUSH2 0x1C2 PUSH2 0x332 CALLDATASIZE PUSH1 0x4 PUSH2 0x184D JUMP JUMPDEST PUSH2 0x7D8 JUMP JUMPDEST CALLVALUE DUP1 ISZERO PUSH2 0x342 JUMPI PUSH0 PUSH0 REVERT JUMPDEST POP PUSH2 0x1C2 PUSH2 0x91D JUMP JUMPDEST CALLVALUE DUP1 ISZERO PUSH2 0x356 JUMPI PUSH0 PUSH0 REVERT JUMPDEST POP PUSH2 0x22D PUSH2 0x365 CALLDATASIZE PUSH1 0x4 PUSH2 0x184D JUMP JUMPDEST PUSH2 0x94A JUMP JUMPDEST CALLVALUE DUP1 ISZERO PUSH2 0x375 JUMPI PUSH0 PUSH0 REVERT JUMPDEST POP PUSH2 0x1C2 PUSH2 0x9A6 JUMP JUMPDEST CALLVALUE DUP1 ISZERO PUSH2 0x389 JUMPI PUSH0 PUSH0 REVERT JUMPDEST POP PUSH1 0xE SLOAD PUSH2 0x22D JUMP JUMPDEST CALLVALUE DUP1 ISZERO PUSH2 0x39D JUMPI PUSH0 PUSH0 REVERT JUMPDEST POP PUSH2 0x1C2 PUSH2 0x3AC CALLDATASIZE PUSH1 0x4 PUSH2 0x184D JUMP JUMPDEST PUSH2 0xA2B JUMP JUMPDEST CALLVALUE DUP1 ISZERO PUSH2 0x3BC JUMPI PUSH0 PUSH0 REVERT JUMPDEST POP PUSH1 0xA SLOAD PUSH2 0x100 SWAP1 DIV PUSH1 0x1 PUSH1 0x1 PUSH1 0xA0 SHL SUB AND JUMPDEST PUSH1 0x40 MLOAD PUSH1 0x1 PUSH1 0x1 PUSH1 0xA0 SHL SUB SWAP1 SWAP2 AND DUP2 MSTORE PUSH1 0x20 ADD PUSH2 0x1E5 JUMP JUMPDEST CALLVALUE DUP1 ISZERO PUSH2 0x3F2 JUMPI PUSH0 PUSH0 REVERT JUMPDEST POP PUSH2 0x1D8 PUSH2 0xA6C JUMP JUMPDEST CALLVALUE DUP1 ISZERO PUSH2 0x406 JUMPI PUSH0 PUSH0 REVERT JUMPDEST POP PUSH1 0x13 SLOAD PUSH2 0x3CF SWAP1 PUSH1 0x1 PUSH1 0x1 PUSH1 0xA0 SHL SUB AND DUP2 JUMP JUMPDEST CALLVALUE DUP1 ISZERO PUSH2 0x425 JUMPI PUSH0 PUSH0 REVERT JUMPDEST POP PUSH2 0x20D PUSH2 0x434 CALLDATASIZE PUSH1 0x4 PUSH2 0x17EB JUMP JUMPDEST PUSH2 0xA7B JUMP JUMPDEST CALLVALUE DUP1 ISZERO PUSH2 0x444 JUMPI PUSH0 PUSH0 REVERT JUMPDEST POP PUSH2 0x20D PUSH2 0x453 CALLDATASIZE PUSH1 0x4 PUSH2 0x184D JUMP JUMPDEST PUSH1 0x1 PUSH1 0x1 PUSH1 0xA0 SHL SUB AND PUSH0 SWAP1 DUP2 MSTORE PUSH1 0x8 PUSH1 0x20 MSTORE PUSH1 0x40 SWAP1 KECCAK256 SLOAD PUSH1 0xFF AND SWAP1 JUMP JUMPDEST CALLVALUE DUP1 ISZERO PUSH2 0x47B JUMPI PUSH0 PUSH0 REVERT JUMPDEST POP PUSH1 0x12 SLOAD PUSH1 0x1 PUSH1 0x1 PUSH1 0xA0 SHL SUB AND PUSH2 0x3CF JUMP JUMPDEST CALLVALUE DUP1 ISZERO PUSH2 0x498 JUMPI PUSH0 PUSH0 REVERT JUMPDEST POP PUSH2 0x22D PUSH2 0x4A7 CALLDATASIZE PUSH1 0x4 PUSH2 0x1898 JUMP JUMPDEST PUSH1 0x1 PUSH1 0x1 PUSH1 0xA0 SHL SUB SWAP2 DUP3 AND PUSH0 SWAP1 DUP2 MSTORE PUSH1 0x1 PUSH1 0x20 SWAP1 DUP2 MSTORE PUSH1 0x40 DUP1 DUP4 KECCAK256 SWAP4 SWAP1 SWAP5 AND DUP3 MSTORE SWAP2 SWAP1 SWAP2 MSTORE KECCAK256 SLOAD SWAP1 JUMP JUMPDEST CALLVALUE DUP1 ISZERO PUSH2 0x4DC JUMPI PUSH0 PUSH0 REVERT JUMPDEST POP PUSH2 0x1C2 PUSH2 0x4EB CALLDATASIZE PUSH1 0x4 PUSH2 0x184D JUMP JUMPDEST PUSH2 0xA88 JUMP JUMPDEST CALLVALUE DUP1 ISZERO PUSH2 0x4FB JUMPI PUSH0 PUSH0 REVERT JUMPDEST POP PUSH1 0x10 SLOAD PUSH2 0x22D JUMP JUMPDEST CALLVALUE DUP1 ISZERO PUSH2 0x50F JUMPI PUSH0 PUSH0 REVERT JUMPDEST POP PUSH2 0x1C2 PUSH2 0x51E CALLDATASIZE PUSH1 0x4 PUSH2 0x184D JUMP JUMPDEST PUSH2 0xACE JUMP JUMPDEST CALLER PUSH0 DUP2 DUP2 MSTORE PUSH1 0x8 PUSH1 0x20 MSTORE PUSH1 0x40 SWAP1 KECCAK256 SLOAD PUSH1 0xFF AND ISZERO PUSH2 0x59C JUMPI PUSH1 0x40 MLOAD PUSH3 0x461BCD PUSH1 0xE5 SHL DUP2 MSTORE PUSH1 0x20 PUSH1 0x4 DUP3 ADD MSTORE PUSH1 0x2C PUSH1 0x24 DUP3 ADD MSTORE PUSH32 0x4578636C75646564206164647265737365732063616E6E6F742063616C6C2074 PUSH1 0x44 DUP3 ADD MSTORE PUSH12 0x3434B990333AB731BA34B7B7 PUSH1 0xA1 SHL PUSH1 0x64 DUP3 ADD MSTORE PUSH1 0x84 ADD JUMPDEST PUSH1 0x40 MLOAD DUP1 SWAP2 SUB SWAP1 REVERT JUMPDEST PUSH0 PUSH2 0x5A6 DUP4 PUSH2 0xC6A JUMP JUMPDEST POP POP POP PUSH1 0x1 PUSH1 0x1 PUSH1 0xA0 SHL SUB DUP4 AND PUSH0 SWAP1 DUP2 MSTORE PUSH1 0x5 PUSH1 0x20 MSTORE PUSH1 0x40 SWAP1 KECCAK256 SLOAD SWAP1 SWAP2 POP PUSH2 0x5CF SWAP1 DUP3 SWAP1 PUSH2 0x18DD JUMP JUMPDEST PUSH1 0x1 PUSH1 0x1 PUSH1 0xA0 SHL SUB DUP4 AND PUSH0 SWAP1 DUP2 MSTORE PUSH1 0x5 PUSH1 0x20 MSTORE PUSH1 0x40 SWAP1 KECCAK256 SSTORE PUSH1 0xC SLOAD PUSH2 0x5F5 SWAP1 DUP3 SWAP1 PUSH2 0x18DD JUMP JUMPDEST PUSH1 0xC SSTORE PUSH1 0xD SLOAD PUSH2 0x606 SWAP1 DUP5 SWAP1 PUSH2 0x18F0 JUMP JUMPDEST PUSH1 0xD SSTORE POP POP POP JUMP JUMPDEST PUSH1 0x60 PUSH1 0x3 DUP1 SLOAD PUSH2 0x61D SWAP1 PUSH2 0x1903 JUMP JUMPDEST DUP1 PUSH1 0x1F ADD PUSH1 0x20 DUP1 SWAP2 DIV MUL PUSH1 0x20 ADD PUSH1 0x40 MLOAD SWAP1 DUP2 ADD PUSH1 0x40 MSTORE DUP1 SWAP3 SWAP2 SWAP1 DUP2 DUP2 MSTORE PUSH1 0x20 ADD DUP3 DUP1 SLOAD PUSH2 0x649 SWAP1 PUSH2 0x1903 JUMP JUMPDEST DUP1 ISZERO PUSH2 0x694 JUMPI DUP1 PUSH1 0x1F LT PUSH2 0x66B JUMPI PUSH2 0x100 DUP1 DUP4 SLOAD DIV MUL DUP4 MSTORE SWAP2 PUSH1 0x20 ADD SWAP2 PUSH2 0x694 JUMP JUMPDEST DUP3 ADD SWAP2 SWAP1 PUSH0 MSTORE PUSH1 0x20 PUSH0 KECCAK256 SWAP1 JUMPDEST DUP2 SLOAD DUP2 MSTORE SWAP1 PUSH1 0x1 ADD SWAP1 PUSH1 0x20 ADD DUP1 DUP4 GT PUSH2 0x677 JUMPI DUP3 SWAP1 SUB PUSH1 0x1F AND DUP3 ADD SWAP2 JUMPDEST POP POP POP POP POP SWAP1 POP SWAP1 JUMP JUMPDEST PUSH0 CALLER PUSH2 0x6AB DUP2 DUP6 DUP6 PUSH2 0xCBB JUMP JUMPDEST PUSH1 0x1 SWAP2 POP POP JUMPDEST SWAP3 SWAP2 POP POP JUMP JUMPDEST PUSH0 CALLER PUSH2 0x6C4 DUP6 DUP3 DUP6 PUSH2 0xCCD JUMP JUMPDEST PUSH2 0x6CF DUP6 DUP6 DUP6 PUSH2 0xD49 JUMP JUMPDEST POP PUSH1 0x1 SWAP5 SWAP4 POP POP POP POP JUMP JUMPDEST PUSH1 0xA SLOAD CALLER SWAP1 PUSH2 0x100 SWAP1 DIV PUSH1 0x1 PUSH1 0x1 PUSH1 0xA0 SHL SUB AND PUSH1 0x1 PUSH1 0x1 PUSH1 0xA0 SHL SUB AND SUB PUSH2 0x71E JUMPI PUSH1 0x1 PUSH1 0x1 PUSH1 0xA0 SHL SUB DUP2 AND PUSH0 SWAP1 DUP2 MSTORE PUSH1 0x7 PUSH1 0x20 MSTORE PUSH1 0x40 SWAP1 KECCAK256 DUP1 SLOAD PUSH1 0xFF NOT AND PUSH1 0x1 OR SWAP1 SSTORE JUMPDEST POP JUMP JUMPDEST PUSH0 PUSH1 0xB SLOAD DUP4 GT ISZERO PUSH2 0x774 JUMPI PUSH1 0x40 MLOAD PUSH3 0x461BCD PUSH1 0xE5 SHL DUP2 MSTORE PUSH1 0x20 PUSH1 0x4 DUP3 ADD MSTORE PUSH1 0x1F PUSH1 0x24 DUP3 ADD MSTORE PUSH32 0x416D6F756E74206D757374206265206C657373207468616E20737570706C7900 PUSH1 0x44 DUP3 ADD MSTORE PUSH1 0x64 ADD PUSH2 0x593 JUMP JUMPDEST DUP2 PUSH2 0x790 JUMPI PUSH0 PUSH2 0x783 DUP5 PUSH2 0xC6A JUMP JUMPDEST POP SWAP2 SWAP4 POP PUSH2 0x6B1 SWAP3 POP POP POP JUMP JUMPDEST PUSH0 PUSH2 0x79A DUP5 PUSH2 0xC6A JUMP JUMPDEST POP SWAP1 SWAP4 POP PUSH2 0x6B1 SWAP3 POP POP POP JUMP JUMPDEST PUSH1 0xA SLOAD CALLER SWAP1 PUSH2 0x100 SWAP1 DIV PUSH1 0x1 PUSH1 0x1 PUSH1 0xA0 SHL SUB AND PUSH1 0x1 PUSH1 0x1 PUSH1 0xA0 SHL SUB AND SUB PUSH2 0x7D6 JUMPI PUSH1 0x15 DUP1 SLOAD PUSH1 0xFF NOT AND PUSH1 0x1 OR SWAP1 SSTORE JUMPDEST JUMP JUMPDEST PUSH1 0xA SLOAD CALLER SWAP1 PUSH2 0x100 SWAP1 DIV PUSH1 0x1 PUSH1 0x1 PUSH1 0xA0 SHL SUB AND PUSH1 0x1 PUSH1 0x1 PUSH1 0xA0 SHL SUB AND SUB PUSH2 0x71E JUMPI PUSH1 0x1 PUSH1 0x1 PUSH1 0xA0 SHL SUB DUP2 AND PUSH0 SWAP1 DUP2 MSTORE PUSH1 0x8 PUSH1 0x20 MSTORE PUSH1 0x40 SWAP1 KECCAK256 SLOAD PUSH1 0xFF AND ISZERO PUSH2 0x861 JUMPI PUSH1 0x40 MLOAD PUSH3 0x461BCD PUSH1 0xE5 SHL DUP2 MSTORE PUSH1 0x20 PUSH1 0x4 DUP3 ADD MSTORE PUSH1 0x1B PUSH1 0x24 DUP3 ADD MSTORE PUSH32 0x4163636F756E7420697320616C7265616479206578636C756465640000000000 PUSH1 0x44 DUP3 ADD MSTORE PUSH1 0x64 ADD PUSH2 0x593 JUMP JUMPDEST PUSH1 0x1 PUSH1 0x1 PUSH1 0xA0 SHL SUB DUP2 AND PUSH0 SWAP1 DUP2 MSTORE PUSH1 0x5 PUSH1 0x20 MSTORE PUSH1 0x40 SWAP1 KECCAK256 SLOAD ISZERO PUSH2 0x8B8 JUMPI PUSH1 0x1 PUSH1 0x1 PUSH1 0xA0 SHL SUB DUP2 AND PUSH0 SWAP1 DUP2 MSTORE PUSH1 0x5 PUSH1 0x20 MSTORE PUSH1 0x40 SWAP1 KECCAK256 SLOAD PUSH2 0x89F SWAP1 PUSH2 0xF66 JUMP JUMPDEST PUSH1 0x1 PUSH1 0x1 PUSH1 0xA0 SHL SUB DUP3 AND PUSH0 SWAP1 DUP2 MSTORE PUSH1 0x6 PUSH1 0x20 MSTORE PUSH1 0x40 SWAP1 KECCAK256 SSTORE JUMPDEST PUSH1 0x1 PUSH1 0x1 PUSH1 0xA0 SHL SUB AND PUSH0 DUP2 DUP2 MSTORE PUSH1 0x8 PUSH1 0x20 MSTORE PUSH1 0x40 DUP2 KECCAK256 DUP1 SLOAD PUSH1 0xFF NOT AND PUSH1 0x1 SWAP1 DUP2 OR SWAP1 SWAP2 SSTORE PUSH1 0x9 DUP1 SLOAD SWAP2 DUP3 ADD DUP2 SSTORE SWAP1 SWAP2 MSTORE PUSH32 0x6E1540171B6C0C960B71A7020D9F60077F6AF931A8BBF590DA0223DACF75C7AF ADD DUP1 SLOAD PUSH1 0x1 PUSH1 0x1 PUSH1 0xA0 SHL SUB NOT AND SWAP1 SWAP2 OR SWAP1 SSTORE JUMP JUMPDEST PUSH1 0xA SLOAD CALLER SWAP1 PUSH2 0x100 SWAP1 DIV PUSH1 0x1 PUSH1 0x1 PUSH1 0xA0 SHL SUB AND PUSH1 0x1 PUSH1 0x1 PUSH1 0xA0 SHL SUB AND SUB PUSH2 0x7D6 JUMPI PUSH1 0x15 DUP1 SLOAD PUSH1 0xFF NOT AND SWAP1 SSTORE JUMP JUMPDEST PUSH1 0x1 PUSH1 0x1 PUSH1 0xA0 SHL SUB DUP2 AND PUSH0 SWAP1 DUP2 MSTORE PUSH1 0x8 PUSH1 0x20 MSTORE PUSH1 0x40 DUP2 KECCAK256 SLOAD PUSH1 0xFF AND ISZERO PUSH2 0x985 JUMPI POP PUSH1 0x1 PUSH1 0x1 PUSH1 0xA0 SHL SUB AND PUSH0 SWAP1 DUP2 MSTORE PUSH1 0x6 PUSH1 0x20 MSTORE PUSH1 0x40 SWAP1 KECCAK256 SLOAD SWAP1 JUMP JUMPDEST PUSH1 0x1 PUSH1 0x1 PUSH1 0xA0 SHL SUB DUP3 AND PUSH0 SWAP1 DUP2 MSTORE PUSH1 0x5 PUSH1 0x20 MSTORE PUSH1 0x40 SWAP1 KECCAK256 SLOAD PUSH2 0x6B1 SWAP1 PUSH2 0xF66 JUMP JUMPDEST PUSH1 0xA SLOAD CALLER SWAP1 PUSH2 0x100 SWAP1 DIV PUSH1 0x1 PUSH1 0x1 PUSH1 0xA0 SHL SUB AND PUSH1 0x1 PUSH1 0x1 PUSH1 0xA0 SHL SUB AND SUB PUSH2 0x7D6 JUMPI PUSH1 0xA SLOAD PUSH2 0x100 SWAP1 DIV PUSH1 0x1 PUSH1 0x1 PUSH1 0xA0 SHL SUB AND PUSH2 0xA18 JUMPI PUSH1 0x40 MLOAD PUSH3 0x461BCD PUSH1 0xE5 SHL DUP2 MSTORE PUSH1 0x20 PUSH1 0x4 DUP3 ADD MSTORE PUSH1 0x11 PUSH1 0x24 DUP3 ADD MSTORE PUSH17 0x185B1C9958591E481C995B9BDD5B98D959 PUSH1 0x7A SHL PUSH1 0x44 DUP3 ADD MSTORE PUSH1 0x64 ADD PUSH2 0x593 JUMP JUMPDEST PUSH1 0xA DUP1 SLOAD PUSH2 0x100 PUSH1 0x1 PUSH1 0xA8 SHL SUB NOT AND SWAP1 SSTORE JUMP JUMPDEST PUSH1 0xA SLOAD CALLER SWAP1 PUSH2 0x100 SWAP1 DIV PUSH1 0x1 PUSH1 0x1 PUSH1 0xA0 SHL SUB AND PUSH1 0x1 PUSH1 0x1 PUSH1 0xA0 SHL SUB AND SUB PUSH2 0x71E JUMPI PUSH1 0x13 DUP1 SLOAD PUSH1 0x1 PUSH1 0x1 PUSH1 0xA0 SHL SUB DUP4 AND PUSH1 0x1 PUSH1 0x1 PUSH1 0xA0 SHL SUB NOT SWAP1 SWAP2 AND OR SWAP1 SSTORE POP JUMP JUMPDEST PUSH1 0x60 PUSH1 0x4 DUP1 SLOAD PUSH2 0x61D SWAP1 PUSH2 0x1903 JUMP JUMPDEST PUSH0 CALLER PUSH2 0x6AB DUP2 DUP6 DUP6 PUSH2 0xD49 JUMP JUMPDEST PUSH1 0xA SLOAD CALLER SWAP1 PUSH2 0x100 SWAP1 DIV PUSH1 0x1 PUSH1 0x1 PUSH1 0xA0 SHL SUB AND PUSH1 0x1 PUSH1 0x1 PUSH1 0xA0 SHL SUB AND SUB PUSH2 0x71E JUMPI PUSH1 0xA DUP1 SLOAD PUSH1 0x1 PUSH1 0x1 PUSH1 0xA0 SHL SUB DUP4 AND PUSH2 0x100 MUL PUSH2 0x100 PUSH1 0x1 PUSH1 0xA8 SHL SUB NOT SWAP1 SWAP2 AND OR SWAP1 SSTORE POP JUMP JUMPDEST PUSH1 0xA SLOAD CALLER SWAP1 PUSH2 0x100 SWAP1 DIV PUSH1 0x1 PUSH1 0x1 PUSH1 0xA0 SHL SUB AND PUSH1 0x1 PUSH1 0x1 PUSH1 0xA0 SHL SUB AND SUB PUSH2 0x71E JUMPI PUSH1 0x1 PUSH1 0x1 PUSH1 0xA0 SHL SUB DUP2 AND PUSH0 SWAP1 DUP2 MSTORE PUSH1 0x8 PUSH1 0x20 MSTORE PUSH1 0x40 SWAP1 KECCAK256 SLOAD PUSH1 0xFF AND PUSH2 0xB56 JUMPI PUSH1 0x40 MLOAD PUSH3 0x461BCD PUSH1 0xE5 SHL DUP2 MSTORE PUSH1 0x20 PUSH1 0x4 DUP3 ADD MSTORE PUSH1 0x1B PUSH1 0x24 DUP3 ADD MSTORE PUSH32 0x4163636F756E7420697320616C726561647920696E636C756465640000000000 PUSH1 0x44 DUP3 ADD MSTORE PUSH1 0x64 ADD PUSH2 0x593 JUMP JUMPDEST PUSH0 JUMPDEST PUSH1 0x9 SLOAD DUP2 LT ISZERO PUSH2 0xC66 JUMPI DUP2 PUSH1 0x1 PUSH1 0x1 PUSH1 0xA0 SHL SUB AND PUSH1 0x9 DUP3 DUP2 SLOAD DUP2 LT PUSH2 0xB7F JUMPI PUSH2 0xB7F PUSH2 0x193B JUMP JUMPDEST PUSH0 SWAP2 DUP3 MSTORE PUSH1 0x20 SWAP1 SWAP2 KECCAK256 ADD SLOAD PUSH1 0x1 PUSH1 0x1 PUSH1 0xA0 SHL SUB AND SUB PUSH2 0xC5E JUMPI PUSH1 0x9 DUP1 SLOAD PUSH2 0xBA8 SWAP1 PUSH1 0x1 SWAP1 PUSH2 0x18DD JUMP JUMPDEST DUP2 SLOAD DUP2 LT PUSH2 0xBB8 JUMPI PUSH2 0xBB8 PUSH2 0x193B JUMP JUMPDEST PUSH0 SWAP2 DUP3 MSTORE PUSH1 0x20 SWAP1 SWAP2 KECCAK256 ADD SLOAD PUSH1 0x9 DUP1 SLOAD PUSH1 0x1 PUSH1 0x1 PUSH1 0xA0 SHL SUB SWAP1 SWAP3 AND SWAP2 DUP4 SWAP1 DUP2 LT PUSH2 0xBE3 JUMPI PUSH2 0xBE3 PUSH2 0x193B JUMP JUMPDEST PUSH0 SWAP2 DUP3 MSTORE PUSH1 0x20 DUP1 DUP4 KECCAK256 SWAP2 SWAP1 SWAP2 ADD DUP1 SLOAD PUSH1 0x1 PUSH1 0x1 PUSH1 0xA0 SHL SUB NOT AND PUSH1 0x1 PUSH1 0x1 PUSH1 0xA0 SHL SUB SWAP5 DUP6 AND OR SWAP1 SSTORE SWAP2 DUP5 AND DUP2 MSTORE PUSH1 0x6 DUP3 MSTORE PUSH1 0x40 DUP1 DUP3 KECCAK256 DUP3 SWAP1 SSTORE PUSH1 0x8 SWAP1 SWAP3 MSTORE KECCAK256 DUP1 SLOAD PUSH1 0xFF NOT AND SWAP1 SSTORE PUSH1 0x9 DUP1 SLOAD DUP1 PUSH2 0xC3A JUMPI PUSH2 0xC3A PUSH2 0x194F JUMP JUMPDEST PUSH0 DUP3 DUP2 MSTORE PUSH1 0x20 SWAP1 KECCAK256 DUP2 ADD PUSH0 NOT SWAP1 DUP2 ADD DUP1 SLOAD PUSH1 0x1 PUSH1 0x1 PUSH1 0xA0 SHL SUB NOT AND SWAP1 SSTORE ADD SWAP1 SSTORE POP POP JUMP JUMPDEST PUSH1 0x1 ADD PUSH2 0xB58 JUMP JUMPDEST POP POP JUMP JUMPDEST PUSH0 PUSH0 PUSH0 PUSH0 PUSH0 PUSH2 0xC78 DUP7 PUSH2 0xFE8 JUMP JUMPDEST SWAP1 POP PUSH0 PUSH2 0xC85 DUP3 DUP9 PUSH2 0x18DD JUMP JUMPDEST SWAP1 POP PUSH0 PUSH2 0xC90 PUSH2 0x101B JUMP JUMPDEST SWAP1 POP PUSH0 PUSH2 0xC9D DUP3 DUP5 PUSH2 0x1963 JUMP JUMPDEST SWAP1 POP PUSH0 PUSH2 0xCAA DUP4 DUP12 PUSH2 0x1963 JUMP JUMPDEST SWAP11 SWAP2 SWAP10 POP SWAP3 SWAP8 POP SWAP1 SWAP6 POP SWAP4 POP POP POP POP JUMP JUMPDEST PUSH2 0xCC8 DUP4 DUP4 DUP4 PUSH1 0x1 PUSH2 0x103C JUMP JUMPDEST POP POP POP JUMP JUMPDEST PUSH1 0x1 PUSH1 0x1 PUSH1 0xA0 SHL SUB DUP4 DUP2 AND PUSH0 SWAP1 DUP2 MSTORE PUSH1 0x1 PUSH1 0x20 SWAP1 DUP2 MSTORE PUSH1 0x40 DUP1 DUP4 KECCAK256 SWAP4 DUP7 AND DUP4 MSTORE SWAP3 SWAP1 MSTORE KECCAK256 SLOAD PUSH0 NOT DUP2 LT ISZERO PUSH2 0xD43 JUMPI DUP2 DUP2 LT ISZERO PUSH2 0xD35 JUMPI PUSH1 0x40 MLOAD PUSH4 0x7DC7A0D9 PUSH1 0xE1 SHL DUP2 MSTORE PUSH1 0x1 PUSH1 0x1 PUSH1 0xA0 SHL SUB DUP5 AND PUSH1 0x4 DUP3 ADD MSTORE PUSH1 0x24 DUP2 ADD DUP3 SWAP1 MSTORE PUSH1 0x44 DUP2 ADD DUP4 SWAP1 MSTORE PUSH1 0x64 ADD PUSH2 0x593 JUMP JUMPDEST PUSH2 0xD43 DUP5 DUP5 DUP5 DUP5 SUB PUSH0 PUSH2 0x103C JUMP JUMPDEST POP POP POP POP JUMP JUMPDEST PUSH1 0x1 PUSH1 0x1 PUSH1 0xA0 SHL SUB DUP4 AND PUSH2 0xDAD JUMPI PUSH1 0x40 MLOAD PUSH3 0x461BCD PUSH1 0xE5 SHL DUP2 MSTORE PUSH1 0x20 PUSH1 0x4 DUP3 ADD MSTORE PUSH1 0x25 PUSH1 0x24 DUP3 ADD MSTORE PUSH32 0x45524332303A207472616E736665722066726F6D20746865207A65726F206164 PUSH1 0x44 DUP3 ADD MSTORE PUSH5 0x6472657373 PUSH1 0xD8 SHL PUSH1 0x64 DUP3 ADD MSTORE PUSH1 0x84 ADD PUSH2 0x593 JUMP JUMPDEST PUSH1 0x1 PUSH1 0x1 PUSH1 0xA0 SHL SUB DUP3 AND PUSH2 0xE0F JUMPI PUSH1 0x40 MLOAD PUSH3 0x461BCD PUSH1 0xE5 SHL DUP2 MSTORE PUSH1 0x20 PUSH1 0x4 DUP3 ADD MSTORE PUSH1 0x23 PUSH1 0x24 DUP3 ADD MSTORE PUSH32 0x45524332303A207472616E7366657220746F20746865207A65726F2061646472 PUSH1 0x44 DUP3 ADD MSTORE PUSH3 0x657373 PUSH1 0xE8 SHL PUSH1 0x64 DUP3 ADD MSTORE PUSH1 0x84 ADD PUSH2 0x593 JUMP JUMPDEST PUSH0 PUSH2 0xE19 DUP5 PUSH2 0x94A JUMP JUMPDEST SWAP1 POP DUP2 DUP2 LT ISZERO PUSH2 0xE7A JUMPI PUSH1 0x40 MLOAD PUSH3 0x461BCD PUSH1 0xE5 SHL DUP2 MSTORE PUSH1 0x20 PUSH1 0x4 DUP3 ADD MSTORE PUSH1 0x26 PUSH1 0x24 DUP3 ADD MSTORE PUSH32 0x45524332303A207472616E7366657220616D6F756E7420657863656564732062 PUSH1 0x44 DUP3 ADD MSTORE PUSH6 0x616C616E6365 PUSH1 0xD0 SHL PUSH1 0x64 DUP3 ADD MSTORE PUSH1 0x84 ADD PUSH2 0x593 JUMP JUMPDEST PUSH1 0xA SLOAD PUSH1 0x1 PUSH1 0x1 PUSH1 0xA0 SHL SUB DUP6 DUP2 AND PUSH2 0x100 SWAP1 SWAP3 DIV AND EQ DUP1 ISZERO SWAP1 PUSH2 0xE9F JUMPI POP PUSH1 0x15 SLOAD PUSH1 0xFF AND JUMPDEST ISZERO PUSH2 0xEFC JUMPI PUSH1 0x14 SLOAD DUP3 PUSH2 0xEB1 DUP6 PUSH2 0x94A JUMP JUMPDEST PUSH2 0xEBB SWAP2 SWAP1 PUSH2 0x18F0 JUMP JUMPDEST GT ISZERO PUSH2 0xEFC JUMPI PUSH1 0x40 MLOAD PUSH3 0x461BCD PUSH1 0xE5 SHL DUP2 MSTORE PUSH1 0x20 PUSH1 0x4 DUP3 ADD MSTORE PUSH1 0x10 PUSH1 0x24 DUP3 ADD MSTORE PUSH16 0x5768616C652064657465637465642121 PUSH1 0x80 SHL PUSH1 0x44 DUP3 ADD MSTORE PUSH1 0x64 ADD PUSH2 0x593 JUMP JUMPDEST PUSH1 0x13 SLOAD PUSH0 SWAP1 PUSH1 0x1 PUSH1 0x1 PUSH1 0xA0 SHL SUB DUP7 DUP2 AND SWAP2 AND EQ DUP1 PUSH2 0xF27 JUMPI POP PUSH1 0x13 SLOAD PUSH1 0x1 PUSH1 0x1 PUSH1 0xA0 SHL SUB DUP6 DUP2 AND SWAP2 AND EQ JUMPDEST ISZERO PUSH2 0xF30 JUMPI POP PUSH1 0x1 JUMPDEST PUSH1 0x1 PUSH1 0x1 PUSH1 0xA0 SHL SUB DUP6 AND PUSH0 SWAP1 DUP2 MSTORE PUSH1 0x7 PUSH1 0x20 MSTORE PUSH1 0x40 SWAP1 KECCAK256 SLOAD PUSH1 0xFF AND ISZERO PUSH2 0xF53 JUMPI POP PUSH0 JUMPDEST PUSH2 0xF5F DUP6 DUP6 DUP6 DUP5 PUSH2 0x110E JUMP JUMPDEST POP POP POP POP POP JUMP JUMPDEST PUSH0 PUSH1 0xC SLOAD DUP3 GT ISZERO PUSH2 0xFCC JUMPI PUSH1 0x40 MLOAD PUSH3 0x461BCD PUSH1 0xE5 SHL DUP2 MSTORE PUSH1 0x20 PUSH1 0x4 DUP3 ADD MSTORE PUSH1 0x2A PUSH1 0x24 DUP3 ADD MSTORE PUSH32 0x416D6F756E74206D757374206265206C657373207468616E20746F74616C2072 PUSH1 0x44 DUP3 ADD MSTORE PUSH10 0x65666C656374696F6E73 PUSH1 0xB0 SHL PUSH1 0x64 DUP3 ADD MSTORE PUSH1 0x84 ADD PUSH2 0x593 JUMP JUMPDEST PUSH0 PUSH2 0xFD5 PUSH2 0x101B JUMP JUMPDEST SWAP1 POP PUSH2 0xFE1 DUP2 DUP5 PUSH2 0x197A JUMP JUMPDEST SWAP4 SWAP3 POP POP POP JUMP JUMPDEST PUSH0 PUSH0 PUSH1 0x10 SLOAD PUSH1 0xE SLOAD PUSH2 0xFFA SWAP2 SWAP1 PUSH2 0x18F0 JUMP JUMPDEST SWAP1 POP PUSH0 PUSH1 0x64 PUSH2 0x1009 DUP4 DUP7 PUSH2 0x1963 JUMP JUMPDEST PUSH2 0x1013 SWAP2 SWAP1 PUSH2 0x197A JUMP JUMPDEST SWAP5 SWAP4 POP POP POP POP JUMP JUMPDEST PUSH0 PUSH0 PUSH0 PUSH2 0x1026 PUSH2 0x127D JUMP JUMPDEST SWAP1 SWAP3 POP SWAP1 POP PUSH2 0x1035 DUP2 DUP4 PUSH2 0x197A JUMP JUMPDEST SWAP3 POP POP POP SWAP1 JUMP JUMPDEST PUSH1 0x1 PUSH1 0x1 PUSH1 0xA0 SHL SUB DUP5 AND PUSH2 0x1065 JUMPI PUSH1 0x40 MLOAD PUSH4 0xE602DF05 PUSH1 0xE0 SHL DUP2 MSTORE PUSH0 PUSH1 0x4 DUP3 ADD MSTORE PUSH1 0x24 ADD PUSH2 0x593 JUMP JUMPDEST PUSH1 0x1 PUSH1 0x1 PUSH1 0xA0 SHL SUB DUP4 AND PUSH2 0x108E JUMPI PUSH1 0x40 MLOAD PUSH4 0x4A1406B1 PUSH1 0xE1 SHL DUP2 MSTORE PUSH0 PUSH1 0x4 DUP3 ADD MSTORE PUSH1 0x24 ADD PUSH2 0x593 JUMP JUMPDEST PUSH1 0x1 PUSH1 0x1 PUSH1 0xA0 SHL SUB DUP1 DUP6 AND PUSH0 SWAP1 DUP2 MSTORE PUSH1 0x1 PUSH1 0x20 SWAP1 DUP2 MSTORE PUSH1 0x40 DUP1 DUP4 KECCAK256 SWAP4 DUP8 AND DUP4 MSTORE SWAP3 SWAP1 MSTORE KECCAK256 DUP3 SWAP1 SSTORE DUP1 ISZERO PUSH2 0xD43 JUMPI DUP3 PUSH1 0x1 PUSH1 0x1 PUSH1 0xA0 SHL SUB AND DUP5 PUSH1 0x1 PUSH1 0x1 PUSH1 0xA0 SHL SUB AND PUSH32 0x8C5BE1E5EBEC7D5BD14F71427D1E84F3DD0314C0F7B2291E5B200AC8C7C3B925 DUP5 PUSH1 0x40 MLOAD PUSH2 0x1100 SWAP2 DUP2 MSTORE PUSH1 0x20 ADD SWAP1 JUMP JUMPDEST PUSH1 0x40 MLOAD DUP1 SWAP2 SUB SWAP1 LOG3 POP POP POP POP JUMP JUMPDEST DUP1 PUSH2 0x111B JUMPI PUSH2 0x111B PUSH2 0x13ED JUMP JUMPDEST PUSH1 0x1 PUSH1 0x1 PUSH1 0xA0 SHL SUB DUP5 AND PUSH0 SWAP1 DUP2 MSTORE PUSH1 0x8 PUSH1 0x20 MSTORE PUSH1 0x40 SWAP1 KECCAK256 SLOAD PUSH1 0xFF AND DUP1 ISZERO PUSH2 0x115A JUMPI POP PUSH1 0x1 PUSH1 0x1 PUSH1 0xA0 SHL SUB DUP4 AND PUSH0 SWAP1 DUP2 MSTORE PUSH1 0x8 PUSH1 0x20 MSTORE PUSH1 0x40 SWAP1 KECCAK256 SLOAD PUSH1 0xFF AND ISZERO JUMPDEST ISZERO PUSH2 0x116F JUMPI PUSH2 0x116A DUP5 DUP5 DUP5 PUSH2 0x141A JUMP JUMPDEST PUSH2 0x1267 JUMP JUMPDEST PUSH1 0x1 PUSH1 0x1 PUSH1 0xA0 SHL SUB DUP5 AND PUSH0 SWAP1 DUP2 MSTORE PUSH1 0x8 PUSH1 0x20 MSTORE PUSH1 0x40 SWAP1 KECCAK256 SLOAD PUSH1 0xFF AND ISZERO DUP1 ISZERO PUSH2 0x11AE JUMPI POP PUSH1 0x1 PUSH1 0x1 PUSH1 0xA0 SHL SUB DUP4 AND PUSH0 SWAP1 DUP2 MSTORE PUSH1 0x8 PUSH1 0x20 MSTORE PUSH1 0x40 SWAP1 KECCAK256 SLOAD PUSH1 0xFF AND JUMPDEST ISZERO PUSH2 0x11BE JUMPI PUSH2 0x116A DUP5 DUP5 DUP5 PUSH2 0x1535 JUMP JUMPDEST PUSH1 0x1 PUSH1 0x1 PUSH1 0xA0 SHL SUB DUP5 AND PUSH0 SWAP1 DUP2 MSTORE PUSH1 0x8 PUSH1 0x20 MSTORE PUSH1 0x40 SWAP1 KECCAK256 SLOAD PUSH1 0xFF AND ISZERO DUP1 ISZERO PUSH2 0x11FE JUMPI POP PUSH1 0x1 PUSH1 0x1 PUSH1 0xA0 SHL SUB DUP4 AND PUSH0 SWAP1 DUP2 MSTORE PUSH1 0x8 PUSH1 0x20 MSTORE PUSH1 0x40 SWAP1 KECCAK256 SLOAD PUSH1 0xFF AND ISZERO JUMPDEST ISZERO PUSH2 0x120E JUMPI PUSH2 0x116A DUP5 DUP5 DUP5 PUSH2 0x15D4 JUMP JUMPDEST PUSH1 0x1 PUSH1 0x1 PUSH1 0xA0 SHL SUB DUP5 AND PUSH0 SWAP1 DUP2 MSTORE PUSH1 0x8 PUSH1 0x20 MSTORE PUSH1 0x40 SWAP1 KECCAK256 SLOAD PUSH1 0xFF AND DUP1 ISZERO PUSH2 0x124C JUMPI POP PUSH1 0x1 PUSH1 0x1 PUSH1 0xA0 SHL SUB DUP4 AND PUSH0 SWAP1 DUP2 MSTORE PUSH1 0x8 PUSH1 0x20 MSTORE PUSH1 0x40 SWAP1 KECCAK256 SLOAD PUSH1 0xFF AND JUMPDEST ISZERO PUSH2 0x125C JUMPI PUSH2 0x116A DUP5 DUP5 DUP5 PUSH2 0x160E JUMP JUMPDEST PUSH2 0x1267 DUP5 DUP5 DUP5 PUSH2 0x15D4 JUMP JUMPDEST DUP1 PUSH2 0xD43 JUMPI PUSH2 0xD43 PUSH1 0xF SLOAD PUSH1 0xE SSTORE PUSH1 0x11 SLOAD PUSH1 0x10 SSTORE JUMP JUMPDEST PUSH1 0xC SLOAD PUSH1 0xB SLOAD PUSH0 SWAP2 DUP3 SWAP2 DUP3 JUMPDEST PUSH1 0x9 SLOAD DUP2 LT ISZERO PUSH2 0x13BC JUMPI DUP3 PUSH1 0x5 PUSH0 PUSH1 0x9 DUP5 DUP2 SLOAD DUP2 LT PUSH2 0x12AA JUMPI PUSH2 0x12AA PUSH2 0x193B JUMP JUMPDEST PUSH0 SWAP2 DUP3 MSTORE PUSH1 0x20 DUP1 DUP4 KECCAK256 SWAP1 SWAP2 ADD SLOAD PUSH1 0x1 PUSH1 0x1 PUSH1 0xA0 SHL SUB AND DUP4 MSTORE DUP3 ADD SWAP3 SWAP1 SWAP3 MSTORE PUSH1 0x40 ADD SWAP1 KECCAK256 SLOAD GT DUP1 PUSH2 0x1312 JUMPI POP DUP2 PUSH1 0x6 PUSH0 PUSH1 0x9 DUP5 DUP2 SLOAD DUP2 LT PUSH2 0x12EC JUMPI PUSH2 0x12EC PUSH2 0x193B JUMP JUMPDEST PUSH0 SWAP2 DUP3 MSTORE PUSH1 0x20 DUP1 DUP4 KECCAK256 SWAP1 SWAP2 ADD SLOAD PUSH1 0x1 PUSH1 0x1 PUSH1 0xA0 SHL SUB AND DUP4 MSTORE DUP3 ADD SWAP3 SWAP1 SWAP3 MSTORE PUSH1 0x40 ADD SWAP1 KECCAK256 SLOAD GT JUMPDEST ISZERO PUSH2 0x1328 JUMPI PUSH1 0xC SLOAD PUSH1 0xB SLOAD SWAP5 POP SWAP5 POP POP POP POP SWAP1 SWAP2 JUMP JUMPDEST PUSH1 0x5 PUSH0 PUSH1 0x9 DUP4 DUP2 SLOAD DUP2 LT PUSH2 0x133E JUMPI PUSH2 0x133E PUSH2 0x193B JUMP JUMPDEST PUSH0 SWAP2 DUP3 MSTORE PUSH1 0x20 DUP1 DUP4 KECCAK256 SWAP1 SWAP2 ADD SLOAD PUSH1 0x1 PUSH1 0x1 PUSH1 0xA0 SHL SUB AND DUP4 MSTORE DUP3 ADD SWAP3 SWAP1 SWAP3 MSTORE PUSH1 0x40 ADD SWAP1 KECCAK256 SLOAD PUSH2 0x136C SWAP1 DUP5 PUSH2 0x18DD JUMP JUMPDEST SWAP3 POP PUSH1 0x6 PUSH0 PUSH1 0x9 DUP4 DUP2 SLOAD DUP2 LT PUSH2 0x1384 JUMPI PUSH2 0x1384 PUSH2 0x193B JUMP JUMPDEST PUSH0 SWAP2 DUP3 MSTORE PUSH1 0x20 DUP1 DUP4 KECCAK256 SWAP1 SWAP2 ADD SLOAD PUSH1 0x1 PUSH1 0x1 PUSH1 0xA0 SHL SUB AND DUP4 MSTORE DUP3 ADD SWAP3 SWAP1 SWAP3 MSTORE PUSH1 0x40 ADD SWAP1 KECCAK256 SLOAD PUSH2 0x13B2 SWAP1 DUP4 PUSH2 0x18DD JUMP JUMPDEST SWAP2 POP PUSH1 0x1 ADD PUSH2 0x1289 JUMP JUMPDEST POP PUSH1 0xB SLOAD PUSH1 0xC SLOAD PUSH2 0x13CD SWAP2 SWAP1 PUSH2 0x197A JUMP JUMPDEST DUP3 LT ISZERO PUSH2 0x13E4 JUMPI PUSH1 0xC SLOAD PUSH1 0xB SLOAD SWAP4 POP SWAP4 POP POP POP SWAP1 SWAP2 JUMP JUMPDEST SWAP1 SWAP4 SWAP1 SWAP3 POP SWAP1 POP JUMP JUMPDEST PUSH1 0xE SLOAD ISZERO DUP1 ISZERO PUSH2 0x13FD JUMPI POP PUSH1 0x10 SLOAD ISZERO JUMPDEST ISZERO PUSH2 0x1404 JUMPI JUMP JUMPDEST PUSH1 0xE DUP1 SLOAD PUSH1 0xF SSTORE PUSH1 0x10 DUP1 SLOAD PUSH1 0x11 SSTORE PUSH0 SWAP2 DUP3 SWAP1 SSTORE SSTORE JUMP JUMPDEST PUSH0 PUSH0 PUSH0 PUSH0 PUSH2 0x1427 DUP6 PUSH2 0xC6A JUMP JUMPDEST PUSH1 0x1 PUSH1 0x1 PUSH1 0xA0 SHL SUB DUP12 AND PUSH0 SWAP1 DUP2 MSTORE PUSH1 0x6 PUSH1 0x20 MSTORE PUSH1 0x40 SWAP1 KECCAK256 SLOAD SWAP4 SWAP8 POP SWAP2 SWAP6 POP SWAP4 POP SWAP2 POP PUSH2 0x1454 SWAP1 DUP7 SWAP1 PUSH2 0x18DD JUMP JUMPDEST PUSH1 0x1 PUSH1 0x1 PUSH1 0xA0 SHL SUB DUP9 AND PUSH0 SWAP1 DUP2 MSTORE PUSH1 0x6 PUSH1 0x20 SWAP1 DUP2 MSTORE PUSH1 0x40 DUP1 DUP4 KECCAK256 SWAP4 SWAP1 SWAP4 SSTORE PUSH1 0x5 SWAP1 MSTORE KECCAK256 SLOAD PUSH2 0x1483 SWAP1 DUP6 SWAP1 PUSH2 0x18DD JUMP JUMPDEST PUSH1 0x1 PUSH1 0x1 PUSH1 0xA0 SHL SUB DUP1 DUP10 AND PUSH0 SWAP1 DUP2 MSTORE PUSH1 0x5 PUSH1 0x20 MSTORE PUSH1 0x40 DUP1 DUP3 KECCAK256 SWAP4 SWAP1 SWAP4 SSTORE SWAP1 DUP9 AND DUP2 MSTORE KECCAK256 SLOAD PUSH2 0x14B2 SWAP1 DUP5 SWAP1 PUSH2 0x18F0 JUMP JUMPDEST PUSH1 0x1 PUSH1 0x1 PUSH1 0xA0 SHL SUB DUP8 AND PUSH0 SWAP1 DUP2 MSTORE PUSH1 0x5 PUSH1 0x20 MSTORE PUSH1 0x40 SWAP1 KECCAK256 SSTORE PUSH2 0x14D5 DUP8 DUP7 DUP4 PUSH2 0x1677 JUMP JUMPDEST PUSH2 0x14DF DUP6 DUP3 PUSH2 0x1732 JUMP JUMPDEST DUP6 PUSH1 0x1 PUSH1 0x1 PUSH1 0xA0 SHL SUB AND DUP8 PUSH1 0x1 PUSH1 0x1 PUSH1 0xA0 SHL SUB AND PUSH32 0xDDF252AD1BE2C89B69C2B068FC378DAA952BA7F163C4A11628F55A4DF523B3EF DUP5 PUSH1 0x40 MLOAD PUSH2 0x1524 SWAP2 DUP2 MSTORE PUSH1 0x20 ADD SWAP1 JUMP JUMPDEST PUSH1 0x40 MLOAD DUP1 SWAP2 SUB SWAP1 LOG3 POP POP POP POP POP POP POP JUMP JUMPDEST PUSH0 PUSH0 PUSH0 PUSH0 PUSH2 0x1542 DUP6 PUSH2 0xC6A JUMP JUMPDEST PUSH1 0x1 PUSH1 0x1 PUSH1 0xA0 SHL SUB DUP12 AND PUSH0 SWAP1 DUP2 MSTORE PUSH1 0x5 PUSH1 0x20 MSTORE PUSH1 0x40 SWAP1 KECCAK256 SLOAD SWAP4 SWAP8 POP SWAP2 SWAP6 POP SWAP4 POP SWAP2 POP PUSH2 0x156F SWAP1 DUP6 SWAP1 PUSH2 0x18DD JUMP JUMPDEST PUSH1 0x1 PUSH1 0x1 PUSH1 0xA0 SHL SUB DUP1 DUP10 AND PUSH0 SWAP1 DUP2 MSTORE PUSH1 0x5 PUSH1 0x20 SWAP1 DUP2 MSTORE PUSH1 0x40 DUP1 DUP4 KECCAK256 SWAP5 SWAP1 SWAP5 SSTORE SWAP2 DUP10 AND DUP2 MSTORE PUSH1 0x6 SWAP1 SWAP2 MSTORE KECCAK256 SLOAD PUSH2 0x15A5 SWAP1 DUP4 SWAP1 PUSH2 0x18F0 JUMP JUMPDEST PUSH1 0x1 PUSH1 0x1 PUSH1 0xA0 SHL SUB DUP8 AND PUSH0 SWAP1 DUP2 MSTORE PUSH1 0x6 PUSH1 0x20 SWAP1 DUP2 MSTORE PUSH1 0x40 DUP1 DUP4 KECCAK256 SWAP4 SWAP1 SWAP4 SSTORE PUSH1 0x5 SWAP1 MSTORE KECCAK256 SLOAD PUSH2 0x14B2 SWAP1 DUP5 SWAP1 PUSH2 0x18F0 JUMP JUMPDEST PUSH0 PUSH0 PUSH0 PUSH0 PUSH2 0x15E1 DUP6 PUSH2 0xC6A JUMP JUMPDEST PUSH1 0x1 PUSH1 0x1 PUSH1 0xA0 SHL SUB DUP12 AND PUSH0 SWAP1 DUP2 MSTORE PUSH1 0x5 PUSH1 0x20 MSTORE PUSH1 0x40 SWAP1 KECCAK256 SLOAD SWAP4 SWAP8 POP SWAP2 SWAP6 POP SWAP4 POP SWAP2 POP PUSH2 0x1483 SWAP1 DUP6 SWAP1 PUSH2 0x18DD JUMP JUMPDEST PUSH0 PUSH0 PUSH0 PUSH0 PUSH2 0x161B DUP6 PUSH2 0xC6A JUMP JUMPDEST PUSH1 0x1 PUSH1 0x1 PUSH1 0xA0 SHL SUB DUP12 AND PUSH0 SWAP1 DUP2 MSTORE PUSH1 0x6 PUSH1 0x20 MSTORE PUSH1 0x40 SWAP1 KECCAK256 SLOAD SWAP4 SWAP8 POP SWAP2 SWAP6 POP SWAP4 POP SWAP2 POP PUSH2 0x1648 SWAP1 DUP7 SWAP1 PUSH2 0x18DD JUMP JUMPDEST PUSH1 0x1 PUSH1 0x1 PUSH1 0xA0 SHL SUB DUP9 AND PUSH0 SWAP1 DUP2 MSTORE PUSH1 0x6 PUSH1 0x20 SWAP1 DUP2 MSTORE PUSH1 0x40 DUP1 DUP4 KECCAK256 SWAP4 SWAP1 SWAP4 SSTORE PUSH1 0x5 SWAP1 MSTORE KECCAK256 SLOAD PUSH2 0x156F SWAP1 DUP6 SWAP1 PUSH2 0x18DD JUMP JUMPDEST PUSH0 PUSH1 0x64 PUSH1 0x10 SLOAD DUP5 PUSH2 0x1688 SWAP2 SWAP1 PUSH2 0x1963 JUMP JUMPDEST PUSH2 0x1692 SWAP2 SWAP1 PUSH2 0x197A JUMP JUMPDEST SWAP1 POP DUP1 ISZERO PUSH2 0xD43 JUMPI PUSH0 PUSH2 0x16A5 DUP4 DUP4 PUSH2 0x1963 JUMP JUMPDEST PUSH1 0x12 SLOAD PUSH1 0x1 PUSH1 0x1 PUSH1 0xA0 SHL SUB AND PUSH0 SWAP1 DUP2 MSTORE PUSH1 0x5 PUSH1 0x20 MSTORE PUSH1 0x40 SWAP1 KECCAK256 SLOAD SWAP1 SWAP2 POP PUSH2 0x16CD SWAP1 DUP3 SWAP1 PUSH2 0x18F0 JUMP JUMPDEST PUSH1 0x12 DUP1 SLOAD PUSH1 0x1 PUSH1 0x1 PUSH1 0xA0 SHL SUB SWAP1 DUP2 AND PUSH0 SWAP1 DUP2 MSTORE PUSH1 0x5 PUSH1 0x20 SWAP1 DUP2 MSTORE PUSH1 0x40 SWAP2 DUP3 SWAP1 KECCAK256 SWAP5 SWAP1 SWAP5 SSTORE SWAP2 SLOAD SWAP2 MLOAD DUP6 DUP2 MSTORE SWAP2 DUP2 AND SWAP3 SWAP1 DUP9 AND SWAP2 PUSH32 0xDDF252AD1BE2C89B69C2B068FC378DAA952BA7F163C4A11628F55A4DF523B3EF SWAP2 ADD PUSH1 0x40 MLOAD DUP1 SWAP2 SUB SWAP1 LOG3 POP POP POP POP POP JUMP JUMPDEST PUSH0 PUSH1 0x64 PUSH1 0xE SLOAD DUP5 PUSH2 0x1743 SWAP2 SWAP1 PUSH2 0x1963 JUMP JUMPDEST PUSH2 0x174D SWAP2 SWAP1 PUSH2 0x197A JUMP JUMPDEST SWAP1 POP PUSH0 PUSH2 0x175A DUP4 DUP4 PUSH2 0x1963 JUMP JUMPDEST SWAP1 POP DUP1 PUSH1 0xC SLOAD PUSH2 0x176A SWAP2 SWAP1 PUSH2 0x18DD JUMP JUMPDEST PUSH1 0xC SSTORE PUSH1 0xD SLOAD PUSH2 0x177B SWAP1 DUP4 SWAP1 PUSH2 0x18F0 JUMP JUMPDEST PUSH1 0xD SSTORE POP POP POP POP JUMP JUMPDEST PUSH0 PUSH1 0x20 DUP3 DUP5 SUB SLT ISZERO PUSH2 0x1794 JUMPI PUSH0 PUSH0 REVERT JUMPDEST POP CALLDATALOAD SWAP2 SWAP1 POP JUMP JUMPDEST PUSH1 0x20 DUP2 MSTORE PUSH0 DUP3 MLOAD DUP1 PUSH1 0x20 DUP5 ADD MSTORE DUP1 PUSH1 0x20 DUP6 ADD PUSH1 0x40 DUP6 ADD MCOPY PUSH0 PUSH1 0x40 DUP3 DUP6 ADD ADD MSTORE PUSH1 0x40 PUSH1 0x1F NOT PUSH1 0x1F DUP4 ADD AND DUP5 ADD ADD SWAP2 POP POP SWAP3 SWAP2 POP POP JUMP JUMPDEST DUP1 CALLDATALOAD PUSH1 0x1 PUSH1 0x1 PUSH1 0xA0 SHL SUB DUP2 AND DUP2 EQ PUSH2 0x17E6 JUMPI PUSH0 PUSH0 REVERT JUMPDEST SWAP2 SWAP1 POP JUMP JUMPDEST PUSH0 PUSH0 PUSH1 0x40 DUP4 DUP6 SUB SLT ISZERO PUSH2 0x17FC JUMPI PUSH0 PUSH0 REVERT JUMPDEST PUSH2 0x1805 DUP4 PUSH2 0x17D0 JUMP JUMPDEST SWAP5 PUSH1 0x20 SWAP4 SWAP1 SWAP4 ADD CALLDATALOAD SWAP4 POP POP POP JUMP JUMPDEST PUSH0 PUSH0 PUSH0 PUSH1 0x60 DUP5 DUP7 SUB SLT ISZERO PUSH2 0x1825 JUMPI PUSH0 PUSH0 REVERT JUMPDEST PUSH2 0x182E DUP5 PUSH2 0x17D0 JUMP JUMPDEST SWAP3 POP PUSH2 0x183C PUSH1 0x20 DUP6 ADD PUSH2 0x17D0 JUMP JUMPDEST SWAP3 SWAP6 SWAP3 SWAP5 POP POP POP PUSH1 0x40 SWAP2 SWAP1 SWAP2 ADD CALLDATALOAD SWAP1 JUMP JUMPDEST PUSH0 PUSH1 0x20 DUP3 DUP5 SUB SLT ISZERO PUSH2 0x185D JUMPI PUSH0 PUSH0 REVERT JUMPDEST PUSH2 0xFE1 DUP3 PUSH2 0x17D0 JUMP JUMPDEST PUSH0 PUSH0 PUSH1 0x40 DUP4 DUP6 SUB SLT ISZERO PUSH2 0x1877 JUMPI PUSH0 PUSH0 REVERT JUMPDEST DUP3 CALLDATALOAD SWAP2 POP PUSH1 0x20 DUP4 ADD CALLDATALOAD DUP1 ISZERO ISZERO DUP2 EQ PUSH2 0x188D JUMPI PUSH0 PUSH0 REVERT JUMPDEST DUP1 SWAP2 POP POP SWAP3 POP SWAP3 SWAP1 POP JUMP JUMPDEST PUSH0 PUSH0 PUSH1 0x40 DUP4 DUP6 SUB SLT ISZERO PUSH2 0x18A9 JUMPI PUSH0 PUSH0 REVERT JUMPDEST PUSH2 0x18B2 DUP4 PUSH2 0x17D0 JUMP JUMPDEST SWAP2 POP PUSH2 0x18C0 PUSH1 0x20 DUP5 ADD PUSH2 0x17D0 JUMP JUMPDEST SWAP1 POP SWAP3 POP SWAP3 SWAP1 POP JUMP JUMPDEST PUSH4 0x4E487B71 PUSH1 0xE0 SHL PUSH0 MSTORE PUSH1 0x11 PUSH1 0x4 MSTORE PUSH1 0x24 PUSH0 REVERT JUMPDEST DUP2 DUP2 SUB DUP2 DUP2 GT ISZERO PUSH2 0x6B1 JUMPI PUSH2 0x6B1 PUSH2 0x18C9 JUMP JUMPDEST DUP1 DUP3 ADD DUP1 DUP3 GT ISZERO PUSH2 0x6B1 JUMPI PUSH2 0x6B1 PUSH2 0x18C9 JUMP JUMPDEST PUSH1 0x1 DUP2 DUP2 SHR SWAP1 DUP3 AND DUP1 PUSH2 0x1917 JUMPI PUSH1 0x7F DUP3 AND SWAP2 POP JUMPDEST PUSH1 0x20 DUP3 LT DUP2 SUB PUSH2 0x1935 JUMPI PUSH4 0x4E487B71 PUSH1 0xE0 SHL PUSH0 MSTORE PUSH1 0x22 PUSH1 0x4 MSTORE PUSH1 0x24 PUSH0 REVERT JUMPDEST POP SWAP2 SWAP1 POP JUMP JUMPDEST PUSH4 0x4E487B71 PUSH1 0xE0 SHL PUSH0 MSTORE PUSH1 0x32 PUSH1 0x4 MSTORE PUSH1 0x24 PUSH0 REVERT JUMPDEST PUSH4 0x4E487B71 PUSH1 0xE0 SHL PUSH0 MSTORE PUSH1 0x31 PUSH1 0x4 MSTORE PUSH1 0x24 PUSH0 REVERT JUMPDEST DUP1 DUP3 MUL DUP2 ISZERO DUP3 DUP3 DIV DUP5 EQ OR PUSH2 0x6B1 JUMPI PUSH2 0x6B1 PUSH2 0x18C9 JUMP JUMPDEST PUSH0 DUP3 PUSH2 0x1994 JUMPI PUSH4 0x4E487B71 PUSH1 0xE0 SHL PUSH0 MSTORE PUSH1 0x12 PUSH1 0x4 MSTORE PUSH1 0x24 PUSH0 REVERT JUMPDEST POP DIV SWAP1 JUMP INVALID LOG2 PUSH5 0x6970667358 0x22 SLT KECCAK256 DUP11 0xB1 0xC7 LOG2 0xB8 0x1E 0xB2 0xDF 0xC3 0x4C BYTE RJUMP 0x4F9 0xC0 DUP14 RETURNDATACOPY PUSH10 0xC0D60981B535865E31A9 LOG3 SMOD SWAPN 0xC2 PUSH5 0x736F6C6343 STOP ADDMOD SAR STOP CALLER "
				},
				"gasEstimates": {
					"creation": {
						"codeDepositCost": "1321400",
						"executionCost": "infinite",
						"totalCost": "infinite"
					},
					"external": {
						"allowance(address,address)": "infinite",
						"approve(address,uint256)": "24779",
						"balanceOf(address)": "infinite",
						"changePairAddress(address)": "26778",
						"decimals()": "2422",
						"disbleAntiWhale()": "26643",
						"enableAntiWhale()": "26606",
						"excludeAccountFromReward(address)": "infinite",
						"excludeFromFee(address)": "26852",
						"getMarketingAndDevelopmentAccount()": "2419",
						"getTaxFee()": "2379",
						"includeAccountinReward(address)": "infinite",
						"isExcluded(address)": "2613",
						"isExcludedFromFee(address)": "2591",
						"name()": "infinite",
						"owner()": "2397",
						"pairAddress()": "2447",
						"reflect(uint256)": "infinite",
						"reflectionFee()": "2381",
						"reflectionFromToken(uint256,bool)": "infinite",
						"renounceOwnership()": "28758",
						"symbol()": "infinite",
						"totalFeesRedistributed()": "2337",
						"totalSupply()": "2370",
						"transfer(address,uint256)": "infinite",
						"transferFrom(address,address,uint256)": "infinite",
						"transferOwnership(address)": "26807"
					},
					"internal": {
						"_getCompleteTaxValue(uint256)": "infinite",
						"_getCurrentSupply()": "infinite",
						"_getRate()": "infinite",
						"_getTransferValues(uint256)": "infinite",
						"_reflectFee(uint256,uint256)": "infinite",
						"_tokenTransfer(address,address,uint256,bool)": "infinite",
						"_transfer(address,address,uint256)": "infinite",
						"_transferBothExcluded(address,address,uint256)": "infinite",
						"_transferFromExcluded(address,address,uint256)": "infinite",
						"_transferStandard(address,address,uint256)": "infinite",
						"_transferToExcluded(address,address,uint256)": "infinite",
						"removeAllFee()": "62689",
						"restoreAllFee()": "infinite",
						"taxFeeTransfer(address,uint256,uint256)": "infinite",
						"tokenFromReflection(uint256)": "infinite"
					}
				},
				"methodIdentifiers": {
					"allowance(address,address)": "dd62ed3e",
					"approve(address,uint256)": "095ea7b3",
					"balanceOf(address)": "70a08231",
					"changePairAddress(address)": "8873b15f",
					"decimals()": "313ce567",
					"disbleAntiWhale()": "60c3ae84",
					"enableAntiWhale()": "5c7ffc88",
					"excludeAccountFromReward(address)": "6049876e",
					"excludeFromFee(address)": "437823ec",
					"getMarketingAndDevelopmentAccount()": "d12dc1c1",
					"getTaxFee()": "f66608fe",
					"includeAccountinReward(address)": "fdeb889f",
					"isExcluded(address)": "cba0e996",
					"isExcludedFromFee(address)": "5342acb4",
					"name()": "06fdde03",
					"owner()": "8da5cb5b",
					"pairAddress()": "a8b08982",
					"reflect(uint256)": "053ab182",
					"reflectionFee()": "83ad7994",
					"reflectionFromToken(uint256,bool)": "4549b039",
					"renounceOwnership()": "715018a6",
					"symbol()": "95d89b41",
					"totalFeesRedistributed()": "32035504",
					"totalSupply()": "18160ddd",
					"transfer(address,uint256)": "a9059cbb",
					"transferFrom(address,address,uint256)": "23b872dd",
					"transferOwnership(address)": "f2fde38b"
				}
			},
			"storageLayout": {
				"storage": [
					{
						"astId": 184,
						"contract": "CYBCC.sol:CYBCC",
						"label": "_balances",
						"offset": 0,
						"slot": "0",
						"type": "t_mapping(t_address,t_uint256)"
					},
					{
						"astId": 190,
						"contract": "CYBCC.sol:CYBCC",
						"label": "_allowances",
						"offset": 0,
						"slot": "1",
						"type": "t_mapping(t_address,t_mapping(t_address,t_uint256))"
					},
					{
						"astId": 192,
						"contract": "CYBCC.sol:CYBCC",
						"label": "_totalSupply",
						"offset": 0,
						"slot": "2",
						"type": "t_uint256"
					},
					{
						"astId": 194,
						"contract": "CYBCC.sol:CYBCC",
						"label": "_name",
						"offset": 0,
						"slot": "3",
						"type": "t_string_storage"
					},
					{
						"astId": 196,
						"contract": "CYBCC.sol:CYBCC",
						"label": "_symbol",
						"offset": 0,
						"slot": "4",
						"type": "t_string_storage"
					},
					{
						"astId": 683,
						"contract": "CYBCC.sol:CYBCC",
						"label": "_rOwned",
						"offset": 0,
						"slot": "5",
						"type": "t_mapping(t_address,t_uint256)"
					},
					{
						"astId": 687,
						"contract": "CYBCC.sol:CYBCC",
						"label": "_tOwned",
						"offset": 0,
						"slot": "6",
						"type": "t_mapping(t_address,t_uint256)"
					},
					{
						"astId": 691,
						"contract": "CYBCC.sol:CYBCC",
						"label": "_isExcludedFromFee",
						"offset": 0,
						"slot": "7",
						"type": "t_mapping(t_address,t_bool)"
					},
					{
						"astId": 695,
						"contract": "CYBCC.sol:CYBCC",
						"label": "_isExcluded",
						"offset": 0,
						"slot": "8",
						"type": "t_mapping(t_address,t_bool)"
					},
					{
						"astId": 698,
						"contract": "CYBCC.sol:CYBCC",
						"label": "_excluded",
						"offset": 0,
						"slot": "9",
						"type": "t_array(t_address)dyn_storage"
					},
					{
						"astId": 700,
						"contract": "CYBCC.sol:CYBCC",
						"label": "_decimals",
						"offset": 0,
						"slot": "10",
						"type": "t_uint8"
					},
					{
						"astId": 704,
						"contract": "CYBCC.sol:CYBCC",
						"label": "_owner",
						"offset": 1,
						"slot": "10",
						"type": "t_address"
					},
					{
						"astId": 713,
						"contract": "CYBCC.sol:CYBCC",
						"label": "_tTotal",
						"offset": 0,
						"slot": "11",
						"type": "t_uint256"
					},
					{
						"astId": 715,
						"contract": "CYBCC.sol:CYBCC",
						"label": "_rTotal",
						"offset": 0,
						"slot": "12",
						"type": "t_uint256"
					},
					{
						"astId": 718,
						"contract": "CYBCC.sol:CYBCC",
						"label": "_tFeeTotal",
						"offset": 0,
						"slot": "13",
						"type": "t_uint256"
					},
					{
						"astId": 720,
						"contract": "CYBCC.sol:CYBCC",
						"label": "_reflectionFee",
						"offset": 0,
						"slot": "14",
						"type": "t_uint256"
					},
					{
						"astId": 722,
						"contract": "CYBCC.sol:CYBCC",
						"label": "_previousReflectionFee",
						"offset": 0,
						"slot": "15",
						"type": "t_uint256"
					},
					{
						"astId": 724,
						"contract": "CYBCC.sol:CYBCC",
						"label": "_taxFee",
						"offset": 0,
						"slot": "16",
						"type": "t_uint256"
					},
					{
						"astId": 726,
						"contract": "CYBCC.sol:CYBCC",
						"label": "_previousTaxFee",
						"offset": 0,
						"slot": "17",
						"type": "t_uint256"
					},
					{
						"astId": 728,
						"contract": "CYBCC.sol:CYBCC",
						"label": "_marketingAndDevelopmentAccount",
						"offset": 0,
						"slot": "18",
						"type": "t_address"
					},
					{
						"astId": 730,
						"contract": "CYBCC.sol:CYBCC",
						"label": "pairAddress",
						"offset": 0,
						"slot": "19",
						"type": "t_address"
					},
					{
						"astId": 732,
						"contract": "CYBCC.sol:CYBCC",
						"label": "maxWalletAmount",
						"offset": 0,
						"slot": "20",
						"type": "t_uint256"
					},
					{
						"astId": 735,
						"contract": "CYBCC.sol:CYBCC",
						"label": "antiWhale",
						"offset": 0,
						"slot": "21",
						"type": "t_bool"
					}
				],
				"types": {
					"t_address": {
						"encoding": "inplace",
						"label": "address",
						"numberOfBytes": "20"
					},
					"t_array(t_address)dyn_storage": {
						"base": "t_address",
						"encoding": "dynamic_array",
						"label": "address[]",
						"numberOfBytes": "32"
					},
					"t_bool": {
						"encoding": "inplace",
						"label": "bool",
						"numberOfBytes": "1"
					},
					"t_mapping(t_address,t_bool)": {
						"encoding": "mapping",
						"key": "t_address",
						"label": "mapping(address => bool)",
						"numberOfBytes": "32",
						"value": "t_bool"
					},
					"t_mapping(t_address,t_mapping(t_address,t_uint256))": {
						"encoding": "mapping",
						"key": "t_address",
						"label": "mapping(address => mapping(address => uint256))",
						"numberOfBytes": "32",
						"value": "t_mapping(t_address,t_uint256)"
					},
					"t_mapping(t_address,t_uint256)": {
						"encoding": "mapping",
						"key": "t_address",
						"label": "mapping(address => uint256)",
						"numberOfBytes": "32",
						"value": "t_uint256"
					},
					"t_string_storage": {
						"encoding": "bytes",
						"label": "string",
						"numberOfBytes": "32"
					},
					"t_uint256": {
						"encoding": "inplace",
						"label": "uint256",
						"numberOfBytes": "32"
					},
					"t_uint8": {
						"encoding": "inplace",
						"label": "uint8",
						"numberOfBytes": "1"
					}
				}
			},
			"userdoc": {
				"kind": "user",
				"methods": {},
				"version": 1
			}
		}
	}
}