{
	"Auction.sol": {
		"ERC20Auction": {
			"abi": [
				{
					"anonymous": false,
					"inputs": [
						{
							"indexed": true,
							"internalType": "uint256",
							"name": "listingId",
							"type": "uint256"
						},
						{
							"indexed": true,
							"internalType": "address",
							"name": "seller",
							"type": "address"
						},
						{
							"indexed": true,
							"internalType": "address",
							"name": "tokenAddress",
							"type": "address"
						},
						{
							"indexed": false,
							"internalType": "uint256",
							"name": "amount",
							"type": "uint256"
						},
						{
							"indexed": false,
							"internalType": "uint256",
							"name": "pricePerToken",
							"type": "uint256"
						}
					],
					"name": "TokensListed",
					"type": "event"
				},
				{
					"anonymous": false,
					"inputs": [
						{
							"indexed": true,
							"internalType": "uint256",
							"name": "listingId",
							"type": "uint256"
						},
						{
							"indexed": true,
							"internalType": "address",
							"name": "buyer",
							"type": "address"
						},
						{
							"indexed": false,
							"internalType": "uint256",
							"name": "amount",
							"type": "uint256"
						},
						{
							"indexed": false,
							"internalType": "uint256",
							"name": "totalPrice",
							"type": "uint256"
						}
					],
					"name": "TokensPurchased",
					"type": "event"
				},
				{
					"inputs": [
						{
							"internalType": "uint256",
							"name": "listingId",
							"type": "uint256"
						},
						{
							"internalType": "uint256",
							"name": "tokenAmount",
							"type": "uint256"
						}
					],
					"name": "buyTokens",
					"outputs": [],
					"stateMutability": "payable",
					"type": "function"
				},
				{
					"inputs": [],
					"name": "getListingCount",
					"outputs": [
						{
							"internalType": "uint256",
							"name": "",
							"type": "uint256"
						}
					],
					"stateMutability": "view",
					"type": "function"
				},
				{
					"inputs": [
						{
							"internalType": "contract IERC20",
							"name": "token",
							"type": "address"
						},
						{
							"internalType": "uint256",
							"name": "totalAmount",
							"type": "uint256"
						},
						{
							"internalType": "uint256",
							"name": "pricePerToken",
							"type": "uint256"
						}
					],
					"name": "listTokens",
					"outputs": [
						{
							"internalType": "uint256",
							"name": "",
							"type": "uint256"
						}
					],
					"stateMutability": "nonpayable",
					"type": "function"
				},
				{
					"inputs": [
						{
							"internalType": "uint256",
							"name": "",
							"type": "uint256"
						}
					],
					"name": "listings",
					"outputs": [
						{
							"internalType": "address",
							"name": "seller",
							"type": "address"
						},
						{
							"internalType": "contract IERC20",
							"name": "token",
							"type": "address"
						},
						{
							"internalType": "uint256",
							"name": "pricePerToken",
							"type": "uint256"
						},
						{
							"internalType": "uint256",
							"name": "remainingAmount",
							"type": "uint256"
						},
						{
							"internalType": "uint256",
							"name": "deadline",
							"type": "uint256"
						}
					],
					"stateMutability": "view",
					"type": "function"
				}
			],
			"devdoc": {
				"kind": "dev",
				"methods": {},
				"version": 1
			},
			"evm": {
				"assembly": "    /* \"Auction.sol\":618:3916  contract ERC20Auction {... */\n  mstore(0x40, 0x80)\n  callvalue\n  dup1\n  iszero\n  tag_1\n  jumpi\n  revert(0x00, 0x00)\ntag_1:\n  pop\n  dataSize(sub_0)\n  dup1\n  dataOffset(sub_0)\n  0x00\n  codecopy\n  0x00\n  return\nstop\n\nsub_0: assembly {\n        /* \"Auction.sol\":618:3916  contract ERC20Auction {... */\n      mstore(0x40, 0x80)\n      jumpi(tag_1, lt(calldatasize, 0x04))\n      shr(0xe0, calldataload(0x00))\n      dup1\n      0x7975ce28\n      eq\n      tag_2\n      jumpi\n      dup1\n      0x87ed92d7\n      eq\n      tag_3\n      jumpi\n      dup1\n      0xde74e57b\n      eq\n      tag_4\n      jumpi\n      dup1\n      0xfa982ad1\n      eq\n      tag_5\n      jumpi\n    tag_1:\n      revert(0x00, 0x00)\n        /* \"Auction.sol\":2256:3788  function buyTokens(uint listingId, uint tokenAmount) external payable {... */\n    tag_2:\n      tag_6\n      tag_7\n      calldatasize\n      0x04\n      tag_8\n      jump\t// in\n    tag_7:\n      tag_9\n      jump\t// in\n    tag_6:\n      stop\n        /* \"Auction.sol\":3806:3903  function getListingCount() external view returns (uint) {... */\n    tag_3:\n      callvalue\n      dup1\n      iszero\n      tag_10\n      jumpi\n      revert(0x00, 0x00)\n    tag_10:\n      pop\n        /* \"Auction.sol\":3856:3860  uint */\n      0x00\n        /* \"Auction.sol\":3880:3895  listings.length */\n      sload\n        /* \"Auction.sol\":3806:3903  function getListingCount() external view returns (uint) {... */\n    tag_11:\n      mload(0x40)\n        /* \"#utility.yul\":511:536   */\n      swap1\n      dup2\n      mstore\n        /* \"#utility.yul\":499:501   */\n      0x20\n        /* \"#utility.yul\":484:502   */\n      add\n        /* \"Auction.sol\":3806:3903  function getListingCount() external view returns (uint) {... */\n    tag_13:\n      mload(0x40)\n      dup1\n      swap2\n      sub\n      swap1\n      return\n        /* \"Auction.sol\":911:936  Listing[] public listings */\n    tag_4:\n      callvalue\n      dup1\n      iszero\n      tag_15\n      jumpi\n      revert(0x00, 0x00)\n    tag_15:\n      pop\n      tag_16\n      tag_17\n      calldatasize\n      0x04\n      tag_18\n      jump\t// in\n    tag_17:\n      tag_19\n      jump\t// in\n    tag_16:\n      0x40\n      dup1\n      mload\n      sub(shl(0xa0, 0x01), 0x01)\n        /* \"#utility.yul\":1068:1100   */\n      swap7\n      dup8\n      and\n        /* \"#utility.yul\":1050:1101   */\n      dup2\n      mstore\n        /* \"#utility.yul\":1137:1169   */\n      swap6\n      swap1\n      swap5\n      and\n        /* \"#utility.yul\":1132:1134   */\n      0x20\n        /* \"#utility.yul\":1117:1135   */\n      dup7\n      add\n        /* \"#utility.yul\":1110:1170   */\n      mstore\n        /* \"#utility.yul\":1186:1204   */\n      swap3\n      dup5\n      add\n        /* \"#utility.yul\":1179:1213   */\n      swap2\n      swap1\n      swap2\n      mstore\n        /* \"#utility.yul\":1244:1246   */\n      0x60\n        /* \"#utility.yul\":1229:1247   */\n      dup4\n      add\n        /* \"#utility.yul\":1222:1256   */\n      mstore\n        /* \"#utility.yul\":1287:1290   */\n      0x80\n        /* \"#utility.yul\":1272:1291   */\n      dup3\n      add\n        /* \"#utility.yul\":1265:1300   */\n      mstore\n        /* \"#utility.yul\":1037:1040   */\n      0xa0\n        /* \"#utility.yul\":1022:1041   */\n      add\n        /* \"Auction.sol\":911:936  Listing[] public listings */\n      tag_13\n        /* \"#utility.yul\":778:1306   */\n      jump\n        /* \"Auction.sol\":1202:2245  function listTokens(IERC20 token, uint totalAmount, uint pricePerToken) public returns (uint) {... */\n    tag_5:\n      callvalue\n      dup1\n      iszero\n      tag_22\n      jumpi\n      revert(0x00, 0x00)\n    tag_22:\n      pop\n      tag_11\n      tag_24\n      calldatasize\n      0x04\n      tag_25\n      jump\t// in\n    tag_24:\n      tag_26\n      jump\t// in\n        /* \"Auction.sol\":2256:3788  function buyTokens(uint listingId, uint tokenAmount) external payable {... */\n    tag_9:\n        /* \"Auction.sol\":2357:2365  listings */\n      0x00\n        /* \"Auction.sol\":2357:2372  listings.length */\n      sload\n        /* \"Auction.sol\":2345:2372  listingId < listings.length */\n      dup3\n      lt\n        /* \"Auction.sol\":2337:2399  require(listingId < listings.length, \"Listing does not exist\") */\n      tag_29\n      jumpi\n      mload(0x40)\n      shl(0xe5, 0x461bcd)\n      dup2\n      mstore\n        /* \"#utility.yul\":2057:2059   */\n      0x20\n        /* \"Auction.sol\":2337:2399  require(listingId < listings.length, \"Listing does not exist\") */\n      0x04\n      dup3\n      add\n        /* \"#utility.yul\":2039:2060   */\n      mstore\n        /* \"#utility.yul\":2096:2098   */\n      0x16\n        /* \"#utility.yul\":2076:2094   */\n      0x24\n      dup3\n      add\n        /* \"#utility.yul\":2069:2099   */\n      mstore\n      shl(0x52, 0x131a5cdd1a5b99c8191bd95cc81b9bdd08195e1a5cdd)\n        /* \"#utility.yul\":2115:2133   */\n      0x44\n      dup3\n      add\n        /* \"#utility.yul\":2108:2160   */\n      mstore\n        /* \"#utility.yul\":2177:2195   */\n      0x64\n      add\n        /* \"Auction.sol\":2337:2399  require(listingId < listings.length, \"Listing does not exist\") */\n    tag_30:\n      mload(0x40)\n      dup1\n      swap2\n      sub\n      swap1\n      revert\n    tag_29:\n        /* \"Auction.sol\":2410:2433  Listing storage listing */\n      0x00\n        /* \"Auction.sol\":2436:2444  listings */\n      0x00\n        /* \"Auction.sol\":2445:2454  listingId */\n      dup4\n        /* \"Auction.sol\":2436:2455  listings[listingId] */\n      dup2\n      sload\n      dup2\n      lt\n      tag_33\n      jumpi\n      tag_33\n      tag_34\n      jump\t// in\n    tag_33:\n      swap1\n      0x00\n      mstore\n      keccak256(0x00, 0x20)\n      swap1\n      0x05\n      mul\n      add\n        /* \"Auction.sol\":2410:2455  Listing storage listing = listings[listingId] */\n      swap1\n      pop\n        /* \"Auction.sol\":2502:2509  listing */\n      dup1\n        /* \"Auction.sol\":2502:2518  listing.deadline */\n      0x04\n      add\n      sload\n        /* \"Auction.sol\":2484:2499  block.timestamp */\n      timestamp\n        /* \"Auction.sol\":2484:2518  block.timestamp < listing.deadline */\n      lt\n        /* \"Auction.sol\":2476:2542  require(block.timestamp < listing.deadline, \"Listing has expired\") */\n      tag_36\n      jumpi\n      mload(0x40)\n      shl(0xe5, 0x461bcd)\n      dup2\n      mstore\n        /* \"#utility.yul\":2540:2542   */\n      0x20\n        /* \"Auction.sol\":2476:2542  require(block.timestamp < listing.deadline, \"Listing has expired\") */\n      0x04\n      dup3\n      add\n        /* \"#utility.yul\":2522:2543   */\n      mstore\n        /* \"#utility.yul\":2579:2581   */\n      0x13\n        /* \"#utility.yul\":2559:2577   */\n      0x24\n      dup3\n      add\n        /* \"#utility.yul\":2552:2582   */\n      mstore\n      shl(0x6a, 0x131a5cdd1a5b99c81a185cc8195e1c1a5c9959)\n        /* \"#utility.yul\":2598:2616   */\n      0x44\n      dup3\n      add\n        /* \"#utility.yul\":2591:2640   */\n      mstore\n        /* \"#utility.yul\":2657:2675   */\n      0x64\n      add\n        /* \"Auction.sol\":2476:2542  require(block.timestamp < listing.deadline, \"Listing has expired\") */\n      tag_30\n        /* \"#utility.yul\":2338:2681   */\n      jump\n        /* \"Auction.sol\":2476:2542  require(block.timestamp < listing.deadline, \"Listing has expired\") */\n    tag_36:\n        /* \"Auction.sol\":2575:2576  0 */\n      0x00\n        /* \"Auction.sol\":2561:2572  tokenAmount */\n      dup3\n        /* \"Auction.sol\":2561:2576  tokenAmount > 0 */\n      gt\n        /* \"Auction.sol\":2553:2613  require(tokenAmount > 0, \"Amount must be greater than zero\") */\n      tag_39\n      jumpi\n      mload(0x40)\n      shl(0xe5, 0x461bcd)\n      dup2\n      mstore\n        /* \"#utility.yul\":2888:2890   */\n      0x20\n        /* \"Auction.sol\":2553:2613  require(tokenAmount > 0, \"Amount must be greater than zero\") */\n      0x04\n      dup3\n      add\n        /* \"#utility.yul\":2870:2891   */\n      dup2\n      swap1\n      mstore\n        /* \"#utility.yul\":2907:2925   */\n      0x24\n      dup3\n      add\n        /* \"#utility.yul\":2900:2930   */\n      mstore\n        /* \"#utility.yul\":2966:3000   */\n      0x416d6f756e74206d7573742062652067726561746572207468616e207a65726f\n        /* \"#utility.yul\":2946:2964   */\n      0x44\n      dup3\n      add\n        /* \"#utility.yul\":2939:3001   */\n      mstore\n        /* \"#utility.yul\":3018:3036   */\n      0x64\n      add\n        /* \"Auction.sol\":2553:2613  require(tokenAmount > 0, \"Amount must be greater than zero\") */\n      tag_30\n        /* \"#utility.yul\":2686:3042   */\n      jump\n        /* \"Auction.sol\":2553:2613  require(tokenAmount > 0, \"Amount must be greater than zero\") */\n    tag_39:\n        /* \"Auction.sol\":2647:2654  listing */\n      dup1\n        /* \"Auction.sol\":2647:2670  listing.remainingAmount */\n      0x03\n      add\n      sload\n        /* \"Auction.sol\":2632:2643  tokenAmount */\n      dup3\n        /* \"Auction.sol\":2632:2670  tokenAmount <= listing.remainingAmount */\n      gt\n      iszero\n        /* \"Auction.sol\":2624:2702  require(tokenAmount <= listing.remainingAmount, \"Not enough tokens available\") */\n      tag_42\n      jumpi\n      mload(0x40)\n      shl(0xe5, 0x461bcd)\n      dup2\n      mstore\n        /* \"#utility.yul\":3249:3251   */\n      0x20\n        /* \"Auction.sol\":2624:2702  require(tokenAmount <= listing.remainingAmount, \"Not enough tokens available\") */\n      0x04\n      dup3\n      add\n        /* \"#utility.yul\":3231:3252   */\n      mstore\n        /* \"#utility.yul\":3288:3290   */\n      0x1b\n        /* \"#utility.yul\":3268:3286   */\n      0x24\n      dup3\n      add\n        /* \"#utility.yul\":3261:3291   */\n      mstore\n        /* \"#utility.yul\":3327:3356   */\n      0x4e6f7420656e6f75676820746f6b656e7320617661696c61626c650000000000\n        /* \"#utility.yul\":3307:3325   */\n      0x44\n      dup3\n      add\n        /* \"#utility.yul\":3300:3357   */\n      mstore\n        /* \"#utility.yul\":3374:3392   */\n      0x64\n      add\n        /* \"Auction.sol\":2624:2702  require(tokenAmount <= listing.remainingAmount, \"Not enough tokens available\") */\n      tag_30\n        /* \"#utility.yul\":3047:3398   */\n      jump\n        /* \"Auction.sol\":2624:2702  require(tokenAmount <= listing.remainingAmount, \"Not enough tokens available\") */\n    tag_42:\n        /* \"Auction.sol\":2786:2801  uint totalPrice */\n      0x00\n        /* \"Auction.sol\":2818:2825  listing */\n      dup2\n        /* \"Auction.sol\":2818:2839  listing.pricePerToken */\n      0x02\n      add\n      sload\n        /* \"Auction.sol\":2804:2815  tokenAmount */\n      dup4\n        /* \"Auction.sol\":2804:2839  tokenAmount * listing.pricePerToken */\n      tag_45\n      swap2\n      swap1\n      tag_46\n      jump\t// in\n    tag_45:\n        /* \"Auction.sol\":2786:2839  uint totalPrice = tokenAmount * listing.pricePerToken */\n      swap1\n      pop\n        /* \"Auction.sol\":2871:2881  totalPrice */\n      dup1\n        /* \"Auction.sol\":2858:2867  msg.value */\n      callvalue\n        /* \"Auction.sol\":2858:2881  msg.value >= totalPrice */\n      lt\n      iszero\n        /* \"Auction.sol\":2850:2907  require(msg.value >= totalPrice, \"Insufficient ETH sent\") */\n      tag_47\n      jumpi\n      mload(0x40)\n      shl(0xe5, 0x461bcd)\n      dup2\n      mstore\n        /* \"#utility.yul\":3910:3912   */\n      0x20\n        /* \"Auction.sol\":2850:2907  require(msg.value >= totalPrice, \"Insufficient ETH sent\") */\n      0x04\n      dup3\n      add\n        /* \"#utility.yul\":3892:3913   */\n      mstore\n        /* \"#utility.yul\":3949:3951   */\n      0x15\n        /* \"#utility.yul\":3929:3947   */\n      0x24\n      dup3\n      add\n        /* \"#utility.yul\":3922:3952   */\n      mstore\n      shl(0x5a, 0x125b9cdd59999a58da595b9d08115512081cd95b9d)\n        /* \"#utility.yul\":3968:3986   */\n      0x44\n      dup3\n      add\n        /* \"#utility.yul\":3961:4012   */\n      mstore\n        /* \"#utility.yul\":4029:4047   */\n      0x64\n      add\n        /* \"Auction.sol\":2850:2907  require(msg.value >= totalPrice, \"Insufficient ETH sent\") */\n      tag_30\n        /* \"#utility.yul\":3708:4053   */\n      jump\n        /* \"Auction.sol\":2850:2907  require(msg.value >= totalPrice, \"Insufficient ETH sent\") */\n    tag_47:\n        /* \"Auction.sol\":2982:2993  tokenAmount */\n      dup3\n        /* \"Auction.sol\":2955:2962  listing */\n      dup3\n        /* \"Auction.sol\":2955:2978  listing.remainingAmount */\n      0x03\n      add\n      0x00\n        /* \"Auction.sol\":2955:2993  listing.remainingAmount -= tokenAmount */\n      dup3\n      dup3\n      sload\n      tag_50\n      swap2\n      swap1\n      tag_51\n      jump\t// in\n    tag_50:\n      swap1\n      swap2\n      sstore\n      pop\n      pop\n        /* \"Auction.sol\":3079:3092  listing.token */\n      0x01\n      dup3\n      add\n      sload\n        /* \"Auction.sol\":3079:3126  listing.token.transfer(msg.sender, tokenAmount) */\n      mload(0x40)\n      shl(0xe0, 0xa9059cbb)\n      dup2\n      mstore\n        /* \"Auction.sol\":3102:3112  msg.sender */\n      caller\n        /* \"Auction.sol\":3079:3126  listing.token.transfer(msg.sender, tokenAmount) */\n      0x04\n      dup3\n      add\n        /* \"#utility.yul\":4365:4416   */\n      mstore\n        /* \"#utility.yul\":4432:4450   */\n      0x24\n      dup2\n      add\n        /* \"#utility.yul\":4425:4459   */\n      dup6\n      swap1\n      mstore\n        /* \"Auction.sol\":3051:3076  bool tokenTransferSuccess */\n      0x00\n      swap2\n      sub(shl(0xa0, 0x01), 0x01)\n        /* \"Auction.sol\":3079:3092  listing.token */\n      and\n      swap1\n        /* \"Auction.sol\":3079:3101  listing.token.transfer */\n      0xa9059cbb\n      swap1\n        /* \"#utility.yul\":4338:4356   */\n      0x44\n      add\n        /* \"Auction.sol\":3079:3126  listing.token.transfer(msg.sender, tokenAmount) */\n      0x20\n      mload(0x40)\n      dup1\n      dup4\n      sub\n      dup2\n      0x00\n      dup8\n      gas\n      call\n      iszero\n      dup1\n      iszero\n      tag_55\n      jumpi\n      returndatacopy(0x00, 0x00, returndatasize)\n      revert(0x00, returndatasize)\n    tag_55:\n      pop\n      pop\n      pop\n      pop\n      mload(0x40)\n      returndatasize\n      not(0x1f)\n      0x1f\n      dup3\n      add\n      and\n      dup3\n      add\n      dup1\n      0x40\n      mstore\n      pop\n      dup2\n      add\n      swap1\n      tag_56\n      swap2\n      swap1\n      tag_57\n      jump\t// in\n    tag_56:\n        /* \"Auction.sol\":3051:3126  bool tokenTransferSuccess = listing.token.transfer(msg.sender, tokenAmount) */\n      swap1\n      pop\n        /* \"Auction.sol\":3145:3165  tokenTransferSuccess */\n      dup1\n        /* \"Auction.sol\":3137:3200  require(tokenTransferSuccess, \"Token transfer to buyer failed\") */\n      tag_58\n      jumpi\n      mload(0x40)\n      shl(0xe5, 0x461bcd)\n      dup2\n      mstore\n        /* \"#utility.yul\":4954:4956   */\n      0x20\n        /* \"Auction.sol\":3137:3200  require(tokenTransferSuccess, \"Token transfer to buyer failed\") */\n      0x04\n      dup3\n      add\n        /* \"#utility.yul\":4936:4957   */\n      mstore\n        /* \"#utility.yul\":4993:4995   */\n      0x1e\n        /* \"#utility.yul\":4973:4991   */\n      0x24\n      dup3\n      add\n        /* \"#utility.yul\":4966:4996   */\n      mstore\n        /* \"#utility.yul\":5032:5064   */\n      0x546f6b656e207472616e7366657220746f206275796572206661696c65640000\n        /* \"#utility.yul\":5012:5030   */\n      0x44\n      dup3\n      add\n        /* \"#utility.yul\":5005:5065   */\n      mstore\n        /* \"#utility.yul\":5082:5100   */\n      0x64\n      add\n        /* \"Auction.sol\":3137:3200  require(tokenTransferSuccess, \"Token transfer to buyer failed\") */\n      tag_30\n        /* \"#utility.yul\":4752:5106   */\n      jump\n        /* \"Auction.sol\":3137:3200  require(tokenTransferSuccess, \"Token transfer to buyer failed\") */\n    tag_58:\n        /* \"Auction.sol\":3286:3300  listing.seller */\n      dup3\n      sload\n        /* \"Auction.sol\":3286:3328  listing.seller.call{value: totalPrice}(\"\") */\n      mload(0x40)\n        /* \"Auction.sol\":3257:3280  bool ethTransferSuccess */\n      0x00\n      swap2\n      sub(shl(0xa0, 0x01), 0x01)\n        /* \"Auction.sol\":3286:3300  listing.seller */\n      and\n      swap1\n        /* \"Auction.sol\":3313:3323  totalPrice */\n      dup5\n      swap1\n        /* \"Auction.sol\":3257:3280  bool ethTransferSuccess */\n      dup4\n        /* \"Auction.sol\":3286:3328  listing.seller.call{value: totalPrice}(\"\") */\n      dup2\n        /* \"Auction.sol\":3257:3280  bool ethTransferSuccess */\n      dup2\n        /* \"Auction.sol\":3286:3328  listing.seller.call{value: totalPrice}(\"\") */\n      dup2\n        /* \"Auction.sol\":3313:3323  totalPrice */\n      dup6\n        /* \"Auction.sol\":3286:3300  listing.seller */\n      dup8\n        /* \"Auction.sol\":3286:3328  listing.seller.call{value: totalPrice}(\"\") */\n      gas\n      call\n      swap3\n      pop\n      pop\n      pop\n      returndatasize\n      dup1\n      0x00\n      dup2\n      eq\n      tag_65\n      jumpi\n      mload(0x40)\n      swap2\n      pop\n      and(add(returndatasize, 0x3f), not(0x1f))\n      dup3\n      add\n      0x40\n      mstore\n      returndatasize\n      dup3\n      mstore\n      returndatasize\n      0x00\n      0x20\n      dup5\n      add\n      returndatacopy\n      jump(tag_64)\n    tag_65:\n      0x60\n      swap2\n      pop\n    tag_64:\n      pop\n        /* \"Auction.sol\":3256:3328  (bool ethTransferSuccess, ) = listing.seller.call{value: totalPrice}(\"\") */\n      pop\n      swap1\n      pop\n        /* \"Auction.sol\":3347:3365  ethTransferSuccess */\n      dup1\n        /* \"Auction.sol\":3339:3399  require(ethTransferSuccess, \"ETH transfer to seller failed\") */\n      tag_66\n      jumpi\n      mload(0x40)\n      shl(0xe5, 0x461bcd)\n      dup2\n      mstore\n        /* \"#utility.yul\":5523:5525   */\n      0x20\n        /* \"Auction.sol\":3339:3399  require(ethTransferSuccess, \"ETH transfer to seller failed\") */\n      0x04\n      dup3\n      add\n        /* \"#utility.yul\":5505:5526   */\n      mstore\n        /* \"#utility.yul\":5562:5564   */\n      0x1d\n        /* \"#utility.yul\":5542:5560   */\n      0x24\n      dup3\n      add\n        /* \"#utility.yul\":5535:5565   */\n      mstore\n        /* \"#utility.yul\":5601:5632   */\n      0x455448207472616e7366657220746f2073656c6c6572206661696c6564000000\n        /* \"#utility.yul\":5581:5599   */\n      0x44\n      dup3\n      add\n        /* \"#utility.yul\":5574:5633   */\n      mstore\n        /* \"#utility.yul\":5650:5668   */\n      0x64\n      add\n        /* \"Auction.sol\":3339:3399  require(ethTransferSuccess, \"ETH transfer to seller failed\") */\n      tag_30\n        /* \"#utility.yul\":5321:5674   */\n      jump\n        /* \"Auction.sol\":3339:3399  require(ethTransferSuccess, \"ETH transfer to seller failed\") */\n    tag_66:\n        /* \"Auction.sol\":3457:3474  uint refundAmount */\n      0x00\n        /* \"Auction.sol\":3477:3499  msg.value - totalPrice */\n      tag_69\n        /* \"Auction.sol\":3489:3499  totalPrice */\n      dup5\n        /* \"Auction.sol\":3477:3486  msg.value */\n      callvalue\n        /* \"Auction.sol\":3477:3499  msg.value - totalPrice */\n      tag_51\n      jump\t// in\n    tag_69:\n        /* \"Auction.sol\":3457:3499  uint refundAmount = msg.value - totalPrice */\n      swap1\n      pop\n        /* \"Auction.sol\":3514:3530  refundAmount > 0 */\n      dup1\n      iszero\n        /* \"Auction.sol\":3510:3692  if (refundAmount > 0) {... */\n      tag_70\n      jumpi\n        /* \"Auction.sol\":3572:3612  msg.sender.call{value: refundAmount}(\"\") */\n      mload(0x40)\n        /* \"Auction.sol\":3548:3566  bool refundSuccess */\n      0x00\n      swap1\n        /* \"Auction.sol\":3572:3582  msg.sender */\n      caller\n      swap1\n        /* \"Auction.sol\":3595:3607  refundAmount */\n      dup4\n      swap1\n        /* \"Auction.sol\":3548:3566  bool refundSuccess */\n      dup4\n        /* \"Auction.sol\":3572:3612  msg.sender.call{value: refundAmount}(\"\") */\n      dup2\n        /* \"Auction.sol\":3548:3566  bool refundSuccess */\n      dup2\n        /* \"Auction.sol\":3572:3612  msg.sender.call{value: refundAmount}(\"\") */\n      dup2\n        /* \"Auction.sol\":3595:3607  refundAmount */\n      dup6\n        /* \"Auction.sol\":3572:3582  msg.sender */\n      dup8\n        /* \"Auction.sol\":3572:3612  msg.sender.call{value: refundAmount}(\"\") */\n      gas\n      call\n      swap3\n      pop\n      pop\n      pop\n      returndatasize\n      dup1\n      0x00\n      dup2\n      eq\n      tag_74\n      jumpi\n      mload(0x40)\n      swap2\n      pop\n      and(add(returndatasize, 0x3f), not(0x1f))\n      dup3\n      add\n      0x40\n      mstore\n      returndatasize\n      dup3\n      mstore\n      returndatasize\n      0x00\n      0x20\n      dup5\n      add\n      returndatacopy\n      jump(tag_73)\n    tag_74:\n      0x60\n      swap2\n      pop\n    tag_73:\n      pop\n        /* \"Auction.sol\":3547:3612  (bool refundSuccess, ) = msg.sender.call{value: refundAmount}(\"\") */\n      pop\n      swap1\n      pop\n        /* \"Auction.sol\":3635:3648  refundSuccess */\n      dup1\n        /* \"Auction.sol\":3627:3680  require(refundSuccess, \"Failed to refund excess ETH\") */\n      tag_75\n      jumpi\n      mload(0x40)\n      shl(0xe5, 0x461bcd)\n      dup2\n      mstore\n        /* \"#utility.yul\":5881:5883   */\n      0x20\n        /* \"Auction.sol\":3627:3680  require(refundSuccess, \"Failed to refund excess ETH\") */\n      0x04\n      dup3\n      add\n        /* \"#utility.yul\":5863:5884   */\n      mstore\n        /* \"#utility.yul\":5920:5922   */\n      0x1b\n        /* \"#utility.yul\":5900:5918   */\n      0x24\n      dup3\n      add\n        /* \"#utility.yul\":5893:5923   */\n      mstore\n        /* \"#utility.yul\":5959:5988   */\n      0x4661696c656420746f20726566756e6420657863657373204554480000000000\n        /* \"#utility.yul\":5939:5957   */\n      0x44\n      dup3\n      add\n        /* \"#utility.yul\":5932:5989   */\n      mstore\n        /* \"#utility.yul\":6006:6024   */\n      0x64\n      add\n        /* \"Auction.sol\":3627:3680  require(refundSuccess, \"Failed to refund excess ETH\") */\n      tag_30\n        /* \"#utility.yul\":5679:6030   */\n      jump\n        /* \"Auction.sol\":3627:3680  require(refundSuccess, \"Failed to refund excess ETH\") */\n    tag_75:\n        /* \"Auction.sol\":3532:3692  {... */\n      pop\n        /* \"Auction.sol\":3510:3692  if (refundAmount > 0) {... */\n    tag_70:\n        /* \"Auction.sol\":3717:3780  TokensPurchased(listingId, msg.sender, tokenAmount, totalPrice) */\n      0x40\n      dup1\n      mload\n        /* \"#utility.yul\":6209:6234   */\n      dup8\n      dup2\n      mstore\n        /* \"#utility.yul\":6265:6267   */\n      0x20\n        /* \"#utility.yul\":6250:6268   */\n      dup2\n      add\n        /* \"#utility.yul\":6243:6277   */\n      dup7\n      swap1\n      mstore\n        /* \"Auction.sol\":3744:3754  msg.sender */\n      caller\n      swap2\n        /* \"Auction.sol\":3733:3742  listingId */\n      dup10\n      swap2\n        /* \"Auction.sol\":3717:3780  TokensPurchased(listingId, msg.sender, tokenAmount, totalPrice) */\n      0xe8d7e55108ae7ddb60173461d2950c7a8e22a7ac7f442825564fe84c8c6f9a38\n      swap2\n        /* \"#utility.yul\":6182:6200   */\n      add\n        /* \"Auction.sol\":3717:3780  TokensPurchased(listingId, msg.sender, tokenAmount, totalPrice) */\n      mload(0x40)\n      dup1\n      swap2\n      sub\n      swap1\n      log3\n        /* \"Auction.sol\":2326:3788  {... */\n      pop\n      pop\n      pop\n      pop\n      pop\n        /* \"Auction.sol\":2256:3788  function buyTokens(uint listingId, uint tokenAmount) external payable {... */\n      pop\n      pop\n      jump\t// out\n        /* \"Auction.sol\":911:936  Listing[] public listings */\n    tag_19:\n      0x00\n      dup2\n      dup2\n      sload\n      dup2\n      lt\n      tag_81\n      jumpi\n      0x00\n      dup1\n      revert\n    tag_81:\n      0x00\n      swap2\n      dup3\n      mstore\n      0x20\n      swap1\n      swap2\n      keccak256\n      0x05\n      swap1\n      swap2\n      mul\n      add\n      dup1\n      sload\n      0x01\n      dup3\n      add\n      sload\n      0x02\n      dup4\n      add\n      sload\n      0x03\n      dup5\n      add\n      sload\n      0x04\n      swap1\n      swap5\n      add\n      sload\n      sub(shl(0xa0, 0x01), 0x01)\n      swap4\n      dup5\n      and\n      swap6\n      pop\n      swap2\n      swap1\n      swap3\n      and\n      swap3\n      swap1\n      dup6\n      jump\t// out\n        /* \"Auction.sol\":1202:2245  function listTokens(IERC20 token, uint totalAmount, uint pricePerToken) public returns (uint) {... */\n    tag_26:\n        /* \"Auction.sol\":1290:1294  uint */\n      0x00\n      sub(shl(0xa0, 0x01), 0x01)\n        /* \"Auction.sol\":1315:1343  address(token) != address(0) */\n      dup5\n      and\n        /* \"Auction.sol\":1307:1369  require(address(token) != address(0), \"Invalid token address\") */\n      tag_84\n      jumpi\n      mload(0x40)\n      shl(0xe5, 0x461bcd)\n      dup2\n      mstore\n        /* \"#utility.yul\":6490:6492   */\n      0x20\n        /* \"Auction.sol\":1307:1369  require(address(token) != address(0), \"Invalid token address\") */\n      0x04\n      dup3\n      add\n        /* \"#utility.yul\":6472:6493   */\n      mstore\n        /* \"#utility.yul\":6529:6531   */\n      0x15\n        /* \"#utility.yul\":6509:6527   */\n      0x24\n      dup3\n      add\n        /* \"#utility.yul\":6502:6532   */\n      mstore\n      shl(0x58, 0x496e76616c696420746f6b656e2061646472657373)\n        /* \"#utility.yul\":6548:6566   */\n      0x44\n      dup3\n      add\n        /* \"#utility.yul\":6541:6592   */\n      mstore\n        /* \"#utility.yul\":6609:6627   */\n      0x64\n      add\n        /* \"Auction.sol\":1307:1369  require(address(token) != address(0), \"Invalid token address\") */\n      tag_30\n        /* \"#utility.yul\":6288:6633   */\n      jump\n        /* \"Auction.sol\":1307:1369  require(address(token) != address(0), \"Invalid token address\") */\n    tag_84:\n        /* \"Auction.sol\":1402:1403  0 */\n      0x00\n        /* \"Auction.sol\":1388:1399  totalAmount */\n      dup4\n        /* \"Auction.sol\":1388:1403  totalAmount > 0 */\n      gt\n        /* \"Auction.sol\":1380:1440  require(totalAmount > 0, \"Amount must be greater than zero\") */\n      tag_87\n      jumpi\n      mload(0x40)\n      shl(0xe5, 0x461bcd)\n      dup2\n      mstore\n        /* \"#utility.yul\":2888:2890   */\n      0x20\n        /* \"Auction.sol\":1380:1440  require(totalAmount > 0, \"Amount must be greater than zero\") */\n      0x04\n      dup3\n      add\n        /* \"#utility.yul\":2870:2891   */\n      dup2\n      swap1\n      mstore\n        /* \"#utility.yul\":2907:2925   */\n      0x24\n      dup3\n      add\n        /* \"#utility.yul\":2900:2930   */\n      mstore\n        /* \"#utility.yul\":2966:3000   */\n      0x416d6f756e74206d7573742062652067726561746572207468616e207a65726f\n        /* \"#utility.yul\":2946:2964   */\n      0x44\n      dup3\n      add\n        /* \"#utility.yul\":2939:3001   */\n      mstore\n        /* \"#utility.yul\":3018:3036   */\n      0x64\n      add\n        /* \"Auction.sol\":1380:1440  require(totalAmount > 0, \"Amount must be greater than zero\") */\n      tag_30\n        /* \"#utility.yul\":2686:3042   */\n      jump\n        /* \"Auction.sol\":1380:1440  require(totalAmount > 0, \"Amount must be greater than zero\") */\n    tag_87:\n        /* \"Auction.sol\":1475:1476  0 */\n      0x00\n        /* \"Auction.sol\":1459:1472  pricePerToken */\n      dup3\n        /* \"Auction.sol\":1459:1476  pricePerToken > 0 */\n      gt\n        /* \"Auction.sol\":1451:1512  require(pricePerToken > 0, \"Price must be greater than zero\") */\n      tag_89\n      jumpi\n      mload(0x40)\n      shl(0xe5, 0x461bcd)\n      dup2\n      mstore\n        /* \"#utility.yul\":6840:6842   */\n      0x20\n        /* \"Auction.sol\":1451:1512  require(pricePerToken > 0, \"Price must be greater than zero\") */\n      0x04\n      dup3\n      add\n        /* \"#utility.yul\":6822:6843   */\n      mstore\n        /* \"#utility.yul\":6879:6881   */\n      0x1f\n        /* \"#utility.yul\":6859:6877   */\n      0x24\n      dup3\n      add\n        /* \"#utility.yul\":6852:6882   */\n      mstore\n        /* \"#utility.yul\":6918:6951   */\n      0x5072696365206d7573742062652067726561746572207468616e207a65726f00\n        /* \"#utility.yul\":6898:6916   */\n      0x44\n      dup3\n      add\n        /* \"#utility.yul\":6891:6952   */\n      mstore\n        /* \"#utility.yul\":6969:6987   */\n      0x64\n      add\n        /* \"Auction.sol\":1451:1512  require(pricePerToken > 0, \"Price must be greater than zero\") */\n      tag_30\n        /* \"#utility.yul\":6638:6993   */\n      jump\n        /* \"Auction.sol\":1451:1512  require(pricePerToken > 0, \"Price must be greater than zero\") */\n    tag_89:\n        /* \"Auction.sol\":1600:1658  token.transferFrom(msg.sender, address(this), totalAmount) */\n      mload(0x40)\n      shl(0xe0, 0x23b872dd)\n      dup2\n      mstore\n        /* \"Auction.sol\":1619:1629  msg.sender */\n      caller\n        /* \"Auction.sol\":1600:1658  token.transferFrom(msg.sender, address(this), totalAmount) */\n      0x04\n      dup3\n      add\n        /* \"#utility.yul\":7200:7251   */\n      mstore\n        /* \"Auction.sol\":1639:1643  this */\n      address\n        /* \"#utility.yul\":7267:7285   */\n      0x24\n      dup3\n      add\n        /* \"#utility.yul\":7260:7320   */\n      mstore\n        /* \"#utility.yul\":7336:7354   */\n      0x44\n      dup2\n      add\n        /* \"#utility.yul\":7329:7363   */\n      dup5\n      swap1\n      mstore\n        /* \"Auction.sol\":1585:1597  bool success */\n      0x00\n      swap1\n      sub(shl(0xa0, 0x01), 0x01)\n        /* \"Auction.sol\":1600:1618  token.transferFrom */\n      dup7\n      and\n      swap1\n      0x23b872dd\n      swap1\n        /* \"#utility.yul\":7173:7191   */\n      0x64\n      add\n        /* \"Auction.sol\":1600:1658  token.transferFrom(msg.sender, address(this), totalAmount) */\n      0x20\n      mload(0x40)\n      dup1\n      dup4\n      sub\n      dup2\n      0x00\n      dup8\n      gas\n      call\n      iszero\n      dup1\n      iszero\n      tag_95\n      jumpi\n      returndatacopy(0x00, 0x00, returndatasize)\n      revert(0x00, returndatasize)\n    tag_95:\n      pop\n      pop\n      pop\n      pop\n      mload(0x40)\n      returndatasize\n      not(0x1f)\n      0x1f\n      dup3\n      add\n      and\n      dup3\n      add\n      dup1\n      0x40\n      mstore\n      pop\n      dup2\n      add\n      swap1\n      tag_96\n      swap2\n      swap1\n      tag_57\n      jump\t// in\n    tag_96:\n        /* \"Auction.sol\":1585:1658  bool success = token.transferFrom(msg.sender, address(this), totalAmount) */\n      swap1\n      pop\n        /* \"Auction.sol\":1677:1684  success */\n      dup1\n        /* \"Auction.sol\":1669:1710  require(success, \"Token transfer failed\") */\n      tag_97\n      jumpi\n      mload(0x40)\n      shl(0xe5, 0x461bcd)\n      dup2\n      mstore\n        /* \"#utility.yul\":7576:7578   */\n      0x20\n        /* \"Auction.sol\":1669:1710  require(success, \"Token transfer failed\") */\n      0x04\n      dup3\n      add\n        /* \"#utility.yul\":7558:7579   */\n      mstore\n        /* \"#utility.yul\":7615:7617   */\n      0x15\n        /* \"#utility.yul\":7595:7613   */\n      0x24\n      dup3\n      add\n        /* \"#utility.yul\":7588:7618   */\n      mstore\n      shl(0x5a, 0x151bdad95b881d1c985b9cd9995c8819985a5b1959)\n        /* \"#utility.yul\":7634:7652   */\n      0x44\n      dup3\n      add\n        /* \"#utility.yul\":7627:7678   */\n      mstore\n        /* \"#utility.yul\":7695:7713   */\n      0x64\n      add\n        /* \"Auction.sol\":1669:1710  require(success, \"Token transfer failed\") */\n      tag_30\n        /* \"#utility.yul\":7374:7719   */\n      jump\n        /* \"Auction.sol\":1669:1710  require(success, \"Token transfer failed\") */\n    tag_97:\n        /* \"Auction.sol\":1762:1775  uint deadline */\n      0x00\n        /* \"Auction.sol\":1778:1802  block.timestamp + 7 days */\n      tag_100\n        /* \"Auction.sol\":1778:1793  block.timestamp */\n      timestamp\n        /* \"Auction.sol\":1796:1802  7 days */\n      0x093a80\n        /* \"Auction.sol\":1778:1802  block.timestamp + 7 days */\n      tag_101\n      jump\t// in\n    tag_100:\n        /* \"Auction.sol\":1838:2037  Listing({... */\n      0x40\n      dup1\n      mload\n      0xa0\n      dup2\n      add\n      dup3\n      mstore\n        /* \"Auction.sol\":1869:1879  msg.sender */\n      caller\n        /* \"Auction.sol\":1838:2037  Listing({... */\n      dup2\n      mstore\n      sub(shl(0xa0, 0x01), 0x01)\n      dup10\n      dup2\n      and\n      0x20\n      dup4\n      add\n      swap1\n      dup2\n      mstore\n      swap3\n      dup3\n      add\n      dup9\n      dup2\n      mstore\n      0x60\n      dup4\n      add\n      dup11\n      dup2\n      mstore\n      0x80\n      dup5\n      add\n      dup7\n      dup2\n      mstore\n        /* \"Auction.sol\":1824:1832  listings */\n      0x00\n        /* \"Auction.sol\":1824:2038  listings.push(Listing({... */\n      dup1\n      sload\n      0x01\n      dup2\n      dup2\n      add\n      dup4\n      sstore\n      dup3\n      dup1\n      mstore\n      swap7\n      mload\n      0x05\n      swap1\n      swap2\n      mul\n      0x290decd9548b62a8d60345a988386fc84ba6bc95484008f6362f93160ef3e563\n      dup2\n      add\n      dup1\n      sload\n      swap3\n      dup9\n      and\n      not(sub(shl(0xa0, 0x01), 0x01))\n      swap4\n      dup5\n      and\n      or\n      swap1\n      sstore\n      swap8\n      mload\n      0x290decd9548b62a8d60345a988386fc84ba6bc95484008f6362f93160ef3e564\n      dup10\n      add\n      dup1\n      sload\n      swap2\n      swap1\n      swap8\n      and\n      swap2\n      and\n      or\n      swap1\n      swap5\n      sstore\n      swap2\n      mload\n      0x290decd9548b62a8d60345a988386fc84ba6bc95484008f6362f93160ef3e565\n      dup7\n      add\n      sstore\n      mload\n      0x290decd9548b62a8d60345a988386fc84ba6bc95484008f6362f93160ef3e566\n      dup6\n      add\n      sstore\n      mload\n      0x290decd9548b62a8d60345a988386fc84ba6bc95484008f6362f93160ef3e567\n      swap1\n      swap4\n      add\n      swap3\n      swap1\n      swap3\n      sstore\n        /* \"Auction.sol\":2076:2091  listings.length */\n      dup2\n      sload\n        /* \"Auction.sol\":1762:1802  uint deadline = block.timestamp + 7 days */\n      swap3\n      swap4\n      pop\n        /* \"Auction.sol\":1824:1832  listings */\n      swap1\n      swap2\n        /* \"Auction.sol\":2076:2095  listings.length - 1 */\n      tag_103\n      swap2\n        /* \"Auction.sol\":1824:2038  listings.push(Listing({... */\n      swap1\n        /* \"Auction.sol\":2076:2095  listings.length - 1 */\n      tag_51\n      jump\t// in\n    tag_103:\n        /* \"Auction.sol\":2121:2200  TokensListed(listingId, msg.sender, address(token), totalAmount, pricePerToken) */\n      0x40\n      dup1\n      mload\n        /* \"#utility.yul\":6209:6234   */\n      dup9\n      dup2\n      mstore\n        /* \"#utility.yul\":6265:6267   */\n      0x20\n        /* \"#utility.yul\":6250:6268   */\n      dup2\n      add\n        /* \"#utility.yul\":6243:6277   */\n      dup9\n      swap1\n      mstore\n        /* \"Auction.sol\":2059:2095  uint listingId = listings.length - 1 */\n      swap2\n      swap3\n      pop\n      sub(shl(0xa0, 0x01), 0x01)\n        /* \"Auction.sol\":2121:2200  TokensListed(listingId, msg.sender, address(token), totalAmount, pricePerToken) */\n      dup10\n      and\n      swap2\n        /* \"Auction.sol\":2145:2155  msg.sender */\n      caller\n      swap2\n        /* \"Auction.sol\":2059:2095  uint listingId = listings.length - 1 */\n      dup5\n      swap2\n        /* \"Auction.sol\":2121:2200  TokensListed(listingId, msg.sender, address(token), totalAmount, pricePerToken) */\n      0x1d62f5f147e2745b349cd82f2cf5b08b999a42b13f5cb2fe0bd0b13a488ee25b\n      swap2\n        /* \"#utility.yul\":6182:6200   */\n      add\n        /* \"Auction.sol\":2121:2200  TokensListed(listingId, msg.sender, address(token), totalAmount, pricePerToken) */\n      mload(0x40)\n      dup1\n      swap2\n      sub\n      swap1\n      log4\n        /* \"Auction.sol\":2228:2237  listingId */\n      swap7\n        /* \"Auction.sol\":1202:2245  function listTokens(IERC20 token, uint totalAmount, uint pricePerToken) public returns (uint) {... */\n      swap6\n      pop\n      pop\n      pop\n      pop\n      pop\n      pop\n      jump\t// out\n        /* \"#utility.yul\":14:360   */\n    tag_8:\n        /* \"#utility.yul\":82:88   */\n      0x00\n        /* \"#utility.yul\":90:96   */\n      0x00\n        /* \"#utility.yul\":143:145   */\n      0x40\n        /* \"#utility.yul\":131:140   */\n      dup4\n        /* \"#utility.yul\":122:129   */\n      dup6\n        /* \"#utility.yul\":118:141   */\n      sub\n        /* \"#utility.yul\":114:146   */\n      slt\n        /* \"#utility.yul\":111:163   */\n      iszero\n      tag_108\n      jumpi\n        /* \"#utility.yul\":159:160   */\n      0x00\n        /* \"#utility.yul\":156:157   */\n      0x00\n        /* \"#utility.yul\":149:161   */\n      revert\n        /* \"#utility.yul\":111:163   */\n    tag_108:\n      pop\n      pop\n        /* \"#utility.yul\":204:227   */\n      dup1\n      calldataload\n      swap3\n        /* \"#utility.yul\":324:326   */\n      0x20\n        /* \"#utility.yul\":309:327   */\n      swap1\n      swap2\n      add\n        /* \"#utility.yul\":296:328   */\n      calldataload\n      swap2\n      pop\n        /* \"#utility.yul\":14:360   */\n      jump\t// out\n        /* \"#utility.yul\":547:773   */\n    tag_18:\n        /* \"#utility.yul\":606:612   */\n      0x00\n        /* \"#utility.yul\":659:661   */\n      0x20\n        /* \"#utility.yul\":647:656   */\n      dup3\n        /* \"#utility.yul\":638:645   */\n      dup5\n        /* \"#utility.yul\":634:657   */\n      sub\n        /* \"#utility.yul\":630:662   */\n      slt\n        /* \"#utility.yul\":627:679   */\n      iszero\n      tag_111\n      jumpi\n        /* \"#utility.yul\":675:676   */\n      0x00\n        /* \"#utility.yul\":672:673   */\n      0x00\n        /* \"#utility.yul\":665:677   */\n      revert\n        /* \"#utility.yul\":627:679   */\n    tag_111:\n      pop\n        /* \"#utility.yul\":720:743   */\n      calldataload\n      swap2\n        /* \"#utility.yul\":547:773   */\n      swap1\n      pop\n      jump\t// out\n        /* \"#utility.yul\":1311:1850   */\n    tag_25:\n        /* \"#utility.yul\":1401:1407   */\n      0x00\n        /* \"#utility.yul\":1409:1415   */\n      0x00\n        /* \"#utility.yul\":1417:1423   */\n      0x00\n        /* \"#utility.yul\":1470:1472   */\n      0x60\n        /* \"#utility.yul\":1458:1467   */\n      dup5\n        /* \"#utility.yul\":1449:1456   */\n      dup7\n        /* \"#utility.yul\":1445:1468   */\n      sub\n        /* \"#utility.yul\":1441:1473   */\n      slt\n        /* \"#utility.yul\":1438:1490   */\n      iszero\n      tag_114\n      jumpi\n        /* \"#utility.yul\":1486:1487   */\n      0x00\n        /* \"#utility.yul\":1483:1484   */\n      0x00\n        /* \"#utility.yul\":1476:1488   */\n      revert\n        /* \"#utility.yul\":1438:1490   */\n    tag_114:\n        /* \"#utility.yul\":1512:1535   */\n      dup4\n      calldataload\n      sub(shl(0xa0, 0x01), 0x01)\n        /* \"#utility.yul\":1564:1595   */\n      dup2\n      and\n        /* \"#utility.yul\":1554:1596   */\n      dup2\n      eq\n        /* \"#utility.yul\":1544:1614   */\n      tag_115\n      jumpi\n        /* \"#utility.yul\":1610:1611   */\n      0x00\n        /* \"#utility.yul\":1607:1608   */\n      0x00\n        /* \"#utility.yul\":1600:1612   */\n      revert\n        /* \"#utility.yul\":1544:1614   */\n    tag_115:\n        /* \"#utility.yul\":1633:1638   */\n      swap6\n        /* \"#utility.yul\":1711:1713   */\n      0x20\n        /* \"#utility.yul\":1696:1714   */\n      dup6\n      add\n        /* \"#utility.yul\":1683:1715   */\n      calldataload\n      swap6\n      pop\n        /* \"#utility.yul\":1814:1816   */\n      0x40\n        /* \"#utility.yul\":1799:1817   */\n      swap1\n      swap5\n      add\n        /* \"#utility.yul\":1786:1818   */\n      calldataload\n      swap4\n        /* \"#utility.yul\":1311:1850   */\n      swap3\n      pop\n      pop\n      pop\n      jump\t// out\n        /* \"#utility.yul\":2206:2333   */\n    tag_34:\n        /* \"#utility.yul\":2267:2277   */\n      0x4e487b71\n        /* \"#utility.yul\":2262:2265   */\n      0xe0\n        /* \"#utility.yul\":2258:2278   */\n      shl\n        /* \"#utility.yul\":2255:2256   */\n      0x00\n        /* \"#utility.yul\":2248:2279   */\n      mstore\n        /* \"#utility.yul\":2298:2302   */\n      0x32\n        /* \"#utility.yul\":2295:2296   */\n      0x04\n        /* \"#utility.yul\":2288:2303   */\n      mstore\n        /* \"#utility.yul\":2322:2326   */\n      0x24\n        /* \"#utility.yul\":2319:2320   */\n      0x00\n        /* \"#utility.yul\":2312:2327   */\n      revert\n        /* \"#utility.yul\":3403:3530   */\n    tag_105:\n        /* \"#utility.yul\":3464:3474   */\n      0x4e487b71\n        /* \"#utility.yul\":3459:3462   */\n      0xe0\n        /* \"#utility.yul\":3455:3475   */\n      shl\n        /* \"#utility.yul\":3452:3453   */\n      0x00\n        /* \"#utility.yul\":3445:3476   */\n      mstore\n        /* \"#utility.yul\":3495:3499   */\n      0x11\n        /* \"#utility.yul\":3492:3493   */\n      0x04\n        /* \"#utility.yul\":3485:3500   */\n      mstore\n        /* \"#utility.yul\":3519:3523   */\n      0x24\n        /* \"#utility.yul\":3516:3517   */\n      0x00\n        /* \"#utility.yul\":3509:3524   */\n      revert\n        /* \"#utility.yul\":3535:3703   */\n    tag_46:\n        /* \"#utility.yul\":3608:3617   */\n      dup1\n      dup3\n      mul\n        /* \"#utility.yul\":3639:3648   */\n      dup2\n      iszero\n        /* \"#utility.yul\":3656:3671   */\n      dup3\n      dup3\n      div\n        /* \"#utility.yul\":3650:3672   */\n      dup5\n      eq\n        /* \"#utility.yul\":3636:3673   */\n      or\n        /* \"#utility.yul\":3626:3697   */\n      tag_124\n      jumpi\n        /* \"#utility.yul\":3677:3695   */\n      tag_124\n      tag_105\n      jump\t// in\n    tag_124:\n        /* \"#utility.yul\":3535:3703   */\n      swap3\n      swap2\n      pop\n      pop\n      jump\t// out\n        /* \"#utility.yul\":4058:4186   */\n    tag_51:\n        /* \"#utility.yul\":4125:4134   */\n      dup2\n      dup2\n      sub\n        /* \"#utility.yul\":4146:4157   */\n      dup2\n      dup2\n      gt\n        /* \"#utility.yul\":4143:4180   */\n      iszero\n      tag_124\n      jumpi\n        /* \"#utility.yul\":4160:4178   */\n      tag_124\n      tag_105\n      jump\t// in\n        /* \"#utility.yul\":4470:4747   */\n    tag_57:\n        /* \"#utility.yul\":4537:4543   */\n      0x00\n        /* \"#utility.yul\":4590:4592   */\n      0x20\n        /* \"#utility.yul\":4578:4587   */\n      dup3\n        /* \"#utility.yul\":4569:4576   */\n      dup5\n        /* \"#utility.yul\":4565:4588   */\n      sub\n        /* \"#utility.yul\":4561:4593   */\n      slt\n        /* \"#utility.yul\":4558:4610   */\n      iszero\n      tag_131\n      jumpi\n        /* \"#utility.yul\":4606:4607   */\n      0x00\n        /* \"#utility.yul\":4603:4604   */\n      0x00\n        /* \"#utility.yul\":4596:4608   */\n      revert\n        /* \"#utility.yul\":4558:4610   */\n    tag_131:\n        /* \"#utility.yul\":4638:4647   */\n      dup2\n        /* \"#utility.yul\":4632:4648   */\n      mload\n        /* \"#utility.yul\":4691:4696   */\n      dup1\n        /* \"#utility.yul\":4684:4697   */\n      iszero\n        /* \"#utility.yul\":4677:4698   */\n      iszero\n        /* \"#utility.yul\":4670:4675   */\n      dup2\n        /* \"#utility.yul\":4667:4699   */\n      eq\n        /* \"#utility.yul\":4657:4717   */\n      tag_132\n      jumpi\n        /* \"#utility.yul\":4713:4714   */\n      0x00\n        /* \"#utility.yul\":4710:4711   */\n      0x00\n        /* \"#utility.yul\":4703:4715   */\n      revert\n        /* \"#utility.yul\":4657:4717   */\n    tag_132:\n        /* \"#utility.yul\":4736:4741   */\n      swap4\n        /* \"#utility.yul\":4470:4747   */\n      swap3\n      pop\n      pop\n      pop\n      jump\t// out\n        /* \"#utility.yul\":7724:7849   */\n    tag_101:\n        /* \"#utility.yul\":7789:7798   */\n      dup1\n      dup3\n      add\n        /* \"#utility.yul\":7810:7820   */\n      dup1\n      dup3\n      gt\n        /* \"#utility.yul\":7807:7843   */\n      iszero\n      tag_124\n      jumpi\n        /* \"#utility.yul\":7823:7841   */\n      tag_124\n      tag_105\n      jump\t// in\n\n    auxdata: 0xa2646970667358221220b38475712a459c2d93fb13ad681058fa1a1edd050f5e4f2643c6d9fe4becf89864736f6c634300081d0033\n}\n",
				"bytecode": {
					"linkReferences": {},
					"object": "6080604052348015600e575f5ffd5b506109d08061001c5f395ff3fe60806040526004361061003e575f3560e01c80637975ce281461004257806387ed92d714610057578063de74e57b14610079578063fa982ad1146100cb575b5f5ffd5b610055610050366004610895565b6100ea565b005b348015610062575f5ffd5b505f545b6040519081526020015b60405180910390f35b348015610084575f5ffd5b506100986100933660046108b5565b61050a565b604080516001600160a01b039687168152959094166020860152928401919091526060830152608082015260a001610070565b3480156100d6575f5ffd5b506100666100e53660046108cc565b610554565b5f5482106101385760405162461bcd60e51b8152602060048201526016602482015275131a5cdd1a5b99c8191bd95cc81b9bdd08195e1a5cdd60521b60448201526064015b60405180910390fd5b5f5f838154811061014b5761014b610909565b905f5260205f2090600502019050806004015442106101a25760405162461bcd60e51b8152602060048201526013602482015272131a5cdd1a5b99c81a185cc8195e1c1a5c9959606a1b604482015260640161012f565b5f82116101f15760405162461bcd60e51b815260206004820181905260248201527f416d6f756e74206d7573742062652067726561746572207468616e207a65726f604482015260640161012f565b80600301548211156102455760405162461bcd60e51b815260206004820152601b60248201527f4e6f7420656e6f75676820746f6b656e7320617661696c61626c650000000000604482015260640161012f565b5f8160020154836102569190610931565b9050803410156102a05760405162461bcd60e51b8152602060048201526015602482015274125b9cdd59999a58da595b9d08115512081cd95b9d605a1b604482015260640161012f565b82826003015f8282546102b3919061094e565b9091555050600182015460405163a9059cbb60e01b8152336004820152602481018590525f916001600160a01b03169063a9059cbb906044016020604051808303815f875af1158015610308573d5f5f3e3d5ffd5b505050506040513d601f19601f8201168201806040525081019061032c9190610961565b90508061037b5760405162461bcd60e51b815260206004820152601e60248201527f546f6b656e207472616e7366657220746f206275796572206661696c65640000604482015260640161012f565b82546040515f916001600160a01b03169084908381818185875af1925050503d805f81146103c4576040519150601f19603f3d011682016040523d82523d5f602084013e6103c9565b606091505b505090508061041a5760405162461bcd60e51b815260206004820152601d60248201527f455448207472616e7366657220746f2073656c6c6572206661696c6564000000604482015260640161012f565b5f610425843461094e565b905080156104c4576040515f90339083908381818185875af1925050503d805f811461046c576040519150601f19603f3d011682016040523d82523d5f602084013e610471565b606091505b50509050806104c25760405162461bcd60e51b815260206004820152601b60248201527f4661696c656420746f20726566756e6420657863657373204554480000000000604482015260640161012f565b505b6040805187815260208101869052339189917fe8d7e55108ae7ddb60173461d2950c7a8e22a7ac7f442825564fe84c8c6f9a38910160405180910390a350505050505050565b5f8181548110610518575f80fd5b5f918252602090912060059091020180546001820154600283015460038401546004909401546001600160a01b03938416955091909216929085565b5f6001600160a01b0384166105a35760405162461bcd60e51b8152602060048201526015602482015274496e76616c696420746f6b656e206164647265737360581b604482015260640161012f565b5f83116105f25760405162461bcd60e51b815260206004820181905260248201527f416d6f756e74206d7573742062652067726561746572207468616e207a65726f604482015260640161012f565b5f82116106415760405162461bcd60e51b815260206004820152601f60248201527f5072696365206d7573742062652067726561746572207468616e207a65726f00604482015260640161012f565b6040516323b872dd60e01b8152336004820152306024820152604481018490525f906001600160a01b038616906323b872dd906064016020604051808303815f875af1158015610693573d5f5f3e3d5ffd5b505050506040513d601f19601f820116820180604052508101906106b79190610961565b9050806106fe5760405162461bcd60e51b8152602060048201526015602482015274151bdad95b881d1c985b9cd9995c8819985a5b1959605a1b604482015260640161012f565b5f61070c4262093a80610987565b6040805160a0810182523381526001600160a01b0389811660208301908152928201888152606083018a8152608084018681525f805460018181018355828052965160059091027f290decd9548b62a8d60345a988386fc84ba6bc95484008f6362f93160ef3e563810180549288166001600160a01b031993841617905597517f290decd9548b62a8d60345a988386fc84ba6bc95484008f6362f93160ef3e564890180549190971691161790945591517f290decd9548b62a8d60345a988386fc84ba6bc95484008f6362f93160ef3e565860155517f290decd9548b62a8d60345a988386fc84ba6bc95484008f6362f93160ef3e566850155517f290decd9548b62a8d60345a988386fc84ba6bc95484008f6362f93160ef3e5679093019290925581549293509091610840919061094e565b60408051888152602081018890529192506001600160a01b03891691339184917f1d62f5f147e2745b349cd82f2cf5b08b999a42b13f5cb2fe0bd0b13a488ee25b910160405180910390a49695505050505050565b5f5f604083850312156108a6575f5ffd5b50508035926020909101359150565b5f602082840312156108c5575f5ffd5b5035919050565b5f5f5f606084860312156108de575f5ffd5b83356001600160a01b03811681146108f4575f5ffd5b95602085013595506040909401359392505050565b634e487b7160e01b5f52603260045260245ffd5b634e487b7160e01b5f52601160045260245ffd5b80820281158282048414176109485761094861091d565b92915050565b818103818111156109485761094861091d565b5f60208284031215610971575f5ffd5b81518015158114610980575f5ffd5b9392505050565b808201808211156109485761094861091d56fea2646970667358221220b38475712a459c2d93fb13ad681058fa1a1edd050f5e4f2643c6d9fe4becf89864736f6c634300081d0033",
					"opcodes": "PUSH1 0x80 PUSH1 0x40 MSTORE CALLVALUE DUP1 ISZERO PUSH1 0xE JUMPI PUSH0 PUSH0 REVERT JUMPDEST POP PUSH2 0x9D0 DUP1 PUSH2 0x1C PUSH0 CODECOPY PUSH0 RETURN INVALID PUSH1 0x80 PUSH1 0x40 MSTORE PUSH1 0x4 CALLDATASIZE LT PUSH2 0x3E JUMPI PUSH0 CALLDATALOAD PUSH1 0xE0 SHR DUP1 PUSH4 0x7975CE28 EQ PUSH2 0x42 JUMPI DUP1 PUSH4 0x87ED92D7 EQ PUSH2 0x57 JUMPI DUP1 PUSH4 0xDE74E57B EQ PUSH2 0x79 JUMPI DUP1 PUSH4 0xFA982AD1 EQ PUSH2 0xCB JUMPI JUMPDEST PUSH0 PUSH0 REVERT JUMPDEST PUSH2 0x55 PUSH2 0x50 CALLDATASIZE PUSH1 0x4 PUSH2 0x895 JUMP JUMPDEST PUSH2 0xEA JUMP JUMPDEST STOP JUMPDEST CALLVALUE DUP1 ISZERO PUSH2 0x62 JUMPI PUSH0 PUSH0 REVERT JUMPDEST POP PUSH0 SLOAD JUMPDEST PUSH1 0x40 MLOAD SWAP1 DUP2 MSTORE PUSH1 0x20 ADD JUMPDEST PUSH1 0x40 MLOAD DUP1 SWAP2 SUB SWAP1 RETURN JUMPDEST CALLVALUE DUP1 ISZERO PUSH2 0x84 JUMPI PUSH0 PUSH0 REVERT JUMPDEST POP PUSH2 0x98 PUSH2 0x93 CALLDATASIZE PUSH1 0x4 PUSH2 0x8B5 JUMP JUMPDEST PUSH2 0x50A JUMP JUMPDEST PUSH1 0x40 DUP1 MLOAD PUSH1 0x1 PUSH1 0x1 PUSH1 0xA0 SHL SUB SWAP7 DUP8 AND DUP2 MSTORE SWAP6 SWAP1 SWAP5 AND PUSH1 0x20 DUP7 ADD MSTORE SWAP3 DUP5 ADD SWAP2 SWAP1 SWAP2 MSTORE PUSH1 0x60 DUP4 ADD MSTORE PUSH1 0x80 DUP3 ADD MSTORE PUSH1 0xA0 ADD PUSH2 0x70 JUMP JUMPDEST CALLVALUE DUP1 ISZERO PUSH2 0xD6 JUMPI PUSH0 PUSH0 REVERT JUMPDEST POP PUSH2 0x66 PUSH2 0xE5 CALLDATASIZE PUSH1 0x4 PUSH2 0x8CC JUMP JUMPDEST PUSH2 0x554 JUMP JUMPDEST PUSH0 SLOAD DUP3 LT PUSH2 0x138 JUMPI PUSH1 0x40 MLOAD PUSH3 0x461BCD PUSH1 0xE5 SHL DUP2 MSTORE PUSH1 0x20 PUSH1 0x4 DUP3 ADD MSTORE PUSH1 0x16 PUSH1 0x24 DUP3 ADD MSTORE PUSH22 0x131A5CDD1A5B99C8191BD95CC81B9BDD08195E1A5CDD PUSH1 0x52 SHL PUSH1 0x44 DUP3 ADD MSTORE PUSH1 0x64 ADD JUMPDEST PUSH1 0x40 MLOAD DUP1 SWAP2 SUB SWAP1 REVERT JUMPDEST PUSH0 PUSH0 DUP4 DUP2 SLOAD DUP2 LT PUSH2 0x14B JUMPI PUSH2 0x14B PUSH2 0x909 JUMP JUMPDEST SWAP1 PUSH0 MSTORE PUSH1 0x20 PUSH0 KECCAK256 SWAP1 PUSH1 0x5 MUL ADD SWAP1 POP DUP1 PUSH1 0x4 ADD SLOAD TIMESTAMP LT PUSH2 0x1A2 JUMPI PUSH1 0x40 MLOAD PUSH3 0x461BCD PUSH1 0xE5 SHL DUP2 MSTORE PUSH1 0x20 PUSH1 0x4 DUP3 ADD MSTORE PUSH1 0x13 PUSH1 0x24 DUP3 ADD MSTORE PUSH19 0x131A5CDD1A5B99C81A185CC8195E1C1A5C9959 PUSH1 0x6A SHL PUSH1 0x44 DUP3 ADD MSTORE PUSH1 0x64 ADD PUSH2 0x12F JUMP JUMPDEST PUSH0 DUP3 GT PUSH2 0x1F1 JUMPI PUSH1 0x40 MLOAD PUSH3 0x461BCD PUSH1 0xE5 SHL DUP2 MSTORE PUSH1 0x20 PUSH1 0x4 DUP3 ADD DUP2 SWAP1 MSTORE PUSH1 0x24 DUP3 ADD MSTORE PUSH32 0x416D6F756E74206D7573742062652067726561746572207468616E207A65726F PUSH1 0x44 DUP3 ADD MSTORE PUSH1 0x64 ADD PUSH2 0x12F JUMP JUMPDEST DUP1 PUSH1 0x3 ADD SLOAD DUP3 GT ISZERO PUSH2 0x245 JUMPI PUSH1 0x40 MLOAD PUSH3 0x461BCD PUSH1 0xE5 SHL DUP2 MSTORE PUSH1 0x20 PUSH1 0x4 DUP3 ADD MSTORE PUSH1 0x1B PUSH1 0x24 DUP3 ADD MSTORE PUSH32 0x4E6F7420656E6F75676820746F6B656E7320617661696C61626C650000000000 PUSH1 0x44 DUP3 ADD MSTORE PUSH1 0x64 ADD PUSH2 0x12F JUMP JUMPDEST PUSH0 DUP2 PUSH1 0x2 ADD SLOAD DUP4 PUSH2 0x256 SWAP2 SWAP1 PUSH2 0x931 JUMP JUMPDEST SWAP1 POP DUP1 CALLVALUE LT ISZERO PUSH2 0x2A0 JUMPI PUSH1 0x40 MLOAD PUSH3 0x461BCD PUSH1 0xE5 SHL DUP2 MSTORE PUSH1 0x20 PUSH1 0x4 DUP3 ADD MSTORE PUSH1 0x15 PUSH1 0x24 DUP3 ADD MSTORE PUSH21 0x125B9CDD59999A58DA595B9D08115512081CD95B9D PUSH1 0x5A SHL PUSH1 0x44 DUP3 ADD MSTORE PUSH1 0x64 ADD PUSH2 0x12F JUMP JUMPDEST DUP3 DUP3 PUSH1 0x3 ADD PUSH0 DUP3 DUP3 SLOAD PUSH2 0x2B3 SWAP2 SWAP1 PUSH2 0x94E JUMP JUMPDEST SWAP1 SWAP2 SSTORE POP POP PUSH1 0x1 DUP3 ADD SLOAD PUSH1 0x40 MLOAD PUSH4 0xA9059CBB PUSH1 0xE0 SHL DUP2 MSTORE CALLER PUSH1 0x4 DUP3 ADD MSTORE PUSH1 0x24 DUP2 ADD DUP6 SWAP1 MSTORE PUSH0 SWAP2 PUSH1 0x1 PUSH1 0x1 PUSH1 0xA0 SHL SUB AND SWAP1 PUSH4 0xA9059CBB SWAP1 PUSH1 0x44 ADD PUSH1 0x20 PUSH1 0x40 MLOAD DUP1 DUP4 SUB DUP2 PUSH0 DUP8 GAS CALL ISZERO DUP1 ISZERO PUSH2 0x308 JUMPI RETURNDATASIZE PUSH0 PUSH0 RETURNDATACOPY RETURNDATASIZE PUSH0 REVERT JUMPDEST POP POP POP POP PUSH1 0x40 MLOAD RETURNDATASIZE PUSH1 0x1F NOT PUSH1 0x1F DUP3 ADD AND DUP3 ADD DUP1 PUSH1 0x40 MSTORE POP DUP2 ADD SWAP1 PUSH2 0x32C SWAP2 SWAP1 PUSH2 0x961 JUMP JUMPDEST SWAP1 POP DUP1 PUSH2 0x37B JUMPI PUSH1 0x40 MLOAD PUSH3 0x461BCD PUSH1 0xE5 SHL DUP2 MSTORE PUSH1 0x20 PUSH1 0x4 DUP3 ADD MSTORE PUSH1 0x1E PUSH1 0x24 DUP3 ADD MSTORE PUSH32 0x546F6B656E207472616E7366657220746F206275796572206661696C65640000 PUSH1 0x44 DUP3 ADD MSTORE PUSH1 0x64 ADD PUSH2 0x12F JUMP JUMPDEST DUP3 SLOAD PUSH1 0x40 MLOAD PUSH0 SWAP2 PUSH1 0x1 PUSH1 0x1 PUSH1 0xA0 SHL SUB AND SWAP1 DUP5 SWAP1 DUP4 DUP2 DUP2 DUP2 DUP6 DUP8 GAS CALL SWAP3 POP POP POP RETURNDATASIZE DUP1 PUSH0 DUP2 EQ PUSH2 0x3C4 JUMPI PUSH1 0x40 MLOAD SWAP2 POP PUSH1 0x1F NOT PUSH1 0x3F RETURNDATASIZE ADD AND DUP3 ADD PUSH1 0x40 MSTORE RETURNDATASIZE DUP3 MSTORE RETURNDATASIZE PUSH0 PUSH1 0x20 DUP5 ADD RETURNDATACOPY PUSH2 0x3C9 JUMP JUMPDEST PUSH1 0x60 SWAP2 POP JUMPDEST POP POP SWAP1 POP DUP1 PUSH2 0x41A JUMPI PUSH1 0x40 MLOAD PUSH3 0x461BCD PUSH1 0xE5 SHL DUP2 MSTORE PUSH1 0x20 PUSH1 0x4 DUP3 ADD MSTORE PUSH1 0x1D PUSH1 0x24 DUP3 ADD MSTORE PUSH32 0x455448207472616E7366657220746F2073656C6C6572206661696C6564000000 PUSH1 0x44 DUP3 ADD MSTORE PUSH1 0x64 ADD PUSH2 0x12F JUMP JUMPDEST PUSH0 PUSH2 0x425 DUP5 CALLVALUE PUSH2 0x94E JUMP JUMPDEST SWAP1 POP DUP1 ISZERO PUSH2 0x4C4 JUMPI PUSH1 0x40 MLOAD PUSH0 SWAP1 CALLER SWAP1 DUP4 SWAP1 DUP4 DUP2 DUP2 DUP2 DUP6 DUP8 GAS CALL SWAP3 POP POP POP RETURNDATASIZE DUP1 PUSH0 DUP2 EQ PUSH2 0x46C JUMPI PUSH1 0x40 MLOAD SWAP2 POP PUSH1 0x1F NOT PUSH1 0x3F RETURNDATASIZE ADD AND DUP3 ADD PUSH1 0x40 MSTORE RETURNDATASIZE DUP3 MSTORE RETURNDATASIZE PUSH0 PUSH1 0x20 DUP5 ADD RETURNDATACOPY PUSH2 0x471 JUMP JUMPDEST PUSH1 0x60 SWAP2 POP JUMPDEST POP POP SWAP1 POP DUP1 PUSH2 0x4C2 JUMPI PUSH1 0x40 MLOAD PUSH3 0x461BCD PUSH1 0xE5 SHL DUP2 MSTORE PUSH1 0x20 PUSH1 0x4 DUP3 ADD MSTORE PUSH1 0x1B PUSH1 0x24 DUP3 ADD MSTORE PUSH32 0x4661696C656420746F20726566756E6420657863657373204554480000000000 PUSH1 0x44 DUP3 ADD MSTORE PUSH1 0x64 ADD PUSH2 0x12F JUMP JUMPDEST POP JUMPDEST PUSH1 0x40 DUP1 MLOAD DUP8 DUP2 MSTORE PUSH1 0x20 DUP2 ADD DUP7 SWAP1 MSTORE CALLER SWAP2 DUP10 SWAP2 PUSH32 0xE8D7E55108AE7DDB60173461D2950C7A8E22A7AC7F442825564FE84C8C6F9A38 SWAP2 ADD PUSH1 0x40 MLOAD DUP1 SWAP2 SUB SWAP1 LOG3 POP POP POP POP POP POP POP JUMP JUMPDEST PUSH0 DUP2 DUP2 SLOAD DUP2 LT PUSH2 0x518 JUMPI PUSH0 DUP1 REVERT JUMPDEST PUSH0 SWAP2 DUP3 MSTORE PUSH1 0x20 SWAP1 SWAP2 KECCAK256 PUSH1 0x5 SWAP1 SWAP2 MUL ADD DUP1 SLOAD PUSH1 0x1 DUP3 ADD SLOAD PUSH1 0x2 DUP4 ADD SLOAD PUSH1 0x3 DUP5 ADD SLOAD PUSH1 0x4 SWAP1 SWAP5 ADD SLOAD PUSH1 0x1 PUSH1 0x1 PUSH1 0xA0 SHL SUB SWAP4 DUP5 AND SWAP6 POP SWAP2 SWAP1 SWAP3 AND SWAP3 SWAP1 DUP6 JUMP JUMPDEST PUSH0 PUSH1 0x1 PUSH1 0x1 PUSH1 0xA0 SHL SUB DUP5 AND PUSH2 0x5A3 JUMPI PUSH1 0x40 MLOAD PUSH3 0x461BCD PUSH1 0xE5 SHL DUP2 MSTORE PUSH1 0x20 PUSH1 0x4 DUP3 ADD MSTORE PUSH1 0x15 PUSH1 0x24 DUP3 ADD MSTORE PUSH21 0x496E76616C696420746F6B656E2061646472657373 PUSH1 0x58 SHL PUSH1 0x44 DUP3 ADD MSTORE PUSH1 0x64 ADD PUSH2 0x12F JUMP JUMPDEST PUSH0 DUP4 GT PUSH2 0x5F2 JUMPI PUSH1 0x40 MLOAD PUSH3 0x461BCD PUSH1 0xE5 SHL DUP2 MSTORE PUSH1 0x20 PUSH1 0x4 DUP3 ADD DUP2 SWAP1 MSTORE PUSH1 0x24 DUP3 ADD MSTORE PUSH32 0x416D6F756E74206D7573742062652067726561746572207468616E207A65726F PUSH1 0x44 DUP3 ADD MSTORE PUSH1 0x64 ADD PUSH2 0x12F JUMP JUMPDEST PUSH0 DUP3 GT PUSH2 0x641 JUMPI PUSH1 0x40 MLOAD PUSH3 0x461BCD PUSH1 0xE5 SHL DUP2 MSTORE PUSH1 0x20 PUSH1 0x4 DUP3 ADD MSTORE PUSH1 0x1F PUSH1 0x24 DUP3 ADD MSTORE PUSH32 0x5072696365206D7573742062652067726561746572207468616E207A65726F00 PUSH1 0x44 DUP3 ADD MSTORE PUSH1 0x64 ADD PUSH2 0x12F JUMP JUMPDEST PUSH1 0x40 MLOAD PUSH4 0x23B872DD PUSH1 0xE0 SHL DUP2 MSTORE CALLER PUSH1 0x4 DUP3 ADD MSTORE ADDRESS PUSH1 0x24 DUP3 ADD MSTORE PUSH1 0x44 DUP2 ADD DUP5 SWAP1 MSTORE PUSH0 SWAP1 PUSH1 0x1 PUSH1 0x1 PUSH1 0xA0 SHL SUB DUP7 AND SWAP1 PUSH4 0x23B872DD SWAP1 PUSH1 0x64 ADD PUSH1 0x20 PUSH1 0x40 MLOAD DUP1 DUP4 SUB DUP2 PUSH0 DUP8 GAS CALL ISZERO DUP1 ISZERO PUSH2 0x693 JUMPI RETURNDATASIZE PUSH0 PUSH0 RETURNDATACOPY RETURNDATASIZE PUSH0 REVERT JUMPDEST POP POP POP POP PUSH1 0x40 MLOAD RETURNDATASIZE PUSH1 0x1F NOT PUSH1 0x1F DUP3 ADD AND DUP3 ADD DUP1 PUSH1 0x40 MSTORE POP DUP2 ADD SWAP1 PUSH2 0x6B7 SWAP2 SWAP1 PUSH2 0x961 JUMP JUMPDEST SWAP1 POP DUP1 PUSH2 0x6FE JUMPI PUSH1 0x40 MLOAD PUSH3 0x461BCD PUSH1 0xE5 SHL DUP2 MSTORE PUSH1 0x20 PUSH1 0x4 DUP3 ADD MSTORE PUSH1 0x15 PUSH1 0x24 DUP3 ADD MSTORE PUSH21 0x151BDAD95B881D1C985B9CD9995C8819985A5B1959 PUSH1 0x5A SHL PUSH1 0x44 DUP3 ADD MSTORE PUSH1 0x64 ADD PUSH2 0x12F JUMP JUMPDEST PUSH0 PUSH2 0x70C TIMESTAMP PUSH3 0x93A80 PUSH2 0x987 JUMP JUMPDEST PUSH1 0x40 DUP1 MLOAD PUSH1 0xA0 DUP2 ADD DUP3 MSTORE CALLER DUP2 MSTORE PUSH1 0x1 PUSH1 0x1 PUSH1 0xA0 SHL SUB DUP10 DUP2 AND PUSH1 0x20 DUP4 ADD SWAP1 DUP2 MSTORE SWAP3 DUP3 ADD DUP9 DUP2 MSTORE PUSH1 0x60 DUP4 ADD DUP11 DUP2 MSTORE PUSH1 0x80 DUP5 ADD DUP7 DUP2 MSTORE PUSH0 DUP1 SLOAD PUSH1 0x1 DUP2 DUP2 ADD DUP4 SSTORE DUP3 DUP1 MSTORE SWAP7 MLOAD PUSH1 0x5 SWAP1 SWAP2 MUL PUSH32 0x290DECD9548B62A8D60345A988386FC84BA6BC95484008F6362F93160EF3E563 DUP2 ADD DUP1 SLOAD SWAP3 DUP9 AND PUSH1 0x1 PUSH1 0x1 PUSH1 0xA0 SHL SUB NOT SWAP4 DUP5 AND OR SWAP1 SSTORE SWAP8 MLOAD PUSH32 0x290DECD9548B62A8D60345A988386FC84BA6BC95484008F6362F93160EF3E564 DUP10 ADD DUP1 SLOAD SWAP2 SWAP1 SWAP8 AND SWAP2 AND OR SWAP1 SWAP5 SSTORE SWAP2 MLOAD PUSH32 0x290DECD9548B62A8D60345A988386FC84BA6BC95484008F6362F93160EF3E565 DUP7 ADD SSTORE MLOAD PUSH32 0x290DECD9548B62A8D60345A988386FC84BA6BC95484008F6362F93160EF3E566 DUP6 ADD SSTORE MLOAD PUSH32 0x290DECD9548B62A8D60345A988386FC84BA6BC95484008F6362F93160EF3E567 SWAP1 SWAP4 ADD SWAP3 SWAP1 SWAP3 SSTORE DUP2 SLOAD SWAP3 SWAP4 POP SWAP1 SWAP2 PUSH2 0x840 SWAP2 SWAP1 PUSH2 0x94E JUMP JUMPDEST PUSH1 0x40 DUP1 MLOAD DUP9 DUP2 MSTORE PUSH1 0x20 DUP2 ADD DUP9 SWAP1 MSTORE SWAP2 SWAP3 POP PUSH1 0x1 PUSH1 0x1 PUSH1 0xA0 SHL SUB DUP10 AND SWAP2 CALLER SWAP2 DUP5 SWAP2 PUSH32 0x1D62F5F147E2745B349CD82F2CF5B08B999A42B13F5CB2FE0BD0B13A488EE25B SWAP2 ADD PUSH1 0x40 MLOAD DUP1 SWAP2 SUB SWAP1 LOG4 SWAP7 SWAP6 POP POP POP POP POP POP JUMP JUMPDEST PUSH0 PUSH0 PUSH1 0x40 DUP4 DUP6 SUB SLT ISZERO PUSH2 0x8A6 JUMPI PUSH0 PUSH0 REVERT JUMPDEST POP POP DUP1 CALLDATALOAD SWAP3 PUSH1 0x20 SWAP1 SWAP2 ADD CALLDATALOAD SWAP2 POP JUMP JUMPDEST PUSH0 PUSH1 0x20 DUP3 DUP5 SUB SLT ISZERO PUSH2 0x8C5 JUMPI PUSH0 PUSH0 REVERT JUMPDEST POP CALLDATALOAD SWAP2 SWAP1 POP JUMP JUMPDEST PUSH0 PUSH0 PUSH0 PUSH1 0x60 DUP5 DUP7 SUB SLT ISZERO PUSH2 0x8DE JUMPI PUSH0 PUSH0 REVERT JUMPDEST DUP4 CALLDATALOAD PUSH1 0x1 PUSH1 0x1 PUSH1 0xA0 SHL SUB DUP2 AND DUP2 EQ PUSH2 0x8F4 JUMPI PUSH0 PUSH0 REVERT JUMPDEST SWAP6 PUSH1 0x20 DUP6 ADD CALLDATALOAD SWAP6 POP PUSH1 0x40 SWAP1 SWAP5 ADD CALLDATALOAD SWAP4 SWAP3 POP POP POP JUMP JUMPDEST PUSH4 0x4E487B71 PUSH1 0xE0 SHL PUSH0 MSTORE PUSH1 0x32 PUSH1 0x4 MSTORE PUSH1 0x24 PUSH0 REVERT JUMPDEST PUSH4 0x4E487B71 PUSH1 0xE0 SHL PUSH0 MSTORE PUSH1 0x11 PUSH1 0x4 MSTORE PUSH1 0x24 PUSH0 REVERT JUMPDEST DUP1 DUP3 MUL DUP2 ISZERO DUP3 DUP3 DIV DUP5 EQ OR PUSH2 0x948 JUMPI PUSH2 0x948 PUSH2 0x91D JUMP JUMPDEST SWAP3 SWAP2 POP POP JUMP JUMPDEST DUP2 DUP2 SUB DUP2 DUP2 GT ISZERO PUSH2 0x948 JUMPI PUSH2 0x948 PUSH2 0x91D JUMP JUMPDEST PUSH0 PUSH1 0x20 DUP3 DUP5 SUB SLT ISZERO PUSH2 0x971 JUMPI PUSH0 PUSH0 REVERT JUMPDEST DUP2 MLOAD DUP1 ISZERO ISZERO DUP2 EQ PUSH2 0x980 JUMPI PUSH0 PUSH0 REVERT JUMPDEST SWAP4 SWAP3 POP POP POP JUMP JUMPDEST DUP1 DUP3 ADD DUP1 DUP3 GT ISZERO PUSH2 0x948 JUMPI PUSH2 0x948 PUSH2 0x91D JUMP INVALID LOG2 PUSH5 0x6970667358 0x22 SLT KECCAK256 0xB3 DUP5 PUSH22 0x712A459C2D93FB13AD681058FA1A1EDD050F5E4F2643 0xC6 0xD9 INVALID 0x4B EOFCREATE 0xF8 SWAP9 PUSH5 0x736F6C6343 STOP ADDMOD SAR STOP CALLER "
				},
				"gasEstimates": {
					"creation": {
						"codeDepositCost": "502400",
						"executionCost": "535",
						"totalCost": "502935"
					},
					"external": {
						"buyTokens(uint256,uint256)": "infinite",
						"getListingCount()": "2268",
						"listTokens(address,uint256,uint256)": "infinite",
						"listings(uint256)": "13196"
					}
				},
				"methodIdentifiers": {
					"buyTokens(uint256,uint256)": "7975ce28",
					"getListingCount()": "87ed92d7",
					"listTokens(address,uint256,uint256)": "fa982ad1",
					"listings(uint256)": "de74e57b"
				}
			},
			"storageLayout": {
				"storage": [
					{
						"astId": 45,
						"contract": "Auction.sol:ERC20Auction",
						"label": "listings",
						"offset": 0,
						"slot": "0",
						"type": "t_array(t_struct(Listing)41_storage)dyn_storage"
					}
				],
				"types": {
					"t_address": {
						"encoding": "inplace",
						"label": "address",
						"numberOfBytes": "20"
					},
					"t_array(t_struct(Listing)41_storage)dyn_storage": {
						"base": "t_struct(Listing)41_storage",
						"encoding": "dynamic_array",
						"label": "struct ERC20Auction.Listing[]",
						"numberOfBytes": "32"
					},
					"t_contract(IERC20)29": {
						"encoding": "inplace",
						"label": "contract IERC20",
						"numberOfBytes": "20"
					},
					"t_struct(Listing)41_storage": {
						"encoding": "inplace",
						"label": "struct ERC20Auction.Listing",
						"members": [
							{
								"astId": 31,
								"contract": "Auction.sol:ERC20Auction",
								"label": "seller",
								"offset": 0,
								"slot": "0",
								"type": "t_address"
							},
							{
								"astId": 34,
								"contract": "Auction.sol:ERC20Auction",
								"label": "token",
								"offset": 0,
								"slot": "1",
								"type": "t_contract(IERC20)29"
							},
							{
								"astId": 36,
								"contract": "Auction.sol:ERC20Auction",
								"label": "pricePerToken",
								"offset": 0,
								"slot": "2",
								"type": "t_uint256"
							},
							{
								"astId": 38,
								"contract": "Auction.sol:ERC20Auction",
								"label": "remainingAmount",
								"offset": 0,
								"slot": "3",
								"type": "t_uint256"
							},
							{
								"astId": 40,
								"contract": "Auction.sol:ERC20Auction",
								"label": "deadline",
								"offset": 0,
								"slot": "4",
								"type": "t_uint256"
							}
						],
						"numberOfBytes": "160"
					},
					"t_uint256": {
						"encoding": "inplace",
						"label": "uint256",
						"numberOfBytes": "32"
					}
				}
			},
			"userdoc": {
				"kind": "user",
				"methods": {},
				"version": 1
			}
		}
	}
}