{
	"CYBCC.sol": {
		"CYBCC": {
			"abi": [
				{
					"inputs": [],
					"stateMutability": "nonpayable",
					"type": "constructor"
				},
				{
					"inputs": [
						{
							"internalType": "address",
							"name": "spender",
							"type": "address"
						},
						{
							"internalType": "uint256",
							"name": "allowance",
							"type": "uint256"
						},
						{
							"internalType": "uint256",
							"name": "needed",
							"type": "uint256"
						}
					],
					"name": "ERC20InsufficientAllowance",
					"type": "error"
				},
				{
					"inputs": [
						{
							"internalType": "address",
							"name": "sender",
							"type": "address"
						},
						{
							"internalType": "uint256",
							"name": "balance",
							"type": "uint256"
						},
						{
							"internalType": "uint256",
							"name": "needed",
							"type": "uint256"
						}
					],
					"name": "ERC20InsufficientBalance",
					"type": "error"
				},
				{
					"inputs": [
						{
							"internalType": "address",
							"name": "approver",
							"type": "address"
						}
					],
					"name": "ERC20InvalidApprover",
					"type": "error"
				},
				{
					"inputs": [
						{
							"internalType": "address",
							"name": "receiver",
							"type": "address"
						}
					],
					"name": "ERC20InvalidReceiver",
					"type": "error"
				},
				{
					"inputs": [
						{
							"internalType": "address",
							"name": "sender",
							"type": "address"
						}
					],
					"name": "ERC20InvalidSender",
					"type": "error"
				},
				{
					"inputs": [
						{
							"internalType": "address",
							"name": "spender",
							"type": "address"
						}
					],
					"name": "ERC20InvalidSpender",
					"type": "error"
				},
				{
					"anonymous": false,
					"inputs": [
						{
							"indexed": true,
							"internalType": "address",
							"name": "owner",
							"type": "address"
						},
						{
							"indexed": true,
							"internalType": "address",
							"name": "spender",
							"type": "address"
						},
						{
							"indexed": false,
							"internalType": "uint256",
							"name": "value",
							"type": "uint256"
						}
					],
					"name": "Approval",
					"type": "event"
				},
				{
					"anonymous": false,
					"inputs": [
						{
							"indexed": true,
							"internalType": "address",
							"name": "from",
							"type": "address"
						},
						{
							"indexed": true,
							"internalType": "address",
							"name": "to",
							"type": "address"
						},
						{
							"indexed": false,
							"internalType": "uint256",
							"name": "value",
							"type": "uint256"
						}
					],
					"name": "Transfer",
					"type": "event"
				},
				{
					"inputs": [
						{
							"internalType": "address",
							"name": "owner",
							"type": "address"
						},
						{
							"internalType": "address",
							"name": "spender",
							"type": "address"
						}
					],
					"name": "allowance",
					"outputs": [
						{
							"internalType": "uint256",
							"name": "",
							"type": "uint256"
						}
					],
					"stateMutability": "view",
					"type": "function"
				},
				{
					"inputs": [
						{
							"internalType": "address",
							"name": "spender",
							"type": "address"
						},
						{
							"internalType": "uint256",
							"name": "value",
							"type": "uint256"
						}
					],
					"name": "approve",
					"outputs": [
						{
							"internalType": "bool",
							"name": "",
							"type": "bool"
						}
					],
					"stateMutability": "nonpayable",
					"type": "function"
				},
				{
					"inputs": [
						{
							"internalType": "address",
							"name": "sender",
							"type": "address"
						}
					],
					"name": "balanceOf",
					"outputs": [
						{
							"internalType": "uint256",
							"name": "",
							"type": "uint256"
						}
					],
					"stateMutability": "view",
					"type": "function"
				},
				{
					"inputs": [
						{
							"internalType": "address",
							"name": "newFeeAccount",
							"type": "address"
						}
					],
					"name": "changeDevelopmentAccount",
					"outputs": [],
					"stateMutability": "nonpayable",
					"type": "function"
				},
				{
					"inputs": [
						{
							"internalType": "address",
							"name": "newFeeAccount",
							"type": "address"
						}
					],
					"name": "changeMarketingAccount",
					"outputs": [],
					"stateMutability": "nonpayable",
					"type": "function"
				},
				{
					"inputs": [],
					"name": "decimals",
					"outputs": [
						{
							"internalType": "uint8",
							"name": "",
							"type": "uint8"
						}
					],
					"stateMutability": "view",
					"type": "function"
				},
				{
					"inputs": [
						{
							"internalType": "address",
							"name": "account",
							"type": "address"
						}
					],
					"name": "excludeAccountFromReward",
					"outputs": [],
					"stateMutability": "nonpayable",
					"type": "function"
				},
				{
					"inputs": [
						{
							"internalType": "address",
							"name": "account",
							"type": "address"
						}
					],
					"name": "excludeFromFee",
					"outputs": [],
					"stateMutability": "nonpayable",
					"type": "function"
				},
				{
					"inputs": [],
					"name": "getDevelopmentAccount",
					"outputs": [
						{
							"internalType": "address",
							"name": "",
							"type": "address"
						}
					],
					"stateMutability": "view",
					"type": "function"
				},
				{
					"inputs": [],
					"name": "getMarketingAccount",
					"outputs": [
						{
							"internalType": "address",
							"name": "",
							"type": "address"
						}
					],
					"stateMutability": "view",
					"type": "function"
				},
				{
					"inputs": [],
					"name": "getTaxFee",
					"outputs": [
						{
							"internalType": "uint256",
							"name": "",
							"type": "uint256"
						}
					],
					"stateMutability": "view",
					"type": "function"
				},
				{
					"inputs": [
						{
							"internalType": "address",
							"name": "account",
							"type": "address"
						}
					],
					"name": "includeAccountinReward",
					"outputs": [],
					"stateMutability": "nonpayable",
					"type": "function"
				},
				{
					"inputs": [
						{
							"internalType": "address",
							"name": "account",
							"type": "address"
						}
					],
					"name": "includeInFee",
					"outputs": [],
					"stateMutability": "nonpayable",
					"type": "function"
				},
				{
					"inputs": [
						{
							"internalType": "address",
							"name": "account",
							"type": "address"
						}
					],
					"name": "isExcluded",
					"outputs": [
						{
							"internalType": "bool",
							"name": "",
							"type": "bool"
						}
					],
					"stateMutability": "view",
					"type": "function"
				},
				{
					"inputs": [
						{
							"internalType": "address",
							"name": "account",
							"type": "address"
						}
					],
					"name": "isExcludedFromFee",
					"outputs": [
						{
							"internalType": "bool",
							"name": "",
							"type": "bool"
						}
					],
					"stateMutability": "view",
					"type": "function"
				},
				{
					"inputs": [],
					"name": "name",
					"outputs": [
						{
							"internalType": "string",
							"name": "",
							"type": "string"
						}
					],
					"stateMutability": "view",
					"type": "function"
				},
				{
					"inputs": [],
					"name": "owner",
					"outputs": [
						{
							"internalType": "address",
							"name": "",
							"type": "address"
						}
					],
					"stateMutability": "view",
					"type": "function"
				},
				{
					"inputs": [
						{
							"internalType": "uint256",
							"name": "tAmount",
							"type": "uint256"
						}
					],
					"name": "reflect",
					"outputs": [],
					"stateMutability": "nonpayable",
					"type": "function"
				},
				{
					"inputs": [],
					"name": "reflectionFee",
					"outputs": [
						{
							"internalType": "uint256",
							"name": "",
							"type": "uint256"
						}
					],
					"stateMutability": "view",
					"type": "function"
				},
				{
					"inputs": [
						{
							"internalType": "uint256",
							"name": "tAmount",
							"type": "uint256"
						},
						{
							"internalType": "bool",
							"name": "deductTransferFee",
							"type": "bool"
						}
					],
					"name": "reflectionFromToken",
					"outputs": [
						{
							"internalType": "uint256",
							"name": "",
							"type": "uint256"
						}
					],
					"stateMutability": "view",
					"type": "function"
				},
				{
					"inputs": [],
					"name": "symbol",
					"outputs": [
						{
							"internalType": "string",
							"name": "",
							"type": "string"
						}
					],
					"stateMutability": "view",
					"type": "function"
				},
				{
					"inputs": [],
					"name": "totalFeesRedistributed",
					"outputs": [
						{
							"internalType": "uint256",
							"name": "",
							"type": "uint256"
						}
					],
					"stateMutability": "view",
					"type": "function"
				},
				{
					"inputs": [],
					"name": "totalSupply",
					"outputs": [
						{
							"internalType": "uint256",
							"name": "",
							"type": "uint256"
						}
					],
					"stateMutability": "view",
					"type": "function"
				},
				{
					"inputs": [
						{
							"internalType": "address",
							"name": "to",
							"type": "address"
						},
						{
							"internalType": "uint256",
							"name": "value",
							"type": "uint256"
						}
					],
					"name": "transfer",
					"outputs": [
						{
							"internalType": "bool",
							"name": "",
							"type": "bool"
						}
					],
					"stateMutability": "nonpayable",
					"type": "function"
				},
				{
					"inputs": [
						{
							"internalType": "address",
							"name": "from",
							"type": "address"
						},
						{
							"internalType": "address",
							"name": "to",
							"type": "address"
						},
						{
							"internalType": "uint256",
							"name": "value",
							"type": "uint256"
						}
					],
					"name": "transferFrom",
					"outputs": [
						{
							"internalType": "bool",
							"name": "",
							"type": "bool"
						}
					],
					"stateMutability": "nonpayable",
					"type": "function"
				},
				{
					"stateMutability": "payable",
					"type": "receive"
				}
			],
			"devdoc": {
				"errors": {
					"ERC20InsufficientAllowance(address,uint256,uint256)": [
						{
							"details": "Indicates a failure with the `spender`’s `allowance`. Used in transfers.",
							"params": {
								"allowance": "Amount of tokens a `spender` is allowed to operate with.",
								"needed": "Minimum amount required to perform a transfer.",
								"spender": "Address that may be allowed to operate on tokens without being their owner."
							}
						}
					],
					"ERC20InsufficientBalance(address,uint256,uint256)": [
						{
							"details": "Indicates an error related to the current `balance` of a `sender`. Used in transfers.",
							"params": {
								"balance": "Current balance for the interacting account.",
								"needed": "Minimum amount required to perform a transfer.",
								"sender": "Address whose tokens are being transferred."
							}
						}
					],
					"ERC20InvalidApprover(address)": [
						{
							"details": "Indicates a failure with the `approver` of a token to be approved. Used in approvals.",
							"params": {
								"approver": "Address initiating an approval operation."
							}
						}
					],
					"ERC20InvalidReceiver(address)": [
						{
							"details": "Indicates a failure with the token `receiver`. Used in transfers.",
							"params": {
								"receiver": "Address to which tokens are being transferred."
							}
						}
					],
					"ERC20InvalidSender(address)": [
						{
							"details": "Indicates a failure with the token `sender`. Used in transfers.",
							"params": {
								"sender": "Address whose tokens are being transferred."
							}
						}
					],
					"ERC20InvalidSpender(address)": [
						{
							"details": "Indicates a failure with the `spender` to be approved. Used in approvals.",
							"params": {
								"spender": "Address that may be allowed to operate on tokens without being their owner."
							}
						}
					]
				},
				"events": {
					"Approval(address,address,uint256)": {
						"details": "Emitted when the allowance of a `spender` for an `owner` is set by a call to {approve}. `value` is the new allowance."
					},
					"Transfer(address,address,uint256)": {
						"details": "Emitted when `value` tokens are moved from one account (`from`) to another (`to`). Note that `value` may be zero."
					}
				},
				"kind": "dev",
				"methods": {
					"allowance(address,address)": {
						"details": "See {IERC20-allowance}."
					},
					"approve(address,uint256)": {
						"details": "See {IERC20-approve}. NOTE: If `value` is the maximum `uint256`, the allowance is not updated on `transferFrom`. This is semantically equivalent to an infinite approval. Requirements: - `spender` cannot be the zero address."
					},
					"decimals()": {
						"details": "Returns the number of decimals used to get its user representation. For example, if `decimals` equals `2`, a balance of `505` tokens should be displayed to a user as `5.05` (`505 / 10 ** 2`). Tokens usually opt for a value of 18, imitating the relationship between Ether and Wei. This is the default value returned by this function, unless it's overridden. NOTE: This information is only used for _display_ purposes: it in no way affects any of the arithmetic of the contract, including {IERC20-balanceOf} and {IERC20-transfer}."
					},
					"name()": {
						"details": "Returns the name of the token."
					},
					"symbol()": {
						"details": "Returns the symbol of the token, usually a shorter version of the name."
					},
					"totalSupply()": {
						"details": "See {IERC20-totalSupply}."
					},
					"transfer(address,uint256)": {
						"details": "See {IERC20-transfer}. Requirements: - `to` cannot be the zero address. - the caller must have a balance of at least `value`."
					},
					"transferFrom(address,address,uint256)": {
						"details": "See {IERC20-transferFrom}. Skips emitting an {Approval} event indicating an allowance update. This is not required by the ERC. See {xref-ERC20-_approve-address-address-uint256-bool-}[_approve]. NOTE: Does not update the allowance if the current allowance is the maximum `uint256`. Requirements: - `from` and `to` cannot be the zero address. - `from` must have a balance of at least `value`. - the caller must have allowance for ``from``'s tokens of at least `value`."
					}
				},
				"version": 1
			},
			"evm": {
				"assembly": "    /* \"CYBCC.sol\":133:13272  contract CYBCC is ERC20 {... */\n  mstore(0x40, 0x80)\n    /* \"CYBCC.sol\":441:476  address private _owner = msg.sender */\n  0x0a\n  dup1\n  sload\n  0x0100\n    /* \"CYBCC.sol\":466:476  msg.sender */\n  caller\n    /* \"CYBCC.sol\":441:476  address private _owner = msg.sender */\n  mul\n  not(sub(shl(0xa8, 0x01), 0x0100))\n  dup3\n  and\n  dup2\n  or\n  dup4\n  sstore\n  0x00\n    /* \"CYBCC.sol\":592:622  uint256 private _tFeeTotal = 0 */\n  0x0d\n  sstore\n    /* \"CYBCC.sol\":911:933  10**uint256(_decimals) */\n  tag_1\n  swap3\n    /* \"CYBCC.sol\":923:932  _decimals */\n  0xff\n  swap2\n  dup3\n  and\n  swap2\n  swap1\n  swap3\n  and\n  or\n  swap1\n    /* \"CYBCC.sol\":911:933  10**uint256(_decimals) */\n  tag_2\n  jump\t// in\ntag_1:\n    /* \"CYBCC.sol\":900:933  10000000 * 10**uint256(_decimals) */\n  tag_3\n  swap1\n    /* \"CYBCC.sol\":900:908  10000000 */\n  0x989680\n    /* \"CYBCC.sol\":900:933  10000000 * 10**uint256(_decimals) */\n  tag_4\n  jump\t// in\ntag_3:\n    /* \"CYBCC.sol\":869:933  uint private maxWalletAmount = 10000000 * 10**uint256(_decimals) */\n  0x14\n  sstore\n    /* \"CYBCC.sol\":942:1648  constructor() ERC20(\"CYBERCATSCOIN\", \"CYBCC\") {... */\n  callvalue\n  dup1\n  iszero\n  tag_5\n  jumpi\n  revert(0x00, 0x00)\ntag_5:\n  pop\n    /* \"@openzeppelin/contracts/token/ERC20/ERC20.sol\":1582:1695  constructor(string memory name_, string memory symbol_) {... */\n  mload(0x40)\n  dup1\n  0x40\n  add\n  0x40\n  mstore\n  dup1\n  0x0d\n  dup2\n  mstore\n  0x20\n  add\n  shl(0x99, 0x21aca122a921a0aa29a1a7a4a7)\n  dup2\n  mstore\n  pop\n  mload(0x40)\n  dup1\n  0x40\n  add\n  0x40\n  mstore\n  dup1\n  0x05\n  dup2\n  mstore\n  0x20\n  add\n  shl(0xd8, 0x4359424343)\n  dup2\n  mstore\n  pop\n    /* \"@openzeppelin/contracts/token/ERC20/ERC20.sol\":1656:1661  name_ */\n  dup2\n    /* \"@openzeppelin/contracts/token/ERC20/ERC20.sol\":1648:1653  _name */\n  0x03\n    /* \"@openzeppelin/contracts/token/ERC20/ERC20.sol\":1648:1661  _name = name_ */\n  swap1\n  dup2\n  tag_9\n  swap2\n  swap1\n  tag_10\n  jump\t// in\ntag_9:\n  pop\n    /* \"@openzeppelin/contracts/token/ERC20/ERC20.sol\":1671:1678  _symbol */\n  0x04\n    /* \"@openzeppelin/contracts/token/ERC20/ERC20.sol\":1671:1688  _symbol = symbol_ */\n  tag_11\n    /* \"@openzeppelin/contracts/token/ERC20/ERC20.sol\":1681:1688  symbol_ */\n  dup3\n    /* \"@openzeppelin/contracts/token/ERC20/ERC20.sol\":1671:1678  _symbol */\n  dup3\n    /* \"@openzeppelin/contracts/token/ERC20/ERC20.sol\":1671:1688  _symbol = symbol_ */\n  tag_10\n  jump\t// in\ntag_11:\n  pop\n  pop\n    /* \"CYBCC.sol\":999:1008  _decimals */\n  0x0a\n    /* \"CYBCC.sol\":999:1013  _decimals = 18 */\n  dup1\n  sload\n  not(0xff)\n  and\n    /* \"CYBCC.sol\":1011:1013  18 */\n  0x12\n    /* \"CYBCC.sol\":999:1013  _decimals = 18 */\n  swap1\n  dup2\n  or\n  dup3\n  sstore\n    /* \"CYBCC.sol\":1047:1069  10**uint256(_decimals) */\n  tag_13\n  swap3\n  pop\n    /* \"CYBCC.sol\":1011:1013  18 */\n  swap1\n    /* \"CYBCC.sol\":1047:1069  10**uint256(_decimals) */\n  tag_2\n  jump\t// in\ntag_13:\n    /* \"CYBCC.sol\":1034:1069  1000000000 * 10**uint256(_decimals) */\n  tag_14\n  swap1\n    /* \"CYBCC.sol\":1034:1044  1000000000 */\n  0x3b9aca00\n    /* \"CYBCC.sol\":1034:1069  1000000000 * 10**uint256(_decimals) */\n  tag_4\n  jump\t// in\ntag_14:\n    /* \"CYBCC.sol\":1024:1031  _tTotal */\n  0x0b\n    /* \"CYBCC.sol\":1024:1069  _tTotal = 1000000000 * 10**uint256(_decimals) */\n  dup2\n  swap1\n  sstore\n    /* \"CYBCC.sol\":1098:1111  MAX % _tTotal */\n  tag_15\n  swap1\n  not(0x00)\n  tag_16\n  jump\t// in\ntag_15:\n    /* \"CYBCC.sol\":1091:1112  MAX - (MAX % _tTotal) */\n  tag_17\n  swap1\n  not(0x00)\n  tag_18\n  jump\t// in\ntag_17:\n    /* \"CYBCC.sol\":1080:1087  _rTotal */\n  0x0c\n    /* \"CYBCC.sol\":1080:1113  _rTotal = (MAX - (MAX % _tTotal)) */\n  swap1\n  dup2\n  sstore\n    /* \"CYBCC.sol\":1143:1144  2 */\n  0x02\n    /* \"CYBCC.sol\":1126:1140  _reflectionFee */\n  0x0e\n    /* \"CYBCC.sol\":1126:1144  _reflectionFee = 2 */\n  dup2\n  swap1\n  sstore\n    /* \"CYBCC.sol\":1155:1177  _previousReflectionFee */\n  0x0f\n    /* \"CYBCC.sol\":1155:1194  _previousReflectionFee = _reflectionFee */\n  dup2\n  swap1\n  sstore\n    /* \"CYBCC.sol\":1207:1214  _taxFee */\n  0x10\n    /* \"CYBCC.sol\":1207:1218  _taxFee = 2 */\n  dup2\n  swap1\n  sstore\n    /* \"CYBCC.sol\":1229:1244  _previousTaxFee */\n  0x11\n    /* \"CYBCC.sol\":1229:1254  _previousTaxFee = _taxFee */\n  sstore\n    /* \"CYBCC.sol\":1287:1293  _owner */\n  0x0a\n  dup1\n  sload\n    /* \"CYBCC.sol\":1267:1284  _marketingAccount */\n  0x12\n    /* \"CYBCC.sol\":1267:1293  _marketingAccount = _owner */\n  dup1\n  sload\n  not(sub(shl(0xa0, 0x01), 0x01))\n  and\n  sub(shl(0xa0, 0x01), 0x01)\n    /* \"CYBCC.sol\":1287:1293  _owner */\n  0x0100\n  swap4\n  dup5\n  swap1\n  div\n  dup2\n  and\n    /* \"CYBCC.sol\":1267:1293  _marketingAccount = _owner */\n  swap2\n  dup3\n  or\n  dup4\n  sstore\n  0x00\n    /* \"CYBCC.sol\":1370:1397  _isExcludedFromFee[owner()] */\n  swap2\n  dup3\n  mstore\n    /* \"CYBCC.sol\":1370:1388  _isExcludedFromFee */\n  0x07\n    /* \"CYBCC.sol\":1370:1397  _isExcludedFromFee[owner()] */\n  0x20\n  swap1\n  dup2\n  mstore\n  0x40\n  dup1\n  dup5\n  keccak256\n    /* \"CYBCC.sol\":1370:1404  _isExcludedFromFee[owner()] = true */\n  dup1\n  sload\n  not(0xff)\n  swap1\n  dup2\n  and\n  0x01\n  swap1\n  dup2\n  or\n  swap1\n  swap3\n  sstore\n    /* \"CYBCC.sol\":1434:1451  _marketingAccount */\n  swap6\n  sload\n  dup5\n  and\n    /* \"CYBCC.sol\":1415:1452  _isExcludedFromFee[_marketingAccount] */\n  dup6\n  mstore\n  dup2\n  dup6\n  keccak256\n    /* \"CYBCC.sol\":1415:1459  _isExcludedFromFee[_marketingAccount] = true */\n  dup1\n  sload\n  dup8\n  and\n  dup3\n  or\n  swap1\n  sstore\n    /* \"CYBCC.sol\":1489:1508  _developmentAccount */\n  sload(0x13)\n  dup5\n  and\n    /* \"CYBCC.sol\":1470:1509  _isExcludedFromFee[_developmentAccount] */\n  dup6\n  mstore\n  dup2\n  dup6\n  keccak256\n    /* \"CYBCC.sol\":1470:1516  _isExcludedFromFee[_developmentAccount] = true */\n  dup1\n  sload\n  dup8\n  and\n  dup3\n  or\n  swap1\n  sstore\n    /* \"CYBCC.sol\":1554:1558  this */\n  address\n    /* \"CYBCC.sol\":1527:1560  _isExcludedFromFee[address(this)] */\n  dup6\n  mstore\n  dup2\n  dup6\n  keccak256\n    /* \"CYBCC.sol\":1527:1567  _isExcludedFromFee[address(this)] = true */\n  dup1\n  sload\n  swap1\n  swap7\n  and\n  or\n  swap1\n  swap5\n  sstore\n    /* \"CYBCC.sol\":1596:1603  _rTotal */\n  swap6\n  sload\n    /* \"CYBCC.sol\":1586:1592  _owner */\n  swap5\n  sload\n  swap4\n  swap1\n  swap4\n  div\n  swap1\n  swap3\n  and\n    /* \"CYBCC.sol\":1578:1593  _rOwned[_owner] */\n  dup3\n  mstore\n    /* \"CYBCC.sol\":1578:1585  _rOwned */\n  0x05\n    /* \"CYBCC.sol\":1578:1593  _rOwned[_owner] */\n  swap1\n  swap4\n  mstore\n  swap2\n  swap1\n  swap2\n  keccak256\n    /* \"CYBCC.sol\":1578:1603  _rOwned[_owner] = _rTotal */\n  dup2\n  swap1\n  sstore\n    /* \"CYBCC.sol\":1614:1640  _mint(msg.sender, _rTotal) */\n  tag_21\n  swap1\n    /* \"CYBCC.sol\":1620:1630  msg.sender */\n  caller\n  swap1\n    /* \"CYBCC.sol\":1614:1619  _mint */\n  tag_22\n    /* \"CYBCC.sol\":1614:1640  _mint(msg.sender, _rTotal) */\n  jump\t// in\ntag_21:\n    /* \"CYBCC.sol\":133:13272  contract CYBCC is ERC20 {... */\n  jump(tag_51)\n    /* \"@openzeppelin/contracts/token/ERC20/ERC20.sol\":7447:7655  function _mint(address account, uint256 value) internal {... */\ntag_22:\n  sub(shl(0xa0, 0x01), 0x01)\n    /* \"@openzeppelin/contracts/token/ERC20/ERC20.sol\":7517:7538  account == address(0) */\n  dup3\n  and\n    /* \"@openzeppelin/contracts/token/ERC20/ERC20.sol\":7513:7604  if (account == address(0)) {... */\n  tag_26\n  jumpi\n    /* \"@openzeppelin/contracts/token/ERC20/ERC20.sol\":7561:7593  ERC20InvalidReceiver(address(0)) */\n  mload(0x40)\n  shl(0xe0, 0xec442f05)\n  dup2\n  mstore\n    /* \"@openzeppelin/contracts/token/ERC20/ERC20.sol\":7590:7591  0 */\n  0x00\n    /* \"@openzeppelin/contracts/token/ERC20/ERC20.sol\":7561:7593  ERC20InvalidReceiver(address(0)) */\n  0x04\n  dup3\n  add\n    /* \"#utility.yul\":4876:4927   */\n  mstore\n    /* \"#utility.yul\":4849:4867   */\n  0x24\n  add\n    /* \"@openzeppelin/contracts/token/ERC20/ERC20.sol\":7561:7593  ERC20InvalidReceiver(address(0)) */\ntag_27:\n  mload(0x40)\n  dup1\n  swap2\n  sub\n  swap1\n  revert\n    /* \"@openzeppelin/contracts/token/ERC20/ERC20.sol\":7513:7604  if (account == address(0)) {... */\ntag_26:\n    /* \"@openzeppelin/contracts/token/ERC20/ERC20.sol\":7613:7648  _update(address(0), account, value) */\n  tag_29\n    /* \"@openzeppelin/contracts/token/ERC20/ERC20.sol\":7629:7630  0 */\n  0x00\n    /* \"@openzeppelin/contracts/token/ERC20/ERC20.sol\":7633:7640  account */\n  dup4\n    /* \"@openzeppelin/contracts/token/ERC20/ERC20.sol\":7642:7647  value */\n  dup4\n    /* \"@openzeppelin/contracts/token/ERC20/ERC20.sol\":7613:7620  _update */\n  tag_30\n    /* \"@openzeppelin/contracts/token/ERC20/ERC20.sol\":7613:7648  _update(address(0), account, value) */\n  jump\t// in\ntag_29:\n    /* \"@openzeppelin/contracts/token/ERC20/ERC20.sol\":7447:7655  function _mint(address account, uint256 value) internal {... */\n  pop\n  pop\n  jump\t// out\n    /* \"@openzeppelin/contracts/token/ERC20/ERC20.sol\":5997:7104  function _update(address from, address to, uint256 value) internal virtual {... */\ntag_30:\n  sub(shl(0xa0, 0x01), 0x01)\n    /* \"@openzeppelin/contracts/token/ERC20/ERC20.sol\":6086:6104  from == address(0) */\n  dup4\n  and\n    /* \"@openzeppelin/contracts/token/ERC20/ERC20.sol\":6082:6622  if (from == address(0)) {... */\n  tag_32\n  jumpi\n    /* \"@openzeppelin/contracts/token/ERC20/ERC20.sol\":6238:6243  value */\n  dup1\n    /* \"@openzeppelin/contracts/token/ERC20/ERC20.sol\":6222:6234  _totalSupply */\n  0x02\n  0x00\n    /* \"@openzeppelin/contracts/token/ERC20/ERC20.sol\":6222:6243  _totalSupply += value */\n  dup3\n  dup3\n  sload\n  tag_33\n  swap2\n  swap1\n  tag_34\n  jump\t// in\ntag_33:\n  swap1\n  swap2\n  sstore\n  pop\n    /* \"@openzeppelin/contracts/token/ERC20/ERC20.sol\":6082:6622  if (from == address(0)) {... */\n  tag_35\n  swap1\n  pop\n  jump\ntag_32:\n  sub(shl(0xa0, 0x01), 0x01)\n    /* \"@openzeppelin/contracts/token/ERC20/ERC20.sol\":6296:6311  _balances[from] */\n  dup4\n  and\n    /* \"@openzeppelin/contracts/token/ERC20/ERC20.sol\":6274:6293  uint256 fromBalance */\n  0x00\n    /* \"@openzeppelin/contracts/token/ERC20/ERC20.sol\":6296:6311  _balances[from] */\n  swap1\n  dup2\n  mstore\n  0x20\n  dup2\n  swap1\n  mstore\n  0x40\n  swap1\n  keccak256\n  sload\n    /* \"@openzeppelin/contracts/token/ERC20/ERC20.sol\":6329:6348  fromBalance < value */\n  dup2\n  dup2\n  lt\n    /* \"@openzeppelin/contracts/token/ERC20/ERC20.sol\":6325:6440  if (fromBalance < value) {... */\n  iszero\n  tag_36\n  jumpi\n    /* \"@openzeppelin/contracts/token/ERC20/ERC20.sol\":6375:6425  ERC20InsufficientBalance(from, fromBalance, value) */\n  mload(0x40)\n  shl(0xe2, 0x391434e3)\n  dup2\n  mstore\n  sub(shl(0xa0, 0x01), 0x01)\n    /* \"#utility.yul\":5288:5320   */\n  dup6\n  and\n    /* \"@openzeppelin/contracts/token/ERC20/ERC20.sol\":6375:6425  ERC20InsufficientBalance(from, fromBalance, value) */\n  0x04\n  dup3\n  add\n    /* \"#utility.yul\":5270:5321   */\n  mstore\n    /* \"#utility.yul\":5337:5355   */\n  0x24\n  dup2\n  add\n    /* \"#utility.yul\":5330:5364   */\n  dup3\n  swap1\n  mstore\n    /* \"#utility.yul\":5380:5398   */\n  0x44\n  dup2\n  add\n    /* \"#utility.yul\":5373:5407   */\n  dup4\n  swap1\n  mstore\n    /* \"#utility.yul\":5243:5261   */\n  0x64\n  add\n    /* \"@openzeppelin/contracts/token/ERC20/ERC20.sol\":6375:6425  ERC20InsufficientBalance(from, fromBalance, value) */\n  tag_27\n    /* \"#utility.yul\":5068:5413   */\n  jump\n    /* \"@openzeppelin/contracts/token/ERC20/ERC20.sol\":6325:6440  if (fromBalance < value) {... */\ntag_36:\n  sub(shl(0xa0, 0x01), 0x01)\n    /* \"@openzeppelin/contracts/token/ERC20/ERC20.sol\":6560:6575  _balances[from] */\n  dup5\n  and\n    /* \"@openzeppelin/contracts/token/ERC20/ERC20.sol\":6560:6569  _balances */\n  0x00\n    /* \"@openzeppelin/contracts/token/ERC20/ERC20.sol\":6560:6575  _balances[from] */\n  swap1\n  dup2\n  mstore\n  0x20\n  dup2\n  swap1\n  mstore\n  0x40\n  swap1\n  keccak256\n    /* \"@openzeppelin/contracts/token/ERC20/ERC20.sol\":6578:6597  fromBalance - value */\n  swap1\n  dup3\n  swap1\n  sub\n    /* \"@openzeppelin/contracts/token/ERC20/ERC20.sol\":6560:6597  _balances[from] = fromBalance - value */\n  swap1\n  sstore\n    /* \"@openzeppelin/contracts/token/ERC20/ERC20.sol\":6082:6622  if (from == address(0)) {... */\ntag_35:\n  sub(shl(0xa0, 0x01), 0x01)\n    /* \"@openzeppelin/contracts/token/ERC20/ERC20.sol\":6636:6652  to == address(0) */\n  dup3\n  and\n    /* \"@openzeppelin/contracts/token/ERC20/ERC20.sol\":6632:7057  if (to == address(0)) {... */\n  tag_39\n  jumpi\n    /* \"@openzeppelin/contracts/token/ERC20/ERC20.sol\":6799:6811  _totalSupply */\n  0x02\n    /* \"@openzeppelin/contracts/token/ERC20/ERC20.sol\":6799:6820  _totalSupply -= value */\n  dup1\n  sload\n  dup3\n  swap1\n  sub\n  swap1\n  sstore\n    /* \"@openzeppelin/contracts/token/ERC20/ERC20.sol\":6632:7057  if (to == address(0)) {... */\n  jump(tag_40)\ntag_39:\n  sub(shl(0xa0, 0x01), 0x01)\n    /* \"@openzeppelin/contracts/token/ERC20/ERC20.sol\":7010:7023  _balances[to] */\n  dup3\n  and\n    /* \"@openzeppelin/contracts/token/ERC20/ERC20.sol\":7010:7019  _balances */\n  0x00\n    /* \"@openzeppelin/contracts/token/ERC20/ERC20.sol\":7010:7023  _balances[to] */\n  swap1\n  dup2\n  mstore\n  0x20\n  dup2\n  swap1\n  mstore\n  0x40\n  swap1\n  keccak256\n    /* \"@openzeppelin/contracts/token/ERC20/ERC20.sol\":7010:7032  _balances[to] += value */\n  dup1\n  sload\n  dup3\n  add\n  swap1\n  sstore\n    /* \"@openzeppelin/contracts/token/ERC20/ERC20.sol\":6632:7057  if (to == address(0)) {... */\ntag_40:\n    /* \"@openzeppelin/contracts/token/ERC20/ERC20.sol\":7087:7089  to */\n  dup2\n  sub(shl(0xa0, 0x01), 0x01)\n    /* \"@openzeppelin/contracts/token/ERC20/ERC20.sol\":7072:7097  Transfer(from, to, value) */\n  and\n    /* \"@openzeppelin/contracts/token/ERC20/ERC20.sol\":7081:7085  from */\n  dup4\n  sub(shl(0xa0, 0x01), 0x01)\n    /* \"@openzeppelin/contracts/token/ERC20/ERC20.sol\":7072:7097  Transfer(from, to, value) */\n  and\n  0xddf252ad1be2c89b69c2b068fc378daa952ba7f163c4a11628f55a4df523b3ef\n    /* \"@openzeppelin/contracts/token/ERC20/ERC20.sol\":7091:7096  value */\n  dup4\n    /* \"@openzeppelin/contracts/token/ERC20/ERC20.sol\":7072:7097  Transfer(from, to, value) */\n  mload(0x40)\n  tag_41\n  swap2\n    /* \"#utility.yul\":5564:5589   */\n  dup2\n  mstore\n    /* \"#utility.yul\":5552:5554   */\n  0x20\n    /* \"#utility.yul\":5537:5555   */\n  add\n  swap1\n    /* \"#utility.yul\":5418:5595   */\n  jump\n    /* \"@openzeppelin/contracts/token/ERC20/ERC20.sol\":7072:7097  Transfer(from, to, value) */\ntag_41:\n  mload(0x40)\n  dup1\n  swap2\n  sub\n  swap1\n  log3\n    /* \"@openzeppelin/contracts/token/ERC20/ERC20.sol\":5997:7104  function _update(address from, address to, uint256 value) internal virtual {... */\n  pop\n  pop\n  pop\n  jump\t// out\n    /* \"#utility.yul\":14:141   */\ntag_43:\n    /* \"#utility.yul\":75:85   */\n  0x4e487b71\n    /* \"#utility.yul\":70:73   */\n  0xe0\n    /* \"#utility.yul\":66:86   */\n  shl\n    /* \"#utility.yul\":63:64   */\n  0x00\n    /* \"#utility.yul\":56:87   */\n  mstore\n    /* \"#utility.yul\":106:110   */\n  0x11\n    /* \"#utility.yul\":103:104   */\n  0x04\n    /* \"#utility.yul\":96:111   */\n  mstore\n    /* \"#utility.yul\":130:134   */\n  0x24\n    /* \"#utility.yul\":127:128   */\n  0x00\n    /* \"#utility.yul\":120:135   */\n  revert\n    /* \"#utility.yul\":146:521   */\ntag_44:\n    /* \"#utility.yul\":234:235   */\n  0x01\n    /* \"#utility.yul\":252:257   */\n  dup2\n    /* \"#utility.yul\":266:515   */\ntag_54:\n    /* \"#utility.yul\":287:288   */\n  0x01\n    /* \"#utility.yul\":277:285   */\n  dup5\n    /* \"#utility.yul\":274:289   */\n  gt\n    /* \"#utility.yul\":266:515   */\n  iszero\n  tag_56\n  jumpi\n    /* \"#utility.yul\":337:341   */\n  dup1\n    /* \"#utility.yul\":332:335   */\n  dup6\n    /* \"#utility.yul\":328:342   */\n  div\n    /* \"#utility.yul\":322:326   */\n  dup2\n    /* \"#utility.yul\":319:343   */\n  gt\n    /* \"#utility.yul\":316:366   */\n  iszero\n  tag_58\n  jumpi\n    /* \"#utility.yul\":346:364   */\n  tag_58\n  tag_43\n  jump\t// in\ntag_58:\n    /* \"#utility.yul\":396:397   */\n  0x01\n    /* \"#utility.yul\":386:394   */\n  dup5\n    /* \"#utility.yul\":382:398   */\n  and\n    /* \"#utility.yul\":379:428   */\n  iszero\n  tag_59\n  jumpi\n    /* \"#utility.yul\":410:426   */\n  swap1\n  dup2\n  mul\n  swap1\n    /* \"#utility.yul\":379:428   */\ntag_59:\n    /* \"#utility.yul\":493:494   */\n  0x01\n    /* \"#utility.yul\":489:505   */\n  swap4\n  swap1\n  swap4\n  shr\n  swap3\n    /* \"#utility.yul\":449:464   */\n  dup1\n  mul\n    /* \"#utility.yul\":266:515   */\n  jump(tag_54)\ntag_56:\n    /* \"#utility.yul\":146:521   */\n  swap4\n  pop\n  swap4\n  swap2\n  pop\n  pop\n  jump\t// out\n    /* \"#utility.yul\":526:1428   */\ntag_45:\n    /* \"#utility.yul\":575:580   */\n  0x00\n    /* \"#utility.yul\":605:613   */\n  dup3\n    /* \"#utility.yul\":595:675   */\n  tag_61\n  jumpi\n  pop\n    /* \"#utility.yul\":646:647   */\n  0x01\n    /* \"#utility.yul\":660:665   */\n  jump(tag_60)\n    /* \"#utility.yul\":595:675   */\ntag_61:\n    /* \"#utility.yul\":694:698   */\n  dup2\n    /* \"#utility.yul\":684:760   */\n  tag_62\n  jumpi\n  pop\n    /* \"#utility.yul\":731:732   */\n  0x00\n    /* \"#utility.yul\":745:750   */\n  jump(tag_60)\n    /* \"#utility.yul\":684:760   */\ntag_62:\n    /* \"#utility.yul\":776:780   */\n  dup2\n    /* \"#utility.yul\":794:795   */\n  0x01\n    /* \"#utility.yul\":789:848   */\n  dup2\n  eq\n  tag_64\n  jumpi\n    /* \"#utility.yul\":862:863   */\n  0x02\n    /* \"#utility.yul\":857:1031   */\n  dup2\n  eq\n  tag_65\n  jumpi\n    /* \"#utility.yul\":769:1031   */\n  jump(tag_63)\n    /* \"#utility.yul\":789:848   */\ntag_64:\n    /* \"#utility.yul\":819:820   */\n  0x01\n    /* \"#utility.yul\":810:820   */\n  swap2\n  pop\n    /* \"#utility.yul\":833:838   */\n  pop\n  jump(tag_60)\n    /* \"#utility.yul\":857:1031   */\ntag_65:\n    /* \"#utility.yul\":894:897   */\n  0xff\n    /* \"#utility.yul\":884:892   */\n  dup5\n    /* \"#utility.yul\":881:898   */\n  gt\n    /* \"#utility.yul\":878:921   */\n  iszero\n  tag_67\n  jumpi\n    /* \"#utility.yul\":901:919   */\n  tag_67\n  tag_43\n  jump\t// in\ntag_67:\n  pop\n  pop\n    /* \"#utility.yul\":957:958   */\n  0x01\n    /* \"#utility.yul\":943:959   */\n  dup3\n  shl\n    /* \"#utility.yul\":1016:1021   */\n  jump(tag_60)\n    /* \"#utility.yul\":769:1031   */\ntag_63:\n  pop\n    /* \"#utility.yul\":1115:1117   */\n  0x20\n    /* \"#utility.yul\":1105:1113   */\n  dup4\n    /* \"#utility.yul\":1102:1118   */\n  lt\n    /* \"#utility.yul\":1096:1099   */\n  0x0133\n    /* \"#utility.yul\":1090:1094   */\n  dup4\n    /* \"#utility.yul\":1087:1100   */\n  lt\n    /* \"#utility.yul\":1083:1119   */\n  and\n    /* \"#utility.yul\":1077:1079   */\n  0x4e\n    /* \"#utility.yul\":1067:1075   */\n  dup5\n    /* \"#utility.yul\":1064:1080   */\n  lt\n    /* \"#utility.yul\":1059:1061   */\n  0x0b\n    /* \"#utility.yul\":1053:1057   */\n  dup5\n    /* \"#utility.yul\":1050:1062   */\n  lt\n    /* \"#utility.yul\":1046:1081   */\n  and\n    /* \"#utility.yul\":1043:1120   */\n  or\n    /* \"#utility.yul\":1040:1243   */\n  iszero\n  tag_68\n  jumpi\n  pop\n    /* \"#utility.yul\":1152:1171   */\n  dup2\n  dup2\n  exp\n    /* \"#utility.yul\":1228:1233   */\n  jump(tag_60)\n    /* \"#utility.yul\":1040:1243   */\ntag_68:\n    /* \"#utility.yul\":1275:1317   */\n  tag_69\n  not(0x00)\n    /* \"#utility.yul\":1300:1308   */\n  dup5\n    /* \"#utility.yul\":1294:1298   */\n  dup5\n    /* \"#utility.yul\":1275:1317   */\n  tag_44\n  jump\t// in\ntag_69:\n    /* \"#utility.yul\":1353:1359   */\n  dup1\n    /* \"#utility.yul\":1349:1350   */\n  0x00\n    /* \"#utility.yul\":1345:1351   */\n  not\n    /* \"#utility.yul\":1341:1360   */\n  div\n    /* \"#utility.yul\":1332:1339   */\n  dup3\n    /* \"#utility.yul\":1329:1361   */\n  gt\n    /* \"#utility.yul\":1326:1384   */\n  iszero\n  tag_71\n  jumpi\n    /* \"#utility.yul\":1364:1382   */\n  tag_71\n  tag_43\n  jump\t// in\ntag_71:\n    /* \"#utility.yul\":1402:1422   */\n  mul\n  swap1\n  pop\n    /* \"#utility.yul\":526:1428   */\ntag_60:\n  swap3\n  swap2\n  pop\n  pop\n  jump\t// out\n    /* \"#utility.yul\":1433:1564   */\ntag_2:\n    /* \"#utility.yul\":1493:1498   */\n  0x00\n    /* \"#utility.yul\":1522:1558   */\n  tag_73\n    /* \"#utility.yul\":1549:1557   */\n  dup4\n    /* \"#utility.yul\":1543:1547   */\n  dup4\n    /* \"#utility.yul\":1522:1558   */\n  tag_45\n  jump\t// in\ntag_73:\n    /* \"#utility.yul\":1513:1558   */\n  swap4\n    /* \"#utility.yul\":1433:1564   */\n  swap3\n  pop\n  pop\n  pop\n  jump\t// out\n    /* \"#utility.yul\":1569:1737   */\ntag_4:\n    /* \"#utility.yul\":1642:1651   */\n  dup1\n  dup3\n  mul\n    /* \"#utility.yul\":1673:1682   */\n  dup2\n  iszero\n    /* \"#utility.yul\":1690:1705   */\n  dup3\n  dup3\n  div\n    /* \"#utility.yul\":1684:1706   */\n  dup5\n  eq\n    /* \"#utility.yul\":1670:1707   */\n  or\n    /* \"#utility.yul\":1660:1731   */\n  tag_60\n  jumpi\n    /* \"#utility.yul\":1711:1729   */\n  tag_60\n  tag_43\n  jump\t// in\n    /* \"#utility.yul\":1742:1869   */\ntag_46:\n    /* \"#utility.yul\":1803:1813   */\n  0x4e487b71\n    /* \"#utility.yul\":1798:1801   */\n  0xe0\n    /* \"#utility.yul\":1794:1814   */\n  shl\n    /* \"#utility.yul\":1791:1792   */\n  0x00\n    /* \"#utility.yul\":1784:1815   */\n  mstore\n    /* \"#utility.yul\":1834:1838   */\n  0x41\n    /* \"#utility.yul\":1831:1832   */\n  0x04\n    /* \"#utility.yul\":1824:1839   */\n  mstore\n    /* \"#utility.yul\":1858:1862   */\n  0x24\n    /* \"#utility.yul\":1855:1856   */\n  0x00\n    /* \"#utility.yul\":1848:1863   */\n  revert\n    /* \"#utility.yul\":1874:2254   */\ntag_47:\n    /* \"#utility.yul\":1953:1954   */\n  0x01\n    /* \"#utility.yul\":1949:1961   */\n  dup2\n  dup2\n  shr\n  swap1\n    /* \"#utility.yul\":1996:2008   */\n  dup3\n  and\n  dup1\n    /* \"#utility.yul\":2017:2078   */\n  tag_79\n  jumpi\n    /* \"#utility.yul\":2071:2075   */\n  0x7f\n    /* \"#utility.yul\":2063:2069   */\n  dup3\n    /* \"#utility.yul\":2059:2076   */\n  and\n    /* \"#utility.yul\":2049:2076   */\n  swap2\n  pop\n    /* \"#utility.yul\":2017:2078   */\ntag_79:\n    /* \"#utility.yul\":2124:2126   */\n  0x20\n    /* \"#utility.yul\":2116:2122   */\n  dup3\n    /* \"#utility.yul\":2113:2127   */\n  lt\n    /* \"#utility.yul\":2093:2111   */\n  dup2\n    /* \"#utility.yul\":2090:2128   */\n  sub\n    /* \"#utility.yul\":2087:2248   */\n  tag_80\n  jumpi\n    /* \"#utility.yul\":2170:2180   */\n  0x4e487b71\n    /* \"#utility.yul\":2165:2168   */\n  0xe0\n    /* \"#utility.yul\":2161:2181   */\n  shl\n    /* \"#utility.yul\":2158:2159   */\n  0x00\n    /* \"#utility.yul\":2151:2182   */\n  mstore\n    /* \"#utility.yul\":2205:2209   */\n  0x22\n    /* \"#utility.yul\":2202:2203   */\n  0x04\n    /* \"#utility.yul\":2195:2210   */\n  mstore\n    /* \"#utility.yul\":2233:2237   */\n  0x24\n    /* \"#utility.yul\":2230:2231   */\n  0x00\n    /* \"#utility.yul\":2223:2238   */\n  revert\n    /* \"#utility.yul\":2087:2248   */\ntag_80:\n  pop\n    /* \"#utility.yul\":1874:2254   */\n  swap2\n  swap1\n  pop\n  jump\t// out\n    /* \"#utility.yul\":2385:2903   */\ntag_49:\n    /* \"#utility.yul\":2487:2489   */\n  0x1f\n    /* \"#utility.yul\":2482:2485   */\n  dup3\n    /* \"#utility.yul\":2479:2490   */\n  gt\n    /* \"#utility.yul\":2476:2897   */\n  iszero\n  tag_83\n  jumpi\n    /* \"#utility.yul\":2523:2528   */\n  dup1\n    /* \"#utility.yul\":2520:2521   */\n  0x00\n    /* \"#utility.yul\":2513:2529   */\n  mstore\n    /* \"#utility.yul\":2567:2571   */\n  0x20\n    /* \"#utility.yul\":2564:2565   */\n  0x00\n    /* \"#utility.yul\":2554:2572   */\n  keccak256\n    /* \"#utility.yul\":2637:2639   */\n  0x1f\n    /* \"#utility.yul\":2625:2635   */\n  dup5\n    /* \"#utility.yul\":2621:2640   */\n  add\n    /* \"#utility.yul\":2618:2619   */\n  0x05\n    /* \"#utility.yul\":2614:2641   */\n  shr\n    /* \"#utility.yul\":2608:2612   */\n  dup2\n    /* \"#utility.yul\":2604:2642   */\n  add\n    /* \"#utility.yul\":2673:2677   */\n  0x20\n    /* \"#utility.yul\":2661:2671   */\n  dup6\n    /* \"#utility.yul\":2658:2678   */\n  lt\n    /* \"#utility.yul\":2655:2702   */\n  iszero\n  tag_84\n  jumpi\n  pop\n    /* \"#utility.yul\":2696:2700   */\n  dup1\n    /* \"#utility.yul\":2655:2702   */\ntag_84:\n    /* \"#utility.yul\":2751:2753   */\n  0x1f\n    /* \"#utility.yul\":2746:2749   */\n  dup5\n    /* \"#utility.yul\":2742:2754   */\n  add\n    /* \"#utility.yul\":2739:2740   */\n  0x05\n    /* \"#utility.yul\":2735:2755   */\n  shr\n    /* \"#utility.yul\":2729:2733   */\n  dup3\n    /* \"#utility.yul\":2725:2756   */\n  add\n    /* \"#utility.yul\":2715:2756   */\n  swap2\n  pop\n    /* \"#utility.yul\":2806:2887   */\ntag_85:\n    /* \"#utility.yul\":2824:2826   */\n  dup2\n    /* \"#utility.yul\":2817:2822   */\n  dup2\n    /* \"#utility.yul\":2814:2827   */\n  lt\n    /* \"#utility.yul\":2806:2887   */\n  iszero\n  tag_87\n  jumpi\n    /* \"#utility.yul\":2883:2884   */\n  0x00\n    /* \"#utility.yul\":2869:2885   */\n  dup2\n  sstore\n    /* \"#utility.yul\":2850:2851   */\n  0x01\n    /* \"#utility.yul\":2839:2852   */\n  add\n    /* \"#utility.yul\":2806:2887   */\n  jump(tag_85)\ntag_87:\n    /* \"#utility.yul\":2810:2813   */\n  pop\n  pop\n    /* \"#utility.yul\":2476:2897   */\ntag_83:\n    /* \"#utility.yul\":2385:2903   */\n  pop\n  pop\n  pop\n  jump\t// out\n    /* \"#utility.yul\":3079:4378   */\ntag_10:\n    /* \"#utility.yul\":3199:3209   */\n  dup2\n  mload\n  sub(shl(0x40, 0x01), 0x01)\n    /* \"#utility.yul\":3221:3251   */\n  dup2\n  gt\n    /* \"#utility.yul\":3218:3274   */\n  iszero\n  tag_91\n  jumpi\n    /* \"#utility.yul\":3254:3272   */\n  tag_91\n  tag_46\n  jump\t// in\ntag_91:\n    /* \"#utility.yul\":3283:3380   */\n  tag_92\n    /* \"#utility.yul\":3373:3379   */\n  dup2\n    /* \"#utility.yul\":3333:3371   */\n  tag_93\n    /* \"#utility.yul\":3365:3369   */\n  dup5\n    /* \"#utility.yul\":3359:3370   */\n  sload\n    /* \"#utility.yul\":3333:3371   */\n  tag_47\n  jump\t// in\ntag_93:\n    /* \"#utility.yul\":3327:3331   */\n  dup5\n    /* \"#utility.yul\":3283:3380   */\n  tag_49\n  jump\t// in\ntag_92:\n    /* \"#utility.yul\":3429:3433   */\n  0x20\n    /* \"#utility.yul\":3460:3462   */\n  0x1f\n    /* \"#utility.yul\":3449:3463   */\n  dup3\n  gt\n    /* \"#utility.yul\":3477:3478   */\n  0x01\n    /* \"#utility.yul\":3472:4121   */\n  dup2\n  eq\n  tag_95\n  jumpi\n    /* \"#utility.yul\":4165:4166   */\n  0x00\n    /* \"#utility.yul\":4182:4188   */\n  dup4\n    /* \"#utility.yul\":4179:4268   */\n  iszero\n  tag_96\n  jumpi\n  pop\n    /* \"#utility.yul\":4234:4253   */\n  dup5\n  dup3\n  add\n    /* \"#utility.yul\":4228:4254   */\n  mload\n    /* \"#utility.yul\":4179:4268   */\ntag_96:\n  not(0x00)\n    /* \"#utility.yul\":3036:3037   */\n  0x03\n    /* \"#utility.yul\":3032:3043   */\n  dup6\n  swap1\n  shl\n    /* \"#utility.yul\":3028:3052   */\n  shr\n    /* \"#utility.yul\":3024:3053   */\n  not\n    /* \"#utility.yul\":3014:3054   */\n  and\n    /* \"#utility.yul\":3060:3061   */\n  0x01\n    /* \"#utility.yul\":3056:3067   */\n  dup5\n  swap1\n  shl\n    /* \"#utility.yul\":3011:3068   */\n  or\n    /* \"#utility.yul\":4281:4362   */\n  dup5\n  sstore\n    /* \"#utility.yul\":3442:4372   */\n  jump(tag_87)\n    /* \"#utility.yul\":3472:4121   */\ntag_95:\n    /* \"#utility.yul\":2332:2333   */\n  0x00\n    /* \"#utility.yul\":2325:2339   */\n  dup5\n  dup2\n  mstore\n    /* \"#utility.yul\":2369:2373   */\n  0x20\n    /* \"#utility.yul\":2356:2374   */\n  dup2\n  keccak256\n  not(0x1f)\n    /* \"#utility.yul\":3508:3528   */\n  dup6\n  and\n  swap2\n    /* \"#utility.yul\":3626:3848   */\ntag_99:\n    /* \"#utility.yul\":3640:3647   */\n  dup3\n    /* \"#utility.yul\":3637:3638   */\n  dup2\n    /* \"#utility.yul\":3634:3648   */\n  lt\n    /* \"#utility.yul\":3626:3848   */\n  iszero\n  tag_101\n  jumpi\n    /* \"#utility.yul\":3722:3741   */\n  dup8\n  dup6\n  add\n    /* \"#utility.yul\":3716:3742   */\n  mload\n    /* \"#utility.yul\":3701:3743   */\n  dup3\n  sstore\n    /* \"#utility.yul\":3829:3833   */\n  0x20\n    /* \"#utility.yul\":3814:3834   */\n  swap5\n  dup6\n  add\n  swap5\n    /* \"#utility.yul\":3782:3783   */\n  0x01\n    /* \"#utility.yul\":3770:3784   */\n  swap1\n  swap3\n  add\n  swap2\n    /* \"#utility.yul\":3656:3668   */\n  add\n    /* \"#utility.yul\":3626:3848   */\n  jump(tag_99)\ntag_101:\n    /* \"#utility.yul\":3630:3633   */\n  pop\n    /* \"#utility.yul\":3876:3882   */\n  dup5\n    /* \"#utility.yul\":3867:3874   */\n  dup3\n    /* \"#utility.yul\":3864:3883   */\n  lt\n    /* \"#utility.yul\":3861:4062   */\n  iszero\n  tag_102\n  jumpi\n    /* \"#utility.yul\":3937:3956   */\n  dup7\n  dup5\n  add\n    /* \"#utility.yul\":3931:3957   */\n  mload\n  not(0x00)\n    /* \"#utility.yul\":4020:4021   */\n  0x03\n    /* \"#utility.yul\":4016:4030   */\n  dup8\n  swap1\n  shl\n    /* \"#utility.yul\":4032:4035   */\n  0xf8\n    /* \"#utility.yul\":4012:4036   */\n  and\n    /* \"#utility.yul\":4008:4045   */\n  shr\n    /* \"#utility.yul\":4004:4046   */\n  not\n    /* \"#utility.yul\":3989:4047   */\n  and\n    /* \"#utility.yul\":3974:4048   */\n  dup2\n  sstore\n    /* \"#utility.yul\":3861:4062   */\ntag_102:\n  pop\n  pop\n  pop\n  pop\n    /* \"#utility.yul\":4108:4109   */\n  0x01\n    /* \"#utility.yul\":4092:4106   */\n  swap1\n  dup2\n  shl\n    /* \"#utility.yul\":4088:4110   */\n  add\n    /* \"#utility.yul\":4075:4111   */\n  swap1\n  sstore\n  pop\n    /* \"#utility.yul\":3079:4378   */\n  jump\t// out\n    /* \"#utility.yul\":4383:4592   */\ntag_16:\n    /* \"#utility.yul\":4415:4416   */\n  0x00\n    /* \"#utility.yul\":4441:4442   */\n  dup3\n    /* \"#utility.yul\":4431:4563   */\n  tag_104\n  jumpi\n    /* \"#utility.yul\":4485:4495   */\n  0x4e487b71\n    /* \"#utility.yul\":4480:4483   */\n  0xe0\n    /* \"#utility.yul\":4476:4496   */\n  shl\n    /* \"#utility.yul\":4473:4474   */\n  0x00\n    /* \"#utility.yul\":4466:4497   */\n  mstore\n    /* \"#utility.yul\":4520:4524   */\n  0x12\n    /* \"#utility.yul\":4517:4518   */\n  0x04\n    /* \"#utility.yul\":4510:4525   */\n  mstore\n    /* \"#utility.yul\":4548:4552   */\n  0x24\n    /* \"#utility.yul\":4545:4546   */\n  0x00\n    /* \"#utility.yul\":4538:4553   */\n  revert\n    /* \"#utility.yul\":4431:4563   */\ntag_104:\n  pop\n    /* \"#utility.yul\":4577:4586   */\n  mod\n  swap1\n    /* \"#utility.yul\":4383:4592   */\n  jump\t// out\n    /* \"#utility.yul\":4597:4725   */\ntag_18:\n    /* \"#utility.yul\":4664:4673   */\n  dup2\n  dup2\n  sub\n    /* \"#utility.yul\":4685:4696   */\n  dup2\n  dup2\n  gt\n    /* \"#utility.yul\":4682:4719   */\n  iszero\n  tag_60\n  jumpi\n    /* \"#utility.yul\":4699:4717   */\n  tag_60\n  tag_43\n  jump\t// in\n    /* \"#utility.yul\":4938:5063   */\ntag_34:\n    /* \"#utility.yul\":5003:5012   */\n  dup1\n  dup3\n  add\n    /* \"#utility.yul\":5024:5034   */\n  dup1\n  dup3\n  gt\n    /* \"#utility.yul\":5021:5057   */\n  iszero\n  tag_60\n  jumpi\n    /* \"#utility.yul\":5037:5055   */\n  tag_60\n  tag_43\n  jump\t// in\n    /* \"#utility.yul\":5418:5595   */\ntag_51:\n    /* \"CYBCC.sol\":133:13272  contract CYBCC is ERC20 {... */\n  dataSize(sub_0)\n  dup1\n  dataOffset(sub_0)\n  0x00\n  codecopy\n  0x00\n  return\nstop\n\nsub_0: assembly {\n        /* \"CYBCC.sol\":133:13272  contract CYBCC is ERC20 {... */\n      mstore(0x40, 0x80)\n      jumpi(tag_1, lt(calldatasize, 0x04))\n      shr(0xe0, calldataload(0x00))\n      dup1\n      0x706407fd\n      gt\n      tag_28\n      jumpi\n      dup1\n      0xa9059cbb\n      gt\n      tag_29\n      jumpi\n      dup1\n      0xdd62ed3e\n      gt\n      tag_30\n      jumpi\n      dup1\n      0xdd62ed3e\n      eq\n      tag_24\n      jumpi\n      dup1\n      0xea2f0b37\n      eq\n      tag_25\n      jumpi\n      dup1\n      0xf66608fe\n      eq\n      tag_26\n      jumpi\n      dup1\n      0xfdeb889f\n      eq\n      tag_27\n      jumpi\n      revert(0x00, 0x00)\n    tag_30:\n      dup1\n      0xa9059cbb\n      eq\n      tag_21\n      jumpi\n      dup1\n      0xc4863770\n      eq\n      tag_22\n      jumpi\n      dup1\n      0xcba0e996\n      eq\n      tag_23\n      jumpi\n      revert(0x00, 0x00)\n    tag_29:\n      dup1\n      0x706407fd\n      eq\n      tag_15\n      jumpi\n      dup1\n      0x70a08231\n      eq\n      tag_16\n      jumpi\n      dup1\n      0x838fcc90\n      eq\n      tag_17\n      jumpi\n      dup1\n      0x83ad7994\n      eq\n      tag_18\n      jumpi\n      dup1\n      0x8da5cb5b\n      eq\n      tag_19\n      jumpi\n      dup1\n      0x95d89b41\n      eq\n      tag_20\n      jumpi\n      revert(0x00, 0x00)\n    tag_28:\n      dup1\n      0x313ce567\n      gt\n      tag_31\n      jumpi\n      dup1\n      0x313ce567\n      eq\n      tag_9\n      jumpi\n      dup1\n      0x32035504\n      eq\n      tag_10\n      jumpi\n      dup1\n      0x437823ec\n      eq\n      tag_11\n      jumpi\n      dup1\n      0x4549b039\n      eq\n      tag_12\n      jumpi\n      dup1\n      0x5342acb4\n      eq\n      tag_13\n      jumpi\n      dup1\n      0x6049876e\n      eq\n      tag_14\n      jumpi\n      revert(0x00, 0x00)\n    tag_31:\n      dup1\n      0x053ab182\n      eq\n      tag_3\n      jumpi\n      dup1\n      0x06fdde03\n      eq\n      tag_4\n      jumpi\n      dup1\n      0x095ea7b3\n      eq\n      tag_5\n      jumpi\n      dup1\n      0x18160ddd\n      eq\n      tag_6\n      jumpi\n      dup1\n      0x1cf8fef5\n      eq\n      tag_7\n      jumpi\n      dup1\n      0x23b872dd\n      eq\n      tag_8\n      jumpi\n      revert(0x00, 0x00)\n    tag_1:\n      jumpi(tag_2, calldatasize)\n      stop\n    tag_2:\n      revert(0x00, 0x00)\n        /* \"CYBCC.sol\":3907:4321  function reflect(uint256 tAmount) public {... */\n    tag_3:\n      callvalue\n      dup1\n      iszero\n      tag_34\n      jumpi\n      revert(0x00, 0x00)\n    tag_34:\n      pop\n      tag_35\n      tag_36\n      calldatasize\n      0x04\n      tag_37\n      jump\t// in\n    tag_36:\n      tag_38\n      jump\t// in\n    tag_35:\n      stop\n        /* \"@openzeppelin/contracts/token/ERC20/ERC20.sol\":1760:1849  function name() public view virtual returns (string memory) {... */\n    tag_4:\n      callvalue\n      dup1\n      iszero\n      tag_39\n      jumpi\n      revert(0x00, 0x00)\n    tag_39:\n      pop\n      tag_40\n      tag_41\n      jump\t// in\n    tag_40:\n      mload(0x40)\n      tag_42\n      swap2\n      swap1\n      tag_43\n      jump\t// in\n    tag_42:\n      mload(0x40)\n      dup1\n      swap2\n      sub\n      swap1\n      return\n        /* \"@openzeppelin/contracts/token/ERC20/ERC20.sol\":3979:4165  function approve(address spender, uint256 value) public virtual returns (bool) {... */\n    tag_5:\n      callvalue\n      dup1\n      iszero\n      tag_44\n      jumpi\n      revert(0x00, 0x00)\n    tag_44:\n      pop\n      tag_45\n      tag_46\n      calldatasize\n      0x04\n      tag_47\n      jump\t// in\n    tag_46:\n      tag_48\n      jump\t// in\n    tag_45:\n      mload(0x40)\n        /* \"#utility.yul\":1316:1330   */\n      swap1\n      iszero\n        /* \"#utility.yul\":1309:1331   */\n      iszero\n        /* \"#utility.yul\":1291:1332   */\n      dup2\n      mstore\n        /* \"#utility.yul\":1279:1281   */\n      0x20\n        /* \"#utility.yul\":1264:1282   */\n      add\n        /* \"@openzeppelin/contracts/token/ERC20/ERC20.sol\":3979:4165  function approve(address spender, uint256 value) public virtual returns (bool) {... */\n      tag_42\n        /* \"#utility.yul\":1151:1338   */\n      jump\n        /* \"CYBCC.sol\":1972:2075  function totalSupply() public view virtual override returns (uint256) {... */\n    tag_6:\n      callvalue\n      dup1\n      iszero\n      tag_51\n      jumpi\n      revert(0x00, 0x00)\n    tag_51:\n      pop\n        /* \"CYBCC.sol\":2060:2067  _tTotal */\n      sload(0x0b)\n        /* \"CYBCC.sol\":1972:2075  function totalSupply() public view virtual override returns (uint256) {... */\n    tag_52:\n      mload(0x40)\n        /* \"#utility.yul\":1489:1514   */\n      swap1\n      dup2\n      mstore\n        /* \"#utility.yul\":1477:1479   */\n      0x20\n        /* \"#utility.yul\":1462:1480   */\n      add\n        /* \"CYBCC.sol\":1972:2075  function totalSupply() public view virtual override returns (uint256) {... */\n      tag_42\n        /* \"#utility.yul\":1343:1520   */\n      jump\n        /* \"CYBCC.sol\":2390:2498  function getDevelopmentAccount() public view returns (address) {... */\n    tag_7:\n      callvalue\n      dup1\n      iszero\n      tag_56\n      jumpi\n      revert(0x00, 0x00)\n    tag_56:\n      pop\n        /* \"CYBCC.sol\":2471:2490  _developmentAccount */\n      and(sub(shl(0xa0, 0x01), 0x01), sload(0x13))\n        /* \"CYBCC.sol\":2390:2498  function getDevelopmentAccount() public view returns (address) {... */\n    tag_57:\n      mload(0x40)\n      sub(shl(0xa0, 0x01), 0x01)\n        /* \"#utility.yul\":1689:1721   */\n      swap1\n      swap2\n      and\n        /* \"#utility.yul\":1671:1722   */\n      dup2\n      mstore\n        /* \"#utility.yul\":1659:1661   */\n      0x20\n        /* \"#utility.yul\":1644:1662   */\n      add\n        /* \"CYBCC.sol\":2390:2498  function getDevelopmentAccount() public view returns (address) {... */\n      tag_42\n        /* \"#utility.yul\":1525:1728   */\n      jump\n        /* \"@openzeppelin/contracts/token/ERC20/ERC20.sol\":4757:5001  function transferFrom(address from, address to, uint256 value) public virtual returns (bool) {... */\n    tag_8:\n      callvalue\n      dup1\n      iszero\n      tag_61\n      jumpi\n      revert(0x00, 0x00)\n    tag_61:\n      pop\n      tag_45\n      tag_63\n      calldatasize\n      0x04\n      tag_64\n      jump\t// in\n    tag_63:\n      tag_65\n      jump\t// in\n        /* \"CYBCC.sol\":1864:1964  function decimals() public view virtual override returns (uint8) {... */\n    tag_9:\n      callvalue\n      dup1\n      iszero\n      tag_67\n      jumpi\n      revert(0x00, 0x00)\n    tag_67:\n      pop\n        /* \"CYBCC.sol\":1947:1956  _decimals */\n      sload(0x0a)\n        /* \"CYBCC.sol\":1864:1964  function decimals() public view virtual override returns (uint8) {... */\n      mload(0x40)\n        /* \"CYBCC.sol\":1947:1956  _decimals */\n      0xff\n      swap1\n      swap2\n      and\n        /* \"#utility.yul\":2254:2290   */\n      dup2\n      mstore\n        /* \"#utility.yul\":2242:2244   */\n      0x20\n        /* \"#utility.yul\":2227:2245   */\n      add\n        /* \"CYBCC.sol\":1864:1964  function decimals() public view virtual override returns (uint8) {... */\n      tag_42\n        /* \"#utility.yul\":2112:2296   */\n      jump\n        /* \"CYBCC.sol\":3042:3142  function totalFeesRedistributed() public view returns (uint256) {... */\n    tag_10:\n      callvalue\n      dup1\n      iszero\n      tag_72\n      jumpi\n      revert(0x00, 0x00)\n    tag_72:\n      pop\n        /* \"CYBCC.sol\":3124:3134  _tFeeTotal */\n      sload(0x0d)\n        /* \"CYBCC.sol\":3042:3142  function totalFeesRedistributed() public view returns (uint256) {... */\n      jump(tag_52)\n        /* \"CYBCC.sol\":3150:3261  function excludeFromFee(address account) public onlyOwner {... */\n    tag_11:\n      callvalue\n      dup1\n      iszero\n      tag_76\n      jumpi\n      revert(0x00, 0x00)\n    tag_76:\n      pop\n      tag_35\n      tag_78\n      calldatasize\n      0x04\n      tag_79\n      jump\t// in\n    tag_78:\n      tag_80\n      jump\t// in\n        /* \"CYBCC.sol\":4329:4816  function reflectionFromToken(uint256 tAmount, bool deductTransferFee)... */\n    tag_12:\n      callvalue\n      dup1\n      iszero\n      tag_81\n      jumpi\n      revert(0x00, 0x00)\n    tag_81:\n      pop\n      tag_52\n      tag_83\n      calldatasize\n      0x04\n      tag_84\n      jump\t// in\n    tag_83:\n      tag_85\n      jump\t// in\n        /* \"CYBCC.sol\":2506:2630  function isExcludedFromFee(address account) public view returns (bool) {... */\n    tag_13:\n      callvalue\n      dup1\n      iszero\n      tag_87\n      jumpi\n      revert(0x00, 0x00)\n    tag_87:\n      pop\n      tag_45\n      tag_89\n      calldatasize\n      0x04\n      tag_79\n      jump\t// in\n    tag_89:\n      sub(shl(0xa0, 0x01), 0x01)\n        /* \"CYBCC.sol\":2595:2622  _isExcludedFromFee[account] */\n      and\n        /* \"CYBCC.sol\":2571:2575  bool */\n      0x00\n        /* \"CYBCC.sol\":2595:2622  _isExcludedFromFee[account] */\n      swap1\n      dup2\n      mstore\n        /* \"CYBCC.sol\":2595:2613  _isExcludedFromFee */\n      0x07\n        /* \"CYBCC.sol\":2595:2622  _isExcludedFromFee[account] */\n      0x20\n      mstore\n      0x40\n      swap1\n      keccak256\n      sload\n      0xff\n      and\n      swap1\n        /* \"CYBCC.sol\":2506:2630  function isExcludedFromFee(address account) public view returns (bool) {... */\n      jump\n        /* \"CYBCC.sol\":5152:5491  function excludeAccountFromReward(address account) public onlyOwner {... */\n    tag_14:\n      callvalue\n      dup1\n      iszero\n      tag_92\n      jumpi\n      revert(0x00, 0x00)\n    tag_92:\n      pop\n      tag_35\n      tag_94\n      calldatasize\n      0x04\n      tag_79\n      jump\t// in\n    tag_94:\n      tag_95\n      jump\t// in\n        /* \"CYBCC.sol\":3645:3899  function changeDevelopmentAccount(address newFeeAccount) public onlyOwner {... */\n    tag_15:\n      callvalue\n      dup1\n      iszero\n      tag_96\n      jumpi\n      revert(0x00, 0x00)\n    tag_96:\n      pop\n      tag_35\n      tag_98\n      calldatasize\n      0x04\n      tag_79\n      jump\t// in\n    tag_98:\n      tag_99\n      jump\t// in\n        /* \"CYBCC.sol\":2638:2916  function balanceOf(address sender)... */\n    tag_16:\n      callvalue\n      dup1\n      iszero\n      tag_100\n      jumpi\n      revert(0x00, 0x00)\n    tag_100:\n      pop\n      tag_52\n      tag_102\n      calldatasize\n      0x04\n      tag_79\n      jump\t// in\n    tag_102:\n      tag_103\n      jump\t// in\n        /* \"CYBCC.sol\":2278:2382  function getMarketingAccount() public view returns (address) {... */\n    tag_17:\n      callvalue\n      dup1\n      iszero\n      tag_105\n      jumpi\n      revert(0x00, 0x00)\n    tag_105:\n      pop\n        /* \"CYBCC.sol\":2357:2374  _marketingAccount */\n      and(sub(shl(0xa0, 0x01), 0x01), sload(0x12))\n        /* \"CYBCC.sol\":2278:2382  function getMarketingAccount() public view returns (address) {... */\n      jump(tag_57)\n        /* \"CYBCC.sol\":2083:2178  function reflectionFee() public view returns (uint256) {... */\n    tag_18:\n      callvalue\n      dup1\n      iszero\n      tag_109\n      jumpi\n      revert(0x00, 0x00)\n    tag_109:\n      pop\n        /* \"CYBCC.sol\":2156:2170  _reflectionFee */\n      sload(0x0e)\n        /* \"CYBCC.sol\":2083:2178  function reflectionFee() public view returns (uint256) {... */\n      jump(tag_52)\n        /* \"CYBCC.sol\":1693:1780  function owner() public view virtual returns (address) {... */\n    tag_19:\n      callvalue\n      dup1\n      iszero\n      tag_113\n      jumpi\n      revert(0x00, 0x00)\n    tag_113:\n      pop\n        /* \"CYBCC.sol\":1766:1772  _owner */\n      sload(0x0a)\n      0x0100\n      swap1\n      div\n      sub(shl(0xa0, 0x01), 0x01)\n      and\n        /* \"CYBCC.sol\":1693:1780  function owner() public view virtual returns (address) {... */\n      jump(tag_57)\n        /* \"@openzeppelin/contracts/token/ERC20/ERC20.sol\":1962:2055  function symbol() public view virtual returns (string memory) {... */\n    tag_20:\n      callvalue\n      dup1\n      iszero\n      tag_117\n      jumpi\n      revert(0x00, 0x00)\n    tag_117:\n      pop\n      tag_40\n      tag_119\n      jump\t// in\n        /* \"@openzeppelin/contracts/token/ERC20/ERC20.sol\":3296:3474  function transfer(address to, uint256 value) public virtual returns (bool) {... */\n    tag_21:\n      callvalue\n      dup1\n      iszero\n      tag_121\n      jumpi\n      revert(0x00, 0x00)\n    tag_121:\n      pop\n      tag_45\n      tag_123\n      calldatasize\n      0x04\n      tag_47\n      jump\t// in\n    tag_123:\n      tag_124\n      jump\t// in\n        /* \"CYBCC.sol\":3387:3637  function changeMarketingAccount(address newFeeAccount) public onlyOwner {... */\n    tag_22:\n      callvalue\n      dup1\n      iszero\n      tag_126\n      jumpi\n      revert(0x00, 0x00)\n    tag_126:\n      pop\n      tag_35\n      tag_128\n      calldatasize\n      0x04\n      tag_79\n      jump\t// in\n    tag_128:\n      tag_129\n      jump\t// in\n        /* \"CYBCC.sol\":2924:3034  function isExcluded(address account) public view returns (bool) {... */\n    tag_23:\n      callvalue\n      dup1\n      iszero\n      tag_130\n      jumpi\n      revert(0x00, 0x00)\n    tag_130:\n      pop\n      tag_45\n      tag_132\n      calldatasize\n      0x04\n      tag_79\n      jump\t// in\n    tag_132:\n      sub(shl(0xa0, 0x01), 0x01)\n        /* \"CYBCC.sol\":3006:3026  _isExcluded[account] */\n      and\n        /* \"CYBCC.sol\":2982:2986  bool */\n      0x00\n        /* \"CYBCC.sol\":3006:3026  _isExcluded[account] */\n      swap1\n      dup2\n      mstore\n        /* \"CYBCC.sol\":3006:3017  _isExcluded */\n      0x08\n        /* \"CYBCC.sol\":3006:3026  _isExcluded[account] */\n      0x20\n      mstore\n      0x40\n      swap1\n      keccak256\n      sload\n      0xff\n      and\n      swap1\n        /* \"CYBCC.sol\":2924:3034  function isExcluded(address account) public view returns (bool) {... */\n      jump\n        /* \"@openzeppelin/contracts/token/ERC20/ERC20.sol\":3532:3672  function allowance(address owner, address spender) public view virtual returns (uint256) {... */\n    tag_24:\n      callvalue\n      dup1\n      iszero\n      tag_135\n      jumpi\n      revert(0x00, 0x00)\n    tag_135:\n      pop\n      tag_52\n      tag_137\n      calldatasize\n      0x04\n      tag_138\n      jump\t// in\n    tag_137:\n      sub(shl(0xa0, 0x01), 0x01)\n        /* \"@openzeppelin/contracts/token/ERC20/ERC20.sol\":3638:3656  _allowances[owner] */\n      swap2\n      dup3\n      and\n        /* \"@openzeppelin/contracts/token/ERC20/ERC20.sol\":3612:3619  uint256 */\n      0x00\n        /* \"@openzeppelin/contracts/token/ERC20/ERC20.sol\":3638:3656  _allowances[owner] */\n      swap1\n      dup2\n      mstore\n        /* \"@openzeppelin/contracts/token/ERC20/ERC20.sol\":3638:3649  _allowances */\n      0x01\n        /* \"@openzeppelin/contracts/token/ERC20/ERC20.sol\":3638:3656  _allowances[owner] */\n      0x20\n      swap1\n      dup2\n      mstore\n      0x40\n      dup1\n      dup4\n      keccak256\n        /* \"@openzeppelin/contracts/token/ERC20/ERC20.sol\":3638:3665  _allowances[owner][spender] */\n      swap4\n      swap1\n      swap5\n      and\n      dup3\n      mstore\n      swap2\n      swap1\n      swap2\n      mstore\n      keccak256\n      sload\n      swap1\n        /* \"@openzeppelin/contracts/token/ERC20/ERC20.sol\":3532:3672  function allowance(address owner, address spender) public view virtual returns (uint256) {... */\n      jump\n        /* \"CYBCC.sol\":3269:3379  function includeInFee(address account) public onlyOwner {... */\n    tag_25:\n      callvalue\n      dup1\n      iszero\n      tag_141\n      jumpi\n      revert(0x00, 0x00)\n    tag_141:\n      pop\n      tag_35\n      tag_143\n      calldatasize\n      0x04\n      tag_79\n      jump\t// in\n    tag_143:\n      tag_144\n      jump\t// in\n        /* \"CYBCC.sol\":2186:2270  function getTaxFee() public view returns (uint256) {... */\n    tag_26:\n      callvalue\n      dup1\n      iszero\n      tag_145\n      jumpi\n      revert(0x00, 0x00)\n    tag_145:\n      pop\n        /* \"CYBCC.sol\":2255:2262  _taxFee */\n      sload(0x10)\n        /* \"CYBCC.sol\":2186:2270  function getTaxFee() public view returns (uint256) {... */\n      jump(tag_52)\n        /* \"CYBCC.sol\":5499:5981  function includeAccountinReward(address account) public onlyOwner {... */\n    tag_27:\n      callvalue\n      dup1\n      iszero\n      tag_149\n      jumpi\n      revert(0x00, 0x00)\n    tag_149:\n      pop\n      tag_35\n      tag_151\n      calldatasize\n      0x04\n      tag_79\n      jump\t// in\n    tag_151:\n      tag_152\n      jump\t// in\n        /* \"CYBCC.sol\":3907:4321  function reflect(uint256 tAmount) public {... */\n    tag_38:\n        /* \"@openzeppelin/contracts/utils/Context.sol\":735:745  msg.sender */\n      caller\n        /* \"CYBCC.sol\":3959:3973  address sender */\n      0x00\n        /* \"CYBCC.sol\":4022:4041  _isExcluded[sender] */\n      dup2\n      dup2\n      mstore\n        /* \"CYBCC.sol\":4022:4033  _isExcluded */\n      0x08\n        /* \"CYBCC.sol\":4022:4041  _isExcluded[sender] */\n      0x20\n      mstore\n      0x40\n      swap1\n      keccak256\n      sload\n      0xff\n      and\n        /* \"CYBCC.sol\":4021:4041  !_isExcluded[sender] */\n      iszero\n        /* \"CYBCC.sol\":3999:4113  require(... */\n      tag_156\n      jumpi\n      mload(0x40)\n      shl(0xe5, 0x461bcd)\n      dup2\n      mstore\n        /* \"#utility.yul\":3359:3361   */\n      0x20\n        /* \"CYBCC.sol\":3999:4113  require(... */\n      0x04\n      dup3\n      add\n        /* \"#utility.yul\":3341:3362   */\n      mstore\n        /* \"#utility.yul\":3398:3400   */\n      0x2c\n        /* \"#utility.yul\":3378:3396   */\n      0x24\n      dup3\n      add\n        /* \"#utility.yul\":3371:3401   */\n      mstore\n        /* \"#utility.yul\":3437:3471   */\n      0x4578636c75646564206164647265737365732063616e6e6f742063616c6c2074\n        /* \"#utility.yul\":3417:3435   */\n      0x44\n      dup3\n      add\n        /* \"#utility.yul\":3410:3472   */\n      mstore\n      shl(0xa1, 0x3434b990333ab731ba34b7b7)\n        /* \"#utility.yul\":3488:3506   */\n      0x64\n      dup3\n      add\n        /* \"#utility.yul\":3481:3523   */\n      mstore\n        /* \"#utility.yul\":3540:3559   */\n      0x84\n      add\n        /* \"CYBCC.sol\":3999:4113  require(... */\n    tag_157:\n      mload(0x40)\n      dup1\n      swap2\n      sub\n      swap1\n      revert\n    tag_156:\n        /* \"CYBCC.sol\":4125:4140  uint256 rAmount */\n      0x00\n        /* \"CYBCC.sol\":4150:4177  _getTransferValues(tAmount) */\n      tag_159\n        /* \"CYBCC.sol\":4169:4176  tAmount */\n      dup4\n        /* \"CYBCC.sol\":4150:4168  _getTransferValues */\n      tag_160\n        /* \"CYBCC.sol\":4150:4177  _getTransferValues(tAmount) */\n      jump\t// in\n    tag_159:\n      pop\n      pop\n      pop\n      sub(shl(0xa0, 0x01), 0x01)\n        /* \"CYBCC.sol\":4206:4221  _rOwned[sender] */\n      dup4\n      and\n      0x00\n      swap1\n      dup2\n      mstore\n        /* \"CYBCC.sol\":4206:4213  _rOwned */\n      0x05\n        /* \"CYBCC.sol\":4206:4221  _rOwned[sender] */\n      0x20\n      mstore\n      0x40\n      swap1\n      keccak256\n      sload\n        /* \"CYBCC.sol\":4124:4177  (uint256 rAmount, , , ) = _getTransferValues(tAmount) */\n      swap1\n      swap2\n      pop\n        /* \"CYBCC.sol\":4206:4231  _rOwned[sender] - rAmount */\n      tag_161\n      swap1\n        /* \"CYBCC.sol\":4124:4177  (uint256 rAmount, , , ) = _getTransferValues(tAmount) */\n      dup3\n      swap1\n        /* \"CYBCC.sol\":4206:4231  _rOwned[sender] - rAmount */\n      tag_162\n      jump\t// in\n    tag_161:\n      sub(shl(0xa0, 0x01), 0x01)\n        /* \"CYBCC.sol\":4188:4203  _rOwned[sender] */\n      dup4\n      and\n      0x00\n      swap1\n      dup2\n      mstore\n        /* \"CYBCC.sol\":4188:4195  _rOwned */\n      0x05\n        /* \"CYBCC.sol\":4188:4203  _rOwned[sender] */\n      0x20\n      mstore\n      0x40\n      swap1\n      keccak256\n        /* \"CYBCC.sol\":4188:4231  _rOwned[sender] = _rOwned[sender] - rAmount */\n      sstore\n        /* \"CYBCC.sol\":4252:4259  _rTotal */\n      sload(0x0c)\n        /* \"CYBCC.sol\":4252:4269  _rTotal - rAmount */\n      tag_163\n      swap1\n        /* \"CYBCC.sol\":4262:4269  rAmount */\n      dup3\n      swap1\n        /* \"CYBCC.sol\":4252:4269  _rTotal - rAmount */\n      tag_162\n      jump\t// in\n    tag_163:\n        /* \"CYBCC.sol\":4242:4249  _rTotal */\n      0x0c\n        /* \"CYBCC.sol\":4242:4269  _rTotal = _rTotal - rAmount */\n      sstore\n        /* \"CYBCC.sol\":4293:4303  _tFeeTotal */\n      sload(0x0d)\n        /* \"CYBCC.sol\":4293:4313  _tFeeTotal + tAmount */\n      tag_164\n      swap1\n        /* \"CYBCC.sol\":4306:4313  tAmount */\n      dup5\n      swap1\n        /* \"CYBCC.sol\":4293:4313  _tFeeTotal + tAmount */\n      tag_165\n      jump\t// in\n    tag_164:\n        /* \"CYBCC.sol\":4280:4290  _tFeeTotal */\n      0x0d\n        /* \"CYBCC.sol\":4280:4313  _tFeeTotal = _tFeeTotal + tAmount */\n      sstore\n      pop\n      pop\n      pop\n        /* \"CYBCC.sol\":3907:4321  function reflect(uint256 tAmount) public {... */\n      jump\t// out\n        /* \"@openzeppelin/contracts/token/ERC20/ERC20.sol\":1760:1849  function name() public view virtual returns (string memory) {... */\n    tag_41:\n        /* \"@openzeppelin/contracts/token/ERC20/ERC20.sol\":1805:1818  string memory */\n      0x60\n        /* \"@openzeppelin/contracts/token/ERC20/ERC20.sol\":1837:1842  _name */\n      0x03\n        /* \"@openzeppelin/contracts/token/ERC20/ERC20.sol\":1830:1842  return _name */\n      dup1\n      sload\n      tag_167\n      swap1\n      tag_168\n      jump\t// in\n    tag_167:\n      dup1\n      0x1f\n      add\n      0x20\n      dup1\n      swap2\n      div\n      mul\n      0x20\n      add\n      mload(0x40)\n      swap1\n      dup2\n      add\n      0x40\n      mstore\n      dup1\n      swap3\n      swap2\n      swap1\n      dup2\n      dup2\n      mstore\n      0x20\n      add\n      dup3\n      dup1\n      sload\n      tag_169\n      swap1\n      tag_168\n      jump\t// in\n    tag_169:\n      dup1\n      iszero\n      tag_170\n      jumpi\n      dup1\n      0x1f\n      lt\n      tag_171\n      jumpi\n      0x0100\n      dup1\n      dup4\n      sload\n      div\n      mul\n      dup4\n      mstore\n      swap2\n      0x20\n      add\n      swap2\n      jump(tag_170)\n    tag_171:\n      dup3\n      add\n      swap2\n      swap1\n      0x00\n      mstore\n      keccak256(0x00, 0x20)\n      swap1\n    tag_172:\n      dup2\n      sload\n      dup2\n      mstore\n      swap1\n      0x01\n      add\n      swap1\n      0x20\n      add\n      dup1\n      dup4\n      gt\n      tag_172\n      jumpi\n      dup3\n      swap1\n      sub\n      0x1f\n      and\n      dup3\n      add\n      swap2\n    tag_170:\n      pop\n      pop\n      pop\n      pop\n      pop\n      swap1\n      pop\n        /* \"@openzeppelin/contracts/token/ERC20/ERC20.sol\":1760:1849  function name() public view virtual returns (string memory) {... */\n      swap1\n      jump\t// out\n        /* \"@openzeppelin/contracts/token/ERC20/ERC20.sol\":3979:4165  function approve(address spender, uint256 value) public virtual returns (bool) {... */\n    tag_48:\n        /* \"@openzeppelin/contracts/token/ERC20/ERC20.sol\":4052:4056  bool */\n      0x00\n        /* \"@openzeppelin/contracts/utils/Context.sol\":735:745  msg.sender */\n      caller\n        /* \"@openzeppelin/contracts/token/ERC20/ERC20.sol\":4106:4137  _approve(owner, spender, value) */\n      tag_175\n        /* \"@openzeppelin/contracts/utils/Context.sol\":735:745  msg.sender */\n      dup2\n        /* \"@openzeppelin/contracts/token/ERC20/ERC20.sol\":4122:4129  spender */\n      dup6\n        /* \"@openzeppelin/contracts/token/ERC20/ERC20.sol\":4131:4136  value */\n      dup6\n        /* \"@openzeppelin/contracts/token/ERC20/ERC20.sol\":4106:4114  _approve */\n      tag_176\n        /* \"@openzeppelin/contracts/token/ERC20/ERC20.sol\":4106:4137  _approve(owner, spender, value) */\n      jump\t// in\n    tag_175:\n        /* \"@openzeppelin/contracts/token/ERC20/ERC20.sol\":4154:4158  true */\n      0x01\n        /* \"@openzeppelin/contracts/token/ERC20/ERC20.sol\":4147:4158  return true */\n      swap2\n      pop\n      pop\n        /* \"@openzeppelin/contracts/token/ERC20/ERC20.sol\":3979:4165  function approve(address spender, uint256 value) public virtual returns (bool) {... */\n    tag_173:\n      swap3\n      swap2\n      pop\n      pop\n      jump\t// out\n        /* \"@openzeppelin/contracts/token/ERC20/ERC20.sol\":4757:5001  function transferFrom(address from, address to, uint256 value) public virtual returns (bool) {... */\n    tag_65:\n        /* \"@openzeppelin/contracts/token/ERC20/ERC20.sol\":4844:4848  bool */\n      0x00\n        /* \"@openzeppelin/contracts/utils/Context.sol\":735:745  msg.sender */\n      caller\n        /* \"@openzeppelin/contracts/token/ERC20/ERC20.sol\":4900:4937  _spendAllowance(from, spender, value) */\n      tag_181\n        /* \"@openzeppelin/contracts/token/ERC20/ERC20.sol\":4916:4920  from */\n      dup6\n        /* \"@openzeppelin/contracts/utils/Context.sol\":735:745  msg.sender */\n      dup3\n        /* \"@openzeppelin/contracts/token/ERC20/ERC20.sol\":4931:4936  value */\n      dup6\n        /* \"@openzeppelin/contracts/token/ERC20/ERC20.sol\":4900:4915  _spendAllowance */\n      tag_182\n        /* \"@openzeppelin/contracts/token/ERC20/ERC20.sol\":4900:4937  _spendAllowance(from, spender, value) */\n      jump\t// in\n    tag_181:\n        /* \"@openzeppelin/contracts/token/ERC20/ERC20.sol\":4947:4973  _transfer(from, to, value) */\n      tag_183\n        /* \"@openzeppelin/contracts/token/ERC20/ERC20.sol\":4957:4961  from */\n      dup6\n        /* \"@openzeppelin/contracts/token/ERC20/ERC20.sol\":4963:4965  to */\n      dup6\n        /* \"@openzeppelin/contracts/token/ERC20/ERC20.sol\":4967:4972  value */\n      dup6\n        /* \"@openzeppelin/contracts/token/ERC20/ERC20.sol\":4947:4956  _transfer */\n      tag_184\n        /* \"@openzeppelin/contracts/token/ERC20/ERC20.sol\":4947:4973  _transfer(from, to, value) */\n      jump\t// in\n    tag_183:\n      pop\n        /* \"@openzeppelin/contracts/token/ERC20/ERC20.sol\":4990:4994  true */\n      0x01\n      swap5\n        /* \"@openzeppelin/contracts/token/ERC20/ERC20.sol\":4757:5001  function transferFrom(address from, address to, uint256 value) public virtual returns (bool) {... */\n      swap4\n      pop\n      pop\n      pop\n      pop\n      jump\t// out\n        /* \"CYBCC.sol\":3150:3261  function excludeFromFee(address account) public onlyOwner {... */\n    tag_80:\n        /* \"CYBCC.sol\":1766:1772  _owner */\n      sload(0x0a)\n        /* \"CYBCC.sol\":1835:1845  msg.sender */\n      caller\n      swap1\n        /* \"CYBCC.sol\":1766:1772  _owner */\n      0x0100\n      swap1\n      div\n      sub(shl(0xa0, 0x01), 0x01)\n      and\n      sub(shl(0xa0, 0x01), 0x01)\n        /* \"CYBCC.sol\":1824:1845  owner() == msg.sender */\n      and\n      sub\n        /* \"CYBCC.sol\":1820:1848  if (owner() == msg.sender) _ */\n      tag_189\n      jumpi\n      sub(shl(0xa0, 0x01), 0x01)\n        /* \"CYBCC.sol\":3219:3246  _isExcludedFromFee[account] */\n      dup2\n      and\n      0x00\n      swap1\n      dup2\n      mstore\n        /* \"CYBCC.sol\":3219:3237  _isExcludedFromFee */\n      0x07\n        /* \"CYBCC.sol\":3219:3246  _isExcludedFromFee[account] */\n      0x20\n      mstore\n      0x40\n      swap1\n      keccak256\n        /* \"CYBCC.sol\":3219:3253  _isExcludedFromFee[account] = true */\n      dup1\n      sload\n      not(0xff)\n      and\n        /* \"CYBCC.sol\":3249:3253  true */\n      0x01\n        /* \"CYBCC.sol\":3219:3253  _isExcludedFromFee[account] = true */\n      or\n      swap1\n      sstore\n        /* \"CYBCC.sol\":1820:1848  if (owner() == msg.sender) _ */\n    tag_189:\n        /* \"CYBCC.sol\":3150:3261  function excludeFromFee(address account) public onlyOwner {... */\n      pop\n      jump\t// out\n        /* \"CYBCC.sol\":4329:4816  function reflectionFromToken(uint256 tAmount, bool deductTransferFee)... */\n    tag_85:\n        /* \"CYBCC.sol\":4447:4454  uint256 */\n      0x00\n        /* \"CYBCC.sol\":4491:4498  _tTotal */\n      sload(0x0b)\n        /* \"CYBCC.sol\":4480:4487  tAmount */\n      dup4\n        /* \"CYBCC.sol\":4480:4498  tAmount <= _tTotal */\n      gt\n      iszero\n        /* \"CYBCC.sol\":4472:4534  require(tAmount <= _tTotal, \"Amount must be less than supply\") */\n      tag_192\n      jumpi\n      mload(0x40)\n      shl(0xe5, 0x461bcd)\n      dup2\n      mstore\n        /* \"#utility.yul\":4552:4554   */\n      0x20\n        /* \"CYBCC.sol\":4472:4534  require(tAmount <= _tTotal, \"Amount must be less than supply\") */\n      0x04\n      dup3\n      add\n        /* \"#utility.yul\":4534:4555   */\n      mstore\n        /* \"#utility.yul\":4591:4593   */\n      0x1f\n        /* \"#utility.yul\":4571:4589   */\n      0x24\n      dup3\n      add\n        /* \"#utility.yul\":4564:4594   */\n      mstore\n        /* \"#utility.yul\":4630:4663   */\n      0x416d6f756e74206d757374206265206c657373207468616e20737570706c7900\n        /* \"#utility.yul\":4610:4628   */\n      0x44\n      dup3\n      add\n        /* \"#utility.yul\":4603:4664   */\n      mstore\n        /* \"#utility.yul\":4681:4699   */\n      0x64\n      add\n        /* \"CYBCC.sol\":4472:4534  require(tAmount <= _tTotal, \"Amount must be less than supply\") */\n      tag_157\n        /* \"#utility.yul\":4350:4705   */\n      jump\n        /* \"CYBCC.sol\":4472:4534  require(tAmount <= _tTotal, \"Amount must be less than supply\") */\n    tag_192:\n        /* \"CYBCC.sol\":4550:4567  deductTransferFee */\n      dup2\n        /* \"CYBCC.sol\":4545:4809  if (!deductTransferFee) {... */\n      tag_195\n      jumpi\n        /* \"CYBCC.sol\":4585:4600  uint256 rAmount */\n      0x00\n        /* \"CYBCC.sol\":4610:4637  _getTransferValues(tAmount) */\n      tag_196\n        /* \"CYBCC.sol\":4629:4636  tAmount */\n      dup5\n        /* \"CYBCC.sol\":4610:4628  _getTransferValues */\n      tag_160\n        /* \"CYBCC.sol\":4610:4637  _getTransferValues(tAmount) */\n      jump\t// in\n    tag_196:\n      pop\n        /* \"CYBCC.sol\":4584:4637  (uint256 rAmount, , , ) = _getTransferValues(tAmount) */\n      swap2\n      swap4\n      pop\n        /* \"CYBCC.sol\":4652:4666  return rAmount */\n      tag_173\n      swap3\n      pop\n      pop\n      pop\n      jump\n        /* \"CYBCC.sol\":4545:4809  if (!deductTransferFee) {... */\n    tag_195:\n        /* \"CYBCC.sol\":4702:4725  uint256 rTransferAmount */\n      0x00\n        /* \"CYBCC.sol\":4733:4760  _getTransferValues(tAmount) */\n      tag_198\n        /* \"CYBCC.sol\":4752:4759  tAmount */\n      dup5\n        /* \"CYBCC.sol\":4733:4751  _getTransferValues */\n      tag_160\n        /* \"CYBCC.sol\":4733:4760  _getTransferValues(tAmount) */\n      jump\t// in\n    tag_198:\n      pop\n        /* \"CYBCC.sol\":4699:4760  (, uint256 rTransferAmount, , ) = _getTransferValues(tAmount) */\n      swap1\n      swap4\n      pop\n        /* \"CYBCC.sol\":4775:4797  return rTransferAmount */\n      tag_173\n      swap3\n      pop\n      pop\n      pop\n      jump\n        /* \"CYBCC.sol\":5152:5491  function excludeAccountFromReward(address account) public onlyOwner {... */\n    tag_95:\n        /* \"CYBCC.sol\":1766:1772  _owner */\n      sload(0x0a)\n        /* \"CYBCC.sol\":1835:1845  msg.sender */\n      caller\n      swap1\n        /* \"CYBCC.sol\":1766:1772  _owner */\n      0x0100\n      swap1\n      div\n      sub(shl(0xa0, 0x01), 0x01)\n      and\n      sub(shl(0xa0, 0x01), 0x01)\n        /* \"CYBCC.sol\":1824:1845  owner() == msg.sender */\n      and\n      sub\n        /* \"CYBCC.sol\":1820:1848  if (owner() == msg.sender) _ */\n      tag_189\n      jumpi\n      sub(shl(0xa0, 0x01), 0x01)\n        /* \"CYBCC.sol\":5240:5260  _isExcluded[account] */\n      dup2\n      and\n      0x00\n      swap1\n      dup2\n      mstore\n        /* \"CYBCC.sol\":5240:5251  _isExcluded */\n      0x08\n        /* \"CYBCC.sol\":5240:5260  _isExcluded[account] */\n      0x20\n      mstore\n      0x40\n      swap1\n      keccak256\n      sload\n      0xff\n      and\n        /* \"CYBCC.sol\":5239:5260  !_isExcluded[account] */\n      iszero\n        /* \"CYBCC.sol\":5231:5292  require(!_isExcluded[account], \"Account is already excluded\") */\n      tag_204\n      jumpi\n      mload(0x40)\n      shl(0xe5, 0x461bcd)\n      dup2\n      mstore\n        /* \"#utility.yul\":4912:4914   */\n      0x20\n        /* \"CYBCC.sol\":5231:5292  require(!_isExcluded[account], \"Account is already excluded\") */\n      0x04\n      dup3\n      add\n        /* \"#utility.yul\":4894:4915   */\n      mstore\n        /* \"#utility.yul\":4951:4953   */\n      0x1b\n        /* \"#utility.yul\":4931:4949   */\n      0x24\n      dup3\n      add\n        /* \"#utility.yul\":4924:4954   */\n      mstore\n        /* \"#utility.yul\":4990:5019   */\n      0x4163636f756e7420697320616c7265616479206578636c756465640000000000\n        /* \"#utility.yul\":4970:4988   */\n      0x44\n      dup3\n      add\n        /* \"#utility.yul\":4963:5020   */\n      mstore\n        /* \"#utility.yul\":5037:5055   */\n      0x64\n      add\n        /* \"CYBCC.sol\":5231:5292  require(!_isExcluded[account], \"Account is already excluded\") */\n      tag_157\n        /* \"#utility.yul\":4710:5061   */\n      jump\n        /* \"CYBCC.sol\":5231:5292  require(!_isExcluded[account], \"Account is already excluded\") */\n    tag_204:\n      sub(shl(0xa0, 0x01), 0x01)\n        /* \"CYBCC.sol\":5307:5323  _rOwned[account] */\n      dup2\n      and\n        /* \"CYBCC.sol\":5326:5327  0 */\n      0x00\n        /* \"CYBCC.sol\":5307:5323  _rOwned[account] */\n      swap1\n      dup2\n      mstore\n        /* \"CYBCC.sol\":5307:5314  _rOwned */\n      0x05\n        /* \"CYBCC.sol\":5307:5323  _rOwned[account] */\n      0x20\n      mstore\n      0x40\n      swap1\n      keccak256\n      sload\n        /* \"CYBCC.sol\":5307:5327  _rOwned[account] > 0 */\n      iszero\n        /* \"CYBCC.sol\":5303:5412  if (_rOwned[account] > 0) {... */\n      tag_207\n      jumpi\n      sub(shl(0xa0, 0x01), 0x01)\n        /* \"CYBCC.sol\":5383:5399  _rOwned[account] */\n      dup2\n      and\n      0x00\n      swap1\n      dup2\n      mstore\n        /* \"CYBCC.sol\":5383:5390  _rOwned */\n      0x05\n        /* \"CYBCC.sol\":5383:5399  _rOwned[account] */\n      0x20\n      mstore\n      0x40\n      swap1\n      keccak256\n      sload\n        /* \"CYBCC.sol\":5363:5400  tokenFromReflection(_rOwned[account]) */\n      tag_208\n      swap1\n        /* \"CYBCC.sol\":5363:5382  tokenFromReflection */\n      tag_209\n        /* \"CYBCC.sol\":5363:5400  tokenFromReflection(_rOwned[account]) */\n      jump\t// in\n    tag_208:\n      sub(shl(0xa0, 0x01), 0x01)\n        /* \"CYBCC.sol\":5344:5360  _tOwned[account] */\n      dup3\n      and\n      0x00\n      swap1\n      dup2\n      mstore\n        /* \"CYBCC.sol\":5344:5351  _tOwned */\n      0x06\n        /* \"CYBCC.sol\":5344:5360  _tOwned[account] */\n      0x20\n      mstore\n      0x40\n      swap1\n      keccak256\n        /* \"CYBCC.sol\":5344:5400  _tOwned[account] = tokenFromReflection(_rOwned[account]) */\n      sstore\n        /* \"CYBCC.sol\":5303:5412  if (_rOwned[account] > 0) {... */\n    tag_207:\n      sub(shl(0xa0, 0x01), 0x01)\n        /* \"CYBCC.sol\":5422:5442  _isExcluded[account] */\n      and\n      0x00\n      dup2\n      dup2\n      mstore\n        /* \"CYBCC.sol\":5422:5433  _isExcluded */\n      0x08\n        /* \"CYBCC.sol\":5422:5442  _isExcluded[account] */\n      0x20\n      mstore\n      0x40\n      dup2\n      keccak256\n        /* \"CYBCC.sol\":5422:5449  _isExcluded[account] = true */\n      dup1\n      sload\n      not(0xff)\n      and\n        /* \"CYBCC.sol\":5445:5449  true */\n      0x01\n        /* \"CYBCC.sol\":5422:5449  _isExcluded[account] = true */\n      swap1\n      dup2\n      or\n      swap1\n      swap2\n      sstore\n        /* \"CYBCC.sol\":5460:5469  _excluded */\n      0x09\n        /* \"CYBCC.sol\":5460:5483  _excluded.push(account) */\n      dup1\n      sload\n      swap2\n      dup3\n      add\n      dup2\n      sstore\n      swap1\n      swap2\n      mstore\n      0x6e1540171b6c0c960b71a7020d9f60077f6af931a8bbf590da0223dacf75c7af\n      add\n      dup1\n      sload\n      not(sub(shl(0xa0, 0x01), 0x01))\n      and\n      swap1\n      swap2\n      or\n      swap1\n      sstore\n        /* \"CYBCC.sol\":5152:5491  function excludeAccountFromReward(address account) public onlyOwner {... */\n      jump\t// out\n        /* \"CYBCC.sol\":3645:3899  function changeDevelopmentAccount(address newFeeAccount) public onlyOwner {... */\n    tag_99:\n        /* \"CYBCC.sol\":1766:1772  _owner */\n      sload(0x0a)\n        /* \"CYBCC.sol\":1835:1845  msg.sender */\n      caller\n      swap1\n        /* \"CYBCC.sol\":1766:1772  _owner */\n      0x0100\n      swap1\n      div\n      sub(shl(0xa0, 0x01), 0x01)\n      and\n      sub(shl(0xa0, 0x01), 0x01)\n        /* \"CYBCC.sol\":1824:1845  owner() == msg.sender */\n      and\n      sub\n        /* \"CYBCC.sol\":1820:1848  if (owner() == msg.sender) _ */\n      tag_189\n      jumpi\n      sub(shl(0xa0, 0x01), 0x01)\n        /* \"CYBCC.sol\":3752:3779  newFeeAccount != address(0) */\n      dup2\n      and\n        /* \"CYBCC.sol\":3730:3845  require(... */\n      tag_215\n      jumpi\n      mload(0x40)\n      shl(0xe5, 0x461bcd)\n      dup2\n      mstore\n      0x04\n      add\n      tag_157\n      swap1\n      tag_217\n      jump\t// in\n    tag_215:\n        /* \"CYBCC.sol\":3856:3875  _developmentAccount */\n      0x13\n        /* \"CYBCC.sol\":3856:3891  _developmentAccount = newFeeAccount */\n      dup1\n      sload\n      sub(shl(0xa0, 0x01), 0x01)\n      dup4\n      and\n      not(sub(shl(0xa0, 0x01), 0x01))\n      swap1\n      swap2\n      and\n      or\n      swap1\n      sstore\n        /* \"CYBCC.sol\":3645:3899  function changeDevelopmentAccount(address newFeeAccount) public onlyOwner {... */\n      pop\n      jump\t// out\n        /* \"CYBCC.sol\":2638:2916  function balanceOf(address sender)... */\n    tag_103:\n      sub(shl(0xa0, 0x01), 0x01)\n        /* \"CYBCC.sol\":2785:2804  _isExcluded[sender] */\n      dup2\n      and\n        /* \"CYBCC.sol\":2756:2763  uint256 */\n      0x00\n        /* \"CYBCC.sol\":2785:2804  _isExcluded[sender] */\n      swap1\n      dup2\n      mstore\n        /* \"CYBCC.sol\":2785:2796  _isExcluded */\n      0x08\n        /* \"CYBCC.sol\":2785:2804  _isExcluded[sender] */\n      0x20\n      mstore\n      0x40\n      dup2\n      keccak256\n      sload\n      0xff\n      and\n        /* \"CYBCC.sol\":2781:2855  if (_isExcluded[sender]) {... */\n      iszero\n      tag_219\n      jumpi\n      pop\n      sub(shl(0xa0, 0x01), 0x01)\n        /* \"CYBCC.sol\":2828:2843  _tOwned[sender] */\n      and\n      0x00\n      swap1\n      dup2\n      mstore\n        /* \"CYBCC.sol\":2828:2835  _tOwned */\n      0x06\n        /* \"CYBCC.sol\":2828:2843  _tOwned[sender] */\n      0x20\n      mstore\n      0x40\n      swap1\n      keccak256\n      sload\n      swap1\n        /* \"CYBCC.sol\":2638:2916  function balanceOf(address sender)... */\n      jump\t// out\n        /* \"CYBCC.sol\":2781:2855  if (_isExcluded[sender]) {... */\n    tag_219:\n      sub(shl(0xa0, 0x01), 0x01)\n        /* \"CYBCC.sol\":2892:2907  _rOwned[sender] */\n      dup3\n      and\n      0x00\n      swap1\n      dup2\n      mstore\n        /* \"CYBCC.sol\":2892:2899  _rOwned */\n      0x05\n        /* \"CYBCC.sol\":2892:2907  _rOwned[sender] */\n      0x20\n      mstore\n      0x40\n      swap1\n      keccak256\n      sload\n        /* \"CYBCC.sol\":2872:2908  tokenFromReflection(_rOwned[sender]) */\n      tag_173\n      swap1\n        /* \"CYBCC.sol\":2872:2891  tokenFromReflection */\n      tag_209\n        /* \"CYBCC.sol\":2872:2908  tokenFromReflection(_rOwned[sender]) */\n      jump\t// in\n        /* \"@openzeppelin/contracts/token/ERC20/ERC20.sol\":1962:2055  function symbol() public view virtual returns (string memory) {... */\n    tag_119:\n        /* \"@openzeppelin/contracts/token/ERC20/ERC20.sol\":2009:2022  string memory */\n      0x60\n        /* \"@openzeppelin/contracts/token/ERC20/ERC20.sol\":2041:2048  _symbol */\n      0x04\n        /* \"@openzeppelin/contracts/token/ERC20/ERC20.sol\":2034:2048  return _symbol */\n      dup1\n      sload\n      tag_167\n      swap1\n      tag_168\n      jump\t// in\n        /* \"@openzeppelin/contracts/token/ERC20/ERC20.sol\":3296:3474  function transfer(address to, uint256 value) public virtual returns (bool) {... */\n    tag_124:\n        /* \"@openzeppelin/contracts/token/ERC20/ERC20.sol\":3365:3369  bool */\n      0x00\n        /* \"@openzeppelin/contracts/utils/Context.sol\":735:745  msg.sender */\n      caller\n        /* \"@openzeppelin/contracts/token/ERC20/ERC20.sol\":3419:3446  _transfer(owner, to, value) */\n      tag_175\n        /* \"@openzeppelin/contracts/utils/Context.sol\":735:745  msg.sender */\n      dup2\n        /* \"@openzeppelin/contracts/token/ERC20/ERC20.sol\":3436:3438  to */\n      dup6\n        /* \"@openzeppelin/contracts/token/ERC20/ERC20.sol\":3440:3445  value */\n      dup6\n        /* \"@openzeppelin/contracts/token/ERC20/ERC20.sol\":3419:3428  _transfer */\n      tag_184\n        /* \"@openzeppelin/contracts/token/ERC20/ERC20.sol\":3419:3446  _transfer(owner, to, value) */\n      jump\t// in\n        /* \"CYBCC.sol\":3387:3637  function changeMarketingAccount(address newFeeAccount) public onlyOwner {... */\n    tag_129:\n        /* \"CYBCC.sol\":1766:1772  _owner */\n      sload(0x0a)\n        /* \"CYBCC.sol\":1835:1845  msg.sender */\n      caller\n      swap1\n        /* \"CYBCC.sol\":1766:1772  _owner */\n      0x0100\n      swap1\n      div\n      sub(shl(0xa0, 0x01), 0x01)\n      and\n      sub(shl(0xa0, 0x01), 0x01)\n        /* \"CYBCC.sol\":1824:1845  owner() == msg.sender */\n      and\n      sub\n        /* \"CYBCC.sol\":1820:1848  if (owner() == msg.sender) _ */\n      tag_189\n      jumpi\n      sub(shl(0xa0, 0x01), 0x01)\n        /* \"CYBCC.sol\":3492:3519  newFeeAccount != address(0) */\n      dup2\n      and\n        /* \"CYBCC.sol\":3470:3585  require(... */\n      tag_237\n      jumpi\n      mload(0x40)\n      shl(0xe5, 0x461bcd)\n      dup2\n      mstore\n      0x04\n      add\n      tag_157\n      swap1\n      tag_217\n      jump\t// in\n    tag_237:\n        /* \"CYBCC.sol\":3596:3613  _marketingAccount */\n      0x12\n        /* \"CYBCC.sol\":3596:3629  _marketingAccount = newFeeAccount */\n      dup1\n      sload\n      sub(shl(0xa0, 0x01), 0x01)\n      dup4\n      and\n      not(sub(shl(0xa0, 0x01), 0x01))\n      swap1\n      swap2\n      and\n      or\n      swap1\n      sstore\n        /* \"CYBCC.sol\":3387:3637  function changeMarketingAccount(address newFeeAccount) public onlyOwner {... */\n      pop\n      jump\t// out\n        /* \"CYBCC.sol\":3269:3379  function includeInFee(address account) public onlyOwner {... */\n    tag_144:\n        /* \"CYBCC.sol\":1766:1772  _owner */\n      sload(0x0a)\n        /* \"CYBCC.sol\":1835:1845  msg.sender */\n      caller\n      swap1\n        /* \"CYBCC.sol\":1766:1772  _owner */\n      0x0100\n      swap1\n      div\n      sub(shl(0xa0, 0x01), 0x01)\n      and\n      sub(shl(0xa0, 0x01), 0x01)\n        /* \"CYBCC.sol\":1824:1845  owner() == msg.sender */\n      and\n      sub\n        /* \"CYBCC.sol\":1820:1848  if (owner() == msg.sender) _ */\n      tag_189\n      jumpi\n      sub(shl(0xa0, 0x01), 0x01)\n        /* \"CYBCC.sol\":3336:3363  _isExcludedFromFee[account] */\n      and\n        /* \"CYBCC.sol\":3366:3371  false */\n      0x00\n        /* \"CYBCC.sol\":3336:3363  _isExcludedFromFee[account] */\n      swap1\n      dup2\n      mstore\n        /* \"CYBCC.sol\":3336:3354  _isExcludedFromFee */\n      0x07\n        /* \"CYBCC.sol\":3336:3363  _isExcludedFromFee[account] */\n      0x20\n      mstore\n      0x40\n      swap1\n      keccak256\n        /* \"CYBCC.sol\":3336:3371  _isExcludedFromFee[account] = false */\n      dup1\n      sload\n      not(0xff)\n      and\n      swap1\n      sstore\n        /* \"CYBCC.sol\":3269:3379  function includeInFee(address account) public onlyOwner {... */\n      jump\t// out\n        /* \"CYBCC.sol\":5499:5981  function includeAccountinReward(address account) public onlyOwner {... */\n    tag_152:\n        /* \"CYBCC.sol\":1766:1772  _owner */\n      sload(0x0a)\n        /* \"CYBCC.sol\":1835:1845  msg.sender */\n      caller\n      swap1\n        /* \"CYBCC.sol\":1766:1772  _owner */\n      0x0100\n      swap1\n      div\n      sub(shl(0xa0, 0x01), 0x01)\n      and\n      sub(shl(0xa0, 0x01), 0x01)\n        /* \"CYBCC.sol\":1824:1845  owner() == msg.sender */\n      and\n      sub\n        /* \"CYBCC.sol\":1820:1848  if (owner() == msg.sender) _ */\n      tag_189\n      jumpi\n      sub(shl(0xa0, 0x01), 0x01)\n        /* \"CYBCC.sol\":5584:5604  _isExcluded[account] */\n      dup2\n      and\n      0x00\n      swap1\n      dup2\n      mstore\n        /* \"CYBCC.sol\":5584:5595  _isExcluded */\n      0x08\n        /* \"CYBCC.sol\":5584:5604  _isExcluded[account] */\n      0x20\n      mstore\n      0x40\n      swap1\n      keccak256\n      sload\n      0xff\n      and\n        /* \"CYBCC.sol\":5576:5636  require(_isExcluded[account], \"Account is already included\") */\n      tag_250\n      jumpi\n      mload(0x40)\n      shl(0xe5, 0x461bcd)\n      dup2\n      mstore\n        /* \"#utility.yul\":5675:5677   */\n      0x20\n        /* \"CYBCC.sol\":5576:5636  require(_isExcluded[account], \"Account is already included\") */\n      0x04\n      dup3\n      add\n        /* \"#utility.yul\":5657:5678   */\n      mstore\n        /* \"#utility.yul\":5714:5716   */\n      0x1b\n        /* \"#utility.yul\":5694:5712   */\n      0x24\n      dup3\n      add\n        /* \"#utility.yul\":5687:5717   */\n      mstore\n        /* \"#utility.yul\":5753:5782   */\n      0x4163636f756e7420697320616c726561647920696e636c756465640000000000\n        /* \"#utility.yul\":5733:5751   */\n      0x44\n      dup3\n      add\n        /* \"#utility.yul\":5726:5783   */\n      mstore\n        /* \"#utility.yul\":5800:5818   */\n      0x64\n      add\n        /* \"CYBCC.sol\":5576:5636  require(_isExcluded[account], \"Account is already included\") */\n      tag_157\n        /* \"#utility.yul\":5473:5824   */\n      jump\n        /* \"CYBCC.sol\":5576:5636  require(_isExcluded[account], \"Account is already included\") */\n    tag_250:\n        /* \"CYBCC.sol\":5652:5661  uint256 i */\n      0x00\n        /* \"CYBCC.sol\":5647:5974  for (uint256 i = 0; i < _excluded.length; i++) {... */\n    tag_253:\n        /* \"CYBCC.sol\":5671:5680  _excluded */\n      0x09\n        /* \"CYBCC.sol\":5671:5687  _excluded.length */\n      sload\n        /* \"CYBCC.sol\":5667:5687  i < _excluded.length */\n      dup2\n      lt\n        /* \"CYBCC.sol\":5647:5974  for (uint256 i = 0; i < _excluded.length; i++) {... */\n      iszero\n      tag_254\n      jumpi\n        /* \"CYBCC.sol\":5729:5736  account */\n      dup2\n      sub(shl(0xa0, 0x01), 0x01)\n        /* \"CYBCC.sol\":5713:5736  _excluded[i] == account */\n      and\n        /* \"CYBCC.sol\":5713:5722  _excluded */\n      0x09\n        /* \"CYBCC.sol\":5723:5724  i */\n      dup3\n        /* \"CYBCC.sol\":5713:5725  _excluded[i] */\n      dup2\n      sload\n      dup2\n      lt\n      tag_257\n      jumpi\n      tag_257\n      tag_258\n      jump\t// in\n    tag_257:\n      0x00\n      swap2\n      dup3\n      mstore\n      0x20\n      swap1\n      swap2\n      keccak256\n      add\n      sload\n      sub(shl(0xa0, 0x01), 0x01)\n      and\n        /* \"CYBCC.sol\":5713:5736  _excluded[i] == account */\n      sub\n        /* \"CYBCC.sol\":5709:5963  if (_excluded[i] == account) {... */\n      tag_260\n      jumpi\n        /* \"CYBCC.sol\":5772:5781  _excluded */\n      0x09\n        /* \"CYBCC.sol\":5782:5798  _excluded.length */\n      dup1\n      sload\n        /* \"CYBCC.sol\":5782:5802  _excluded.length - 1 */\n      tag_261\n      swap1\n        /* \"CYBCC.sol\":5801:5802  1 */\n      0x01\n      swap1\n        /* \"CYBCC.sol\":5782:5802  _excluded.length - 1 */\n      tag_162\n      jump\t// in\n    tag_261:\n        /* \"CYBCC.sol\":5772:5803  _excluded[_excluded.length - 1] */\n      dup2\n      sload\n      dup2\n      lt\n      tag_263\n      jumpi\n      tag_263\n      tag_258\n      jump\t// in\n    tag_263:\n      0x00\n      swap2\n      dup3\n      mstore\n      0x20\n      swap1\n      swap2\n      keccak256\n      add\n      sload\n        /* \"CYBCC.sol\":5757:5766  _excluded */\n      0x09\n        /* \"CYBCC.sol\":5757:5769  _excluded[i] */\n      dup1\n      sload\n      sub(shl(0xa0, 0x01), 0x01)\n        /* \"CYBCC.sol\":5772:5803  _excluded[_excluded.length - 1] */\n      swap1\n      swap3\n      and\n      swap2\n        /* \"CYBCC.sol\":5767:5768  i */\n      dup4\n      swap1\n        /* \"CYBCC.sol\":5757:5769  _excluded[i] */\n      dup2\n      lt\n      tag_266\n      jumpi\n      tag_266\n      tag_258\n      jump\t// in\n    tag_266:\n      0x00\n      swap2\n      dup3\n      mstore\n      0x20\n      dup1\n      dup4\n      keccak256\n      swap2\n      swap1\n      swap2\n      add\n        /* \"CYBCC.sol\":5757:5803  _excluded[i] = _excluded[_excluded.length - 1] */\n      dup1\n      sload\n      not(sub(shl(0xa0, 0x01), 0x01))\n      and\n      sub(shl(0xa0, 0x01), 0x01)\n      swap5\n      dup6\n      and\n      or\n      swap1\n      sstore\n        /* \"CYBCC.sol\":5822:5838  _tOwned[account] */\n      swap2\n      dup5\n      and\n      dup2\n      mstore\n        /* \"CYBCC.sol\":5822:5829  _tOwned */\n      0x06\n        /* \"CYBCC.sol\":5822:5838  _tOwned[account] */\n      dup3\n      mstore\n      0x40\n      dup1\n      dup3\n      keccak256\n        /* \"CYBCC.sol\":5822:5842  _tOwned[account] = 0 */\n      dup3\n      swap1\n      sstore\n        /* \"CYBCC.sol\":5861:5872  _isExcluded */\n      0x08\n        /* \"CYBCC.sol\":5861:5881  _isExcluded[account] */\n      swap1\n      swap3\n      mstore\n      keccak256\n        /* \"CYBCC.sol\":5861:5889  _isExcluded[account] = false */\n      dup1\n      sload\n      not(0xff)\n      and\n      swap1\n      sstore\n        /* \"CYBCC.sol\":5908:5917  _excluded */\n      0x09\n        /* \"CYBCC.sol\":5908:5923  _excluded.pop() */\n      dup1\n      sload\n      dup1\n      tag_269\n      jumpi\n      tag_269\n      tag_270\n      jump\t// in\n    tag_269:\n      0x00\n      dup3\n      dup2\n      mstore\n      0x20\n      swap1\n      keccak256\n      dup2\n      add\n      not(0x00)\n      swap1\n      dup2\n      add\n      dup1\n      sload\n      not(sub(shl(0xa0, 0x01), 0x01))\n      and\n      swap1\n      sstore\n      add\n      swap1\n      sstore\n        /* \"CYBCC.sol\":5647:5974  for (uint256 i = 0; i < _excluded.length; i++) {... */\n      pop\n        /* \"CYBCC.sol\":5499:5981  function includeAccountinReward(address account) public onlyOwner {... */\n      pop\n      jump\t// out\n        /* \"CYBCC.sol\":5709:5963  if (_excluded[i] == account) {... */\n    tag_260:\n        /* \"CYBCC.sol\":5689:5692  i++ */\n      0x01\n      add\n        /* \"CYBCC.sol\":5647:5974  for (uint256 i = 0; i < _excluded.length; i++) {... */\n      jump(tag_253)\n    tag_254:\n      pop\n        /* \"CYBCC.sol\":5499:5981  function includeAccountinReward(address account) public onlyOwner {... */\n      pop\n      jump\t// out\n        /* \"CYBCC.sol\":10997:11550  function _getTransferValues(uint256 tAmount)... */\n    tag_160:\n        /* \"CYBCC.sol\":11105:11112  uint256 */\n      0x00\n        /* \"CYBCC.sol\":11127:11134  uint256 */\n      0x00\n        /* \"CYBCC.sol\":11149:11156  uint256 */\n      0x00\n        /* \"CYBCC.sol\":11171:11178  uint256 */\n      0x00\n        /* \"CYBCC.sol\":11206:11222  uint256 taxValue */\n      0x00\n        /* \"CYBCC.sol\":11225:11254  _getCompleteTaxValue(tAmount) */\n      tag_274\n        /* \"CYBCC.sol\":11246:11253  tAmount */\n      dup7\n        /* \"CYBCC.sol\":11225:11245  _getCompleteTaxValue */\n      tag_275\n        /* \"CYBCC.sol\":11225:11254  _getCompleteTaxValue(tAmount) */\n      jump\t// in\n    tag_274:\n        /* \"CYBCC.sol\":11206:11254  uint256 taxValue = _getCompleteTaxValue(tAmount) */\n      swap1\n      pop\n        /* \"CYBCC.sol\":11265:11288  uint256 tTransferAmount */\n      0x00\n        /* \"CYBCC.sol\":11291:11309  tAmount - taxValue */\n      tag_276\n        /* \"CYBCC.sol\":11206:11254  uint256 taxValue = _getCompleteTaxValue(tAmount) */\n      dup3\n        /* \"CYBCC.sol\":11291:11298  tAmount */\n      dup9\n        /* \"CYBCC.sol\":11291:11309  tAmount - taxValue */\n      tag_162\n      jump\t// in\n    tag_276:\n        /* \"CYBCC.sol\":11265:11309  uint256 tTransferAmount = tAmount - taxValue */\n      swap1\n      pop\n        /* \"CYBCC.sol\":11320:11339  uint256 currentRate */\n      0x00\n        /* \"CYBCC.sol\":11342:11352  _getRate() */\n      tag_277\n        /* \"CYBCC.sol\":11342:11350  _getRate */\n      tag_278\n        /* \"CYBCC.sol\":11342:11352  _getRate() */\n      jump\t// in\n    tag_277:\n        /* \"CYBCC.sol\":11320:11352  uint256 currentRate = _getRate() */\n      swap1\n      pop\n        /* \"CYBCC.sol\":11363:11386  uint256 rTransferAmount */\n      0x00\n        /* \"CYBCC.sol\":11389:11418  tTransferAmount * currentRate */\n      tag_279\n        /* \"CYBCC.sol\":11320:11352  uint256 currentRate = _getRate() */\n      dup3\n        /* \"CYBCC.sol\":11389:11404  tTransferAmount */\n      dup5\n        /* \"CYBCC.sol\":11389:11418  tTransferAmount * currentRate */\n      tag_280\n      jump\t// in\n    tag_279:\n        /* \"CYBCC.sol\":11363:11418  uint256 rTransferAmount = tTransferAmount * currentRate */\n      swap1\n      pop\n        /* \"CYBCC.sol\":11429:11444  uint256 rAmount */\n      0x00\n        /* \"CYBCC.sol\":11447:11468  tAmount * currentRate */\n      tag_281\n        /* \"CYBCC.sol\":11457:11468  currentRate */\n      dup4\n        /* \"CYBCC.sol\":11447:11454  tAmount */\n      dup12\n        /* \"CYBCC.sol\":11447:11468  tAmount * currentRate */\n      tag_280\n      jump\t// in\n    tag_281:\n        /* \"CYBCC.sol\":11429:11468  uint256 rAmount = tAmount * currentRate */\n      swap11\n        /* \"CYBCC.sol\":11496:11511  rTransferAmount */\n      swap2\n      swap10\n      pop\n        /* \"CYBCC.sol\":11513:11528  tTransferAmount */\n      swap3\n      swap8\n      pop\n        /* \"CYBCC.sol\":11530:11541  currentRate */\n      swap1\n      swap6\n      pop\n        /* \"CYBCC.sol\":10997:11550  function _getTransferValues(uint256 tAmount)... */\n      swap4\n      pop\n      pop\n      pop\n      pop\n      jump\t// out\n        /* \"@openzeppelin/contracts/token/ERC20/ERC20.sol\":8715:8843  function _approve(address owner, address spender, uint256 value) internal {... */\n    tag_176:\n        /* \"@openzeppelin/contracts/token/ERC20/ERC20.sol\":8799:8836  _approve(owner, spender, value, true) */\n      tag_283\n        /* \"@openzeppelin/contracts/token/ERC20/ERC20.sol\":8808:8813  owner */\n      dup4\n        /* \"@openzeppelin/contracts/token/ERC20/ERC20.sol\":8815:8822  spender */\n      dup4\n        /* \"@openzeppelin/contracts/token/ERC20/ERC20.sol\":8824:8829  value */\n      dup4\n        /* \"@openzeppelin/contracts/token/ERC20/ERC20.sol\":8831:8835  true */\n      0x01\n        /* \"@openzeppelin/contracts/token/ERC20/ERC20.sol\":8799:8807  _approve */\n      tag_284\n        /* \"@openzeppelin/contracts/token/ERC20/ERC20.sol\":8799:8836  _approve(owner, spender, value, true) */\n      jump\t// in\n    tag_283:\n        /* \"@openzeppelin/contracts/token/ERC20/ERC20.sol\":8715:8843  function _approve(address owner, address spender, uint256 value) internal {... */\n      pop\n      pop\n      pop\n      jump\t// out\n        /* \"@openzeppelin/contracts/token/ERC20/ERC20.sol\":10404:10880  function _spendAllowance(address owner, address spender, uint256 value) internal virtual {... */\n    tag_182:\n      sub(shl(0xa0, 0x01), 0x01)\n        /* \"@openzeppelin/contracts/token/ERC20/ERC20.sol\":3638:3656  _allowances[owner] */\n      dup4\n      dup2\n      and\n        /* \"@openzeppelin/contracts/token/ERC20/ERC20.sol\":10503:10527  uint256 currentAllowance */\n      0x00\n        /* \"@openzeppelin/contracts/token/ERC20/ERC20.sol\":3638:3656  _allowances[owner] */\n      swap1\n      dup2\n      mstore\n        /* \"@openzeppelin/contracts/token/ERC20/ERC20.sol\":3638:3649  _allowances */\n      0x01\n        /* \"@openzeppelin/contracts/token/ERC20/ERC20.sol\":3638:3656  _allowances[owner] */\n      0x20\n      swap1\n      dup2\n      mstore\n      0x40\n      dup1\n      dup4\n      keccak256\n        /* \"@openzeppelin/contracts/token/ERC20/ERC20.sol\":3638:3665  _allowances[owner][spender] */\n      swap4\n      dup7\n      and\n      dup4\n      mstore\n      swap3\n      swap1\n      mstore\n      keccak256\n      sload\n      not(0x00)\n        /* \"@openzeppelin/contracts/token/ERC20/ERC20.sol\":10569:10605  currentAllowance < type(uint256).max */\n      dup2\n      lt\n        /* \"@openzeppelin/contracts/token/ERC20/ERC20.sol\":10565:10874  if (currentAllowance < type(uint256).max) {... */\n      iszero\n      tag_291\n      jumpi\n        /* \"@openzeppelin/contracts/token/ERC20/ERC20.sol\":10644:10649  value */\n      dup2\n        /* \"@openzeppelin/contracts/token/ERC20/ERC20.sol\":10625:10641  currentAllowance */\n      dup2\n        /* \"@openzeppelin/contracts/token/ERC20/ERC20.sol\":10625:10649  currentAllowance < value */\n      lt\n        /* \"@openzeppelin/contracts/token/ERC20/ERC20.sol\":10621:10751  if (currentAllowance < value) {... */\n      iszero\n      tag_288\n      jumpi\n        /* \"@openzeppelin/contracts/token/ERC20/ERC20.sol\":10676:10736  ERC20InsufficientAllowance(spender, currentAllowance, value) */\n      mload(0x40)\n      shl(0xe1, 0x7dc7a0d9)\n      dup2\n      mstore\n      sub(shl(0xa0, 0x01), 0x01)\n        /* \"#utility.yul\":6486:6518   */\n      dup5\n      and\n        /* \"@openzeppelin/contracts/token/ERC20/ERC20.sol\":10676:10736  ERC20InsufficientAllowance(spender, currentAllowance, value) */\n      0x04\n      dup3\n      add\n        /* \"#utility.yul\":6468:6519   */\n      mstore\n        /* \"#utility.yul\":6535:6553   */\n      0x24\n      dup2\n      add\n        /* \"#utility.yul\":6528:6562   */\n      dup3\n      swap1\n      mstore\n        /* \"#utility.yul\":6578:6596   */\n      0x44\n      dup2\n      add\n        /* \"#utility.yul\":6571:6605   */\n      dup4\n      swap1\n      mstore\n        /* \"#utility.yul\":6441:6459   */\n      0x64\n      add\n        /* \"@openzeppelin/contracts/token/ERC20/ERC20.sol\":10676:10736  ERC20InsufficientAllowance(spender, currentAllowance, value) */\n      tag_157\n        /* \"#utility.yul\":6266:6611   */\n      jump\n        /* \"@openzeppelin/contracts/token/ERC20/ERC20.sol\":10621:10751  if (currentAllowance < value) {... */\n    tag_288:\n        /* \"@openzeppelin/contracts/token/ERC20/ERC20.sol\":10792:10849  _approve(owner, spender, currentAllowance - value, false) */\n      tag_291\n        /* \"@openzeppelin/contracts/token/ERC20/ERC20.sol\":10801:10806  owner */\n      dup5\n        /* \"@openzeppelin/contracts/token/ERC20/ERC20.sol\":10808:10815  spender */\n      dup5\n        /* \"@openzeppelin/contracts/token/ERC20/ERC20.sol\":10836:10841  value */\n      dup5\n        /* \"@openzeppelin/contracts/token/ERC20/ERC20.sol\":10817:10833  currentAllowance */\n      dup5\n        /* \"@openzeppelin/contracts/token/ERC20/ERC20.sol\":10817:10841  currentAllowance - value */\n      sub\n        /* \"@openzeppelin/contracts/token/ERC20/ERC20.sol\":10843:10848  false */\n      0x00\n        /* \"@openzeppelin/contracts/token/ERC20/ERC20.sol\":10792:10800  _approve */\n      tag_284\n        /* \"@openzeppelin/contracts/token/ERC20/ERC20.sol\":10792:10849  _approve(owner, spender, currentAllowance - value, false) */\n      jump\t// in\n    tag_291:\n        /* \"@openzeppelin/contracts/token/ERC20/ERC20.sol\":10493:10880  {... */\n      pop\n        /* \"@openzeppelin/contracts/token/ERC20/ERC20.sol\":10404:10880  function _spendAllowance(address owner, address spender, uint256 value) internal virtual {... */\n      pop\n      pop\n      pop\n      jump\t// out\n        /* \"CYBCC.sol\":5989:6831  function _transfer(... */\n    tag_184:\n      sub(shl(0xa0, 0x01), 0x01)\n        /* \"CYBCC.sol\":6138:6158  sender != address(0) */\n      dup4\n      and\n        /* \"CYBCC.sol\":6130:6200  require(sender != address(0), \"ERC20: transfer from the zero address\") */\n      tag_293\n      jumpi\n      mload(0x40)\n      shl(0xe5, 0x461bcd)\n      dup2\n      mstore\n        /* \"#utility.yul\":6818:6820   */\n      0x20\n        /* \"CYBCC.sol\":6130:6200  require(sender != address(0), \"ERC20: transfer from the zero address\") */\n      0x04\n      dup3\n      add\n        /* \"#utility.yul\":6800:6821   */\n      mstore\n        /* \"#utility.yul\":6857:6859   */\n      0x25\n        /* \"#utility.yul\":6837:6855   */\n      0x24\n      dup3\n      add\n        /* \"#utility.yul\":6830:6860   */\n      mstore\n        /* \"#utility.yul\":6896:6930   */\n      0x45524332303a207472616e736665722066726f6d20746865207a65726f206164\n        /* \"#utility.yul\":6876:6894   */\n      0x44\n      dup3\n      add\n        /* \"#utility.yul\":6869:6931   */\n      mstore\n      shl(0xd8, 0x6472657373)\n        /* \"#utility.yul\":6947:6965   */\n      0x64\n      dup3\n      add\n        /* \"#utility.yul\":6940:6975   */\n      mstore\n        /* \"#utility.yul\":6992:7011   */\n      0x84\n      add\n        /* \"CYBCC.sol\":6130:6200  require(sender != address(0), \"ERC20: transfer from the zero address\") */\n      tag_157\n        /* \"#utility.yul\":6616:7017   */\n      jump\n        /* \"CYBCC.sol\":6130:6200  require(sender != address(0), \"ERC20: transfer from the zero address\") */\n    tag_293:\n      sub(shl(0xa0, 0x01), 0x01)\n        /* \"CYBCC.sol\":6219:6242  recipient != address(0) */\n      dup3\n      and\n        /* \"CYBCC.sol\":6211:6282  require(recipient != address(0), \"ERC20: transfer to the zero address\") */\n      tag_296\n      jumpi\n      mload(0x40)\n      shl(0xe5, 0x461bcd)\n      dup2\n      mstore\n        /* \"#utility.yul\":7224:7226   */\n      0x20\n        /* \"CYBCC.sol\":6211:6282  require(recipient != address(0), \"ERC20: transfer to the zero address\") */\n      0x04\n      dup3\n      add\n        /* \"#utility.yul\":7206:7227   */\n      mstore\n        /* \"#utility.yul\":7263:7265   */\n      0x23\n        /* \"#utility.yul\":7243:7261   */\n      0x24\n      dup3\n      add\n        /* \"#utility.yul\":7236:7266   */\n      mstore\n        /* \"#utility.yul\":7302:7336   */\n      0x45524332303a207472616e7366657220746f20746865207a65726f2061646472\n        /* \"#utility.yul\":7282:7300   */\n      0x44\n      dup3\n      add\n        /* \"#utility.yul\":7275:7337   */\n      mstore\n      shl(0xe8, 0x657373)\n        /* \"#utility.yul\":7353:7371   */\n      0x64\n      dup3\n      add\n        /* \"#utility.yul\":7346:7379   */\n      mstore\n        /* \"#utility.yul\":7396:7415   */\n      0x84\n      add\n        /* \"CYBCC.sol\":6211:6282  require(recipient != address(0), \"ERC20: transfer to the zero address\") */\n      tag_157\n        /* \"#utility.yul\":7022:7421   */\n      jump\n        /* \"CYBCC.sol\":6211:6282  require(recipient != address(0), \"ERC20: transfer to the zero address\") */\n    tag_296:\n        /* \"CYBCC.sol\":6293:6314  uint256 senderBalance */\n      0x00\n        /* \"CYBCC.sol\":6317:6334  balanceOf(sender) */\n      tag_299\n        /* \"CYBCC.sol\":6327:6333  sender */\n      dup5\n        /* \"CYBCC.sol\":6317:6326  balanceOf */\n      tag_103\n        /* \"CYBCC.sol\":6317:6334  balanceOf(sender) */\n      jump\t// in\n    tag_299:\n        /* \"CYBCC.sol\":6293:6334  uint256 senderBalance = balanceOf(sender) */\n      swap1\n      pop\n        /* \"CYBCC.sol\":6384:6390  amount */\n      dup2\n        /* \"CYBCC.sol\":6367:6380  senderBalance */\n      dup2\n        /* \"CYBCC.sol\":6367:6390  senderBalance >= amount */\n      lt\n      iszero\n        /* \"CYBCC.sol\":6345:6456  require(... */\n      tag_300\n      jumpi\n      mload(0x40)\n      shl(0xe5, 0x461bcd)\n      dup2\n      mstore\n        /* \"#utility.yul\":7628:7630   */\n      0x20\n        /* \"CYBCC.sol\":6345:6456  require(... */\n      0x04\n      dup3\n      add\n        /* \"#utility.yul\":7610:7631   */\n      mstore\n        /* \"#utility.yul\":7667:7669   */\n      0x26\n        /* \"#utility.yul\":7647:7665   */\n      0x24\n      dup3\n      add\n        /* \"#utility.yul\":7640:7670   */\n      mstore\n        /* \"#utility.yul\":7706:7740   */\n      0x45524332303a207472616e7366657220616d6f756e7420657863656564732062\n        /* \"#utility.yul\":7686:7704   */\n      0x44\n      dup3\n      add\n        /* \"#utility.yul\":7679:7741   */\n      mstore\n      shl(0xd0, 0x616c616e6365)\n        /* \"#utility.yul\":7757:7775   */\n      0x64\n      dup3\n      add\n        /* \"#utility.yul\":7750:7786   */\n      mstore\n        /* \"#utility.yul\":7803:7822   */\n      0x84\n      add\n        /* \"CYBCC.sol\":6345:6456  require(... */\n      tag_157\n        /* \"#utility.yul\":7426:7828   */\n      jump\n        /* \"CYBCC.sol\":6345:6456  require(... */\n    tag_300:\n      sub(shl(0xa0, 0x01), 0x01)\n        /* \"CYBCC.sol\":2595:2622  _isExcludedFromFee[account] */\n      dup4\n      and\n        /* \"CYBCC.sol\":2571:2575  bool */\n      0x00\n        /* \"CYBCC.sol\":2595:2622  _isExcludedFromFee[account] */\n      swap1\n      dup2\n      mstore\n        /* \"CYBCC.sol\":2595:2613  _isExcludedFromFee */\n      0x07\n        /* \"CYBCC.sol\":2595:2622  _isExcludedFromFee[account] */\n      0x20\n      mstore\n      0x40\n      swap1\n      keccak256\n      sload\n      0xff\n      and\n        /* \"CYBCC.sol\":6469:6612  if(!isExcludedFromFee(recipient))... */\n      tag_307\n      jumpi\n        /* \"CYBCC.sol\":6564:6579  maxWalletAmount */\n      sload(0x14)\n        /* \"CYBCC.sol\":6554:6560  amount */\n      dup3\n        /* \"CYBCC.sol\":6533:6553  balanceOf(recipient) */\n      tag_305\n        /* \"CYBCC.sol\":6543:6552  recipient */\n      dup6\n        /* \"CYBCC.sol\":6533:6542  balanceOf */\n      tag_103\n        /* \"CYBCC.sol\":6533:6553  balanceOf(recipient) */\n      jump\t// in\n    tag_305:\n        /* \"CYBCC.sol\":6533:6560  balanceOf(recipient)+amount */\n      tag_306\n      swap2\n      swap1\n      tag_165\n      jump\t// in\n    tag_306:\n        /* \"CYBCC.sol\":6533:6579  balanceOf(recipient)+amount <= maxWalletAmount */\n      gt\n      iszero\n        /* \"CYBCC.sol\":6525:6600  require(balanceOf(recipient)+amount <= maxWalletAmount, \"Whale detected!!\") */\n      tag_307\n      jumpi\n      mload(0x40)\n      shl(0xe5, 0x461bcd)\n      dup2\n      mstore\n        /* \"#utility.yul\":8035:8037   */\n      0x20\n        /* \"CYBCC.sol\":6525:6600  require(balanceOf(recipient)+amount <= maxWalletAmount, \"Whale detected!!\") */\n      0x04\n      dup3\n      add\n        /* \"#utility.yul\":8017:8038   */\n      mstore\n        /* \"#utility.yul\":8074:8076   */\n      0x10\n        /* \"#utility.yul\":8054:8072   */\n      0x24\n      dup3\n      add\n        /* \"#utility.yul\":8047:8077   */\n      mstore\n      shl(0x80, 0x5768616c652064657465637465642121)\n        /* \"#utility.yul\":8093:8111   */\n      0x44\n      dup3\n      add\n        /* \"#utility.yul\":8086:8132   */\n      mstore\n        /* \"#utility.yul\":8149:8167   */\n      0x64\n      add\n        /* \"CYBCC.sol\":6525:6600  require(balanceOf(recipient)+amount <= maxWalletAmount, \"Whale detected!!\") */\n      tag_157\n        /* \"#utility.yul\":7833:8173   */\n      jump\n        /* \"CYBCC.sol\":6525:6600  require(balanceOf(recipient)+amount <= maxWalletAmount, \"Whale detected!!\") */\n    tag_307:\n      sub(shl(0xa0, 0x01), 0x01)\n        /* \"CYBCC.sol\":6658:6684  _isExcludedFromFee[sender] */\n      dup5\n      and\n        /* \"CYBCC.sol\":6622:6634  bool takeFee */\n      0x00\n        /* \"CYBCC.sol\":6658:6684  _isExcludedFromFee[sender] */\n      swap1\n      dup2\n      mstore\n        /* \"CYBCC.sol\":6658:6676  _isExcludedFromFee */\n      0x07\n        /* \"CYBCC.sol\":6658:6684  _isExcludedFromFee[sender] */\n      0x20\n      mstore\n      0x40\n      swap1\n      keccak256\n      sload\n        /* \"CYBCC.sol\":6637:6641  true */\n      0x01\n      swap1\n        /* \"CYBCC.sol\":6658:6684  _isExcludedFromFee[sender] */\n      0xff\n      and\n      dup1\n        /* \"CYBCC.sol\":6658:6717  _isExcludedFromFee[sender] || _isExcludedFromFee[recipient] */\n      tag_310\n      jumpi\n      pop\n      sub(shl(0xa0, 0x01), 0x01)\n        /* \"CYBCC.sol\":6688:6717  _isExcludedFromFee[recipient] */\n      dup5\n      and\n      0x00\n      swap1\n      dup2\n      mstore\n        /* \"CYBCC.sol\":6688:6706  _isExcludedFromFee */\n      0x07\n        /* \"CYBCC.sol\":6688:6717  _isExcludedFromFee[recipient] */\n      0x20\n      mstore\n      0x40\n      swap1\n      keccak256\n      sload\n      0xff\n      and\n        /* \"CYBCC.sol\":6658:6717  _isExcludedFromFee[sender] || _isExcludedFromFee[recipient] */\n    tag_310:\n        /* \"CYBCC.sol\":6654:6761  if (_isExcludedFromFee[sender] || _isExcludedFromFee[recipient]) {... */\n      iszero\n      tag_311\n      jumpi\n      pop\n        /* \"CYBCC.sol\":6744:6749  false */\n      0x00\n        /* \"CYBCC.sol\":6654:6761  if (_isExcludedFromFee[sender] || _isExcludedFromFee[recipient]) {... */\n    tag_311:\n        /* \"CYBCC.sol\":6773:6823  _tokenTransfer(sender, recipient, amount, takeFee) */\n      tag_312\n        /* \"CYBCC.sol\":6788:6794  sender */\n      dup6\n        /* \"CYBCC.sol\":6796:6805  recipient */\n      dup6\n        /* \"CYBCC.sol\":6807:6813  amount */\n      dup6\n        /* \"CYBCC.sol\":6815:6822  takeFee */\n      dup5\n        /* \"CYBCC.sol\":6773:6787  _tokenTransfer */\n      tag_313\n        /* \"CYBCC.sol\":6773:6823  _tokenTransfer(sender, recipient, amount, takeFee) */\n      jump\t// in\n    tag_312:\n        /* \"CYBCC.sol\":6119:6831  {... */\n      pop\n      pop\n        /* \"CYBCC.sol\":5989:6831  function _transfer(... */\n      pop\n      pop\n      pop\n      jump\t// out\n        /* \"CYBCC.sol\":4824:5144  function tokenFromReflection(uint256 rAmount)... */\n    tag_209:\n        /* \"CYBCC.sol\":4919:4926  uint256 */\n      0x00\n        /* \"CYBCC.sol\":4977:4984  _rTotal */\n      sload(0x0c)\n        /* \"CYBCC.sol\":4966:4973  rAmount */\n      dup3\n        /* \"CYBCC.sol\":4966:4984  rAmount <= _rTotal */\n      gt\n      iszero\n        /* \"CYBCC.sol\":4944:5054  require(... */\n      tag_315\n      jumpi\n      mload(0x40)\n      shl(0xe5, 0x461bcd)\n      dup2\n      mstore\n        /* \"#utility.yul\":8380:8382   */\n      0x20\n        /* \"CYBCC.sol\":4944:5054  require(... */\n      0x04\n      dup3\n      add\n        /* \"#utility.yul\":8362:8383   */\n      mstore\n        /* \"#utility.yul\":8419:8421   */\n      0x2a\n        /* \"#utility.yul\":8399:8417   */\n      0x24\n      dup3\n      add\n        /* \"#utility.yul\":8392:8422   */\n      mstore\n        /* \"#utility.yul\":8458:8492   */\n      0x416d6f756e74206d757374206265206c657373207468616e20746f74616c2072\n        /* \"#utility.yul\":8438:8456   */\n      0x44\n      dup3\n      add\n        /* \"#utility.yul\":8431:8493   */\n      mstore\n      shl(0xb0, 0x65666c656374696f6e73)\n        /* \"#utility.yul\":8509:8527   */\n      0x64\n      dup3\n      add\n        /* \"#utility.yul\":8502:8542   */\n      mstore\n        /* \"#utility.yul\":8559:8578   */\n      0x84\n      add\n        /* \"CYBCC.sol\":4944:5054  require(... */\n      tag_157\n        /* \"#utility.yul\":8178:8584   */\n      jump\n        /* \"CYBCC.sol\":4944:5054  require(... */\n    tag_315:\n        /* \"CYBCC.sol\":5065:5084  uint256 currentRate */\n      0x00\n        /* \"CYBCC.sol\":5087:5097  _getRate() */\n      tag_318\n        /* \"CYBCC.sol\":5087:5095  _getRate */\n      tag_278\n        /* \"CYBCC.sol\":5087:5097  _getRate() */\n      jump\t// in\n    tag_318:\n        /* \"CYBCC.sol\":5065:5097  uint256 currentRate = _getRate() */\n      swap1\n      pop\n        /* \"CYBCC.sol\":5115:5136  rAmount / currentRate */\n      tag_319\n        /* \"CYBCC.sol\":5065:5097  uint256 currentRate = _getRate() */\n      dup2\n        /* \"CYBCC.sol\":5115:5122  rAmount */\n      dup5\n        /* \"CYBCC.sol\":5115:5136  rAmount / currentRate */\n      tag_320\n      jump\t// in\n    tag_319:\n        /* \"CYBCC.sol\":5108:5136  return rAmount / currentRate */\n      swap4\n        /* \"CYBCC.sol\":4824:5144  function tokenFromReflection(uint256 rAmount)... */\n      swap3\n      pop\n      pop\n      pop\n      jump\t// out\n        /* \"CYBCC.sol\":10735:10989  function _getCompleteTaxValue(uint256 tAmount)... */\n    tag_275:\n        /* \"CYBCC.sol\":10831:10838  uint256 */\n      0x00\n        /* \"CYBCC.sol\":10856:10872  uint256 allTaxes */\n      0x00\n        /* \"CYBCC.sol\":10892:10899  _taxFee */\n      sload(0x10)\n        /* \"CYBCC.sol\":10875:10889  _reflectionFee */\n      sload(0x0e)\n        /* \"CYBCC.sol\":10875:10899  _reflectionFee + _taxFee */\n      tag_322\n      swap2\n      swap1\n      tag_165\n      jump\t// in\n    tag_322:\n        /* \"CYBCC.sol\":10856:10899  uint256 allTaxes = _reflectionFee + _taxFee */\n      swap1\n      pop\n        /* \"CYBCC.sol\":10910:10926  uint256 taxValue */\n      0x00\n        /* \"CYBCC.sol\":10952:10955  100 */\n      0x64\n        /* \"CYBCC.sol\":10930:10948  tAmount * allTaxes */\n      tag_323\n        /* \"CYBCC.sol\":10856:10899  uint256 allTaxes = _reflectionFee + _taxFee */\n      dup4\n        /* \"CYBCC.sol\":10930:10937  tAmount */\n      dup7\n        /* \"CYBCC.sol\":10930:10948  tAmount * allTaxes */\n      tag_280\n      jump\t// in\n    tag_323:\n        /* \"CYBCC.sol\":10929:10955  (tAmount * allTaxes) / 100 */\n      tag_324\n      swap2\n      swap1\n      tag_320\n      jump\t// in\n    tag_324:\n        /* \"CYBCC.sol\":10910:10955  uint256 taxValue = (tAmount * allTaxes) / 100 */\n      swap5\n        /* \"CYBCC.sol\":10735:10989  function _getCompleteTaxValue(uint256 tAmount)... */\n      swap4\n      pop\n      pop\n      pop\n      pop\n      jump\t// out\n        /* \"CYBCC.sol\":11821:11982  function _getRate() private view returns (uint256) {... */\n    tag_278:\n        /* \"CYBCC.sol\":11863:11870  uint256 */\n      0x00\n        /* \"CYBCC.sol\":11884:11899  uint256 rSupply */\n      0x00\n        /* \"CYBCC.sol\":11901:11916  uint256 tSupply */\n      0x00\n        /* \"CYBCC.sol\":11920:11939  _getCurrentSupply() */\n      tag_326\n        /* \"CYBCC.sol\":11920:11937  _getCurrentSupply */\n      tag_327\n        /* \"CYBCC.sol\":11920:11939  _getCurrentSupply() */\n      jump\t// in\n    tag_326:\n        /* \"CYBCC.sol\":11883:11939  (uint256 rSupply, uint256 tSupply) = _getCurrentSupply() */\n      swap1\n      swap3\n      pop\n      swap1\n      pop\n        /* \"CYBCC.sol\":11957:11974  rSupply / tSupply */\n      tag_328\n        /* \"CYBCC.sol\":11883:11939  (uint256 rSupply, uint256 tSupply) = _getCurrentSupply() */\n      dup2\n      dup4\n        /* \"CYBCC.sol\":11957:11974  rSupply / tSupply */\n      tag_320\n      jump\t// in\n    tag_328:\n        /* \"CYBCC.sol\":11950:11974  return rSupply / tSupply */\n      swap3\n      pop\n      pop\n      pop\n        /* \"CYBCC.sol\":11821:11982  function _getRate() private view returns (uint256) {... */\n      swap1\n      jump\t// out\n        /* \"@openzeppelin/contracts/token/ERC20/ERC20.sol\":9690:10122  function _approve(address owner, address spender, uint256 value, bool emitEvent) internal virtual {... */\n    tag_284:\n      sub(shl(0xa0, 0x01), 0x01)\n        /* \"@openzeppelin/contracts/token/ERC20/ERC20.sol\":9802:9821  owner == address(0) */\n      dup5\n      and\n        /* \"@openzeppelin/contracts/token/ERC20/ERC20.sol\":9798:9887  if (owner == address(0)) {... */\n      tag_330\n      jumpi\n        /* \"@openzeppelin/contracts/token/ERC20/ERC20.sol\":9844:9876  ERC20InvalidApprover(address(0)) */\n      mload(0x40)\n      shl(0xe0, 0xe602df05)\n      dup2\n      mstore\n        /* \"@openzeppelin/contracts/token/ERC20/ERC20.sol\":9873:9874  0 */\n      0x00\n        /* \"@openzeppelin/contracts/token/ERC20/ERC20.sol\":9844:9876  ERC20InvalidApprover(address(0)) */\n      0x04\n      dup3\n      add\n        /* \"#utility.yul\":1671:1722   */\n      mstore\n        /* \"#utility.yul\":1644:1662   */\n      0x24\n      add\n        /* \"@openzeppelin/contracts/token/ERC20/ERC20.sol\":9844:9876  ERC20InvalidApprover(address(0)) */\n      tag_157\n        /* \"#utility.yul\":1525:1728   */\n      jump\n        /* \"@openzeppelin/contracts/token/ERC20/ERC20.sol\":9798:9887  if (owner == address(0)) {... */\n    tag_330:\n      sub(shl(0xa0, 0x01), 0x01)\n        /* \"@openzeppelin/contracts/token/ERC20/ERC20.sol\":9900:9921  spender == address(0) */\n      dup4\n      and\n        /* \"@openzeppelin/contracts/token/ERC20/ERC20.sol\":9896:9986  if (spender == address(0)) {... */\n      tag_332\n      jumpi\n        /* \"@openzeppelin/contracts/token/ERC20/ERC20.sol\":9944:9975  ERC20InvalidSpender(address(0)) */\n      mload(0x40)\n      shl(0xe1, 0x4a1406b1)\n      dup2\n      mstore\n        /* \"@openzeppelin/contracts/token/ERC20/ERC20.sol\":9972:9973  0 */\n      0x00\n        /* \"@openzeppelin/contracts/token/ERC20/ERC20.sol\":9944:9975  ERC20InvalidSpender(address(0)) */\n      0x04\n      dup3\n      add\n        /* \"#utility.yul\":1671:1722   */\n      mstore\n        /* \"#utility.yul\":1644:1662   */\n      0x24\n      add\n        /* \"@openzeppelin/contracts/token/ERC20/ERC20.sol\":9944:9975  ERC20InvalidSpender(address(0)) */\n      tag_157\n        /* \"#utility.yul\":1525:1728   */\n      jump\n        /* \"@openzeppelin/contracts/token/ERC20/ERC20.sol\":9896:9986  if (spender == address(0)) {... */\n    tag_332:\n      sub(shl(0xa0, 0x01), 0x01)\n        /* \"@openzeppelin/contracts/token/ERC20/ERC20.sol\":9995:10013  _allowances[owner] */\n      dup1\n      dup6\n      and\n      0x00\n      swap1\n      dup2\n      mstore\n        /* \"@openzeppelin/contracts/token/ERC20/ERC20.sol\":9995:10006  _allowances */\n      0x01\n        /* \"@openzeppelin/contracts/token/ERC20/ERC20.sol\":9995:10013  _allowances[owner] */\n      0x20\n      swap1\n      dup2\n      mstore\n      0x40\n      dup1\n      dup4\n      keccak256\n        /* \"@openzeppelin/contracts/token/ERC20/ERC20.sol\":9995:10022  _allowances[owner][spender] */\n      swap4\n      dup8\n      and\n      dup4\n      mstore\n      swap3\n      swap1\n      mstore\n      keccak256\n        /* \"@openzeppelin/contracts/token/ERC20/ERC20.sol\":9995:10030  _allowances[owner][spender] = value */\n      dup3\n      swap1\n      sstore\n        /* \"@openzeppelin/contracts/token/ERC20/ERC20.sol\":10040:10116  if (emitEvent) {... */\n      dup1\n      iszero\n      tag_291\n      jumpi\n        /* \"@openzeppelin/contracts/token/ERC20/ERC20.sol\":10090:10097  spender */\n      dup3\n      sub(shl(0xa0, 0x01), 0x01)\n        /* \"@openzeppelin/contracts/token/ERC20/ERC20.sol\":10074:10105  Approval(owner, spender, value) */\n      and\n        /* \"@openzeppelin/contracts/token/ERC20/ERC20.sol\":10083:10088  owner */\n      dup5\n      sub(shl(0xa0, 0x01), 0x01)\n        /* \"@openzeppelin/contracts/token/ERC20/ERC20.sol\":10074:10105  Approval(owner, spender, value) */\n      and\n      0x8c5be1e5ebec7d5bd14f71427d1e84f3dd0314c0f7b2291e5b200ac8c7c3b925\n        /* \"@openzeppelin/contracts/token/ERC20/ERC20.sol\":10099:10104  value */\n      dup5\n        /* \"@openzeppelin/contracts/token/ERC20/ERC20.sol\":10074:10105  Approval(owner, spender, value) */\n      mload(0x40)\n      tag_335\n      swap2\n        /* \"#utility.yul\":1489:1514   */\n      dup2\n      mstore\n        /* \"#utility.yul\":1477:1479   */\n      0x20\n        /* \"#utility.yul\":1462:1480   */\n      add\n      swap1\n        /* \"#utility.yul\":1343:1520   */\n      jump\n        /* \"@openzeppelin/contracts/token/ERC20/ERC20.sol\":10074:10105  Approval(owner, spender, value) */\n    tag_335:\n      mload(0x40)\n      dup1\n      swap2\n      sub\n      swap1\n      log3\n        /* \"@openzeppelin/contracts/token/ERC20/ERC20.sol\":9690:10122  function _approve(address owner, address spender, uint256 value, bool emitEvent) internal virtual {... */\n      pop\n      pop\n      pop\n      pop\n      jump\t// out\n        /* \"CYBCC.sol\":6839:7633  function _tokenTransfer(... */\n    tag_313:\n        /* \"CYBCC.sol\":6985:6992  takeFee */\n      dup1\n        /* \"CYBCC.sol\":6980:7035  if (!takeFee) {... */\n      tag_338\n      jumpi\n        /* \"CYBCC.sol\":7009:7023  removeAllFee() */\n      tag_338\n        /* \"CYBCC.sol\":7009:7021  removeAllFee */\n      tag_339\n        /* \"CYBCC.sol\":7009:7023  removeAllFee() */\n      jump\t// in\n    tag_338:\n      sub(shl(0xa0, 0x01), 0x01)\n        /* \"CYBCC.sol\":7051:7068  _isExcluded[from] */\n      dup5\n      and\n      0x00\n      swap1\n      dup2\n      mstore\n        /* \"CYBCC.sol\":7051:7062  _isExcluded */\n      0x08\n        /* \"CYBCC.sol\":7051:7068  _isExcluded[from] */\n      0x20\n      mstore\n      0x40\n      swap1\n      keccak256\n      sload\n      0xff\n      and\n        /* \"CYBCC.sol\":7051:7088  _isExcluded[from] && !_isExcluded[to] */\n      dup1\n      iszero\n      tag_340\n      jumpi\n      pop\n      sub(shl(0xa0, 0x01), 0x01)\n        /* \"CYBCC.sol\":7073:7088  _isExcluded[to] */\n      dup4\n      and\n      0x00\n      swap1\n      dup2\n      mstore\n        /* \"CYBCC.sol\":7073:7084  _isExcluded */\n      0x08\n        /* \"CYBCC.sol\":7073:7088  _isExcluded[to] */\n      0x20\n      mstore\n      0x40\n      swap1\n      keccak256\n      sload\n      0xff\n      and\n        /* \"CYBCC.sol\":7072:7088  !_isExcluded[to] */\n      iszero\n        /* \"CYBCC.sol\":7051:7088  _isExcluded[from] && !_isExcluded[to] */\n    tag_340:\n        /* \"CYBCC.sol\":7047:7558  if (_isExcluded[from] && !_isExcluded[to]) {... */\n      iszero\n      tag_341\n      jumpi\n        /* \"CYBCC.sol\":7105:7143  _transferFromExcluded(from, to, value) */\n      tag_342\n        /* \"CYBCC.sol\":7127:7131  from */\n      dup5\n        /* \"CYBCC.sol\":7133:7135  to */\n      dup5\n        /* \"CYBCC.sol\":7137:7142  value */\n      dup5\n        /* \"CYBCC.sol\":7105:7126  _transferFromExcluded */\n      tag_343\n        /* \"CYBCC.sol\":7105:7143  _transferFromExcluded(from, to, value) */\n      jump\t// in\n    tag_342:\n        /* \"CYBCC.sol\":7047:7558  if (_isExcluded[from] && !_isExcluded[to]) {... */\n      jump(tag_360)\n    tag_341:\n      sub(shl(0xa0, 0x01), 0x01)\n        /* \"CYBCC.sol\":7166:7183  _isExcluded[from] */\n      dup5\n      and\n      0x00\n      swap1\n      dup2\n      mstore\n        /* \"CYBCC.sol\":7166:7177  _isExcluded */\n      0x08\n        /* \"CYBCC.sol\":7166:7183  _isExcluded[from] */\n      0x20\n      mstore\n      0x40\n      swap1\n      keccak256\n      sload\n      0xff\n      and\n        /* \"CYBCC.sol\":7165:7183  !_isExcluded[from] */\n      iszero\n        /* \"CYBCC.sol\":7165:7202  !_isExcluded[from] && _isExcluded[to] */\n      dup1\n      iszero\n      tag_345\n      jumpi\n      pop\n      sub(shl(0xa0, 0x01), 0x01)\n        /* \"CYBCC.sol\":7187:7202  _isExcluded[to] */\n      dup4\n      and\n      0x00\n      swap1\n      dup2\n      mstore\n        /* \"CYBCC.sol\":7187:7198  _isExcluded */\n      0x08\n        /* \"CYBCC.sol\":7187:7202  _isExcluded[to] */\n      0x20\n      mstore\n      0x40\n      swap1\n      keccak256\n      sload\n      0xff\n      and\n        /* \"CYBCC.sol\":7165:7202  !_isExcluded[from] && _isExcluded[to] */\n    tag_345:\n        /* \"CYBCC.sol\":7161:7558  if (!_isExcluded[from] && _isExcluded[to]) {... */\n      iszero\n      tag_346\n      jumpi\n        /* \"CYBCC.sol\":7219:7255  _transferToExcluded(from, to, value) */\n      tag_342\n        /* \"CYBCC.sol\":7239:7243  from */\n      dup5\n        /* \"CYBCC.sol\":7245:7247  to */\n      dup5\n        /* \"CYBCC.sol\":7249:7254  value */\n      dup5\n        /* \"CYBCC.sol\":7219:7238  _transferToExcluded */\n      tag_348\n        /* \"CYBCC.sol\":7219:7255  _transferToExcluded(from, to, value) */\n      jump\t// in\n        /* \"CYBCC.sol\":7161:7558  if (!_isExcluded[from] && _isExcluded[to]) {... */\n    tag_346:\n      sub(shl(0xa0, 0x01), 0x01)\n        /* \"CYBCC.sol\":7278:7295  _isExcluded[from] */\n      dup5\n      and\n      0x00\n      swap1\n      dup2\n      mstore\n        /* \"CYBCC.sol\":7278:7289  _isExcluded */\n      0x08\n        /* \"CYBCC.sol\":7278:7295  _isExcluded[from] */\n      0x20\n      mstore\n      0x40\n      swap1\n      keccak256\n      sload\n      0xff\n      and\n        /* \"CYBCC.sol\":7277:7295  !_isExcluded[from] */\n      iszero\n        /* \"CYBCC.sol\":7277:7315  !_isExcluded[from] && !_isExcluded[to] */\n      dup1\n      iszero\n      tag_350\n      jumpi\n      pop\n      sub(shl(0xa0, 0x01), 0x01)\n        /* \"CYBCC.sol\":7300:7315  _isExcluded[to] */\n      dup4\n      and\n      0x00\n      swap1\n      dup2\n      mstore\n        /* \"CYBCC.sol\":7300:7311  _isExcluded */\n      0x08\n        /* \"CYBCC.sol\":7300:7315  _isExcluded[to] */\n      0x20\n      mstore\n      0x40\n      swap1\n      keccak256\n      sload\n      0xff\n      and\n        /* \"CYBCC.sol\":7299:7315  !_isExcluded[to] */\n      iszero\n        /* \"CYBCC.sol\":7277:7315  !_isExcluded[from] && !_isExcluded[to] */\n    tag_350:\n        /* \"CYBCC.sol\":7273:7558  if (!_isExcluded[from] && !_isExcluded[to]) {... */\n      iszero\n      tag_351\n      jumpi\n        /* \"CYBCC.sol\":7332:7366  _transferStandard(from, to, value) */\n      tag_342\n        /* \"CYBCC.sol\":7350:7354  from */\n      dup5\n        /* \"CYBCC.sol\":7356:7358  to */\n      dup5\n        /* \"CYBCC.sol\":7360:7365  value */\n      dup5\n        /* \"CYBCC.sol\":7332:7349  _transferStandard */\n      tag_353\n        /* \"CYBCC.sol\":7332:7366  _transferStandard(from, to, value) */\n      jump\t// in\n        /* \"CYBCC.sol\":7273:7558  if (!_isExcluded[from] && !_isExcluded[to]) {... */\n    tag_351:\n      sub(shl(0xa0, 0x01), 0x01)\n        /* \"CYBCC.sol\":7388:7405  _isExcluded[from] */\n      dup5\n      and\n      0x00\n      swap1\n      dup2\n      mstore\n        /* \"CYBCC.sol\":7388:7399  _isExcluded */\n      0x08\n        /* \"CYBCC.sol\":7388:7405  _isExcluded[from] */\n      0x20\n      mstore\n      0x40\n      swap1\n      keccak256\n      sload\n      0xff\n      and\n        /* \"CYBCC.sol\":7388:7424  _isExcluded[from] && _isExcluded[to] */\n      dup1\n      iszero\n      tag_355\n      jumpi\n      pop\n      sub(shl(0xa0, 0x01), 0x01)\n        /* \"CYBCC.sol\":7409:7424  _isExcluded[to] */\n      dup4\n      and\n      0x00\n      swap1\n      dup2\n      mstore\n        /* \"CYBCC.sol\":7409:7420  _isExcluded */\n      0x08\n        /* \"CYBCC.sol\":7409:7424  _isExcluded[to] */\n      0x20\n      mstore\n      0x40\n      swap1\n      keccak256\n      sload\n      0xff\n      and\n        /* \"CYBCC.sol\":7388:7424  _isExcluded[from] && _isExcluded[to] */\n    tag_355:\n        /* \"CYBCC.sol\":7384:7558  if (_isExcluded[from] && _isExcluded[to]) {... */\n      iszero\n      tag_356\n      jumpi\n        /* \"CYBCC.sol\":7441:7479  _transferBothExcluded(from, to, value) */\n      tag_342\n        /* \"CYBCC.sol\":7463:7467  from */\n      dup5\n        /* \"CYBCC.sol\":7469:7471  to */\n      dup5\n        /* \"CYBCC.sol\":7473:7478  value */\n      dup5\n        /* \"CYBCC.sol\":7441:7462  _transferBothExcluded */\n      tag_358\n        /* \"CYBCC.sol\":7441:7479  _transferBothExcluded(from, to, value) */\n      jump\t// in\n        /* \"CYBCC.sol\":7384:7558  if (_isExcluded[from] && _isExcluded[to]) {... */\n    tag_356:\n        /* \"CYBCC.sol\":7512:7546  _transferStandard(from, to, value) */\n      tag_360\n        /* \"CYBCC.sol\":7530:7534  from */\n      dup5\n        /* \"CYBCC.sol\":7536:7538  to */\n      dup5\n        /* \"CYBCC.sol\":7540:7545  value */\n      dup5\n        /* \"CYBCC.sol\":7512:7529  _transferStandard */\n      tag_353\n        /* \"CYBCC.sol\":7512:7546  _transferStandard(from, to, value) */\n      jump\t// in\n    tag_360:\n        /* \"CYBCC.sol\":7575:7582  takeFee */\n      dup1\n        /* \"CYBCC.sol\":7570:7626  if (!takeFee) {... */\n      tag_291\n      jumpi\n        /* \"CYBCC.sol\":7599:7614  restoreAllFee() */\n      tag_291\n        /* \"CYBCC.sol\":7949:7971  _previousReflectionFee */\n      sload(0x0f)\n        /* \"CYBCC.sol\":7932:7946  _reflectionFee */\n      0x0e\n        /* \"CYBCC.sol\":7932:7971  _reflectionFee = _previousReflectionFee */\n      sstore\n        /* \"CYBCC.sol\":7992:8007  _previousTaxFee */\n      sload(0x11)\n        /* \"CYBCC.sol\":7982:7989  _taxFee */\n      0x10\n        /* \"CYBCC.sol\":7982:8007  _taxFee = _previousTaxFee */\n      sstore\n        /* \"CYBCC.sol\":7888:8015  function restoreAllFee() private {... */\n      jump\n        /* \"CYBCC.sol\":11990:12652  function _getCurrentSupply() private view returns (uint256, uint256) {... */\n    tag_327:\n        /* \"CYBCC.sol\":12088:12095  _rTotal */\n      sload(0x0c)\n        /* \"CYBCC.sol\":12124:12131  _tTotal */\n      sload(0x0b)\n        /* \"CYBCC.sol\":12041:12048  uint256 */\n      0x00\n      swap2\n      dup3\n      swap2\n      dup3\n        /* \"CYBCC.sol\":12144:12510  for (uint256 i = 0; i < _excluded.length; i++) {... */\n    tag_365:\n        /* \"CYBCC.sol\":12168:12177  _excluded */\n      0x09\n        /* \"CYBCC.sol\":12168:12184  _excluded.length */\n      sload\n        /* \"CYBCC.sol\":12164:12184  i < _excluded.length */\n      dup2\n      lt\n        /* \"CYBCC.sol\":12144:12510  for (uint256 i = 0; i < _excluded.length; i++) {... */\n      iszero\n      tag_366\n      jumpi\n        /* \"CYBCC.sol\":12252:12259  rSupply */\n      dup3\n        /* \"CYBCC.sol\":12228:12235  _rOwned */\n      0x05\n        /* \"CYBCC.sol\":12228:12249  _rOwned[_excluded[i]] */\n      0x00\n        /* \"CYBCC.sol\":12236:12245  _excluded */\n      0x09\n        /* \"CYBCC.sol\":12246:12247  i */\n      dup5\n        /* \"CYBCC.sol\":12236:12248  _excluded[i] */\n      dup2\n      sload\n      dup2\n      lt\n      tag_369\n      jumpi\n      tag_369\n      tag_258\n      jump\t// in\n    tag_369:\n      0x00\n      swap2\n      dup3\n      mstore\n      0x20\n      dup1\n      dup4\n      keccak256\n      swap1\n      swap2\n      add\n      sload\n      sub(shl(0xa0, 0x01), 0x01)\n      and\n        /* \"CYBCC.sol\":12228:12249  _rOwned[_excluded[i]] */\n      dup4\n      mstore\n      dup3\n      add\n      swap3\n      swap1\n      swap3\n      mstore\n      0x40\n      add\n      swap1\n      keccak256\n      sload\n        /* \"CYBCC.sol\":12228:12259  _rOwned[_excluded[i]] > rSupply */\n      gt\n      dup1\n        /* \"CYBCC.sol\":12228:12311  _rOwned[_excluded[i]] > rSupply ||... */\n      tag_371\n      jumpi\n      pop\n        /* \"CYBCC.sol\":12304:12311  tSupply */\n      dup2\n        /* \"CYBCC.sol\":12280:12287  _tOwned */\n      0x06\n        /* \"CYBCC.sol\":12280:12301  _tOwned[_excluded[i]] */\n      0x00\n        /* \"CYBCC.sol\":12288:12297  _excluded */\n      0x09\n        /* \"CYBCC.sol\":12298:12299  i */\n      dup5\n        /* \"CYBCC.sol\":12288:12300  _excluded[i] */\n      dup2\n      sload\n      dup2\n      lt\n      tag_373\n      jumpi\n      tag_373\n      tag_258\n      jump\t// in\n    tag_373:\n      0x00\n      swap2\n      dup3\n      mstore\n      0x20\n      dup1\n      dup4\n      keccak256\n      swap1\n      swap2\n      add\n      sload\n      sub(shl(0xa0, 0x01), 0x01)\n      and\n        /* \"CYBCC.sol\":12280:12301  _tOwned[_excluded[i]] */\n      dup4\n      mstore\n      dup3\n      add\n      swap3\n      swap1\n      swap3\n      mstore\n      0x40\n      add\n      swap1\n      keccak256\n      sload\n        /* \"CYBCC.sol\":12280:12311  _tOwned[_excluded[i]] > tSupply */\n      gt\n        /* \"CYBCC.sol\":12228:12311  _rOwned[_excluded[i]] > rSupply ||... */\n    tag_371:\n        /* \"CYBCC.sol\":12206:12387  if (... */\n      iszero\n      tag_375\n      jumpi\n        /* \"CYBCC.sol\":12354:12361  _rTotal */\n      sload(0x0c)\n        /* \"CYBCC.sol\":12363:12370  _tTotal */\n      sload(0x0b)\n        /* \"CYBCC.sol\":12346:12371  return (_rTotal, _tTotal) */\n      swap5\n      pop\n      swap5\n      pop\n      pop\n      pop\n      pop\n        /* \"CYBCC.sol\":11990:12652  function _getCurrentSupply() private view returns (uint256, uint256) {... */\n      swap1\n      swap2\n      jump\t// out\n        /* \"CYBCC.sol\":12206:12387  if (... */\n    tag_375:\n        /* \"CYBCC.sol\":12421:12428  _rOwned */\n      0x05\n        /* \"CYBCC.sol\":12421:12442  _rOwned[_excluded[i]] */\n      0x00\n        /* \"CYBCC.sol\":12429:12438  _excluded */\n      0x09\n        /* \"CYBCC.sol\":12439:12440  i */\n      dup4\n        /* \"CYBCC.sol\":12429:12441  _excluded[i] */\n      dup2\n      sload\n      dup2\n      lt\n      tag_377\n      jumpi\n      tag_377\n      tag_258\n      jump\t// in\n    tag_377:\n      0x00\n      swap2\n      dup3\n      mstore\n      0x20\n      dup1\n      dup4\n      keccak256\n      swap1\n      swap2\n      add\n      sload\n      sub(shl(0xa0, 0x01), 0x01)\n      and\n        /* \"CYBCC.sol\":12421:12442  _rOwned[_excluded[i]] */\n      dup4\n      mstore\n      dup3\n      add\n      swap3\n      swap1\n      swap3\n      mstore\n      0x40\n      add\n      swap1\n      keccak256\n      sload\n        /* \"CYBCC.sol\":12411:12442  rSupply - _rOwned[_excluded[i]] */\n      tag_379\n      swap1\n        /* \"CYBCC.sol\":12411:12418  rSupply */\n      dup5\n        /* \"CYBCC.sol\":12411:12442  rSupply - _rOwned[_excluded[i]] */\n      tag_162\n      jump\t// in\n    tag_379:\n        /* \"CYBCC.sol\":12401:12442  rSupply = rSupply - _rOwned[_excluded[i]] */\n      swap3\n      pop\n        /* \"CYBCC.sol\":12477:12484  _tOwned */\n      0x06\n        /* \"CYBCC.sol\":12477:12498  _tOwned[_excluded[i]] */\n      0x00\n        /* \"CYBCC.sol\":12485:12494  _excluded */\n      0x09\n        /* \"CYBCC.sol\":12495:12496  i */\n      dup4\n        /* \"CYBCC.sol\":12485:12497  _excluded[i] */\n      dup2\n      sload\n      dup2\n      lt\n      tag_381\n      jumpi\n      tag_381\n      tag_258\n      jump\t// in\n    tag_381:\n      0x00\n      swap2\n      dup3\n      mstore\n      0x20\n      dup1\n      dup4\n      keccak256\n      swap1\n      swap2\n      add\n      sload\n      sub(shl(0xa0, 0x01), 0x01)\n      and\n        /* \"CYBCC.sol\":12477:12498  _tOwned[_excluded[i]] */\n      dup4\n      mstore\n      dup3\n      add\n      swap3\n      swap1\n      swap3\n      mstore\n      0x40\n      add\n      swap1\n      keccak256\n      sload\n        /* \"CYBCC.sol\":12467:12498  tSupply - _tOwned[_excluded[i]] */\n      tag_383\n      swap1\n        /* \"CYBCC.sol\":12467:12474  tSupply */\n      dup4\n        /* \"CYBCC.sol\":12467:12498  tSupply - _tOwned[_excluded[i]] */\n      tag_162\n      jump\t// in\n    tag_383:\n        /* \"CYBCC.sol\":12457:12498  tSupply = tSupply - _tOwned[_excluded[i]] */\n      swap2\n      pop\n        /* \"CYBCC.sol\":12186:12189  i++ */\n      0x01\n      add\n        /* \"CYBCC.sol\":12144:12510  for (uint256 i = 0; i < _excluded.length; i++) {... */\n      jump(tag_365)\n    tag_366:\n      pop\n        /* \"CYBCC.sol\":12546:12553  _tTotal */\n      sload(0x0b)\n        /* \"CYBCC.sol\":12536:12543  _rTotal */\n      sload(0x0c)\n        /* \"CYBCC.sol\":12536:12553  _rTotal / _tTotal */\n      tag_384\n      swap2\n      swap1\n      tag_320\n      jump\t// in\n    tag_384:\n        /* \"CYBCC.sol\":12526:12533  rSupply */\n      dup3\n        /* \"CYBCC.sol\":12526:12553  rSupply < _rTotal / _tTotal */\n      lt\n        /* \"CYBCC.sol\":12522:12607  if (rSupply < _rTotal / _tTotal) {... */\n      iszero\n      tag_385\n      jumpi\n        /* \"CYBCC.sol\":12578:12585  _rTotal */\n      sload(0x0c)\n        /* \"CYBCC.sol\":12587:12594  _tTotal */\n      sload(0x0b)\n        /* \"CYBCC.sol\":12570:12595  return (_rTotal, _tTotal) */\n      swap4\n      pop\n      swap4\n      pop\n      pop\n      pop\n        /* \"CYBCC.sol\":11990:12652  function _getCurrentSupply() private view returns (uint256, uint256) {... */\n      swap1\n      swap2\n      jump\t// out\n        /* \"CYBCC.sol\":12522:12607  if (rSupply < _rTotal / _tTotal) {... */\n    tag_385:\n        /* \"CYBCC.sol\":12627:12634  rSupply */\n      swap1\n      swap4\n        /* \"CYBCC.sol\":12636:12643  tSupply */\n      swap1\n      swap3\n      pop\n        /* \"CYBCC.sol\":11990:12652  function _getCurrentSupply() private view returns (uint256, uint256) {... */\n      swap1\n      pop\n      jump\t// out\n        /* \"CYBCC.sol\":7641:7880  function removeAllFee() private {... */\n    tag_339:\n        /* \"CYBCC.sol\":7688:7702  _reflectionFee */\n      sload(0x0e)\n        /* \"CYBCC.sol\":7688:7707  _reflectionFee == 0 */\n      iszero\n        /* \"CYBCC.sol\":7688:7723  _reflectionFee == 0 && _taxFee == 0 */\n      dup1\n      iszero\n      tag_387\n      jumpi\n      pop\n        /* \"CYBCC.sol\":7711:7718  _taxFee */\n      sload(0x10)\n        /* \"CYBCC.sol\":7711:7723  _taxFee == 0 */\n      iszero\n        /* \"CYBCC.sol\":7688:7723  _reflectionFee == 0 && _taxFee == 0 */\n    tag_387:\n        /* \"CYBCC.sol\":7684:7732  if (_reflectionFee == 0 && _taxFee == 0) return; */\n      iszero\n      tag_388\n      jumpi\n        /* \"CYBCC.sol\":7641:7880  function removeAllFee() private {... */\n      jump\t// out\n        /* \"CYBCC.sol\":7684:7732  if (_reflectionFee == 0 && _taxFee == 0) return; */\n    tag_388:\n        /* \"CYBCC.sol\":7769:7783  _reflectionFee */\n      0x0e\n      dup1\n      sload\n        /* \"CYBCC.sol\":7744:7766  _previousReflectionFee */\n      0x0f\n        /* \"CYBCC.sol\":7744:7783  _previousReflectionFee = _reflectionFee */\n      sstore\n        /* \"CYBCC.sol\":7812:7819  _taxFee */\n      0x10\n      dup1\n      sload\n        /* \"CYBCC.sol\":7794:7809  _previousTaxFee */\n      0x11\n        /* \"CYBCC.sol\":7794:7819  _previousTaxFee = _taxFee */\n      sstore\n      0x00\n        /* \"CYBCC.sol\":7832:7850  _reflectionFee = 0 */\n      swap2\n      dup3\n      swap1\n      sstore\n        /* \"CYBCC.sol\":7861:7872  _taxFee = 0 */\n      sstore\n        /* \"CYBCC.sol\":7641:7880  function removeAllFee() private {... */\n      jump\t// out\n        /* \"CYBCC.sol\":9323:9987  function _transferFromExcluded(... */\n    tag_343:\n        /* \"CYBCC.sol\":9474:9489  uint256 rAmount */\n      0x00\n        /* \"CYBCC.sol\":9504:9527  uint256 rTransferAmount */\n      0x00\n        /* \"CYBCC.sol\":9542:9565  uint256 tTransferAmount */\n      0x00\n        /* \"CYBCC.sol\":9580:9599  uint256 currentRate */\n      0x00\n        /* \"CYBCC.sol\":9613:9640  _getTransferValues(tAmount) */\n      tag_390\n        /* \"CYBCC.sol\":9632:9639  tAmount */\n      dup6\n        /* \"CYBCC.sol\":9613:9631  _getTransferValues */\n      tag_160\n        /* \"CYBCC.sol\":9613:9640  _getTransferValues(tAmount) */\n      jump\t// in\n    tag_390:\n      sub(shl(0xa0, 0x01), 0x01)\n        /* \"CYBCC.sol\":9669:9684  _tOwned[sender] */\n      dup12\n      and\n      0x00\n      swap1\n      dup2\n      mstore\n        /* \"CYBCC.sol\":9669:9676  _tOwned */\n      0x06\n        /* \"CYBCC.sol\":9669:9684  _tOwned[sender] */\n      0x20\n      mstore\n      0x40\n      swap1\n      keccak256\n      sload\n        /* \"CYBCC.sol\":9459:9640  (... */\n      swap4\n      swap8\n      pop\n      swap2\n      swap6\n      pop\n      swap4\n      pop\n      swap2\n      pop\n        /* \"CYBCC.sol\":9669:9694  _tOwned[sender] - tAmount */\n      tag_391\n      swap1\n        /* \"CYBCC.sol\":9687:9694  tAmount */\n      dup7\n      swap1\n        /* \"CYBCC.sol\":9669:9694  _tOwned[sender] - tAmount */\n      tag_162\n      jump\t// in\n    tag_391:\n      sub(shl(0xa0, 0x01), 0x01)\n        /* \"CYBCC.sol\":9651:9666  _tOwned[sender] */\n      dup9\n      and\n      0x00\n      swap1\n      dup2\n      mstore\n        /* \"CYBCC.sol\":9651:9658  _tOwned */\n      0x06\n        /* \"CYBCC.sol\":9651:9666  _tOwned[sender] */\n      0x20\n      swap1\n      dup2\n      mstore\n      0x40\n      dup1\n      dup4\n      keccak256\n        /* \"CYBCC.sol\":9651:9694  _tOwned[sender] = _tOwned[sender] - tAmount */\n      swap4\n      swap1\n      swap4\n      sstore\n        /* \"CYBCC.sol\":9723:9730  _rOwned */\n      0x05\n        /* \"CYBCC.sol\":9723:9738  _rOwned[sender] */\n      swap1\n      mstore\n      keccak256\n      sload\n        /* \"CYBCC.sol\":9723:9748  _rOwned[sender] - rAmount */\n      tag_392\n      swap1\n        /* \"CYBCC.sol\":9741:9748  rAmount */\n      dup6\n      swap1\n        /* \"CYBCC.sol\":9723:9748  _rOwned[sender] - rAmount */\n      tag_162\n      jump\t// in\n    tag_392:\n      sub(shl(0xa0, 0x01), 0x01)\n        /* \"CYBCC.sol\":9705:9720  _rOwned[sender] */\n      dup1\n      dup10\n      and\n      0x00\n      swap1\n      dup2\n      mstore\n        /* \"CYBCC.sol\":9705:9712  _rOwned */\n      0x05\n        /* \"CYBCC.sol\":9705:9720  _rOwned[sender] */\n      0x20\n      mstore\n      0x40\n      dup1\n      dup3\n      keccak256\n        /* \"CYBCC.sol\":9705:9748  _rOwned[sender] = _rOwned[sender] - rAmount */\n      swap4\n      swap1\n      swap4\n      sstore\n        /* \"CYBCC.sol\":9780:9798  _rOwned[recipient] */\n      swap1\n      dup9\n      and\n      dup2\n      mstore\n      keccak256\n      sload\n        /* \"CYBCC.sol\":9780:9816  _rOwned[recipient] + rTransferAmount */\n      tag_393\n      swap1\n        /* \"CYBCC.sol\":9801:9816  rTransferAmount */\n      dup5\n      swap1\n        /* \"CYBCC.sol\":9780:9816  _rOwned[recipient] + rTransferAmount */\n      tag_165\n      jump\t// in\n    tag_393:\n      sub(shl(0xa0, 0x01), 0x01)\n        /* \"CYBCC.sol\":9759:9777  _rOwned[recipient] */\n      dup8\n      and\n      0x00\n      swap1\n      dup2\n      mstore\n        /* \"CYBCC.sol\":9759:9766  _rOwned */\n      0x05\n        /* \"CYBCC.sol\":9759:9777  _rOwned[recipient] */\n      0x20\n      mstore\n      0x40\n      swap1\n      keccak256\n        /* \"CYBCC.sol\":9759:9816  _rOwned[recipient] = _rOwned[recipient] + rTransferAmount */\n      sstore\n        /* \"CYBCC.sol\":9829:9873  taxFeeTransfer(sender, tAmount, currentRate) */\n      tag_394\n        /* \"CYBCC.sol\":9844:9850  sender */\n      dup8\n        /* \"CYBCC.sol\":9852:9859  tAmount */\n      dup7\n        /* \"CYBCC.sol\":9861:9872  currentRate */\n      dup4\n        /* \"CYBCC.sol\":9829:9843  taxFeeTransfer */\n      tag_395\n        /* \"CYBCC.sol\":9829:9873  taxFeeTransfer(sender, tAmount, currentRate) */\n      jump\t// in\n    tag_394:\n        /* \"CYBCC.sol\":9884:9917  _reflectFee(tAmount, currentRate) */\n      tag_396\n        /* \"CYBCC.sol\":9896:9903  tAmount */\n      dup6\n        /* \"CYBCC.sol\":9905:9916  currentRate */\n      dup3\n        /* \"CYBCC.sol\":9884:9895  _reflectFee */\n      tag_397\n        /* \"CYBCC.sol\":9884:9917  _reflectFee(tAmount, currentRate) */\n      jump\t// in\n    tag_396:\n        /* \"CYBCC.sol\":9952:9961  recipient */\n      dup6\n      sub(shl(0xa0, 0x01), 0x01)\n        /* \"CYBCC.sol\":9935:9979  Transfer(sender, recipient, tTransferAmount) */\n      and\n        /* \"CYBCC.sol\":9944:9950  sender */\n      dup8\n      sub(shl(0xa0, 0x01), 0x01)\n        /* \"CYBCC.sol\":9935:9979  Transfer(sender, recipient, tTransferAmount) */\n      and\n      0xddf252ad1be2c89b69c2b068fc378daa952ba7f163c4a11628f55a4df523b3ef\n        /* \"CYBCC.sol\":9963:9978  tTransferAmount */\n      dup5\n        /* \"CYBCC.sol\":9935:9979  Transfer(sender, recipient, tTransferAmount) */\n      mload(0x40)\n      tag_398\n      swap2\n        /* \"#utility.yul\":1489:1514   */\n      dup2\n      mstore\n        /* \"#utility.yul\":1477:1479   */\n      0x20\n        /* \"#utility.yul\":1462:1480   */\n      add\n      swap1\n        /* \"#utility.yul\":1343:1520   */\n      jump\n        /* \"CYBCC.sol\":9935:9979  Transfer(sender, recipient, tTransferAmount) */\n    tag_398:\n      mload(0x40)\n      dup1\n      swap2\n      sub\n      swap1\n      log3\n        /* \"CYBCC.sol\":9448:9987  {... */\n      pop\n      pop\n      pop\n      pop\n        /* \"CYBCC.sol\":9323:9987  function _transferFromExcluded(... */\n      pop\n      pop\n      pop\n      jump\t// out\n        /* \"CYBCC.sol\":8639:9315  function _transferToExcluded(... */\n    tag_348:\n        /* \"CYBCC.sol\":8788:8803  uint256 rAmount */\n      0x00\n        /* \"CYBCC.sol\":8818:8841  uint256 rTransferAmount */\n      0x00\n        /* \"CYBCC.sol\":8856:8879  uint256 tTransferAmount */\n      0x00\n        /* \"CYBCC.sol\":8894:8913  uint256 currentRate */\n      0x00\n        /* \"CYBCC.sol\":8927:8954  _getTransferValues(tAmount) */\n      tag_400\n        /* \"CYBCC.sol\":8946:8953  tAmount */\n      dup6\n        /* \"CYBCC.sol\":8927:8945  _getTransferValues */\n      tag_160\n        /* \"CYBCC.sol\":8927:8954  _getTransferValues(tAmount) */\n      jump\t// in\n    tag_400:\n      sub(shl(0xa0, 0x01), 0x01)\n        /* \"CYBCC.sol\":8983:8998  _rOwned[sender] */\n      dup12\n      and\n      0x00\n      swap1\n      dup2\n      mstore\n        /* \"CYBCC.sol\":8983:8990  _rOwned */\n      0x05\n        /* \"CYBCC.sol\":8983:8998  _rOwned[sender] */\n      0x20\n      mstore\n      0x40\n      swap1\n      keccak256\n      sload\n        /* \"CYBCC.sol\":8773:8954  (... */\n      swap4\n      swap8\n      pop\n      swap2\n      swap6\n      pop\n      swap4\n      pop\n      swap2\n      pop\n        /* \"CYBCC.sol\":8983:9008  _rOwned[sender] - rAmount */\n      tag_401\n      swap1\n        /* \"CYBCC.sol\":8773:8954  (... */\n      dup6\n      swap1\n        /* \"CYBCC.sol\":8983:9008  _rOwned[sender] - rAmount */\n      tag_162\n      jump\t// in\n    tag_401:\n      sub(shl(0xa0, 0x01), 0x01)\n        /* \"CYBCC.sol\":8965:8980  _rOwned[sender] */\n      dup1\n      dup10\n      and\n      0x00\n      swap1\n      dup2\n      mstore\n        /* \"CYBCC.sol\":8965:8972  _rOwned */\n      0x05\n        /* \"CYBCC.sol\":8965:8980  _rOwned[sender] */\n      0x20\n      swap1\n      dup2\n      mstore\n      0x40\n      dup1\n      dup4\n      keccak256\n        /* \"CYBCC.sol\":8965:9008  _rOwned[sender] = _rOwned[sender] - rAmount */\n      swap5\n      swap1\n      swap5\n      sstore\n        /* \"CYBCC.sol\":9040:9058  _tOwned[recipient] */\n      swap2\n      dup10\n      and\n      dup2\n      mstore\n        /* \"CYBCC.sol\":9040:9047  _tOwned */\n      0x06\n        /* \"CYBCC.sol\":9040:9058  _tOwned[recipient] */\n      swap1\n      swap2\n      mstore\n      keccak256\n      sload\n        /* \"CYBCC.sol\":9040:9076  _tOwned[recipient] + tTransferAmount */\n      tag_402\n      swap1\n        /* \"CYBCC.sol\":9061:9076  tTransferAmount */\n      dup4\n      swap1\n        /* \"CYBCC.sol\":9040:9076  _tOwned[recipient] + tTransferAmount */\n      tag_165\n      jump\t// in\n    tag_402:\n      sub(shl(0xa0, 0x01), 0x01)\n        /* \"CYBCC.sol\":9019:9037  _tOwned[recipient] */\n      dup8\n      and\n      0x00\n      swap1\n      dup2\n      mstore\n        /* \"CYBCC.sol\":9019:9026  _tOwned */\n      0x06\n        /* \"CYBCC.sol\":9019:9037  _tOwned[recipient] */\n      0x20\n      swap1\n      dup2\n      mstore\n      0x40\n      dup1\n      dup4\n      keccak256\n        /* \"CYBCC.sol\":9019:9076  _tOwned[recipient] = _tOwned[recipient] + tTransferAmount */\n      swap4\n      swap1\n      swap4\n      sstore\n        /* \"CYBCC.sol\":9108:9115  _rOwned */\n      0x05\n        /* \"CYBCC.sol\":9108:9126  _rOwned[recipient] */\n      swap1\n      mstore\n      keccak256\n      sload\n        /* \"CYBCC.sol\":9108:9144  _rOwned[recipient] + rTransferAmount */\n      tag_393\n      swap1\n        /* \"CYBCC.sol\":9129:9144  rTransferAmount */\n      dup5\n      swap1\n        /* \"CYBCC.sol\":9108:9144  _rOwned[recipient] + rTransferAmount */\n      tag_165\n      jump\t// in\n        /* \"CYBCC.sol\":8023:8631  function _transferStandard(... */\n    tag_353:\n        /* \"CYBCC.sol\":8170:8185  uint256 rAmount */\n      0x00\n        /* \"CYBCC.sol\":8200:8223  uint256 rTransferAmount */\n      0x00\n        /* \"CYBCC.sol\":8238:8261  uint256 tTransferAmount */\n      0x00\n        /* \"CYBCC.sol\":8276:8295  uint256 currentRate */\n      0x00\n        /* \"CYBCC.sol\":8309:8336  _getTransferValues(tAmount) */\n      tag_408\n        /* \"CYBCC.sol\":8328:8335  tAmount */\n      dup6\n        /* \"CYBCC.sol\":8309:8327  _getTransferValues */\n      tag_160\n        /* \"CYBCC.sol\":8309:8336  _getTransferValues(tAmount) */\n      jump\t// in\n    tag_408:\n      sub(shl(0xa0, 0x01), 0x01)\n        /* \"CYBCC.sol\":8367:8382  _rOwned[sender] */\n      dup12\n      and\n      0x00\n      swap1\n      dup2\n      mstore\n        /* \"CYBCC.sol\":8367:8374  _rOwned */\n      0x05\n        /* \"CYBCC.sol\":8367:8382  _rOwned[sender] */\n      0x20\n      mstore\n      0x40\n      swap1\n      keccak256\n      sload\n        /* \"CYBCC.sol\":8155:8336  (... */\n      swap4\n      swap8\n      pop\n      swap2\n      swap6\n      pop\n      swap4\n      pop\n      swap2\n      pop\n        /* \"CYBCC.sol\":8367:8392  _rOwned[sender] - rAmount */\n      tag_392\n      swap1\n        /* \"CYBCC.sol\":8155:8336  (... */\n      dup6\n      swap1\n        /* \"CYBCC.sol\":8367:8392  _rOwned[sender] - rAmount */\n      tag_162\n      jump\t// in\n        /* \"CYBCC.sol\":9995:10727  function _transferBothExcluded(... */\n    tag_358:\n        /* \"CYBCC.sol\":10146:10161  uint256 rAmount */\n      0x00\n        /* \"CYBCC.sol\":10176:10199  uint256 rTransferAmount */\n      0x00\n        /* \"CYBCC.sol\":10214:10237  uint256 tTransferAmount */\n      0x00\n        /* \"CYBCC.sol\":10252:10271  uint256 currentRate */\n      0x00\n        /* \"CYBCC.sol\":10285:10312  _getTransferValues(tAmount) */\n      tag_415\n        /* \"CYBCC.sol\":10304:10311  tAmount */\n      dup6\n        /* \"CYBCC.sol\":10285:10303  _getTransferValues */\n      tag_160\n        /* \"CYBCC.sol\":10285:10312  _getTransferValues(tAmount) */\n      jump\t// in\n    tag_415:\n      sub(shl(0xa0, 0x01), 0x01)\n        /* \"CYBCC.sol\":10341:10356  _tOwned[sender] */\n      dup12\n      and\n      0x00\n      swap1\n      dup2\n      mstore\n        /* \"CYBCC.sol\":10341:10348  _tOwned */\n      0x06\n        /* \"CYBCC.sol\":10341:10356  _tOwned[sender] */\n      0x20\n      mstore\n      0x40\n      swap1\n      keccak256\n      sload\n        /* \"CYBCC.sol\":10131:10312  (... */\n      swap4\n      swap8\n      pop\n      swap2\n      swap6\n      pop\n      swap4\n      pop\n      swap2\n      pop\n        /* \"CYBCC.sol\":10341:10366  _tOwned[sender] - tAmount */\n      tag_416\n      swap1\n        /* \"CYBCC.sol\":10359:10366  tAmount */\n      dup7\n      swap1\n        /* \"CYBCC.sol\":10341:10366  _tOwned[sender] - tAmount */\n      tag_162\n      jump\t// in\n    tag_416:\n      sub(shl(0xa0, 0x01), 0x01)\n        /* \"CYBCC.sol\":10323:10338  _tOwned[sender] */\n      dup9\n      and\n      0x00\n      swap1\n      dup2\n      mstore\n        /* \"CYBCC.sol\":10323:10330  _tOwned */\n      0x06\n        /* \"CYBCC.sol\":10323:10338  _tOwned[sender] */\n      0x20\n      swap1\n      dup2\n      mstore\n      0x40\n      dup1\n      dup4\n      keccak256\n        /* \"CYBCC.sol\":10323:10366  _tOwned[sender] = _tOwned[sender] - tAmount */\n      swap4\n      swap1\n      swap4\n      sstore\n        /* \"CYBCC.sol\":10395:10402  _rOwned */\n      0x05\n        /* \"CYBCC.sol\":10395:10410  _rOwned[sender] */\n      swap1\n      mstore\n      keccak256\n      sload\n        /* \"CYBCC.sol\":10395:10420  _rOwned[sender] - rAmount */\n      tag_401\n      swap1\n        /* \"CYBCC.sol\":10413:10420  rAmount */\n      dup6\n      swap1\n        /* \"CYBCC.sol\":10395:10420  _rOwned[sender] - rAmount */\n      tag_162\n      jump\t// in\n        /* \"CYBCC.sol\":12660:13269  function taxFeeTransfer(... */\n    tag_395:\n        /* \"CYBCC.sol\":12791:12806  uint256 tTaxFee */\n      0x00\n        /* \"CYBCC.sol\":12831:12834  100 */\n      0x64\n        /* \"CYBCC.sol\":12820:12827  _taxFee */\n      sload(0x10)\n        /* \"CYBCC.sol\":12810:12817  tAmount */\n      dup5\n        /* \"CYBCC.sol\":12810:12827  tAmount * _taxFee */\n      tag_425\n      swap2\n      swap1\n      tag_280\n      jump\t// in\n    tag_425:\n        /* \"CYBCC.sol\":12809:12834  (tAmount * _taxFee) / 100 */\n      tag_426\n      swap2\n      swap1\n      tag_320\n      jump\t// in\n    tag_426:\n        /* \"CYBCC.sol\":12791:12834  uint256 tTaxFee = (tAmount * _taxFee) / 100 */\n      swap1\n      pop\n        /* \"CYBCC.sol\":12849:12860  tTaxFee > 0 */\n      dup1\n      iszero\n        /* \"CYBCC.sol\":12845:13262  if (tTaxFee > 0) {... */\n      tag_291\n      jumpi\n        /* \"CYBCC.sol\":12877:12892  uint256 rTaxFee */\n      0x00\n        /* \"CYBCC.sol\":12921:12922  2 */\n      0x02\n        /* \"CYBCC.sol\":12896:12917  tTaxFee * currentRate */\n      tag_428\n        /* \"CYBCC.sol\":12906:12917  currentRate */\n      dup5\n        /* \"CYBCC.sol\":12896:12903  tTaxFee */\n      dup5\n        /* \"CYBCC.sol\":12896:12917  tTaxFee * currentRate */\n      tag_280\n      jump\t// in\n    tag_428:\n        /* \"CYBCC.sol\":12895:12922  (tTaxFee * currentRate) / 2 */\n      tag_429\n      swap2\n      swap1\n      tag_320\n      jump\t// in\n    tag_429:\n        /* \"CYBCC.sol\":12974:12991  _marketingAccount */\n      and(sub(shl(0xa0, 0x01), 0x01), sload(0x12))\n        /* \"CYBCC.sol\":12966:12992  _rOwned[_marketingAccount] */\n      0x00\n      swap1\n      dup2\n      mstore\n        /* \"CYBCC.sol\":12966:12973  _rOwned */\n      0x05\n        /* \"CYBCC.sol\":12966:12992  _rOwned[_marketingAccount] */\n      0x20\n      mstore\n      0x40\n      swap1\n      keccak256\n      sload\n        /* \"CYBCC.sol\":12877:12922  uint256 rTaxFee = (tTaxFee * currentRate) / 2 */\n      swap1\n      swap2\n      pop\n        /* \"CYBCC.sol\":12966:13002  _rOwned[_marketingAccount] + rTaxFee */\n      tag_430\n      swap1\n        /* \"CYBCC.sol\":12877:12922  uint256 rTaxFee = (tTaxFee * currentRate) / 2 */\n      dup3\n      swap1\n        /* \"CYBCC.sol\":12966:13002  _rOwned[_marketingAccount] + rTaxFee */\n      tag_165\n      jump\t// in\n    tag_430:\n        /* \"CYBCC.sol\":12945:12962  _marketingAccount */\n      sload(0x12)\n      sub(shl(0xa0, 0x01), 0x01)\n      swap1\n      dup2\n      and\n        /* \"CYBCC.sol\":12937:12963  _rOwned[_marketingAccount] */\n      0x00\n      swap1\n      dup2\n      mstore\n        /* \"CYBCC.sol\":12937:12944  _rOwned */\n      0x05\n        /* \"CYBCC.sol\":12937:12963  _rOwned[_marketingAccount] */\n      0x20\n      mstore\n      0x40\n      dup1\n      dup3\n      keccak256\n        /* \"CYBCC.sol\":12937:13002  _rOwned[_marketingAccount] = _rOwned[_marketingAccount] + rTaxFee */\n      swap4\n      swap1\n      swap4\n      sstore\n        /* \"CYBCC.sol\":13073:13092  _developmentAccount */\n      sload(0x13)\n      swap1\n      swap2\n      and\n        /* \"CYBCC.sol\":13065:13093  _rOwned[_developmentAccount] */\n      dup2\n      mstore\n      keccak256\n      sload\n        /* \"CYBCC.sol\":13065:13120  _rOwned[_developmentAccount] +... */\n      tag_431\n      swap1\n        /* \"CYBCC.sol\":13113:13120  rTaxFee */\n      dup3\n      swap1\n        /* \"CYBCC.sol\":13065:13120  _rOwned[_developmentAccount] +... */\n      tag_165\n      jump\t// in\n    tag_431:\n        /* \"CYBCC.sol\":13025:13044  _developmentAccount */\n      sload(0x13)\n      sub(shl(0xa0, 0x01), 0x01)\n      swap1\n      dup2\n      and\n        /* \"CYBCC.sol\":13017:13045  _rOwned[_developmentAccount] */\n      0x00\n      swap1\n      dup2\n      mstore\n        /* \"CYBCC.sol\":13017:13024  _rOwned */\n      0x05\n        /* \"CYBCC.sol\":13017:13045  _rOwned[_developmentAccount] */\n      0x20\n      swap1\n      dup2\n      mstore\n      0x40\n      swap2\n      dup3\n      swap1\n      keccak256\n        /* \"CYBCC.sol\":13017:13120  _rOwned[_developmentAccount] =... */\n      swap4\n      swap1\n      swap4\n      sstore\n        /* \"CYBCC.sol\":13157:13174  _marketingAccount */\n      sload(0x12)\n        /* \"CYBCC.sol\":13140:13184  Transfer(sender, _marketingAccount, tTaxFee) */\n      swap1\n      mload\n        /* \"#utility.yul\":1489:1514   */\n      dup6\n      dup2\n      mstore\n        /* \"CYBCC.sol\":13157:13174  _marketingAccount */\n      swap1\n      dup3\n      and\n      swap3\n        /* \"CYBCC.sol\":13140:13184  Transfer(sender, _marketingAccount, tTaxFee) */\n      swap2\n      dup9\n      and\n      swap2\n      0xddf252ad1be2c89b69c2b068fc378daa952ba7f163c4a11628f55a4df523b3ef\n      swap2\n        /* \"#utility.yul\":1462:1480   */\n      add\n        /* \"CYBCC.sol\":13140:13184  Transfer(sender, _marketingAccount, tTaxFee) */\n      mload(0x40)\n      dup1\n      swap2\n      sub\n      swap1\n      log3\n        /* \"CYBCC.sol\":13221:13240  _developmentAccount */\n      sload(0x13)\n        /* \"CYBCC.sol\":13204:13250  Transfer(sender, _developmentAccount, tTaxFee) */\n      mload(0x40)\n        /* \"#utility.yul\":1489:1514   */\n      dup4\n      dup2\n      mstore\n      sub(shl(0xa0, 0x01), 0x01)\n        /* \"CYBCC.sol\":13221:13240  _developmentAccount */\n      swap2\n      dup3\n      and\n      swap2\n        /* \"CYBCC.sol\":13204:13250  Transfer(sender, _developmentAccount, tTaxFee) */\n      dup8\n      and\n      swap1\n      0xddf252ad1be2c89b69c2b068fc378daa952ba7f163c4a11628f55a4df523b3ef\n      swap1\n        /* \"#utility.yul\":1477:1479   */\n      0x20\n        /* \"#utility.yul\":1462:1480   */\n      add\n        /* \"CYBCC.sol\":13204:13250  Transfer(sender, _developmentAccount, tTaxFee) */\n      mload(0x40)\n      dup1\n      swap2\n      sub\n      swap1\n      log3\n        /* \"CYBCC.sol\":12862:13262  {... */\n      pop\n        /* \"CYBCC.sol\":12780:13269  {... */\n      pop\n        /* \"CYBCC.sol\":12660:13269  function taxFeeTransfer(... */\n      pop\n      pop\n      pop\n      jump\t// out\n        /* \"CYBCC.sol\":11558:11813  function _reflectFee(uint256 tAmount, uint256 currentRate) private {... */\n    tag_397:\n        /* \"CYBCC.sol\":11636:11648  uint256 tFee */\n      0x00\n        /* \"CYBCC.sol\":11680:11683  100 */\n      0x64\n        /* \"CYBCC.sol\":11662:11676  _reflectionFee */\n      sload(0x0e)\n        /* \"CYBCC.sol\":11652:11659  tAmount */\n      dup5\n        /* \"CYBCC.sol\":11652:11676  tAmount * _reflectionFee */\n      tag_435\n      swap2\n      swap1\n      tag_280\n      jump\t// in\n    tag_435:\n        /* \"CYBCC.sol\":11651:11683  (tAmount * _reflectionFee) / 100 */\n      tag_436\n      swap2\n      swap1\n      tag_320\n      jump\t// in\n    tag_436:\n        /* \"CYBCC.sol\":11636:11683  uint256 tFee = (tAmount * _reflectionFee) / 100 */\n      swap1\n      pop\n        /* \"CYBCC.sol\":11694:11706  uint256 rFee */\n      0x00\n        /* \"CYBCC.sol\":11709:11727  tFee * currentRate */\n      tag_437\n        /* \"CYBCC.sol\":11716:11727  currentRate */\n      dup4\n        /* \"CYBCC.sol\":11636:11683  uint256 tFee = (tAmount * _reflectionFee) / 100 */\n      dup4\n        /* \"CYBCC.sol\":11709:11727  tFee * currentRate */\n      tag_280\n      jump\t// in\n    tag_437:\n        /* \"CYBCC.sol\":11694:11727  uint256 rFee = tFee * currentRate */\n      swap1\n      pop\n        /* \"CYBCC.sol\":11760:11764  rFee */\n      dup1\n        /* \"CYBCC.sol\":11750:11757  _rTotal */\n      sload(0x0c)\n        /* \"CYBCC.sol\":11750:11764  _rTotal - rFee */\n      tag_438\n      swap2\n      swap1\n      tag_162\n      jump\t// in\n    tag_438:\n        /* \"CYBCC.sol\":11740:11747  _rTotal */\n      0x0c\n        /* \"CYBCC.sol\":11740:11764  _rTotal = _rTotal - rFee */\n      sstore\n        /* \"CYBCC.sol\":11788:11798  _tFeeTotal */\n      sload(0x0d)\n        /* \"CYBCC.sol\":11788:11805  _tFeeTotal + tFee */\n      tag_439\n      swap1\n        /* \"CYBCC.sol\":11801:11805  tFee */\n      dup4\n      swap1\n        /* \"CYBCC.sol\":11788:11805  _tFeeTotal + tFee */\n      tag_165\n      jump\t// in\n    tag_439:\n        /* \"CYBCC.sol\":11775:11785  _tFeeTotal */\n      0x0d\n        /* \"CYBCC.sol\":11775:11805  _tFeeTotal = _tFeeTotal + tFee */\n      sstore\n      pop\n      pop\n      pop\n      pop\n        /* \"CYBCC.sol\":11558:11813  function _reflectFee(uint256 tAmount, uint256 currentRate) private {... */\n      jump\t// out\n        /* \"#utility.yul\":14:240   */\n    tag_37:\n        /* \"#utility.yul\":73:79   */\n      0x00\n        /* \"#utility.yul\":126:128   */\n      0x20\n        /* \"#utility.yul\":114:123   */\n      dup3\n        /* \"#utility.yul\":105:112   */\n      dup5\n        /* \"#utility.yul\":101:124   */\n      sub\n        /* \"#utility.yul\":97:129   */\n      slt\n        /* \"#utility.yul\":94:146   */\n      iszero\n      tag_444\n      jumpi\n        /* \"#utility.yul\":142:143   */\n      0x00\n        /* \"#utility.yul\":139:140   */\n      0x00\n        /* \"#utility.yul\":132:144   */\n      revert\n        /* \"#utility.yul\":94:146   */\n    tag_444:\n      pop\n        /* \"#utility.yul\":187:210   */\n      calldataload\n      swap2\n        /* \"#utility.yul\":14:240   */\n      swap1\n      pop\n      jump\t// out\n        /* \"#utility.yul\":245:663   */\n    tag_43:\n        /* \"#utility.yul\":394:396   */\n      0x20\n        /* \"#utility.yul\":383:392   */\n      dup2\n        /* \"#utility.yul\":376:397   */\n      mstore\n        /* \"#utility.yul\":357:361   */\n      0x00\n        /* \"#utility.yul\":426:432   */\n      dup3\n        /* \"#utility.yul\":420:433   */\n      mload\n        /* \"#utility.yul\":469:475   */\n      dup1\n        /* \"#utility.yul\":464:466   */\n      0x20\n        /* \"#utility.yul\":453:462   */\n      dup5\n        /* \"#utility.yul\":449:467   */\n      add\n        /* \"#utility.yul\":442:476   */\n      mstore\n        /* \"#utility.yul\":528:534   */\n      dup1\n        /* \"#utility.yul\":523:525   */\n      0x20\n        /* \"#utility.yul\":515:521   */\n      dup6\n        /* \"#utility.yul\":511:526   */\n      add\n        /* \"#utility.yul\":506:508   */\n      0x40\n        /* \"#utility.yul\":495:504   */\n      dup6\n        /* \"#utility.yul\":491:509   */\n      add\n        /* \"#utility.yul\":485:535   */\n      mcopy\n        /* \"#utility.yul\":584:585   */\n      0x00\n        /* \"#utility.yul\":579:581   */\n      0x40\n        /* \"#utility.yul\":570:576   */\n      dup3\n        /* \"#utility.yul\":559:568   */\n      dup6\n        /* \"#utility.yul\":555:577   */\n      add\n        /* \"#utility.yul\":551:582   */\n      add\n        /* \"#utility.yul\":544:586   */\n      mstore\n        /* \"#utility.yul\":654:656   */\n      0x40\n        /* \"#utility.yul\":647:649   */\n      0x1f\n        /* \"#utility.yul\":643:650   */\n      not\n        /* \"#utility.yul\":638:640   */\n      0x1f\n        /* \"#utility.yul\":630:636   */\n      dup4\n        /* \"#utility.yul\":626:641   */\n      add\n        /* \"#utility.yul\":622:651   */\n      and\n        /* \"#utility.yul\":611:620   */\n      dup5\n        /* \"#utility.yul\":607:652   */\n      add\n        /* \"#utility.yul\":603:657   */\n      add\n        /* \"#utility.yul\":595:657   */\n      swap2\n      pop\n      pop\n        /* \"#utility.yul\":245:663   */\n      swap3\n      swap2\n      pop\n      pop\n      jump\t// out\n        /* \"#utility.yul\":668:841   */\n    tag_440:\n        /* \"#utility.yul\":736:756   */\n      dup1\n      calldataload\n      sub(shl(0xa0, 0x01), 0x01)\n        /* \"#utility.yul\":785:816   */\n      dup2\n      and\n        /* \"#utility.yul\":775:817   */\n      dup2\n      eq\n        /* \"#utility.yul\":765:835   */\n      tag_447\n      jumpi\n        /* \"#utility.yul\":831:832   */\n      0x00\n        /* \"#utility.yul\":828:829   */\n      0x00\n        /* \"#utility.yul\":821:833   */\n      revert\n        /* \"#utility.yul\":765:835   */\n    tag_447:\n        /* \"#utility.yul\":668:841   */\n      swap2\n      swap1\n      pop\n      jump\t// out\n        /* \"#utility.yul\":846:1146   */\n    tag_47:\n        /* \"#utility.yul\":914:920   */\n      0x00\n        /* \"#utility.yul\":922:928   */\n      0x00\n        /* \"#utility.yul\":975:977   */\n      0x40\n        /* \"#utility.yul\":963:972   */\n      dup4\n        /* \"#utility.yul\":954:961   */\n      dup6\n        /* \"#utility.yul\":950:973   */\n      sub\n        /* \"#utility.yul\":946:978   */\n      slt\n        /* \"#utility.yul\":943:995   */\n      iszero\n      tag_449\n      jumpi\n        /* \"#utility.yul\":991:992   */\n      0x00\n        /* \"#utility.yul\":988:989   */\n      0x00\n        /* \"#utility.yul\":981:993   */\n      revert\n        /* \"#utility.yul\":943:995   */\n    tag_449:\n        /* \"#utility.yul\":1014:1043   */\n      tag_450\n        /* \"#utility.yul\":1033:1042   */\n      dup4\n        /* \"#utility.yul\":1014:1043   */\n      tag_440\n      jump\t// in\n    tag_450:\n        /* \"#utility.yul\":1004:1043   */\n      swap5\n        /* \"#utility.yul\":1112:1114   */\n      0x20\n        /* \"#utility.yul\":1097:1115   */\n      swap4\n      swap1\n      swap4\n      add\n        /* \"#utility.yul\":1084:1116   */\n      calldataload\n      swap4\n      pop\n      pop\n      pop\n        /* \"#utility.yul\":846:1146   */\n      jump\t// out\n        /* \"#utility.yul\":1733:2107   */\n    tag_64:\n        /* \"#utility.yul\":1810:1816   */\n      0x00\n        /* \"#utility.yul\":1818:1824   */\n      0x00\n        /* \"#utility.yul\":1826:1832   */\n      0x00\n        /* \"#utility.yul\":1879:1881   */\n      0x60\n        /* \"#utility.yul\":1867:1876   */\n      dup5\n        /* \"#utility.yul\":1858:1865   */\n      dup7\n        /* \"#utility.yul\":1854:1877   */\n      sub\n        /* \"#utility.yul\":1850:1882   */\n      slt\n        /* \"#utility.yul\":1847:1899   */\n      iszero\n      tag_455\n      jumpi\n        /* \"#utility.yul\":1895:1896   */\n      0x00\n        /* \"#utility.yul\":1892:1893   */\n      0x00\n        /* \"#utility.yul\":1885:1897   */\n      revert\n        /* \"#utility.yul\":1847:1899   */\n    tag_455:\n        /* \"#utility.yul\":1918:1947   */\n      tag_456\n        /* \"#utility.yul\":1937:1946   */\n      dup5\n        /* \"#utility.yul\":1918:1947   */\n      tag_440\n      jump\t// in\n    tag_456:\n        /* \"#utility.yul\":1908:1947   */\n      swap3\n      pop\n        /* \"#utility.yul\":1966:2004   */\n      tag_457\n        /* \"#utility.yul\":2000:2002   */\n      0x20\n        /* \"#utility.yul\":1989:1998   */\n      dup6\n        /* \"#utility.yul\":1985:2003   */\n      add\n        /* \"#utility.yul\":1966:2004   */\n      tag_440\n      jump\t// in\n    tag_457:\n        /* \"#utility.yul\":1733:2107   */\n      swap3\n      swap6\n        /* \"#utility.yul\":1956:2004   */\n      swap3\n      swap5\n      pop\n      pop\n      pop\n        /* \"#utility.yul\":2073:2075   */\n      0x40\n        /* \"#utility.yul\":2058:2076   */\n      swap2\n      swap1\n      swap2\n      add\n        /* \"#utility.yul\":2045:2077   */\n      calldataload\n      swap1\n        /* \"#utility.yul\":1733:2107   */\n      jump\t// out\n        /* \"#utility.yul\":2301:2487   */\n    tag_79:\n        /* \"#utility.yul\":2360:2366   */\n      0x00\n        /* \"#utility.yul\":2413:2415   */\n      0x20\n        /* \"#utility.yul\":2401:2410   */\n      dup3\n        /* \"#utility.yul\":2392:2399   */\n      dup5\n        /* \"#utility.yul\":2388:2411   */\n      sub\n        /* \"#utility.yul\":2384:2416   */\n      slt\n        /* \"#utility.yul\":2381:2433   */\n      iszero\n      tag_460\n      jumpi\n        /* \"#utility.yul\":2429:2430   */\n      0x00\n        /* \"#utility.yul\":2426:2427   */\n      0x00\n        /* \"#utility.yul\":2419:2431   */\n      revert\n        /* \"#utility.yul\":2381:2433   */\n    tag_460:\n        /* \"#utility.yul\":2452:2481   */\n      tag_319\n        /* \"#utility.yul\":2471:2480   */\n      dup3\n        /* \"#utility.yul\":2452:2481   */\n      tag_440\n      jump\t// in\n        /* \"#utility.yul\":2492:2887   */\n    tag_84:\n        /* \"#utility.yul\":2557:2563   */\n      0x00\n        /* \"#utility.yul\":2565:2571   */\n      0x00\n        /* \"#utility.yul\":2618:2620   */\n      0x40\n        /* \"#utility.yul\":2606:2615   */\n      dup4\n        /* \"#utility.yul\":2597:2604   */\n      dup6\n        /* \"#utility.yul\":2593:2616   */\n      sub\n        /* \"#utility.yul\":2589:2621   */\n      slt\n        /* \"#utility.yul\":2586:2638   */\n      iszero\n      tag_463\n      jumpi\n        /* \"#utility.yul\":2634:2635   */\n      0x00\n        /* \"#utility.yul\":2631:2632   */\n      0x00\n        /* \"#utility.yul\":2624:2636   */\n      revert\n        /* \"#utility.yul\":2586:2638   */\n    tag_463:\n        /* \"#utility.yul\":2679:2702   */\n      dup3\n      calldataload\n      swap2\n      pop\n        /* \"#utility.yul\":2778:2780   */\n      0x20\n        /* \"#utility.yul\":2763:2781   */\n      dup4\n      add\n        /* \"#utility.yul\":2750:2782   */\n      calldataload\n        /* \"#utility.yul\":2820:2835   */\n      dup1\n      iszero\n        /* \"#utility.yul\":2813:2836   */\n      iszero\n        /* \"#utility.yul\":2801:2837   */\n      dup2\n      eq\n        /* \"#utility.yul\":2791:2855   */\n      tag_464\n      jumpi\n        /* \"#utility.yul\":2851:2852   */\n      0x00\n        /* \"#utility.yul\":2848:2849   */\n      0x00\n        /* \"#utility.yul\":2841:2853   */\n      revert\n        /* \"#utility.yul\":2791:2855   */\n    tag_464:\n        /* \"#utility.yul\":2874:2881   */\n      dup1\n        /* \"#utility.yul\":2864:2881   */\n      swap2\n      pop\n      pop\n        /* \"#utility.yul\":2492:2887   */\n      swap3\n      pop\n      swap3\n      swap1\n      pop\n      jump\t// out\n        /* \"#utility.yul\":2892:3152   */\n    tag_138:\n        /* \"#utility.yul\":2960:2966   */\n      0x00\n        /* \"#utility.yul\":2968:2974   */\n      0x00\n        /* \"#utility.yul\":3021:3023   */\n      0x40\n        /* \"#utility.yul\":3009:3018   */\n      dup4\n        /* \"#utility.yul\":3000:3007   */\n      dup6\n        /* \"#utility.yul\":2996:3019   */\n      sub\n        /* \"#utility.yul\":2992:3024   */\n      slt\n        /* \"#utility.yul\":2989:3041   */\n      iszero\n      tag_466\n      jumpi\n        /* \"#utility.yul\":3037:3038   */\n      0x00\n        /* \"#utility.yul\":3034:3035   */\n      0x00\n        /* \"#utility.yul\":3027:3039   */\n      revert\n        /* \"#utility.yul\":2989:3041   */\n    tag_466:\n        /* \"#utility.yul\":3060:3089   */\n      tag_467\n        /* \"#utility.yul\":3079:3088   */\n      dup4\n        /* \"#utility.yul\":3060:3089   */\n      tag_440\n      jump\t// in\n    tag_467:\n        /* \"#utility.yul\":3050:3089   */\n      swap2\n      pop\n        /* \"#utility.yul\":3108:3146   */\n      tag_468\n        /* \"#utility.yul\":3142:3144   */\n      0x20\n        /* \"#utility.yul\":3131:3140   */\n      dup5\n        /* \"#utility.yul\":3127:3145   */\n      add\n        /* \"#utility.yul\":3108:3146   */\n      tag_440\n      jump\t// in\n    tag_468:\n        /* \"#utility.yul\":3098:3146   */\n      swap1\n      pop\n        /* \"#utility.yul\":2892:3152   */\n      swap3\n      pop\n      swap3\n      swap1\n      pop\n      jump\t// out\n        /* \"#utility.yul\":3570:3697   */\n    tag_441:\n        /* \"#utility.yul\":3631:3641   */\n      0x4e487b71\n        /* \"#utility.yul\":3626:3629   */\n      0xe0\n        /* \"#utility.yul\":3622:3642   */\n      shl\n        /* \"#utility.yul\":3619:3620   */\n      0x00\n        /* \"#utility.yul\":3612:3643   */\n      mstore\n        /* \"#utility.yul\":3662:3666   */\n      0x11\n        /* \"#utility.yul\":3659:3660   */\n      0x04\n        /* \"#utility.yul\":3652:3667   */\n      mstore\n        /* \"#utility.yul\":3686:3690   */\n      0x24\n        /* \"#utility.yul\":3683:3684   */\n      0x00\n        /* \"#utility.yul\":3676:3691   */\n      revert\n        /* \"#utility.yul\":3702:3830   */\n    tag_162:\n        /* \"#utility.yul\":3769:3778   */\n      dup2\n      dup2\n      sub\n        /* \"#utility.yul\":3790:3801   */\n      dup2\n      dup2\n      gt\n        /* \"#utility.yul\":3787:3824   */\n      iszero\n      tag_173\n      jumpi\n        /* \"#utility.yul\":3804:3822   */\n      tag_173\n      tag_441\n      jump\t// in\n        /* \"#utility.yul\":3835:3960   */\n    tag_165:\n        /* \"#utility.yul\":3900:3909   */\n      dup1\n      dup3\n      add\n        /* \"#utility.yul\":3921:3931   */\n      dup1\n      dup3\n      gt\n        /* \"#utility.yul\":3918:3954   */\n      iszero\n      tag_173\n      jumpi\n        /* \"#utility.yul\":3934:3952   */\n      tag_173\n      tag_441\n      jump\t// in\n        /* \"#utility.yul\":3965:4345   */\n    tag_168:\n        /* \"#utility.yul\":4044:4045   */\n      0x01\n        /* \"#utility.yul\":4040:4052   */\n      dup2\n      dup2\n      shr\n      swap1\n        /* \"#utility.yul\":4087:4099   */\n      dup3\n      and\n      dup1\n        /* \"#utility.yul\":4108:4169   */\n      tag_478\n      jumpi\n        /* \"#utility.yul\":4162:4166   */\n      0x7f\n        /* \"#utility.yul\":4154:4160   */\n      dup3\n        /* \"#utility.yul\":4150:4167   */\n      and\n        /* \"#utility.yul\":4140:4167   */\n      swap2\n      pop\n        /* \"#utility.yul\":4108:4169   */\n    tag_478:\n        /* \"#utility.yul\":4215:4217   */\n      0x20\n        /* \"#utility.yul\":4207:4213   */\n      dup3\n        /* \"#utility.yul\":4204:4218   */\n      lt\n        /* \"#utility.yul\":4184:4202   */\n      dup2\n        /* \"#utility.yul\":4181:4219   */\n      sub\n        /* \"#utility.yul\":4178:4339   */\n      tag_479\n      jumpi\n        /* \"#utility.yul\":4261:4271   */\n      0x4e487b71\n        /* \"#utility.yul\":4256:4259   */\n      0xe0\n        /* \"#utility.yul\":4252:4272   */\n      shl\n        /* \"#utility.yul\":4249:4250   */\n      0x00\n        /* \"#utility.yul\":4242:4273   */\n      mstore\n        /* \"#utility.yul\":4296:4300   */\n      0x22\n        /* \"#utility.yul\":4293:4294   */\n      0x04\n        /* \"#utility.yul\":4286:4301   */\n      mstore\n        /* \"#utility.yul\":4324:4328   */\n      0x24\n        /* \"#utility.yul\":4321:4322   */\n      0x00\n        /* \"#utility.yul\":4314:4329   */\n      revert\n        /* \"#utility.yul\":4178:4339   */\n    tag_479:\n      pop\n        /* \"#utility.yul\":3965:4345   */\n      swap2\n      swap1\n      pop\n      jump\t// out\n        /* \"#utility.yul\":5066:5468   */\n    tag_217:\n        /* \"#utility.yul\":5268:5270   */\n      0x20\n        /* \"#utility.yul\":5250:5271   */\n      dup1\n      dup3\n      mstore\n        /* \"#utility.yul\":5307:5309   */\n      0x26\n        /* \"#utility.yul\":5287:5305   */\n      swap1\n      dup3\n      add\n        /* \"#utility.yul\":5280:5310   */\n      mstore\n        /* \"#utility.yul\":5346:5380   */\n      0x7a65726f20616464726573732063616e206e6f74206265207468652046656541\n        /* \"#utility.yul\":5341:5343   */\n      0x40\n        /* \"#utility.yul\":5326:5344   */\n      dup3\n      add\n        /* \"#utility.yul\":5319:5381   */\n      mstore\n      shl(0xd2, 0x18d8dbdd5b9d)\n        /* \"#utility.yul\":5412:5414   */\n      0x60\n        /* \"#utility.yul\":5397:5415   */\n      dup3\n      add\n        /* \"#utility.yul\":5390:5426   */\n      mstore\n        /* \"#utility.yul\":5458:5461   */\n      0x80\n        /* \"#utility.yul\":5443:5462   */\n      add\n      swap1\n        /* \"#utility.yul\":5066:5468   */\n      jump\t// out\n        /* \"#utility.yul\":5829:5956   */\n    tag_258:\n        /* \"#utility.yul\":5890:5900   */\n      0x4e487b71\n        /* \"#utility.yul\":5885:5888   */\n      0xe0\n        /* \"#utility.yul\":5881:5901   */\n      shl\n        /* \"#utility.yul\":5878:5879   */\n      0x00\n        /* \"#utility.yul\":5871:5902   */\n      mstore\n        /* \"#utility.yul\":5921:5925   */\n      0x32\n        /* \"#utility.yul\":5918:5919   */\n      0x04\n        /* \"#utility.yul\":5911:5926   */\n      mstore\n        /* \"#utility.yul\":5945:5949   */\n      0x24\n        /* \"#utility.yul\":5942:5943   */\n      0x00\n        /* \"#utility.yul\":5935:5950   */\n      revert\n        /* \"#utility.yul\":5961:6088   */\n    tag_270:\n        /* \"#utility.yul\":6022:6032   */\n      0x4e487b71\n        /* \"#utility.yul\":6017:6020   */\n      0xe0\n        /* \"#utility.yul\":6013:6033   */\n      shl\n        /* \"#utility.yul\":6010:6011   */\n      0x00\n        /* \"#utility.yul\":6003:6034   */\n      mstore\n        /* \"#utility.yul\":6053:6057   */\n      0x31\n        /* \"#utility.yul\":6050:6051   */\n      0x04\n        /* \"#utility.yul\":6043:6058   */\n      mstore\n        /* \"#utility.yul\":6077:6081   */\n      0x24\n        /* \"#utility.yul\":6074:6075   */\n      0x00\n        /* \"#utility.yul\":6067:6082   */\n      revert\n        /* \"#utility.yul\":6093:6261   */\n    tag_280:\n        /* \"#utility.yul\":6166:6175   */\n      dup1\n      dup3\n      mul\n        /* \"#utility.yul\":6197:6206   */\n      dup2\n      iszero\n        /* \"#utility.yul\":6214:6229   */\n      dup3\n      dup3\n      div\n        /* \"#utility.yul\":6208:6230   */\n      dup5\n      eq\n        /* \"#utility.yul\":6194:6231   */\n      or\n        /* \"#utility.yul\":6184:6255   */\n      tag_173\n      jumpi\n        /* \"#utility.yul\":6235:6253   */\n      tag_173\n      tag_441\n      jump\t// in\n        /* \"#utility.yul\":8589:8806   */\n    tag_320:\n        /* \"#utility.yul\":8629:8630   */\n      0x00\n        /* \"#utility.yul\":8655:8656   */\n      dup3\n        /* \"#utility.yul\":8645:8777   */\n      tag_496\n      jumpi\n        /* \"#utility.yul\":8699:8709   */\n      0x4e487b71\n        /* \"#utility.yul\":8694:8697   */\n      0xe0\n        /* \"#utility.yul\":8690:8710   */\n      shl\n        /* \"#utility.yul\":8687:8688   */\n      0x00\n        /* \"#utility.yul\":8680:8711   */\n      mstore\n        /* \"#utility.yul\":8734:8738   */\n      0x12\n        /* \"#utility.yul\":8731:8732   */\n      0x04\n        /* \"#utility.yul\":8724:8739   */\n      mstore\n        /* \"#utility.yul\":8762:8766   */\n      0x24\n        /* \"#utility.yul\":8759:8760   */\n      0x00\n        /* \"#utility.yul\":8752:8767   */\n      revert\n        /* \"#utility.yul\":8645:8777   */\n    tag_496:\n      pop\n        /* \"#utility.yul\":8791:8800   */\n      div\n      swap1\n        /* \"#utility.yul\":8589:8806   */\n      jump\t// out\n\n    auxdata: 0xa2646970667358221220ea3c0acdb4beafad64dbd09074803c9e14ee40681b0fee36229882af80cb582764736f6c634300081d0033\n}\n",
				"bytecode": {
					"linkReferences": {},
					"object": "6080604052600a80546101003302610100600160a81b03198216811783555f600d556100359260ff91821691909216179061040e565b6100429062989680610420565b601455348015610050575f5ffd5b506040518060400160405280600d81526020016c21aca122a921a0aa29a1a7a4a760991b81525060405180604001604052806005815260200164435942434360d81b81525081600390816100a491906104cf565b5060046100b182826104cf565b5050600a805460ff1916601290811782556100cd92509061040e565b6100db90633b9aca00610420565b600b8190556100eb905f19610589565b6100f6905f196105a8565b600c9081556002600e819055600f8190556010819055601155600a8054601280546001600160a01b0319166001600160a01b0361010093849004811691821783555f918252600760209081526040808420805460ff1990811660019081179092559554841685528185208054871682179055601354841685528185208054871682179055308552818520805490961617909455955494549390930490921682526005909352919091208190556101ad9033906101b2565b6105ce565b6001600160a01b0382166101e05760405163ec442f0560e01b81525f60048201526024015b60405180910390fd5b6101eb5f83836101ef565b5050565b6001600160a01b038316610219578060025f82825461020e91906105bb565b909155506102899050565b6001600160a01b0383165f908152602081905260409020548181101561026b5760405163391434e360e21b81526001600160a01b038516600482015260248101829052604481018390526064016101d7565b6001600160a01b0384165f9081526020819052604090209082900390555b6001600160a01b0382166102a5576002805482900390556102c3565b6001600160a01b0382165f9081526020819052604090208054820190555b816001600160a01b0316836001600160a01b03167fddf252ad1be2c89b69c2b068fc378daa952ba7f163c4a11628f55a4df523b3ef8360405161030891815260200190565b60405180910390a3505050565b634e487b7160e01b5f52601160045260245ffd5b6001815b60018411156103645780850481111561034857610348610315565b600184161561035657908102905b60019390931c92800261032d565b935093915050565b5f8261037a57506001610408565b8161038657505f610408565b816001811461039c57600281146103a6576103c2565b6001915050610408565b60ff8411156103b7576103b7610315565b50506001821b610408565b5060208310610133831016604e8410600b84101617156103e5575081810a610408565b6103f15f198484610329565b805f190482111561040457610404610315565b0290505b92915050565b5f610419838361036c565b9392505050565b808202811582820484141761040857610408610315565b634e487b7160e01b5f52604160045260245ffd5b600181811c9082168061045f57607f821691505b60208210810361047d57634e487b7160e01b5f52602260045260245ffd5b50919050565b601f8211156104ca57805f5260205f20601f840160051c810160208510156104a85750805b601f840160051c820191505b818110156104c7575f81556001016104b4565b50505b505050565b81516001600160401b038111156104e8576104e8610437565b6104fc816104f6845461044b565b84610483565b6020601f82116001811461052e575f83156105175750848201515b5f19600385901b1c1916600184901b1784556104c7565b5f84815260208120601f198516915b8281101561055d578785015182556020948501946001909201910161053d565b508482101561057a57868401515f19600387901b60f8161c191681555b50505050600190811b01905550565b5f826105a357634e487b7160e01b5f52601260045260245ffd5b500690565b8181038181111561040857610408610315565b8082018082111561040857610408610315565b6119d3806105db5f395ff3fe608060405260043610610164575f3560e01c8063706407fd116100cd578063a9059cbb11610087578063dd62ed3e11610062578063dd62ed3e1461043a578063ea2f0b371461047e578063f66608fe1461049d578063fdeb889f146104b1575f5ffd5b8063a9059cbb146103c5578063c4863770146103e4578063cba0e99614610403575f5ffd5b8063706407fd1461032057806370a082311461033f578063838fcc901461035e57806383ad79941461037b5780638da5cb5b1461038f57806395d89b41146103b1575f5ffd5b8063313ce5671161011e578063313ce567146102575780633203550414610278578063437823ec1461028c5780634549b039146102ab5780635342acb4146102ca5780636049876e14610301575f5ffd5b8063053ab1821461016f57806306fdde0314610190578063095ea7b3146101ba57806318160ddd146101e95780631cf8fef51461020757806323b872dd14610238575f5ffd5b3661016b57005b5f5ffd5b34801561017a575f5ffd5b5061018e610189366004611742565b6104d0565b005b34801561019b575f5ffd5b506101a46105bb565b6040516101b19190611759565b60405180910390f35b3480156101c5575f5ffd5b506101d96101d43660046117a9565b61064b565b60405190151581526020016101b1565b3480156101f4575f5ffd5b50600b545b6040519081526020016101b1565b348015610212575f5ffd5b506013546001600160a01b03165b6040516001600160a01b0390911681526020016101b1565b348015610243575f5ffd5b506101d96102523660046117d1565b610664565b348015610262575f5ffd5b50600a5460405160ff90911681526020016101b1565b348015610283575f5ffd5b50600d546101f9565b348015610297575f5ffd5b5061018e6102a636600461180b565b610687565b3480156102b6575f5ffd5b506101f96102c5366004611824565b6106ce565b3480156102d5575f5ffd5b506101d96102e436600461180b565b6001600160a01b03165f9081526007602052604090205460ff1690565b34801561030c575f5ffd5b5061018e61031b36600461180b565b610754565b34801561032b575f5ffd5b5061018e61033a36600461180b565b610899565b34801561034a575f5ffd5b506101f961035936600461180b565b610900565b348015610369575f5ffd5b506012546001600160a01b0316610220565b348015610386575f5ffd5b50600e546101f9565b34801561039a575f5ffd5b50600a5461010090046001600160a01b0316610220565b3480156103bc575f5ffd5b506101a461095c565b3480156103d0575f5ffd5b506101d96103df3660046117a9565b61096b565b3480156103ef575f5ffd5b5061018e6103fe36600461180b565b610978565b34801561040e575f5ffd5b506101d961041d36600461180b565b6001600160a01b03165f9081526008602052604090205460ff1690565b348015610445575f5ffd5b506101f9610454366004611856565b6001600160a01b039182165f90815260016020908152604080832093909416825291909152205490565b348015610489575f5ffd5b5061018e61049836600461180b565b6109df565b3480156104a8575f5ffd5b506010546101f9565b3480156104bc575f5ffd5b5061018e6104cb36600461180b565b610a20565b335f8181526008602052604090205460ff16156105495760405162461bcd60e51b815260206004820152602c60248201527f4578636c75646564206164647265737365732063616e6e6f742063616c6c207460448201526b3434b990333ab731ba34b7b760a11b60648201526084015b60405180910390fd5b5f61055383610bbc565b5050506001600160a01b0383165f9081526005602052604090205490915061057c90829061189b565b6001600160a01b0383165f90815260056020526040902055600c546105a290829061189b565b600c55600d546105b39084906118ae565b600d55505050565b6060600380546105ca906118c1565b80601f01602080910402602001604051908101604052809291908181526020018280546105f6906118c1565b80156106415780601f1061061857610100808354040283529160200191610641565b820191905f5260205f20905b81548152906001019060200180831161062457829003601f168201915b5050505050905090565b5f33610658818585610c0d565b60019150505b92915050565b5f33610671858285610c1f565b61067c858585610c9b565b506001949350505050565b600a54339061010090046001600160a01b03166001600160a01b0316036106cb576001600160a01b0381165f908152600760205260409020805460ff191660011790555b50565b5f600b548311156107215760405162461bcd60e51b815260206004820152601f60248201527f416d6f756e74206d757374206265206c657373207468616e20737570706c79006044820152606401610540565b8161073d575f61073084610bbc565b5091935061065e92505050565b5f61074784610bbc565b5090935061065e92505050565b600a54339061010090046001600160a01b03166001600160a01b0316036106cb576001600160a01b0381165f9081526008602052604090205460ff16156107dd5760405162461bcd60e51b815260206004820152601b60248201527f4163636f756e7420697320616c7265616479206578636c7564656400000000006044820152606401610540565b6001600160a01b0381165f9081526005602052604090205415610834576001600160a01b0381165f9081526005602052604090205461081b90610e9e565b6001600160a01b0382165f908152600660205260409020555b6001600160a01b03165f818152600860205260408120805460ff191660019081179091556009805491820181559091527f6e1540171b6c0c960b71a7020d9f60077f6af931a8bbf590da0223dacf75c7af0180546001600160a01b0319169091179055565b600a54339061010090046001600160a01b03166001600160a01b0316036106cb576001600160a01b0381166108e05760405162461bcd60e51b8152600401610540906118f9565b601380546001600160a01b0383166001600160a01b031990911617905550565b6001600160a01b0381165f9081526008602052604081205460ff161561093b57506001600160a01b03165f9081526006602052604090205490565b6001600160a01b0382165f9081526005602052604090205461065e90610e9e565b6060600480546105ca906118c1565b5f33610658818585610c9b565b600a54339061010090046001600160a01b03166001600160a01b0316036106cb576001600160a01b0381166109bf5760405162461bcd60e51b8152600401610540906118f9565b601280546001600160a01b0383166001600160a01b031990911617905550565b600a54339061010090046001600160a01b03166001600160a01b0316036106cb576001600160a01b03165f908152600760205260409020805460ff19169055565b600a54339061010090046001600160a01b03166001600160a01b0316036106cb576001600160a01b0381165f9081526008602052604090205460ff16610aa85760405162461bcd60e51b815260206004820152601b60248201527f4163636f756e7420697320616c726561647920696e636c7564656400000000006044820152606401610540565b5f5b600954811015610bb857816001600160a01b031660098281548110610ad157610ad161193f565b5f918252602090912001546001600160a01b031603610bb05760098054610afa9060019061189b565b81548110610b0a57610b0a61193f565b5f91825260209091200154600980546001600160a01b039092169183908110610b3557610b3561193f565b5f91825260208083209190910180546001600160a01b0319166001600160a01b039485161790559184168152600682526040808220829055600890925220805460ff191690556009805480610b8c57610b8c611953565b5f8281526020902081015f1990810180546001600160a01b03191690550190555050565b600101610aaa565b5050565b5f5f5f5f5f610bca86610f20565b90505f610bd7828861189b565b90505f610be2610f53565b90505f610bef8284611967565b90505f610bfc838b611967565b9a9199509297509095509350505050565b610c1a8383836001610f74565b505050565b6001600160a01b038381165f908152600160209081526040808320938616835292905220545f19811015610c955781811015610c8757604051637dc7a0d960e11b81526001600160a01b03841660048201526024810182905260448101839052606401610540565b610c9584848484035f610f74565b50505050565b6001600160a01b038316610cff5760405162461bcd60e51b815260206004820152602560248201527f45524332303a207472616e736665722066726f6d20746865207a65726f206164604482015264647265737360d81b6064820152608401610540565b6001600160a01b038216610d615760405162461bcd60e51b815260206004820152602360248201527f45524332303a207472616e7366657220746f20746865207a65726f206164647260448201526265737360e81b6064820152608401610540565b5f610d6b84610900565b905081811015610dcc5760405162461bcd60e51b815260206004820152602660248201527f45524332303a207472616e7366657220616d6f756e7420657863656564732062604482015265616c616e636560d01b6064820152608401610540565b6001600160a01b0383165f9081526007602052604090205460ff16610e435760145482610df885610900565b610e0291906118ae565b1115610e435760405162461bcd60e51b815260206004820152601060248201526f5768616c65206465746563746564212160801b6044820152606401610540565b6001600160a01b0384165f9081526007602052604090205460019060ff1680610e8357506001600160a01b0384165f9081526007602052604090205460ff165b15610e8b57505f5b610e9785858584611046565b5050505050565b5f600c54821115610f045760405162461bcd60e51b815260206004820152602a60248201527f416d6f756e74206d757374206265206c657373207468616e20746f74616c207260448201526965666c656374696f6e7360b01b6064820152608401610540565b5f610f0d610f53565b9050610f19818461197e565b9392505050565b5f5f601054600e54610f3291906118ae565b90505f6064610f418386611967565b610f4b919061197e565b949350505050565b5f5f5f610f5e6111b5565b9092509050610f6d818361197e565b9250505090565b6001600160a01b038416610f9d5760405163e602df0560e01b81525f6004820152602401610540565b6001600160a01b038316610fc657604051634a1406b160e11b81525f6004820152602401610540565b6001600160a01b038085165f9081526001602090815260408083209387168352929052208290558015610c9557826001600160a01b0316846001600160a01b03167f8c5be1e5ebec7d5bd14f71427d1e84f3dd0314c0f7b2291e5b200ac8c7c3b9258460405161103891815260200190565b60405180910390a350505050565b8061105357611053611325565b6001600160a01b0384165f9081526008602052604090205460ff16801561109257506001600160a01b0383165f9081526008602052604090205460ff16155b156110a7576110a2848484611352565b61119f565b6001600160a01b0384165f9081526008602052604090205460ff161580156110e657506001600160a01b0383165f9081526008602052604090205460ff165b156110f6576110a284848461146d565b6001600160a01b0384165f9081526008602052604090205460ff1615801561113657506001600160a01b0383165f9081526008602052604090205460ff16155b15611146576110a284848461150c565b6001600160a01b0384165f9081526008602052604090205460ff16801561118457506001600160a01b0383165f9081526008602052604090205460ff165b15611194576110a2848484611546565b61119f84848461150c565b80610c9557610c95600f54600e55601154601055565b600c54600b545f918291825b6009548110156112f4578260055f600984815481106111e2576111e261193f565b5f9182526020808320909101546001600160a01b03168352820192909252604001902054118061124a57508160065f600984815481106112245761122461193f565b5f9182526020808320909101546001600160a01b03168352820192909252604001902054115b1561126057600c54600b54945094505050509091565b60055f600983815481106112765761127661193f565b5f9182526020808320909101546001600160a01b031683528201929092526040019020546112a4908461189b565b925060065f600983815481106112bc576112bc61193f565b5f9182526020808320909101546001600160a01b031683528201929092526040019020546112ea908361189b565b91506001016111c1565b50600b54600c54611305919061197e565b82101561131c57600c54600b549350935050509091565b90939092509050565b600e541580156113355750601054155b1561133c57565b600e8054600f55601080546011555f9182905555565b5f5f5f5f61135f85610bbc565b6001600160a01b038b165f908152600660205260409020549397509195509350915061138c90869061189b565b6001600160a01b0388165f908152600660209081526040808320939093556005905220546113bb90859061189b565b6001600160a01b038089165f9081526005602052604080822093909355908816815220546113ea9084906118ae565b6001600160a01b0387165f9081526005602052604090205561140d8786836115af565b61141785826116f0565b856001600160a01b0316876001600160a01b03167fddf252ad1be2c89b69c2b068fc378daa952ba7f163c4a11628f55a4df523b3ef8460405161145c91815260200190565b60405180910390a350505050505050565b5f5f5f5f61147a85610bbc565b6001600160a01b038b165f90815260056020526040902054939750919550935091506114a790859061189b565b6001600160a01b038089165f908152600560209081526040808320949094559189168152600690915220546114dd9083906118ae565b6001600160a01b0387165f908152600660209081526040808320939093556005905220546113ea9084906118ae565b5f5f5f5f61151985610bbc565b6001600160a01b038b165f90815260056020526040902054939750919550935091506113bb90859061189b565b5f5f5f5f61155385610bbc565b6001600160a01b038b165f908152600660205260409020549397509195509350915061158090869061189b565b6001600160a01b0388165f908152600660209081526040808320939093556005905220546114a790859061189b565b5f6064601054846115c09190611967565b6115ca919061197e565b90508015610c95575f60026115df8484611967565b6115e9919061197e565b6012546001600160a01b03165f908152600560205260409020549091506116119082906118ae565b6012546001600160a01b039081165f9081526005602052604080822093909355601354909116815220546116469082906118ae565b6013546001600160a01b039081165f9081526005602090815260409182902093909355601254905185815290821692918816917fddf252ad1be2c89b69c2b068fc378daa952ba7f163c4a11628f55a4df523b3ef910160405180910390a36013546040518381526001600160a01b03918216918716907fddf252ad1be2c89b69c2b068fc378daa952ba7f163c4a11628f55a4df523b3ef9060200160405180910390a35050505050565b5f6064600e54846117019190611967565b61170b919061197e565b90505f6117188383611967565b905080600c54611728919061189b565b600c55600d546117399083906118ae565b600d5550505050565b5f60208284031215611752575f5ffd5b5035919050565b602081525f82518060208401528060208501604085015e5f604082850101526040601f19601f83011684010191505092915050565b80356001600160a01b03811681146117a4575f5ffd5b919050565b5f5f604083850312156117ba575f5ffd5b6117c38361178e565b946020939093013593505050565b5f5f5f606084860312156117e3575f5ffd5b6117ec8461178e565b92506117fa6020850161178e565b929592945050506040919091013590565b5f6020828403121561181b575f5ffd5b610f198261178e565b5f5f60408385031215611835575f5ffd5b823591506020830135801515811461184b575f5ffd5b809150509250929050565b5f5f60408385031215611867575f5ffd5b6118708361178e565b915061187e6020840161178e565b90509250929050565b634e487b7160e01b5f52601160045260245ffd5b8181038181111561065e5761065e611887565b8082018082111561065e5761065e611887565b600181811c908216806118d557607f821691505b6020821081036118f357634e487b7160e01b5f52602260045260245ffd5b50919050565b60208082526026908201527f7a65726f20616464726573732063616e206e6f7420626520746865204665654160408201526518d8dbdd5b9d60d21b606082015260800190565b634e487b7160e01b5f52603260045260245ffd5b634e487b7160e01b5f52603160045260245ffd5b808202811582820484141761065e5761065e611887565b5f8261199857634e487b7160e01b5f52601260045260245ffd5b50049056fea2646970667358221220ea3c0acdb4beafad64dbd09074803c9e14ee40681b0fee36229882af80cb582764736f6c634300081d0033",
					"opcodes": "PUSH1 0x80 PUSH1 0x40 MSTORE PUSH1 0xA DUP1 SLOAD PUSH2 0x100 CALLER MUL PUSH2 0x100 PUSH1 0x1 PUSH1 0xA8 SHL SUB NOT DUP3 AND DUP2 OR DUP4 SSTORE PUSH0 PUSH1 0xD SSTORE PUSH2 0x35 SWAP3 PUSH1 0xFF SWAP2 DUP3 AND SWAP2 SWAP1 SWAP3 AND OR SWAP1 PUSH2 0x40E JUMP JUMPDEST PUSH2 0x42 SWAP1 PUSH3 0x989680 PUSH2 0x420 JUMP JUMPDEST PUSH1 0x14 SSTORE CALLVALUE DUP1 ISZERO PUSH2 0x50 JUMPI PUSH0 PUSH0 REVERT JUMPDEST POP PUSH1 0x40 MLOAD DUP1 PUSH1 0x40 ADD PUSH1 0x40 MSTORE DUP1 PUSH1 0xD DUP2 MSTORE PUSH1 0x20 ADD PUSH13 0x21ACA122A921A0AA29A1A7A4A7 PUSH1 0x99 SHL DUP2 MSTORE POP PUSH1 0x40 MLOAD DUP1 PUSH1 0x40 ADD PUSH1 0x40 MSTORE DUP1 PUSH1 0x5 DUP2 MSTORE PUSH1 0x20 ADD PUSH5 0x4359424343 PUSH1 0xD8 SHL DUP2 MSTORE POP DUP2 PUSH1 0x3 SWAP1 DUP2 PUSH2 0xA4 SWAP2 SWAP1 PUSH2 0x4CF JUMP JUMPDEST POP PUSH1 0x4 PUSH2 0xB1 DUP3 DUP3 PUSH2 0x4CF JUMP JUMPDEST POP POP PUSH1 0xA DUP1 SLOAD PUSH1 0xFF NOT AND PUSH1 0x12 SWAP1 DUP2 OR DUP3 SSTORE PUSH2 0xCD SWAP3 POP SWAP1 PUSH2 0x40E JUMP JUMPDEST PUSH2 0xDB SWAP1 PUSH4 0x3B9ACA00 PUSH2 0x420 JUMP JUMPDEST PUSH1 0xB DUP2 SWAP1 SSTORE PUSH2 0xEB SWAP1 PUSH0 NOT PUSH2 0x589 JUMP JUMPDEST PUSH2 0xF6 SWAP1 PUSH0 NOT PUSH2 0x5A8 JUMP JUMPDEST PUSH1 0xC SWAP1 DUP2 SSTORE PUSH1 0x2 PUSH1 0xE DUP2 SWAP1 SSTORE PUSH1 0xF DUP2 SWAP1 SSTORE PUSH1 0x10 DUP2 SWAP1 SSTORE PUSH1 0x11 SSTORE PUSH1 0xA DUP1 SLOAD PUSH1 0x12 DUP1 SLOAD PUSH1 0x1 PUSH1 0x1 PUSH1 0xA0 SHL SUB NOT AND PUSH1 0x1 PUSH1 0x1 PUSH1 0xA0 SHL SUB PUSH2 0x100 SWAP4 DUP5 SWAP1 DIV DUP2 AND SWAP2 DUP3 OR DUP4 SSTORE PUSH0 SWAP2 DUP3 MSTORE PUSH1 0x7 PUSH1 0x20 SWAP1 DUP2 MSTORE PUSH1 0x40 DUP1 DUP5 KECCAK256 DUP1 SLOAD PUSH1 0xFF NOT SWAP1 DUP2 AND PUSH1 0x1 SWAP1 DUP2 OR SWAP1 SWAP3 SSTORE SWAP6 SLOAD DUP5 AND DUP6 MSTORE DUP2 DUP6 KECCAK256 DUP1 SLOAD DUP8 AND DUP3 OR SWAP1 SSTORE PUSH1 0x13 SLOAD DUP5 AND DUP6 MSTORE DUP2 DUP6 KECCAK256 DUP1 SLOAD DUP8 AND DUP3 OR SWAP1 SSTORE ADDRESS DUP6 MSTORE DUP2 DUP6 KECCAK256 DUP1 SLOAD SWAP1 SWAP7 AND OR SWAP1 SWAP5 SSTORE SWAP6 SLOAD SWAP5 SLOAD SWAP4 SWAP1 SWAP4 DIV SWAP1 SWAP3 AND DUP3 MSTORE PUSH1 0x5 SWAP1 SWAP4 MSTORE SWAP2 SWAP1 SWAP2 KECCAK256 DUP2 SWAP1 SSTORE PUSH2 0x1AD SWAP1 CALLER SWAP1 PUSH2 0x1B2 JUMP JUMPDEST PUSH2 0x5CE JUMP JUMPDEST PUSH1 0x1 PUSH1 0x1 PUSH1 0xA0 SHL SUB DUP3 AND PUSH2 0x1E0 JUMPI PUSH1 0x40 MLOAD PUSH4 0xEC442F05 PUSH1 0xE0 SHL DUP2 MSTORE PUSH0 PUSH1 0x4 DUP3 ADD MSTORE PUSH1 0x24 ADD JUMPDEST PUSH1 0x40 MLOAD DUP1 SWAP2 SUB SWAP1 REVERT JUMPDEST PUSH2 0x1EB PUSH0 DUP4 DUP4 PUSH2 0x1EF JUMP JUMPDEST POP POP JUMP JUMPDEST PUSH1 0x1 PUSH1 0x1 PUSH1 0xA0 SHL SUB DUP4 AND PUSH2 0x219 JUMPI DUP1 PUSH1 0x2 PUSH0 DUP3 DUP3 SLOAD PUSH2 0x20E SWAP2 SWAP1 PUSH2 0x5BB JUMP JUMPDEST SWAP1 SWAP2 SSTORE POP PUSH2 0x289 SWAP1 POP JUMP JUMPDEST PUSH1 0x1 PUSH1 0x1 PUSH1 0xA0 SHL SUB DUP4 AND PUSH0 SWAP1 DUP2 MSTORE PUSH1 0x20 DUP2 SWAP1 MSTORE PUSH1 0x40 SWAP1 KECCAK256 SLOAD DUP2 DUP2 LT ISZERO PUSH2 0x26B JUMPI PUSH1 0x40 MLOAD PUSH4 0x391434E3 PUSH1 0xE2 SHL DUP2 MSTORE PUSH1 0x1 PUSH1 0x1 PUSH1 0xA0 SHL SUB DUP6 AND PUSH1 0x4 DUP3 ADD MSTORE PUSH1 0x24 DUP2 ADD DUP3 SWAP1 MSTORE PUSH1 0x44 DUP2 ADD DUP4 SWAP1 MSTORE PUSH1 0x64 ADD PUSH2 0x1D7 JUMP JUMPDEST PUSH1 0x1 PUSH1 0x1 PUSH1 0xA0 SHL SUB DUP5 AND PUSH0 SWAP1 DUP2 MSTORE PUSH1 0x20 DUP2 SWAP1 MSTORE PUSH1 0x40 SWAP1 KECCAK256 SWAP1 DUP3 SWAP1 SUB SWAP1 SSTORE JUMPDEST PUSH1 0x1 PUSH1 0x1 PUSH1 0xA0 SHL SUB DUP3 AND PUSH2 0x2A5 JUMPI PUSH1 0x2 DUP1 SLOAD DUP3 SWAP1 SUB SWAP1 SSTORE PUSH2 0x2C3 JUMP JUMPDEST PUSH1 0x1 PUSH1 0x1 PUSH1 0xA0 SHL SUB DUP3 AND PUSH0 SWAP1 DUP2 MSTORE PUSH1 0x20 DUP2 SWAP1 MSTORE PUSH1 0x40 SWAP1 KECCAK256 DUP1 SLOAD DUP3 ADD SWAP1 SSTORE JUMPDEST DUP2 PUSH1 0x1 PUSH1 0x1 PUSH1 0xA0 SHL SUB AND DUP4 PUSH1 0x1 PUSH1 0x1 PUSH1 0xA0 SHL SUB AND PUSH32 0xDDF252AD1BE2C89B69C2B068FC378DAA952BA7F163C4A11628F55A4DF523B3EF DUP4 PUSH1 0x40 MLOAD PUSH2 0x308 SWAP2 DUP2 MSTORE PUSH1 0x20 ADD SWAP1 JUMP JUMPDEST PUSH1 0x40 MLOAD DUP1 SWAP2 SUB SWAP1 LOG3 POP POP POP JUMP JUMPDEST PUSH4 0x4E487B71 PUSH1 0xE0 SHL PUSH0 MSTORE PUSH1 0x11 PUSH1 0x4 MSTORE PUSH1 0x24 PUSH0 REVERT JUMPDEST PUSH1 0x1 DUP2 JUMPDEST PUSH1 0x1 DUP5 GT ISZERO PUSH2 0x364 JUMPI DUP1 DUP6 DIV DUP2 GT ISZERO PUSH2 0x348 JUMPI PUSH2 0x348 PUSH2 0x315 JUMP JUMPDEST PUSH1 0x1 DUP5 AND ISZERO PUSH2 0x356 JUMPI SWAP1 DUP2 MUL SWAP1 JUMPDEST PUSH1 0x1 SWAP4 SWAP1 SWAP4 SHR SWAP3 DUP1 MUL PUSH2 0x32D JUMP JUMPDEST SWAP4 POP SWAP4 SWAP2 POP POP JUMP JUMPDEST PUSH0 DUP3 PUSH2 0x37A JUMPI POP PUSH1 0x1 PUSH2 0x408 JUMP JUMPDEST DUP2 PUSH2 0x386 JUMPI POP PUSH0 PUSH2 0x408 JUMP JUMPDEST DUP2 PUSH1 0x1 DUP2 EQ PUSH2 0x39C JUMPI PUSH1 0x2 DUP2 EQ PUSH2 0x3A6 JUMPI PUSH2 0x3C2 JUMP JUMPDEST PUSH1 0x1 SWAP2 POP POP PUSH2 0x408 JUMP JUMPDEST PUSH1 0xFF DUP5 GT ISZERO PUSH2 0x3B7 JUMPI PUSH2 0x3B7 PUSH2 0x315 JUMP JUMPDEST POP POP PUSH1 0x1 DUP3 SHL PUSH2 0x408 JUMP JUMPDEST POP PUSH1 0x20 DUP4 LT PUSH2 0x133 DUP4 LT AND PUSH1 0x4E DUP5 LT PUSH1 0xB DUP5 LT AND OR ISZERO PUSH2 0x3E5 JUMPI POP DUP2 DUP2 EXP PUSH2 0x408 JUMP JUMPDEST PUSH2 0x3F1 PUSH0 NOT DUP5 DUP5 PUSH2 0x329 JUMP JUMPDEST DUP1 PUSH0 NOT DIV DUP3 GT ISZERO PUSH2 0x404 JUMPI PUSH2 0x404 PUSH2 0x315 JUMP JUMPDEST MUL SWAP1 POP JUMPDEST SWAP3 SWAP2 POP POP JUMP JUMPDEST PUSH0 PUSH2 0x419 DUP4 DUP4 PUSH2 0x36C JUMP JUMPDEST SWAP4 SWAP3 POP POP POP JUMP JUMPDEST DUP1 DUP3 MUL DUP2 ISZERO DUP3 DUP3 DIV DUP5 EQ OR PUSH2 0x408 JUMPI PUSH2 0x408 PUSH2 0x315 JUMP JUMPDEST PUSH4 0x4E487B71 PUSH1 0xE0 SHL PUSH0 MSTORE PUSH1 0x41 PUSH1 0x4 MSTORE PUSH1 0x24 PUSH0 REVERT JUMPDEST PUSH1 0x1 DUP2 DUP2 SHR SWAP1 DUP3 AND DUP1 PUSH2 0x45F JUMPI PUSH1 0x7F DUP3 AND SWAP2 POP JUMPDEST PUSH1 0x20 DUP3 LT DUP2 SUB PUSH2 0x47D JUMPI PUSH4 0x4E487B71 PUSH1 0xE0 SHL PUSH0 MSTORE PUSH1 0x22 PUSH1 0x4 MSTORE PUSH1 0x24 PUSH0 REVERT JUMPDEST POP SWAP2 SWAP1 POP JUMP JUMPDEST PUSH1 0x1F DUP3 GT ISZERO PUSH2 0x4CA JUMPI DUP1 PUSH0 MSTORE PUSH1 0x20 PUSH0 KECCAK256 PUSH1 0x1F DUP5 ADD PUSH1 0x5 SHR DUP2 ADD PUSH1 0x20 DUP6 LT ISZERO PUSH2 0x4A8 JUMPI POP DUP1 JUMPDEST PUSH1 0x1F DUP5 ADD PUSH1 0x5 SHR DUP3 ADD SWAP2 POP JUMPDEST DUP2 DUP2 LT ISZERO PUSH2 0x4C7 JUMPI PUSH0 DUP2 SSTORE PUSH1 0x1 ADD PUSH2 0x4B4 JUMP JUMPDEST POP POP JUMPDEST POP POP POP JUMP JUMPDEST DUP2 MLOAD PUSH1 0x1 PUSH1 0x1 PUSH1 0x40 SHL SUB DUP2 GT ISZERO PUSH2 0x4E8 JUMPI PUSH2 0x4E8 PUSH2 0x437 JUMP JUMPDEST PUSH2 0x4FC DUP2 PUSH2 0x4F6 DUP5 SLOAD PUSH2 0x44B JUMP JUMPDEST DUP5 PUSH2 0x483 JUMP JUMPDEST PUSH1 0x20 PUSH1 0x1F DUP3 GT PUSH1 0x1 DUP2 EQ PUSH2 0x52E JUMPI PUSH0 DUP4 ISZERO PUSH2 0x517 JUMPI POP DUP5 DUP3 ADD MLOAD JUMPDEST PUSH0 NOT PUSH1 0x3 DUP6 SWAP1 SHL SHR NOT AND PUSH1 0x1 DUP5 SWAP1 SHL OR DUP5 SSTORE PUSH2 0x4C7 JUMP JUMPDEST PUSH0 DUP5 DUP2 MSTORE PUSH1 0x20 DUP2 KECCAK256 PUSH1 0x1F NOT DUP6 AND SWAP2 JUMPDEST DUP3 DUP2 LT ISZERO PUSH2 0x55D JUMPI DUP8 DUP6 ADD MLOAD DUP3 SSTORE PUSH1 0x20 SWAP5 DUP6 ADD SWAP5 PUSH1 0x1 SWAP1 SWAP3 ADD SWAP2 ADD PUSH2 0x53D JUMP JUMPDEST POP DUP5 DUP3 LT ISZERO PUSH2 0x57A JUMPI DUP7 DUP5 ADD MLOAD PUSH0 NOT PUSH1 0x3 DUP8 SWAP1 SHL PUSH1 0xF8 AND SHR NOT AND DUP2 SSTORE JUMPDEST POP POP POP POP PUSH1 0x1 SWAP1 DUP2 SHL ADD SWAP1 SSTORE POP JUMP JUMPDEST PUSH0 DUP3 PUSH2 0x5A3 JUMPI PUSH4 0x4E487B71 PUSH1 0xE0 SHL PUSH0 MSTORE PUSH1 0x12 PUSH1 0x4 MSTORE PUSH1 0x24 PUSH0 REVERT JUMPDEST POP MOD SWAP1 JUMP JUMPDEST DUP2 DUP2 SUB DUP2 DUP2 GT ISZERO PUSH2 0x408 JUMPI PUSH2 0x408 PUSH2 0x315 JUMP JUMPDEST DUP1 DUP3 ADD DUP1 DUP3 GT ISZERO PUSH2 0x408 JUMPI PUSH2 0x408 PUSH2 0x315 JUMP JUMPDEST PUSH2 0x19D3 DUP1 PUSH2 0x5DB PUSH0 CODECOPY PUSH0 RETURN INVALID PUSH1 0x80 PUSH1 0x40 MSTORE PUSH1 0x4 CALLDATASIZE LT PUSH2 0x164 JUMPI PUSH0 CALLDATALOAD PUSH1 0xE0 SHR DUP1 PUSH4 0x706407FD GT PUSH2 0xCD JUMPI DUP1 PUSH4 0xA9059CBB GT PUSH2 0x87 JUMPI DUP1 PUSH4 0xDD62ED3E GT PUSH2 0x62 JUMPI DUP1 PUSH4 0xDD62ED3E EQ PUSH2 0x43A JUMPI DUP1 PUSH4 0xEA2F0B37 EQ PUSH2 0x47E JUMPI DUP1 PUSH4 0xF66608FE EQ PUSH2 0x49D JUMPI DUP1 PUSH4 0xFDEB889F EQ PUSH2 0x4B1 JUMPI PUSH0 PUSH0 REVERT JUMPDEST DUP1 PUSH4 0xA9059CBB EQ PUSH2 0x3C5 JUMPI DUP1 PUSH4 0xC4863770 EQ PUSH2 0x3E4 JUMPI DUP1 PUSH4 0xCBA0E996 EQ PUSH2 0x403 JUMPI PUSH0 PUSH0 REVERT JUMPDEST DUP1 PUSH4 0x706407FD EQ PUSH2 0x320 JUMPI DUP1 PUSH4 0x70A08231 EQ PUSH2 0x33F JUMPI DUP1 PUSH4 0x838FCC90 EQ PUSH2 0x35E JUMPI DUP1 PUSH4 0x83AD7994 EQ PUSH2 0x37B JUMPI DUP1 PUSH4 0x8DA5CB5B EQ PUSH2 0x38F JUMPI DUP1 PUSH4 0x95D89B41 EQ PUSH2 0x3B1 JUMPI PUSH0 PUSH0 REVERT JUMPDEST DUP1 PUSH4 0x313CE567 GT PUSH2 0x11E JUMPI DUP1 PUSH4 0x313CE567 EQ PUSH2 0x257 JUMPI DUP1 PUSH4 0x32035504 EQ PUSH2 0x278 JUMPI DUP1 PUSH4 0x437823EC EQ PUSH2 0x28C JUMPI DUP1 PUSH4 0x4549B039 EQ PUSH2 0x2AB JUMPI DUP1 PUSH4 0x5342ACB4 EQ PUSH2 0x2CA JUMPI DUP1 PUSH4 0x6049876E EQ PUSH2 0x301 JUMPI PUSH0 PUSH0 REVERT JUMPDEST DUP1 PUSH4 0x53AB182 EQ PUSH2 0x16F JUMPI DUP1 PUSH4 0x6FDDE03 EQ PUSH2 0x190 JUMPI DUP1 PUSH4 0x95EA7B3 EQ PUSH2 0x1BA JUMPI DUP1 PUSH4 0x18160DDD EQ PUSH2 0x1E9 JUMPI DUP1 PUSH4 0x1CF8FEF5 EQ PUSH2 0x207 JUMPI DUP1 PUSH4 0x23B872DD EQ PUSH2 0x238 JUMPI PUSH0 PUSH0 REVERT JUMPDEST CALLDATASIZE PUSH2 0x16B JUMPI STOP JUMPDEST PUSH0 PUSH0 REVERT JUMPDEST CALLVALUE DUP1 ISZERO PUSH2 0x17A JUMPI PUSH0 PUSH0 REVERT JUMPDEST POP PUSH2 0x18E PUSH2 0x189 CALLDATASIZE PUSH1 0x4 PUSH2 0x1742 JUMP JUMPDEST PUSH2 0x4D0 JUMP JUMPDEST STOP JUMPDEST CALLVALUE DUP1 ISZERO PUSH2 0x19B JUMPI PUSH0 PUSH0 REVERT JUMPDEST POP PUSH2 0x1A4 PUSH2 0x5BB JUMP JUMPDEST PUSH1 0x40 MLOAD PUSH2 0x1B1 SWAP2 SWAP1 PUSH2 0x1759 JUMP JUMPDEST PUSH1 0x40 MLOAD DUP1 SWAP2 SUB SWAP1 RETURN JUMPDEST CALLVALUE DUP1 ISZERO PUSH2 0x1C5 JUMPI PUSH0 PUSH0 REVERT JUMPDEST POP PUSH2 0x1D9 PUSH2 0x1D4 CALLDATASIZE PUSH1 0x4 PUSH2 0x17A9 JUMP JUMPDEST PUSH2 0x64B JUMP JUMPDEST PUSH1 0x40 MLOAD SWAP1 ISZERO ISZERO DUP2 MSTORE PUSH1 0x20 ADD PUSH2 0x1B1 JUMP JUMPDEST CALLVALUE DUP1 ISZERO PUSH2 0x1F4 JUMPI PUSH0 PUSH0 REVERT JUMPDEST POP PUSH1 0xB SLOAD JUMPDEST PUSH1 0x40 MLOAD SWAP1 DUP2 MSTORE PUSH1 0x20 ADD PUSH2 0x1B1 JUMP JUMPDEST CALLVALUE DUP1 ISZERO PUSH2 0x212 JUMPI PUSH0 PUSH0 REVERT JUMPDEST POP PUSH1 0x13 SLOAD PUSH1 0x1 PUSH1 0x1 PUSH1 0xA0 SHL SUB AND JUMPDEST PUSH1 0x40 MLOAD PUSH1 0x1 PUSH1 0x1 PUSH1 0xA0 SHL SUB SWAP1 SWAP2 AND DUP2 MSTORE PUSH1 0x20 ADD PUSH2 0x1B1 JUMP JUMPDEST CALLVALUE DUP1 ISZERO PUSH2 0x243 JUMPI PUSH0 PUSH0 REVERT JUMPDEST POP PUSH2 0x1D9 PUSH2 0x252 CALLDATASIZE PUSH1 0x4 PUSH2 0x17D1 JUMP JUMPDEST PUSH2 0x664 JUMP JUMPDEST CALLVALUE DUP1 ISZERO PUSH2 0x262 JUMPI PUSH0 PUSH0 REVERT JUMPDEST POP PUSH1 0xA SLOAD PUSH1 0x40 MLOAD PUSH1 0xFF SWAP1 SWAP2 AND DUP2 MSTORE PUSH1 0x20 ADD PUSH2 0x1B1 JUMP JUMPDEST CALLVALUE DUP1 ISZERO PUSH2 0x283 JUMPI PUSH0 PUSH0 REVERT JUMPDEST POP PUSH1 0xD SLOAD PUSH2 0x1F9 JUMP JUMPDEST CALLVALUE DUP1 ISZERO PUSH2 0x297 JUMPI PUSH0 PUSH0 REVERT JUMPDEST POP PUSH2 0x18E PUSH2 0x2A6 CALLDATASIZE PUSH1 0x4 PUSH2 0x180B JUMP JUMPDEST PUSH2 0x687 JUMP JUMPDEST CALLVALUE DUP1 ISZERO PUSH2 0x2B6 JUMPI PUSH0 PUSH0 REVERT JUMPDEST POP PUSH2 0x1F9 PUSH2 0x2C5 CALLDATASIZE PUSH1 0x4 PUSH2 0x1824 JUMP JUMPDEST PUSH2 0x6CE JUMP JUMPDEST CALLVALUE DUP1 ISZERO PUSH2 0x2D5 JUMPI PUSH0 PUSH0 REVERT JUMPDEST POP PUSH2 0x1D9 PUSH2 0x2E4 CALLDATASIZE PUSH1 0x4 PUSH2 0x180B JUMP JUMPDEST PUSH1 0x1 PUSH1 0x1 PUSH1 0xA0 SHL SUB AND PUSH0 SWAP1 DUP2 MSTORE PUSH1 0x7 PUSH1 0x20 MSTORE PUSH1 0x40 SWAP1 KECCAK256 SLOAD PUSH1 0xFF AND SWAP1 JUMP JUMPDEST CALLVALUE DUP1 ISZERO PUSH2 0x30C JUMPI PUSH0 PUSH0 REVERT JUMPDEST POP PUSH2 0x18E PUSH2 0x31B CALLDATASIZE PUSH1 0x4 PUSH2 0x180B JUMP JUMPDEST PUSH2 0x754 JUMP JUMPDEST CALLVALUE DUP1 ISZERO PUSH2 0x32B JUMPI PUSH0 PUSH0 REVERT JUMPDEST POP PUSH2 0x18E PUSH2 0x33A CALLDATASIZE PUSH1 0x4 PUSH2 0x180B JUMP JUMPDEST PUSH2 0x899 JUMP JUMPDEST CALLVALUE DUP1 ISZERO PUSH2 0x34A JUMPI PUSH0 PUSH0 REVERT JUMPDEST POP PUSH2 0x1F9 PUSH2 0x359 CALLDATASIZE PUSH1 0x4 PUSH2 0x180B JUMP JUMPDEST PUSH2 0x900 JUMP JUMPDEST CALLVALUE DUP1 ISZERO PUSH2 0x369 JUMPI PUSH0 PUSH0 REVERT JUMPDEST POP PUSH1 0x12 SLOAD PUSH1 0x1 PUSH1 0x1 PUSH1 0xA0 SHL SUB AND PUSH2 0x220 JUMP JUMPDEST CALLVALUE DUP1 ISZERO PUSH2 0x386 JUMPI PUSH0 PUSH0 REVERT JUMPDEST POP PUSH1 0xE SLOAD PUSH2 0x1F9 JUMP JUMPDEST CALLVALUE DUP1 ISZERO PUSH2 0x39A JUMPI PUSH0 PUSH0 REVERT JUMPDEST POP PUSH1 0xA SLOAD PUSH2 0x100 SWAP1 DIV PUSH1 0x1 PUSH1 0x1 PUSH1 0xA0 SHL SUB AND PUSH2 0x220 JUMP JUMPDEST CALLVALUE DUP1 ISZERO PUSH2 0x3BC JUMPI PUSH0 PUSH0 REVERT JUMPDEST POP PUSH2 0x1A4 PUSH2 0x95C JUMP JUMPDEST CALLVALUE DUP1 ISZERO PUSH2 0x3D0 JUMPI PUSH0 PUSH0 REVERT JUMPDEST POP PUSH2 0x1D9 PUSH2 0x3DF CALLDATASIZE PUSH1 0x4 PUSH2 0x17A9 JUMP JUMPDEST PUSH2 0x96B JUMP JUMPDEST CALLVALUE DUP1 ISZERO PUSH2 0x3EF JUMPI PUSH0 PUSH0 REVERT JUMPDEST POP PUSH2 0x18E PUSH2 0x3FE CALLDATASIZE PUSH1 0x4 PUSH2 0x180B JUMP JUMPDEST PUSH2 0x978 JUMP JUMPDEST CALLVALUE DUP1 ISZERO PUSH2 0x40E JUMPI PUSH0 PUSH0 REVERT JUMPDEST POP PUSH2 0x1D9 PUSH2 0x41D CALLDATASIZE PUSH1 0x4 PUSH2 0x180B JUMP JUMPDEST PUSH1 0x1 PUSH1 0x1 PUSH1 0xA0 SHL SUB AND PUSH0 SWAP1 DUP2 MSTORE PUSH1 0x8 PUSH1 0x20 MSTORE PUSH1 0x40 SWAP1 KECCAK256 SLOAD PUSH1 0xFF AND SWAP1 JUMP JUMPDEST CALLVALUE DUP1 ISZERO PUSH2 0x445 JUMPI PUSH0 PUSH0 REVERT JUMPDEST POP PUSH2 0x1F9 PUSH2 0x454 CALLDATASIZE PUSH1 0x4 PUSH2 0x1856 JUMP JUMPDEST PUSH1 0x1 PUSH1 0x1 PUSH1 0xA0 SHL SUB SWAP2 DUP3 AND PUSH0 SWAP1 DUP2 MSTORE PUSH1 0x1 PUSH1 0x20 SWAP1 DUP2 MSTORE PUSH1 0x40 DUP1 DUP4 KECCAK256 SWAP4 SWAP1 SWAP5 AND DUP3 MSTORE SWAP2 SWAP1 SWAP2 MSTORE KECCAK256 SLOAD SWAP1 JUMP JUMPDEST CALLVALUE DUP1 ISZERO PUSH2 0x489 JUMPI PUSH0 PUSH0 REVERT JUMPDEST POP PUSH2 0x18E PUSH2 0x498 CALLDATASIZE PUSH1 0x4 PUSH2 0x180B JUMP JUMPDEST PUSH2 0x9DF JUMP JUMPDEST CALLVALUE DUP1 ISZERO PUSH2 0x4A8 JUMPI PUSH0 PUSH0 REVERT JUMPDEST POP PUSH1 0x10 SLOAD PUSH2 0x1F9 JUMP JUMPDEST CALLVALUE DUP1 ISZERO PUSH2 0x4BC JUMPI PUSH0 PUSH0 REVERT JUMPDEST POP PUSH2 0x18E PUSH2 0x4CB CALLDATASIZE PUSH1 0x4 PUSH2 0x180B JUMP JUMPDEST PUSH2 0xA20 JUMP JUMPDEST CALLER PUSH0 DUP2 DUP2 MSTORE PUSH1 0x8 PUSH1 0x20 MSTORE PUSH1 0x40 SWAP1 KECCAK256 SLOAD PUSH1 0xFF AND ISZERO PUSH2 0x549 JUMPI PUSH1 0x40 MLOAD PUSH3 0x461BCD PUSH1 0xE5 SHL DUP2 MSTORE PUSH1 0x20 PUSH1 0x4 DUP3 ADD MSTORE PUSH1 0x2C PUSH1 0x24 DUP3 ADD MSTORE PUSH32 0x4578636C75646564206164647265737365732063616E6E6F742063616C6C2074 PUSH1 0x44 DUP3 ADD MSTORE PUSH12 0x3434B990333AB731BA34B7B7 PUSH1 0xA1 SHL PUSH1 0x64 DUP3 ADD MSTORE PUSH1 0x84 ADD JUMPDEST PUSH1 0x40 MLOAD DUP1 SWAP2 SUB SWAP1 REVERT JUMPDEST PUSH0 PUSH2 0x553 DUP4 PUSH2 0xBBC JUMP JUMPDEST POP POP POP PUSH1 0x1 PUSH1 0x1 PUSH1 0xA0 SHL SUB DUP4 AND PUSH0 SWAP1 DUP2 MSTORE PUSH1 0x5 PUSH1 0x20 MSTORE PUSH1 0x40 SWAP1 KECCAK256 SLOAD SWAP1 SWAP2 POP PUSH2 0x57C SWAP1 DUP3 SWAP1 PUSH2 0x189B JUMP JUMPDEST PUSH1 0x1 PUSH1 0x1 PUSH1 0xA0 SHL SUB DUP4 AND PUSH0 SWAP1 DUP2 MSTORE PUSH1 0x5 PUSH1 0x20 MSTORE PUSH1 0x40 SWAP1 KECCAK256 SSTORE PUSH1 0xC SLOAD PUSH2 0x5A2 SWAP1 DUP3 SWAP1 PUSH2 0x189B JUMP JUMPDEST PUSH1 0xC SSTORE PUSH1 0xD SLOAD PUSH2 0x5B3 SWAP1 DUP5 SWAP1 PUSH2 0x18AE JUMP JUMPDEST PUSH1 0xD SSTORE POP POP POP JUMP JUMPDEST PUSH1 0x60 PUSH1 0x3 DUP1 SLOAD PUSH2 0x5CA SWAP1 PUSH2 0x18C1 JUMP JUMPDEST DUP1 PUSH1 0x1F ADD PUSH1 0x20 DUP1 SWAP2 DIV MUL PUSH1 0x20 ADD PUSH1 0x40 MLOAD SWAP1 DUP2 ADD PUSH1 0x40 MSTORE DUP1 SWAP3 SWAP2 SWAP1 DUP2 DUP2 MSTORE PUSH1 0x20 ADD DUP3 DUP1 SLOAD PUSH2 0x5F6 SWAP1 PUSH2 0x18C1 JUMP JUMPDEST DUP1 ISZERO PUSH2 0x641 JUMPI DUP1 PUSH1 0x1F LT PUSH2 0x618 JUMPI PUSH2 0x100 DUP1 DUP4 SLOAD DIV MUL DUP4 MSTORE SWAP2 PUSH1 0x20 ADD SWAP2 PUSH2 0x641 JUMP JUMPDEST DUP3 ADD SWAP2 SWAP1 PUSH0 MSTORE PUSH1 0x20 PUSH0 KECCAK256 SWAP1 JUMPDEST DUP2 SLOAD DUP2 MSTORE SWAP1 PUSH1 0x1 ADD SWAP1 PUSH1 0x20 ADD DUP1 DUP4 GT PUSH2 0x624 JUMPI DUP3 SWAP1 SUB PUSH1 0x1F AND DUP3 ADD SWAP2 JUMPDEST POP POP POP POP POP SWAP1 POP SWAP1 JUMP JUMPDEST PUSH0 CALLER PUSH2 0x658 DUP2 DUP6 DUP6 PUSH2 0xC0D JUMP JUMPDEST PUSH1 0x1 SWAP2 POP POP JUMPDEST SWAP3 SWAP2 POP POP JUMP JUMPDEST PUSH0 CALLER PUSH2 0x671 DUP6 DUP3 DUP6 PUSH2 0xC1F JUMP JUMPDEST PUSH2 0x67C DUP6 DUP6 DUP6 PUSH2 0xC9B JUMP JUMPDEST POP PUSH1 0x1 SWAP5 SWAP4 POP POP POP POP JUMP JUMPDEST PUSH1 0xA SLOAD CALLER SWAP1 PUSH2 0x100 SWAP1 DIV PUSH1 0x1 PUSH1 0x1 PUSH1 0xA0 SHL SUB AND PUSH1 0x1 PUSH1 0x1 PUSH1 0xA0 SHL SUB AND SUB PUSH2 0x6CB JUMPI PUSH1 0x1 PUSH1 0x1 PUSH1 0xA0 SHL SUB DUP2 AND PUSH0 SWAP1 DUP2 MSTORE PUSH1 0x7 PUSH1 0x20 MSTORE PUSH1 0x40 SWAP1 KECCAK256 DUP1 SLOAD PUSH1 0xFF NOT AND PUSH1 0x1 OR SWAP1 SSTORE JUMPDEST POP JUMP JUMPDEST PUSH0 PUSH1 0xB SLOAD DUP4 GT ISZERO PUSH2 0x721 JUMPI PUSH1 0x40 MLOAD PUSH3 0x461BCD PUSH1 0xE5 SHL DUP2 MSTORE PUSH1 0x20 PUSH1 0x4 DUP3 ADD MSTORE PUSH1 0x1F PUSH1 0x24 DUP3 ADD MSTORE PUSH32 0x416D6F756E74206D757374206265206C657373207468616E20737570706C7900 PUSH1 0x44 DUP3 ADD MSTORE PUSH1 0x64 ADD PUSH2 0x540 JUMP JUMPDEST DUP2 PUSH2 0x73D JUMPI PUSH0 PUSH2 0x730 DUP5 PUSH2 0xBBC JUMP JUMPDEST POP SWAP2 SWAP4 POP PUSH2 0x65E SWAP3 POP POP POP JUMP JUMPDEST PUSH0 PUSH2 0x747 DUP5 PUSH2 0xBBC JUMP JUMPDEST POP SWAP1 SWAP4 POP PUSH2 0x65E SWAP3 POP POP POP JUMP JUMPDEST PUSH1 0xA SLOAD CALLER SWAP1 PUSH2 0x100 SWAP1 DIV PUSH1 0x1 PUSH1 0x1 PUSH1 0xA0 SHL SUB AND PUSH1 0x1 PUSH1 0x1 PUSH1 0xA0 SHL SUB AND SUB PUSH2 0x6CB JUMPI PUSH1 0x1 PUSH1 0x1 PUSH1 0xA0 SHL SUB DUP2 AND PUSH0 SWAP1 DUP2 MSTORE PUSH1 0x8 PUSH1 0x20 MSTORE PUSH1 0x40 SWAP1 KECCAK256 SLOAD PUSH1 0xFF AND ISZERO PUSH2 0x7DD JUMPI PUSH1 0x40 MLOAD PUSH3 0x461BCD PUSH1 0xE5 SHL DUP2 MSTORE PUSH1 0x20 PUSH1 0x4 DUP3 ADD MSTORE PUSH1 0x1B PUSH1 0x24 DUP3 ADD MSTORE PUSH32 0x4163636F756E7420697320616C7265616479206578636C756465640000000000 PUSH1 0x44 DUP3 ADD MSTORE PUSH1 0x64 ADD PUSH2 0x540 JUMP JUMPDEST PUSH1 0x1 PUSH1 0x1 PUSH1 0xA0 SHL SUB DUP2 AND PUSH0 SWAP1 DUP2 MSTORE PUSH1 0x5 PUSH1 0x20 MSTORE PUSH1 0x40 SWAP1 KECCAK256 SLOAD ISZERO PUSH2 0x834 JUMPI PUSH1 0x1 PUSH1 0x1 PUSH1 0xA0 SHL SUB DUP2 AND PUSH0 SWAP1 DUP2 MSTORE PUSH1 0x5 PUSH1 0x20 MSTORE PUSH1 0x40 SWAP1 KECCAK256 SLOAD PUSH2 0x81B SWAP1 PUSH2 0xE9E JUMP JUMPDEST PUSH1 0x1 PUSH1 0x1 PUSH1 0xA0 SHL SUB DUP3 AND PUSH0 SWAP1 DUP2 MSTORE PUSH1 0x6 PUSH1 0x20 MSTORE PUSH1 0x40 SWAP1 KECCAK256 SSTORE JUMPDEST PUSH1 0x1 PUSH1 0x1 PUSH1 0xA0 SHL SUB AND PUSH0 DUP2 DUP2 MSTORE PUSH1 0x8 PUSH1 0x20 MSTORE PUSH1 0x40 DUP2 KECCAK256 DUP1 SLOAD PUSH1 0xFF NOT AND PUSH1 0x1 SWAP1 DUP2 OR SWAP1 SWAP2 SSTORE PUSH1 0x9 DUP1 SLOAD SWAP2 DUP3 ADD DUP2 SSTORE SWAP1 SWAP2 MSTORE PUSH32 0x6E1540171B6C0C960B71A7020D9F60077F6AF931A8BBF590DA0223DACF75C7AF ADD DUP1 SLOAD PUSH1 0x1 PUSH1 0x1 PUSH1 0xA0 SHL SUB NOT AND SWAP1 SWAP2 OR SWAP1 SSTORE JUMP JUMPDEST PUSH1 0xA SLOAD CALLER SWAP1 PUSH2 0x100 SWAP1 DIV PUSH1 0x1 PUSH1 0x1 PUSH1 0xA0 SHL SUB AND PUSH1 0x1 PUSH1 0x1 PUSH1 0xA0 SHL SUB AND SUB PUSH2 0x6CB JUMPI PUSH1 0x1 PUSH1 0x1 PUSH1 0xA0 SHL SUB DUP2 AND PUSH2 0x8E0 JUMPI PUSH1 0x40 MLOAD PUSH3 0x461BCD PUSH1 0xE5 SHL DUP2 MSTORE PUSH1 0x4 ADD PUSH2 0x540 SWAP1 PUSH2 0x18F9 JUMP JUMPDEST PUSH1 0x13 DUP1 SLOAD PUSH1 0x1 PUSH1 0x1 PUSH1 0xA0 SHL SUB DUP4 AND PUSH1 0x1 PUSH1 0x1 PUSH1 0xA0 SHL SUB NOT SWAP1 SWAP2 AND OR SWAP1 SSTORE POP JUMP JUMPDEST PUSH1 0x1 PUSH1 0x1 PUSH1 0xA0 SHL SUB DUP2 AND PUSH0 SWAP1 DUP2 MSTORE PUSH1 0x8 PUSH1 0x20 MSTORE PUSH1 0x40 DUP2 KECCAK256 SLOAD PUSH1 0xFF AND ISZERO PUSH2 0x93B JUMPI POP PUSH1 0x1 PUSH1 0x1 PUSH1 0xA0 SHL SUB AND PUSH0 SWAP1 DUP2 MSTORE PUSH1 0x6 PUSH1 0x20 MSTORE PUSH1 0x40 SWAP1 KECCAK256 SLOAD SWAP1 JUMP JUMPDEST PUSH1 0x1 PUSH1 0x1 PUSH1 0xA0 SHL SUB DUP3 AND PUSH0 SWAP1 DUP2 MSTORE PUSH1 0x5 PUSH1 0x20 MSTORE PUSH1 0x40 SWAP1 KECCAK256 SLOAD PUSH2 0x65E SWAP1 PUSH2 0xE9E JUMP JUMPDEST PUSH1 0x60 PUSH1 0x4 DUP1 SLOAD PUSH2 0x5CA SWAP1 PUSH2 0x18C1 JUMP JUMPDEST PUSH0 CALLER PUSH2 0x658 DUP2 DUP6 DUP6 PUSH2 0xC9B JUMP JUMPDEST PUSH1 0xA SLOAD CALLER SWAP1 PUSH2 0x100 SWAP1 DIV PUSH1 0x1 PUSH1 0x1 PUSH1 0xA0 SHL SUB AND PUSH1 0x1 PUSH1 0x1 PUSH1 0xA0 SHL SUB AND SUB PUSH2 0x6CB JUMPI PUSH1 0x1 PUSH1 0x1 PUSH1 0xA0 SHL SUB DUP2 AND PUSH2 0x9BF JUMPI PUSH1 0x40 MLOAD PUSH3 0x461BCD PUSH1 0xE5 SHL DUP2 MSTORE PUSH1 0x4 ADD PUSH2 0x540 SWAP1 PUSH2 0x18F9 JUMP JUMPDEST PUSH1 0x12 DUP1 SLOAD PUSH1 0x1 PUSH1 0x1 PUSH1 0xA0 SHL SUB DUP4 AND PUSH1 0x1 PUSH1 0x1 PUSH1 0xA0 SHL SUB NOT SWAP1 SWAP2 AND OR SWAP1 SSTORE POP JUMP JUMPDEST PUSH1 0xA SLOAD CALLER SWAP1 PUSH2 0x100 SWAP1 DIV PUSH1 0x1 PUSH1 0x1 PUSH1 0xA0 SHL SUB AND PUSH1 0x1 PUSH1 0x1 PUSH1 0xA0 SHL SUB AND SUB PUSH2 0x6CB JUMPI PUSH1 0x1 PUSH1 0x1 PUSH1 0xA0 SHL SUB AND PUSH0 SWAP1 DUP2 MSTORE PUSH1 0x7 PUSH1 0x20 MSTORE PUSH1 0x40 SWAP1 KECCAK256 DUP1 SLOAD PUSH1 0xFF NOT AND SWAP1 SSTORE JUMP JUMPDEST PUSH1 0xA SLOAD CALLER SWAP1 PUSH2 0x100 SWAP1 DIV PUSH1 0x1 PUSH1 0x1 PUSH1 0xA0 SHL SUB AND PUSH1 0x1 PUSH1 0x1 PUSH1 0xA0 SHL SUB AND SUB PUSH2 0x6CB JUMPI PUSH1 0x1 PUSH1 0x1 PUSH1 0xA0 SHL SUB DUP2 AND PUSH0 SWAP1 DUP2 MSTORE PUSH1 0x8 PUSH1 0x20 MSTORE PUSH1 0x40 SWAP1 KECCAK256 SLOAD PUSH1 0xFF AND PUSH2 0xAA8 JUMPI PUSH1 0x40 MLOAD PUSH3 0x461BCD PUSH1 0xE5 SHL DUP2 MSTORE PUSH1 0x20 PUSH1 0x4 DUP3 ADD MSTORE PUSH1 0x1B PUSH1 0x24 DUP3 ADD MSTORE PUSH32 0x4163636F756E7420697320616C726561647920696E636C756465640000000000 PUSH1 0x44 DUP3 ADD MSTORE PUSH1 0x64 ADD PUSH2 0x540 JUMP JUMPDEST PUSH0 JUMPDEST PUSH1 0x9 SLOAD DUP2 LT ISZERO PUSH2 0xBB8 JUMPI DUP2 PUSH1 0x1 PUSH1 0x1 PUSH1 0xA0 SHL SUB AND PUSH1 0x9 DUP3 DUP2 SLOAD DUP2 LT PUSH2 0xAD1 JUMPI PUSH2 0xAD1 PUSH2 0x193F JUMP JUMPDEST PUSH0 SWAP2 DUP3 MSTORE PUSH1 0x20 SWAP1 SWAP2 KECCAK256 ADD SLOAD PUSH1 0x1 PUSH1 0x1 PUSH1 0xA0 SHL SUB AND SUB PUSH2 0xBB0 JUMPI PUSH1 0x9 DUP1 SLOAD PUSH2 0xAFA SWAP1 PUSH1 0x1 SWAP1 PUSH2 0x189B JUMP JUMPDEST DUP2 SLOAD DUP2 LT PUSH2 0xB0A JUMPI PUSH2 0xB0A PUSH2 0x193F JUMP JUMPDEST PUSH0 SWAP2 DUP3 MSTORE PUSH1 0x20 SWAP1 SWAP2 KECCAK256 ADD SLOAD PUSH1 0x9 DUP1 SLOAD PUSH1 0x1 PUSH1 0x1 PUSH1 0xA0 SHL SUB SWAP1 SWAP3 AND SWAP2 DUP4 SWAP1 DUP2 LT PUSH2 0xB35 JUMPI PUSH2 0xB35 PUSH2 0x193F JUMP JUMPDEST PUSH0 SWAP2 DUP3 MSTORE PUSH1 0x20 DUP1 DUP4 KECCAK256 SWAP2 SWAP1 SWAP2 ADD DUP1 SLOAD PUSH1 0x1 PUSH1 0x1 PUSH1 0xA0 SHL SUB NOT AND PUSH1 0x1 PUSH1 0x1 PUSH1 0xA0 SHL SUB SWAP5 DUP6 AND OR SWAP1 SSTORE SWAP2 DUP5 AND DUP2 MSTORE PUSH1 0x6 DUP3 MSTORE PUSH1 0x40 DUP1 DUP3 KECCAK256 DUP3 SWAP1 SSTORE PUSH1 0x8 SWAP1 SWAP3 MSTORE KECCAK256 DUP1 SLOAD PUSH1 0xFF NOT AND SWAP1 SSTORE PUSH1 0x9 DUP1 SLOAD DUP1 PUSH2 0xB8C JUMPI PUSH2 0xB8C PUSH2 0x1953 JUMP JUMPDEST PUSH0 DUP3 DUP2 MSTORE PUSH1 0x20 SWAP1 KECCAK256 DUP2 ADD PUSH0 NOT SWAP1 DUP2 ADD DUP1 SLOAD PUSH1 0x1 PUSH1 0x1 PUSH1 0xA0 SHL SUB NOT AND SWAP1 SSTORE ADD SWAP1 SSTORE POP POP JUMP JUMPDEST PUSH1 0x1 ADD PUSH2 0xAAA JUMP JUMPDEST POP POP JUMP JUMPDEST PUSH0 PUSH0 PUSH0 PUSH0 PUSH0 PUSH2 0xBCA DUP7 PUSH2 0xF20 JUMP JUMPDEST SWAP1 POP PUSH0 PUSH2 0xBD7 DUP3 DUP9 PUSH2 0x189B JUMP JUMPDEST SWAP1 POP PUSH0 PUSH2 0xBE2 PUSH2 0xF53 JUMP JUMPDEST SWAP1 POP PUSH0 PUSH2 0xBEF DUP3 DUP5 PUSH2 0x1967 JUMP JUMPDEST SWAP1 POP PUSH0 PUSH2 0xBFC DUP4 DUP12 PUSH2 0x1967 JUMP JUMPDEST SWAP11 SWAP2 SWAP10 POP SWAP3 SWAP8 POP SWAP1 SWAP6 POP SWAP4 POP POP POP POP JUMP JUMPDEST PUSH2 0xC1A DUP4 DUP4 DUP4 PUSH1 0x1 PUSH2 0xF74 JUMP JUMPDEST POP POP POP JUMP JUMPDEST PUSH1 0x1 PUSH1 0x1 PUSH1 0xA0 SHL SUB DUP4 DUP2 AND PUSH0 SWAP1 DUP2 MSTORE PUSH1 0x1 PUSH1 0x20 SWAP1 DUP2 MSTORE PUSH1 0x40 DUP1 DUP4 KECCAK256 SWAP4 DUP7 AND DUP4 MSTORE SWAP3 SWAP1 MSTORE KECCAK256 SLOAD PUSH0 NOT DUP2 LT ISZERO PUSH2 0xC95 JUMPI DUP2 DUP2 LT ISZERO PUSH2 0xC87 JUMPI PUSH1 0x40 MLOAD PUSH4 0x7DC7A0D9 PUSH1 0xE1 SHL DUP2 MSTORE PUSH1 0x1 PUSH1 0x1 PUSH1 0xA0 SHL SUB DUP5 AND PUSH1 0x4 DUP3 ADD MSTORE PUSH1 0x24 DUP2 ADD DUP3 SWAP1 MSTORE PUSH1 0x44 DUP2 ADD DUP4 SWAP1 MSTORE PUSH1 0x64 ADD PUSH2 0x540 JUMP JUMPDEST PUSH2 0xC95 DUP5 DUP5 DUP5 DUP5 SUB PUSH0 PUSH2 0xF74 JUMP JUMPDEST POP POP POP POP JUMP JUMPDEST PUSH1 0x1 PUSH1 0x1 PUSH1 0xA0 SHL SUB DUP4 AND PUSH2 0xCFF JUMPI PUSH1 0x40 MLOAD PUSH3 0x461BCD PUSH1 0xE5 SHL DUP2 MSTORE PUSH1 0x20 PUSH1 0x4 DUP3 ADD MSTORE PUSH1 0x25 PUSH1 0x24 DUP3 ADD MSTORE PUSH32 0x45524332303A207472616E736665722066726F6D20746865207A65726F206164 PUSH1 0x44 DUP3 ADD MSTORE PUSH5 0x6472657373 PUSH1 0xD8 SHL PUSH1 0x64 DUP3 ADD MSTORE PUSH1 0x84 ADD PUSH2 0x540 JUMP JUMPDEST PUSH1 0x1 PUSH1 0x1 PUSH1 0xA0 SHL SUB DUP3 AND PUSH2 0xD61 JUMPI PUSH1 0x40 MLOAD PUSH3 0x461BCD PUSH1 0xE5 SHL DUP2 MSTORE PUSH1 0x20 PUSH1 0x4 DUP3 ADD MSTORE PUSH1 0x23 PUSH1 0x24 DUP3 ADD MSTORE PUSH32 0x45524332303A207472616E7366657220746F20746865207A65726F2061646472 PUSH1 0x44 DUP3 ADD MSTORE PUSH3 0x657373 PUSH1 0xE8 SHL PUSH1 0x64 DUP3 ADD MSTORE PUSH1 0x84 ADD PUSH2 0x540 JUMP JUMPDEST PUSH0 PUSH2 0xD6B DUP5 PUSH2 0x900 JUMP JUMPDEST SWAP1 POP DUP2 DUP2 LT ISZERO PUSH2 0xDCC JUMPI PUSH1 0x40 MLOAD PUSH3 0x461BCD PUSH1 0xE5 SHL DUP2 MSTORE PUSH1 0x20 PUSH1 0x4 DUP3 ADD MSTORE PUSH1 0x26 PUSH1 0x24 DUP3 ADD MSTORE PUSH32 0x45524332303A207472616E7366657220616D6F756E7420657863656564732062 PUSH1 0x44 DUP3 ADD MSTORE PUSH6 0x616C616E6365 PUSH1 0xD0 SHL PUSH1 0x64 DUP3 ADD MSTORE PUSH1 0x84 ADD PUSH2 0x540 JUMP JUMPDEST PUSH1 0x1 PUSH1 0x1 PUSH1 0xA0 SHL SUB DUP4 AND PUSH0 SWAP1 DUP2 MSTORE PUSH1 0x7 PUSH1 0x20 MSTORE PUSH1 0x40 SWAP1 KECCAK256 SLOAD PUSH1 0xFF AND PUSH2 0xE43 JUMPI PUSH1 0x14 SLOAD DUP3 PUSH2 0xDF8 DUP6 PUSH2 0x900 JUMP JUMPDEST PUSH2 0xE02 SWAP2 SWAP1 PUSH2 0x18AE JUMP JUMPDEST GT ISZERO PUSH2 0xE43 JUMPI PUSH1 0x40 MLOAD PUSH3 0x461BCD PUSH1 0xE5 SHL DUP2 MSTORE PUSH1 0x20 PUSH1 0x4 DUP3 ADD MSTORE PUSH1 0x10 PUSH1 0x24 DUP3 ADD MSTORE PUSH16 0x5768616C652064657465637465642121 PUSH1 0x80 SHL PUSH1 0x44 DUP3 ADD MSTORE PUSH1 0x64 ADD PUSH2 0x540 JUMP JUMPDEST PUSH1 0x1 PUSH1 0x1 PUSH1 0xA0 SHL SUB DUP5 AND PUSH0 SWAP1 DUP2 MSTORE PUSH1 0x7 PUSH1 0x20 MSTORE PUSH1 0x40 SWAP1 KECCAK256 SLOAD PUSH1 0x1 SWAP1 PUSH1 0xFF AND DUP1 PUSH2 0xE83 JUMPI POP PUSH1 0x1 PUSH1 0x1 PUSH1 0xA0 SHL SUB DUP5 AND PUSH0 SWAP1 DUP2 MSTORE PUSH1 0x7 PUSH1 0x20 MSTORE PUSH1 0x40 SWAP1 KECCAK256 SLOAD PUSH1 0xFF AND JUMPDEST ISZERO PUSH2 0xE8B JUMPI POP PUSH0 JUMPDEST PUSH2 0xE97 DUP6 DUP6 DUP6 DUP5 PUSH2 0x1046 JUMP JUMPDEST POP POP POP POP POP JUMP JUMPDEST PUSH0 PUSH1 0xC SLOAD DUP3 GT ISZERO PUSH2 0xF04 JUMPI PUSH1 0x40 MLOAD PUSH3 0x461BCD PUSH1 0xE5 SHL DUP2 MSTORE PUSH1 0x20 PUSH1 0x4 DUP3 ADD MSTORE PUSH1 0x2A PUSH1 0x24 DUP3 ADD MSTORE PUSH32 0x416D6F756E74206D757374206265206C657373207468616E20746F74616C2072 PUSH1 0x44 DUP3 ADD MSTORE PUSH10 0x65666C656374696F6E73 PUSH1 0xB0 SHL PUSH1 0x64 DUP3 ADD MSTORE PUSH1 0x84 ADD PUSH2 0x540 JUMP JUMPDEST PUSH0 PUSH2 0xF0D PUSH2 0xF53 JUMP JUMPDEST SWAP1 POP PUSH2 0xF19 DUP2 DUP5 PUSH2 0x197E JUMP JUMPDEST SWAP4 SWAP3 POP POP POP JUMP JUMPDEST PUSH0 PUSH0 PUSH1 0x10 SLOAD PUSH1 0xE SLOAD PUSH2 0xF32 SWAP2 SWAP1 PUSH2 0x18AE JUMP JUMPDEST SWAP1 POP PUSH0 PUSH1 0x64 PUSH2 0xF41 DUP4 DUP7 PUSH2 0x1967 JUMP JUMPDEST PUSH2 0xF4B SWAP2 SWAP1 PUSH2 0x197E JUMP JUMPDEST SWAP5 SWAP4 POP POP POP POP JUMP JUMPDEST PUSH0 PUSH0 PUSH0 PUSH2 0xF5E PUSH2 0x11B5 JUMP JUMPDEST SWAP1 SWAP3 POP SWAP1 POP PUSH2 0xF6D DUP2 DUP4 PUSH2 0x197E JUMP JUMPDEST SWAP3 POP POP POP SWAP1 JUMP JUMPDEST PUSH1 0x1 PUSH1 0x1 PUSH1 0xA0 SHL SUB DUP5 AND PUSH2 0xF9D JUMPI PUSH1 0x40 MLOAD PUSH4 0xE602DF05 PUSH1 0xE0 SHL DUP2 MSTORE PUSH0 PUSH1 0x4 DUP3 ADD MSTORE PUSH1 0x24 ADD PUSH2 0x540 JUMP JUMPDEST PUSH1 0x1 PUSH1 0x1 PUSH1 0xA0 SHL SUB DUP4 AND PUSH2 0xFC6 JUMPI PUSH1 0x40 MLOAD PUSH4 0x4A1406B1 PUSH1 0xE1 SHL DUP2 MSTORE PUSH0 PUSH1 0x4 DUP3 ADD MSTORE PUSH1 0x24 ADD PUSH2 0x540 JUMP JUMPDEST PUSH1 0x1 PUSH1 0x1 PUSH1 0xA0 SHL SUB DUP1 DUP6 AND PUSH0 SWAP1 DUP2 MSTORE PUSH1 0x1 PUSH1 0x20 SWAP1 DUP2 MSTORE PUSH1 0x40 DUP1 DUP4 KECCAK256 SWAP4 DUP8 AND DUP4 MSTORE SWAP3 SWAP1 MSTORE KECCAK256 DUP3 SWAP1 SSTORE DUP1 ISZERO PUSH2 0xC95 JUMPI DUP3 PUSH1 0x1 PUSH1 0x1 PUSH1 0xA0 SHL SUB AND DUP5 PUSH1 0x1 PUSH1 0x1 PUSH1 0xA0 SHL SUB AND PUSH32 0x8C5BE1E5EBEC7D5BD14F71427D1E84F3DD0314C0F7B2291E5B200AC8C7C3B925 DUP5 PUSH1 0x40 MLOAD PUSH2 0x1038 SWAP2 DUP2 MSTORE PUSH1 0x20 ADD SWAP1 JUMP JUMPDEST PUSH1 0x40 MLOAD DUP1 SWAP2 SUB SWAP1 LOG3 POP POP POP POP JUMP JUMPDEST DUP1 PUSH2 0x1053 JUMPI PUSH2 0x1053 PUSH2 0x1325 JUMP JUMPDEST PUSH1 0x1 PUSH1 0x1 PUSH1 0xA0 SHL SUB DUP5 AND PUSH0 SWAP1 DUP2 MSTORE PUSH1 0x8 PUSH1 0x20 MSTORE PUSH1 0x40 SWAP1 KECCAK256 SLOAD PUSH1 0xFF AND DUP1 ISZERO PUSH2 0x1092 JUMPI POP PUSH1 0x1 PUSH1 0x1 PUSH1 0xA0 SHL SUB DUP4 AND PUSH0 SWAP1 DUP2 MSTORE PUSH1 0x8 PUSH1 0x20 MSTORE PUSH1 0x40 SWAP1 KECCAK256 SLOAD PUSH1 0xFF AND ISZERO JUMPDEST ISZERO PUSH2 0x10A7 JUMPI PUSH2 0x10A2 DUP5 DUP5 DUP5 PUSH2 0x1352 JUMP JUMPDEST PUSH2 0x119F JUMP JUMPDEST PUSH1 0x1 PUSH1 0x1 PUSH1 0xA0 SHL SUB DUP5 AND PUSH0 SWAP1 DUP2 MSTORE PUSH1 0x8 PUSH1 0x20 MSTORE PUSH1 0x40 SWAP1 KECCAK256 SLOAD PUSH1 0xFF AND ISZERO DUP1 ISZERO PUSH2 0x10E6 JUMPI POP PUSH1 0x1 PUSH1 0x1 PUSH1 0xA0 SHL SUB DUP4 AND PUSH0 SWAP1 DUP2 MSTORE PUSH1 0x8 PUSH1 0x20 MSTORE PUSH1 0x40 SWAP1 KECCAK256 SLOAD PUSH1 0xFF AND JUMPDEST ISZERO PUSH2 0x10F6 JUMPI PUSH2 0x10A2 DUP5 DUP5 DUP5 PUSH2 0x146D JUMP JUMPDEST PUSH1 0x1 PUSH1 0x1 PUSH1 0xA0 SHL SUB DUP5 AND PUSH0 SWAP1 DUP2 MSTORE PUSH1 0x8 PUSH1 0x20 MSTORE PUSH1 0x40 SWAP1 KECCAK256 SLOAD PUSH1 0xFF AND ISZERO DUP1 ISZERO PUSH2 0x1136 JUMPI POP PUSH1 0x1 PUSH1 0x1 PUSH1 0xA0 SHL SUB DUP4 AND PUSH0 SWAP1 DUP2 MSTORE PUSH1 0x8 PUSH1 0x20 MSTORE PUSH1 0x40 SWAP1 KECCAK256 SLOAD PUSH1 0xFF AND ISZERO JUMPDEST ISZERO PUSH2 0x1146 JUMPI PUSH2 0x10A2 DUP5 DUP5 DUP5 PUSH2 0x150C JUMP JUMPDEST PUSH1 0x1 PUSH1 0x1 PUSH1 0xA0 SHL SUB DUP5 AND PUSH0 SWAP1 DUP2 MSTORE PUSH1 0x8 PUSH1 0x20 MSTORE PUSH1 0x40 SWAP1 KECCAK256 SLOAD PUSH1 0xFF AND DUP1 ISZERO PUSH2 0x1184 JUMPI POP PUSH1 0x1 PUSH1 0x1 PUSH1 0xA0 SHL SUB DUP4 AND PUSH0 SWAP1 DUP2 MSTORE PUSH1 0x8 PUSH1 0x20 MSTORE PUSH1 0x40 SWAP1 KECCAK256 SLOAD PUSH1 0xFF AND JUMPDEST ISZERO PUSH2 0x1194 JUMPI PUSH2 0x10A2 DUP5 DUP5 DUP5 PUSH2 0x1546 JUMP JUMPDEST PUSH2 0x119F DUP5 DUP5 DUP5 PUSH2 0x150C JUMP JUMPDEST DUP1 PUSH2 0xC95 JUMPI PUSH2 0xC95 PUSH1 0xF SLOAD PUSH1 0xE SSTORE PUSH1 0x11 SLOAD PUSH1 0x10 SSTORE JUMP JUMPDEST PUSH1 0xC SLOAD PUSH1 0xB SLOAD PUSH0 SWAP2 DUP3 SWAP2 DUP3 JUMPDEST PUSH1 0x9 SLOAD DUP2 LT ISZERO PUSH2 0x12F4 JUMPI DUP3 PUSH1 0x5 PUSH0 PUSH1 0x9 DUP5 DUP2 SLOAD DUP2 LT PUSH2 0x11E2 JUMPI PUSH2 0x11E2 PUSH2 0x193F JUMP JUMPDEST PUSH0 SWAP2 DUP3 MSTORE PUSH1 0x20 DUP1 DUP4 KECCAK256 SWAP1 SWAP2 ADD SLOAD PUSH1 0x1 PUSH1 0x1 PUSH1 0xA0 SHL SUB AND DUP4 MSTORE DUP3 ADD SWAP3 SWAP1 SWAP3 MSTORE PUSH1 0x40 ADD SWAP1 KECCAK256 SLOAD GT DUP1 PUSH2 0x124A JUMPI POP DUP2 PUSH1 0x6 PUSH0 PUSH1 0x9 DUP5 DUP2 SLOAD DUP2 LT PUSH2 0x1224 JUMPI PUSH2 0x1224 PUSH2 0x193F JUMP JUMPDEST PUSH0 SWAP2 DUP3 MSTORE PUSH1 0x20 DUP1 DUP4 KECCAK256 SWAP1 SWAP2 ADD SLOAD PUSH1 0x1 PUSH1 0x1 PUSH1 0xA0 SHL SUB AND DUP4 MSTORE DUP3 ADD SWAP3 SWAP1 SWAP3 MSTORE PUSH1 0x40 ADD SWAP1 KECCAK256 SLOAD GT JUMPDEST ISZERO PUSH2 0x1260 JUMPI PUSH1 0xC SLOAD PUSH1 0xB SLOAD SWAP5 POP SWAP5 POP POP POP POP SWAP1 SWAP2 JUMP JUMPDEST PUSH1 0x5 PUSH0 PUSH1 0x9 DUP4 DUP2 SLOAD DUP2 LT PUSH2 0x1276 JUMPI PUSH2 0x1276 PUSH2 0x193F JUMP JUMPDEST PUSH0 SWAP2 DUP3 MSTORE PUSH1 0x20 DUP1 DUP4 KECCAK256 SWAP1 SWAP2 ADD SLOAD PUSH1 0x1 PUSH1 0x1 PUSH1 0xA0 SHL SUB AND DUP4 MSTORE DUP3 ADD SWAP3 SWAP1 SWAP3 MSTORE PUSH1 0x40 ADD SWAP1 KECCAK256 SLOAD PUSH2 0x12A4 SWAP1 DUP5 PUSH2 0x189B JUMP JUMPDEST SWAP3 POP PUSH1 0x6 PUSH0 PUSH1 0x9 DUP4 DUP2 SLOAD DUP2 LT PUSH2 0x12BC JUMPI PUSH2 0x12BC PUSH2 0x193F JUMP JUMPDEST PUSH0 SWAP2 DUP3 MSTORE PUSH1 0x20 DUP1 DUP4 KECCAK256 SWAP1 SWAP2 ADD SLOAD PUSH1 0x1 PUSH1 0x1 PUSH1 0xA0 SHL SUB AND DUP4 MSTORE DUP3 ADD SWAP3 SWAP1 SWAP3 MSTORE PUSH1 0x40 ADD SWAP1 KECCAK256 SLOAD PUSH2 0x12EA SWAP1 DUP4 PUSH2 0x189B JUMP JUMPDEST SWAP2 POP PUSH1 0x1 ADD PUSH2 0x11C1 JUMP JUMPDEST POP PUSH1 0xB SLOAD PUSH1 0xC SLOAD PUSH2 0x1305 SWAP2 SWAP1 PUSH2 0x197E JUMP JUMPDEST DUP3 LT ISZERO PUSH2 0x131C JUMPI PUSH1 0xC SLOAD PUSH1 0xB SLOAD SWAP4 POP SWAP4 POP POP POP SWAP1 SWAP2 JUMP JUMPDEST SWAP1 SWAP4 SWAP1 SWAP3 POP SWAP1 POP JUMP JUMPDEST PUSH1 0xE SLOAD ISZERO DUP1 ISZERO PUSH2 0x1335 JUMPI POP PUSH1 0x10 SLOAD ISZERO JUMPDEST ISZERO PUSH2 0x133C JUMPI JUMP JUMPDEST PUSH1 0xE DUP1 SLOAD PUSH1 0xF SSTORE PUSH1 0x10 DUP1 SLOAD PUSH1 0x11 SSTORE PUSH0 SWAP2 DUP3 SWAP1 SSTORE SSTORE JUMP JUMPDEST PUSH0 PUSH0 PUSH0 PUSH0 PUSH2 0x135F DUP6 PUSH2 0xBBC JUMP JUMPDEST PUSH1 0x1 PUSH1 0x1 PUSH1 0xA0 SHL SUB DUP12 AND PUSH0 SWAP1 DUP2 MSTORE PUSH1 0x6 PUSH1 0x20 MSTORE PUSH1 0x40 SWAP1 KECCAK256 SLOAD SWAP4 SWAP8 POP SWAP2 SWAP6 POP SWAP4 POP SWAP2 POP PUSH2 0x138C SWAP1 DUP7 SWAP1 PUSH2 0x189B JUMP JUMPDEST PUSH1 0x1 PUSH1 0x1 PUSH1 0xA0 SHL SUB DUP9 AND PUSH0 SWAP1 DUP2 MSTORE PUSH1 0x6 PUSH1 0x20 SWAP1 DUP2 MSTORE PUSH1 0x40 DUP1 DUP4 KECCAK256 SWAP4 SWAP1 SWAP4 SSTORE PUSH1 0x5 SWAP1 MSTORE KECCAK256 SLOAD PUSH2 0x13BB SWAP1 DUP6 SWAP1 PUSH2 0x189B JUMP JUMPDEST PUSH1 0x1 PUSH1 0x1 PUSH1 0xA0 SHL SUB DUP1 DUP10 AND PUSH0 SWAP1 DUP2 MSTORE PUSH1 0x5 PUSH1 0x20 MSTORE PUSH1 0x40 DUP1 DUP3 KECCAK256 SWAP4 SWAP1 SWAP4 SSTORE SWAP1 DUP9 AND DUP2 MSTORE KECCAK256 SLOAD PUSH2 0x13EA SWAP1 DUP5 SWAP1 PUSH2 0x18AE JUMP JUMPDEST PUSH1 0x1 PUSH1 0x1 PUSH1 0xA0 SHL SUB DUP8 AND PUSH0 SWAP1 DUP2 MSTORE PUSH1 0x5 PUSH1 0x20 MSTORE PUSH1 0x40 SWAP1 KECCAK256 SSTORE PUSH2 0x140D DUP8 DUP7 DUP4 PUSH2 0x15AF JUMP JUMPDEST PUSH2 0x1417 DUP6 DUP3 PUSH2 0x16F0 JUMP JUMPDEST DUP6 PUSH1 0x1 PUSH1 0x1 PUSH1 0xA0 SHL SUB AND DUP8 PUSH1 0x1 PUSH1 0x1 PUSH1 0xA0 SHL SUB AND PUSH32 0xDDF252AD1BE2C89B69C2B068FC378DAA952BA7F163C4A11628F55A4DF523B3EF DUP5 PUSH1 0x40 MLOAD PUSH2 0x145C SWAP2 DUP2 MSTORE PUSH1 0x20 ADD SWAP1 JUMP JUMPDEST PUSH1 0x40 MLOAD DUP1 SWAP2 SUB SWAP1 LOG3 POP POP POP POP POP POP POP JUMP JUMPDEST PUSH0 PUSH0 PUSH0 PUSH0 PUSH2 0x147A DUP6 PUSH2 0xBBC JUMP JUMPDEST PUSH1 0x1 PUSH1 0x1 PUSH1 0xA0 SHL SUB DUP12 AND PUSH0 SWAP1 DUP2 MSTORE PUSH1 0x5 PUSH1 0x20 MSTORE PUSH1 0x40 SWAP1 KECCAK256 SLOAD SWAP4 SWAP8 POP SWAP2 SWAP6 POP SWAP4 POP SWAP2 POP PUSH2 0x14A7 SWAP1 DUP6 SWAP1 PUSH2 0x189B JUMP JUMPDEST PUSH1 0x1 PUSH1 0x1 PUSH1 0xA0 SHL SUB DUP1 DUP10 AND PUSH0 SWAP1 DUP2 MSTORE PUSH1 0x5 PUSH1 0x20 SWAP1 DUP2 MSTORE PUSH1 0x40 DUP1 DUP4 KECCAK256 SWAP5 SWAP1 SWAP5 SSTORE SWAP2 DUP10 AND DUP2 MSTORE PUSH1 0x6 SWAP1 SWAP2 MSTORE KECCAK256 SLOAD PUSH2 0x14DD SWAP1 DUP4 SWAP1 PUSH2 0x18AE JUMP JUMPDEST PUSH1 0x1 PUSH1 0x1 PUSH1 0xA0 SHL SUB DUP8 AND PUSH0 SWAP1 DUP2 MSTORE PUSH1 0x6 PUSH1 0x20 SWAP1 DUP2 MSTORE PUSH1 0x40 DUP1 DUP4 KECCAK256 SWAP4 SWAP1 SWAP4 SSTORE PUSH1 0x5 SWAP1 MSTORE KECCAK256 SLOAD PUSH2 0x13EA SWAP1 DUP5 SWAP1 PUSH2 0x18AE JUMP JUMPDEST PUSH0 PUSH0 PUSH0 PUSH0 PUSH2 0x1519 DUP6 PUSH2 0xBBC JUMP JUMPDEST PUSH1 0x1 PUSH1 0x1 PUSH1 0xA0 SHL SUB DUP12 AND PUSH0 SWAP1 DUP2 MSTORE PUSH1 0x5 PUSH1 0x20 MSTORE PUSH1 0x40 SWAP1 KECCAK256 SLOAD SWAP4 SWAP8 POP SWAP2 SWAP6 POP SWAP4 POP SWAP2 POP PUSH2 0x13BB SWAP1 DUP6 SWAP1 PUSH2 0x189B JUMP JUMPDEST PUSH0 PUSH0 PUSH0 PUSH0 PUSH2 0x1553 DUP6 PUSH2 0xBBC JUMP JUMPDEST PUSH1 0x1 PUSH1 0x1 PUSH1 0xA0 SHL SUB DUP12 AND PUSH0 SWAP1 DUP2 MSTORE PUSH1 0x6 PUSH1 0x20 MSTORE PUSH1 0x40 SWAP1 KECCAK256 SLOAD SWAP4 SWAP8 POP SWAP2 SWAP6 POP SWAP4 POP SWAP2 POP PUSH2 0x1580 SWAP1 DUP7 SWAP1 PUSH2 0x189B JUMP JUMPDEST PUSH1 0x1 PUSH1 0x1 PUSH1 0xA0 SHL SUB DUP9 AND PUSH0 SWAP1 DUP2 MSTORE PUSH1 0x6 PUSH1 0x20 SWAP1 DUP2 MSTORE PUSH1 0x40 DUP1 DUP4 KECCAK256 SWAP4 SWAP1 SWAP4 SSTORE PUSH1 0x5 SWAP1 MSTORE KECCAK256 SLOAD PUSH2 0x14A7 SWAP1 DUP6 SWAP1 PUSH2 0x189B JUMP JUMPDEST PUSH0 PUSH1 0x64 PUSH1 0x10 SLOAD DUP5 PUSH2 0x15C0 SWAP2 SWAP1 PUSH2 0x1967 JUMP JUMPDEST PUSH2 0x15CA SWAP2 SWAP1 PUSH2 0x197E JUMP JUMPDEST SWAP1 POP DUP1 ISZERO PUSH2 0xC95 JUMPI PUSH0 PUSH1 0x2 PUSH2 0x15DF DUP5 DUP5 PUSH2 0x1967 JUMP JUMPDEST PUSH2 0x15E9 SWAP2 SWAP1 PUSH2 0x197E JUMP JUMPDEST PUSH1 0x12 SLOAD PUSH1 0x1 PUSH1 0x1 PUSH1 0xA0 SHL SUB AND PUSH0 SWAP1 DUP2 MSTORE PUSH1 0x5 PUSH1 0x20 MSTORE PUSH1 0x40 SWAP1 KECCAK256 SLOAD SWAP1 SWAP2 POP PUSH2 0x1611 SWAP1 DUP3 SWAP1 PUSH2 0x18AE JUMP JUMPDEST PUSH1 0x12 SLOAD PUSH1 0x1 PUSH1 0x1 PUSH1 0xA0 SHL SUB SWAP1 DUP2 AND PUSH0 SWAP1 DUP2 MSTORE PUSH1 0x5 PUSH1 0x20 MSTORE PUSH1 0x40 DUP1 DUP3 KECCAK256 SWAP4 SWAP1 SWAP4 SSTORE PUSH1 0x13 SLOAD SWAP1 SWAP2 AND DUP2 MSTORE KECCAK256 SLOAD PUSH2 0x1646 SWAP1 DUP3 SWAP1 PUSH2 0x18AE JUMP JUMPDEST PUSH1 0x13 SLOAD PUSH1 0x1 PUSH1 0x1 PUSH1 0xA0 SHL SUB SWAP1 DUP2 AND PUSH0 SWAP1 DUP2 MSTORE PUSH1 0x5 PUSH1 0x20 SWAP1 DUP2 MSTORE PUSH1 0x40 SWAP2 DUP3 SWAP1 KECCAK256 SWAP4 SWAP1 SWAP4 SSTORE PUSH1 0x12 SLOAD SWAP1 MLOAD DUP6 DUP2 MSTORE SWAP1 DUP3 AND SWAP3 SWAP2 DUP9 AND SWAP2 PUSH32 0xDDF252AD1BE2C89B69C2B068FC378DAA952BA7F163C4A11628F55A4DF523B3EF SWAP2 ADD PUSH1 0x40 MLOAD DUP1 SWAP2 SUB SWAP1 LOG3 PUSH1 0x13 SLOAD PUSH1 0x40 MLOAD DUP4 DUP2 MSTORE PUSH1 0x1 PUSH1 0x1 PUSH1 0xA0 SHL SUB SWAP2 DUP3 AND SWAP2 DUP8 AND SWAP1 PUSH32 0xDDF252AD1BE2C89B69C2B068FC378DAA952BA7F163C4A11628F55A4DF523B3EF SWAP1 PUSH1 0x20 ADD PUSH1 0x40 MLOAD DUP1 SWAP2 SUB SWAP1 LOG3 POP POP POP POP POP JUMP JUMPDEST PUSH0 PUSH1 0x64 PUSH1 0xE SLOAD DUP5 PUSH2 0x1701 SWAP2 SWAP1 PUSH2 0x1967 JUMP JUMPDEST PUSH2 0x170B SWAP2 SWAP1 PUSH2 0x197E JUMP JUMPDEST SWAP1 POP PUSH0 PUSH2 0x1718 DUP4 DUP4 PUSH2 0x1967 JUMP JUMPDEST SWAP1 POP DUP1 PUSH1 0xC SLOAD PUSH2 0x1728 SWAP2 SWAP1 PUSH2 0x189B JUMP JUMPDEST PUSH1 0xC SSTORE PUSH1 0xD SLOAD PUSH2 0x1739 SWAP1 DUP4 SWAP1 PUSH2 0x18AE JUMP JUMPDEST PUSH1 0xD SSTORE POP POP POP POP JUMP JUMPDEST PUSH0 PUSH1 0x20 DUP3 DUP5 SUB SLT ISZERO PUSH2 0x1752 JUMPI PUSH0 PUSH0 REVERT JUMPDEST POP CALLDATALOAD SWAP2 SWAP1 POP JUMP JUMPDEST PUSH1 0x20 DUP2 MSTORE PUSH0 DUP3 MLOAD DUP1 PUSH1 0x20 DUP5 ADD MSTORE DUP1 PUSH1 0x20 DUP6 ADD PUSH1 0x40 DUP6 ADD MCOPY PUSH0 PUSH1 0x40 DUP3 DUP6 ADD ADD MSTORE PUSH1 0x40 PUSH1 0x1F NOT PUSH1 0x1F DUP4 ADD AND DUP5 ADD ADD SWAP2 POP POP SWAP3 SWAP2 POP POP JUMP JUMPDEST DUP1 CALLDATALOAD PUSH1 0x1 PUSH1 0x1 PUSH1 0xA0 SHL SUB DUP2 AND DUP2 EQ PUSH2 0x17A4 JUMPI PUSH0 PUSH0 REVERT JUMPDEST SWAP2 SWAP1 POP JUMP JUMPDEST PUSH0 PUSH0 PUSH1 0x40 DUP4 DUP6 SUB SLT ISZERO PUSH2 0x17BA JUMPI PUSH0 PUSH0 REVERT JUMPDEST PUSH2 0x17C3 DUP4 PUSH2 0x178E JUMP JUMPDEST SWAP5 PUSH1 0x20 SWAP4 SWAP1 SWAP4 ADD CALLDATALOAD SWAP4 POP POP POP JUMP JUMPDEST PUSH0 PUSH0 PUSH0 PUSH1 0x60 DUP5 DUP7 SUB SLT ISZERO PUSH2 0x17E3 JUMPI PUSH0 PUSH0 REVERT JUMPDEST PUSH2 0x17EC DUP5 PUSH2 0x178E JUMP JUMPDEST SWAP3 POP PUSH2 0x17FA PUSH1 0x20 DUP6 ADD PUSH2 0x178E JUMP JUMPDEST SWAP3 SWAP6 SWAP3 SWAP5 POP POP POP PUSH1 0x40 SWAP2 SWAP1 SWAP2 ADD CALLDATALOAD SWAP1 JUMP JUMPDEST PUSH0 PUSH1 0x20 DUP3 DUP5 SUB SLT ISZERO PUSH2 0x181B JUMPI PUSH0 PUSH0 REVERT JUMPDEST PUSH2 0xF19 DUP3 PUSH2 0x178E JUMP JUMPDEST PUSH0 PUSH0 PUSH1 0x40 DUP4 DUP6 SUB SLT ISZERO PUSH2 0x1835 JUMPI PUSH0 PUSH0 REVERT JUMPDEST DUP3 CALLDATALOAD SWAP2 POP PUSH1 0x20 DUP4 ADD CALLDATALOAD DUP1 ISZERO ISZERO DUP2 EQ PUSH2 0x184B JUMPI PUSH0 PUSH0 REVERT JUMPDEST DUP1 SWAP2 POP POP SWAP3 POP SWAP3 SWAP1 POP JUMP JUMPDEST PUSH0 PUSH0 PUSH1 0x40 DUP4 DUP6 SUB SLT ISZERO PUSH2 0x1867 JUMPI PUSH0 PUSH0 REVERT JUMPDEST PUSH2 0x1870 DUP4 PUSH2 0x178E JUMP JUMPDEST SWAP2 POP PUSH2 0x187E PUSH1 0x20 DUP5 ADD PUSH2 0x178E JUMP JUMPDEST SWAP1 POP SWAP3 POP SWAP3 SWAP1 POP JUMP JUMPDEST PUSH4 0x4E487B71 PUSH1 0xE0 SHL PUSH0 MSTORE PUSH1 0x11 PUSH1 0x4 MSTORE PUSH1 0x24 PUSH0 REVERT JUMPDEST DUP2 DUP2 SUB DUP2 DUP2 GT ISZERO PUSH2 0x65E JUMPI PUSH2 0x65E PUSH2 0x1887 JUMP JUMPDEST DUP1 DUP3 ADD DUP1 DUP3 GT ISZERO PUSH2 0x65E JUMPI PUSH2 0x65E PUSH2 0x1887 JUMP JUMPDEST PUSH1 0x1 DUP2 DUP2 SHR SWAP1 DUP3 AND DUP1 PUSH2 0x18D5 JUMPI PUSH1 0x7F DUP3 AND SWAP2 POP JUMPDEST PUSH1 0x20 DUP3 LT DUP2 SUB PUSH2 0x18F3 JUMPI PUSH4 0x4E487B71 PUSH1 0xE0 SHL PUSH0 MSTORE PUSH1 0x22 PUSH1 0x4 MSTORE PUSH1 0x24 PUSH0 REVERT JUMPDEST POP SWAP2 SWAP1 POP JUMP JUMPDEST PUSH1 0x20 DUP1 DUP3 MSTORE PUSH1 0x26 SWAP1 DUP3 ADD MSTORE PUSH32 0x7A65726F20616464726573732063616E206E6F74206265207468652046656541 PUSH1 0x40 DUP3 ADD MSTORE PUSH6 0x18D8DBDD5B9D PUSH1 0xD2 SHL PUSH1 0x60 DUP3 ADD MSTORE PUSH1 0x80 ADD SWAP1 JUMP JUMPDEST PUSH4 0x4E487B71 PUSH1 0xE0 SHL PUSH0 MSTORE PUSH1 0x32 PUSH1 0x4 MSTORE PUSH1 0x24 PUSH0 REVERT JUMPDEST PUSH4 0x4E487B71 PUSH1 0xE0 SHL PUSH0 MSTORE PUSH1 0x31 PUSH1 0x4 MSTORE PUSH1 0x24 PUSH0 REVERT JUMPDEST DUP1 DUP3 MUL DUP2 ISZERO DUP3 DUP3 DIV DUP5 EQ OR PUSH2 0x65E JUMPI PUSH2 0x65E PUSH2 0x1887 JUMP JUMPDEST PUSH0 DUP3 PUSH2 0x1998 JUMPI PUSH4 0x4E487B71 PUSH1 0xE0 SHL PUSH0 MSTORE PUSH1 0x12 PUSH1 0x4 MSTORE PUSH1 0x24 PUSH0 REVERT JUMPDEST POP DIV SWAP1 JUMP INVALID LOG2 PUSH5 0x6970667358 0x22 SLT KECCAK256 0xEA EXTCODECOPY EXP 0xCD 0xB4 0xBE 0xAF 0xAD PUSH5 0xDBD0907480 EXTCODECOPY SWAP15 EQ RETURNCONTRACT 0x40 PUSH9 0x1B0FEE36229882AF80 0xCB PC 0x27 PUSH5 0x736F6C6343 STOP ADDMOD SAR STOP CALLER "
				},
				"gasEstimates": {
					"creation": {
						"codeDepositCost": "1322200",
						"executionCost": "infinite",
						"totalCost": "infinite"
					},
					"external": {
						"allowance(address,address)": "infinite",
						"approve(address,uint256)": "24779",
						"balanceOf(address)": "infinite",
						"changeDevelopmentAccount(address)": "26791",
						"changeMarketingAccount(address)": "26835",
						"decimals()": "2311",
						"excludeAccountFromReward(address)": "infinite",
						"excludeFromFee(address)": "26851",
						"getDevelopmentAccount()": "2431",
						"getMarketingAccount()": "2397",
						"getTaxFee()": "2379",
						"includeAccountinReward(address)": "infinite",
						"includeInFee(address)": "26838",
						"isExcluded(address)": "2635",
						"isExcludedFromFee(address)": "2657",
						"name()": "infinite",
						"owner()": "2452",
						"reflect(uint256)": "infinite",
						"reflectionFee()": "2380",
						"reflectionFromToken(uint256,bool)": "infinite",
						"symbol()": "infinite",
						"totalFeesRedistributed()": "2336",
						"totalSupply()": "2370",
						"transfer(address,uint256)": "infinite",
						"transferFrom(address,address,uint256)": "infinite"
					},
					"internal": {
						"_getCompleteTaxValue(uint256)": "infinite",
						"_getCurrentSupply()": "infinite",
						"_getRate()": "infinite",
						"_getTransferValues(uint256)": "infinite",
						"_reflectFee(uint256,uint256)": "infinite",
						"_tokenTransfer(address,address,uint256,bool)": "infinite",
						"_transfer(address,address,uint256)": "infinite",
						"_transferBothExcluded(address,address,uint256)": "infinite",
						"_transferFromExcluded(address,address,uint256)": "infinite",
						"_transferStandard(address,address,uint256)": "infinite",
						"_transferToExcluded(address,address,uint256)": "infinite",
						"removeAllFee()": "62689",
						"restoreAllFee()": "infinite",
						"taxFeeTransfer(address,uint256,uint256)": "infinite",
						"tokenFromReflection(uint256)": "infinite"
					}
				},
				"methodIdentifiers": {
					"allowance(address,address)": "dd62ed3e",
					"approve(address,uint256)": "095ea7b3",
					"balanceOf(address)": "70a08231",
					"changeDevelopmentAccount(address)": "706407fd",
					"changeMarketingAccount(address)": "c4863770",
					"decimals()": "313ce567",
					"excludeAccountFromReward(address)": "6049876e",
					"excludeFromFee(address)": "437823ec",
					"getDevelopmentAccount()": "1cf8fef5",
					"getMarketingAccount()": "838fcc90",
					"getTaxFee()": "f66608fe",
					"includeAccountinReward(address)": "fdeb889f",
					"includeInFee(address)": "ea2f0b37",
					"isExcluded(address)": "cba0e996",
					"isExcludedFromFee(address)": "5342acb4",
					"name()": "06fdde03",
					"owner()": "8da5cb5b",
					"reflect(uint256)": "053ab182",
					"reflectionFee()": "83ad7994",
					"reflectionFromToken(uint256,bool)": "4549b039",
					"symbol()": "95d89b41",
					"totalFeesRedistributed()": "32035504",
					"totalSupply()": "18160ddd",
					"transfer(address,uint256)": "a9059cbb",
					"transferFrom(address,address,uint256)": "23b872dd"
				}
			},
			"storageLayout": {
				"storage": [
					{
						"astId": 159,
						"contract": "CYBCC.sol:CYBCC",
						"label": "_balances",
						"offset": 0,
						"slot": "0",
						"type": "t_mapping(t_address,t_uint256)"
					},
					{
						"astId": 165,
						"contract": "CYBCC.sol:CYBCC",
						"label": "_allowances",
						"offset": 0,
						"slot": "1",
						"type": "t_mapping(t_address,t_mapping(t_address,t_uint256))"
					},
					{
						"astId": 167,
						"contract": "CYBCC.sol:CYBCC",
						"label": "_totalSupply",
						"offset": 0,
						"slot": "2",
						"type": "t_uint256"
					},
					{
						"astId": 169,
						"contract": "CYBCC.sol:CYBCC",
						"label": "_name",
						"offset": 0,
						"slot": "3",
						"type": "t_string_storage"
					},
					{
						"astId": 171,
						"contract": "CYBCC.sol:CYBCC",
						"label": "_symbol",
						"offset": 0,
						"slot": "4",
						"type": "t_string_storage"
					},
					{
						"astId": 795,
						"contract": "CYBCC.sol:CYBCC",
						"label": "_rOwned",
						"offset": 0,
						"slot": "5",
						"type": "t_mapping(t_address,t_uint256)"
					},
					{
						"astId": 799,
						"contract": "CYBCC.sol:CYBCC",
						"label": "_tOwned",
						"offset": 0,
						"slot": "6",
						"type": "t_mapping(t_address,t_uint256)"
					},
					{
						"astId": 803,
						"contract": "CYBCC.sol:CYBCC",
						"label": "_isExcludedFromFee",
						"offset": 0,
						"slot": "7",
						"type": "t_mapping(t_address,t_bool)"
					},
					{
						"astId": 807,
						"contract": "CYBCC.sol:CYBCC",
						"label": "_isExcluded",
						"offset": 0,
						"slot": "8",
						"type": "t_mapping(t_address,t_bool)"
					},
					{
						"astId": 810,
						"contract": "CYBCC.sol:CYBCC",
						"label": "_excluded",
						"offset": 0,
						"slot": "9",
						"type": "t_array(t_address)dyn_storage"
					},
					{
						"astId": 812,
						"contract": "CYBCC.sol:CYBCC",
						"label": "_decimals",
						"offset": 0,
						"slot": "10",
						"type": "t_uint8"
					},
					{
						"astId": 816,
						"contract": "CYBCC.sol:CYBCC",
						"label": "_owner",
						"offset": 1,
						"slot": "10",
						"type": "t_address"
					},
					{
						"astId": 825,
						"contract": "CYBCC.sol:CYBCC",
						"label": "_tTotal",
						"offset": 0,
						"slot": "11",
						"type": "t_uint256"
					},
					{
						"astId": 827,
						"contract": "CYBCC.sol:CYBCC",
						"label": "_rTotal",
						"offset": 0,
						"slot": "12",
						"type": "t_uint256"
					},
					{
						"astId": 830,
						"contract": "CYBCC.sol:CYBCC",
						"label": "_tFeeTotal",
						"offset": 0,
						"slot": "13",
						"type": "t_uint256"
					},
					{
						"astId": 832,
						"contract": "CYBCC.sol:CYBCC",
						"label": "_reflectionFee",
						"offset": 0,
						"slot": "14",
						"type": "t_uint256"
					},
					{
						"astId": 834,
						"contract": "CYBCC.sol:CYBCC",
						"label": "_previousReflectionFee",
						"offset": 0,
						"slot": "15",
						"type": "t_uint256"
					},
					{
						"astId": 836,
						"contract": "CYBCC.sol:CYBCC",
						"label": "_taxFee",
						"offset": 0,
						"slot": "16",
						"type": "t_uint256"
					},
					{
						"astId": 838,
						"contract": "CYBCC.sol:CYBCC",
						"label": "_previousTaxFee",
						"offset": 0,
						"slot": "17",
						"type": "t_uint256"
					},
					{
						"astId": 840,
						"contract": "CYBCC.sol:CYBCC",
						"label": "_marketingAccount",
						"offset": 0,
						"slot": "18",
						"type": "t_address"
					},
					{
						"astId": 842,
						"contract": "CYBCC.sol:CYBCC",
						"label": "_developmentAccount",
						"offset": 0,
						"slot": "19",
						"type": "t_address"
					},
					{
						"astId": 852,
						"contract": "CYBCC.sol:CYBCC",
						"label": "maxWalletAmount",
						"offset": 0,
						"slot": "20",
						"type": "t_uint256"
					}
				],
				"types": {
					"t_address": {
						"encoding": "inplace",
						"label": "address",
						"numberOfBytes": "20"
					},
					"t_array(t_address)dyn_storage": {
						"base": "t_address",
						"encoding": "dynamic_array",
						"label": "address[]",
						"numberOfBytes": "32"
					},
					"t_bool": {
						"encoding": "inplace",
						"label": "bool",
						"numberOfBytes": "1"
					},
					"t_mapping(t_address,t_bool)": {
						"encoding": "mapping",
						"key": "t_address",
						"label": "mapping(address => bool)",
						"numberOfBytes": "32",
						"value": "t_bool"
					},
					"t_mapping(t_address,t_mapping(t_address,t_uint256))": {
						"encoding": "mapping",
						"key": "t_address",
						"label": "mapping(address => mapping(address => uint256))",
						"numberOfBytes": "32",
						"value": "t_mapping(t_address,t_uint256)"
					},
					"t_mapping(t_address,t_uint256)": {
						"encoding": "mapping",
						"key": "t_address",
						"label": "mapping(address => uint256)",
						"numberOfBytes": "32",
						"value": "t_uint256"
					},
					"t_string_storage": {
						"encoding": "bytes",
						"label": "string",
						"numberOfBytes": "32"
					},
					"t_uint256": {
						"encoding": "inplace",
						"label": "uint256",
						"numberOfBytes": "32"
					},
					"t_uint8": {
						"encoding": "inplace",
						"label": "uint8",
						"numberOfBytes": "1"
					}
				}
			},
			"userdoc": {
				"kind": "user",
				"methods": {},
				"version": 1
			}
		}
	}
}