{
	"shoaib.sol": {
		"CYBCC": {
			"abi": [
				{
					"inputs": [],
					"stateMutability": "nonpayable",
					"type": "constructor"
				},
				{
					"inputs": [
						{
							"internalType": "address",
							"name": "spender",
							"type": "address"
						},
						{
							"internalType": "uint256",
							"name": "allowance",
							"type": "uint256"
						},
						{
							"internalType": "uint256",
							"name": "needed",
							"type": "uint256"
						}
					],
					"name": "ERC20InsufficientAllowance",
					"type": "error"
				},
				{
					"inputs": [
						{
							"internalType": "address",
							"name": "sender",
							"type": "address"
						},
						{
							"internalType": "uint256",
							"name": "balance",
							"type": "uint256"
						},
						{
							"internalType": "uint256",
							"name": "needed",
							"type": "uint256"
						}
					],
					"name": "ERC20InsufficientBalance",
					"type": "error"
				},
				{
					"inputs": [
						{
							"internalType": "address",
							"name": "approver",
							"type": "address"
						}
					],
					"name": "ERC20InvalidApprover",
					"type": "error"
				},
				{
					"inputs": [
						{
							"internalType": "address",
							"name": "receiver",
							"type": "address"
						}
					],
					"name": "ERC20InvalidReceiver",
					"type": "error"
				},
				{
					"inputs": [
						{
							"internalType": "address",
							"name": "sender",
							"type": "address"
						}
					],
					"name": "ERC20InvalidSender",
					"type": "error"
				},
				{
					"inputs": [
						{
							"internalType": "address",
							"name": "spender",
							"type": "address"
						}
					],
					"name": "ERC20InvalidSpender",
					"type": "error"
				},
				{
					"anonymous": false,
					"inputs": [
						{
							"indexed": true,
							"internalType": "address",
							"name": "owner",
							"type": "address"
						},
						{
							"indexed": true,
							"internalType": "address",
							"name": "spender",
							"type": "address"
						},
						{
							"indexed": false,
							"internalType": "uint256",
							"name": "value",
							"type": "uint256"
						}
					],
					"name": "Approval",
					"type": "event"
				},
				{
					"anonymous": false,
					"inputs": [
						{
							"indexed": true,
							"internalType": "address",
							"name": "from",
							"type": "address"
						},
						{
							"indexed": true,
							"internalType": "address",
							"name": "to",
							"type": "address"
						},
						{
							"indexed": false,
							"internalType": "uint256",
							"name": "value",
							"type": "uint256"
						}
					],
					"name": "Transfer",
					"type": "event"
				},
				{
					"inputs": [
						{
							"internalType": "address",
							"name": "owner",
							"type": "address"
						},
						{
							"internalType": "address",
							"name": "spender",
							"type": "address"
						}
					],
					"name": "allowance",
					"outputs": [
						{
							"internalType": "uint256",
							"name": "",
							"type": "uint256"
						}
					],
					"stateMutability": "view",
					"type": "function"
				},
				{
					"inputs": [
						{
							"internalType": "address",
							"name": "spender",
							"type": "address"
						},
						{
							"internalType": "uint256",
							"name": "value",
							"type": "uint256"
						}
					],
					"name": "approve",
					"outputs": [
						{
							"internalType": "bool",
							"name": "",
							"type": "bool"
						}
					],
					"stateMutability": "nonpayable",
					"type": "function"
				},
				{
					"inputs": [
						{
							"internalType": "address",
							"name": "sender",
							"type": "address"
						}
					],
					"name": "balanceOf",
					"outputs": [
						{
							"internalType": "uint256",
							"name": "",
							"type": "uint256"
						}
					],
					"stateMutability": "view",
					"type": "function"
				},
				{
					"inputs": [
						{
							"internalType": "address",
							"name": "newFeeAccount",
							"type": "address"
						}
					],
					"name": "changeDevelopmentAccount",
					"outputs": [],
					"stateMutability": "nonpayable",
					"type": "function"
				},
				{
					"inputs": [
						{
							"internalType": "address",
							"name": "newFeeAccount",
							"type": "address"
						}
					],
					"name": "changeMarketingAccount",
					"outputs": [],
					"stateMutability": "nonpayable",
					"type": "function"
				},
				{
					"inputs": [
						{
							"internalType": "address",
							"name": "_pairAddress",
							"type": "address"
						}
					],
					"name": "changePairAddress",
					"outputs": [],
					"stateMutability": "nonpayable",
					"type": "function"
				},
				{
					"inputs": [],
					"name": "decimals",
					"outputs": [
						{
							"internalType": "uint8",
							"name": "",
							"type": "uint8"
						}
					],
					"stateMutability": "view",
					"type": "function"
				},
				{
					"inputs": [
						{
							"internalType": "address",
							"name": "account",
							"type": "address"
						}
					],
					"name": "excludeAccountFromReward",
					"outputs": [],
					"stateMutability": "nonpayable",
					"type": "function"
				},
				{
					"inputs": [
						{
							"internalType": "address",
							"name": "account",
							"type": "address"
						}
					],
					"name": "excludeFromFee",
					"outputs": [],
					"stateMutability": "nonpayable",
					"type": "function"
				},
				{
					"inputs": [],
					"name": "getDevelopmentAccount",
					"outputs": [
						{
							"internalType": "address",
							"name": "",
							"type": "address"
						}
					],
					"stateMutability": "view",
					"type": "function"
				},
				{
					"inputs": [],
					"name": "getMarketingAccount",
					"outputs": [
						{
							"internalType": "address",
							"name": "",
							"type": "address"
						}
					],
					"stateMutability": "view",
					"type": "function"
				},
				{
					"inputs": [],
					"name": "getTaxFee",
					"outputs": [
						{
							"internalType": "uint256",
							"name": "",
							"type": "uint256"
						}
					],
					"stateMutability": "view",
					"type": "function"
				},
				{
					"inputs": [
						{
							"internalType": "address",
							"name": "account",
							"type": "address"
						}
					],
					"name": "includeAccountinReward",
					"outputs": [],
					"stateMutability": "nonpayable",
					"type": "function"
				},
				{
					"inputs": [
						{
							"internalType": "address",
							"name": "account",
							"type": "address"
						}
					],
					"name": "isExcluded",
					"outputs": [
						{
							"internalType": "bool",
							"name": "",
							"type": "bool"
						}
					],
					"stateMutability": "view",
					"type": "function"
				},
				{
					"inputs": [
						{
							"internalType": "address",
							"name": "account",
							"type": "address"
						}
					],
					"name": "isExcludedFromFee",
					"outputs": [
						{
							"internalType": "bool",
							"name": "",
							"type": "bool"
						}
					],
					"stateMutability": "view",
					"type": "function"
				},
				{
					"inputs": [
						{
							"internalType": "address",
							"name": "",
							"type": "address"
						}
					],
					"name": "isWhitelisted",
					"outputs": [
						{
							"internalType": "bool",
							"name": "",
							"type": "bool"
						}
					],
					"stateMutability": "view",
					"type": "function"
				},
				{
					"inputs": [
						{
							"internalType": "address",
							"name": "account",
							"type": "address"
						}
					],
					"name": "isWhitelistedAddress",
					"outputs": [
						{
							"internalType": "bool",
							"name": "",
							"type": "bool"
						}
					],
					"stateMutability": "view",
					"type": "function"
				},
				{
					"inputs": [],
					"name": "launchBlock",
					"outputs": [
						{
							"internalType": "uint256",
							"name": "",
							"type": "uint256"
						}
					],
					"stateMutability": "view",
					"type": "function"
				},
				{
					"inputs": [],
					"name": "name",
					"outputs": [
						{
							"internalType": "string",
							"name": "",
							"type": "string"
						}
					],
					"stateMutability": "view",
					"type": "function"
				},
				{
					"inputs": [],
					"name": "openTrading",
					"outputs": [],
					"stateMutability": "nonpayable",
					"type": "function"
				},
				{
					"inputs": [],
					"name": "owner",
					"outputs": [
						{
							"internalType": "address",
							"name": "",
							"type": "address"
						}
					],
					"stateMutability": "view",
					"type": "function"
				},
				{
					"inputs": [],
					"name": "pairAddress",
					"outputs": [
						{
							"internalType": "address",
							"name": "",
							"type": "address"
						}
					],
					"stateMutability": "view",
					"type": "function"
				},
				{
					"inputs": [
						{
							"internalType": "uint256",
							"name": "tAmount",
							"type": "uint256"
						}
					],
					"name": "reflect",
					"outputs": [],
					"stateMutability": "nonpayable",
					"type": "function"
				},
				{
					"inputs": [],
					"name": "reflectionFee",
					"outputs": [
						{
							"internalType": "uint256",
							"name": "",
							"type": "uint256"
						}
					],
					"stateMutability": "view",
					"type": "function"
				},
				{
					"inputs": [
						{
							"internalType": "uint256",
							"name": "tAmount",
							"type": "uint256"
						},
						{
							"internalType": "bool",
							"name": "deductTransferFee",
							"type": "bool"
						}
					],
					"name": "reflectionFromToken",
					"outputs": [
						{
							"internalType": "uint256",
							"name": "",
							"type": "uint256"
						}
					],
					"stateMutability": "view",
					"type": "function"
				},
				{
					"inputs": [],
					"name": "symbol",
					"outputs": [
						{
							"internalType": "string",
							"name": "",
							"type": "string"
						}
					],
					"stateMutability": "view",
					"type": "function"
				},
				{
					"inputs": [],
					"name": "totalFeesRedistributed",
					"outputs": [
						{
							"internalType": "uint256",
							"name": "",
							"type": "uint256"
						}
					],
					"stateMutability": "view",
					"type": "function"
				},
				{
					"inputs": [],
					"name": "totalSupply",
					"outputs": [
						{
							"internalType": "uint256",
							"name": "",
							"type": "uint256"
						}
					],
					"stateMutability": "view",
					"type": "function"
				},
				{
					"inputs": [],
					"name": "tradingOpen",
					"outputs": [
						{
							"internalType": "bool",
							"name": "",
							"type": "bool"
						}
					],
					"stateMutability": "view",
					"type": "function"
				},
				{
					"inputs": [
						{
							"internalType": "address",
							"name": "to",
							"type": "address"
						},
						{
							"internalType": "uint256",
							"name": "value",
							"type": "uint256"
						}
					],
					"name": "transfer",
					"outputs": [
						{
							"internalType": "bool",
							"name": "",
							"type": "bool"
						}
					],
					"stateMutability": "nonpayable",
					"type": "function"
				},
				{
					"inputs": [
						{
							"internalType": "address",
							"name": "from",
							"type": "address"
						},
						{
							"internalType": "address",
							"name": "to",
							"type": "address"
						},
						{
							"internalType": "uint256",
							"name": "value",
							"type": "uint256"
						}
					],
					"name": "transferFrom",
					"outputs": [
						{
							"internalType": "bool",
							"name": "",
							"type": "bool"
						}
					],
					"stateMutability": "nonpayable",
					"type": "function"
				},
				{
					"inputs": [
						{
							"internalType": "address",
							"name": "account",
							"type": "address"
						}
					],
					"name": "whitelistedAddress",
					"outputs": [],
					"stateMutability": "nonpayable",
					"type": "function"
				},
				{
					"stateMutability": "payable",
					"type": "receive"
				}
			],
			"devdoc": {
				"errors": {
					"ERC20InsufficientAllowance(address,uint256,uint256)": [
						{
							"details": "Indicates a failure with the `spender`’s `allowance`. Used in transfers.",
							"params": {
								"allowance": "Amount of tokens a `spender` is allowed to operate with.",
								"needed": "Minimum amount required to perform a transfer.",
								"spender": "Address that may be allowed to operate on tokens without being their owner."
							}
						}
					],
					"ERC20InsufficientBalance(address,uint256,uint256)": [
						{
							"details": "Indicates an error related to the current `balance` of a `sender`. Used in transfers.",
							"params": {
								"balance": "Current balance for the interacting account.",
								"needed": "Minimum amount required to perform a transfer.",
								"sender": "Address whose tokens are being transferred."
							}
						}
					],
					"ERC20InvalidApprover(address)": [
						{
							"details": "Indicates a failure with the `approver` of a token to be approved. Used in approvals.",
							"params": {
								"approver": "Address initiating an approval operation."
							}
						}
					],
					"ERC20InvalidReceiver(address)": [
						{
							"details": "Indicates a failure with the token `receiver`. Used in transfers.",
							"params": {
								"receiver": "Address to which tokens are being transferred."
							}
						}
					],
					"ERC20InvalidSender(address)": [
						{
							"details": "Indicates a failure with the token `sender`. Used in transfers.",
							"params": {
								"sender": "Address whose tokens are being transferred."
							}
						}
					],
					"ERC20InvalidSpender(address)": [
						{
							"details": "Indicates a failure with the `spender` to be approved. Used in approvals.",
							"params": {
								"spender": "Address that may be allowed to operate on tokens without being their owner."
							}
						}
					]
				},
				"events": {
					"Approval(address,address,uint256)": {
						"details": "Emitted when the allowance of a `spender` for an `owner` is set by a call to {approve}. `value` is the new allowance."
					},
					"Transfer(address,address,uint256)": {
						"details": "Emitted when `value` tokens are moved from one account (`from`) to another (`to`). Note that `value` may be zero."
					}
				},
				"kind": "dev",
				"methods": {
					"allowance(address,address)": {
						"details": "See {IERC20-allowance}."
					},
					"approve(address,uint256)": {
						"details": "See {IERC20-approve}. NOTE: If `value` is the maximum `uint256`, the allowance is not updated on `transferFrom`. This is semantically equivalent to an infinite approval. Requirements: - `spender` cannot be the zero address."
					},
					"decimals()": {
						"details": "Returns the number of decimals used to get its user representation. For example, if `decimals` equals `2`, a balance of `505` tokens should be displayed to a user as `5.05` (`505 / 10 ** 2`). Tokens usually opt for a value of 18, imitating the relationship between Ether and Wei. This is the default value returned by this function, unless it's overridden. NOTE: This information is only used for _display_ purposes: it in no way affects any of the arithmetic of the contract, including {IERC20-balanceOf} and {IERC20-transfer}."
					},
					"name()": {
						"details": "Returns the name of the token."
					},
					"symbol()": {
						"details": "Returns the symbol of the token, usually a shorter version of the name."
					},
					"totalSupply()": {
						"details": "See {IERC20-totalSupply}."
					},
					"transfer(address,uint256)": {
						"details": "See {IERC20-transfer}. Requirements: - `to` cannot be the zero address. - the caller must have a balance of at least `value`."
					},
					"transferFrom(address,address,uint256)": {
						"details": "See {IERC20-transferFrom}. Skips emitting an {Approval} event indicating an allowance update. This is not required by the ERC. See {xref-ERC20-_approve-address-address-uint256-bool-}[_approve]. NOTE: Does not update the allowance if the current allowance is the maximum `uint256`. Requirements: - `from` and `to` cannot be the zero address. - `from` must have a balance of at least `value`. - the caller must have allowance for ``from``'s tokens of at least `value`."
					}
				},
				"version": 1
			},
			"evm": {
				"assembly": "    /* \"shoaib.sol\":143:15583  contract CYBCC is ERC20 {... */\n  mstore(0x40, 0x80)\n    /* \"shoaib.sol\":523:558  address private _owner = msg.sender */\n  0x0b\n  dup1\n  sload\n  not(sub(shl(0xa8, 0x01), 0x0100))\n  and\n    /* \"shoaib.sol\":548:558  msg.sender */\n  caller\n    /* \"shoaib.sol\":523:558  address private _owner = msg.sender */\n  0x0100\n  mul\n  or\n  swap1\n  sstore\n  0x00\n    /* \"shoaib.sol\":682:712  uint256 private _tFeeTotal = 0 */\n  0x0e\n  sstore\n    /* \"shoaib.sol\":1099:1130  bool public tradingOpen = false */\n  0x18\n  dup1\n  sload\n  not(0xff)\n  and\n  swap1\n  sstore\n    /* \"shoaib.sol\":1143:2141  constructor() ERC20(\"abc coin\", \"CYBCC\") {... */\n  callvalue\n  dup1\n  iszero\n  tag_1\n  jumpi\n  revert(0x00, 0x00)\ntag_1:\n  pop\n    /* \"@openzeppelin/contracts/token/ERC20/ERC20.sol\":1582:1695  constructor(string memory name_, string memory symbol_) {... */\n  mload(0x40)\n  dup1\n  0x40\n  add\n  0x40\n  mstore\n  dup1\n  0x08\n  dup2\n  mstore\n  0x20\n  add\n  shl(0xc1, 0x30b1319031b7b4b7)\n  dup2\n  mstore\n  pop\n  mload(0x40)\n  dup1\n  0x40\n  add\n  0x40\n  mstore\n  dup1\n  0x05\n  dup2\n  mstore\n  0x20\n  add\n  shl(0xd8, 0x4359424343)\n  dup2\n  mstore\n  pop\n    /* \"@openzeppelin/contracts/token/ERC20/ERC20.sol\":1656:1661  name_ */\n  dup2\n    /* \"@openzeppelin/contracts/token/ERC20/ERC20.sol\":1648:1653  _name */\n  0x03\n    /* \"@openzeppelin/contracts/token/ERC20/ERC20.sol\":1648:1661  _name = name_ */\n  swap1\n  dup2\n  tag_5\n  swap2\n  swap1\n  tag_6\n  jump\t// in\ntag_5:\n  pop\n    /* \"@openzeppelin/contracts/token/ERC20/ERC20.sol\":1671:1678  _symbol */\n  0x04\n    /* \"@openzeppelin/contracts/token/ERC20/ERC20.sol\":1671:1688  _symbol = symbol_ */\n  tag_7\n    /* \"@openzeppelin/contracts/token/ERC20/ERC20.sol\":1681:1688  symbol_ */\n  dup3\n    /* \"@openzeppelin/contracts/token/ERC20/ERC20.sol\":1671:1678  _symbol */\n  dup3\n    /* \"@openzeppelin/contracts/token/ERC20/ERC20.sol\":1671:1688  _symbol = symbol_ */\n  tag_6\n  jump\t// in\ntag_7:\n  pop\n  pop\n    /* \"shoaib.sol\":1197:1206  _decimals */\n  0x0b\n    /* \"shoaib.sol\":1197:1211  _decimals = 18 */\n  dup1\n  sload\n  not(0xff)\n  and\n    /* \"shoaib.sol\":1209:1211  18 */\n  0x12\n    /* \"shoaib.sol\":1197:1211  _decimals = 18 */\n  swap1\n  dup2\n  or\n  swap1\n  swap2\n  sstore\n    /* \"shoaib.sol\":1247:1269  10**uint256(_decimals) */\n  tag_9\n  swap2\n  pop\n    /* \"shoaib.sol\":1247:1249  10 */\n  0x0a\n    /* \"shoaib.sol\":1247:1269  10**uint256(_decimals) */\n  tag_10\n  jump\t// in\ntag_9:\n    /* \"shoaib.sol\":1234:1269  1000000000 * 10**uint256(_decimals) */\n  tag_11\n  swap1\n    /* \"shoaib.sol\":1234:1244  1000000000 */\n  0x3b9aca00\n    /* \"shoaib.sol\":1234:1269  1000000000 * 10**uint256(_decimals) */\n  tag_12\n  jump\t// in\ntag_11:\n    /* \"shoaib.sol\":1224:1231  _tTotal */\n  0x0c\n    /* \"shoaib.sol\":1224:1269  _tTotal = 1000000000 * 10**uint256(_decimals) */\n  dup2\n  swap1\n  sstore\n    /* \"shoaib.sol\":1300:1313  MAX % _tTotal */\n  tag_13\n  swap1\n  not(0x00)\n  tag_14\n  jump\t// in\ntag_13:\n    /* \"shoaib.sol\":1293:1314  MAX - (MAX % _tTotal) */\n  tag_15\n  swap1\n  not(0x00)\n  tag_16\n  jump\t// in\ntag_15:\n    /* \"shoaib.sol\":1282:1289  _rTotal */\n  0x0d\n    /* \"shoaib.sol\":1282:1315  _rTotal = (MAX - (MAX % _tTotal)) */\n  sstore\n    /* \"shoaib.sol\":1349:1350  2 */\n  0x02\n    /* \"shoaib.sol\":1332:1346  _reflectionFee */\n  0x0f\n    /* \"shoaib.sol\":1332:1350  _reflectionFee = 2 */\n  dup2\n  swap1\n  sstore\n    /* \"shoaib.sol\":1363:1385  _previousReflectionFee */\n  0x10\n    /* \"shoaib.sol\":1363:1402  _previousReflectionFee = _reflectionFee */\n  sstore\n    /* \"shoaib.sol\":1429:1430  1 */\n  0x01\n    /* \"shoaib.sol\":1419:1426  _taxFee */\n  0x11\n    /* \"shoaib.sol\":1419:1430  _taxFee = 1 */\n  dup2\n  swap1\n  sstore\n    /* \"shoaib.sol\":1443:1458  _previousTaxFee */\n  0x12\n    /* \"shoaib.sol\":1443:1468  _previousTaxFee = _taxFee */\n  sstore\n    /* \"shoaib.sol\":1505:1511  _owner */\n  sload(0x0b)\n    /* \"shoaib.sol\":1485:1502  _marketingAccount */\n  0x13\n    /* \"shoaib.sol\":1485:1511  _marketingAccount = _owner */\n  dup1\n  sload\n    /* \"shoaib.sol\":1505:1511  _owner */\n  0x0100\n  dup4\n  div\n  sub(shl(0xa0, 0x01), 0x01)\n  and\n  not(sub(shl(0xa0, 0x01), 0x01))\n    /* \"shoaib.sol\":1485:1511  _marketingAccount = _owner */\n  swap2\n  dup3\n  and\n  dup2\n  or\n  swap1\n  swap3\n  sstore\n    /* \"shoaib.sol\":1524:1543  _developmentAccount */\n  0x14\n    /* \"shoaib.sol\":1524:1552  _developmentAccount = _owner */\n  dup1\n  sload\n  swap1\n  swap2\n  and\n  swap1\n  swap2\n  or\n  swap1\n  sstore\n    /* \"shoaib.sol\":1598:1620  10**uint256(_decimals) */\n  tag_17\n  swap1\n    /* \"shoaib.sol\":1610:1619  _decimals */\n  0xff\n  and\n    /* \"shoaib.sol\":1598:1600  10 */\n  0x0a\n    /* \"shoaib.sol\":1598:1620  10**uint256(_decimals) */\n  tag_10\n  jump\t// in\ntag_17:\n    /* \"shoaib.sol\":1587:1620  10000000 * 10**uint256(_decimals) */\n  tag_18\n  swap1\n    /* \"shoaib.sol\":1587:1595  10000000 */\n  0x989680\n    /* \"shoaib.sol\":1587:1620  10000000 * 10**uint256(_decimals) */\n  tag_12\n  jump\t// in\ntag_18:\n    /* \"shoaib.sol\":1569:1584  maxWalletAmount */\n  0x16\n    /* \"shoaib.sol\":1569:1620  maxWalletAmount = 10000000 * 10**uint256(_decimals) */\n  sstore\n    /* \"shoaib.sol\":1733:1737  true */\n  0x01\n    /* \"shoaib.sol\":1703:1721  _isExcludedFromFee */\n  0x07\n    /* \"shoaib.sol\":1703:1730  _isExcludedFromFee[owner()] */\n  0x00\n    /* \"shoaib.sol\":1722:1729  owner() */\n  tag_19\n    /* \"shoaib.sol\":2269:2275  _owner */\n  sload(0x0b)\n  0x0100\n  swap1\n  div\n  sub(shl(0xa0, 0x01), 0x01)\n  and\n  swap1\n    /* \"shoaib.sol\":2194:2285  function owner() public view virtual returns (address) {... */\n  jump\n    /* \"shoaib.sol\":1722:1729  owner() */\ntag_19:\n  sub(shl(0xa0, 0x01), 0x01)\n    /* \"shoaib.sol\":1703:1730  _isExcludedFromFee[owner()] */\n  swap1\n  dup2\n  and\n  dup3\n  mstore\n  0x20\n  dup1\n  dup4\n  add\n  swap4\n  swap1\n  swap4\n  mstore\n  0x40\n  swap2\n  dup3\n  add\n  0x00\n  swap1\n  dup2\n  keccak256\n    /* \"shoaib.sol\":1703:1737  _isExcludedFromFee[owner()] = true */\n  dup1\n  sload\n  swap6\n  iszero\n  iszero\n  not(0xff)\n  swap7\n  dup8\n  and\n  or\n  swap1\n  sstore\n    /* \"shoaib.sol\":1769:1786  _marketingAccount */\n  sload(0x13)\n  dup3\n  and\n    /* \"shoaib.sol\":1750:1787  _isExcludedFromFee[_marketingAccount] */\n  dup2\n  mstore\n    /* \"shoaib.sol\":1750:1768  _isExcludedFromFee */\n  0x07\n    /* \"shoaib.sol\":1750:1787  _isExcludedFromFee[_marketingAccount] */\n  swap1\n  swap4\n  mstore\n  dup2\n  dup4\n  keccak256\n    /* \"shoaib.sol\":1750:1794  _isExcludedFromFee[_marketingAccount] = true */\n  dup1\n  sload\n  dup6\n  and\n    /* \"shoaib.sol\":1703:1737  _isExcludedFromFee[owner()] = true */\n  0x01\n    /* \"shoaib.sol\":1750:1794  _isExcludedFromFee[_marketingAccount] = true */\n  swap1\n  dup2\n  or\n  swap1\n  swap2\n  sstore\n    /* \"shoaib.sol\":1826:1845  _developmentAccount */\n  sload(0x14)\n  swap1\n  swap2\n  and\n    /* \"shoaib.sol\":1807:1846  _isExcludedFromFee[_developmentAccount] */\n  dup4\n  mstore\n  dup2\n  dup4\n  keccak256\n    /* \"shoaib.sol\":1807:1853  _isExcludedFromFee[_developmentAccount] = true */\n  dup1\n  sload\n  dup6\n  and\n  dup3\n  or\n  swap1\n  sstore\n    /* \"shoaib.sol\":1893:1897  this */\n  address\n    /* \"shoaib.sol\":1866:1899  _isExcludedFromFee[address(this)] */\n  dup4\n  mstore\n  swap1\n  dup3\n  keccak256\n    /* \"shoaib.sol\":1866:1906  _isExcludedFromFee[address(this)] = true */\n  dup1\n  sload\n  swap1\n  swap4\n  and\n  dup2\n  or\n  swap1\n  swap3\n  sstore\n    /* \"shoaib.sol\":1919:1932  isWhitelisted */\n  0x08\n  swap1\n    /* \"shoaib.sol\":1933:1940  owner() */\n  tag_21\n    /* \"shoaib.sol\":2269:2275  _owner */\n  sload(0x0b)\n  0x0100\n  swap1\n  div\n  sub(shl(0xa0, 0x01), 0x01)\n  and\n  swap1\n    /* \"shoaib.sol\":2194:2285  function owner() public view virtual returns (address) {... */\n  jump\n    /* \"shoaib.sol\":1933:1940  owner() */\ntag_21:\n  sub(shl(0xa0, 0x01), 0x01)\n    /* \"shoaib.sol\":1919:1941  isWhitelisted[owner()] */\n  swap1\n  dup2\n  and\n  dup3\n  mstore\n  0x20\n  dup1\n  dup4\n  add\n  swap4\n  swap1\n  swap4\n  mstore\n  0x40\n  swap2\n  dup3\n  add\n  0x00\n  swap1\n  dup2\n  keccak256\n    /* \"shoaib.sol\":1919:1948  isWhitelisted[owner()] = true */\n  dup1\n  sload\n  swap6\n  iszero\n  iszero\n  not(0xff)\n  swap7\n  dup8\n  and\n  or\n  swap1\n  sstore\n    /* \"shoaib.sol\":1975:1992  _marketingAccount */\n  sload(0x13)\n  dup3\n  and\n    /* \"shoaib.sol\":1961:1993  isWhitelisted[_marketingAccount] */\n  dup2\n  mstore\n    /* \"shoaib.sol\":1961:1974  isWhitelisted */\n  0x08\n    /* \"shoaib.sol\":1961:1993  isWhitelisted[_marketingAccount] */\n  dup5\n  mstore\n  dup3\n  dup2\n  keccak256\n    /* \"shoaib.sol\":1961:2000  isWhitelisted[_marketingAccount] = true */\n  dup1\n  sload\n  dup7\n  and\n    /* \"shoaib.sol\":1919:1948  isWhitelisted[owner()] = true */\n  0x01\n    /* \"shoaib.sol\":1961:2000  isWhitelisted[_marketingAccount] = true */\n  swap1\n  dup2\n  or\n  swap1\n  swap2\n  sstore\n    /* \"shoaib.sol\":2027:2046  _developmentAccount */\n  sload(0x14)\n  dup4\n  and\n    /* \"shoaib.sol\":2013:2047  isWhitelisted[_developmentAccount] */\n  dup3\n  mstore\n  dup4\n  dup3\n  keccak256\n    /* \"shoaib.sol\":2013:2054  isWhitelisted[_developmentAccount] = true */\n  dup1\n  sload\n  swap1\n  swap7\n  and\n  or\n  swap1\n  swap5\n  sstore\n    /* \"shoaib.sol\":2085:2092  _rTotal */\n  sload(0x0d)\n    /* \"shoaib.sol\":2075:2081  _owner */\n  sload(0x0b)\n    /* \"shoaib.sol\":1919:1948  isWhitelisted[owner()] = true */\n  0x0100\n    /* \"shoaib.sol\":2075:2081  _owner */\n  swap1\n  div\n  swap1\n  swap2\n  and\n    /* \"shoaib.sol\":2067:2082  _rOwned[_owner] */\n  dup5\n  mstore\n    /* \"shoaib.sol\":2067:2074  _rOwned */\n  0x05\n    /* \"shoaib.sol\":2067:2082  _rOwned[_owner] */\n  swap1\n  swap3\n  mstore\n  swap1\n  swap2\n  keccak256\n    /* \"shoaib.sol\":2067:2092  _rOwned[_owner] = _rTotal */\n  dup2\n  swap1\n  sstore\n    /* \"shoaib.sol\":2105:2131  _mint(msg.sender, _rTotal) */\n  tag_22\n  swap1\n    /* \"shoaib.sol\":2111:2121  msg.sender */\n  caller\n  swap1\n    /* \"shoaib.sol\":2105:2110  _mint */\n  tag_23\n    /* \"shoaib.sol\":2105:2131  _mint(msg.sender, _rTotal) */\n  jump\t// in\ntag_22:\n    /* \"shoaib.sol\":143:15583  contract CYBCC is ERC20 {... */\n  jump(tag_52)\n    /* \"@openzeppelin/contracts/token/ERC20/ERC20.sol\":7447:7655  function _mint(address account, uint256 value) internal {... */\ntag_23:\n  sub(shl(0xa0, 0x01), 0x01)\n    /* \"@openzeppelin/contracts/token/ERC20/ERC20.sol\":7517:7538  account == address(0) */\n  dup3\n  and\n    /* \"@openzeppelin/contracts/token/ERC20/ERC20.sol\":7513:7604  if (account == address(0)) {... */\n  tag_27\n  jumpi\n    /* \"@openzeppelin/contracts/token/ERC20/ERC20.sol\":7561:7593  ERC20InvalidReceiver(address(0)) */\n  mload(0x40)\n  shl(0xe0, 0xec442f05)\n  dup2\n  mstore\n    /* \"@openzeppelin/contracts/token/ERC20/ERC20.sol\":7590:7591  0 */\n  0x00\n    /* \"@openzeppelin/contracts/token/ERC20/ERC20.sol\":7561:7593  ERC20InvalidReceiver(address(0)) */\n  0x04\n  dup3\n  add\n    /* \"#utility.yul\":4876:4927   */\n  mstore\n    /* \"#utility.yul\":4849:4867   */\n  0x24\n  add\n    /* \"@openzeppelin/contracts/token/ERC20/ERC20.sol\":7561:7593  ERC20InvalidReceiver(address(0)) */\ntag_28:\n  mload(0x40)\n  dup1\n  swap2\n  sub\n  swap1\n  revert\n    /* \"@openzeppelin/contracts/token/ERC20/ERC20.sol\":7513:7604  if (account == address(0)) {... */\ntag_27:\n    /* \"@openzeppelin/contracts/token/ERC20/ERC20.sol\":7613:7648  _update(address(0), account, value) */\n  tag_30\n    /* \"@openzeppelin/contracts/token/ERC20/ERC20.sol\":7629:7630  0 */\n  0x00\n    /* \"@openzeppelin/contracts/token/ERC20/ERC20.sol\":7633:7640  account */\n  dup4\n    /* \"@openzeppelin/contracts/token/ERC20/ERC20.sol\":7642:7647  value */\n  dup4\n    /* \"@openzeppelin/contracts/token/ERC20/ERC20.sol\":7613:7620  _update */\n  tag_31\n    /* \"@openzeppelin/contracts/token/ERC20/ERC20.sol\":7613:7648  _update(address(0), account, value) */\n  jump\t// in\ntag_30:\n    /* \"@openzeppelin/contracts/token/ERC20/ERC20.sol\":7447:7655  function _mint(address account, uint256 value) internal {... */\n  pop\n  pop\n  jump\t// out\n    /* \"@openzeppelin/contracts/token/ERC20/ERC20.sol\":5997:7104  function _update(address from, address to, uint256 value) internal virtual {... */\ntag_31:\n  sub(shl(0xa0, 0x01), 0x01)\n    /* \"@openzeppelin/contracts/token/ERC20/ERC20.sol\":6086:6104  from == address(0) */\n  dup4\n  and\n    /* \"@openzeppelin/contracts/token/ERC20/ERC20.sol\":6082:6622  if (from == address(0)) {... */\n  tag_33\n  jumpi\n    /* \"@openzeppelin/contracts/token/ERC20/ERC20.sol\":6238:6243  value */\n  dup1\n    /* \"@openzeppelin/contracts/token/ERC20/ERC20.sol\":6222:6234  _totalSupply */\n  0x02\n  0x00\n    /* \"@openzeppelin/contracts/token/ERC20/ERC20.sol\":6222:6243  _totalSupply += value */\n  dup3\n  dup3\n  sload\n  tag_34\n  swap2\n  swap1\n  tag_35\n  jump\t// in\ntag_34:\n  swap1\n  swap2\n  sstore\n  pop\n    /* \"@openzeppelin/contracts/token/ERC20/ERC20.sol\":6082:6622  if (from == address(0)) {... */\n  tag_36\n  swap1\n  pop\n  jump\ntag_33:\n  sub(shl(0xa0, 0x01), 0x01)\n    /* \"@openzeppelin/contracts/token/ERC20/ERC20.sol\":6296:6311  _balances[from] */\n  dup4\n  and\n    /* \"@openzeppelin/contracts/token/ERC20/ERC20.sol\":6274:6293  uint256 fromBalance */\n  0x00\n    /* \"@openzeppelin/contracts/token/ERC20/ERC20.sol\":6296:6311  _balances[from] */\n  swap1\n  dup2\n  mstore\n  0x20\n  dup2\n  swap1\n  mstore\n  0x40\n  swap1\n  keccak256\n  sload\n    /* \"@openzeppelin/contracts/token/ERC20/ERC20.sol\":6329:6348  fromBalance < value */\n  dup2\n  dup2\n  lt\n    /* \"@openzeppelin/contracts/token/ERC20/ERC20.sol\":6325:6440  if (fromBalance < value) {... */\n  iszero\n  tag_37\n  jumpi\n    /* \"@openzeppelin/contracts/token/ERC20/ERC20.sol\":6375:6425  ERC20InsufficientBalance(from, fromBalance, value) */\n  mload(0x40)\n  shl(0xe2, 0x391434e3)\n  dup2\n  mstore\n  sub(shl(0xa0, 0x01), 0x01)\n    /* \"#utility.yul\":5288:5320   */\n  dup6\n  and\n    /* \"@openzeppelin/contracts/token/ERC20/ERC20.sol\":6375:6425  ERC20InsufficientBalance(from, fromBalance, value) */\n  0x04\n  dup3\n  add\n    /* \"#utility.yul\":5270:5321   */\n  mstore\n    /* \"#utility.yul\":5337:5355   */\n  0x24\n  dup2\n  add\n    /* \"#utility.yul\":5330:5364   */\n  dup3\n  swap1\n  mstore\n    /* \"#utility.yul\":5380:5398   */\n  0x44\n  dup2\n  add\n    /* \"#utility.yul\":5373:5407   */\n  dup4\n  swap1\n  mstore\n    /* \"#utility.yul\":5243:5261   */\n  0x64\n  add\n    /* \"@openzeppelin/contracts/token/ERC20/ERC20.sol\":6375:6425  ERC20InsufficientBalance(from, fromBalance, value) */\n  tag_28\n    /* \"#utility.yul\":5068:5413   */\n  jump\n    /* \"@openzeppelin/contracts/token/ERC20/ERC20.sol\":6325:6440  if (fromBalance < value) {... */\ntag_37:\n  sub(shl(0xa0, 0x01), 0x01)\n    /* \"@openzeppelin/contracts/token/ERC20/ERC20.sol\":6560:6575  _balances[from] */\n  dup5\n  and\n    /* \"@openzeppelin/contracts/token/ERC20/ERC20.sol\":6560:6569  _balances */\n  0x00\n    /* \"@openzeppelin/contracts/token/ERC20/ERC20.sol\":6560:6575  _balances[from] */\n  swap1\n  dup2\n  mstore\n  0x20\n  dup2\n  swap1\n  mstore\n  0x40\n  swap1\n  keccak256\n    /* \"@openzeppelin/contracts/token/ERC20/ERC20.sol\":6578:6597  fromBalance - value */\n  swap1\n  dup3\n  swap1\n  sub\n    /* \"@openzeppelin/contracts/token/ERC20/ERC20.sol\":6560:6597  _balances[from] = fromBalance - value */\n  swap1\n  sstore\n    /* \"@openzeppelin/contracts/token/ERC20/ERC20.sol\":6082:6622  if (from == address(0)) {... */\ntag_36:\n  sub(shl(0xa0, 0x01), 0x01)\n    /* \"@openzeppelin/contracts/token/ERC20/ERC20.sol\":6636:6652  to == address(0) */\n  dup3\n  and\n    /* \"@openzeppelin/contracts/token/ERC20/ERC20.sol\":6632:7057  if (to == address(0)) {... */\n  tag_40\n  jumpi\n    /* \"@openzeppelin/contracts/token/ERC20/ERC20.sol\":6799:6811  _totalSupply */\n  0x02\n    /* \"@openzeppelin/contracts/token/ERC20/ERC20.sol\":6799:6820  _totalSupply -= value */\n  dup1\n  sload\n  dup3\n  swap1\n  sub\n  swap1\n  sstore\n    /* \"@openzeppelin/contracts/token/ERC20/ERC20.sol\":6632:7057  if (to == address(0)) {... */\n  jump(tag_41)\ntag_40:\n  sub(shl(0xa0, 0x01), 0x01)\n    /* \"@openzeppelin/contracts/token/ERC20/ERC20.sol\":7010:7023  _balances[to] */\n  dup3\n  and\n    /* \"@openzeppelin/contracts/token/ERC20/ERC20.sol\":7010:7019  _balances */\n  0x00\n    /* \"@openzeppelin/contracts/token/ERC20/ERC20.sol\":7010:7023  _balances[to] */\n  swap1\n  dup2\n  mstore\n  0x20\n  dup2\n  swap1\n  mstore\n  0x40\n  swap1\n  keccak256\n    /* \"@openzeppelin/contracts/token/ERC20/ERC20.sol\":7010:7032  _balances[to] += value */\n  dup1\n  sload\n  dup3\n  add\n  swap1\n  sstore\n    /* \"@openzeppelin/contracts/token/ERC20/ERC20.sol\":6632:7057  if (to == address(0)) {... */\ntag_41:\n    /* \"@openzeppelin/contracts/token/ERC20/ERC20.sol\":7087:7089  to */\n  dup2\n  sub(shl(0xa0, 0x01), 0x01)\n    /* \"@openzeppelin/contracts/token/ERC20/ERC20.sol\":7072:7097  Transfer(from, to, value) */\n  and\n    /* \"@openzeppelin/contracts/token/ERC20/ERC20.sol\":7081:7085  from */\n  dup4\n  sub(shl(0xa0, 0x01), 0x01)\n    /* \"@openzeppelin/contracts/token/ERC20/ERC20.sol\":7072:7097  Transfer(from, to, value) */\n  and\n  0xddf252ad1be2c89b69c2b068fc378daa952ba7f163c4a11628f55a4df523b3ef\n    /* \"@openzeppelin/contracts/token/ERC20/ERC20.sol\":7091:7096  value */\n  dup4\n    /* \"@openzeppelin/contracts/token/ERC20/ERC20.sol\":7072:7097  Transfer(from, to, value) */\n  mload(0x40)\n  tag_42\n  swap2\n    /* \"#utility.yul\":5564:5589   */\n  dup2\n  mstore\n    /* \"#utility.yul\":5552:5554   */\n  0x20\n    /* \"#utility.yul\":5537:5555   */\n  add\n  swap1\n    /* \"#utility.yul\":5418:5595   */\n  jump\n    /* \"@openzeppelin/contracts/token/ERC20/ERC20.sol\":7072:7097  Transfer(from, to, value) */\ntag_42:\n  mload(0x40)\n  dup1\n  swap2\n  sub\n  swap1\n  log3\n    /* \"@openzeppelin/contracts/token/ERC20/ERC20.sol\":5997:7104  function _update(address from, address to, uint256 value) internal virtual {... */\n  pop\n  pop\n  pop\n  jump\t// out\n    /* \"#utility.yul\":14:141   */\ntag_44:\n    /* \"#utility.yul\":75:85   */\n  0x4e487b71\n    /* \"#utility.yul\":70:73   */\n  0xe0\n    /* \"#utility.yul\":66:86   */\n  shl\n    /* \"#utility.yul\":63:64   */\n  0x00\n    /* \"#utility.yul\":56:87   */\n  mstore\n    /* \"#utility.yul\":106:110   */\n  0x41\n    /* \"#utility.yul\":103:104   */\n  0x04\n    /* \"#utility.yul\":96:111   */\n  mstore\n    /* \"#utility.yul\":130:134   */\n  0x24\n    /* \"#utility.yul\":127:128   */\n  0x00\n    /* \"#utility.yul\":120:135   */\n  revert\n    /* \"#utility.yul\":146:526   */\ntag_45:\n    /* \"#utility.yul\":225:226   */\n  0x01\n    /* \"#utility.yul\":221:233   */\n  dup2\n  dup2\n  shr\n  swap1\n    /* \"#utility.yul\":268:280   */\n  dup3\n  and\n  dup1\n    /* \"#utility.yul\":289:350   */\n  tag_55\n  jumpi\n    /* \"#utility.yul\":343:347   */\n  0x7f\n    /* \"#utility.yul\":335:341   */\n  dup3\n    /* \"#utility.yul\":331:348   */\n  and\n    /* \"#utility.yul\":321:348   */\n  swap2\n  pop\n    /* \"#utility.yul\":289:350   */\ntag_55:\n    /* \"#utility.yul\":396:398   */\n  0x20\n    /* \"#utility.yul\":388:394   */\n  dup3\n    /* \"#utility.yul\":385:399   */\n  lt\n    /* \"#utility.yul\":365:383   */\n  dup2\n    /* \"#utility.yul\":362:400   */\n  sub\n    /* \"#utility.yul\":359:520   */\n  tag_56\n  jumpi\n    /* \"#utility.yul\":442:452   */\n  0x4e487b71\n    /* \"#utility.yul\":437:440   */\n  0xe0\n    /* \"#utility.yul\":433:453   */\n  shl\n    /* \"#utility.yul\":430:431   */\n  0x00\n    /* \"#utility.yul\":423:454   */\n  mstore\n    /* \"#utility.yul\":477:481   */\n  0x22\n    /* \"#utility.yul\":474:475   */\n  0x04\n    /* \"#utility.yul\":467:482   */\n  mstore\n    /* \"#utility.yul\":505:509   */\n  0x24\n    /* \"#utility.yul\":502:503   */\n  0x00\n    /* \"#utility.yul\":495:510   */\n  revert\n    /* \"#utility.yul\":359:520   */\ntag_56:\n  pop\n    /* \"#utility.yul\":146:526   */\n  swap2\n  swap1\n  pop\n  jump\t// out\n    /* \"#utility.yul\":657:1175   */\ntag_47:\n    /* \"#utility.yul\":759:761   */\n  0x1f\n    /* \"#utility.yul\":754:757   */\n  dup3\n    /* \"#utility.yul\":751:762   */\n  gt\n    /* \"#utility.yul\":748:1169   */\n  iszero\n  tag_59\n  jumpi\n    /* \"#utility.yul\":795:800   */\n  dup1\n    /* \"#utility.yul\":792:793   */\n  0x00\n    /* \"#utility.yul\":785:801   */\n  mstore\n    /* \"#utility.yul\":839:843   */\n  0x20\n    /* \"#utility.yul\":836:837   */\n  0x00\n    /* \"#utility.yul\":826:844   */\n  keccak256\n    /* \"#utility.yul\":909:911   */\n  0x1f\n    /* \"#utility.yul\":897:907   */\n  dup5\n    /* \"#utility.yul\":893:912   */\n  add\n    /* \"#utility.yul\":890:891   */\n  0x05\n    /* \"#utility.yul\":886:913   */\n  shr\n    /* \"#utility.yul\":880:884   */\n  dup2\n    /* \"#utility.yul\":876:914   */\n  add\n    /* \"#utility.yul\":945:949   */\n  0x20\n    /* \"#utility.yul\":933:943   */\n  dup6\n    /* \"#utility.yul\":930:950   */\n  lt\n    /* \"#utility.yul\":927:974   */\n  iszero\n  tag_60\n  jumpi\n  pop\n    /* \"#utility.yul\":968:972   */\n  dup1\n    /* \"#utility.yul\":927:974   */\ntag_60:\n    /* \"#utility.yul\":1023:1025   */\n  0x1f\n    /* \"#utility.yul\":1018:1021   */\n  dup5\n    /* \"#utility.yul\":1014:1026   */\n  add\n    /* \"#utility.yul\":1011:1012   */\n  0x05\n    /* \"#utility.yul\":1007:1027   */\n  shr\n    /* \"#utility.yul\":1001:1005   */\n  dup3\n    /* \"#utility.yul\":997:1028   */\n  add\n    /* \"#utility.yul\":987:1028   */\n  swap2\n  pop\n    /* \"#utility.yul\":1078:1159   */\ntag_61:\n    /* \"#utility.yul\":1096:1098   */\n  dup2\n    /* \"#utility.yul\":1089:1094   */\n  dup2\n    /* \"#utility.yul\":1086:1099   */\n  lt\n    /* \"#utility.yul\":1078:1159   */\n  iszero\n  tag_63\n  jumpi\n    /* \"#utility.yul\":1155:1156   */\n  0x00\n    /* \"#utility.yul\":1141:1157   */\n  dup2\n  sstore\n    /* \"#utility.yul\":1122:1123   */\n  0x01\n    /* \"#utility.yul\":1111:1124   */\n  add\n    /* \"#utility.yul\":1078:1159   */\n  jump(tag_61)\ntag_63:\n    /* \"#utility.yul\":1082:1085   */\n  pop\n  pop\n    /* \"#utility.yul\":748:1169   */\ntag_59:\n    /* \"#utility.yul\":657:1175   */\n  pop\n  pop\n  pop\n  jump\t// out\n    /* \"#utility.yul\":1351:2650   */\ntag_6:\n    /* \"#utility.yul\":1471:1481   */\n  dup2\n  mload\n  sub(shl(0x40, 0x01), 0x01)\n    /* \"#utility.yul\":1493:1523   */\n  dup2\n  gt\n    /* \"#utility.yul\":1490:1546   */\n  iszero\n  tag_67\n  jumpi\n    /* \"#utility.yul\":1526:1544   */\n  tag_67\n  tag_44\n  jump\t// in\ntag_67:\n    /* \"#utility.yul\":1555:1652   */\n  tag_68\n    /* \"#utility.yul\":1645:1651   */\n  dup2\n    /* \"#utility.yul\":1605:1643   */\n  tag_69\n    /* \"#utility.yul\":1637:1641   */\n  dup5\n    /* \"#utility.yul\":1631:1642   */\n  sload\n    /* \"#utility.yul\":1605:1643   */\n  tag_45\n  jump\t// in\ntag_69:\n    /* \"#utility.yul\":1599:1603   */\n  dup5\n    /* \"#utility.yul\":1555:1652   */\n  tag_47\n  jump\t// in\ntag_68:\n    /* \"#utility.yul\":1701:1705   */\n  0x20\n    /* \"#utility.yul\":1732:1734   */\n  0x1f\n    /* \"#utility.yul\":1721:1735   */\n  dup3\n  gt\n    /* \"#utility.yul\":1749:1750   */\n  0x01\n    /* \"#utility.yul\":1744:2393   */\n  dup2\n  eq\n  tag_71\n  jumpi\n    /* \"#utility.yul\":2437:2438   */\n  0x00\n    /* \"#utility.yul\":2454:2460   */\n  dup4\n    /* \"#utility.yul\":2451:2540   */\n  iszero\n  tag_72\n  jumpi\n  pop\n    /* \"#utility.yul\":2506:2525   */\n  dup5\n  dup3\n  add\n    /* \"#utility.yul\":2500:2526   */\n  mload\n    /* \"#utility.yul\":2451:2540   */\ntag_72:\n  not(0x00)\n    /* \"#utility.yul\":1308:1309   */\n  0x03\n    /* \"#utility.yul\":1304:1315   */\n  dup6\n  swap1\n  shl\n    /* \"#utility.yul\":1300:1324   */\n  shr\n    /* \"#utility.yul\":1296:1325   */\n  not\n    /* \"#utility.yul\":1286:1326   */\n  and\n    /* \"#utility.yul\":1332:1333   */\n  0x01\n    /* \"#utility.yul\":1328:1339   */\n  dup5\n  swap1\n  shl\n    /* \"#utility.yul\":1283:1340   */\n  or\n    /* \"#utility.yul\":2553:2634   */\n  dup5\n  sstore\n    /* \"#utility.yul\":1714:2644   */\n  jump(tag_63)\n    /* \"#utility.yul\":1744:2393   */\ntag_71:\n    /* \"#utility.yul\":604:605   */\n  0x00\n    /* \"#utility.yul\":597:611   */\n  dup5\n  dup2\n  mstore\n    /* \"#utility.yul\":641:645   */\n  0x20\n    /* \"#utility.yul\":628:646   */\n  dup2\n  keccak256\n  not(0x1f)\n    /* \"#utility.yul\":1780:1800   */\n  dup6\n  and\n  swap2\n    /* \"#utility.yul\":1898:2120   */\ntag_75:\n    /* \"#utility.yul\":1912:1919   */\n  dup3\n    /* \"#utility.yul\":1909:1910   */\n  dup2\n    /* \"#utility.yul\":1906:1920   */\n  lt\n    /* \"#utility.yul\":1898:2120   */\n  iszero\n  tag_77\n  jumpi\n    /* \"#utility.yul\":1994:2013   */\n  dup8\n  dup6\n  add\n    /* \"#utility.yul\":1988:2014   */\n  mload\n    /* \"#utility.yul\":1973:2015   */\n  dup3\n  sstore\n    /* \"#utility.yul\":2101:2105   */\n  0x20\n    /* \"#utility.yul\":2086:2106   */\n  swap5\n  dup6\n  add\n  swap5\n    /* \"#utility.yul\":2054:2055   */\n  0x01\n    /* \"#utility.yul\":2042:2056   */\n  swap1\n  swap3\n  add\n  swap2\n    /* \"#utility.yul\":1928:1940   */\n  add\n    /* \"#utility.yul\":1898:2120   */\n  jump(tag_75)\ntag_77:\n    /* \"#utility.yul\":1902:1905   */\n  pop\n    /* \"#utility.yul\":2148:2154   */\n  dup5\n    /* \"#utility.yul\":2139:2146   */\n  dup3\n    /* \"#utility.yul\":2136:2155   */\n  lt\n    /* \"#utility.yul\":2133:2334   */\n  iszero\n  tag_78\n  jumpi\n    /* \"#utility.yul\":2209:2228   */\n  dup7\n  dup5\n  add\n    /* \"#utility.yul\":2203:2229   */\n  mload\n  not(0x00)\n    /* \"#utility.yul\":2292:2293   */\n  0x03\n    /* \"#utility.yul\":2288:2302   */\n  dup8\n  swap1\n  shl\n    /* \"#utility.yul\":2304:2307   */\n  0xf8\n    /* \"#utility.yul\":2284:2308   */\n  and\n    /* \"#utility.yul\":2280:2317   */\n  shr\n    /* \"#utility.yul\":2276:2318   */\n  not\n    /* \"#utility.yul\":2261:2319   */\n  and\n    /* \"#utility.yul\":2246:2320   */\n  dup2\n  sstore\n    /* \"#utility.yul\":2133:2334   */\ntag_78:\n  pop\n  pop\n  pop\n  pop\n    /* \"#utility.yul\":2380:2381   */\n  0x01\n    /* \"#utility.yul\":2364:2378   */\n  swap1\n  dup2\n  shl\n    /* \"#utility.yul\":2360:2382   */\n  add\n    /* \"#utility.yul\":2347:2383   */\n  swap1\n  sstore\n  pop\n    /* \"#utility.yul\":1351:2650   */\n  jump\t// out\n    /* \"#utility.yul\":2655:2782   */\ntag_49:\n    /* \"#utility.yul\":2716:2726   */\n  0x4e487b71\n    /* \"#utility.yul\":2711:2714   */\n  0xe0\n    /* \"#utility.yul\":2707:2727   */\n  shl\n    /* \"#utility.yul\":2704:2705   */\n  0x00\n    /* \"#utility.yul\":2697:2728   */\n  mstore\n    /* \"#utility.yul\":2747:2751   */\n  0x11\n    /* \"#utility.yul\":2744:2745   */\n  0x04\n    /* \"#utility.yul\":2737:2752   */\n  mstore\n    /* \"#utility.yul\":2771:2775   */\n  0x24\n    /* \"#utility.yul\":2768:2769   */\n  0x00\n    /* \"#utility.yul\":2761:2776   */\n  revert\n    /* \"#utility.yul\":2787:3162   */\ntag_50:\n    /* \"#utility.yul\":2875:2876   */\n  0x01\n    /* \"#utility.yul\":2893:2898   */\n  dup2\n    /* \"#utility.yul\":2907:3156   */\ntag_81:\n    /* \"#utility.yul\":2928:2929   */\n  0x01\n    /* \"#utility.yul\":2918:2926   */\n  dup5\n    /* \"#utility.yul\":2915:2930   */\n  gt\n    /* \"#utility.yul\":2907:3156   */\n  iszero\n  tag_83\n  jumpi\n    /* \"#utility.yul\":2978:2982   */\n  dup1\n    /* \"#utility.yul\":2973:2976   */\n  dup6\n    /* \"#utility.yul\":2969:2983   */\n  div\n    /* \"#utility.yul\":2963:2967   */\n  dup2\n    /* \"#utility.yul\":2960:2984   */\n  gt\n    /* \"#utility.yul\":2957:3007   */\n  iszero\n  tag_85\n  jumpi\n    /* \"#utility.yul\":2987:3005   */\n  tag_85\n  tag_49\n  jump\t// in\ntag_85:\n    /* \"#utility.yul\":3037:3038   */\n  0x01\n    /* \"#utility.yul\":3027:3035   */\n  dup5\n    /* \"#utility.yul\":3023:3039   */\n  and\n    /* \"#utility.yul\":3020:3069   */\n  iszero\n  tag_86\n  jumpi\n    /* \"#utility.yul\":3051:3067   */\n  swap1\n  dup2\n  mul\n  swap1\n    /* \"#utility.yul\":3020:3069   */\ntag_86:\n    /* \"#utility.yul\":3134:3135   */\n  0x01\n    /* \"#utility.yul\":3130:3146   */\n  swap4\n  swap1\n  swap4\n  shr\n  swap3\n    /* \"#utility.yul\":3090:3105   */\n  dup1\n  mul\n    /* \"#utility.yul\":2907:3156   */\n  jump(tag_81)\ntag_83:\n    /* \"#utility.yul\":2787:3162   */\n  swap4\n  pop\n  swap4\n  swap2\n  pop\n  pop\n  jump\t// out\n    /* \"#utility.yul\":3167:4069   */\ntag_51:\n    /* \"#utility.yul\":3216:3221   */\n  0x00\n    /* \"#utility.yul\":3246:3254   */\n  dup3\n    /* \"#utility.yul\":3236:3316   */\n  tag_88\n  jumpi\n  pop\n    /* \"#utility.yul\":3287:3288   */\n  0x01\n    /* \"#utility.yul\":3301:3306   */\n  jump(tag_87)\n    /* \"#utility.yul\":3236:3316   */\ntag_88:\n    /* \"#utility.yul\":3335:3339   */\n  dup2\n    /* \"#utility.yul\":3325:3401   */\n  tag_89\n  jumpi\n  pop\n    /* \"#utility.yul\":3372:3373   */\n  0x00\n    /* \"#utility.yul\":3386:3391   */\n  jump(tag_87)\n    /* \"#utility.yul\":3325:3401   */\ntag_89:\n    /* \"#utility.yul\":3417:3421   */\n  dup2\n    /* \"#utility.yul\":3435:3436   */\n  0x01\n    /* \"#utility.yul\":3430:3489   */\n  dup2\n  eq\n  tag_91\n  jumpi\n    /* \"#utility.yul\":3503:3504   */\n  0x02\n    /* \"#utility.yul\":3498:3672   */\n  dup2\n  eq\n  tag_92\n  jumpi\n    /* \"#utility.yul\":3410:3672   */\n  jump(tag_90)\n    /* \"#utility.yul\":3430:3489   */\ntag_91:\n    /* \"#utility.yul\":3460:3461   */\n  0x01\n    /* \"#utility.yul\":3451:3461   */\n  swap2\n  pop\n    /* \"#utility.yul\":3474:3479   */\n  pop\n  jump(tag_87)\n    /* \"#utility.yul\":3498:3672   */\ntag_92:\n    /* \"#utility.yul\":3535:3538   */\n  0xff\n    /* \"#utility.yul\":3525:3533   */\n  dup5\n    /* \"#utility.yul\":3522:3539   */\n  gt\n    /* \"#utility.yul\":3519:3562   */\n  iszero\n  tag_94\n  jumpi\n    /* \"#utility.yul\":3542:3560   */\n  tag_94\n  tag_49\n  jump\t// in\ntag_94:\n  pop\n  pop\n    /* \"#utility.yul\":3598:3599   */\n  0x01\n    /* \"#utility.yul\":3584:3600   */\n  dup3\n  shl\n    /* \"#utility.yul\":3657:3662   */\n  jump(tag_87)\n    /* \"#utility.yul\":3410:3672   */\ntag_90:\n  pop\n    /* \"#utility.yul\":3756:3758   */\n  0x20\n    /* \"#utility.yul\":3746:3754   */\n  dup4\n    /* \"#utility.yul\":3743:3759   */\n  lt\n    /* \"#utility.yul\":3737:3740   */\n  0x0133\n    /* \"#utility.yul\":3731:3735   */\n  dup4\n    /* \"#utility.yul\":3728:3741   */\n  lt\n    /* \"#utility.yul\":3724:3760   */\n  and\n    /* \"#utility.yul\":3718:3720   */\n  0x4e\n    /* \"#utility.yul\":3708:3716   */\n  dup5\n    /* \"#utility.yul\":3705:3721   */\n  lt\n    /* \"#utility.yul\":3700:3702   */\n  0x0b\n    /* \"#utility.yul\":3694:3698   */\n  dup5\n    /* \"#utility.yul\":3691:3703   */\n  lt\n    /* \"#utility.yul\":3687:3722   */\n  and\n    /* \"#utility.yul\":3684:3761   */\n  or\n    /* \"#utility.yul\":3681:3884   */\n  iszero\n  tag_95\n  jumpi\n  pop\n    /* \"#utility.yul\":3793:3812   */\n  dup2\n  dup2\n  exp\n    /* \"#utility.yul\":3869:3874   */\n  jump(tag_87)\n    /* \"#utility.yul\":3681:3884   */\ntag_95:\n    /* \"#utility.yul\":3916:3958   */\n  tag_96\n  not(0x00)\n    /* \"#utility.yul\":3941:3949   */\n  dup5\n    /* \"#utility.yul\":3935:3939   */\n  dup5\n    /* \"#utility.yul\":3916:3958   */\n  tag_50\n  jump\t// in\ntag_96:\n    /* \"#utility.yul\":3994:4000   */\n  dup1\n    /* \"#utility.yul\":3990:3991   */\n  0x00\n    /* \"#utility.yul\":3986:3992   */\n  not\n    /* \"#utility.yul\":3982:4001   */\n  div\n    /* \"#utility.yul\":3973:3980   */\n  dup3\n    /* \"#utility.yul\":3970:4002   */\n  gt\n    /* \"#utility.yul\":3967:4025   */\n  iszero\n  tag_98\n  jumpi\n    /* \"#utility.yul\":4005:4023   */\n  tag_98\n  tag_49\n  jump\t// in\ntag_98:\n    /* \"#utility.yul\":4043:4063   */\n  mul\n  swap1\n  pop\n    /* \"#utility.yul\":3167:4069   */\ntag_87:\n  swap3\n  swap2\n  pop\n  pop\n  jump\t// out\n    /* \"#utility.yul\":4074:4205   */\ntag_10:\n    /* \"#utility.yul\":4134:4139   */\n  0x00\n    /* \"#utility.yul\":4163:4199   */\n  tag_100\n    /* \"#utility.yul\":4190:4198   */\n  dup4\n    /* \"#utility.yul\":4184:4188   */\n  dup4\n    /* \"#utility.yul\":4163:4199   */\n  tag_51\n  jump\t// in\ntag_100:\n    /* \"#utility.yul\":4154:4199   */\n  swap4\n    /* \"#utility.yul\":4074:4205   */\n  swap3\n  pop\n  pop\n  pop\n  jump\t// out\n    /* \"#utility.yul\":4210:4378   */\ntag_12:\n    /* \"#utility.yul\":4283:4292   */\n  dup1\n  dup3\n  mul\n    /* \"#utility.yul\":4314:4323   */\n  dup2\n  iszero\n    /* \"#utility.yul\":4331:4346   */\n  dup3\n  dup3\n  div\n    /* \"#utility.yul\":4325:4347   */\n  dup5\n  eq\n    /* \"#utility.yul\":4311:4348   */\n  or\n    /* \"#utility.yul\":4301:4372   */\n  tag_87\n  jumpi\n    /* \"#utility.yul\":4352:4370   */\n  tag_87\n  tag_49\n  jump\t// in\n    /* \"#utility.yul\":4383:4592   */\ntag_14:\n    /* \"#utility.yul\":4415:4416   */\n  0x00\n    /* \"#utility.yul\":4441:4442   */\n  dup3\n    /* \"#utility.yul\":4431:4563   */\n  tag_105\n  jumpi\n    /* \"#utility.yul\":4485:4495   */\n  0x4e487b71\n    /* \"#utility.yul\":4480:4483   */\n  0xe0\n    /* \"#utility.yul\":4476:4496   */\n  shl\n    /* \"#utility.yul\":4473:4474   */\n  0x00\n    /* \"#utility.yul\":4466:4497   */\n  mstore\n    /* \"#utility.yul\":4520:4524   */\n  0x12\n    /* \"#utility.yul\":4517:4518   */\n  0x04\n    /* \"#utility.yul\":4510:4525   */\n  mstore\n    /* \"#utility.yul\":4548:4552   */\n  0x24\n    /* \"#utility.yul\":4545:4546   */\n  0x00\n    /* \"#utility.yul\":4538:4553   */\n  revert\n    /* \"#utility.yul\":4431:4563   */\ntag_105:\n  pop\n    /* \"#utility.yul\":4577:4586   */\n  mod\n  swap1\n    /* \"#utility.yul\":4383:4592   */\n  jump\t// out\n    /* \"#utility.yul\":4597:4725   */\ntag_16:\n    /* \"#utility.yul\":4664:4673   */\n  dup2\n  dup2\n  sub\n    /* \"#utility.yul\":4685:4696   */\n  dup2\n  dup2\n  gt\n    /* \"#utility.yul\":4682:4719   */\n  iszero\n  tag_87\n  jumpi\n    /* \"#utility.yul\":4699:4717   */\n  tag_87\n  tag_49\n  jump\t// in\n    /* \"#utility.yul\":4938:5063   */\ntag_35:\n    /* \"#utility.yul\":5003:5012   */\n  dup1\n  dup3\n  add\n    /* \"#utility.yul\":5024:5034   */\n  dup1\n  dup3\n  gt\n    /* \"#utility.yul\":5021:5057   */\n  iszero\n  tag_87\n  jumpi\n    /* \"#utility.yul\":5037:5055   */\n  tag_87\n  tag_49\n  jump\t// in\n    /* \"#utility.yul\":5418:5595   */\ntag_52:\n    /* \"shoaib.sol\":143:15583  contract CYBCC is ERC20 {... */\n  dataSize(sub_0)\n  dup1\n  dataOffset(sub_0)\n  0x00\n  codecopy\n  0x00\n  return\nstop\n\nsub_0: assembly {\n        /* \"shoaib.sol\":143:15583  contract CYBCC is ERC20 {... */\n      mstore(0x40, 0x80)\n      jumpi(tag_1, lt(calldatasize, 0x04))\n      shr(0xe0, calldataload(0x00))\n      dup1\n      0x838fcc90\n      gt\n      tag_35\n      jumpi\n      dup1\n      0xc4863770\n      gt\n      tag_36\n      jumpi\n      dup1\n      0xdd62ed3e\n      gt\n      tag_37\n      jumpi\n      dup1\n      0xdd62ed3e\n      eq\n      tag_31\n      jumpi\n      dup1\n      0xf66608fe\n      eq\n      tag_32\n      jumpi\n      dup1\n      0xfdeb889f\n      eq\n      tag_33\n      jumpi\n      dup1\n      0xffb54a99\n      eq\n      tag_34\n      jumpi\n      revert(0x00, 0x00)\n    tag_37:\n      dup1\n      0xc4863770\n      eq\n      tag_27\n      jumpi\n      dup1\n      0xc9567bf9\n      eq\n      tag_28\n      jumpi\n      dup1\n      0xcba0e996\n      eq\n      tag_29\n      jumpi\n      dup1\n      0xd00efb2f\n      eq\n      tag_30\n      jumpi\n      revert(0x00, 0x00)\n    tag_36:\n      dup1\n      0x95d89b41\n      gt\n      tag_38\n      jumpi\n      dup1\n      0x95d89b41\n      eq\n      tag_23\n      jumpi\n      dup1\n      0xa8b08982\n      eq\n      tag_24\n      jumpi\n      dup1\n      0xa9059cbb\n      eq\n      tag_25\n      jumpi\n      dup1\n      0xc30796ab\n      eq\n      tag_26\n      jumpi\n      revert(0x00, 0x00)\n    tag_38:\n      dup1\n      0x838fcc90\n      eq\n      tag_19\n      jumpi\n      dup1\n      0x83ad7994\n      eq\n      tag_20\n      jumpi\n      dup1\n      0x8873b15f\n      eq\n      tag_21\n      jumpi\n      dup1\n      0x8da5cb5b\n      eq\n      tag_22\n      jumpi\n      revert(0x00, 0x00)\n    tag_35:\n      dup1\n      0x3af32abf\n      gt\n      tag_39\n      jumpi\n      dup1\n      0x5fae0576\n      gt\n      tag_40\n      jumpi\n      dup1\n      0x5fae0576\n      eq\n      tag_15\n      jumpi\n      dup1\n      0x6049876e\n      eq\n      tag_16\n      jumpi\n      dup1\n      0x706407fd\n      eq\n      tag_17\n      jumpi\n      dup1\n      0x70a08231\n      eq\n      tag_18\n      jumpi\n      revert(0x00, 0x00)\n    tag_40:\n      dup1\n      0x3af32abf\n      eq\n      tag_11\n      jumpi\n      dup1\n      0x437823ec\n      eq\n      tag_12\n      jumpi\n      dup1\n      0x4549b039\n      eq\n      tag_13\n      jumpi\n      dup1\n      0x5342acb4\n      eq\n      tag_14\n      jumpi\n      revert(0x00, 0x00)\n    tag_39:\n      dup1\n      0x1cf8fef5\n      gt\n      tag_41\n      jumpi\n      dup1\n      0x1cf8fef5\n      eq\n      tag_7\n      jumpi\n      dup1\n      0x23b872dd\n      eq\n      tag_8\n      jumpi\n      dup1\n      0x313ce567\n      eq\n      tag_9\n      jumpi\n      dup1\n      0x32035504\n      eq\n      tag_10\n      jumpi\n      revert(0x00, 0x00)\n    tag_41:\n      dup1\n      0x053ab182\n      eq\n      tag_3\n      jumpi\n      dup1\n      0x06fdde03\n      eq\n      tag_4\n      jumpi\n      dup1\n      0x095ea7b3\n      eq\n      tag_5\n      jumpi\n      dup1\n      0x18160ddd\n      eq\n      tag_6\n      jumpi\n      revert(0x00, 0x00)\n    tag_1:\n      jumpi(tag_2, calldatasize)\n      stop\n    tag_2:\n      revert(0x00, 0x00)\n        /* \"shoaib.sol\":4617:5051  function reflect(uint256 tAmount) public {... */\n    tag_3:\n      callvalue\n      dup1\n      iszero\n      tag_44\n      jumpi\n      revert(0x00, 0x00)\n    tag_44:\n      pop\n      tag_45\n      tag_46\n      calldatasize\n      0x04\n      tag_47\n      jump\t// in\n    tag_46:\n      tag_48\n      jump\t// in\n    tag_45:\n      stop\n        /* \"@openzeppelin/contracts/token/ERC20/ERC20.sol\":1760:1849  function name() public view virtual returns (string memory) {... */\n    tag_4:\n      callvalue\n      dup1\n      iszero\n      tag_49\n      jumpi\n      revert(0x00, 0x00)\n    tag_49:\n      pop\n      tag_50\n      tag_51\n      jump\t// in\n    tag_50:\n      mload(0x40)\n      tag_52\n      swap2\n      swap1\n      tag_53\n      jump\t// in\n    tag_52:\n      mload(0x40)\n      dup1\n      swap2\n      sub\n      swap1\n      return\n        /* \"@openzeppelin/contracts/token/ERC20/ERC20.sol\":3979:4165  function approve(address spender, uint256 value) public virtual returns (bool) {... */\n    tag_5:\n      callvalue\n      dup1\n      iszero\n      tag_54\n      jumpi\n      revert(0x00, 0x00)\n    tag_54:\n      pop\n      tag_55\n      tag_56\n      calldatasize\n      0x04\n      tag_57\n      jump\t// in\n    tag_56:\n      tag_58\n      jump\t// in\n    tag_55:\n      mload(0x40)\n        /* \"#utility.yul\":1316:1330   */\n      swap1\n      iszero\n        /* \"#utility.yul\":1309:1331   */\n      iszero\n        /* \"#utility.yul\":1291:1332   */\n      dup2\n      mstore\n        /* \"#utility.yul\":1279:1281   */\n      0x20\n        /* \"#utility.yul\":1264:1282   */\n      add\n        /* \"@openzeppelin/contracts/token/ERC20/ERC20.sol\":3979:4165  function approve(address spender, uint256 value) public virtual returns (bool) {... */\n      tag_52\n        /* \"#utility.yul\":1151:1338   */\n      jump\n        /* \"shoaib.sol\":2497:2604  function totalSupply() public view virtual override returns (uint256) {... */\n    tag_6:\n      callvalue\n      dup1\n      iszero\n      tag_61\n      jumpi\n      revert(0x00, 0x00)\n    tag_61:\n      pop\n        /* \"shoaib.sol\":2587:2594  _tTotal */\n      sload(0x0c)\n        /* \"shoaib.sol\":2497:2604  function totalSupply() public view virtual override returns (uint256) {... */\n    tag_62:\n      mload(0x40)\n        /* \"#utility.yul\":1489:1514   */\n      swap1\n      dup2\n      mstore\n        /* \"#utility.yul\":1477:1479   */\n      0x20\n        /* \"#utility.yul\":1462:1480   */\n      add\n        /* \"shoaib.sol\":2497:2604  function totalSupply() public view virtual override returns (uint256) {... */\n      tag_52\n        /* \"#utility.yul\":1343:1520   */\n      jump\n        /* \"shoaib.sol\":2947:3059  function getDevelopmentAccount() public view returns (address) {... */\n    tag_7:\n      callvalue\n      dup1\n      iszero\n      tag_66\n      jumpi\n      revert(0x00, 0x00)\n    tag_66:\n      pop\n        /* \"shoaib.sol\":3030:3049  _developmentAccount */\n      and(sub(shl(0xa0, 0x01), 0x01), sload(0x14))\n        /* \"shoaib.sol\":2947:3059  function getDevelopmentAccount() public view returns (address) {... */\n    tag_67:\n      mload(0x40)\n      sub(shl(0xa0, 0x01), 0x01)\n        /* \"#utility.yul\":1689:1721   */\n      swap1\n      swap2\n      and\n        /* \"#utility.yul\":1671:1722   */\n      dup2\n      mstore\n        /* \"#utility.yul\":1659:1661   */\n      0x20\n        /* \"#utility.yul\":1644:1662   */\n      add\n        /* \"shoaib.sol\":2947:3059  function getDevelopmentAccount() public view returns (address) {... */\n      tag_52\n        /* \"#utility.yul\":1525:1728   */\n      jump\n        /* \"@openzeppelin/contracts/token/ERC20/ERC20.sol\":4757:5001  function transferFrom(address from, address to, uint256 value) public virtual returns (bool) {... */\n    tag_8:\n      callvalue\n      dup1\n      iszero\n      tag_71\n      jumpi\n      revert(0x00, 0x00)\n    tag_71:\n      pop\n      tag_55\n      tag_73\n      calldatasize\n      0x04\n      tag_74\n      jump\t// in\n    tag_73:\n      tag_75\n      jump\t// in\n        /* \"shoaib.sol\":2381:2485  function decimals() public view virtual override returns (uint8) {... */\n    tag_9:\n      callvalue\n      dup1\n      iszero\n      tag_77\n      jumpi\n      revert(0x00, 0x00)\n    tag_77:\n      pop\n        /* \"shoaib.sol\":2466:2475  _decimals */\n      sload(0x0b)\n        /* \"shoaib.sol\":2381:2485  function decimals() public view virtual override returns (uint8) {... */\n      mload(0x40)\n        /* \"shoaib.sol\":2466:2475  _decimals */\n      0xff\n      swap1\n      swap2\n      and\n        /* \"#utility.yul\":2254:2290   */\n      dup2\n      mstore\n        /* \"#utility.yul\":2242:2244   */\n      0x20\n        /* \"#utility.yul\":2227:2245   */\n      add\n        /* \"shoaib.sol\":2381:2485  function decimals() public view virtual override returns (uint8) {... */\n      tag_52\n        /* \"#utility.yul\":2112:2296   */\n      jump\n        /* \"shoaib.sol\":3649:3753  function totalFeesRedistributed() public view returns (uint256) {... */\n    tag_10:\n      callvalue\n      dup1\n      iszero\n      tag_82\n      jumpi\n      revert(0x00, 0x00)\n    tag_82:\n      pop\n        /* \"shoaib.sol\":3733:3743  _tFeeTotal */\n      sload(0x0e)\n        /* \"shoaib.sol\":3649:3753  function totalFeesRedistributed() public view returns (uint256) {... */\n      jump(tag_62)\n        /* \"shoaib.sol\":340:385  mapping(address => bool) public isWhitelisted */\n    tag_11:\n      callvalue\n      dup1\n      iszero\n      tag_86\n      jumpi\n      revert(0x00, 0x00)\n    tag_86:\n      pop\n      tag_55\n      tag_88\n      calldatasize\n      0x04\n      tag_89\n      jump\t// in\n    tag_88:\n      mstore(0x20, 0x08)\n      0x00\n      swap1\n      dup2\n      mstore\n      0x40\n      swap1\n      keccak256\n      sload\n      0xff\n      and\n      dup2\n      jump\n        /* \"shoaib.sol\":3765:3880  function excludeFromFee(address account) public onlyOwner {... */\n    tag_12:\n      callvalue\n      dup1\n      iszero\n      tag_92\n      jumpi\n      revert(0x00, 0x00)\n    tag_92:\n      pop\n      tag_45\n      tag_94\n      calldatasize\n      0x04\n      tag_89\n      jump\t// in\n    tag_94:\n      tag_95\n      jump\t// in\n        /* \"shoaib.sol\":5063:5576  function reflectionFromToken(uint256 tAmount, bool deductTransferFee)... */\n    tag_13:\n      callvalue\n      dup1\n      iszero\n      tag_96\n      jumpi\n      revert(0x00, 0x00)\n    tag_96:\n      pop\n      tag_62\n      tag_98\n      calldatasize\n      0x04\n      tag_99\n      jump\t// in\n    tag_98:\n      tag_100\n      jump\t// in\n        /* \"shoaib.sol\":3071:3199  function isExcludedFromFee(address account) public view returns (bool) {... */\n    tag_14:\n      callvalue\n      dup1\n      iszero\n      tag_102\n      jumpi\n      revert(0x00, 0x00)\n    tag_102:\n      pop\n      tag_55\n      tag_104\n      calldatasize\n      0x04\n      tag_89\n      jump\t// in\n    tag_104:\n      sub(shl(0xa0, 0x01), 0x01)\n        /* \"shoaib.sol\":3162:3189  _isExcludedFromFee[account] */\n      and\n        /* \"shoaib.sol\":3136:3140  bool */\n      0x00\n        /* \"shoaib.sol\":3162:3189  _isExcludedFromFee[account] */\n      swap1\n      dup2\n      mstore\n        /* \"shoaib.sol\":3162:3180  _isExcludedFromFee */\n      0x07\n        /* \"shoaib.sol\":3162:3189  _isExcludedFromFee[account] */\n      0x20\n      mstore\n      0x40\n      swap1\n      keccak256\n      sload\n      0xff\n      and\n      swap1\n        /* \"shoaib.sol\":3071:3199  function isExcludedFromFee(address account) public view returns (bool) {... */\n      jump\n        /* \"shoaib.sol\":6823:6949  function isWhitelistedAddress(address account) public view returns (bool) {... */\n    tag_15:\n      callvalue\n      dup1\n      iszero\n      tag_107\n      jumpi\n      revert(0x00, 0x00)\n    tag_107:\n      pop\n      tag_55\n      tag_109\n      calldatasize\n      0x04\n      tag_89\n      jump\t// in\n    tag_109:\n      sub(shl(0xa0, 0x01), 0x01)\n        /* \"shoaib.sol\":6917:6939  isWhitelisted[account] */\n      and\n        /* \"shoaib.sol\":6891:6895  bool */\n      0x00\n        /* \"shoaib.sol\":6917:6939  isWhitelisted[account] */\n      swap1\n      dup2\n      mstore\n        /* \"shoaib.sol\":6917:6930  isWhitelisted */\n      0x08\n        /* \"shoaib.sol\":6917:6939  isWhitelisted[account] */\n      0x20\n      mstore\n      0x40\n      swap1\n      keccak256\n      sload\n      0xff\n      and\n      swap1\n        /* \"shoaib.sol\":6823:6949  function isWhitelistedAddress(address account) public view returns (bool) {... */\n      jump\n        /* \"shoaib.sol\":5942:6295  function excludeAccountFromReward(address account) public onlyOwner {... */\n    tag_16:\n      callvalue\n      dup1\n      iszero\n      tag_112\n      jumpi\n      revert(0x00, 0x00)\n    tag_112:\n      pop\n      tag_45\n      tag_114\n      calldatasize\n      0x04\n      tag_89\n      jump\t// in\n    tag_114:\n      tag_115\n      jump\t// in\n        /* \"shoaib.sol\":4166:4432  function changeDevelopmentAccount(address newFeeAccount) public onlyOwner {... */\n    tag_17:\n      callvalue\n      dup1\n      iszero\n      tag_116\n      jumpi\n      revert(0x00, 0x00)\n    tag_116:\n      pop\n      tag_45\n      tag_118\n      calldatasize\n      0x04\n      tag_89\n      jump\t// in\n    tag_118:\n      tag_119\n      jump\t// in\n        /* \"shoaib.sol\":3211:3511  function balanceOf(address sender)... */\n    tag_18:\n      callvalue\n      dup1\n      iszero\n      tag_120\n      jumpi\n      revert(0x00, 0x00)\n    tag_120:\n      pop\n      tag_62\n      tag_122\n      calldatasize\n      0x04\n      tag_89\n      jump\t// in\n    tag_122:\n      tag_123\n      jump\t// in\n        /* \"shoaib.sol\":2827:2935  function getMarketingAccount() public view returns (address) {... */\n    tag_19:\n      callvalue\n      dup1\n      iszero\n      tag_125\n      jumpi\n      revert(0x00, 0x00)\n    tag_125:\n      pop\n        /* \"shoaib.sol\":2908:2925  _marketingAccount */\n      and(sub(shl(0xa0, 0x01), 0x01), sload(0x13))\n        /* \"shoaib.sol\":2827:2935  function getMarketingAccount() public view returns (address) {... */\n      jump(tag_67)\n        /* \"shoaib.sol\":2616:2715  function reflectionFee() public view returns (uint256) {... */\n    tag_20:\n      callvalue\n      dup1\n      iszero\n      tag_129\n      jumpi\n      revert(0x00, 0x00)\n    tag_129:\n      pop\n        /* \"shoaib.sol\":2691:2705  _reflectionFee */\n      sload(0x0f)\n        /* \"shoaib.sol\":2616:2715  function reflectionFee() public view returns (uint256) {... */\n      jump(tag_62)\n        /* \"shoaib.sol\":4444:4605  function changePairAddress(address _pairAddress) public onlyOwner {... */\n    tag_21:\n      callvalue\n      dup1\n      iszero\n      tag_133\n      jumpi\n      revert(0x00, 0x00)\n    tag_133:\n      pop\n      tag_45\n      tag_135\n      calldatasize\n      0x04\n      tag_89\n      jump\t// in\n    tag_135:\n      tag_136\n      jump\t// in\n        /* \"shoaib.sol\":2194:2285  function owner() public view virtual returns (address) {... */\n    tag_22:\n      callvalue\n      dup1\n      iszero\n      tag_137\n      jumpi\n      revert(0x00, 0x00)\n    tag_137:\n      pop\n        /* \"shoaib.sol\":2269:2275  _owner */\n      sload(0x0b)\n      0x0100\n      swap1\n      div\n      sub(shl(0xa0, 0x01), 0x01)\n      and\n        /* \"shoaib.sol\":2194:2285  function owner() public view virtual returns (address) {... */\n      jump(tag_67)\n        /* \"@openzeppelin/contracts/token/ERC20/ERC20.sol\":1962:2055  function symbol() public view virtual returns (string memory) {... */\n    tag_23:\n      callvalue\n      dup1\n      iszero\n      tag_141\n      jumpi\n      revert(0x00, 0x00)\n    tag_141:\n      pop\n      tag_50\n      tag_143\n      jump\t// in\n        /* \"shoaib.sol\":981:1007  address public pairAddress */\n    tag_24:\n      callvalue\n      dup1\n      iszero\n      tag_145\n      jumpi\n      revert(0x00, 0x00)\n    tag_145:\n      pop\n      sload(0x15)\n      tag_67\n      swap1\n      sub(shl(0xa0, 0x01), 0x01)\n      and\n      dup2\n      jump\n        /* \"@openzeppelin/contracts/token/ERC20/ERC20.sol\":3296:3474  function transfer(address to, uint256 value) public virtual returns (bool) {... */\n    tag_25:\n      callvalue\n      dup1\n      iszero\n      tag_149\n      jumpi\n      revert(0x00, 0x00)\n    tag_149:\n      pop\n      tag_55\n      tag_151\n      calldatasize\n      0x04\n      tag_57\n      jump\t// in\n    tag_151:\n      tag_152\n      jump\t// in\n        /* \"shoaib.sol\":6961:7154  function whitelistedAddress(address account) public onlyOwner {... */\n    tag_26:\n      callvalue\n      dup1\n      iszero\n      tag_154\n      jumpi\n      revert(0x00, 0x00)\n    tag_154:\n      pop\n      tag_45\n      tag_156\n      calldatasize\n      0x04\n      tag_89\n      jump\t// in\n    tag_156:\n      tag_157\n      jump\t// in\n        /* \"shoaib.sol\":3892:4154  function changeMarketingAccount(address newFeeAccount) public onlyOwner {... */\n    tag_27:\n      callvalue\n      dup1\n      iszero\n      tag_158\n      jumpi\n      revert(0x00, 0x00)\n    tag_158:\n      pop\n      tag_45\n      tag_160\n      calldatasize\n      0x04\n      tag_89\n      jump\t// in\n    tag_160:\n      tag_161\n      jump\t// in\n        /* \"shoaib.sol\":7166:7288  function openTrading() external onlyOwner {... */\n    tag_28:\n      callvalue\n      dup1\n      iszero\n      tag_162\n      jumpi\n      revert(0x00, 0x00)\n    tag_162:\n      pop\n      tag_45\n      tag_164\n      jump\t// in\n        /* \"shoaib.sol\":3523:3637  function isExcluded(address account) public view returns (bool) {... */\n    tag_29:\n      callvalue\n      dup1\n      iszero\n      tag_165\n      jumpi\n      revert(0x00, 0x00)\n    tag_165:\n      pop\n      tag_55\n      tag_167\n      calldatasize\n      0x04\n      tag_89\n      jump\t// in\n    tag_167:\n      sub(shl(0xa0, 0x01), 0x01)\n        /* \"shoaib.sol\":3607:3627  _isExcluded[account] */\n      and\n        /* \"shoaib.sol\":3581:3585  bool */\n      0x00\n        /* \"shoaib.sol\":3607:3627  _isExcluded[account] */\n      swap1\n      dup2\n      mstore\n        /* \"shoaib.sol\":3607:3618  _isExcluded */\n      0x09\n        /* \"shoaib.sol\":3607:3627  _isExcluded[account] */\n      0x20\n      mstore\n      0x40\n      swap1\n      keccak256\n      sload\n      0xff\n      and\n      swap1\n        /* \"shoaib.sol\":3523:3637  function isExcluded(address account) public view returns (bool) {... */\n      jump\n        /* \"shoaib.sol\":1064:1090  uint256 public launchBlock */\n    tag_30:\n      callvalue\n      dup1\n      iszero\n      tag_170\n      jumpi\n      revert(0x00, 0x00)\n    tag_170:\n      pop\n      tag_62\n      sload(0x17)\n      dup2\n      jump\n        /* \"@openzeppelin/contracts/token/ERC20/ERC20.sol\":3532:3672  function allowance(address owner, address spender) public view virtual returns (uint256) {... */\n    tag_31:\n      callvalue\n      dup1\n      iszero\n      tag_174\n      jumpi\n      revert(0x00, 0x00)\n    tag_174:\n      pop\n      tag_62\n      tag_176\n      calldatasize\n      0x04\n      tag_177\n      jump\t// in\n    tag_176:\n      sub(shl(0xa0, 0x01), 0x01)\n        /* \"@openzeppelin/contracts/token/ERC20/ERC20.sol\":3638:3656  _allowances[owner] */\n      swap2\n      dup3\n      and\n        /* \"@openzeppelin/contracts/token/ERC20/ERC20.sol\":3612:3619  uint256 */\n      0x00\n        /* \"@openzeppelin/contracts/token/ERC20/ERC20.sol\":3638:3656  _allowances[owner] */\n      swap1\n      dup2\n      mstore\n        /* \"@openzeppelin/contracts/token/ERC20/ERC20.sol\":3638:3649  _allowances */\n      0x01\n        /* \"@openzeppelin/contracts/token/ERC20/ERC20.sol\":3638:3656  _allowances[owner] */\n      0x20\n      swap1\n      dup2\n      mstore\n      0x40\n      dup1\n      dup4\n      keccak256\n        /* \"@openzeppelin/contracts/token/ERC20/ERC20.sol\":3638:3665  _allowances[owner][spender] */\n      swap4\n      swap1\n      swap5\n      and\n      dup3\n      mstore\n      swap2\n      swap1\n      swap2\n      mstore\n      keccak256\n      sload\n      swap1\n        /* \"@openzeppelin/contracts/token/ERC20/ERC20.sol\":3532:3672  function allowance(address owner, address spender) public view virtual returns (uint256) {... */\n      jump\n        /* \"shoaib.sol\":2727:2815  function getTaxFee() public view returns (uint256) {... */\n    tag_32:\n      callvalue\n      dup1\n      iszero\n      tag_180\n      jumpi\n      revert(0x00, 0x00)\n    tag_180:\n      pop\n        /* \"shoaib.sol\":2798:2805  _taxFee */\n      sload(0x11)\n        /* \"shoaib.sol\":2727:2815  function getTaxFee() public view returns (uint256) {... */\n      jump(tag_62)\n        /* \"shoaib.sol\":6307:6811  function includeAccountinReward(address account) public onlyOwner {... */\n    tag_33:\n      callvalue\n      dup1\n      iszero\n      tag_184\n      jumpi\n      revert(0x00, 0x00)\n    tag_184:\n      pop\n      tag_45\n      tag_186\n      calldatasize\n      0x04\n      tag_89\n      jump\t// in\n    tag_186:\n      tag_187\n      jump\t// in\n        /* \"shoaib.sol\":1099:1130  bool public tradingOpen = false */\n    tag_34:\n      callvalue\n      dup1\n      iszero\n      tag_188\n      jumpi\n      revert(0x00, 0x00)\n    tag_188:\n      pop\n      sload(0x18)\n      tag_55\n      swap1\n      0xff\n      and\n      dup2\n      jump\n        /* \"shoaib.sol\":4617:5051  function reflect(uint256 tAmount) public {... */\n    tag_48:\n        /* \"@openzeppelin/contracts/utils/Context.sol\":735:745  msg.sender */\n      caller\n        /* \"shoaib.sol\":4671:4685  address sender */\n      0x00\n        /* \"shoaib.sol\":4738:4757  _isExcluded[sender] */\n      dup2\n      dup2\n      mstore\n        /* \"shoaib.sol\":4738:4749  _isExcluded */\n      0x09\n        /* \"shoaib.sol\":4738:4757  _isExcluded[sender] */\n      0x20\n      mstore\n      0x40\n      swap1\n      keccak256\n      sload\n      0xff\n      and\n        /* \"shoaib.sol\":4737:4757  !_isExcluded[sender] */\n      iszero\n        /* \"shoaib.sol\":4713:4833  require(... */\n      tag_195\n      jumpi\n      mload(0x40)\n      shl(0xe5, 0x461bcd)\n      dup2\n      mstore\n        /* \"#utility.yul\":3359:3361   */\n      0x20\n        /* \"shoaib.sol\":4713:4833  require(... */\n      0x04\n      dup3\n      add\n        /* \"#utility.yul\":3341:3362   */\n      mstore\n        /* \"#utility.yul\":3398:3400   */\n      0x2c\n        /* \"#utility.yul\":3378:3396   */\n      0x24\n      dup3\n      add\n        /* \"#utility.yul\":3371:3401   */\n      mstore\n        /* \"#utility.yul\":3437:3471   */\n      0x4578636c75646564206164647265737365732063616e6e6f742063616c6c2074\n        /* \"#utility.yul\":3417:3435   */\n      0x44\n      dup3\n      add\n        /* \"#utility.yul\":3410:3472   */\n      mstore\n      shl(0xa1, 0x3434b990333ab731ba34b7b7)\n        /* \"#utility.yul\":3488:3506   */\n      0x64\n      dup3\n      add\n        /* \"#utility.yul\":3481:3523   */\n      mstore\n        /* \"#utility.yul\":3540:3559   */\n      0x84\n      add\n        /* \"shoaib.sol\":4713:4833  require(... */\n    tag_196:\n      mload(0x40)\n      dup1\n      swap2\n      sub\n      swap1\n      revert\n    tag_195:\n        /* \"shoaib.sol\":4847:4862  uint256 rAmount */\n      0x00\n        /* \"shoaib.sol\":4872:4899  _getTransferValues(tAmount) */\n      tag_198\n        /* \"shoaib.sol\":4891:4898  tAmount */\n      dup4\n        /* \"shoaib.sol\":4872:4890  _getTransferValues */\n      tag_199\n        /* \"shoaib.sol\":4872:4899  _getTransferValues(tAmount) */\n      jump\t// in\n    tag_198:\n      pop\n      pop\n      pop\n      sub(shl(0xa0, 0x01), 0x01)\n        /* \"shoaib.sol\":4930:4945  _rOwned[sender] */\n      dup4\n      and\n      0x00\n      swap1\n      dup2\n      mstore\n        /* \"shoaib.sol\":4930:4937  _rOwned */\n      0x05\n        /* \"shoaib.sol\":4930:4945  _rOwned[sender] */\n      0x20\n      mstore\n      0x40\n      swap1\n      keccak256\n      sload\n        /* \"shoaib.sol\":4846:4899  (uint256 rAmount, , , ) = _getTransferValues(tAmount) */\n      swap1\n      swap2\n      pop\n        /* \"shoaib.sol\":4930:4955  _rOwned[sender] - rAmount */\n      tag_200\n      swap1\n        /* \"shoaib.sol\":4846:4899  (uint256 rAmount, , , ) = _getTransferValues(tAmount) */\n      dup3\n      swap1\n        /* \"shoaib.sol\":4930:4955  _rOwned[sender] - rAmount */\n      tag_201\n      jump\t// in\n    tag_200:\n      sub(shl(0xa0, 0x01), 0x01)\n        /* \"shoaib.sol\":4912:4927  _rOwned[sender] */\n      dup4\n      and\n      0x00\n      swap1\n      dup2\n      mstore\n        /* \"shoaib.sol\":4912:4919  _rOwned */\n      0x05\n        /* \"shoaib.sol\":4912:4927  _rOwned[sender] */\n      0x20\n      mstore\n      0x40\n      swap1\n      keccak256\n        /* \"shoaib.sol\":4912:4955  _rOwned[sender] = _rOwned[sender] - rAmount */\n      sstore\n        /* \"shoaib.sol\":4978:4985  _rTotal */\n      sload(0x0d)\n        /* \"shoaib.sol\":4978:4995  _rTotal - rAmount */\n      tag_202\n      swap1\n        /* \"shoaib.sol\":4988:4995  rAmount */\n      dup3\n      swap1\n        /* \"shoaib.sol\":4978:4995  _rTotal - rAmount */\n      tag_201\n      jump\t// in\n    tag_202:\n        /* \"shoaib.sol\":4968:4975  _rTotal */\n      0x0d\n        /* \"shoaib.sol\":4968:4995  _rTotal = _rTotal - rAmount */\n      sstore\n        /* \"shoaib.sol\":5021:5031  _tFeeTotal */\n      sload(0x0e)\n        /* \"shoaib.sol\":5021:5041  _tFeeTotal + tAmount */\n      tag_203\n      swap1\n        /* \"shoaib.sol\":5034:5041  tAmount */\n      dup5\n      swap1\n        /* \"shoaib.sol\":5021:5041  _tFeeTotal + tAmount */\n      tag_204\n      jump\t// in\n    tag_203:\n        /* \"shoaib.sol\":5008:5018  _tFeeTotal */\n      0x0e\n        /* \"shoaib.sol\":5008:5041  _tFeeTotal = _tFeeTotal + tAmount */\n      sstore\n      pop\n      pop\n      pop\n        /* \"shoaib.sol\":4617:5051  function reflect(uint256 tAmount) public {... */\n      jump\t// out\n        /* \"@openzeppelin/contracts/token/ERC20/ERC20.sol\":1760:1849  function name() public view virtual returns (string memory) {... */\n    tag_51:\n        /* \"@openzeppelin/contracts/token/ERC20/ERC20.sol\":1805:1818  string memory */\n      0x60\n        /* \"@openzeppelin/contracts/token/ERC20/ERC20.sol\":1837:1842  _name */\n      0x03\n        /* \"@openzeppelin/contracts/token/ERC20/ERC20.sol\":1830:1842  return _name */\n      dup1\n      sload\n      tag_206\n      swap1\n      tag_207\n      jump\t// in\n    tag_206:\n      dup1\n      0x1f\n      add\n      0x20\n      dup1\n      swap2\n      div\n      mul\n      0x20\n      add\n      mload(0x40)\n      swap1\n      dup2\n      add\n      0x40\n      mstore\n      dup1\n      swap3\n      swap2\n      swap1\n      dup2\n      dup2\n      mstore\n      0x20\n      add\n      dup3\n      dup1\n      sload\n      tag_208\n      swap1\n      tag_207\n      jump\t// in\n    tag_208:\n      dup1\n      iszero\n      tag_209\n      jumpi\n      dup1\n      0x1f\n      lt\n      tag_210\n      jumpi\n      0x0100\n      dup1\n      dup4\n      sload\n      div\n      mul\n      dup4\n      mstore\n      swap2\n      0x20\n      add\n      swap2\n      jump(tag_209)\n    tag_210:\n      dup3\n      add\n      swap2\n      swap1\n      0x00\n      mstore\n      keccak256(0x00, 0x20)\n      swap1\n    tag_211:\n      dup2\n      sload\n      dup2\n      mstore\n      swap1\n      0x01\n      add\n      swap1\n      0x20\n      add\n      dup1\n      dup4\n      gt\n      tag_211\n      jumpi\n      dup3\n      swap1\n      sub\n      0x1f\n      and\n      dup3\n      add\n      swap2\n    tag_209:\n      pop\n      pop\n      pop\n      pop\n      pop\n      swap1\n      pop\n        /* \"@openzeppelin/contracts/token/ERC20/ERC20.sol\":1760:1849  function name() public view virtual returns (string memory) {... */\n      swap1\n      jump\t// out\n        /* \"@openzeppelin/contracts/token/ERC20/ERC20.sol\":3979:4165  function approve(address spender, uint256 value) public virtual returns (bool) {... */\n    tag_58:\n        /* \"@openzeppelin/contracts/token/ERC20/ERC20.sol\":4052:4056  bool */\n      0x00\n        /* \"@openzeppelin/contracts/utils/Context.sol\":735:745  msg.sender */\n      caller\n        /* \"@openzeppelin/contracts/token/ERC20/ERC20.sol\":4106:4137  _approve(owner, spender, value) */\n      tag_214\n        /* \"@openzeppelin/contracts/utils/Context.sol\":735:745  msg.sender */\n      dup2\n        /* \"@openzeppelin/contracts/token/ERC20/ERC20.sol\":4122:4129  spender */\n      dup6\n        /* \"@openzeppelin/contracts/token/ERC20/ERC20.sol\":4131:4136  value */\n      dup6\n        /* \"@openzeppelin/contracts/token/ERC20/ERC20.sol\":4106:4114  _approve */\n      tag_215\n        /* \"@openzeppelin/contracts/token/ERC20/ERC20.sol\":4106:4137  _approve(owner, spender, value) */\n      jump\t// in\n    tag_214:\n        /* \"@openzeppelin/contracts/token/ERC20/ERC20.sol\":4154:4158  true */\n      0x01\n        /* \"@openzeppelin/contracts/token/ERC20/ERC20.sol\":4147:4158  return true */\n      swap2\n      pop\n      pop\n        /* \"@openzeppelin/contracts/token/ERC20/ERC20.sol\":3979:4165  function approve(address spender, uint256 value) public virtual returns (bool) {... */\n    tag_212:\n      swap3\n      swap2\n      pop\n      pop\n      jump\t// out\n        /* \"@openzeppelin/contracts/token/ERC20/ERC20.sol\":4757:5001  function transferFrom(address from, address to, uint256 value) public virtual returns (bool) {... */\n    tag_75:\n        /* \"@openzeppelin/contracts/token/ERC20/ERC20.sol\":4844:4848  bool */\n      0x00\n        /* \"@openzeppelin/contracts/utils/Context.sol\":735:745  msg.sender */\n      caller\n        /* \"@openzeppelin/contracts/token/ERC20/ERC20.sol\":4900:4937  _spendAllowance(from, spender, value) */\n      tag_220\n        /* \"@openzeppelin/contracts/token/ERC20/ERC20.sol\":4916:4920  from */\n      dup6\n        /* \"@openzeppelin/contracts/utils/Context.sol\":735:745  msg.sender */\n      dup3\n        /* \"@openzeppelin/contracts/token/ERC20/ERC20.sol\":4931:4936  value */\n      dup6\n        /* \"@openzeppelin/contracts/token/ERC20/ERC20.sol\":4900:4915  _spendAllowance */\n      tag_221\n        /* \"@openzeppelin/contracts/token/ERC20/ERC20.sol\":4900:4937  _spendAllowance(from, spender, value) */\n      jump\t// in\n    tag_220:\n        /* \"@openzeppelin/contracts/token/ERC20/ERC20.sol\":4947:4973  _transfer(from, to, value) */\n      tag_222\n        /* \"@openzeppelin/contracts/token/ERC20/ERC20.sol\":4957:4961  from */\n      dup6\n        /* \"@openzeppelin/contracts/token/ERC20/ERC20.sol\":4963:4965  to */\n      dup6\n        /* \"@openzeppelin/contracts/token/ERC20/ERC20.sol\":4967:4972  value */\n      dup6\n        /* \"@openzeppelin/contracts/token/ERC20/ERC20.sol\":4947:4956  _transfer */\n      tag_223\n        /* \"@openzeppelin/contracts/token/ERC20/ERC20.sol\":4947:4973  _transfer(from, to, value) */\n      jump\t// in\n    tag_222:\n      pop\n        /* \"@openzeppelin/contracts/token/ERC20/ERC20.sol\":4990:4994  true */\n      0x01\n      swap5\n        /* \"@openzeppelin/contracts/token/ERC20/ERC20.sol\":4757:5001  function transferFrom(address from, address to, uint256 value) public virtual returns (bool) {... */\n      swap4\n      pop\n      pop\n      pop\n      pop\n      jump\t// out\n        /* \"shoaib.sol\":3765:3880  function excludeFromFee(address account) public onlyOwner {... */\n    tag_95:\n        /* \"shoaib.sol\":2269:2275  _owner */\n      sload(0x0b)\n        /* \"shoaib.sol\":2346:2356  msg.sender */\n      caller\n      swap1\n        /* \"shoaib.sol\":2269:2275  _owner */\n      0x0100\n      swap1\n      div\n      sub(shl(0xa0, 0x01), 0x01)\n      and\n      sub(shl(0xa0, 0x01), 0x01)\n        /* \"shoaib.sol\":2335:2356  owner() == msg.sender */\n      and\n      sub\n        /* \"shoaib.sol\":2331:2359  if (owner() == msg.sender) _ */\n      tag_228\n      jumpi\n      sub(shl(0xa0, 0x01), 0x01)\n        /* \"shoaib.sol\":3836:3863  _isExcludedFromFee[account] */\n      dup2\n      and\n      0x00\n      swap1\n      dup2\n      mstore\n        /* \"shoaib.sol\":3836:3854  _isExcludedFromFee */\n      0x07\n        /* \"shoaib.sol\":3836:3863  _isExcludedFromFee[account] */\n      0x20\n      mstore\n      0x40\n      swap1\n      keccak256\n        /* \"shoaib.sol\":3836:3870  _isExcludedFromFee[account] = true */\n      dup1\n      sload\n      not(0xff)\n      and\n        /* \"shoaib.sol\":3866:3870  true */\n      0x01\n        /* \"shoaib.sol\":3836:3870  _isExcludedFromFee[account] = true */\n      or\n      swap1\n      sstore\n        /* \"shoaib.sol\":2331:2359  if (owner() == msg.sender) _ */\n    tag_228:\n        /* \"shoaib.sol\":3765:3880  function excludeFromFee(address account) public onlyOwner {... */\n      pop\n      jump\t// out\n        /* \"shoaib.sol\":5063:5576  function reflectionFromToken(uint256 tAmount, bool deductTransferFee)... */\n    tag_100:\n        /* \"shoaib.sol\":5187:5194  uint256 */\n      0x00\n        /* \"shoaib.sol\":5235:5242  _tTotal */\n      sload(0x0c)\n        /* \"shoaib.sol\":5224:5231  tAmount */\n      dup4\n        /* \"shoaib.sol\":5224:5242  tAmount <= _tTotal */\n      gt\n      iszero\n        /* \"shoaib.sol\":5216:5278  require(tAmount <= _tTotal, \"Amount must be less than supply\") */\n      tag_231\n      jumpi\n      mload(0x40)\n      shl(0xe5, 0x461bcd)\n      dup2\n      mstore\n        /* \"#utility.yul\":4552:4554   */\n      0x20\n        /* \"shoaib.sol\":5216:5278  require(tAmount <= _tTotal, \"Amount must be less than supply\") */\n      0x04\n      dup3\n      add\n        /* \"#utility.yul\":4534:4555   */\n      mstore\n        /* \"#utility.yul\":4591:4593   */\n      0x1f\n        /* \"#utility.yul\":4571:4589   */\n      0x24\n      dup3\n      add\n        /* \"#utility.yul\":4564:4594   */\n      mstore\n        /* \"#utility.yul\":4630:4663   */\n      0x416d6f756e74206d757374206265206c657373207468616e20737570706c7900\n        /* \"#utility.yul\":4610:4628   */\n      0x44\n      dup3\n      add\n        /* \"#utility.yul\":4603:4664   */\n      mstore\n        /* \"#utility.yul\":4681:4699   */\n      0x64\n      add\n        /* \"shoaib.sol\":5216:5278  require(tAmount <= _tTotal, \"Amount must be less than supply\") */\n      tag_196\n        /* \"#utility.yul\":4350:4705   */\n      jump\n        /* \"shoaib.sol\":5216:5278  require(tAmount <= _tTotal, \"Amount must be less than supply\") */\n    tag_231:\n        /* \"shoaib.sol\":5296:5313  deductTransferFee */\n      dup2\n        /* \"shoaib.sol\":5291:5567  if (!deductTransferFee) {... */\n      tag_234\n      jumpi\n        /* \"shoaib.sol\":5333:5348  uint256 rAmount */\n      0x00\n        /* \"shoaib.sol\":5358:5385  _getTransferValues(tAmount) */\n      tag_235\n        /* \"shoaib.sol\":5377:5384  tAmount */\n      dup5\n        /* \"shoaib.sol\":5358:5376  _getTransferValues */\n      tag_199\n        /* \"shoaib.sol\":5358:5385  _getTransferValues(tAmount) */\n      jump\t// in\n    tag_235:\n      pop\n        /* \"shoaib.sol\":5332:5385  (uint256 rAmount, , , ) = _getTransferValues(tAmount) */\n      swap2\n      swap4\n      pop\n        /* \"shoaib.sol\":5402:5416  return rAmount */\n      tag_212\n      swap3\n      pop\n      pop\n      pop\n      jump\n        /* \"shoaib.sol\":5291:5567  if (!deductTransferFee) {... */\n    tag_234:\n        /* \"shoaib.sol\":5456:5479  uint256 rTransferAmount */\n      0x00\n        /* \"shoaib.sol\":5487:5514  _getTransferValues(tAmount) */\n      tag_237\n        /* \"shoaib.sol\":5506:5513  tAmount */\n      dup5\n        /* \"shoaib.sol\":5487:5505  _getTransferValues */\n      tag_199\n        /* \"shoaib.sol\":5487:5514  _getTransferValues(tAmount) */\n      jump\t// in\n    tag_237:\n      pop\n        /* \"shoaib.sol\":5453:5514  (, uint256 rTransferAmount, , ) = _getTransferValues(tAmount) */\n      swap1\n      swap4\n      pop\n        /* \"shoaib.sol\":5531:5553  return rTransferAmount */\n      tag_212\n      swap3\n      pop\n      pop\n      pop\n      jump\n        /* \"shoaib.sol\":5942:6295  function excludeAccountFromReward(address account) public onlyOwner {... */\n    tag_115:\n        /* \"shoaib.sol\":2269:2275  _owner */\n      sload(0x0b)\n        /* \"shoaib.sol\":2346:2356  msg.sender */\n      caller\n      swap1\n        /* \"shoaib.sol\":2269:2275  _owner */\n      0x0100\n      swap1\n      div\n      sub(shl(0xa0, 0x01), 0x01)\n      and\n      sub(shl(0xa0, 0x01), 0x01)\n        /* \"shoaib.sol\":2335:2356  owner() == msg.sender */\n      and\n      sub\n        /* \"shoaib.sol\":2331:2359  if (owner() == msg.sender) _ */\n      tag_228\n      jumpi\n      sub(shl(0xa0, 0x01), 0x01)\n        /* \"shoaib.sol\":6032:6052  _isExcluded[account] */\n      dup2\n      and\n      0x00\n      swap1\n      dup2\n      mstore\n        /* \"shoaib.sol\":6032:6043  _isExcluded */\n      0x09\n        /* \"shoaib.sol\":6032:6052  _isExcluded[account] */\n      0x20\n      mstore\n      0x40\n      swap1\n      keccak256\n      sload\n      0xff\n      and\n        /* \"shoaib.sol\":6031:6052  !_isExcluded[account] */\n      iszero\n        /* \"shoaib.sol\":6023:6084  require(!_isExcluded[account], \"Account is already excluded\") */\n      tag_244\n      jumpi\n      mload(0x40)\n      shl(0xe5, 0x461bcd)\n      dup2\n      mstore\n        /* \"#utility.yul\":4912:4914   */\n      0x20\n        /* \"shoaib.sol\":6023:6084  require(!_isExcluded[account], \"Account is already excluded\") */\n      0x04\n      dup3\n      add\n        /* \"#utility.yul\":4894:4915   */\n      mstore\n        /* \"#utility.yul\":4951:4953   */\n      0x1b\n        /* \"#utility.yul\":4931:4949   */\n      0x24\n      dup3\n      add\n        /* \"#utility.yul\":4924:4954   */\n      mstore\n        /* \"#utility.yul\":4990:5019   */\n      0x4163636f756e7420697320616c7265616479206578636c756465640000000000\n        /* \"#utility.yul\":4970:4988   */\n      0x44\n      dup3\n      add\n        /* \"#utility.yul\":4963:5020   */\n      mstore\n        /* \"#utility.yul\":5037:5055   */\n      0x64\n      add\n        /* \"shoaib.sol\":6023:6084  require(!_isExcluded[account], \"Account is already excluded\") */\n      tag_196\n        /* \"#utility.yul\":4710:5061   */\n      jump\n        /* \"shoaib.sol\":6023:6084  require(!_isExcluded[account], \"Account is already excluded\") */\n    tag_244:\n      sub(shl(0xa0, 0x01), 0x01)\n        /* \"shoaib.sol\":6101:6117  _rOwned[account] */\n      dup2\n      and\n        /* \"shoaib.sol\":6120:6121  0 */\n      0x00\n        /* \"shoaib.sol\":6101:6117  _rOwned[account] */\n      swap1\n      dup2\n      mstore\n        /* \"shoaib.sol\":6101:6108  _rOwned */\n      0x05\n        /* \"shoaib.sol\":6101:6117  _rOwned[account] */\n      0x20\n      mstore\n      0x40\n      swap1\n      keccak256\n      sload\n        /* \"shoaib.sol\":6101:6121  _rOwned[account] > 0 */\n      iszero\n        /* \"shoaib.sol\":6097:6210  if (_rOwned[account] > 0) {... */\n      tag_247\n      jumpi\n      sub(shl(0xa0, 0x01), 0x01)\n        /* \"shoaib.sol\":6179:6195  _rOwned[account] */\n      dup2\n      and\n      0x00\n      swap1\n      dup2\n      mstore\n        /* \"shoaib.sol\":6179:6186  _rOwned */\n      0x05\n        /* \"shoaib.sol\":6179:6195  _rOwned[account] */\n      0x20\n      mstore\n      0x40\n      swap1\n      keccak256\n      sload\n        /* \"shoaib.sol\":6159:6196  tokenFromReflection(_rOwned[account]) */\n      tag_248\n      swap1\n        /* \"shoaib.sol\":6159:6178  tokenFromReflection */\n      tag_249\n        /* \"shoaib.sol\":6159:6196  tokenFromReflection(_rOwned[account]) */\n      jump\t// in\n    tag_248:\n      sub(shl(0xa0, 0x01), 0x01)\n        /* \"shoaib.sol\":6140:6156  _tOwned[account] */\n      dup3\n      and\n      0x00\n      swap1\n      dup2\n      mstore\n        /* \"shoaib.sol\":6140:6147  _tOwned */\n      0x06\n        /* \"shoaib.sol\":6140:6156  _tOwned[account] */\n      0x20\n      mstore\n      0x40\n      swap1\n      keccak256\n        /* \"shoaib.sol\":6140:6196  _tOwned[account] = tokenFromReflection(_rOwned[account]) */\n      sstore\n        /* \"shoaib.sol\":6097:6210  if (_rOwned[account] > 0) {... */\n    tag_247:\n      sub(shl(0xa0, 0x01), 0x01)\n        /* \"shoaib.sol\":6222:6242  _isExcluded[account] */\n      and\n      0x00\n      dup2\n      dup2\n      mstore\n        /* \"shoaib.sol\":6222:6233  _isExcluded */\n      0x09\n        /* \"shoaib.sol\":6222:6242  _isExcluded[account] */\n      0x20\n      mstore\n      0x40\n      dup2\n      keccak256\n        /* \"shoaib.sol\":6222:6249  _isExcluded[account] = true */\n      dup1\n      sload\n      not(0xff)\n      and\n        /* \"shoaib.sol\":6245:6249  true */\n      0x01\n        /* \"shoaib.sol\":6222:6249  _isExcluded[account] = true */\n      swap1\n      dup2\n      or\n      swap1\n      swap2\n      sstore\n        /* \"shoaib.sol\":6262:6271  _excluded */\n      0x0a\n        /* \"shoaib.sol\":6262:6285  _excluded.push(account) */\n      dup1\n      sload\n      swap2\n      dup3\n      add\n      dup2\n      sstore\n      swap1\n      swap2\n      mstore\n      0xc65a7bb8d6351c1cf70c95a316cc6a92839c986682d98bc35f958f4883f9d2a8\n      add\n      dup1\n      sload\n      not(sub(shl(0xa0, 0x01), 0x01))\n      and\n      swap1\n      swap2\n      or\n      swap1\n      sstore\n        /* \"shoaib.sol\":5942:6295  function excludeAccountFromReward(address account) public onlyOwner {... */\n      jump\t// out\n        /* \"shoaib.sol\":4166:4432  function changeDevelopmentAccount(address newFeeAccount) public onlyOwner {... */\n    tag_119:\n        /* \"shoaib.sol\":2269:2275  _owner */\n      sload(0x0b)\n        /* \"shoaib.sol\":2346:2356  msg.sender */\n      caller\n      swap1\n        /* \"shoaib.sol\":2269:2275  _owner */\n      0x0100\n      swap1\n      div\n      sub(shl(0xa0, 0x01), 0x01)\n      and\n      sub(shl(0xa0, 0x01), 0x01)\n        /* \"shoaib.sol\":2335:2356  owner() == msg.sender */\n      and\n      sub\n        /* \"shoaib.sol\":2331:2359  if (owner() == msg.sender) _ */\n      tag_228\n      jumpi\n      sub(shl(0xa0, 0x01), 0x01)\n        /* \"shoaib.sol\":4277:4304  newFeeAccount != address(0) */\n      dup2\n      and\n        /* \"shoaib.sol\":4253:4374  require(... */\n      tag_255\n      jumpi\n      mload(0x40)\n      shl(0xe5, 0x461bcd)\n      dup2\n      mstore\n      0x04\n      add\n      tag_196\n      swap1\n      tag_257\n      jump\t// in\n    tag_255:\n        /* \"shoaib.sol\":4387:4406  _developmentAccount */\n      0x14\n        /* \"shoaib.sol\":4387:4422  _developmentAccount = newFeeAccount */\n      dup1\n      sload\n      sub(shl(0xa0, 0x01), 0x01)\n      dup4\n      and\n      not(sub(shl(0xa0, 0x01), 0x01))\n      swap1\n      swap2\n      and\n      or\n      swap1\n      sstore\n        /* \"shoaib.sol\":4166:4432  function changeDevelopmentAccount(address newFeeAccount) public onlyOwner {... */\n      pop\n      jump\t// out\n        /* \"shoaib.sol\":3211:3511  function balanceOf(address sender)... */\n    tag_123:\n      sub(shl(0xa0, 0x01), 0x01)\n        /* \"shoaib.sol\":3372:3391  _isExcluded[sender] */\n      dup2\n      and\n        /* \"shoaib.sol\":3339:3346  uint256 */\n      0x00\n        /* \"shoaib.sol\":3372:3391  _isExcluded[sender] */\n      swap1\n      dup2\n      mstore\n        /* \"shoaib.sol\":3372:3383  _isExcluded */\n      0x09\n        /* \"shoaib.sol\":3372:3391  _isExcluded[sender] */\n      0x20\n      mstore\n      0x40\n      dup2\n      keccak256\n      sload\n      0xff\n      and\n        /* \"shoaib.sol\":3368:3446  if (_isExcluded[sender]) {... */\n      iszero\n      tag_259\n      jumpi\n      pop\n      sub(shl(0xa0, 0x01), 0x01)\n        /* \"shoaib.sol\":3417:3432  _tOwned[sender] */\n      and\n      0x00\n      swap1\n      dup2\n      mstore\n        /* \"shoaib.sol\":3417:3424  _tOwned */\n      0x06\n        /* \"shoaib.sol\":3417:3432  _tOwned[sender] */\n      0x20\n      mstore\n      0x40\n      swap1\n      keccak256\n      sload\n      swap1\n        /* \"shoaib.sol\":3211:3511  function balanceOf(address sender)... */\n      jump\t// out\n        /* \"shoaib.sol\":3368:3446  if (_isExcluded[sender]) {... */\n    tag_259:\n      sub(shl(0xa0, 0x01), 0x01)\n        /* \"shoaib.sol\":3485:3500  _rOwned[sender] */\n      dup3\n      and\n      0x00\n      swap1\n      dup2\n      mstore\n        /* \"shoaib.sol\":3485:3492  _rOwned */\n      0x05\n        /* \"shoaib.sol\":3485:3500  _rOwned[sender] */\n      0x20\n      mstore\n      0x40\n      swap1\n      keccak256\n      sload\n        /* \"shoaib.sol\":3465:3501  tokenFromReflection(_rOwned[sender]) */\n      tag_212\n      swap1\n        /* \"shoaib.sol\":3465:3484  tokenFromReflection */\n      tag_249\n        /* \"shoaib.sol\":3465:3501  tokenFromReflection(_rOwned[sender]) */\n      jump\t// in\n        /* \"shoaib.sol\":4444:4605  function changePairAddress(address _pairAddress) public onlyOwner {... */\n    tag_136:\n        /* \"shoaib.sol\":2269:2275  _owner */\n      sload(0x0b)\n        /* \"shoaib.sol\":2346:2356  msg.sender */\n      caller\n      swap1\n        /* \"shoaib.sol\":2269:2275  _owner */\n      0x0100\n      swap1\n      div\n      sub(shl(0xa0, 0x01), 0x01)\n      and\n      sub(shl(0xa0, 0x01), 0x01)\n        /* \"shoaib.sol\":2335:2356  owner() == msg.sender */\n      and\n      sub\n        /* \"shoaib.sol\":2331:2359  if (owner() == msg.sender) _ */\n      tag_228\n      jumpi\n        /* \"shoaib.sol\":4523:4534  pairAddress */\n      0x15\n        /* \"shoaib.sol\":4523:4549  pairAddress = _pairAddress */\n      dup1\n      sload\n      not(sub(shl(0xa0, 0x01), 0x01))\n      and\n      sub(shl(0xa0, 0x01), 0x01)\n      swap3\n      swap1\n      swap3\n      and\n      swap2\n      dup3\n      or\n      swap1\n      sstore\n      0x00\n        /* \"shoaib.sol\":4562:4588  isWhitelisted[pairAddress] */\n      swap1\n      dup2\n      mstore\n        /* \"shoaib.sol\":4562:4575  isWhitelisted */\n      0x08\n        /* \"shoaib.sol\":4562:4588  isWhitelisted[pairAddress] */\n      0x20\n      mstore\n      0x40\n      swap1\n      keccak256\n        /* \"shoaib.sol\":4562:4595  isWhitelisted[pairAddress] = true */\n      dup1\n      sload\n      not(0xff)\n      and\n      0x01\n      or\n      swap1\n      sstore\n        /* \"shoaib.sol\":4444:4605  function changePairAddress(address _pairAddress) public onlyOwner {... */\n      jump\t// out\n        /* \"@openzeppelin/contracts/token/ERC20/ERC20.sol\":1962:2055  function symbol() public view virtual returns (string memory) {... */\n    tag_143:\n        /* \"@openzeppelin/contracts/token/ERC20/ERC20.sol\":2009:2022  string memory */\n      0x60\n        /* \"@openzeppelin/contracts/token/ERC20/ERC20.sol\":2041:2048  _symbol */\n      0x04\n        /* \"@openzeppelin/contracts/token/ERC20/ERC20.sol\":2034:2048  return _symbol */\n      dup1\n      sload\n      tag_206\n      swap1\n      tag_207\n      jump\t// in\n        /* \"@openzeppelin/contracts/token/ERC20/ERC20.sol\":3296:3474  function transfer(address to, uint256 value) public virtual returns (bool) {... */\n    tag_152:\n        /* \"@openzeppelin/contracts/token/ERC20/ERC20.sol\":3365:3369  bool */\n      0x00\n        /* \"@openzeppelin/contracts/utils/Context.sol\":735:745  msg.sender */\n      caller\n        /* \"@openzeppelin/contracts/token/ERC20/ERC20.sol\":3419:3446  _transfer(owner, to, value) */\n      tag_214\n        /* \"@openzeppelin/contracts/utils/Context.sol\":735:745  msg.sender */\n      dup2\n        /* \"@openzeppelin/contracts/token/ERC20/ERC20.sol\":3436:3438  to */\n      dup6\n        /* \"@openzeppelin/contracts/token/ERC20/ERC20.sol\":3440:3445  value */\n      dup6\n        /* \"@openzeppelin/contracts/token/ERC20/ERC20.sol\":3419:3428  _transfer */\n      tag_223\n        /* \"@openzeppelin/contracts/token/ERC20/ERC20.sol\":3419:3446  _transfer(owner, to, value) */\n      jump\t// in\n        /* \"shoaib.sol\":6961:7154  function whitelistedAddress(address account) public onlyOwner {... */\n    tag_157:\n        /* \"shoaib.sol\":2269:2275  _owner */\n      sload(0x0b)\n        /* \"shoaib.sol\":2346:2356  msg.sender */\n      caller\n      swap1\n        /* \"shoaib.sol\":2269:2275  _owner */\n      0x0100\n      swap1\n      div\n      sub(shl(0xa0, 0x01), 0x01)\n      and\n      sub(shl(0xa0, 0x01), 0x01)\n        /* \"shoaib.sol\":2335:2356  owner() == msg.sender */\n      and\n      sub\n        /* \"shoaib.sol\":2331:2359  if (owner() == msg.sender) _ */\n      tag_228\n      jumpi\n      sub(shl(0xa0, 0x01), 0x01)\n        /* \"shoaib.sol\":7045:7067  isWhitelisted[account] */\n      dup2\n      and\n      0x00\n      swap1\n      dup2\n      mstore\n        /* \"shoaib.sol\":7045:7058  isWhitelisted */\n      0x08\n        /* \"shoaib.sol\":7045:7067  isWhitelisted[account] */\n      0x20\n      mstore\n      0x40\n      swap1\n      keccak256\n      sload\n      0xff\n      and\n        /* \"shoaib.sol\":7044:7067  !isWhitelisted[account] */\n      iszero\n        /* \"shoaib.sol\":7036:7102  require(!isWhitelisted[account], \"Address is already whitelisted\") */\n      tag_281\n      jumpi\n      mload(0x40)\n      shl(0xe5, 0x461bcd)\n      dup2\n      mstore\n        /* \"#utility.yul\":5675:5677   */\n      0x20\n        /* \"shoaib.sol\":7036:7102  require(!isWhitelisted[account], \"Address is already whitelisted\") */\n      0x04\n      dup3\n      add\n        /* \"#utility.yul\":5657:5678   */\n      mstore\n        /* \"#utility.yul\":5714:5716   */\n      0x1e\n        /* \"#utility.yul\":5694:5712   */\n      0x24\n      dup3\n      add\n        /* \"#utility.yul\":5687:5717   */\n      mstore\n        /* \"#utility.yul\":5753:5785   */\n      0x4164647265737320697320616c72656164792077686974656c69737465640000\n        /* \"#utility.yul\":5733:5751   */\n      0x44\n      dup3\n      add\n        /* \"#utility.yul\":5726:5786   */\n      mstore\n        /* \"#utility.yul\":5803:5821   */\n      0x64\n      add\n        /* \"shoaib.sol\":7036:7102  require(!isWhitelisted[account], \"Address is already whitelisted\") */\n      tag_196\n        /* \"#utility.yul\":5473:5827   */\n      jump\n        /* \"shoaib.sol\":7036:7102  require(!isWhitelisted[account], \"Address is already whitelisted\") */\n    tag_281:\n      sub(shl(0xa0, 0x01), 0x01)\n        /* \"shoaib.sol\":7115:7137  isWhitelisted[account] */\n      dup2\n      and\n      0x00\n      swap1\n      dup2\n      mstore\n        /* \"shoaib.sol\":7115:7128  isWhitelisted */\n      0x08\n        /* \"shoaib.sol\":7115:7137  isWhitelisted[account] */\n      0x20\n      mstore\n      0x40\n      swap1\n      keccak256\n        /* \"shoaib.sol\":7115:7144  isWhitelisted[account] = true */\n      dup1\n      sload\n      not(0xff)\n      and\n        /* \"shoaib.sol\":7140:7144  true */\n      0x01\n        /* \"shoaib.sol\":7115:7144  isWhitelisted[account] = true */\n      or\n      swap1\n      sstore\n        /* \"shoaib.sol\":6961:7154  function whitelistedAddress(address account) public onlyOwner {... */\n      pop\n      jump\t// out\n        /* \"shoaib.sol\":3892:4154  function changeMarketingAccount(address newFeeAccount) public onlyOwner {... */\n    tag_161:\n        /* \"shoaib.sol\":2269:2275  _owner */\n      sload(0x0b)\n        /* \"shoaib.sol\":2346:2356  msg.sender */\n      caller\n      swap1\n        /* \"shoaib.sol\":2269:2275  _owner */\n      0x0100\n      swap1\n      div\n      sub(shl(0xa0, 0x01), 0x01)\n      and\n      sub(shl(0xa0, 0x01), 0x01)\n        /* \"shoaib.sol\":2335:2356  owner() == msg.sender */\n      and\n      sub\n        /* \"shoaib.sol\":2331:2359  if (owner() == msg.sender) _ */\n      tag_228\n      jumpi\n      sub(shl(0xa0, 0x01), 0x01)\n        /* \"shoaib.sol\":4001:4028  newFeeAccount != address(0) */\n      dup2\n      and\n        /* \"shoaib.sol\":3977:4098  require(... */\n      tag_288\n      jumpi\n      mload(0x40)\n      shl(0xe5, 0x461bcd)\n      dup2\n      mstore\n      0x04\n      add\n      tag_196\n      swap1\n      tag_257\n      jump\t// in\n    tag_288:\n        /* \"shoaib.sol\":4111:4128  _marketingAccount */\n      0x13\n        /* \"shoaib.sol\":4111:4144  _marketingAccount = newFeeAccount */\n      dup1\n      sload\n      sub(shl(0xa0, 0x01), 0x01)\n      dup4\n      and\n      not(sub(shl(0xa0, 0x01), 0x01))\n      swap1\n      swap2\n      and\n      or\n      swap1\n      sstore\n        /* \"shoaib.sol\":3892:4154  function changeMarketingAccount(address newFeeAccount) public onlyOwner {... */\n      pop\n      jump\t// out\n        /* \"shoaib.sol\":7166:7288  function openTrading() external onlyOwner {... */\n    tag_164:\n        /* \"shoaib.sol\":2269:2275  _owner */\n      sload(0x0b)\n        /* \"shoaib.sol\":2346:2356  msg.sender */\n      caller\n      swap1\n        /* \"shoaib.sol\":2269:2275  _owner */\n      0x0100\n      swap1\n      div\n      sub(shl(0xa0, 0x01), 0x01)\n      and\n      sub(shl(0xa0, 0x01), 0x01)\n        /* \"shoaib.sol\":2335:2356  owner() == msg.sender */\n      and\n      sub\n        /* \"shoaib.sol\":2331:2359  if (owner() == msg.sender) _ */\n      tag_292\n      jumpi\n        /* \"shoaib.sol\":7221:7232  tradingOpen */\n      0x18\n        /* \"shoaib.sol\":7221:7239  tradingOpen = true */\n      dup1\n      sload\n      not(0xff)\n      and\n        /* \"shoaib.sol\":7235:7239  true */\n      0x01\n        /* \"shoaib.sol\":7221:7239  tradingOpen = true */\n      or\n      swap1\n      sstore\n        /* \"shoaib.sol\":7266:7278  block.number */\n      number\n        /* \"shoaib.sol\":7252:7263  launchBlock */\n      0x17\n        /* \"shoaib.sol\":7252:7278  launchBlock = block.number */\n      sstore\n        /* \"shoaib.sol\":2331:2359  if (owner() == msg.sender) _ */\n    tag_292:\n        /* \"shoaib.sol\":7166:7288  function openTrading() external onlyOwner {... */\n      jump\t// out\n        /* \"shoaib.sol\":6307:6811  function includeAccountinReward(address account) public onlyOwner {... */\n    tag_187:\n        /* \"shoaib.sol\":2269:2275  _owner */\n      sload(0x0b)\n        /* \"shoaib.sol\":2346:2356  msg.sender */\n      caller\n      swap1\n        /* \"shoaib.sol\":2269:2275  _owner */\n      0x0100\n      swap1\n      div\n      sub(shl(0xa0, 0x01), 0x01)\n      and\n      sub(shl(0xa0, 0x01), 0x01)\n        /* \"shoaib.sol\":2335:2356  owner() == msg.sender */\n      and\n      sub\n        /* \"shoaib.sol\":2331:2359  if (owner() == msg.sender) _ */\n      tag_228\n      jumpi\n      sub(shl(0xa0, 0x01), 0x01)\n        /* \"shoaib.sol\":6394:6414  _isExcluded[account] */\n      dup2\n      and\n      0x00\n      swap1\n      dup2\n      mstore\n        /* \"shoaib.sol\":6394:6405  _isExcluded */\n      0x09\n        /* \"shoaib.sol\":6394:6414  _isExcluded[account] */\n      0x20\n      mstore\n      0x40\n      swap1\n      keccak256\n      sload\n      0xff\n      and\n        /* \"shoaib.sol\":6386:6446  require(_isExcluded[account], \"Account is already included\") */\n      tag_301\n      jumpi\n      mload(0x40)\n      shl(0xe5, 0x461bcd)\n      dup2\n      mstore\n        /* \"#utility.yul\":6034:6036   */\n      0x20\n        /* \"shoaib.sol\":6386:6446  require(_isExcluded[account], \"Account is already included\") */\n      0x04\n      dup3\n      add\n        /* \"#utility.yul\":6016:6037   */\n      mstore\n        /* \"#utility.yul\":6073:6075   */\n      0x1b\n        /* \"#utility.yul\":6053:6071   */\n      0x24\n      dup3\n      add\n        /* \"#utility.yul\":6046:6076   */\n      mstore\n        /* \"#utility.yul\":6112:6141   */\n      0x4163636f756e7420697320616c726561647920696e636c756465640000000000\n        /* \"#utility.yul\":6092:6110   */\n      0x44\n      dup3\n      add\n        /* \"#utility.yul\":6085:6142   */\n      mstore\n        /* \"#utility.yul\":6159:6177   */\n      0x64\n      add\n        /* \"shoaib.sol\":6386:6446  require(_isExcluded[account], \"Account is already included\") */\n      tag_196\n        /* \"#utility.yul\":5832:6183   */\n      jump\n        /* \"shoaib.sol\":6386:6446  require(_isExcluded[account], \"Account is already included\") */\n    tag_301:\n        /* \"shoaib.sol\":6464:6473  uint256 i */\n      0x00\n        /* \"shoaib.sol\":6459:6802  for (uint256 i = 0; i < _excluded.length; i++) {... */\n    tag_304:\n        /* \"shoaib.sol\":6483:6492  _excluded */\n      0x0a\n        /* \"shoaib.sol\":6483:6499  _excluded.length */\n      sload\n        /* \"shoaib.sol\":6479:6499  i < _excluded.length */\n      dup2\n      lt\n        /* \"shoaib.sol\":6459:6802  for (uint256 i = 0; i < _excluded.length; i++) {... */\n      iszero\n      tag_305\n      jumpi\n        /* \"shoaib.sol\":6543:6550  account */\n      dup2\n      sub(shl(0xa0, 0x01), 0x01)\n        /* \"shoaib.sol\":6527:6550  _excluded[i] == account */\n      and\n        /* \"shoaib.sol\":6527:6536  _excluded */\n      0x0a\n        /* \"shoaib.sol\":6537:6538  i */\n      dup3\n        /* \"shoaib.sol\":6527:6539  _excluded[i] */\n      dup2\n      sload\n      dup2\n      lt\n      tag_308\n      jumpi\n      tag_308\n      tag_309\n      jump\t// in\n    tag_308:\n      0x00\n      swap2\n      dup3\n      mstore\n      0x20\n      swap1\n      swap2\n      keccak256\n      add\n      sload\n      sub(shl(0xa0, 0x01), 0x01)\n      and\n        /* \"shoaib.sol\":6527:6550  _excluded[i] == account */\n      sub\n        /* \"shoaib.sol\":6523:6789  if (_excluded[i] == account) {... */\n      tag_311\n      jumpi\n        /* \"shoaib.sol\":6588:6597  _excluded */\n      0x0a\n        /* \"shoaib.sol\":6598:6614  _excluded.length */\n      dup1\n      sload\n        /* \"shoaib.sol\":6598:6618  _excluded.length - 1 */\n      tag_312\n      swap1\n        /* \"shoaib.sol\":6617:6618  1 */\n      0x01\n      swap1\n        /* \"shoaib.sol\":6598:6618  _excluded.length - 1 */\n      tag_201\n      jump\t// in\n    tag_312:\n        /* \"shoaib.sol\":6588:6619  _excluded[_excluded.length - 1] */\n      dup2\n      sload\n      dup2\n      lt\n      tag_314\n      jumpi\n      tag_314\n      tag_309\n      jump\t// in\n    tag_314:\n      0x00\n      swap2\n      dup3\n      mstore\n      0x20\n      swap1\n      swap2\n      keccak256\n      add\n      sload\n        /* \"shoaib.sol\":6573:6582  _excluded */\n      0x0a\n        /* \"shoaib.sol\":6573:6585  _excluded[i] */\n      dup1\n      sload\n      sub(shl(0xa0, 0x01), 0x01)\n        /* \"shoaib.sol\":6588:6619  _excluded[_excluded.length - 1] */\n      swap1\n      swap3\n      and\n      swap2\n        /* \"shoaib.sol\":6583:6584  i */\n      dup4\n      swap1\n        /* \"shoaib.sol\":6573:6585  _excluded[i] */\n      dup2\n      lt\n      tag_317\n      jumpi\n      tag_317\n      tag_309\n      jump\t// in\n    tag_317:\n      0x00\n      swap2\n      dup3\n      mstore\n      0x20\n      dup1\n      dup4\n      keccak256\n      swap2\n      swap1\n      swap2\n      add\n        /* \"shoaib.sol\":6573:6619  _excluded[i] = _excluded[_excluded.length - 1] */\n      dup1\n      sload\n      not(sub(shl(0xa0, 0x01), 0x01))\n      and\n      sub(shl(0xa0, 0x01), 0x01)\n      swap5\n      dup6\n      and\n      or\n      swap1\n      sstore\n        /* \"shoaib.sol\":6640:6656  _tOwned[account] */\n      swap2\n      dup5\n      and\n      dup2\n      mstore\n        /* \"shoaib.sol\":6640:6647  _tOwned */\n      0x06\n        /* \"shoaib.sol\":6640:6656  _tOwned[account] */\n      dup3\n      mstore\n      0x40\n      dup1\n      dup3\n      keccak256\n        /* \"shoaib.sol\":6640:6660  _tOwned[account] = 0 */\n      dup3\n      swap1\n      sstore\n        /* \"shoaib.sol\":6681:6692  _isExcluded */\n      0x09\n        /* \"shoaib.sol\":6681:6701  _isExcluded[account] */\n      swap1\n      swap3\n      mstore\n      keccak256\n        /* \"shoaib.sol\":6681:6709  _isExcluded[account] = false */\n      dup1\n      sload\n      not(0xff)\n      and\n      swap1\n      sstore\n        /* \"shoaib.sol\":6730:6739  _excluded */\n      0x0a\n        /* \"shoaib.sol\":6730:6745  _excluded.pop() */\n      dup1\n      sload\n      dup1\n      tag_320\n      jumpi\n      tag_320\n      tag_321\n      jump\t// in\n    tag_320:\n      0x00\n      dup3\n      dup2\n      mstore\n      0x20\n      swap1\n      keccak256\n      dup2\n      add\n      not(0x00)\n      swap1\n      dup2\n      add\n      dup1\n      sload\n      not(sub(shl(0xa0, 0x01), 0x01))\n      and\n      swap1\n      sstore\n      add\n      swap1\n      sstore\n        /* \"shoaib.sol\":6459:6802  for (uint256 i = 0; i < _excluded.length; i++) {... */\n      pop\n        /* \"shoaib.sol\":6307:6811  function includeAccountinReward(address account) public onlyOwner {... */\n      pop\n      jump\t// out\n        /* \"shoaib.sol\":6523:6789  if (_excluded[i] == account) {... */\n    tag_311:\n        /* \"shoaib.sol\":6501:6504  i++ */\n      0x01\n      add\n        /* \"shoaib.sol\":6459:6802  for (uint256 i = 0; i < _excluded.length; i++) {... */\n      jump(tag_304)\n    tag_305:\n      pop\n        /* \"shoaib.sol\":6307:6811  function includeAccountinReward(address account) public onlyOwner {... */\n      pop\n      jump\t// out\n        /* \"shoaib.sol\":13170:13755  function _getTransferValues(uint256 tAmount)... */\n    tag_199:\n        /* \"shoaib.sol\":13286:13293  uint256 */\n      0x00\n        /* \"shoaib.sol\":13310:13317  uint256 */\n      0x00\n        /* \"shoaib.sol\":13334:13341  uint256 */\n      0x00\n        /* \"shoaib.sol\":13358:13365  uint256 */\n      0x00\n        /* \"shoaib.sol\":13399:13415  uint256 taxValue */\n      0x00\n        /* \"shoaib.sol\":13418:13447  _getCompleteTaxValue(tAmount) */\n      tag_325\n        /* \"shoaib.sol\":13439:13446  tAmount */\n      dup7\n        /* \"shoaib.sol\":13418:13438  _getCompleteTaxValue */\n      tag_326\n        /* \"shoaib.sol\":13418:13447  _getCompleteTaxValue(tAmount) */\n      jump\t// in\n    tag_325:\n        /* \"shoaib.sol\":13399:13447  uint256 taxValue = _getCompleteTaxValue(tAmount) */\n      swap1\n      pop\n        /* \"shoaib.sol\":13460:13483  uint256 tTransferAmount */\n      0x00\n        /* \"shoaib.sol\":13486:13504  tAmount - taxValue */\n      tag_327\n        /* \"shoaib.sol\":13399:13447  uint256 taxValue = _getCompleteTaxValue(tAmount) */\n      dup3\n        /* \"shoaib.sol\":13486:13493  tAmount */\n      dup9\n        /* \"shoaib.sol\":13486:13504  tAmount - taxValue */\n      tag_201\n      jump\t// in\n    tag_327:\n        /* \"shoaib.sol\":13460:13504  uint256 tTransferAmount = tAmount - taxValue */\n      swap1\n      pop\n        /* \"shoaib.sol\":13517:13536  uint256 currentRate */\n      0x00\n        /* \"shoaib.sol\":13539:13549  _getRate() */\n      tag_328\n        /* \"shoaib.sol\":13539:13547  _getRate */\n      tag_329\n        /* \"shoaib.sol\":13539:13549  _getRate() */\n      jump\t// in\n    tag_328:\n        /* \"shoaib.sol\":13517:13549  uint256 currentRate = _getRate() */\n      swap1\n      pop\n        /* \"shoaib.sol\":13562:13585  uint256 rTransferAmount */\n      0x00\n        /* \"shoaib.sol\":13588:13617  tTransferAmount * currentRate */\n      tag_330\n        /* \"shoaib.sol\":13517:13549  uint256 currentRate = _getRate() */\n      dup3\n        /* \"shoaib.sol\":13588:13603  tTransferAmount */\n      dup5\n        /* \"shoaib.sol\":13588:13617  tTransferAmount * currentRate */\n      tag_331\n      jump\t// in\n    tag_330:\n        /* \"shoaib.sol\":13562:13617  uint256 rTransferAmount = tTransferAmount * currentRate */\n      swap1\n      pop\n        /* \"shoaib.sol\":13630:13645  uint256 rAmount */\n      0x00\n        /* \"shoaib.sol\":13648:13669  tAmount * currentRate */\n      tag_332\n        /* \"shoaib.sol\":13658:13669  currentRate */\n      dup4\n        /* \"shoaib.sol\":13648:13655  tAmount */\n      dup12\n        /* \"shoaib.sol\":13648:13669  tAmount * currentRate */\n      tag_331\n      jump\t// in\n    tag_332:\n        /* \"shoaib.sol\":13630:13669  uint256 rAmount = tAmount * currentRate */\n      swap11\n        /* \"shoaib.sol\":13699:13714  rTransferAmount */\n      swap2\n      swap10\n      pop\n        /* \"shoaib.sol\":13716:13731  tTransferAmount */\n      swap3\n      swap8\n      pop\n        /* \"shoaib.sol\":13733:13744  currentRate */\n      swap1\n      swap6\n      pop\n        /* \"shoaib.sol\":13170:13755  function _getTransferValues(uint256 tAmount)... */\n      swap4\n      pop\n      pop\n      pop\n      pop\n      jump\t// out\n        /* \"@openzeppelin/contracts/token/ERC20/ERC20.sol\":8715:8843  function _approve(address owner, address spender, uint256 value) internal {... */\n    tag_215:\n        /* \"@openzeppelin/contracts/token/ERC20/ERC20.sol\":8799:8836  _approve(owner, spender, value, true) */\n      tag_334\n        /* \"@openzeppelin/contracts/token/ERC20/ERC20.sol\":8808:8813  owner */\n      dup4\n        /* \"@openzeppelin/contracts/token/ERC20/ERC20.sol\":8815:8822  spender */\n      dup4\n        /* \"@openzeppelin/contracts/token/ERC20/ERC20.sol\":8824:8829  value */\n      dup4\n        /* \"@openzeppelin/contracts/token/ERC20/ERC20.sol\":8831:8835  true */\n      0x01\n        /* \"@openzeppelin/contracts/token/ERC20/ERC20.sol\":8799:8807  _approve */\n      tag_335\n        /* \"@openzeppelin/contracts/token/ERC20/ERC20.sol\":8799:8836  _approve(owner, spender, value, true) */\n      jump\t// in\n    tag_334:\n        /* \"@openzeppelin/contracts/token/ERC20/ERC20.sol\":8715:8843  function _approve(address owner, address spender, uint256 value) internal {... */\n      pop\n      pop\n      pop\n      jump\t// out\n        /* \"@openzeppelin/contracts/token/ERC20/ERC20.sol\":10404:10880  function _spendAllowance(address owner, address spender, uint256 value) internal virtual {... */\n    tag_221:\n      sub(shl(0xa0, 0x01), 0x01)\n        /* \"@openzeppelin/contracts/token/ERC20/ERC20.sol\":3638:3656  _allowances[owner] */\n      dup4\n      dup2\n      and\n        /* \"@openzeppelin/contracts/token/ERC20/ERC20.sol\":10503:10527  uint256 currentAllowance */\n      0x00\n        /* \"@openzeppelin/contracts/token/ERC20/ERC20.sol\":3638:3656  _allowances[owner] */\n      swap1\n      dup2\n      mstore\n        /* \"@openzeppelin/contracts/token/ERC20/ERC20.sol\":3638:3649  _allowances */\n      0x01\n        /* \"@openzeppelin/contracts/token/ERC20/ERC20.sol\":3638:3656  _allowances[owner] */\n      0x20\n      swap1\n      dup2\n      mstore\n      0x40\n      dup1\n      dup4\n      keccak256\n        /* \"@openzeppelin/contracts/token/ERC20/ERC20.sol\":3638:3665  _allowances[owner][spender] */\n      swap4\n      dup7\n      and\n      dup4\n      mstore\n      swap3\n      swap1\n      mstore\n      keccak256\n      sload\n      not(0x00)\n        /* \"@openzeppelin/contracts/token/ERC20/ERC20.sol\":10569:10605  currentAllowance < type(uint256).max */\n      dup2\n      lt\n        /* \"@openzeppelin/contracts/token/ERC20/ERC20.sol\":10565:10874  if (currentAllowance < type(uint256).max) {... */\n      iszero\n      tag_342\n      jumpi\n        /* \"@openzeppelin/contracts/token/ERC20/ERC20.sol\":10644:10649  value */\n      dup2\n        /* \"@openzeppelin/contracts/token/ERC20/ERC20.sol\":10625:10641  currentAllowance */\n      dup2\n        /* \"@openzeppelin/contracts/token/ERC20/ERC20.sol\":10625:10649  currentAllowance < value */\n      lt\n        /* \"@openzeppelin/contracts/token/ERC20/ERC20.sol\":10621:10751  if (currentAllowance < value) {... */\n      iszero\n      tag_339\n      jumpi\n        /* \"@openzeppelin/contracts/token/ERC20/ERC20.sol\":10676:10736  ERC20InsufficientAllowance(spender, currentAllowance, value) */\n      mload(0x40)\n      shl(0xe1, 0x7dc7a0d9)\n      dup2\n      mstore\n      sub(shl(0xa0, 0x01), 0x01)\n        /* \"#utility.yul\":6845:6877   */\n      dup5\n      and\n        /* \"@openzeppelin/contracts/token/ERC20/ERC20.sol\":10676:10736  ERC20InsufficientAllowance(spender, currentAllowance, value) */\n      0x04\n      dup3\n      add\n        /* \"#utility.yul\":6827:6878   */\n      mstore\n        /* \"#utility.yul\":6894:6912   */\n      0x24\n      dup2\n      add\n        /* \"#utility.yul\":6887:6921   */\n      dup3\n      swap1\n      mstore\n        /* \"#utility.yul\":6937:6955   */\n      0x44\n      dup2\n      add\n        /* \"#utility.yul\":6930:6964   */\n      dup4\n      swap1\n      mstore\n        /* \"#utility.yul\":6800:6818   */\n      0x64\n      add\n        /* \"@openzeppelin/contracts/token/ERC20/ERC20.sol\":10676:10736  ERC20InsufficientAllowance(spender, currentAllowance, value) */\n      tag_196\n        /* \"#utility.yul\":6625:6970   */\n      jump\n        /* \"@openzeppelin/contracts/token/ERC20/ERC20.sol\":10621:10751  if (currentAllowance < value) {... */\n    tag_339:\n        /* \"@openzeppelin/contracts/token/ERC20/ERC20.sol\":10792:10849  _approve(owner, spender, currentAllowance - value, false) */\n      tag_342\n        /* \"@openzeppelin/contracts/token/ERC20/ERC20.sol\":10801:10806  owner */\n      dup5\n        /* \"@openzeppelin/contracts/token/ERC20/ERC20.sol\":10808:10815  spender */\n      dup5\n        /* \"@openzeppelin/contracts/token/ERC20/ERC20.sol\":10836:10841  value */\n      dup5\n        /* \"@openzeppelin/contracts/token/ERC20/ERC20.sol\":10817:10833  currentAllowance */\n      dup5\n        /* \"@openzeppelin/contracts/token/ERC20/ERC20.sol\":10817:10841  currentAllowance - value */\n      sub\n        /* \"@openzeppelin/contracts/token/ERC20/ERC20.sol\":10843:10848  false */\n      0x00\n        /* \"@openzeppelin/contracts/token/ERC20/ERC20.sol\":10792:10800  _approve */\n      tag_335\n        /* \"@openzeppelin/contracts/token/ERC20/ERC20.sol\":10792:10849  _approve(owner, spender, currentAllowance - value, false) */\n      jump\t// in\n    tag_342:\n        /* \"@openzeppelin/contracts/token/ERC20/ERC20.sol\":10493:10880  {... */\n      pop\n        /* \"@openzeppelin/contracts/token/ERC20/ERC20.sol\":10404:10880  function _spendAllowance(address owner, address spender, uint256 value) internal virtual {... */\n      pop\n      pop\n      pop\n      jump\t// out\n        /* \"shoaib.sol\":7706:8726  function _transfer(... */\n    tag_223:\n        /* \"shoaib.sol\":7370:7381  tradingOpen */\n      sload(0x18)\n        /* \"shoaib.sol\":7861:7867  sender */\n      dup4\n      swap1\n        /* \"shoaib.sol\":7869:7878  recipient */\n      dup4\n      swap1\n        /* \"shoaib.sol\":7370:7381  tradingOpen */\n      0xff\n      and\n        /* \"shoaib.sol\":7365:7671  if (!tradingOpen) {... */\n      tag_344\n      jumpi\n      sub(shl(0xa0, 0x01), 0x01)\n        /* \"shoaib.sol\":7408:7427  isWhitelisted[from] */\n      dup3\n      and\n      0x00\n      swap1\n      dup2\n      mstore\n        /* \"shoaib.sol\":7408:7421  isWhitelisted */\n      0x08\n        /* \"shoaib.sol\":7408:7427  isWhitelisted[from] */\n      0x20\n      mstore\n      0x40\n      swap1\n      keccak256\n      sload\n      0xff\n      and\n        /* \"shoaib.sol\":7400:7455  require(isWhitelisted[from], \"Trading not yet enabled\") */\n      tag_345\n      jumpi\n      mload(0x40)\n      shl(0xe5, 0x461bcd)\n      dup2\n      mstore\n        /* \"#utility.yul\":7177:7179   */\n      0x20\n        /* \"shoaib.sol\":7400:7455  require(isWhitelisted[from], \"Trading not yet enabled\") */\n      0x04\n      dup3\n      add\n        /* \"#utility.yul\":7159:7180   */\n      mstore\n        /* \"#utility.yul\":7216:7218   */\n      0x17\n        /* \"#utility.yul\":7196:7214   */\n      0x24\n      dup3\n      add\n        /* \"#utility.yul\":7189:7219   */\n      mstore\n        /* \"#utility.yul\":7255:7280   */\n      0x54726164696e67206e6f742079657420656e61626c6564000000000000000000\n        /* \"#utility.yul\":7235:7253   */\n      0x44\n      dup3\n      add\n        /* \"#utility.yul\":7228:7281   */\n      mstore\n        /* \"#utility.yul\":7298:7316   */\n      0x64\n      add\n        /* \"shoaib.sol\":7400:7455  require(isWhitelisted[from], \"Trading not yet enabled\") */\n      tag_196\n        /* \"#utility.yul\":6975:7322   */\n      jump\n        /* \"shoaib.sol\":7400:7455  require(isWhitelisted[from], \"Trading not yet enabled\") */\n    tag_345:\n        /* \"shoaib.sol\":7365:7671  if (!tradingOpen) {... */\n      jump(tag_351)\n    tag_344:\n        /* \"shoaib.sol\":7495:7506  launchBlock */\n      sload(0x17)\n        /* \"shoaib.sol\":7495:7510  launchBlock + 3 */\n      tag_349\n      swap1\n        /* \"shoaib.sol\":7509:7510  3 */\n      0x03\n        /* \"shoaib.sol\":7495:7510  launchBlock + 3 */\n      tag_204\n      jump\t// in\n    tag_349:\n        /* \"shoaib.sol\":7479:7491  block.number */\n      number\n        /* \"shoaib.sol\":7479:7510  block.number <= launchBlock + 3 */\n      gt\n        /* \"shoaib.sol\":7475:7671  if (block.number <= launchBlock + 3) {... */\n      tag_351\n      jumpi\n      sub(shl(0xa0, 0x01), 0x01)\n        /* \"shoaib.sol\":7601:7618  isWhitelisted[to] */\n      dup2\n      and\n      0x00\n      swap1\n      dup2\n      mstore\n        /* \"shoaib.sol\":7601:7614  isWhitelisted */\n      0x08\n        /* \"shoaib.sol\":7601:7618  isWhitelisted[to] */\n      0x20\n      mstore\n      0x40\n      swap1\n      keccak256\n      sload\n      0xff\n      and\n        /* \"shoaib.sol\":7593:7657  require(isWhitelisted[to], \"Launch protection: not whitelisted\") */\n      tag_351\n      jumpi\n      mload(0x40)\n      shl(0xe5, 0x461bcd)\n      dup2\n      mstore\n        /* \"#utility.yul\":7529:7531   */\n      0x20\n        /* \"shoaib.sol\":7593:7657  require(isWhitelisted[to], \"Launch protection: not whitelisted\") */\n      0x04\n      dup3\n      add\n        /* \"#utility.yul\":7511:7532   */\n      mstore\n        /* \"#utility.yul\":7568:7570   */\n      0x22\n        /* \"#utility.yul\":7548:7566   */\n      0x24\n      dup3\n      add\n        /* \"#utility.yul\":7541:7571   */\n      mstore\n        /* \"#utility.yul\":7607:7641   */\n      0x4c61756e63682070726f74656374696f6e3a206e6f742077686974656c697374\n        /* \"#utility.yul\":7587:7605   */\n      0x44\n      dup3\n      add\n        /* \"#utility.yul\":7580:7642   */\n      mstore\n      shl(0xf2, 0x1959)\n        /* \"#utility.yul\":7658:7676   */\n      0x64\n      dup3\n      add\n        /* \"#utility.yul\":7651:7683   */\n      mstore\n        /* \"#utility.yul\":7700:7719   */\n      0x84\n      add\n        /* \"shoaib.sol\":7593:7657  require(isWhitelisted[to], \"Launch protection: not whitelisted\") */\n      tag_196\n        /* \"#utility.yul\":7327:7725   */\n      jump\n        /* \"shoaib.sol\":7593:7657  require(isWhitelisted[to], \"Launch protection: not whitelisted\") */\n    tag_351:\n      sub(shl(0xa0, 0x01), 0x01)\n        /* \"shoaib.sol\":7901:7921  sender != address(0) */\n      dup6\n      and\n        /* \"shoaib.sol\":7893:7963  require(sender != address(0), \"ERC20: transfer from the zero address\") */\n      tag_355\n      jumpi\n      mload(0x40)\n      shl(0xe5, 0x461bcd)\n      dup2\n      mstore\n        /* \"#utility.yul\":7932:7934   */\n      0x20\n        /* \"shoaib.sol\":7893:7963  require(sender != address(0), \"ERC20: transfer from the zero address\") */\n      0x04\n      dup3\n      add\n        /* \"#utility.yul\":7914:7935   */\n      mstore\n        /* \"#utility.yul\":7971:7973   */\n      0x25\n        /* \"#utility.yul\":7951:7969   */\n      0x24\n      dup3\n      add\n        /* \"#utility.yul\":7944:7974   */\n      mstore\n        /* \"#utility.yul\":8010:8044   */\n      0x45524332303a207472616e736665722066726f6d20746865207a65726f206164\n        /* \"#utility.yul\":7990:8008   */\n      0x44\n      dup3\n      add\n        /* \"#utility.yul\":7983:8045   */\n      mstore\n      shl(0xd8, 0x6472657373)\n        /* \"#utility.yul\":8061:8079   */\n      0x64\n      dup3\n      add\n        /* \"#utility.yul\":8054:8089   */\n      mstore\n        /* \"#utility.yul\":8106:8125   */\n      0x84\n      add\n        /* \"shoaib.sol\":7893:7963  require(sender != address(0), \"ERC20: transfer from the zero address\") */\n      tag_196\n        /* \"#utility.yul\":7730:8131   */\n      jump\n        /* \"shoaib.sol\":7893:7963  require(sender != address(0), \"ERC20: transfer from the zero address\") */\n    tag_355:\n      sub(shl(0xa0, 0x01), 0x01)\n        /* \"shoaib.sol\":7984:8007  recipient != address(0) */\n      dup5\n      and\n        /* \"shoaib.sol\":7976:8047  require(recipient != address(0), \"ERC20: transfer to the zero address\") */\n      tag_358\n      jumpi\n      mload(0x40)\n      shl(0xe5, 0x461bcd)\n      dup2\n      mstore\n        /* \"#utility.yul\":8338:8340   */\n      0x20\n        /* \"shoaib.sol\":7976:8047  require(recipient != address(0), \"ERC20: transfer to the zero address\") */\n      0x04\n      dup3\n      add\n        /* \"#utility.yul\":8320:8341   */\n      mstore\n        /* \"#utility.yul\":8377:8379   */\n      0x23\n        /* \"#utility.yul\":8357:8375   */\n      0x24\n      dup3\n      add\n        /* \"#utility.yul\":8350:8380   */\n      mstore\n        /* \"#utility.yul\":8416:8450   */\n      0x45524332303a207472616e7366657220746f20746865207a65726f2061646472\n        /* \"#utility.yul\":8396:8414   */\n      0x44\n      dup3\n      add\n        /* \"#utility.yul\":8389:8451   */\n      mstore\n      shl(0xe8, 0x657373)\n        /* \"#utility.yul\":8467:8485   */\n      0x64\n      dup3\n      add\n        /* \"#utility.yul\":8460:8493   */\n      mstore\n        /* \"#utility.yul\":8510:8529   */\n      0x84\n      add\n        /* \"shoaib.sol\":7976:8047  require(recipient != address(0), \"ERC20: transfer to the zero address\") */\n      tag_196\n        /* \"#utility.yul\":8136:8535   */\n      jump\n        /* \"shoaib.sol\":7976:8047  require(recipient != address(0), \"ERC20: transfer to the zero address\") */\n    tag_358:\n        /* \"shoaib.sol\":8060:8081  uint256 senderBalance */\n      0x00\n        /* \"shoaib.sol\":8084:8101  balanceOf(sender) */\n      tag_361\n        /* \"shoaib.sol\":8094:8100  sender */\n      dup7\n        /* \"shoaib.sol\":8084:8093  balanceOf */\n      tag_123\n        /* \"shoaib.sol\":8084:8101  balanceOf(sender) */\n      jump\t// in\n    tag_361:\n        /* \"shoaib.sol\":8060:8101  uint256 senderBalance = balanceOf(sender) */\n      swap1\n      pop\n        /* \"shoaib.sol\":8155:8161  amount */\n      dup4\n        /* \"shoaib.sol\":8138:8151  senderBalance */\n      dup2\n        /* \"shoaib.sol\":8138:8161  senderBalance >= amount */\n      lt\n      iszero\n        /* \"shoaib.sol\":8114:8231  require(... */\n      tag_362\n      jumpi\n      mload(0x40)\n      shl(0xe5, 0x461bcd)\n      dup2\n      mstore\n        /* \"#utility.yul\":8742:8744   */\n      0x20\n        /* \"shoaib.sol\":8114:8231  require(... */\n      0x04\n      dup3\n      add\n        /* \"#utility.yul\":8724:8745   */\n      mstore\n        /* \"#utility.yul\":8781:8783   */\n      0x26\n        /* \"#utility.yul\":8761:8779   */\n      0x24\n      dup3\n      add\n        /* \"#utility.yul\":8754:8784   */\n      mstore\n        /* \"#utility.yul\":8820:8854   */\n      0x45524332303a207472616e7366657220616d6f756e7420657863656564732062\n        /* \"#utility.yul\":8800:8818   */\n      0x44\n      dup3\n      add\n        /* \"#utility.yul\":8793:8855   */\n      mstore\n      shl(0xd0, 0x616c616e6365)\n        /* \"#utility.yul\":8871:8889   */\n      0x64\n      dup3\n      add\n        /* \"#utility.yul\":8864:8900   */\n      mstore\n        /* \"#utility.yul\":8917:8936   */\n      0x84\n      add\n        /* \"shoaib.sol\":8114:8231  require(... */\n      tag_196\n        /* \"#utility.yul\":8540:8942   */\n      jump\n        /* \"shoaib.sol\":8114:8231  require(... */\n    tag_362:\n      sub(shl(0xa0, 0x01), 0x01)\n        /* \"shoaib.sol\":3162:3189  _isExcludedFromFee[account] */\n      dup6\n      and\n        /* \"shoaib.sol\":3136:3140  bool */\n      0x00\n        /* \"shoaib.sol\":3162:3189  _isExcludedFromFee[account] */\n      swap1\n      dup2\n      mstore\n        /* \"shoaib.sol\":3162:3180  _isExcludedFromFee */\n      0x07\n        /* \"shoaib.sol\":3162:3189  _isExcludedFromFee[account] */\n      0x20\n      mstore\n      0x40\n      swap1\n      keccak256\n      sload\n      0xff\n      and\n        /* \"shoaib.sol\":8248:8446  if (!isExcludedFromFee(recipient)) {... */\n      tag_369\n      jumpi\n        /* \"shoaib.sol\":8361:8376  maxWalletAmount */\n      sload(0x16)\n        /* \"shoaib.sol\":8351:8357  amount */\n      dup5\n        /* \"shoaib.sol\":8328:8348  balanceOf(recipient) */\n      tag_367\n        /* \"shoaib.sol\":8338:8347  recipient */\n      dup8\n        /* \"shoaib.sol\":8328:8337  balanceOf */\n      tag_123\n        /* \"shoaib.sol\":8328:8348  balanceOf(recipient) */\n      jump\t// in\n    tag_367:\n        /* \"shoaib.sol\":8328:8357  balanceOf(recipient) + amount */\n      tag_368\n      swap2\n      swap1\n      tag_204\n      jump\t// in\n    tag_368:\n        /* \"shoaib.sol\":8328:8376  balanceOf(recipient) + amount <= maxWalletAmount */\n      gt\n      iszero\n        /* \"shoaib.sol\":8300:8432  require(... */\n      tag_369\n      jumpi\n      mload(0x40)\n      shl(0xe5, 0x461bcd)\n      dup2\n      mstore\n        /* \"#utility.yul\":9149:9151   */\n      0x20\n        /* \"shoaib.sol\":8300:8432  require(... */\n      0x04\n      dup3\n      add\n        /* \"#utility.yul\":9131:9152   */\n      mstore\n        /* \"#utility.yul\":9188:9190   */\n      0x10\n        /* \"#utility.yul\":9168:9186   */\n      0x24\n      dup3\n      add\n        /* \"#utility.yul\":9161:9191   */\n      mstore\n      shl(0x80, 0x5768616c652064657465637465642121)\n        /* \"#utility.yul\":9207:9225   */\n      0x44\n      dup3\n      add\n        /* \"#utility.yul\":9200:9246   */\n      mstore\n        /* \"#utility.yul\":9263:9281   */\n      0x64\n      add\n        /* \"shoaib.sol\":8300:8432  require(... */\n      tag_196\n        /* \"#utility.yul\":8947:9287   */\n      jump\n        /* \"shoaib.sol\":8300:8432  require(... */\n    tag_369:\n        /* \"shoaib.sol\":8501:8512  pairAddress */\n      sload(0x15)\n        /* \"shoaib.sol\":8458:8470  bool takeFee */\n      0x00\n      swap1\n      sub(shl(0xa0, 0x01), 0x01)\n        /* \"shoaib.sol\":8491:8512  sender == pairAddress */\n      dup9\n      dup2\n      and\n        /* \"shoaib.sol\":8501:8512  pairAddress */\n      swap2\n      and\n        /* \"shoaib.sol\":8491:8512  sender == pairAddress */\n      eq\n      dup1\n        /* \"shoaib.sol\":8491:8540  sender == pairAddress || recipient == pairAddress */\n      tag_372\n      jumpi\n      pop\n        /* \"shoaib.sol\":8529:8540  pairAddress */\n      sload(0x15)\n      sub(shl(0xa0, 0x01), 0x01)\n        /* \"shoaib.sol\":8516:8540  recipient == pairAddress */\n      dup8\n      dup2\n      and\n        /* \"shoaib.sol\":8529:8540  pairAddress */\n      swap2\n      and\n        /* \"shoaib.sol\":8516:8540  recipient == pairAddress */\n      eq\n        /* \"shoaib.sol\":8491:8540  sender == pairAddress || recipient == pairAddress */\n    tag_372:\n        /* \"shoaib.sol\":8487:8587  if (sender == pairAddress || recipient == pairAddress) {... */\n      iszero\n      tag_373\n      jumpi\n      pop\n        /* \"shoaib.sol\":8569:8573  true */\n      0x01\n        /* \"shoaib.sol\":8487:8587  if (sender == pairAddress || recipient == pairAddress) {... */\n    tag_373:\n      sub(shl(0xa0, 0x01), 0x01)\n        /* \"shoaib.sol\":3162:3189  _isExcludedFromFee[account] */\n      dup8\n      and\n        /* \"shoaib.sol\":3136:3140  bool */\n      0x00\n        /* \"shoaib.sol\":3162:3189  _isExcludedFromFee[account] */\n      swap1\n      dup2\n      mstore\n        /* \"shoaib.sol\":3162:3180  _isExcludedFromFee */\n      0x07\n        /* \"shoaib.sol\":3162:3189  _isExcludedFromFee[account] */\n      0x20\n      mstore\n      0x40\n      swap1\n      keccak256\n      sload\n      0xff\n      and\n        /* \"shoaib.sol\":8603:8650  if(isExcludedFromFee(sender)){takeFee = false;} */\n      iszero\n      tag_375\n      jumpi\n      pop\n        /* \"shoaib.sol\":8643:8648  false */\n      0x00\n        /* \"shoaib.sol\":8603:8650  if(isExcludedFromFee(sender)){takeFee = false;} */\n    tag_375:\n        /* \"shoaib.sol\":8666:8716  _tokenTransfer(sender, recipient, amount, takeFee) */\n      tag_376\n        /* \"shoaib.sol\":8681:8687  sender */\n      dup8\n        /* \"shoaib.sol\":8689:8698  recipient */\n      dup8\n        /* \"shoaib.sol\":8700:8706  amount */\n      dup8\n        /* \"shoaib.sol\":8708:8715  takeFee */\n      dup5\n        /* \"shoaib.sol\":8666:8680  _tokenTransfer */\n      tag_377\n        /* \"shoaib.sol\":8666:8716  _tokenTransfer(sender, recipient, amount, takeFee) */\n      jump\t// in\n    tag_376:\n        /* \"shoaib.sol\":7880:8726  {... */\n      pop\n      pop\n        /* \"shoaib.sol\":7706:8726  function _transfer(... */\n      pop\n      pop\n      pop\n      pop\n      pop\n      jump\t// out\n        /* \"shoaib.sol\":5588:5930  function tokenFromReflection(uint256 rAmount)... */\n    tag_249:\n        /* \"shoaib.sol\":5689:5696  uint256 */\n      0x00\n        /* \"shoaib.sol\":5753:5760  _rTotal */\n      sload(0x0d)\n        /* \"shoaib.sol\":5742:5749  rAmount */\n      dup3\n        /* \"shoaib.sol\":5742:5760  rAmount <= _rTotal */\n      gt\n      iszero\n        /* \"shoaib.sol\":5718:5834  require(... */\n      tag_379\n      jumpi\n      mload(0x40)\n      shl(0xe5, 0x461bcd)\n      dup2\n      mstore\n        /* \"#utility.yul\":9494:9496   */\n      0x20\n        /* \"shoaib.sol\":5718:5834  require(... */\n      0x04\n      dup3\n      add\n        /* \"#utility.yul\":9476:9497   */\n      mstore\n        /* \"#utility.yul\":9533:9535   */\n      0x2a\n        /* \"#utility.yul\":9513:9531   */\n      0x24\n      dup3\n      add\n        /* \"#utility.yul\":9506:9536   */\n      mstore\n        /* \"#utility.yul\":9572:9606   */\n      0x416d6f756e74206d757374206265206c657373207468616e20746f74616c2072\n        /* \"#utility.yul\":9552:9570   */\n      0x44\n      dup3\n      add\n        /* \"#utility.yul\":9545:9607   */\n      mstore\n      shl(0xb0, 0x65666c656374696f6e73)\n        /* \"#utility.yul\":9623:9641   */\n      0x64\n      dup3\n      add\n        /* \"#utility.yul\":9616:9656   */\n      mstore\n        /* \"#utility.yul\":9673:9692   */\n      0x84\n      add\n        /* \"shoaib.sol\":5718:5834  require(... */\n      tag_196\n        /* \"#utility.yul\":9292:9698   */\n      jump\n        /* \"shoaib.sol\":5718:5834  require(... */\n    tag_379:\n        /* \"shoaib.sol\":5847:5866  uint256 currentRate */\n      0x00\n        /* \"shoaib.sol\":5869:5879  _getRate() */\n      tag_382\n        /* \"shoaib.sol\":5869:5877  _getRate */\n      tag_329\n        /* \"shoaib.sol\":5869:5879  _getRate() */\n      jump\t// in\n    tag_382:\n        /* \"shoaib.sol\":5847:5879  uint256 currentRate = _getRate() */\n      swap1\n      pop\n        /* \"shoaib.sol\":5899:5920  rAmount / currentRate */\n      tag_383\n        /* \"shoaib.sol\":5847:5879  uint256 currentRate = _getRate() */\n      dup2\n        /* \"shoaib.sol\":5899:5906  rAmount */\n      dup5\n        /* \"shoaib.sol\":5899:5920  rAmount / currentRate */\n      tag_384\n      jump\t// in\n    tag_383:\n        /* \"shoaib.sol\":5892:5920  return rAmount / currentRate */\n      swap4\n        /* \"shoaib.sol\":5588:5930  function tokenFromReflection(uint256 rAmount)... */\n      swap3\n      pop\n      pop\n      pop\n      jump\t// out\n        /* \"shoaib.sol\":12888:13158  function _getCompleteTaxValue(uint256 tAmount)... */\n    tag_326:\n        /* \"shoaib.sol\":12990:12997  uint256 */\n      0x00\n        /* \"shoaib.sol\":13019:13035  uint256 allTaxes */\n      0x00\n        /* \"shoaib.sol\":13055:13062  _taxFee */\n      sload(0x11)\n        /* \"shoaib.sol\":13038:13052  _reflectionFee */\n      sload(0x0f)\n        /* \"shoaib.sol\":13038:13062  _reflectionFee + _taxFee */\n      tag_386\n      swap2\n      swap1\n      tag_204\n      jump\t// in\n    tag_386:\n        /* \"shoaib.sol\":13019:13062  uint256 allTaxes = _reflectionFee + _taxFee */\n      swap1\n      pop\n        /* \"shoaib.sol\":13075:13091  uint256 taxValue */\n      0x00\n        /* \"shoaib.sol\":13117:13120  100 */\n      0x64\n        /* \"shoaib.sol\":13095:13113  tAmount * allTaxes */\n      tag_387\n        /* \"shoaib.sol\":13019:13062  uint256 allTaxes = _reflectionFee + _taxFee */\n      dup4\n        /* \"shoaib.sol\":13095:13102  tAmount */\n      dup7\n        /* \"shoaib.sol\":13095:13113  tAmount * allTaxes */\n      tag_331\n      jump\t// in\n    tag_387:\n        /* \"shoaib.sol\":13094:13120  (tAmount * allTaxes) / 100 */\n      tag_388\n      swap2\n      swap1\n      tag_384\n      jump\t// in\n    tag_388:\n        /* \"shoaib.sol\":13075:13120  uint256 taxValue = (tAmount * allTaxes) / 100 */\n      swap5\n        /* \"shoaib.sol\":12888:13158  function _getCompleteTaxValue(uint256 tAmount)... */\n      swap4\n      pop\n      pop\n      pop\n      pop\n      jump\t// out\n        /* \"shoaib.sol\":14046:14213  function _getRate() private view returns (uint256) {... */\n    tag_329:\n        /* \"shoaib.sol\":14088:14095  uint256 */\n      0x00\n        /* \"shoaib.sol\":14111:14126  uint256 rSupply */\n      0x00\n        /* \"shoaib.sol\":14128:14143  uint256 tSupply */\n      0x00\n        /* \"shoaib.sol\":14147:14166  _getCurrentSupply() */\n      tag_390\n        /* \"shoaib.sol\":14147:14164  _getCurrentSupply */\n      tag_391\n        /* \"shoaib.sol\":14147:14166  _getCurrentSupply() */\n      jump\t// in\n    tag_390:\n        /* \"shoaib.sol\":14110:14166  (uint256 rSupply, uint256 tSupply) = _getCurrentSupply() */\n      swap1\n      swap3\n      pop\n      swap1\n      pop\n        /* \"shoaib.sol\":14186:14203  rSupply / tSupply */\n      tag_392\n        /* \"shoaib.sol\":14110:14166  (uint256 rSupply, uint256 tSupply) = _getCurrentSupply() */\n      dup2\n      dup4\n        /* \"shoaib.sol\":14186:14203  rSupply / tSupply */\n      tag_384\n      jump\t// in\n    tag_392:\n        /* \"shoaib.sol\":14179:14203  return rSupply / tSupply */\n      swap3\n      pop\n      pop\n      pop\n        /* \"shoaib.sol\":14046:14213  function _getRate() private view returns (uint256) {... */\n      swap1\n      jump\t// out\n        /* \"@openzeppelin/contracts/token/ERC20/ERC20.sol\":9690:10122  function _approve(address owner, address spender, uint256 value, bool emitEvent) internal virtual {... */\n    tag_335:\n      sub(shl(0xa0, 0x01), 0x01)\n        /* \"@openzeppelin/contracts/token/ERC20/ERC20.sol\":9802:9821  owner == address(0) */\n      dup5\n      and\n        /* \"@openzeppelin/contracts/token/ERC20/ERC20.sol\":9798:9887  if (owner == address(0)) {... */\n      tag_394\n      jumpi\n        /* \"@openzeppelin/contracts/token/ERC20/ERC20.sol\":9844:9876  ERC20InvalidApprover(address(0)) */\n      mload(0x40)\n      shl(0xe0, 0xe602df05)\n      dup2\n      mstore\n        /* \"@openzeppelin/contracts/token/ERC20/ERC20.sol\":9873:9874  0 */\n      0x00\n        /* \"@openzeppelin/contracts/token/ERC20/ERC20.sol\":9844:9876  ERC20InvalidApprover(address(0)) */\n      0x04\n      dup3\n      add\n        /* \"#utility.yul\":1671:1722   */\n      mstore\n        /* \"#utility.yul\":1644:1662   */\n      0x24\n      add\n        /* \"@openzeppelin/contracts/token/ERC20/ERC20.sol\":9844:9876  ERC20InvalidApprover(address(0)) */\n      tag_196\n        /* \"#utility.yul\":1525:1728   */\n      jump\n        /* \"@openzeppelin/contracts/token/ERC20/ERC20.sol\":9798:9887  if (owner == address(0)) {... */\n    tag_394:\n      sub(shl(0xa0, 0x01), 0x01)\n        /* \"@openzeppelin/contracts/token/ERC20/ERC20.sol\":9900:9921  spender == address(0) */\n      dup4\n      and\n        /* \"@openzeppelin/contracts/token/ERC20/ERC20.sol\":9896:9986  if (spender == address(0)) {... */\n      tag_396\n      jumpi\n        /* \"@openzeppelin/contracts/token/ERC20/ERC20.sol\":9944:9975  ERC20InvalidSpender(address(0)) */\n      mload(0x40)\n      shl(0xe1, 0x4a1406b1)\n      dup2\n      mstore\n        /* \"@openzeppelin/contracts/token/ERC20/ERC20.sol\":9972:9973  0 */\n      0x00\n        /* \"@openzeppelin/contracts/token/ERC20/ERC20.sol\":9944:9975  ERC20InvalidSpender(address(0)) */\n      0x04\n      dup3\n      add\n        /* \"#utility.yul\":1671:1722   */\n      mstore\n        /* \"#utility.yul\":1644:1662   */\n      0x24\n      add\n        /* \"@openzeppelin/contracts/token/ERC20/ERC20.sol\":9944:9975  ERC20InvalidSpender(address(0)) */\n      tag_196\n        /* \"#utility.yul\":1525:1728   */\n      jump\n        /* \"@openzeppelin/contracts/token/ERC20/ERC20.sol\":9896:9986  if (spender == address(0)) {... */\n    tag_396:\n      sub(shl(0xa0, 0x01), 0x01)\n        /* \"@openzeppelin/contracts/token/ERC20/ERC20.sol\":9995:10013  _allowances[owner] */\n      dup1\n      dup6\n      and\n      0x00\n      swap1\n      dup2\n      mstore\n        /* \"@openzeppelin/contracts/token/ERC20/ERC20.sol\":9995:10006  _allowances */\n      0x01\n        /* \"@openzeppelin/contracts/token/ERC20/ERC20.sol\":9995:10013  _allowances[owner] */\n      0x20\n      swap1\n      dup2\n      mstore\n      0x40\n      dup1\n      dup4\n      keccak256\n        /* \"@openzeppelin/contracts/token/ERC20/ERC20.sol\":9995:10022  _allowances[owner][spender] */\n      swap4\n      dup8\n      and\n      dup4\n      mstore\n      swap3\n      swap1\n      mstore\n      keccak256\n        /* \"@openzeppelin/contracts/token/ERC20/ERC20.sol\":9995:10030  _allowances[owner][spender] = value */\n      dup3\n      swap1\n      sstore\n        /* \"@openzeppelin/contracts/token/ERC20/ERC20.sol\":10040:10116  if (emitEvent) {... */\n      dup1\n      iszero\n      tag_342\n      jumpi\n        /* \"@openzeppelin/contracts/token/ERC20/ERC20.sol\":10090:10097  spender */\n      dup3\n      sub(shl(0xa0, 0x01), 0x01)\n        /* \"@openzeppelin/contracts/token/ERC20/ERC20.sol\":10074:10105  Approval(owner, spender, value) */\n      and\n        /* \"@openzeppelin/contracts/token/ERC20/ERC20.sol\":10083:10088  owner */\n      dup5\n      sub(shl(0xa0, 0x01), 0x01)\n        /* \"@openzeppelin/contracts/token/ERC20/ERC20.sol\":10074:10105  Approval(owner, spender, value) */\n      and\n      0x8c5be1e5ebec7d5bd14f71427d1e84f3dd0314c0f7b2291e5b200ac8c7c3b925\n        /* \"@openzeppelin/contracts/token/ERC20/ERC20.sol\":10099:10104  value */\n      dup5\n        /* \"@openzeppelin/contracts/token/ERC20/ERC20.sol\":10074:10105  Approval(owner, spender, value) */\n      mload(0x40)\n      tag_399\n      swap2\n        /* \"#utility.yul\":1489:1514   */\n      dup2\n      mstore\n        /* \"#utility.yul\":1477:1479   */\n      0x20\n        /* \"#utility.yul\":1462:1480   */\n      add\n      swap1\n        /* \"#utility.yul\":1343:1520   */\n      jump\n        /* \"@openzeppelin/contracts/token/ERC20/ERC20.sol\":10074:10105  Approval(owner, spender, value) */\n    tag_399:\n      mload(0x40)\n      dup1\n      swap2\n      sub\n      swap1\n      log3\n        /* \"@openzeppelin/contracts/token/ERC20/ERC20.sol\":9690:10122  function _approve(address owner, address spender, uint256 value, bool emitEvent) internal virtual {... */\n      pop\n      pop\n      pop\n      pop\n      jump\t// out\n        /* \"shoaib.sol\":8738:9582  function _tokenTransfer(... */\n    tag_377:\n        /* \"shoaib.sol\":8896:8903  takeFee */\n      dup1\n        /* \"shoaib.sol\":8891:8950  if (!takeFee) {... */\n      tag_402\n      jumpi\n        /* \"shoaib.sol\":8922:8936  removeAllFee() */\n      tag_402\n        /* \"shoaib.sol\":8922:8934  removeAllFee */\n      tag_403\n        /* \"shoaib.sol\":8922:8936  removeAllFee() */\n      jump\t// in\n    tag_402:\n      sub(shl(0xa0, 0x01), 0x01)\n        /* \"shoaib.sol\":8970:8987  _isExcluded[from] */\n      dup5\n      and\n      0x00\n      swap1\n      dup2\n      mstore\n        /* \"shoaib.sol\":8970:8981  _isExcluded */\n      0x09\n        /* \"shoaib.sol\":8970:8987  _isExcluded[from] */\n      0x20\n      mstore\n      0x40\n      swap1\n      keccak256\n      sload\n      0xff\n      and\n        /* \"shoaib.sol\":8970:9007  _isExcluded[from] && !_isExcluded[to] */\n      dup1\n      iszero\n      tag_404\n      jumpi\n      pop\n      sub(shl(0xa0, 0x01), 0x01)\n        /* \"shoaib.sol\":8992:9007  _isExcluded[to] */\n      dup4\n      and\n      0x00\n      swap1\n      dup2\n      mstore\n        /* \"shoaib.sol\":8992:9003  _isExcluded */\n      0x09\n        /* \"shoaib.sol\":8992:9007  _isExcluded[to] */\n      0x20\n      mstore\n      0x40\n      swap1\n      keccak256\n      sload\n      0xff\n      and\n        /* \"shoaib.sol\":8991:9007  !_isExcluded[to] */\n      iszero\n        /* \"shoaib.sol\":8970:9007  _isExcluded[from] && !_isExcluded[to] */\n    tag_404:\n        /* \"shoaib.sol\":8966:9497  if (_isExcluded[from] && !_isExcluded[to]) {... */\n      iszero\n      tag_405\n      jumpi\n        /* \"shoaib.sol\":9026:9064  _transferFromExcluded(from, to, value) */\n      tag_406\n        /* \"shoaib.sol\":9048:9052  from */\n      dup5\n        /* \"shoaib.sol\":9054:9056  to */\n      dup5\n        /* \"shoaib.sol\":9058:9063  value */\n      dup5\n        /* \"shoaib.sol\":9026:9047  _transferFromExcluded */\n      tag_407\n        /* \"shoaib.sol\":9026:9064  _transferFromExcluded(from, to, value) */\n      jump\t// in\n    tag_406:\n        /* \"shoaib.sol\":8966:9497  if (_isExcluded[from] && !_isExcluded[to]) {... */\n      jump(tag_424)\n    tag_405:\n      sub(shl(0xa0, 0x01), 0x01)\n        /* \"shoaib.sol\":9089:9106  _isExcluded[from] */\n      dup5\n      and\n      0x00\n      swap1\n      dup2\n      mstore\n        /* \"shoaib.sol\":9089:9100  _isExcluded */\n      0x09\n        /* \"shoaib.sol\":9089:9106  _isExcluded[from] */\n      0x20\n      mstore\n      0x40\n      swap1\n      keccak256\n      sload\n      0xff\n      and\n        /* \"shoaib.sol\":9088:9106  !_isExcluded[from] */\n      iszero\n        /* \"shoaib.sol\":9088:9125  !_isExcluded[from] && _isExcluded[to] */\n      dup1\n      iszero\n      tag_409\n      jumpi\n      pop\n      sub(shl(0xa0, 0x01), 0x01)\n        /* \"shoaib.sol\":9110:9125  _isExcluded[to] */\n      dup4\n      and\n      0x00\n      swap1\n      dup2\n      mstore\n        /* \"shoaib.sol\":9110:9121  _isExcluded */\n      0x09\n        /* \"shoaib.sol\":9110:9125  _isExcluded[to] */\n      0x20\n      mstore\n      0x40\n      swap1\n      keccak256\n      sload\n      0xff\n      and\n        /* \"shoaib.sol\":9088:9125  !_isExcluded[from] && _isExcluded[to] */\n    tag_409:\n        /* \"shoaib.sol\":9084:9497  if (!_isExcluded[from] && _isExcluded[to]) {... */\n      iszero\n      tag_410\n      jumpi\n        /* \"shoaib.sol\":9144:9180  _transferToExcluded(from, to, value) */\n      tag_406\n        /* \"shoaib.sol\":9164:9168  from */\n      dup5\n        /* \"shoaib.sol\":9170:9172  to */\n      dup5\n        /* \"shoaib.sol\":9174:9179  value */\n      dup5\n        /* \"shoaib.sol\":9144:9163  _transferToExcluded */\n      tag_412\n        /* \"shoaib.sol\":9144:9180  _transferToExcluded(from, to, value) */\n      jump\t// in\n        /* \"shoaib.sol\":9084:9497  if (!_isExcluded[from] && _isExcluded[to]) {... */\n    tag_410:\n      sub(shl(0xa0, 0x01), 0x01)\n        /* \"shoaib.sol\":9205:9222  _isExcluded[from] */\n      dup5\n      and\n      0x00\n      swap1\n      dup2\n      mstore\n        /* \"shoaib.sol\":9205:9216  _isExcluded */\n      0x09\n        /* \"shoaib.sol\":9205:9222  _isExcluded[from] */\n      0x20\n      mstore\n      0x40\n      swap1\n      keccak256\n      sload\n      0xff\n      and\n        /* \"shoaib.sol\":9204:9222  !_isExcluded[from] */\n      iszero\n        /* \"shoaib.sol\":9204:9242  !_isExcluded[from] && !_isExcluded[to] */\n      dup1\n      iszero\n      tag_414\n      jumpi\n      pop\n      sub(shl(0xa0, 0x01), 0x01)\n        /* \"shoaib.sol\":9227:9242  _isExcluded[to] */\n      dup4\n      and\n      0x00\n      swap1\n      dup2\n      mstore\n        /* \"shoaib.sol\":9227:9238  _isExcluded */\n      0x09\n        /* \"shoaib.sol\":9227:9242  _isExcluded[to] */\n      0x20\n      mstore\n      0x40\n      swap1\n      keccak256\n      sload\n      0xff\n      and\n        /* \"shoaib.sol\":9226:9242  !_isExcluded[to] */\n      iszero\n        /* \"shoaib.sol\":9204:9242  !_isExcluded[from] && !_isExcluded[to] */\n    tag_414:\n        /* \"shoaib.sol\":9200:9497  if (!_isExcluded[from] && !_isExcluded[to]) {... */\n      iszero\n      tag_415\n      jumpi\n        /* \"shoaib.sol\":9261:9295  _transferStandard(from, to, value) */\n      tag_406\n        /* \"shoaib.sol\":9279:9283  from */\n      dup5\n        /* \"shoaib.sol\":9285:9287  to */\n      dup5\n        /* \"shoaib.sol\":9289:9294  value */\n      dup5\n        /* \"shoaib.sol\":9261:9278  _transferStandard */\n      tag_417\n        /* \"shoaib.sol\":9261:9295  _transferStandard(from, to, value) */\n      jump\t// in\n        /* \"shoaib.sol\":9200:9497  if (!_isExcluded[from] && !_isExcluded[to]) {... */\n    tag_415:\n      sub(shl(0xa0, 0x01), 0x01)\n        /* \"shoaib.sol\":9319:9336  _isExcluded[from] */\n      dup5\n      and\n      0x00\n      swap1\n      dup2\n      mstore\n        /* \"shoaib.sol\":9319:9330  _isExcluded */\n      0x09\n        /* \"shoaib.sol\":9319:9336  _isExcluded[from] */\n      0x20\n      mstore\n      0x40\n      swap1\n      keccak256\n      sload\n      0xff\n      and\n        /* \"shoaib.sol\":9319:9355  _isExcluded[from] && _isExcluded[to] */\n      dup1\n      iszero\n      tag_419\n      jumpi\n      pop\n      sub(shl(0xa0, 0x01), 0x01)\n        /* \"shoaib.sol\":9340:9355  _isExcluded[to] */\n      dup4\n      and\n      0x00\n      swap1\n      dup2\n      mstore\n        /* \"shoaib.sol\":9340:9351  _isExcluded */\n      0x09\n        /* \"shoaib.sol\":9340:9355  _isExcluded[to] */\n      0x20\n      mstore\n      0x40\n      swap1\n      keccak256\n      sload\n      0xff\n      and\n        /* \"shoaib.sol\":9319:9355  _isExcluded[from] && _isExcluded[to] */\n    tag_419:\n        /* \"shoaib.sol\":9315:9497  if (_isExcluded[from] && _isExcluded[to]) {... */\n      iszero\n      tag_420\n      jumpi\n        /* \"shoaib.sol\":9374:9412  _transferBothExcluded(from, to, value) */\n      tag_406\n        /* \"shoaib.sol\":9396:9400  from */\n      dup5\n        /* \"shoaib.sol\":9402:9404  to */\n      dup5\n        /* \"shoaib.sol\":9406:9411  value */\n      dup5\n        /* \"shoaib.sol\":9374:9395  _transferBothExcluded */\n      tag_422\n        /* \"shoaib.sol\":9374:9412  _transferBothExcluded(from, to, value) */\n      jump\t// in\n        /* \"shoaib.sol\":9315:9497  if (_isExcluded[from] && _isExcluded[to]) {... */\n    tag_420:\n        /* \"shoaib.sol\":9449:9483  _transferStandard(from, to, value) */\n      tag_424\n        /* \"shoaib.sol\":9467:9471  from */\n      dup5\n        /* \"shoaib.sol\":9473:9475  to */\n      dup5\n        /* \"shoaib.sol\":9477:9482  value */\n      dup5\n        /* \"shoaib.sol\":9449:9466  _transferStandard */\n      tag_417\n        /* \"shoaib.sol\":9449:9483  _transferStandard(from, to, value) */\n      jump\t// in\n    tag_424:\n        /* \"shoaib.sol\":9518:9525  takeFee */\n      dup1\n        /* \"shoaib.sol\":9513:9573  if (!takeFee) {... */\n      tag_342\n      jumpi\n        /* \"shoaib.sol\":9544:9559  restoreAllFee() */\n      tag_342\n        /* \"shoaib.sol\":9924:9946  _previousReflectionFee */\n      sload(0x10)\n        /* \"shoaib.sol\":9907:9921  _reflectionFee */\n      0x0f\n        /* \"shoaib.sol\":9907:9946  _reflectionFee = _previousReflectionFee */\n      sstore\n        /* \"shoaib.sol\":9969:9984  _previousTaxFee */\n      sload(0x12)\n        /* \"shoaib.sol\":9959:9966  _taxFee */\n      0x11\n        /* \"shoaib.sol\":9959:9984  _taxFee = _previousTaxFee */\n      sstore\n        /* \"shoaib.sol\":9861:9994  function restoreAllFee() private {... */\n      jump\n        /* \"shoaib.sol\":14225:14927  function _getCurrentSupply() private view returns (uint256, uint256) {... */\n    tag_391:\n        /* \"shoaib.sol\":14325:14332  _rTotal */\n      sload(0x0d)\n        /* \"shoaib.sol\":14363:14370  _tTotal */\n      sload(0x0c)\n        /* \"shoaib.sol\":14276:14283  uint256 */\n      0x00\n      swap2\n      dup3\n      swap2\n      dup3\n        /* \"shoaib.sol\":14387:14771  for (uint256 i = 0; i < _excluded.length; i++) {... */\n    tag_429:\n        /* \"shoaib.sol\":14411:14420  _excluded */\n      0x0a\n        /* \"shoaib.sol\":14411:14427  _excluded.length */\n      sload\n        /* \"shoaib.sol\":14407:14427  i < _excluded.length */\n      dup2\n      lt\n        /* \"shoaib.sol\":14387:14771  for (uint256 i = 0; i < _excluded.length; i++) {... */\n      iszero\n      tag_430\n      jumpi\n        /* \"shoaib.sol\":14499:14506  rSupply */\n      dup3\n        /* \"shoaib.sol\":14475:14482  _rOwned */\n      0x05\n        /* \"shoaib.sol\":14475:14496  _rOwned[_excluded[i]] */\n      0x00\n        /* \"shoaib.sol\":14483:14492  _excluded */\n      0x0a\n        /* \"shoaib.sol\":14493:14494  i */\n      dup5\n        /* \"shoaib.sol\":14483:14495  _excluded[i] */\n      dup2\n      sload\n      dup2\n      lt\n      tag_433\n      jumpi\n      tag_433\n      tag_309\n      jump\t// in\n    tag_433:\n      0x00\n      swap2\n      dup3\n      mstore\n      0x20\n      dup1\n      dup4\n      keccak256\n      swap1\n      swap2\n      add\n      sload\n      sub(shl(0xa0, 0x01), 0x01)\n      and\n        /* \"shoaib.sol\":14475:14496  _rOwned[_excluded[i]] */\n      dup4\n      mstore\n      dup3\n      add\n      swap3\n      swap1\n      swap3\n      mstore\n      0x40\n      add\n      swap1\n      keccak256\n      sload\n        /* \"shoaib.sol\":14475:14506  _rOwned[_excluded[i]] > rSupply */\n      gt\n      dup1\n        /* \"shoaib.sol\":14475:14560  _rOwned[_excluded[i]] > rSupply ||... */\n      tag_435\n      jumpi\n      pop\n        /* \"shoaib.sol\":14553:14560  tSupply */\n      dup2\n        /* \"shoaib.sol\":14529:14536  _tOwned */\n      0x06\n        /* \"shoaib.sol\":14529:14550  _tOwned[_excluded[i]] */\n      0x00\n        /* \"shoaib.sol\":14537:14546  _excluded */\n      0x0a\n        /* \"shoaib.sol\":14547:14548  i */\n      dup5\n        /* \"shoaib.sol\":14537:14549  _excluded[i] */\n      dup2\n      sload\n      dup2\n      lt\n      tag_437\n      jumpi\n      tag_437\n      tag_309\n      jump\t// in\n    tag_437:\n      0x00\n      swap2\n      dup3\n      mstore\n      0x20\n      dup1\n      dup4\n      keccak256\n      swap1\n      swap2\n      add\n      sload\n      sub(shl(0xa0, 0x01), 0x01)\n      and\n        /* \"shoaib.sol\":14529:14550  _tOwned[_excluded[i]] */\n      dup4\n      mstore\n      dup3\n      add\n      swap3\n      swap1\n      swap3\n      mstore\n      0x40\n      add\n      swap1\n      keccak256\n      sload\n        /* \"shoaib.sol\":14529:14560  _tOwned[_excluded[i]] > tSupply */\n      gt\n        /* \"shoaib.sol\":14475:14560  _rOwned[_excluded[i]] > rSupply ||... */\n    tag_435:\n        /* \"shoaib.sol\":14451:14642  if (... */\n      iszero\n      tag_439\n      jumpi\n        /* \"shoaib.sol\":14607:14614  _rTotal */\n      sload(0x0d)\n        /* \"shoaib.sol\":14616:14623  _tTotal */\n      sload(0x0c)\n        /* \"shoaib.sol\":14599:14624  return (_rTotal, _tTotal) */\n      swap5\n      pop\n      swap5\n      pop\n      pop\n      pop\n      pop\n        /* \"shoaib.sol\":14225:14927  function _getCurrentSupply() private view returns (uint256, uint256) {... */\n      swap1\n      swap2\n      jump\t// out\n        /* \"shoaib.sol\":14451:14642  if (... */\n    tag_439:\n        /* \"shoaib.sol\":14678:14685  _rOwned */\n      0x05\n        /* \"shoaib.sol\":14678:14699  _rOwned[_excluded[i]] */\n      0x00\n        /* \"shoaib.sol\":14686:14695  _excluded */\n      0x0a\n        /* \"shoaib.sol\":14696:14697  i */\n      dup4\n        /* \"shoaib.sol\":14686:14698  _excluded[i] */\n      dup2\n      sload\n      dup2\n      lt\n      tag_441\n      jumpi\n      tag_441\n      tag_309\n      jump\t// in\n    tag_441:\n      0x00\n      swap2\n      dup3\n      mstore\n      0x20\n      dup1\n      dup4\n      keccak256\n      swap1\n      swap2\n      add\n      sload\n      sub(shl(0xa0, 0x01), 0x01)\n      and\n        /* \"shoaib.sol\":14678:14699  _rOwned[_excluded[i]] */\n      dup4\n      mstore\n      dup3\n      add\n      swap3\n      swap1\n      swap3\n      mstore\n      0x40\n      add\n      swap1\n      keccak256\n      sload\n        /* \"shoaib.sol\":14668:14699  rSupply - _rOwned[_excluded[i]] */\n      tag_443\n      swap1\n        /* \"shoaib.sol\":14668:14675  rSupply */\n      dup5\n        /* \"shoaib.sol\":14668:14699  rSupply - _rOwned[_excluded[i]] */\n      tag_201\n      jump\t// in\n    tag_443:\n        /* \"shoaib.sol\":14658:14699  rSupply = rSupply - _rOwned[_excluded[i]] */\n      swap3\n      pop\n        /* \"shoaib.sol\":14736:14743  _tOwned */\n      0x06\n        /* \"shoaib.sol\":14736:14757  _tOwned[_excluded[i]] */\n      0x00\n        /* \"shoaib.sol\":14744:14753  _excluded */\n      0x0a\n        /* \"shoaib.sol\":14754:14755  i */\n      dup4\n        /* \"shoaib.sol\":14744:14756  _excluded[i] */\n      dup2\n      sload\n      dup2\n      lt\n      tag_445\n      jumpi\n      tag_445\n      tag_309\n      jump\t// in\n    tag_445:\n      0x00\n      swap2\n      dup3\n      mstore\n      0x20\n      dup1\n      dup4\n      keccak256\n      swap1\n      swap2\n      add\n      sload\n      sub(shl(0xa0, 0x01), 0x01)\n      and\n        /* \"shoaib.sol\":14736:14757  _tOwned[_excluded[i]] */\n      dup4\n      mstore\n      dup3\n      add\n      swap3\n      swap1\n      swap3\n      mstore\n      0x40\n      add\n      swap1\n      keccak256\n      sload\n        /* \"shoaib.sol\":14726:14757  tSupply - _tOwned[_excluded[i]] */\n      tag_447\n      swap1\n        /* \"shoaib.sol\":14726:14733  tSupply */\n      dup4\n        /* \"shoaib.sol\":14726:14757  tSupply - _tOwned[_excluded[i]] */\n      tag_201\n      jump\t// in\n    tag_447:\n        /* \"shoaib.sol\":14716:14757  tSupply = tSupply - _tOwned[_excluded[i]] */\n      swap2\n      pop\n        /* \"shoaib.sol\":14429:14432  i++ */\n      0x01\n      add\n        /* \"shoaib.sol\":14387:14771  for (uint256 i = 0; i < _excluded.length; i++) {... */\n      jump(tag_429)\n    tag_430:\n      pop\n        /* \"shoaib.sol\":14811:14818  _tTotal */\n      sload(0x0c)\n        /* \"shoaib.sol\":14801:14808  _rTotal */\n      sload(0x0d)\n        /* \"shoaib.sol\":14801:14818  _rTotal / _tTotal */\n      tag_448\n      swap2\n      swap1\n      tag_384\n      jump\t// in\n    tag_448:\n        /* \"shoaib.sol\":14791:14798  rSupply */\n      dup3\n        /* \"shoaib.sol\":14791:14818  rSupply < _rTotal / _tTotal */\n      lt\n        /* \"shoaib.sol\":14787:14876  if (rSupply < _rTotal / _tTotal) {... */\n      iszero\n      tag_449\n      jumpi\n        /* \"shoaib.sol\":14845:14852  _rTotal */\n      sload(0x0d)\n        /* \"shoaib.sol\":14854:14861  _tTotal */\n      sload(0x0c)\n        /* \"shoaib.sol\":14837:14862  return (_rTotal, _tTotal) */\n      swap4\n      pop\n      swap4\n      pop\n      pop\n      pop\n        /* \"shoaib.sol\":14225:14927  function _getCurrentSupply() private view returns (uint256, uint256) {... */\n      swap1\n      swap2\n      jump\t// out\n        /* \"shoaib.sol\":14787:14876  if (rSupply < _rTotal / _tTotal) {... */\n    tag_449:\n        /* \"shoaib.sol\":14900:14907  rSupply */\n      swap1\n      swap4\n        /* \"shoaib.sol\":14909:14916  tSupply */\n      swap1\n      swap3\n      pop\n        /* \"shoaib.sol\":14225:14927  function _getCurrentSupply() private view returns (uint256, uint256) {... */\n      swap1\n      pop\n      jump\t// out\n        /* \"shoaib.sol\":9594:9849  function removeAllFee() private {... */\n    tag_403:\n        /* \"shoaib.sol\":9643:9657  _reflectionFee */\n      sload(0x0f)\n        /* \"shoaib.sol\":9643:9662  _reflectionFee == 0 */\n      iszero\n        /* \"shoaib.sol\":9643:9678  _reflectionFee == 0 && _taxFee == 0 */\n      dup1\n      iszero\n      tag_451\n      jumpi\n      pop\n        /* \"shoaib.sol\":9666:9673  _taxFee */\n      sload(0x11)\n        /* \"shoaib.sol\":9666:9678  _taxFee == 0 */\n      iszero\n        /* \"shoaib.sol\":9643:9678  _reflectionFee == 0 && _taxFee == 0 */\n    tag_451:\n        /* \"shoaib.sol\":9639:9687  if (_reflectionFee == 0 && _taxFee == 0) return; */\n      iszero\n      tag_452\n      jumpi\n        /* \"shoaib.sol\":9594:9849  function removeAllFee() private {... */\n      jump\t// out\n        /* \"shoaib.sol\":9639:9687  if (_reflectionFee == 0 && _taxFee == 0) return; */\n    tag_452:\n        /* \"shoaib.sol\":9728:9742  _reflectionFee */\n      0x0f\n      dup1\n      sload\n        /* \"shoaib.sol\":9703:9725  _previousReflectionFee */\n      0x10\n        /* \"shoaib.sol\":9703:9742  _previousReflectionFee = _reflectionFee */\n      sstore\n        /* \"shoaib.sol\":9773:9780  _taxFee */\n      0x11\n      dup1\n      sload\n        /* \"shoaib.sol\":9755:9770  _previousTaxFee */\n      0x12\n        /* \"shoaib.sol\":9755:9780  _previousTaxFee = _taxFee */\n      sstore\n      0x00\n        /* \"shoaib.sol\":9797:9815  _reflectionFee = 0 */\n      swap2\n      dup3\n      swap1\n      sstore\n        /* \"shoaib.sol\":9828:9839  _taxFee = 0 */\n      sstore\n        /* \"shoaib.sol\":9594:9849  function removeAllFee() private {... */\n      jump\t// out\n        /* \"shoaib.sol\":11390:12092  function _transferFromExcluded(... */\n    tag_407:\n        /* \"shoaib.sol\":11553:11568  uint256 rAmount */\n      0x00\n        /* \"shoaib.sol\":11585:11608  uint256 rTransferAmount */\n      0x00\n        /* \"shoaib.sol\":11625:11648  uint256 tTransferAmount */\n      0x00\n        /* \"shoaib.sol\":11665:11684  uint256 currentRate */\n      0x00\n        /* \"shoaib.sol\":11700:11727  _getTransferValues(tAmount) */\n      tag_454\n        /* \"shoaib.sol\":11719:11726  tAmount */\n      dup6\n        /* \"shoaib.sol\":11700:11718  _getTransferValues */\n      tag_199\n        /* \"shoaib.sol\":11700:11727  _getTransferValues(tAmount) */\n      jump\t// in\n    tag_454:\n      sub(shl(0xa0, 0x01), 0x01)\n        /* \"shoaib.sol\":11758:11773  _tOwned[sender] */\n      dup12\n      and\n      0x00\n      swap1\n      dup2\n      mstore\n        /* \"shoaib.sol\":11758:11765  _tOwned */\n      0x06\n        /* \"shoaib.sol\":11758:11773  _tOwned[sender] */\n      0x20\n      mstore\n      0x40\n      swap1\n      keccak256\n      sload\n        /* \"shoaib.sol\":11536:11727  (... */\n      swap4\n      swap8\n      pop\n      swap2\n      swap6\n      pop\n      swap4\n      pop\n      swap2\n      pop\n        /* \"shoaib.sol\":11758:11783  _tOwned[sender] - tAmount */\n      tag_455\n      swap1\n        /* \"shoaib.sol\":11776:11783  tAmount */\n      dup7\n      swap1\n        /* \"shoaib.sol\":11758:11783  _tOwned[sender] - tAmount */\n      tag_201\n      jump\t// in\n    tag_455:\n      sub(shl(0xa0, 0x01), 0x01)\n        /* \"shoaib.sol\":11740:11755  _tOwned[sender] */\n      dup9\n      and\n      0x00\n      swap1\n      dup2\n      mstore\n        /* \"shoaib.sol\":11740:11747  _tOwned */\n      0x06\n        /* \"shoaib.sol\":11740:11755  _tOwned[sender] */\n      0x20\n      swap1\n      dup2\n      mstore\n      0x40\n      dup1\n      dup4\n      keccak256\n        /* \"shoaib.sol\":11740:11783  _tOwned[sender] = _tOwned[sender] - tAmount */\n      swap4\n      swap1\n      swap4\n      sstore\n        /* \"shoaib.sol\":11814:11821  _rOwned */\n      0x05\n        /* \"shoaib.sol\":11814:11829  _rOwned[sender] */\n      swap1\n      mstore\n      keccak256\n      sload\n        /* \"shoaib.sol\":11814:11839  _rOwned[sender] - rAmount */\n      tag_456\n      swap1\n        /* \"shoaib.sol\":11832:11839  rAmount */\n      dup6\n      swap1\n        /* \"shoaib.sol\":11814:11839  _rOwned[sender] - rAmount */\n      tag_201\n      jump\t// in\n    tag_456:\n      sub(shl(0xa0, 0x01), 0x01)\n        /* \"shoaib.sol\":11796:11811  _rOwned[sender] */\n      dup1\n      dup10\n      and\n      0x00\n      swap1\n      dup2\n      mstore\n        /* \"shoaib.sol\":11796:11803  _rOwned */\n      0x05\n        /* \"shoaib.sol\":11796:11811  _rOwned[sender] */\n      0x20\n      mstore\n      0x40\n      dup1\n      dup3\n      keccak256\n        /* \"shoaib.sol\":11796:11839  _rOwned[sender] = _rOwned[sender] - rAmount */\n      swap4\n      swap1\n      swap4\n      sstore\n        /* \"shoaib.sol\":11873:11891  _rOwned[recipient] */\n      swap1\n      dup9\n      and\n      dup2\n      mstore\n      keccak256\n      sload\n        /* \"shoaib.sol\":11873:11909  _rOwned[recipient] + rTransferAmount */\n      tag_457\n      swap1\n        /* \"shoaib.sol\":11894:11909  rTransferAmount */\n      dup5\n      swap1\n        /* \"shoaib.sol\":11873:11909  _rOwned[recipient] + rTransferAmount */\n      tag_204\n      jump\t// in\n    tag_457:\n      sub(shl(0xa0, 0x01), 0x01)\n        /* \"shoaib.sol\":11852:11870  _rOwned[recipient] */\n      dup8\n      and\n      0x00\n      swap1\n      dup2\n      mstore\n        /* \"shoaib.sol\":11852:11859  _rOwned */\n      0x05\n        /* \"shoaib.sol\":11852:11870  _rOwned[recipient] */\n      0x20\n      mstore\n      0x40\n      swap1\n      keccak256\n        /* \"shoaib.sol\":11852:11909  _rOwned[recipient] = _rOwned[recipient] + rTransferAmount */\n      sstore\n        /* \"shoaib.sol\":11926:11970  taxFeeTransfer(sender, tAmount, currentRate) */\n      tag_458\n        /* \"shoaib.sol\":11941:11947  sender */\n      dup8\n        /* \"shoaib.sol\":11949:11956  tAmount */\n      dup7\n        /* \"shoaib.sol\":11958:11969  currentRate */\n      dup4\n        /* \"shoaib.sol\":11926:11940  taxFeeTransfer */\n      tag_459\n        /* \"shoaib.sol\":11926:11970  taxFeeTransfer(sender, tAmount, currentRate) */\n      jump\t// in\n    tag_458:\n        /* \"shoaib.sol\":11983:12016  _reflectFee(tAmount, currentRate) */\n      tag_460\n        /* \"shoaib.sol\":11995:12002  tAmount */\n      dup6\n        /* \"shoaib.sol\":12004:12015  currentRate */\n      dup3\n        /* \"shoaib.sol\":11983:11994  _reflectFee */\n      tag_461\n        /* \"shoaib.sol\":11983:12016  _reflectFee(tAmount, currentRate) */\n      jump\t// in\n    tag_460:\n        /* \"shoaib.sol\":12055:12064  recipient */\n      dup6\n      sub(shl(0xa0, 0x01), 0x01)\n        /* \"shoaib.sol\":12038:12082  Transfer(sender, recipient, tTransferAmount) */\n      and\n        /* \"shoaib.sol\":12047:12053  sender */\n      dup8\n      sub(shl(0xa0, 0x01), 0x01)\n        /* \"shoaib.sol\":12038:12082  Transfer(sender, recipient, tTransferAmount) */\n      and\n      0xddf252ad1be2c89b69c2b068fc378daa952ba7f163c4a11628f55a4df523b3ef\n        /* \"shoaib.sol\":12066:12081  tTransferAmount */\n      dup5\n        /* \"shoaib.sol\":12038:12082  Transfer(sender, recipient, tTransferAmount) */\n      mload(0x40)\n      tag_462\n      swap2\n        /* \"#utility.yul\":1489:1514   */\n      dup2\n      mstore\n        /* \"#utility.yul\":1477:1479   */\n      0x20\n        /* \"#utility.yul\":1462:1480   */\n      add\n      swap1\n        /* \"#utility.yul\":1343:1520   */\n      jump\n        /* \"shoaib.sol\":12038:12082  Transfer(sender, recipient, tTransferAmount) */\n    tag_462:\n      mload(0x40)\n      dup1\n      swap2\n      sub\n      swap1\n      log3\n        /* \"shoaib.sol\":11523:12092  {... */\n      pop\n      pop\n      pop\n      pop\n        /* \"shoaib.sol\":11390:12092  function _transferFromExcluded(... */\n      pop\n      pop\n      pop\n      jump\t// out\n        /* \"shoaib.sol\":10664:11378  function _transferToExcluded(... */\n    tag_412:\n        /* \"shoaib.sol\":10825:10840  uint256 rAmount */\n      0x00\n        /* \"shoaib.sol\":10857:10880  uint256 rTransferAmount */\n      0x00\n        /* \"shoaib.sol\":10897:10920  uint256 tTransferAmount */\n      0x00\n        /* \"shoaib.sol\":10937:10956  uint256 currentRate */\n      0x00\n        /* \"shoaib.sol\":10972:10999  _getTransferValues(tAmount) */\n      tag_464\n        /* \"shoaib.sol\":10991:10998  tAmount */\n      dup6\n        /* \"shoaib.sol\":10972:10990  _getTransferValues */\n      tag_199\n        /* \"shoaib.sol\":10972:10999  _getTransferValues(tAmount) */\n      jump\t// in\n    tag_464:\n      sub(shl(0xa0, 0x01), 0x01)\n        /* \"shoaib.sol\":11030:11045  _rOwned[sender] */\n      dup12\n      and\n      0x00\n      swap1\n      dup2\n      mstore\n        /* \"shoaib.sol\":11030:11037  _rOwned */\n      0x05\n        /* \"shoaib.sol\":11030:11045  _rOwned[sender] */\n      0x20\n      mstore\n      0x40\n      swap1\n      keccak256\n      sload\n        /* \"shoaib.sol\":10808:10999  (... */\n      swap4\n      swap8\n      pop\n      swap2\n      swap6\n      pop\n      swap4\n      pop\n      swap2\n      pop\n        /* \"shoaib.sol\":11030:11055  _rOwned[sender] - rAmount */\n      tag_465\n      swap1\n        /* \"shoaib.sol\":10808:10999  (... */\n      dup6\n      swap1\n        /* \"shoaib.sol\":11030:11055  _rOwned[sender] - rAmount */\n      tag_201\n      jump\t// in\n    tag_465:\n      sub(shl(0xa0, 0x01), 0x01)\n        /* \"shoaib.sol\":11012:11027  _rOwned[sender] */\n      dup1\n      dup10\n      and\n      0x00\n      swap1\n      dup2\n      mstore\n        /* \"shoaib.sol\":11012:11019  _rOwned */\n      0x05\n        /* \"shoaib.sol\":11012:11027  _rOwned[sender] */\n      0x20\n      swap1\n      dup2\n      mstore\n      0x40\n      dup1\n      dup4\n      keccak256\n        /* \"shoaib.sol\":11012:11055  _rOwned[sender] = _rOwned[sender] - rAmount */\n      swap5\n      swap1\n      swap5\n      sstore\n        /* \"shoaib.sol\":11089:11107  _tOwned[recipient] */\n      swap2\n      dup10\n      and\n      dup2\n      mstore\n        /* \"shoaib.sol\":11089:11096  _tOwned */\n      0x06\n        /* \"shoaib.sol\":11089:11107  _tOwned[recipient] */\n      swap1\n      swap2\n      mstore\n      keccak256\n      sload\n        /* \"shoaib.sol\":11089:11125  _tOwned[recipient] + tTransferAmount */\n      tag_466\n      swap1\n        /* \"shoaib.sol\":11110:11125  tTransferAmount */\n      dup4\n      swap1\n        /* \"shoaib.sol\":11089:11125  _tOwned[recipient] + tTransferAmount */\n      tag_204\n      jump\t// in\n    tag_466:\n      sub(shl(0xa0, 0x01), 0x01)\n        /* \"shoaib.sol\":11068:11086  _tOwned[recipient] */\n      dup8\n      and\n      0x00\n      swap1\n      dup2\n      mstore\n        /* \"shoaib.sol\":11068:11075  _tOwned */\n      0x06\n        /* \"shoaib.sol\":11068:11086  _tOwned[recipient] */\n      0x20\n      swap1\n      dup2\n      mstore\n      0x40\n      dup1\n      dup4\n      keccak256\n        /* \"shoaib.sol\":11068:11125  _tOwned[recipient] = _tOwned[recipient] + tTransferAmount */\n      swap4\n      swap1\n      swap4\n      sstore\n        /* \"shoaib.sol\":11159:11166  _rOwned */\n      0x05\n        /* \"shoaib.sol\":11159:11177  _rOwned[recipient] */\n      swap1\n      mstore\n      keccak256\n      sload\n        /* \"shoaib.sol\":11159:11195  _rOwned[recipient] + rTransferAmount */\n      tag_457\n      swap1\n        /* \"shoaib.sol\":11180:11195  rTransferAmount */\n      dup5\n      swap1\n        /* \"shoaib.sol\":11159:11195  _rOwned[recipient] + rTransferAmount */\n      tag_204\n      jump\t// in\n        /* \"shoaib.sol\":10006:10652  function _transferStandard(... */\n    tag_417:\n        /* \"shoaib.sol\":10165:10180  uint256 rAmount */\n      0x00\n        /* \"shoaib.sol\":10197:10220  uint256 rTransferAmount */\n      0x00\n        /* \"shoaib.sol\":10237:10260  uint256 tTransferAmount */\n      0x00\n        /* \"shoaib.sol\":10277:10296  uint256 currentRate */\n      0x00\n        /* \"shoaib.sol\":10312:10339  _getTransferValues(tAmount) */\n      tag_472\n        /* \"shoaib.sol\":10331:10338  tAmount */\n      dup6\n        /* \"shoaib.sol\":10312:10330  _getTransferValues */\n      tag_199\n        /* \"shoaib.sol\":10312:10339  _getTransferValues(tAmount) */\n      jump\t// in\n    tag_472:\n      sub(shl(0xa0, 0x01), 0x01)\n        /* \"shoaib.sol\":10374:10389  _rOwned[sender] */\n      dup12\n      and\n      0x00\n      swap1\n      dup2\n      mstore\n        /* \"shoaib.sol\":10374:10381  _rOwned */\n      0x05\n        /* \"shoaib.sol\":10374:10389  _rOwned[sender] */\n      0x20\n      mstore\n      0x40\n      swap1\n      keccak256\n      sload\n        /* \"shoaib.sol\":10148:10339  (... */\n      swap4\n      swap8\n      pop\n      swap2\n      swap6\n      pop\n      swap4\n      pop\n      swap2\n      pop\n        /* \"shoaib.sol\":10374:10399  _rOwned[sender] - rAmount */\n      tag_456\n      swap1\n        /* \"shoaib.sol\":10148:10339  (... */\n      dup6\n      swap1\n        /* \"shoaib.sol\":10374:10399  _rOwned[sender] - rAmount */\n      tag_201\n      jump\t// in\n        /* \"shoaib.sol\":12104:12876  function _transferBothExcluded(... */\n    tag_422:\n        /* \"shoaib.sol\":12267:12282  uint256 rAmount */\n      0x00\n        /* \"shoaib.sol\":12299:12322  uint256 rTransferAmount */\n      0x00\n        /* \"shoaib.sol\":12339:12362  uint256 tTransferAmount */\n      0x00\n        /* \"shoaib.sol\":12379:12398  uint256 currentRate */\n      0x00\n        /* \"shoaib.sol\":12414:12441  _getTransferValues(tAmount) */\n      tag_479\n        /* \"shoaib.sol\":12433:12440  tAmount */\n      dup6\n        /* \"shoaib.sol\":12414:12432  _getTransferValues */\n      tag_199\n        /* \"shoaib.sol\":12414:12441  _getTransferValues(tAmount) */\n      jump\t// in\n    tag_479:\n      sub(shl(0xa0, 0x01), 0x01)\n        /* \"shoaib.sol\":12472:12487  _tOwned[sender] */\n      dup12\n      and\n      0x00\n      swap1\n      dup2\n      mstore\n        /* \"shoaib.sol\":12472:12479  _tOwned */\n      0x06\n        /* \"shoaib.sol\":12472:12487  _tOwned[sender] */\n      0x20\n      mstore\n      0x40\n      swap1\n      keccak256\n      sload\n        /* \"shoaib.sol\":12250:12441  (... */\n      swap4\n      swap8\n      pop\n      swap2\n      swap6\n      pop\n      swap4\n      pop\n      swap2\n      pop\n        /* \"shoaib.sol\":12472:12497  _tOwned[sender] - tAmount */\n      tag_480\n      swap1\n        /* \"shoaib.sol\":12490:12497  tAmount */\n      dup7\n      swap1\n        /* \"shoaib.sol\":12472:12497  _tOwned[sender] - tAmount */\n      tag_201\n      jump\t// in\n    tag_480:\n      sub(shl(0xa0, 0x01), 0x01)\n        /* \"shoaib.sol\":12454:12469  _tOwned[sender] */\n      dup9\n      and\n      0x00\n      swap1\n      dup2\n      mstore\n        /* \"shoaib.sol\":12454:12461  _tOwned */\n      0x06\n        /* \"shoaib.sol\":12454:12469  _tOwned[sender] */\n      0x20\n      swap1\n      dup2\n      mstore\n      0x40\n      dup1\n      dup4\n      keccak256\n        /* \"shoaib.sol\":12454:12497  _tOwned[sender] = _tOwned[sender] - tAmount */\n      swap4\n      swap1\n      swap4\n      sstore\n        /* \"shoaib.sol\":12528:12535  _rOwned */\n      0x05\n        /* \"shoaib.sol\":12528:12543  _rOwned[sender] */\n      swap1\n      mstore\n      keccak256\n      sload\n        /* \"shoaib.sol\":12528:12553  _rOwned[sender] - rAmount */\n      tag_465\n      swap1\n        /* \"shoaib.sol\":12546:12553  rAmount */\n      dup6\n      swap1\n        /* \"shoaib.sol\":12528:12553  _rOwned[sender] - rAmount */\n      tag_201\n      jump\t// in\n        /* \"shoaib.sol\":14939:15578  function taxFeeTransfer(... */\n    tag_459:\n        /* \"shoaib.sol\":15080:15095  uint256 tTaxFee */\n      0x00\n        /* \"shoaib.sol\":15120:15123  100 */\n      0x64\n        /* \"shoaib.sol\":15109:15116  _taxFee */\n      sload(0x11)\n        /* \"shoaib.sol\":15099:15106  tAmount */\n      dup5\n        /* \"shoaib.sol\":15099:15116  tAmount * _taxFee */\n      tag_489\n      swap2\n      swap1\n      tag_331\n      jump\t// in\n    tag_489:\n        /* \"shoaib.sol\":15098:15123  (tAmount * _taxFee) / 100 */\n      tag_490\n      swap2\n      swap1\n      tag_384\n      jump\t// in\n    tag_490:\n        /* \"shoaib.sol\":15080:15123  uint256 tTaxFee = (tAmount * _taxFee) / 100 */\n      swap1\n      pop\n        /* \"shoaib.sol\":15140:15151  tTaxFee > 0 */\n      dup1\n      iszero\n        /* \"shoaib.sol\":15136:15569  if (tTaxFee > 0) {... */\n      tag_342\n      jumpi\n        /* \"shoaib.sol\":15170:15185  uint256 rTaxFee */\n      0x00\n        /* \"shoaib.sol\":15214:15215  2 */\n      0x02\n        /* \"shoaib.sol\":15189:15210  tTaxFee * currentRate */\n      tag_492\n        /* \"shoaib.sol\":15199:15210  currentRate */\n      dup5\n        /* \"shoaib.sol\":15189:15196  tTaxFee */\n      dup5\n        /* \"shoaib.sol\":15189:15210  tTaxFee * currentRate */\n      tag_331\n      jump\t// in\n    tag_492:\n        /* \"shoaib.sol\":15188:15215  (tTaxFee * currentRate) / 2 */\n      tag_493\n      swap2\n      swap1\n      tag_384\n      jump\t// in\n    tag_493:\n        /* \"shoaib.sol\":15269:15286  _marketingAccount */\n      and(sub(shl(0xa0, 0x01), 0x01), sload(0x13))\n        /* \"shoaib.sol\":15261:15287  _rOwned[_marketingAccount] */\n      0x00\n      swap1\n      dup2\n      mstore\n        /* \"shoaib.sol\":15261:15268  _rOwned */\n      0x05\n        /* \"shoaib.sol\":15261:15287  _rOwned[_marketingAccount] */\n      0x20\n      mstore\n      0x40\n      swap1\n      keccak256\n      sload\n        /* \"shoaib.sol\":15170:15215  uint256 rTaxFee = (tTaxFee * currentRate) / 2 */\n      swap1\n      swap2\n      pop\n        /* \"shoaib.sol\":15261:15297  _rOwned[_marketingAccount] + rTaxFee */\n      tag_494\n      swap1\n        /* \"shoaib.sol\":15170:15215  uint256 rTaxFee = (tTaxFee * currentRate) / 2 */\n      dup3\n      swap1\n        /* \"shoaib.sol\":15261:15297  _rOwned[_marketingAccount] + rTaxFee */\n      tag_204\n      jump\t// in\n    tag_494:\n        /* \"shoaib.sol\":15240:15257  _marketingAccount */\n      sload(0x13)\n      sub(shl(0xa0, 0x01), 0x01)\n      swap1\n      dup2\n      and\n        /* \"shoaib.sol\":15232:15258  _rOwned[_marketingAccount] */\n      0x00\n      swap1\n      dup2\n      mstore\n        /* \"shoaib.sol\":15232:15239  _rOwned */\n      0x05\n        /* \"shoaib.sol\":15232:15258  _rOwned[_marketingAccount] */\n      0x20\n      mstore\n      0x40\n      dup1\n      dup3\n      keccak256\n        /* \"shoaib.sol\":15232:15297  _rOwned[_marketingAccount] = _rOwned[_marketingAccount] + rTaxFee */\n      swap4\n      swap1\n      swap4\n      sstore\n        /* \"shoaib.sol\":15372:15391  _developmentAccount */\n      sload(0x14)\n      swap1\n      swap2\n      and\n        /* \"shoaib.sol\":15364:15392  _rOwned[_developmentAccount] */\n      dup2\n      mstore\n      keccak256\n      sload\n        /* \"shoaib.sol\":15364:15421  _rOwned[_developmentAccount] +... */\n      tag_495\n      swap1\n        /* \"shoaib.sol\":15414:15421  rTaxFee */\n      dup3\n      swap1\n        /* \"shoaib.sol\":15364:15421  _rOwned[_developmentAccount] +... */\n      tag_204\n      jump\t// in\n    tag_495:\n        /* \"shoaib.sol\":15322:15341  _developmentAccount */\n      sload(0x14)\n      sub(shl(0xa0, 0x01), 0x01)\n      swap1\n      dup2\n      and\n        /* \"shoaib.sol\":15314:15342  _rOwned[_developmentAccount] */\n      0x00\n      swap1\n      dup2\n      mstore\n        /* \"shoaib.sol\":15314:15321  _rOwned */\n      0x05\n        /* \"shoaib.sol\":15314:15342  _rOwned[_developmentAccount] */\n      0x20\n      swap1\n      dup2\n      mstore\n      0x40\n      swap2\n      dup3\n      swap1\n      keccak256\n        /* \"shoaib.sol\":15314:15421  _rOwned[_developmentAccount] =... */\n      swap4\n      swap1\n      swap4\n      sstore\n        /* \"shoaib.sol\":15460:15477  _marketingAccount */\n      sload(0x13)\n        /* \"shoaib.sol\":15443:15487  Transfer(sender, _marketingAccount, tTaxFee) */\n      swap1\n      mload\n        /* \"#utility.yul\":1489:1514   */\n      dup6\n      dup2\n      mstore\n        /* \"shoaib.sol\":15460:15477  _marketingAccount */\n      swap1\n      dup3\n      and\n      swap3\n        /* \"shoaib.sol\":15443:15487  Transfer(sender, _marketingAccount, tTaxFee) */\n      swap2\n      dup9\n      and\n      swap2\n      0xddf252ad1be2c89b69c2b068fc378daa952ba7f163c4a11628f55a4df523b3ef\n      swap2\n        /* \"#utility.yul\":1462:1480   */\n      add\n        /* \"shoaib.sol\":15443:15487  Transfer(sender, _marketingAccount, tTaxFee) */\n      mload(0x40)\n      dup1\n      swap2\n      sub\n      swap1\n      log3\n        /* \"shoaib.sol\":15526:15545  _developmentAccount */\n      sload(0x14)\n        /* \"shoaib.sol\":15509:15555  Transfer(sender, _developmentAccount, tTaxFee) */\n      mload(0x40)\n        /* \"#utility.yul\":1489:1514   */\n      dup4\n      dup2\n      mstore\n      sub(shl(0xa0, 0x01), 0x01)\n        /* \"shoaib.sol\":15526:15545  _developmentAccount */\n      swap2\n      dup3\n      and\n      swap2\n        /* \"shoaib.sol\":15509:15555  Transfer(sender, _developmentAccount, tTaxFee) */\n      dup8\n      and\n      swap1\n      0xddf252ad1be2c89b69c2b068fc378daa952ba7f163c4a11628f55a4df523b3ef\n      swap1\n        /* \"#utility.yul\":1477:1479   */\n      0x20\n        /* \"#utility.yul\":1462:1480   */\n      add\n        /* \"shoaib.sol\":15509:15555  Transfer(sender, _developmentAccount, tTaxFee) */\n      mload(0x40)\n      dup1\n      swap2\n      sub\n      swap1\n      log3\n        /* \"shoaib.sol\":15153:15569  {... */\n      pop\n        /* \"shoaib.sol\":15067:15578  {... */\n      pop\n        /* \"shoaib.sol\":14939:15578  function taxFeeTransfer(... */\n      pop\n      pop\n      pop\n      jump\t// out\n        /* \"shoaib.sol\":13767:14034  function _reflectFee(uint256 tAmount, uint256 currentRate) private {... */\n    tag_461:\n        /* \"shoaib.sol\":13847:13859  uint256 tFee */\n      0x00\n        /* \"shoaib.sol\":13891:13894  100 */\n      0x64\n        /* \"shoaib.sol\":13873:13887  _reflectionFee */\n      sload(0x0f)\n        /* \"shoaib.sol\":13863:13870  tAmount */\n      dup5\n        /* \"shoaib.sol\":13863:13887  tAmount * _reflectionFee */\n      tag_499\n      swap2\n      swap1\n      tag_331\n      jump\t// in\n    tag_499:\n        /* \"shoaib.sol\":13862:13894  (tAmount * _reflectionFee) / 100 */\n      tag_500\n      swap2\n      swap1\n      tag_384\n      jump\t// in\n    tag_500:\n        /* \"shoaib.sol\":13847:13894  uint256 tFee = (tAmount * _reflectionFee) / 100 */\n      swap1\n      pop\n        /* \"shoaib.sol\":13907:13919  uint256 rFee */\n      0x00\n        /* \"shoaib.sol\":13922:13940  tFee * currentRate */\n      tag_501\n        /* \"shoaib.sol\":13929:13940  currentRate */\n      dup4\n        /* \"shoaib.sol\":13847:13894  uint256 tFee = (tAmount * _reflectionFee) / 100 */\n      dup4\n        /* \"shoaib.sol\":13922:13940  tFee * currentRate */\n      tag_331\n      jump\t// in\n    tag_501:\n        /* \"shoaib.sol\":13907:13940  uint256 rFee = tFee * currentRate */\n      swap1\n      pop\n        /* \"shoaib.sol\":13977:13981  rFee */\n      dup1\n        /* \"shoaib.sol\":13967:13974  _rTotal */\n      sload(0x0d)\n        /* \"shoaib.sol\":13967:13981  _rTotal - rFee */\n      tag_502\n      swap2\n      swap1\n      tag_201\n      jump\t// in\n    tag_502:\n        /* \"shoaib.sol\":13957:13964  _rTotal */\n      0x0d\n        /* \"shoaib.sol\":13957:13981  _rTotal = _rTotal - rFee */\n      sstore\n        /* \"shoaib.sol\":14007:14017  _tFeeTotal */\n      sload(0x0e)\n        /* \"shoaib.sol\":14007:14024  _tFeeTotal + tFee */\n      tag_503\n      swap1\n        /* \"shoaib.sol\":14020:14024  tFee */\n      dup4\n      swap1\n        /* \"shoaib.sol\":14007:14024  _tFeeTotal + tFee */\n      tag_204\n      jump\t// in\n    tag_503:\n        /* \"shoaib.sol\":13994:14004  _tFeeTotal */\n      0x0e\n        /* \"shoaib.sol\":13994:14024  _tFeeTotal = _tFeeTotal + tFee */\n      sstore\n      pop\n      pop\n      pop\n      pop\n        /* \"shoaib.sol\":13767:14034  function _reflectFee(uint256 tAmount, uint256 currentRate) private {... */\n      jump\t// out\n        /* \"#utility.yul\":14:240   */\n    tag_47:\n        /* \"#utility.yul\":73:79   */\n      0x00\n        /* \"#utility.yul\":126:128   */\n      0x20\n        /* \"#utility.yul\":114:123   */\n      dup3\n        /* \"#utility.yul\":105:112   */\n      dup5\n        /* \"#utility.yul\":101:124   */\n      sub\n        /* \"#utility.yul\":97:129   */\n      slt\n        /* \"#utility.yul\":94:146   */\n      iszero\n      tag_508\n      jumpi\n        /* \"#utility.yul\":142:143   */\n      0x00\n        /* \"#utility.yul\":139:140   */\n      0x00\n        /* \"#utility.yul\":132:144   */\n      revert\n        /* \"#utility.yul\":94:146   */\n    tag_508:\n      pop\n        /* \"#utility.yul\":187:210   */\n      calldataload\n      swap2\n        /* \"#utility.yul\":14:240   */\n      swap1\n      pop\n      jump\t// out\n        /* \"#utility.yul\":245:663   */\n    tag_53:\n        /* \"#utility.yul\":394:396   */\n      0x20\n        /* \"#utility.yul\":383:392   */\n      dup2\n        /* \"#utility.yul\":376:397   */\n      mstore\n        /* \"#utility.yul\":357:361   */\n      0x00\n        /* \"#utility.yul\":426:432   */\n      dup3\n        /* \"#utility.yul\":420:433   */\n      mload\n        /* \"#utility.yul\":469:475   */\n      dup1\n        /* \"#utility.yul\":464:466   */\n      0x20\n        /* \"#utility.yul\":453:462   */\n      dup5\n        /* \"#utility.yul\":449:467   */\n      add\n        /* \"#utility.yul\":442:476   */\n      mstore\n        /* \"#utility.yul\":528:534   */\n      dup1\n        /* \"#utility.yul\":523:525   */\n      0x20\n        /* \"#utility.yul\":515:521   */\n      dup6\n        /* \"#utility.yul\":511:526   */\n      add\n        /* \"#utility.yul\":506:508   */\n      0x40\n        /* \"#utility.yul\":495:504   */\n      dup6\n        /* \"#utility.yul\":491:509   */\n      add\n        /* \"#utility.yul\":485:535   */\n      mcopy\n        /* \"#utility.yul\":584:585   */\n      0x00\n        /* \"#utility.yul\":579:581   */\n      0x40\n        /* \"#utility.yul\":570:576   */\n      dup3\n        /* \"#utility.yul\":559:568   */\n      dup6\n        /* \"#utility.yul\":555:577   */\n      add\n        /* \"#utility.yul\":551:582   */\n      add\n        /* \"#utility.yul\":544:586   */\n      mstore\n        /* \"#utility.yul\":654:656   */\n      0x40\n        /* \"#utility.yul\":647:649   */\n      0x1f\n        /* \"#utility.yul\":643:650   */\n      not\n        /* \"#utility.yul\":638:640   */\n      0x1f\n        /* \"#utility.yul\":630:636   */\n      dup4\n        /* \"#utility.yul\":626:641   */\n      add\n        /* \"#utility.yul\":622:651   */\n      and\n        /* \"#utility.yul\":611:620   */\n      dup5\n        /* \"#utility.yul\":607:652   */\n      add\n        /* \"#utility.yul\":603:657   */\n      add\n        /* \"#utility.yul\":595:657   */\n      swap2\n      pop\n      pop\n        /* \"#utility.yul\":245:663   */\n      swap3\n      swap2\n      pop\n      pop\n      jump\t// out\n        /* \"#utility.yul\":668:841   */\n    tag_504:\n        /* \"#utility.yul\":736:756   */\n      dup1\n      calldataload\n      sub(shl(0xa0, 0x01), 0x01)\n        /* \"#utility.yul\":785:816   */\n      dup2\n      and\n        /* \"#utility.yul\":775:817   */\n      dup2\n      eq\n        /* \"#utility.yul\":765:835   */\n      tag_511\n      jumpi\n        /* \"#utility.yul\":831:832   */\n      0x00\n        /* \"#utility.yul\":828:829   */\n      0x00\n        /* \"#utility.yul\":821:833   */\n      revert\n        /* \"#utility.yul\":765:835   */\n    tag_511:\n        /* \"#utility.yul\":668:841   */\n      swap2\n      swap1\n      pop\n      jump\t// out\n        /* \"#utility.yul\":846:1146   */\n    tag_57:\n        /* \"#utility.yul\":914:920   */\n      0x00\n        /* \"#utility.yul\":922:928   */\n      0x00\n        /* \"#utility.yul\":975:977   */\n      0x40\n        /* \"#utility.yul\":963:972   */\n      dup4\n        /* \"#utility.yul\":954:961   */\n      dup6\n        /* \"#utility.yul\":950:973   */\n      sub\n        /* \"#utility.yul\":946:978   */\n      slt\n        /* \"#utility.yul\":943:995   */\n      iszero\n      tag_513\n      jumpi\n        /* \"#utility.yul\":991:992   */\n      0x00\n        /* \"#utility.yul\":988:989   */\n      0x00\n        /* \"#utility.yul\":981:993   */\n      revert\n        /* \"#utility.yul\":943:995   */\n    tag_513:\n        /* \"#utility.yul\":1014:1043   */\n      tag_514\n        /* \"#utility.yul\":1033:1042   */\n      dup4\n        /* \"#utility.yul\":1014:1043   */\n      tag_504\n      jump\t// in\n    tag_514:\n        /* \"#utility.yul\":1004:1043   */\n      swap5\n        /* \"#utility.yul\":1112:1114   */\n      0x20\n        /* \"#utility.yul\":1097:1115   */\n      swap4\n      swap1\n      swap4\n      add\n        /* \"#utility.yul\":1084:1116   */\n      calldataload\n      swap4\n      pop\n      pop\n      pop\n        /* \"#utility.yul\":846:1146   */\n      jump\t// out\n        /* \"#utility.yul\":1733:2107   */\n    tag_74:\n        /* \"#utility.yul\":1810:1816   */\n      0x00\n        /* \"#utility.yul\":1818:1824   */\n      0x00\n        /* \"#utility.yul\":1826:1832   */\n      0x00\n        /* \"#utility.yul\":1879:1881   */\n      0x60\n        /* \"#utility.yul\":1867:1876   */\n      dup5\n        /* \"#utility.yul\":1858:1865   */\n      dup7\n        /* \"#utility.yul\":1854:1877   */\n      sub\n        /* \"#utility.yul\":1850:1882   */\n      slt\n        /* \"#utility.yul\":1847:1899   */\n      iszero\n      tag_519\n      jumpi\n        /* \"#utility.yul\":1895:1896   */\n      0x00\n        /* \"#utility.yul\":1892:1893   */\n      0x00\n        /* \"#utility.yul\":1885:1897   */\n      revert\n        /* \"#utility.yul\":1847:1899   */\n    tag_519:\n        /* \"#utility.yul\":1918:1947   */\n      tag_520\n        /* \"#utility.yul\":1937:1946   */\n      dup5\n        /* \"#utility.yul\":1918:1947   */\n      tag_504\n      jump\t// in\n    tag_520:\n        /* \"#utility.yul\":1908:1947   */\n      swap3\n      pop\n        /* \"#utility.yul\":1966:2004   */\n      tag_521\n        /* \"#utility.yul\":2000:2002   */\n      0x20\n        /* \"#utility.yul\":1989:1998   */\n      dup6\n        /* \"#utility.yul\":1985:2003   */\n      add\n        /* \"#utility.yul\":1966:2004   */\n      tag_504\n      jump\t// in\n    tag_521:\n        /* \"#utility.yul\":1733:2107   */\n      swap3\n      swap6\n        /* \"#utility.yul\":1956:2004   */\n      swap3\n      swap5\n      pop\n      pop\n      pop\n        /* \"#utility.yul\":2073:2075   */\n      0x40\n        /* \"#utility.yul\":2058:2076   */\n      swap2\n      swap1\n      swap2\n      add\n        /* \"#utility.yul\":2045:2077   */\n      calldataload\n      swap1\n        /* \"#utility.yul\":1733:2107   */\n      jump\t// out\n        /* \"#utility.yul\":2301:2487   */\n    tag_89:\n        /* \"#utility.yul\":2360:2366   */\n      0x00\n        /* \"#utility.yul\":2413:2415   */\n      0x20\n        /* \"#utility.yul\":2401:2410   */\n      dup3\n        /* \"#utility.yul\":2392:2399   */\n      dup5\n        /* \"#utility.yul\":2388:2411   */\n      sub\n        /* \"#utility.yul\":2384:2416   */\n      slt\n        /* \"#utility.yul\":2381:2433   */\n      iszero\n      tag_524\n      jumpi\n        /* \"#utility.yul\":2429:2430   */\n      0x00\n        /* \"#utility.yul\":2426:2427   */\n      0x00\n        /* \"#utility.yul\":2419:2431   */\n      revert\n        /* \"#utility.yul\":2381:2433   */\n    tag_524:\n        /* \"#utility.yul\":2452:2481   */\n      tag_383\n        /* \"#utility.yul\":2471:2480   */\n      dup3\n        /* \"#utility.yul\":2452:2481   */\n      tag_504\n      jump\t// in\n        /* \"#utility.yul\":2492:2887   */\n    tag_99:\n        /* \"#utility.yul\":2557:2563   */\n      0x00\n        /* \"#utility.yul\":2565:2571   */\n      0x00\n        /* \"#utility.yul\":2618:2620   */\n      0x40\n        /* \"#utility.yul\":2606:2615   */\n      dup4\n        /* \"#utility.yul\":2597:2604   */\n      dup6\n        /* \"#utility.yul\":2593:2616   */\n      sub\n        /* \"#utility.yul\":2589:2621   */\n      slt\n        /* \"#utility.yul\":2586:2638   */\n      iszero\n      tag_527\n      jumpi\n        /* \"#utility.yul\":2634:2635   */\n      0x00\n        /* \"#utility.yul\":2631:2632   */\n      0x00\n        /* \"#utility.yul\":2624:2636   */\n      revert\n        /* \"#utility.yul\":2586:2638   */\n    tag_527:\n        /* \"#utility.yul\":2679:2702   */\n      dup3\n      calldataload\n      swap2\n      pop\n        /* \"#utility.yul\":2778:2780   */\n      0x20\n        /* \"#utility.yul\":2763:2781   */\n      dup4\n      add\n        /* \"#utility.yul\":2750:2782   */\n      calldataload\n        /* \"#utility.yul\":2820:2835   */\n      dup1\n      iszero\n        /* \"#utility.yul\":2813:2836   */\n      iszero\n        /* \"#utility.yul\":2801:2837   */\n      dup2\n      eq\n        /* \"#utility.yul\":2791:2855   */\n      tag_528\n      jumpi\n        /* \"#utility.yul\":2851:2852   */\n      0x00\n        /* \"#utility.yul\":2848:2849   */\n      0x00\n        /* \"#utility.yul\":2841:2853   */\n      revert\n        /* \"#utility.yul\":2791:2855   */\n    tag_528:\n        /* \"#utility.yul\":2874:2881   */\n      dup1\n        /* \"#utility.yul\":2864:2881   */\n      swap2\n      pop\n      pop\n        /* \"#utility.yul\":2492:2887   */\n      swap3\n      pop\n      swap3\n      swap1\n      pop\n      jump\t// out\n        /* \"#utility.yul\":2892:3152   */\n    tag_177:\n        /* \"#utility.yul\":2960:2966   */\n      0x00\n        /* \"#utility.yul\":2968:2974   */\n      0x00\n        /* \"#utility.yul\":3021:3023   */\n      0x40\n        /* \"#utility.yul\":3009:3018   */\n      dup4\n        /* \"#utility.yul\":3000:3007   */\n      dup6\n        /* \"#utility.yul\":2996:3019   */\n      sub\n        /* \"#utility.yul\":2992:3024   */\n      slt\n        /* \"#utility.yul\":2989:3041   */\n      iszero\n      tag_530\n      jumpi\n        /* \"#utility.yul\":3037:3038   */\n      0x00\n        /* \"#utility.yul\":3034:3035   */\n      0x00\n        /* \"#utility.yul\":3027:3039   */\n      revert\n        /* \"#utility.yul\":2989:3041   */\n    tag_530:\n        /* \"#utility.yul\":3060:3089   */\n      tag_531\n        /* \"#utility.yul\":3079:3088   */\n      dup4\n        /* \"#utility.yul\":3060:3089   */\n      tag_504\n      jump\t// in\n    tag_531:\n        /* \"#utility.yul\":3050:3089   */\n      swap2\n      pop\n        /* \"#utility.yul\":3108:3146   */\n      tag_532\n        /* \"#utility.yul\":3142:3144   */\n      0x20\n        /* \"#utility.yul\":3131:3140   */\n      dup5\n        /* \"#utility.yul\":3127:3145   */\n      add\n        /* \"#utility.yul\":3108:3146   */\n      tag_504\n      jump\t// in\n    tag_532:\n        /* \"#utility.yul\":3098:3146   */\n      swap1\n      pop\n        /* \"#utility.yul\":2892:3152   */\n      swap3\n      pop\n      swap3\n      swap1\n      pop\n      jump\t// out\n        /* \"#utility.yul\":3570:3697   */\n    tag_505:\n        /* \"#utility.yul\":3631:3641   */\n      0x4e487b71\n        /* \"#utility.yul\":3626:3629   */\n      0xe0\n        /* \"#utility.yul\":3622:3642   */\n      shl\n        /* \"#utility.yul\":3619:3620   */\n      0x00\n        /* \"#utility.yul\":3612:3643   */\n      mstore\n        /* \"#utility.yul\":3662:3666   */\n      0x11\n        /* \"#utility.yul\":3659:3660   */\n      0x04\n        /* \"#utility.yul\":3652:3667   */\n      mstore\n        /* \"#utility.yul\":3686:3690   */\n      0x24\n        /* \"#utility.yul\":3683:3684   */\n      0x00\n        /* \"#utility.yul\":3676:3691   */\n      revert\n        /* \"#utility.yul\":3702:3830   */\n    tag_201:\n        /* \"#utility.yul\":3769:3778   */\n      dup2\n      dup2\n      sub\n        /* \"#utility.yul\":3790:3801   */\n      dup2\n      dup2\n      gt\n        /* \"#utility.yul\":3787:3824   */\n      iszero\n      tag_212\n      jumpi\n        /* \"#utility.yul\":3804:3822   */\n      tag_212\n      tag_505\n      jump\t// in\n        /* \"#utility.yul\":3835:3960   */\n    tag_204:\n        /* \"#utility.yul\":3900:3909   */\n      dup1\n      dup3\n      add\n        /* \"#utility.yul\":3921:3931   */\n      dup1\n      dup3\n      gt\n        /* \"#utility.yul\":3918:3954   */\n      iszero\n      tag_212\n      jumpi\n        /* \"#utility.yul\":3934:3952   */\n      tag_212\n      tag_505\n      jump\t// in\n        /* \"#utility.yul\":3965:4345   */\n    tag_207:\n        /* \"#utility.yul\":4044:4045   */\n      0x01\n        /* \"#utility.yul\":4040:4052   */\n      dup2\n      dup2\n      shr\n      swap1\n        /* \"#utility.yul\":4087:4099   */\n      dup3\n      and\n      dup1\n        /* \"#utility.yul\":4108:4169   */\n      tag_542\n      jumpi\n        /* \"#utility.yul\":4162:4166   */\n      0x7f\n        /* \"#utility.yul\":4154:4160   */\n      dup3\n        /* \"#utility.yul\":4150:4167   */\n      and\n        /* \"#utility.yul\":4140:4167   */\n      swap2\n      pop\n        /* \"#utility.yul\":4108:4169   */\n    tag_542:\n        /* \"#utility.yul\":4215:4217   */\n      0x20\n        /* \"#utility.yul\":4207:4213   */\n      dup3\n        /* \"#utility.yul\":4204:4218   */\n      lt\n        /* \"#utility.yul\":4184:4202   */\n      dup2\n        /* \"#utility.yul\":4181:4219   */\n      sub\n        /* \"#utility.yul\":4178:4339   */\n      tag_543\n      jumpi\n        /* \"#utility.yul\":4261:4271   */\n      0x4e487b71\n        /* \"#utility.yul\":4256:4259   */\n      0xe0\n        /* \"#utility.yul\":4252:4272   */\n      shl\n        /* \"#utility.yul\":4249:4250   */\n      0x00\n        /* \"#utility.yul\":4242:4273   */\n      mstore\n        /* \"#utility.yul\":4296:4300   */\n      0x22\n        /* \"#utility.yul\":4293:4294   */\n      0x04\n        /* \"#utility.yul\":4286:4301   */\n      mstore\n        /* \"#utility.yul\":4324:4328   */\n      0x24\n        /* \"#utility.yul\":4321:4322   */\n      0x00\n        /* \"#utility.yul\":4314:4329   */\n      revert\n        /* \"#utility.yul\":4178:4339   */\n    tag_543:\n      pop\n        /* \"#utility.yul\":3965:4345   */\n      swap2\n      swap1\n      pop\n      jump\t// out\n        /* \"#utility.yul\":5066:5468   */\n    tag_257:\n        /* \"#utility.yul\":5268:5270   */\n      0x20\n        /* \"#utility.yul\":5250:5271   */\n      dup1\n      dup3\n      mstore\n        /* \"#utility.yul\":5307:5309   */\n      0x26\n        /* \"#utility.yul\":5287:5305   */\n      swap1\n      dup3\n      add\n        /* \"#utility.yul\":5280:5310   */\n      mstore\n        /* \"#utility.yul\":5346:5380   */\n      0x7a65726f20616464726573732063616e206e6f74206265207468652046656541\n        /* \"#utility.yul\":5341:5343   */\n      0x40\n        /* \"#utility.yul\":5326:5344   */\n      dup3\n      add\n        /* \"#utility.yul\":5319:5381   */\n      mstore\n      shl(0xd2, 0x18d8dbdd5b9d)\n        /* \"#utility.yul\":5412:5414   */\n      0x60\n        /* \"#utility.yul\":5397:5415   */\n      dup3\n      add\n        /* \"#utility.yul\":5390:5426   */\n      mstore\n        /* \"#utility.yul\":5458:5461   */\n      0x80\n        /* \"#utility.yul\":5443:5462   */\n      add\n      swap1\n        /* \"#utility.yul\":5066:5468   */\n      jump\t// out\n        /* \"#utility.yul\":6188:6315   */\n    tag_309:\n        /* \"#utility.yul\":6249:6259   */\n      0x4e487b71\n        /* \"#utility.yul\":6244:6247   */\n      0xe0\n        /* \"#utility.yul\":6240:6260   */\n      shl\n        /* \"#utility.yul\":6237:6238   */\n      0x00\n        /* \"#utility.yul\":6230:6261   */\n      mstore\n        /* \"#utility.yul\":6280:6284   */\n      0x32\n        /* \"#utility.yul\":6277:6278   */\n      0x04\n        /* \"#utility.yul\":6270:6285   */\n      mstore\n        /* \"#utility.yul\":6304:6308   */\n      0x24\n        /* \"#utility.yul\":6301:6302   */\n      0x00\n        /* \"#utility.yul\":6294:6309   */\n      revert\n        /* \"#utility.yul\":6320:6447   */\n    tag_321:\n        /* \"#utility.yul\":6381:6391   */\n      0x4e487b71\n        /* \"#utility.yul\":6376:6379   */\n      0xe0\n        /* \"#utility.yul\":6372:6392   */\n      shl\n        /* \"#utility.yul\":6369:6370   */\n      0x00\n        /* \"#utility.yul\":6362:6393   */\n      mstore\n        /* \"#utility.yul\":6412:6416   */\n      0x31\n        /* \"#utility.yul\":6409:6410   */\n      0x04\n        /* \"#utility.yul\":6402:6417   */\n      mstore\n        /* \"#utility.yul\":6436:6440   */\n      0x24\n        /* \"#utility.yul\":6433:6434   */\n      0x00\n        /* \"#utility.yul\":6426:6441   */\n      revert\n        /* \"#utility.yul\":6452:6620   */\n    tag_331:\n        /* \"#utility.yul\":6525:6534   */\n      dup1\n      dup3\n      mul\n        /* \"#utility.yul\":6556:6565   */\n      dup2\n      iszero\n        /* \"#utility.yul\":6573:6588   */\n      dup3\n      dup3\n      div\n        /* \"#utility.yul\":6567:6589   */\n      dup5\n      eq\n        /* \"#utility.yul\":6553:6590   */\n      or\n        /* \"#utility.yul\":6543:6614   */\n      tag_212\n      jumpi\n        /* \"#utility.yul\":6594:6612   */\n      tag_212\n      tag_505\n      jump\t// in\n        /* \"#utility.yul\":9703:9920   */\n    tag_384:\n        /* \"#utility.yul\":9743:9744   */\n      0x00\n        /* \"#utility.yul\":9769:9770   */\n      dup3\n        /* \"#utility.yul\":9759:9891   */\n      tag_563\n      jumpi\n        /* \"#utility.yul\":9813:9823   */\n      0x4e487b71\n        /* \"#utility.yul\":9808:9811   */\n      0xe0\n        /* \"#utility.yul\":9804:9824   */\n      shl\n        /* \"#utility.yul\":9801:9802   */\n      0x00\n        /* \"#utility.yul\":9794:9825   */\n      mstore\n        /* \"#utility.yul\":9848:9852   */\n      0x12\n        /* \"#utility.yul\":9845:9846   */\n      0x04\n        /* \"#utility.yul\":9838:9853   */\n      mstore\n        /* \"#utility.yul\":9876:9880   */\n      0x24\n        /* \"#utility.yul\":9873:9874   */\n      0x00\n        /* \"#utility.yul\":9866:9881   */\n      revert\n        /* \"#utility.yul\":9759:9891   */\n    tag_563:\n      pop\n        /* \"#utility.yul\":9905:9914   */\n      div\n      swap1\n        /* \"#utility.yul\":9703:9920   */\n      jump\t// out\n\n    auxdata: 0xa2646970667358221220848b53d8ff40033ea81a10385d5e69bebcaac47ddb9ebfda710545112606e45864736f6c634300081d0033\n}\n",
				"bytecode": {
					"linkReferences": {},
					"object": "6080604052600b8054610100600160a81b03191633610100021790555f600e556018805460ff19169055348015610034575f5ffd5b506040518060400160405280600881526020016730b1319031b7b4b760c11b81525060405180604001604052806005815260200164435942434360d81b8152508160039081610083919061045f565b506004610090828261045f565b5050600b805460ff191660129081179091556100ae9150600a610612565b6100bc90633b9aca00610624565b600c8190556100cc905f1961063b565b6100d7905f1961065a565b600d556002600f81905560105560016011819055601255600b546013805461010083046001600160a01b03166001600160a01b0319918216811790925560148054909116909117905561012e9060ff16600a610612565b61013b9062989680610624565b601655600160075f61015a600b5461010090046001600160a01b031690565b6001600160a01b03908116825260208083019390935260409182015f908120805495151560ff1996871617905560135482168152600790935281832080548516600190811790915560145490911683528183208054851682179055308352908220805490931681179092556008906101df600b5461010090046001600160a01b031690565b6001600160a01b03908116825260208083019390935260409182015f908120805495151560ff19968716179055601354821681526008845282812080548616600190811790915560145483168252838220805490961617909455600d54600b5461010090049091168452600590925290912081905561025f903390610264565b610680565b6001600160a01b0382166102925760405163ec442f0560e01b81525f60048201526024015b60405180910390fd5b61029d5f83836102a1565b5050565b6001600160a01b0383166102cb578060025f8282546102c0919061066d565b9091555061033b9050565b6001600160a01b0383165f908152602081905260409020548181101561031d5760405163391434e360e21b81526001600160a01b03851660048201526024810182905260448101839052606401610289565b6001600160a01b0384165f9081526020819052604090209082900390555b6001600160a01b03821661035757600280548290039055610375565b6001600160a01b0382165f9081526020819052604090208054820190555b816001600160a01b0316836001600160a01b03167fddf252ad1be2c89b69c2b068fc378daa952ba7f163c4a11628f55a4df523b3ef836040516103ba91815260200190565b60405180910390a3505050565b634e487b7160e01b5f52604160045260245ffd5b600181811c908216806103ef57607f821691505b60208210810361040d57634e487b7160e01b5f52602260045260245ffd5b50919050565b601f82111561045a57805f5260205f20601f840160051c810160208510156104385750805b601f840160051c820191505b81811015610457575f8155600101610444565b50505b505050565b81516001600160401b03811115610478576104786103c7565b61048c8161048684546103db565b84610413565b6020601f8211600181146104be575f83156104a75750848201515b5f19600385901b1c1916600184901b178455610457565b5f84815260208120601f198516915b828110156104ed57878501518255602094850194600190920191016104cd565b508482101561050a57868401515f19600387901b60f8161c191681555b50505050600190811b01905550565b634e487b7160e01b5f52601160045260245ffd5b6001815b60018411156105685780850481111561054c5761054c610519565b600184161561055a57908102905b60019390931c928002610531565b935093915050565b5f8261057e5750600161060c565b8161058a57505f61060c565b81600181146105a057600281146105aa576105c6565b600191505061060c565b60ff8411156105bb576105bb610519565b50506001821b61060c565b5060208310610133831016604e8410600b84101617156105e9575081810a61060c565b6105f55f19848461052d565b805f190482111561060857610608610519565b0290505b92915050565b5f61061d8383610570565b9392505050565b808202811582820484141761060c5761060c610519565b5f8261065557634e487b7160e01b5f52601260045260245ffd5b500690565b8181038181111561060c5761060c610519565b8082018082111561060c5761060c610519565b611d3f8061068d5f395ff3fe6080604052600436106101de575f3560e01c8063838fcc90116100fd578063c486377011610092578063dd62ed3e11610062578063dd62ed3e1461059f578063f66608fe146105e3578063fdeb889f146105f7578063ffb54a9914610616575f5ffd5b8063c486377014610520578063c9567bf91461053f578063cba0e99614610553578063d00efb2f1461058a575f5ffd5b806395d89b41116100cd57806395d89b41146104af578063a8b08982146104c3578063a9059cbb146104e2578063c30796ab14610501575f5ffd5b8063838fcc901461043d57806383ad79941461045a5780638873b15f1461046e5780638da5cb5b1461048d575f5ffd5b80633af32abf116101735780635fae0576116101435780635fae0576146103a95780636049876e146103e0578063706407fd146103ff57806370a082311461041e575f5ffd5b80633af32abf14610306578063437823ec146103345780634549b039146103535780635342acb414610372575f5ffd5b80631cf8fef5116101ae5780631cf8fef51461028157806323b872dd146102b2578063313ce567146102d157806332035504146102f2575f5ffd5b8063053ab182146101e957806306fdde031461020a578063095ea7b31461023457806318160ddd14610263575f5ffd5b366101e557005b5f5ffd5b3480156101f4575f5ffd5b50610208610203366004611aae565b61062f565b005b348015610215575f5ffd5b5061021e61071a565b60405161022b9190611ac5565b60405180910390f35b34801561023f575f5ffd5b5061025361024e366004611b15565b6107aa565b604051901515815260200161022b565b34801561026e575f5ffd5b50600c545b60405190815260200161022b565b34801561028c575f5ffd5b506014546001600160a01b03165b6040516001600160a01b03909116815260200161022b565b3480156102bd575f5ffd5b506102536102cc366004611b3d565b6107c3565b3480156102dc575f5ffd5b50600b5460405160ff909116815260200161022b565b3480156102fd575f5ffd5b50600e54610273565b348015610311575f5ffd5b50610253610320366004611b77565b60086020525f908152604090205460ff1681565b34801561033f575f5ffd5b5061020861034e366004611b77565b6107e6565b34801561035e575f5ffd5b5061027361036d366004611b90565b61082d565b34801561037d575f5ffd5b5061025361038c366004611b77565b6001600160a01b03165f9081526007602052604090205460ff1690565b3480156103b4575f5ffd5b506102536103c3366004611b77565b6001600160a01b03165f9081526008602052604090205460ff1690565b3480156103eb575f5ffd5b506102086103fa366004611b77565b6108b3565b34801561040a575f5ffd5b50610208610419366004611b77565b6109f8565b348015610429575f5ffd5b50610273610438366004611b77565b610a5f565b348015610448575f5ffd5b506013546001600160a01b031661029a565b348015610465575f5ffd5b50600f54610273565b348015610479575f5ffd5b50610208610488366004611b77565b610abb565b348015610498575f5ffd5b50600b5461010090046001600160a01b031661029a565b3480156104ba575f5ffd5b5061021e610b15565b3480156104ce575f5ffd5b5060155461029a906001600160a01b031681565b3480156104ed575f5ffd5b506102536104fc366004611b15565b610b24565b34801561050c575f5ffd5b5061020861051b366004611b77565b610b31565b34801561052b575f5ffd5b5061020861053a366004611b77565b610bdf565b34801561054a575f5ffd5b50610208610c46565b34801561055e575f5ffd5b5061025361056d366004611b77565b6001600160a01b03165f9081526009602052604090205460ff1690565b348015610595575f5ffd5b5061027360175481565b3480156105aa575f5ffd5b506102736105b9366004611bc2565b6001600160a01b039182165f90815260016020908152604080832093909416825291909152205490565b3480156105ee575f5ffd5b50601154610273565b348015610602575f5ffd5b50610208610611366004611b77565b610c7b565b348015610621575f5ffd5b506018546102539060ff1681565b335f8181526009602052604090205460ff16156106a85760405162461bcd60e51b815260206004820152602c60248201527f4578636c75646564206164647265737365732063616e6e6f742063616c6c207460448201526b3434b990333ab731ba34b7b760a11b60648201526084015b60405180910390fd5b5f6106b283610e17565b5050506001600160a01b0383165f908152600560205260409020549091506106db908290611c07565b6001600160a01b0383165f90815260056020526040902055600d54610701908290611c07565b600d55600e54610712908490611c1a565b600e55505050565b60606003805461072990611c2d565b80601f016020809104026020016040519081016040528092919081815260200182805461075590611c2d565b80156107a05780601f10610777576101008083540402835291602001916107a0565b820191905f5260205f20905b81548152906001019060200180831161078357829003601f168201915b5050505050905090565b5f336107b7818585610e68565b60019150505b92915050565b5f336107d0858285610e7a565b6107db858585610ef6565b506001949350505050565b600b54339061010090046001600160a01b03166001600160a01b03160361082a576001600160a01b0381165f908152600760205260409020805460ff191660011790555b50565b5f600c548311156108805760405162461bcd60e51b815260206004820152601f60248201527f416d6f756e74206d757374206265206c657373207468616e20737570706c7900604482015260640161069f565b8161089c575f61088f84610e17565b509193506107bd92505050565b5f6108a684610e17565b509093506107bd92505050565b600b54339061010090046001600160a01b03166001600160a01b03160361082a576001600160a01b0381165f9081526009602052604090205460ff161561093c5760405162461bcd60e51b815260206004820152601b60248201527f4163636f756e7420697320616c7265616479206578636c756465640000000000604482015260640161069f565b6001600160a01b0381165f9081526005602052604090205415610993576001600160a01b0381165f9081526005602052604090205461097a9061120a565b6001600160a01b0382165f908152600660205260409020555b6001600160a01b03165f818152600960205260408120805460ff19166001908117909155600a805491820181559091527fc65a7bb8d6351c1cf70c95a316cc6a92839c986682d98bc35f958f4883f9d2a80180546001600160a01b0319169091179055565b600b54339061010090046001600160a01b03166001600160a01b03160361082a576001600160a01b038116610a3f5760405162461bcd60e51b815260040161069f90611c65565b601480546001600160a01b0383166001600160a01b031990911617905550565b6001600160a01b0381165f9081526009602052604081205460ff1615610a9a57506001600160a01b03165f9081526006602052604090205490565b6001600160a01b0382165f908152600560205260409020546107bd9061120a565b600b54339061010090046001600160a01b03166001600160a01b03160361082a57601580546001600160a01b0319166001600160a01b039290921691821790555f908152600860205260409020805460ff19166001179055565b60606004805461072990611c2d565b5f336107b7818585610ef6565b600b54339061010090046001600160a01b03166001600160a01b03160361082a576001600160a01b0381165f9081526008602052604090205460ff1615610bba5760405162461bcd60e51b815260206004820152601e60248201527f4164647265737320697320616c72656164792077686974656c69737465640000604482015260640161069f565b6001600160a01b0381165f908152600860205260409020805460ff1916600117905550565b600b54339061010090046001600160a01b03166001600160a01b03160361082a576001600160a01b038116610c265760405162461bcd60e51b815260040161069f90611c65565b601380546001600160a01b0383166001600160a01b031990911617905550565b600b54339061010090046001600160a01b03166001600160a01b031603610c79576018805460ff19166001179055436017555b565b600b54339061010090046001600160a01b03166001600160a01b03160361082a576001600160a01b0381165f9081526009602052604090205460ff16610d035760405162461bcd60e51b815260206004820152601b60248201527f4163636f756e7420697320616c726561647920696e636c756465640000000000604482015260640161069f565b5f5b600a54811015610e1357816001600160a01b0316600a8281548110610d2c57610d2c611cab565b5f918252602090912001546001600160a01b031603610e0b57600a8054610d5590600190611c07565b81548110610d6557610d65611cab565b5f91825260209091200154600a80546001600160a01b039092169183908110610d9057610d90611cab565b5f91825260208083209190910180546001600160a01b0319166001600160a01b039485161790559184168152600682526040808220829055600990925220805460ff19169055600a805480610de757610de7611cbf565b5f8281526020902081015f1990810180546001600160a01b03191690550190555050565b600101610d05565b5050565b5f5f5f5f5f610e258661128c565b90505f610e328288611c07565b90505f610e3d6112bf565b90505f610e4a8284611cd3565b90505f610e57838b611cd3565b9a9199509297509095509350505050565b610e7583838360016112e0565b505050565b6001600160a01b038381165f908152600160209081526040808320938616835292905220545f19811015610ef05781811015610ee257604051637dc7a0d960e11b81526001600160a01b0384166004820152602481018290526044810183905260640161069f565b610ef084848484035f6112e0565b50505050565b6018548390839060ff16610f70576001600160a01b0382165f9081526008602052604090205460ff16610f6b5760405162461bcd60e51b815260206004820152601760248201527f54726164696e67206e6f742079657420656e61626c6564000000000000000000604482015260640161069f565b610ff6565b601754610f7e906003611c1a565b4311610ff6576001600160a01b0381165f9081526008602052604090205460ff16610ff65760405162461bcd60e51b815260206004820152602260248201527f4c61756e63682070726f74656374696f6e3a206e6f742077686974656c697374604482015261195960f21b606482015260840161069f565b6001600160a01b03851661105a5760405162461bcd60e51b815260206004820152602560248201527f45524332303a207472616e736665722066726f6d20746865207a65726f206164604482015264647265737360d81b606482015260840161069f565b6001600160a01b0384166110bc5760405162461bcd60e51b815260206004820152602360248201527f45524332303a207472616e7366657220746f20746865207a65726f206164647260448201526265737360e81b606482015260840161069f565b5f6110c686610a5f565b9050838110156111275760405162461bcd60e51b815260206004820152602660248201527f45524332303a207472616e7366657220616d6f756e7420657863656564732062604482015265616c616e636560d01b606482015260840161069f565b6001600160a01b0385165f9081526007602052604090205460ff1661119e576016548461115387610a5f565b61115d9190611c1a565b111561119e5760405162461bcd60e51b815260206004820152601060248201526f5768616c65206465746563746564212160801b604482015260640161069f565b6015545f906001600160a01b03888116911614806111c957506015546001600160a01b038781169116145b156111d2575060015b6001600160a01b0387165f9081526007602052604090205460ff16156111f557505f5b611201878787846113b2565b50505050505050565b5f600d548211156112705760405162461bcd60e51b815260206004820152602a60248201527f416d6f756e74206d757374206265206c657373207468616e20746f74616c207260448201526965666c656374696f6e7360b01b606482015260840161069f565b5f6112796112bf565b90506112858184611cea565b9392505050565b5f5f601154600f5461129e9190611c1a565b90505f60646112ad8386611cd3565b6112b79190611cea565b949350505050565b5f5f5f6112ca611521565b90925090506112d98183611cea565b9250505090565b6001600160a01b0384166113095760405163e602df0560e01b81525f600482015260240161069f565b6001600160a01b03831661133257604051634a1406b160e11b81525f600482015260240161069f565b6001600160a01b038085165f9081526001602090815260408083209387168352929052208290558015610ef057826001600160a01b0316846001600160a01b03167f8c5be1e5ebec7d5bd14f71427d1e84f3dd0314c0f7b2291e5b200ac8c7c3b925846040516113a491815260200190565b60405180910390a350505050565b806113bf576113bf611691565b6001600160a01b0384165f9081526009602052604090205460ff1680156113fe57506001600160a01b0383165f9081526009602052604090205460ff16155b156114135761140e8484846116be565b61150b565b6001600160a01b0384165f9081526009602052604090205460ff1615801561145257506001600160a01b0383165f9081526009602052604090205460ff165b156114625761140e8484846117d9565b6001600160a01b0384165f9081526009602052604090205460ff161580156114a257506001600160a01b0383165f9081526009602052604090205460ff16155b156114b25761140e848484611878565b6001600160a01b0384165f9081526009602052604090205460ff1680156114f057506001600160a01b0383165f9081526009602052604090205460ff165b156115005761140e8484846118b2565b61150b848484611878565b80610ef057610ef0601054600f55601254601155565b600d54600c545f918291825b600a54811015611660578260055f600a848154811061154e5761154e611cab565b5f9182526020808320909101546001600160a01b0316835282019290925260400190205411806115b657508160065f600a848154811061159057611590611cab565b5f9182526020808320909101546001600160a01b03168352820192909252604001902054115b156115cc57600d54600c54945094505050509091565b60055f600a83815481106115e2576115e2611cab565b5f9182526020808320909101546001600160a01b031683528201929092526040019020546116109084611c07565b925060065f600a838154811061162857611628611cab565b5f9182526020808320909101546001600160a01b031683528201929092526040019020546116569083611c07565b915060010161152d565b50600c54600d546116719190611cea565b82101561168857600d54600c549350935050509091565b90939092509050565b600f541580156116a15750601154155b156116a857565b600f8054601055601180546012555f9182905555565b5f5f5f5f6116cb85610e17565b6001600160a01b038b165f90815260066020526040902054939750919550935091506116f8908690611c07565b6001600160a01b0388165f90815260066020908152604080832093909355600590522054611727908590611c07565b6001600160a01b038089165f908152600560205260408082209390935590881681522054611756908490611c1a565b6001600160a01b0387165f9081526005602052604090205561177987868361191b565b6117838582611a5c565b856001600160a01b0316876001600160a01b03167fddf252ad1be2c89b69c2b068fc378daa952ba7f163c4a11628f55a4df523b3ef846040516117c891815260200190565b60405180910390a350505050505050565b5f5f5f5f6117e685610e17565b6001600160a01b038b165f9081526005602052604090205493975091955093509150611813908590611c07565b6001600160a01b038089165f90815260056020908152604080832094909455918916815260069091522054611849908390611c1a565b6001600160a01b0387165f90815260066020908152604080832093909355600590522054611756908490611c1a565b5f5f5f5f61188585610e17565b6001600160a01b038b165f9081526005602052604090205493975091955093509150611727908590611c07565b5f5f5f5f6118bf85610e17565b6001600160a01b038b165f90815260066020526040902054939750919550935091506118ec908690611c07565b6001600160a01b0388165f90815260066020908152604080832093909355600590522054611813908590611c07565b5f60646011548461192c9190611cd3565b6119369190611cea565b90508015610ef0575f600261194b8484611cd3565b6119559190611cea565b6013546001600160a01b03165f9081526005602052604090205490915061197d908290611c1a565b6013546001600160a01b039081165f9081526005602052604080822093909355601454909116815220546119b2908290611c1a565b6014546001600160a01b039081165f9081526005602090815260409182902093909355601354905185815290821692918816917fddf252ad1be2c89b69c2b068fc378daa952ba7f163c4a11628f55a4df523b3ef910160405180910390a36014546040518381526001600160a01b03918216918716907fddf252ad1be2c89b69c2b068fc378daa952ba7f163c4a11628f55a4df523b3ef9060200160405180910390a35050505050565b5f6064600f5484611a6d9190611cd3565b611a779190611cea565b90505f611a848383611cd3565b905080600d54611a949190611c07565b600d55600e54611aa5908390611c1a565b600e5550505050565b5f60208284031215611abe575f5ffd5b5035919050565b602081525f82518060208401528060208501604085015e5f604082850101526040601f19601f83011684010191505092915050565b80356001600160a01b0381168114611b10575f5ffd5b919050565b5f5f60408385031215611b26575f5ffd5b611b2f83611afa565b946020939093013593505050565b5f5f5f60608486031215611b4f575f5ffd5b611b5884611afa565b9250611b6660208501611afa565b929592945050506040919091013590565b5f60208284031215611b87575f5ffd5b61128582611afa565b5f5f60408385031215611ba1575f5ffd5b8235915060208301358015158114611bb7575f5ffd5b809150509250929050565b5f5f60408385031215611bd3575f5ffd5b611bdc83611afa565b9150611bea60208401611afa565b90509250929050565b634e487b7160e01b5f52601160045260245ffd5b818103818111156107bd576107bd611bf3565b808201808211156107bd576107bd611bf3565b600181811c90821680611c4157607f821691505b602082108103611c5f57634e487b7160e01b5f52602260045260245ffd5b50919050565b60208082526026908201527f7a65726f20616464726573732063616e206e6f7420626520746865204665654160408201526518d8dbdd5b9d60d21b606082015260800190565b634e487b7160e01b5f52603260045260245ffd5b634e487b7160e01b5f52603160045260245ffd5b80820281158282048414176107bd576107bd611bf3565b5f82611d0457634e487b7160e01b5f52601260045260245ffd5b50049056fea2646970667358221220848b53d8ff40033ea81a10385d5e69bebcaac47ddb9ebfda710545112606e45864736f6c634300081d0033",
					"opcodes": "PUSH1 0x80 PUSH1 0x40 MSTORE PUSH1 0xB DUP1 SLOAD PUSH2 0x100 PUSH1 0x1 PUSH1 0xA8 SHL SUB NOT AND CALLER PUSH2 0x100 MUL OR SWAP1 SSTORE PUSH0 PUSH1 0xE SSTORE PUSH1 0x18 DUP1 SLOAD PUSH1 0xFF NOT AND SWAP1 SSTORE CALLVALUE DUP1 ISZERO PUSH2 0x34 JUMPI PUSH0 PUSH0 REVERT JUMPDEST POP PUSH1 0x40 MLOAD DUP1 PUSH1 0x40 ADD PUSH1 0x40 MSTORE DUP1 PUSH1 0x8 DUP2 MSTORE PUSH1 0x20 ADD PUSH8 0x30B1319031B7B4B7 PUSH1 0xC1 SHL DUP2 MSTORE POP PUSH1 0x40 MLOAD DUP1 PUSH1 0x40 ADD PUSH1 0x40 MSTORE DUP1 PUSH1 0x5 DUP2 MSTORE PUSH1 0x20 ADD PUSH5 0x4359424343 PUSH1 0xD8 SHL DUP2 MSTORE POP DUP2 PUSH1 0x3 SWAP1 DUP2 PUSH2 0x83 SWAP2 SWAP1 PUSH2 0x45F JUMP JUMPDEST POP PUSH1 0x4 PUSH2 0x90 DUP3 DUP3 PUSH2 0x45F JUMP JUMPDEST POP POP PUSH1 0xB DUP1 SLOAD PUSH1 0xFF NOT AND PUSH1 0x12 SWAP1 DUP2 OR SWAP1 SWAP2 SSTORE PUSH2 0xAE SWAP2 POP PUSH1 0xA PUSH2 0x612 JUMP JUMPDEST PUSH2 0xBC SWAP1 PUSH4 0x3B9ACA00 PUSH2 0x624 JUMP JUMPDEST PUSH1 0xC DUP2 SWAP1 SSTORE PUSH2 0xCC SWAP1 PUSH0 NOT PUSH2 0x63B JUMP JUMPDEST PUSH2 0xD7 SWAP1 PUSH0 NOT PUSH2 0x65A JUMP JUMPDEST PUSH1 0xD SSTORE PUSH1 0x2 PUSH1 0xF DUP2 SWAP1 SSTORE PUSH1 0x10 SSTORE PUSH1 0x1 PUSH1 0x11 DUP2 SWAP1 SSTORE PUSH1 0x12 SSTORE PUSH1 0xB SLOAD PUSH1 0x13 DUP1 SLOAD PUSH2 0x100 DUP4 DIV PUSH1 0x1 PUSH1 0x1 PUSH1 0xA0 SHL SUB AND PUSH1 0x1 PUSH1 0x1 PUSH1 0xA0 SHL SUB NOT SWAP2 DUP3 AND DUP2 OR SWAP1 SWAP3 SSTORE PUSH1 0x14 DUP1 SLOAD SWAP1 SWAP2 AND SWAP1 SWAP2 OR SWAP1 SSTORE PUSH2 0x12E SWAP1 PUSH1 0xFF AND PUSH1 0xA PUSH2 0x612 JUMP JUMPDEST PUSH2 0x13B SWAP1 PUSH3 0x989680 PUSH2 0x624 JUMP JUMPDEST PUSH1 0x16 SSTORE PUSH1 0x1 PUSH1 0x7 PUSH0 PUSH2 0x15A PUSH1 0xB SLOAD PUSH2 0x100 SWAP1 DIV PUSH1 0x1 PUSH1 0x1 PUSH1 0xA0 SHL SUB AND SWAP1 JUMP JUMPDEST PUSH1 0x1 PUSH1 0x1 PUSH1 0xA0 SHL SUB SWAP1 DUP2 AND DUP3 MSTORE PUSH1 0x20 DUP1 DUP4 ADD SWAP4 SWAP1 SWAP4 MSTORE PUSH1 0x40 SWAP2 DUP3 ADD PUSH0 SWAP1 DUP2 KECCAK256 DUP1 SLOAD SWAP6 ISZERO ISZERO PUSH1 0xFF NOT SWAP7 DUP8 AND OR SWAP1 SSTORE PUSH1 0x13 SLOAD DUP3 AND DUP2 MSTORE PUSH1 0x7 SWAP1 SWAP4 MSTORE DUP2 DUP4 KECCAK256 DUP1 SLOAD DUP6 AND PUSH1 0x1 SWAP1 DUP2 OR SWAP1 SWAP2 SSTORE PUSH1 0x14 SLOAD SWAP1 SWAP2 AND DUP4 MSTORE DUP2 DUP4 KECCAK256 DUP1 SLOAD DUP6 AND DUP3 OR SWAP1 SSTORE ADDRESS DUP4 MSTORE SWAP1 DUP3 KECCAK256 DUP1 SLOAD SWAP1 SWAP4 AND DUP2 OR SWAP1 SWAP3 SSTORE PUSH1 0x8 SWAP1 PUSH2 0x1DF PUSH1 0xB SLOAD PUSH2 0x100 SWAP1 DIV PUSH1 0x1 PUSH1 0x1 PUSH1 0xA0 SHL SUB AND SWAP1 JUMP JUMPDEST PUSH1 0x1 PUSH1 0x1 PUSH1 0xA0 SHL SUB SWAP1 DUP2 AND DUP3 MSTORE PUSH1 0x20 DUP1 DUP4 ADD SWAP4 SWAP1 SWAP4 MSTORE PUSH1 0x40 SWAP2 DUP3 ADD PUSH0 SWAP1 DUP2 KECCAK256 DUP1 SLOAD SWAP6 ISZERO ISZERO PUSH1 0xFF NOT SWAP7 DUP8 AND OR SWAP1 SSTORE PUSH1 0x13 SLOAD DUP3 AND DUP2 MSTORE PUSH1 0x8 DUP5 MSTORE DUP3 DUP2 KECCAK256 DUP1 SLOAD DUP7 AND PUSH1 0x1 SWAP1 DUP2 OR SWAP1 SWAP2 SSTORE PUSH1 0x14 SLOAD DUP4 AND DUP3 MSTORE DUP4 DUP3 KECCAK256 DUP1 SLOAD SWAP1 SWAP7 AND OR SWAP1 SWAP5 SSTORE PUSH1 0xD SLOAD PUSH1 0xB SLOAD PUSH2 0x100 SWAP1 DIV SWAP1 SWAP2 AND DUP5 MSTORE PUSH1 0x5 SWAP1 SWAP3 MSTORE SWAP1 SWAP2 KECCAK256 DUP2 SWAP1 SSTORE PUSH2 0x25F SWAP1 CALLER SWAP1 PUSH2 0x264 JUMP JUMPDEST PUSH2 0x680 JUMP JUMPDEST PUSH1 0x1 PUSH1 0x1 PUSH1 0xA0 SHL SUB DUP3 AND PUSH2 0x292 JUMPI PUSH1 0x40 MLOAD PUSH4 0xEC442F05 PUSH1 0xE0 SHL DUP2 MSTORE PUSH0 PUSH1 0x4 DUP3 ADD MSTORE PUSH1 0x24 ADD JUMPDEST PUSH1 0x40 MLOAD DUP1 SWAP2 SUB SWAP1 REVERT JUMPDEST PUSH2 0x29D PUSH0 DUP4 DUP4 PUSH2 0x2A1 JUMP JUMPDEST POP POP JUMP JUMPDEST PUSH1 0x1 PUSH1 0x1 PUSH1 0xA0 SHL SUB DUP4 AND PUSH2 0x2CB JUMPI DUP1 PUSH1 0x2 PUSH0 DUP3 DUP3 SLOAD PUSH2 0x2C0 SWAP2 SWAP1 PUSH2 0x66D JUMP JUMPDEST SWAP1 SWAP2 SSTORE POP PUSH2 0x33B SWAP1 POP JUMP JUMPDEST PUSH1 0x1 PUSH1 0x1 PUSH1 0xA0 SHL SUB DUP4 AND PUSH0 SWAP1 DUP2 MSTORE PUSH1 0x20 DUP2 SWAP1 MSTORE PUSH1 0x40 SWAP1 KECCAK256 SLOAD DUP2 DUP2 LT ISZERO PUSH2 0x31D JUMPI PUSH1 0x40 MLOAD PUSH4 0x391434E3 PUSH1 0xE2 SHL DUP2 MSTORE PUSH1 0x1 PUSH1 0x1 PUSH1 0xA0 SHL SUB DUP6 AND PUSH1 0x4 DUP3 ADD MSTORE PUSH1 0x24 DUP2 ADD DUP3 SWAP1 MSTORE PUSH1 0x44 DUP2 ADD DUP4 SWAP1 MSTORE PUSH1 0x64 ADD PUSH2 0x289 JUMP JUMPDEST PUSH1 0x1 PUSH1 0x1 PUSH1 0xA0 SHL SUB DUP5 AND PUSH0 SWAP1 DUP2 MSTORE PUSH1 0x20 DUP2 SWAP1 MSTORE PUSH1 0x40 SWAP1 KECCAK256 SWAP1 DUP3 SWAP1 SUB SWAP1 SSTORE JUMPDEST PUSH1 0x1 PUSH1 0x1 PUSH1 0xA0 SHL SUB DUP3 AND PUSH2 0x357 JUMPI PUSH1 0x2 DUP1 SLOAD DUP3 SWAP1 SUB SWAP1 SSTORE PUSH2 0x375 JUMP JUMPDEST PUSH1 0x1 PUSH1 0x1 PUSH1 0xA0 SHL SUB DUP3 AND PUSH0 SWAP1 DUP2 MSTORE PUSH1 0x20 DUP2 SWAP1 MSTORE PUSH1 0x40 SWAP1 KECCAK256 DUP1 SLOAD DUP3 ADD SWAP1 SSTORE JUMPDEST DUP2 PUSH1 0x1 PUSH1 0x1 PUSH1 0xA0 SHL SUB AND DUP4 PUSH1 0x1 PUSH1 0x1 PUSH1 0xA0 SHL SUB AND PUSH32 0xDDF252AD1BE2C89B69C2B068FC378DAA952BA7F163C4A11628F55A4DF523B3EF DUP4 PUSH1 0x40 MLOAD PUSH2 0x3BA SWAP2 DUP2 MSTORE PUSH1 0x20 ADD SWAP1 JUMP JUMPDEST PUSH1 0x40 MLOAD DUP1 SWAP2 SUB SWAP1 LOG3 POP POP POP JUMP JUMPDEST PUSH4 0x4E487B71 PUSH1 0xE0 SHL PUSH0 MSTORE PUSH1 0x41 PUSH1 0x4 MSTORE PUSH1 0x24 PUSH0 REVERT JUMPDEST PUSH1 0x1 DUP2 DUP2 SHR SWAP1 DUP3 AND DUP1 PUSH2 0x3EF JUMPI PUSH1 0x7F DUP3 AND SWAP2 POP JUMPDEST PUSH1 0x20 DUP3 LT DUP2 SUB PUSH2 0x40D JUMPI PUSH4 0x4E487B71 PUSH1 0xE0 SHL PUSH0 MSTORE PUSH1 0x22 PUSH1 0x4 MSTORE PUSH1 0x24 PUSH0 REVERT JUMPDEST POP SWAP2 SWAP1 POP JUMP JUMPDEST PUSH1 0x1F DUP3 GT ISZERO PUSH2 0x45A JUMPI DUP1 PUSH0 MSTORE PUSH1 0x20 PUSH0 KECCAK256 PUSH1 0x1F DUP5 ADD PUSH1 0x5 SHR DUP2 ADD PUSH1 0x20 DUP6 LT ISZERO PUSH2 0x438 JUMPI POP DUP1 JUMPDEST PUSH1 0x1F DUP5 ADD PUSH1 0x5 SHR DUP3 ADD SWAP2 POP JUMPDEST DUP2 DUP2 LT ISZERO PUSH2 0x457 JUMPI PUSH0 DUP2 SSTORE PUSH1 0x1 ADD PUSH2 0x444 JUMP JUMPDEST POP POP JUMPDEST POP POP POP JUMP JUMPDEST DUP2 MLOAD PUSH1 0x1 PUSH1 0x1 PUSH1 0x40 SHL SUB DUP2 GT ISZERO PUSH2 0x478 JUMPI PUSH2 0x478 PUSH2 0x3C7 JUMP JUMPDEST PUSH2 0x48C DUP2 PUSH2 0x486 DUP5 SLOAD PUSH2 0x3DB JUMP JUMPDEST DUP5 PUSH2 0x413 JUMP JUMPDEST PUSH1 0x20 PUSH1 0x1F DUP3 GT PUSH1 0x1 DUP2 EQ PUSH2 0x4BE JUMPI PUSH0 DUP4 ISZERO PUSH2 0x4A7 JUMPI POP DUP5 DUP3 ADD MLOAD JUMPDEST PUSH0 NOT PUSH1 0x3 DUP6 SWAP1 SHL SHR NOT AND PUSH1 0x1 DUP5 SWAP1 SHL OR DUP5 SSTORE PUSH2 0x457 JUMP JUMPDEST PUSH0 DUP5 DUP2 MSTORE PUSH1 0x20 DUP2 KECCAK256 PUSH1 0x1F NOT DUP6 AND SWAP2 JUMPDEST DUP3 DUP2 LT ISZERO PUSH2 0x4ED JUMPI DUP8 DUP6 ADD MLOAD DUP3 SSTORE PUSH1 0x20 SWAP5 DUP6 ADD SWAP5 PUSH1 0x1 SWAP1 SWAP3 ADD SWAP2 ADD PUSH2 0x4CD JUMP JUMPDEST POP DUP5 DUP3 LT ISZERO PUSH2 0x50A JUMPI DUP7 DUP5 ADD MLOAD PUSH0 NOT PUSH1 0x3 DUP8 SWAP1 SHL PUSH1 0xF8 AND SHR NOT AND DUP2 SSTORE JUMPDEST POP POP POP POP PUSH1 0x1 SWAP1 DUP2 SHL ADD SWAP1 SSTORE POP JUMP JUMPDEST PUSH4 0x4E487B71 PUSH1 0xE0 SHL PUSH0 MSTORE PUSH1 0x11 PUSH1 0x4 MSTORE PUSH1 0x24 PUSH0 REVERT JUMPDEST PUSH1 0x1 DUP2 JUMPDEST PUSH1 0x1 DUP5 GT ISZERO PUSH2 0x568 JUMPI DUP1 DUP6 DIV DUP2 GT ISZERO PUSH2 0x54C JUMPI PUSH2 0x54C PUSH2 0x519 JUMP JUMPDEST PUSH1 0x1 DUP5 AND ISZERO PUSH2 0x55A JUMPI SWAP1 DUP2 MUL SWAP1 JUMPDEST PUSH1 0x1 SWAP4 SWAP1 SWAP4 SHR SWAP3 DUP1 MUL PUSH2 0x531 JUMP JUMPDEST SWAP4 POP SWAP4 SWAP2 POP POP JUMP JUMPDEST PUSH0 DUP3 PUSH2 0x57E JUMPI POP PUSH1 0x1 PUSH2 0x60C JUMP JUMPDEST DUP2 PUSH2 0x58A JUMPI POP PUSH0 PUSH2 0x60C JUMP JUMPDEST DUP2 PUSH1 0x1 DUP2 EQ PUSH2 0x5A0 JUMPI PUSH1 0x2 DUP2 EQ PUSH2 0x5AA JUMPI PUSH2 0x5C6 JUMP JUMPDEST PUSH1 0x1 SWAP2 POP POP PUSH2 0x60C JUMP JUMPDEST PUSH1 0xFF DUP5 GT ISZERO PUSH2 0x5BB JUMPI PUSH2 0x5BB PUSH2 0x519 JUMP JUMPDEST POP POP PUSH1 0x1 DUP3 SHL PUSH2 0x60C JUMP JUMPDEST POP PUSH1 0x20 DUP4 LT PUSH2 0x133 DUP4 LT AND PUSH1 0x4E DUP5 LT PUSH1 0xB DUP5 LT AND OR ISZERO PUSH2 0x5E9 JUMPI POP DUP2 DUP2 EXP PUSH2 0x60C JUMP JUMPDEST PUSH2 0x5F5 PUSH0 NOT DUP5 DUP5 PUSH2 0x52D JUMP JUMPDEST DUP1 PUSH0 NOT DIV DUP3 GT ISZERO PUSH2 0x608 JUMPI PUSH2 0x608 PUSH2 0x519 JUMP JUMPDEST MUL SWAP1 POP JUMPDEST SWAP3 SWAP2 POP POP JUMP JUMPDEST PUSH0 PUSH2 0x61D DUP4 DUP4 PUSH2 0x570 JUMP JUMPDEST SWAP4 SWAP3 POP POP POP JUMP JUMPDEST DUP1 DUP3 MUL DUP2 ISZERO DUP3 DUP3 DIV DUP5 EQ OR PUSH2 0x60C JUMPI PUSH2 0x60C PUSH2 0x519 JUMP JUMPDEST PUSH0 DUP3 PUSH2 0x655 JUMPI PUSH4 0x4E487B71 PUSH1 0xE0 SHL PUSH0 MSTORE PUSH1 0x12 PUSH1 0x4 MSTORE PUSH1 0x24 PUSH0 REVERT JUMPDEST POP MOD SWAP1 JUMP JUMPDEST DUP2 DUP2 SUB DUP2 DUP2 GT ISZERO PUSH2 0x60C JUMPI PUSH2 0x60C PUSH2 0x519 JUMP JUMPDEST DUP1 DUP3 ADD DUP1 DUP3 GT ISZERO PUSH2 0x60C JUMPI PUSH2 0x60C PUSH2 0x519 JUMP JUMPDEST PUSH2 0x1D3F DUP1 PUSH2 0x68D PUSH0 CODECOPY PUSH0 RETURN INVALID PUSH1 0x80 PUSH1 0x40 MSTORE PUSH1 0x4 CALLDATASIZE LT PUSH2 0x1DE JUMPI PUSH0 CALLDATALOAD PUSH1 0xE0 SHR DUP1 PUSH4 0x838FCC90 GT PUSH2 0xFD JUMPI DUP1 PUSH4 0xC4863770 GT PUSH2 0x92 JUMPI DUP1 PUSH4 0xDD62ED3E GT PUSH2 0x62 JUMPI DUP1 PUSH4 0xDD62ED3E EQ PUSH2 0x59F JUMPI DUP1 PUSH4 0xF66608FE EQ PUSH2 0x5E3 JUMPI DUP1 PUSH4 0xFDEB889F EQ PUSH2 0x5F7 JUMPI DUP1 PUSH4 0xFFB54A99 EQ PUSH2 0x616 JUMPI PUSH0 PUSH0 REVERT JUMPDEST DUP1 PUSH4 0xC4863770 EQ PUSH2 0x520 JUMPI DUP1 PUSH4 0xC9567BF9 EQ PUSH2 0x53F JUMPI DUP1 PUSH4 0xCBA0E996 EQ PUSH2 0x553 JUMPI DUP1 PUSH4 0xD00EFB2F EQ PUSH2 0x58A JUMPI PUSH0 PUSH0 REVERT JUMPDEST DUP1 PUSH4 0x95D89B41 GT PUSH2 0xCD JUMPI DUP1 PUSH4 0x95D89B41 EQ PUSH2 0x4AF JUMPI DUP1 PUSH4 0xA8B08982 EQ PUSH2 0x4C3 JUMPI DUP1 PUSH4 0xA9059CBB EQ PUSH2 0x4E2 JUMPI DUP1 PUSH4 0xC30796AB EQ PUSH2 0x501 JUMPI PUSH0 PUSH0 REVERT JUMPDEST DUP1 PUSH4 0x838FCC90 EQ PUSH2 0x43D JUMPI DUP1 PUSH4 0x83AD7994 EQ PUSH2 0x45A JUMPI DUP1 PUSH4 0x8873B15F EQ PUSH2 0x46E JUMPI DUP1 PUSH4 0x8DA5CB5B EQ PUSH2 0x48D JUMPI PUSH0 PUSH0 REVERT JUMPDEST DUP1 PUSH4 0x3AF32ABF GT PUSH2 0x173 JUMPI DUP1 PUSH4 0x5FAE0576 GT PUSH2 0x143 JUMPI DUP1 PUSH4 0x5FAE0576 EQ PUSH2 0x3A9 JUMPI DUP1 PUSH4 0x6049876E EQ PUSH2 0x3E0 JUMPI DUP1 PUSH4 0x706407FD EQ PUSH2 0x3FF JUMPI DUP1 PUSH4 0x70A08231 EQ PUSH2 0x41E JUMPI PUSH0 PUSH0 REVERT JUMPDEST DUP1 PUSH4 0x3AF32ABF EQ PUSH2 0x306 JUMPI DUP1 PUSH4 0x437823EC EQ PUSH2 0x334 JUMPI DUP1 PUSH4 0x4549B039 EQ PUSH2 0x353 JUMPI DUP1 PUSH4 0x5342ACB4 EQ PUSH2 0x372 JUMPI PUSH0 PUSH0 REVERT JUMPDEST DUP1 PUSH4 0x1CF8FEF5 GT PUSH2 0x1AE JUMPI DUP1 PUSH4 0x1CF8FEF5 EQ PUSH2 0x281 JUMPI DUP1 PUSH4 0x23B872DD EQ PUSH2 0x2B2 JUMPI DUP1 PUSH4 0x313CE567 EQ PUSH2 0x2D1 JUMPI DUP1 PUSH4 0x32035504 EQ PUSH2 0x2F2 JUMPI PUSH0 PUSH0 REVERT JUMPDEST DUP1 PUSH4 0x53AB182 EQ PUSH2 0x1E9 JUMPI DUP1 PUSH4 0x6FDDE03 EQ PUSH2 0x20A JUMPI DUP1 PUSH4 0x95EA7B3 EQ PUSH2 0x234 JUMPI DUP1 PUSH4 0x18160DDD EQ PUSH2 0x263 JUMPI PUSH0 PUSH0 REVERT JUMPDEST CALLDATASIZE PUSH2 0x1E5 JUMPI STOP JUMPDEST PUSH0 PUSH0 REVERT JUMPDEST CALLVALUE DUP1 ISZERO PUSH2 0x1F4 JUMPI PUSH0 PUSH0 REVERT JUMPDEST POP PUSH2 0x208 PUSH2 0x203 CALLDATASIZE PUSH1 0x4 PUSH2 0x1AAE JUMP JUMPDEST PUSH2 0x62F JUMP JUMPDEST STOP JUMPDEST CALLVALUE DUP1 ISZERO PUSH2 0x215 JUMPI PUSH0 PUSH0 REVERT JUMPDEST POP PUSH2 0x21E PUSH2 0x71A JUMP JUMPDEST PUSH1 0x40 MLOAD PUSH2 0x22B SWAP2 SWAP1 PUSH2 0x1AC5 JUMP JUMPDEST PUSH1 0x40 MLOAD DUP1 SWAP2 SUB SWAP1 RETURN JUMPDEST CALLVALUE DUP1 ISZERO PUSH2 0x23F JUMPI PUSH0 PUSH0 REVERT JUMPDEST POP PUSH2 0x253 PUSH2 0x24E CALLDATASIZE PUSH1 0x4 PUSH2 0x1B15 JUMP JUMPDEST PUSH2 0x7AA JUMP JUMPDEST PUSH1 0x40 MLOAD SWAP1 ISZERO ISZERO DUP2 MSTORE PUSH1 0x20 ADD PUSH2 0x22B JUMP JUMPDEST CALLVALUE DUP1 ISZERO PUSH2 0x26E JUMPI PUSH0 PUSH0 REVERT JUMPDEST POP PUSH1 0xC SLOAD JUMPDEST PUSH1 0x40 MLOAD SWAP1 DUP2 MSTORE PUSH1 0x20 ADD PUSH2 0x22B JUMP JUMPDEST CALLVALUE DUP1 ISZERO PUSH2 0x28C JUMPI PUSH0 PUSH0 REVERT JUMPDEST POP PUSH1 0x14 SLOAD PUSH1 0x1 PUSH1 0x1 PUSH1 0xA0 SHL SUB AND JUMPDEST PUSH1 0x40 MLOAD PUSH1 0x1 PUSH1 0x1 PUSH1 0xA0 SHL SUB SWAP1 SWAP2 AND DUP2 MSTORE PUSH1 0x20 ADD PUSH2 0x22B JUMP JUMPDEST CALLVALUE DUP1 ISZERO PUSH2 0x2BD JUMPI PUSH0 PUSH0 REVERT JUMPDEST POP PUSH2 0x253 PUSH2 0x2CC CALLDATASIZE PUSH1 0x4 PUSH2 0x1B3D JUMP JUMPDEST PUSH2 0x7C3 JUMP JUMPDEST CALLVALUE DUP1 ISZERO PUSH2 0x2DC JUMPI PUSH0 PUSH0 REVERT JUMPDEST POP PUSH1 0xB SLOAD PUSH1 0x40 MLOAD PUSH1 0xFF SWAP1 SWAP2 AND DUP2 MSTORE PUSH1 0x20 ADD PUSH2 0x22B JUMP JUMPDEST CALLVALUE DUP1 ISZERO PUSH2 0x2FD JUMPI PUSH0 PUSH0 REVERT JUMPDEST POP PUSH1 0xE SLOAD PUSH2 0x273 JUMP JUMPDEST CALLVALUE DUP1 ISZERO PUSH2 0x311 JUMPI PUSH0 PUSH0 REVERT JUMPDEST POP PUSH2 0x253 PUSH2 0x320 CALLDATASIZE PUSH1 0x4 PUSH2 0x1B77 JUMP JUMPDEST PUSH1 0x8 PUSH1 0x20 MSTORE PUSH0 SWAP1 DUP2 MSTORE PUSH1 0x40 SWAP1 KECCAK256 SLOAD PUSH1 0xFF AND DUP2 JUMP JUMPDEST CALLVALUE DUP1 ISZERO PUSH2 0x33F JUMPI PUSH0 PUSH0 REVERT JUMPDEST POP PUSH2 0x208 PUSH2 0x34E CALLDATASIZE PUSH1 0x4 PUSH2 0x1B77 JUMP JUMPDEST PUSH2 0x7E6 JUMP JUMPDEST CALLVALUE DUP1 ISZERO PUSH2 0x35E JUMPI PUSH0 PUSH0 REVERT JUMPDEST POP PUSH2 0x273 PUSH2 0x36D CALLDATASIZE PUSH1 0x4 PUSH2 0x1B90 JUMP JUMPDEST PUSH2 0x82D JUMP JUMPDEST CALLVALUE DUP1 ISZERO PUSH2 0x37D JUMPI PUSH0 PUSH0 REVERT JUMPDEST POP PUSH2 0x253 PUSH2 0x38C CALLDATASIZE PUSH1 0x4 PUSH2 0x1B77 JUMP JUMPDEST PUSH1 0x1 PUSH1 0x1 PUSH1 0xA0 SHL SUB AND PUSH0 SWAP1 DUP2 MSTORE PUSH1 0x7 PUSH1 0x20 MSTORE PUSH1 0x40 SWAP1 KECCAK256 SLOAD PUSH1 0xFF AND SWAP1 JUMP JUMPDEST CALLVALUE DUP1 ISZERO PUSH2 0x3B4 JUMPI PUSH0 PUSH0 REVERT JUMPDEST POP PUSH2 0x253 PUSH2 0x3C3 CALLDATASIZE PUSH1 0x4 PUSH2 0x1B77 JUMP JUMPDEST PUSH1 0x1 PUSH1 0x1 PUSH1 0xA0 SHL SUB AND PUSH0 SWAP1 DUP2 MSTORE PUSH1 0x8 PUSH1 0x20 MSTORE PUSH1 0x40 SWAP1 KECCAK256 SLOAD PUSH1 0xFF AND SWAP1 JUMP JUMPDEST CALLVALUE DUP1 ISZERO PUSH2 0x3EB JUMPI PUSH0 PUSH0 REVERT JUMPDEST POP PUSH2 0x208 PUSH2 0x3FA CALLDATASIZE PUSH1 0x4 PUSH2 0x1B77 JUMP JUMPDEST PUSH2 0x8B3 JUMP JUMPDEST CALLVALUE DUP1 ISZERO PUSH2 0x40A JUMPI PUSH0 PUSH0 REVERT JUMPDEST POP PUSH2 0x208 PUSH2 0x419 CALLDATASIZE PUSH1 0x4 PUSH2 0x1B77 JUMP JUMPDEST PUSH2 0x9F8 JUMP JUMPDEST CALLVALUE DUP1 ISZERO PUSH2 0x429 JUMPI PUSH0 PUSH0 REVERT JUMPDEST POP PUSH2 0x273 PUSH2 0x438 CALLDATASIZE PUSH1 0x4 PUSH2 0x1B77 JUMP JUMPDEST PUSH2 0xA5F JUMP JUMPDEST CALLVALUE DUP1 ISZERO PUSH2 0x448 JUMPI PUSH0 PUSH0 REVERT JUMPDEST POP PUSH1 0x13 SLOAD PUSH1 0x1 PUSH1 0x1 PUSH1 0xA0 SHL SUB AND PUSH2 0x29A JUMP JUMPDEST CALLVALUE DUP1 ISZERO PUSH2 0x465 JUMPI PUSH0 PUSH0 REVERT JUMPDEST POP PUSH1 0xF SLOAD PUSH2 0x273 JUMP JUMPDEST CALLVALUE DUP1 ISZERO PUSH2 0x479 JUMPI PUSH0 PUSH0 REVERT JUMPDEST POP PUSH2 0x208 PUSH2 0x488 CALLDATASIZE PUSH1 0x4 PUSH2 0x1B77 JUMP JUMPDEST PUSH2 0xABB JUMP JUMPDEST CALLVALUE DUP1 ISZERO PUSH2 0x498 JUMPI PUSH0 PUSH0 REVERT JUMPDEST POP PUSH1 0xB SLOAD PUSH2 0x100 SWAP1 DIV PUSH1 0x1 PUSH1 0x1 PUSH1 0xA0 SHL SUB AND PUSH2 0x29A JUMP JUMPDEST CALLVALUE DUP1 ISZERO PUSH2 0x4BA JUMPI PUSH0 PUSH0 REVERT JUMPDEST POP PUSH2 0x21E PUSH2 0xB15 JUMP JUMPDEST CALLVALUE DUP1 ISZERO PUSH2 0x4CE JUMPI PUSH0 PUSH0 REVERT JUMPDEST POP PUSH1 0x15 SLOAD PUSH2 0x29A SWAP1 PUSH1 0x1 PUSH1 0x1 PUSH1 0xA0 SHL SUB AND DUP2 JUMP JUMPDEST CALLVALUE DUP1 ISZERO PUSH2 0x4ED JUMPI PUSH0 PUSH0 REVERT JUMPDEST POP PUSH2 0x253 PUSH2 0x4FC CALLDATASIZE PUSH1 0x4 PUSH2 0x1B15 JUMP JUMPDEST PUSH2 0xB24 JUMP JUMPDEST CALLVALUE DUP1 ISZERO PUSH2 0x50C JUMPI PUSH0 PUSH0 REVERT JUMPDEST POP PUSH2 0x208 PUSH2 0x51B CALLDATASIZE PUSH1 0x4 PUSH2 0x1B77 JUMP JUMPDEST PUSH2 0xB31 JUMP JUMPDEST CALLVALUE DUP1 ISZERO PUSH2 0x52B JUMPI PUSH0 PUSH0 REVERT JUMPDEST POP PUSH2 0x208 PUSH2 0x53A CALLDATASIZE PUSH1 0x4 PUSH2 0x1B77 JUMP JUMPDEST PUSH2 0xBDF JUMP JUMPDEST CALLVALUE DUP1 ISZERO PUSH2 0x54A JUMPI PUSH0 PUSH0 REVERT JUMPDEST POP PUSH2 0x208 PUSH2 0xC46 JUMP JUMPDEST CALLVALUE DUP1 ISZERO PUSH2 0x55E JUMPI PUSH0 PUSH0 REVERT JUMPDEST POP PUSH2 0x253 PUSH2 0x56D CALLDATASIZE PUSH1 0x4 PUSH2 0x1B77 JUMP JUMPDEST PUSH1 0x1 PUSH1 0x1 PUSH1 0xA0 SHL SUB AND PUSH0 SWAP1 DUP2 MSTORE PUSH1 0x9 PUSH1 0x20 MSTORE PUSH1 0x40 SWAP1 KECCAK256 SLOAD PUSH1 0xFF AND SWAP1 JUMP JUMPDEST CALLVALUE DUP1 ISZERO PUSH2 0x595 JUMPI PUSH0 PUSH0 REVERT JUMPDEST POP PUSH2 0x273 PUSH1 0x17 SLOAD DUP2 JUMP JUMPDEST CALLVALUE DUP1 ISZERO PUSH2 0x5AA JUMPI PUSH0 PUSH0 REVERT JUMPDEST POP PUSH2 0x273 PUSH2 0x5B9 CALLDATASIZE PUSH1 0x4 PUSH2 0x1BC2 JUMP JUMPDEST PUSH1 0x1 PUSH1 0x1 PUSH1 0xA0 SHL SUB SWAP2 DUP3 AND PUSH0 SWAP1 DUP2 MSTORE PUSH1 0x1 PUSH1 0x20 SWAP1 DUP2 MSTORE PUSH1 0x40 DUP1 DUP4 KECCAK256 SWAP4 SWAP1 SWAP5 AND DUP3 MSTORE SWAP2 SWAP1 SWAP2 MSTORE KECCAK256 SLOAD SWAP1 JUMP JUMPDEST CALLVALUE DUP1 ISZERO PUSH2 0x5EE JUMPI PUSH0 PUSH0 REVERT JUMPDEST POP PUSH1 0x11 SLOAD PUSH2 0x273 JUMP JUMPDEST CALLVALUE DUP1 ISZERO PUSH2 0x602 JUMPI PUSH0 PUSH0 REVERT JUMPDEST POP PUSH2 0x208 PUSH2 0x611 CALLDATASIZE PUSH1 0x4 PUSH2 0x1B77 JUMP JUMPDEST PUSH2 0xC7B JUMP JUMPDEST CALLVALUE DUP1 ISZERO PUSH2 0x621 JUMPI PUSH0 PUSH0 REVERT JUMPDEST POP PUSH1 0x18 SLOAD PUSH2 0x253 SWAP1 PUSH1 0xFF AND DUP2 JUMP JUMPDEST CALLER PUSH0 DUP2 DUP2 MSTORE PUSH1 0x9 PUSH1 0x20 MSTORE PUSH1 0x40 SWAP1 KECCAK256 SLOAD PUSH1 0xFF AND ISZERO PUSH2 0x6A8 JUMPI PUSH1 0x40 MLOAD PUSH3 0x461BCD PUSH1 0xE5 SHL DUP2 MSTORE PUSH1 0x20 PUSH1 0x4 DUP3 ADD MSTORE PUSH1 0x2C PUSH1 0x24 DUP3 ADD MSTORE PUSH32 0x4578636C75646564206164647265737365732063616E6E6F742063616C6C2074 PUSH1 0x44 DUP3 ADD MSTORE PUSH12 0x3434B990333AB731BA34B7B7 PUSH1 0xA1 SHL PUSH1 0x64 DUP3 ADD MSTORE PUSH1 0x84 ADD JUMPDEST PUSH1 0x40 MLOAD DUP1 SWAP2 SUB SWAP1 REVERT JUMPDEST PUSH0 PUSH2 0x6B2 DUP4 PUSH2 0xE17 JUMP JUMPDEST POP POP POP PUSH1 0x1 PUSH1 0x1 PUSH1 0xA0 SHL SUB DUP4 AND PUSH0 SWAP1 DUP2 MSTORE PUSH1 0x5 PUSH1 0x20 MSTORE PUSH1 0x40 SWAP1 KECCAK256 SLOAD SWAP1 SWAP2 POP PUSH2 0x6DB SWAP1 DUP3 SWAP1 PUSH2 0x1C07 JUMP JUMPDEST PUSH1 0x1 PUSH1 0x1 PUSH1 0xA0 SHL SUB DUP4 AND PUSH0 SWAP1 DUP2 MSTORE PUSH1 0x5 PUSH1 0x20 MSTORE PUSH1 0x40 SWAP1 KECCAK256 SSTORE PUSH1 0xD SLOAD PUSH2 0x701 SWAP1 DUP3 SWAP1 PUSH2 0x1C07 JUMP JUMPDEST PUSH1 0xD SSTORE PUSH1 0xE SLOAD PUSH2 0x712 SWAP1 DUP5 SWAP1 PUSH2 0x1C1A JUMP JUMPDEST PUSH1 0xE SSTORE POP POP POP JUMP JUMPDEST PUSH1 0x60 PUSH1 0x3 DUP1 SLOAD PUSH2 0x729 SWAP1 PUSH2 0x1C2D JUMP JUMPDEST DUP1 PUSH1 0x1F ADD PUSH1 0x20 DUP1 SWAP2 DIV MUL PUSH1 0x20 ADD PUSH1 0x40 MLOAD SWAP1 DUP2 ADD PUSH1 0x40 MSTORE DUP1 SWAP3 SWAP2 SWAP1 DUP2 DUP2 MSTORE PUSH1 0x20 ADD DUP3 DUP1 SLOAD PUSH2 0x755 SWAP1 PUSH2 0x1C2D JUMP JUMPDEST DUP1 ISZERO PUSH2 0x7A0 JUMPI DUP1 PUSH1 0x1F LT PUSH2 0x777 JUMPI PUSH2 0x100 DUP1 DUP4 SLOAD DIV MUL DUP4 MSTORE SWAP2 PUSH1 0x20 ADD SWAP2 PUSH2 0x7A0 JUMP JUMPDEST DUP3 ADD SWAP2 SWAP1 PUSH0 MSTORE PUSH1 0x20 PUSH0 KECCAK256 SWAP1 JUMPDEST DUP2 SLOAD DUP2 MSTORE SWAP1 PUSH1 0x1 ADD SWAP1 PUSH1 0x20 ADD DUP1 DUP4 GT PUSH2 0x783 JUMPI DUP3 SWAP1 SUB PUSH1 0x1F AND DUP3 ADD SWAP2 JUMPDEST POP POP POP POP POP SWAP1 POP SWAP1 JUMP JUMPDEST PUSH0 CALLER PUSH2 0x7B7 DUP2 DUP6 DUP6 PUSH2 0xE68 JUMP JUMPDEST PUSH1 0x1 SWAP2 POP POP JUMPDEST SWAP3 SWAP2 POP POP JUMP JUMPDEST PUSH0 CALLER PUSH2 0x7D0 DUP6 DUP3 DUP6 PUSH2 0xE7A JUMP JUMPDEST PUSH2 0x7DB DUP6 DUP6 DUP6 PUSH2 0xEF6 JUMP JUMPDEST POP PUSH1 0x1 SWAP5 SWAP4 POP POP POP POP JUMP JUMPDEST PUSH1 0xB SLOAD CALLER SWAP1 PUSH2 0x100 SWAP1 DIV PUSH1 0x1 PUSH1 0x1 PUSH1 0xA0 SHL SUB AND PUSH1 0x1 PUSH1 0x1 PUSH1 0xA0 SHL SUB AND SUB PUSH2 0x82A JUMPI PUSH1 0x1 PUSH1 0x1 PUSH1 0xA0 SHL SUB DUP2 AND PUSH0 SWAP1 DUP2 MSTORE PUSH1 0x7 PUSH1 0x20 MSTORE PUSH1 0x40 SWAP1 KECCAK256 DUP1 SLOAD PUSH1 0xFF NOT AND PUSH1 0x1 OR SWAP1 SSTORE JUMPDEST POP JUMP JUMPDEST PUSH0 PUSH1 0xC SLOAD DUP4 GT ISZERO PUSH2 0x880 JUMPI PUSH1 0x40 MLOAD PUSH3 0x461BCD PUSH1 0xE5 SHL DUP2 MSTORE PUSH1 0x20 PUSH1 0x4 DUP3 ADD MSTORE PUSH1 0x1F PUSH1 0x24 DUP3 ADD MSTORE PUSH32 0x416D6F756E74206D757374206265206C657373207468616E20737570706C7900 PUSH1 0x44 DUP3 ADD MSTORE PUSH1 0x64 ADD PUSH2 0x69F JUMP JUMPDEST DUP2 PUSH2 0x89C JUMPI PUSH0 PUSH2 0x88F DUP5 PUSH2 0xE17 JUMP JUMPDEST POP SWAP2 SWAP4 POP PUSH2 0x7BD SWAP3 POP POP POP JUMP JUMPDEST PUSH0 PUSH2 0x8A6 DUP5 PUSH2 0xE17 JUMP JUMPDEST POP SWAP1 SWAP4 POP PUSH2 0x7BD SWAP3 POP POP POP JUMP JUMPDEST PUSH1 0xB SLOAD CALLER SWAP1 PUSH2 0x100 SWAP1 DIV PUSH1 0x1 PUSH1 0x1 PUSH1 0xA0 SHL SUB AND PUSH1 0x1 PUSH1 0x1 PUSH1 0xA0 SHL SUB AND SUB PUSH2 0x82A JUMPI PUSH1 0x1 PUSH1 0x1 PUSH1 0xA0 SHL SUB DUP2 AND PUSH0 SWAP1 DUP2 MSTORE PUSH1 0x9 PUSH1 0x20 MSTORE PUSH1 0x40 SWAP1 KECCAK256 SLOAD PUSH1 0xFF AND ISZERO PUSH2 0x93C JUMPI PUSH1 0x40 MLOAD PUSH3 0x461BCD PUSH1 0xE5 SHL DUP2 MSTORE PUSH1 0x20 PUSH1 0x4 DUP3 ADD MSTORE PUSH1 0x1B PUSH1 0x24 DUP3 ADD MSTORE PUSH32 0x4163636F756E7420697320616C7265616479206578636C756465640000000000 PUSH1 0x44 DUP3 ADD MSTORE PUSH1 0x64 ADD PUSH2 0x69F JUMP JUMPDEST PUSH1 0x1 PUSH1 0x1 PUSH1 0xA0 SHL SUB DUP2 AND PUSH0 SWAP1 DUP2 MSTORE PUSH1 0x5 PUSH1 0x20 MSTORE PUSH1 0x40 SWAP1 KECCAK256 SLOAD ISZERO PUSH2 0x993 JUMPI PUSH1 0x1 PUSH1 0x1 PUSH1 0xA0 SHL SUB DUP2 AND PUSH0 SWAP1 DUP2 MSTORE PUSH1 0x5 PUSH1 0x20 MSTORE PUSH1 0x40 SWAP1 KECCAK256 SLOAD PUSH2 0x97A SWAP1 PUSH2 0x120A JUMP JUMPDEST PUSH1 0x1 PUSH1 0x1 PUSH1 0xA0 SHL SUB DUP3 AND PUSH0 SWAP1 DUP2 MSTORE PUSH1 0x6 PUSH1 0x20 MSTORE PUSH1 0x40 SWAP1 KECCAK256 SSTORE JUMPDEST PUSH1 0x1 PUSH1 0x1 PUSH1 0xA0 SHL SUB AND PUSH0 DUP2 DUP2 MSTORE PUSH1 0x9 PUSH1 0x20 MSTORE PUSH1 0x40 DUP2 KECCAK256 DUP1 SLOAD PUSH1 0xFF NOT AND PUSH1 0x1 SWAP1 DUP2 OR SWAP1 SWAP2 SSTORE PUSH1 0xA DUP1 SLOAD SWAP2 DUP3 ADD DUP2 SSTORE SWAP1 SWAP2 MSTORE PUSH32 0xC65A7BB8D6351C1CF70C95A316CC6A92839C986682D98BC35F958F4883F9D2A8 ADD DUP1 SLOAD PUSH1 0x1 PUSH1 0x1 PUSH1 0xA0 SHL SUB NOT AND SWAP1 SWAP2 OR SWAP1 SSTORE JUMP JUMPDEST PUSH1 0xB SLOAD CALLER SWAP1 PUSH2 0x100 SWAP1 DIV PUSH1 0x1 PUSH1 0x1 PUSH1 0xA0 SHL SUB AND PUSH1 0x1 PUSH1 0x1 PUSH1 0xA0 SHL SUB AND SUB PUSH2 0x82A JUMPI PUSH1 0x1 PUSH1 0x1 PUSH1 0xA0 SHL SUB DUP2 AND PUSH2 0xA3F JUMPI PUSH1 0x40 MLOAD PUSH3 0x461BCD PUSH1 0xE5 SHL DUP2 MSTORE PUSH1 0x4 ADD PUSH2 0x69F SWAP1 PUSH2 0x1C65 JUMP JUMPDEST PUSH1 0x14 DUP1 SLOAD PUSH1 0x1 PUSH1 0x1 PUSH1 0xA0 SHL SUB DUP4 AND PUSH1 0x1 PUSH1 0x1 PUSH1 0xA0 SHL SUB NOT SWAP1 SWAP2 AND OR SWAP1 SSTORE POP JUMP JUMPDEST PUSH1 0x1 PUSH1 0x1 PUSH1 0xA0 SHL SUB DUP2 AND PUSH0 SWAP1 DUP2 MSTORE PUSH1 0x9 PUSH1 0x20 MSTORE PUSH1 0x40 DUP2 KECCAK256 SLOAD PUSH1 0xFF AND ISZERO PUSH2 0xA9A JUMPI POP PUSH1 0x1 PUSH1 0x1 PUSH1 0xA0 SHL SUB AND PUSH0 SWAP1 DUP2 MSTORE PUSH1 0x6 PUSH1 0x20 MSTORE PUSH1 0x40 SWAP1 KECCAK256 SLOAD SWAP1 JUMP JUMPDEST PUSH1 0x1 PUSH1 0x1 PUSH1 0xA0 SHL SUB DUP3 AND PUSH0 SWAP1 DUP2 MSTORE PUSH1 0x5 PUSH1 0x20 MSTORE PUSH1 0x40 SWAP1 KECCAK256 SLOAD PUSH2 0x7BD SWAP1 PUSH2 0x120A JUMP JUMPDEST PUSH1 0xB SLOAD CALLER SWAP1 PUSH2 0x100 SWAP1 DIV PUSH1 0x1 PUSH1 0x1 PUSH1 0xA0 SHL SUB AND PUSH1 0x1 PUSH1 0x1 PUSH1 0xA0 SHL SUB AND SUB PUSH2 0x82A JUMPI PUSH1 0x15 DUP1 SLOAD PUSH1 0x1 PUSH1 0x1 PUSH1 0xA0 SHL SUB NOT AND PUSH1 0x1 PUSH1 0x1 PUSH1 0xA0 SHL SUB SWAP3 SWAP1 SWAP3 AND SWAP2 DUP3 OR SWAP1 SSTORE PUSH0 SWAP1 DUP2 MSTORE PUSH1 0x8 PUSH1 0x20 MSTORE PUSH1 0x40 SWAP1 KECCAK256 DUP1 SLOAD PUSH1 0xFF NOT AND PUSH1 0x1 OR SWAP1 SSTORE JUMP JUMPDEST PUSH1 0x60 PUSH1 0x4 DUP1 SLOAD PUSH2 0x729 SWAP1 PUSH2 0x1C2D JUMP JUMPDEST PUSH0 CALLER PUSH2 0x7B7 DUP2 DUP6 DUP6 PUSH2 0xEF6 JUMP JUMPDEST PUSH1 0xB SLOAD CALLER SWAP1 PUSH2 0x100 SWAP1 DIV PUSH1 0x1 PUSH1 0x1 PUSH1 0xA0 SHL SUB AND PUSH1 0x1 PUSH1 0x1 PUSH1 0xA0 SHL SUB AND SUB PUSH2 0x82A JUMPI PUSH1 0x1 PUSH1 0x1 PUSH1 0xA0 SHL SUB DUP2 AND PUSH0 SWAP1 DUP2 MSTORE PUSH1 0x8 PUSH1 0x20 MSTORE PUSH1 0x40 SWAP1 KECCAK256 SLOAD PUSH1 0xFF AND ISZERO PUSH2 0xBBA JUMPI PUSH1 0x40 MLOAD PUSH3 0x461BCD PUSH1 0xE5 SHL DUP2 MSTORE PUSH1 0x20 PUSH1 0x4 DUP3 ADD MSTORE PUSH1 0x1E PUSH1 0x24 DUP3 ADD MSTORE PUSH32 0x4164647265737320697320616C72656164792077686974656C69737465640000 PUSH1 0x44 DUP3 ADD MSTORE PUSH1 0x64 ADD PUSH2 0x69F JUMP JUMPDEST PUSH1 0x1 PUSH1 0x1 PUSH1 0xA0 SHL SUB DUP2 AND PUSH0 SWAP1 DUP2 MSTORE PUSH1 0x8 PUSH1 0x20 MSTORE PUSH1 0x40 SWAP1 KECCAK256 DUP1 SLOAD PUSH1 0xFF NOT AND PUSH1 0x1 OR SWAP1 SSTORE POP JUMP JUMPDEST PUSH1 0xB SLOAD CALLER SWAP1 PUSH2 0x100 SWAP1 DIV PUSH1 0x1 PUSH1 0x1 PUSH1 0xA0 SHL SUB AND PUSH1 0x1 PUSH1 0x1 PUSH1 0xA0 SHL SUB AND SUB PUSH2 0x82A JUMPI PUSH1 0x1 PUSH1 0x1 PUSH1 0xA0 SHL SUB DUP2 AND PUSH2 0xC26 JUMPI PUSH1 0x40 MLOAD PUSH3 0x461BCD PUSH1 0xE5 SHL DUP2 MSTORE PUSH1 0x4 ADD PUSH2 0x69F SWAP1 PUSH2 0x1C65 JUMP JUMPDEST PUSH1 0x13 DUP1 SLOAD PUSH1 0x1 PUSH1 0x1 PUSH1 0xA0 SHL SUB DUP4 AND PUSH1 0x1 PUSH1 0x1 PUSH1 0xA0 SHL SUB NOT SWAP1 SWAP2 AND OR SWAP1 SSTORE POP JUMP JUMPDEST PUSH1 0xB SLOAD CALLER SWAP1 PUSH2 0x100 SWAP1 DIV PUSH1 0x1 PUSH1 0x1 PUSH1 0xA0 SHL SUB AND PUSH1 0x1 PUSH1 0x1 PUSH1 0xA0 SHL SUB AND SUB PUSH2 0xC79 JUMPI PUSH1 0x18 DUP1 SLOAD PUSH1 0xFF NOT AND PUSH1 0x1 OR SWAP1 SSTORE NUMBER PUSH1 0x17 SSTORE JUMPDEST JUMP JUMPDEST PUSH1 0xB SLOAD CALLER SWAP1 PUSH2 0x100 SWAP1 DIV PUSH1 0x1 PUSH1 0x1 PUSH1 0xA0 SHL SUB AND PUSH1 0x1 PUSH1 0x1 PUSH1 0xA0 SHL SUB AND SUB PUSH2 0x82A JUMPI PUSH1 0x1 PUSH1 0x1 PUSH1 0xA0 SHL SUB DUP2 AND PUSH0 SWAP1 DUP2 MSTORE PUSH1 0x9 PUSH1 0x20 MSTORE PUSH1 0x40 SWAP1 KECCAK256 SLOAD PUSH1 0xFF AND PUSH2 0xD03 JUMPI PUSH1 0x40 MLOAD PUSH3 0x461BCD PUSH1 0xE5 SHL DUP2 MSTORE PUSH1 0x20 PUSH1 0x4 DUP3 ADD MSTORE PUSH1 0x1B PUSH1 0x24 DUP3 ADD MSTORE PUSH32 0x4163636F756E7420697320616C726561647920696E636C756465640000000000 PUSH1 0x44 DUP3 ADD MSTORE PUSH1 0x64 ADD PUSH2 0x69F JUMP JUMPDEST PUSH0 JUMPDEST PUSH1 0xA SLOAD DUP2 LT ISZERO PUSH2 0xE13 JUMPI DUP2 PUSH1 0x1 PUSH1 0x1 PUSH1 0xA0 SHL SUB AND PUSH1 0xA DUP3 DUP2 SLOAD DUP2 LT PUSH2 0xD2C JUMPI PUSH2 0xD2C PUSH2 0x1CAB JUMP JUMPDEST PUSH0 SWAP2 DUP3 MSTORE PUSH1 0x20 SWAP1 SWAP2 KECCAK256 ADD SLOAD PUSH1 0x1 PUSH1 0x1 PUSH1 0xA0 SHL SUB AND SUB PUSH2 0xE0B JUMPI PUSH1 0xA DUP1 SLOAD PUSH2 0xD55 SWAP1 PUSH1 0x1 SWAP1 PUSH2 0x1C07 JUMP JUMPDEST DUP2 SLOAD DUP2 LT PUSH2 0xD65 JUMPI PUSH2 0xD65 PUSH2 0x1CAB JUMP JUMPDEST PUSH0 SWAP2 DUP3 MSTORE PUSH1 0x20 SWAP1 SWAP2 KECCAK256 ADD SLOAD PUSH1 0xA DUP1 SLOAD PUSH1 0x1 PUSH1 0x1 PUSH1 0xA0 SHL SUB SWAP1 SWAP3 AND SWAP2 DUP4 SWAP1 DUP2 LT PUSH2 0xD90 JUMPI PUSH2 0xD90 PUSH2 0x1CAB JUMP JUMPDEST PUSH0 SWAP2 DUP3 MSTORE PUSH1 0x20 DUP1 DUP4 KECCAK256 SWAP2 SWAP1 SWAP2 ADD DUP1 SLOAD PUSH1 0x1 PUSH1 0x1 PUSH1 0xA0 SHL SUB NOT AND PUSH1 0x1 PUSH1 0x1 PUSH1 0xA0 SHL SUB SWAP5 DUP6 AND OR SWAP1 SSTORE SWAP2 DUP5 AND DUP2 MSTORE PUSH1 0x6 DUP3 MSTORE PUSH1 0x40 DUP1 DUP3 KECCAK256 DUP3 SWAP1 SSTORE PUSH1 0x9 SWAP1 SWAP3 MSTORE KECCAK256 DUP1 SLOAD PUSH1 0xFF NOT AND SWAP1 SSTORE PUSH1 0xA DUP1 SLOAD DUP1 PUSH2 0xDE7 JUMPI PUSH2 0xDE7 PUSH2 0x1CBF JUMP JUMPDEST PUSH0 DUP3 DUP2 MSTORE PUSH1 0x20 SWAP1 KECCAK256 DUP2 ADD PUSH0 NOT SWAP1 DUP2 ADD DUP1 SLOAD PUSH1 0x1 PUSH1 0x1 PUSH1 0xA0 SHL SUB NOT AND SWAP1 SSTORE ADD SWAP1 SSTORE POP POP JUMP JUMPDEST PUSH1 0x1 ADD PUSH2 0xD05 JUMP JUMPDEST POP POP JUMP JUMPDEST PUSH0 PUSH0 PUSH0 PUSH0 PUSH0 PUSH2 0xE25 DUP7 PUSH2 0x128C JUMP JUMPDEST SWAP1 POP PUSH0 PUSH2 0xE32 DUP3 DUP9 PUSH2 0x1C07 JUMP JUMPDEST SWAP1 POP PUSH0 PUSH2 0xE3D PUSH2 0x12BF JUMP JUMPDEST SWAP1 POP PUSH0 PUSH2 0xE4A DUP3 DUP5 PUSH2 0x1CD3 JUMP JUMPDEST SWAP1 POP PUSH0 PUSH2 0xE57 DUP4 DUP12 PUSH2 0x1CD3 JUMP JUMPDEST SWAP11 SWAP2 SWAP10 POP SWAP3 SWAP8 POP SWAP1 SWAP6 POP SWAP4 POP POP POP POP JUMP JUMPDEST PUSH2 0xE75 DUP4 DUP4 DUP4 PUSH1 0x1 PUSH2 0x12E0 JUMP JUMPDEST POP POP POP JUMP JUMPDEST PUSH1 0x1 PUSH1 0x1 PUSH1 0xA0 SHL SUB DUP4 DUP2 AND PUSH0 SWAP1 DUP2 MSTORE PUSH1 0x1 PUSH1 0x20 SWAP1 DUP2 MSTORE PUSH1 0x40 DUP1 DUP4 KECCAK256 SWAP4 DUP7 AND DUP4 MSTORE SWAP3 SWAP1 MSTORE KECCAK256 SLOAD PUSH0 NOT DUP2 LT ISZERO PUSH2 0xEF0 JUMPI DUP2 DUP2 LT ISZERO PUSH2 0xEE2 JUMPI PUSH1 0x40 MLOAD PUSH4 0x7DC7A0D9 PUSH1 0xE1 SHL DUP2 MSTORE PUSH1 0x1 PUSH1 0x1 PUSH1 0xA0 SHL SUB DUP5 AND PUSH1 0x4 DUP3 ADD MSTORE PUSH1 0x24 DUP2 ADD DUP3 SWAP1 MSTORE PUSH1 0x44 DUP2 ADD DUP4 SWAP1 MSTORE PUSH1 0x64 ADD PUSH2 0x69F JUMP JUMPDEST PUSH2 0xEF0 DUP5 DUP5 DUP5 DUP5 SUB PUSH0 PUSH2 0x12E0 JUMP JUMPDEST POP POP POP POP JUMP JUMPDEST PUSH1 0x18 SLOAD DUP4 SWAP1 DUP4 SWAP1 PUSH1 0xFF AND PUSH2 0xF70 JUMPI PUSH1 0x1 PUSH1 0x1 PUSH1 0xA0 SHL SUB DUP3 AND PUSH0 SWAP1 DUP2 MSTORE PUSH1 0x8 PUSH1 0x20 MSTORE PUSH1 0x40 SWAP1 KECCAK256 SLOAD PUSH1 0xFF AND PUSH2 0xF6B JUMPI PUSH1 0x40 MLOAD PUSH3 0x461BCD PUSH1 0xE5 SHL DUP2 MSTORE PUSH1 0x20 PUSH1 0x4 DUP3 ADD MSTORE PUSH1 0x17 PUSH1 0x24 DUP3 ADD MSTORE PUSH32 0x54726164696E67206E6F742079657420656E61626C6564000000000000000000 PUSH1 0x44 DUP3 ADD MSTORE PUSH1 0x64 ADD PUSH2 0x69F JUMP JUMPDEST PUSH2 0xFF6 JUMP JUMPDEST PUSH1 0x17 SLOAD PUSH2 0xF7E SWAP1 PUSH1 0x3 PUSH2 0x1C1A JUMP JUMPDEST NUMBER GT PUSH2 0xFF6 JUMPI PUSH1 0x1 PUSH1 0x1 PUSH1 0xA0 SHL SUB DUP2 AND PUSH0 SWAP1 DUP2 MSTORE PUSH1 0x8 PUSH1 0x20 MSTORE PUSH1 0x40 SWAP1 KECCAK256 SLOAD PUSH1 0xFF AND PUSH2 0xFF6 JUMPI PUSH1 0x40 MLOAD PUSH3 0x461BCD PUSH1 0xE5 SHL DUP2 MSTORE PUSH1 0x20 PUSH1 0x4 DUP3 ADD MSTORE PUSH1 0x22 PUSH1 0x24 DUP3 ADD MSTORE PUSH32 0x4C61756E63682070726F74656374696F6E3A206E6F742077686974656C697374 PUSH1 0x44 DUP3 ADD MSTORE PUSH2 0x1959 PUSH1 0xF2 SHL PUSH1 0x64 DUP3 ADD MSTORE PUSH1 0x84 ADD PUSH2 0x69F JUMP JUMPDEST PUSH1 0x1 PUSH1 0x1 PUSH1 0xA0 SHL SUB DUP6 AND PUSH2 0x105A JUMPI PUSH1 0x40 MLOAD PUSH3 0x461BCD PUSH1 0xE5 SHL DUP2 MSTORE PUSH1 0x20 PUSH1 0x4 DUP3 ADD MSTORE PUSH1 0x25 PUSH1 0x24 DUP3 ADD MSTORE PUSH32 0x45524332303A207472616E736665722066726F6D20746865207A65726F206164 PUSH1 0x44 DUP3 ADD MSTORE PUSH5 0x6472657373 PUSH1 0xD8 SHL PUSH1 0x64 DUP3 ADD MSTORE PUSH1 0x84 ADD PUSH2 0x69F JUMP JUMPDEST PUSH1 0x1 PUSH1 0x1 PUSH1 0xA0 SHL SUB DUP5 AND PUSH2 0x10BC JUMPI PUSH1 0x40 MLOAD PUSH3 0x461BCD PUSH1 0xE5 SHL DUP2 MSTORE PUSH1 0x20 PUSH1 0x4 DUP3 ADD MSTORE PUSH1 0x23 PUSH1 0x24 DUP3 ADD MSTORE PUSH32 0x45524332303A207472616E7366657220746F20746865207A65726F2061646472 PUSH1 0x44 DUP3 ADD MSTORE PUSH3 0x657373 PUSH1 0xE8 SHL PUSH1 0x64 DUP3 ADD MSTORE PUSH1 0x84 ADD PUSH2 0x69F JUMP JUMPDEST PUSH0 PUSH2 0x10C6 DUP7 PUSH2 0xA5F JUMP JUMPDEST SWAP1 POP DUP4 DUP2 LT ISZERO PUSH2 0x1127 JUMPI PUSH1 0x40 MLOAD PUSH3 0x461BCD PUSH1 0xE5 SHL DUP2 MSTORE PUSH1 0x20 PUSH1 0x4 DUP3 ADD MSTORE PUSH1 0x26 PUSH1 0x24 DUP3 ADD MSTORE PUSH32 0x45524332303A207472616E7366657220616D6F756E7420657863656564732062 PUSH1 0x44 DUP3 ADD MSTORE PUSH6 0x616C616E6365 PUSH1 0xD0 SHL PUSH1 0x64 DUP3 ADD MSTORE PUSH1 0x84 ADD PUSH2 0x69F JUMP JUMPDEST PUSH1 0x1 PUSH1 0x1 PUSH1 0xA0 SHL SUB DUP6 AND PUSH0 SWAP1 DUP2 MSTORE PUSH1 0x7 PUSH1 0x20 MSTORE PUSH1 0x40 SWAP1 KECCAK256 SLOAD PUSH1 0xFF AND PUSH2 0x119E JUMPI PUSH1 0x16 SLOAD DUP5 PUSH2 0x1153 DUP8 PUSH2 0xA5F JUMP JUMPDEST PUSH2 0x115D SWAP2 SWAP1 PUSH2 0x1C1A JUMP JUMPDEST GT ISZERO PUSH2 0x119E JUMPI PUSH1 0x40 MLOAD PUSH3 0x461BCD PUSH1 0xE5 SHL DUP2 MSTORE PUSH1 0x20 PUSH1 0x4 DUP3 ADD MSTORE PUSH1 0x10 PUSH1 0x24 DUP3 ADD MSTORE PUSH16 0x5768616C652064657465637465642121 PUSH1 0x80 SHL PUSH1 0x44 DUP3 ADD MSTORE PUSH1 0x64 ADD PUSH2 0x69F JUMP JUMPDEST PUSH1 0x15 SLOAD PUSH0 SWAP1 PUSH1 0x1 PUSH1 0x1 PUSH1 0xA0 SHL SUB DUP9 DUP2 AND SWAP2 AND EQ DUP1 PUSH2 0x11C9 JUMPI POP PUSH1 0x15 SLOAD PUSH1 0x1 PUSH1 0x1 PUSH1 0xA0 SHL SUB DUP8 DUP2 AND SWAP2 AND EQ JUMPDEST ISZERO PUSH2 0x11D2 JUMPI POP PUSH1 0x1 JUMPDEST PUSH1 0x1 PUSH1 0x1 PUSH1 0xA0 SHL SUB DUP8 AND PUSH0 SWAP1 DUP2 MSTORE PUSH1 0x7 PUSH1 0x20 MSTORE PUSH1 0x40 SWAP1 KECCAK256 SLOAD PUSH1 0xFF AND ISZERO PUSH2 0x11F5 JUMPI POP PUSH0 JUMPDEST PUSH2 0x1201 DUP8 DUP8 DUP8 DUP5 PUSH2 0x13B2 JUMP JUMPDEST POP POP POP POP POP POP POP JUMP JUMPDEST PUSH0 PUSH1 0xD SLOAD DUP3 GT ISZERO PUSH2 0x1270 JUMPI PUSH1 0x40 MLOAD PUSH3 0x461BCD PUSH1 0xE5 SHL DUP2 MSTORE PUSH1 0x20 PUSH1 0x4 DUP3 ADD MSTORE PUSH1 0x2A PUSH1 0x24 DUP3 ADD MSTORE PUSH32 0x416D6F756E74206D757374206265206C657373207468616E20746F74616C2072 PUSH1 0x44 DUP3 ADD MSTORE PUSH10 0x65666C656374696F6E73 PUSH1 0xB0 SHL PUSH1 0x64 DUP3 ADD MSTORE PUSH1 0x84 ADD PUSH2 0x69F JUMP JUMPDEST PUSH0 PUSH2 0x1279 PUSH2 0x12BF JUMP JUMPDEST SWAP1 POP PUSH2 0x1285 DUP2 DUP5 PUSH2 0x1CEA JUMP JUMPDEST SWAP4 SWAP3 POP POP POP JUMP JUMPDEST PUSH0 PUSH0 PUSH1 0x11 SLOAD PUSH1 0xF SLOAD PUSH2 0x129E SWAP2 SWAP1 PUSH2 0x1C1A JUMP JUMPDEST SWAP1 POP PUSH0 PUSH1 0x64 PUSH2 0x12AD DUP4 DUP7 PUSH2 0x1CD3 JUMP JUMPDEST PUSH2 0x12B7 SWAP2 SWAP1 PUSH2 0x1CEA JUMP JUMPDEST SWAP5 SWAP4 POP POP POP POP JUMP JUMPDEST PUSH0 PUSH0 PUSH0 PUSH2 0x12CA PUSH2 0x1521 JUMP JUMPDEST SWAP1 SWAP3 POP SWAP1 POP PUSH2 0x12D9 DUP2 DUP4 PUSH2 0x1CEA JUMP JUMPDEST SWAP3 POP POP POP SWAP1 JUMP JUMPDEST PUSH1 0x1 PUSH1 0x1 PUSH1 0xA0 SHL SUB DUP5 AND PUSH2 0x1309 JUMPI PUSH1 0x40 MLOAD PUSH4 0xE602DF05 PUSH1 0xE0 SHL DUP2 MSTORE PUSH0 PUSH1 0x4 DUP3 ADD MSTORE PUSH1 0x24 ADD PUSH2 0x69F JUMP JUMPDEST PUSH1 0x1 PUSH1 0x1 PUSH1 0xA0 SHL SUB DUP4 AND PUSH2 0x1332 JUMPI PUSH1 0x40 MLOAD PUSH4 0x4A1406B1 PUSH1 0xE1 SHL DUP2 MSTORE PUSH0 PUSH1 0x4 DUP3 ADD MSTORE PUSH1 0x24 ADD PUSH2 0x69F JUMP JUMPDEST PUSH1 0x1 PUSH1 0x1 PUSH1 0xA0 SHL SUB DUP1 DUP6 AND PUSH0 SWAP1 DUP2 MSTORE PUSH1 0x1 PUSH1 0x20 SWAP1 DUP2 MSTORE PUSH1 0x40 DUP1 DUP4 KECCAK256 SWAP4 DUP8 AND DUP4 MSTORE SWAP3 SWAP1 MSTORE KECCAK256 DUP3 SWAP1 SSTORE DUP1 ISZERO PUSH2 0xEF0 JUMPI DUP3 PUSH1 0x1 PUSH1 0x1 PUSH1 0xA0 SHL SUB AND DUP5 PUSH1 0x1 PUSH1 0x1 PUSH1 0xA0 SHL SUB AND PUSH32 0x8C5BE1E5EBEC7D5BD14F71427D1E84F3DD0314C0F7B2291E5B200AC8C7C3B925 DUP5 PUSH1 0x40 MLOAD PUSH2 0x13A4 SWAP2 DUP2 MSTORE PUSH1 0x20 ADD SWAP1 JUMP JUMPDEST PUSH1 0x40 MLOAD DUP1 SWAP2 SUB SWAP1 LOG3 POP POP POP POP JUMP JUMPDEST DUP1 PUSH2 0x13BF JUMPI PUSH2 0x13BF PUSH2 0x1691 JUMP JUMPDEST PUSH1 0x1 PUSH1 0x1 PUSH1 0xA0 SHL SUB DUP5 AND PUSH0 SWAP1 DUP2 MSTORE PUSH1 0x9 PUSH1 0x20 MSTORE PUSH1 0x40 SWAP1 KECCAK256 SLOAD PUSH1 0xFF AND DUP1 ISZERO PUSH2 0x13FE JUMPI POP PUSH1 0x1 PUSH1 0x1 PUSH1 0xA0 SHL SUB DUP4 AND PUSH0 SWAP1 DUP2 MSTORE PUSH1 0x9 PUSH1 0x20 MSTORE PUSH1 0x40 SWAP1 KECCAK256 SLOAD PUSH1 0xFF AND ISZERO JUMPDEST ISZERO PUSH2 0x1413 JUMPI PUSH2 0x140E DUP5 DUP5 DUP5 PUSH2 0x16BE JUMP JUMPDEST PUSH2 0x150B JUMP JUMPDEST PUSH1 0x1 PUSH1 0x1 PUSH1 0xA0 SHL SUB DUP5 AND PUSH0 SWAP1 DUP2 MSTORE PUSH1 0x9 PUSH1 0x20 MSTORE PUSH1 0x40 SWAP1 KECCAK256 SLOAD PUSH1 0xFF AND ISZERO DUP1 ISZERO PUSH2 0x1452 JUMPI POP PUSH1 0x1 PUSH1 0x1 PUSH1 0xA0 SHL SUB DUP4 AND PUSH0 SWAP1 DUP2 MSTORE PUSH1 0x9 PUSH1 0x20 MSTORE PUSH1 0x40 SWAP1 KECCAK256 SLOAD PUSH1 0xFF AND JUMPDEST ISZERO PUSH2 0x1462 JUMPI PUSH2 0x140E DUP5 DUP5 DUP5 PUSH2 0x17D9 JUMP JUMPDEST PUSH1 0x1 PUSH1 0x1 PUSH1 0xA0 SHL SUB DUP5 AND PUSH0 SWAP1 DUP2 MSTORE PUSH1 0x9 PUSH1 0x20 MSTORE PUSH1 0x40 SWAP1 KECCAK256 SLOAD PUSH1 0xFF AND ISZERO DUP1 ISZERO PUSH2 0x14A2 JUMPI POP PUSH1 0x1 PUSH1 0x1 PUSH1 0xA0 SHL SUB DUP4 AND PUSH0 SWAP1 DUP2 MSTORE PUSH1 0x9 PUSH1 0x20 MSTORE PUSH1 0x40 SWAP1 KECCAK256 SLOAD PUSH1 0xFF AND ISZERO JUMPDEST ISZERO PUSH2 0x14B2 JUMPI PUSH2 0x140E DUP5 DUP5 DUP5 PUSH2 0x1878 JUMP JUMPDEST PUSH1 0x1 PUSH1 0x1 PUSH1 0xA0 SHL SUB DUP5 AND PUSH0 SWAP1 DUP2 MSTORE PUSH1 0x9 PUSH1 0x20 MSTORE PUSH1 0x40 SWAP1 KECCAK256 SLOAD PUSH1 0xFF AND DUP1 ISZERO PUSH2 0x14F0 JUMPI POP PUSH1 0x1 PUSH1 0x1 PUSH1 0xA0 SHL SUB DUP4 AND PUSH0 SWAP1 DUP2 MSTORE PUSH1 0x9 PUSH1 0x20 MSTORE PUSH1 0x40 SWAP1 KECCAK256 SLOAD PUSH1 0xFF AND JUMPDEST ISZERO PUSH2 0x1500 JUMPI PUSH2 0x140E DUP5 DUP5 DUP5 PUSH2 0x18B2 JUMP JUMPDEST PUSH2 0x150B DUP5 DUP5 DUP5 PUSH2 0x1878 JUMP JUMPDEST DUP1 PUSH2 0xEF0 JUMPI PUSH2 0xEF0 PUSH1 0x10 SLOAD PUSH1 0xF SSTORE PUSH1 0x12 SLOAD PUSH1 0x11 SSTORE JUMP JUMPDEST PUSH1 0xD SLOAD PUSH1 0xC SLOAD PUSH0 SWAP2 DUP3 SWAP2 DUP3 JUMPDEST PUSH1 0xA SLOAD DUP2 LT ISZERO PUSH2 0x1660 JUMPI DUP3 PUSH1 0x5 PUSH0 PUSH1 0xA DUP5 DUP2 SLOAD DUP2 LT PUSH2 0x154E JUMPI PUSH2 0x154E PUSH2 0x1CAB JUMP JUMPDEST PUSH0 SWAP2 DUP3 MSTORE PUSH1 0x20 DUP1 DUP4 KECCAK256 SWAP1 SWAP2 ADD SLOAD PUSH1 0x1 PUSH1 0x1 PUSH1 0xA0 SHL SUB AND DUP4 MSTORE DUP3 ADD SWAP3 SWAP1 SWAP3 MSTORE PUSH1 0x40 ADD SWAP1 KECCAK256 SLOAD GT DUP1 PUSH2 0x15B6 JUMPI POP DUP2 PUSH1 0x6 PUSH0 PUSH1 0xA DUP5 DUP2 SLOAD DUP2 LT PUSH2 0x1590 JUMPI PUSH2 0x1590 PUSH2 0x1CAB JUMP JUMPDEST PUSH0 SWAP2 DUP3 MSTORE PUSH1 0x20 DUP1 DUP4 KECCAK256 SWAP1 SWAP2 ADD SLOAD PUSH1 0x1 PUSH1 0x1 PUSH1 0xA0 SHL SUB AND DUP4 MSTORE DUP3 ADD SWAP3 SWAP1 SWAP3 MSTORE PUSH1 0x40 ADD SWAP1 KECCAK256 SLOAD GT JUMPDEST ISZERO PUSH2 0x15CC JUMPI PUSH1 0xD SLOAD PUSH1 0xC SLOAD SWAP5 POP SWAP5 POP POP POP POP SWAP1 SWAP2 JUMP JUMPDEST PUSH1 0x5 PUSH0 PUSH1 0xA DUP4 DUP2 SLOAD DUP2 LT PUSH2 0x15E2 JUMPI PUSH2 0x15E2 PUSH2 0x1CAB JUMP JUMPDEST PUSH0 SWAP2 DUP3 MSTORE PUSH1 0x20 DUP1 DUP4 KECCAK256 SWAP1 SWAP2 ADD SLOAD PUSH1 0x1 PUSH1 0x1 PUSH1 0xA0 SHL SUB AND DUP4 MSTORE DUP3 ADD SWAP3 SWAP1 SWAP3 MSTORE PUSH1 0x40 ADD SWAP1 KECCAK256 SLOAD PUSH2 0x1610 SWAP1 DUP5 PUSH2 0x1C07 JUMP JUMPDEST SWAP3 POP PUSH1 0x6 PUSH0 PUSH1 0xA DUP4 DUP2 SLOAD DUP2 LT PUSH2 0x1628 JUMPI PUSH2 0x1628 PUSH2 0x1CAB JUMP JUMPDEST PUSH0 SWAP2 DUP3 MSTORE PUSH1 0x20 DUP1 DUP4 KECCAK256 SWAP1 SWAP2 ADD SLOAD PUSH1 0x1 PUSH1 0x1 PUSH1 0xA0 SHL SUB AND DUP4 MSTORE DUP3 ADD SWAP3 SWAP1 SWAP3 MSTORE PUSH1 0x40 ADD SWAP1 KECCAK256 SLOAD PUSH2 0x1656 SWAP1 DUP4 PUSH2 0x1C07 JUMP JUMPDEST SWAP2 POP PUSH1 0x1 ADD PUSH2 0x152D JUMP JUMPDEST POP PUSH1 0xC SLOAD PUSH1 0xD SLOAD PUSH2 0x1671 SWAP2 SWAP1 PUSH2 0x1CEA JUMP JUMPDEST DUP3 LT ISZERO PUSH2 0x1688 JUMPI PUSH1 0xD SLOAD PUSH1 0xC SLOAD SWAP4 POP SWAP4 POP POP POP SWAP1 SWAP2 JUMP JUMPDEST SWAP1 SWAP4 SWAP1 SWAP3 POP SWAP1 POP JUMP JUMPDEST PUSH1 0xF SLOAD ISZERO DUP1 ISZERO PUSH2 0x16A1 JUMPI POP PUSH1 0x11 SLOAD ISZERO JUMPDEST ISZERO PUSH2 0x16A8 JUMPI JUMP JUMPDEST PUSH1 0xF DUP1 SLOAD PUSH1 0x10 SSTORE PUSH1 0x11 DUP1 SLOAD PUSH1 0x12 SSTORE PUSH0 SWAP2 DUP3 SWAP1 SSTORE SSTORE JUMP JUMPDEST PUSH0 PUSH0 PUSH0 PUSH0 PUSH2 0x16CB DUP6 PUSH2 0xE17 JUMP JUMPDEST PUSH1 0x1 PUSH1 0x1 PUSH1 0xA0 SHL SUB DUP12 AND PUSH0 SWAP1 DUP2 MSTORE PUSH1 0x6 PUSH1 0x20 MSTORE PUSH1 0x40 SWAP1 KECCAK256 SLOAD SWAP4 SWAP8 POP SWAP2 SWAP6 POP SWAP4 POP SWAP2 POP PUSH2 0x16F8 SWAP1 DUP7 SWAP1 PUSH2 0x1C07 JUMP JUMPDEST PUSH1 0x1 PUSH1 0x1 PUSH1 0xA0 SHL SUB DUP9 AND PUSH0 SWAP1 DUP2 MSTORE PUSH1 0x6 PUSH1 0x20 SWAP1 DUP2 MSTORE PUSH1 0x40 DUP1 DUP4 KECCAK256 SWAP4 SWAP1 SWAP4 SSTORE PUSH1 0x5 SWAP1 MSTORE KECCAK256 SLOAD PUSH2 0x1727 SWAP1 DUP6 SWAP1 PUSH2 0x1C07 JUMP JUMPDEST PUSH1 0x1 PUSH1 0x1 PUSH1 0xA0 SHL SUB DUP1 DUP10 AND PUSH0 SWAP1 DUP2 MSTORE PUSH1 0x5 PUSH1 0x20 MSTORE PUSH1 0x40 DUP1 DUP3 KECCAK256 SWAP4 SWAP1 SWAP4 SSTORE SWAP1 DUP9 AND DUP2 MSTORE KECCAK256 SLOAD PUSH2 0x1756 SWAP1 DUP5 SWAP1 PUSH2 0x1C1A JUMP JUMPDEST PUSH1 0x1 PUSH1 0x1 PUSH1 0xA0 SHL SUB DUP8 AND PUSH0 SWAP1 DUP2 MSTORE PUSH1 0x5 PUSH1 0x20 MSTORE PUSH1 0x40 SWAP1 KECCAK256 SSTORE PUSH2 0x1779 DUP8 DUP7 DUP4 PUSH2 0x191B JUMP JUMPDEST PUSH2 0x1783 DUP6 DUP3 PUSH2 0x1A5C JUMP JUMPDEST DUP6 PUSH1 0x1 PUSH1 0x1 PUSH1 0xA0 SHL SUB AND DUP8 PUSH1 0x1 PUSH1 0x1 PUSH1 0xA0 SHL SUB AND PUSH32 0xDDF252AD1BE2C89B69C2B068FC378DAA952BA7F163C4A11628F55A4DF523B3EF DUP5 PUSH1 0x40 MLOAD PUSH2 0x17C8 SWAP2 DUP2 MSTORE PUSH1 0x20 ADD SWAP1 JUMP JUMPDEST PUSH1 0x40 MLOAD DUP1 SWAP2 SUB SWAP1 LOG3 POP POP POP POP POP POP POP JUMP JUMPDEST PUSH0 PUSH0 PUSH0 PUSH0 PUSH2 0x17E6 DUP6 PUSH2 0xE17 JUMP JUMPDEST PUSH1 0x1 PUSH1 0x1 PUSH1 0xA0 SHL SUB DUP12 AND PUSH0 SWAP1 DUP2 MSTORE PUSH1 0x5 PUSH1 0x20 MSTORE PUSH1 0x40 SWAP1 KECCAK256 SLOAD SWAP4 SWAP8 POP SWAP2 SWAP6 POP SWAP4 POP SWAP2 POP PUSH2 0x1813 SWAP1 DUP6 SWAP1 PUSH2 0x1C07 JUMP JUMPDEST PUSH1 0x1 PUSH1 0x1 PUSH1 0xA0 SHL SUB DUP1 DUP10 AND PUSH0 SWAP1 DUP2 MSTORE PUSH1 0x5 PUSH1 0x20 SWAP1 DUP2 MSTORE PUSH1 0x40 DUP1 DUP4 KECCAK256 SWAP5 SWAP1 SWAP5 SSTORE SWAP2 DUP10 AND DUP2 MSTORE PUSH1 0x6 SWAP1 SWAP2 MSTORE KECCAK256 SLOAD PUSH2 0x1849 SWAP1 DUP4 SWAP1 PUSH2 0x1C1A JUMP JUMPDEST PUSH1 0x1 PUSH1 0x1 PUSH1 0xA0 SHL SUB DUP8 AND PUSH0 SWAP1 DUP2 MSTORE PUSH1 0x6 PUSH1 0x20 SWAP1 DUP2 MSTORE PUSH1 0x40 DUP1 DUP4 KECCAK256 SWAP4 SWAP1 SWAP4 SSTORE PUSH1 0x5 SWAP1 MSTORE KECCAK256 SLOAD PUSH2 0x1756 SWAP1 DUP5 SWAP1 PUSH2 0x1C1A JUMP JUMPDEST PUSH0 PUSH0 PUSH0 PUSH0 PUSH2 0x1885 DUP6 PUSH2 0xE17 JUMP JUMPDEST PUSH1 0x1 PUSH1 0x1 PUSH1 0xA0 SHL SUB DUP12 AND PUSH0 SWAP1 DUP2 MSTORE PUSH1 0x5 PUSH1 0x20 MSTORE PUSH1 0x40 SWAP1 KECCAK256 SLOAD SWAP4 SWAP8 POP SWAP2 SWAP6 POP SWAP4 POP SWAP2 POP PUSH2 0x1727 SWAP1 DUP6 SWAP1 PUSH2 0x1C07 JUMP JUMPDEST PUSH0 PUSH0 PUSH0 PUSH0 PUSH2 0x18BF DUP6 PUSH2 0xE17 JUMP JUMPDEST PUSH1 0x1 PUSH1 0x1 PUSH1 0xA0 SHL SUB DUP12 AND PUSH0 SWAP1 DUP2 MSTORE PUSH1 0x6 PUSH1 0x20 MSTORE PUSH1 0x40 SWAP1 KECCAK256 SLOAD SWAP4 SWAP8 POP SWAP2 SWAP6 POP SWAP4 POP SWAP2 POP PUSH2 0x18EC SWAP1 DUP7 SWAP1 PUSH2 0x1C07 JUMP JUMPDEST PUSH1 0x1 PUSH1 0x1 PUSH1 0xA0 SHL SUB DUP9 AND PUSH0 SWAP1 DUP2 MSTORE PUSH1 0x6 PUSH1 0x20 SWAP1 DUP2 MSTORE PUSH1 0x40 DUP1 DUP4 KECCAK256 SWAP4 SWAP1 SWAP4 SSTORE PUSH1 0x5 SWAP1 MSTORE KECCAK256 SLOAD PUSH2 0x1813 SWAP1 DUP6 SWAP1 PUSH2 0x1C07 JUMP JUMPDEST PUSH0 PUSH1 0x64 PUSH1 0x11 SLOAD DUP5 PUSH2 0x192C SWAP2 SWAP1 PUSH2 0x1CD3 JUMP JUMPDEST PUSH2 0x1936 SWAP2 SWAP1 PUSH2 0x1CEA JUMP JUMPDEST SWAP1 POP DUP1 ISZERO PUSH2 0xEF0 JUMPI PUSH0 PUSH1 0x2 PUSH2 0x194B DUP5 DUP5 PUSH2 0x1CD3 JUMP JUMPDEST PUSH2 0x1955 SWAP2 SWAP1 PUSH2 0x1CEA JUMP JUMPDEST PUSH1 0x13 SLOAD PUSH1 0x1 PUSH1 0x1 PUSH1 0xA0 SHL SUB AND PUSH0 SWAP1 DUP2 MSTORE PUSH1 0x5 PUSH1 0x20 MSTORE PUSH1 0x40 SWAP1 KECCAK256 SLOAD SWAP1 SWAP2 POP PUSH2 0x197D SWAP1 DUP3 SWAP1 PUSH2 0x1C1A JUMP JUMPDEST PUSH1 0x13 SLOAD PUSH1 0x1 PUSH1 0x1 PUSH1 0xA0 SHL SUB SWAP1 DUP2 AND PUSH0 SWAP1 DUP2 MSTORE PUSH1 0x5 PUSH1 0x20 MSTORE PUSH1 0x40 DUP1 DUP3 KECCAK256 SWAP4 SWAP1 SWAP4 SSTORE PUSH1 0x14 SLOAD SWAP1 SWAP2 AND DUP2 MSTORE KECCAK256 SLOAD PUSH2 0x19B2 SWAP1 DUP3 SWAP1 PUSH2 0x1C1A JUMP JUMPDEST PUSH1 0x14 SLOAD PUSH1 0x1 PUSH1 0x1 PUSH1 0xA0 SHL SUB SWAP1 DUP2 AND PUSH0 SWAP1 DUP2 MSTORE PUSH1 0x5 PUSH1 0x20 SWAP1 DUP2 MSTORE PUSH1 0x40 SWAP2 DUP3 SWAP1 KECCAK256 SWAP4 SWAP1 SWAP4 SSTORE PUSH1 0x13 SLOAD SWAP1 MLOAD DUP6 DUP2 MSTORE SWAP1 DUP3 AND SWAP3 SWAP2 DUP9 AND SWAP2 PUSH32 0xDDF252AD1BE2C89B69C2B068FC378DAA952BA7F163C4A11628F55A4DF523B3EF SWAP2 ADD PUSH1 0x40 MLOAD DUP1 SWAP2 SUB SWAP1 LOG3 PUSH1 0x14 SLOAD PUSH1 0x40 MLOAD DUP4 DUP2 MSTORE PUSH1 0x1 PUSH1 0x1 PUSH1 0xA0 SHL SUB SWAP2 DUP3 AND SWAP2 DUP8 AND SWAP1 PUSH32 0xDDF252AD1BE2C89B69C2B068FC378DAA952BA7F163C4A11628F55A4DF523B3EF SWAP1 PUSH1 0x20 ADD PUSH1 0x40 MLOAD DUP1 SWAP2 SUB SWAP1 LOG3 POP POP POP POP POP JUMP JUMPDEST PUSH0 PUSH1 0x64 PUSH1 0xF SLOAD DUP5 PUSH2 0x1A6D SWAP2 SWAP1 PUSH2 0x1CD3 JUMP JUMPDEST PUSH2 0x1A77 SWAP2 SWAP1 PUSH2 0x1CEA JUMP JUMPDEST SWAP1 POP PUSH0 PUSH2 0x1A84 DUP4 DUP4 PUSH2 0x1CD3 JUMP JUMPDEST SWAP1 POP DUP1 PUSH1 0xD SLOAD PUSH2 0x1A94 SWAP2 SWAP1 PUSH2 0x1C07 JUMP JUMPDEST PUSH1 0xD SSTORE PUSH1 0xE SLOAD PUSH2 0x1AA5 SWAP1 DUP4 SWAP1 PUSH2 0x1C1A JUMP JUMPDEST PUSH1 0xE SSTORE POP POP POP POP JUMP JUMPDEST PUSH0 PUSH1 0x20 DUP3 DUP5 SUB SLT ISZERO PUSH2 0x1ABE JUMPI PUSH0 PUSH0 REVERT JUMPDEST POP CALLDATALOAD SWAP2 SWAP1 POP JUMP JUMPDEST PUSH1 0x20 DUP2 MSTORE PUSH0 DUP3 MLOAD DUP1 PUSH1 0x20 DUP5 ADD MSTORE DUP1 PUSH1 0x20 DUP6 ADD PUSH1 0x40 DUP6 ADD MCOPY PUSH0 PUSH1 0x40 DUP3 DUP6 ADD ADD MSTORE PUSH1 0x40 PUSH1 0x1F NOT PUSH1 0x1F DUP4 ADD AND DUP5 ADD ADD SWAP2 POP POP SWAP3 SWAP2 POP POP JUMP JUMPDEST DUP1 CALLDATALOAD PUSH1 0x1 PUSH1 0x1 PUSH1 0xA0 SHL SUB DUP2 AND DUP2 EQ PUSH2 0x1B10 JUMPI PUSH0 PUSH0 REVERT JUMPDEST SWAP2 SWAP1 POP JUMP JUMPDEST PUSH0 PUSH0 PUSH1 0x40 DUP4 DUP6 SUB SLT ISZERO PUSH2 0x1B26 JUMPI PUSH0 PUSH0 REVERT JUMPDEST PUSH2 0x1B2F DUP4 PUSH2 0x1AFA JUMP JUMPDEST SWAP5 PUSH1 0x20 SWAP4 SWAP1 SWAP4 ADD CALLDATALOAD SWAP4 POP POP POP JUMP JUMPDEST PUSH0 PUSH0 PUSH0 PUSH1 0x60 DUP5 DUP7 SUB SLT ISZERO PUSH2 0x1B4F JUMPI PUSH0 PUSH0 REVERT JUMPDEST PUSH2 0x1B58 DUP5 PUSH2 0x1AFA JUMP JUMPDEST SWAP3 POP PUSH2 0x1B66 PUSH1 0x20 DUP6 ADD PUSH2 0x1AFA JUMP JUMPDEST SWAP3 SWAP6 SWAP3 SWAP5 POP POP POP PUSH1 0x40 SWAP2 SWAP1 SWAP2 ADD CALLDATALOAD SWAP1 JUMP JUMPDEST PUSH0 PUSH1 0x20 DUP3 DUP5 SUB SLT ISZERO PUSH2 0x1B87 JUMPI PUSH0 PUSH0 REVERT JUMPDEST PUSH2 0x1285 DUP3 PUSH2 0x1AFA JUMP JUMPDEST PUSH0 PUSH0 PUSH1 0x40 DUP4 DUP6 SUB SLT ISZERO PUSH2 0x1BA1 JUMPI PUSH0 PUSH0 REVERT JUMPDEST DUP3 CALLDATALOAD SWAP2 POP PUSH1 0x20 DUP4 ADD CALLDATALOAD DUP1 ISZERO ISZERO DUP2 EQ PUSH2 0x1BB7 JUMPI PUSH0 PUSH0 REVERT JUMPDEST DUP1 SWAP2 POP POP SWAP3 POP SWAP3 SWAP1 POP JUMP JUMPDEST PUSH0 PUSH0 PUSH1 0x40 DUP4 DUP6 SUB SLT ISZERO PUSH2 0x1BD3 JUMPI PUSH0 PUSH0 REVERT JUMPDEST PUSH2 0x1BDC DUP4 PUSH2 0x1AFA JUMP JUMPDEST SWAP2 POP PUSH2 0x1BEA PUSH1 0x20 DUP5 ADD PUSH2 0x1AFA JUMP JUMPDEST SWAP1 POP SWAP3 POP SWAP3 SWAP1 POP JUMP JUMPDEST PUSH4 0x4E487B71 PUSH1 0xE0 SHL PUSH0 MSTORE PUSH1 0x11 PUSH1 0x4 MSTORE PUSH1 0x24 PUSH0 REVERT JUMPDEST DUP2 DUP2 SUB DUP2 DUP2 GT ISZERO PUSH2 0x7BD JUMPI PUSH2 0x7BD PUSH2 0x1BF3 JUMP JUMPDEST DUP1 DUP3 ADD DUP1 DUP3 GT ISZERO PUSH2 0x7BD JUMPI PUSH2 0x7BD PUSH2 0x1BF3 JUMP JUMPDEST PUSH1 0x1 DUP2 DUP2 SHR SWAP1 DUP3 AND DUP1 PUSH2 0x1C41 JUMPI PUSH1 0x7F DUP3 AND SWAP2 POP JUMPDEST PUSH1 0x20 DUP3 LT DUP2 SUB PUSH2 0x1C5F JUMPI PUSH4 0x4E487B71 PUSH1 0xE0 SHL PUSH0 MSTORE PUSH1 0x22 PUSH1 0x4 MSTORE PUSH1 0x24 PUSH0 REVERT JUMPDEST POP SWAP2 SWAP1 POP JUMP JUMPDEST PUSH1 0x20 DUP1 DUP3 MSTORE PUSH1 0x26 SWAP1 DUP3 ADD MSTORE PUSH32 0x7A65726F20616464726573732063616E206E6F74206265207468652046656541 PUSH1 0x40 DUP3 ADD MSTORE PUSH6 0x18D8DBDD5B9D PUSH1 0xD2 SHL PUSH1 0x60 DUP3 ADD MSTORE PUSH1 0x80 ADD SWAP1 JUMP JUMPDEST PUSH4 0x4E487B71 PUSH1 0xE0 SHL PUSH0 MSTORE PUSH1 0x32 PUSH1 0x4 MSTORE PUSH1 0x24 PUSH0 REVERT JUMPDEST PUSH4 0x4E487B71 PUSH1 0xE0 SHL PUSH0 MSTORE PUSH1 0x31 PUSH1 0x4 MSTORE PUSH1 0x24 PUSH0 REVERT JUMPDEST DUP1 DUP3 MUL DUP2 ISZERO DUP3 DUP3 DIV DUP5 EQ OR PUSH2 0x7BD JUMPI PUSH2 0x7BD PUSH2 0x1BF3 JUMP JUMPDEST PUSH0 DUP3 PUSH2 0x1D04 JUMPI PUSH4 0x4E487B71 PUSH1 0xE0 SHL PUSH0 MSTORE PUSH1 0x12 PUSH1 0x4 MSTORE PUSH1 0x24 PUSH0 REVERT JUMPDEST POP DIV SWAP1 JUMP INVALID LOG2 PUSH5 0x6970667358 0x22 SLT KECCAK256 DUP5 DUP12 MSTORE8 0xD8 SELFDESTRUCT BLOCKHASH SUB RETURNDATACOPY 0xA8 BYTE LT CODESIZE TSTORE MCOPY PUSH10 0xBEBCAAC47DDB9EBFDA71 SDIV GASLIMIT GT 0x26 MOD RETF PC PUSH5 0x736F6C6343 STOP ADDMOD SAR STOP CALLER "
				},
				"gasEstimates": {
					"creation": {
						"codeDepositCost": "1497400",
						"executionCost": "infinite",
						"totalCost": "infinite"
					},
					"external": {
						"allowance(address,address)": "infinite",
						"approve(address,uint256)": "24802",
						"balanceOf(address)": "infinite",
						"changeDevelopmentAccount(address)": "26857",
						"changeMarketingAccount(address)": "26813",
						"changePairAddress(address)": "51116",
						"decimals()": "2378",
						"excludeAccountFromReward(address)": "infinite",
						"excludeFromFee(address)": "26852",
						"getDevelopmentAccount()": "2365",
						"getMarketingAccount()": "2376",
						"getTaxFee()": "2357",
						"includeAccountinReward(address)": "infinite",
						"isExcluded(address)": "2635",
						"isExcludedFromFee(address)": "2658",
						"isWhitelisted(address)": "2574",
						"isWhitelistedAddress(address)": "2591",
						"launchBlock()": "2405",
						"name()": "infinite",
						"openTrading()": "48711",
						"owner()": "2453",
						"pairAddress()": "2403",
						"reflect(uint256)": "infinite",
						"reflectionFee()": "2359",
						"reflectionFromToken(uint256,bool)": "infinite",
						"symbol()": "infinite",
						"totalFeesRedistributed()": "2403",
						"totalSupply()": "2393",
						"tradingOpen()": "2419",
						"transfer(address,uint256)": "infinite",
						"transferFrom(address,address,uint256)": "infinite",
						"whitelistedAddress(address)": "29106"
					},
					"internal": {
						"_getCompleteTaxValue(uint256)": "infinite",
						"_getCurrentSupply()": "infinite",
						"_getRate()": "infinite",
						"_getTransferValues(uint256)": "infinite",
						"_reflectFee(uint256,uint256)": "infinite",
						"_tokenTransfer(address,address,uint256,bool)": "infinite",
						"_transfer(address,address,uint256)": "infinite",
						"_transferBothExcluded(address,address,uint256)": "infinite",
						"_transferFromExcluded(address,address,uint256)": "infinite",
						"_transferStandard(address,address,uint256)": "infinite",
						"_transferToExcluded(address,address,uint256)": "infinite",
						"removeAllFee()": "62689",
						"restoreAllFee()": "infinite",
						"taxFeeTransfer(address,uint256,uint256)": "infinite",
						"tokenFromReflection(uint256)": "infinite"
					}
				},
				"methodIdentifiers": {
					"allowance(address,address)": "dd62ed3e",
					"approve(address,uint256)": "095ea7b3",
					"balanceOf(address)": "70a08231",
					"changeDevelopmentAccount(address)": "706407fd",
					"changeMarketingAccount(address)": "c4863770",
					"changePairAddress(address)": "8873b15f",
					"decimals()": "313ce567",
					"excludeAccountFromReward(address)": "6049876e",
					"excludeFromFee(address)": "437823ec",
					"getDevelopmentAccount()": "1cf8fef5",
					"getMarketingAccount()": "838fcc90",
					"getTaxFee()": "f66608fe",
					"includeAccountinReward(address)": "fdeb889f",
					"isExcluded(address)": "cba0e996",
					"isExcludedFromFee(address)": "5342acb4",
					"isWhitelisted(address)": "3af32abf",
					"isWhitelistedAddress(address)": "5fae0576",
					"launchBlock()": "d00efb2f",
					"name()": "06fdde03",
					"openTrading()": "c9567bf9",
					"owner()": "8da5cb5b",
					"pairAddress()": "a8b08982",
					"reflect(uint256)": "053ab182",
					"reflectionFee()": "83ad7994",
					"reflectionFromToken(uint256,bool)": "4549b039",
					"symbol()": "95d89b41",
					"totalFeesRedistributed()": "32035504",
					"totalSupply()": "18160ddd",
					"tradingOpen()": "ffb54a99",
					"transfer(address,uint256)": "a9059cbb",
					"transferFrom(address,address,uint256)": "23b872dd",
					"whitelistedAddress(address)": "c30796ab"
				}
			},
			"storageLayout": {
				"storage": [
					{
						"astId": 159,
						"contract": "shoaib.sol:CYBCC",
						"label": "_balances",
						"offset": 0,
						"slot": "0",
						"type": "t_mapping(t_address,t_uint256)"
					},
					{
						"astId": 165,
						"contract": "shoaib.sol:CYBCC",
						"label": "_allowances",
						"offset": 0,
						"slot": "1",
						"type": "t_mapping(t_address,t_mapping(t_address,t_uint256))"
					},
					{
						"astId": 167,
						"contract": "shoaib.sol:CYBCC",
						"label": "_totalSupply",
						"offset": 0,
						"slot": "2",
						"type": "t_uint256"
					},
					{
						"astId": 169,
						"contract": "shoaib.sol:CYBCC",
						"label": "_name",
						"offset": 0,
						"slot": "3",
						"type": "t_string_storage"
					},
					{
						"astId": 171,
						"contract": "shoaib.sol:CYBCC",
						"label": "_symbol",
						"offset": 0,
						"slot": "4",
						"type": "t_string_storage"
					},
					{
						"astId": 795,
						"contract": "shoaib.sol:CYBCC",
						"label": "_rOwned",
						"offset": 0,
						"slot": "5",
						"type": "t_mapping(t_address,t_uint256)"
					},
					{
						"astId": 799,
						"contract": "shoaib.sol:CYBCC",
						"label": "_tOwned",
						"offset": 0,
						"slot": "6",
						"type": "t_mapping(t_address,t_uint256)"
					},
					{
						"astId": 803,
						"contract": "shoaib.sol:CYBCC",
						"label": "_isExcludedFromFee",
						"offset": 0,
						"slot": "7",
						"type": "t_mapping(t_address,t_bool)"
					},
					{
						"astId": 807,
						"contract": "shoaib.sol:CYBCC",
						"label": "isWhitelisted",
						"offset": 0,
						"slot": "8",
						"type": "t_mapping(t_address,t_bool)"
					},
					{
						"astId": 811,
						"contract": "shoaib.sol:CYBCC",
						"label": "_isExcluded",
						"offset": 0,
						"slot": "9",
						"type": "t_mapping(t_address,t_bool)"
					},
					{
						"astId": 814,
						"contract": "shoaib.sol:CYBCC",
						"label": "_excluded",
						"offset": 0,
						"slot": "10",
						"type": "t_array(t_address)dyn_storage"
					},
					{
						"astId": 816,
						"contract": "shoaib.sol:CYBCC",
						"label": "_decimals",
						"offset": 0,
						"slot": "11",
						"type": "t_uint8"
					},
					{
						"astId": 820,
						"contract": "shoaib.sol:CYBCC",
						"label": "_owner",
						"offset": 1,
						"slot": "11",
						"type": "t_address"
					},
					{
						"astId": 829,
						"contract": "shoaib.sol:CYBCC",
						"label": "_tTotal",
						"offset": 0,
						"slot": "12",
						"type": "t_uint256"
					},
					{
						"astId": 831,
						"contract": "shoaib.sol:CYBCC",
						"label": "_rTotal",
						"offset": 0,
						"slot": "13",
						"type": "t_uint256"
					},
					{
						"astId": 834,
						"contract": "shoaib.sol:CYBCC",
						"label": "_tFeeTotal",
						"offset": 0,
						"slot": "14",
						"type": "t_uint256"
					},
					{
						"astId": 836,
						"contract": "shoaib.sol:CYBCC",
						"label": "_reflectionFee",
						"offset": 0,
						"slot": "15",
						"type": "t_uint256"
					},
					{
						"astId": 838,
						"contract": "shoaib.sol:CYBCC",
						"label": "_previousReflectionFee",
						"offset": 0,
						"slot": "16",
						"type": "t_uint256"
					},
					{
						"astId": 840,
						"contract": "shoaib.sol:CYBCC",
						"label": "_taxFee",
						"offset": 0,
						"slot": "17",
						"type": "t_uint256"
					},
					{
						"astId": 842,
						"contract": "shoaib.sol:CYBCC",
						"label": "_previousTaxFee",
						"offset": 0,
						"slot": "18",
						"type": "t_uint256"
					},
					{
						"astId": 844,
						"contract": "shoaib.sol:CYBCC",
						"label": "_marketingAccount",
						"offset": 0,
						"slot": "19",
						"type": "t_address"
					},
					{
						"astId": 846,
						"contract": "shoaib.sol:CYBCC",
						"label": "_developmentAccount",
						"offset": 0,
						"slot": "20",
						"type": "t_address"
					},
					{
						"astId": 848,
						"contract": "shoaib.sol:CYBCC",
						"label": "pairAddress",
						"offset": 0,
						"slot": "21",
						"type": "t_address"
					},
					{
						"astId": 850,
						"contract": "shoaib.sol:CYBCC",
						"label": "maxWalletAmount",
						"offset": 0,
						"slot": "22",
						"type": "t_uint256"
					},
					{
						"astId": 852,
						"contract": "shoaib.sol:CYBCC",
						"label": "launchBlock",
						"offset": 0,
						"slot": "23",
						"type": "t_uint256"
					},
					{
						"astId": 855,
						"contract": "shoaib.sol:CYBCC",
						"label": "tradingOpen",
						"offset": 0,
						"slot": "24",
						"type": "t_bool"
					}
				],
				"types": {
					"t_address": {
						"encoding": "inplace",
						"label": "address",
						"numberOfBytes": "20"
					},
					"t_array(t_address)dyn_storage": {
						"base": "t_address",
						"encoding": "dynamic_array",
						"label": "address[]",
						"numberOfBytes": "32"
					},
					"t_bool": {
						"encoding": "inplace",
						"label": "bool",
						"numberOfBytes": "1"
					},
					"t_mapping(t_address,t_bool)": {
						"encoding": "mapping",
						"key": "t_address",
						"label": "mapping(address => bool)",
						"numberOfBytes": "32",
						"value": "t_bool"
					},
					"t_mapping(t_address,t_mapping(t_address,t_uint256))": {
						"encoding": "mapping",
						"key": "t_address",
						"label": "mapping(address => mapping(address => uint256))",
						"numberOfBytes": "32",
						"value": "t_mapping(t_address,t_uint256)"
					},
					"t_mapping(t_address,t_uint256)": {
						"encoding": "mapping",
						"key": "t_address",
						"label": "mapping(address => uint256)",
						"numberOfBytes": "32",
						"value": "t_uint256"
					},
					"t_string_storage": {
						"encoding": "bytes",
						"label": "string",
						"numberOfBytes": "32"
					},
					"t_uint256": {
						"encoding": "inplace",
						"label": "uint256",
						"numberOfBytes": "32"
					},
					"t_uint8": {
						"encoding": "inplace",
						"label": "uint8",
						"numberOfBytes": "1"
					}
				}
			},
			"userdoc": {
				"kind": "user",
				"methods": {},
				"version": 1
			}
		}
	}
}