{
	"shoaib_flattened.sol": {
		"CYBCC": {
			"abi": [
				{
					"inputs": [],
					"stateMutability": "nonpayable",
					"type": "constructor"
				},
				{
					"inputs": [
						{
							"internalType": "address",
							"name": "spender",
							"type": "address"
						},
						{
							"internalType": "uint256",
							"name": "allowance",
							"type": "uint256"
						},
						{
							"internalType": "uint256",
							"name": "needed",
							"type": "uint256"
						}
					],
					"name": "ERC20InsufficientAllowance",
					"type": "error"
				},
				{
					"inputs": [
						{
							"internalType": "address",
							"name": "sender",
							"type": "address"
						},
						{
							"internalType": "uint256",
							"name": "balance",
							"type": "uint256"
						},
						{
							"internalType": "uint256",
							"name": "needed",
							"type": "uint256"
						}
					],
					"name": "ERC20InsufficientBalance",
					"type": "error"
				},
				{
					"inputs": [
						{
							"internalType": "address",
							"name": "approver",
							"type": "address"
						}
					],
					"name": "ERC20InvalidApprover",
					"type": "error"
				},
				{
					"inputs": [
						{
							"internalType": "address",
							"name": "receiver",
							"type": "address"
						}
					],
					"name": "ERC20InvalidReceiver",
					"type": "error"
				},
				{
					"inputs": [
						{
							"internalType": "address",
							"name": "sender",
							"type": "address"
						}
					],
					"name": "ERC20InvalidSender",
					"type": "error"
				},
				{
					"inputs": [
						{
							"internalType": "address",
							"name": "spender",
							"type": "address"
						}
					],
					"name": "ERC20InvalidSpender",
					"type": "error"
				},
				{
					"anonymous": false,
					"inputs": [
						{
							"indexed": true,
							"internalType": "address",
							"name": "owner",
							"type": "address"
						},
						{
							"indexed": true,
							"internalType": "address",
							"name": "spender",
							"type": "address"
						},
						{
							"indexed": false,
							"internalType": "uint256",
							"name": "value",
							"type": "uint256"
						}
					],
					"name": "Approval",
					"type": "event"
				},
				{
					"anonymous": false,
					"inputs": [
						{
							"indexed": true,
							"internalType": "address",
							"name": "from",
							"type": "address"
						},
						{
							"indexed": true,
							"internalType": "address",
							"name": "to",
							"type": "address"
						},
						{
							"indexed": false,
							"internalType": "uint256",
							"name": "value",
							"type": "uint256"
						}
					],
					"name": "Transfer",
					"type": "event"
				},
				{
					"inputs": [
						{
							"internalType": "address",
							"name": "owner",
							"type": "address"
						},
						{
							"internalType": "address",
							"name": "spender",
							"type": "address"
						}
					],
					"name": "allowance",
					"outputs": [
						{
							"internalType": "uint256",
							"name": "",
							"type": "uint256"
						}
					],
					"stateMutability": "view",
					"type": "function"
				},
				{
					"inputs": [
						{
							"internalType": "address",
							"name": "spender",
							"type": "address"
						},
						{
							"internalType": "uint256",
							"name": "value",
							"type": "uint256"
						}
					],
					"name": "approve",
					"outputs": [
						{
							"internalType": "bool",
							"name": "",
							"type": "bool"
						}
					],
					"stateMutability": "nonpayable",
					"type": "function"
				},
				{
					"inputs": [
						{
							"internalType": "address",
							"name": "sender",
							"type": "address"
						}
					],
					"name": "balanceOf",
					"outputs": [
						{
							"internalType": "uint256",
							"name": "",
							"type": "uint256"
						}
					],
					"stateMutability": "view",
					"type": "function"
				},
				{
					"inputs": [
						{
							"internalType": "address",
							"name": "newFeeAccount",
							"type": "address"
						}
					],
					"name": "changeMarketingAccount",
					"outputs": [],
					"stateMutability": "nonpayable",
					"type": "function"
				},
				{
					"inputs": [
						{
							"internalType": "address",
							"name": "_pairAddress",
							"type": "address"
						}
					],
					"name": "changePairAddress",
					"outputs": [],
					"stateMutability": "nonpayable",
					"type": "function"
				},
				{
					"inputs": [],
					"name": "decimals",
					"outputs": [
						{
							"internalType": "uint8",
							"name": "",
							"type": "uint8"
						}
					],
					"stateMutability": "view",
					"type": "function"
				},
				{
					"inputs": [
						{
							"internalType": "address",
							"name": "account",
							"type": "address"
						}
					],
					"name": "excludeAccountFromReward",
					"outputs": [],
					"stateMutability": "nonpayable",
					"type": "function"
				},
				{
					"inputs": [
						{
							"internalType": "address",
							"name": "account",
							"type": "address"
						}
					],
					"name": "excludeFromFee",
					"outputs": [],
					"stateMutability": "nonpayable",
					"type": "function"
				},
				{
					"inputs": [],
					"name": "getMarketingAccount",
					"outputs": [
						{
							"internalType": "address",
							"name": "",
							"type": "address"
						}
					],
					"stateMutability": "view",
					"type": "function"
				},
				{
					"inputs": [],
					"name": "getTaxFee",
					"outputs": [
						{
							"internalType": "uint256",
							"name": "",
							"type": "uint256"
						}
					],
					"stateMutability": "view",
					"type": "function"
				},
				{
					"inputs": [
						{
							"internalType": "address",
							"name": "account",
							"type": "address"
						}
					],
					"name": "includeAccountinReward",
					"outputs": [],
					"stateMutability": "nonpayable",
					"type": "function"
				},
				{
					"inputs": [
						{
							"internalType": "address",
							"name": "account",
							"type": "address"
						}
					],
					"name": "isExcluded",
					"outputs": [
						{
							"internalType": "bool",
							"name": "",
							"type": "bool"
						}
					],
					"stateMutability": "view",
					"type": "function"
				},
				{
					"inputs": [
						{
							"internalType": "address",
							"name": "account",
							"type": "address"
						}
					],
					"name": "isExcludedFromFee",
					"outputs": [
						{
							"internalType": "bool",
							"name": "",
							"type": "bool"
						}
					],
					"stateMutability": "view",
					"type": "function"
				},
				{
					"inputs": [
						{
							"internalType": "address",
							"name": "",
							"type": "address"
						}
					],
					"name": "isWhitelisted",
					"outputs": [
						{
							"internalType": "bool",
							"name": "",
							"type": "bool"
						}
					],
					"stateMutability": "view",
					"type": "function"
				},
				{
					"inputs": [
						{
							"internalType": "address",
							"name": "account",
							"type": "address"
						}
					],
					"name": "isWhitelistedAddress",
					"outputs": [
						{
							"internalType": "bool",
							"name": "",
							"type": "bool"
						}
					],
					"stateMutability": "view",
					"type": "function"
				},
				{
					"inputs": [],
					"name": "launchBlock",
					"outputs": [
						{
							"internalType": "uint256",
							"name": "",
							"type": "uint256"
						}
					],
					"stateMutability": "view",
					"type": "function"
				},
				{
					"inputs": [],
					"name": "name",
					"outputs": [
						{
							"internalType": "string",
							"name": "",
							"type": "string"
						}
					],
					"stateMutability": "view",
					"type": "function"
				},
				{
					"inputs": [],
					"name": "openTrading",
					"outputs": [],
					"stateMutability": "nonpayable",
					"type": "function"
				},
				{
					"inputs": [],
					"name": "owner",
					"outputs": [
						{
							"internalType": "address",
							"name": "",
							"type": "address"
						}
					],
					"stateMutability": "view",
					"type": "function"
				},
				{
					"inputs": [],
					"name": "pairAddress",
					"outputs": [
						{
							"internalType": "address",
							"name": "",
							"type": "address"
						}
					],
					"stateMutability": "view",
					"type": "function"
				},
				{
					"inputs": [
						{
							"internalType": "uint256",
							"name": "tAmount",
							"type": "uint256"
						}
					],
					"name": "reflect",
					"outputs": [],
					"stateMutability": "nonpayable",
					"type": "function"
				},
				{
					"inputs": [],
					"name": "reflectionFee",
					"outputs": [
						{
							"internalType": "uint256",
							"name": "",
							"type": "uint256"
						}
					],
					"stateMutability": "view",
					"type": "function"
				},
				{
					"inputs": [
						{
							"internalType": "uint256",
							"name": "tAmount",
							"type": "uint256"
						},
						{
							"internalType": "bool",
							"name": "deductTransferFee",
							"type": "bool"
						}
					],
					"name": "reflectionFromToken",
					"outputs": [
						{
							"internalType": "uint256",
							"name": "",
							"type": "uint256"
						}
					],
					"stateMutability": "view",
					"type": "function"
				},
				{
					"inputs": [],
					"name": "renounceOwnership",
					"outputs": [],
					"stateMutability": "nonpayable",
					"type": "function"
				},
				{
					"inputs": [],
					"name": "symbol",
					"outputs": [
						{
							"internalType": "string",
							"name": "",
							"type": "string"
						}
					],
					"stateMutability": "view",
					"type": "function"
				},
				{
					"inputs": [],
					"name": "totalFeesRedistributed",
					"outputs": [
						{
							"internalType": "uint256",
							"name": "",
							"type": "uint256"
						}
					],
					"stateMutability": "view",
					"type": "function"
				},
				{
					"inputs": [],
					"name": "totalSupply",
					"outputs": [
						{
							"internalType": "uint256",
							"name": "",
							"type": "uint256"
						}
					],
					"stateMutability": "view",
					"type": "function"
				},
				{
					"inputs": [],
					"name": "tradingOpen",
					"outputs": [
						{
							"internalType": "bool",
							"name": "",
							"type": "bool"
						}
					],
					"stateMutability": "view",
					"type": "function"
				},
				{
					"inputs": [
						{
							"internalType": "address",
							"name": "to",
							"type": "address"
						},
						{
							"internalType": "uint256",
							"name": "value",
							"type": "uint256"
						}
					],
					"name": "transfer",
					"outputs": [
						{
							"internalType": "bool",
							"name": "",
							"type": "bool"
						}
					],
					"stateMutability": "nonpayable",
					"type": "function"
				},
				{
					"inputs": [
						{
							"internalType": "address",
							"name": "from",
							"type": "address"
						},
						{
							"internalType": "address",
							"name": "to",
							"type": "address"
						},
						{
							"internalType": "uint256",
							"name": "value",
							"type": "uint256"
						}
					],
					"name": "transferFrom",
					"outputs": [
						{
							"internalType": "bool",
							"name": "",
							"type": "bool"
						}
					],
					"stateMutability": "nonpayable",
					"type": "function"
				},
				{
					"inputs": [
						{
							"internalType": "address",
							"name": "newOwner",
							"type": "address"
						}
					],
					"name": "transferOwnership",
					"outputs": [],
					"stateMutability": "nonpayable",
					"type": "function"
				},
				{
					"inputs": [
						{
							"internalType": "address",
							"name": "account",
							"type": "address"
						}
					],
					"name": "whitelistedAddress",
					"outputs": [],
					"stateMutability": "nonpayable",
					"type": "function"
				},
				{
					"stateMutability": "payable",
					"type": "receive"
				}
			],
			"devdoc": {
				"errors": {
					"ERC20InsufficientAllowance(address,uint256,uint256)": [
						{
							"details": "Indicates a failure with the `spender`’s `allowance`. Used in transfers.",
							"params": {
								"allowance": "Amount of tokens a `spender` is allowed to operate with.",
								"needed": "Minimum amount required to perform a transfer.",
								"spender": "Address that may be allowed to operate on tokens without being their owner."
							}
						}
					],
					"ERC20InsufficientBalance(address,uint256,uint256)": [
						{
							"details": "Indicates an error related to the current `balance` of a `sender`. Used in transfers.",
							"params": {
								"balance": "Current balance for the interacting account.",
								"needed": "Minimum amount required to perform a transfer.",
								"sender": "Address whose tokens are being transferred."
							}
						}
					],
					"ERC20InvalidApprover(address)": [
						{
							"details": "Indicates a failure with the `approver` of a token to be approved. Used in approvals.",
							"params": {
								"approver": "Address initiating an approval operation."
							}
						}
					],
					"ERC20InvalidReceiver(address)": [
						{
							"details": "Indicates a failure with the token `receiver`. Used in transfers.",
							"params": {
								"receiver": "Address to which tokens are being transferred."
							}
						}
					],
					"ERC20InvalidSender(address)": [
						{
							"details": "Indicates a failure with the token `sender`. Used in transfers.",
							"params": {
								"sender": "Address whose tokens are being transferred."
							}
						}
					],
					"ERC20InvalidSpender(address)": [
						{
							"details": "Indicates a failure with the `spender` to be approved. Used in approvals.",
							"params": {
								"spender": "Address that may be allowed to operate on tokens without being their owner."
							}
						}
					]
				},
				"events": {
					"Approval(address,address,uint256)": {
						"details": "Emitted when the allowance of a `spender` for an `owner` is set by a call to {approve}. `value` is the new allowance."
					},
					"Transfer(address,address,uint256)": {
						"details": "Emitted when `value` tokens are moved from one account (`from`) to another (`to`). Note that `value` may be zero."
					}
				},
				"kind": "dev",
				"methods": {
					"allowance(address,address)": {
						"details": "See {IERC20-allowance}."
					},
					"approve(address,uint256)": {
						"details": "See {IERC20-approve}. NOTE: If `value` is the maximum `uint256`, the allowance is not updated on `transferFrom`. This is semantically equivalent to an infinite approval. Requirements: - `spender` cannot be the zero address."
					},
					"decimals()": {
						"details": "Returns the number of decimals used to get its user representation. For example, if `decimals` equals `2`, a balance of `505` tokens should be displayed to a user as `5.05` (`505 / 10 ** 2`). Tokens usually opt for a value of 18, imitating the relationship between Ether and Wei. This is the default value returned by this function, unless it's overridden. NOTE: This information is only used for _display_ purposes: it in no way affects any of the arithmetic of the contract, including {IERC20-balanceOf} and {IERC20-transfer}."
					},
					"name()": {
						"details": "Returns the name of the token."
					},
					"symbol()": {
						"details": "Returns the symbol of the token, usually a shorter version of the name."
					},
					"totalSupply()": {
						"details": "See {IERC20-totalSupply}."
					},
					"transfer(address,uint256)": {
						"details": "See {IERC20-transfer}. Requirements: - `to` cannot be the zero address. - the caller must have a balance of at least `value`."
					},
					"transferFrom(address,address,uint256)": {
						"details": "See {IERC20-transferFrom}. Skips emitting an {Approval} event indicating an allowance update. This is not required by the ERC. See {xref-ERC20-_approve-address-address-uint256-bool-}[_approve]. NOTE: Does not update the allowance if the current allowance is the maximum `uint256`. Requirements: - `from` and `to` cannot be the zero address. - `from` must have a balance of at least `value`. - the caller must have allowance for ``from``'s tokens of at least `value`."
					}
				},
				"version": 1
			},
			"evm": {
				"assembly": "    /* \"shoaib_flattened.sol\":22302:36124  contract CYBCC is ERC20 {... */\n  mstore(0x40, 0x80)\n    /* \"shoaib_flattened.sol\":22657:22692  address private _owner = msg.sender */\n  0x0b\n  dup1\n  sload\n  not(sub(shl(0xa8, 0x01), 0x0100))\n  and\n    /* \"shoaib_flattened.sol\":22682:22692  msg.sender */\n  caller\n    /* \"shoaib_flattened.sol\":22657:22692  address private _owner = msg.sender */\n  0x0100\n  mul\n  or\n  swap1\n  sstore\n  0x00\n    /* \"shoaib_flattened.sol\":22808:22838  uint256 private _tFeeTotal = 0 */\n  0x0e\n  sstore\n    /* \"shoaib_flattened.sol\":23153:23184  bool public tradingOpen = false */\n  0x17\n  dup1\n  sload\n  not(0xff)\n  and\n  swap1\n  sstore\n    /* \"shoaib_flattened.sol\":23191:24019  constructor() ERC20(\"abc coin\", \"CYBCC\") {... */\n  callvalue\n  dup1\n  iszero\n  tag_1\n  jumpi\n  revert(0x00, 0x00)\ntag_1:\n  pop\n    /* \"shoaib_flattened.sol\":12623:12736  constructor(string memory name_, string memory symbol_) {... */\n  mload(0x40)\n  dup1\n  0x40\n  add\n  0x40\n  mstore\n  dup1\n  0x08\n  dup2\n  mstore\n  0x20\n  add\n  shl(0xc1, 0x30b1319031b7b4b7)\n  dup2\n  mstore\n  pop\n  mload(0x40)\n  dup1\n  0x40\n  add\n  0x40\n  mstore\n  dup1\n  0x05\n  dup2\n  mstore\n  0x20\n  add\n  shl(0xd8, 0x4359424343)\n  dup2\n  mstore\n  pop\n    /* \"shoaib_flattened.sol\":12697:12702  name_ */\n  dup2\n    /* \"shoaib_flattened.sol\":12689:12694  _name */\n  0x03\n    /* \"shoaib_flattened.sol\":12689:12702  _name = name_ */\n  swap1\n  dup2\n  tag_5\n  swap2\n  swap1\n  tag_6\n  jump\t// in\ntag_5:\n  pop\n    /* \"shoaib_flattened.sol\":12712:12719  _symbol */\n  0x04\n    /* \"shoaib_flattened.sol\":12712:12729  _symbol = symbol_ */\n  tag_7\n    /* \"shoaib_flattened.sol\":12722:12729  symbol_ */\n  dup3\n    /* \"shoaib_flattened.sol\":12712:12719  _symbol */\n  dup3\n    /* \"shoaib_flattened.sol\":12712:12729  _symbol = symbol_ */\n  tag_6\n  jump\t// in\ntag_7:\n  pop\n  pop\n    /* \"shoaib_flattened.sol\":23242:23251  _decimals */\n  0x0b\n    /* \"shoaib_flattened.sol\":23242:23256  _decimals = 18 */\n  dup1\n  sload\n  not(0xff)\n  and\n    /* \"shoaib_flattened.sol\":23254:23256  18 */\n  0x12\n    /* \"shoaib_flattened.sol\":23242:23256  _decimals = 18 */\n  swap1\n  dup2\n  or\n  swap1\n  swap2\n  sstore\n    /* \"shoaib_flattened.sol\":23290:23312  10**uint256(_decimals) */\n  tag_9\n  swap2\n  pop\n    /* \"shoaib_flattened.sol\":23290:23292  10 */\n  0x0a\n    /* \"shoaib_flattened.sol\":23290:23312  10**uint256(_decimals) */\n  tag_10\n  jump\t// in\ntag_9:\n    /* \"shoaib_flattened.sol\":23277:23312  1000000000 * 10**uint256(_decimals) */\n  tag_11\n  swap1\n    /* \"shoaib_flattened.sol\":23277:23287  1000000000 */\n  0x3b9aca00\n    /* \"shoaib_flattened.sol\":23277:23312  1000000000 * 10**uint256(_decimals) */\n  tag_12\n  jump\t// in\ntag_11:\n    /* \"shoaib_flattened.sol\":23267:23274  _tTotal */\n  0x0c\n    /* \"shoaib_flattened.sol\":23267:23312  _tTotal = 1000000000 * 10**uint256(_decimals) */\n  dup2\n  swap1\n  sstore\n    /* \"shoaib_flattened.sol\":23341:23354  MAX % _tTotal */\n  tag_13\n  swap1\n  not(0x00)\n  tag_14\n  jump\t// in\ntag_13:\n    /* \"shoaib_flattened.sol\":23334:23355  MAX - (MAX % _tTotal) */\n  tag_15\n  swap1\n  not(0x00)\n  tag_16\n  jump\t// in\ntag_15:\n    /* \"shoaib_flattened.sol\":23323:23330  _rTotal */\n  0x0d\n    /* \"shoaib_flattened.sol\":23323:23356  _rTotal = (MAX - (MAX % _tTotal)) */\n  sstore\n    /* \"shoaib_flattened.sol\":23384:23385  2 */\n  0x02\n    /* \"shoaib_flattened.sol\":23367:23381  _reflectionFee */\n  0x0f\n    /* \"shoaib_flattened.sol\":23367:23385  _reflectionFee = 2 */\n  dup2\n  swap1\n  sstore\n    /* \"shoaib_flattened.sol\":23396:23418  _previousReflectionFee */\n  0x10\n    /* \"shoaib_flattened.sol\":23396:23435  _previousReflectionFee = _reflectionFee */\n  sstore\n    /* \"shoaib_flattened.sol\":23456:23457  1 */\n  0x01\n    /* \"shoaib_flattened.sol\":23446:23453  _taxFee */\n  0x11\n    /* \"shoaib_flattened.sol\":23446:23457  _taxFee = 1 */\n  dup2\n  swap1\n  sstore\n    /* \"shoaib_flattened.sol\":23468:23483  _previousTaxFee */\n  0x12\n    /* \"shoaib_flattened.sol\":23468:23493  _previousTaxFee = _taxFee */\n  sstore\n    /* \"shoaib_flattened.sol\":23538:23544  _owner */\n  sload(0x0b)\n    /* \"shoaib_flattened.sol\":23504:23535  _marketingAndDevelopmentAccount */\n  0x13\n    /* \"shoaib_flattened.sol\":23504:23544  _marketingAndDevelopmentAccount = _owner */\n  dup1\n  sload\n  not(sub(shl(0xa0, 0x01), 0x01))\n  and\n  sub(shl(0xa0, 0x01), 0x01)\n    /* \"shoaib_flattened.sol\":23538:23544  _owner */\n  0x0100\n  dup5\n  div\n  and\n    /* \"shoaib_flattened.sol\":23504:23544  _marketingAndDevelopmentAccount = _owner */\n  or\n  swap1\n  sstore\n    /* \"shoaib_flattened.sol\":23584:23606  10**uint256(_decimals) */\n  tag_17\n  swap1\n    /* \"shoaib_flattened.sol\":23596:23605  _decimals */\n  0xff\n  and\n    /* \"shoaib_flattened.sol\":23584:23586  10 */\n  0x0a\n    /* \"shoaib_flattened.sol\":23584:23606  10**uint256(_decimals) */\n  tag_10\n  jump\t// in\ntag_17:\n    /* \"shoaib_flattened.sol\":23573:23606  10000000 * 10**uint256(_decimals) */\n  tag_18\n  swap1\n    /* \"shoaib_flattened.sol\":23573:23581  10000000 */\n  0x989680\n    /* \"shoaib_flattened.sol\":23573:23606  10000000 * 10**uint256(_decimals) */\n  tag_12\n  jump\t// in\ntag_18:\n    /* \"shoaib_flattened.sol\":23555:23570  maxWalletAmount */\n  0x15\n    /* \"shoaib_flattened.sol\":23555:23606  maxWalletAmount = 10000000 * 10**uint256(_decimals) */\n  sstore\n    /* \"shoaib_flattened.sol\":23711:23715  true */\n  0x01\n    /* \"shoaib_flattened.sol\":23681:23699  _isExcludedFromFee */\n  0x07\n    /* \"shoaib_flattened.sol\":23681:23708  _isExcludedFromFee[owner()] */\n  0x00\n    /* \"shoaib_flattened.sol\":23700:23707  owner() */\n  tag_19\n    /* \"shoaib_flattened.sol\":24132:24138  _owner */\n  sload(0x0b)\n  0x0100\n  swap1\n  div\n  sub(shl(0xa0, 0x01), 0x01)\n  and\n  swap1\n    /* \"shoaib_flattened.sol\":24060:24145  function owner() public view virtual returns (address) {... */\n  jump\n    /* \"shoaib_flattened.sol\":23700:23707  owner() */\ntag_19:\n  sub(shl(0xa0, 0x01), 0x01)\n    /* \"shoaib_flattened.sol\":23681:23708  _isExcludedFromFee[owner()] */\n  swap1\n  dup2\n  and\n  dup3\n  mstore\n  0x20\n  dup1\n  dup4\n  add\n  swap4\n  swap1\n  swap4\n  mstore\n  0x40\n  swap2\n  dup3\n  add\n  0x00\n  swap1\n  dup2\n  keccak256\n    /* \"shoaib_flattened.sol\":23681:23715  _isExcludedFromFee[owner()] = true */\n  dup1\n  sload\n  swap6\n  iszero\n  iszero\n  not(0xff)\n  swap7\n  dup8\n  and\n  or\n  swap1\n  sstore\n    /* \"shoaib_flattened.sol\":23745:23776  _marketingAndDevelopmentAccount */\n  sload(0x13)\n  swap1\n  swap2\n  and\n    /* \"shoaib_flattened.sol\":23726:23777  _isExcludedFromFee[_marketingAndDevelopmentAccount] */\n  dup2\n  mstore\n    /* \"shoaib_flattened.sol\":23726:23744  _isExcludedFromFee */\n  0x07\n    /* \"shoaib_flattened.sol\":23726:23777  _isExcludedFromFee[_marketingAndDevelopmentAccount] */\n  swap1\n  swap3\n  mstore\n  dup1\n  dup3\n  keccak256\n    /* \"shoaib_flattened.sol\":23726:23784  _isExcludedFromFee[_marketingAndDevelopmentAccount] = true */\n  dup1\n  sload\n  dup5\n  and\n    /* \"shoaib_flattened.sol\":23681:23715  _isExcludedFromFee[owner()] = true */\n  0x01\n    /* \"shoaib_flattened.sol\":23726:23784  _isExcludedFromFee[_marketingAndDevelopmentAccount] = true */\n  swap1\n  dup2\n  or\n  swap1\n  swap2\n  sstore\n    /* \"shoaib_flattened.sol\":23822:23826  this */\n  address\n    /* \"shoaib_flattened.sol\":23795:23828  _isExcludedFromFee[address(this)] */\n  dup4\n  mstore\n  swap1\n  dup3\n  keccak256\n    /* \"shoaib_flattened.sol\":23795:23835  _isExcludedFromFee[address(this)] = true */\n  dup1\n  sload\n  swap1\n  swap4\n  and\n  dup2\n  or\n  swap1\n  swap3\n  sstore\n    /* \"shoaib_flattened.sol\":23846:23859  isWhitelisted */\n  0x08\n  swap1\n    /* \"shoaib_flattened.sol\":23860:23867  owner() */\n  tag_21\n    /* \"shoaib_flattened.sol\":24132:24138  _owner */\n  sload(0x0b)\n  0x0100\n  swap1\n  div\n  sub(shl(0xa0, 0x01), 0x01)\n  and\n  swap1\n    /* \"shoaib_flattened.sol\":24060:24145  function owner() public view virtual returns (address) {... */\n  jump\n    /* \"shoaib_flattened.sol\":23860:23867  owner() */\ntag_21:\n  sub(shl(0xa0, 0x01), 0x01)\n    /* \"shoaib_flattened.sol\":23846:23868  isWhitelisted[owner()] */\n  swap1\n  dup2\n  and\n  dup3\n  mstore\n  0x20\n  dup1\n  dup4\n  add\n  swap4\n  swap1\n  swap4\n  mstore\n  0x40\n  swap2\n  dup3\n  add\n  0x00\n  swap1\n  dup2\n  keccak256\n    /* \"shoaib_flattened.sol\":23846:23875  isWhitelisted[owner()] = true */\n  dup1\n  sload\n  swap6\n  iszero\n  iszero\n  not(0xff)\n  swap7\n  dup8\n  and\n  or\n  swap1\n  sstore\n    /* \"shoaib_flattened.sol\":23900:23931  _marketingAndDevelopmentAccount */\n  sload(0x13)\n  dup3\n  and\n    /* \"shoaib_flattened.sol\":23886:23932  isWhitelisted[_marketingAndDevelopmentAccount] */\n  dup2\n  mstore\n    /* \"shoaib_flattened.sol\":23886:23899  isWhitelisted */\n  0x08\n    /* \"shoaib_flattened.sol\":23886:23932  isWhitelisted[_marketingAndDevelopmentAccount] */\n  dup5\n  mstore\n  dup3\n  dup2\n  keccak256\n    /* \"shoaib_flattened.sol\":23886:23939  isWhitelisted[_marketingAndDevelopmentAccount] = true */\n  dup1\n  sload\n  swap1\n  swap6\n  and\n    /* \"shoaib_flattened.sol\":23846:23875  isWhitelisted[owner()] = true */\n  0x01\n    /* \"shoaib_flattened.sol\":23886:23939  isWhitelisted[_marketingAndDevelopmentAccount] = true */\n  or\n  swap1\n  swap5\n  sstore\n    /* \"shoaib_flattened.sol\":23968:23975  _rTotal */\n  sload(0x0d)\n    /* \"shoaib_flattened.sol\":23958:23964  _owner */\n  sload(0x0b)\n    /* \"shoaib_flattened.sol\":23846:23875  isWhitelisted[owner()] = true */\n  0x0100\n    /* \"shoaib_flattened.sol\":23958:23964  _owner */\n  swap1\n  div\n  swap1\n  swap2\n  and\n    /* \"shoaib_flattened.sol\":23950:23965  _rOwned[_owner] */\n  dup5\n  mstore\n    /* \"shoaib_flattened.sol\":23950:23957  _rOwned */\n  0x05\n    /* \"shoaib_flattened.sol\":23950:23965  _rOwned[_owner] */\n  swap1\n  swap3\n  mstore\n  swap1\n  swap2\n  keccak256\n    /* \"shoaib_flattened.sol\":23950:23975  _rOwned[_owner] = _rTotal */\n  dup2\n  swap1\n  sstore\n    /* \"shoaib_flattened.sol\":23986:24012  _mint(msg.sender, _rTotal) */\n  tag_22\n  swap1\n    /* \"shoaib_flattened.sol\":23992:24002  msg.sender */\n  caller\n  swap1\n    /* \"shoaib_flattened.sol\":23986:23991  _mint */\n  tag_23\n    /* \"shoaib_flattened.sol\":23986:24012  _mint(msg.sender, _rTotal) */\n  jump\t// in\ntag_22:\n    /* \"shoaib_flattened.sol\":22302:36124  contract CYBCC is ERC20 {... */\n  jump(tag_52)\n    /* \"shoaib_flattened.sol\":18642:18850  function _mint(address account, uint256 value) internal {... */\ntag_23:\n  sub(shl(0xa0, 0x01), 0x01)\n    /* \"shoaib_flattened.sol\":18712:18733  account == address(0) */\n  dup3\n  and\n    /* \"shoaib_flattened.sol\":18708:18799  if (account == address(0)) {... */\n  tag_27\n  jumpi\n    /* \"shoaib_flattened.sol\":18756:18788  ERC20InvalidReceiver(address(0)) */\n  mload(0x40)\n  shl(0xe0, 0xec442f05)\n  dup2\n  mstore\n    /* \"shoaib_flattened.sol\":18785:18786  0 */\n  0x00\n    /* \"shoaib_flattened.sol\":18756:18788  ERC20InvalidReceiver(address(0)) */\n  0x04\n  dup3\n  add\n    /* \"#utility.yul\":4876:4927   */\n  mstore\n    /* \"#utility.yul\":4849:4867   */\n  0x24\n  add\n    /* \"shoaib_flattened.sol\":18756:18788  ERC20InvalidReceiver(address(0)) */\ntag_28:\n  mload(0x40)\n  dup1\n  swap2\n  sub\n  swap1\n  revert\n    /* \"shoaib_flattened.sol\":18708:18799  if (account == address(0)) {... */\ntag_27:\n    /* \"shoaib_flattened.sol\":18808:18843  _update(address(0), account, value) */\n  tag_30\n    /* \"shoaib_flattened.sol\":18824:18825  0 */\n  0x00\n    /* \"shoaib_flattened.sol\":18828:18835  account */\n  dup4\n    /* \"shoaib_flattened.sol\":18837:18842  value */\n  dup4\n    /* \"shoaib_flattened.sol\":18808:18815  _update */\n  tag_31\n    /* \"shoaib_flattened.sol\":18808:18843  _update(address(0), account, value) */\n  jump\t// in\ntag_30:\n    /* \"shoaib_flattened.sol\":18642:18850  function _mint(address account, uint256 value) internal {... */\n  pop\n  pop\n  jump\t// out\n    /* \"shoaib_flattened.sol\":17162:18299  function _update(... */\ntag_31:\n  sub(shl(0xa0, 0x01), 0x01)\n    /* \"shoaib_flattened.sol\":17281:17299  from == address(0) */\n  dup4\n  and\n    /* \"shoaib_flattened.sol\":17277:17817  if (from == address(0)) {... */\n  tag_33\n  jumpi\n    /* \"shoaib_flattened.sol\":17433:17438  value */\n  dup1\n    /* \"shoaib_flattened.sol\":17417:17429  _totalSupply */\n  0x02\n  0x00\n    /* \"shoaib_flattened.sol\":17417:17438  _totalSupply += value */\n  dup3\n  dup3\n  sload\n  tag_34\n  swap2\n  swap1\n  tag_35\n  jump\t// in\ntag_34:\n  swap1\n  swap2\n  sstore\n  pop\n    /* \"shoaib_flattened.sol\":17277:17817  if (from == address(0)) {... */\n  tag_36\n  swap1\n  pop\n  jump\ntag_33:\n  sub(shl(0xa0, 0x01), 0x01)\n    /* \"shoaib_flattened.sol\":17491:17506  _balances[from] */\n  dup4\n  and\n    /* \"shoaib_flattened.sol\":17469:17488  uint256 fromBalance */\n  0x00\n    /* \"shoaib_flattened.sol\":17491:17506  _balances[from] */\n  swap1\n  dup2\n  mstore\n  0x20\n  dup2\n  swap1\n  mstore\n  0x40\n  swap1\n  keccak256\n  sload\n    /* \"shoaib_flattened.sol\":17524:17543  fromBalance < value */\n  dup2\n  dup2\n  lt\n    /* \"shoaib_flattened.sol\":17520:17635  if (fromBalance < value) {... */\n  iszero\n  tag_37\n  jumpi\n    /* \"shoaib_flattened.sol\":17570:17620  ERC20InsufficientBalance(from, fromBalance, value) */\n  mload(0x40)\n  shl(0xe2, 0x391434e3)\n  dup2\n  mstore\n  sub(shl(0xa0, 0x01), 0x01)\n    /* \"#utility.yul\":5288:5320   */\n  dup6\n  and\n    /* \"shoaib_flattened.sol\":17570:17620  ERC20InsufficientBalance(from, fromBalance, value) */\n  0x04\n  dup3\n  add\n    /* \"#utility.yul\":5270:5321   */\n  mstore\n    /* \"#utility.yul\":5337:5355   */\n  0x24\n  dup2\n  add\n    /* \"#utility.yul\":5330:5364   */\n  dup3\n  swap1\n  mstore\n    /* \"#utility.yul\":5380:5398   */\n  0x44\n  dup2\n  add\n    /* \"#utility.yul\":5373:5407   */\n  dup4\n  swap1\n  mstore\n    /* \"#utility.yul\":5243:5261   */\n  0x64\n  add\n    /* \"shoaib_flattened.sol\":17570:17620  ERC20InsufficientBalance(from, fromBalance, value) */\n  tag_28\n    /* \"#utility.yul\":5068:5413   */\n  jump\n    /* \"shoaib_flattened.sol\":17520:17635  if (fromBalance < value) {... */\ntag_37:\n  sub(shl(0xa0, 0x01), 0x01)\n    /* \"shoaib_flattened.sol\":17755:17770  _balances[from] */\n  dup5\n  and\n    /* \"shoaib_flattened.sol\":17755:17764  _balances */\n  0x00\n    /* \"shoaib_flattened.sol\":17755:17770  _balances[from] */\n  swap1\n  dup2\n  mstore\n  0x20\n  dup2\n  swap1\n  mstore\n  0x40\n  swap1\n  keccak256\n    /* \"shoaib_flattened.sol\":17773:17792  fromBalance - value */\n  swap1\n  dup3\n  swap1\n  sub\n    /* \"shoaib_flattened.sol\":17755:17792  _balances[from] = fromBalance - value */\n  swap1\n  sstore\n    /* \"shoaib_flattened.sol\":17277:17817  if (from == address(0)) {... */\ntag_36:\n  sub(shl(0xa0, 0x01), 0x01)\n    /* \"shoaib_flattened.sol\":17831:17847  to == address(0) */\n  dup3\n  and\n    /* \"shoaib_flattened.sol\":17827:18252  if (to == address(0)) {... */\n  tag_40\n  jumpi\n    /* \"shoaib_flattened.sol\":17994:18006  _totalSupply */\n  0x02\n    /* \"shoaib_flattened.sol\":17994:18015  _totalSupply -= value */\n  dup1\n  sload\n  dup3\n  swap1\n  sub\n  swap1\n  sstore\n    /* \"shoaib_flattened.sol\":17827:18252  if (to == address(0)) {... */\n  jump(tag_41)\ntag_40:\n  sub(shl(0xa0, 0x01), 0x01)\n    /* \"shoaib_flattened.sol\":18205:18218  _balances[to] */\n  dup3\n  and\n    /* \"shoaib_flattened.sol\":18205:18214  _balances */\n  0x00\n    /* \"shoaib_flattened.sol\":18205:18218  _balances[to] */\n  swap1\n  dup2\n  mstore\n  0x20\n  dup2\n  swap1\n  mstore\n  0x40\n  swap1\n  keccak256\n    /* \"shoaib_flattened.sol\":18205:18227  _balances[to] += value */\n  dup1\n  sload\n  dup3\n  add\n  swap1\n  sstore\n    /* \"shoaib_flattened.sol\":17827:18252  if (to == address(0)) {... */\ntag_41:\n    /* \"shoaib_flattened.sol\":18282:18284  to */\n  dup2\n  sub(shl(0xa0, 0x01), 0x01)\n    /* \"shoaib_flattened.sol\":18267:18292  Transfer(from, to, value) */\n  and\n    /* \"shoaib_flattened.sol\":18276:18280  from */\n  dup4\n  sub(shl(0xa0, 0x01), 0x01)\n    /* \"shoaib_flattened.sol\":18267:18292  Transfer(from, to, value) */\n  and\n  0xddf252ad1be2c89b69c2b068fc378daa952ba7f163c4a11628f55a4df523b3ef\n    /* \"shoaib_flattened.sol\":18286:18291  value */\n  dup4\n    /* \"shoaib_flattened.sol\":18267:18292  Transfer(from, to, value) */\n  mload(0x40)\n  tag_42\n  swap2\n    /* \"#utility.yul\":5564:5589   */\n  dup2\n  mstore\n    /* \"#utility.yul\":5552:5554   */\n  0x20\n    /* \"#utility.yul\":5537:5555   */\n  add\n  swap1\n    /* \"#utility.yul\":5418:5595   */\n  jump\n    /* \"shoaib_flattened.sol\":18267:18292  Transfer(from, to, value) */\ntag_42:\n  mload(0x40)\n  dup1\n  swap2\n  sub\n  swap1\n  log3\n    /* \"shoaib_flattened.sol\":17162:18299  function _update(... */\n  pop\n  pop\n  pop\n  jump\t// out\n    /* \"#utility.yul\":14:141   */\ntag_44:\n    /* \"#utility.yul\":75:85   */\n  0x4e487b71\n    /* \"#utility.yul\":70:73   */\n  0xe0\n    /* \"#utility.yul\":66:86   */\n  shl\n    /* \"#utility.yul\":63:64   */\n  0x00\n    /* \"#utility.yul\":56:87   */\n  mstore\n    /* \"#utility.yul\":106:110   */\n  0x41\n    /* \"#utility.yul\":103:104   */\n  0x04\n    /* \"#utility.yul\":96:111   */\n  mstore\n    /* \"#utility.yul\":130:134   */\n  0x24\n    /* \"#utility.yul\":127:128   */\n  0x00\n    /* \"#utility.yul\":120:135   */\n  revert\n    /* \"#utility.yul\":146:526   */\ntag_45:\n    /* \"#utility.yul\":225:226   */\n  0x01\n    /* \"#utility.yul\":221:233   */\n  dup2\n  dup2\n  shr\n  swap1\n    /* \"#utility.yul\":268:280   */\n  dup3\n  and\n  dup1\n    /* \"#utility.yul\":289:350   */\n  tag_55\n  jumpi\n    /* \"#utility.yul\":343:347   */\n  0x7f\n    /* \"#utility.yul\":335:341   */\n  dup3\n    /* \"#utility.yul\":331:348   */\n  and\n    /* \"#utility.yul\":321:348   */\n  swap2\n  pop\n    /* \"#utility.yul\":289:350   */\ntag_55:\n    /* \"#utility.yul\":396:398   */\n  0x20\n    /* \"#utility.yul\":388:394   */\n  dup3\n    /* \"#utility.yul\":385:399   */\n  lt\n    /* \"#utility.yul\":365:383   */\n  dup2\n    /* \"#utility.yul\":362:400   */\n  sub\n    /* \"#utility.yul\":359:520   */\n  tag_56\n  jumpi\n    /* \"#utility.yul\":442:452   */\n  0x4e487b71\n    /* \"#utility.yul\":437:440   */\n  0xe0\n    /* \"#utility.yul\":433:453   */\n  shl\n    /* \"#utility.yul\":430:431   */\n  0x00\n    /* \"#utility.yul\":423:454   */\n  mstore\n    /* \"#utility.yul\":477:481   */\n  0x22\n    /* \"#utility.yul\":474:475   */\n  0x04\n    /* \"#utility.yul\":467:482   */\n  mstore\n    /* \"#utility.yul\":505:509   */\n  0x24\n    /* \"#utility.yul\":502:503   */\n  0x00\n    /* \"#utility.yul\":495:510   */\n  revert\n    /* \"#utility.yul\":359:520   */\ntag_56:\n  pop\n    /* \"#utility.yul\":146:526   */\n  swap2\n  swap1\n  pop\n  jump\t// out\n    /* \"#utility.yul\":657:1175   */\ntag_47:\n    /* \"#utility.yul\":759:761   */\n  0x1f\n    /* \"#utility.yul\":754:757   */\n  dup3\n    /* \"#utility.yul\":751:762   */\n  gt\n    /* \"#utility.yul\":748:1169   */\n  iszero\n  tag_59\n  jumpi\n    /* \"#utility.yul\":795:800   */\n  dup1\n    /* \"#utility.yul\":792:793   */\n  0x00\n    /* \"#utility.yul\":785:801   */\n  mstore\n    /* \"#utility.yul\":839:843   */\n  0x20\n    /* \"#utility.yul\":836:837   */\n  0x00\n    /* \"#utility.yul\":826:844   */\n  keccak256\n    /* \"#utility.yul\":909:911   */\n  0x1f\n    /* \"#utility.yul\":897:907   */\n  dup5\n    /* \"#utility.yul\":893:912   */\n  add\n    /* \"#utility.yul\":890:891   */\n  0x05\n    /* \"#utility.yul\":886:913   */\n  shr\n    /* \"#utility.yul\":880:884   */\n  dup2\n    /* \"#utility.yul\":876:914   */\n  add\n    /* \"#utility.yul\":945:949   */\n  0x20\n    /* \"#utility.yul\":933:943   */\n  dup6\n    /* \"#utility.yul\":930:950   */\n  lt\n    /* \"#utility.yul\":927:974   */\n  iszero\n  tag_60\n  jumpi\n  pop\n    /* \"#utility.yul\":968:972   */\n  dup1\n    /* \"#utility.yul\":927:974   */\ntag_60:\n    /* \"#utility.yul\":1023:1025   */\n  0x1f\n    /* \"#utility.yul\":1018:1021   */\n  dup5\n    /* \"#utility.yul\":1014:1026   */\n  add\n    /* \"#utility.yul\":1011:1012   */\n  0x05\n    /* \"#utility.yul\":1007:1027   */\n  shr\n    /* \"#utility.yul\":1001:1005   */\n  dup3\n    /* \"#utility.yul\":997:1028   */\n  add\n    /* \"#utility.yul\":987:1028   */\n  swap2\n  pop\n    /* \"#utility.yul\":1078:1159   */\ntag_61:\n    /* \"#utility.yul\":1096:1098   */\n  dup2\n    /* \"#utility.yul\":1089:1094   */\n  dup2\n    /* \"#utility.yul\":1086:1099   */\n  lt\n    /* \"#utility.yul\":1078:1159   */\n  iszero\n  tag_63\n  jumpi\n    /* \"#utility.yul\":1155:1156   */\n  0x00\n    /* \"#utility.yul\":1141:1157   */\n  dup2\n  sstore\n    /* \"#utility.yul\":1122:1123   */\n  0x01\n    /* \"#utility.yul\":1111:1124   */\n  add\n    /* \"#utility.yul\":1078:1159   */\n  jump(tag_61)\ntag_63:\n    /* \"#utility.yul\":1082:1085   */\n  pop\n  pop\n    /* \"#utility.yul\":748:1169   */\ntag_59:\n    /* \"#utility.yul\":657:1175   */\n  pop\n  pop\n  pop\n  jump\t// out\n    /* \"#utility.yul\":1351:2650   */\ntag_6:\n    /* \"#utility.yul\":1471:1481   */\n  dup2\n  mload\n  sub(shl(0x40, 0x01), 0x01)\n    /* \"#utility.yul\":1493:1523   */\n  dup2\n  gt\n    /* \"#utility.yul\":1490:1546   */\n  iszero\n  tag_67\n  jumpi\n    /* \"#utility.yul\":1526:1544   */\n  tag_67\n  tag_44\n  jump\t// in\ntag_67:\n    /* \"#utility.yul\":1555:1652   */\n  tag_68\n    /* \"#utility.yul\":1645:1651   */\n  dup2\n    /* \"#utility.yul\":1605:1643   */\n  tag_69\n    /* \"#utility.yul\":1637:1641   */\n  dup5\n    /* \"#utility.yul\":1631:1642   */\n  sload\n    /* \"#utility.yul\":1605:1643   */\n  tag_45\n  jump\t// in\ntag_69:\n    /* \"#utility.yul\":1599:1603   */\n  dup5\n    /* \"#utility.yul\":1555:1652   */\n  tag_47\n  jump\t// in\ntag_68:\n    /* \"#utility.yul\":1701:1705   */\n  0x20\n    /* \"#utility.yul\":1732:1734   */\n  0x1f\n    /* \"#utility.yul\":1721:1735   */\n  dup3\n  gt\n    /* \"#utility.yul\":1749:1750   */\n  0x01\n    /* \"#utility.yul\":1744:2393   */\n  dup2\n  eq\n  tag_71\n  jumpi\n    /* \"#utility.yul\":2437:2438   */\n  0x00\n    /* \"#utility.yul\":2454:2460   */\n  dup4\n    /* \"#utility.yul\":2451:2540   */\n  iszero\n  tag_72\n  jumpi\n  pop\n    /* \"#utility.yul\":2506:2525   */\n  dup5\n  dup3\n  add\n    /* \"#utility.yul\":2500:2526   */\n  mload\n    /* \"#utility.yul\":2451:2540   */\ntag_72:\n  not(0x00)\n    /* \"#utility.yul\":1308:1309   */\n  0x03\n    /* \"#utility.yul\":1304:1315   */\n  dup6\n  swap1\n  shl\n    /* \"#utility.yul\":1300:1324   */\n  shr\n    /* \"#utility.yul\":1296:1325   */\n  not\n    /* \"#utility.yul\":1286:1326   */\n  and\n    /* \"#utility.yul\":1332:1333   */\n  0x01\n    /* \"#utility.yul\":1328:1339   */\n  dup5\n  swap1\n  shl\n    /* \"#utility.yul\":1283:1340   */\n  or\n    /* \"#utility.yul\":2553:2634   */\n  dup5\n  sstore\n    /* \"#utility.yul\":1714:2644   */\n  jump(tag_63)\n    /* \"#utility.yul\":1744:2393   */\ntag_71:\n    /* \"#utility.yul\":604:605   */\n  0x00\n    /* \"#utility.yul\":597:611   */\n  dup5\n  dup2\n  mstore\n    /* \"#utility.yul\":641:645   */\n  0x20\n    /* \"#utility.yul\":628:646   */\n  dup2\n  keccak256\n  not(0x1f)\n    /* \"#utility.yul\":1780:1800   */\n  dup6\n  and\n  swap2\n    /* \"#utility.yul\":1898:2120   */\ntag_75:\n    /* \"#utility.yul\":1912:1919   */\n  dup3\n    /* \"#utility.yul\":1909:1910   */\n  dup2\n    /* \"#utility.yul\":1906:1920   */\n  lt\n    /* \"#utility.yul\":1898:2120   */\n  iszero\n  tag_77\n  jumpi\n    /* \"#utility.yul\":1994:2013   */\n  dup8\n  dup6\n  add\n    /* \"#utility.yul\":1988:2014   */\n  mload\n    /* \"#utility.yul\":1973:2015   */\n  dup3\n  sstore\n    /* \"#utility.yul\":2101:2105   */\n  0x20\n    /* \"#utility.yul\":2086:2106   */\n  swap5\n  dup6\n  add\n  swap5\n    /* \"#utility.yul\":2054:2055   */\n  0x01\n    /* \"#utility.yul\":2042:2056   */\n  swap1\n  swap3\n  add\n  swap2\n    /* \"#utility.yul\":1928:1940   */\n  add\n    /* \"#utility.yul\":1898:2120   */\n  jump(tag_75)\ntag_77:\n    /* \"#utility.yul\":1902:1905   */\n  pop\n    /* \"#utility.yul\":2148:2154   */\n  dup5\n    /* \"#utility.yul\":2139:2146   */\n  dup3\n    /* \"#utility.yul\":2136:2155   */\n  lt\n    /* \"#utility.yul\":2133:2334   */\n  iszero\n  tag_78\n  jumpi\n    /* \"#utility.yul\":2209:2228   */\n  dup7\n  dup5\n  add\n    /* \"#utility.yul\":2203:2229   */\n  mload\n  not(0x00)\n    /* \"#utility.yul\":2292:2293   */\n  0x03\n    /* \"#utility.yul\":2288:2302   */\n  dup8\n  swap1\n  shl\n    /* \"#utility.yul\":2304:2307   */\n  0xf8\n    /* \"#utility.yul\":2284:2308   */\n  and\n    /* \"#utility.yul\":2280:2317   */\n  shr\n    /* \"#utility.yul\":2276:2318   */\n  not\n    /* \"#utility.yul\":2261:2319   */\n  and\n    /* \"#utility.yul\":2246:2320   */\n  dup2\n  sstore\n    /* \"#utility.yul\":2133:2334   */\ntag_78:\n  pop\n  pop\n  pop\n  pop\n    /* \"#utility.yul\":2380:2381   */\n  0x01\n    /* \"#utility.yul\":2364:2378   */\n  swap1\n  dup2\n  shl\n    /* \"#utility.yul\":2360:2382   */\n  add\n    /* \"#utility.yul\":2347:2383   */\n  swap1\n  sstore\n  pop\n    /* \"#utility.yul\":1351:2650   */\n  jump\t// out\n    /* \"#utility.yul\":2655:2782   */\ntag_49:\n    /* \"#utility.yul\":2716:2726   */\n  0x4e487b71\n    /* \"#utility.yul\":2711:2714   */\n  0xe0\n    /* \"#utility.yul\":2707:2727   */\n  shl\n    /* \"#utility.yul\":2704:2705   */\n  0x00\n    /* \"#utility.yul\":2697:2728   */\n  mstore\n    /* \"#utility.yul\":2747:2751   */\n  0x11\n    /* \"#utility.yul\":2744:2745   */\n  0x04\n    /* \"#utility.yul\":2737:2752   */\n  mstore\n    /* \"#utility.yul\":2771:2775   */\n  0x24\n    /* \"#utility.yul\":2768:2769   */\n  0x00\n    /* \"#utility.yul\":2761:2776   */\n  revert\n    /* \"#utility.yul\":2787:3162   */\ntag_50:\n    /* \"#utility.yul\":2875:2876   */\n  0x01\n    /* \"#utility.yul\":2893:2898   */\n  dup2\n    /* \"#utility.yul\":2907:3156   */\ntag_81:\n    /* \"#utility.yul\":2928:2929   */\n  0x01\n    /* \"#utility.yul\":2918:2926   */\n  dup5\n    /* \"#utility.yul\":2915:2930   */\n  gt\n    /* \"#utility.yul\":2907:3156   */\n  iszero\n  tag_83\n  jumpi\n    /* \"#utility.yul\":2978:2982   */\n  dup1\n    /* \"#utility.yul\":2973:2976   */\n  dup6\n    /* \"#utility.yul\":2969:2983   */\n  div\n    /* \"#utility.yul\":2963:2967   */\n  dup2\n    /* \"#utility.yul\":2960:2984   */\n  gt\n    /* \"#utility.yul\":2957:3007   */\n  iszero\n  tag_85\n  jumpi\n    /* \"#utility.yul\":2987:3005   */\n  tag_85\n  tag_49\n  jump\t// in\ntag_85:\n    /* \"#utility.yul\":3037:3038   */\n  0x01\n    /* \"#utility.yul\":3027:3035   */\n  dup5\n    /* \"#utility.yul\":3023:3039   */\n  and\n    /* \"#utility.yul\":3020:3069   */\n  iszero\n  tag_86\n  jumpi\n    /* \"#utility.yul\":3051:3067   */\n  swap1\n  dup2\n  mul\n  swap1\n    /* \"#utility.yul\":3020:3069   */\ntag_86:\n    /* \"#utility.yul\":3134:3135   */\n  0x01\n    /* \"#utility.yul\":3130:3146   */\n  swap4\n  swap1\n  swap4\n  shr\n  swap3\n    /* \"#utility.yul\":3090:3105   */\n  dup1\n  mul\n    /* \"#utility.yul\":2907:3156   */\n  jump(tag_81)\ntag_83:\n    /* \"#utility.yul\":2787:3162   */\n  swap4\n  pop\n  swap4\n  swap2\n  pop\n  pop\n  jump\t// out\n    /* \"#utility.yul\":3167:4069   */\ntag_51:\n    /* \"#utility.yul\":3216:3221   */\n  0x00\n    /* \"#utility.yul\":3246:3254   */\n  dup3\n    /* \"#utility.yul\":3236:3316   */\n  tag_88\n  jumpi\n  pop\n    /* \"#utility.yul\":3287:3288   */\n  0x01\n    /* \"#utility.yul\":3301:3306   */\n  jump(tag_87)\n    /* \"#utility.yul\":3236:3316   */\ntag_88:\n    /* \"#utility.yul\":3335:3339   */\n  dup2\n    /* \"#utility.yul\":3325:3401   */\n  tag_89\n  jumpi\n  pop\n    /* \"#utility.yul\":3372:3373   */\n  0x00\n    /* \"#utility.yul\":3386:3391   */\n  jump(tag_87)\n    /* \"#utility.yul\":3325:3401   */\ntag_89:\n    /* \"#utility.yul\":3417:3421   */\n  dup2\n    /* \"#utility.yul\":3435:3436   */\n  0x01\n    /* \"#utility.yul\":3430:3489   */\n  dup2\n  eq\n  tag_91\n  jumpi\n    /* \"#utility.yul\":3503:3504   */\n  0x02\n    /* \"#utility.yul\":3498:3672   */\n  dup2\n  eq\n  tag_92\n  jumpi\n    /* \"#utility.yul\":3410:3672   */\n  jump(tag_90)\n    /* \"#utility.yul\":3430:3489   */\ntag_91:\n    /* \"#utility.yul\":3460:3461   */\n  0x01\n    /* \"#utility.yul\":3451:3461   */\n  swap2\n  pop\n    /* \"#utility.yul\":3474:3479   */\n  pop\n  jump(tag_87)\n    /* \"#utility.yul\":3498:3672   */\ntag_92:\n    /* \"#utility.yul\":3535:3538   */\n  0xff\n    /* \"#utility.yul\":3525:3533   */\n  dup5\n    /* \"#utility.yul\":3522:3539   */\n  gt\n    /* \"#utility.yul\":3519:3562   */\n  iszero\n  tag_94\n  jumpi\n    /* \"#utility.yul\":3542:3560   */\n  tag_94\n  tag_49\n  jump\t// in\ntag_94:\n  pop\n  pop\n    /* \"#utility.yul\":3598:3599   */\n  0x01\n    /* \"#utility.yul\":3584:3600   */\n  dup3\n  shl\n    /* \"#utility.yul\":3657:3662   */\n  jump(tag_87)\n    /* \"#utility.yul\":3410:3672   */\ntag_90:\n  pop\n    /* \"#utility.yul\":3756:3758   */\n  0x20\n    /* \"#utility.yul\":3746:3754   */\n  dup4\n    /* \"#utility.yul\":3743:3759   */\n  lt\n    /* \"#utility.yul\":3737:3740   */\n  0x0133\n    /* \"#utility.yul\":3731:3735   */\n  dup4\n    /* \"#utility.yul\":3728:3741   */\n  lt\n    /* \"#utility.yul\":3724:3760   */\n  and\n    /* \"#utility.yul\":3718:3720   */\n  0x4e\n    /* \"#utility.yul\":3708:3716   */\n  dup5\n    /* \"#utility.yul\":3705:3721   */\n  lt\n    /* \"#utility.yul\":3700:3702   */\n  0x0b\n    /* \"#utility.yul\":3694:3698   */\n  dup5\n    /* \"#utility.yul\":3691:3703   */\n  lt\n    /* \"#utility.yul\":3687:3722   */\n  and\n    /* \"#utility.yul\":3684:3761   */\n  or\n    /* \"#utility.yul\":3681:3884   */\n  iszero\n  tag_95\n  jumpi\n  pop\n    /* \"#utility.yul\":3793:3812   */\n  dup2\n  dup2\n  exp\n    /* \"#utility.yul\":3869:3874   */\n  jump(tag_87)\n    /* \"#utility.yul\":3681:3884   */\ntag_95:\n    /* \"#utility.yul\":3916:3958   */\n  tag_96\n  not(0x00)\n    /* \"#utility.yul\":3941:3949   */\n  dup5\n    /* \"#utility.yul\":3935:3939   */\n  dup5\n    /* \"#utility.yul\":3916:3958   */\n  tag_50\n  jump\t// in\ntag_96:\n    /* \"#utility.yul\":3994:4000   */\n  dup1\n    /* \"#utility.yul\":3990:3991   */\n  0x00\n    /* \"#utility.yul\":3986:3992   */\n  not\n    /* \"#utility.yul\":3982:4001   */\n  div\n    /* \"#utility.yul\":3973:3980   */\n  dup3\n    /* \"#utility.yul\":3970:4002   */\n  gt\n    /* \"#utility.yul\":3967:4025   */\n  iszero\n  tag_98\n  jumpi\n    /* \"#utility.yul\":4005:4023   */\n  tag_98\n  tag_49\n  jump\t// in\ntag_98:\n    /* \"#utility.yul\":4043:4063   */\n  mul\n  swap1\n  pop\n    /* \"#utility.yul\":3167:4069   */\ntag_87:\n  swap3\n  swap2\n  pop\n  pop\n  jump\t// out\n    /* \"#utility.yul\":4074:4205   */\ntag_10:\n    /* \"#utility.yul\":4134:4139   */\n  0x00\n    /* \"#utility.yul\":4163:4199   */\n  tag_100\n    /* \"#utility.yul\":4190:4198   */\n  dup4\n    /* \"#utility.yul\":4184:4188   */\n  dup4\n    /* \"#utility.yul\":4163:4199   */\n  tag_51\n  jump\t// in\ntag_100:\n    /* \"#utility.yul\":4154:4199   */\n  swap4\n    /* \"#utility.yul\":4074:4205   */\n  swap3\n  pop\n  pop\n  pop\n  jump\t// out\n    /* \"#utility.yul\":4210:4378   */\ntag_12:\n    /* \"#utility.yul\":4283:4292   */\n  dup1\n  dup3\n  mul\n    /* \"#utility.yul\":4314:4323   */\n  dup2\n  iszero\n    /* \"#utility.yul\":4331:4346   */\n  dup3\n  dup3\n  div\n    /* \"#utility.yul\":4325:4347   */\n  dup5\n  eq\n    /* \"#utility.yul\":4311:4348   */\n  or\n    /* \"#utility.yul\":4301:4372   */\n  tag_87\n  jumpi\n    /* \"#utility.yul\":4352:4370   */\n  tag_87\n  tag_49\n  jump\t// in\n    /* \"#utility.yul\":4383:4592   */\ntag_14:\n    /* \"#utility.yul\":4415:4416   */\n  0x00\n    /* \"#utility.yul\":4441:4442   */\n  dup3\n    /* \"#utility.yul\":4431:4563   */\n  tag_105\n  jumpi\n    /* \"#utility.yul\":4485:4495   */\n  0x4e487b71\n    /* \"#utility.yul\":4480:4483   */\n  0xe0\n    /* \"#utility.yul\":4476:4496   */\n  shl\n    /* \"#utility.yul\":4473:4474   */\n  0x00\n    /* \"#utility.yul\":4466:4497   */\n  mstore\n    /* \"#utility.yul\":4520:4524   */\n  0x12\n    /* \"#utility.yul\":4517:4518   */\n  0x04\n    /* \"#utility.yul\":4510:4525   */\n  mstore\n    /* \"#utility.yul\":4548:4552   */\n  0x24\n    /* \"#utility.yul\":4545:4546   */\n  0x00\n    /* \"#utility.yul\":4538:4553   */\n  revert\n    /* \"#utility.yul\":4431:4563   */\ntag_105:\n  pop\n    /* \"#utility.yul\":4577:4586   */\n  mod\n  swap1\n    /* \"#utility.yul\":4383:4592   */\n  jump\t// out\n    /* \"#utility.yul\":4597:4725   */\ntag_16:\n    /* \"#utility.yul\":4664:4673   */\n  dup2\n  dup2\n  sub\n    /* \"#utility.yul\":4685:4696   */\n  dup2\n  dup2\n  gt\n    /* \"#utility.yul\":4682:4719   */\n  iszero\n  tag_87\n  jumpi\n    /* \"#utility.yul\":4699:4717   */\n  tag_87\n  tag_49\n  jump\t// in\n    /* \"#utility.yul\":4938:5063   */\ntag_35:\n    /* \"#utility.yul\":5003:5012   */\n  dup1\n  dup3\n  add\n    /* \"#utility.yul\":5024:5034   */\n  dup1\n  dup3\n  gt\n    /* \"#utility.yul\":5021:5057   */\n  iszero\n  tag_87\n  jumpi\n    /* \"#utility.yul\":5037:5055   */\n  tag_87\n  tag_49\n  jump\t// in\n    /* \"#utility.yul\":5418:5595   */\ntag_52:\n    /* \"shoaib_flattened.sol\":22302:36124  contract CYBCC is ERC20 {... */\n  dataSize(sub_0)\n  dup1\n  dataOffset(sub_0)\n  0x00\n  codecopy\n  0x00\n  return\nstop\n\nsub_0: assembly {\n        /* \"shoaib_flattened.sol\":22302:36124  contract CYBCC is ERC20 {... */\n      mstore(0x40, 0x80)\n      jumpi(tag_1, lt(calldatasize, 0x04))\n      shr(0xe0, calldataload(0x00))\n      dup1\n      0x83ad7994\n      gt\n      tag_35\n      jumpi\n      dup1\n      0xc9567bf9\n      gt\n      tag_36\n      jumpi\n      dup1\n      0xf2fde38b\n      gt\n      tag_37\n      jumpi\n      dup1\n      0xf2fde38b\n      eq\n      tag_31\n      jumpi\n      dup1\n      0xf66608fe\n      eq\n      tag_32\n      jumpi\n      dup1\n      0xfdeb889f\n      eq\n      tag_33\n      jumpi\n      dup1\n      0xffb54a99\n      eq\n      tag_34\n      jumpi\n      revert(0x00, 0x00)\n    tag_37:\n      dup1\n      0xc9567bf9\n      eq\n      tag_27\n      jumpi\n      dup1\n      0xcba0e996\n      eq\n      tag_28\n      jumpi\n      dup1\n      0xd00efb2f\n      eq\n      tag_29\n      jumpi\n      dup1\n      0xdd62ed3e\n      eq\n      tag_30\n      jumpi\n      revert(0x00, 0x00)\n    tag_36:\n      dup1\n      0xa8b08982\n      gt\n      tag_38\n      jumpi\n      dup1\n      0xa8b08982\n      eq\n      tag_23\n      jumpi\n      dup1\n      0xa9059cbb\n      eq\n      tag_24\n      jumpi\n      dup1\n      0xc30796ab\n      eq\n      tag_25\n      jumpi\n      dup1\n      0xc4863770\n      eq\n      tag_26\n      jumpi\n      revert(0x00, 0x00)\n    tag_38:\n      dup1\n      0x83ad7994\n      eq\n      tag_19\n      jumpi\n      dup1\n      0x8873b15f\n      eq\n      tag_20\n      jumpi\n      dup1\n      0x8da5cb5b\n      eq\n      tag_21\n      jumpi\n      dup1\n      0x95d89b41\n      eq\n      tag_22\n      jumpi\n      revert(0x00, 0x00)\n    tag_35:\n      dup1\n      0x437823ec\n      gt\n      tag_39\n      jumpi\n      dup1\n      0x6049876e\n      gt\n      tag_40\n      jumpi\n      dup1\n      0x6049876e\n      eq\n      tag_15\n      jumpi\n      dup1\n      0x70a08231\n      eq\n      tag_16\n      jumpi\n      dup1\n      0x715018a6\n      eq\n      tag_17\n      jumpi\n      dup1\n      0x838fcc90\n      eq\n      tag_18\n      jumpi\n      revert(0x00, 0x00)\n    tag_40:\n      dup1\n      0x437823ec\n      eq\n      tag_11\n      jumpi\n      dup1\n      0x4549b039\n      eq\n      tag_12\n      jumpi\n      dup1\n      0x5342acb4\n      eq\n      tag_13\n      jumpi\n      dup1\n      0x5fae0576\n      eq\n      tag_14\n      jumpi\n      revert(0x00, 0x00)\n    tag_39:\n      dup1\n      0x23b872dd\n      gt\n      tag_41\n      jumpi\n      dup1\n      0x23b872dd\n      eq\n      tag_7\n      jumpi\n      dup1\n      0x313ce567\n      eq\n      tag_8\n      jumpi\n      dup1\n      0x32035504\n      eq\n      tag_9\n      jumpi\n      dup1\n      0x3af32abf\n      eq\n      tag_10\n      jumpi\n      revert(0x00, 0x00)\n    tag_41:\n      dup1\n      0x053ab182\n      eq\n      tag_3\n      jumpi\n      dup1\n      0x06fdde03\n      eq\n      tag_4\n      jumpi\n      dup1\n      0x095ea7b3\n      eq\n      tag_5\n      jumpi\n      dup1\n      0x18160ddd\n      eq\n      tag_6\n      jumpi\n      revert(0x00, 0x00)\n    tag_1:\n      jumpi(tag_2, calldatasize)\n      stop\n    tag_2:\n      revert(0x00, 0x00)\n        /* \"shoaib_flattened.sol\":25902:26311  function reflect(uint256 tAmount) public {... */\n    tag_3:\n      callvalue\n      dup1\n      iszero\n      tag_44\n      jumpi\n      revert(0x00, 0x00)\n    tag_44:\n      pop\n      tag_45\n      tag_46\n      calldatasize\n      0x04\n      tag_47\n      jump\t// in\n    tag_46:\n      tag_48\n      jump\t// in\n    tag_45:\n      stop\n        /* \"shoaib_flattened.sol\":12801:12890  function name() public view virtual returns (string memory) {... */\n    tag_4:\n      callvalue\n      dup1\n      iszero\n      tag_49\n      jumpi\n      revert(0x00, 0x00)\n    tag_49:\n      pop\n      tag_50\n      tag_51\n      jump\t// in\n    tag_50:\n      mload(0x40)\n      tag_52\n      swap2\n      swap1\n      tag_53\n      jump\t// in\n    tag_52:\n      mload(0x40)\n      dup1\n      swap2\n      sub\n      swap1\n      return\n        /* \"shoaib_flattened.sol\":15056:15270  function approve(address spender, uint256 value)... */\n    tag_5:\n      callvalue\n      dup1\n      iszero\n      tag_54\n      jumpi\n      revert(0x00, 0x00)\n    tag_54:\n      pop\n      tag_55\n      tag_56\n      calldatasize\n      0x04\n      tag_57\n      jump\t// in\n    tag_56:\n      tag_58\n      jump\t// in\n    tag_55:\n      mload(0x40)\n        /* \"#utility.yul\":1316:1330   */\n      swap1\n      iszero\n        /* \"#utility.yul\":1309:1331   */\n      iszero\n        /* \"#utility.yul\":1291:1332   */\n      dup2\n      mstore\n        /* \"#utility.yul\":1279:1281   */\n      0x20\n        /* \"#utility.yul\":1264:1282   */\n      add\n        /* \"shoaib_flattened.sol\":15056:15270  function approve(address spender, uint256 value)... */\n      tag_52\n        /* \"#utility.yul\":1151:1338   */\n      jump\n        /* \"shoaib_flattened.sol\":24327:24428  function totalSupply() public view virtual override returns (uint256) {... */\n    tag_6:\n      callvalue\n      dup1\n      iszero\n      tag_61\n      jumpi\n      revert(0x00, 0x00)\n    tag_61:\n      pop\n        /* \"shoaib_flattened.sol\":24414:24421  _tTotal */\n      sload(0x0c)\n        /* \"shoaib_flattened.sol\":24327:24428  function totalSupply() public view virtual override returns (uint256) {... */\n    tag_62:\n      mload(0x40)\n        /* \"#utility.yul\":1489:1514   */\n      swap1\n      dup2\n      mstore\n        /* \"#utility.yul\":1477:1479   */\n      0x20\n        /* \"#utility.yul\":1462:1480   */\n      add\n        /* \"shoaib_flattened.sol\":24327:24428  function totalSupply() public view virtual override returns (uint256) {... */\n      tag_52\n        /* \"#utility.yul\":1343:1520   */\n      jump\n        /* \"shoaib_flattened.sol\":15862:16136  function transferFrom(... */\n    tag_7:\n      callvalue\n      dup1\n      iszero\n      tag_66\n      jumpi\n      revert(0x00, 0x00)\n    tag_66:\n      pop\n      tag_55\n      tag_68\n      calldatasize\n      0x04\n      tag_69\n      jump\t// in\n    tag_68:\n      tag_70\n      jump\t// in\n        /* \"shoaib_flattened.sol\":24223:24321  function decimals() public view virtual override returns (uint8) {... */\n    tag_8:\n      callvalue\n      dup1\n      iszero\n      tag_72\n      jumpi\n      revert(0x00, 0x00)\n    tag_72:\n      pop\n        /* \"shoaib_flattened.sol\":24305:24314  _decimals */\n      sload(0x0b)\n        /* \"shoaib_flattened.sol\":24223:24321  function decimals() public view virtual override returns (uint8) {... */\n      mload(0x40)\n        /* \"shoaib_flattened.sol\":24305:24314  _decimals */\n      0xff\n      swap1\n      swap2\n      and\n        /* \"#utility.yul\":2046:2082   */\n      dup2\n      mstore\n        /* \"#utility.yul\":2034:2036   */\n      0x20\n        /* \"#utility.yul\":2019:2037   */\n      add\n        /* \"shoaib_flattened.sol\":24223:24321  function decimals() public view virtual override returns (uint8) {... */\n      tag_52\n        /* \"#utility.yul\":1904:2088   */\n      jump\n        /* \"shoaib_flattened.sol\":25259:25357  function totalFeesRedistributed() public view returns (uint256) {... */\n    tag_9:\n      callvalue\n      dup1\n      iszero\n      tag_77\n      jumpi\n      revert(0x00, 0x00)\n    tag_77:\n      pop\n        /* \"shoaib_flattened.sol\":25340:25350  _tFeeTotal */\n      sload(0x0e)\n        /* \"shoaib_flattened.sol\":25259:25357  function totalFeesRedistributed() public view returns (uint256) {... */\n      jump(tag_62)\n        /* \"shoaib_flattened.sol\":22490:22535  mapping(address => bool) public isWhitelisted */\n    tag_10:\n      callvalue\n      dup1\n      iszero\n      tag_81\n      jumpi\n      revert(0x00, 0x00)\n    tag_81:\n      pop\n      tag_55\n      tag_83\n      calldatasize\n      0x04\n      tag_84\n      jump\t// in\n    tag_83:\n      mstore(0x20, 0x08)\n      0x00\n      swap1\n      dup2\n      mstore\n      0x40\n      swap1\n      keccak256\n      sload\n      0xff\n      and\n      dup2\n      jump\n        /* \"shoaib_flattened.sol\":25363:25472  function excludeFromFee(address account) public onlyOwner {... */\n    tag_11:\n      callvalue\n      dup1\n      iszero\n      tag_87\n      jumpi\n      revert(0x00, 0x00)\n    tag_87:\n      pop\n      tag_45\n      tag_89\n      calldatasize\n      0x04\n      tag_84\n      jump\t// in\n    tag_89:\n      tag_90\n      jump\t// in\n        /* \"shoaib_flattened.sol\":26317:26794  function reflectionFromToken(uint256 tAmount, bool deductTransferFee)... */\n    tag_12:\n      callvalue\n      dup1\n      iszero\n      tag_91\n      jumpi\n      revert(0x00, 0x00)\n    tag_91:\n      pop\n      tag_62\n      tag_93\n      calldatasize\n      0x04\n      tag_94\n      jump\t// in\n    tag_93:\n      tag_95\n      jump\t// in\n        /* \"shoaib_flattened.sol\":24743:24865  function isExcludedFromFee(address account) public view returns (bool) {... */\n    tag_13:\n      callvalue\n      dup1\n      iszero\n      tag_97\n      jumpi\n      revert(0x00, 0x00)\n    tag_97:\n      pop\n      tag_55\n      tag_99\n      calldatasize\n      0x04\n      tag_84\n      jump\t// in\n    tag_99:\n      sub(shl(0xa0, 0x01), 0x01)\n        /* \"shoaib_flattened.sol\":24831:24858  _isExcludedFromFee[account] */\n      and\n        /* \"shoaib_flattened.sol\":24808:24812  bool */\n      0x00\n        /* \"shoaib_flattened.sol\":24831:24858  _isExcludedFromFee[account] */\n      swap1\n      dup2\n      mstore\n        /* \"shoaib_flattened.sol\":24831:24849  _isExcludedFromFee */\n      0x07\n        /* \"shoaib_flattened.sol\":24831:24858  _isExcludedFromFee[account] */\n      0x20\n      mstore\n      0x40\n      swap1\n      keccak256\n      sload\n      0xff\n      and\n      swap1\n        /* \"shoaib_flattened.sol\":24743:24865  function isExcludedFromFee(address account) public view returns (bool) {... */\n      jump\n        /* \"shoaib_flattened.sol\":27940:28060  function isWhitelistedAddress(address account) public view returns (bool) {... */\n    tag_14:\n      callvalue\n      dup1\n      iszero\n      tag_102\n      jumpi\n      revert(0x00, 0x00)\n    tag_102:\n      pop\n      tag_55\n      tag_104\n      calldatasize\n      0x04\n      tag_84\n      jump\t// in\n    tag_104:\n      sub(shl(0xa0, 0x01), 0x01)\n        /* \"shoaib_flattened.sol\":28031:28053  isWhitelisted[account] */\n      and\n        /* \"shoaib_flattened.sol\":28008:28012  bool */\n      0x00\n        /* \"shoaib_flattened.sol\":28031:28053  isWhitelisted[account] */\n      swap1\n      dup2\n      mstore\n        /* \"shoaib_flattened.sol\":28031:28044  isWhitelisted */\n      0x08\n        /* \"shoaib_flattened.sol\":28031:28053  isWhitelisted[account] */\n      0x20\n      mstore\n      0x40\n      swap1\n      keccak256\n      sload\n      0xff\n      and\n      swap1\n        /* \"shoaib_flattened.sol\":27940:28060  function isWhitelistedAddress(address account) public view returns (bool) {... */\n      jump\n        /* \"shoaib_flattened.sol\":27117:27452  function excludeAccountFromReward(address account) public onlyOwner {... */\n    tag_15:\n      callvalue\n      dup1\n      iszero\n      tag_107\n      jumpi\n      revert(0x00, 0x00)\n    tag_107:\n      pop\n      tag_45\n      tag_109\n      calldatasize\n      0x04\n      tag_84\n      jump\t// in\n    tag_109:\n      tag_110\n      jump\t// in\n        /* \"shoaib_flattened.sol\":24871:25139  function balanceOf(address sender)... */\n    tag_16:\n      callvalue\n      dup1\n      iszero\n      tag_111\n      jumpi\n      revert(0x00, 0x00)\n    tag_111:\n      pop\n      tag_62\n      tag_113\n      calldatasize\n      0x04\n      tag_84\n      jump\t// in\n    tag_113:\n      tag_114\n      jump\t// in\n        /* \"shoaib_flattened.sol\":35387:35529  function renounceOwnership() public onlyOwner {... */\n    tag_17:\n      callvalue\n      dup1\n      iszero\n      tag_116\n      jumpi\n      revert(0x00, 0x00)\n    tag_116:\n      pop\n      tag_45\n      tag_118\n      jump\t// in\n        /* \"shoaib_flattened.sol\":24621:24737  function getMarketingAccount() public view returns (address) {... */\n    tag_18:\n      callvalue\n      dup1\n      iszero\n      tag_119\n      jumpi\n      revert(0x00, 0x00)\n    tag_119:\n      pop\n        /* \"shoaib_flattened.sol\":24699:24730  _marketingAndDevelopmentAccount */\n      and(sub(shl(0xa0, 0x01), 0x01), sload(0x13))\n        /* \"shoaib_flattened.sol\":24621:24737  function getMarketingAccount() public view returns (address) {... */\n    tag_120:\n      mload(0x40)\n      sub(shl(0xa0, 0x01), 0x01)\n        /* \"#utility.yul\":2848:2880   */\n      swap1\n      swap2\n      and\n        /* \"#utility.yul\":2830:2881   */\n      dup2\n      mstore\n        /* \"#utility.yul\":2818:2820   */\n      0x20\n        /* \"#utility.yul\":2803:2821   */\n      add\n        /* \"shoaib_flattened.sol\":24621:24737  function getMarketingAccount() public view returns (address) {... */\n      tag_52\n        /* \"#utility.yul\":2684:2887   */\n      jump\n        /* \"shoaib_flattened.sol\":24434:24527  function reflectionFee() public view returns (uint256) {... */\n    tag_19:\n      callvalue\n      dup1\n      iszero\n      tag_124\n      jumpi\n      revert(0x00, 0x00)\n    tag_124:\n      pop\n        /* \"shoaib_flattened.sol\":24506:24520  _reflectionFee */\n      sload(0x0f)\n        /* \"shoaib_flattened.sol\":24434:24527  function reflectionFee() public view returns (uint256) {... */\n      jump(tag_62)\n        /* \"shoaib_flattened.sol\":25743:25896  function changePairAddress(address _pairAddress) public onlyOwner {... */\n    tag_20:\n      callvalue\n      dup1\n      iszero\n      tag_128\n      jumpi\n      revert(0x00, 0x00)\n    tag_128:\n      pop\n      tag_45\n      tag_130\n      calldatasize\n      0x04\n      tag_84\n      jump\t// in\n    tag_130:\n      tag_131\n      jump\t// in\n        /* \"shoaib_flattened.sol\":24060:24145  function owner() public view virtual returns (address) {... */\n    tag_21:\n      callvalue\n      dup1\n      iszero\n      tag_132\n      jumpi\n      revert(0x00, 0x00)\n    tag_132:\n      pop\n        /* \"shoaib_flattened.sol\":24132:24138  _owner */\n      sload(0x0b)\n      0x0100\n      swap1\n      div\n      sub(shl(0xa0, 0x01), 0x01)\n      and\n        /* \"shoaib_flattened.sol\":24060:24145  function owner() public view virtual returns (address) {... */\n      jump(tag_120)\n        /* \"shoaib_flattened.sol\":13003:13096  function symbol() public view virtual returns (string memory) {... */\n    tag_22:\n      callvalue\n      dup1\n      iszero\n      tag_136\n      jumpi\n      revert(0x00, 0x00)\n    tag_136:\n      pop\n      tag_50\n      tag_138\n      jump\t// in\n        /* \"shoaib_flattened.sol\":23049:23075  address public pairAddress */\n    tag_23:\n      callvalue\n      dup1\n      iszero\n      tag_140\n      jumpi\n      revert(0x00, 0x00)\n    tag_140:\n      pop\n      sload(0x14)\n      tag_120\n      swap1\n      sub(shl(0xa0, 0x01), 0x01)\n      and\n      dup2\n      jump\n        /* \"shoaib_flattened.sol\":14337:14515  function transfer(address to, uint256 value) public virtual returns (bool) {... */\n    tag_24:\n      callvalue\n      dup1\n      iszero\n      tag_144\n      jumpi\n      revert(0x00, 0x00)\n    tag_144:\n      pop\n      tag_55\n      tag_146\n      calldatasize\n      0x04\n      tag_57\n      jump\t// in\n    tag_146:\n      tag_147\n      jump\t// in\n        /* \"shoaib_flattened.sol\":28066:28251  function whitelistedAddress(address account) public onlyOwner {... */\n    tag_25:\n      callvalue\n      dup1\n      iszero\n      tag_149\n      jumpi\n      revert(0x00, 0x00)\n    tag_149:\n      pop\n      tag_45\n      tag_151\n      calldatasize\n      0x04\n      tag_84\n      jump\t// in\n    tag_151:\n      tag_152\n      jump\t// in\n        /* \"shoaib_flattened.sol\":25478:25737  function changeMarketingAccount(address newFeeAccount) public onlyOwner {... */\n    tag_26:\n      callvalue\n      dup1\n      iszero\n      tag_153\n      jumpi\n      revert(0x00, 0x00)\n    tag_153:\n      pop\n      tag_45\n      tag_155\n      calldatasize\n      0x04\n      tag_84\n      jump\t// in\n    tag_155:\n      tag_156\n      jump\t// in\n        /* \"shoaib_flattened.sol\":28257:28371  function openTrading() external onlyOwner {... */\n    tag_27:\n      callvalue\n      dup1\n      iszero\n      tag_157\n      jumpi\n      revert(0x00, 0x00)\n    tag_157:\n      pop\n      tag_45\n      tag_159\n      jump\t// in\n        /* \"shoaib_flattened.sol\":25145:25253  function isExcluded(address account) public view returns (bool) {... */\n    tag_28:\n      callvalue\n      dup1\n      iszero\n      tag_160\n      jumpi\n      revert(0x00, 0x00)\n    tag_160:\n      pop\n      tag_55\n      tag_162\n      calldatasize\n      0x04\n      tag_84\n      jump\t// in\n    tag_162:\n      sub(shl(0xa0, 0x01), 0x01)\n        /* \"shoaib_flattened.sol\":25226:25246  _isExcluded[account] */\n      and\n        /* \"shoaib_flattened.sol\":25203:25207  bool */\n      0x00\n        /* \"shoaib_flattened.sol\":25226:25246  _isExcluded[account] */\n      swap1\n      dup2\n      mstore\n        /* \"shoaib_flattened.sol\":25226:25237  _isExcluded */\n      0x09\n        /* \"shoaib_flattened.sol\":25226:25246  _isExcluded[account] */\n      0x20\n      mstore\n      0x40\n      swap1\n      keccak256\n      sload\n      0xff\n      and\n      swap1\n        /* \"shoaib_flattened.sol\":25145:25253  function isExcluded(address account) public view returns (bool) {... */\n      jump\n        /* \"shoaib_flattened.sol\":23120:23146  uint256 public launchBlock */\n    tag_29:\n      callvalue\n      dup1\n      iszero\n      tag_165\n      jumpi\n      revert(0x00, 0x00)\n    tag_165:\n      pop\n      tag_62\n      sload(0x16)\n      dup2\n      jump\n        /* \"shoaib_flattened.sol\":14573:14749  function allowance(address owner, address spender)... */\n    tag_30:\n      callvalue\n      dup1\n      iszero\n      tag_169\n      jumpi\n      revert(0x00, 0x00)\n    tag_169:\n      pop\n      tag_62\n      tag_171\n      calldatasize\n      0x04\n      tag_172\n      jump\t// in\n    tag_171:\n      sub(shl(0xa0, 0x01), 0x01)\n        /* \"shoaib_flattened.sol\":14715:14733  _allowances[owner] */\n      swap2\n      dup3\n      and\n        /* \"shoaib_flattened.sol\":14685:14692  uint256 */\n      0x00\n        /* \"shoaib_flattened.sol\":14715:14733  _allowances[owner] */\n      swap1\n      dup2\n      mstore\n        /* \"shoaib_flattened.sol\":14715:14726  _allowances */\n      0x01\n        /* \"shoaib_flattened.sol\":14715:14733  _allowances[owner] */\n      0x20\n      swap1\n      dup2\n      mstore\n      0x40\n      dup1\n      dup4\n      keccak256\n        /* \"shoaib_flattened.sol\":14715:14742  _allowances[owner][spender] */\n      swap4\n      swap1\n      swap5\n      and\n      dup3\n      mstore\n      swap2\n      swap1\n      swap2\n      mstore\n      keccak256\n      sload\n      swap1\n        /* \"shoaib_flattened.sol\":14573:14749  function allowance(address owner, address spender)... */\n      jump\n        /* \"shoaib_flattened.sol\":35535:35631  function transferOwnership(address newOwner) public onlyOwner {... */\n    tag_31:\n      callvalue\n      dup1\n      iszero\n      tag_175\n      jumpi\n      revert(0x00, 0x00)\n    tag_175:\n      pop\n      tag_45\n      tag_177\n      calldatasize\n      0x04\n      tag_84\n      jump\t// in\n    tag_177:\n      tag_178\n      jump\t// in\n        /* \"shoaib_flattened.sol\":24533:24615  function getTaxFee() public view returns (uint256) {... */\n    tag_32:\n      callvalue\n      dup1\n      iszero\n      tag_179\n      jumpi\n      revert(0x00, 0x00)\n    tag_179:\n      pop\n        /* \"shoaib_flattened.sol\":24601:24608  _taxFee */\n      sload(0x11)\n        /* \"shoaib_flattened.sol\":24533:24615  function getTaxFee() public view returns (uint256) {... */\n      jump(tag_62)\n        /* \"shoaib_flattened.sol\":27458:27934  function includeAccountinReward(address account) public onlyOwner {... */\n    tag_33:\n      callvalue\n      dup1\n      iszero\n      tag_183\n      jumpi\n      revert(0x00, 0x00)\n    tag_183:\n      pop\n      tag_45\n      tag_185\n      calldatasize\n      0x04\n      tag_84\n      jump\t// in\n    tag_185:\n      tag_186\n      jump\t// in\n        /* \"shoaib_flattened.sol\":23153:23184  bool public tradingOpen = false */\n    tag_34:\n      callvalue\n      dup1\n      iszero\n      tag_187\n      jumpi\n      revert(0x00, 0x00)\n    tag_187:\n      pop\n      sload(0x17)\n      tag_55\n      swap1\n      0xff\n      and\n      dup2\n      jump\n        /* \"shoaib_flattened.sol\":25902:26311  function reflect(uint256 tAmount) public {... */\n    tag_48:\n        /* \"shoaib_flattened.sol\":4366:4376  msg.sender */\n      caller\n        /* \"shoaib_flattened.sol\":25953:25967  address sender */\n      0x00\n        /* \"shoaib_flattened.sol\":26015:26034  _isExcluded[sender] */\n      dup2\n      dup2\n      mstore\n        /* \"shoaib_flattened.sol\":26015:26026  _isExcluded */\n      0x09\n        /* \"shoaib_flattened.sol\":26015:26034  _isExcluded[sender] */\n      0x20\n      mstore\n      0x40\n      swap1\n      keccak256\n      sload\n      0xff\n      and\n        /* \"shoaib_flattened.sol\":26014:26034  !_isExcluded[sender] */\n      iszero\n        /* \"shoaib_flattened.sol\":25993:26104  require(... */\n      tag_194\n      jumpi\n      mload(0x40)\n      shl(0xe5, 0x461bcd)\n      dup2\n      mstore\n        /* \"#utility.yul\":3359:3361   */\n      0x20\n        /* \"shoaib_flattened.sol\":25993:26104  require(... */\n      0x04\n      dup3\n      add\n        /* \"#utility.yul\":3341:3362   */\n      mstore\n        /* \"#utility.yul\":3398:3400   */\n      0x2c\n        /* \"#utility.yul\":3378:3396   */\n      0x24\n      dup3\n      add\n        /* \"#utility.yul\":3371:3401   */\n      mstore\n        /* \"#utility.yul\":3437:3471   */\n      0x4578636c75646564206164647265737365732063616e6e6f742063616c6c2074\n        /* \"#utility.yul\":3417:3435   */\n      0x44\n      dup3\n      add\n        /* \"#utility.yul\":3410:3472   */\n      mstore\n      shl(0xa1, 0x3434b990333ab731ba34b7b7)\n        /* \"#utility.yul\":3488:3506   */\n      0x64\n      dup3\n      add\n        /* \"#utility.yul\":3481:3523   */\n      mstore\n        /* \"#utility.yul\":3540:3559   */\n      0x84\n      add\n        /* \"shoaib_flattened.sol\":25993:26104  require(... */\n    tag_195:\n      mload(0x40)\n      dup1\n      swap2\n      sub\n      swap1\n      revert\n    tag_194:\n        /* \"shoaib_flattened.sol\":26116:26131  uint256 rAmount */\n      0x00\n        /* \"shoaib_flattened.sol\":26141:26168  _getTransferValues(tAmount) */\n      tag_197\n        /* \"shoaib_flattened.sol\":26160:26167  tAmount */\n      dup4\n        /* \"shoaib_flattened.sol\":26141:26159  _getTransferValues */\n      tag_198\n        /* \"shoaib_flattened.sol\":26141:26168  _getTransferValues(tAmount) */\n      jump\t// in\n    tag_197:\n      pop\n      pop\n      pop\n      sub(shl(0xa0, 0x01), 0x01)\n        /* \"shoaib_flattened.sol\":26197:26212  _rOwned[sender] */\n      dup4\n      and\n      0x00\n      swap1\n      dup2\n      mstore\n        /* \"shoaib_flattened.sol\":26197:26204  _rOwned */\n      0x05\n        /* \"shoaib_flattened.sol\":26197:26212  _rOwned[sender] */\n      0x20\n      mstore\n      0x40\n      swap1\n      keccak256\n      sload\n        /* \"shoaib_flattened.sol\":26115:26168  (uint256 rAmount, , , ) = _getTransferValues(tAmount) */\n      swap1\n      swap2\n      pop\n        /* \"shoaib_flattened.sol\":26197:26222  _rOwned[sender] - rAmount */\n      tag_199\n      swap1\n        /* \"shoaib_flattened.sol\":26115:26168  (uint256 rAmount, , , ) = _getTransferValues(tAmount) */\n      dup3\n      swap1\n        /* \"shoaib_flattened.sol\":26197:26222  _rOwned[sender] - rAmount */\n      tag_200\n      jump\t// in\n    tag_199:\n      sub(shl(0xa0, 0x01), 0x01)\n        /* \"shoaib_flattened.sol\":26179:26194  _rOwned[sender] */\n      dup4\n      and\n      0x00\n      swap1\n      dup2\n      mstore\n        /* \"shoaib_flattened.sol\":26179:26186  _rOwned */\n      0x05\n        /* \"shoaib_flattened.sol\":26179:26194  _rOwned[sender] */\n      0x20\n      mstore\n      0x40\n      swap1\n      keccak256\n        /* \"shoaib_flattened.sol\":26179:26222  _rOwned[sender] = _rOwned[sender] - rAmount */\n      sstore\n        /* \"shoaib_flattened.sol\":26243:26250  _rTotal */\n      sload(0x0d)\n        /* \"shoaib_flattened.sol\":26243:26260  _rTotal - rAmount */\n      tag_201\n      swap1\n        /* \"shoaib_flattened.sol\":26253:26260  rAmount */\n      dup3\n      swap1\n        /* \"shoaib_flattened.sol\":26243:26260  _rTotal - rAmount */\n      tag_200\n      jump\t// in\n    tag_201:\n        /* \"shoaib_flattened.sol\":26233:26240  _rTotal */\n      0x0d\n        /* \"shoaib_flattened.sol\":26233:26260  _rTotal = _rTotal - rAmount */\n      sstore\n        /* \"shoaib_flattened.sol\":26284:26294  _tFeeTotal */\n      sload(0x0e)\n        /* \"shoaib_flattened.sol\":26284:26304  _tFeeTotal + tAmount */\n      tag_202\n      swap1\n        /* \"shoaib_flattened.sol\":26297:26304  tAmount */\n      dup5\n      swap1\n        /* \"shoaib_flattened.sol\":26284:26304  _tFeeTotal + tAmount */\n      tag_203\n      jump\t// in\n    tag_202:\n        /* \"shoaib_flattened.sol\":26271:26281  _tFeeTotal */\n      0x0e\n        /* \"shoaib_flattened.sol\":26271:26304  _tFeeTotal = _tFeeTotal + tAmount */\n      sstore\n      pop\n      pop\n      pop\n        /* \"shoaib_flattened.sol\":25902:26311  function reflect(uint256 tAmount) public {... */\n      jump\t// out\n        /* \"shoaib_flattened.sol\":12801:12890  function name() public view virtual returns (string memory) {... */\n    tag_51:\n        /* \"shoaib_flattened.sol\":12846:12859  string memory */\n      0x60\n        /* \"shoaib_flattened.sol\":12878:12883  _name */\n      0x03\n        /* \"shoaib_flattened.sol\":12871:12883  return _name */\n      dup1\n      sload\n      tag_205\n      swap1\n      tag_206\n      jump\t// in\n    tag_205:\n      dup1\n      0x1f\n      add\n      0x20\n      dup1\n      swap2\n      div\n      mul\n      0x20\n      add\n      mload(0x40)\n      swap1\n      dup2\n      add\n      0x40\n      mstore\n      dup1\n      swap3\n      swap2\n      swap1\n      dup2\n      dup2\n      mstore\n      0x20\n      add\n      dup3\n      dup1\n      sload\n      tag_207\n      swap1\n      tag_206\n      jump\t// in\n    tag_207:\n      dup1\n      iszero\n      tag_208\n      jumpi\n      dup1\n      0x1f\n      lt\n      tag_209\n      jumpi\n      0x0100\n      dup1\n      dup4\n      sload\n      div\n      mul\n      dup4\n      mstore\n      swap2\n      0x20\n      add\n      swap2\n      jump(tag_208)\n    tag_209:\n      dup3\n      add\n      swap2\n      swap1\n      0x00\n      mstore\n      keccak256(0x00, 0x20)\n      swap1\n    tag_210:\n      dup2\n      sload\n      dup2\n      mstore\n      swap1\n      0x01\n      add\n      swap1\n      0x20\n      add\n      dup1\n      dup4\n      gt\n      tag_210\n      jumpi\n      dup3\n      swap1\n      sub\n      0x1f\n      and\n      dup3\n      add\n      swap2\n    tag_208:\n      pop\n      pop\n      pop\n      pop\n      pop\n      swap1\n      pop\n        /* \"shoaib_flattened.sol\":12801:12890  function name() public view virtual returns (string memory) {... */\n      swap1\n      jump\t// out\n        /* \"shoaib_flattened.sol\":15056:15270  function approve(address spender, uint256 value)... */\n    tag_58:\n        /* \"shoaib_flattened.sol\":15153:15157  bool */\n      0x00\n        /* \"shoaib_flattened.sol\":4366:4376  msg.sender */\n      caller\n        /* \"shoaib_flattened.sol\":15211:15242  _approve(owner, spender, value) */\n      tag_213\n        /* \"shoaib_flattened.sol\":4366:4376  msg.sender */\n      dup2\n        /* \"shoaib_flattened.sol\":15227:15234  spender */\n      dup6\n        /* \"shoaib_flattened.sol\":15236:15241  value */\n      dup6\n        /* \"shoaib_flattened.sol\":15211:15219  _approve */\n      tag_214\n        /* \"shoaib_flattened.sol\":15211:15242  _approve(owner, spender, value) */\n      jump\t// in\n    tag_213:\n        /* \"shoaib_flattened.sol\":15259:15263  true */\n      0x01\n        /* \"shoaib_flattened.sol\":15252:15263  return true */\n      swap2\n      pop\n      pop\n        /* \"shoaib_flattened.sol\":15056:15270  function approve(address spender, uint256 value)... */\n    tag_211:\n      swap3\n      swap2\n      pop\n      pop\n      jump\t// out\n        /* \"shoaib_flattened.sol\":15862:16136  function transferFrom(... */\n    tag_70:\n        /* \"shoaib_flattened.sol\":15979:15983  bool */\n      0x00\n        /* \"shoaib_flattened.sol\":4366:4376  msg.sender */\n      caller\n        /* \"shoaib_flattened.sol\":16035:16072  _spendAllowance(from, spender, value) */\n      tag_218\n        /* \"shoaib_flattened.sol\":16051:16055  from */\n      dup6\n        /* \"shoaib_flattened.sol\":4366:4376  msg.sender */\n      dup3\n        /* \"shoaib_flattened.sol\":16066:16071  value */\n      dup6\n        /* \"shoaib_flattened.sol\":16035:16050  _spendAllowance */\n      tag_219\n        /* \"shoaib_flattened.sol\":16035:16072  _spendAllowance(from, spender, value) */\n      jump\t// in\n    tag_218:\n        /* \"shoaib_flattened.sol\":16082:16108  _transfer(from, to, value) */\n      tag_220\n        /* \"shoaib_flattened.sol\":16092:16096  from */\n      dup6\n        /* \"shoaib_flattened.sol\":16098:16100  to */\n      dup6\n        /* \"shoaib_flattened.sol\":16102:16107  value */\n      dup6\n        /* \"shoaib_flattened.sol\":16082:16091  _transfer */\n      tag_221\n        /* \"shoaib_flattened.sol\":16082:16108  _transfer(from, to, value) */\n      jump\t// in\n    tag_220:\n      pop\n        /* \"shoaib_flattened.sol\":16125:16129  true */\n      0x01\n      swap5\n        /* \"shoaib_flattened.sol\":15862:16136  function transferFrom(... */\n      swap4\n      pop\n      pop\n      pop\n      pop\n      jump\t// out\n        /* \"shoaib_flattened.sol\":25363:25472  function excludeFromFee(address account) public onlyOwner {... */\n    tag_90:\n        /* \"shoaib_flattened.sol\":24132:24138  _owner */\n      sload(0x0b)\n        /* \"shoaib_flattened.sol\":24197:24207  msg.sender */\n      caller\n      swap1\n        /* \"shoaib_flattened.sol\":24132:24138  _owner */\n      0x0100\n      swap1\n      div\n      sub(shl(0xa0, 0x01), 0x01)\n      and\n      sub(shl(0xa0, 0x01), 0x01)\n        /* \"shoaib_flattened.sol\":24186:24207  owner() == msg.sender */\n      and\n      sub\n        /* \"shoaib_flattened.sol\":24182:24210  if (owner() == msg.sender) _ */\n      tag_226\n      jumpi\n      sub(shl(0xa0, 0x01), 0x01)\n        /* \"shoaib_flattened.sol\":25431:25458  _isExcludedFromFee[account] */\n      dup2\n      and\n      0x00\n      swap1\n      dup2\n      mstore\n        /* \"shoaib_flattened.sol\":25431:25449  _isExcludedFromFee */\n      0x07\n        /* \"shoaib_flattened.sol\":25431:25458  _isExcludedFromFee[account] */\n      0x20\n      mstore\n      0x40\n      swap1\n      keccak256\n        /* \"shoaib_flattened.sol\":25431:25465  _isExcludedFromFee[account] = true */\n      dup1\n      sload\n      not(0xff)\n      and\n        /* \"shoaib_flattened.sol\":25461:25465  true */\n      0x01\n        /* \"shoaib_flattened.sol\":25431:25465  _isExcludedFromFee[account] = true */\n      or\n      swap1\n      sstore\n        /* \"shoaib_flattened.sol\":24182:24210  if (owner() == msg.sender) _ */\n    tag_226:\n        /* \"shoaib_flattened.sol\":25363:25472  function excludeFromFee(address account) public onlyOwner {... */\n      pop\n      jump\t// out\n        /* \"shoaib_flattened.sol\":26317:26794  function reflectionFromToken(uint256 tAmount, bool deductTransferFee)... */\n    tag_95:\n        /* \"shoaib_flattened.sol\":26432:26439  uint256 */\n      0x00\n        /* \"shoaib_flattened.sol\":26474:26481  _tTotal */\n      sload(0x0c)\n        /* \"shoaib_flattened.sol\":26463:26470  tAmount */\n      dup4\n        /* \"shoaib_flattened.sol\":26463:26481  tAmount <= _tTotal */\n      gt\n      iszero\n        /* \"shoaib_flattened.sol\":26455:26517  require(tAmount <= _tTotal, \"Amount must be less than supply\") */\n      tag_229\n      jumpi\n      mload(0x40)\n      shl(0xe5, 0x461bcd)\n      dup2\n      mstore\n        /* \"#utility.yul\":4552:4554   */\n      0x20\n        /* \"shoaib_flattened.sol\":26455:26517  require(tAmount <= _tTotal, \"Amount must be less than supply\") */\n      0x04\n      dup3\n      add\n        /* \"#utility.yul\":4534:4555   */\n      mstore\n        /* \"#utility.yul\":4591:4593   */\n      0x1f\n        /* \"#utility.yul\":4571:4589   */\n      0x24\n      dup3\n      add\n        /* \"#utility.yul\":4564:4594   */\n      mstore\n        /* \"#utility.yul\":4630:4663   */\n      0x416d6f756e74206d757374206265206c657373207468616e20737570706c7900\n        /* \"#utility.yul\":4610:4628   */\n      0x44\n      dup3\n      add\n        /* \"#utility.yul\":4603:4664   */\n      mstore\n        /* \"#utility.yul\":4681:4699   */\n      0x64\n      add\n        /* \"shoaib_flattened.sol\":26455:26517  require(tAmount <= _tTotal, \"Amount must be less than supply\") */\n      tag_195\n        /* \"#utility.yul\":4350:4705   */\n      jump\n        /* \"shoaib_flattened.sol\":26455:26517  require(tAmount <= _tTotal, \"Amount must be less than supply\") */\n    tag_229:\n        /* \"shoaib_flattened.sol\":26533:26550  deductTransferFee */\n      dup2\n        /* \"shoaib_flattened.sol\":26528:26788  if (!deductTransferFee) {... */\n      tag_232\n      jumpi\n        /* \"shoaib_flattened.sol\":26567:26582  uint256 rAmount */\n      0x00\n        /* \"shoaib_flattened.sol\":26592:26619  _getTransferValues(tAmount) */\n      tag_233\n        /* \"shoaib_flattened.sol\":26611:26618  tAmount */\n      dup5\n        /* \"shoaib_flattened.sol\":26592:26610  _getTransferValues */\n      tag_198\n        /* \"shoaib_flattened.sol\":26592:26619  _getTransferValues(tAmount) */\n      jump\t// in\n    tag_233:\n      pop\n        /* \"shoaib_flattened.sol\":26566:26619  (uint256 rAmount, , , ) = _getTransferValues(tAmount) */\n      swap2\n      swap4\n      pop\n        /* \"shoaib_flattened.sol\":26634:26648  return rAmount */\n      tag_211\n      swap3\n      pop\n      pop\n      pop\n      jump\n        /* \"shoaib_flattened.sol\":26528:26788  if (!deductTransferFee) {... */\n    tag_232:\n        /* \"shoaib_flattened.sol\":26682:26705  uint256 rTransferAmount */\n      0x00\n        /* \"shoaib_flattened.sol\":26713:26740  _getTransferValues(tAmount) */\n      tag_235\n        /* \"shoaib_flattened.sol\":26732:26739  tAmount */\n      dup5\n        /* \"shoaib_flattened.sol\":26713:26731  _getTransferValues */\n      tag_198\n        /* \"shoaib_flattened.sol\":26713:26740  _getTransferValues(tAmount) */\n      jump\t// in\n    tag_235:\n      pop\n        /* \"shoaib_flattened.sol\":26679:26740  (, uint256 rTransferAmount, , ) = _getTransferValues(tAmount) */\n      swap1\n      swap4\n      pop\n        /* \"shoaib_flattened.sol\":26755:26777  return rTransferAmount */\n      tag_211\n      swap3\n      pop\n      pop\n      pop\n      jump\n        /* \"shoaib_flattened.sol\":27117:27452  function excludeAccountFromReward(address account) public onlyOwner {... */\n    tag_110:\n        /* \"shoaib_flattened.sol\":24132:24138  _owner */\n      sload(0x0b)\n        /* \"shoaib_flattened.sol\":24197:24207  msg.sender */\n      caller\n      swap1\n        /* \"shoaib_flattened.sol\":24132:24138  _owner */\n      0x0100\n      swap1\n      div\n      sub(shl(0xa0, 0x01), 0x01)\n      and\n      sub(shl(0xa0, 0x01), 0x01)\n        /* \"shoaib_flattened.sol\":24186:24207  owner() == msg.sender */\n      and\n      sub\n        /* \"shoaib_flattened.sol\":24182:24210  if (owner() == msg.sender) _ */\n      tag_226\n      jumpi\n      sub(shl(0xa0, 0x01), 0x01)\n        /* \"shoaib_flattened.sol\":27204:27224  _isExcluded[account] */\n      dup2\n      and\n      0x00\n      swap1\n      dup2\n      mstore\n        /* \"shoaib_flattened.sol\":27204:27215  _isExcluded */\n      0x09\n        /* \"shoaib_flattened.sol\":27204:27224  _isExcluded[account] */\n      0x20\n      mstore\n      0x40\n      swap1\n      keccak256\n      sload\n      0xff\n      and\n        /* \"shoaib_flattened.sol\":27203:27224  !_isExcluded[account] */\n      iszero\n        /* \"shoaib_flattened.sol\":27195:27256  require(!_isExcluded[account], \"Account is already excluded\") */\n      tag_242\n      jumpi\n      mload(0x40)\n      shl(0xe5, 0x461bcd)\n      dup2\n      mstore\n        /* \"#utility.yul\":4912:4914   */\n      0x20\n        /* \"shoaib_flattened.sol\":27195:27256  require(!_isExcluded[account], \"Account is already excluded\") */\n      0x04\n      dup3\n      add\n        /* \"#utility.yul\":4894:4915   */\n      mstore\n        /* \"#utility.yul\":4951:4953   */\n      0x1b\n        /* \"#utility.yul\":4931:4949   */\n      0x24\n      dup3\n      add\n        /* \"#utility.yul\":4924:4954   */\n      mstore\n        /* \"#utility.yul\":4990:5019   */\n      0x4163636f756e7420697320616c7265616479206578636c756465640000000000\n        /* \"#utility.yul\":4970:4988   */\n      0x44\n      dup3\n      add\n        /* \"#utility.yul\":4963:5020   */\n      mstore\n        /* \"#utility.yul\":5037:5055   */\n      0x64\n      add\n        /* \"shoaib_flattened.sol\":27195:27256  require(!_isExcluded[account], \"Account is already excluded\") */\n      tag_195\n        /* \"#utility.yul\":4710:5061   */\n      jump\n        /* \"shoaib_flattened.sol\":27195:27256  require(!_isExcluded[account], \"Account is already excluded\") */\n    tag_242:\n      sub(shl(0xa0, 0x01), 0x01)\n        /* \"shoaib_flattened.sol\":27271:27287  _rOwned[account] */\n      dup2\n      and\n        /* \"shoaib_flattened.sol\":27290:27291  0 */\n      0x00\n        /* \"shoaib_flattened.sol\":27271:27287  _rOwned[account] */\n      swap1\n      dup2\n      mstore\n        /* \"shoaib_flattened.sol\":27271:27278  _rOwned */\n      0x05\n        /* \"shoaib_flattened.sol\":27271:27287  _rOwned[account] */\n      0x20\n      mstore\n      0x40\n      swap1\n      keccak256\n      sload\n        /* \"shoaib_flattened.sol\":27271:27291  _rOwned[account] > 0 */\n      iszero\n        /* \"shoaib_flattened.sol\":27267:27374  if (_rOwned[account] > 0) {... */\n      tag_245\n      jumpi\n      sub(shl(0xa0, 0x01), 0x01)\n        /* \"shoaib_flattened.sol\":27346:27362  _rOwned[account] */\n      dup2\n      and\n      0x00\n      swap1\n      dup2\n      mstore\n        /* \"shoaib_flattened.sol\":27346:27353  _rOwned */\n      0x05\n        /* \"shoaib_flattened.sol\":27346:27362  _rOwned[account] */\n      0x20\n      mstore\n      0x40\n      swap1\n      keccak256\n      sload\n        /* \"shoaib_flattened.sol\":27326:27363  tokenFromReflection(_rOwned[account]) */\n      tag_246\n      swap1\n        /* \"shoaib_flattened.sol\":27326:27345  tokenFromReflection */\n      tag_247\n        /* \"shoaib_flattened.sol\":27326:27363  tokenFromReflection(_rOwned[account]) */\n      jump\t// in\n    tag_246:\n      sub(shl(0xa0, 0x01), 0x01)\n        /* \"shoaib_flattened.sol\":27307:27323  _tOwned[account] */\n      dup3\n      and\n      0x00\n      swap1\n      dup2\n      mstore\n        /* \"shoaib_flattened.sol\":27307:27314  _tOwned */\n      0x06\n        /* \"shoaib_flattened.sol\":27307:27323  _tOwned[account] */\n      0x20\n      mstore\n      0x40\n      swap1\n      keccak256\n        /* \"shoaib_flattened.sol\":27307:27363  _tOwned[account] = tokenFromReflection(_rOwned[account]) */\n      sstore\n        /* \"shoaib_flattened.sol\":27267:27374  if (_rOwned[account] > 0) {... */\n    tag_245:\n      sub(shl(0xa0, 0x01), 0x01)\n        /* \"shoaib_flattened.sol\":27384:27404  _isExcluded[account] */\n      and\n      0x00\n      dup2\n      dup2\n      mstore\n        /* \"shoaib_flattened.sol\":27384:27395  _isExcluded */\n      0x09\n        /* \"shoaib_flattened.sol\":27384:27404  _isExcluded[account] */\n      0x20\n      mstore\n      0x40\n      dup2\n      keccak256\n        /* \"shoaib_flattened.sol\":27384:27411  _isExcluded[account] = true */\n      dup1\n      sload\n      not(0xff)\n      and\n        /* \"shoaib_flattened.sol\":27407:27411  true */\n      0x01\n        /* \"shoaib_flattened.sol\":27384:27411  _isExcluded[account] = true */\n      swap1\n      dup2\n      or\n      swap1\n      swap2\n      sstore\n        /* \"shoaib_flattened.sol\":27422:27431  _excluded */\n      0x0a\n        /* \"shoaib_flattened.sol\":27422:27445  _excluded.push(account) */\n      dup1\n      sload\n      swap2\n      dup3\n      add\n      dup2\n      sstore\n      swap1\n      swap2\n      mstore\n      0xc65a7bb8d6351c1cf70c95a316cc6a92839c986682d98bc35f958f4883f9d2a8\n      add\n      dup1\n      sload\n      not(sub(shl(0xa0, 0x01), 0x01))\n      and\n      swap1\n      swap2\n      or\n      swap1\n      sstore\n        /* \"shoaib_flattened.sol\":27117:27452  function excludeAccountFromReward(address account) public onlyOwner {... */\n      jump\t// out\n        /* \"shoaib_flattened.sol\":24871:25139  function balanceOf(address sender)... */\n    tag_114:\n      sub(shl(0xa0, 0x01), 0x01)\n        /* \"shoaib_flattened.sol\":25011:25030  _isExcluded[sender] */\n      dup2\n      and\n        /* \"shoaib_flattened.sol\":24984:24991  uint256 */\n      0x00\n        /* \"shoaib_flattened.sol\":25011:25030  _isExcluded[sender] */\n      swap1\n      dup2\n      mstore\n        /* \"shoaib_flattened.sol\":25011:25022  _isExcluded */\n      0x09\n        /* \"shoaib_flattened.sol\":25011:25030  _isExcluded[sender] */\n      0x20\n      mstore\n      0x40\n      dup2\n      keccak256\n      sload\n      0xff\n      and\n        /* \"shoaib_flattened.sol\":25007:25079  if (_isExcluded[sender]) {... */\n      iszero\n      tag_250\n      jumpi\n      pop\n      sub(shl(0xa0, 0x01), 0x01)\n        /* \"shoaib_flattened.sol\":25053:25068  _tOwned[sender] */\n      and\n      0x00\n      swap1\n      dup2\n      mstore\n        /* \"shoaib_flattened.sol\":25053:25060  _tOwned */\n      0x06\n        /* \"shoaib_flattened.sol\":25053:25068  _tOwned[sender] */\n      0x20\n      mstore\n      0x40\n      swap1\n      keccak256\n      sload\n      swap1\n        /* \"shoaib_flattened.sol\":24871:25139  function balanceOf(address sender)... */\n      jump\t// out\n        /* \"shoaib_flattened.sol\":25007:25079  if (_isExcluded[sender]) {... */\n    tag_250:\n      sub(shl(0xa0, 0x01), 0x01)\n        /* \"shoaib_flattened.sol\":25116:25131  _rOwned[sender] */\n      dup3\n      and\n      0x00\n      swap1\n      dup2\n      mstore\n        /* \"shoaib_flattened.sol\":25116:25123  _rOwned */\n      0x05\n        /* \"shoaib_flattened.sol\":25116:25131  _rOwned[sender] */\n      0x20\n      mstore\n      0x40\n      swap1\n      keccak256\n      sload\n        /* \"shoaib_flattened.sol\":25096:25132  tokenFromReflection(_rOwned[sender]) */\n      tag_211\n      swap1\n        /* \"shoaib_flattened.sol\":25096:25115  tokenFromReflection */\n      tag_247\n        /* \"shoaib_flattened.sol\":25096:25132  tokenFromReflection(_rOwned[sender]) */\n      jump\t// in\n        /* \"shoaib_flattened.sol\":35387:35529  function renounceOwnership() public onlyOwner {... */\n    tag_118:\n        /* \"shoaib_flattened.sol\":24132:24138  _owner */\n      sload(0x0b)\n        /* \"shoaib_flattened.sol\":24197:24207  msg.sender */\n      caller\n      swap1\n        /* \"shoaib_flattened.sol\":24132:24138  _owner */\n      0x0100\n      swap1\n      div\n      sub(shl(0xa0, 0x01), 0x01)\n      and\n      sub(shl(0xa0, 0x01), 0x01)\n        /* \"shoaib_flattened.sol\":24186:24207  owner() == msg.sender */\n      and\n      sub\n        /* \"shoaib_flattened.sol\":24182:24210  if (owner() == msg.sender) _ */\n      tag_254\n      jumpi\n        /* \"shoaib_flattened.sol\":35451:35457  _owner */\n      sload(0x0b)\n      0x0100\n      swap1\n      div\n      sub(shl(0xa0, 0x01), 0x01)\n      and\n        /* \"shoaib_flattened.sol\":35443:35493  require(_owner != address(0), \"already renounced\") */\n      tag_256\n      jumpi\n      mload(0x40)\n      shl(0xe5, 0x461bcd)\n      dup2\n      mstore\n        /* \"#utility.yul\":5268:5270   */\n      0x20\n        /* \"shoaib_flattened.sol\":35443:35493  require(_owner != address(0), \"already renounced\") */\n      0x04\n      dup3\n      add\n        /* \"#utility.yul\":5250:5271   */\n      mstore\n        /* \"#utility.yul\":5307:5309   */\n      0x11\n        /* \"#utility.yul\":5287:5305   */\n      0x24\n      dup3\n      add\n        /* \"#utility.yul\":5280:5310   */\n      mstore\n      shl(0x7a, 0x185b1c9958591e481c995b9bdd5b98d959)\n        /* \"#utility.yul\":5326:5344   */\n      0x44\n      dup3\n      add\n        /* \"#utility.yul\":5319:5366   */\n      mstore\n        /* \"#utility.yul\":5383:5401   */\n      0x64\n      add\n        /* \"shoaib_flattened.sol\":35443:35493  require(_owner != address(0), \"already renounced\") */\n      tag_195\n        /* \"#utility.yul\":5066:5407   */\n      jump\n        /* \"shoaib_flattened.sol\":35443:35493  require(_owner != address(0), \"already renounced\") */\n    tag_256:\n        /* \"shoaib_flattened.sol\":35503:35509  _owner */\n      0x0b\n        /* \"shoaib_flattened.sol\":35503:35522  _owner = address(0) */\n      dup1\n      sload\n      not(sub(shl(0xa8, 0x01), 0x0100))\n      and\n      swap1\n      sstore\n        /* \"shoaib_flattened.sol\":24182:24210  if (owner() == msg.sender) _ */\n    tag_254:\n        /* \"shoaib_flattened.sol\":35387:35529  function renounceOwnership() public onlyOwner {... */\n      jump\t// out\n        /* \"shoaib_flattened.sol\":25743:25896  function changePairAddress(address _pairAddress) public onlyOwner {... */\n    tag_131:\n        /* \"shoaib_flattened.sol\":24132:24138  _owner */\n      sload(0x0b)\n        /* \"shoaib_flattened.sol\":24197:24207  msg.sender */\n      caller\n      swap1\n        /* \"shoaib_flattened.sol\":24132:24138  _owner */\n      0x0100\n      swap1\n      div\n      sub(shl(0xa0, 0x01), 0x01)\n      and\n      sub(shl(0xa0, 0x01), 0x01)\n        /* \"shoaib_flattened.sol\":24186:24207  owner() == msg.sender */\n      and\n      sub\n        /* \"shoaib_flattened.sol\":24182:24210  if (owner() == msg.sender) _ */\n      tag_226\n      jumpi\n        /* \"shoaib_flattened.sol\":25819:25830  pairAddress */\n      0x14\n        /* \"shoaib_flattened.sol\":25819:25845  pairAddress = _pairAddress */\n      dup1\n      sload\n      not(sub(shl(0xa0, 0x01), 0x01))\n      and\n      sub(shl(0xa0, 0x01), 0x01)\n      swap3\n      swap1\n      swap3\n      and\n      swap2\n      dup3\n      or\n      swap1\n      sstore\n      0x00\n        /* \"shoaib_flattened.sol\":25856:25882  isWhitelisted[pairAddress] */\n      swap1\n      dup2\n      mstore\n        /* \"shoaib_flattened.sol\":25856:25869  isWhitelisted */\n      0x08\n        /* \"shoaib_flattened.sol\":25856:25882  isWhitelisted[pairAddress] */\n      0x20\n      mstore\n      0x40\n      swap1\n      keccak256\n        /* \"shoaib_flattened.sol\":25856:25889  isWhitelisted[pairAddress] = true */\n      dup1\n      sload\n      not(0xff)\n      and\n      0x01\n      or\n      swap1\n      sstore\n        /* \"shoaib_flattened.sol\":25743:25896  function changePairAddress(address _pairAddress) public onlyOwner {... */\n      jump\t// out\n        /* \"shoaib_flattened.sol\":13003:13096  function symbol() public view virtual returns (string memory) {... */\n    tag_138:\n        /* \"shoaib_flattened.sol\":13050:13063  string memory */\n      0x60\n        /* \"shoaib_flattened.sol\":13082:13089  _symbol */\n      0x04\n        /* \"shoaib_flattened.sol\":13075:13089  return _symbol */\n      dup1\n      sload\n      tag_205\n      swap1\n      tag_206\n      jump\t// in\n        /* \"shoaib_flattened.sol\":14337:14515  function transfer(address to, uint256 value) public virtual returns (bool) {... */\n    tag_147:\n        /* \"shoaib_flattened.sol\":14406:14410  bool */\n      0x00\n        /* \"shoaib_flattened.sol\":4366:4376  msg.sender */\n      caller\n        /* \"shoaib_flattened.sol\":14460:14487  _transfer(owner, to, value) */\n      tag_213\n        /* \"shoaib_flattened.sol\":4366:4376  msg.sender */\n      dup2\n        /* \"shoaib_flattened.sol\":14477:14479  to */\n      dup6\n        /* \"shoaib_flattened.sol\":14481:14486  value */\n      dup6\n        /* \"shoaib_flattened.sol\":14460:14469  _transfer */\n      tag_221\n        /* \"shoaib_flattened.sol\":14460:14487  _transfer(owner, to, value) */\n      jump\t// in\n        /* \"shoaib_flattened.sol\":28066:28251  function whitelistedAddress(address account) public onlyOwner {... */\n    tag_152:\n        /* \"shoaib_flattened.sol\":24132:24138  _owner */\n      sload(0x0b)\n        /* \"shoaib_flattened.sol\":24197:24207  msg.sender */\n      caller\n      swap1\n        /* \"shoaib_flattened.sol\":24132:24138  _owner */\n      0x0100\n      swap1\n      div\n      sub(shl(0xa0, 0x01), 0x01)\n      and\n      sub(shl(0xa0, 0x01), 0x01)\n        /* \"shoaib_flattened.sol\":24186:24207  owner() == msg.sender */\n      and\n      sub\n        /* \"shoaib_flattened.sol\":24182:24210  if (owner() == msg.sender) _ */\n      tag_226\n      jumpi\n      sub(shl(0xa0, 0x01), 0x01)\n        /* \"shoaib_flattened.sol\":28147:28169  isWhitelisted[account] */\n      dup2\n      and\n      0x00\n      swap1\n      dup2\n      mstore\n        /* \"shoaib_flattened.sol\":28147:28160  isWhitelisted */\n      0x08\n        /* \"shoaib_flattened.sol\":28147:28169  isWhitelisted[account] */\n      0x20\n      mstore\n      0x40\n      swap1\n      keccak256\n      sload\n      0xff\n      and\n        /* \"shoaib_flattened.sol\":28146:28169  !isWhitelisted[account] */\n      iszero\n        /* \"shoaib_flattened.sol\":28138:28204  require(!isWhitelisted[account], \"Address is already whitelisted\") */\n      tag_279\n      jumpi\n      mload(0x40)\n      shl(0xe5, 0x461bcd)\n      dup2\n      mstore\n        /* \"#utility.yul\":5614:5616   */\n      0x20\n        /* \"shoaib_flattened.sol\":28138:28204  require(!isWhitelisted[account], \"Address is already whitelisted\") */\n      0x04\n      dup3\n      add\n        /* \"#utility.yul\":5596:5617   */\n      mstore\n        /* \"#utility.yul\":5653:5655   */\n      0x1e\n        /* \"#utility.yul\":5633:5651   */\n      0x24\n      dup3\n      add\n        /* \"#utility.yul\":5626:5656   */\n      mstore\n        /* \"#utility.yul\":5692:5724   */\n      0x4164647265737320697320616c72656164792077686974656c69737465640000\n        /* \"#utility.yul\":5672:5690   */\n      0x44\n      dup3\n      add\n        /* \"#utility.yul\":5665:5725   */\n      mstore\n        /* \"#utility.yul\":5742:5760   */\n      0x64\n      add\n        /* \"shoaib_flattened.sol\":28138:28204  require(!isWhitelisted[account], \"Address is already whitelisted\") */\n      tag_195\n        /* \"#utility.yul\":5412:5766   */\n      jump\n        /* \"shoaib_flattened.sol\":28138:28204  require(!isWhitelisted[account], \"Address is already whitelisted\") */\n    tag_279:\n      sub(shl(0xa0, 0x01), 0x01)\n        /* \"shoaib_flattened.sol\":28215:28237  isWhitelisted[account] */\n      dup2\n      and\n      0x00\n      swap1\n      dup2\n      mstore\n        /* \"shoaib_flattened.sol\":28215:28228  isWhitelisted */\n      0x08\n        /* \"shoaib_flattened.sol\":28215:28237  isWhitelisted[account] */\n      0x20\n      mstore\n      0x40\n      swap1\n      keccak256\n        /* \"shoaib_flattened.sol\":28215:28244  isWhitelisted[account] = true */\n      dup1\n      sload\n      not(0xff)\n      and\n        /* \"shoaib_flattened.sol\":28240:28244  true */\n      0x01\n        /* \"shoaib_flattened.sol\":28215:28244  isWhitelisted[account] = true */\n      or\n      swap1\n      sstore\n        /* \"shoaib_flattened.sol\":28066:28251  function whitelistedAddress(address account) public onlyOwner {... */\n      pop\n      jump\t// out\n        /* \"shoaib_flattened.sol\":25478:25737  function changeMarketingAccount(address newFeeAccount) public onlyOwner {... */\n    tag_156:\n        /* \"shoaib_flattened.sol\":24132:24138  _owner */\n      sload(0x0b)\n        /* \"shoaib_flattened.sol\":24197:24207  msg.sender */\n      caller\n      swap1\n        /* \"shoaib_flattened.sol\":24132:24138  _owner */\n      0x0100\n      swap1\n      div\n      sub(shl(0xa0, 0x01), 0x01)\n      and\n      sub(shl(0xa0, 0x01), 0x01)\n        /* \"shoaib_flattened.sol\":24186:24207  owner() == msg.sender */\n      and\n      sub\n        /* \"shoaib_flattened.sol\":24182:24210  if (owner() == msg.sender) _ */\n      tag_226\n      jumpi\n      sub(shl(0xa0, 0x01), 0x01)\n        /* \"shoaib_flattened.sol\":25581:25608  newFeeAccount != address(0) */\n      dup2\n      and\n        /* \"shoaib_flattened.sol\":25560:25672  require(... */\n      tag_286\n      jumpi\n      mload(0x40)\n      shl(0xe5, 0x461bcd)\n      dup2\n      mstore\n        /* \"#utility.yul\":5973:5975   */\n      0x20\n        /* \"shoaib_flattened.sol\":25560:25672  require(... */\n      0x04\n      dup3\n      add\n        /* \"#utility.yul\":5955:5976   */\n      mstore\n        /* \"#utility.yul\":6012:6014   */\n      0x26\n        /* \"#utility.yul\":5992:6010   */\n      0x24\n      dup3\n      add\n        /* \"#utility.yul\":5985:6015   */\n      mstore\n        /* \"#utility.yul\":6051:6085   */\n      0x7a65726f20616464726573732063616e206e6f74206265207468652046656541\n        /* \"#utility.yul\":6031:6049   */\n      0x44\n      dup3\n      add\n        /* \"#utility.yul\":6024:6086   */\n      mstore\n      shl(0xd2, 0x18d8dbdd5b9d)\n        /* \"#utility.yul\":6102:6120   */\n      0x64\n      dup3\n      add\n        /* \"#utility.yul\":6095:6131   */\n      mstore\n        /* \"#utility.yul\":6148:6167   */\n      0x84\n      add\n        /* \"shoaib_flattened.sol\":25560:25672  require(... */\n      tag_195\n        /* \"#utility.yul\":5771:6173   */\n      jump\n        /* \"shoaib_flattened.sol\":25560:25672  require(... */\n    tag_286:\n        /* \"shoaib_flattened.sol\":25683:25714  _marketingAndDevelopmentAccount */\n      0x13\n        /* \"shoaib_flattened.sol\":25683:25730  _marketingAndDevelopmentAccount = newFeeAccount */\n      dup1\n      sload\n      sub(shl(0xa0, 0x01), 0x01)\n      dup4\n      and\n      not(sub(shl(0xa0, 0x01), 0x01))\n      swap1\n      swap2\n      and\n      or\n      swap1\n      sstore\n        /* \"shoaib_flattened.sol\":25478:25737  function changeMarketingAccount(address newFeeAccount) public onlyOwner {... */\n      pop\n      jump\t// out\n        /* \"shoaib_flattened.sol\":28257:28371  function openTrading() external onlyOwner {... */\n    tag_159:\n        /* \"shoaib_flattened.sol\":24132:24138  _owner */\n      sload(0x0b)\n        /* \"shoaib_flattened.sol\":24197:24207  msg.sender */\n      caller\n      swap1\n        /* \"shoaib_flattened.sol\":24132:24138  _owner */\n      0x0100\n      swap1\n      div\n      sub(shl(0xa0, 0x01), 0x01)\n      and\n      sub(shl(0xa0, 0x01), 0x01)\n        /* \"shoaib_flattened.sol\":24186:24207  owner() == msg.sender */\n      and\n      sub\n        /* \"shoaib_flattened.sol\":24182:24210  if (owner() == msg.sender) _ */\n      tag_254\n      jumpi\n        /* \"shoaib_flattened.sol\":28309:28320  tradingOpen */\n      0x17\n        /* \"shoaib_flattened.sol\":28309:28327  tradingOpen = true */\n      dup1\n      sload\n      not(0xff)\n      and\n        /* \"shoaib_flattened.sol\":28323:28327  true */\n      0x01\n        /* \"shoaib_flattened.sol\":28309:28327  tradingOpen = true */\n      or\n      swap1\n      sstore\n        /* \"shoaib_flattened.sol\":28352:28364  block.number */\n      number\n        /* \"shoaib_flattened.sol\":28338:28349  launchBlock */\n      0x16\n        /* \"shoaib_flattened.sol\":28338:28364  launchBlock = block.number */\n      sstore\n        /* \"shoaib_flattened.sol\":28257:28371  function openTrading() external onlyOwner {... */\n      jump\t// out\n        /* \"shoaib_flattened.sol\":35535:35631  function transferOwnership(address newOwner) public onlyOwner {... */\n    tag_178:\n        /* \"shoaib_flattened.sol\":24132:24138  _owner */\n      sload(0x0b)\n        /* \"shoaib_flattened.sol\":24197:24207  msg.sender */\n      caller\n      swap1\n        /* \"shoaib_flattened.sol\":24132:24138  _owner */\n      0x0100\n      swap1\n      div\n      sub(shl(0xa0, 0x01), 0x01)\n      and\n      sub(shl(0xa0, 0x01), 0x01)\n        /* \"shoaib_flattened.sol\":24186:24207  owner() == msg.sender */\n      and\n      sub\n        /* \"shoaib_flattened.sol\":24182:24210  if (owner() == msg.sender) _ */\n      tag_226\n      jumpi\n        /* \"shoaib_flattened.sol\":35607:35613  _owner */\n      0x0b\n        /* \"shoaib_flattened.sol\":35607:35624  _owner = newOwner */\n      dup1\n      sload\n      sub(shl(0xa0, 0x01), 0x01)\n      dup4\n      and\n      0x0100\n      mul\n      not(sub(shl(0xa8, 0x01), 0x0100))\n      swap1\n      swap2\n      and\n      or\n      swap1\n      sstore\n        /* \"shoaib_flattened.sol\":35535:35631  function transferOwnership(address newOwner) public onlyOwner {... */\n      pop\n      jump\t// out\n        /* \"shoaib_flattened.sol\":27458:27934  function includeAccountinReward(address account) public onlyOwner {... */\n    tag_186:\n        /* \"shoaib_flattened.sol\":24132:24138  _owner */\n      sload(0x0b)\n        /* \"shoaib_flattened.sol\":24197:24207  msg.sender */\n      caller\n      swap1\n        /* \"shoaib_flattened.sol\":24132:24138  _owner */\n      0x0100\n      swap1\n      div\n      sub(shl(0xa0, 0x01), 0x01)\n      and\n      sub(shl(0xa0, 0x01), 0x01)\n        /* \"shoaib_flattened.sol\":24186:24207  owner() == msg.sender */\n      and\n      sub\n        /* \"shoaib_flattened.sol\":24182:24210  if (owner() == msg.sender) _ */\n      tag_226\n      jumpi\n      sub(shl(0xa0, 0x01), 0x01)\n        /* \"shoaib_flattened.sol\":27542:27562  _isExcluded[account] */\n      dup2\n      and\n      0x00\n      swap1\n      dup2\n      mstore\n        /* \"shoaib_flattened.sol\":27542:27553  _isExcluded */\n      0x09\n        /* \"shoaib_flattened.sol\":27542:27562  _isExcluded[account] */\n      0x20\n      mstore\n      0x40\n      swap1\n      keccak256\n      sload\n      0xff\n      and\n        /* \"shoaib_flattened.sol\":27534:27594  require(_isExcluded[account], \"Account is already included\") */\n      tag_304\n      jumpi\n      mload(0x40)\n      shl(0xe5, 0x461bcd)\n      dup2\n      mstore\n        /* \"#utility.yul\":6380:6382   */\n      0x20\n        /* \"shoaib_flattened.sol\":27534:27594  require(_isExcluded[account], \"Account is already included\") */\n      0x04\n      dup3\n      add\n        /* \"#utility.yul\":6362:6383   */\n      mstore\n        /* \"#utility.yul\":6419:6421   */\n      0x1b\n        /* \"#utility.yul\":6399:6417   */\n      0x24\n      dup3\n      add\n        /* \"#utility.yul\":6392:6422   */\n      mstore\n        /* \"#utility.yul\":6458:6487   */\n      0x4163636f756e7420697320616c726561647920696e636c756465640000000000\n        /* \"#utility.yul\":6438:6456   */\n      0x44\n      dup3\n      add\n        /* \"#utility.yul\":6431:6488   */\n      mstore\n        /* \"#utility.yul\":6505:6523   */\n      0x64\n      add\n        /* \"shoaib_flattened.sol\":27534:27594  require(_isExcluded[account], \"Account is already included\") */\n      tag_195\n        /* \"#utility.yul\":6178:6529   */\n      jump\n        /* \"shoaib_flattened.sol\":27534:27594  require(_isExcluded[account], \"Account is already included\") */\n    tag_304:\n        /* \"shoaib_flattened.sol\":27610:27619  uint256 i */\n      0x00\n        /* \"shoaib_flattened.sol\":27605:27928  for (uint256 i = 0; i < _excluded.length; i++) {... */\n    tag_307:\n        /* \"shoaib_flattened.sol\":27629:27638  _excluded */\n      0x0a\n        /* \"shoaib_flattened.sol\":27629:27645  _excluded.length */\n      sload\n        /* \"shoaib_flattened.sol\":27625:27645  i < _excluded.length */\n      dup2\n      lt\n        /* \"shoaib_flattened.sol\":27605:27928  for (uint256 i = 0; i < _excluded.length; i++) {... */\n      iszero\n      tag_308\n      jumpi\n        /* \"shoaib_flattened.sol\":27686:27693  account */\n      dup2\n      sub(shl(0xa0, 0x01), 0x01)\n        /* \"shoaib_flattened.sol\":27670:27693  _excluded[i] == account */\n      and\n        /* \"shoaib_flattened.sol\":27670:27679  _excluded */\n      0x0a\n        /* \"shoaib_flattened.sol\":27680:27681  i */\n      dup3\n        /* \"shoaib_flattened.sol\":27670:27682  _excluded[i] */\n      dup2\n      sload\n      dup2\n      lt\n      tag_311\n      jumpi\n      tag_311\n      tag_312\n      jump\t// in\n    tag_311:\n      0x00\n      swap2\n      dup3\n      mstore\n      0x20\n      swap1\n      swap2\n      keccak256\n      add\n      sload\n      sub(shl(0xa0, 0x01), 0x01)\n      and\n        /* \"shoaib_flattened.sol\":27670:27693  _excluded[i] == account */\n      sub\n        /* \"shoaib_flattened.sol\":27666:27918  if (_excluded[i] == account) {... */\n      tag_314\n      jumpi\n        /* \"shoaib_flattened.sol\":27728:27737  _excluded */\n      0x0a\n        /* \"shoaib_flattened.sol\":27738:27754  _excluded.length */\n      dup1\n      sload\n        /* \"shoaib_flattened.sol\":27738:27758  _excluded.length - 1 */\n      tag_315\n      swap1\n        /* \"shoaib_flattened.sol\":27757:27758  1 */\n      0x01\n      swap1\n        /* \"shoaib_flattened.sol\":27738:27758  _excluded.length - 1 */\n      tag_200\n      jump\t// in\n    tag_315:\n        /* \"shoaib_flattened.sol\":27728:27759  _excluded[_excluded.length - 1] */\n      dup2\n      sload\n      dup2\n      lt\n      tag_317\n      jumpi\n      tag_317\n      tag_312\n      jump\t// in\n    tag_317:\n      0x00\n      swap2\n      dup3\n      mstore\n      0x20\n      swap1\n      swap2\n      keccak256\n      add\n      sload\n        /* \"shoaib_flattened.sol\":27713:27722  _excluded */\n      0x0a\n        /* \"shoaib_flattened.sol\":27713:27725  _excluded[i] */\n      dup1\n      sload\n      sub(shl(0xa0, 0x01), 0x01)\n        /* \"shoaib_flattened.sol\":27728:27759  _excluded[_excluded.length - 1] */\n      swap1\n      swap3\n      and\n      swap2\n        /* \"shoaib_flattened.sol\":27723:27724  i */\n      dup4\n      swap1\n        /* \"shoaib_flattened.sol\":27713:27725  _excluded[i] */\n      dup2\n      lt\n      tag_320\n      jumpi\n      tag_320\n      tag_312\n      jump\t// in\n    tag_320:\n      0x00\n      swap2\n      dup3\n      mstore\n      0x20\n      dup1\n      dup4\n      keccak256\n      swap2\n      swap1\n      swap2\n      add\n        /* \"shoaib_flattened.sol\":27713:27759  _excluded[i] = _excluded[_excluded.length - 1] */\n      dup1\n      sload\n      not(sub(shl(0xa0, 0x01), 0x01))\n      and\n      sub(shl(0xa0, 0x01), 0x01)\n      swap5\n      dup6\n      and\n      or\n      swap1\n      sstore\n        /* \"shoaib_flattened.sol\":27778:27794  _tOwned[account] */\n      swap2\n      dup5\n      and\n      dup2\n      mstore\n        /* \"shoaib_flattened.sol\":27778:27785  _tOwned */\n      0x06\n        /* \"shoaib_flattened.sol\":27778:27794  _tOwned[account] */\n      dup3\n      mstore\n      0x40\n      dup1\n      dup3\n      keccak256\n        /* \"shoaib_flattened.sol\":27778:27798  _tOwned[account] = 0 */\n      dup3\n      swap1\n      sstore\n        /* \"shoaib_flattened.sol\":27817:27828  _isExcluded */\n      0x09\n        /* \"shoaib_flattened.sol\":27817:27837  _isExcluded[account] */\n      swap1\n      swap3\n      mstore\n      keccak256\n        /* \"shoaib_flattened.sol\":27817:27845  _isExcluded[account] = false */\n      dup1\n      sload\n      not(0xff)\n      and\n      swap1\n      sstore\n        /* \"shoaib_flattened.sol\":27864:27873  _excluded */\n      0x0a\n        /* \"shoaib_flattened.sol\":27864:27879  _excluded.pop() */\n      dup1\n      sload\n      dup1\n      tag_323\n      jumpi\n      tag_323\n      tag_324\n      jump\t// in\n    tag_323:\n      0x00\n      dup3\n      dup2\n      mstore\n      0x20\n      swap1\n      keccak256\n      dup2\n      add\n      not(0x00)\n      swap1\n      dup2\n      add\n      dup1\n      sload\n      not(sub(shl(0xa0, 0x01), 0x01))\n      and\n      swap1\n      sstore\n      add\n      swap1\n      sstore\n        /* \"shoaib_flattened.sol\":27605:27928  for (uint256 i = 0; i < _excluded.length; i++) {... */\n      pop\n        /* \"shoaib_flattened.sol\":27458:27934  function includeAccountinReward(address account) public onlyOwner {... */\n      pop\n      jump\t// out\n        /* \"shoaib_flattened.sol\":27666:27918  if (_excluded[i] == account) {... */\n    tag_314:\n        /* \"shoaib_flattened.sol\":27647:27650  i++ */\n      0x01\n      add\n        /* \"shoaib_flattened.sol\":27605:27928  for (uint256 i = 0; i < _excluded.length; i++) {... */\n      jump(tag_307)\n    tag_308:\n      pop\n        /* \"shoaib_flattened.sol\":27458:27934  function includeAccountinReward(address account) public onlyOwner {... */\n      pop\n      jump\t// out\n        /* \"shoaib_flattened.sol\":33766:34308  function _getTransferValues(uint256 tAmount)... */\n    tag_198:\n        /* \"shoaib_flattened.sol\":33870:33877  uint256 */\n      0x00\n        /* \"shoaib_flattened.sol\":33891:33898  uint256 */\n      0x00\n        /* \"shoaib_flattened.sol\":33912:33919  uint256 */\n      0x00\n        /* \"shoaib_flattened.sol\":33933:33940  uint256 */\n      0x00\n        /* \"shoaib_flattened.sol\":33965:33981  uint256 taxValue */\n      0x00\n        /* \"shoaib_flattened.sol\":33984:34013  _getCompleteTaxValue(tAmount) */\n      tag_328\n        /* \"shoaib_flattened.sol\":34005:34012  tAmount */\n      dup7\n        /* \"shoaib_flattened.sol\":33984:34004  _getCompleteTaxValue */\n      tag_329\n        /* \"shoaib_flattened.sol\":33984:34013  _getCompleteTaxValue(tAmount) */\n      jump\t// in\n    tag_328:\n        /* \"shoaib_flattened.sol\":33965:34013  uint256 taxValue = _getCompleteTaxValue(tAmount) */\n      swap1\n      pop\n        /* \"shoaib_flattened.sol\":34024:34047  uint256 tTransferAmount */\n      0x00\n        /* \"shoaib_flattened.sol\":34050:34068  tAmount - taxValue */\n      tag_330\n        /* \"shoaib_flattened.sol\":33965:34013  uint256 taxValue = _getCompleteTaxValue(tAmount) */\n      dup3\n        /* \"shoaib_flattened.sol\":34050:34057  tAmount */\n      dup9\n        /* \"shoaib_flattened.sol\":34050:34068  tAmount - taxValue */\n      tag_200\n      jump\t// in\n    tag_330:\n        /* \"shoaib_flattened.sol\":34024:34068  uint256 tTransferAmount = tAmount - taxValue */\n      swap1\n      pop\n        /* \"shoaib_flattened.sol\":34079:34098  uint256 currentRate */\n      0x00\n        /* \"shoaib_flattened.sol\":34101:34111  _getRate() */\n      tag_331\n        /* \"shoaib_flattened.sol\":34101:34109  _getRate */\n      tag_332\n        /* \"shoaib_flattened.sol\":34101:34111  _getRate() */\n      jump\t// in\n    tag_331:\n        /* \"shoaib_flattened.sol\":34079:34111  uint256 currentRate = _getRate() */\n      swap1\n      pop\n        /* \"shoaib_flattened.sol\":34122:34145  uint256 rTransferAmount */\n      0x00\n        /* \"shoaib_flattened.sol\":34148:34177  tTransferAmount * currentRate */\n      tag_333\n        /* \"shoaib_flattened.sol\":34079:34111  uint256 currentRate = _getRate() */\n      dup3\n        /* \"shoaib_flattened.sol\":34148:34163  tTransferAmount */\n      dup5\n        /* \"shoaib_flattened.sol\":34148:34177  tTransferAmount * currentRate */\n      tag_334\n      jump\t// in\n    tag_333:\n        /* \"shoaib_flattened.sol\":34122:34177  uint256 rTransferAmount = tTransferAmount * currentRate */\n      swap1\n      pop\n        /* \"shoaib_flattened.sol\":34188:34203  uint256 rAmount */\n      0x00\n        /* \"shoaib_flattened.sol\":34206:34227  tAmount * currentRate */\n      tag_335\n        /* \"shoaib_flattened.sol\":34216:34227  currentRate */\n      dup4\n        /* \"shoaib_flattened.sol\":34206:34213  tAmount */\n      dup12\n        /* \"shoaib_flattened.sol\":34206:34227  tAmount * currentRate */\n      tag_334\n      jump\t// in\n    tag_335:\n        /* \"shoaib_flattened.sol\":34188:34227  uint256 rAmount = tAmount * currentRate */\n      swap11\n        /* \"shoaib_flattened.sol\":34255:34270  rTransferAmount */\n      swap2\n      swap10\n      pop\n        /* \"shoaib_flattened.sol\":34272:34287  tTransferAmount */\n      swap3\n      swap8\n      pop\n        /* \"shoaib_flattened.sol\":34289:34300  currentRate */\n      swap1\n      swap6\n      pop\n        /* \"shoaib_flattened.sol\":33766:34308  function _getTransferValues(uint256 tAmount)... */\n      swap4\n      pop\n      pop\n      pop\n      pop\n      jump\t// out\n        /* \"shoaib_flattened.sol\":19910:20068  function _approve(... */\n    tag_214:\n        /* \"shoaib_flattened.sol\":20024:20061  _approve(owner, spender, value, true) */\n      tag_337\n        /* \"shoaib_flattened.sol\":20033:20038  owner */\n      dup4\n        /* \"shoaib_flattened.sol\":20040:20047  spender */\n      dup4\n        /* \"shoaib_flattened.sol\":20049:20054  value */\n      dup4\n        /* \"shoaib_flattened.sol\":20056:20060  true */\n      0x01\n        /* \"shoaib_flattened.sol\":20024:20032  _approve */\n      tag_338\n        /* \"shoaib_flattened.sol\":20024:20061  _approve(owner, spender, value, true) */\n      jump\t// in\n    tag_337:\n        /* \"shoaib_flattened.sol\":19910:20068  function _approve(... */\n      pop\n      pop\n      pop\n      jump\t// out\n        /* \"shoaib_flattened.sol\":21667:22251  function _spendAllowance(... */\n    tag_219:\n      sub(shl(0xa0, 0x01), 0x01)\n        /* \"shoaib_flattened.sol\":14715:14733  _allowances[owner] */\n      dup4\n      dup2\n      and\n        /* \"shoaib_flattened.sol\":21796:21820  uint256 currentAllowance */\n      0x00\n        /* \"shoaib_flattened.sol\":14715:14733  _allowances[owner] */\n      swap1\n      dup2\n      mstore\n        /* \"shoaib_flattened.sol\":14715:14726  _allowances */\n      0x01\n        /* \"shoaib_flattened.sol\":14715:14733  _allowances[owner] */\n      0x20\n      swap1\n      dup2\n      mstore\n      0x40\n      dup1\n      dup4\n      keccak256\n        /* \"shoaib_flattened.sol\":14715:14742  _allowances[owner][spender] */\n      swap4\n      dup7\n      and\n      dup4\n      mstore\n      swap3\n      swap1\n      mstore\n      keccak256\n      sload\n      not(0x00)\n        /* \"shoaib_flattened.sol\":21862:21898  currentAllowance < type(uint256).max */\n      dup2\n      lt\n        /* \"shoaib_flattened.sol\":21858:22245  if (currentAllowance < type(uint256).max) {... */\n      iszero\n      tag_345\n      jumpi\n        /* \"shoaib_flattened.sol\":21937:21942  value */\n      dup2\n        /* \"shoaib_flattened.sol\":21918:21934  currentAllowance */\n      dup2\n        /* \"shoaib_flattened.sol\":21918:21942  currentAllowance < value */\n      lt\n        /* \"shoaib_flattened.sol\":21914:22122  if (currentAllowance < value) {... */\n      iszero\n      tag_342\n      jumpi\n        /* \"shoaib_flattened.sol\":21969:22107  ERC20InsufficientAllowance(... */\n      mload(0x40)\n      shl(0xe1, 0x7dc7a0d9)\n      dup2\n      mstore\n      sub(shl(0xa0, 0x01), 0x01)\n        /* \"#utility.yul\":7191:7223   */\n      dup5\n      and\n        /* \"shoaib_flattened.sol\":21969:22107  ERC20InsufficientAllowance(... */\n      0x04\n      dup3\n      add\n        /* \"#utility.yul\":7173:7224   */\n      mstore\n        /* \"#utility.yul\":7240:7258   */\n      0x24\n      dup2\n      add\n        /* \"#utility.yul\":7233:7267   */\n      dup3\n      swap1\n      mstore\n        /* \"#utility.yul\":7283:7301   */\n      0x44\n      dup2\n      add\n        /* \"#utility.yul\":7276:7310   */\n      dup4\n      swap1\n      mstore\n        /* \"#utility.yul\":7146:7164   */\n      0x64\n      add\n        /* \"shoaib_flattened.sol\":21969:22107  ERC20InsufficientAllowance(... */\n      tag_195\n        /* \"#utility.yul\":6971:7316   */\n      jump\n        /* \"shoaib_flattened.sol\":21914:22122  if (currentAllowance < value) {... */\n    tag_342:\n        /* \"shoaib_flattened.sol\":22163:22220  _approve(owner, spender, currentAllowance - value, false) */\n      tag_345\n        /* \"shoaib_flattened.sol\":22172:22177  owner */\n      dup5\n        /* \"shoaib_flattened.sol\":22179:22186  spender */\n      dup5\n        /* \"shoaib_flattened.sol\":22207:22212  value */\n      dup5\n        /* \"shoaib_flattened.sol\":22188:22204  currentAllowance */\n      dup5\n        /* \"shoaib_flattened.sol\":22188:22212  currentAllowance - value */\n      sub\n        /* \"shoaib_flattened.sol\":22214:22219  false */\n      0x00\n        /* \"shoaib_flattened.sol\":22163:22171  _approve */\n      tag_338\n        /* \"shoaib_flattened.sol\":22163:22220  _approve(owner, spender, currentAllowance - value, false) */\n      jump\t// in\n    tag_345:\n        /* \"shoaib_flattened.sol\":21786:22251  {... */\n      pop\n        /* \"shoaib_flattened.sol\":21667:22251  function _spendAllowance(... */\n      pop\n      pop\n      pop\n      jump\t// out\n        /* \"shoaib_flattened.sol\":28755:29719  function _transfer(... */\n    tag_221:\n        /* \"shoaib_flattened.sol\":28444:28455  tradingOpen */\n      sload(0x17)\n        /* \"shoaib_flattened.sol\":28898:28904  sender */\n      dup4\n      swap1\n        /* \"shoaib_flattened.sol\":28906:28915  recipient */\n      dup4\n      swap1\n        /* \"shoaib_flattened.sol\":28444:28455  tradingOpen */\n      0xff\n      and\n        /* \"shoaib_flattened.sol\":28439:28731  if (!tradingOpen) {... */\n      tag_347\n      jumpi\n      sub(shl(0xa0, 0x01), 0x01)\n        /* \"shoaib_flattened.sol\":28479:28498  isWhitelisted[from] */\n      dup3\n      and\n      0x00\n      swap1\n      dup2\n      mstore\n        /* \"shoaib_flattened.sol\":28479:28492  isWhitelisted */\n      0x08\n        /* \"shoaib_flattened.sol\":28479:28498  isWhitelisted[from] */\n      0x20\n      mstore\n      0x40\n      swap1\n      keccak256\n      sload\n      0xff\n      and\n        /* \"shoaib_flattened.sol\":28471:28526  require(isWhitelisted[from], \"Trading not yet enabled\") */\n      tag_348\n      jumpi\n      mload(0x40)\n      shl(0xe5, 0x461bcd)\n      dup2\n      mstore\n        /* \"#utility.yul\":7523:7525   */\n      0x20\n        /* \"shoaib_flattened.sol\":28471:28526  require(isWhitelisted[from], \"Trading not yet enabled\") */\n      0x04\n      dup3\n      add\n        /* \"#utility.yul\":7505:7526   */\n      mstore\n        /* \"#utility.yul\":7562:7564   */\n      0x17\n        /* \"#utility.yul\":7542:7560   */\n      0x24\n      dup3\n      add\n        /* \"#utility.yul\":7535:7565   */\n      mstore\n        /* \"#utility.yul\":7601:7626   */\n      0x54726164696e67206e6f742079657420656e61626c6564000000000000000000\n        /* \"#utility.yul\":7581:7599   */\n      0x44\n      dup3\n      add\n        /* \"#utility.yul\":7574:7627   */\n      mstore\n        /* \"#utility.yul\":7644:7662   */\n      0x64\n      add\n        /* \"shoaib_flattened.sol\":28471:28526  require(isWhitelisted[from], \"Trading not yet enabled\") */\n      tag_195\n        /* \"#utility.yul\":7321:7668   */\n      jump\n        /* \"shoaib_flattened.sol\":28471:28526  require(isWhitelisted[from], \"Trading not yet enabled\") */\n    tag_348:\n        /* \"shoaib_flattened.sol\":28439:28731  if (!tradingOpen) {... */\n      jump(tag_354)\n    tag_347:\n        /* \"shoaib_flattened.sol\":28563:28574  launchBlock */\n      sload(0x16)\n        /* \"shoaib_flattened.sol\":28563:28578  launchBlock + 3 */\n      tag_352\n      swap1\n        /* \"shoaib_flattened.sol\":28577:28578  3 */\n      0x03\n        /* \"shoaib_flattened.sol\":28563:28578  launchBlock + 3 */\n      tag_203\n      jump\t// in\n    tag_352:\n        /* \"shoaib_flattened.sol\":28547:28559  block.number */\n      number\n        /* \"shoaib_flattened.sol\":28547:28578  block.number <= launchBlock + 3 */\n      gt\n        /* \"shoaib_flattened.sol\":28543:28731  if (block.number <= launchBlock + 3) {... */\n      tag_354\n      jumpi\n      sub(shl(0xa0, 0x01), 0x01)\n        /* \"shoaib_flattened.sol\":28664:28681  isWhitelisted[to] */\n      dup2\n      and\n      0x00\n      swap1\n      dup2\n      mstore\n        /* \"shoaib_flattened.sol\":28664:28677  isWhitelisted */\n      0x08\n        /* \"shoaib_flattened.sol\":28664:28681  isWhitelisted[to] */\n      0x20\n      mstore\n      0x40\n      swap1\n      keccak256\n      sload\n      0xff\n      and\n        /* \"shoaib_flattened.sol\":28656:28720  require(isWhitelisted[to], \"Launch protection: not whitelisted\") */\n      tag_354\n      jumpi\n      mload(0x40)\n      shl(0xe5, 0x461bcd)\n      dup2\n      mstore\n        /* \"#utility.yul\":7875:7877   */\n      0x20\n        /* \"shoaib_flattened.sol\":28656:28720  require(isWhitelisted[to], \"Launch protection: not whitelisted\") */\n      0x04\n      dup3\n      add\n        /* \"#utility.yul\":7857:7878   */\n      mstore\n        /* \"#utility.yul\":7914:7916   */\n      0x22\n        /* \"#utility.yul\":7894:7912   */\n      0x24\n      dup3\n      add\n        /* \"#utility.yul\":7887:7917   */\n      mstore\n        /* \"#utility.yul\":7953:7987   */\n      0x4c61756e63682070726f74656374696f6e3a206e6f742077686974656c697374\n        /* \"#utility.yul\":7933:7951   */\n      0x44\n      dup3\n      add\n        /* \"#utility.yul\":7926:7988   */\n      mstore\n      shl(0xf2, 0x1959)\n        /* \"#utility.yul\":8004:8022   */\n      0x64\n      dup3\n      add\n        /* \"#utility.yul\":7997:8029   */\n      mstore\n        /* \"#utility.yul\":8046:8065   */\n      0x84\n      add\n        /* \"shoaib_flattened.sol\":28656:28720  require(isWhitelisted[to], \"Launch protection: not whitelisted\") */\n      tag_195\n        /* \"#utility.yul\":7673:8071   */\n      jump\n        /* \"shoaib_flattened.sol\":28656:28720  require(isWhitelisted[to], \"Launch protection: not whitelisted\") */\n    tag_354:\n      sub(shl(0xa0, 0x01), 0x01)\n        /* \"shoaib_flattened.sol\":28935:28955  sender != address(0) */\n      dup6\n      and\n        /* \"shoaib_flattened.sol\":28927:28997  require(sender != address(0), \"ERC20: transfer from the zero address\") */\n      tag_358\n      jumpi\n      mload(0x40)\n      shl(0xe5, 0x461bcd)\n      dup2\n      mstore\n        /* \"#utility.yul\":8278:8280   */\n      0x20\n        /* \"shoaib_flattened.sol\":28927:28997  require(sender != address(0), \"ERC20: transfer from the zero address\") */\n      0x04\n      dup3\n      add\n        /* \"#utility.yul\":8260:8281   */\n      mstore\n        /* \"#utility.yul\":8317:8319   */\n      0x25\n        /* \"#utility.yul\":8297:8315   */\n      0x24\n      dup3\n      add\n        /* \"#utility.yul\":8290:8320   */\n      mstore\n        /* \"#utility.yul\":8356:8390   */\n      0x45524332303a207472616e736665722066726f6d20746865207a65726f206164\n        /* \"#utility.yul\":8336:8354   */\n      0x44\n      dup3\n      add\n        /* \"#utility.yul\":8329:8391   */\n      mstore\n      shl(0xd8, 0x6472657373)\n        /* \"#utility.yul\":8407:8425   */\n      0x64\n      dup3\n      add\n        /* \"#utility.yul\":8400:8435   */\n      mstore\n        /* \"#utility.yul\":8452:8471   */\n      0x84\n      add\n        /* \"shoaib_flattened.sol\":28927:28997  require(sender != address(0), \"ERC20: transfer from the zero address\") */\n      tag_195\n        /* \"#utility.yul\":8076:8477   */\n      jump\n        /* \"shoaib_flattened.sol\":28927:28997  require(sender != address(0), \"ERC20: transfer from the zero address\") */\n    tag_358:\n      sub(shl(0xa0, 0x01), 0x01)\n        /* \"shoaib_flattened.sol\":29016:29039  recipient != address(0) */\n      dup5\n      and\n        /* \"shoaib_flattened.sol\":29008:29079  require(recipient != address(0), \"ERC20: transfer to the zero address\") */\n      tag_361\n      jumpi\n      mload(0x40)\n      shl(0xe5, 0x461bcd)\n      dup2\n      mstore\n        /* \"#utility.yul\":8684:8686   */\n      0x20\n        /* \"shoaib_flattened.sol\":29008:29079  require(recipient != address(0), \"ERC20: transfer to the zero address\") */\n      0x04\n      dup3\n      add\n        /* \"#utility.yul\":8666:8687   */\n      mstore\n        /* \"#utility.yul\":8723:8725   */\n      0x23\n        /* \"#utility.yul\":8703:8721   */\n      0x24\n      dup3\n      add\n        /* \"#utility.yul\":8696:8726   */\n      mstore\n        /* \"#utility.yul\":8762:8796   */\n      0x45524332303a207472616e7366657220746f20746865207a65726f2061646472\n        /* \"#utility.yul\":8742:8760   */\n      0x44\n      dup3\n      add\n        /* \"#utility.yul\":8735:8797   */\n      mstore\n      shl(0xe8, 0x657373)\n        /* \"#utility.yul\":8813:8831   */\n      0x64\n      dup3\n      add\n        /* \"#utility.yul\":8806:8839   */\n      mstore\n        /* \"#utility.yul\":8856:8875   */\n      0x84\n      add\n        /* \"shoaib_flattened.sol\":29008:29079  require(recipient != address(0), \"ERC20: transfer to the zero address\") */\n      tag_195\n        /* \"#utility.yul\":8482:8881   */\n      jump\n        /* \"shoaib_flattened.sol\":29008:29079  require(recipient != address(0), \"ERC20: transfer to the zero address\") */\n    tag_361:\n        /* \"shoaib_flattened.sol\":29090:29111  uint256 senderBalance */\n      0x00\n        /* \"shoaib_flattened.sol\":29114:29131  balanceOf(sender) */\n      tag_364\n        /* \"shoaib_flattened.sol\":29124:29130  sender */\n      dup7\n        /* \"shoaib_flattened.sol\":29114:29123  balanceOf */\n      tag_114\n        /* \"shoaib_flattened.sol\":29114:29131  balanceOf(sender) */\n      jump\t// in\n    tag_364:\n        /* \"shoaib_flattened.sol\":29090:29131  uint256 senderBalance = balanceOf(sender) */\n      swap1\n      pop\n        /* \"shoaib_flattened.sol\":29180:29186  amount */\n      dup4\n        /* \"shoaib_flattened.sol\":29163:29176  senderBalance */\n      dup2\n        /* \"shoaib_flattened.sol\":29163:29186  senderBalance >= amount */\n      lt\n      iszero\n        /* \"shoaib_flattened.sol\":29142:29250  require(... */\n      tag_365\n      jumpi\n      mload(0x40)\n      shl(0xe5, 0x461bcd)\n      dup2\n      mstore\n        /* \"#utility.yul\":9088:9090   */\n      0x20\n        /* \"shoaib_flattened.sol\":29142:29250  require(... */\n      0x04\n      dup3\n      add\n        /* \"#utility.yul\":9070:9091   */\n      mstore\n        /* \"#utility.yul\":9127:9129   */\n      0x26\n        /* \"#utility.yul\":9107:9125   */\n      0x24\n      dup3\n      add\n        /* \"#utility.yul\":9100:9130   */\n      mstore\n        /* \"#utility.yul\":9166:9200   */\n      0x45524332303a207472616e7366657220616d6f756e7420657863656564732062\n        /* \"#utility.yul\":9146:9164   */\n      0x44\n      dup3\n      add\n        /* \"#utility.yul\":9139:9201   */\n      mstore\n      shl(0xd0, 0x616c616e6365)\n        /* \"#utility.yul\":9217:9235   */\n      0x64\n      dup3\n      add\n        /* \"#utility.yul\":9210:9246   */\n      mstore\n        /* \"#utility.yul\":9263:9282   */\n      0x84\n      add\n        /* \"shoaib_flattened.sol\":29142:29250  require(... */\n      tag_195\n        /* \"#utility.yul\":8886:9288   */\n      jump\n        /* \"shoaib_flattened.sol\":29142:29250  require(... */\n    tag_365:\n      sub(shl(0xa0, 0x01), 0x01)\n        /* \"shoaib_flattened.sol\":24831:24858  _isExcludedFromFee[account] */\n      dup6\n      and\n        /* \"shoaib_flattened.sol\":24808:24812  bool */\n      0x00\n        /* \"shoaib_flattened.sol\":24831:24858  _isExcludedFromFee[account] */\n      swap1\n      dup2\n      mstore\n        /* \"shoaib_flattened.sol\":24831:24849  _isExcludedFromFee */\n      0x07\n        /* \"shoaib_flattened.sol\":24831:24858  _isExcludedFromFee[account] */\n      0x20\n      mstore\n      0x40\n      swap1\n      keccak256\n      sload\n      0xff\n      and\n        /* \"shoaib_flattened.sol\":29261:29444  if (!isExcludedFromFee(recipient)) {... */\n      tag_372\n      jumpi\n        /* \"shoaib_flattened.sol\":29368:29383  maxWalletAmount */\n      sload(0x15)\n        /* \"shoaib_flattened.sol\":29358:29364  amount */\n      dup5\n        /* \"shoaib_flattened.sol\":29335:29355  balanceOf(recipient) */\n      tag_370\n        /* \"shoaib_flattened.sol\":29345:29354  recipient */\n      dup8\n        /* \"shoaib_flattened.sol\":29335:29344  balanceOf */\n      tag_114\n        /* \"shoaib_flattened.sol\":29335:29355  balanceOf(recipient) */\n      jump\t// in\n    tag_370:\n        /* \"shoaib_flattened.sol\":29335:29364  balanceOf(recipient) + amount */\n      tag_371\n      swap2\n      swap1\n      tag_203\n      jump\t// in\n    tag_371:\n        /* \"shoaib_flattened.sol\":29335:29383  balanceOf(recipient) + amount <= maxWalletAmount */\n      gt\n      iszero\n        /* \"shoaib_flattened.sol\":29310:29433  require(... */\n      tag_372\n      jumpi\n      mload(0x40)\n      shl(0xe5, 0x461bcd)\n      dup2\n      mstore\n        /* \"#utility.yul\":9495:9497   */\n      0x20\n        /* \"shoaib_flattened.sol\":29310:29433  require(... */\n      0x04\n      dup3\n      add\n        /* \"#utility.yul\":9477:9498   */\n      mstore\n        /* \"#utility.yul\":9534:9536   */\n      0x10\n        /* \"#utility.yul\":9514:9532   */\n      0x24\n      dup3\n      add\n        /* \"#utility.yul\":9507:9537   */\n      mstore\n      shl(0x80, 0x5768616c652064657465637465642121)\n        /* \"#utility.yul\":9553:9571   */\n      0x44\n      dup3\n      add\n        /* \"#utility.yul\":9546:9592   */\n      mstore\n        /* \"#utility.yul\":9609:9627   */\n      0x64\n      add\n        /* \"shoaib_flattened.sol\":29310:29433  require(... */\n      tag_195\n        /* \"#utility.yul\":9293:9633   */\n      jump\n        /* \"shoaib_flattened.sol\":29310:29433  require(... */\n    tag_372:\n        /* \"shoaib_flattened.sol\":29491:29502  pairAddress */\n      sload(0x14)\n        /* \"shoaib_flattened.sol\":29454:29466  bool takeFee */\n      0x00\n      swap1\n      sub(shl(0xa0, 0x01), 0x01)\n        /* \"shoaib_flattened.sol\":29481:29502  sender == pairAddress */\n      dup9\n      dup2\n      and\n        /* \"shoaib_flattened.sol\":29491:29502  pairAddress */\n      swap2\n      and\n        /* \"shoaib_flattened.sol\":29481:29502  sender == pairAddress */\n      eq\n      dup1\n        /* \"shoaib_flattened.sol\":29481:29530  sender == pairAddress || recipient == pairAddress */\n      tag_375\n      jumpi\n      pop\n        /* \"shoaib_flattened.sol\":29519:29530  pairAddress */\n      sload(0x14)\n      sub(shl(0xa0, 0x01), 0x01)\n        /* \"shoaib_flattened.sol\":29506:29530  recipient == pairAddress */\n      dup8\n      dup2\n      and\n        /* \"shoaib_flattened.sol\":29519:29530  pairAddress */\n      swap2\n      and\n        /* \"shoaib_flattened.sol\":29506:29530  recipient == pairAddress */\n      eq\n        /* \"shoaib_flattened.sol\":29481:29530  sender == pairAddress || recipient == pairAddress */\n    tag_375:\n        /* \"shoaib_flattened.sol\":29477:29571  if (sender == pairAddress || recipient == pairAddress) {... */\n      iszero\n      tag_376\n      jumpi\n      pop\n        /* \"shoaib_flattened.sol\":29556:29560  true */\n      0x01\n        /* \"shoaib_flattened.sol\":29477:29571  if (sender == pairAddress || recipient == pairAddress) {... */\n    tag_376:\n      sub(shl(0xa0, 0x01), 0x01)\n        /* \"shoaib_flattened.sol\":24831:24858  _isExcludedFromFee[account] */\n      dup8\n      and\n        /* \"shoaib_flattened.sol\":24808:24812  bool */\n      0x00\n        /* \"shoaib_flattened.sol\":24831:24858  _isExcludedFromFee[account] */\n      swap1\n      dup2\n      mstore\n        /* \"shoaib_flattened.sol\":24831:24849  _isExcludedFromFee */\n      0x07\n        /* \"shoaib_flattened.sol\":24831:24858  _isExcludedFromFee[account] */\n      0x20\n      mstore\n      0x40\n      swap1\n      keccak256\n      sload\n      0xff\n      and\n        /* \"shoaib_flattened.sol\":29581:29652  if (isExcludedFromFee(sender)) {... */\n      iszero\n      tag_378\n      jumpi\n      pop\n        /* \"shoaib_flattened.sol\":29636:29641  false */\n      0x00\n        /* \"shoaib_flattened.sol\":29581:29652  if (isExcludedFromFee(sender)) {... */\n    tag_378:\n        /* \"shoaib_flattened.sol\":29662:29712  _tokenTransfer(sender, recipient, amount, takeFee) */\n      tag_379\n        /* \"shoaib_flattened.sol\":29677:29683  sender */\n      dup8\n        /* \"shoaib_flattened.sol\":29685:29694  recipient */\n      dup8\n        /* \"shoaib_flattened.sol\":29696:29702  amount */\n      dup8\n        /* \"shoaib_flattened.sol\":29704:29711  takeFee */\n      dup5\n        /* \"shoaib_flattened.sol\":29662:29676  _tokenTransfer */\n      tag_380\n        /* \"shoaib_flattened.sol\":29662:29712  _tokenTransfer(sender, recipient, amount, takeFee) */\n      jump\t// in\n    tag_379:\n        /* \"shoaib_flattened.sol\":28917:29719  {... */\n      pop\n      pop\n        /* \"shoaib_flattened.sol\":28755:29719  function _transfer(... */\n      pop\n      pop\n      pop\n      pop\n      pop\n      jump\t// out\n        /* \"shoaib_flattened.sol\":26800:27111  function tokenFromReflection(uint256 rAmount)... */\n    tag_247:\n        /* \"shoaib_flattened.sol\":26892:26899  uint256 */\n      0x00\n        /* \"shoaib_flattened.sol\":26947:26954  _rTotal */\n      sload(0x0d)\n        /* \"shoaib_flattened.sol\":26936:26943  rAmount */\n      dup3\n        /* \"shoaib_flattened.sol\":26936:26954  rAmount <= _rTotal */\n      gt\n      iszero\n        /* \"shoaib_flattened.sol\":26915:27022  require(... */\n      tag_382\n      jumpi\n      mload(0x40)\n      shl(0xe5, 0x461bcd)\n      dup2\n      mstore\n        /* \"#utility.yul\":9840:9842   */\n      0x20\n        /* \"shoaib_flattened.sol\":26915:27022  require(... */\n      0x04\n      dup3\n      add\n        /* \"#utility.yul\":9822:9843   */\n      mstore\n        /* \"#utility.yul\":9879:9881   */\n      0x2a\n        /* \"#utility.yul\":9859:9877   */\n      0x24\n      dup3\n      add\n        /* \"#utility.yul\":9852:9882   */\n      mstore\n        /* \"#utility.yul\":9918:9952   */\n      0x416d6f756e74206d757374206265206c657373207468616e20746f74616c2072\n        /* \"#utility.yul\":9898:9916   */\n      0x44\n      dup3\n      add\n        /* \"#utility.yul\":9891:9953   */\n      mstore\n      shl(0xb0, 0x65666c656374696f6e73)\n        /* \"#utility.yul\":9969:9987   */\n      0x64\n      dup3\n      add\n        /* \"#utility.yul\":9962:10002   */\n      mstore\n        /* \"#utility.yul\":10019:10038   */\n      0x84\n      add\n        /* \"shoaib_flattened.sol\":26915:27022  require(... */\n      tag_195\n        /* \"#utility.yul\":9638:10044   */\n      jump\n        /* \"shoaib_flattened.sol\":26915:27022  require(... */\n    tag_382:\n        /* \"shoaib_flattened.sol\":27033:27052  uint256 currentRate */\n      0x00\n        /* \"shoaib_flattened.sol\":27055:27065  _getRate() */\n      tag_385\n        /* \"shoaib_flattened.sol\":27055:27063  _getRate */\n      tag_332\n        /* \"shoaib_flattened.sol\":27055:27065  _getRate() */\n      jump\t// in\n    tag_385:\n        /* \"shoaib_flattened.sol\":27033:27065  uint256 currentRate = _getRate() */\n      swap1\n      pop\n        /* \"shoaib_flattened.sol\":27083:27104  rAmount / currentRate */\n      tag_386\n        /* \"shoaib_flattened.sol\":27033:27065  uint256 currentRate = _getRate() */\n      dup2\n        /* \"shoaib_flattened.sol\":27083:27090  rAmount */\n      dup5\n        /* \"shoaib_flattened.sol\":27083:27104  rAmount / currentRate */\n      tag_387\n      jump\t// in\n    tag_386:\n        /* \"shoaib_flattened.sol\":27076:27104  return rAmount / currentRate */\n      swap4\n        /* \"shoaib_flattened.sol\":26800:27111  function tokenFromReflection(uint256 rAmount)... */\n      swap3\n      pop\n      pop\n      pop\n      jump\t// out\n        /* \"shoaib_flattened.sol\":33512:33760  function _getCompleteTaxValue(uint256 tAmount)... */\n    tag_329:\n        /* \"shoaib_flattened.sol\":33605:33612  uint256 */\n      0x00\n        /* \"shoaib_flattened.sol\":33628:33644  uint256 allTaxes */\n      0x00\n        /* \"shoaib_flattened.sol\":33664:33671  _taxFee */\n      sload(0x11)\n        /* \"shoaib_flattened.sol\":33647:33661  _reflectionFee */\n      sload(0x0f)\n        /* \"shoaib_flattened.sol\":33647:33671  _reflectionFee + _taxFee */\n      tag_389\n      swap2\n      swap1\n      tag_203\n      jump\t// in\n    tag_389:\n        /* \"shoaib_flattened.sol\":33628:33671  uint256 allTaxes = _reflectionFee + _taxFee */\n      swap1\n      pop\n        /* \"shoaib_flattened.sol\":33682:33698  uint256 taxValue */\n      0x00\n        /* \"shoaib_flattened.sol\":33724:33727  100 */\n      0x64\n        /* \"shoaib_flattened.sol\":33702:33720  tAmount * allTaxes */\n      tag_390\n        /* \"shoaib_flattened.sol\":33628:33671  uint256 allTaxes = _reflectionFee + _taxFee */\n      dup4\n        /* \"shoaib_flattened.sol\":33702:33709  tAmount */\n      dup7\n        /* \"shoaib_flattened.sol\":33702:33720  tAmount * allTaxes */\n      tag_334\n      jump\t// in\n    tag_390:\n        /* \"shoaib_flattened.sol\":33701:33727  (tAmount * allTaxes) / 100 */\n      tag_391\n      swap2\n      swap1\n      tag_387\n      jump\t// in\n    tag_391:\n        /* \"shoaib_flattened.sol\":33682:33727  uint256 taxValue = (tAmount * allTaxes) / 100 */\n      swap5\n        /* \"shoaib_flattened.sol\":33512:33760  function _getCompleteTaxValue(uint256 tAmount)... */\n      swap4\n      pop\n      pop\n      pop\n      pop\n      jump\t// out\n        /* \"shoaib_flattened.sol\":34571:34730  function _getRate() private view returns (uint256) {... */\n    tag_332:\n        /* \"shoaib_flattened.sol\":34613:34620  uint256 */\n      0x00\n        /* \"shoaib_flattened.sol\":34633:34648  uint256 rSupply */\n      0x00\n        /* \"shoaib_flattened.sol\":34650:34665  uint256 tSupply */\n      0x00\n        /* \"shoaib_flattened.sol\":34669:34688  _getCurrentSupply() */\n      tag_393\n        /* \"shoaib_flattened.sol\":34669:34686  _getCurrentSupply */\n      tag_394\n        /* \"shoaib_flattened.sol\":34669:34688  _getCurrentSupply() */\n      jump\t// in\n    tag_393:\n        /* \"shoaib_flattened.sol\":34632:34688  (uint256 rSupply, uint256 tSupply) = _getCurrentSupply() */\n      swap1\n      swap3\n      pop\n      swap1\n      pop\n        /* \"shoaib_flattened.sol\":34706:34723  rSupply / tSupply */\n      tag_395\n        /* \"shoaib_flattened.sol\":34632:34688  (uint256 rSupply, uint256 tSupply) = _getCurrentSupply() */\n      dup2\n      dup4\n        /* \"shoaib_flattened.sol\":34706:34723  rSupply / tSupply */\n      tag_387\n      jump\t// in\n    tag_395:\n        /* \"shoaib_flattened.sol\":34699:34723  return rSupply / tSupply */\n      swap3\n      pop\n      pop\n      pop\n        /* \"shoaib_flattened.sol\":34571:34730  function _getRate() private view returns (uint256) {... */\n      swap1\n      jump\t// out\n        /* \"shoaib_flattened.sol\":20915:21385  function _approve(... */\n    tag_338:\n      sub(shl(0xa0, 0x01), 0x01)\n        /* \"shoaib_flattened.sol\":21065:21084  owner == address(0) */\n      dup5\n      and\n        /* \"shoaib_flattened.sol\":21061:21150  if (owner == address(0)) {... */\n      tag_397\n      jumpi\n        /* \"shoaib_flattened.sol\":21107:21139  ERC20InvalidApprover(address(0)) */\n      mload(0x40)\n      shl(0xe0, 0xe602df05)\n      dup2\n      mstore\n        /* \"shoaib_flattened.sol\":21136:21137  0 */\n      0x00\n        /* \"shoaib_flattened.sol\":21107:21139  ERC20InvalidApprover(address(0)) */\n      0x04\n      dup3\n      add\n        /* \"#utility.yul\":2830:2881   */\n      mstore\n        /* \"#utility.yul\":2803:2821   */\n      0x24\n      add\n        /* \"shoaib_flattened.sol\":21107:21139  ERC20InvalidApprover(address(0)) */\n      tag_195\n        /* \"#utility.yul\":2684:2887   */\n      jump\n        /* \"shoaib_flattened.sol\":21061:21150  if (owner == address(0)) {... */\n    tag_397:\n      sub(shl(0xa0, 0x01), 0x01)\n        /* \"shoaib_flattened.sol\":21163:21184  spender == address(0) */\n      dup4\n      and\n        /* \"shoaib_flattened.sol\":21159:21249  if (spender == address(0)) {... */\n      tag_399\n      jumpi\n        /* \"shoaib_flattened.sol\":21207:21238  ERC20InvalidSpender(address(0)) */\n      mload(0x40)\n      shl(0xe1, 0x4a1406b1)\n      dup2\n      mstore\n        /* \"shoaib_flattened.sol\":21235:21236  0 */\n      0x00\n        /* \"shoaib_flattened.sol\":21207:21238  ERC20InvalidSpender(address(0)) */\n      0x04\n      dup3\n      add\n        /* \"#utility.yul\":2830:2881   */\n      mstore\n        /* \"#utility.yul\":2803:2821   */\n      0x24\n      add\n        /* \"shoaib_flattened.sol\":21207:21238  ERC20InvalidSpender(address(0)) */\n      tag_195\n        /* \"#utility.yul\":2684:2887   */\n      jump\n        /* \"shoaib_flattened.sol\":21159:21249  if (spender == address(0)) {... */\n    tag_399:\n      sub(shl(0xa0, 0x01), 0x01)\n        /* \"shoaib_flattened.sol\":21258:21276  _allowances[owner] */\n      dup1\n      dup6\n      and\n      0x00\n      swap1\n      dup2\n      mstore\n        /* \"shoaib_flattened.sol\":21258:21269  _allowances */\n      0x01\n        /* \"shoaib_flattened.sol\":21258:21276  _allowances[owner] */\n      0x20\n      swap1\n      dup2\n      mstore\n      0x40\n      dup1\n      dup4\n      keccak256\n        /* \"shoaib_flattened.sol\":21258:21285  _allowances[owner][spender] */\n      swap4\n      dup8\n      and\n      dup4\n      mstore\n      swap3\n      swap1\n      mstore\n      keccak256\n        /* \"shoaib_flattened.sol\":21258:21293  _allowances[owner][spender] = value */\n      dup3\n      swap1\n      sstore\n        /* \"shoaib_flattened.sol\":21303:21379  if (emitEvent) {... */\n      dup1\n      iszero\n      tag_345\n      jumpi\n        /* \"shoaib_flattened.sol\":21353:21360  spender */\n      dup3\n      sub(shl(0xa0, 0x01), 0x01)\n        /* \"shoaib_flattened.sol\":21337:21368  Approval(owner, spender, value) */\n      and\n        /* \"shoaib_flattened.sol\":21346:21351  owner */\n      dup5\n      sub(shl(0xa0, 0x01), 0x01)\n        /* \"shoaib_flattened.sol\":21337:21368  Approval(owner, spender, value) */\n      and\n      0x8c5be1e5ebec7d5bd14f71427d1e84f3dd0314c0f7b2291e5b200ac8c7c3b925\n        /* \"shoaib_flattened.sol\":21362:21367  value */\n      dup5\n        /* \"shoaib_flattened.sol\":21337:21368  Approval(owner, spender, value) */\n      mload(0x40)\n      tag_402\n      swap2\n        /* \"#utility.yul\":1489:1514   */\n      dup2\n      mstore\n        /* \"#utility.yul\":1477:1479   */\n      0x20\n        /* \"#utility.yul\":1462:1480   */\n      add\n      swap1\n        /* \"#utility.yul\":1343:1520   */\n      jump\n        /* \"shoaib_flattened.sol\":21337:21368  Approval(owner, spender, value) */\n    tag_402:\n      mload(0x40)\n      dup1\n      swap2\n      sub\n      swap1\n      log3\n        /* \"shoaib_flattened.sol\":20915:21385  function _approve(... */\n      pop\n      pop\n      pop\n      pop\n      jump\t// out\n        /* \"shoaib_flattened.sol\":29725:30494  function _tokenTransfer(... */\n    tag_380:\n        /* \"shoaib_flattened.sol\":29865:29872  takeFee */\n      dup1\n        /* \"shoaib_flattened.sol\":29860:29913  if (!takeFee) {... */\n      tag_405\n      jumpi\n        /* \"shoaib_flattened.sol\":29888:29902  removeAllFee() */\n      tag_405\n        /* \"shoaib_flattened.sol\":29888:29900  removeAllFee */\n      tag_406\n        /* \"shoaib_flattened.sol\":29888:29902  removeAllFee() */\n      jump\t// in\n    tag_405:\n      sub(shl(0xa0, 0x01), 0x01)\n        /* \"shoaib_flattened.sol\":29927:29944  _isExcluded[from] */\n      dup5\n      and\n      0x00\n      swap1\n      dup2\n      mstore\n        /* \"shoaib_flattened.sol\":29927:29938  _isExcluded */\n      0x09\n        /* \"shoaib_flattened.sol\":29927:29944  _isExcluded[from] */\n      0x20\n      mstore\n      0x40\n      swap1\n      keccak256\n      sload\n      0xff\n      and\n        /* \"shoaib_flattened.sol\":29927:29964  _isExcluded[from] && !_isExcluded[to] */\n      dup1\n      iszero\n      tag_407\n      jumpi\n      pop\n      sub(shl(0xa0, 0x01), 0x01)\n        /* \"shoaib_flattened.sol\":29949:29964  _isExcluded[to] */\n      dup4\n      and\n      0x00\n      swap1\n      dup2\n      mstore\n        /* \"shoaib_flattened.sol\":29949:29960  _isExcluded */\n      0x09\n        /* \"shoaib_flattened.sol\":29949:29964  _isExcluded[to] */\n      0x20\n      mstore\n      0x40\n      swap1\n      keccak256\n      sload\n      0xff\n      and\n        /* \"shoaib_flattened.sol\":29948:29964  !_isExcluded[to] */\n      iszero\n        /* \"shoaib_flattened.sol\":29927:29964  _isExcluded[from] && !_isExcluded[to] */\n    tag_407:\n        /* \"shoaib_flattened.sol\":29923:30424  if (_isExcluded[from] && !_isExcluded[to]) {... */\n      iszero\n      tag_408\n      jumpi\n        /* \"shoaib_flattened.sol\":29980:30018  _transferFromExcluded(from, to, value) */\n      tag_409\n        /* \"shoaib_flattened.sol\":30002:30006  from */\n      dup5\n        /* \"shoaib_flattened.sol\":30008:30010  to */\n      dup5\n        /* \"shoaib_flattened.sol\":30012:30017  value */\n      dup5\n        /* \"shoaib_flattened.sol\":29980:30001  _transferFromExcluded */\n      tag_410\n        /* \"shoaib_flattened.sol\":29980:30018  _transferFromExcluded(from, to, value) */\n      jump\t// in\n    tag_409:\n        /* \"shoaib_flattened.sol\":29923:30424  if (_isExcluded[from] && !_isExcluded[to]) {... */\n      jump(tag_427)\n    tag_408:\n      sub(shl(0xa0, 0x01), 0x01)\n        /* \"shoaib_flattened.sol\":30040:30057  _isExcluded[from] */\n      dup5\n      and\n      0x00\n      swap1\n      dup2\n      mstore\n        /* \"shoaib_flattened.sol\":30040:30051  _isExcluded */\n      0x09\n        /* \"shoaib_flattened.sol\":30040:30057  _isExcluded[from] */\n      0x20\n      mstore\n      0x40\n      swap1\n      keccak256\n      sload\n      0xff\n      and\n        /* \"shoaib_flattened.sol\":30039:30057  !_isExcluded[from] */\n      iszero\n        /* \"shoaib_flattened.sol\":30039:30076  !_isExcluded[from] && _isExcluded[to] */\n      dup1\n      iszero\n      tag_412\n      jumpi\n      pop\n      sub(shl(0xa0, 0x01), 0x01)\n        /* \"shoaib_flattened.sol\":30061:30076  _isExcluded[to] */\n      dup4\n      and\n      0x00\n      swap1\n      dup2\n      mstore\n        /* \"shoaib_flattened.sol\":30061:30072  _isExcluded */\n      0x09\n        /* \"shoaib_flattened.sol\":30061:30076  _isExcluded[to] */\n      0x20\n      mstore\n      0x40\n      swap1\n      keccak256\n      sload\n      0xff\n      and\n        /* \"shoaib_flattened.sol\":30039:30076  !_isExcluded[from] && _isExcluded[to] */\n    tag_412:\n        /* \"shoaib_flattened.sol\":30035:30424  if (!_isExcluded[from] && _isExcluded[to]) {... */\n      iszero\n      tag_413\n      jumpi\n        /* \"shoaib_flattened.sol\":30092:30128  _transferToExcluded(from, to, value) */\n      tag_409\n        /* \"shoaib_flattened.sol\":30112:30116  from */\n      dup5\n        /* \"shoaib_flattened.sol\":30118:30120  to */\n      dup5\n        /* \"shoaib_flattened.sol\":30122:30127  value */\n      dup5\n        /* \"shoaib_flattened.sol\":30092:30111  _transferToExcluded */\n      tag_415\n        /* \"shoaib_flattened.sol\":30092:30128  _transferToExcluded(from, to, value) */\n      jump\t// in\n        /* \"shoaib_flattened.sol\":30035:30424  if (!_isExcluded[from] && _isExcluded[to]) {... */\n    tag_413:\n      sub(shl(0xa0, 0x01), 0x01)\n        /* \"shoaib_flattened.sol\":30150:30167  _isExcluded[from] */\n      dup5\n      and\n      0x00\n      swap1\n      dup2\n      mstore\n        /* \"shoaib_flattened.sol\":30150:30161  _isExcluded */\n      0x09\n        /* \"shoaib_flattened.sol\":30150:30167  _isExcluded[from] */\n      0x20\n      mstore\n      0x40\n      swap1\n      keccak256\n      sload\n      0xff\n      and\n        /* \"shoaib_flattened.sol\":30149:30167  !_isExcluded[from] */\n      iszero\n        /* \"shoaib_flattened.sol\":30149:30187  !_isExcluded[from] && !_isExcluded[to] */\n      dup1\n      iszero\n      tag_417\n      jumpi\n      pop\n      sub(shl(0xa0, 0x01), 0x01)\n        /* \"shoaib_flattened.sol\":30172:30187  _isExcluded[to] */\n      dup4\n      and\n      0x00\n      swap1\n      dup2\n      mstore\n        /* \"shoaib_flattened.sol\":30172:30183  _isExcluded */\n      0x09\n        /* \"shoaib_flattened.sol\":30172:30187  _isExcluded[to] */\n      0x20\n      mstore\n      0x40\n      swap1\n      keccak256\n      sload\n      0xff\n      and\n        /* \"shoaib_flattened.sol\":30171:30187  !_isExcluded[to] */\n      iszero\n        /* \"shoaib_flattened.sol\":30149:30187  !_isExcluded[from] && !_isExcluded[to] */\n    tag_417:\n        /* \"shoaib_flattened.sol\":30145:30424  if (!_isExcluded[from] && !_isExcluded[to]) {... */\n      iszero\n      tag_418\n      jumpi\n        /* \"shoaib_flattened.sol\":30203:30237  _transferStandard(from, to, value) */\n      tag_409\n        /* \"shoaib_flattened.sol\":30221:30225  from */\n      dup5\n        /* \"shoaib_flattened.sol\":30227:30229  to */\n      dup5\n        /* \"shoaib_flattened.sol\":30231:30236  value */\n      dup5\n        /* \"shoaib_flattened.sol\":30203:30220  _transferStandard */\n      tag_420\n        /* \"shoaib_flattened.sol\":30203:30237  _transferStandard(from, to, value) */\n      jump\t// in\n        /* \"shoaib_flattened.sol\":30145:30424  if (!_isExcluded[from] && !_isExcluded[to]) {... */\n    tag_418:\n      sub(shl(0xa0, 0x01), 0x01)\n        /* \"shoaib_flattened.sol\":30258:30275  _isExcluded[from] */\n      dup5\n      and\n      0x00\n      swap1\n      dup2\n      mstore\n        /* \"shoaib_flattened.sol\":30258:30269  _isExcluded */\n      0x09\n        /* \"shoaib_flattened.sol\":30258:30275  _isExcluded[from] */\n      0x20\n      mstore\n      0x40\n      swap1\n      keccak256\n      sload\n      0xff\n      and\n        /* \"shoaib_flattened.sol\":30258:30294  _isExcluded[from] && _isExcluded[to] */\n      dup1\n      iszero\n      tag_422\n      jumpi\n      pop\n      sub(shl(0xa0, 0x01), 0x01)\n        /* \"shoaib_flattened.sol\":30279:30294  _isExcluded[to] */\n      dup4\n      and\n      0x00\n      swap1\n      dup2\n      mstore\n        /* \"shoaib_flattened.sol\":30279:30290  _isExcluded */\n      0x09\n        /* \"shoaib_flattened.sol\":30279:30294  _isExcluded[to] */\n      0x20\n      mstore\n      0x40\n      swap1\n      keccak256\n      sload\n      0xff\n      and\n        /* \"shoaib_flattened.sol\":30258:30294  _isExcluded[from] && _isExcluded[to] */\n    tag_422:\n        /* \"shoaib_flattened.sol\":30254:30424  if (_isExcluded[from] && _isExcluded[to]) {... */\n      iszero\n      tag_423\n      jumpi\n        /* \"shoaib_flattened.sol\":30310:30348  _transferBothExcluded(from, to, value) */\n      tag_409\n        /* \"shoaib_flattened.sol\":30332:30336  from */\n      dup5\n        /* \"shoaib_flattened.sol\":30338:30340  to */\n      dup5\n        /* \"shoaib_flattened.sol\":30342:30347  value */\n      dup5\n        /* \"shoaib_flattened.sol\":30310:30331  _transferBothExcluded */\n      tag_425\n        /* \"shoaib_flattened.sol\":30310:30348  _transferBothExcluded(from, to, value) */\n      jump\t// in\n        /* \"shoaib_flattened.sol\":30254:30424  if (_isExcluded[from] && _isExcluded[to]) {... */\n    tag_423:\n        /* \"shoaib_flattened.sol\":30379:30413  _transferStandard(from, to, value) */\n      tag_427\n        /* \"shoaib_flattened.sol\":30397:30401  from */\n      dup5\n        /* \"shoaib_flattened.sol\":30403:30405  to */\n      dup5\n        /* \"shoaib_flattened.sol\":30407:30412  value */\n      dup5\n        /* \"shoaib_flattened.sol\":30379:30396  _transferStandard */\n      tag_420\n        /* \"shoaib_flattened.sol\":30379:30413  _transferStandard(from, to, value) */\n      jump\t// in\n    tag_427:\n        /* \"shoaib_flattened.sol\":30439:30446  takeFee */\n      dup1\n        /* \"shoaib_flattened.sol\":30434:30488  if (!takeFee) {... */\n      tag_345\n      jumpi\n        /* \"shoaib_flattened.sol\":30462:30477  restoreAllFee() */\n      tag_345\n        /* \"shoaib_flattened.sol\":30799:30821  _previousReflectionFee */\n      sload(0x10)\n        /* \"shoaib_flattened.sol\":30782:30796  _reflectionFee */\n      0x0f\n        /* \"shoaib_flattened.sol\":30782:30821  _reflectionFee = _previousReflectionFee */\n      sstore\n        /* \"shoaib_flattened.sol\":30842:30857  _previousTaxFee */\n      sload(0x12)\n        /* \"shoaib_flattened.sol\":30832:30839  _taxFee */\n      0x11\n        /* \"shoaib_flattened.sol\":30832:30857  _taxFee = _previousTaxFee */\n      sstore\n        /* \"shoaib_flattened.sol\":30739:30864  function restoreAllFee() private {... */\n      jump\n        /* \"shoaib_flattened.sol\":34736:35381  function _getCurrentSupply() private view returns (uint256, uint256) {... */\n    tag_394:\n        /* \"shoaib_flattened.sol\":34833:34840  _rTotal */\n      sload(0x0d)\n        /* \"shoaib_flattened.sol\":34869:34876  _tTotal */\n      sload(0x0c)\n        /* \"shoaib_flattened.sol\":34787:34794  uint256 */\n      0x00\n      swap2\n      dup3\n      swap2\n      dup3\n        /* \"shoaib_flattened.sol\":34887:35246  for (uint256 i = 0; i < _excluded.length; i++) {... */\n    tag_432:\n        /* \"shoaib_flattened.sol\":34911:34920  _excluded */\n      0x0a\n        /* \"shoaib_flattened.sol\":34911:34927  _excluded.length */\n      sload\n        /* \"shoaib_flattened.sol\":34907:34927  i < _excluded.length */\n      dup2\n      lt\n        /* \"shoaib_flattened.sol\":34887:35246  for (uint256 i = 0; i < _excluded.length; i++) {... */\n      iszero\n      tag_433\n      jumpi\n        /* \"shoaib_flattened.sol\":34993:35000  rSupply */\n      dup3\n        /* \"shoaib_flattened.sol\":34969:34976  _rOwned */\n      0x05\n        /* \"shoaib_flattened.sol\":34969:34990  _rOwned[_excluded[i]] */\n      0x00\n        /* \"shoaib_flattened.sol\":34977:34986  _excluded */\n      0x0a\n        /* \"shoaib_flattened.sol\":34987:34988  i */\n      dup5\n        /* \"shoaib_flattened.sol\":34977:34989  _excluded[i] */\n      dup2\n      sload\n      dup2\n      lt\n      tag_436\n      jumpi\n      tag_436\n      tag_312\n      jump\t// in\n    tag_436:\n      0x00\n      swap2\n      dup3\n      mstore\n      0x20\n      dup1\n      dup4\n      keccak256\n      swap1\n      swap2\n      add\n      sload\n      sub(shl(0xa0, 0x01), 0x01)\n      and\n        /* \"shoaib_flattened.sol\":34969:34990  _rOwned[_excluded[i]] */\n      dup4\n      mstore\n      dup3\n      add\n      swap3\n      swap1\n      swap3\n      mstore\n      0x40\n      add\n      swap1\n      keccak256\n      sload\n        /* \"shoaib_flattened.sol\":34969:35000  _rOwned[_excluded[i]] > rSupply */\n      gt\n      dup1\n        /* \"shoaib_flattened.sol\":34969:35051  _rOwned[_excluded[i]] > rSupply ||... */\n      tag_438\n      jumpi\n      pop\n        /* \"shoaib_flattened.sol\":35044:35051  tSupply */\n      dup2\n        /* \"shoaib_flattened.sol\":35020:35027  _tOwned */\n      0x06\n        /* \"shoaib_flattened.sol\":35020:35041  _tOwned[_excluded[i]] */\n      0x00\n        /* \"shoaib_flattened.sol\":35028:35037  _excluded */\n      0x0a\n        /* \"shoaib_flattened.sol\":35038:35039  i */\n      dup5\n        /* \"shoaib_flattened.sol\":35028:35040  _excluded[i] */\n      dup2\n      sload\n      dup2\n      lt\n      tag_440\n      jumpi\n      tag_440\n      tag_312\n      jump\t// in\n    tag_440:\n      0x00\n      swap2\n      dup3\n      mstore\n      0x20\n      dup1\n      dup4\n      keccak256\n      swap1\n      swap2\n      add\n      sload\n      sub(shl(0xa0, 0x01), 0x01)\n      and\n        /* \"shoaib_flattened.sol\":35020:35041  _tOwned[_excluded[i]] */\n      dup4\n      mstore\n      dup3\n      add\n      swap3\n      swap1\n      swap3\n      mstore\n      0x40\n      add\n      swap1\n      keccak256\n      sload\n        /* \"shoaib_flattened.sol\":35020:35051  _tOwned[_excluded[i]] > tSupply */\n      gt\n        /* \"shoaib_flattened.sol\":34969:35051  _rOwned[_excluded[i]] > rSupply ||... */\n    tag_438:\n        /* \"shoaib_flattened.sol\":34948:35124  if (... */\n      iszero\n      tag_442\n      jumpi\n        /* \"shoaib_flattened.sol\":35092:35099  _rTotal */\n      sload(0x0d)\n        /* \"shoaib_flattened.sol\":35101:35108  _tTotal */\n      sload(0x0c)\n        /* \"shoaib_flattened.sol\":35084:35109  return (_rTotal, _tTotal) */\n      swap5\n      pop\n      swap5\n      pop\n      pop\n      pop\n      pop\n        /* \"shoaib_flattened.sol\":34736:35381  function _getCurrentSupply() private view returns (uint256, uint256) {... */\n      swap1\n      swap2\n      jump\t// out\n        /* \"shoaib_flattened.sol\":34948:35124  if (... */\n    tag_442:\n        /* \"shoaib_flattened.sol\":35158:35165  _rOwned */\n      0x05\n        /* \"shoaib_flattened.sol\":35158:35179  _rOwned[_excluded[i]] */\n      0x00\n        /* \"shoaib_flattened.sol\":35166:35175  _excluded */\n      0x0a\n        /* \"shoaib_flattened.sol\":35176:35177  i */\n      dup4\n        /* \"shoaib_flattened.sol\":35166:35178  _excluded[i] */\n      dup2\n      sload\n      dup2\n      lt\n      tag_444\n      jumpi\n      tag_444\n      tag_312\n      jump\t// in\n    tag_444:\n      0x00\n      swap2\n      dup3\n      mstore\n      0x20\n      dup1\n      dup4\n      keccak256\n      swap1\n      swap2\n      add\n      sload\n      sub(shl(0xa0, 0x01), 0x01)\n      and\n        /* \"shoaib_flattened.sol\":35158:35179  _rOwned[_excluded[i]] */\n      dup4\n      mstore\n      dup3\n      add\n      swap3\n      swap1\n      swap3\n      mstore\n      0x40\n      add\n      swap1\n      keccak256\n      sload\n        /* \"shoaib_flattened.sol\":35148:35179  rSupply - _rOwned[_excluded[i]] */\n      tag_446\n      swap1\n        /* \"shoaib_flattened.sol\":35148:35155  rSupply */\n      dup5\n        /* \"shoaib_flattened.sol\":35148:35179  rSupply - _rOwned[_excluded[i]] */\n      tag_200\n      jump\t// in\n    tag_446:\n        /* \"shoaib_flattened.sol\":35138:35179  rSupply = rSupply - _rOwned[_excluded[i]] */\n      swap3\n      pop\n        /* \"shoaib_flattened.sol\":35214:35221  _tOwned */\n      0x06\n        /* \"shoaib_flattened.sol\":35214:35235  _tOwned[_excluded[i]] */\n      0x00\n        /* \"shoaib_flattened.sol\":35222:35231  _excluded */\n      0x0a\n        /* \"shoaib_flattened.sol\":35232:35233  i */\n      dup4\n        /* \"shoaib_flattened.sol\":35222:35234  _excluded[i] */\n      dup2\n      sload\n      dup2\n      lt\n      tag_448\n      jumpi\n      tag_448\n      tag_312\n      jump\t// in\n    tag_448:\n      0x00\n      swap2\n      dup3\n      mstore\n      0x20\n      dup1\n      dup4\n      keccak256\n      swap1\n      swap2\n      add\n      sload\n      sub(shl(0xa0, 0x01), 0x01)\n      and\n        /* \"shoaib_flattened.sol\":35214:35235  _tOwned[_excluded[i]] */\n      dup4\n      mstore\n      dup3\n      add\n      swap3\n      swap1\n      swap3\n      mstore\n      0x40\n      add\n      swap1\n      keccak256\n      sload\n        /* \"shoaib_flattened.sol\":35204:35235  tSupply - _tOwned[_excluded[i]] */\n      tag_450\n      swap1\n        /* \"shoaib_flattened.sol\":35204:35211  tSupply */\n      dup4\n        /* \"shoaib_flattened.sol\":35204:35235  tSupply - _tOwned[_excluded[i]] */\n      tag_200\n      jump\t// in\n    tag_450:\n        /* \"shoaib_flattened.sol\":35194:35235  tSupply = tSupply - _tOwned[_excluded[i]] */\n      swap2\n      pop\n        /* \"shoaib_flattened.sol\":34929:34932  i++ */\n      0x01\n      add\n        /* \"shoaib_flattened.sol\":34887:35246  for (uint256 i = 0; i < _excluded.length; i++) {... */\n      jump(tag_432)\n    tag_433:\n      pop\n        /* \"shoaib_flattened.sol\":35280:35287  _tTotal */\n      sload(0x0c)\n        /* \"shoaib_flattened.sol\":35270:35277  _rTotal */\n      sload(0x0d)\n        /* \"shoaib_flattened.sol\":35270:35287  _rTotal / _tTotal */\n      tag_451\n      swap2\n      swap1\n      tag_387\n      jump\t// in\n    tag_451:\n        /* \"shoaib_flattened.sol\":35260:35267  rSupply */\n      dup3\n        /* \"shoaib_flattened.sol\":35260:35287  rSupply < _rTotal / _tTotal */\n      lt\n        /* \"shoaib_flattened.sol\":35256:35339  if (rSupply < _rTotal / _tTotal) {... */\n      iszero\n      tag_452\n      jumpi\n        /* \"shoaib_flattened.sol\":35311:35318  _rTotal */\n      sload(0x0d)\n        /* \"shoaib_flattened.sol\":35320:35327  _tTotal */\n      sload(0x0c)\n        /* \"shoaib_flattened.sol\":35303:35328  return (_rTotal, _tTotal) */\n      swap4\n      pop\n      swap4\n      pop\n      pop\n      pop\n        /* \"shoaib_flattened.sol\":34736:35381  function _getCurrentSupply() private view returns (uint256, uint256) {... */\n      swap1\n      swap2\n      jump\t// out\n        /* \"shoaib_flattened.sol\":35256:35339  if (rSupply < _rTotal / _tTotal) {... */\n    tag_452:\n        /* \"shoaib_flattened.sol\":35357:35364  rSupply */\n      swap1\n      swap4\n        /* \"shoaib_flattened.sol\":35366:35373  tSupply */\n      swap1\n      swap3\n      pop\n        /* \"shoaib_flattened.sol\":34736:35381  function _getCurrentSupply() private view returns (uint256, uint256) {... */\n      swap1\n      pop\n      jump\t// out\n        /* \"shoaib_flattened.sol\":30500:30733  function removeAllFee() private {... */\n    tag_406:\n        /* \"shoaib_flattened.sol\":30546:30560  _reflectionFee */\n      sload(0x0f)\n        /* \"shoaib_flattened.sol\":30546:30565  _reflectionFee == 0 */\n      iszero\n        /* \"shoaib_flattened.sol\":30546:30581  _reflectionFee == 0 && _taxFee == 0 */\n      dup1\n      iszero\n      tag_454\n      jumpi\n      pop\n        /* \"shoaib_flattened.sol\":30569:30576  _taxFee */\n      sload(0x11)\n        /* \"shoaib_flattened.sol\":30569:30581  _taxFee == 0 */\n      iszero\n        /* \"shoaib_flattened.sol\":30546:30581  _reflectionFee == 0 && _taxFee == 0 */\n    tag_454:\n        /* \"shoaib_flattened.sol\":30542:30590  if (_reflectionFee == 0 && _taxFee == 0) return; */\n      iszero\n      tag_455\n      jumpi\n        /* \"shoaib_flattened.sol\":30500:30733  function removeAllFee() private {... */\n      jump\t// out\n        /* \"shoaib_flattened.sol\":30542:30590  if (_reflectionFee == 0 && _taxFee == 0) return; */\n    tag_455:\n        /* \"shoaib_flattened.sol\":30625:30639  _reflectionFee */\n      0x0f\n      dup1\n      sload\n        /* \"shoaib_flattened.sol\":30600:30622  _previousReflectionFee */\n      0x10\n        /* \"shoaib_flattened.sol\":30600:30639  _previousReflectionFee = _reflectionFee */\n      sstore\n        /* \"shoaib_flattened.sol\":30668:30675  _taxFee */\n      0x11\n      dup1\n      sload\n        /* \"shoaib_flattened.sol\":30650:30665  _previousTaxFee */\n      0x12\n        /* \"shoaib_flattened.sol\":30650:30675  _previousTaxFee = _taxFee */\n      sstore\n      0x00\n        /* \"shoaib_flattened.sol\":30686:30704  _reflectionFee = 0 */\n      swap2\n      dup3\n      swap1\n      sstore\n        /* \"shoaib_flattened.sol\":30715:30726  _taxFee = 0 */\n      sstore\n        /* \"shoaib_flattened.sol\":30500:30733  function removeAllFee() private {... */\n      jump\t// out\n        /* \"shoaib_flattened.sol\":32134:32783  function _transferFromExcluded(... */\n    tag_410:\n        /* \"shoaib_flattened.sol\":32279:32294  uint256 rAmount */\n      0x00\n        /* \"shoaib_flattened.sol\":32308:32331  uint256 rTransferAmount */\n      0x00\n        /* \"shoaib_flattened.sol\":32345:32368  uint256 tTransferAmount */\n      0x00\n        /* \"shoaib_flattened.sol\":32382:32401  uint256 currentRate */\n      0x00\n        /* \"shoaib_flattened.sol\":32414:32441  _getTransferValues(tAmount) */\n      tag_457\n        /* \"shoaib_flattened.sol\":32433:32440  tAmount */\n      dup6\n        /* \"shoaib_flattened.sol\":32414:32432  _getTransferValues */\n      tag_198\n        /* \"shoaib_flattened.sol\":32414:32441  _getTransferValues(tAmount) */\n      jump\t// in\n    tag_457:\n      sub(shl(0xa0, 0x01), 0x01)\n        /* \"shoaib_flattened.sol\":32470:32485  _tOwned[sender] */\n      dup12\n      and\n      0x00\n      swap1\n      dup2\n      mstore\n        /* \"shoaib_flattened.sol\":32470:32477  _tOwned */\n      0x06\n        /* \"shoaib_flattened.sol\":32470:32485  _tOwned[sender] */\n      0x20\n      mstore\n      0x40\n      swap1\n      keccak256\n      sload\n        /* \"shoaib_flattened.sol\":32265:32441  (... */\n      swap4\n      swap8\n      pop\n      swap2\n      swap6\n      pop\n      swap4\n      pop\n      swap2\n      pop\n        /* \"shoaib_flattened.sol\":32470:32495  _tOwned[sender] - tAmount */\n      tag_458\n      swap1\n        /* \"shoaib_flattened.sol\":32488:32495  tAmount */\n      dup7\n      swap1\n        /* \"shoaib_flattened.sol\":32470:32495  _tOwned[sender] - tAmount */\n      tag_200\n      jump\t// in\n    tag_458:\n      sub(shl(0xa0, 0x01), 0x01)\n        /* \"shoaib_flattened.sol\":32452:32467  _tOwned[sender] */\n      dup9\n      and\n      0x00\n      swap1\n      dup2\n      mstore\n        /* \"shoaib_flattened.sol\":32452:32459  _tOwned */\n      0x06\n        /* \"shoaib_flattened.sol\":32452:32467  _tOwned[sender] */\n      0x20\n      swap1\n      dup2\n      mstore\n      0x40\n      dup1\n      dup4\n      keccak256\n        /* \"shoaib_flattened.sol\":32452:32495  _tOwned[sender] = _tOwned[sender] - tAmount */\n      swap4\n      swap1\n      swap4\n      sstore\n        /* \"shoaib_flattened.sol\":32524:32531  _rOwned */\n      0x05\n        /* \"shoaib_flattened.sol\":32524:32539  _rOwned[sender] */\n      swap1\n      mstore\n      keccak256\n      sload\n        /* \"shoaib_flattened.sol\":32524:32549  _rOwned[sender] - rAmount */\n      tag_459\n      swap1\n        /* \"shoaib_flattened.sol\":32542:32549  rAmount */\n      dup6\n      swap1\n        /* \"shoaib_flattened.sol\":32524:32549  _rOwned[sender] - rAmount */\n      tag_200\n      jump\t// in\n    tag_459:\n      sub(shl(0xa0, 0x01), 0x01)\n        /* \"shoaib_flattened.sol\":32506:32521  _rOwned[sender] */\n      dup1\n      dup10\n      and\n      0x00\n      swap1\n      dup2\n      mstore\n        /* \"shoaib_flattened.sol\":32506:32513  _rOwned */\n      0x05\n        /* \"shoaib_flattened.sol\":32506:32521  _rOwned[sender] */\n      0x20\n      mstore\n      0x40\n      dup1\n      dup3\n      keccak256\n        /* \"shoaib_flattened.sol\":32506:32549  _rOwned[sender] = _rOwned[sender] - rAmount */\n      swap4\n      swap1\n      swap4\n      sstore\n        /* \"shoaib_flattened.sol\":32581:32599  _rOwned[recipient] */\n      swap1\n      dup9\n      and\n      dup2\n      mstore\n      keccak256\n      sload\n        /* \"shoaib_flattened.sol\":32581:32617  _rOwned[recipient] + rTransferAmount */\n      tag_460\n      swap1\n        /* \"shoaib_flattened.sol\":32602:32617  rTransferAmount */\n      dup5\n      swap1\n        /* \"shoaib_flattened.sol\":32581:32617  _rOwned[recipient] + rTransferAmount */\n      tag_203\n      jump\t// in\n    tag_460:\n      sub(shl(0xa0, 0x01), 0x01)\n        /* \"shoaib_flattened.sol\":32560:32578  _rOwned[recipient] */\n      dup8\n      and\n      0x00\n      swap1\n      dup2\n      mstore\n        /* \"shoaib_flattened.sol\":32560:32567  _rOwned */\n      0x05\n        /* \"shoaib_flattened.sol\":32560:32578  _rOwned[recipient] */\n      0x20\n      mstore\n      0x40\n      swap1\n      keccak256\n        /* \"shoaib_flattened.sol\":32560:32617  _rOwned[recipient] = _rOwned[recipient] + rTransferAmount */\n      sstore\n        /* \"shoaib_flattened.sol\":32628:32672  taxFeeTransfer(sender, tAmount, currentRate) */\n      tag_461\n        /* \"shoaib_flattened.sol\":32643:32649  sender */\n      dup8\n        /* \"shoaib_flattened.sol\":32651:32658  tAmount */\n      dup7\n        /* \"shoaib_flattened.sol\":32660:32671  currentRate */\n      dup4\n        /* \"shoaib_flattened.sol\":32628:32642  taxFeeTransfer */\n      tag_462\n        /* \"shoaib_flattened.sol\":32628:32672  taxFeeTransfer(sender, tAmount, currentRate) */\n      jump\t// in\n    tag_461:\n        /* \"shoaib_flattened.sol\":32683:32716  _reflectFee(tAmount, currentRate) */\n      tag_463\n        /* \"shoaib_flattened.sol\":32695:32702  tAmount */\n      dup6\n        /* \"shoaib_flattened.sol\":32704:32715  currentRate */\n      dup3\n        /* \"shoaib_flattened.sol\":32683:32694  _reflectFee */\n      tag_464\n        /* \"shoaib_flattened.sol\":32683:32716  _reflectFee(tAmount, currentRate) */\n      jump\t// in\n    tag_463:\n        /* \"shoaib_flattened.sol\":32749:32758  recipient */\n      dup6\n      sub(shl(0xa0, 0x01), 0x01)\n        /* \"shoaib_flattened.sol\":32732:32776  Transfer(sender, recipient, tTransferAmount) */\n      and\n        /* \"shoaib_flattened.sol\":32741:32747  sender */\n      dup8\n      sub(shl(0xa0, 0x01), 0x01)\n        /* \"shoaib_flattened.sol\":32732:32776  Transfer(sender, recipient, tTransferAmount) */\n      and\n      0xddf252ad1be2c89b69c2b068fc378daa952ba7f163c4a11628f55a4df523b3ef\n        /* \"shoaib_flattened.sol\":32760:32775  tTransferAmount */\n      dup5\n        /* \"shoaib_flattened.sol\":32732:32776  Transfer(sender, recipient, tTransferAmount) */\n      mload(0x40)\n      tag_465\n      swap2\n        /* \"#utility.yul\":1489:1514   */\n      dup2\n      mstore\n        /* \"#utility.yul\":1477:1479   */\n      0x20\n        /* \"#utility.yul\":1462:1480   */\n      add\n      swap1\n        /* \"#utility.yul\":1343:1520   */\n      jump\n        /* \"shoaib_flattened.sol\":32732:32776  Transfer(sender, recipient, tTransferAmount) */\n    tag_465:\n      mload(0x40)\n      dup1\n      swap2\n      sub\n      swap1\n      log3\n        /* \"shoaib_flattened.sol\":32255:32783  {... */\n      pop\n      pop\n      pop\n      pop\n        /* \"shoaib_flattened.sol\":32134:32783  function _transferFromExcluded(... */\n      pop\n      pop\n      pop\n      jump\t// out\n        /* \"shoaib_flattened.sol\":31467:32128  function _transferToExcluded(... */\n    tag_415:\n        /* \"shoaib_flattened.sol\":31610:31625  uint256 rAmount */\n      0x00\n        /* \"shoaib_flattened.sol\":31639:31662  uint256 rTransferAmount */\n      0x00\n        /* \"shoaib_flattened.sol\":31676:31699  uint256 tTransferAmount */\n      0x00\n        /* \"shoaib_flattened.sol\":31713:31732  uint256 currentRate */\n      0x00\n        /* \"shoaib_flattened.sol\":31745:31772  _getTransferValues(tAmount) */\n      tag_467\n        /* \"shoaib_flattened.sol\":31764:31771  tAmount */\n      dup6\n        /* \"shoaib_flattened.sol\":31745:31763  _getTransferValues */\n      tag_198\n        /* \"shoaib_flattened.sol\":31745:31772  _getTransferValues(tAmount) */\n      jump\t// in\n    tag_467:\n      sub(shl(0xa0, 0x01), 0x01)\n        /* \"shoaib_flattened.sol\":31801:31816  _rOwned[sender] */\n      dup12\n      and\n      0x00\n      swap1\n      dup2\n      mstore\n        /* \"shoaib_flattened.sol\":31801:31808  _rOwned */\n      0x05\n        /* \"shoaib_flattened.sol\":31801:31816  _rOwned[sender] */\n      0x20\n      mstore\n      0x40\n      swap1\n      keccak256\n      sload\n        /* \"shoaib_flattened.sol\":31596:31772  (... */\n      swap4\n      swap8\n      pop\n      swap2\n      swap6\n      pop\n      swap4\n      pop\n      swap2\n      pop\n        /* \"shoaib_flattened.sol\":31801:31826  _rOwned[sender] - rAmount */\n      tag_468\n      swap1\n        /* \"shoaib_flattened.sol\":31596:31772  (... */\n      dup6\n      swap1\n        /* \"shoaib_flattened.sol\":31801:31826  _rOwned[sender] - rAmount */\n      tag_200\n      jump\t// in\n    tag_468:\n      sub(shl(0xa0, 0x01), 0x01)\n        /* \"shoaib_flattened.sol\":31783:31798  _rOwned[sender] */\n      dup1\n      dup10\n      and\n      0x00\n      swap1\n      dup2\n      mstore\n        /* \"shoaib_flattened.sol\":31783:31790  _rOwned */\n      0x05\n        /* \"shoaib_flattened.sol\":31783:31798  _rOwned[sender] */\n      0x20\n      swap1\n      dup2\n      mstore\n      0x40\n      dup1\n      dup4\n      keccak256\n        /* \"shoaib_flattened.sol\":31783:31826  _rOwned[sender] = _rOwned[sender] - rAmount */\n      swap5\n      swap1\n      swap5\n      sstore\n        /* \"shoaib_flattened.sol\":31858:31876  _tOwned[recipient] */\n      swap2\n      dup10\n      and\n      dup2\n      mstore\n        /* \"shoaib_flattened.sol\":31858:31865  _tOwned */\n      0x06\n        /* \"shoaib_flattened.sol\":31858:31876  _tOwned[recipient] */\n      swap1\n      swap2\n      mstore\n      keccak256\n      sload\n        /* \"shoaib_flattened.sol\":31858:31894  _tOwned[recipient] + tTransferAmount */\n      tag_469\n      swap1\n        /* \"shoaib_flattened.sol\":31879:31894  tTransferAmount */\n      dup4\n      swap1\n        /* \"shoaib_flattened.sol\":31858:31894  _tOwned[recipient] + tTransferAmount */\n      tag_203\n      jump\t// in\n    tag_469:\n      sub(shl(0xa0, 0x01), 0x01)\n        /* \"shoaib_flattened.sol\":31837:31855  _tOwned[recipient] */\n      dup8\n      and\n      0x00\n      swap1\n      dup2\n      mstore\n        /* \"shoaib_flattened.sol\":31837:31844  _tOwned */\n      0x06\n        /* \"shoaib_flattened.sol\":31837:31855  _tOwned[recipient] */\n      0x20\n      swap1\n      dup2\n      mstore\n      0x40\n      dup1\n      dup4\n      keccak256\n        /* \"shoaib_flattened.sol\":31837:31894  _tOwned[recipient] = _tOwned[recipient] + tTransferAmount */\n      swap4\n      swap1\n      swap4\n      sstore\n        /* \"shoaib_flattened.sol\":31926:31933  _rOwned */\n      0x05\n        /* \"shoaib_flattened.sol\":31926:31944  _rOwned[recipient] */\n      swap1\n      mstore\n      keccak256\n      sload\n        /* \"shoaib_flattened.sol\":31926:31962  _rOwned[recipient] + rTransferAmount */\n      tag_460\n      swap1\n        /* \"shoaib_flattened.sol\":31947:31962  rTransferAmount */\n      dup5\n      swap1\n        /* \"shoaib_flattened.sol\":31926:31962  _rOwned[recipient] + rTransferAmount */\n      tag_203\n      jump\t// in\n        /* \"shoaib_flattened.sol\":30870:31461  function _transferStandard(... */\n    tag_420:\n        /* \"shoaib_flattened.sol\":31011:31026  uint256 rAmount */\n      0x00\n        /* \"shoaib_flattened.sol\":31040:31063  uint256 rTransferAmount */\n      0x00\n        /* \"shoaib_flattened.sol\":31077:31100  uint256 tTransferAmount */\n      0x00\n        /* \"shoaib_flattened.sol\":31114:31133  uint256 currentRate */\n      0x00\n        /* \"shoaib_flattened.sol\":31146:31173  _getTransferValues(tAmount) */\n      tag_475\n        /* \"shoaib_flattened.sol\":31165:31172  tAmount */\n      dup6\n        /* \"shoaib_flattened.sol\":31146:31164  _getTransferValues */\n      tag_198\n        /* \"shoaib_flattened.sol\":31146:31173  _getTransferValues(tAmount) */\n      jump\t// in\n    tag_475:\n      sub(shl(0xa0, 0x01), 0x01)\n        /* \"shoaib_flattened.sol\":31202:31217  _rOwned[sender] */\n      dup12\n      and\n      0x00\n      swap1\n      dup2\n      mstore\n        /* \"shoaib_flattened.sol\":31202:31209  _rOwned */\n      0x05\n        /* \"shoaib_flattened.sol\":31202:31217  _rOwned[sender] */\n      0x20\n      mstore\n      0x40\n      swap1\n      keccak256\n      sload\n        /* \"shoaib_flattened.sol\":30997:31173  (... */\n      swap4\n      swap8\n      pop\n      swap2\n      swap6\n      pop\n      swap4\n      pop\n      swap2\n      pop\n        /* \"shoaib_flattened.sol\":31202:31227  _rOwned[sender] - rAmount */\n      tag_459\n      swap1\n        /* \"shoaib_flattened.sol\":30997:31173  (... */\n      dup6\n      swap1\n        /* \"shoaib_flattened.sol\":31202:31227  _rOwned[sender] - rAmount */\n      tag_200\n      jump\t// in\n        /* \"shoaib_flattened.sol\":32789:33506  function _transferBothExcluded(... */\n    tag_425:\n        /* \"shoaib_flattened.sol\":32934:32949  uint256 rAmount */\n      0x00\n        /* \"shoaib_flattened.sol\":32963:32986  uint256 rTransferAmount */\n      0x00\n        /* \"shoaib_flattened.sol\":33000:33023  uint256 tTransferAmount */\n      0x00\n        /* \"shoaib_flattened.sol\":33037:33056  uint256 currentRate */\n      0x00\n        /* \"shoaib_flattened.sol\":33069:33096  _getTransferValues(tAmount) */\n      tag_482\n        /* \"shoaib_flattened.sol\":33088:33095  tAmount */\n      dup6\n        /* \"shoaib_flattened.sol\":33069:33087  _getTransferValues */\n      tag_198\n        /* \"shoaib_flattened.sol\":33069:33096  _getTransferValues(tAmount) */\n      jump\t// in\n    tag_482:\n      sub(shl(0xa0, 0x01), 0x01)\n        /* \"shoaib_flattened.sol\":33125:33140  _tOwned[sender] */\n      dup12\n      and\n      0x00\n      swap1\n      dup2\n      mstore\n        /* \"shoaib_flattened.sol\":33125:33132  _tOwned */\n      0x06\n        /* \"shoaib_flattened.sol\":33125:33140  _tOwned[sender] */\n      0x20\n      mstore\n      0x40\n      swap1\n      keccak256\n      sload\n        /* \"shoaib_flattened.sol\":32920:33096  (... */\n      swap4\n      swap8\n      pop\n      swap2\n      swap6\n      pop\n      swap4\n      pop\n      swap2\n      pop\n        /* \"shoaib_flattened.sol\":33125:33150  _tOwned[sender] - tAmount */\n      tag_483\n      swap1\n        /* \"shoaib_flattened.sol\":33143:33150  tAmount */\n      dup7\n      swap1\n        /* \"shoaib_flattened.sol\":33125:33150  _tOwned[sender] - tAmount */\n      tag_200\n      jump\t// in\n    tag_483:\n      sub(shl(0xa0, 0x01), 0x01)\n        /* \"shoaib_flattened.sol\":33107:33122  _tOwned[sender] */\n      dup9\n      and\n      0x00\n      swap1\n      dup2\n      mstore\n        /* \"shoaib_flattened.sol\":33107:33114  _tOwned */\n      0x06\n        /* \"shoaib_flattened.sol\":33107:33122  _tOwned[sender] */\n      0x20\n      swap1\n      dup2\n      mstore\n      0x40\n      dup1\n      dup4\n      keccak256\n        /* \"shoaib_flattened.sol\":33107:33150  _tOwned[sender] = _tOwned[sender] - tAmount */\n      swap4\n      swap1\n      swap4\n      sstore\n        /* \"shoaib_flattened.sol\":33179:33186  _rOwned */\n      0x05\n        /* \"shoaib_flattened.sol\":33179:33194  _rOwned[sender] */\n      swap1\n      mstore\n      keccak256\n      sload\n        /* \"shoaib_flattened.sol\":33179:33204  _rOwned[sender] - rAmount */\n      tag_468\n      swap1\n        /* \"shoaib_flattened.sol\":33197:33204  rAmount */\n      dup6\n      swap1\n        /* \"shoaib_flattened.sol\":33179:33204  _rOwned[sender] - rAmount */\n      tag_200\n      jump\t// in\n        /* \"shoaib_flattened.sol\":35637:36122  function taxFeeTransfer(... */\n    tag_462:\n        /* \"shoaib_flattened.sol\":35763:35778  uint256 tTaxFee */\n      0x00\n        /* \"shoaib_flattened.sol\":35803:35806  100 */\n      0x64\n        /* \"shoaib_flattened.sol\":35792:35799  _taxFee */\n      sload(0x11)\n        /* \"shoaib_flattened.sol\":35782:35789  tAmount */\n      dup5\n        /* \"shoaib_flattened.sol\":35782:35799  tAmount * _taxFee */\n      tag_492\n      swap2\n      swap1\n      tag_334\n      jump\t// in\n    tag_492:\n        /* \"shoaib_flattened.sol\":35781:35806  (tAmount * _taxFee) / 100 */\n      tag_493\n      swap2\n      swap1\n      tag_387\n      jump\t// in\n    tag_493:\n        /* \"shoaib_flattened.sol\":35763:35806  uint256 tTaxFee = (tAmount * _taxFee) / 100 */\n      swap1\n      pop\n        /* \"shoaib_flattened.sol\":35821:35832  tTaxFee > 0 */\n      dup1\n      iszero\n        /* \"shoaib_flattened.sol\":35817:36116  if (tTaxFee > 0) {... */\n      tag_345\n      jumpi\n        /* \"shoaib_flattened.sol\":35848:35863  uint256 rTaxFee */\n      0x00\n        /* \"shoaib_flattened.sol\":35866:35887  tTaxFee * currentRate */\n      tag_495\n        /* \"shoaib_flattened.sol\":35876:35887  currentRate */\n      dup4\n        /* \"shoaib_flattened.sol\":35866:35873  tTaxFee */\n      dup4\n        /* \"shoaib_flattened.sol\":35866:35887  tTaxFee * currentRate */\n      tag_334\n      jump\t// in\n    tag_495:\n        /* \"shoaib_flattened.sol\":35969:36000  _marketingAndDevelopmentAccount */\n      and(sub(shl(0xa0, 0x01), 0x01), sload(0x13))\n        /* \"shoaib_flattened.sol\":35961:36001  _rOwned[_marketingAndDevelopmentAccount] */\n      0x00\n      swap1\n      dup2\n      mstore\n        /* \"shoaib_flattened.sol\":35961:35968  _rOwned */\n      0x05\n        /* \"shoaib_flattened.sol\":35961:36001  _rOwned[_marketingAndDevelopmentAccount] */\n      0x20\n      mstore\n      0x40\n      swap1\n      keccak256\n      sload\n        /* \"shoaib_flattened.sol\":35848:35887  uint256 rTaxFee = tTaxFee * currentRate */\n      swap1\n      swap2\n      pop\n        /* \"shoaib_flattened.sol\":35961:36027  _rOwned[_marketingAndDevelopmentAccount] +... */\n      tag_496\n      swap1\n        /* \"shoaib_flattened.sol\":35848:35887  uint256 rTaxFee = tTaxFee * currentRate */\n      dup3\n      swap1\n        /* \"shoaib_flattened.sol\":35961:36027  _rOwned[_marketingAndDevelopmentAccount] +... */\n      tag_203\n      jump\t// in\n    tag_496:\n        /* \"shoaib_flattened.sol\":35910:35941  _marketingAndDevelopmentAccount */\n      0x13\n      dup1\n      sload\n      sub(shl(0xa0, 0x01), 0x01)\n      swap1\n      dup2\n      and\n        /* \"shoaib_flattened.sol\":35902:35942  _rOwned[_marketingAndDevelopmentAccount] */\n      0x00\n      swap1\n      dup2\n      mstore\n        /* \"shoaib_flattened.sol\":35902:35909  _rOwned */\n      0x05\n        /* \"shoaib_flattened.sol\":35902:35942  _rOwned[_marketingAndDevelopmentAccount] */\n      0x20\n      swap1\n      dup2\n      mstore\n      0x40\n      swap2\n      dup3\n      swap1\n      keccak256\n        /* \"shoaib_flattened.sol\":35902:36027  _rOwned[_marketingAndDevelopmentAccount] =... */\n      swap5\n      swap1\n      swap5\n      sstore\n        /* \"shoaib_flattened.sol\":36064:36095  _marketingAndDevelopmentAccount */\n      swap2\n      sload\n        /* \"shoaib_flattened.sol\":36047:36105  Transfer(sender, _marketingAndDevelopmentAccount, tTaxFee) */\n      swap2\n      mload\n        /* \"#utility.yul\":1489:1514   */\n      dup6\n      dup2\n      mstore\n        /* \"shoaib_flattened.sol\":36064:36095  _marketingAndDevelopmentAccount */\n      swap2\n      dup2\n      and\n      swap3\n        /* \"shoaib_flattened.sol\":36047:36105  Transfer(sender, _marketingAndDevelopmentAccount, tTaxFee) */\n      swap1\n      dup9\n      and\n      swap2\n      0xddf252ad1be2c89b69c2b068fc378daa952ba7f163c4a11628f55a4df523b3ef\n      swap2\n        /* \"#utility.yul\":1462:1480   */\n      add\n        /* \"shoaib_flattened.sol\":36047:36105  Transfer(sender, _marketingAndDevelopmentAccount, tTaxFee) */\n      mload(0x40)\n      dup1\n      swap2\n      sub\n      swap1\n      log3\n        /* \"shoaib_flattened.sol\":35834:36116  {... */\n      pop\n        /* \"shoaib_flattened.sol\":35753:36122  {... */\n      pop\n        /* \"shoaib_flattened.sol\":35637:36122  function taxFeeTransfer(... */\n      pop\n      pop\n      pop\n      jump\t// out\n        /* \"shoaib_flattened.sol\":34314:34565  function _reflectFee(uint256 tAmount, uint256 currentRate) private {... */\n    tag_464:\n        /* \"shoaib_flattened.sol\":34391:34403  uint256 tFee */\n      0x00\n        /* \"shoaib_flattened.sol\":34435:34438  100 */\n      0x64\n        /* \"shoaib_flattened.sol\":34417:34431  _reflectionFee */\n      sload(0x0f)\n        /* \"shoaib_flattened.sol\":34407:34414  tAmount */\n      dup5\n        /* \"shoaib_flattened.sol\":34407:34431  tAmount * _reflectionFee */\n      tag_499\n      swap2\n      swap1\n      tag_334\n      jump\t// in\n    tag_499:\n        /* \"shoaib_flattened.sol\":34406:34438  (tAmount * _reflectionFee) / 100 */\n      tag_500\n      swap2\n      swap1\n      tag_387\n      jump\t// in\n    tag_500:\n        /* \"shoaib_flattened.sol\":34391:34438  uint256 tFee = (tAmount * _reflectionFee) / 100 */\n      swap1\n      pop\n        /* \"shoaib_flattened.sol\":34449:34461  uint256 rFee */\n      0x00\n        /* \"shoaib_flattened.sol\":34464:34482  tFee * currentRate */\n      tag_501\n        /* \"shoaib_flattened.sol\":34471:34482  currentRate */\n      dup4\n        /* \"shoaib_flattened.sol\":34391:34438  uint256 tFee = (tAmount * _reflectionFee) / 100 */\n      dup4\n        /* \"shoaib_flattened.sol\":34464:34482  tFee * currentRate */\n      tag_334\n      jump\t// in\n    tag_501:\n        /* \"shoaib_flattened.sol\":34449:34482  uint256 rFee = tFee * currentRate */\n      swap1\n      pop\n        /* \"shoaib_flattened.sol\":34513:34517  rFee */\n      dup1\n        /* \"shoaib_flattened.sol\":34503:34510  _rTotal */\n      sload(0x0d)\n        /* \"shoaib_flattened.sol\":34503:34517  _rTotal - rFee */\n      tag_502\n      swap2\n      swap1\n      tag_200\n      jump\t// in\n    tag_502:\n        /* \"shoaib_flattened.sol\":34493:34500  _rTotal */\n      0x0d\n        /* \"shoaib_flattened.sol\":34493:34517  _rTotal = _rTotal - rFee */\n      sstore\n        /* \"shoaib_flattened.sol\":34541:34551  _tFeeTotal */\n      sload(0x0e)\n        /* \"shoaib_flattened.sol\":34541:34558  _tFeeTotal + tFee */\n      tag_503\n      swap1\n        /* \"shoaib_flattened.sol\":34554:34558  tFee */\n      dup4\n      swap1\n        /* \"shoaib_flattened.sol\":34541:34558  _tFeeTotal + tFee */\n      tag_203\n      jump\t// in\n    tag_503:\n        /* \"shoaib_flattened.sol\":34528:34538  _tFeeTotal */\n      0x0e\n        /* \"shoaib_flattened.sol\":34528:34558  _tFeeTotal = _tFeeTotal + tFee */\n      sstore\n      pop\n      pop\n      pop\n      pop\n        /* \"shoaib_flattened.sol\":34314:34565  function _reflectFee(uint256 tAmount, uint256 currentRate) private {... */\n      jump\t// out\n        /* \"#utility.yul\":14:240   */\n    tag_47:\n        /* \"#utility.yul\":73:79   */\n      0x00\n        /* \"#utility.yul\":126:128   */\n      0x20\n        /* \"#utility.yul\":114:123   */\n      dup3\n        /* \"#utility.yul\":105:112   */\n      dup5\n        /* \"#utility.yul\":101:124   */\n      sub\n        /* \"#utility.yul\":97:129   */\n      slt\n        /* \"#utility.yul\":94:146   */\n      iszero\n      tag_508\n      jumpi\n        /* \"#utility.yul\":142:143   */\n      0x00\n        /* \"#utility.yul\":139:140   */\n      0x00\n        /* \"#utility.yul\":132:144   */\n      revert\n        /* \"#utility.yul\":94:146   */\n    tag_508:\n      pop\n        /* \"#utility.yul\":187:210   */\n      calldataload\n      swap2\n        /* \"#utility.yul\":14:240   */\n      swap1\n      pop\n      jump\t// out\n        /* \"#utility.yul\":245:663   */\n    tag_53:\n        /* \"#utility.yul\":394:396   */\n      0x20\n        /* \"#utility.yul\":383:392   */\n      dup2\n        /* \"#utility.yul\":376:397   */\n      mstore\n        /* \"#utility.yul\":357:361   */\n      0x00\n        /* \"#utility.yul\":426:432   */\n      dup3\n        /* \"#utility.yul\":420:433   */\n      mload\n        /* \"#utility.yul\":469:475   */\n      dup1\n        /* \"#utility.yul\":464:466   */\n      0x20\n        /* \"#utility.yul\":453:462   */\n      dup5\n        /* \"#utility.yul\":449:467   */\n      add\n        /* \"#utility.yul\":442:476   */\n      mstore\n        /* \"#utility.yul\":528:534   */\n      dup1\n        /* \"#utility.yul\":523:525   */\n      0x20\n        /* \"#utility.yul\":515:521   */\n      dup6\n        /* \"#utility.yul\":511:526   */\n      add\n        /* \"#utility.yul\":506:508   */\n      0x40\n        /* \"#utility.yul\":495:504   */\n      dup6\n        /* \"#utility.yul\":491:509   */\n      add\n        /* \"#utility.yul\":485:535   */\n      mcopy\n        /* \"#utility.yul\":584:585   */\n      0x00\n        /* \"#utility.yul\":579:581   */\n      0x40\n        /* \"#utility.yul\":570:576   */\n      dup3\n        /* \"#utility.yul\":559:568   */\n      dup6\n        /* \"#utility.yul\":555:577   */\n      add\n        /* \"#utility.yul\":551:582   */\n      add\n        /* \"#utility.yul\":544:586   */\n      mstore\n        /* \"#utility.yul\":654:656   */\n      0x40\n        /* \"#utility.yul\":647:649   */\n      0x1f\n        /* \"#utility.yul\":643:650   */\n      not\n        /* \"#utility.yul\":638:640   */\n      0x1f\n        /* \"#utility.yul\":630:636   */\n      dup4\n        /* \"#utility.yul\":626:641   */\n      add\n        /* \"#utility.yul\":622:651   */\n      and\n        /* \"#utility.yul\":611:620   */\n      dup5\n        /* \"#utility.yul\":607:652   */\n      add\n        /* \"#utility.yul\":603:657   */\n      add\n        /* \"#utility.yul\":595:657   */\n      swap2\n      pop\n      pop\n        /* \"#utility.yul\":245:663   */\n      swap3\n      swap2\n      pop\n      pop\n      jump\t// out\n        /* \"#utility.yul\":668:841   */\n    tag_504:\n        /* \"#utility.yul\":736:756   */\n      dup1\n      calldataload\n      sub(shl(0xa0, 0x01), 0x01)\n        /* \"#utility.yul\":785:816   */\n      dup2\n      and\n        /* \"#utility.yul\":775:817   */\n      dup2\n      eq\n        /* \"#utility.yul\":765:835   */\n      tag_511\n      jumpi\n        /* \"#utility.yul\":831:832   */\n      0x00\n        /* \"#utility.yul\":828:829   */\n      0x00\n        /* \"#utility.yul\":821:833   */\n      revert\n        /* \"#utility.yul\":765:835   */\n    tag_511:\n        /* \"#utility.yul\":668:841   */\n      swap2\n      swap1\n      pop\n      jump\t// out\n        /* \"#utility.yul\":846:1146   */\n    tag_57:\n        /* \"#utility.yul\":914:920   */\n      0x00\n        /* \"#utility.yul\":922:928   */\n      0x00\n        /* \"#utility.yul\":975:977   */\n      0x40\n        /* \"#utility.yul\":963:972   */\n      dup4\n        /* \"#utility.yul\":954:961   */\n      dup6\n        /* \"#utility.yul\":950:973   */\n      sub\n        /* \"#utility.yul\":946:978   */\n      slt\n        /* \"#utility.yul\":943:995   */\n      iszero\n      tag_513\n      jumpi\n        /* \"#utility.yul\":991:992   */\n      0x00\n        /* \"#utility.yul\":988:989   */\n      0x00\n        /* \"#utility.yul\":981:993   */\n      revert\n        /* \"#utility.yul\":943:995   */\n    tag_513:\n        /* \"#utility.yul\":1014:1043   */\n      tag_514\n        /* \"#utility.yul\":1033:1042   */\n      dup4\n        /* \"#utility.yul\":1014:1043   */\n      tag_504\n      jump\t// in\n    tag_514:\n        /* \"#utility.yul\":1004:1043   */\n      swap5\n        /* \"#utility.yul\":1112:1114   */\n      0x20\n        /* \"#utility.yul\":1097:1115   */\n      swap4\n      swap1\n      swap4\n      add\n        /* \"#utility.yul\":1084:1116   */\n      calldataload\n      swap4\n      pop\n      pop\n      pop\n        /* \"#utility.yul\":846:1146   */\n      jump\t// out\n        /* \"#utility.yul\":1525:1899   */\n    tag_69:\n        /* \"#utility.yul\":1602:1608   */\n      0x00\n        /* \"#utility.yul\":1610:1616   */\n      0x00\n        /* \"#utility.yul\":1618:1624   */\n      0x00\n        /* \"#utility.yul\":1671:1673   */\n      0x60\n        /* \"#utility.yul\":1659:1668   */\n      dup5\n        /* \"#utility.yul\":1650:1657   */\n      dup7\n        /* \"#utility.yul\":1646:1669   */\n      sub\n        /* \"#utility.yul\":1642:1674   */\n      slt\n        /* \"#utility.yul\":1639:1691   */\n      iszero\n      tag_518\n      jumpi\n        /* \"#utility.yul\":1687:1688   */\n      0x00\n        /* \"#utility.yul\":1684:1685   */\n      0x00\n        /* \"#utility.yul\":1677:1689   */\n      revert\n        /* \"#utility.yul\":1639:1691   */\n    tag_518:\n        /* \"#utility.yul\":1710:1739   */\n      tag_519\n        /* \"#utility.yul\":1729:1738   */\n      dup5\n        /* \"#utility.yul\":1710:1739   */\n      tag_504\n      jump\t// in\n    tag_519:\n        /* \"#utility.yul\":1700:1739   */\n      swap3\n      pop\n        /* \"#utility.yul\":1758:1796   */\n      tag_520\n        /* \"#utility.yul\":1792:1794   */\n      0x20\n        /* \"#utility.yul\":1781:1790   */\n      dup6\n        /* \"#utility.yul\":1777:1795   */\n      add\n        /* \"#utility.yul\":1758:1796   */\n      tag_504\n      jump\t// in\n    tag_520:\n        /* \"#utility.yul\":1525:1899   */\n      swap3\n      swap6\n        /* \"#utility.yul\":1748:1796   */\n      swap3\n      swap5\n      pop\n      pop\n      pop\n        /* \"#utility.yul\":1865:1867   */\n      0x40\n        /* \"#utility.yul\":1850:1868   */\n      swap2\n      swap1\n      swap2\n      add\n        /* \"#utility.yul\":1837:1869   */\n      calldataload\n      swap1\n        /* \"#utility.yul\":1525:1899   */\n      jump\t// out\n        /* \"#utility.yul\":2093:2279   */\n    tag_84:\n        /* \"#utility.yul\":2152:2158   */\n      0x00\n        /* \"#utility.yul\":2205:2207   */\n      0x20\n        /* \"#utility.yul\":2193:2202   */\n      dup3\n        /* \"#utility.yul\":2184:2191   */\n      dup5\n        /* \"#utility.yul\":2180:2203   */\n      sub\n        /* \"#utility.yul\":2176:2208   */\n      slt\n        /* \"#utility.yul\":2173:2225   */\n      iszero\n      tag_523\n      jumpi\n        /* \"#utility.yul\":2221:2222   */\n      0x00\n        /* \"#utility.yul\":2218:2219   */\n      0x00\n        /* \"#utility.yul\":2211:2223   */\n      revert\n        /* \"#utility.yul\":2173:2225   */\n    tag_523:\n        /* \"#utility.yul\":2244:2273   */\n      tag_386\n        /* \"#utility.yul\":2263:2272   */\n      dup3\n        /* \"#utility.yul\":2244:2273   */\n      tag_504\n      jump\t// in\n        /* \"#utility.yul\":2284:2679   */\n    tag_94:\n        /* \"#utility.yul\":2349:2355   */\n      0x00\n        /* \"#utility.yul\":2357:2363   */\n      0x00\n        /* \"#utility.yul\":2410:2412   */\n      0x40\n        /* \"#utility.yul\":2398:2407   */\n      dup4\n        /* \"#utility.yul\":2389:2396   */\n      dup6\n        /* \"#utility.yul\":2385:2408   */\n      sub\n        /* \"#utility.yul\":2381:2413   */\n      slt\n        /* \"#utility.yul\":2378:2430   */\n      iszero\n      tag_526\n      jumpi\n        /* \"#utility.yul\":2426:2427   */\n      0x00\n        /* \"#utility.yul\":2423:2424   */\n      0x00\n        /* \"#utility.yul\":2416:2428   */\n      revert\n        /* \"#utility.yul\":2378:2430   */\n    tag_526:\n        /* \"#utility.yul\":2471:2494   */\n      dup3\n      calldataload\n      swap2\n      pop\n        /* \"#utility.yul\":2570:2572   */\n      0x20\n        /* \"#utility.yul\":2555:2573   */\n      dup4\n      add\n        /* \"#utility.yul\":2542:2574   */\n      calldataload\n        /* \"#utility.yul\":2612:2627   */\n      dup1\n      iszero\n        /* \"#utility.yul\":2605:2628   */\n      iszero\n        /* \"#utility.yul\":2593:2629   */\n      dup2\n      eq\n        /* \"#utility.yul\":2583:2647   */\n      tag_527\n      jumpi\n        /* \"#utility.yul\":2643:2644   */\n      0x00\n        /* \"#utility.yul\":2640:2641   */\n      0x00\n        /* \"#utility.yul\":2633:2645   */\n      revert\n        /* \"#utility.yul\":2583:2647   */\n    tag_527:\n        /* \"#utility.yul\":2666:2673   */\n      dup1\n        /* \"#utility.yul\":2656:2673   */\n      swap2\n      pop\n      pop\n        /* \"#utility.yul\":2284:2679   */\n      swap3\n      pop\n      swap3\n      swap1\n      pop\n      jump\t// out\n        /* \"#utility.yul\":2892:3152   */\n    tag_172:\n        /* \"#utility.yul\":2960:2966   */\n      0x00\n        /* \"#utility.yul\":2968:2974   */\n      0x00\n        /* \"#utility.yul\":3021:3023   */\n      0x40\n        /* \"#utility.yul\":3009:3018   */\n      dup4\n        /* \"#utility.yul\":3000:3007   */\n      dup6\n        /* \"#utility.yul\":2996:3019   */\n      sub\n        /* \"#utility.yul\":2992:3024   */\n      slt\n        /* \"#utility.yul\":2989:3041   */\n      iszero\n      tag_530\n      jumpi\n        /* \"#utility.yul\":3037:3038   */\n      0x00\n        /* \"#utility.yul\":3034:3035   */\n      0x00\n        /* \"#utility.yul\":3027:3039   */\n      revert\n        /* \"#utility.yul\":2989:3041   */\n    tag_530:\n        /* \"#utility.yul\":3060:3089   */\n      tag_531\n        /* \"#utility.yul\":3079:3088   */\n      dup4\n        /* \"#utility.yul\":3060:3089   */\n      tag_504\n      jump\t// in\n    tag_531:\n        /* \"#utility.yul\":3050:3089   */\n      swap2\n      pop\n        /* \"#utility.yul\":3108:3146   */\n      tag_532\n        /* \"#utility.yul\":3142:3144   */\n      0x20\n        /* \"#utility.yul\":3131:3140   */\n      dup5\n        /* \"#utility.yul\":3127:3145   */\n      add\n        /* \"#utility.yul\":3108:3146   */\n      tag_504\n      jump\t// in\n    tag_532:\n        /* \"#utility.yul\":3098:3146   */\n      swap1\n      pop\n        /* \"#utility.yul\":2892:3152   */\n      swap3\n      pop\n      swap3\n      swap1\n      pop\n      jump\t// out\n        /* \"#utility.yul\":3570:3697   */\n    tag_505:\n        /* \"#utility.yul\":3631:3641   */\n      0x4e487b71\n        /* \"#utility.yul\":3626:3629   */\n      0xe0\n        /* \"#utility.yul\":3622:3642   */\n      shl\n        /* \"#utility.yul\":3619:3620   */\n      0x00\n        /* \"#utility.yul\":3612:3643   */\n      mstore\n        /* \"#utility.yul\":3662:3666   */\n      0x11\n        /* \"#utility.yul\":3659:3660   */\n      0x04\n        /* \"#utility.yul\":3652:3667   */\n      mstore\n        /* \"#utility.yul\":3686:3690   */\n      0x24\n        /* \"#utility.yul\":3683:3684   */\n      0x00\n        /* \"#utility.yul\":3676:3691   */\n      revert\n        /* \"#utility.yul\":3702:3830   */\n    tag_200:\n        /* \"#utility.yul\":3769:3778   */\n      dup2\n      dup2\n      sub\n        /* \"#utility.yul\":3790:3801   */\n      dup2\n      dup2\n      gt\n        /* \"#utility.yul\":3787:3824   */\n      iszero\n      tag_211\n      jumpi\n        /* \"#utility.yul\":3804:3822   */\n      tag_211\n      tag_505\n      jump\t// in\n        /* \"#utility.yul\":3835:3960   */\n    tag_203:\n        /* \"#utility.yul\":3900:3909   */\n      dup1\n      dup3\n      add\n        /* \"#utility.yul\":3921:3931   */\n      dup1\n      dup3\n      gt\n        /* \"#utility.yul\":3918:3954   */\n      iszero\n      tag_211\n      jumpi\n        /* \"#utility.yul\":3934:3952   */\n      tag_211\n      tag_505\n      jump\t// in\n        /* \"#utility.yul\":3965:4345   */\n    tag_206:\n        /* \"#utility.yul\":4044:4045   */\n      0x01\n        /* \"#utility.yul\":4040:4052   */\n      dup2\n      dup2\n      shr\n      swap1\n        /* \"#utility.yul\":4087:4099   */\n      dup3\n      and\n      dup1\n        /* \"#utility.yul\":4108:4169   */\n      tag_542\n      jumpi\n        /* \"#utility.yul\":4162:4166   */\n      0x7f\n        /* \"#utility.yul\":4154:4160   */\n      dup3\n        /* \"#utility.yul\":4150:4167   */\n      and\n        /* \"#utility.yul\":4140:4167   */\n      swap2\n      pop\n        /* \"#utility.yul\":4108:4169   */\n    tag_542:\n        /* \"#utility.yul\":4215:4217   */\n      0x20\n        /* \"#utility.yul\":4207:4213   */\n      dup3\n        /* \"#utility.yul\":4204:4218   */\n      lt\n        /* \"#utility.yul\":4184:4202   */\n      dup2\n        /* \"#utility.yul\":4181:4219   */\n      sub\n        /* \"#utility.yul\":4178:4339   */\n      tag_543\n      jumpi\n        /* \"#utility.yul\":4261:4271   */\n      0x4e487b71\n        /* \"#utility.yul\":4256:4259   */\n      0xe0\n        /* \"#utility.yul\":4252:4272   */\n      shl\n        /* \"#utility.yul\":4249:4250   */\n      0x00\n        /* \"#utility.yul\":4242:4273   */\n      mstore\n        /* \"#utility.yul\":4296:4300   */\n      0x22\n        /* \"#utility.yul\":4293:4294   */\n      0x04\n        /* \"#utility.yul\":4286:4301   */\n      mstore\n        /* \"#utility.yul\":4324:4328   */\n      0x24\n        /* \"#utility.yul\":4321:4322   */\n      0x00\n        /* \"#utility.yul\":4314:4329   */\n      revert\n        /* \"#utility.yul\":4178:4339   */\n    tag_543:\n      pop\n        /* \"#utility.yul\":3965:4345   */\n      swap2\n      swap1\n      pop\n      jump\t// out\n        /* \"#utility.yul\":6534:6661   */\n    tag_312:\n        /* \"#utility.yul\":6595:6605   */\n      0x4e487b71\n        /* \"#utility.yul\":6590:6593   */\n      0xe0\n        /* \"#utility.yul\":6586:6606   */\n      shl\n        /* \"#utility.yul\":6583:6584   */\n      0x00\n        /* \"#utility.yul\":6576:6607   */\n      mstore\n        /* \"#utility.yul\":6626:6630   */\n      0x32\n        /* \"#utility.yul\":6623:6624   */\n      0x04\n        /* \"#utility.yul\":6616:6631   */\n      mstore\n        /* \"#utility.yul\":6650:6654   */\n      0x24\n        /* \"#utility.yul\":6647:6648   */\n      0x00\n        /* \"#utility.yul\":6640:6655   */\n      revert\n        /* \"#utility.yul\":6666:6793   */\n    tag_324:\n        /* \"#utility.yul\":6727:6737   */\n      0x4e487b71\n        /* \"#utility.yul\":6722:6725   */\n      0xe0\n        /* \"#utility.yul\":6718:6738   */\n      shl\n        /* \"#utility.yul\":6715:6716   */\n      0x00\n        /* \"#utility.yul\":6708:6739   */\n      mstore\n        /* \"#utility.yul\":6758:6762   */\n      0x31\n        /* \"#utility.yul\":6755:6756   */\n      0x04\n        /* \"#utility.yul\":6748:6763   */\n      mstore\n        /* \"#utility.yul\":6782:6786   */\n      0x24\n        /* \"#utility.yul\":6779:6780   */\n      0x00\n        /* \"#utility.yul\":6772:6787   */\n      revert\n        /* \"#utility.yul\":6798:6966   */\n    tag_334:\n        /* \"#utility.yul\":6871:6880   */\n      dup1\n      dup3\n      mul\n        /* \"#utility.yul\":6902:6911   */\n      dup2\n      iszero\n        /* \"#utility.yul\":6919:6934   */\n      dup3\n      dup3\n      div\n        /* \"#utility.yul\":6913:6935   */\n      dup5\n      eq\n        /* \"#utility.yul\":6899:6936   */\n      or\n        /* \"#utility.yul\":6889:6960   */\n      tag_211\n      jumpi\n        /* \"#utility.yul\":6940:6958   */\n      tag_211\n      tag_505\n      jump\t// in\n        /* \"#utility.yul\":10049:10266   */\n    tag_387:\n        /* \"#utility.yul\":10089:10090   */\n      0x00\n        /* \"#utility.yul\":10115:10116   */\n      dup3\n        /* \"#utility.yul\":10105:10237   */\n      tag_564\n      jumpi\n        /* \"#utility.yul\":10159:10169   */\n      0x4e487b71\n        /* \"#utility.yul\":10154:10157   */\n      0xe0\n        /* \"#utility.yul\":10150:10170   */\n      shl\n        /* \"#utility.yul\":10147:10148   */\n      0x00\n        /* \"#utility.yul\":10140:10171   */\n      mstore\n        /* \"#utility.yul\":10194:10198   */\n      0x12\n        /* \"#utility.yul\":10191:10192   */\n      0x04\n        /* \"#utility.yul\":10184:10199   */\n      mstore\n        /* \"#utility.yul\":10222:10226   */\n      0x24\n        /* \"#utility.yul\":10219:10220   */\n      0x00\n        /* \"#utility.yul\":10212:10227   */\n      revert\n        /* \"#utility.yul\":10105:10237   */\n    tag_564:\n      pop\n        /* \"#utility.yul\":10251:10260   */\n      div\n      swap1\n        /* \"#utility.yul\":10049:10266   */\n      jump\t// out\n\n    auxdata: 0xa2646970667358221220ab0543713087c0dbc900cd480141d1068a4f9207bf42eef1faf2a8edaf59227464736f6c634300081d0033\n}\n",
				"bytecode": {
					"linkReferences": {},
					"object": "6080604052600b8054610100600160a81b03191633610100021790555f600e556017805460ff19169055348015610034575f5ffd5b506040518060400160405280600881526020016730b1319031b7b4b760c11b81525060405180604001604052806005815260200164435942434360d81b81525081600390816100839190610429565b5060046100908282610429565b5050600b805460ff191660129081179091556100ae9150600a6105dc565b6100bc90633b9aca006105ee565b600c8190556100cc905f19610605565b6100d7905f19610624565b600d556002600f81905560105560016011819055601255600b54601380546001600160a01b0319166001600160a01b0361010084041617905561011e9060ff16600a6105dc565b61012b90629896806105ee565b601555600160075f61014a600b5461010090046001600160a01b031690565b6001600160a01b03908116825260208083019390935260409182015f908120805495151560ff1996871617905560135490911681526007909252808220805484166001908117909155308352908220805490931681179092556008906101bd600b5461010090046001600160a01b031690565b6001600160a01b03908116825260208083019390935260409182015f908120805495151560ff1996871617905560135482168152600884528281208054909516600117909455600d54600b5461010090049091168452600590925290912081905561022990339061022e565b61064a565b6001600160a01b03821661025c5760405163ec442f0560e01b81525f60048201526024015b60405180910390fd5b6102675f838361026b565b5050565b6001600160a01b038316610295578060025f82825461028a9190610637565b909155506103059050565b6001600160a01b0383165f90815260208190526040902054818110156102e75760405163391434e360e21b81526001600160a01b03851660048201526024810182905260448101839052606401610253565b6001600160a01b0384165f9081526020819052604090209082900390555b6001600160a01b0382166103215760028054829003905561033f565b6001600160a01b0382165f9081526020819052604090208054820190555b816001600160a01b0316836001600160a01b03167fddf252ad1be2c89b69c2b068fc378daa952ba7f163c4a11628f55a4df523b3ef8360405161038491815260200190565b60405180910390a3505050565b634e487b7160e01b5f52604160045260245ffd5b600181811c908216806103b957607f821691505b6020821081036103d757634e487b7160e01b5f52602260045260245ffd5b50919050565b601f82111561042457805f5260205f20601f840160051c810160208510156104025750805b601f840160051c820191505b81811015610421575f815560010161040e565b50505b505050565b81516001600160401b0381111561044257610442610391565b6104568161045084546103a5565b846103dd565b6020601f821160018114610488575f83156104715750848201515b5f19600385901b1c1916600184901b178455610421565b5f84815260208120601f198516915b828110156104b75787850151825560209485019460019092019101610497565b50848210156104d457868401515f19600387901b60f8161c191681555b50505050600190811b01905550565b634e487b7160e01b5f52601160045260245ffd5b6001815b600184111561053257808504811115610516576105166104e3565b600184161561052457908102905b60019390931c9280026104fb565b935093915050565b5f82610548575060016105d6565b8161055457505f6105d6565b816001811461056a576002811461057457610590565b60019150506105d6565b60ff841115610585576105856104e3565b50506001821b6105d6565b5060208310610133831016604e8410600b84101617156105b3575081810a6105d6565b6105bf5f1984846104f7565b805f19048211156105d2576105d26104e3565b0290505b92915050565b5f6105e7838361053a565b9392505050565b80820281158282048414176105d6576105d66104e3565b5f8261061f57634e487b7160e01b5f52601260045260245ffd5b500690565b818103818111156105d6576105d66104e3565b808201808211156105d6576105d66104e3565b611d0d806106575f395ff3fe6080604052600436106101de575f3560e01c806383ad7994116100fd578063c9567bf911610092578063f2fde38b11610062578063f2fde38b146105bb578063f66608fe146105da578063fdeb889f146105ee578063ffb54a991461060d575f5ffd5b8063c9567bf914610517578063cba0e9961461052b578063d00efb2f14610562578063dd62ed3e14610577575f5ffd5b8063a8b08982116100cd578063a8b089821461049b578063a9059cbb146104ba578063c30796ab146104d9578063c4863770146104f8575f5ffd5b806383ad7994146104325780638873b15f146104465780638da5cb5b1461046557806395d89b4114610487575f5ffd5b8063437823ec116101735780636049876e116101435780636049876e146103af57806370a08231146103ce578063715018a6146103ed578063838fcc9014610401575f5ffd5b8063437823ec146103035780634549b039146103225780635342acb4146103415780635fae057614610378575f5ffd5b806323b872dd116101ae57806323b872dd14610281578063313ce567146102a057806332035504146102c15780633af32abf146102d5575f5ffd5b8063053ab182146101e957806306fdde031461020a578063095ea7b31461023457806318160ddd14610263575f5ffd5b366101e557005b5f5ffd5b3480156101f4575f5ffd5b50610208610203366004611ac2565b610626565b005b348015610215575f5ffd5b5061021e610711565b60405161022b9190611ad9565b60405180910390f35b34801561023f575f5ffd5b5061025361024e366004611b29565b6107a1565b604051901515815260200161022b565b34801561026e575f5ffd5b50600c545b60405190815260200161022b565b34801561028c575f5ffd5b5061025361029b366004611b51565b6107ba565b3480156102ab575f5ffd5b50600b5460405160ff909116815260200161022b565b3480156102cc575f5ffd5b50600e54610273565b3480156102e0575f5ffd5b506102536102ef366004611b8b565b60086020525f908152604090205460ff1681565b34801561030e575f5ffd5b5061020861031d366004611b8b565b6107dd565b34801561032d575f5ffd5b5061027361033c366004611ba4565b610824565b34801561034c575f5ffd5b5061025361035b366004611b8b565b6001600160a01b03165f9081526007602052604090205460ff1690565b348015610383575f5ffd5b50610253610392366004611b8b565b6001600160a01b03165f9081526008602052604090205460ff1690565b3480156103ba575f5ffd5b506102086103c9366004611b8b565b6108aa565b3480156103d9575f5ffd5b506102736103e8366004611b8b565b6109ef565b3480156103f8575f5ffd5b50610208610a4b565b34801561040c575f5ffd5b506013546001600160a01b03165b6040516001600160a01b03909116815260200161022b565b34801561043d575f5ffd5b50600f54610273565b348015610451575f5ffd5b50610208610460366004611b8b565b610ad1565b348015610470575f5ffd5b50600b5461010090046001600160a01b031661041a565b348015610492575f5ffd5b5061021e610b2b565b3480156104a6575f5ffd5b5060145461041a906001600160a01b031681565b3480156104c5575f5ffd5b506102536104d4366004611b29565b610b3a565b3480156104e4575f5ffd5b506102086104f3366004611b8b565b610b47565b348015610503575f5ffd5b50610208610512366004611b8b565b610bf5565b348015610522575f5ffd5b50610208610c9b565b348015610536575f5ffd5b50610253610545366004611b8b565b6001600160a01b03165f9081526009602052604090205460ff1690565b34801561056d575f5ffd5b5061027360165481565b348015610582575f5ffd5b50610273610591366004611bd6565b6001600160a01b039182165f90815260016020908152604080832093909416825291909152205490565b3480156105c6575f5ffd5b506102086105d5366004611b8b565b610ccf565b3480156105e5575f5ffd5b50601154610273565b3480156105f9575f5ffd5b50610208610608366004611b8b565b610d15565b348015610618575f5ffd5b506017546102539060ff1681565b335f8181526009602052604090205460ff161561069f5760405162461bcd60e51b815260206004820152602c60248201527f4578636c75646564206164647265737365732063616e6e6f742063616c6c207460448201526b3434b990333ab731ba34b7b760a11b60648201526084015b60405180910390fd5b5f6106a983610eb1565b5050506001600160a01b0383165f908152600560205260409020549091506106d2908290611c1b565b6001600160a01b0383165f90815260056020526040902055600d546106f8908290611c1b565b600d55600e54610709908490611c2e565b600e55505050565b60606003805461072090611c41565b80601f016020809104026020016040519081016040528092919081815260200182805461074c90611c41565b80156107975780601f1061076e57610100808354040283529160200191610797565b820191905f5260205f20905b81548152906001019060200180831161077a57829003601f168201915b5050505050905090565b5f336107ae818585610f02565b60019150505b92915050565b5f336107c7858285610f14565b6107d2858585610f90565b506001949350505050565b600b54339061010090046001600160a01b03166001600160a01b031603610821576001600160a01b0381165f908152600760205260409020805460ff191660011790555b50565b5f600c548311156108775760405162461bcd60e51b815260206004820152601f60248201527f416d6f756e74206d757374206265206c657373207468616e20737570706c79006044820152606401610696565b81610893575f61088684610eb1565b509193506107b492505050565b5f61089d84610eb1565b509093506107b492505050565b600b54339061010090046001600160a01b03166001600160a01b031603610821576001600160a01b0381165f9081526009602052604090205460ff16156109335760405162461bcd60e51b815260206004820152601b60248201527f4163636f756e7420697320616c7265616479206578636c7564656400000000006044820152606401610696565b6001600160a01b0381165f908152600560205260409020541561098a576001600160a01b0381165f90815260056020526040902054610971906112a4565b6001600160a01b0382165f908152600660205260409020555b6001600160a01b03165f818152600960205260408120805460ff19166001908117909155600a805491820181559091527fc65a7bb8d6351c1cf70c95a316cc6a92839c986682d98bc35f958f4883f9d2a80180546001600160a01b0319169091179055565b6001600160a01b0381165f9081526009602052604081205460ff1615610a2a57506001600160a01b03165f9081526006602052604090205490565b6001600160a01b0382165f908152600560205260409020546107b4906112a4565b600b54339061010090046001600160a01b03166001600160a01b031603610acf57600b5461010090046001600160a01b0316610abd5760405162461bcd60e51b8152602060048201526011602482015270185b1c9958591e481c995b9bdd5b98d959607a1b6044820152606401610696565b600b8054610100600160a81b03191690555b565b600b54339061010090046001600160a01b03166001600160a01b03160361082157601480546001600160a01b0319166001600160a01b039290921691821790555f908152600860205260409020805460ff19166001179055565b60606004805461072090611c41565b5f336107ae818585610f90565b600b54339061010090046001600160a01b03166001600160a01b031603610821576001600160a01b0381165f9081526008602052604090205460ff1615610bd05760405162461bcd60e51b815260206004820152601e60248201527f4164647265737320697320616c72656164792077686974656c697374656400006044820152606401610696565b6001600160a01b0381165f908152600860205260409020805460ff1916600117905550565b600b54339061010090046001600160a01b03166001600160a01b031603610821576001600160a01b038116610c7b5760405162461bcd60e51b815260206004820152602660248201527f7a65726f20616464726573732063616e206e6f7420626520746865204665654160448201526518d8dbdd5b9d60d21b6064820152608401610696565b601380546001600160a01b0383166001600160a01b031990911617905550565b600b54339061010090046001600160a01b03166001600160a01b031603610acf576017805460ff1916600117905543601655565b600b54339061010090046001600160a01b03166001600160a01b03160361082157600b80546001600160a01b03831661010002610100600160a81b031990911617905550565b600b54339061010090046001600160a01b03166001600160a01b031603610821576001600160a01b0381165f9081526009602052604090205460ff16610d9d5760405162461bcd60e51b815260206004820152601b60248201527f4163636f756e7420697320616c726561647920696e636c7564656400000000006044820152606401610696565b5f5b600a54811015610ead57816001600160a01b0316600a8281548110610dc657610dc6611c79565b5f918252602090912001546001600160a01b031603610ea557600a8054610def90600190611c1b565b81548110610dff57610dff611c79565b5f91825260209091200154600a80546001600160a01b039092169183908110610e2a57610e2a611c79565b5f91825260208083209190910180546001600160a01b0319166001600160a01b039485161790559184168152600682526040808220829055600990925220805460ff19169055600a805480610e8157610e81611c8d565b5f8281526020902081015f1990810180546001600160a01b03191690550190555050565b600101610d9f565b5050565b5f5f5f5f5f610ebf86611326565b90505f610ecc8288611c1b565b90505f610ed7611359565b90505f610ee48284611ca1565b90505f610ef1838b611ca1565b9a9199509297509095509350505050565b610f0f838383600161137a565b505050565b6001600160a01b038381165f908152600160209081526040808320938616835292905220545f19811015610f8a5781811015610f7c57604051637dc7a0d960e11b81526001600160a01b03841660048201526024810182905260448101839052606401610696565b610f8a84848484035f61137a565b50505050565b6017548390839060ff1661100a576001600160a01b0382165f9081526008602052604090205460ff166110055760405162461bcd60e51b815260206004820152601760248201527f54726164696e67206e6f742079657420656e61626c65640000000000000000006044820152606401610696565b611090565b601654611018906003611c2e565b4311611090576001600160a01b0381165f9081526008602052604090205460ff166110905760405162461bcd60e51b815260206004820152602260248201527f4c61756e63682070726f74656374696f6e3a206e6f742077686974656c697374604482015261195960f21b6064820152608401610696565b6001600160a01b0385166110f45760405162461bcd60e51b815260206004820152602560248201527f45524332303a207472616e736665722066726f6d20746865207a65726f206164604482015264647265737360d81b6064820152608401610696565b6001600160a01b0384166111565760405162461bcd60e51b815260206004820152602360248201527f45524332303a207472616e7366657220746f20746865207a65726f206164647260448201526265737360e81b6064820152608401610696565b5f611160866109ef565b9050838110156111c15760405162461bcd60e51b815260206004820152602660248201527f45524332303a207472616e7366657220616d6f756e7420657863656564732062604482015265616c616e636560d01b6064820152608401610696565b6001600160a01b0385165f9081526007602052604090205460ff1661123857601554846111ed876109ef565b6111f79190611c2e565b11156112385760405162461bcd60e51b815260206004820152601060248201526f5768616c65206465746563746564212160801b6044820152606401610696565b6014545f906001600160a01b038881169116148061126357506014546001600160a01b038781169116145b1561126c575060015b6001600160a01b0387165f9081526007602052604090205460ff161561128f57505f5b61129b8787878461144c565b50505050505050565b5f600d5482111561130a5760405162461bcd60e51b815260206004820152602a60248201527f416d6f756e74206d757374206265206c657373207468616e20746f74616c207260448201526965666c656374696f6e7360b01b6064820152608401610696565b5f611313611359565b905061131f8184611cb8565b9392505050565b5f5f601154600f546113389190611c2e565b90505f60646113478386611ca1565b6113519190611cb8565b949350505050565b5f5f5f6113646115bb565b90925090506113738183611cb8565b9250505090565b6001600160a01b0384166113a35760405163e602df0560e01b81525f6004820152602401610696565b6001600160a01b0383166113cc57604051634a1406b160e11b81525f6004820152602401610696565b6001600160a01b038085165f9081526001602090815260408083209387168352929052208290558015610f8a57826001600160a01b0316846001600160a01b03167f8c5be1e5ebec7d5bd14f71427d1e84f3dd0314c0f7b2291e5b200ac8c7c3b9258460405161143e91815260200190565b60405180910390a350505050565b806114595761145961172b565b6001600160a01b0384165f9081526009602052604090205460ff16801561149857506001600160a01b0383165f9081526009602052604090205460ff16155b156114ad576114a8848484611758565b6115a5565b6001600160a01b0384165f9081526009602052604090205460ff161580156114ec57506001600160a01b0383165f9081526009602052604090205460ff165b156114fc576114a8848484611873565b6001600160a01b0384165f9081526009602052604090205460ff1615801561153c57506001600160a01b0383165f9081526009602052604090205460ff16155b1561154c576114a8848484611912565b6001600160a01b0384165f9081526009602052604090205460ff16801561158a57506001600160a01b0383165f9081526009602052604090205460ff165b1561159a576114a884848461194c565b6115a5848484611912565b80610f8a57610f8a601054600f55601254601155565b600d54600c545f918291825b600a548110156116fa578260055f600a84815481106115e8576115e8611c79565b5f9182526020808320909101546001600160a01b03168352820192909252604001902054118061165057508160065f600a848154811061162a5761162a611c79565b5f9182526020808320909101546001600160a01b03168352820192909252604001902054115b1561166657600d54600c54945094505050509091565b60055f600a838154811061167c5761167c611c79565b5f9182526020808320909101546001600160a01b031683528201929092526040019020546116aa9084611c1b565b925060065f600a83815481106116c2576116c2611c79565b5f9182526020808320909101546001600160a01b031683528201929092526040019020546116f09083611c1b565b91506001016115c7565b50600c54600d5461170b9190611cb8565b82101561172257600d54600c549350935050509091565b90939092509050565b600f5415801561173b5750601154155b1561174257565b600f8054601055601180546012555f9182905555565b5f5f5f5f61176585610eb1565b6001600160a01b038b165f9081526006602052604090205493975091955093509150611792908690611c1b565b6001600160a01b0388165f908152600660209081526040808320939093556005905220546117c1908590611c1b565b6001600160a01b038089165f9081526005602052604080822093909355908816815220546117f0908490611c2e565b6001600160a01b0387165f908152600560205260409020556118138786836119b5565b61181d8582611a70565b856001600160a01b0316876001600160a01b03167fddf252ad1be2c89b69c2b068fc378daa952ba7f163c4a11628f55a4df523b3ef8460405161186291815260200190565b60405180910390a350505050505050565b5f5f5f5f61188085610eb1565b6001600160a01b038b165f90815260056020526040902054939750919550935091506118ad908590611c1b565b6001600160a01b038089165f908152600560209081526040808320949094559189168152600690915220546118e3908390611c2e565b6001600160a01b0387165f908152600660209081526040808320939093556005905220546117f0908490611c2e565b5f5f5f5f61191f85610eb1565b6001600160a01b038b165f90815260056020526040902054939750919550935091506117c1908590611c1b565b5f5f5f5f61195985610eb1565b6001600160a01b038b165f9081526006602052604090205493975091955093509150611986908690611c1b565b6001600160a01b0388165f908152600660209081526040808320939093556005905220546118ad908590611c1b565b5f6064601154846119c69190611ca1565b6119d09190611cb8565b90508015610f8a575f6119e38383611ca1565b6013546001600160a01b03165f90815260056020526040902054909150611a0b908290611c2e565b601380546001600160a01b039081165f90815260056020908152604091829020949094559154915185815291811692908816917fddf252ad1be2c89b69c2b068fc378daa952ba7f163c4a11628f55a4df523b3ef910160405180910390a35050505050565b5f6064600f5484611a819190611ca1565b611a8b9190611cb8565b90505f611a988383611ca1565b905080600d54611aa89190611c1b565b600d55600e54611ab9908390611c2e565b600e5550505050565b5f60208284031215611ad2575f5ffd5b5035919050565b602081525f82518060208401528060208501604085015e5f604082850101526040601f19601f83011684010191505092915050565b80356001600160a01b0381168114611b24575f5ffd5b919050565b5f5f60408385031215611b3a575f5ffd5b611b4383611b0e565b946020939093013593505050565b5f5f5f60608486031215611b63575f5ffd5b611b6c84611b0e565b9250611b7a60208501611b0e565b929592945050506040919091013590565b5f60208284031215611b9b575f5ffd5b61131f82611b0e565b5f5f60408385031215611bb5575f5ffd5b8235915060208301358015158114611bcb575f5ffd5b809150509250929050565b5f5f60408385031215611be7575f5ffd5b611bf083611b0e565b9150611bfe60208401611b0e565b90509250929050565b634e487b7160e01b5f52601160045260245ffd5b818103818111156107b4576107b4611c07565b808201808211156107b4576107b4611c07565b600181811c90821680611c5557607f821691505b602082108103611c7357634e487b7160e01b5f52602260045260245ffd5b50919050565b634e487b7160e01b5f52603260045260245ffd5b634e487b7160e01b5f52603160045260245ffd5b80820281158282048414176107b4576107b4611c07565b5f82611cd257634e487b7160e01b5f52601260045260245ffd5b50049056fea2646970667358221220ab0543713087c0dbc900cd480141d1068a4f9207bf42eef1faf2a8edaf59227464736f6c634300081d0033",
					"opcodes": "PUSH1 0x80 PUSH1 0x40 MSTORE PUSH1 0xB DUP1 SLOAD PUSH2 0x100 PUSH1 0x1 PUSH1 0xA8 SHL SUB NOT AND CALLER PUSH2 0x100 MUL OR SWAP1 SSTORE PUSH0 PUSH1 0xE SSTORE PUSH1 0x17 DUP1 SLOAD PUSH1 0xFF NOT AND SWAP1 SSTORE CALLVALUE DUP1 ISZERO PUSH2 0x34 JUMPI PUSH0 PUSH0 REVERT JUMPDEST POP PUSH1 0x40 MLOAD DUP1 PUSH1 0x40 ADD PUSH1 0x40 MSTORE DUP1 PUSH1 0x8 DUP2 MSTORE PUSH1 0x20 ADD PUSH8 0x30B1319031B7B4B7 PUSH1 0xC1 SHL DUP2 MSTORE POP PUSH1 0x40 MLOAD DUP1 PUSH1 0x40 ADD PUSH1 0x40 MSTORE DUP1 PUSH1 0x5 DUP2 MSTORE PUSH1 0x20 ADD PUSH5 0x4359424343 PUSH1 0xD8 SHL DUP2 MSTORE POP DUP2 PUSH1 0x3 SWAP1 DUP2 PUSH2 0x83 SWAP2 SWAP1 PUSH2 0x429 JUMP JUMPDEST POP PUSH1 0x4 PUSH2 0x90 DUP3 DUP3 PUSH2 0x429 JUMP JUMPDEST POP POP PUSH1 0xB DUP1 SLOAD PUSH1 0xFF NOT AND PUSH1 0x12 SWAP1 DUP2 OR SWAP1 SWAP2 SSTORE PUSH2 0xAE SWAP2 POP PUSH1 0xA PUSH2 0x5DC JUMP JUMPDEST PUSH2 0xBC SWAP1 PUSH4 0x3B9ACA00 PUSH2 0x5EE JUMP JUMPDEST PUSH1 0xC DUP2 SWAP1 SSTORE PUSH2 0xCC SWAP1 PUSH0 NOT PUSH2 0x605 JUMP JUMPDEST PUSH2 0xD7 SWAP1 PUSH0 NOT PUSH2 0x624 JUMP JUMPDEST PUSH1 0xD SSTORE PUSH1 0x2 PUSH1 0xF DUP2 SWAP1 SSTORE PUSH1 0x10 SSTORE PUSH1 0x1 PUSH1 0x11 DUP2 SWAP1 SSTORE PUSH1 0x12 SSTORE PUSH1 0xB SLOAD PUSH1 0x13 DUP1 SLOAD PUSH1 0x1 PUSH1 0x1 PUSH1 0xA0 SHL SUB NOT AND PUSH1 0x1 PUSH1 0x1 PUSH1 0xA0 SHL SUB PUSH2 0x100 DUP5 DIV AND OR SWAP1 SSTORE PUSH2 0x11E SWAP1 PUSH1 0xFF AND PUSH1 0xA PUSH2 0x5DC JUMP JUMPDEST PUSH2 0x12B SWAP1 PUSH3 0x989680 PUSH2 0x5EE JUMP JUMPDEST PUSH1 0x15 SSTORE PUSH1 0x1 PUSH1 0x7 PUSH0 PUSH2 0x14A PUSH1 0xB SLOAD PUSH2 0x100 SWAP1 DIV PUSH1 0x1 PUSH1 0x1 PUSH1 0xA0 SHL SUB AND SWAP1 JUMP JUMPDEST PUSH1 0x1 PUSH1 0x1 PUSH1 0xA0 SHL SUB SWAP1 DUP2 AND DUP3 MSTORE PUSH1 0x20 DUP1 DUP4 ADD SWAP4 SWAP1 SWAP4 MSTORE PUSH1 0x40 SWAP2 DUP3 ADD PUSH0 SWAP1 DUP2 KECCAK256 DUP1 SLOAD SWAP6 ISZERO ISZERO PUSH1 0xFF NOT SWAP7 DUP8 AND OR SWAP1 SSTORE PUSH1 0x13 SLOAD SWAP1 SWAP2 AND DUP2 MSTORE PUSH1 0x7 SWAP1 SWAP3 MSTORE DUP1 DUP3 KECCAK256 DUP1 SLOAD DUP5 AND PUSH1 0x1 SWAP1 DUP2 OR SWAP1 SWAP2 SSTORE ADDRESS DUP4 MSTORE SWAP1 DUP3 KECCAK256 DUP1 SLOAD SWAP1 SWAP4 AND DUP2 OR SWAP1 SWAP3 SSTORE PUSH1 0x8 SWAP1 PUSH2 0x1BD PUSH1 0xB SLOAD PUSH2 0x100 SWAP1 DIV PUSH1 0x1 PUSH1 0x1 PUSH1 0xA0 SHL SUB AND SWAP1 JUMP JUMPDEST PUSH1 0x1 PUSH1 0x1 PUSH1 0xA0 SHL SUB SWAP1 DUP2 AND DUP3 MSTORE PUSH1 0x20 DUP1 DUP4 ADD SWAP4 SWAP1 SWAP4 MSTORE PUSH1 0x40 SWAP2 DUP3 ADD PUSH0 SWAP1 DUP2 KECCAK256 DUP1 SLOAD SWAP6 ISZERO ISZERO PUSH1 0xFF NOT SWAP7 DUP8 AND OR SWAP1 SSTORE PUSH1 0x13 SLOAD DUP3 AND DUP2 MSTORE PUSH1 0x8 DUP5 MSTORE DUP3 DUP2 KECCAK256 DUP1 SLOAD SWAP1 SWAP6 AND PUSH1 0x1 OR SWAP1 SWAP5 SSTORE PUSH1 0xD SLOAD PUSH1 0xB SLOAD PUSH2 0x100 SWAP1 DIV SWAP1 SWAP2 AND DUP5 MSTORE PUSH1 0x5 SWAP1 SWAP3 MSTORE SWAP1 SWAP2 KECCAK256 DUP2 SWAP1 SSTORE PUSH2 0x229 SWAP1 CALLER SWAP1 PUSH2 0x22E JUMP JUMPDEST PUSH2 0x64A JUMP JUMPDEST PUSH1 0x1 PUSH1 0x1 PUSH1 0xA0 SHL SUB DUP3 AND PUSH2 0x25C JUMPI PUSH1 0x40 MLOAD PUSH4 0xEC442F05 PUSH1 0xE0 SHL DUP2 MSTORE PUSH0 PUSH1 0x4 DUP3 ADD MSTORE PUSH1 0x24 ADD JUMPDEST PUSH1 0x40 MLOAD DUP1 SWAP2 SUB SWAP1 REVERT JUMPDEST PUSH2 0x267 PUSH0 DUP4 DUP4 PUSH2 0x26B JUMP JUMPDEST POP POP JUMP JUMPDEST PUSH1 0x1 PUSH1 0x1 PUSH1 0xA0 SHL SUB DUP4 AND PUSH2 0x295 JUMPI DUP1 PUSH1 0x2 PUSH0 DUP3 DUP3 SLOAD PUSH2 0x28A SWAP2 SWAP1 PUSH2 0x637 JUMP JUMPDEST SWAP1 SWAP2 SSTORE POP PUSH2 0x305 SWAP1 POP JUMP JUMPDEST PUSH1 0x1 PUSH1 0x1 PUSH1 0xA0 SHL SUB DUP4 AND PUSH0 SWAP1 DUP2 MSTORE PUSH1 0x20 DUP2 SWAP1 MSTORE PUSH1 0x40 SWAP1 KECCAK256 SLOAD DUP2 DUP2 LT ISZERO PUSH2 0x2E7 JUMPI PUSH1 0x40 MLOAD PUSH4 0x391434E3 PUSH1 0xE2 SHL DUP2 MSTORE PUSH1 0x1 PUSH1 0x1 PUSH1 0xA0 SHL SUB DUP6 AND PUSH1 0x4 DUP3 ADD MSTORE PUSH1 0x24 DUP2 ADD DUP3 SWAP1 MSTORE PUSH1 0x44 DUP2 ADD DUP4 SWAP1 MSTORE PUSH1 0x64 ADD PUSH2 0x253 JUMP JUMPDEST PUSH1 0x1 PUSH1 0x1 PUSH1 0xA0 SHL SUB DUP5 AND PUSH0 SWAP1 DUP2 MSTORE PUSH1 0x20 DUP2 SWAP1 MSTORE PUSH1 0x40 SWAP1 KECCAK256 SWAP1 DUP3 SWAP1 SUB SWAP1 SSTORE JUMPDEST PUSH1 0x1 PUSH1 0x1 PUSH1 0xA0 SHL SUB DUP3 AND PUSH2 0x321 JUMPI PUSH1 0x2 DUP1 SLOAD DUP3 SWAP1 SUB SWAP1 SSTORE PUSH2 0x33F JUMP JUMPDEST PUSH1 0x1 PUSH1 0x1 PUSH1 0xA0 SHL SUB DUP3 AND PUSH0 SWAP1 DUP2 MSTORE PUSH1 0x20 DUP2 SWAP1 MSTORE PUSH1 0x40 SWAP1 KECCAK256 DUP1 SLOAD DUP3 ADD SWAP1 SSTORE JUMPDEST DUP2 PUSH1 0x1 PUSH1 0x1 PUSH1 0xA0 SHL SUB AND DUP4 PUSH1 0x1 PUSH1 0x1 PUSH1 0xA0 SHL SUB AND PUSH32 0xDDF252AD1BE2C89B69C2B068FC378DAA952BA7F163C4A11628F55A4DF523B3EF DUP4 PUSH1 0x40 MLOAD PUSH2 0x384 SWAP2 DUP2 MSTORE PUSH1 0x20 ADD SWAP1 JUMP JUMPDEST PUSH1 0x40 MLOAD DUP1 SWAP2 SUB SWAP1 LOG3 POP POP POP JUMP JUMPDEST PUSH4 0x4E487B71 PUSH1 0xE0 SHL PUSH0 MSTORE PUSH1 0x41 PUSH1 0x4 MSTORE PUSH1 0x24 PUSH0 REVERT JUMPDEST PUSH1 0x1 DUP2 DUP2 SHR SWAP1 DUP3 AND DUP1 PUSH2 0x3B9 JUMPI PUSH1 0x7F DUP3 AND SWAP2 POP JUMPDEST PUSH1 0x20 DUP3 LT DUP2 SUB PUSH2 0x3D7 JUMPI PUSH4 0x4E487B71 PUSH1 0xE0 SHL PUSH0 MSTORE PUSH1 0x22 PUSH1 0x4 MSTORE PUSH1 0x24 PUSH0 REVERT JUMPDEST POP SWAP2 SWAP1 POP JUMP JUMPDEST PUSH1 0x1F DUP3 GT ISZERO PUSH2 0x424 JUMPI DUP1 PUSH0 MSTORE PUSH1 0x20 PUSH0 KECCAK256 PUSH1 0x1F DUP5 ADD PUSH1 0x5 SHR DUP2 ADD PUSH1 0x20 DUP6 LT ISZERO PUSH2 0x402 JUMPI POP DUP1 JUMPDEST PUSH1 0x1F DUP5 ADD PUSH1 0x5 SHR DUP3 ADD SWAP2 POP JUMPDEST DUP2 DUP2 LT ISZERO PUSH2 0x421 JUMPI PUSH0 DUP2 SSTORE PUSH1 0x1 ADD PUSH2 0x40E JUMP JUMPDEST POP POP JUMPDEST POP POP POP JUMP JUMPDEST DUP2 MLOAD PUSH1 0x1 PUSH1 0x1 PUSH1 0x40 SHL SUB DUP2 GT ISZERO PUSH2 0x442 JUMPI PUSH2 0x442 PUSH2 0x391 JUMP JUMPDEST PUSH2 0x456 DUP2 PUSH2 0x450 DUP5 SLOAD PUSH2 0x3A5 JUMP JUMPDEST DUP5 PUSH2 0x3DD JUMP JUMPDEST PUSH1 0x20 PUSH1 0x1F DUP3 GT PUSH1 0x1 DUP2 EQ PUSH2 0x488 JUMPI PUSH0 DUP4 ISZERO PUSH2 0x471 JUMPI POP DUP5 DUP3 ADD MLOAD JUMPDEST PUSH0 NOT PUSH1 0x3 DUP6 SWAP1 SHL SHR NOT AND PUSH1 0x1 DUP5 SWAP1 SHL OR DUP5 SSTORE PUSH2 0x421 JUMP JUMPDEST PUSH0 DUP5 DUP2 MSTORE PUSH1 0x20 DUP2 KECCAK256 PUSH1 0x1F NOT DUP6 AND SWAP2 JUMPDEST DUP3 DUP2 LT ISZERO PUSH2 0x4B7 JUMPI DUP8 DUP6 ADD MLOAD DUP3 SSTORE PUSH1 0x20 SWAP5 DUP6 ADD SWAP5 PUSH1 0x1 SWAP1 SWAP3 ADD SWAP2 ADD PUSH2 0x497 JUMP JUMPDEST POP DUP5 DUP3 LT ISZERO PUSH2 0x4D4 JUMPI DUP7 DUP5 ADD MLOAD PUSH0 NOT PUSH1 0x3 DUP8 SWAP1 SHL PUSH1 0xF8 AND SHR NOT AND DUP2 SSTORE JUMPDEST POP POP POP POP PUSH1 0x1 SWAP1 DUP2 SHL ADD SWAP1 SSTORE POP JUMP JUMPDEST PUSH4 0x4E487B71 PUSH1 0xE0 SHL PUSH0 MSTORE PUSH1 0x11 PUSH1 0x4 MSTORE PUSH1 0x24 PUSH0 REVERT JUMPDEST PUSH1 0x1 DUP2 JUMPDEST PUSH1 0x1 DUP5 GT ISZERO PUSH2 0x532 JUMPI DUP1 DUP6 DIV DUP2 GT ISZERO PUSH2 0x516 JUMPI PUSH2 0x516 PUSH2 0x4E3 JUMP JUMPDEST PUSH1 0x1 DUP5 AND ISZERO PUSH2 0x524 JUMPI SWAP1 DUP2 MUL SWAP1 JUMPDEST PUSH1 0x1 SWAP4 SWAP1 SWAP4 SHR SWAP3 DUP1 MUL PUSH2 0x4FB JUMP JUMPDEST SWAP4 POP SWAP4 SWAP2 POP POP JUMP JUMPDEST PUSH0 DUP3 PUSH2 0x548 JUMPI POP PUSH1 0x1 PUSH2 0x5D6 JUMP JUMPDEST DUP2 PUSH2 0x554 JUMPI POP PUSH0 PUSH2 0x5D6 JUMP JUMPDEST DUP2 PUSH1 0x1 DUP2 EQ PUSH2 0x56A JUMPI PUSH1 0x2 DUP2 EQ PUSH2 0x574 JUMPI PUSH2 0x590 JUMP JUMPDEST PUSH1 0x1 SWAP2 POP POP PUSH2 0x5D6 JUMP JUMPDEST PUSH1 0xFF DUP5 GT ISZERO PUSH2 0x585 JUMPI PUSH2 0x585 PUSH2 0x4E3 JUMP JUMPDEST POP POP PUSH1 0x1 DUP3 SHL PUSH2 0x5D6 JUMP JUMPDEST POP PUSH1 0x20 DUP4 LT PUSH2 0x133 DUP4 LT AND PUSH1 0x4E DUP5 LT PUSH1 0xB DUP5 LT AND OR ISZERO PUSH2 0x5B3 JUMPI POP DUP2 DUP2 EXP PUSH2 0x5D6 JUMP JUMPDEST PUSH2 0x5BF PUSH0 NOT DUP5 DUP5 PUSH2 0x4F7 JUMP JUMPDEST DUP1 PUSH0 NOT DIV DUP3 GT ISZERO PUSH2 0x5D2 JUMPI PUSH2 0x5D2 PUSH2 0x4E3 JUMP JUMPDEST MUL SWAP1 POP JUMPDEST SWAP3 SWAP2 POP POP JUMP JUMPDEST PUSH0 PUSH2 0x5E7 DUP4 DUP4 PUSH2 0x53A JUMP JUMPDEST SWAP4 SWAP3 POP POP POP JUMP JUMPDEST DUP1 DUP3 MUL DUP2 ISZERO DUP3 DUP3 DIV DUP5 EQ OR PUSH2 0x5D6 JUMPI PUSH2 0x5D6 PUSH2 0x4E3 JUMP JUMPDEST PUSH0 DUP3 PUSH2 0x61F JUMPI PUSH4 0x4E487B71 PUSH1 0xE0 SHL PUSH0 MSTORE PUSH1 0x12 PUSH1 0x4 MSTORE PUSH1 0x24 PUSH0 REVERT JUMPDEST POP MOD SWAP1 JUMP JUMPDEST DUP2 DUP2 SUB DUP2 DUP2 GT ISZERO PUSH2 0x5D6 JUMPI PUSH2 0x5D6 PUSH2 0x4E3 JUMP JUMPDEST DUP1 DUP3 ADD DUP1 DUP3 GT ISZERO PUSH2 0x5D6 JUMPI PUSH2 0x5D6 PUSH2 0x4E3 JUMP JUMPDEST PUSH2 0x1D0D DUP1 PUSH2 0x657 PUSH0 CODECOPY PUSH0 RETURN INVALID PUSH1 0x80 PUSH1 0x40 MSTORE PUSH1 0x4 CALLDATASIZE LT PUSH2 0x1DE JUMPI PUSH0 CALLDATALOAD PUSH1 0xE0 SHR DUP1 PUSH4 0x83AD7994 GT PUSH2 0xFD JUMPI DUP1 PUSH4 0xC9567BF9 GT PUSH2 0x92 JUMPI DUP1 PUSH4 0xF2FDE38B GT PUSH2 0x62 JUMPI DUP1 PUSH4 0xF2FDE38B EQ PUSH2 0x5BB JUMPI DUP1 PUSH4 0xF66608FE EQ PUSH2 0x5DA JUMPI DUP1 PUSH4 0xFDEB889F EQ PUSH2 0x5EE JUMPI DUP1 PUSH4 0xFFB54A99 EQ PUSH2 0x60D JUMPI PUSH0 PUSH0 REVERT JUMPDEST DUP1 PUSH4 0xC9567BF9 EQ PUSH2 0x517 JUMPI DUP1 PUSH4 0xCBA0E996 EQ PUSH2 0x52B JUMPI DUP1 PUSH4 0xD00EFB2F EQ PUSH2 0x562 JUMPI DUP1 PUSH4 0xDD62ED3E EQ PUSH2 0x577 JUMPI PUSH0 PUSH0 REVERT JUMPDEST DUP1 PUSH4 0xA8B08982 GT PUSH2 0xCD JUMPI DUP1 PUSH4 0xA8B08982 EQ PUSH2 0x49B JUMPI DUP1 PUSH4 0xA9059CBB EQ PUSH2 0x4BA JUMPI DUP1 PUSH4 0xC30796AB EQ PUSH2 0x4D9 JUMPI DUP1 PUSH4 0xC4863770 EQ PUSH2 0x4F8 JUMPI PUSH0 PUSH0 REVERT JUMPDEST DUP1 PUSH4 0x83AD7994 EQ PUSH2 0x432 JUMPI DUP1 PUSH4 0x8873B15F EQ PUSH2 0x446 JUMPI DUP1 PUSH4 0x8DA5CB5B EQ PUSH2 0x465 JUMPI DUP1 PUSH4 0x95D89B41 EQ PUSH2 0x487 JUMPI PUSH0 PUSH0 REVERT JUMPDEST DUP1 PUSH4 0x437823EC GT PUSH2 0x173 JUMPI DUP1 PUSH4 0x6049876E GT PUSH2 0x143 JUMPI DUP1 PUSH4 0x6049876E EQ PUSH2 0x3AF JUMPI DUP1 PUSH4 0x70A08231 EQ PUSH2 0x3CE JUMPI DUP1 PUSH4 0x715018A6 EQ PUSH2 0x3ED JUMPI DUP1 PUSH4 0x838FCC90 EQ PUSH2 0x401 JUMPI PUSH0 PUSH0 REVERT JUMPDEST DUP1 PUSH4 0x437823EC EQ PUSH2 0x303 JUMPI DUP1 PUSH4 0x4549B039 EQ PUSH2 0x322 JUMPI DUP1 PUSH4 0x5342ACB4 EQ PUSH2 0x341 JUMPI DUP1 PUSH4 0x5FAE0576 EQ PUSH2 0x378 JUMPI PUSH0 PUSH0 REVERT JUMPDEST DUP1 PUSH4 0x23B872DD GT PUSH2 0x1AE JUMPI DUP1 PUSH4 0x23B872DD EQ PUSH2 0x281 JUMPI DUP1 PUSH4 0x313CE567 EQ PUSH2 0x2A0 JUMPI DUP1 PUSH4 0x32035504 EQ PUSH2 0x2C1 JUMPI DUP1 PUSH4 0x3AF32ABF EQ PUSH2 0x2D5 JUMPI PUSH0 PUSH0 REVERT JUMPDEST DUP1 PUSH4 0x53AB182 EQ PUSH2 0x1E9 JUMPI DUP1 PUSH4 0x6FDDE03 EQ PUSH2 0x20A JUMPI DUP1 PUSH4 0x95EA7B3 EQ PUSH2 0x234 JUMPI DUP1 PUSH4 0x18160DDD EQ PUSH2 0x263 JUMPI PUSH0 PUSH0 REVERT JUMPDEST CALLDATASIZE PUSH2 0x1E5 JUMPI STOP JUMPDEST PUSH0 PUSH0 REVERT JUMPDEST CALLVALUE DUP1 ISZERO PUSH2 0x1F4 JUMPI PUSH0 PUSH0 REVERT JUMPDEST POP PUSH2 0x208 PUSH2 0x203 CALLDATASIZE PUSH1 0x4 PUSH2 0x1AC2 JUMP JUMPDEST PUSH2 0x626 JUMP JUMPDEST STOP JUMPDEST CALLVALUE DUP1 ISZERO PUSH2 0x215 JUMPI PUSH0 PUSH0 REVERT JUMPDEST POP PUSH2 0x21E PUSH2 0x711 JUMP JUMPDEST PUSH1 0x40 MLOAD PUSH2 0x22B SWAP2 SWAP1 PUSH2 0x1AD9 JUMP JUMPDEST PUSH1 0x40 MLOAD DUP1 SWAP2 SUB SWAP1 RETURN JUMPDEST CALLVALUE DUP1 ISZERO PUSH2 0x23F JUMPI PUSH0 PUSH0 REVERT JUMPDEST POP PUSH2 0x253 PUSH2 0x24E CALLDATASIZE PUSH1 0x4 PUSH2 0x1B29 JUMP JUMPDEST PUSH2 0x7A1 JUMP JUMPDEST PUSH1 0x40 MLOAD SWAP1 ISZERO ISZERO DUP2 MSTORE PUSH1 0x20 ADD PUSH2 0x22B JUMP JUMPDEST CALLVALUE DUP1 ISZERO PUSH2 0x26E JUMPI PUSH0 PUSH0 REVERT JUMPDEST POP PUSH1 0xC SLOAD JUMPDEST PUSH1 0x40 MLOAD SWAP1 DUP2 MSTORE PUSH1 0x20 ADD PUSH2 0x22B JUMP JUMPDEST CALLVALUE DUP1 ISZERO PUSH2 0x28C JUMPI PUSH0 PUSH0 REVERT JUMPDEST POP PUSH2 0x253 PUSH2 0x29B CALLDATASIZE PUSH1 0x4 PUSH2 0x1B51 JUMP JUMPDEST PUSH2 0x7BA JUMP JUMPDEST CALLVALUE DUP1 ISZERO PUSH2 0x2AB JUMPI PUSH0 PUSH0 REVERT JUMPDEST POP PUSH1 0xB SLOAD PUSH1 0x40 MLOAD PUSH1 0xFF SWAP1 SWAP2 AND DUP2 MSTORE PUSH1 0x20 ADD PUSH2 0x22B JUMP JUMPDEST CALLVALUE DUP1 ISZERO PUSH2 0x2CC JUMPI PUSH0 PUSH0 REVERT JUMPDEST POP PUSH1 0xE SLOAD PUSH2 0x273 JUMP JUMPDEST CALLVALUE DUP1 ISZERO PUSH2 0x2E0 JUMPI PUSH0 PUSH0 REVERT JUMPDEST POP PUSH2 0x253 PUSH2 0x2EF CALLDATASIZE PUSH1 0x4 PUSH2 0x1B8B JUMP JUMPDEST PUSH1 0x8 PUSH1 0x20 MSTORE PUSH0 SWAP1 DUP2 MSTORE PUSH1 0x40 SWAP1 KECCAK256 SLOAD PUSH1 0xFF AND DUP2 JUMP JUMPDEST CALLVALUE DUP1 ISZERO PUSH2 0x30E JUMPI PUSH0 PUSH0 REVERT JUMPDEST POP PUSH2 0x208 PUSH2 0x31D CALLDATASIZE PUSH1 0x4 PUSH2 0x1B8B JUMP JUMPDEST PUSH2 0x7DD JUMP JUMPDEST CALLVALUE DUP1 ISZERO PUSH2 0x32D JUMPI PUSH0 PUSH0 REVERT JUMPDEST POP PUSH2 0x273 PUSH2 0x33C CALLDATASIZE PUSH1 0x4 PUSH2 0x1BA4 JUMP JUMPDEST PUSH2 0x824 JUMP JUMPDEST CALLVALUE DUP1 ISZERO PUSH2 0x34C JUMPI PUSH0 PUSH0 REVERT JUMPDEST POP PUSH2 0x253 PUSH2 0x35B CALLDATASIZE PUSH1 0x4 PUSH2 0x1B8B JUMP JUMPDEST PUSH1 0x1 PUSH1 0x1 PUSH1 0xA0 SHL SUB AND PUSH0 SWAP1 DUP2 MSTORE PUSH1 0x7 PUSH1 0x20 MSTORE PUSH1 0x40 SWAP1 KECCAK256 SLOAD PUSH1 0xFF AND SWAP1 JUMP JUMPDEST CALLVALUE DUP1 ISZERO PUSH2 0x383 JUMPI PUSH0 PUSH0 REVERT JUMPDEST POP PUSH2 0x253 PUSH2 0x392 CALLDATASIZE PUSH1 0x4 PUSH2 0x1B8B JUMP JUMPDEST PUSH1 0x1 PUSH1 0x1 PUSH1 0xA0 SHL SUB AND PUSH0 SWAP1 DUP2 MSTORE PUSH1 0x8 PUSH1 0x20 MSTORE PUSH1 0x40 SWAP1 KECCAK256 SLOAD PUSH1 0xFF AND SWAP1 JUMP JUMPDEST CALLVALUE DUP1 ISZERO PUSH2 0x3BA JUMPI PUSH0 PUSH0 REVERT JUMPDEST POP PUSH2 0x208 PUSH2 0x3C9 CALLDATASIZE PUSH1 0x4 PUSH2 0x1B8B JUMP JUMPDEST PUSH2 0x8AA JUMP JUMPDEST CALLVALUE DUP1 ISZERO PUSH2 0x3D9 JUMPI PUSH0 PUSH0 REVERT JUMPDEST POP PUSH2 0x273 PUSH2 0x3E8 CALLDATASIZE PUSH1 0x4 PUSH2 0x1B8B JUMP JUMPDEST PUSH2 0x9EF JUMP JUMPDEST CALLVALUE DUP1 ISZERO PUSH2 0x3F8 JUMPI PUSH0 PUSH0 REVERT JUMPDEST POP PUSH2 0x208 PUSH2 0xA4B JUMP JUMPDEST CALLVALUE DUP1 ISZERO PUSH2 0x40C JUMPI PUSH0 PUSH0 REVERT JUMPDEST POP PUSH1 0x13 SLOAD PUSH1 0x1 PUSH1 0x1 PUSH1 0xA0 SHL SUB AND JUMPDEST PUSH1 0x40 MLOAD PUSH1 0x1 PUSH1 0x1 PUSH1 0xA0 SHL SUB SWAP1 SWAP2 AND DUP2 MSTORE PUSH1 0x20 ADD PUSH2 0x22B JUMP JUMPDEST CALLVALUE DUP1 ISZERO PUSH2 0x43D JUMPI PUSH0 PUSH0 REVERT JUMPDEST POP PUSH1 0xF SLOAD PUSH2 0x273 JUMP JUMPDEST CALLVALUE DUP1 ISZERO PUSH2 0x451 JUMPI PUSH0 PUSH0 REVERT JUMPDEST POP PUSH2 0x208 PUSH2 0x460 CALLDATASIZE PUSH1 0x4 PUSH2 0x1B8B JUMP JUMPDEST PUSH2 0xAD1 JUMP JUMPDEST CALLVALUE DUP1 ISZERO PUSH2 0x470 JUMPI PUSH0 PUSH0 REVERT JUMPDEST POP PUSH1 0xB SLOAD PUSH2 0x100 SWAP1 DIV PUSH1 0x1 PUSH1 0x1 PUSH1 0xA0 SHL SUB AND PUSH2 0x41A JUMP JUMPDEST CALLVALUE DUP1 ISZERO PUSH2 0x492 JUMPI PUSH0 PUSH0 REVERT JUMPDEST POP PUSH2 0x21E PUSH2 0xB2B JUMP JUMPDEST CALLVALUE DUP1 ISZERO PUSH2 0x4A6 JUMPI PUSH0 PUSH0 REVERT JUMPDEST POP PUSH1 0x14 SLOAD PUSH2 0x41A SWAP1 PUSH1 0x1 PUSH1 0x1 PUSH1 0xA0 SHL SUB AND DUP2 JUMP JUMPDEST CALLVALUE DUP1 ISZERO PUSH2 0x4C5 JUMPI PUSH0 PUSH0 REVERT JUMPDEST POP PUSH2 0x253 PUSH2 0x4D4 CALLDATASIZE PUSH1 0x4 PUSH2 0x1B29 JUMP JUMPDEST PUSH2 0xB3A JUMP JUMPDEST CALLVALUE DUP1 ISZERO PUSH2 0x4E4 JUMPI PUSH0 PUSH0 REVERT JUMPDEST POP PUSH2 0x208 PUSH2 0x4F3 CALLDATASIZE PUSH1 0x4 PUSH2 0x1B8B JUMP JUMPDEST PUSH2 0xB47 JUMP JUMPDEST CALLVALUE DUP1 ISZERO PUSH2 0x503 JUMPI PUSH0 PUSH0 REVERT JUMPDEST POP PUSH2 0x208 PUSH2 0x512 CALLDATASIZE PUSH1 0x4 PUSH2 0x1B8B JUMP JUMPDEST PUSH2 0xBF5 JUMP JUMPDEST CALLVALUE DUP1 ISZERO PUSH2 0x522 JUMPI PUSH0 PUSH0 REVERT JUMPDEST POP PUSH2 0x208 PUSH2 0xC9B JUMP JUMPDEST CALLVALUE DUP1 ISZERO PUSH2 0x536 JUMPI PUSH0 PUSH0 REVERT JUMPDEST POP PUSH2 0x253 PUSH2 0x545 CALLDATASIZE PUSH1 0x4 PUSH2 0x1B8B JUMP JUMPDEST PUSH1 0x1 PUSH1 0x1 PUSH1 0xA0 SHL SUB AND PUSH0 SWAP1 DUP2 MSTORE PUSH1 0x9 PUSH1 0x20 MSTORE PUSH1 0x40 SWAP1 KECCAK256 SLOAD PUSH1 0xFF AND SWAP1 JUMP JUMPDEST CALLVALUE DUP1 ISZERO PUSH2 0x56D JUMPI PUSH0 PUSH0 REVERT JUMPDEST POP PUSH2 0x273 PUSH1 0x16 SLOAD DUP2 JUMP JUMPDEST CALLVALUE DUP1 ISZERO PUSH2 0x582 JUMPI PUSH0 PUSH0 REVERT JUMPDEST POP PUSH2 0x273 PUSH2 0x591 CALLDATASIZE PUSH1 0x4 PUSH2 0x1BD6 JUMP JUMPDEST PUSH1 0x1 PUSH1 0x1 PUSH1 0xA0 SHL SUB SWAP2 DUP3 AND PUSH0 SWAP1 DUP2 MSTORE PUSH1 0x1 PUSH1 0x20 SWAP1 DUP2 MSTORE PUSH1 0x40 DUP1 DUP4 KECCAK256 SWAP4 SWAP1 SWAP5 AND DUP3 MSTORE SWAP2 SWAP1 SWAP2 MSTORE KECCAK256 SLOAD SWAP1 JUMP JUMPDEST CALLVALUE DUP1 ISZERO PUSH2 0x5C6 JUMPI PUSH0 PUSH0 REVERT JUMPDEST POP PUSH2 0x208 PUSH2 0x5D5 CALLDATASIZE PUSH1 0x4 PUSH2 0x1B8B JUMP JUMPDEST PUSH2 0xCCF JUMP JUMPDEST CALLVALUE DUP1 ISZERO PUSH2 0x5E5 JUMPI PUSH0 PUSH0 REVERT JUMPDEST POP PUSH1 0x11 SLOAD PUSH2 0x273 JUMP JUMPDEST CALLVALUE DUP1 ISZERO PUSH2 0x5F9 JUMPI PUSH0 PUSH0 REVERT JUMPDEST POP PUSH2 0x208 PUSH2 0x608 CALLDATASIZE PUSH1 0x4 PUSH2 0x1B8B JUMP JUMPDEST PUSH2 0xD15 JUMP JUMPDEST CALLVALUE DUP1 ISZERO PUSH2 0x618 JUMPI PUSH0 PUSH0 REVERT JUMPDEST POP PUSH1 0x17 SLOAD PUSH2 0x253 SWAP1 PUSH1 0xFF AND DUP2 JUMP JUMPDEST CALLER PUSH0 DUP2 DUP2 MSTORE PUSH1 0x9 PUSH1 0x20 MSTORE PUSH1 0x40 SWAP1 KECCAK256 SLOAD PUSH1 0xFF AND ISZERO PUSH2 0x69F JUMPI PUSH1 0x40 MLOAD PUSH3 0x461BCD PUSH1 0xE5 SHL DUP2 MSTORE PUSH1 0x20 PUSH1 0x4 DUP3 ADD MSTORE PUSH1 0x2C PUSH1 0x24 DUP3 ADD MSTORE PUSH32 0x4578636C75646564206164647265737365732063616E6E6F742063616C6C2074 PUSH1 0x44 DUP3 ADD MSTORE PUSH12 0x3434B990333AB731BA34B7B7 PUSH1 0xA1 SHL PUSH1 0x64 DUP3 ADD MSTORE PUSH1 0x84 ADD JUMPDEST PUSH1 0x40 MLOAD DUP1 SWAP2 SUB SWAP1 REVERT JUMPDEST PUSH0 PUSH2 0x6A9 DUP4 PUSH2 0xEB1 JUMP JUMPDEST POP POP POP PUSH1 0x1 PUSH1 0x1 PUSH1 0xA0 SHL SUB DUP4 AND PUSH0 SWAP1 DUP2 MSTORE PUSH1 0x5 PUSH1 0x20 MSTORE PUSH1 0x40 SWAP1 KECCAK256 SLOAD SWAP1 SWAP2 POP PUSH2 0x6D2 SWAP1 DUP3 SWAP1 PUSH2 0x1C1B JUMP JUMPDEST PUSH1 0x1 PUSH1 0x1 PUSH1 0xA0 SHL SUB DUP4 AND PUSH0 SWAP1 DUP2 MSTORE PUSH1 0x5 PUSH1 0x20 MSTORE PUSH1 0x40 SWAP1 KECCAK256 SSTORE PUSH1 0xD SLOAD PUSH2 0x6F8 SWAP1 DUP3 SWAP1 PUSH2 0x1C1B JUMP JUMPDEST PUSH1 0xD SSTORE PUSH1 0xE SLOAD PUSH2 0x709 SWAP1 DUP5 SWAP1 PUSH2 0x1C2E JUMP JUMPDEST PUSH1 0xE SSTORE POP POP POP JUMP JUMPDEST PUSH1 0x60 PUSH1 0x3 DUP1 SLOAD PUSH2 0x720 SWAP1 PUSH2 0x1C41 JUMP JUMPDEST DUP1 PUSH1 0x1F ADD PUSH1 0x20 DUP1 SWAP2 DIV MUL PUSH1 0x20 ADD PUSH1 0x40 MLOAD SWAP1 DUP2 ADD PUSH1 0x40 MSTORE DUP1 SWAP3 SWAP2 SWAP1 DUP2 DUP2 MSTORE PUSH1 0x20 ADD DUP3 DUP1 SLOAD PUSH2 0x74C SWAP1 PUSH2 0x1C41 JUMP JUMPDEST DUP1 ISZERO PUSH2 0x797 JUMPI DUP1 PUSH1 0x1F LT PUSH2 0x76E JUMPI PUSH2 0x100 DUP1 DUP4 SLOAD DIV MUL DUP4 MSTORE SWAP2 PUSH1 0x20 ADD SWAP2 PUSH2 0x797 JUMP JUMPDEST DUP3 ADD SWAP2 SWAP1 PUSH0 MSTORE PUSH1 0x20 PUSH0 KECCAK256 SWAP1 JUMPDEST DUP2 SLOAD DUP2 MSTORE SWAP1 PUSH1 0x1 ADD SWAP1 PUSH1 0x20 ADD DUP1 DUP4 GT PUSH2 0x77A JUMPI DUP3 SWAP1 SUB PUSH1 0x1F AND DUP3 ADD SWAP2 JUMPDEST POP POP POP POP POP SWAP1 POP SWAP1 JUMP JUMPDEST PUSH0 CALLER PUSH2 0x7AE DUP2 DUP6 DUP6 PUSH2 0xF02 JUMP JUMPDEST PUSH1 0x1 SWAP2 POP POP JUMPDEST SWAP3 SWAP2 POP POP JUMP JUMPDEST PUSH0 CALLER PUSH2 0x7C7 DUP6 DUP3 DUP6 PUSH2 0xF14 JUMP JUMPDEST PUSH2 0x7D2 DUP6 DUP6 DUP6 PUSH2 0xF90 JUMP JUMPDEST POP PUSH1 0x1 SWAP5 SWAP4 POP POP POP POP JUMP JUMPDEST PUSH1 0xB SLOAD CALLER SWAP1 PUSH2 0x100 SWAP1 DIV PUSH1 0x1 PUSH1 0x1 PUSH1 0xA0 SHL SUB AND PUSH1 0x1 PUSH1 0x1 PUSH1 0xA0 SHL SUB AND SUB PUSH2 0x821 JUMPI PUSH1 0x1 PUSH1 0x1 PUSH1 0xA0 SHL SUB DUP2 AND PUSH0 SWAP1 DUP2 MSTORE PUSH1 0x7 PUSH1 0x20 MSTORE PUSH1 0x40 SWAP1 KECCAK256 DUP1 SLOAD PUSH1 0xFF NOT AND PUSH1 0x1 OR SWAP1 SSTORE JUMPDEST POP JUMP JUMPDEST PUSH0 PUSH1 0xC SLOAD DUP4 GT ISZERO PUSH2 0x877 JUMPI PUSH1 0x40 MLOAD PUSH3 0x461BCD PUSH1 0xE5 SHL DUP2 MSTORE PUSH1 0x20 PUSH1 0x4 DUP3 ADD MSTORE PUSH1 0x1F PUSH1 0x24 DUP3 ADD MSTORE PUSH32 0x416D6F756E74206D757374206265206C657373207468616E20737570706C7900 PUSH1 0x44 DUP3 ADD MSTORE PUSH1 0x64 ADD PUSH2 0x696 JUMP JUMPDEST DUP2 PUSH2 0x893 JUMPI PUSH0 PUSH2 0x886 DUP5 PUSH2 0xEB1 JUMP JUMPDEST POP SWAP2 SWAP4 POP PUSH2 0x7B4 SWAP3 POP POP POP JUMP JUMPDEST PUSH0 PUSH2 0x89D DUP5 PUSH2 0xEB1 JUMP JUMPDEST POP SWAP1 SWAP4 POP PUSH2 0x7B4 SWAP3 POP POP POP JUMP JUMPDEST PUSH1 0xB SLOAD CALLER SWAP1 PUSH2 0x100 SWAP1 DIV PUSH1 0x1 PUSH1 0x1 PUSH1 0xA0 SHL SUB AND PUSH1 0x1 PUSH1 0x1 PUSH1 0xA0 SHL SUB AND SUB PUSH2 0x821 JUMPI PUSH1 0x1 PUSH1 0x1 PUSH1 0xA0 SHL SUB DUP2 AND PUSH0 SWAP1 DUP2 MSTORE PUSH1 0x9 PUSH1 0x20 MSTORE PUSH1 0x40 SWAP1 KECCAK256 SLOAD PUSH1 0xFF AND ISZERO PUSH2 0x933 JUMPI PUSH1 0x40 MLOAD PUSH3 0x461BCD PUSH1 0xE5 SHL DUP2 MSTORE PUSH1 0x20 PUSH1 0x4 DUP3 ADD MSTORE PUSH1 0x1B PUSH1 0x24 DUP3 ADD MSTORE PUSH32 0x4163636F756E7420697320616C7265616479206578636C756465640000000000 PUSH1 0x44 DUP3 ADD MSTORE PUSH1 0x64 ADD PUSH2 0x696 JUMP JUMPDEST PUSH1 0x1 PUSH1 0x1 PUSH1 0xA0 SHL SUB DUP2 AND PUSH0 SWAP1 DUP2 MSTORE PUSH1 0x5 PUSH1 0x20 MSTORE PUSH1 0x40 SWAP1 KECCAK256 SLOAD ISZERO PUSH2 0x98A JUMPI PUSH1 0x1 PUSH1 0x1 PUSH1 0xA0 SHL SUB DUP2 AND PUSH0 SWAP1 DUP2 MSTORE PUSH1 0x5 PUSH1 0x20 MSTORE PUSH1 0x40 SWAP1 KECCAK256 SLOAD PUSH2 0x971 SWAP1 PUSH2 0x12A4 JUMP JUMPDEST PUSH1 0x1 PUSH1 0x1 PUSH1 0xA0 SHL SUB DUP3 AND PUSH0 SWAP1 DUP2 MSTORE PUSH1 0x6 PUSH1 0x20 MSTORE PUSH1 0x40 SWAP1 KECCAK256 SSTORE JUMPDEST PUSH1 0x1 PUSH1 0x1 PUSH1 0xA0 SHL SUB AND PUSH0 DUP2 DUP2 MSTORE PUSH1 0x9 PUSH1 0x20 MSTORE PUSH1 0x40 DUP2 KECCAK256 DUP1 SLOAD PUSH1 0xFF NOT AND PUSH1 0x1 SWAP1 DUP2 OR SWAP1 SWAP2 SSTORE PUSH1 0xA DUP1 SLOAD SWAP2 DUP3 ADD DUP2 SSTORE SWAP1 SWAP2 MSTORE PUSH32 0xC65A7BB8D6351C1CF70C95A316CC6A92839C986682D98BC35F958F4883F9D2A8 ADD DUP1 SLOAD PUSH1 0x1 PUSH1 0x1 PUSH1 0xA0 SHL SUB NOT AND SWAP1 SWAP2 OR SWAP1 SSTORE JUMP JUMPDEST PUSH1 0x1 PUSH1 0x1 PUSH1 0xA0 SHL SUB DUP2 AND PUSH0 SWAP1 DUP2 MSTORE PUSH1 0x9 PUSH1 0x20 MSTORE PUSH1 0x40 DUP2 KECCAK256 SLOAD PUSH1 0xFF AND ISZERO PUSH2 0xA2A JUMPI POP PUSH1 0x1 PUSH1 0x1 PUSH1 0xA0 SHL SUB AND PUSH0 SWAP1 DUP2 MSTORE PUSH1 0x6 PUSH1 0x20 MSTORE PUSH1 0x40 SWAP1 KECCAK256 SLOAD SWAP1 JUMP JUMPDEST PUSH1 0x1 PUSH1 0x1 PUSH1 0xA0 SHL SUB DUP3 AND PUSH0 SWAP1 DUP2 MSTORE PUSH1 0x5 PUSH1 0x20 MSTORE PUSH1 0x40 SWAP1 KECCAK256 SLOAD PUSH2 0x7B4 SWAP1 PUSH2 0x12A4 JUMP JUMPDEST PUSH1 0xB SLOAD CALLER SWAP1 PUSH2 0x100 SWAP1 DIV PUSH1 0x1 PUSH1 0x1 PUSH1 0xA0 SHL SUB AND PUSH1 0x1 PUSH1 0x1 PUSH1 0xA0 SHL SUB AND SUB PUSH2 0xACF JUMPI PUSH1 0xB SLOAD PUSH2 0x100 SWAP1 DIV PUSH1 0x1 PUSH1 0x1 PUSH1 0xA0 SHL SUB AND PUSH2 0xABD JUMPI PUSH1 0x40 MLOAD PUSH3 0x461BCD PUSH1 0xE5 SHL DUP2 MSTORE PUSH1 0x20 PUSH1 0x4 DUP3 ADD MSTORE PUSH1 0x11 PUSH1 0x24 DUP3 ADD MSTORE PUSH17 0x185B1C9958591E481C995B9BDD5B98D959 PUSH1 0x7A SHL PUSH1 0x44 DUP3 ADD MSTORE PUSH1 0x64 ADD PUSH2 0x696 JUMP JUMPDEST PUSH1 0xB DUP1 SLOAD PUSH2 0x100 PUSH1 0x1 PUSH1 0xA8 SHL SUB NOT AND SWAP1 SSTORE JUMPDEST JUMP JUMPDEST PUSH1 0xB SLOAD CALLER SWAP1 PUSH2 0x100 SWAP1 DIV PUSH1 0x1 PUSH1 0x1 PUSH1 0xA0 SHL SUB AND PUSH1 0x1 PUSH1 0x1 PUSH1 0xA0 SHL SUB AND SUB PUSH2 0x821 JUMPI PUSH1 0x14 DUP1 SLOAD PUSH1 0x1 PUSH1 0x1 PUSH1 0xA0 SHL SUB NOT AND PUSH1 0x1 PUSH1 0x1 PUSH1 0xA0 SHL SUB SWAP3 SWAP1 SWAP3 AND SWAP2 DUP3 OR SWAP1 SSTORE PUSH0 SWAP1 DUP2 MSTORE PUSH1 0x8 PUSH1 0x20 MSTORE PUSH1 0x40 SWAP1 KECCAK256 DUP1 SLOAD PUSH1 0xFF NOT AND PUSH1 0x1 OR SWAP1 SSTORE JUMP JUMPDEST PUSH1 0x60 PUSH1 0x4 DUP1 SLOAD PUSH2 0x720 SWAP1 PUSH2 0x1C41 JUMP JUMPDEST PUSH0 CALLER PUSH2 0x7AE DUP2 DUP6 DUP6 PUSH2 0xF90 JUMP JUMPDEST PUSH1 0xB SLOAD CALLER SWAP1 PUSH2 0x100 SWAP1 DIV PUSH1 0x1 PUSH1 0x1 PUSH1 0xA0 SHL SUB AND PUSH1 0x1 PUSH1 0x1 PUSH1 0xA0 SHL SUB AND SUB PUSH2 0x821 JUMPI PUSH1 0x1 PUSH1 0x1 PUSH1 0xA0 SHL SUB DUP2 AND PUSH0 SWAP1 DUP2 MSTORE PUSH1 0x8 PUSH1 0x20 MSTORE PUSH1 0x40 SWAP1 KECCAK256 SLOAD PUSH1 0xFF AND ISZERO PUSH2 0xBD0 JUMPI PUSH1 0x40 MLOAD PUSH3 0x461BCD PUSH1 0xE5 SHL DUP2 MSTORE PUSH1 0x20 PUSH1 0x4 DUP3 ADD MSTORE PUSH1 0x1E PUSH1 0x24 DUP3 ADD MSTORE PUSH32 0x4164647265737320697320616C72656164792077686974656C69737465640000 PUSH1 0x44 DUP3 ADD MSTORE PUSH1 0x64 ADD PUSH2 0x696 JUMP JUMPDEST PUSH1 0x1 PUSH1 0x1 PUSH1 0xA0 SHL SUB DUP2 AND PUSH0 SWAP1 DUP2 MSTORE PUSH1 0x8 PUSH1 0x20 MSTORE PUSH1 0x40 SWAP1 KECCAK256 DUP1 SLOAD PUSH1 0xFF NOT AND PUSH1 0x1 OR SWAP1 SSTORE POP JUMP JUMPDEST PUSH1 0xB SLOAD CALLER SWAP1 PUSH2 0x100 SWAP1 DIV PUSH1 0x1 PUSH1 0x1 PUSH1 0xA0 SHL SUB AND PUSH1 0x1 PUSH1 0x1 PUSH1 0xA0 SHL SUB AND SUB PUSH2 0x821 JUMPI PUSH1 0x1 PUSH1 0x1 PUSH1 0xA0 SHL SUB DUP2 AND PUSH2 0xC7B JUMPI PUSH1 0x40 MLOAD PUSH3 0x461BCD PUSH1 0xE5 SHL DUP2 MSTORE PUSH1 0x20 PUSH1 0x4 DUP3 ADD MSTORE PUSH1 0x26 PUSH1 0x24 DUP3 ADD MSTORE PUSH32 0x7A65726F20616464726573732063616E206E6F74206265207468652046656541 PUSH1 0x44 DUP3 ADD MSTORE PUSH6 0x18D8DBDD5B9D PUSH1 0xD2 SHL PUSH1 0x64 DUP3 ADD MSTORE PUSH1 0x84 ADD PUSH2 0x696 JUMP JUMPDEST PUSH1 0x13 DUP1 SLOAD PUSH1 0x1 PUSH1 0x1 PUSH1 0xA0 SHL SUB DUP4 AND PUSH1 0x1 PUSH1 0x1 PUSH1 0xA0 SHL SUB NOT SWAP1 SWAP2 AND OR SWAP1 SSTORE POP JUMP JUMPDEST PUSH1 0xB SLOAD CALLER SWAP1 PUSH2 0x100 SWAP1 DIV PUSH1 0x1 PUSH1 0x1 PUSH1 0xA0 SHL SUB AND PUSH1 0x1 PUSH1 0x1 PUSH1 0xA0 SHL SUB AND SUB PUSH2 0xACF JUMPI PUSH1 0x17 DUP1 SLOAD PUSH1 0xFF NOT AND PUSH1 0x1 OR SWAP1 SSTORE NUMBER PUSH1 0x16 SSTORE JUMP JUMPDEST PUSH1 0xB SLOAD CALLER SWAP1 PUSH2 0x100 SWAP1 DIV PUSH1 0x1 PUSH1 0x1 PUSH1 0xA0 SHL SUB AND PUSH1 0x1 PUSH1 0x1 PUSH1 0xA0 SHL SUB AND SUB PUSH2 0x821 JUMPI PUSH1 0xB DUP1 SLOAD PUSH1 0x1 PUSH1 0x1 PUSH1 0xA0 SHL SUB DUP4 AND PUSH2 0x100 MUL PUSH2 0x100 PUSH1 0x1 PUSH1 0xA8 SHL SUB NOT SWAP1 SWAP2 AND OR SWAP1 SSTORE POP JUMP JUMPDEST PUSH1 0xB SLOAD CALLER SWAP1 PUSH2 0x100 SWAP1 DIV PUSH1 0x1 PUSH1 0x1 PUSH1 0xA0 SHL SUB AND PUSH1 0x1 PUSH1 0x1 PUSH1 0xA0 SHL SUB AND SUB PUSH2 0x821 JUMPI PUSH1 0x1 PUSH1 0x1 PUSH1 0xA0 SHL SUB DUP2 AND PUSH0 SWAP1 DUP2 MSTORE PUSH1 0x9 PUSH1 0x20 MSTORE PUSH1 0x40 SWAP1 KECCAK256 SLOAD PUSH1 0xFF AND PUSH2 0xD9D JUMPI PUSH1 0x40 MLOAD PUSH3 0x461BCD PUSH1 0xE5 SHL DUP2 MSTORE PUSH1 0x20 PUSH1 0x4 DUP3 ADD MSTORE PUSH1 0x1B PUSH1 0x24 DUP3 ADD MSTORE PUSH32 0x4163636F756E7420697320616C726561647920696E636C756465640000000000 PUSH1 0x44 DUP3 ADD MSTORE PUSH1 0x64 ADD PUSH2 0x696 JUMP JUMPDEST PUSH0 JUMPDEST PUSH1 0xA SLOAD DUP2 LT ISZERO PUSH2 0xEAD JUMPI DUP2 PUSH1 0x1 PUSH1 0x1 PUSH1 0xA0 SHL SUB AND PUSH1 0xA DUP3 DUP2 SLOAD DUP2 LT PUSH2 0xDC6 JUMPI PUSH2 0xDC6 PUSH2 0x1C79 JUMP JUMPDEST PUSH0 SWAP2 DUP3 MSTORE PUSH1 0x20 SWAP1 SWAP2 KECCAK256 ADD SLOAD PUSH1 0x1 PUSH1 0x1 PUSH1 0xA0 SHL SUB AND SUB PUSH2 0xEA5 JUMPI PUSH1 0xA DUP1 SLOAD PUSH2 0xDEF SWAP1 PUSH1 0x1 SWAP1 PUSH2 0x1C1B JUMP JUMPDEST DUP2 SLOAD DUP2 LT PUSH2 0xDFF JUMPI PUSH2 0xDFF PUSH2 0x1C79 JUMP JUMPDEST PUSH0 SWAP2 DUP3 MSTORE PUSH1 0x20 SWAP1 SWAP2 KECCAK256 ADD SLOAD PUSH1 0xA DUP1 SLOAD PUSH1 0x1 PUSH1 0x1 PUSH1 0xA0 SHL SUB SWAP1 SWAP3 AND SWAP2 DUP4 SWAP1 DUP2 LT PUSH2 0xE2A JUMPI PUSH2 0xE2A PUSH2 0x1C79 JUMP JUMPDEST PUSH0 SWAP2 DUP3 MSTORE PUSH1 0x20 DUP1 DUP4 KECCAK256 SWAP2 SWAP1 SWAP2 ADD DUP1 SLOAD PUSH1 0x1 PUSH1 0x1 PUSH1 0xA0 SHL SUB NOT AND PUSH1 0x1 PUSH1 0x1 PUSH1 0xA0 SHL SUB SWAP5 DUP6 AND OR SWAP1 SSTORE SWAP2 DUP5 AND DUP2 MSTORE PUSH1 0x6 DUP3 MSTORE PUSH1 0x40 DUP1 DUP3 KECCAK256 DUP3 SWAP1 SSTORE PUSH1 0x9 SWAP1 SWAP3 MSTORE KECCAK256 DUP1 SLOAD PUSH1 0xFF NOT AND SWAP1 SSTORE PUSH1 0xA DUP1 SLOAD DUP1 PUSH2 0xE81 JUMPI PUSH2 0xE81 PUSH2 0x1C8D JUMP JUMPDEST PUSH0 DUP3 DUP2 MSTORE PUSH1 0x20 SWAP1 KECCAK256 DUP2 ADD PUSH0 NOT SWAP1 DUP2 ADD DUP1 SLOAD PUSH1 0x1 PUSH1 0x1 PUSH1 0xA0 SHL SUB NOT AND SWAP1 SSTORE ADD SWAP1 SSTORE POP POP JUMP JUMPDEST PUSH1 0x1 ADD PUSH2 0xD9F JUMP JUMPDEST POP POP JUMP JUMPDEST PUSH0 PUSH0 PUSH0 PUSH0 PUSH0 PUSH2 0xEBF DUP7 PUSH2 0x1326 JUMP JUMPDEST SWAP1 POP PUSH0 PUSH2 0xECC DUP3 DUP9 PUSH2 0x1C1B JUMP JUMPDEST SWAP1 POP PUSH0 PUSH2 0xED7 PUSH2 0x1359 JUMP JUMPDEST SWAP1 POP PUSH0 PUSH2 0xEE4 DUP3 DUP5 PUSH2 0x1CA1 JUMP JUMPDEST SWAP1 POP PUSH0 PUSH2 0xEF1 DUP4 DUP12 PUSH2 0x1CA1 JUMP JUMPDEST SWAP11 SWAP2 SWAP10 POP SWAP3 SWAP8 POP SWAP1 SWAP6 POP SWAP4 POP POP POP POP JUMP JUMPDEST PUSH2 0xF0F DUP4 DUP4 DUP4 PUSH1 0x1 PUSH2 0x137A JUMP JUMPDEST POP POP POP JUMP JUMPDEST PUSH1 0x1 PUSH1 0x1 PUSH1 0xA0 SHL SUB DUP4 DUP2 AND PUSH0 SWAP1 DUP2 MSTORE PUSH1 0x1 PUSH1 0x20 SWAP1 DUP2 MSTORE PUSH1 0x40 DUP1 DUP4 KECCAK256 SWAP4 DUP7 AND DUP4 MSTORE SWAP3 SWAP1 MSTORE KECCAK256 SLOAD PUSH0 NOT DUP2 LT ISZERO PUSH2 0xF8A JUMPI DUP2 DUP2 LT ISZERO PUSH2 0xF7C JUMPI PUSH1 0x40 MLOAD PUSH4 0x7DC7A0D9 PUSH1 0xE1 SHL DUP2 MSTORE PUSH1 0x1 PUSH1 0x1 PUSH1 0xA0 SHL SUB DUP5 AND PUSH1 0x4 DUP3 ADD MSTORE PUSH1 0x24 DUP2 ADD DUP3 SWAP1 MSTORE PUSH1 0x44 DUP2 ADD DUP4 SWAP1 MSTORE PUSH1 0x64 ADD PUSH2 0x696 JUMP JUMPDEST PUSH2 0xF8A DUP5 DUP5 DUP5 DUP5 SUB PUSH0 PUSH2 0x137A JUMP JUMPDEST POP POP POP POP JUMP JUMPDEST PUSH1 0x17 SLOAD DUP4 SWAP1 DUP4 SWAP1 PUSH1 0xFF AND PUSH2 0x100A JUMPI PUSH1 0x1 PUSH1 0x1 PUSH1 0xA0 SHL SUB DUP3 AND PUSH0 SWAP1 DUP2 MSTORE PUSH1 0x8 PUSH1 0x20 MSTORE PUSH1 0x40 SWAP1 KECCAK256 SLOAD PUSH1 0xFF AND PUSH2 0x1005 JUMPI PUSH1 0x40 MLOAD PUSH3 0x461BCD PUSH1 0xE5 SHL DUP2 MSTORE PUSH1 0x20 PUSH1 0x4 DUP3 ADD MSTORE PUSH1 0x17 PUSH1 0x24 DUP3 ADD MSTORE PUSH32 0x54726164696E67206E6F742079657420656E61626C6564000000000000000000 PUSH1 0x44 DUP3 ADD MSTORE PUSH1 0x64 ADD PUSH2 0x696 JUMP JUMPDEST PUSH2 0x1090 JUMP JUMPDEST PUSH1 0x16 SLOAD PUSH2 0x1018 SWAP1 PUSH1 0x3 PUSH2 0x1C2E JUMP JUMPDEST NUMBER GT PUSH2 0x1090 JUMPI PUSH1 0x1 PUSH1 0x1 PUSH1 0xA0 SHL SUB DUP2 AND PUSH0 SWAP1 DUP2 MSTORE PUSH1 0x8 PUSH1 0x20 MSTORE PUSH1 0x40 SWAP1 KECCAK256 SLOAD PUSH1 0xFF AND PUSH2 0x1090 JUMPI PUSH1 0x40 MLOAD PUSH3 0x461BCD PUSH1 0xE5 SHL DUP2 MSTORE PUSH1 0x20 PUSH1 0x4 DUP3 ADD MSTORE PUSH1 0x22 PUSH1 0x24 DUP3 ADD MSTORE PUSH32 0x4C61756E63682070726F74656374696F6E3A206E6F742077686974656C697374 PUSH1 0x44 DUP3 ADD MSTORE PUSH2 0x1959 PUSH1 0xF2 SHL PUSH1 0x64 DUP3 ADD MSTORE PUSH1 0x84 ADD PUSH2 0x696 JUMP JUMPDEST PUSH1 0x1 PUSH1 0x1 PUSH1 0xA0 SHL SUB DUP6 AND PUSH2 0x10F4 JUMPI PUSH1 0x40 MLOAD PUSH3 0x461BCD PUSH1 0xE5 SHL DUP2 MSTORE PUSH1 0x20 PUSH1 0x4 DUP3 ADD MSTORE PUSH1 0x25 PUSH1 0x24 DUP3 ADD MSTORE PUSH32 0x45524332303A207472616E736665722066726F6D20746865207A65726F206164 PUSH1 0x44 DUP3 ADD MSTORE PUSH5 0x6472657373 PUSH1 0xD8 SHL PUSH1 0x64 DUP3 ADD MSTORE PUSH1 0x84 ADD PUSH2 0x696 JUMP JUMPDEST PUSH1 0x1 PUSH1 0x1 PUSH1 0xA0 SHL SUB DUP5 AND PUSH2 0x1156 JUMPI PUSH1 0x40 MLOAD PUSH3 0x461BCD PUSH1 0xE5 SHL DUP2 MSTORE PUSH1 0x20 PUSH1 0x4 DUP3 ADD MSTORE PUSH1 0x23 PUSH1 0x24 DUP3 ADD MSTORE PUSH32 0x45524332303A207472616E7366657220746F20746865207A65726F2061646472 PUSH1 0x44 DUP3 ADD MSTORE PUSH3 0x657373 PUSH1 0xE8 SHL PUSH1 0x64 DUP3 ADD MSTORE PUSH1 0x84 ADD PUSH2 0x696 JUMP JUMPDEST PUSH0 PUSH2 0x1160 DUP7 PUSH2 0x9EF JUMP JUMPDEST SWAP1 POP DUP4 DUP2 LT ISZERO PUSH2 0x11C1 JUMPI PUSH1 0x40 MLOAD PUSH3 0x461BCD PUSH1 0xE5 SHL DUP2 MSTORE PUSH1 0x20 PUSH1 0x4 DUP3 ADD MSTORE PUSH1 0x26 PUSH1 0x24 DUP3 ADD MSTORE PUSH32 0x45524332303A207472616E7366657220616D6F756E7420657863656564732062 PUSH1 0x44 DUP3 ADD MSTORE PUSH6 0x616C616E6365 PUSH1 0xD0 SHL PUSH1 0x64 DUP3 ADD MSTORE PUSH1 0x84 ADD PUSH2 0x696 JUMP JUMPDEST PUSH1 0x1 PUSH1 0x1 PUSH1 0xA0 SHL SUB DUP6 AND PUSH0 SWAP1 DUP2 MSTORE PUSH1 0x7 PUSH1 0x20 MSTORE PUSH1 0x40 SWAP1 KECCAK256 SLOAD PUSH1 0xFF AND PUSH2 0x1238 JUMPI PUSH1 0x15 SLOAD DUP5 PUSH2 0x11ED DUP8 PUSH2 0x9EF JUMP JUMPDEST PUSH2 0x11F7 SWAP2 SWAP1 PUSH2 0x1C2E JUMP JUMPDEST GT ISZERO PUSH2 0x1238 JUMPI PUSH1 0x40 MLOAD PUSH3 0x461BCD PUSH1 0xE5 SHL DUP2 MSTORE PUSH1 0x20 PUSH1 0x4 DUP3 ADD MSTORE PUSH1 0x10 PUSH1 0x24 DUP3 ADD MSTORE PUSH16 0x5768616C652064657465637465642121 PUSH1 0x80 SHL PUSH1 0x44 DUP3 ADD MSTORE PUSH1 0x64 ADD PUSH2 0x696 JUMP JUMPDEST PUSH1 0x14 SLOAD PUSH0 SWAP1 PUSH1 0x1 PUSH1 0x1 PUSH1 0xA0 SHL SUB DUP9 DUP2 AND SWAP2 AND EQ DUP1 PUSH2 0x1263 JUMPI POP PUSH1 0x14 SLOAD PUSH1 0x1 PUSH1 0x1 PUSH1 0xA0 SHL SUB DUP8 DUP2 AND SWAP2 AND EQ JUMPDEST ISZERO PUSH2 0x126C JUMPI POP PUSH1 0x1 JUMPDEST PUSH1 0x1 PUSH1 0x1 PUSH1 0xA0 SHL SUB DUP8 AND PUSH0 SWAP1 DUP2 MSTORE PUSH1 0x7 PUSH1 0x20 MSTORE PUSH1 0x40 SWAP1 KECCAK256 SLOAD PUSH1 0xFF AND ISZERO PUSH2 0x128F JUMPI POP PUSH0 JUMPDEST PUSH2 0x129B DUP8 DUP8 DUP8 DUP5 PUSH2 0x144C JUMP JUMPDEST POP POP POP POP POP POP POP JUMP JUMPDEST PUSH0 PUSH1 0xD SLOAD DUP3 GT ISZERO PUSH2 0x130A JUMPI PUSH1 0x40 MLOAD PUSH3 0x461BCD PUSH1 0xE5 SHL DUP2 MSTORE PUSH1 0x20 PUSH1 0x4 DUP3 ADD MSTORE PUSH1 0x2A PUSH1 0x24 DUP3 ADD MSTORE PUSH32 0x416D6F756E74206D757374206265206C657373207468616E20746F74616C2072 PUSH1 0x44 DUP3 ADD MSTORE PUSH10 0x65666C656374696F6E73 PUSH1 0xB0 SHL PUSH1 0x64 DUP3 ADD MSTORE PUSH1 0x84 ADD PUSH2 0x696 JUMP JUMPDEST PUSH0 PUSH2 0x1313 PUSH2 0x1359 JUMP JUMPDEST SWAP1 POP PUSH2 0x131F DUP2 DUP5 PUSH2 0x1CB8 JUMP JUMPDEST SWAP4 SWAP3 POP POP POP JUMP JUMPDEST PUSH0 PUSH0 PUSH1 0x11 SLOAD PUSH1 0xF SLOAD PUSH2 0x1338 SWAP2 SWAP1 PUSH2 0x1C2E JUMP JUMPDEST SWAP1 POP PUSH0 PUSH1 0x64 PUSH2 0x1347 DUP4 DUP7 PUSH2 0x1CA1 JUMP JUMPDEST PUSH2 0x1351 SWAP2 SWAP1 PUSH2 0x1CB8 JUMP JUMPDEST SWAP5 SWAP4 POP POP POP POP JUMP JUMPDEST PUSH0 PUSH0 PUSH0 PUSH2 0x1364 PUSH2 0x15BB JUMP JUMPDEST SWAP1 SWAP3 POP SWAP1 POP PUSH2 0x1373 DUP2 DUP4 PUSH2 0x1CB8 JUMP JUMPDEST SWAP3 POP POP POP SWAP1 JUMP JUMPDEST PUSH1 0x1 PUSH1 0x1 PUSH1 0xA0 SHL SUB DUP5 AND PUSH2 0x13A3 JUMPI PUSH1 0x40 MLOAD PUSH4 0xE602DF05 PUSH1 0xE0 SHL DUP2 MSTORE PUSH0 PUSH1 0x4 DUP3 ADD MSTORE PUSH1 0x24 ADD PUSH2 0x696 JUMP JUMPDEST PUSH1 0x1 PUSH1 0x1 PUSH1 0xA0 SHL SUB DUP4 AND PUSH2 0x13CC JUMPI PUSH1 0x40 MLOAD PUSH4 0x4A1406B1 PUSH1 0xE1 SHL DUP2 MSTORE PUSH0 PUSH1 0x4 DUP3 ADD MSTORE PUSH1 0x24 ADD PUSH2 0x696 JUMP JUMPDEST PUSH1 0x1 PUSH1 0x1 PUSH1 0xA0 SHL SUB DUP1 DUP6 AND PUSH0 SWAP1 DUP2 MSTORE PUSH1 0x1 PUSH1 0x20 SWAP1 DUP2 MSTORE PUSH1 0x40 DUP1 DUP4 KECCAK256 SWAP4 DUP8 AND DUP4 MSTORE SWAP3 SWAP1 MSTORE KECCAK256 DUP3 SWAP1 SSTORE DUP1 ISZERO PUSH2 0xF8A JUMPI DUP3 PUSH1 0x1 PUSH1 0x1 PUSH1 0xA0 SHL SUB AND DUP5 PUSH1 0x1 PUSH1 0x1 PUSH1 0xA0 SHL SUB AND PUSH32 0x8C5BE1E5EBEC7D5BD14F71427D1E84F3DD0314C0F7B2291E5B200AC8C7C3B925 DUP5 PUSH1 0x40 MLOAD PUSH2 0x143E SWAP2 DUP2 MSTORE PUSH1 0x20 ADD SWAP1 JUMP JUMPDEST PUSH1 0x40 MLOAD DUP1 SWAP2 SUB SWAP1 LOG3 POP POP POP POP JUMP JUMPDEST DUP1 PUSH2 0x1459 JUMPI PUSH2 0x1459 PUSH2 0x172B JUMP JUMPDEST PUSH1 0x1 PUSH1 0x1 PUSH1 0xA0 SHL SUB DUP5 AND PUSH0 SWAP1 DUP2 MSTORE PUSH1 0x9 PUSH1 0x20 MSTORE PUSH1 0x40 SWAP1 KECCAK256 SLOAD PUSH1 0xFF AND DUP1 ISZERO PUSH2 0x1498 JUMPI POP PUSH1 0x1 PUSH1 0x1 PUSH1 0xA0 SHL SUB DUP4 AND PUSH0 SWAP1 DUP2 MSTORE PUSH1 0x9 PUSH1 0x20 MSTORE PUSH1 0x40 SWAP1 KECCAK256 SLOAD PUSH1 0xFF AND ISZERO JUMPDEST ISZERO PUSH2 0x14AD JUMPI PUSH2 0x14A8 DUP5 DUP5 DUP5 PUSH2 0x1758 JUMP JUMPDEST PUSH2 0x15A5 JUMP JUMPDEST PUSH1 0x1 PUSH1 0x1 PUSH1 0xA0 SHL SUB DUP5 AND PUSH0 SWAP1 DUP2 MSTORE PUSH1 0x9 PUSH1 0x20 MSTORE PUSH1 0x40 SWAP1 KECCAK256 SLOAD PUSH1 0xFF AND ISZERO DUP1 ISZERO PUSH2 0x14EC JUMPI POP PUSH1 0x1 PUSH1 0x1 PUSH1 0xA0 SHL SUB DUP4 AND PUSH0 SWAP1 DUP2 MSTORE PUSH1 0x9 PUSH1 0x20 MSTORE PUSH1 0x40 SWAP1 KECCAK256 SLOAD PUSH1 0xFF AND JUMPDEST ISZERO PUSH2 0x14FC JUMPI PUSH2 0x14A8 DUP5 DUP5 DUP5 PUSH2 0x1873 JUMP JUMPDEST PUSH1 0x1 PUSH1 0x1 PUSH1 0xA0 SHL SUB DUP5 AND PUSH0 SWAP1 DUP2 MSTORE PUSH1 0x9 PUSH1 0x20 MSTORE PUSH1 0x40 SWAP1 KECCAK256 SLOAD PUSH1 0xFF AND ISZERO DUP1 ISZERO PUSH2 0x153C JUMPI POP PUSH1 0x1 PUSH1 0x1 PUSH1 0xA0 SHL SUB DUP4 AND PUSH0 SWAP1 DUP2 MSTORE PUSH1 0x9 PUSH1 0x20 MSTORE PUSH1 0x40 SWAP1 KECCAK256 SLOAD PUSH1 0xFF AND ISZERO JUMPDEST ISZERO PUSH2 0x154C JUMPI PUSH2 0x14A8 DUP5 DUP5 DUP5 PUSH2 0x1912 JUMP JUMPDEST PUSH1 0x1 PUSH1 0x1 PUSH1 0xA0 SHL SUB DUP5 AND PUSH0 SWAP1 DUP2 MSTORE PUSH1 0x9 PUSH1 0x20 MSTORE PUSH1 0x40 SWAP1 KECCAK256 SLOAD PUSH1 0xFF AND DUP1 ISZERO PUSH2 0x158A JUMPI POP PUSH1 0x1 PUSH1 0x1 PUSH1 0xA0 SHL SUB DUP4 AND PUSH0 SWAP1 DUP2 MSTORE PUSH1 0x9 PUSH1 0x20 MSTORE PUSH1 0x40 SWAP1 KECCAK256 SLOAD PUSH1 0xFF AND JUMPDEST ISZERO PUSH2 0x159A JUMPI PUSH2 0x14A8 DUP5 DUP5 DUP5 PUSH2 0x194C JUMP JUMPDEST PUSH2 0x15A5 DUP5 DUP5 DUP5 PUSH2 0x1912 JUMP JUMPDEST DUP1 PUSH2 0xF8A JUMPI PUSH2 0xF8A PUSH1 0x10 SLOAD PUSH1 0xF SSTORE PUSH1 0x12 SLOAD PUSH1 0x11 SSTORE JUMP JUMPDEST PUSH1 0xD SLOAD PUSH1 0xC SLOAD PUSH0 SWAP2 DUP3 SWAP2 DUP3 JUMPDEST PUSH1 0xA SLOAD DUP2 LT ISZERO PUSH2 0x16FA JUMPI DUP3 PUSH1 0x5 PUSH0 PUSH1 0xA DUP5 DUP2 SLOAD DUP2 LT PUSH2 0x15E8 JUMPI PUSH2 0x15E8 PUSH2 0x1C79 JUMP JUMPDEST PUSH0 SWAP2 DUP3 MSTORE PUSH1 0x20 DUP1 DUP4 KECCAK256 SWAP1 SWAP2 ADD SLOAD PUSH1 0x1 PUSH1 0x1 PUSH1 0xA0 SHL SUB AND DUP4 MSTORE DUP3 ADD SWAP3 SWAP1 SWAP3 MSTORE PUSH1 0x40 ADD SWAP1 KECCAK256 SLOAD GT DUP1 PUSH2 0x1650 JUMPI POP DUP2 PUSH1 0x6 PUSH0 PUSH1 0xA DUP5 DUP2 SLOAD DUP2 LT PUSH2 0x162A JUMPI PUSH2 0x162A PUSH2 0x1C79 JUMP JUMPDEST PUSH0 SWAP2 DUP3 MSTORE PUSH1 0x20 DUP1 DUP4 KECCAK256 SWAP1 SWAP2 ADD SLOAD PUSH1 0x1 PUSH1 0x1 PUSH1 0xA0 SHL SUB AND DUP4 MSTORE DUP3 ADD SWAP3 SWAP1 SWAP3 MSTORE PUSH1 0x40 ADD SWAP1 KECCAK256 SLOAD GT JUMPDEST ISZERO PUSH2 0x1666 JUMPI PUSH1 0xD SLOAD PUSH1 0xC SLOAD SWAP5 POP SWAP5 POP POP POP POP SWAP1 SWAP2 JUMP JUMPDEST PUSH1 0x5 PUSH0 PUSH1 0xA DUP4 DUP2 SLOAD DUP2 LT PUSH2 0x167C JUMPI PUSH2 0x167C PUSH2 0x1C79 JUMP JUMPDEST PUSH0 SWAP2 DUP3 MSTORE PUSH1 0x20 DUP1 DUP4 KECCAK256 SWAP1 SWAP2 ADD SLOAD PUSH1 0x1 PUSH1 0x1 PUSH1 0xA0 SHL SUB AND DUP4 MSTORE DUP3 ADD SWAP3 SWAP1 SWAP3 MSTORE PUSH1 0x40 ADD SWAP1 KECCAK256 SLOAD PUSH2 0x16AA SWAP1 DUP5 PUSH2 0x1C1B JUMP JUMPDEST SWAP3 POP PUSH1 0x6 PUSH0 PUSH1 0xA DUP4 DUP2 SLOAD DUP2 LT PUSH2 0x16C2 JUMPI PUSH2 0x16C2 PUSH2 0x1C79 JUMP JUMPDEST PUSH0 SWAP2 DUP3 MSTORE PUSH1 0x20 DUP1 DUP4 KECCAK256 SWAP1 SWAP2 ADD SLOAD PUSH1 0x1 PUSH1 0x1 PUSH1 0xA0 SHL SUB AND DUP4 MSTORE DUP3 ADD SWAP3 SWAP1 SWAP3 MSTORE PUSH1 0x40 ADD SWAP1 KECCAK256 SLOAD PUSH2 0x16F0 SWAP1 DUP4 PUSH2 0x1C1B JUMP JUMPDEST SWAP2 POP PUSH1 0x1 ADD PUSH2 0x15C7 JUMP JUMPDEST POP PUSH1 0xC SLOAD PUSH1 0xD SLOAD PUSH2 0x170B SWAP2 SWAP1 PUSH2 0x1CB8 JUMP JUMPDEST DUP3 LT ISZERO PUSH2 0x1722 JUMPI PUSH1 0xD SLOAD PUSH1 0xC SLOAD SWAP4 POP SWAP4 POP POP POP SWAP1 SWAP2 JUMP JUMPDEST SWAP1 SWAP4 SWAP1 SWAP3 POP SWAP1 POP JUMP JUMPDEST PUSH1 0xF SLOAD ISZERO DUP1 ISZERO PUSH2 0x173B JUMPI POP PUSH1 0x11 SLOAD ISZERO JUMPDEST ISZERO PUSH2 0x1742 JUMPI JUMP JUMPDEST PUSH1 0xF DUP1 SLOAD PUSH1 0x10 SSTORE PUSH1 0x11 DUP1 SLOAD PUSH1 0x12 SSTORE PUSH0 SWAP2 DUP3 SWAP1 SSTORE SSTORE JUMP JUMPDEST PUSH0 PUSH0 PUSH0 PUSH0 PUSH2 0x1765 DUP6 PUSH2 0xEB1 JUMP JUMPDEST PUSH1 0x1 PUSH1 0x1 PUSH1 0xA0 SHL SUB DUP12 AND PUSH0 SWAP1 DUP2 MSTORE PUSH1 0x6 PUSH1 0x20 MSTORE PUSH1 0x40 SWAP1 KECCAK256 SLOAD SWAP4 SWAP8 POP SWAP2 SWAP6 POP SWAP4 POP SWAP2 POP PUSH2 0x1792 SWAP1 DUP7 SWAP1 PUSH2 0x1C1B JUMP JUMPDEST PUSH1 0x1 PUSH1 0x1 PUSH1 0xA0 SHL SUB DUP9 AND PUSH0 SWAP1 DUP2 MSTORE PUSH1 0x6 PUSH1 0x20 SWAP1 DUP2 MSTORE PUSH1 0x40 DUP1 DUP4 KECCAK256 SWAP4 SWAP1 SWAP4 SSTORE PUSH1 0x5 SWAP1 MSTORE KECCAK256 SLOAD PUSH2 0x17C1 SWAP1 DUP6 SWAP1 PUSH2 0x1C1B JUMP JUMPDEST PUSH1 0x1 PUSH1 0x1 PUSH1 0xA0 SHL SUB DUP1 DUP10 AND PUSH0 SWAP1 DUP2 MSTORE PUSH1 0x5 PUSH1 0x20 MSTORE PUSH1 0x40 DUP1 DUP3 KECCAK256 SWAP4 SWAP1 SWAP4 SSTORE SWAP1 DUP9 AND DUP2 MSTORE KECCAK256 SLOAD PUSH2 0x17F0 SWAP1 DUP5 SWAP1 PUSH2 0x1C2E JUMP JUMPDEST PUSH1 0x1 PUSH1 0x1 PUSH1 0xA0 SHL SUB DUP8 AND PUSH0 SWAP1 DUP2 MSTORE PUSH1 0x5 PUSH1 0x20 MSTORE PUSH1 0x40 SWAP1 KECCAK256 SSTORE PUSH2 0x1813 DUP8 DUP7 DUP4 PUSH2 0x19B5 JUMP JUMPDEST PUSH2 0x181D DUP6 DUP3 PUSH2 0x1A70 JUMP JUMPDEST DUP6 PUSH1 0x1 PUSH1 0x1 PUSH1 0xA0 SHL SUB AND DUP8 PUSH1 0x1 PUSH1 0x1 PUSH1 0xA0 SHL SUB AND PUSH32 0xDDF252AD1BE2C89B69C2B068FC378DAA952BA7F163C4A11628F55A4DF523B3EF DUP5 PUSH1 0x40 MLOAD PUSH2 0x1862 SWAP2 DUP2 MSTORE PUSH1 0x20 ADD SWAP1 JUMP JUMPDEST PUSH1 0x40 MLOAD DUP1 SWAP2 SUB SWAP1 LOG3 POP POP POP POP POP POP POP JUMP JUMPDEST PUSH0 PUSH0 PUSH0 PUSH0 PUSH2 0x1880 DUP6 PUSH2 0xEB1 JUMP JUMPDEST PUSH1 0x1 PUSH1 0x1 PUSH1 0xA0 SHL SUB DUP12 AND PUSH0 SWAP1 DUP2 MSTORE PUSH1 0x5 PUSH1 0x20 MSTORE PUSH1 0x40 SWAP1 KECCAK256 SLOAD SWAP4 SWAP8 POP SWAP2 SWAP6 POP SWAP4 POP SWAP2 POP PUSH2 0x18AD SWAP1 DUP6 SWAP1 PUSH2 0x1C1B JUMP JUMPDEST PUSH1 0x1 PUSH1 0x1 PUSH1 0xA0 SHL SUB DUP1 DUP10 AND PUSH0 SWAP1 DUP2 MSTORE PUSH1 0x5 PUSH1 0x20 SWAP1 DUP2 MSTORE PUSH1 0x40 DUP1 DUP4 KECCAK256 SWAP5 SWAP1 SWAP5 SSTORE SWAP2 DUP10 AND DUP2 MSTORE PUSH1 0x6 SWAP1 SWAP2 MSTORE KECCAK256 SLOAD PUSH2 0x18E3 SWAP1 DUP4 SWAP1 PUSH2 0x1C2E JUMP JUMPDEST PUSH1 0x1 PUSH1 0x1 PUSH1 0xA0 SHL SUB DUP8 AND PUSH0 SWAP1 DUP2 MSTORE PUSH1 0x6 PUSH1 0x20 SWAP1 DUP2 MSTORE PUSH1 0x40 DUP1 DUP4 KECCAK256 SWAP4 SWAP1 SWAP4 SSTORE PUSH1 0x5 SWAP1 MSTORE KECCAK256 SLOAD PUSH2 0x17F0 SWAP1 DUP5 SWAP1 PUSH2 0x1C2E JUMP JUMPDEST PUSH0 PUSH0 PUSH0 PUSH0 PUSH2 0x191F DUP6 PUSH2 0xEB1 JUMP JUMPDEST PUSH1 0x1 PUSH1 0x1 PUSH1 0xA0 SHL SUB DUP12 AND PUSH0 SWAP1 DUP2 MSTORE PUSH1 0x5 PUSH1 0x20 MSTORE PUSH1 0x40 SWAP1 KECCAK256 SLOAD SWAP4 SWAP8 POP SWAP2 SWAP6 POP SWAP4 POP SWAP2 POP PUSH2 0x17C1 SWAP1 DUP6 SWAP1 PUSH2 0x1C1B JUMP JUMPDEST PUSH0 PUSH0 PUSH0 PUSH0 PUSH2 0x1959 DUP6 PUSH2 0xEB1 JUMP JUMPDEST PUSH1 0x1 PUSH1 0x1 PUSH1 0xA0 SHL SUB DUP12 AND PUSH0 SWAP1 DUP2 MSTORE PUSH1 0x6 PUSH1 0x20 MSTORE PUSH1 0x40 SWAP1 KECCAK256 SLOAD SWAP4 SWAP8 POP SWAP2 SWAP6 POP SWAP4 POP SWAP2 POP PUSH2 0x1986 SWAP1 DUP7 SWAP1 PUSH2 0x1C1B JUMP JUMPDEST PUSH1 0x1 PUSH1 0x1 PUSH1 0xA0 SHL SUB DUP9 AND PUSH0 SWAP1 DUP2 MSTORE PUSH1 0x6 PUSH1 0x20 SWAP1 DUP2 MSTORE PUSH1 0x40 DUP1 DUP4 KECCAK256 SWAP4 SWAP1 SWAP4 SSTORE PUSH1 0x5 SWAP1 MSTORE KECCAK256 SLOAD PUSH2 0x18AD SWAP1 DUP6 SWAP1 PUSH2 0x1C1B JUMP JUMPDEST PUSH0 PUSH1 0x64 PUSH1 0x11 SLOAD DUP5 PUSH2 0x19C6 SWAP2 SWAP1 PUSH2 0x1CA1 JUMP JUMPDEST PUSH2 0x19D0 SWAP2 SWAP1 PUSH2 0x1CB8 JUMP JUMPDEST SWAP1 POP DUP1 ISZERO PUSH2 0xF8A JUMPI PUSH0 PUSH2 0x19E3 DUP4 DUP4 PUSH2 0x1CA1 JUMP JUMPDEST PUSH1 0x13 SLOAD PUSH1 0x1 PUSH1 0x1 PUSH1 0xA0 SHL SUB AND PUSH0 SWAP1 DUP2 MSTORE PUSH1 0x5 PUSH1 0x20 MSTORE PUSH1 0x40 SWAP1 KECCAK256 SLOAD SWAP1 SWAP2 POP PUSH2 0x1A0B SWAP1 DUP3 SWAP1 PUSH2 0x1C2E JUMP JUMPDEST PUSH1 0x13 DUP1 SLOAD PUSH1 0x1 PUSH1 0x1 PUSH1 0xA0 SHL SUB SWAP1 DUP2 AND PUSH0 SWAP1 DUP2 MSTORE PUSH1 0x5 PUSH1 0x20 SWAP1 DUP2 MSTORE PUSH1 0x40 SWAP2 DUP3 SWAP1 KECCAK256 SWAP5 SWAP1 SWAP5 SSTORE SWAP2 SLOAD SWAP2 MLOAD DUP6 DUP2 MSTORE SWAP2 DUP2 AND SWAP3 SWAP1 DUP9 AND SWAP2 PUSH32 0xDDF252AD1BE2C89B69C2B068FC378DAA952BA7F163C4A11628F55A4DF523B3EF SWAP2 ADD PUSH1 0x40 MLOAD DUP1 SWAP2 SUB SWAP1 LOG3 POP POP POP POP POP JUMP JUMPDEST PUSH0 PUSH1 0x64 PUSH1 0xF SLOAD DUP5 PUSH2 0x1A81 SWAP2 SWAP1 PUSH2 0x1CA1 JUMP JUMPDEST PUSH2 0x1A8B SWAP2 SWAP1 PUSH2 0x1CB8 JUMP JUMPDEST SWAP1 POP PUSH0 PUSH2 0x1A98 DUP4 DUP4 PUSH2 0x1CA1 JUMP JUMPDEST SWAP1 POP DUP1 PUSH1 0xD SLOAD PUSH2 0x1AA8 SWAP2 SWAP1 PUSH2 0x1C1B JUMP JUMPDEST PUSH1 0xD SSTORE PUSH1 0xE SLOAD PUSH2 0x1AB9 SWAP1 DUP4 SWAP1 PUSH2 0x1C2E JUMP JUMPDEST PUSH1 0xE SSTORE POP POP POP POP JUMP JUMPDEST PUSH0 PUSH1 0x20 DUP3 DUP5 SUB SLT ISZERO PUSH2 0x1AD2 JUMPI PUSH0 PUSH0 REVERT JUMPDEST POP CALLDATALOAD SWAP2 SWAP1 POP JUMP JUMPDEST PUSH1 0x20 DUP2 MSTORE PUSH0 DUP3 MLOAD DUP1 PUSH1 0x20 DUP5 ADD MSTORE DUP1 PUSH1 0x20 DUP6 ADD PUSH1 0x40 DUP6 ADD MCOPY PUSH0 PUSH1 0x40 DUP3 DUP6 ADD ADD MSTORE PUSH1 0x40 PUSH1 0x1F NOT PUSH1 0x1F DUP4 ADD AND DUP5 ADD ADD SWAP2 POP POP SWAP3 SWAP2 POP POP JUMP JUMPDEST DUP1 CALLDATALOAD PUSH1 0x1 PUSH1 0x1 PUSH1 0xA0 SHL SUB DUP2 AND DUP2 EQ PUSH2 0x1B24 JUMPI PUSH0 PUSH0 REVERT JUMPDEST SWAP2 SWAP1 POP JUMP JUMPDEST PUSH0 PUSH0 PUSH1 0x40 DUP4 DUP6 SUB SLT ISZERO PUSH2 0x1B3A JUMPI PUSH0 PUSH0 REVERT JUMPDEST PUSH2 0x1B43 DUP4 PUSH2 0x1B0E JUMP JUMPDEST SWAP5 PUSH1 0x20 SWAP4 SWAP1 SWAP4 ADD CALLDATALOAD SWAP4 POP POP POP JUMP JUMPDEST PUSH0 PUSH0 PUSH0 PUSH1 0x60 DUP5 DUP7 SUB SLT ISZERO PUSH2 0x1B63 JUMPI PUSH0 PUSH0 REVERT JUMPDEST PUSH2 0x1B6C DUP5 PUSH2 0x1B0E JUMP JUMPDEST SWAP3 POP PUSH2 0x1B7A PUSH1 0x20 DUP6 ADD PUSH2 0x1B0E JUMP JUMPDEST SWAP3 SWAP6 SWAP3 SWAP5 POP POP POP PUSH1 0x40 SWAP2 SWAP1 SWAP2 ADD CALLDATALOAD SWAP1 JUMP JUMPDEST PUSH0 PUSH1 0x20 DUP3 DUP5 SUB SLT ISZERO PUSH2 0x1B9B JUMPI PUSH0 PUSH0 REVERT JUMPDEST PUSH2 0x131F DUP3 PUSH2 0x1B0E JUMP JUMPDEST PUSH0 PUSH0 PUSH1 0x40 DUP4 DUP6 SUB SLT ISZERO PUSH2 0x1BB5 JUMPI PUSH0 PUSH0 REVERT JUMPDEST DUP3 CALLDATALOAD SWAP2 POP PUSH1 0x20 DUP4 ADD CALLDATALOAD DUP1 ISZERO ISZERO DUP2 EQ PUSH2 0x1BCB JUMPI PUSH0 PUSH0 REVERT JUMPDEST DUP1 SWAP2 POP POP SWAP3 POP SWAP3 SWAP1 POP JUMP JUMPDEST PUSH0 PUSH0 PUSH1 0x40 DUP4 DUP6 SUB SLT ISZERO PUSH2 0x1BE7 JUMPI PUSH0 PUSH0 REVERT JUMPDEST PUSH2 0x1BF0 DUP4 PUSH2 0x1B0E JUMP JUMPDEST SWAP2 POP PUSH2 0x1BFE PUSH1 0x20 DUP5 ADD PUSH2 0x1B0E JUMP JUMPDEST SWAP1 POP SWAP3 POP SWAP3 SWAP1 POP JUMP JUMPDEST PUSH4 0x4E487B71 PUSH1 0xE0 SHL PUSH0 MSTORE PUSH1 0x11 PUSH1 0x4 MSTORE PUSH1 0x24 PUSH0 REVERT JUMPDEST DUP2 DUP2 SUB DUP2 DUP2 GT ISZERO PUSH2 0x7B4 JUMPI PUSH2 0x7B4 PUSH2 0x1C07 JUMP JUMPDEST DUP1 DUP3 ADD DUP1 DUP3 GT ISZERO PUSH2 0x7B4 JUMPI PUSH2 0x7B4 PUSH2 0x1C07 JUMP JUMPDEST PUSH1 0x1 DUP2 DUP2 SHR SWAP1 DUP3 AND DUP1 PUSH2 0x1C55 JUMPI PUSH1 0x7F DUP3 AND SWAP2 POP JUMPDEST PUSH1 0x20 DUP3 LT DUP2 SUB PUSH2 0x1C73 JUMPI PUSH4 0x4E487B71 PUSH1 0xE0 SHL PUSH0 MSTORE PUSH1 0x22 PUSH1 0x4 MSTORE PUSH1 0x24 PUSH0 REVERT JUMPDEST POP SWAP2 SWAP1 POP JUMP JUMPDEST PUSH4 0x4E487B71 PUSH1 0xE0 SHL PUSH0 MSTORE PUSH1 0x32 PUSH1 0x4 MSTORE PUSH1 0x24 PUSH0 REVERT JUMPDEST PUSH4 0x4E487B71 PUSH1 0xE0 SHL PUSH0 MSTORE PUSH1 0x31 PUSH1 0x4 MSTORE PUSH1 0x24 PUSH0 REVERT JUMPDEST DUP1 DUP3 MUL DUP2 ISZERO DUP3 DUP3 DIV DUP5 EQ OR PUSH2 0x7B4 JUMPI PUSH2 0x7B4 PUSH2 0x1C07 JUMP JUMPDEST PUSH0 DUP3 PUSH2 0x1CD2 JUMPI PUSH4 0x4E487B71 PUSH1 0xE0 SHL PUSH0 MSTORE PUSH1 0x12 PUSH1 0x4 MSTORE PUSH1 0x24 PUSH0 REVERT JUMPDEST POP DIV SWAP1 JUMP INVALID LOG2 PUSH5 0x6970667358 0x22 SLT KECCAK256 0xAB SDIV NUMBER PUSH18 0x3087C0DBC900CD480141D1068A4F9207BF42 RETURNCONTRACT 0xF1 STATICCALL CALLCODE 0xA8 0xED 0xAF MSIZE 0x22 PUSH21 0x64736F6C634300081D003300000000000000000000 "
				},
				"gasEstimates": {
					"creation": {
						"codeDepositCost": "1487400",
						"executionCost": "infinite",
						"totalCost": "infinite"
					},
					"external": {
						"allowance(address,address)": "infinite",
						"approve(address,uint256)": "24802",
						"balanceOf(address)": "infinite",
						"changeMarketingAccount(address)": "26879",
						"changePairAddress(address)": "51094",
						"decimals()": "2356",
						"excludeAccountFromReward(address)": "infinite",
						"excludeFromFee(address)": "26830",
						"getMarketingAccount()": "2430",
						"getTaxFee()": "2357",
						"includeAccountinReward(address)": "infinite",
						"isExcluded(address)": "2613",
						"isExcludedFromFee(address)": "2636",
						"isWhitelisted(address)": "2640",
						"isWhitelistedAddress(address)": "2658",
						"launchBlock()": "2383",
						"name()": "infinite",
						"openTrading()": "48688",
						"owner()": "2431",
						"pairAddress()": "2381",
						"reflect(uint256)": "infinite",
						"reflectionFee()": "2337",
						"reflectionFromToken(uint256,bool)": "infinite",
						"renounceOwnership()": "28780",
						"symbol()": "infinite",
						"totalFeesRedistributed()": "2381",
						"totalSupply()": "2393",
						"tradingOpen()": "2419",
						"transfer(address,uint256)": "infinite",
						"transferFrom(address,address,uint256)": "infinite",
						"transferOwnership(address)": "26785",
						"whitelistedAddress(address)": "29084"
					},
					"internal": {
						"_getCompleteTaxValue(uint256)": "infinite",
						"_getCurrentSupply()": "infinite",
						"_getRate()": "infinite",
						"_getTransferValues(uint256)": "infinite",
						"_reflectFee(uint256,uint256)": "infinite",
						"_tokenTransfer(address,address,uint256,bool)": "infinite",
						"_transfer(address,address,uint256)": "infinite",
						"_transferBothExcluded(address,address,uint256)": "infinite",
						"_transferFromExcluded(address,address,uint256)": "infinite",
						"_transferStandard(address,address,uint256)": "infinite",
						"_transferToExcluded(address,address,uint256)": "infinite",
						"removeAllFee()": "62689",
						"restoreAllFee()": "infinite",
						"taxFeeTransfer(address,uint256,uint256)": "infinite",
						"tokenFromReflection(uint256)": "infinite"
					}
				},
				"methodIdentifiers": {
					"allowance(address,address)": "dd62ed3e",
					"approve(address,uint256)": "095ea7b3",
					"balanceOf(address)": "70a08231",
					"changeMarketingAccount(address)": "c4863770",
					"changePairAddress(address)": "8873b15f",
					"decimals()": "313ce567",
					"excludeAccountFromReward(address)": "6049876e",
					"excludeFromFee(address)": "437823ec",
					"getMarketingAccount()": "838fcc90",
					"getTaxFee()": "f66608fe",
					"includeAccountinReward(address)": "fdeb889f",
					"isExcluded(address)": "cba0e996",
					"isExcludedFromFee(address)": "5342acb4",
					"isWhitelisted(address)": "3af32abf",
					"isWhitelistedAddress(address)": "5fae0576",
					"launchBlock()": "d00efb2f",
					"name()": "06fdde03",
					"openTrading()": "c9567bf9",
					"owner()": "8da5cb5b",
					"pairAddress()": "a8b08982",
					"reflect(uint256)": "053ab182",
					"reflectionFee()": "83ad7994",
					"reflectionFromToken(uint256,bool)": "4549b039",
					"renounceOwnership()": "715018a6",
					"symbol()": "95d89b41",
					"totalFeesRedistributed()": "32035504",
					"totalSupply()": "18160ddd",
					"tradingOpen()": "ffb54a99",
					"transfer(address,uint256)": "a9059cbb",
					"transferFrom(address,address,uint256)": "23b872dd",
					"transferOwnership(address)": "f2fde38b",
					"whitelistedAddress(address)": "c30796ab"
				}
			},
			"storageLayout": {
				"storage": [
					{
						"astId": 279,
						"contract": "shoaib_flattened.sol:CYBCC",
						"label": "_balances",
						"offset": 0,
						"slot": "0",
						"type": "t_mapping(t_address,t_uint256)"
					},
					{
						"astId": 285,
						"contract": "shoaib_flattened.sol:CYBCC",
						"label": "_allowances",
						"offset": 0,
						"slot": "1",
						"type": "t_mapping(t_address,t_mapping(t_address,t_uint256))"
					},
					{
						"astId": 287,
						"contract": "shoaib_flattened.sol:CYBCC",
						"label": "_totalSupply",
						"offset": 0,
						"slot": "2",
						"type": "t_uint256"
					},
					{
						"astId": 289,
						"contract": "shoaib_flattened.sol:CYBCC",
						"label": "_name",
						"offset": 0,
						"slot": "3",
						"type": "t_string_storage"
					},
					{
						"astId": 291,
						"contract": "shoaib_flattened.sol:CYBCC",
						"label": "_symbol",
						"offset": 0,
						"slot": "4",
						"type": "t_string_storage"
					},
					{
						"astId": 778,
						"contract": "shoaib_flattened.sol:CYBCC",
						"label": "_rOwned",
						"offset": 0,
						"slot": "5",
						"type": "t_mapping(t_address,t_uint256)"
					},
					{
						"astId": 782,
						"contract": "shoaib_flattened.sol:CYBCC",
						"label": "_tOwned",
						"offset": 0,
						"slot": "6",
						"type": "t_mapping(t_address,t_uint256)"
					},
					{
						"astId": 786,
						"contract": "shoaib_flattened.sol:CYBCC",
						"label": "_isExcludedFromFee",
						"offset": 0,
						"slot": "7",
						"type": "t_mapping(t_address,t_bool)"
					},
					{
						"astId": 790,
						"contract": "shoaib_flattened.sol:CYBCC",
						"label": "isWhitelisted",
						"offset": 0,
						"slot": "8",
						"type": "t_mapping(t_address,t_bool)"
					},
					{
						"astId": 794,
						"contract": "shoaib_flattened.sol:CYBCC",
						"label": "_isExcluded",
						"offset": 0,
						"slot": "9",
						"type": "t_mapping(t_address,t_bool)"
					},
					{
						"astId": 797,
						"contract": "shoaib_flattened.sol:CYBCC",
						"label": "_excluded",
						"offset": 0,
						"slot": "10",
						"type": "t_array(t_address)dyn_storage"
					},
					{
						"astId": 799,
						"contract": "shoaib_flattened.sol:CYBCC",
						"label": "_decimals",
						"offset": 0,
						"slot": "11",
						"type": "t_uint8"
					},
					{
						"astId": 803,
						"contract": "shoaib_flattened.sol:CYBCC",
						"label": "_owner",
						"offset": 1,
						"slot": "11",
						"type": "t_address"
					},
					{
						"astId": 812,
						"contract": "shoaib_flattened.sol:CYBCC",
						"label": "_tTotal",
						"offset": 0,
						"slot": "12",
						"type": "t_uint256"
					},
					{
						"astId": 814,
						"contract": "shoaib_flattened.sol:CYBCC",
						"label": "_rTotal",
						"offset": 0,
						"slot": "13",
						"type": "t_uint256"
					},
					{
						"astId": 817,
						"contract": "shoaib_flattened.sol:CYBCC",
						"label": "_tFeeTotal",
						"offset": 0,
						"slot": "14",
						"type": "t_uint256"
					},
					{
						"astId": 819,
						"contract": "shoaib_flattened.sol:CYBCC",
						"label": "_reflectionFee",
						"offset": 0,
						"slot": "15",
						"type": "t_uint256"
					},
					{
						"astId": 821,
						"contract": "shoaib_flattened.sol:CYBCC",
						"label": "_previousReflectionFee",
						"offset": 0,
						"slot": "16",
						"type": "t_uint256"
					},
					{
						"astId": 823,
						"contract": "shoaib_flattened.sol:CYBCC",
						"label": "_taxFee",
						"offset": 0,
						"slot": "17",
						"type": "t_uint256"
					},
					{
						"astId": 825,
						"contract": "shoaib_flattened.sol:CYBCC",
						"label": "_previousTaxFee",
						"offset": 0,
						"slot": "18",
						"type": "t_uint256"
					},
					{
						"astId": 827,
						"contract": "shoaib_flattened.sol:CYBCC",
						"label": "_marketingAndDevelopmentAccount",
						"offset": 0,
						"slot": "19",
						"type": "t_address"
					},
					{
						"astId": 829,
						"contract": "shoaib_flattened.sol:CYBCC",
						"label": "pairAddress",
						"offset": 0,
						"slot": "20",
						"type": "t_address"
					},
					{
						"astId": 831,
						"contract": "shoaib_flattened.sol:CYBCC",
						"label": "maxWalletAmount",
						"offset": 0,
						"slot": "21",
						"type": "t_uint256"
					},
					{
						"astId": 833,
						"contract": "shoaib_flattened.sol:CYBCC",
						"label": "launchBlock",
						"offset": 0,
						"slot": "22",
						"type": "t_uint256"
					},
					{
						"astId": 836,
						"contract": "shoaib_flattened.sol:CYBCC",
						"label": "tradingOpen",
						"offset": 0,
						"slot": "23",
						"type": "t_bool"
					}
				],
				"types": {
					"t_address": {
						"encoding": "inplace",
						"label": "address",
						"numberOfBytes": "20"
					},
					"t_array(t_address)dyn_storage": {
						"base": "t_address",
						"encoding": "dynamic_array",
						"label": "address[]",
						"numberOfBytes": "32"
					},
					"t_bool": {
						"encoding": "inplace",
						"label": "bool",
						"numberOfBytes": "1"
					},
					"t_mapping(t_address,t_bool)": {
						"encoding": "mapping",
						"key": "t_address",
						"label": "mapping(address => bool)",
						"numberOfBytes": "32",
						"value": "t_bool"
					},
					"t_mapping(t_address,t_mapping(t_address,t_uint256))": {
						"encoding": "mapping",
						"key": "t_address",
						"label": "mapping(address => mapping(address => uint256))",
						"numberOfBytes": "32",
						"value": "t_mapping(t_address,t_uint256)"
					},
					"t_mapping(t_address,t_uint256)": {
						"encoding": "mapping",
						"key": "t_address",
						"label": "mapping(address => uint256)",
						"numberOfBytes": "32",
						"value": "t_uint256"
					},
					"t_string_storage": {
						"encoding": "bytes",
						"label": "string",
						"numberOfBytes": "32"
					},
					"t_uint256": {
						"encoding": "inplace",
						"label": "uint256",
						"numberOfBytes": "32"
					},
					"t_uint8": {
						"encoding": "inplace",
						"label": "uint8",
						"numberOfBytes": "1"
					}
				}
			},
			"userdoc": {
				"kind": "user",
				"methods": {},
				"version": 1
			}
		}
	}
}