{
	"CYBCC.sol": {
		"CYBCC": {
			"abi": [
				{
					"inputs": [],
					"stateMutability": "nonpayable",
					"type": "constructor"
				},
				{
					"inputs": [
						{
							"internalType": "address",
							"name": "spender",
							"type": "address"
						},
						{
							"internalType": "uint256",
							"name": "allowance",
							"type": "uint256"
						},
						{
							"internalType": "uint256",
							"name": "needed",
							"type": "uint256"
						}
					],
					"name": "ERC20InsufficientAllowance",
					"type": "error"
				},
				{
					"inputs": [
						{
							"internalType": "address",
							"name": "sender",
							"type": "address"
						},
						{
							"internalType": "uint256",
							"name": "balance",
							"type": "uint256"
						},
						{
							"internalType": "uint256",
							"name": "needed",
							"type": "uint256"
						}
					],
					"name": "ERC20InsufficientBalance",
					"type": "error"
				},
				{
					"inputs": [
						{
							"internalType": "address",
							"name": "approver",
							"type": "address"
						}
					],
					"name": "ERC20InvalidApprover",
					"type": "error"
				},
				{
					"inputs": [
						{
							"internalType": "address",
							"name": "receiver",
							"type": "address"
						}
					],
					"name": "ERC20InvalidReceiver",
					"type": "error"
				},
				{
					"inputs": [
						{
							"internalType": "address",
							"name": "sender",
							"type": "address"
						}
					],
					"name": "ERC20InvalidSender",
					"type": "error"
				},
				{
					"inputs": [
						{
							"internalType": "address",
							"name": "spender",
							"type": "address"
						}
					],
					"name": "ERC20InvalidSpender",
					"type": "error"
				},
				{
					"anonymous": false,
					"inputs": [
						{
							"indexed": true,
							"internalType": "address",
							"name": "owner",
							"type": "address"
						},
						{
							"indexed": true,
							"internalType": "address",
							"name": "spender",
							"type": "address"
						},
						{
							"indexed": false,
							"internalType": "uint256",
							"name": "value",
							"type": "uint256"
						}
					],
					"name": "Approval",
					"type": "event"
				},
				{
					"anonymous": false,
					"inputs": [
						{
							"indexed": true,
							"internalType": "address",
							"name": "from",
							"type": "address"
						},
						{
							"indexed": true,
							"internalType": "address",
							"name": "to",
							"type": "address"
						},
						{
							"indexed": false,
							"internalType": "uint256",
							"name": "value",
							"type": "uint256"
						}
					],
					"name": "Transfer",
					"type": "event"
				},
				{
					"inputs": [
						{
							"internalType": "address",
							"name": "owner",
							"type": "address"
						},
						{
							"internalType": "address",
							"name": "spender",
							"type": "address"
						}
					],
					"name": "allowance",
					"outputs": [
						{
							"internalType": "uint256",
							"name": "",
							"type": "uint256"
						}
					],
					"stateMutability": "view",
					"type": "function"
				},
				{
					"inputs": [
						{
							"internalType": "address",
							"name": "spender",
							"type": "address"
						},
						{
							"internalType": "uint256",
							"name": "value",
							"type": "uint256"
						}
					],
					"name": "approve",
					"outputs": [
						{
							"internalType": "bool",
							"name": "",
							"type": "bool"
						}
					],
					"stateMutability": "nonpayable",
					"type": "function"
				},
				{
					"inputs": [
						{
							"internalType": "address",
							"name": "sender",
							"type": "address"
						}
					],
					"name": "balanceOf",
					"outputs": [
						{
							"internalType": "uint256",
							"name": "",
							"type": "uint256"
						}
					],
					"stateMutability": "view",
					"type": "function"
				},
				{
					"inputs": [
						{
							"internalType": "address",
							"name": "newFeeAccount",
							"type": "address"
						}
					],
					"name": "changeDevelopmentAccount",
					"outputs": [],
					"stateMutability": "nonpayable",
					"type": "function"
				},
				{
					"inputs": [
						{
							"internalType": "address",
							"name": "newFeeAccount",
							"type": "address"
						}
					],
					"name": "changeMarketingAccount",
					"outputs": [],
					"stateMutability": "nonpayable",
					"type": "function"
				},
				{
					"inputs": [
						{
							"internalType": "address",
							"name": "_pairAddress",
							"type": "address"
						}
					],
					"name": "changePairAddress",
					"outputs": [],
					"stateMutability": "nonpayable",
					"type": "function"
				},
				{
					"inputs": [],
					"name": "decimals",
					"outputs": [
						{
							"internalType": "uint8",
							"name": "",
							"type": "uint8"
						}
					],
					"stateMutability": "view",
					"type": "function"
				},
				{
					"inputs": [
						{
							"internalType": "address",
							"name": "account",
							"type": "address"
						}
					],
					"name": "excludeAccountFromReward",
					"outputs": [],
					"stateMutability": "nonpayable",
					"type": "function"
				},
				{
					"inputs": [
						{
							"internalType": "address",
							"name": "account",
							"type": "address"
						}
					],
					"name": "excludeFromFee",
					"outputs": [],
					"stateMutability": "nonpayable",
					"type": "function"
				},
				{
					"inputs": [],
					"name": "getDevelopmentAccount",
					"outputs": [
						{
							"internalType": "address",
							"name": "",
							"type": "address"
						}
					],
					"stateMutability": "view",
					"type": "function"
				},
				{
					"inputs": [],
					"name": "getMarketingAccount",
					"outputs": [
						{
							"internalType": "address",
							"name": "",
							"type": "address"
						}
					],
					"stateMutability": "view",
					"type": "function"
				},
				{
					"inputs": [],
					"name": "getTaxFee",
					"outputs": [
						{
							"internalType": "uint256",
							"name": "",
							"type": "uint256"
						}
					],
					"stateMutability": "view",
					"type": "function"
				},
				{
					"inputs": [
						{
							"internalType": "address",
							"name": "account",
							"type": "address"
						}
					],
					"name": "includeAccountinReward",
					"outputs": [],
					"stateMutability": "nonpayable",
					"type": "function"
				},
				{
					"inputs": [
						{
							"internalType": "address",
							"name": "account",
							"type": "address"
						}
					],
					"name": "isExcluded",
					"outputs": [
						{
							"internalType": "bool",
							"name": "",
							"type": "bool"
						}
					],
					"stateMutability": "view",
					"type": "function"
				},
				{
					"inputs": [
						{
							"internalType": "address",
							"name": "account",
							"type": "address"
						}
					],
					"name": "isExcludedFromFee",
					"outputs": [
						{
							"internalType": "bool",
							"name": "",
							"type": "bool"
						}
					],
					"stateMutability": "view",
					"type": "function"
				},
				{
					"inputs": [
						{
							"internalType": "address",
							"name": "",
							"type": "address"
						}
					],
					"name": "isWhitelisted",
					"outputs": [
						{
							"internalType": "bool",
							"name": "",
							"type": "bool"
						}
					],
					"stateMutability": "view",
					"type": "function"
				},
				{
					"inputs": [],
					"name": "launchBlock",
					"outputs": [
						{
							"internalType": "uint256",
							"name": "",
							"type": "uint256"
						}
					],
					"stateMutability": "view",
					"type": "function"
				},
				{
					"inputs": [],
					"name": "name",
					"outputs": [
						{
							"internalType": "string",
							"name": "",
							"type": "string"
						}
					],
					"stateMutability": "view",
					"type": "function"
				},
				{
					"inputs": [],
					"name": "openTrading",
					"outputs": [],
					"stateMutability": "nonpayable",
					"type": "function"
				},
				{
					"inputs": [],
					"name": "owner",
					"outputs": [
						{
							"internalType": "address",
							"name": "",
							"type": "address"
						}
					],
					"stateMutability": "view",
					"type": "function"
				},
				{
					"inputs": [],
					"name": "pairAddress",
					"outputs": [
						{
							"internalType": "address",
							"name": "",
							"type": "address"
						}
					],
					"stateMutability": "view",
					"type": "function"
				},
				{
					"inputs": [
						{
							"internalType": "uint256",
							"name": "tAmount",
							"type": "uint256"
						}
					],
					"name": "reflect",
					"outputs": [],
					"stateMutability": "nonpayable",
					"type": "function"
				},
				{
					"inputs": [],
					"name": "reflectionFee",
					"outputs": [
						{
							"internalType": "uint256",
							"name": "",
							"type": "uint256"
						}
					],
					"stateMutability": "view",
					"type": "function"
				},
				{
					"inputs": [
						{
							"internalType": "uint256",
							"name": "tAmount",
							"type": "uint256"
						},
						{
							"internalType": "bool",
							"name": "deductTransferFee",
							"type": "bool"
						}
					],
					"name": "reflectionFromToken",
					"outputs": [
						{
							"internalType": "uint256",
							"name": "",
							"type": "uint256"
						}
					],
					"stateMutability": "view",
					"type": "function"
				},
				{
					"inputs": [],
					"name": "symbol",
					"outputs": [
						{
							"internalType": "string",
							"name": "",
							"type": "string"
						}
					],
					"stateMutability": "view",
					"type": "function"
				},
				{
					"inputs": [],
					"name": "totalFeesRedistributed",
					"outputs": [
						{
							"internalType": "uint256",
							"name": "",
							"type": "uint256"
						}
					],
					"stateMutability": "view",
					"type": "function"
				},
				{
					"inputs": [],
					"name": "totalSupply",
					"outputs": [
						{
							"internalType": "uint256",
							"name": "",
							"type": "uint256"
						}
					],
					"stateMutability": "view",
					"type": "function"
				},
				{
					"inputs": [],
					"name": "tradingOpen",
					"outputs": [
						{
							"internalType": "bool",
							"name": "",
							"type": "bool"
						}
					],
					"stateMutability": "view",
					"type": "function"
				},
				{
					"inputs": [
						{
							"internalType": "address",
							"name": "to",
							"type": "address"
						},
						{
							"internalType": "uint256",
							"name": "value",
							"type": "uint256"
						}
					],
					"name": "transfer",
					"outputs": [
						{
							"internalType": "bool",
							"name": "",
							"type": "bool"
						}
					],
					"stateMutability": "nonpayable",
					"type": "function"
				},
				{
					"inputs": [
						{
							"internalType": "address",
							"name": "from",
							"type": "address"
						},
						{
							"internalType": "address",
							"name": "to",
							"type": "address"
						},
						{
							"internalType": "uint256",
							"name": "value",
							"type": "uint256"
						}
					],
					"name": "transferFrom",
					"outputs": [
						{
							"internalType": "bool",
							"name": "",
							"type": "bool"
						}
					],
					"stateMutability": "nonpayable",
					"type": "function"
				},
				{
					"stateMutability": "payable",
					"type": "receive"
				}
			],
			"devdoc": {
				"errors": {
					"ERC20InsufficientAllowance(address,uint256,uint256)": [
						{
							"details": "Indicates a failure with the `spender`’s `allowance`. Used in transfers.",
							"params": {
								"allowance": "Amount of tokens a `spender` is allowed to operate with.",
								"needed": "Minimum amount required to perform a transfer.",
								"spender": "Address that may be allowed to operate on tokens without being their owner."
							}
						}
					],
					"ERC20InsufficientBalance(address,uint256,uint256)": [
						{
							"details": "Indicates an error related to the current `balance` of a `sender`. Used in transfers.",
							"params": {
								"balance": "Current balance for the interacting account.",
								"needed": "Minimum amount required to perform a transfer.",
								"sender": "Address whose tokens are being transferred."
							}
						}
					],
					"ERC20InvalidApprover(address)": [
						{
							"details": "Indicates a failure with the `approver` of a token to be approved. Used in approvals.",
							"params": {
								"approver": "Address initiating an approval operation."
							}
						}
					],
					"ERC20InvalidReceiver(address)": [
						{
							"details": "Indicates a failure with the token `receiver`. Used in transfers.",
							"params": {
								"receiver": "Address to which tokens are being transferred."
							}
						}
					],
					"ERC20InvalidSender(address)": [
						{
							"details": "Indicates a failure with the token `sender`. Used in transfers.",
							"params": {
								"sender": "Address whose tokens are being transferred."
							}
						}
					],
					"ERC20InvalidSpender(address)": [
						{
							"details": "Indicates a failure with the `spender` to be approved. Used in approvals.",
							"params": {
								"spender": "Address that may be allowed to operate on tokens without being their owner."
							}
						}
					]
				},
				"events": {
					"Approval(address,address,uint256)": {
						"details": "Emitted when the allowance of a `spender` for an `owner` is set by a call to {approve}. `value` is the new allowance."
					},
					"Transfer(address,address,uint256)": {
						"details": "Emitted when `value` tokens are moved from one account (`from`) to another (`to`). Note that `value` may be zero."
					}
				},
				"kind": "dev",
				"methods": {
					"allowance(address,address)": {
						"details": "See {IERC20-allowance}."
					},
					"approve(address,uint256)": {
						"details": "See {IERC20-approve}. NOTE: If `value` is the maximum `uint256`, the allowance is not updated on `transferFrom`. This is semantically equivalent to an infinite approval. Requirements: - `spender` cannot be the zero address."
					},
					"decimals()": {
						"details": "Returns the number of decimals used to get its user representation. For example, if `decimals` equals `2`, a balance of `505` tokens should be displayed to a user as `5.05` (`505 / 10 ** 2`). Tokens usually opt for a value of 18, imitating the relationship between Ether and Wei. This is the default value returned by this function, unless it's overridden. NOTE: This information is only used for _display_ purposes: it in no way affects any of the arithmetic of the contract, including {IERC20-balanceOf} and {IERC20-transfer}."
					},
					"name()": {
						"details": "Returns the name of the token."
					},
					"symbol()": {
						"details": "Returns the symbol of the token, usually a shorter version of the name."
					},
					"totalSupply()": {
						"details": "See {IERC20-totalSupply}."
					},
					"transfer(address,uint256)": {
						"details": "See {IERC20-transfer}. Requirements: - `to` cannot be the zero address. - the caller must have a balance of at least `value`."
					},
					"transferFrom(address,address,uint256)": {
						"details": "See {IERC20-transferFrom}. Skips emitting an {Approval} event indicating an allowance update. This is not required by the ERC. See {xref-ERC20-_approve-address-address-uint256-bool-}[_approve]. NOTE: Does not update the allowance if the current allowance is the maximum `uint256`. Requirements: - `from` and `to` cannot be the zero address. - `from` must have a balance of at least `value`. - the caller must have allowance for ``from``'s tokens of at least `value`."
					}
				},
				"version": 1
			},
			"evm": {
				"assembly": "    /* \"CYBCC.sol\":128:13554  contract CYBCC is ERC20 {... */\n  mstore(0x40, 0x80)\n    /* \"CYBCC.sol\":478:513  address private _owner = msg.sender */\n  0x0b\n  dup1\n  sload\n  0x0100\n    /* \"CYBCC.sol\":503:513  msg.sender */\n  caller\n    /* \"CYBCC.sol\":478:513  address private _owner = msg.sender */\n  mul\n  not(sub(shl(0xa8, 0x01), 0x0100))\n  dup3\n  and\n  dup2\n  or\n  swap1\n  swap3\n  sstore\n  0x00\n    /* \"CYBCC.sol\":625:655  uint256 private _tFeeTotal = 0 */\n  0x0e\n  sstore\n    /* \"CYBCC.sol\":969:991  10**uint256(_decimals) */\n  tag_1\n  swap2\n    /* \"CYBCC.sol\":981:990  _decimals */\n  0xff\n  swap1\n  dup2\n  and\n  swap2\n  and\n  or\n    /* \"CYBCC.sol\":969:971  10 */\n  0x0a\n    /* \"CYBCC.sol\":969:991  10**uint256(_decimals) */\n  tag_2\n  jump\t// in\ntag_1:\n    /* \"CYBCC.sol\":958:991  10000000 * 10**uint256(_decimals) */\n  tag_3\n  swap1\n    /* \"CYBCC.sol\":958:966  10000000 */\n  0x989680\n    /* \"CYBCC.sol\":958:991  10000000 * 10**uint256(_decimals) */\n  tag_4\n  jump\t// in\ntag_3:\n    /* \"CYBCC.sol\":924:991  uint256 private maxWalletAmount = 10000000 * 10**uint256(_decimals) */\n  0x16\n  sstore\n    /* \"CYBCC.sol\":1030:1061  bool public tradingOpen = false */\n  0x18\n  dup1\n  sload\n  not(0xff)\n  and\n  swap1\n  sstore\n    /* \"CYBCC.sol\":1068:1754  constructor() ERC20(\"CYBERCATSCOIN\", \"CYBCC\") {... */\n  callvalue\n  dup1\n  iszero\n  tag_5\n  jumpi\n  revert(0x00, 0x00)\ntag_5:\n  pop\n    /* \"@openzeppelin/contracts/token/ERC20/ERC20.sol\":1582:1695  constructor(string memory name_, string memory symbol_) {... */\n  mload(0x40)\n  dup1\n  0x40\n  add\n  0x40\n  mstore\n  dup1\n  0x0d\n  dup2\n  mstore\n  0x20\n  add\n  shl(0x99, 0x21aca122a921a0aa29a1a7a4a7)\n  dup2\n  mstore\n  pop\n  mload(0x40)\n  dup1\n  0x40\n  add\n  0x40\n  mstore\n  dup1\n  0x05\n  dup2\n  mstore\n  0x20\n  add\n  shl(0xd8, 0x4359424343)\n  dup2\n  mstore\n  pop\n    /* \"@openzeppelin/contracts/token/ERC20/ERC20.sol\":1656:1661  name_ */\n  dup2\n    /* \"@openzeppelin/contracts/token/ERC20/ERC20.sol\":1648:1653  _name */\n  0x03\n    /* \"@openzeppelin/contracts/token/ERC20/ERC20.sol\":1648:1661  _name = name_ */\n  swap1\n  dup2\n  tag_9\n  swap2\n  swap1\n  tag_10\n  jump\t// in\ntag_9:\n  pop\n    /* \"@openzeppelin/contracts/token/ERC20/ERC20.sol\":1671:1678  _symbol */\n  0x04\n    /* \"@openzeppelin/contracts/token/ERC20/ERC20.sol\":1671:1688  _symbol = symbol_ */\n  tag_11\n    /* \"@openzeppelin/contracts/token/ERC20/ERC20.sol\":1681:1688  symbol_ */\n  dup3\n    /* \"@openzeppelin/contracts/token/ERC20/ERC20.sol\":1671:1678  _symbol */\n  dup3\n    /* \"@openzeppelin/contracts/token/ERC20/ERC20.sol\":1671:1688  _symbol = symbol_ */\n  tag_10\n  jump\t// in\ntag_11:\n  pop\n  pop\n    /* \"CYBCC.sol\":1124:1133  _decimals */\n  0x0b\n    /* \"CYBCC.sol\":1124:1138  _decimals = 18 */\n  dup1\n  sload\n  not(0xff)\n  and\n    /* \"CYBCC.sol\":1136:1138  18 */\n  0x12\n    /* \"CYBCC.sol\":1124:1138  _decimals = 18 */\n  swap1\n  dup2\n  or\n  swap1\n  swap2\n  sstore\n    /* \"CYBCC.sol\":1171:1193  10**uint256(_decimals) */\n  tag_13\n  swap2\n  pop\n    /* \"CYBCC.sol\":1171:1173  10 */\n  0x0a\n    /* \"CYBCC.sol\":1171:1193  10**uint256(_decimals) */\n  tag_2\n  jump\t// in\ntag_13:\n    /* \"CYBCC.sol\":1158:1193  1000000000 * 10**uint256(_decimals) */\n  tag_14\n  swap1\n    /* \"CYBCC.sol\":1158:1168  1000000000 */\n  0x3b9aca00\n    /* \"CYBCC.sol\":1158:1193  1000000000 * 10**uint256(_decimals) */\n  tag_4\n  jump\t// in\ntag_14:\n    /* \"CYBCC.sol\":1148:1155  _tTotal */\n  0x0c\n    /* \"CYBCC.sol\":1148:1193  _tTotal = 1000000000 * 10**uint256(_decimals) */\n  dup2\n  swap1\n  sstore\n    /* \"CYBCC.sol\":1221:1234  MAX % _tTotal */\n  tag_15\n  swap1\n  not(0x00)\n  tag_16\n  jump\t// in\ntag_15:\n    /* \"CYBCC.sol\":1214:1235  MAX - (MAX % _tTotal) */\n  tag_17\n  swap1\n  not(0x00)\n  tag_18\n  jump\t// in\ntag_17:\n    /* \"CYBCC.sol\":1203:1210  _rTotal */\n  0x0d\n    /* \"CYBCC.sol\":1203:1236  _rTotal = (MAX - (MAX % _tTotal)) */\n  swap1\n  dup2\n  sstore\n    /* \"CYBCC.sol\":1264:1265  2 */\n  0x02\n    /* \"CYBCC.sol\":1247:1261  _reflectionFee */\n  0x0f\n    /* \"CYBCC.sol\":1247:1265  _reflectionFee = 2 */\n  dup2\n  swap1\n  sstore\n    /* \"CYBCC.sol\":1275:1297  _previousReflectionFee */\n  0x10\n    /* \"CYBCC.sol\":1275:1314  _previousReflectionFee = _reflectionFee */\n  dup2\n  swap1\n  sstore\n    /* \"CYBCC.sol\":1325:1332  _taxFee */\n  0x11\n    /* \"CYBCC.sol\":1325:1336  _taxFee = 2 */\n  dup2\n  swap1\n  sstore\n    /* \"CYBCC.sol\":1346:1361  _previousTaxFee */\n  0x12\n    /* \"CYBCC.sol\":1346:1371  _previousTaxFee = _taxFee */\n  sstore\n    /* \"CYBCC.sol\":1402:1408  _owner */\n  0x0b\n  dup1\n  sload\n    /* \"CYBCC.sol\":1382:1399  _marketingAccount */\n  0x13\n    /* \"CYBCC.sol\":1382:1408  _marketingAccount = _owner */\n  dup1\n  sload\n  not(sub(shl(0xa0, 0x01), 0x01))\n  and\n  sub(shl(0xa0, 0x01), 0x01)\n    /* \"CYBCC.sol\":1402:1408  _owner */\n  0x0100\n  swap4\n  dup5\n  swap1\n  div\n  dup2\n  and\n    /* \"CYBCC.sol\":1382:1408  _marketingAccount = _owner */\n  swap2\n  dup3\n  or\n  dup4\n  sstore\n  0x00\n    /* \"CYBCC.sol\":1482:1509  _isExcludedFromFee[owner()] */\n  swap2\n  dup3\n  mstore\n    /* \"CYBCC.sol\":1482:1500  _isExcludedFromFee */\n  0x07\n    /* \"CYBCC.sol\":1482:1509  _isExcludedFromFee[owner()] */\n  0x20\n  swap1\n  dup2\n  mstore\n  0x40\n  dup1\n  dup5\n  keccak256\n    /* \"CYBCC.sol\":1482:1516  _isExcludedFromFee[owner()] = true */\n  dup1\n  sload\n  not(0xff)\n  swap1\n  dup2\n  and\n  0x01\n  swap1\n  dup2\n  or\n  swap1\n  swap3\n  sstore\n    /* \"CYBCC.sol\":1545:1562  _marketingAccount */\n  swap6\n  sload\n  dup5\n  and\n    /* \"CYBCC.sol\":1526:1563  _isExcludedFromFee[_marketingAccount] */\n  dup6\n  mstore\n  dup2\n  dup6\n  keccak256\n    /* \"CYBCC.sol\":1526:1570  _isExcludedFromFee[_marketingAccount] = true */\n  dup1\n  sload\n  dup8\n  and\n  dup3\n  or\n  swap1\n  sstore\n    /* \"CYBCC.sol\":1599:1618  _developmentAccount */\n  sload(0x14)\n  dup5\n  and\n    /* \"CYBCC.sol\":1580:1619  _isExcludedFromFee[_developmentAccount] */\n  dup6\n  mstore\n  dup2\n  dup6\n  keccak256\n    /* \"CYBCC.sol\":1580:1626  _isExcludedFromFee[_developmentAccount] = true */\n  dup1\n  sload\n  dup8\n  and\n  dup3\n  or\n  swap1\n  sstore\n    /* \"CYBCC.sol\":1663:1667  this */\n  address\n    /* \"CYBCC.sol\":1636:1669  _isExcludedFromFee[address(this)] */\n  dup6\n  mstore\n  dup2\n  dup6\n  keccak256\n    /* \"CYBCC.sol\":1636:1676  _isExcludedFromFee[address(this)] = true */\n  dup1\n  sload\n  swap1\n  swap7\n  and\n  or\n  swap1\n  swap5\n  sstore\n    /* \"CYBCC.sol\":1704:1711  _rTotal */\n  swap6\n  sload\n    /* \"CYBCC.sol\":1694:1700  _owner */\n  swap5\n  sload\n  swap4\n  swap1\n  swap4\n  div\n  swap1\n  swap3\n  and\n    /* \"CYBCC.sol\":1686:1701  _rOwned[_owner] */\n  dup3\n  mstore\n    /* \"CYBCC.sol\":1686:1693  _rOwned */\n  0x05\n    /* \"CYBCC.sol\":1686:1701  _rOwned[_owner] */\n  swap1\n  swap4\n  mstore\n  swap2\n  swap1\n  swap2\n  keccak256\n    /* \"CYBCC.sol\":1686:1711  _rOwned[_owner] = _rTotal */\n  dup2\n  swap1\n  sstore\n    /* \"CYBCC.sol\":1721:1747  _mint(msg.sender, _rTotal) */\n  tag_21\n  swap1\n    /* \"CYBCC.sol\":1727:1737  msg.sender */\n  caller\n  swap1\n    /* \"CYBCC.sol\":1721:1726  _mint */\n  tag_22\n    /* \"CYBCC.sol\":1721:1747  _mint(msg.sender, _rTotal) */\n  jump\t// in\ntag_21:\n    /* \"CYBCC.sol\":128:13554  contract CYBCC is ERC20 {... */\n  jump(tag_51)\n    /* \"@openzeppelin/contracts/token/ERC20/ERC20.sol\":7447:7655  function _mint(address account, uint256 value) internal {... */\ntag_22:\n  sub(shl(0xa0, 0x01), 0x01)\n    /* \"@openzeppelin/contracts/token/ERC20/ERC20.sol\":7517:7538  account == address(0) */\n  dup3\n  and\n    /* \"@openzeppelin/contracts/token/ERC20/ERC20.sol\":7513:7604  if (account == address(0)) {... */\n  tag_26\n  jumpi\n    /* \"@openzeppelin/contracts/token/ERC20/ERC20.sol\":7561:7593  ERC20InvalidReceiver(address(0)) */\n  mload(0x40)\n  shl(0xe0, 0xec442f05)\n  dup2\n  mstore\n    /* \"@openzeppelin/contracts/token/ERC20/ERC20.sol\":7590:7591  0 */\n  0x00\n    /* \"@openzeppelin/contracts/token/ERC20/ERC20.sol\":7561:7593  ERC20InvalidReceiver(address(0)) */\n  0x04\n  dup3\n  add\n    /* \"#utility.yul\":4876:4927   */\n  mstore\n    /* \"#utility.yul\":4849:4867   */\n  0x24\n  add\n    /* \"@openzeppelin/contracts/token/ERC20/ERC20.sol\":7561:7593  ERC20InvalidReceiver(address(0)) */\ntag_27:\n  mload(0x40)\n  dup1\n  swap2\n  sub\n  swap1\n  revert\n    /* \"@openzeppelin/contracts/token/ERC20/ERC20.sol\":7513:7604  if (account == address(0)) {... */\ntag_26:\n    /* \"@openzeppelin/contracts/token/ERC20/ERC20.sol\":7613:7648  _update(address(0), account, value) */\n  tag_29\n    /* \"@openzeppelin/contracts/token/ERC20/ERC20.sol\":7629:7630  0 */\n  0x00\n    /* \"@openzeppelin/contracts/token/ERC20/ERC20.sol\":7633:7640  account */\n  dup4\n    /* \"@openzeppelin/contracts/token/ERC20/ERC20.sol\":7642:7647  value */\n  dup4\n    /* \"@openzeppelin/contracts/token/ERC20/ERC20.sol\":7613:7620  _update */\n  tag_30\n    /* \"@openzeppelin/contracts/token/ERC20/ERC20.sol\":7613:7648  _update(address(0), account, value) */\n  jump\t// in\ntag_29:\n    /* \"@openzeppelin/contracts/token/ERC20/ERC20.sol\":7447:7655  function _mint(address account, uint256 value) internal {... */\n  pop\n  pop\n  jump\t// out\n    /* \"@openzeppelin/contracts/token/ERC20/ERC20.sol\":5997:7104  function _update(address from, address to, uint256 value) internal virtual {... */\ntag_30:\n  sub(shl(0xa0, 0x01), 0x01)\n    /* \"@openzeppelin/contracts/token/ERC20/ERC20.sol\":6086:6104  from == address(0) */\n  dup4\n  and\n    /* \"@openzeppelin/contracts/token/ERC20/ERC20.sol\":6082:6622  if (from == address(0)) {... */\n  tag_32\n  jumpi\n    /* \"@openzeppelin/contracts/token/ERC20/ERC20.sol\":6238:6243  value */\n  dup1\n    /* \"@openzeppelin/contracts/token/ERC20/ERC20.sol\":6222:6234  _totalSupply */\n  0x02\n  0x00\n    /* \"@openzeppelin/contracts/token/ERC20/ERC20.sol\":6222:6243  _totalSupply += value */\n  dup3\n  dup3\n  sload\n  tag_33\n  swap2\n  swap1\n  tag_34\n  jump\t// in\ntag_33:\n  swap1\n  swap2\n  sstore\n  pop\n    /* \"@openzeppelin/contracts/token/ERC20/ERC20.sol\":6082:6622  if (from == address(0)) {... */\n  tag_35\n  swap1\n  pop\n  jump\ntag_32:\n  sub(shl(0xa0, 0x01), 0x01)\n    /* \"@openzeppelin/contracts/token/ERC20/ERC20.sol\":6296:6311  _balances[from] */\n  dup4\n  and\n    /* \"@openzeppelin/contracts/token/ERC20/ERC20.sol\":6274:6293  uint256 fromBalance */\n  0x00\n    /* \"@openzeppelin/contracts/token/ERC20/ERC20.sol\":6296:6311  _balances[from] */\n  swap1\n  dup2\n  mstore\n  0x20\n  dup2\n  swap1\n  mstore\n  0x40\n  swap1\n  keccak256\n  sload\n    /* \"@openzeppelin/contracts/token/ERC20/ERC20.sol\":6329:6348  fromBalance < value */\n  dup2\n  dup2\n  lt\n    /* \"@openzeppelin/contracts/token/ERC20/ERC20.sol\":6325:6440  if (fromBalance < value) {... */\n  iszero\n  tag_36\n  jumpi\n    /* \"@openzeppelin/contracts/token/ERC20/ERC20.sol\":6375:6425  ERC20InsufficientBalance(from, fromBalance, value) */\n  mload(0x40)\n  shl(0xe2, 0x391434e3)\n  dup2\n  mstore\n  sub(shl(0xa0, 0x01), 0x01)\n    /* \"#utility.yul\":5288:5320   */\n  dup6\n  and\n    /* \"@openzeppelin/contracts/token/ERC20/ERC20.sol\":6375:6425  ERC20InsufficientBalance(from, fromBalance, value) */\n  0x04\n  dup3\n  add\n    /* \"#utility.yul\":5270:5321   */\n  mstore\n    /* \"#utility.yul\":5337:5355   */\n  0x24\n  dup2\n  add\n    /* \"#utility.yul\":5330:5364   */\n  dup3\n  swap1\n  mstore\n    /* \"#utility.yul\":5380:5398   */\n  0x44\n  dup2\n  add\n    /* \"#utility.yul\":5373:5407   */\n  dup4\n  swap1\n  mstore\n    /* \"#utility.yul\":5243:5261   */\n  0x64\n  add\n    /* \"@openzeppelin/contracts/token/ERC20/ERC20.sol\":6375:6425  ERC20InsufficientBalance(from, fromBalance, value) */\n  tag_27\n    /* \"#utility.yul\":5068:5413   */\n  jump\n    /* \"@openzeppelin/contracts/token/ERC20/ERC20.sol\":6325:6440  if (fromBalance < value) {... */\ntag_36:\n  sub(shl(0xa0, 0x01), 0x01)\n    /* \"@openzeppelin/contracts/token/ERC20/ERC20.sol\":6560:6575  _balances[from] */\n  dup5\n  and\n    /* \"@openzeppelin/contracts/token/ERC20/ERC20.sol\":6560:6569  _balances */\n  0x00\n    /* \"@openzeppelin/contracts/token/ERC20/ERC20.sol\":6560:6575  _balances[from] */\n  swap1\n  dup2\n  mstore\n  0x20\n  dup2\n  swap1\n  mstore\n  0x40\n  swap1\n  keccak256\n    /* \"@openzeppelin/contracts/token/ERC20/ERC20.sol\":6578:6597  fromBalance - value */\n  swap1\n  dup3\n  swap1\n  sub\n    /* \"@openzeppelin/contracts/token/ERC20/ERC20.sol\":6560:6597  _balances[from] = fromBalance - value */\n  swap1\n  sstore\n    /* \"@openzeppelin/contracts/token/ERC20/ERC20.sol\":6082:6622  if (from == address(0)) {... */\ntag_35:\n  sub(shl(0xa0, 0x01), 0x01)\n    /* \"@openzeppelin/contracts/token/ERC20/ERC20.sol\":6636:6652  to == address(0) */\n  dup3\n  and\n    /* \"@openzeppelin/contracts/token/ERC20/ERC20.sol\":6632:7057  if (to == address(0)) {... */\n  tag_39\n  jumpi\n    /* \"@openzeppelin/contracts/token/ERC20/ERC20.sol\":6799:6811  _totalSupply */\n  0x02\n    /* \"@openzeppelin/contracts/token/ERC20/ERC20.sol\":6799:6820  _totalSupply -= value */\n  dup1\n  sload\n  dup3\n  swap1\n  sub\n  swap1\n  sstore\n    /* \"@openzeppelin/contracts/token/ERC20/ERC20.sol\":6632:7057  if (to == address(0)) {... */\n  jump(tag_40)\ntag_39:\n  sub(shl(0xa0, 0x01), 0x01)\n    /* \"@openzeppelin/contracts/token/ERC20/ERC20.sol\":7010:7023  _balances[to] */\n  dup3\n  and\n    /* \"@openzeppelin/contracts/token/ERC20/ERC20.sol\":7010:7019  _balances */\n  0x00\n    /* \"@openzeppelin/contracts/token/ERC20/ERC20.sol\":7010:7023  _balances[to] */\n  swap1\n  dup2\n  mstore\n  0x20\n  dup2\n  swap1\n  mstore\n  0x40\n  swap1\n  keccak256\n    /* \"@openzeppelin/contracts/token/ERC20/ERC20.sol\":7010:7032  _balances[to] += value */\n  dup1\n  sload\n  dup3\n  add\n  swap1\n  sstore\n    /* \"@openzeppelin/contracts/token/ERC20/ERC20.sol\":6632:7057  if (to == address(0)) {... */\ntag_40:\n    /* \"@openzeppelin/contracts/token/ERC20/ERC20.sol\":7087:7089  to */\n  dup2\n  sub(shl(0xa0, 0x01), 0x01)\n    /* \"@openzeppelin/contracts/token/ERC20/ERC20.sol\":7072:7097  Transfer(from, to, value) */\n  and\n    /* \"@openzeppelin/contracts/token/ERC20/ERC20.sol\":7081:7085  from */\n  dup4\n  sub(shl(0xa0, 0x01), 0x01)\n    /* \"@openzeppelin/contracts/token/ERC20/ERC20.sol\":7072:7097  Transfer(from, to, value) */\n  and\n  0xddf252ad1be2c89b69c2b068fc378daa952ba7f163c4a11628f55a4df523b3ef\n    /* \"@openzeppelin/contracts/token/ERC20/ERC20.sol\":7091:7096  value */\n  dup4\n    /* \"@openzeppelin/contracts/token/ERC20/ERC20.sol\":7072:7097  Transfer(from, to, value) */\n  mload(0x40)\n  tag_41\n  swap2\n    /* \"#utility.yul\":5564:5589   */\n  dup2\n  mstore\n    /* \"#utility.yul\":5552:5554   */\n  0x20\n    /* \"#utility.yul\":5537:5555   */\n  add\n  swap1\n    /* \"#utility.yul\":5418:5595   */\n  jump\n    /* \"@openzeppelin/contracts/token/ERC20/ERC20.sol\":7072:7097  Transfer(from, to, value) */\ntag_41:\n  mload(0x40)\n  dup1\n  swap2\n  sub\n  swap1\n  log3\n    /* \"@openzeppelin/contracts/token/ERC20/ERC20.sol\":5997:7104  function _update(address from, address to, uint256 value) internal virtual {... */\n  pop\n  pop\n  pop\n  jump\t// out\n    /* \"#utility.yul\":14:141   */\ntag_43:\n    /* \"#utility.yul\":75:85   */\n  0x4e487b71\n    /* \"#utility.yul\":70:73   */\n  0xe0\n    /* \"#utility.yul\":66:86   */\n  shl\n    /* \"#utility.yul\":63:64   */\n  0x00\n    /* \"#utility.yul\":56:87   */\n  mstore\n    /* \"#utility.yul\":106:110   */\n  0x11\n    /* \"#utility.yul\":103:104   */\n  0x04\n    /* \"#utility.yul\":96:111   */\n  mstore\n    /* \"#utility.yul\":130:134   */\n  0x24\n    /* \"#utility.yul\":127:128   */\n  0x00\n    /* \"#utility.yul\":120:135   */\n  revert\n    /* \"#utility.yul\":146:521   */\ntag_44:\n    /* \"#utility.yul\":234:235   */\n  0x01\n    /* \"#utility.yul\":252:257   */\n  dup2\n    /* \"#utility.yul\":266:515   */\ntag_54:\n    /* \"#utility.yul\":287:288   */\n  0x01\n    /* \"#utility.yul\":277:285   */\n  dup5\n    /* \"#utility.yul\":274:289   */\n  gt\n    /* \"#utility.yul\":266:515   */\n  iszero\n  tag_56\n  jumpi\n    /* \"#utility.yul\":337:341   */\n  dup1\n    /* \"#utility.yul\":332:335   */\n  dup6\n    /* \"#utility.yul\":328:342   */\n  div\n    /* \"#utility.yul\":322:326   */\n  dup2\n    /* \"#utility.yul\":319:343   */\n  gt\n    /* \"#utility.yul\":316:366   */\n  iszero\n  tag_58\n  jumpi\n    /* \"#utility.yul\":346:364   */\n  tag_58\n  tag_43\n  jump\t// in\ntag_58:\n    /* \"#utility.yul\":396:397   */\n  0x01\n    /* \"#utility.yul\":386:394   */\n  dup5\n    /* \"#utility.yul\":382:398   */\n  and\n    /* \"#utility.yul\":379:428   */\n  iszero\n  tag_59\n  jumpi\n    /* \"#utility.yul\":410:426   */\n  swap1\n  dup2\n  mul\n  swap1\n    /* \"#utility.yul\":379:428   */\ntag_59:\n    /* \"#utility.yul\":493:494   */\n  0x01\n    /* \"#utility.yul\":489:505   */\n  swap4\n  swap1\n  swap4\n  shr\n  swap3\n    /* \"#utility.yul\":449:464   */\n  dup1\n  mul\n    /* \"#utility.yul\":266:515   */\n  jump(tag_54)\ntag_56:\n    /* \"#utility.yul\":146:521   */\n  swap4\n  pop\n  swap4\n  swap2\n  pop\n  pop\n  jump\t// out\n    /* \"#utility.yul\":526:1428   */\ntag_45:\n    /* \"#utility.yul\":575:580   */\n  0x00\n    /* \"#utility.yul\":605:613   */\n  dup3\n    /* \"#utility.yul\":595:675   */\n  tag_61\n  jumpi\n  pop\n    /* \"#utility.yul\":646:647   */\n  0x01\n    /* \"#utility.yul\":660:665   */\n  jump(tag_60)\n    /* \"#utility.yul\":595:675   */\ntag_61:\n    /* \"#utility.yul\":694:698   */\n  dup2\n    /* \"#utility.yul\":684:760   */\n  tag_62\n  jumpi\n  pop\n    /* \"#utility.yul\":731:732   */\n  0x00\n    /* \"#utility.yul\":745:750   */\n  jump(tag_60)\n    /* \"#utility.yul\":684:760   */\ntag_62:\n    /* \"#utility.yul\":776:780   */\n  dup2\n    /* \"#utility.yul\":794:795   */\n  0x01\n    /* \"#utility.yul\":789:848   */\n  dup2\n  eq\n  tag_64\n  jumpi\n    /* \"#utility.yul\":862:863   */\n  0x02\n    /* \"#utility.yul\":857:1031   */\n  dup2\n  eq\n  tag_65\n  jumpi\n    /* \"#utility.yul\":769:1031   */\n  jump(tag_63)\n    /* \"#utility.yul\":789:848   */\ntag_64:\n    /* \"#utility.yul\":819:820   */\n  0x01\n    /* \"#utility.yul\":810:820   */\n  swap2\n  pop\n    /* \"#utility.yul\":833:838   */\n  pop\n  jump(tag_60)\n    /* \"#utility.yul\":857:1031   */\ntag_65:\n    /* \"#utility.yul\":894:897   */\n  0xff\n    /* \"#utility.yul\":884:892   */\n  dup5\n    /* \"#utility.yul\":881:898   */\n  gt\n    /* \"#utility.yul\":878:921   */\n  iszero\n  tag_67\n  jumpi\n    /* \"#utility.yul\":901:919   */\n  tag_67\n  tag_43\n  jump\t// in\ntag_67:\n  pop\n  pop\n    /* \"#utility.yul\":957:958   */\n  0x01\n    /* \"#utility.yul\":943:959   */\n  dup3\n  shl\n    /* \"#utility.yul\":1016:1021   */\n  jump(tag_60)\n    /* \"#utility.yul\":769:1031   */\ntag_63:\n  pop\n    /* \"#utility.yul\":1115:1117   */\n  0x20\n    /* \"#utility.yul\":1105:1113   */\n  dup4\n    /* \"#utility.yul\":1102:1118   */\n  lt\n    /* \"#utility.yul\":1096:1099   */\n  0x0133\n    /* \"#utility.yul\":1090:1094   */\n  dup4\n    /* \"#utility.yul\":1087:1100   */\n  lt\n    /* \"#utility.yul\":1083:1119   */\n  and\n    /* \"#utility.yul\":1077:1079   */\n  0x4e\n    /* \"#utility.yul\":1067:1075   */\n  dup5\n    /* \"#utility.yul\":1064:1080   */\n  lt\n    /* \"#utility.yul\":1059:1061   */\n  0x0b\n    /* \"#utility.yul\":1053:1057   */\n  dup5\n    /* \"#utility.yul\":1050:1062   */\n  lt\n    /* \"#utility.yul\":1046:1081   */\n  and\n    /* \"#utility.yul\":1043:1120   */\n  or\n    /* \"#utility.yul\":1040:1243   */\n  iszero\n  tag_68\n  jumpi\n  pop\n    /* \"#utility.yul\":1152:1171   */\n  dup2\n  dup2\n  exp\n    /* \"#utility.yul\":1228:1233   */\n  jump(tag_60)\n    /* \"#utility.yul\":1040:1243   */\ntag_68:\n    /* \"#utility.yul\":1275:1317   */\n  tag_69\n  not(0x00)\n    /* \"#utility.yul\":1300:1308   */\n  dup5\n    /* \"#utility.yul\":1294:1298   */\n  dup5\n    /* \"#utility.yul\":1275:1317   */\n  tag_44\n  jump\t// in\ntag_69:\n    /* \"#utility.yul\":1353:1359   */\n  dup1\n    /* \"#utility.yul\":1349:1350   */\n  0x00\n    /* \"#utility.yul\":1345:1351   */\n  not\n    /* \"#utility.yul\":1341:1360   */\n  div\n    /* \"#utility.yul\":1332:1339   */\n  dup3\n    /* \"#utility.yul\":1329:1361   */\n  gt\n    /* \"#utility.yul\":1326:1384   */\n  iszero\n  tag_71\n  jumpi\n    /* \"#utility.yul\":1364:1382   */\n  tag_71\n  tag_43\n  jump\t// in\ntag_71:\n    /* \"#utility.yul\":1402:1422   */\n  mul\n  swap1\n  pop\n    /* \"#utility.yul\":526:1428   */\ntag_60:\n  swap3\n  swap2\n  pop\n  pop\n  jump\t// out\n    /* \"#utility.yul\":1433:1564   */\ntag_2:\n    /* \"#utility.yul\":1493:1498   */\n  0x00\n    /* \"#utility.yul\":1522:1558   */\n  tag_73\n    /* \"#utility.yul\":1549:1557   */\n  dup4\n    /* \"#utility.yul\":1543:1547   */\n  dup4\n    /* \"#utility.yul\":1522:1558   */\n  tag_45\n  jump\t// in\ntag_73:\n    /* \"#utility.yul\":1513:1558   */\n  swap4\n    /* \"#utility.yul\":1433:1564   */\n  swap3\n  pop\n  pop\n  pop\n  jump\t// out\n    /* \"#utility.yul\":1569:1737   */\ntag_4:\n    /* \"#utility.yul\":1642:1651   */\n  dup1\n  dup3\n  mul\n    /* \"#utility.yul\":1673:1682   */\n  dup2\n  iszero\n    /* \"#utility.yul\":1690:1705   */\n  dup3\n  dup3\n  div\n    /* \"#utility.yul\":1684:1706   */\n  dup5\n  eq\n    /* \"#utility.yul\":1670:1707   */\n  or\n    /* \"#utility.yul\":1660:1731   */\n  tag_60\n  jumpi\n    /* \"#utility.yul\":1711:1729   */\n  tag_60\n  tag_43\n  jump\t// in\n    /* \"#utility.yul\":1742:1869   */\ntag_46:\n    /* \"#utility.yul\":1803:1813   */\n  0x4e487b71\n    /* \"#utility.yul\":1798:1801   */\n  0xe0\n    /* \"#utility.yul\":1794:1814   */\n  shl\n    /* \"#utility.yul\":1791:1792   */\n  0x00\n    /* \"#utility.yul\":1784:1815   */\n  mstore\n    /* \"#utility.yul\":1834:1838   */\n  0x41\n    /* \"#utility.yul\":1831:1832   */\n  0x04\n    /* \"#utility.yul\":1824:1839   */\n  mstore\n    /* \"#utility.yul\":1858:1862   */\n  0x24\n    /* \"#utility.yul\":1855:1856   */\n  0x00\n    /* \"#utility.yul\":1848:1863   */\n  revert\n    /* \"#utility.yul\":1874:2254   */\ntag_47:\n    /* \"#utility.yul\":1953:1954   */\n  0x01\n    /* \"#utility.yul\":1949:1961   */\n  dup2\n  dup2\n  shr\n  swap1\n    /* \"#utility.yul\":1996:2008   */\n  dup3\n  and\n  dup1\n    /* \"#utility.yul\":2017:2078   */\n  tag_79\n  jumpi\n    /* \"#utility.yul\":2071:2075   */\n  0x7f\n    /* \"#utility.yul\":2063:2069   */\n  dup3\n    /* \"#utility.yul\":2059:2076   */\n  and\n    /* \"#utility.yul\":2049:2076   */\n  swap2\n  pop\n    /* \"#utility.yul\":2017:2078   */\ntag_79:\n    /* \"#utility.yul\":2124:2126   */\n  0x20\n    /* \"#utility.yul\":2116:2122   */\n  dup3\n    /* \"#utility.yul\":2113:2127   */\n  lt\n    /* \"#utility.yul\":2093:2111   */\n  dup2\n    /* \"#utility.yul\":2090:2128   */\n  sub\n    /* \"#utility.yul\":2087:2248   */\n  tag_80\n  jumpi\n    /* \"#utility.yul\":2170:2180   */\n  0x4e487b71\n    /* \"#utility.yul\":2165:2168   */\n  0xe0\n    /* \"#utility.yul\":2161:2181   */\n  shl\n    /* \"#utility.yul\":2158:2159   */\n  0x00\n    /* \"#utility.yul\":2151:2182   */\n  mstore\n    /* \"#utility.yul\":2205:2209   */\n  0x22\n    /* \"#utility.yul\":2202:2203   */\n  0x04\n    /* \"#utility.yul\":2195:2210   */\n  mstore\n    /* \"#utility.yul\":2233:2237   */\n  0x24\n    /* \"#utility.yul\":2230:2231   */\n  0x00\n    /* \"#utility.yul\":2223:2238   */\n  revert\n    /* \"#utility.yul\":2087:2248   */\ntag_80:\n  pop\n    /* \"#utility.yul\":1874:2254   */\n  swap2\n  swap1\n  pop\n  jump\t// out\n    /* \"#utility.yul\":2385:2903   */\ntag_49:\n    /* \"#utility.yul\":2487:2489   */\n  0x1f\n    /* \"#utility.yul\":2482:2485   */\n  dup3\n    /* \"#utility.yul\":2479:2490   */\n  gt\n    /* \"#utility.yul\":2476:2897   */\n  iszero\n  tag_83\n  jumpi\n    /* \"#utility.yul\":2523:2528   */\n  dup1\n    /* \"#utility.yul\":2520:2521   */\n  0x00\n    /* \"#utility.yul\":2513:2529   */\n  mstore\n    /* \"#utility.yul\":2567:2571   */\n  0x20\n    /* \"#utility.yul\":2564:2565   */\n  0x00\n    /* \"#utility.yul\":2554:2572   */\n  keccak256\n    /* \"#utility.yul\":2637:2639   */\n  0x1f\n    /* \"#utility.yul\":2625:2635   */\n  dup5\n    /* \"#utility.yul\":2621:2640   */\n  add\n    /* \"#utility.yul\":2618:2619   */\n  0x05\n    /* \"#utility.yul\":2614:2641   */\n  shr\n    /* \"#utility.yul\":2608:2612   */\n  dup2\n    /* \"#utility.yul\":2604:2642   */\n  add\n    /* \"#utility.yul\":2673:2677   */\n  0x20\n    /* \"#utility.yul\":2661:2671   */\n  dup6\n    /* \"#utility.yul\":2658:2678   */\n  lt\n    /* \"#utility.yul\":2655:2702   */\n  iszero\n  tag_84\n  jumpi\n  pop\n    /* \"#utility.yul\":2696:2700   */\n  dup1\n    /* \"#utility.yul\":2655:2702   */\ntag_84:\n    /* \"#utility.yul\":2751:2753   */\n  0x1f\n    /* \"#utility.yul\":2746:2749   */\n  dup5\n    /* \"#utility.yul\":2742:2754   */\n  add\n    /* \"#utility.yul\":2739:2740   */\n  0x05\n    /* \"#utility.yul\":2735:2755   */\n  shr\n    /* \"#utility.yul\":2729:2733   */\n  dup3\n    /* \"#utility.yul\":2725:2756   */\n  add\n    /* \"#utility.yul\":2715:2756   */\n  swap2\n  pop\n    /* \"#utility.yul\":2806:2887   */\ntag_85:\n    /* \"#utility.yul\":2824:2826   */\n  dup2\n    /* \"#utility.yul\":2817:2822   */\n  dup2\n    /* \"#utility.yul\":2814:2827   */\n  lt\n    /* \"#utility.yul\":2806:2887   */\n  iszero\n  tag_87\n  jumpi\n    /* \"#utility.yul\":2883:2884   */\n  0x00\n    /* \"#utility.yul\":2869:2885   */\n  dup2\n  sstore\n    /* \"#utility.yul\":2850:2851   */\n  0x01\n    /* \"#utility.yul\":2839:2852   */\n  add\n    /* \"#utility.yul\":2806:2887   */\n  jump(tag_85)\ntag_87:\n    /* \"#utility.yul\":2810:2813   */\n  pop\n  pop\n    /* \"#utility.yul\":2476:2897   */\ntag_83:\n    /* \"#utility.yul\":2385:2903   */\n  pop\n  pop\n  pop\n  jump\t// out\n    /* \"#utility.yul\":3079:4378   */\ntag_10:\n    /* \"#utility.yul\":3199:3209   */\n  dup2\n  mload\n  sub(shl(0x40, 0x01), 0x01)\n    /* \"#utility.yul\":3221:3251   */\n  dup2\n  gt\n    /* \"#utility.yul\":3218:3274   */\n  iszero\n  tag_91\n  jumpi\n    /* \"#utility.yul\":3254:3272   */\n  tag_91\n  tag_46\n  jump\t// in\ntag_91:\n    /* \"#utility.yul\":3283:3380   */\n  tag_92\n    /* \"#utility.yul\":3373:3379   */\n  dup2\n    /* \"#utility.yul\":3333:3371   */\n  tag_93\n    /* \"#utility.yul\":3365:3369   */\n  dup5\n    /* \"#utility.yul\":3359:3370   */\n  sload\n    /* \"#utility.yul\":3333:3371   */\n  tag_47\n  jump\t// in\ntag_93:\n    /* \"#utility.yul\":3327:3331   */\n  dup5\n    /* \"#utility.yul\":3283:3380   */\n  tag_49\n  jump\t// in\ntag_92:\n    /* \"#utility.yul\":3429:3433   */\n  0x20\n    /* \"#utility.yul\":3460:3462   */\n  0x1f\n    /* \"#utility.yul\":3449:3463   */\n  dup3\n  gt\n    /* \"#utility.yul\":3477:3478   */\n  0x01\n    /* \"#utility.yul\":3472:4121   */\n  dup2\n  eq\n  tag_95\n  jumpi\n    /* \"#utility.yul\":4165:4166   */\n  0x00\n    /* \"#utility.yul\":4182:4188   */\n  dup4\n    /* \"#utility.yul\":4179:4268   */\n  iszero\n  tag_96\n  jumpi\n  pop\n    /* \"#utility.yul\":4234:4253   */\n  dup5\n  dup3\n  add\n    /* \"#utility.yul\":4228:4254   */\n  mload\n    /* \"#utility.yul\":4179:4268   */\ntag_96:\n  not(0x00)\n    /* \"#utility.yul\":3036:3037   */\n  0x03\n    /* \"#utility.yul\":3032:3043   */\n  dup6\n  swap1\n  shl\n    /* \"#utility.yul\":3028:3052   */\n  shr\n    /* \"#utility.yul\":3024:3053   */\n  not\n    /* \"#utility.yul\":3014:3054   */\n  and\n    /* \"#utility.yul\":3060:3061   */\n  0x01\n    /* \"#utility.yul\":3056:3067   */\n  dup5\n  swap1\n  shl\n    /* \"#utility.yul\":3011:3068   */\n  or\n    /* \"#utility.yul\":4281:4362   */\n  dup5\n  sstore\n    /* \"#utility.yul\":3442:4372   */\n  jump(tag_87)\n    /* \"#utility.yul\":3472:4121   */\ntag_95:\n    /* \"#utility.yul\":2332:2333   */\n  0x00\n    /* \"#utility.yul\":2325:2339   */\n  dup5\n  dup2\n  mstore\n    /* \"#utility.yul\":2369:2373   */\n  0x20\n    /* \"#utility.yul\":2356:2374   */\n  dup2\n  keccak256\n  not(0x1f)\n    /* \"#utility.yul\":3508:3528   */\n  dup6\n  and\n  swap2\n    /* \"#utility.yul\":3626:3848   */\ntag_99:\n    /* \"#utility.yul\":3640:3647   */\n  dup3\n    /* \"#utility.yul\":3637:3638   */\n  dup2\n    /* \"#utility.yul\":3634:3648   */\n  lt\n    /* \"#utility.yul\":3626:3848   */\n  iszero\n  tag_101\n  jumpi\n    /* \"#utility.yul\":3722:3741   */\n  dup8\n  dup6\n  add\n    /* \"#utility.yul\":3716:3742   */\n  mload\n    /* \"#utility.yul\":3701:3743   */\n  dup3\n  sstore\n    /* \"#utility.yul\":3829:3833   */\n  0x20\n    /* \"#utility.yul\":3814:3834   */\n  swap5\n  dup6\n  add\n  swap5\n    /* \"#utility.yul\":3782:3783   */\n  0x01\n    /* \"#utility.yul\":3770:3784   */\n  swap1\n  swap3\n  add\n  swap2\n    /* \"#utility.yul\":3656:3668   */\n  add\n    /* \"#utility.yul\":3626:3848   */\n  jump(tag_99)\ntag_101:\n    /* \"#utility.yul\":3630:3633   */\n  pop\n    /* \"#utility.yul\":3876:3882   */\n  dup5\n    /* \"#utility.yul\":3867:3874   */\n  dup3\n    /* \"#utility.yul\":3864:3883   */\n  lt\n    /* \"#utility.yul\":3861:4062   */\n  iszero\n  tag_102\n  jumpi\n    /* \"#utility.yul\":3937:3956   */\n  dup7\n  dup5\n  add\n    /* \"#utility.yul\":3931:3957   */\n  mload\n  not(0x00)\n    /* \"#utility.yul\":4020:4021   */\n  0x03\n    /* \"#utility.yul\":4016:4030   */\n  dup8\n  swap1\n  shl\n    /* \"#utility.yul\":4032:4035   */\n  0xf8\n    /* \"#utility.yul\":4012:4036   */\n  and\n    /* \"#utility.yul\":4008:4045   */\n  shr\n    /* \"#utility.yul\":4004:4046   */\n  not\n    /* \"#utility.yul\":3989:4047   */\n  and\n    /* \"#utility.yul\":3974:4048   */\n  dup2\n  sstore\n    /* \"#utility.yul\":3861:4062   */\ntag_102:\n  pop\n  pop\n  pop\n  pop\n    /* \"#utility.yul\":4108:4109   */\n  0x01\n    /* \"#utility.yul\":4092:4106   */\n  swap1\n  dup2\n  shl\n    /* \"#utility.yul\":4088:4110   */\n  add\n    /* \"#utility.yul\":4075:4111   */\n  swap1\n  sstore\n  pop\n    /* \"#utility.yul\":3079:4378   */\n  jump\t// out\n    /* \"#utility.yul\":4383:4592   */\ntag_16:\n    /* \"#utility.yul\":4415:4416   */\n  0x00\n    /* \"#utility.yul\":4441:4442   */\n  dup3\n    /* \"#utility.yul\":4431:4563   */\n  tag_104\n  jumpi\n    /* \"#utility.yul\":4485:4495   */\n  0x4e487b71\n    /* \"#utility.yul\":4480:4483   */\n  0xe0\n    /* \"#utility.yul\":4476:4496   */\n  shl\n    /* \"#utility.yul\":4473:4474   */\n  0x00\n    /* \"#utility.yul\":4466:4497   */\n  mstore\n    /* \"#utility.yul\":4520:4524   */\n  0x12\n    /* \"#utility.yul\":4517:4518   */\n  0x04\n    /* \"#utility.yul\":4510:4525   */\n  mstore\n    /* \"#utility.yul\":4548:4552   */\n  0x24\n    /* \"#utility.yul\":4545:4546   */\n  0x00\n    /* \"#utility.yul\":4538:4553   */\n  revert\n    /* \"#utility.yul\":4431:4563   */\ntag_104:\n  pop\n    /* \"#utility.yul\":4577:4586   */\n  mod\n  swap1\n    /* \"#utility.yul\":4383:4592   */\n  jump\t// out\n    /* \"#utility.yul\":4597:4725   */\ntag_18:\n    /* \"#utility.yul\":4664:4673   */\n  dup2\n  dup2\n  sub\n    /* \"#utility.yul\":4685:4696   */\n  dup2\n  dup2\n  gt\n    /* \"#utility.yul\":4682:4719   */\n  iszero\n  tag_60\n  jumpi\n    /* \"#utility.yul\":4699:4717   */\n  tag_60\n  tag_43\n  jump\t// in\n    /* \"#utility.yul\":4938:5063   */\ntag_34:\n    /* \"#utility.yul\":5003:5012   */\n  dup1\n  dup3\n  add\n    /* \"#utility.yul\":5024:5034   */\n  dup1\n  dup3\n  gt\n    /* \"#utility.yul\":5021:5057   */\n  iszero\n  tag_60\n  jumpi\n    /* \"#utility.yul\":5037:5055   */\n  tag_60\n  tag_43\n  jump\t// in\n    /* \"#utility.yul\":5418:5595   */\ntag_51:\n    /* \"CYBCC.sol\":128:13554  contract CYBCC is ERC20 {... */\n  dataSize(sub_0)\n  dup1\n  dataOffset(sub_0)\n  0x00\n  codecopy\n  0x00\n  return\nstop\n\nsub_0: assembly {\n        /* \"CYBCC.sol\":128:13554  contract CYBCC is ERC20 {... */\n      mstore(0x40, 0x80)\n      jumpi(tag_1, lt(calldatasize, 0x04))\n      shr(0xe0, calldataload(0x00))\n      dup1\n      0x838fcc90\n      gt\n      tag_33\n      jumpi\n      dup1\n      0xc4863770\n      gt\n      tag_34\n      jumpi\n      dup1\n      0xdd62ed3e\n      gt\n      tag_35\n      jumpi\n      dup1\n      0xdd62ed3e\n      eq\n      tag_29\n      jumpi\n      dup1\n      0xf66608fe\n      eq\n      tag_30\n      jumpi\n      dup1\n      0xfdeb889f\n      eq\n      tag_31\n      jumpi\n      dup1\n      0xffb54a99\n      eq\n      tag_32\n      jumpi\n      revert(0x00, 0x00)\n    tag_35:\n      dup1\n      0xc4863770\n      eq\n      tag_25\n      jumpi\n      dup1\n      0xc9567bf9\n      eq\n      tag_26\n      jumpi\n      dup1\n      0xcba0e996\n      eq\n      tag_27\n      jumpi\n      dup1\n      0xd00efb2f\n      eq\n      tag_28\n      jumpi\n      revert(0x00, 0x00)\n    tag_34:\n      dup1\n      0x8da5cb5b\n      gt\n      tag_36\n      jumpi\n      dup1\n      0x8da5cb5b\n      eq\n      tag_21\n      jumpi\n      dup1\n      0x95d89b41\n      eq\n      tag_22\n      jumpi\n      dup1\n      0xa8b08982\n      eq\n      tag_23\n      jumpi\n      dup1\n      0xa9059cbb\n      eq\n      tag_24\n      jumpi\n      revert(0x00, 0x00)\n    tag_36:\n      dup1\n      0x838fcc90\n      eq\n      tag_18\n      jumpi\n      dup1\n      0x83ad7994\n      eq\n      tag_19\n      jumpi\n      dup1\n      0x8873b15f\n      eq\n      tag_20\n      jumpi\n      revert(0x00, 0x00)\n    tag_33:\n      dup1\n      0x32035504\n      gt\n      tag_37\n      jumpi\n      dup1\n      0x5342acb4\n      gt\n      tag_38\n      jumpi\n      dup1\n      0x5342acb4\n      eq\n      tag_14\n      jumpi\n      dup1\n      0x6049876e\n      eq\n      tag_15\n      jumpi\n      dup1\n      0x706407fd\n      eq\n      tag_16\n      jumpi\n      dup1\n      0x70a08231\n      eq\n      tag_17\n      jumpi\n      revert(0x00, 0x00)\n    tag_38:\n      dup1\n      0x32035504\n      eq\n      tag_10\n      jumpi\n      dup1\n      0x3af32abf\n      eq\n      tag_11\n      jumpi\n      dup1\n      0x437823ec\n      eq\n      tag_12\n      jumpi\n      dup1\n      0x4549b039\n      eq\n      tag_13\n      jumpi\n      revert(0x00, 0x00)\n    tag_37:\n      dup1\n      0x18160ddd\n      gt\n      tag_39\n      jumpi\n      dup1\n      0x18160ddd\n      eq\n      tag_6\n      jumpi\n      dup1\n      0x1cf8fef5\n      eq\n      tag_7\n      jumpi\n      dup1\n      0x23b872dd\n      eq\n      tag_8\n      jumpi\n      dup1\n      0x313ce567\n      eq\n      tag_9\n      jumpi\n      revert(0x00, 0x00)\n    tag_39:\n      dup1\n      0x053ab182\n      eq\n      tag_3\n      jumpi\n      dup1\n      0x06fdde03\n      eq\n      tag_4\n      jumpi\n      dup1\n      0x095ea7b3\n      eq\n      tag_5\n      jumpi\n      revert(0x00, 0x00)\n    tag_1:\n      jumpi(tag_2, calldatasize)\n      stop\n    tag_2:\n      revert(0x00, 0x00)\n        /* \"CYBCC.sol\":3929:4333  function reflect(uint256 tAmount) public {... */\n    tag_3:\n      callvalue\n      dup1\n      iszero\n      tag_42\n      jumpi\n      revert(0x00, 0x00)\n    tag_42:\n      pop\n      tag_43\n      tag_44\n      calldatasize\n      0x04\n      tag_45\n      jump\t// in\n    tag_44:\n      tag_46\n      jump\t// in\n    tag_43:\n      stop\n        /* \"@openzeppelin/contracts/token/ERC20/ERC20.sol\":1760:1849  function name() public view virtual returns (string memory) {... */\n    tag_4:\n      callvalue\n      dup1\n      iszero\n      tag_47\n      jumpi\n      revert(0x00, 0x00)\n    tag_47:\n      pop\n      tag_48\n      tag_49\n      jump\t// in\n    tag_48:\n      mload(0x40)\n      tag_50\n      swap2\n      swap1\n      tag_51\n      jump\t// in\n    tag_50:\n      mload(0x40)\n      dup1\n      swap2\n      sub\n      swap1\n      return\n        /* \"@openzeppelin/contracts/token/ERC20/ERC20.sol\":3979:4165  function approve(address spender, uint256 value) public virtual returns (bool) {... */\n    tag_5:\n      callvalue\n      dup1\n      iszero\n      tag_52\n      jumpi\n      revert(0x00, 0x00)\n    tag_52:\n      pop\n      tag_53\n      tag_54\n      calldatasize\n      0x04\n      tag_55\n      jump\t// in\n    tag_54:\n      tag_56\n      jump\t// in\n    tag_53:\n      mload(0x40)\n        /* \"#utility.yul\":1316:1330   */\n      swap1\n      iszero\n        /* \"#utility.yul\":1309:1331   */\n      iszero\n        /* \"#utility.yul\":1291:1332   */\n      dup2\n      mstore\n        /* \"#utility.yul\":1279:1281   */\n      0x20\n        /* \"#utility.yul\":1264:1282   */\n      add\n        /* \"@openzeppelin/contracts/token/ERC20/ERC20.sol\":3979:4165  function approve(address spender, uint256 value) public virtual returns (bool) {... */\n      tag_50\n        /* \"#utility.yul\":1151:1338   */\n      jump\n        /* \"CYBCC.sol\":2062:2163  function totalSupply() public view virtual override returns (uint256) {... */\n    tag_6:\n      callvalue\n      dup1\n      iszero\n      tag_59\n      jumpi\n      revert(0x00, 0x00)\n    tag_59:\n      pop\n        /* \"CYBCC.sol\":2149:2156  _tTotal */\n      sload(0x0c)\n        /* \"CYBCC.sol\":2062:2163  function totalSupply() public view virtual override returns (uint256) {... */\n    tag_60:\n      mload(0x40)\n        /* \"#utility.yul\":1489:1514   */\n      swap1\n      dup2\n      mstore\n        /* \"#utility.yul\":1477:1479   */\n      0x20\n        /* \"#utility.yul\":1462:1480   */\n      add\n        /* \"CYBCC.sol\":2062:2163  function totalSupply() public view virtual override returns (uint256) {... */\n      tag_50\n        /* \"#utility.yul\":1343:1520   */\n      jump\n        /* \"CYBCC.sol\":2464:2570  function getDevelopmentAccount() public view returns (address) {... */\n    tag_7:\n      callvalue\n      dup1\n      iszero\n      tag_64\n      jumpi\n      revert(0x00, 0x00)\n    tag_64:\n      pop\n        /* \"CYBCC.sol\":2544:2563  _developmentAccount */\n      and(sub(shl(0xa0, 0x01), 0x01), sload(0x14))\n        /* \"CYBCC.sol\":2464:2570  function getDevelopmentAccount() public view returns (address) {... */\n    tag_65:\n      mload(0x40)\n      sub(shl(0xa0, 0x01), 0x01)\n        /* \"#utility.yul\":1689:1721   */\n      swap1\n      swap2\n      and\n        /* \"#utility.yul\":1671:1722   */\n      dup2\n      mstore\n        /* \"#utility.yul\":1659:1661   */\n      0x20\n        /* \"#utility.yul\":1644:1662   */\n      add\n        /* \"CYBCC.sol\":2464:2570  function getDevelopmentAccount() public view returns (address) {... */\n      tag_50\n        /* \"#utility.yul\":1525:1728   */\n      jump\n        /* \"@openzeppelin/contracts/token/ERC20/ERC20.sol\":4757:5001  function transferFrom(address from, address to, uint256 value) public virtual returns (bool) {... */\n    tag_8:\n      callvalue\n      dup1\n      iszero\n      tag_69\n      jumpi\n      revert(0x00, 0x00)\n    tag_69:\n      pop\n      tag_53\n      tag_71\n      calldatasize\n      0x04\n      tag_72\n      jump\t// in\n    tag_71:\n      tag_73\n      jump\t// in\n        /* \"CYBCC.sol\":1958:2056  function decimals() public view virtual override returns (uint8) {... */\n    tag_9:\n      callvalue\n      dup1\n      iszero\n      tag_75\n      jumpi\n      revert(0x00, 0x00)\n    tag_75:\n      pop\n        /* \"CYBCC.sol\":2040:2049  _decimals */\n      sload(0x0b)\n        /* \"CYBCC.sol\":1958:2056  function decimals() public view virtual override returns (uint8) {... */\n      mload(0x40)\n        /* \"CYBCC.sol\":2040:2049  _decimals */\n      0xff\n      swap1\n      swap2\n      and\n        /* \"#utility.yul\":2254:2290   */\n      dup2\n      mstore\n        /* \"#utility.yul\":2242:2244   */\n      0x20\n        /* \"#utility.yul\":2227:2245   */\n      add\n        /* \"CYBCC.sol\":1958:2056  function decimals() public view virtual override returns (uint8) {... */\n      tag_50\n        /* \"#utility.yul\":2112:2296   */\n      jump\n        /* \"CYBCC.sol\":3091:3189  function totalFeesRedistributed() public view returns (uint256) {... */\n    tag_10:\n      callvalue\n      dup1\n      iszero\n      tag_80\n      jumpi\n      revert(0x00, 0x00)\n    tag_80:\n      pop\n        /* \"CYBCC.sol\":3172:3182  _tFeeTotal */\n      sload(0x0e)\n        /* \"CYBCC.sol\":3091:3189  function totalFeesRedistributed() public view returns (uint256) {... */\n      jump(tag_60)\n        /* \"CYBCC.sol\":313:358  mapping(address => bool) public isWhitelisted */\n    tag_11:\n      callvalue\n      dup1\n      iszero\n      tag_84\n      jumpi\n      revert(0x00, 0x00)\n    tag_84:\n      pop\n      tag_53\n      tag_86\n      calldatasize\n      0x04\n      tag_87\n      jump\t// in\n    tag_86:\n      mstore(0x20, 0x08)\n      0x00\n      swap1\n      dup2\n      mstore\n      0x40\n      swap1\n      keccak256\n      sload\n      0xff\n      and\n      dup2\n      jump\n        /* \"CYBCC.sol\":3195:3304  function excludeFromFee(address account) public onlyOwner {... */\n    tag_12:\n      callvalue\n      dup1\n      iszero\n      tag_90\n      jumpi\n      revert(0x00, 0x00)\n    tag_90:\n      pop\n      tag_43\n      tag_92\n      calldatasize\n      0x04\n      tag_87\n      jump\t// in\n    tag_92:\n      tag_93\n      jump\t// in\n        /* \"CYBCC.sol\":4339:4813  function reflectionFromToken(uint256 tAmount, bool deductTransferFee)... */\n    tag_13:\n      callvalue\n      dup1\n      iszero\n      tag_94\n      jumpi\n      revert(0x00, 0x00)\n    tag_94:\n      pop\n      tag_60\n      tag_96\n      calldatasize\n      0x04\n      tag_97\n      jump\t// in\n    tag_96:\n      tag_98\n      jump\t// in\n        /* \"CYBCC.sol\":2576:2698  function isExcludedFromFee(address account) public view returns (bool) {... */\n    tag_14:\n      callvalue\n      dup1\n      iszero\n      tag_100\n      jumpi\n      revert(0x00, 0x00)\n    tag_100:\n      pop\n      tag_53\n      tag_102\n      calldatasize\n      0x04\n      tag_87\n      jump\t// in\n    tag_102:\n      sub(shl(0xa0, 0x01), 0x01)\n        /* \"CYBCC.sol\":2664:2691  _isExcludedFromFee[account] */\n      and\n        /* \"CYBCC.sol\":2641:2645  bool */\n      0x00\n        /* \"CYBCC.sol\":2664:2691  _isExcludedFromFee[account] */\n      swap1\n      dup2\n      mstore\n        /* \"CYBCC.sol\":2664:2682  _isExcludedFromFee */\n      0x07\n        /* \"CYBCC.sol\":2664:2691  _isExcludedFromFee[account] */\n      0x20\n      mstore\n      0x40\n      swap1\n      keccak256\n      sload\n      0xff\n      and\n      swap1\n        /* \"CYBCC.sol\":2576:2698  function isExcludedFromFee(address account) public view returns (bool) {... */\n      jump\n        /* \"CYBCC.sol\":5134:5466  function excludeAccountFromReward(address account) public onlyOwner {... */\n    tag_15:\n      callvalue\n      dup1\n      iszero\n      tag_105\n      jumpi\n      revert(0x00, 0x00)\n    tag_105:\n      pop\n      tag_43\n      tag_107\n      calldatasize\n      0x04\n      tag_87\n      jump\t// in\n    tag_107:\n      tag_108\n      jump\t// in\n        /* \"CYBCC.sol\":3560:3808  function changeDevelopmentAccount(address newFeeAccount) public onlyOwner {... */\n    tag_16:\n      callvalue\n      dup1\n      iszero\n      tag_109\n      jumpi\n      revert(0x00, 0x00)\n    tag_109:\n      pop\n      tag_43\n      tag_111\n      calldatasize\n      0x04\n      tag_87\n      jump\t// in\n    tag_111:\n      tag_112\n      jump\t// in\n        /* \"CYBCC.sol\":2704:2971  function balanceOf(address sender)... */\n    tag_17:\n      callvalue\n      dup1\n      iszero\n      tag_113\n      jumpi\n      revert(0x00, 0x00)\n    tag_113:\n      pop\n      tag_60\n      tag_115\n      calldatasize\n      0x04\n      tag_87\n      jump\t// in\n    tag_115:\n      tag_116\n      jump\t// in\n        /* \"CYBCC.sol\":2356:2458  function getMarketingAccount() public view returns (address) {... */\n    tag_18:\n      callvalue\n      dup1\n      iszero\n      tag_118\n      jumpi\n      revert(0x00, 0x00)\n    tag_118:\n      pop\n        /* \"CYBCC.sol\":2434:2451  _marketingAccount */\n      and(sub(shl(0xa0, 0x01), 0x01), sload(0x13))\n        /* \"CYBCC.sol\":2356:2458  function getMarketingAccount() public view returns (address) {... */\n      jump(tag_65)\n        /* \"CYBCC.sol\":2169:2262  function reflectionFee() public view returns (uint256) {... */\n    tag_19:\n      callvalue\n      dup1\n      iszero\n      tag_122\n      jumpi\n      revert(0x00, 0x00)\n    tag_122:\n      pop\n        /* \"CYBCC.sol\":2241:2255  _reflectionFee */\n      sload(0x0f)\n        /* \"CYBCC.sol\":2169:2262  function reflectionFee() public view returns (uint256) {... */\n      jump(tag_60)\n        /* \"CYBCC.sol\":3814:3923  function changePairAddress(address _pairAddress) public onlyOwner {... */\n    tag_20:\n      callvalue\n      dup1\n      iszero\n      tag_126\n      jumpi\n      revert(0x00, 0x00)\n    tag_126:\n      pop\n      tag_43\n      tag_128\n      calldatasize\n      0x04\n      tag_87\n      jump\t// in\n    tag_128:\n      tag_129\n      jump\t// in\n        /* \"CYBCC.sol\":1795:1880  function owner() public view virtual returns (address) {... */\n    tag_21:\n      callvalue\n      dup1\n      iszero\n      tag_130\n      jumpi\n      revert(0x00, 0x00)\n    tag_130:\n      pop\n        /* \"CYBCC.sol\":1867:1873  _owner */\n      sload(0x0b)\n      0x0100\n      swap1\n      div\n      sub(shl(0xa0, 0x01), 0x01)\n      and\n        /* \"CYBCC.sol\":1795:1880  function owner() public view virtual returns (address) {... */\n      jump(tag_65)\n        /* \"@openzeppelin/contracts/token/ERC20/ERC20.sol\":1962:2055  function symbol() public view virtual returns (string memory) {... */\n    tag_22:\n      callvalue\n      dup1\n      iszero\n      tag_134\n      jumpi\n      revert(0x00, 0x00)\n    tag_134:\n      pop\n      tag_48\n      tag_136\n      jump\t// in\n        /* \"CYBCC.sol\":891:917  address public pairAddress */\n    tag_23:\n      callvalue\n      dup1\n      iszero\n      tag_138\n      jumpi\n      revert(0x00, 0x00)\n    tag_138:\n      pop\n      sload(0x15)\n      tag_65\n      swap1\n      sub(shl(0xa0, 0x01), 0x01)\n      and\n      dup2\n      jump\n        /* \"@openzeppelin/contracts/token/ERC20/ERC20.sol\":3296:3474  function transfer(address to, uint256 value) public virtual returns (bool) {... */\n    tag_24:\n      callvalue\n      dup1\n      iszero\n      tag_142\n      jumpi\n      revert(0x00, 0x00)\n    tag_142:\n      pop\n      tag_53\n      tag_144\n      calldatasize\n      0x04\n      tag_55\n      jump\t// in\n    tag_144:\n      tag_145\n      jump\t// in\n        /* \"CYBCC.sol\":3310:3554  function changeMarketingAccount(address newFeeAccount) public onlyOwner {... */\n    tag_25:\n      callvalue\n      dup1\n      iszero\n      tag_147\n      jumpi\n      revert(0x00, 0x00)\n    tag_147:\n      pop\n      tag_43\n      tag_149\n      calldatasize\n      0x04\n      tag_87\n      jump\t// in\n    tag_149:\n      tag_150\n      jump\t// in\n        /* \"CYBCC.sol\":5949:6062  function openTrading() external onlyOwner {... */\n    tag_26:\n      callvalue\n      dup1\n      iszero\n      tag_151\n      jumpi\n      revert(0x00, 0x00)\n    tag_151:\n      pop\n      tag_43\n      tag_153\n      jump\t// in\n        /* \"CYBCC.sol\":2977:3085  function isExcluded(address account) public view returns (bool) {... */\n    tag_27:\n      callvalue\n      dup1\n      iszero\n      tag_154\n      jumpi\n      revert(0x00, 0x00)\n    tag_154:\n      pop\n      tag_53\n      tag_156\n      calldatasize\n      0x04\n      tag_87\n      jump\t// in\n    tag_156:\n      sub(shl(0xa0, 0x01), 0x01)\n        /* \"CYBCC.sol\":3058:3078  _isExcluded[account] */\n      and\n        /* \"CYBCC.sol\":3035:3039  bool */\n      0x00\n        /* \"CYBCC.sol\":3058:3078  _isExcluded[account] */\n      swap1\n      dup2\n      mstore\n        /* \"CYBCC.sol\":3058:3069  _isExcluded */\n      0x09\n        /* \"CYBCC.sol\":3058:3078  _isExcluded[account] */\n      0x20\n      mstore\n      0x40\n      swap1\n      keccak256\n      sload\n      0xff\n      and\n      swap1\n        /* \"CYBCC.sol\":2977:3085  function isExcluded(address account) public view returns (bool) {... */\n      jump\n        /* \"CYBCC.sol\":998:1024  uint256 public launchBlock */\n    tag_28:\n      callvalue\n      dup1\n      iszero\n      tag_159\n      jumpi\n      revert(0x00, 0x00)\n    tag_159:\n      pop\n      tag_60\n      sload(0x17)\n      dup2\n      jump\n        /* \"@openzeppelin/contracts/token/ERC20/ERC20.sol\":3532:3672  function allowance(address owner, address spender) public view virtual returns (uint256) {... */\n    tag_29:\n      callvalue\n      dup1\n      iszero\n      tag_163\n      jumpi\n      revert(0x00, 0x00)\n    tag_163:\n      pop\n      tag_60\n      tag_165\n      calldatasize\n      0x04\n      tag_166\n      jump\t// in\n    tag_165:\n      sub(shl(0xa0, 0x01), 0x01)\n        /* \"@openzeppelin/contracts/token/ERC20/ERC20.sol\":3638:3656  _allowances[owner] */\n      swap2\n      dup3\n      and\n        /* \"@openzeppelin/contracts/token/ERC20/ERC20.sol\":3612:3619  uint256 */\n      0x00\n        /* \"@openzeppelin/contracts/token/ERC20/ERC20.sol\":3638:3656  _allowances[owner] */\n      swap1\n      dup2\n      mstore\n        /* \"@openzeppelin/contracts/token/ERC20/ERC20.sol\":3638:3649  _allowances */\n      0x01\n        /* \"@openzeppelin/contracts/token/ERC20/ERC20.sol\":3638:3656  _allowances[owner] */\n      0x20\n      swap1\n      dup2\n      mstore\n      0x40\n      dup1\n      dup4\n      keccak256\n        /* \"@openzeppelin/contracts/token/ERC20/ERC20.sol\":3638:3665  _allowances[owner][spender] */\n      swap4\n      swap1\n      swap5\n      and\n      dup3\n      mstore\n      swap2\n      swap1\n      swap2\n      mstore\n      keccak256\n      sload\n      swap1\n        /* \"@openzeppelin/contracts/token/ERC20/ERC20.sol\":3532:3672  function allowance(address owner, address spender) public view virtual returns (uint256) {... */\n      jump\n        /* \"CYBCC.sol\":2268:2350  function getTaxFee() public view returns (uint256) {... */\n    tag_30:\n      callvalue\n      dup1\n      iszero\n      tag_169\n      jumpi\n      revert(0x00, 0x00)\n    tag_169:\n      pop\n        /* \"CYBCC.sol\":2336:2343  _taxFee */\n      sload(0x11)\n        /* \"CYBCC.sol\":2268:2350  function getTaxFee() public view returns (uint256) {... */\n      jump(tag_60)\n        /* \"CYBCC.sol\":5472:5943  function includeAccountinReward(address account) public onlyOwner {... */\n    tag_31:\n      callvalue\n      dup1\n      iszero\n      tag_173\n      jumpi\n      revert(0x00, 0x00)\n    tag_173:\n      pop\n      tag_43\n      tag_175\n      calldatasize\n      0x04\n      tag_87\n      jump\t// in\n    tag_175:\n      tag_176\n      jump\t// in\n        /* \"CYBCC.sol\":1030:1061  bool public tradingOpen = false */\n    tag_32:\n      callvalue\n      dup1\n      iszero\n      tag_177\n      jumpi\n      revert(0x00, 0x00)\n    tag_177:\n      pop\n      sload(0x18)\n      tag_53\n      swap1\n      0xff\n      and\n      dup2\n      jump\n        /* \"CYBCC.sol\":3929:4333  function reflect(uint256 tAmount) public {... */\n    tag_46:\n        /* \"@openzeppelin/contracts/utils/Context.sol\":735:745  msg.sender */\n      caller\n        /* \"CYBCC.sol\":3980:3994  address sender */\n      0x00\n        /* \"CYBCC.sol\":4041:4060  _isExcluded[sender] */\n      dup2\n      dup2\n      mstore\n        /* \"CYBCC.sol\":4041:4052  _isExcluded */\n      0x09\n        /* \"CYBCC.sol\":4041:4060  _isExcluded[sender] */\n      0x20\n      mstore\n      0x40\n      swap1\n      keccak256\n      sload\n      0xff\n      and\n        /* \"CYBCC.sol\":4040:4060  !_isExcluded[sender] */\n      iszero\n        /* \"CYBCC.sol\":4019:4130  require(... */\n      tag_184\n      jumpi\n      mload(0x40)\n      shl(0xe5, 0x461bcd)\n      dup2\n      mstore\n        /* \"#utility.yul\":3359:3361   */\n      0x20\n        /* \"CYBCC.sol\":4019:4130  require(... */\n      0x04\n      dup3\n      add\n        /* \"#utility.yul\":3341:3362   */\n      mstore\n        /* \"#utility.yul\":3398:3400   */\n      0x2c\n        /* \"#utility.yul\":3378:3396   */\n      0x24\n      dup3\n      add\n        /* \"#utility.yul\":3371:3401   */\n      mstore\n        /* \"#utility.yul\":3437:3471   */\n      0x4578636c75646564206164647265737365732063616e6e6f742063616c6c2074\n        /* \"#utility.yul\":3417:3435   */\n      0x44\n      dup3\n      add\n        /* \"#utility.yul\":3410:3472   */\n      mstore\n      shl(0xa1, 0x3434b990333ab731ba34b7b7)\n        /* \"#utility.yul\":3488:3506   */\n      0x64\n      dup3\n      add\n        /* \"#utility.yul\":3481:3523   */\n      mstore\n        /* \"#utility.yul\":3540:3559   */\n      0x84\n      add\n        /* \"CYBCC.sol\":4019:4130  require(... */\n    tag_185:\n      mload(0x40)\n      dup1\n      swap2\n      sub\n      swap1\n      revert\n    tag_184:\n        /* \"CYBCC.sol\":4141:4156  uint256 rAmount */\n      0x00\n        /* \"CYBCC.sol\":4166:4193  _getTransferValues(tAmount) */\n      tag_187\n        /* \"CYBCC.sol\":4185:4192  tAmount */\n      dup4\n        /* \"CYBCC.sol\":4166:4184  _getTransferValues */\n      tag_188\n        /* \"CYBCC.sol\":4166:4193  _getTransferValues(tAmount) */\n      jump\t// in\n    tag_187:\n      pop\n      pop\n      pop\n      sub(shl(0xa0, 0x01), 0x01)\n        /* \"CYBCC.sol\":4221:4236  _rOwned[sender] */\n      dup4\n      and\n      0x00\n      swap1\n      dup2\n      mstore\n        /* \"CYBCC.sol\":4221:4228  _rOwned */\n      0x05\n        /* \"CYBCC.sol\":4221:4236  _rOwned[sender] */\n      0x20\n      mstore\n      0x40\n      swap1\n      keccak256\n      sload\n        /* \"CYBCC.sol\":4140:4193  (uint256 rAmount, , , ) = _getTransferValues(tAmount) */\n      swap1\n      swap2\n      pop\n        /* \"CYBCC.sol\":4221:4246  _rOwned[sender] - rAmount */\n      tag_189\n      swap1\n        /* \"CYBCC.sol\":4140:4193  (uint256 rAmount, , , ) = _getTransferValues(tAmount) */\n      dup3\n      swap1\n        /* \"CYBCC.sol\":4221:4246  _rOwned[sender] - rAmount */\n      tag_190\n      jump\t// in\n    tag_189:\n      sub(shl(0xa0, 0x01), 0x01)\n        /* \"CYBCC.sol\":4203:4218  _rOwned[sender] */\n      dup4\n      and\n      0x00\n      swap1\n      dup2\n      mstore\n        /* \"CYBCC.sol\":4203:4210  _rOwned */\n      0x05\n        /* \"CYBCC.sol\":4203:4218  _rOwned[sender] */\n      0x20\n      mstore\n      0x40\n      swap1\n      keccak256\n        /* \"CYBCC.sol\":4203:4246  _rOwned[sender] = _rOwned[sender] - rAmount */\n      sstore\n        /* \"CYBCC.sol\":4266:4273  _rTotal */\n      sload(0x0d)\n        /* \"CYBCC.sol\":4266:4283  _rTotal - rAmount */\n      tag_191\n      swap1\n        /* \"CYBCC.sol\":4276:4283  rAmount */\n      dup3\n      swap1\n        /* \"CYBCC.sol\":4266:4283  _rTotal - rAmount */\n      tag_190\n      jump\t// in\n    tag_191:\n        /* \"CYBCC.sol\":4256:4263  _rTotal */\n      0x0d\n        /* \"CYBCC.sol\":4256:4283  _rTotal = _rTotal - rAmount */\n      sstore\n        /* \"CYBCC.sol\":4306:4316  _tFeeTotal */\n      sload(0x0e)\n        /* \"CYBCC.sol\":4306:4326  _tFeeTotal + tAmount */\n      tag_192\n      swap1\n        /* \"CYBCC.sol\":4319:4326  tAmount */\n      dup5\n      swap1\n        /* \"CYBCC.sol\":4306:4326  _tFeeTotal + tAmount */\n      tag_193\n      jump\t// in\n    tag_192:\n        /* \"CYBCC.sol\":4293:4303  _tFeeTotal */\n      0x0e\n        /* \"CYBCC.sol\":4293:4326  _tFeeTotal = _tFeeTotal + tAmount */\n      sstore\n      pop\n      pop\n      pop\n        /* \"CYBCC.sol\":3929:4333  function reflect(uint256 tAmount) public {... */\n      jump\t// out\n        /* \"@openzeppelin/contracts/token/ERC20/ERC20.sol\":1760:1849  function name() public view virtual returns (string memory) {... */\n    tag_49:\n        /* \"@openzeppelin/contracts/token/ERC20/ERC20.sol\":1805:1818  string memory */\n      0x60\n        /* \"@openzeppelin/contracts/token/ERC20/ERC20.sol\":1837:1842  _name */\n      0x03\n        /* \"@openzeppelin/contracts/token/ERC20/ERC20.sol\":1830:1842  return _name */\n      dup1\n      sload\n      tag_195\n      swap1\n      tag_196\n      jump\t// in\n    tag_195:\n      dup1\n      0x1f\n      add\n      0x20\n      dup1\n      swap2\n      div\n      mul\n      0x20\n      add\n      mload(0x40)\n      swap1\n      dup2\n      add\n      0x40\n      mstore\n      dup1\n      swap3\n      swap2\n      swap1\n      dup2\n      dup2\n      mstore\n      0x20\n      add\n      dup3\n      dup1\n      sload\n      tag_197\n      swap1\n      tag_196\n      jump\t// in\n    tag_197:\n      dup1\n      iszero\n      tag_198\n      jumpi\n      dup1\n      0x1f\n      lt\n      tag_199\n      jumpi\n      0x0100\n      dup1\n      dup4\n      sload\n      div\n      mul\n      dup4\n      mstore\n      swap2\n      0x20\n      add\n      swap2\n      jump(tag_198)\n    tag_199:\n      dup3\n      add\n      swap2\n      swap1\n      0x00\n      mstore\n      keccak256(0x00, 0x20)\n      swap1\n    tag_200:\n      dup2\n      sload\n      dup2\n      mstore\n      swap1\n      0x01\n      add\n      swap1\n      0x20\n      add\n      dup1\n      dup4\n      gt\n      tag_200\n      jumpi\n      dup3\n      swap1\n      sub\n      0x1f\n      and\n      dup3\n      add\n      swap2\n    tag_198:\n      pop\n      pop\n      pop\n      pop\n      pop\n      swap1\n      pop\n        /* \"@openzeppelin/contracts/token/ERC20/ERC20.sol\":1760:1849  function name() public view virtual returns (string memory) {... */\n      swap1\n      jump\t// out\n        /* \"@openzeppelin/contracts/token/ERC20/ERC20.sol\":3979:4165  function approve(address spender, uint256 value) public virtual returns (bool) {... */\n    tag_56:\n        /* \"@openzeppelin/contracts/token/ERC20/ERC20.sol\":4052:4056  bool */\n      0x00\n        /* \"@openzeppelin/contracts/utils/Context.sol\":735:745  msg.sender */\n      caller\n        /* \"@openzeppelin/contracts/token/ERC20/ERC20.sol\":4106:4137  _approve(owner, spender, value) */\n      tag_203\n        /* \"@openzeppelin/contracts/utils/Context.sol\":735:745  msg.sender */\n      dup2\n        /* \"@openzeppelin/contracts/token/ERC20/ERC20.sol\":4122:4129  spender */\n      dup6\n        /* \"@openzeppelin/contracts/token/ERC20/ERC20.sol\":4131:4136  value */\n      dup6\n        /* \"@openzeppelin/contracts/token/ERC20/ERC20.sol\":4106:4114  _approve */\n      tag_204\n        /* \"@openzeppelin/contracts/token/ERC20/ERC20.sol\":4106:4137  _approve(owner, spender, value) */\n      jump\t// in\n    tag_203:\n        /* \"@openzeppelin/contracts/token/ERC20/ERC20.sol\":4154:4158  true */\n      0x01\n        /* \"@openzeppelin/contracts/token/ERC20/ERC20.sol\":4147:4158  return true */\n      swap2\n      pop\n      pop\n        /* \"@openzeppelin/contracts/token/ERC20/ERC20.sol\":3979:4165  function approve(address spender, uint256 value) public virtual returns (bool) {... */\n    tag_201:\n      swap3\n      swap2\n      pop\n      pop\n      jump\t// out\n        /* \"@openzeppelin/contracts/token/ERC20/ERC20.sol\":4757:5001  function transferFrom(address from, address to, uint256 value) public virtual returns (bool) {... */\n    tag_73:\n        /* \"@openzeppelin/contracts/token/ERC20/ERC20.sol\":4844:4848  bool */\n      0x00\n        /* \"@openzeppelin/contracts/utils/Context.sol\":735:745  msg.sender */\n      caller\n        /* \"@openzeppelin/contracts/token/ERC20/ERC20.sol\":4900:4937  _spendAllowance(from, spender, value) */\n      tag_209\n        /* \"@openzeppelin/contracts/token/ERC20/ERC20.sol\":4916:4920  from */\n      dup6\n        /* \"@openzeppelin/contracts/utils/Context.sol\":735:745  msg.sender */\n      dup3\n        /* \"@openzeppelin/contracts/token/ERC20/ERC20.sol\":4931:4936  value */\n      dup6\n        /* \"@openzeppelin/contracts/token/ERC20/ERC20.sol\":4900:4915  _spendAllowance */\n      tag_210\n        /* \"@openzeppelin/contracts/token/ERC20/ERC20.sol\":4900:4937  _spendAllowance(from, spender, value) */\n      jump\t// in\n    tag_209:\n        /* \"@openzeppelin/contracts/token/ERC20/ERC20.sol\":4947:4973  _transfer(from, to, value) */\n      tag_211\n        /* \"@openzeppelin/contracts/token/ERC20/ERC20.sol\":4957:4961  from */\n      dup6\n        /* \"@openzeppelin/contracts/token/ERC20/ERC20.sol\":4963:4965  to */\n      dup6\n        /* \"@openzeppelin/contracts/token/ERC20/ERC20.sol\":4967:4972  value */\n      dup6\n        /* \"@openzeppelin/contracts/token/ERC20/ERC20.sol\":4947:4956  _transfer */\n      tag_212\n        /* \"@openzeppelin/contracts/token/ERC20/ERC20.sol\":4947:4973  _transfer(from, to, value) */\n      jump\t// in\n    tag_211:\n      pop\n        /* \"@openzeppelin/contracts/token/ERC20/ERC20.sol\":4990:4994  true */\n      0x01\n      swap5\n        /* \"@openzeppelin/contracts/token/ERC20/ERC20.sol\":4757:5001  function transferFrom(address from, address to, uint256 value) public virtual returns (bool) {... */\n      swap4\n      pop\n      pop\n      pop\n      pop\n      jump\t// out\n        /* \"CYBCC.sol\":3195:3304  function excludeFromFee(address account) public onlyOwner {... */\n    tag_93:\n        /* \"CYBCC.sol\":1867:1873  _owner */\n      sload(0x0b)\n        /* \"CYBCC.sol\":1932:1942  msg.sender */\n      caller\n      swap1\n        /* \"CYBCC.sol\":1867:1873  _owner */\n      0x0100\n      swap1\n      div\n      sub(shl(0xa0, 0x01), 0x01)\n      and\n      sub(shl(0xa0, 0x01), 0x01)\n        /* \"CYBCC.sol\":1921:1942  owner() == msg.sender */\n      and\n      sub\n        /* \"CYBCC.sol\":1917:1945  if (owner() == msg.sender) _ */\n      tag_217\n      jumpi\n      sub(shl(0xa0, 0x01), 0x01)\n        /* \"CYBCC.sol\":3263:3290  _isExcludedFromFee[account] */\n      dup2\n      and\n      0x00\n      swap1\n      dup2\n      mstore\n        /* \"CYBCC.sol\":3263:3281  _isExcludedFromFee */\n      0x07\n        /* \"CYBCC.sol\":3263:3290  _isExcludedFromFee[account] */\n      0x20\n      mstore\n      0x40\n      swap1\n      keccak256\n        /* \"CYBCC.sol\":3263:3297  _isExcludedFromFee[account] = true */\n      dup1\n      sload\n      not(0xff)\n      and\n        /* \"CYBCC.sol\":3293:3297  true */\n      0x01\n        /* \"CYBCC.sol\":3263:3297  _isExcludedFromFee[account] = true */\n      or\n      swap1\n      sstore\n        /* \"CYBCC.sol\":1917:1945  if (owner() == msg.sender) _ */\n    tag_217:\n        /* \"CYBCC.sol\":3195:3304  function excludeFromFee(address account) public onlyOwner {... */\n      pop\n      jump\t// out\n        /* \"CYBCC.sol\":4339:4813  function reflectionFromToken(uint256 tAmount, bool deductTransferFee)... */\n    tag_98:\n        /* \"CYBCC.sol\":4454:4461  uint256 */\n      0x00\n        /* \"CYBCC.sol\":4496:4503  _tTotal */\n      sload(0x0c)\n        /* \"CYBCC.sol\":4485:4492  tAmount */\n      dup4\n        /* \"CYBCC.sol\":4485:4503  tAmount <= _tTotal */\n      gt\n      iszero\n        /* \"CYBCC.sol\":4477:4539  require(tAmount <= _tTotal, \"Amount must be less than supply\") */\n      tag_220\n      jumpi\n      mload(0x40)\n      shl(0xe5, 0x461bcd)\n      dup2\n      mstore\n        /* \"#utility.yul\":4552:4554   */\n      0x20\n        /* \"CYBCC.sol\":4477:4539  require(tAmount <= _tTotal, \"Amount must be less than supply\") */\n      0x04\n      dup3\n      add\n        /* \"#utility.yul\":4534:4555   */\n      mstore\n        /* \"#utility.yul\":4591:4593   */\n      0x1f\n        /* \"#utility.yul\":4571:4589   */\n      0x24\n      dup3\n      add\n        /* \"#utility.yul\":4564:4594   */\n      mstore\n        /* \"#utility.yul\":4630:4663   */\n      0x416d6f756e74206d757374206265206c657373207468616e20737570706c7900\n        /* \"#utility.yul\":4610:4628   */\n      0x44\n      dup3\n      add\n        /* \"#utility.yul\":4603:4664   */\n      mstore\n        /* \"#utility.yul\":4681:4699   */\n      0x64\n      add\n        /* \"CYBCC.sol\":4477:4539  require(tAmount <= _tTotal, \"Amount must be less than supply\") */\n      tag_185\n        /* \"#utility.yul\":4350:4705   */\n      jump\n        /* \"CYBCC.sol\":4477:4539  require(tAmount <= _tTotal, \"Amount must be less than supply\") */\n    tag_220:\n        /* \"CYBCC.sol\":4554:4571  deductTransferFee */\n      dup2\n        /* \"CYBCC.sol\":4549:4807  if (!deductTransferFee) {... */\n      tag_223\n      jumpi\n        /* \"CYBCC.sol\":4588:4603  uint256 rAmount */\n      0x00\n        /* \"CYBCC.sol\":4613:4640  _getTransferValues(tAmount) */\n      tag_224\n        /* \"CYBCC.sol\":4632:4639  tAmount */\n      dup5\n        /* \"CYBCC.sol\":4613:4631  _getTransferValues */\n      tag_188\n        /* \"CYBCC.sol\":4613:4640  _getTransferValues(tAmount) */\n      jump\t// in\n    tag_224:\n      pop\n        /* \"CYBCC.sol\":4587:4640  (uint256 rAmount, , , ) = _getTransferValues(tAmount) */\n      swap2\n      swap4\n      pop\n        /* \"CYBCC.sol\":4654:4668  return rAmount */\n      tag_201\n      swap3\n      pop\n      pop\n      pop\n      jump\n        /* \"CYBCC.sol\":4549:4807  if (!deductTransferFee) {... */\n    tag_223:\n        /* \"CYBCC.sol\":4702:4725  uint256 rTransferAmount */\n      0x00\n        /* \"CYBCC.sol\":4733:4760  _getTransferValues(tAmount) */\n      tag_226\n        /* \"CYBCC.sol\":4752:4759  tAmount */\n      dup5\n        /* \"CYBCC.sol\":4733:4751  _getTransferValues */\n      tag_188\n        /* \"CYBCC.sol\":4733:4760  _getTransferValues(tAmount) */\n      jump\t// in\n    tag_226:\n      pop\n        /* \"CYBCC.sol\":4699:4760  (, uint256 rTransferAmount, , ) = _getTransferValues(tAmount) */\n      swap1\n      swap4\n      pop\n        /* \"CYBCC.sol\":4774:4796  return rTransferAmount */\n      tag_201\n      swap3\n      pop\n      pop\n      pop\n      jump\n        /* \"CYBCC.sol\":5134:5466  function excludeAccountFromReward(address account) public onlyOwner {... */\n    tag_108:\n        /* \"CYBCC.sol\":1867:1873  _owner */\n      sload(0x0b)\n        /* \"CYBCC.sol\":1932:1942  msg.sender */\n      caller\n      swap1\n        /* \"CYBCC.sol\":1867:1873  _owner */\n      0x0100\n      swap1\n      div\n      sub(shl(0xa0, 0x01), 0x01)\n      and\n      sub(shl(0xa0, 0x01), 0x01)\n        /* \"CYBCC.sol\":1921:1942  owner() == msg.sender */\n      and\n      sub\n        /* \"CYBCC.sol\":1917:1945  if (owner() == msg.sender) _ */\n      tag_217\n      jumpi\n      sub(shl(0xa0, 0x01), 0x01)\n        /* \"CYBCC.sol\":5221:5241  _isExcluded[account] */\n      dup2\n      and\n      0x00\n      swap1\n      dup2\n      mstore\n        /* \"CYBCC.sol\":5221:5232  _isExcluded */\n      0x09\n        /* \"CYBCC.sol\":5221:5241  _isExcluded[account] */\n      0x20\n      mstore\n      0x40\n      swap1\n      keccak256\n      sload\n      0xff\n      and\n        /* \"CYBCC.sol\":5220:5241  !_isExcluded[account] */\n      iszero\n        /* \"CYBCC.sol\":5212:5273  require(!_isExcluded[account], \"Account is already excluded\") */\n      tag_232\n      jumpi\n      mload(0x40)\n      shl(0xe5, 0x461bcd)\n      dup2\n      mstore\n        /* \"#utility.yul\":4912:4914   */\n      0x20\n        /* \"CYBCC.sol\":5212:5273  require(!_isExcluded[account], \"Account is already excluded\") */\n      0x04\n      dup3\n      add\n        /* \"#utility.yul\":4894:4915   */\n      mstore\n        /* \"#utility.yul\":4951:4953   */\n      0x1b\n        /* \"#utility.yul\":4931:4949   */\n      0x24\n      dup3\n      add\n        /* \"#utility.yul\":4924:4954   */\n      mstore\n        /* \"#utility.yul\":4990:5019   */\n      0x4163636f756e7420697320616c7265616479206578636c756465640000000000\n        /* \"#utility.yul\":4970:4988   */\n      0x44\n      dup3\n      add\n        /* \"#utility.yul\":4963:5020   */\n      mstore\n        /* \"#utility.yul\":5037:5055   */\n      0x64\n      add\n        /* \"CYBCC.sol\":5212:5273  require(!_isExcluded[account], \"Account is already excluded\") */\n      tag_185\n        /* \"#utility.yul\":4710:5061   */\n      jump\n        /* \"CYBCC.sol\":5212:5273  require(!_isExcluded[account], \"Account is already excluded\") */\n    tag_232:\n      sub(shl(0xa0, 0x01), 0x01)\n        /* \"CYBCC.sol\":5287:5303  _rOwned[account] */\n      dup2\n      and\n        /* \"CYBCC.sol\":5306:5307  0 */\n      0x00\n        /* \"CYBCC.sol\":5287:5303  _rOwned[account] */\n      swap1\n      dup2\n      mstore\n        /* \"CYBCC.sol\":5287:5294  _rOwned */\n      0x05\n        /* \"CYBCC.sol\":5287:5303  _rOwned[account] */\n      0x20\n      mstore\n      0x40\n      swap1\n      keccak256\n      sload\n        /* \"CYBCC.sol\":5287:5307  _rOwned[account] > 0 */\n      iszero\n        /* \"CYBCC.sol\":5283:5390  if (_rOwned[account] > 0) {... */\n      tag_235\n      jumpi\n      sub(shl(0xa0, 0x01), 0x01)\n        /* \"CYBCC.sol\":5362:5378  _rOwned[account] */\n      dup2\n      and\n      0x00\n      swap1\n      dup2\n      mstore\n        /* \"CYBCC.sol\":5362:5369  _rOwned */\n      0x05\n        /* \"CYBCC.sol\":5362:5378  _rOwned[account] */\n      0x20\n      mstore\n      0x40\n      swap1\n      keccak256\n      sload\n        /* \"CYBCC.sol\":5342:5379  tokenFromReflection(_rOwned[account]) */\n      tag_236\n      swap1\n        /* \"CYBCC.sol\":5342:5361  tokenFromReflection */\n      tag_237\n        /* \"CYBCC.sol\":5342:5379  tokenFromReflection(_rOwned[account]) */\n      jump\t// in\n    tag_236:\n      sub(shl(0xa0, 0x01), 0x01)\n        /* \"CYBCC.sol\":5323:5339  _tOwned[account] */\n      dup3\n      and\n      0x00\n      swap1\n      dup2\n      mstore\n        /* \"CYBCC.sol\":5323:5330  _tOwned */\n      0x06\n        /* \"CYBCC.sol\":5323:5339  _tOwned[account] */\n      0x20\n      mstore\n      0x40\n      swap1\n      keccak256\n        /* \"CYBCC.sol\":5323:5379  _tOwned[account] = tokenFromReflection(_rOwned[account]) */\n      sstore\n        /* \"CYBCC.sol\":5283:5390  if (_rOwned[account] > 0) {... */\n    tag_235:\n      sub(shl(0xa0, 0x01), 0x01)\n        /* \"CYBCC.sol\":5399:5419  _isExcluded[account] */\n      and\n      0x00\n      dup2\n      dup2\n      mstore\n        /* \"CYBCC.sol\":5399:5410  _isExcluded */\n      0x09\n        /* \"CYBCC.sol\":5399:5419  _isExcluded[account] */\n      0x20\n      mstore\n      0x40\n      dup2\n      keccak256\n        /* \"CYBCC.sol\":5399:5426  _isExcluded[account] = true */\n      dup1\n      sload\n      not(0xff)\n      and\n        /* \"CYBCC.sol\":5422:5426  true */\n      0x01\n        /* \"CYBCC.sol\":5399:5426  _isExcluded[account] = true */\n      swap1\n      dup2\n      or\n      swap1\n      swap2\n      sstore\n        /* \"CYBCC.sol\":5436:5445  _excluded */\n      0x0a\n        /* \"CYBCC.sol\":5436:5459  _excluded.push(account) */\n      dup1\n      sload\n      swap2\n      dup3\n      add\n      dup2\n      sstore\n      swap1\n      swap2\n      mstore\n      0xc65a7bb8d6351c1cf70c95a316cc6a92839c986682d98bc35f958f4883f9d2a8\n      add\n      dup1\n      sload\n      not(sub(shl(0xa0, 0x01), 0x01))\n      and\n      swap1\n      swap2\n      or\n      swap1\n      sstore\n        /* \"CYBCC.sol\":5134:5466  function excludeAccountFromReward(address account) public onlyOwner {... */\n      jump\t// out\n        /* \"CYBCC.sol\":3560:3808  function changeDevelopmentAccount(address newFeeAccount) public onlyOwner {... */\n    tag_112:\n        /* \"CYBCC.sol\":1867:1873  _owner */\n      sload(0x0b)\n        /* \"CYBCC.sol\":1932:1942  msg.sender */\n      caller\n      swap1\n        /* \"CYBCC.sol\":1867:1873  _owner */\n      0x0100\n      swap1\n      div\n      sub(shl(0xa0, 0x01), 0x01)\n      and\n      sub(shl(0xa0, 0x01), 0x01)\n        /* \"CYBCC.sol\":1921:1942  owner() == msg.sender */\n      and\n      sub\n        /* \"CYBCC.sol\":1917:1945  if (owner() == msg.sender) _ */\n      tag_217\n      jumpi\n      sub(shl(0xa0, 0x01), 0x01)\n        /* \"CYBCC.sol\":3665:3692  newFeeAccount != address(0) */\n      dup2\n      and\n        /* \"CYBCC.sol\":3644:3756  require(... */\n      tag_243\n      jumpi\n      mload(0x40)\n      shl(0xe5, 0x461bcd)\n      dup2\n      mstore\n      0x04\n      add\n      tag_185\n      swap1\n      tag_245\n      jump\t// in\n    tag_243:\n        /* \"CYBCC.sol\":3766:3785  _developmentAccount */\n      0x14\n        /* \"CYBCC.sol\":3766:3801  _developmentAccount = newFeeAccount */\n      dup1\n      sload\n      sub(shl(0xa0, 0x01), 0x01)\n      dup4\n      and\n      not(sub(shl(0xa0, 0x01), 0x01))\n      swap1\n      swap2\n      and\n      or\n      swap1\n      sstore\n        /* \"CYBCC.sol\":3560:3808  function changeDevelopmentAccount(address newFeeAccount) public onlyOwner {... */\n      pop\n      jump\t// out\n        /* \"CYBCC.sol\":2704:2971  function balanceOf(address sender)... */\n    tag_116:\n      sub(shl(0xa0, 0x01), 0x01)\n        /* \"CYBCC.sol\":2844:2863  _isExcluded[sender] */\n      dup2\n      and\n        /* \"CYBCC.sol\":2817:2824  uint256 */\n      0x00\n        /* \"CYBCC.sol\":2844:2863  _isExcluded[sender] */\n      swap1\n      dup2\n      mstore\n        /* \"CYBCC.sol\":2844:2855  _isExcluded */\n      0x09\n        /* \"CYBCC.sol\":2844:2863  _isExcluded[sender] */\n      0x20\n      mstore\n      0x40\n      dup2\n      keccak256\n      sload\n      0xff\n      and\n        /* \"CYBCC.sol\":2840:2912  if (_isExcluded[sender]) {... */\n      iszero\n      tag_247\n      jumpi\n      pop\n      sub(shl(0xa0, 0x01), 0x01)\n        /* \"CYBCC.sol\":2886:2901  _tOwned[sender] */\n      and\n      0x00\n      swap1\n      dup2\n      mstore\n        /* \"CYBCC.sol\":2886:2893  _tOwned */\n      0x06\n        /* \"CYBCC.sol\":2886:2901  _tOwned[sender] */\n      0x20\n      mstore\n      0x40\n      swap1\n      keccak256\n      sload\n      swap1\n        /* \"CYBCC.sol\":2704:2971  function balanceOf(address sender)... */\n      jump\t// out\n        /* \"CYBCC.sol\":2840:2912  if (_isExcluded[sender]) {... */\n    tag_247:\n      sub(shl(0xa0, 0x01), 0x01)\n        /* \"CYBCC.sol\":2948:2963  _rOwned[sender] */\n      dup3\n      and\n      0x00\n      swap1\n      dup2\n      mstore\n        /* \"CYBCC.sol\":2948:2955  _rOwned */\n      0x05\n        /* \"CYBCC.sol\":2948:2963  _rOwned[sender] */\n      0x20\n      mstore\n      0x40\n      swap1\n      keccak256\n      sload\n        /* \"CYBCC.sol\":2928:2964  tokenFromReflection(_rOwned[sender]) */\n      tag_201\n      swap1\n        /* \"CYBCC.sol\":2928:2947  tokenFromReflection */\n      tag_237\n        /* \"CYBCC.sol\":2928:2964  tokenFromReflection(_rOwned[sender]) */\n      jump\t// in\n        /* \"CYBCC.sol\":3814:3923  function changePairAddress(address _pairAddress) public onlyOwner {... */\n    tag_129:\n        /* \"CYBCC.sol\":1867:1873  _owner */\n      sload(0x0b)\n        /* \"CYBCC.sol\":1932:1942  msg.sender */\n      caller\n      swap1\n        /* \"CYBCC.sol\":1867:1873  _owner */\n      0x0100\n      swap1\n      div\n      sub(shl(0xa0, 0x01), 0x01)\n      and\n      sub(shl(0xa0, 0x01), 0x01)\n        /* \"CYBCC.sol\":1921:1942  owner() == msg.sender */\n      and\n      sub\n        /* \"CYBCC.sol\":1917:1945  if (owner() == msg.sender) _ */\n      tag_217\n      jumpi\n        /* \"CYBCC.sol\":3890:3901  pairAddress */\n      0x15\n        /* \"CYBCC.sol\":3890:3916  pairAddress = _pairAddress */\n      dup1\n      sload\n      sub(shl(0xa0, 0x01), 0x01)\n      dup4\n      and\n      not(sub(shl(0xa0, 0x01), 0x01))\n      swap1\n      swap2\n      and\n      or\n      swap1\n      sstore\n        /* \"CYBCC.sol\":3814:3923  function changePairAddress(address _pairAddress) public onlyOwner {... */\n      pop\n      jump\t// out\n        /* \"@openzeppelin/contracts/token/ERC20/ERC20.sol\":1962:2055  function symbol() public view virtual returns (string memory) {... */\n    tag_136:\n        /* \"@openzeppelin/contracts/token/ERC20/ERC20.sol\":2009:2022  string memory */\n      0x60\n        /* \"@openzeppelin/contracts/token/ERC20/ERC20.sol\":2041:2048  _symbol */\n      0x04\n        /* \"@openzeppelin/contracts/token/ERC20/ERC20.sol\":2034:2048  return _symbol */\n      dup1\n      sload\n      tag_195\n      swap1\n      tag_196\n      jump\t// in\n        /* \"@openzeppelin/contracts/token/ERC20/ERC20.sol\":3296:3474  function transfer(address to, uint256 value) public virtual returns (bool) {... */\n    tag_145:\n        /* \"@openzeppelin/contracts/token/ERC20/ERC20.sol\":3365:3369  bool */\n      0x00\n        /* \"@openzeppelin/contracts/utils/Context.sol\":735:745  msg.sender */\n      caller\n        /* \"@openzeppelin/contracts/token/ERC20/ERC20.sol\":3419:3446  _transfer(owner, to, value) */\n      tag_203\n        /* \"@openzeppelin/contracts/utils/Context.sol\":735:745  msg.sender */\n      dup2\n        /* \"@openzeppelin/contracts/token/ERC20/ERC20.sol\":3436:3438  to */\n      dup6\n        /* \"@openzeppelin/contracts/token/ERC20/ERC20.sol\":3440:3445  value */\n      dup6\n        /* \"@openzeppelin/contracts/token/ERC20/ERC20.sol\":3419:3428  _transfer */\n      tag_212\n        /* \"@openzeppelin/contracts/token/ERC20/ERC20.sol\":3419:3446  _transfer(owner, to, value) */\n      jump\t// in\n        /* \"CYBCC.sol\":3310:3554  function changeMarketingAccount(address newFeeAccount) public onlyOwner {... */\n    tag_150:\n        /* \"CYBCC.sol\":1867:1873  _owner */\n      sload(0x0b)\n        /* \"CYBCC.sol\":1932:1942  msg.sender */\n      caller\n      swap1\n        /* \"CYBCC.sol\":1867:1873  _owner */\n      0x0100\n      swap1\n      div\n      sub(shl(0xa0, 0x01), 0x01)\n      and\n      sub(shl(0xa0, 0x01), 0x01)\n        /* \"CYBCC.sol\":1921:1942  owner() == msg.sender */\n      and\n      sub\n        /* \"CYBCC.sol\":1917:1945  if (owner() == msg.sender) _ */\n      tag_217\n      jumpi\n      sub(shl(0xa0, 0x01), 0x01)\n        /* \"CYBCC.sol\":3413:3440  newFeeAccount != address(0) */\n      dup2\n      and\n        /* \"CYBCC.sol\":3392:3504  require(... */\n      tag_269\n      jumpi\n      mload(0x40)\n      shl(0xe5, 0x461bcd)\n      dup2\n      mstore\n      0x04\n      add\n      tag_185\n      swap1\n      tag_245\n      jump\t// in\n    tag_269:\n        /* \"CYBCC.sol\":3514:3531  _marketingAccount */\n      0x13\n        /* \"CYBCC.sol\":3514:3547  _marketingAccount = newFeeAccount */\n      dup1\n      sload\n      sub(shl(0xa0, 0x01), 0x01)\n      dup4\n      and\n      not(sub(shl(0xa0, 0x01), 0x01))\n      swap1\n      swap2\n      and\n      or\n      swap1\n      sstore\n        /* \"CYBCC.sol\":3310:3554  function changeMarketingAccount(address newFeeAccount) public onlyOwner {... */\n      pop\n      jump\t// out\n        /* \"CYBCC.sol\":5949:6062  function openTrading() external onlyOwner {... */\n    tag_153:\n        /* \"CYBCC.sol\":1867:1873  _owner */\n      sload(0x0b)\n        /* \"CYBCC.sol\":1932:1942  msg.sender */\n      caller\n      swap1\n        /* \"CYBCC.sol\":1867:1873  _owner */\n      0x0100\n      swap1\n      div\n      sub(shl(0xa0, 0x01), 0x01)\n      and\n      sub(shl(0xa0, 0x01), 0x01)\n        /* \"CYBCC.sol\":1921:1942  owner() == msg.sender */\n      and\n      sub\n        /* \"CYBCC.sol\":1917:1945  if (owner() == msg.sender) _ */\n      tag_273\n      jumpi\n        /* \"CYBCC.sol\":6001:6012  tradingOpen */\n      0x18\n        /* \"CYBCC.sol\":6001:6019  tradingOpen = true */\n      dup1\n      sload\n      not(0xff)\n      and\n        /* \"CYBCC.sol\":6015:6019  true */\n      0x01\n        /* \"CYBCC.sol\":6001:6019  tradingOpen = true */\n      or\n      swap1\n      sstore\n        /* \"CYBCC.sol\":6043:6055  block.number */\n      number\n        /* \"CYBCC.sol\":6029:6040  launchBlock */\n      0x17\n        /* \"CYBCC.sol\":6029:6055  launchBlock = block.number */\n      sstore\n        /* \"CYBCC.sol\":1917:1945  if (owner() == msg.sender) _ */\n    tag_273:\n        /* \"CYBCC.sol\":5949:6062  function openTrading() external onlyOwner {... */\n      jump\t// out\n        /* \"CYBCC.sol\":5472:5943  function includeAccountinReward(address account) public onlyOwner {... */\n    tag_176:\n        /* \"CYBCC.sol\":1867:1873  _owner */\n      sload(0x0b)\n        /* \"CYBCC.sol\":1932:1942  msg.sender */\n      caller\n      swap1\n        /* \"CYBCC.sol\":1867:1873  _owner */\n      0x0100\n      swap1\n      div\n      sub(shl(0xa0, 0x01), 0x01)\n      and\n      sub(shl(0xa0, 0x01), 0x01)\n        /* \"CYBCC.sol\":1921:1942  owner() == msg.sender */\n      and\n      sub\n        /* \"CYBCC.sol\":1917:1945  if (owner() == msg.sender) _ */\n      tag_217\n      jumpi\n      sub(shl(0xa0, 0x01), 0x01)\n        /* \"CYBCC.sol\":5556:5576  _isExcluded[account] */\n      dup2\n      and\n      0x00\n      swap1\n      dup2\n      mstore\n        /* \"CYBCC.sol\":5556:5567  _isExcluded */\n      0x09\n        /* \"CYBCC.sol\":5556:5576  _isExcluded[account] */\n      0x20\n      mstore\n      0x40\n      swap1\n      keccak256\n      sload\n      0xff\n      and\n        /* \"CYBCC.sol\":5548:5608  require(_isExcluded[account], \"Account is already included\") */\n      tag_282\n      jumpi\n      mload(0x40)\n      shl(0xe5, 0x461bcd)\n      dup2\n      mstore\n        /* \"#utility.yul\":5675:5677   */\n      0x20\n        /* \"CYBCC.sol\":5548:5608  require(_isExcluded[account], \"Account is already included\") */\n      0x04\n      dup3\n      add\n        /* \"#utility.yul\":5657:5678   */\n      mstore\n        /* \"#utility.yul\":5714:5716   */\n      0x1b\n        /* \"#utility.yul\":5694:5712   */\n      0x24\n      dup3\n      add\n        /* \"#utility.yul\":5687:5717   */\n      mstore\n        /* \"#utility.yul\":5753:5782   */\n      0x4163636f756e7420697320616c726561647920696e636c756465640000000000\n        /* \"#utility.yul\":5733:5751   */\n      0x44\n      dup3\n      add\n        /* \"#utility.yul\":5726:5783   */\n      mstore\n        /* \"#utility.yul\":5800:5818   */\n      0x64\n      add\n        /* \"CYBCC.sol\":5548:5608  require(_isExcluded[account], \"Account is already included\") */\n      tag_185\n        /* \"#utility.yul\":5473:5824   */\n      jump\n        /* \"CYBCC.sol\":5548:5608  require(_isExcluded[account], \"Account is already included\") */\n    tag_282:\n        /* \"CYBCC.sol\":5623:5632  uint256 i */\n      0x00\n        /* \"CYBCC.sol\":5618:5937  for (uint256 i = 0; i < _excluded.length; i++) {... */\n    tag_285:\n        /* \"CYBCC.sol\":5642:5651  _excluded */\n      0x0a\n        /* \"CYBCC.sol\":5642:5658  _excluded.length */\n      sload\n        /* \"CYBCC.sol\":5638:5658  i < _excluded.length */\n      dup2\n      lt\n        /* \"CYBCC.sol\":5618:5937  for (uint256 i = 0; i < _excluded.length; i++) {... */\n      iszero\n      tag_286\n      jumpi\n        /* \"CYBCC.sol\":5699:5706  account */\n      dup2\n      sub(shl(0xa0, 0x01), 0x01)\n        /* \"CYBCC.sol\":5683:5706  _excluded[i] == account */\n      and\n        /* \"CYBCC.sol\":5683:5692  _excluded */\n      0x0a\n        /* \"CYBCC.sol\":5693:5694  i */\n      dup3\n        /* \"CYBCC.sol\":5683:5695  _excluded[i] */\n      dup2\n      sload\n      dup2\n      lt\n      tag_289\n      jumpi\n      tag_289\n      tag_290\n      jump\t// in\n    tag_289:\n      0x00\n      swap2\n      dup3\n      mstore\n      0x20\n      swap1\n      swap2\n      keccak256\n      add\n      sload\n      sub(shl(0xa0, 0x01), 0x01)\n      and\n        /* \"CYBCC.sol\":5683:5706  _excluded[i] == account */\n      sub\n        /* \"CYBCC.sol\":5679:5927  if (_excluded[i] == account) {... */\n      tag_292\n      jumpi\n        /* \"CYBCC.sol\":5741:5750  _excluded */\n      0x0a\n        /* \"CYBCC.sol\":5751:5767  _excluded.length */\n      dup1\n      sload\n        /* \"CYBCC.sol\":5751:5771  _excluded.length - 1 */\n      tag_293\n      swap1\n        /* \"CYBCC.sol\":5770:5771  1 */\n      0x01\n      swap1\n        /* \"CYBCC.sol\":5751:5771  _excluded.length - 1 */\n      tag_190\n      jump\t// in\n    tag_293:\n        /* \"CYBCC.sol\":5741:5772  _excluded[_excluded.length - 1] */\n      dup2\n      sload\n      dup2\n      lt\n      tag_295\n      jumpi\n      tag_295\n      tag_290\n      jump\t// in\n    tag_295:\n      0x00\n      swap2\n      dup3\n      mstore\n      0x20\n      swap1\n      swap2\n      keccak256\n      add\n      sload\n        /* \"CYBCC.sol\":5726:5735  _excluded */\n      0x0a\n        /* \"CYBCC.sol\":5726:5738  _excluded[i] */\n      dup1\n      sload\n      sub(shl(0xa0, 0x01), 0x01)\n        /* \"CYBCC.sol\":5741:5772  _excluded[_excluded.length - 1] */\n      swap1\n      swap3\n      and\n      swap2\n        /* \"CYBCC.sol\":5736:5737  i */\n      dup4\n      swap1\n        /* \"CYBCC.sol\":5726:5738  _excluded[i] */\n      dup2\n      lt\n      tag_298\n      jumpi\n      tag_298\n      tag_290\n      jump\t// in\n    tag_298:\n      0x00\n      swap2\n      dup3\n      mstore\n      0x20\n      dup1\n      dup4\n      keccak256\n      swap2\n      swap1\n      swap2\n      add\n        /* \"CYBCC.sol\":5726:5772  _excluded[i] = _excluded[_excluded.length - 1] */\n      dup1\n      sload\n      not(sub(shl(0xa0, 0x01), 0x01))\n      and\n      sub(shl(0xa0, 0x01), 0x01)\n      swap5\n      dup6\n      and\n      or\n      swap1\n      sstore\n        /* \"CYBCC.sol\":5790:5806  _tOwned[account] */\n      swap2\n      dup5\n      and\n      dup2\n      mstore\n        /* \"CYBCC.sol\":5790:5797  _tOwned */\n      0x06\n        /* \"CYBCC.sol\":5790:5806  _tOwned[account] */\n      dup3\n      mstore\n      0x40\n      dup1\n      dup3\n      keccak256\n        /* \"CYBCC.sol\":5790:5810  _tOwned[account] = 0 */\n      dup3\n      swap1\n      sstore\n        /* \"CYBCC.sol\":5828:5839  _isExcluded */\n      0x09\n        /* \"CYBCC.sol\":5828:5848  _isExcluded[account] */\n      swap1\n      swap3\n      mstore\n      keccak256\n        /* \"CYBCC.sol\":5828:5856  _isExcluded[account] = false */\n      dup1\n      sload\n      not(0xff)\n      and\n      swap1\n      sstore\n        /* \"CYBCC.sol\":5874:5883  _excluded */\n      0x0a\n        /* \"CYBCC.sol\":5874:5889  _excluded.pop() */\n      dup1\n      sload\n      dup1\n      tag_301\n      jumpi\n      tag_301\n      tag_302\n      jump\t// in\n    tag_301:\n      0x00\n      dup3\n      dup2\n      mstore\n      0x20\n      swap1\n      keccak256\n      dup2\n      add\n      not(0x00)\n      swap1\n      dup2\n      add\n      dup1\n      sload\n      not(sub(shl(0xa0, 0x01), 0x01))\n      and\n      swap1\n      sstore\n      add\n      swap1\n      sstore\n        /* \"CYBCC.sol\":5618:5937  for (uint256 i = 0; i < _excluded.length; i++) {... */\n      pop\n        /* \"CYBCC.sol\":5472:5943  function includeAccountinReward(address account) public onlyOwner {... */\n      pop\n      jump\t// out\n        /* \"CYBCC.sol\":5679:5927  if (_excluded[i] == account) {... */\n    tag_292:\n        /* \"CYBCC.sol\":5660:5663  i++ */\n      0x01\n      add\n        /* \"CYBCC.sol\":5618:5937  for (uint256 i = 0; i < _excluded.length; i++) {... */\n      jump(tag_285)\n    tag_286:\n      pop\n        /* \"CYBCC.sol\":5472:5943  function includeAccountinReward(address account) public onlyOwner {... */\n      pop\n      jump\t// out\n        /* \"CYBCC.sol\":11348:11885  function _getTransferValues(uint256 tAmount)... */\n    tag_188:\n        /* \"CYBCC.sol\":11452:11459  uint256 */\n      0x00\n        /* \"CYBCC.sol\":11473:11480  uint256 */\n      0x00\n        /* \"CYBCC.sol\":11494:11501  uint256 */\n      0x00\n        /* \"CYBCC.sol\":11515:11522  uint256 */\n      0x00\n        /* \"CYBCC.sol\":11547:11563  uint256 taxValue */\n      0x00\n        /* \"CYBCC.sol\":11566:11595  _getCompleteTaxValue(tAmount) */\n      tag_306\n        /* \"CYBCC.sol\":11587:11594  tAmount */\n      dup7\n        /* \"CYBCC.sol\":11566:11586  _getCompleteTaxValue */\n      tag_307\n        /* \"CYBCC.sol\":11566:11595  _getCompleteTaxValue(tAmount) */\n      jump\t// in\n    tag_306:\n        /* \"CYBCC.sol\":11547:11595  uint256 taxValue = _getCompleteTaxValue(tAmount) */\n      swap1\n      pop\n        /* \"CYBCC.sol\":11605:11628  uint256 tTransferAmount */\n      0x00\n        /* \"CYBCC.sol\":11631:11649  tAmount - taxValue */\n      tag_308\n        /* \"CYBCC.sol\":11547:11595  uint256 taxValue = _getCompleteTaxValue(tAmount) */\n      dup3\n        /* \"CYBCC.sol\":11631:11638  tAmount */\n      dup9\n        /* \"CYBCC.sol\":11631:11649  tAmount - taxValue */\n      tag_190\n      jump\t// in\n    tag_308:\n        /* \"CYBCC.sol\":11605:11649  uint256 tTransferAmount = tAmount - taxValue */\n      swap1\n      pop\n        /* \"CYBCC.sol\":11659:11678  uint256 currentRate */\n      0x00\n        /* \"CYBCC.sol\":11681:11691  _getRate() */\n      tag_309\n        /* \"CYBCC.sol\":11681:11689  _getRate */\n      tag_310\n        /* \"CYBCC.sol\":11681:11691  _getRate() */\n      jump\t// in\n    tag_309:\n        /* \"CYBCC.sol\":11659:11691  uint256 currentRate = _getRate() */\n      swap1\n      pop\n        /* \"CYBCC.sol\":11701:11724  uint256 rTransferAmount */\n      0x00\n        /* \"CYBCC.sol\":11727:11756  tTransferAmount * currentRate */\n      tag_311\n        /* \"CYBCC.sol\":11659:11691  uint256 currentRate = _getRate() */\n      dup3\n        /* \"CYBCC.sol\":11727:11742  tTransferAmount */\n      dup5\n        /* \"CYBCC.sol\":11727:11756  tTransferAmount * currentRate */\n      tag_312\n      jump\t// in\n    tag_311:\n        /* \"CYBCC.sol\":11701:11756  uint256 rTransferAmount = tTransferAmount * currentRate */\n      swap1\n      pop\n        /* \"CYBCC.sol\":11766:11781  uint256 rAmount */\n      0x00\n        /* \"CYBCC.sol\":11784:11805  tAmount * currentRate */\n      tag_313\n        /* \"CYBCC.sol\":11794:11805  currentRate */\n      dup4\n        /* \"CYBCC.sol\":11784:11791  tAmount */\n      dup12\n        /* \"CYBCC.sol\":11784:11805  tAmount * currentRate */\n      tag_312\n      jump\t// in\n    tag_313:\n        /* \"CYBCC.sol\":11766:11805  uint256 rAmount = tAmount * currentRate */\n      swap11\n        /* \"CYBCC.sol\":11832:11847  rTransferAmount */\n      swap2\n      swap10\n      pop\n        /* \"CYBCC.sol\":11849:11864  tTransferAmount */\n      swap3\n      swap8\n      pop\n        /* \"CYBCC.sol\":11866:11877  currentRate */\n      swap1\n      swap6\n      pop\n        /* \"CYBCC.sol\":11348:11885  function _getTransferValues(uint256 tAmount)... */\n      swap4\n      pop\n      pop\n      pop\n      pop\n      jump\t// out\n        /* \"@openzeppelin/contracts/token/ERC20/ERC20.sol\":8715:8843  function _approve(address owner, address spender, uint256 value) internal {... */\n    tag_204:\n        /* \"@openzeppelin/contracts/token/ERC20/ERC20.sol\":8799:8836  _approve(owner, spender, value, true) */\n      tag_315\n        /* \"@openzeppelin/contracts/token/ERC20/ERC20.sol\":8808:8813  owner */\n      dup4\n        /* \"@openzeppelin/contracts/token/ERC20/ERC20.sol\":8815:8822  spender */\n      dup4\n        /* \"@openzeppelin/contracts/token/ERC20/ERC20.sol\":8824:8829  value */\n      dup4\n        /* \"@openzeppelin/contracts/token/ERC20/ERC20.sol\":8831:8835  true */\n      0x01\n        /* \"@openzeppelin/contracts/token/ERC20/ERC20.sol\":8799:8807  _approve */\n      tag_316\n        /* \"@openzeppelin/contracts/token/ERC20/ERC20.sol\":8799:8836  _approve(owner, spender, value, true) */\n      jump\t// in\n    tag_315:\n        /* \"@openzeppelin/contracts/token/ERC20/ERC20.sol\":8715:8843  function _approve(address owner, address spender, uint256 value) internal {... */\n      pop\n      pop\n      pop\n      jump\t// out\n        /* \"@openzeppelin/contracts/token/ERC20/ERC20.sol\":10404:10880  function _spendAllowance(address owner, address spender, uint256 value) internal virtual {... */\n    tag_210:\n      sub(shl(0xa0, 0x01), 0x01)\n        /* \"@openzeppelin/contracts/token/ERC20/ERC20.sol\":3638:3656  _allowances[owner] */\n      dup4\n      dup2\n      and\n        /* \"@openzeppelin/contracts/token/ERC20/ERC20.sol\":10503:10527  uint256 currentAllowance */\n      0x00\n        /* \"@openzeppelin/contracts/token/ERC20/ERC20.sol\":3638:3656  _allowances[owner] */\n      swap1\n      dup2\n      mstore\n        /* \"@openzeppelin/contracts/token/ERC20/ERC20.sol\":3638:3649  _allowances */\n      0x01\n        /* \"@openzeppelin/contracts/token/ERC20/ERC20.sol\":3638:3656  _allowances[owner] */\n      0x20\n      swap1\n      dup2\n      mstore\n      0x40\n      dup1\n      dup4\n      keccak256\n        /* \"@openzeppelin/contracts/token/ERC20/ERC20.sol\":3638:3665  _allowances[owner][spender] */\n      swap4\n      dup7\n      and\n      dup4\n      mstore\n      swap3\n      swap1\n      mstore\n      keccak256\n      sload\n      not(0x00)\n        /* \"@openzeppelin/contracts/token/ERC20/ERC20.sol\":10569:10605  currentAllowance < type(uint256).max */\n      dup2\n      lt\n        /* \"@openzeppelin/contracts/token/ERC20/ERC20.sol\":10565:10874  if (currentAllowance < type(uint256).max) {... */\n      iszero\n      tag_323\n      jumpi\n        /* \"@openzeppelin/contracts/token/ERC20/ERC20.sol\":10644:10649  value */\n      dup2\n        /* \"@openzeppelin/contracts/token/ERC20/ERC20.sol\":10625:10641  currentAllowance */\n      dup2\n        /* \"@openzeppelin/contracts/token/ERC20/ERC20.sol\":10625:10649  currentAllowance < value */\n      lt\n        /* \"@openzeppelin/contracts/token/ERC20/ERC20.sol\":10621:10751  if (currentAllowance < value) {... */\n      iszero\n      tag_320\n      jumpi\n        /* \"@openzeppelin/contracts/token/ERC20/ERC20.sol\":10676:10736  ERC20InsufficientAllowance(spender, currentAllowance, value) */\n      mload(0x40)\n      shl(0xe1, 0x7dc7a0d9)\n      dup2\n      mstore\n      sub(shl(0xa0, 0x01), 0x01)\n        /* \"#utility.yul\":6486:6518   */\n      dup5\n      and\n        /* \"@openzeppelin/contracts/token/ERC20/ERC20.sol\":10676:10736  ERC20InsufficientAllowance(spender, currentAllowance, value) */\n      0x04\n      dup3\n      add\n        /* \"#utility.yul\":6468:6519   */\n      mstore\n        /* \"#utility.yul\":6535:6553   */\n      0x24\n      dup2\n      add\n        /* \"#utility.yul\":6528:6562   */\n      dup3\n      swap1\n      mstore\n        /* \"#utility.yul\":6578:6596   */\n      0x44\n      dup2\n      add\n        /* \"#utility.yul\":6571:6605   */\n      dup4\n      swap1\n      mstore\n        /* \"#utility.yul\":6441:6459   */\n      0x64\n      add\n        /* \"@openzeppelin/contracts/token/ERC20/ERC20.sol\":10676:10736  ERC20InsufficientAllowance(spender, currentAllowance, value) */\n      tag_185\n        /* \"#utility.yul\":6266:6611   */\n      jump\n        /* \"@openzeppelin/contracts/token/ERC20/ERC20.sol\":10621:10751  if (currentAllowance < value) {... */\n    tag_320:\n        /* \"@openzeppelin/contracts/token/ERC20/ERC20.sol\":10792:10849  _approve(owner, spender, currentAllowance - value, false) */\n      tag_323\n        /* \"@openzeppelin/contracts/token/ERC20/ERC20.sol\":10801:10806  owner */\n      dup5\n        /* \"@openzeppelin/contracts/token/ERC20/ERC20.sol\":10808:10815  spender */\n      dup5\n        /* \"@openzeppelin/contracts/token/ERC20/ERC20.sol\":10836:10841  value */\n      dup5\n        /* \"@openzeppelin/contracts/token/ERC20/ERC20.sol\":10817:10833  currentAllowance */\n      dup5\n        /* \"@openzeppelin/contracts/token/ERC20/ERC20.sol\":10817:10841  currentAllowance - value */\n      sub\n        /* \"@openzeppelin/contracts/token/ERC20/ERC20.sol\":10843:10848  false */\n      0x00\n        /* \"@openzeppelin/contracts/token/ERC20/ERC20.sol\":10792:10800  _approve */\n      tag_316\n        /* \"@openzeppelin/contracts/token/ERC20/ERC20.sol\":10792:10849  _approve(owner, spender, currentAllowance - value, false) */\n      jump\t// in\n    tag_323:\n        /* \"@openzeppelin/contracts/token/ERC20/ERC20.sol\":10493:10880  {... */\n      pop\n        /* \"@openzeppelin/contracts/token/ERC20/ERC20.sol\":10404:10880  function _spendAllowance(address owner, address spender, uint256 value) internal virtual {... */\n      pop\n      pop\n      pop\n      jump\t// out\n        /* \"CYBCC.sol\":6442:7321  function _transfer(... */\n    tag_212:\n        /* \"CYBCC.sol\":6135:6146  tradingOpen */\n      sload(0x18)\n        /* \"CYBCC.sol\":6585:6591  sender */\n      dup4\n      swap1\n        /* \"CYBCC.sol\":6593:6602  recipient */\n      dup4\n      swap1\n        /* \"CYBCC.sol\":6135:6146  tradingOpen */\n      0xff\n      and\n        /* \"CYBCC.sol\":6130:6419  if (!tradingOpen) {... */\n      tag_325\n      jumpi\n      sub(shl(0xa0, 0x01), 0x01)\n        /* \"CYBCC.sol\":6170:6187  isWhitelisted[to] */\n      dup2\n      and\n      0x00\n      swap1\n      dup2\n      mstore\n        /* \"CYBCC.sol\":6170:6183  isWhitelisted */\n      0x08\n        /* \"CYBCC.sol\":6170:6187  isWhitelisted[to] */\n      0x20\n      mstore\n      0x40\n      swap1\n      keccak256\n      sload\n      0xff\n      and\n        /* \"CYBCC.sol\":6162:6215  require(isWhitelisted[to], \"Trading not yet enabled\") */\n      tag_326\n      jumpi\n      mload(0x40)\n      shl(0xe5, 0x461bcd)\n      dup2\n      mstore\n        /* \"#utility.yul\":6818:6820   */\n      0x20\n        /* \"CYBCC.sol\":6162:6215  require(isWhitelisted[to], \"Trading not yet enabled\") */\n      0x04\n      dup3\n      add\n        /* \"#utility.yul\":6800:6821   */\n      mstore\n        /* \"#utility.yul\":6857:6859   */\n      0x17\n        /* \"#utility.yul\":6837:6855   */\n      0x24\n      dup3\n      add\n        /* \"#utility.yul\":6830:6860   */\n      mstore\n        /* \"#utility.yul\":6896:6921   */\n      0x54726164696e67206e6f742079657420656e61626c6564000000000000000000\n        /* \"#utility.yul\":6876:6894   */\n      0x44\n      dup3\n      add\n        /* \"#utility.yul\":6869:6922   */\n      mstore\n        /* \"#utility.yul\":6939:6957   */\n      0x64\n      add\n        /* \"CYBCC.sol\":6162:6215  require(isWhitelisted[to], \"Trading not yet enabled\") */\n      tag_185\n        /* \"#utility.yul\":6616:6963   */\n      jump\n        /* \"CYBCC.sol\":6162:6215  require(isWhitelisted[to], \"Trading not yet enabled\") */\n    tag_326:\n        /* \"CYBCC.sol\":6130:6419  if (!tradingOpen) {... */\n      jump(tag_332)\n    tag_325:\n        /* \"CYBCC.sol\":6252:6263  launchBlock */\n      sload(0x17)\n        /* \"CYBCC.sol\":6252:6267  launchBlock + 3 */\n      tag_330\n      swap1\n        /* \"CYBCC.sol\":6266:6267  3 */\n      0x03\n        /* \"CYBCC.sol\":6252:6267  launchBlock + 3 */\n      tag_193\n      jump\t// in\n    tag_330:\n        /* \"CYBCC.sol\":6236:6248  block.number */\n      number\n        /* \"CYBCC.sol\":6236:6267  block.number <= launchBlock + 3 */\n      gt\n        /* \"CYBCC.sol\":6232:6419  if (block.number <= launchBlock + 3) {... */\n      tag_332\n      jumpi\n      sub(shl(0xa0, 0x01), 0x01)\n        /* \"CYBCC.sol\":6352:6369  isWhitelisted[to] */\n      dup2\n      and\n      0x00\n      swap1\n      dup2\n      mstore\n        /* \"CYBCC.sol\":6352:6365  isWhitelisted */\n      0x08\n        /* \"CYBCC.sol\":6352:6369  isWhitelisted[to] */\n      0x20\n      mstore\n      0x40\n      swap1\n      keccak256\n      sload\n      0xff\n      and\n        /* \"CYBCC.sol\":6344:6408  require(isWhitelisted[to], \"Launch protection: not whitelisted\") */\n      tag_332\n      jumpi\n      mload(0x40)\n      shl(0xe5, 0x461bcd)\n      dup2\n      mstore\n        /* \"#utility.yul\":7170:7172   */\n      0x20\n        /* \"CYBCC.sol\":6344:6408  require(isWhitelisted[to], \"Launch protection: not whitelisted\") */\n      0x04\n      dup3\n      add\n        /* \"#utility.yul\":7152:7173   */\n      mstore\n        /* \"#utility.yul\":7209:7211   */\n      0x22\n        /* \"#utility.yul\":7189:7207   */\n      0x24\n      dup3\n      add\n        /* \"#utility.yul\":7182:7212   */\n      mstore\n        /* \"#utility.yul\":7248:7282   */\n      0x4c61756e63682070726f74656374696f6e3a206e6f742077686974656c697374\n        /* \"#utility.yul\":7228:7246   */\n      0x44\n      dup3\n      add\n        /* \"#utility.yul\":7221:7283   */\n      mstore\n      shl(0xf2, 0x1959)\n        /* \"#utility.yul\":7299:7317   */\n      0x64\n      dup3\n      add\n        /* \"#utility.yul\":7292:7324   */\n      mstore\n        /* \"#utility.yul\":7341:7360   */\n      0x84\n      add\n        /* \"CYBCC.sol\":6344:6408  require(isWhitelisted[to], \"Launch protection: not whitelisted\") */\n      tag_185\n        /* \"#utility.yul\":6968:7366   */\n      jump\n        /* \"CYBCC.sol\":6344:6408  require(isWhitelisted[to], \"Launch protection: not whitelisted\") */\n    tag_332:\n      sub(shl(0xa0, 0x01), 0x01)\n        /* \"CYBCC.sol\":6622:6642  sender != address(0) */\n      dup6\n      and\n        /* \"CYBCC.sol\":6614:6684  require(sender != address(0), \"ERC20: transfer from the zero address\") */\n      tag_336\n      jumpi\n      mload(0x40)\n      shl(0xe5, 0x461bcd)\n      dup2\n      mstore\n        /* \"#utility.yul\":7573:7575   */\n      0x20\n        /* \"CYBCC.sol\":6614:6684  require(sender != address(0), \"ERC20: transfer from the zero address\") */\n      0x04\n      dup3\n      add\n        /* \"#utility.yul\":7555:7576   */\n      mstore\n        /* \"#utility.yul\":7612:7614   */\n      0x25\n        /* \"#utility.yul\":7592:7610   */\n      0x24\n      dup3\n      add\n        /* \"#utility.yul\":7585:7615   */\n      mstore\n        /* \"#utility.yul\":7651:7685   */\n      0x45524332303a207472616e736665722066726f6d20746865207a65726f206164\n        /* \"#utility.yul\":7631:7649   */\n      0x44\n      dup3\n      add\n        /* \"#utility.yul\":7624:7686   */\n      mstore\n      shl(0xd8, 0x6472657373)\n        /* \"#utility.yul\":7702:7720   */\n      0x64\n      dup3\n      add\n        /* \"#utility.yul\":7695:7730   */\n      mstore\n        /* \"#utility.yul\":7747:7766   */\n      0x84\n      add\n        /* \"CYBCC.sol\":6614:6684  require(sender != address(0), \"ERC20: transfer from the zero address\") */\n      tag_185\n        /* \"#utility.yul\":7371:7772   */\n      jump\n        /* \"CYBCC.sol\":6614:6684  require(sender != address(0), \"ERC20: transfer from the zero address\") */\n    tag_336:\n      sub(shl(0xa0, 0x01), 0x01)\n        /* \"CYBCC.sol\":6702:6725  recipient != address(0) */\n      dup5\n      and\n        /* \"CYBCC.sol\":6694:6765  require(recipient != address(0), \"ERC20: transfer to the zero address\") */\n      tag_339\n      jumpi\n      mload(0x40)\n      shl(0xe5, 0x461bcd)\n      dup2\n      mstore\n        /* \"#utility.yul\":7979:7981   */\n      0x20\n        /* \"CYBCC.sol\":6694:6765  require(recipient != address(0), \"ERC20: transfer to the zero address\") */\n      0x04\n      dup3\n      add\n        /* \"#utility.yul\":7961:7982   */\n      mstore\n        /* \"#utility.yul\":8018:8020   */\n      0x23\n        /* \"#utility.yul\":7998:8016   */\n      0x24\n      dup3\n      add\n        /* \"#utility.yul\":7991:8021   */\n      mstore\n        /* \"#utility.yul\":8057:8091   */\n      0x45524332303a207472616e7366657220746f20746865207a65726f2061646472\n        /* \"#utility.yul\":8037:8055   */\n      0x44\n      dup3\n      add\n        /* \"#utility.yul\":8030:8092   */\n      mstore\n      shl(0xe8, 0x657373)\n        /* \"#utility.yul\":8108:8126   */\n      0x64\n      dup3\n      add\n        /* \"#utility.yul\":8101:8134   */\n      mstore\n        /* \"#utility.yul\":8151:8170   */\n      0x84\n      add\n        /* \"CYBCC.sol\":6694:6765  require(recipient != address(0), \"ERC20: transfer to the zero address\") */\n      tag_185\n        /* \"#utility.yul\":7777:8176   */\n      jump\n        /* \"CYBCC.sol\":6694:6765  require(recipient != address(0), \"ERC20: transfer to the zero address\") */\n    tag_339:\n        /* \"CYBCC.sol\":6775:6796  uint256 senderBalance */\n      0x00\n        /* \"CYBCC.sol\":6799:6816  balanceOf(sender) */\n      tag_342\n        /* \"CYBCC.sol\":6809:6815  sender */\n      dup7\n        /* \"CYBCC.sol\":6799:6808  balanceOf */\n      tag_116\n        /* \"CYBCC.sol\":6799:6816  balanceOf(sender) */\n      jump\t// in\n    tag_342:\n        /* \"CYBCC.sol\":6775:6816  uint256 senderBalance = balanceOf(sender) */\n      swap1\n      pop\n        /* \"CYBCC.sol\":6864:6870  amount */\n      dup4\n        /* \"CYBCC.sol\":6847:6860  senderBalance */\n      dup2\n        /* \"CYBCC.sol\":6847:6870  senderBalance >= amount */\n      lt\n      iszero\n        /* \"CYBCC.sol\":6826:6934  require(... */\n      tag_343\n      jumpi\n      mload(0x40)\n      shl(0xe5, 0x461bcd)\n      dup2\n      mstore\n        /* \"#utility.yul\":8383:8385   */\n      0x20\n        /* \"CYBCC.sol\":6826:6934  require(... */\n      0x04\n      dup3\n      add\n        /* \"#utility.yul\":8365:8386   */\n      mstore\n        /* \"#utility.yul\":8422:8424   */\n      0x26\n        /* \"#utility.yul\":8402:8420   */\n      0x24\n      dup3\n      add\n        /* \"#utility.yul\":8395:8425   */\n      mstore\n        /* \"#utility.yul\":8461:8495   */\n      0x45524332303a207472616e7366657220616d6f756e7420657863656564732062\n        /* \"#utility.yul\":8441:8459   */\n      0x44\n      dup3\n      add\n        /* \"#utility.yul\":8434:8496   */\n      mstore\n      shl(0xd0, 0x616c616e6365)\n        /* \"#utility.yul\":8512:8530   */\n      0x64\n      dup3\n      add\n        /* \"#utility.yul\":8505:8541   */\n      mstore\n        /* \"#utility.yul\":8558:8577   */\n      0x84\n      add\n        /* \"CYBCC.sol\":6826:6934  require(... */\n      tag_185\n        /* \"#utility.yul\":8181:8583   */\n      jump\n        /* \"CYBCC.sol\":6826:6934  require(... */\n    tag_343:\n      sub(shl(0xa0, 0x01), 0x01)\n        /* \"CYBCC.sol\":2664:2691  _isExcludedFromFee[account] */\n      dup6\n      and\n        /* \"CYBCC.sol\":2641:2645  bool */\n      0x00\n        /* \"CYBCC.sol\":2664:2691  _isExcludedFromFee[account] */\n      swap1\n      dup2\n      mstore\n        /* \"CYBCC.sol\":2664:2682  _isExcludedFromFee */\n      0x07\n        /* \"CYBCC.sol\":2664:2691  _isExcludedFromFee[account] */\n      0x20\n      mstore\n      0x40\n      swap1\n      keccak256\n      sload\n      0xff\n      and\n        /* \"CYBCC.sol\":6945:7128  if (!isExcludedFromFee(recipient)) {... */\n      tag_350\n      jumpi\n        /* \"CYBCC.sol\":7052:7067  maxWalletAmount */\n      sload(0x16)\n        /* \"CYBCC.sol\":7042:7048  amount */\n      dup5\n        /* \"CYBCC.sol\":7019:7039  balanceOf(recipient) */\n      tag_348\n        /* \"CYBCC.sol\":7029:7038  recipient */\n      dup8\n        /* \"CYBCC.sol\":7019:7028  balanceOf */\n      tag_116\n        /* \"CYBCC.sol\":7019:7039  balanceOf(recipient) */\n      jump\t// in\n    tag_348:\n        /* \"CYBCC.sol\":7019:7048  balanceOf(recipient) + amount */\n      tag_349\n      swap2\n      swap1\n      tag_193\n      jump\t// in\n    tag_349:\n        /* \"CYBCC.sol\":7019:7067  balanceOf(recipient) + amount <= maxWalletAmount */\n      gt\n      iszero\n        /* \"CYBCC.sol\":6994:7117  require(... */\n      tag_350\n      jumpi\n      mload(0x40)\n      shl(0xe5, 0x461bcd)\n      dup2\n      mstore\n        /* \"#utility.yul\":8790:8792   */\n      0x20\n        /* \"CYBCC.sol\":6994:7117  require(... */\n      0x04\n      dup3\n      add\n        /* \"#utility.yul\":8772:8793   */\n      mstore\n        /* \"#utility.yul\":8829:8831   */\n      0x10\n        /* \"#utility.yul\":8809:8827   */\n      0x24\n      dup3\n      add\n        /* \"#utility.yul\":8802:8832   */\n      mstore\n      shl(0x80, 0x5768616c652064657465637465642121)\n        /* \"#utility.yul\":8848:8866   */\n      0x44\n      dup3\n      add\n        /* \"#utility.yul\":8841:8887   */\n      mstore\n        /* \"#utility.yul\":8904:8922   */\n      0x64\n      add\n        /* \"CYBCC.sol\":6994:7117  require(... */\n      tag_185\n        /* \"#utility.yul\":8588:8928   */\n      jump\n        /* \"CYBCC.sol\":6994:7117  require(... */\n    tag_350:\n        /* \"CYBCC.sol\":7174:7185  pairAddress */\n      sload(0x15)\n        /* \"CYBCC.sol\":7137:7149  bool takeFee */\n      0x00\n      swap1\n      sub(shl(0xa0, 0x01), 0x01)\n        /* \"CYBCC.sol\":7164:7185  sender == pairAddress */\n      dup9\n      dup2\n      and\n        /* \"CYBCC.sol\":7174:7185  pairAddress */\n      swap2\n      and\n        /* \"CYBCC.sol\":7164:7185  sender == pairAddress */\n      eq\n      dup1\n        /* \"CYBCC.sol\":7164:7213  sender == pairAddress || recipient == pairAddress */\n      tag_353\n      jumpi\n      pop\n        /* \"CYBCC.sol\":7202:7213  pairAddress */\n      sload(0x15)\n      sub(shl(0xa0, 0x01), 0x01)\n        /* \"CYBCC.sol\":7189:7213  recipient == pairAddress */\n      dup8\n      dup2\n      and\n        /* \"CYBCC.sol\":7202:7213  pairAddress */\n      swap2\n      and\n        /* \"CYBCC.sol\":7189:7213  recipient == pairAddress */\n      eq\n        /* \"CYBCC.sol\":7164:7213  sender == pairAddress || recipient == pairAddress */\n    tag_353:\n        /* \"CYBCC.sol\":7160:7254  if (sender == pairAddress || recipient == pairAddress) {... */\n      iszero\n      tag_354\n      jumpi\n      pop\n        /* \"CYBCC.sol\":7239:7243  true */\n      0x01\n        /* \"CYBCC.sol\":7160:7254  if (sender == pairAddress || recipient == pairAddress) {... */\n    tag_354:\n        /* \"CYBCC.sol\":7264:7314  _tokenTransfer(sender, recipient, amount, takeFee) */\n      tag_355\n        /* \"CYBCC.sol\":7279:7285  sender */\n      dup8\n        /* \"CYBCC.sol\":7287:7296  recipient */\n      dup8\n        /* \"CYBCC.sol\":7298:7304  amount */\n      dup8\n        /* \"CYBCC.sol\":7306:7313  takeFee */\n      dup5\n        /* \"CYBCC.sol\":7264:7278  _tokenTransfer */\n      tag_356\n        /* \"CYBCC.sol\":7264:7314  _tokenTransfer(sender, recipient, amount, takeFee) */\n      jump\t// in\n    tag_355:\n        /* \"CYBCC.sol\":6604:7321  {... */\n      pop\n      pop\n        /* \"CYBCC.sol\":6442:7321  function _transfer(... */\n      pop\n      pop\n      pop\n      pop\n      pop\n      jump\t// out\n        /* \"CYBCC.sol\":4819:5128  function tokenFromReflection(uint256 rAmount)... */\n    tag_237:\n        /* \"CYBCC.sol\":4911:4918  uint256 */\n      0x00\n        /* \"CYBCC.sol\":4966:4973  _rTotal */\n      sload(0x0d)\n        /* \"CYBCC.sol\":4955:4962  rAmount */\n      dup3\n        /* \"CYBCC.sol\":4955:4973  rAmount <= _rTotal */\n      gt\n      iszero\n        /* \"CYBCC.sol\":4934:5041  require(... */\n      tag_358\n      jumpi\n      mload(0x40)\n      shl(0xe5, 0x461bcd)\n      dup2\n      mstore\n        /* \"#utility.yul\":9135:9137   */\n      0x20\n        /* \"CYBCC.sol\":4934:5041  require(... */\n      0x04\n      dup3\n      add\n        /* \"#utility.yul\":9117:9138   */\n      mstore\n        /* \"#utility.yul\":9174:9176   */\n      0x2a\n        /* \"#utility.yul\":9154:9172   */\n      0x24\n      dup3\n      add\n        /* \"#utility.yul\":9147:9177   */\n      mstore\n        /* \"#utility.yul\":9213:9247   */\n      0x416d6f756e74206d757374206265206c657373207468616e20746f74616c2072\n        /* \"#utility.yul\":9193:9211   */\n      0x44\n      dup3\n      add\n        /* \"#utility.yul\":9186:9248   */\n      mstore\n      shl(0xb0, 0x65666c656374696f6e73)\n        /* \"#utility.yul\":9264:9282   */\n      0x64\n      dup3\n      add\n        /* \"#utility.yul\":9257:9297   */\n      mstore\n        /* \"#utility.yul\":9314:9333   */\n      0x84\n      add\n        /* \"CYBCC.sol\":4934:5041  require(... */\n      tag_185\n        /* \"#utility.yul\":8933:9339   */\n      jump\n        /* \"CYBCC.sol\":4934:5041  require(... */\n    tag_358:\n        /* \"CYBCC.sol\":5051:5070  uint256 currentRate */\n      0x00\n        /* \"CYBCC.sol\":5073:5083  _getRate() */\n      tag_361\n        /* \"CYBCC.sol\":5073:5081  _getRate */\n      tag_310\n        /* \"CYBCC.sol\":5073:5083  _getRate() */\n      jump\t// in\n    tag_361:\n        /* \"CYBCC.sol\":5051:5083  uint256 currentRate = _getRate() */\n      swap1\n      pop\n        /* \"CYBCC.sol\":5100:5121  rAmount / currentRate */\n      tag_362\n        /* \"CYBCC.sol\":5051:5083  uint256 currentRate = _getRate() */\n      dup2\n        /* \"CYBCC.sol\":5100:5107  rAmount */\n      dup5\n        /* \"CYBCC.sol\":5100:5121  rAmount / currentRate */\n      tag_363\n      jump\t// in\n    tag_362:\n        /* \"CYBCC.sol\":5093:5121  return rAmount / currentRate */\n      swap4\n        /* \"CYBCC.sol\":4819:5128  function tokenFromReflection(uint256 rAmount)... */\n      swap3\n      pop\n      pop\n      pop\n      jump\t// out\n        /* \"CYBCC.sol\":11096:11342  function _getCompleteTaxValue(uint256 tAmount)... */\n    tag_307:\n        /* \"CYBCC.sol\":11189:11196  uint256 */\n      0x00\n        /* \"CYBCC.sol\":11212:11228  uint256 allTaxes */\n      0x00\n        /* \"CYBCC.sol\":11248:11255  _taxFee */\n      sload(0x11)\n        /* \"CYBCC.sol\":11231:11245  _reflectionFee */\n      sload(0x0f)\n        /* \"CYBCC.sol\":11231:11255  _reflectionFee + _taxFee */\n      tag_365\n      swap2\n      swap1\n      tag_193\n      jump\t// in\n    tag_365:\n        /* \"CYBCC.sol\":11212:11255  uint256 allTaxes = _reflectionFee + _taxFee */\n      swap1\n      pop\n        /* \"CYBCC.sol\":11265:11281  uint256 taxValue */\n      0x00\n        /* \"CYBCC.sol\":11307:11310  100 */\n      0x64\n        /* \"CYBCC.sol\":11285:11303  tAmount * allTaxes */\n      tag_366\n        /* \"CYBCC.sol\":11212:11255  uint256 allTaxes = _reflectionFee + _taxFee */\n      dup4\n        /* \"CYBCC.sol\":11285:11292  tAmount */\n      dup7\n        /* \"CYBCC.sol\":11285:11303  tAmount * allTaxes */\n      tag_312\n      jump\t// in\n    tag_366:\n        /* \"CYBCC.sol\":11284:11310  (tAmount * allTaxes) / 100 */\n      tag_367\n      swap2\n      swap1\n      tag_363\n      jump\t// in\n    tag_367:\n        /* \"CYBCC.sol\":11265:11310  uint256 taxValue = (tAmount * allTaxes) / 100 */\n      swap5\n        /* \"CYBCC.sol\":11096:11342  function _getCompleteTaxValue(uint256 tAmount)... */\n      swap4\n      pop\n      pop\n      pop\n      pop\n      jump\t// out\n        /* \"CYBCC.sol\":12146:12304  function _getRate() private view returns (uint256) {... */\n    tag_310:\n        /* \"CYBCC.sol\":12188:12195  uint256 */\n      0x00\n        /* \"CYBCC.sol\":12208:12223  uint256 rSupply */\n      0x00\n        /* \"CYBCC.sol\":12225:12240  uint256 tSupply */\n      0x00\n        /* \"CYBCC.sol\":12244:12263  _getCurrentSupply() */\n      tag_369\n        /* \"CYBCC.sol\":12244:12261  _getCurrentSupply */\n      tag_370\n        /* \"CYBCC.sol\":12244:12263  _getCurrentSupply() */\n      jump\t// in\n    tag_369:\n        /* \"CYBCC.sol\":12207:12263  (uint256 rSupply, uint256 tSupply) = _getCurrentSupply() */\n      swap1\n      swap3\n      pop\n      swap1\n      pop\n        /* \"CYBCC.sol\":12280:12297  rSupply / tSupply */\n      tag_371\n        /* \"CYBCC.sol\":12207:12263  (uint256 rSupply, uint256 tSupply) = _getCurrentSupply() */\n      dup2\n      dup4\n        /* \"CYBCC.sol\":12280:12297  rSupply / tSupply */\n      tag_363\n      jump\t// in\n    tag_371:\n        /* \"CYBCC.sol\":12273:12297  return rSupply / tSupply */\n      swap3\n      pop\n      pop\n      pop\n        /* \"CYBCC.sol\":12146:12304  function _getRate() private view returns (uint256) {... */\n      swap1\n      jump\t// out\n        /* \"@openzeppelin/contracts/token/ERC20/ERC20.sol\":9690:10122  function _approve(address owner, address spender, uint256 value, bool emitEvent) internal virtual {... */\n    tag_316:\n      sub(shl(0xa0, 0x01), 0x01)\n        /* \"@openzeppelin/contracts/token/ERC20/ERC20.sol\":9802:9821  owner == address(0) */\n      dup5\n      and\n        /* \"@openzeppelin/contracts/token/ERC20/ERC20.sol\":9798:9887  if (owner == address(0)) {... */\n      tag_373\n      jumpi\n        /* \"@openzeppelin/contracts/token/ERC20/ERC20.sol\":9844:9876  ERC20InvalidApprover(address(0)) */\n      mload(0x40)\n      shl(0xe0, 0xe602df05)\n      dup2\n      mstore\n        /* \"@openzeppelin/contracts/token/ERC20/ERC20.sol\":9873:9874  0 */\n      0x00\n        /* \"@openzeppelin/contracts/token/ERC20/ERC20.sol\":9844:9876  ERC20InvalidApprover(address(0)) */\n      0x04\n      dup3\n      add\n        /* \"#utility.yul\":1671:1722   */\n      mstore\n        /* \"#utility.yul\":1644:1662   */\n      0x24\n      add\n        /* \"@openzeppelin/contracts/token/ERC20/ERC20.sol\":9844:9876  ERC20InvalidApprover(address(0)) */\n      tag_185\n        /* \"#utility.yul\":1525:1728   */\n      jump\n        /* \"@openzeppelin/contracts/token/ERC20/ERC20.sol\":9798:9887  if (owner == address(0)) {... */\n    tag_373:\n      sub(shl(0xa0, 0x01), 0x01)\n        /* \"@openzeppelin/contracts/token/ERC20/ERC20.sol\":9900:9921  spender == address(0) */\n      dup4\n      and\n        /* \"@openzeppelin/contracts/token/ERC20/ERC20.sol\":9896:9986  if (spender == address(0)) {... */\n      tag_375\n      jumpi\n        /* \"@openzeppelin/contracts/token/ERC20/ERC20.sol\":9944:9975  ERC20InvalidSpender(address(0)) */\n      mload(0x40)\n      shl(0xe1, 0x4a1406b1)\n      dup2\n      mstore\n        /* \"@openzeppelin/contracts/token/ERC20/ERC20.sol\":9972:9973  0 */\n      0x00\n        /* \"@openzeppelin/contracts/token/ERC20/ERC20.sol\":9944:9975  ERC20InvalidSpender(address(0)) */\n      0x04\n      dup3\n      add\n        /* \"#utility.yul\":1671:1722   */\n      mstore\n        /* \"#utility.yul\":1644:1662   */\n      0x24\n      add\n        /* \"@openzeppelin/contracts/token/ERC20/ERC20.sol\":9944:9975  ERC20InvalidSpender(address(0)) */\n      tag_185\n        /* \"#utility.yul\":1525:1728   */\n      jump\n        /* \"@openzeppelin/contracts/token/ERC20/ERC20.sol\":9896:9986  if (spender == address(0)) {... */\n    tag_375:\n      sub(shl(0xa0, 0x01), 0x01)\n        /* \"@openzeppelin/contracts/token/ERC20/ERC20.sol\":9995:10013  _allowances[owner] */\n      dup1\n      dup6\n      and\n      0x00\n      swap1\n      dup2\n      mstore\n        /* \"@openzeppelin/contracts/token/ERC20/ERC20.sol\":9995:10006  _allowances */\n      0x01\n        /* \"@openzeppelin/contracts/token/ERC20/ERC20.sol\":9995:10013  _allowances[owner] */\n      0x20\n      swap1\n      dup2\n      mstore\n      0x40\n      dup1\n      dup4\n      keccak256\n        /* \"@openzeppelin/contracts/token/ERC20/ERC20.sol\":9995:10022  _allowances[owner][spender] */\n      swap4\n      dup8\n      and\n      dup4\n      mstore\n      swap3\n      swap1\n      mstore\n      keccak256\n        /* \"@openzeppelin/contracts/token/ERC20/ERC20.sol\":9995:10030  _allowances[owner][spender] = value */\n      dup3\n      swap1\n      sstore\n        /* \"@openzeppelin/contracts/token/ERC20/ERC20.sol\":10040:10116  if (emitEvent) {... */\n      dup1\n      iszero\n      tag_323\n      jumpi\n        /* \"@openzeppelin/contracts/token/ERC20/ERC20.sol\":10090:10097  spender */\n      dup3\n      sub(shl(0xa0, 0x01), 0x01)\n        /* \"@openzeppelin/contracts/token/ERC20/ERC20.sol\":10074:10105  Approval(owner, spender, value) */\n      and\n        /* \"@openzeppelin/contracts/token/ERC20/ERC20.sol\":10083:10088  owner */\n      dup5\n      sub(shl(0xa0, 0x01), 0x01)\n        /* \"@openzeppelin/contracts/token/ERC20/ERC20.sol\":10074:10105  Approval(owner, spender, value) */\n      and\n      0x8c5be1e5ebec7d5bd14f71427d1e84f3dd0314c0f7b2291e5b200ac8c7c3b925\n        /* \"@openzeppelin/contracts/token/ERC20/ERC20.sol\":10099:10104  value */\n      dup5\n        /* \"@openzeppelin/contracts/token/ERC20/ERC20.sol\":10074:10105  Approval(owner, spender, value) */\n      mload(0x40)\n      tag_378\n      swap2\n        /* \"#utility.yul\":1489:1514   */\n      dup2\n      mstore\n        /* \"#utility.yul\":1477:1479   */\n      0x20\n        /* \"#utility.yul\":1462:1480   */\n      add\n      swap1\n        /* \"#utility.yul\":1343:1520   */\n      jump\n        /* \"@openzeppelin/contracts/token/ERC20/ERC20.sol\":10074:10105  Approval(owner, spender, value) */\n    tag_378:\n      mload(0x40)\n      dup1\n      swap2\n      sub\n      swap1\n      log3\n        /* \"@openzeppelin/contracts/token/ERC20/ERC20.sol\":9690:10122  function _approve(address owner, address spender, uint256 value, bool emitEvent) internal virtual {... */\n      pop\n      pop\n      pop\n      pop\n      jump\t// out\n        /* \"CYBCC.sol\":7327:8096  function _tokenTransfer(... */\n    tag_356:\n        /* \"CYBCC.sol\":7467:7474  takeFee */\n      dup1\n        /* \"CYBCC.sol\":7462:7515  if (!takeFee) {... */\n      tag_381\n      jumpi\n        /* \"CYBCC.sol\":7490:7504  removeAllFee() */\n      tag_381\n        /* \"CYBCC.sol\":7490:7502  removeAllFee */\n      tag_382\n        /* \"CYBCC.sol\":7490:7504  removeAllFee() */\n      jump\t// in\n    tag_381:\n      sub(shl(0xa0, 0x01), 0x01)\n        /* \"CYBCC.sol\":7529:7546  _isExcluded[from] */\n      dup5\n      and\n      0x00\n      swap1\n      dup2\n      mstore\n        /* \"CYBCC.sol\":7529:7540  _isExcluded */\n      0x09\n        /* \"CYBCC.sol\":7529:7546  _isExcluded[from] */\n      0x20\n      mstore\n      0x40\n      swap1\n      keccak256\n      sload\n      0xff\n      and\n        /* \"CYBCC.sol\":7529:7566  _isExcluded[from] && !_isExcluded[to] */\n      dup1\n      iszero\n      tag_383\n      jumpi\n      pop\n      sub(shl(0xa0, 0x01), 0x01)\n        /* \"CYBCC.sol\":7551:7566  _isExcluded[to] */\n      dup4\n      and\n      0x00\n      swap1\n      dup2\n      mstore\n        /* \"CYBCC.sol\":7551:7562  _isExcluded */\n      0x09\n        /* \"CYBCC.sol\":7551:7566  _isExcluded[to] */\n      0x20\n      mstore\n      0x40\n      swap1\n      keccak256\n      sload\n      0xff\n      and\n        /* \"CYBCC.sol\":7550:7566  !_isExcluded[to] */\n      iszero\n        /* \"CYBCC.sol\":7529:7566  _isExcluded[from] && !_isExcluded[to] */\n    tag_383:\n        /* \"CYBCC.sol\":7525:8026  if (_isExcluded[from] && !_isExcluded[to]) {... */\n      iszero\n      tag_384\n      jumpi\n        /* \"CYBCC.sol\":7582:7620  _transferFromExcluded(from, to, value) */\n      tag_385\n        /* \"CYBCC.sol\":7604:7608  from */\n      dup5\n        /* \"CYBCC.sol\":7610:7612  to */\n      dup5\n        /* \"CYBCC.sol\":7614:7619  value */\n      dup5\n        /* \"CYBCC.sol\":7582:7603  _transferFromExcluded */\n      tag_386\n        /* \"CYBCC.sol\":7582:7620  _transferFromExcluded(from, to, value) */\n      jump\t// in\n    tag_385:\n        /* \"CYBCC.sol\":7525:8026  if (_isExcluded[from] && !_isExcluded[to]) {... */\n      jump(tag_403)\n    tag_384:\n      sub(shl(0xa0, 0x01), 0x01)\n        /* \"CYBCC.sol\":7642:7659  _isExcluded[from] */\n      dup5\n      and\n      0x00\n      swap1\n      dup2\n      mstore\n        /* \"CYBCC.sol\":7642:7653  _isExcluded */\n      0x09\n        /* \"CYBCC.sol\":7642:7659  _isExcluded[from] */\n      0x20\n      mstore\n      0x40\n      swap1\n      keccak256\n      sload\n      0xff\n      and\n        /* \"CYBCC.sol\":7641:7659  !_isExcluded[from] */\n      iszero\n        /* \"CYBCC.sol\":7641:7678  !_isExcluded[from] && _isExcluded[to] */\n      dup1\n      iszero\n      tag_388\n      jumpi\n      pop\n      sub(shl(0xa0, 0x01), 0x01)\n        /* \"CYBCC.sol\":7663:7678  _isExcluded[to] */\n      dup4\n      and\n      0x00\n      swap1\n      dup2\n      mstore\n        /* \"CYBCC.sol\":7663:7674  _isExcluded */\n      0x09\n        /* \"CYBCC.sol\":7663:7678  _isExcluded[to] */\n      0x20\n      mstore\n      0x40\n      swap1\n      keccak256\n      sload\n      0xff\n      and\n        /* \"CYBCC.sol\":7641:7678  !_isExcluded[from] && _isExcluded[to] */\n    tag_388:\n        /* \"CYBCC.sol\":7637:8026  if (!_isExcluded[from] && _isExcluded[to]) {... */\n      iszero\n      tag_389\n      jumpi\n        /* \"CYBCC.sol\":7694:7730  _transferToExcluded(from, to, value) */\n      tag_385\n        /* \"CYBCC.sol\":7714:7718  from */\n      dup5\n        /* \"CYBCC.sol\":7720:7722  to */\n      dup5\n        /* \"CYBCC.sol\":7724:7729  value */\n      dup5\n        /* \"CYBCC.sol\":7694:7713  _transferToExcluded */\n      tag_391\n        /* \"CYBCC.sol\":7694:7730  _transferToExcluded(from, to, value) */\n      jump\t// in\n        /* \"CYBCC.sol\":7637:8026  if (!_isExcluded[from] && _isExcluded[to]) {... */\n    tag_389:\n      sub(shl(0xa0, 0x01), 0x01)\n        /* \"CYBCC.sol\":7752:7769  _isExcluded[from] */\n      dup5\n      and\n      0x00\n      swap1\n      dup2\n      mstore\n        /* \"CYBCC.sol\":7752:7763  _isExcluded */\n      0x09\n        /* \"CYBCC.sol\":7752:7769  _isExcluded[from] */\n      0x20\n      mstore\n      0x40\n      swap1\n      keccak256\n      sload\n      0xff\n      and\n        /* \"CYBCC.sol\":7751:7769  !_isExcluded[from] */\n      iszero\n        /* \"CYBCC.sol\":7751:7789  !_isExcluded[from] && !_isExcluded[to] */\n      dup1\n      iszero\n      tag_393\n      jumpi\n      pop\n      sub(shl(0xa0, 0x01), 0x01)\n        /* \"CYBCC.sol\":7774:7789  _isExcluded[to] */\n      dup4\n      and\n      0x00\n      swap1\n      dup2\n      mstore\n        /* \"CYBCC.sol\":7774:7785  _isExcluded */\n      0x09\n        /* \"CYBCC.sol\":7774:7789  _isExcluded[to] */\n      0x20\n      mstore\n      0x40\n      swap1\n      keccak256\n      sload\n      0xff\n      and\n        /* \"CYBCC.sol\":7773:7789  !_isExcluded[to] */\n      iszero\n        /* \"CYBCC.sol\":7751:7789  !_isExcluded[from] && !_isExcluded[to] */\n    tag_393:\n        /* \"CYBCC.sol\":7747:8026  if (!_isExcluded[from] && !_isExcluded[to]) {... */\n      iszero\n      tag_394\n      jumpi\n        /* \"CYBCC.sol\":7805:7839  _transferStandard(from, to, value) */\n      tag_385\n        /* \"CYBCC.sol\":7823:7827  from */\n      dup5\n        /* \"CYBCC.sol\":7829:7831  to */\n      dup5\n        /* \"CYBCC.sol\":7833:7838  value */\n      dup5\n        /* \"CYBCC.sol\":7805:7822  _transferStandard */\n      tag_396\n        /* \"CYBCC.sol\":7805:7839  _transferStandard(from, to, value) */\n      jump\t// in\n        /* \"CYBCC.sol\":7747:8026  if (!_isExcluded[from] && !_isExcluded[to]) {... */\n    tag_394:\n      sub(shl(0xa0, 0x01), 0x01)\n        /* \"CYBCC.sol\":7860:7877  _isExcluded[from] */\n      dup5\n      and\n      0x00\n      swap1\n      dup2\n      mstore\n        /* \"CYBCC.sol\":7860:7871  _isExcluded */\n      0x09\n        /* \"CYBCC.sol\":7860:7877  _isExcluded[from] */\n      0x20\n      mstore\n      0x40\n      swap1\n      keccak256\n      sload\n      0xff\n      and\n        /* \"CYBCC.sol\":7860:7896  _isExcluded[from] && _isExcluded[to] */\n      dup1\n      iszero\n      tag_398\n      jumpi\n      pop\n      sub(shl(0xa0, 0x01), 0x01)\n        /* \"CYBCC.sol\":7881:7896  _isExcluded[to] */\n      dup4\n      and\n      0x00\n      swap1\n      dup2\n      mstore\n        /* \"CYBCC.sol\":7881:7892  _isExcluded */\n      0x09\n        /* \"CYBCC.sol\":7881:7896  _isExcluded[to] */\n      0x20\n      mstore\n      0x40\n      swap1\n      keccak256\n      sload\n      0xff\n      and\n        /* \"CYBCC.sol\":7860:7896  _isExcluded[from] && _isExcluded[to] */\n    tag_398:\n        /* \"CYBCC.sol\":7856:8026  if (_isExcluded[from] && _isExcluded[to]) {... */\n      iszero\n      tag_399\n      jumpi\n        /* \"CYBCC.sol\":7912:7950  _transferBothExcluded(from, to, value) */\n      tag_385\n        /* \"CYBCC.sol\":7934:7938  from */\n      dup5\n        /* \"CYBCC.sol\":7940:7942  to */\n      dup5\n        /* \"CYBCC.sol\":7944:7949  value */\n      dup5\n        /* \"CYBCC.sol\":7912:7933  _transferBothExcluded */\n      tag_401\n        /* \"CYBCC.sol\":7912:7950  _transferBothExcluded(from, to, value) */\n      jump\t// in\n        /* \"CYBCC.sol\":7856:8026  if (_isExcluded[from] && _isExcluded[to]) {... */\n    tag_399:\n        /* \"CYBCC.sol\":7981:8015  _transferStandard(from, to, value) */\n      tag_403\n        /* \"CYBCC.sol\":7999:8003  from */\n      dup5\n        /* \"CYBCC.sol\":8005:8007  to */\n      dup5\n        /* \"CYBCC.sol\":8009:8014  value */\n      dup5\n        /* \"CYBCC.sol\":7981:7998  _transferStandard */\n      tag_396\n        /* \"CYBCC.sol\":7981:8015  _transferStandard(from, to, value) */\n      jump\t// in\n    tag_403:\n        /* \"CYBCC.sol\":8041:8048  takeFee */\n      dup1\n        /* \"CYBCC.sol\":8036:8090  if (!takeFee) {... */\n      tag_323\n      jumpi\n        /* \"CYBCC.sol\":8064:8079  restoreAllFee() */\n      tag_323\n        /* \"CYBCC.sol\":8399:8421  _previousReflectionFee */\n      sload(0x10)\n        /* \"CYBCC.sol\":8382:8396  _reflectionFee */\n      0x0f\n        /* \"CYBCC.sol\":8382:8421  _reflectionFee = _previousReflectionFee */\n      sstore\n        /* \"CYBCC.sol\":8441:8456  _previousTaxFee */\n      sload(0x12)\n        /* \"CYBCC.sol\":8431:8438  _taxFee */\n      0x11\n        /* \"CYBCC.sol\":8431:8456  _taxFee = _previousTaxFee */\n      sstore\n        /* \"CYBCC.sol\":8339:8463  function restoreAllFee() private {... */\n      jump\n        /* \"CYBCC.sol\":12310:12952  function _getCurrentSupply() private view returns (uint256, uint256) {... */\n    tag_370:\n        /* \"CYBCC.sol\":12407:12414  _rTotal */\n      sload(0x0d)\n        /* \"CYBCC.sol\":12442:12449  _tTotal */\n      sload(0x0c)\n        /* \"CYBCC.sol\":12361:12368  uint256 */\n      0x00\n      swap2\n      dup3\n      swap2\n      dup3\n        /* \"CYBCC.sol\":12460:12817  for (uint256 i = 0; i < _excluded.length; i++) {... */\n    tag_408:\n        /* \"CYBCC.sol\":12484:12493  _excluded */\n      0x0a\n        /* \"CYBCC.sol\":12484:12500  _excluded.length */\n      sload\n        /* \"CYBCC.sol\":12480:12500  i < _excluded.length */\n      dup2\n      lt\n        /* \"CYBCC.sol\":12460:12817  for (uint256 i = 0; i < _excluded.length; i++) {... */\n      iszero\n      tag_409\n      jumpi\n        /* \"CYBCC.sol\":12566:12573  rSupply */\n      dup3\n        /* \"CYBCC.sol\":12542:12549  _rOwned */\n      0x05\n        /* \"CYBCC.sol\":12542:12563  _rOwned[_excluded[i]] */\n      0x00\n        /* \"CYBCC.sol\":12550:12559  _excluded */\n      0x0a\n        /* \"CYBCC.sol\":12560:12561  i */\n      dup5\n        /* \"CYBCC.sol\":12550:12562  _excluded[i] */\n      dup2\n      sload\n      dup2\n      lt\n      tag_412\n      jumpi\n      tag_412\n      tag_290\n      jump\t// in\n    tag_412:\n      0x00\n      swap2\n      dup3\n      mstore\n      0x20\n      dup1\n      dup4\n      keccak256\n      swap1\n      swap2\n      add\n      sload\n      sub(shl(0xa0, 0x01), 0x01)\n      and\n        /* \"CYBCC.sol\":12542:12563  _rOwned[_excluded[i]] */\n      dup4\n      mstore\n      dup3\n      add\n      swap3\n      swap1\n      swap3\n      mstore\n      0x40\n      add\n      swap1\n      keccak256\n      sload\n        /* \"CYBCC.sol\":12542:12573  _rOwned[_excluded[i]] > rSupply */\n      gt\n      dup1\n        /* \"CYBCC.sol\":12542:12624  _rOwned[_excluded[i]] > rSupply ||... */\n      tag_414\n      jumpi\n      pop\n        /* \"CYBCC.sol\":12617:12624  tSupply */\n      dup2\n        /* \"CYBCC.sol\":12593:12600  _tOwned */\n      0x06\n        /* \"CYBCC.sol\":12593:12614  _tOwned[_excluded[i]] */\n      0x00\n        /* \"CYBCC.sol\":12601:12610  _excluded */\n      0x0a\n        /* \"CYBCC.sol\":12611:12612  i */\n      dup5\n        /* \"CYBCC.sol\":12601:12613  _excluded[i] */\n      dup2\n      sload\n      dup2\n      lt\n      tag_416\n      jumpi\n      tag_416\n      tag_290\n      jump\t// in\n    tag_416:\n      0x00\n      swap2\n      dup3\n      mstore\n      0x20\n      dup1\n      dup4\n      keccak256\n      swap1\n      swap2\n      add\n      sload\n      sub(shl(0xa0, 0x01), 0x01)\n      and\n        /* \"CYBCC.sol\":12593:12614  _tOwned[_excluded[i]] */\n      dup4\n      mstore\n      dup3\n      add\n      swap3\n      swap1\n      swap3\n      mstore\n      0x40\n      add\n      swap1\n      keccak256\n      sload\n        /* \"CYBCC.sol\":12593:12624  _tOwned[_excluded[i]] > tSupply */\n      gt\n        /* \"CYBCC.sol\":12542:12624  _rOwned[_excluded[i]] > rSupply ||... */\n    tag_414:\n        /* \"CYBCC.sol\":12521:12697  if (... */\n      iszero\n      tag_418\n      jumpi\n        /* \"CYBCC.sol\":12665:12672  _rTotal */\n      sload(0x0d)\n        /* \"CYBCC.sol\":12674:12681  _tTotal */\n      sload(0x0c)\n        /* \"CYBCC.sol\":12657:12682  return (_rTotal, _tTotal) */\n      swap5\n      pop\n      swap5\n      pop\n      pop\n      pop\n      pop\n        /* \"CYBCC.sol\":12310:12952  function _getCurrentSupply() private view returns (uint256, uint256) {... */\n      swap1\n      swap2\n      jump\t// out\n        /* \"CYBCC.sol\":12521:12697  if (... */\n    tag_418:\n        /* \"CYBCC.sol\":12730:12737  _rOwned */\n      0x05\n        /* \"CYBCC.sol\":12730:12751  _rOwned[_excluded[i]] */\n      0x00\n        /* \"CYBCC.sol\":12738:12747  _excluded */\n      0x0a\n        /* \"CYBCC.sol\":12748:12749  i */\n      dup4\n        /* \"CYBCC.sol\":12738:12750  _excluded[i] */\n      dup2\n      sload\n      dup2\n      lt\n      tag_420\n      jumpi\n      tag_420\n      tag_290\n      jump\t// in\n    tag_420:\n      0x00\n      swap2\n      dup3\n      mstore\n      0x20\n      dup1\n      dup4\n      keccak256\n      swap1\n      swap2\n      add\n      sload\n      sub(shl(0xa0, 0x01), 0x01)\n      and\n        /* \"CYBCC.sol\":12730:12751  _rOwned[_excluded[i]] */\n      dup4\n      mstore\n      dup3\n      add\n      swap3\n      swap1\n      swap3\n      mstore\n      0x40\n      add\n      swap1\n      keccak256\n      sload\n        /* \"CYBCC.sol\":12720:12751  rSupply - _rOwned[_excluded[i]] */\n      tag_422\n      swap1\n        /* \"CYBCC.sol\":12720:12727  rSupply */\n      dup5\n        /* \"CYBCC.sol\":12720:12751  rSupply - _rOwned[_excluded[i]] */\n      tag_190\n      jump\t// in\n    tag_422:\n        /* \"CYBCC.sol\":12710:12751  rSupply = rSupply - _rOwned[_excluded[i]] */\n      swap3\n      pop\n        /* \"CYBCC.sol\":12785:12792  _tOwned */\n      0x06\n        /* \"CYBCC.sol\":12785:12806  _tOwned[_excluded[i]] */\n      0x00\n        /* \"CYBCC.sol\":12793:12802  _excluded */\n      0x0a\n        /* \"CYBCC.sol\":12803:12804  i */\n      dup4\n        /* \"CYBCC.sol\":12793:12805  _excluded[i] */\n      dup2\n      sload\n      dup2\n      lt\n      tag_424\n      jumpi\n      tag_424\n      tag_290\n      jump\t// in\n    tag_424:\n      0x00\n      swap2\n      dup3\n      mstore\n      0x20\n      dup1\n      dup4\n      keccak256\n      swap1\n      swap2\n      add\n      sload\n      sub(shl(0xa0, 0x01), 0x01)\n      and\n        /* \"CYBCC.sol\":12785:12806  _tOwned[_excluded[i]] */\n      dup4\n      mstore\n      dup3\n      add\n      swap3\n      swap1\n      swap3\n      mstore\n      0x40\n      add\n      swap1\n      keccak256\n      sload\n        /* \"CYBCC.sol\":12775:12806  tSupply - _tOwned[_excluded[i]] */\n      tag_426\n      swap1\n        /* \"CYBCC.sol\":12775:12782  tSupply */\n      dup4\n        /* \"CYBCC.sol\":12775:12806  tSupply - _tOwned[_excluded[i]] */\n      tag_190\n      jump\t// in\n    tag_426:\n        /* \"CYBCC.sol\":12765:12806  tSupply = tSupply - _tOwned[_excluded[i]] */\n      swap2\n      pop\n        /* \"CYBCC.sol\":12502:12505  i++ */\n      0x01\n      add\n        /* \"CYBCC.sol\":12460:12817  for (uint256 i = 0; i < _excluded.length; i++) {... */\n      jump(tag_408)\n    tag_409:\n      pop\n        /* \"CYBCC.sol\":12851:12858  _tTotal */\n      sload(0x0c)\n        /* \"CYBCC.sol\":12841:12848  _rTotal */\n      sload(0x0d)\n        /* \"CYBCC.sol\":12841:12858  _rTotal / _tTotal */\n      tag_427\n      swap2\n      swap1\n      tag_363\n      jump\t// in\n    tag_427:\n        /* \"CYBCC.sol\":12831:12838  rSupply */\n      dup3\n        /* \"CYBCC.sol\":12831:12858  rSupply < _rTotal / _tTotal */\n      lt\n        /* \"CYBCC.sol\":12827:12910  if (rSupply < _rTotal / _tTotal) {... */\n      iszero\n      tag_428\n      jumpi\n        /* \"CYBCC.sol\":12882:12889  _rTotal */\n      sload(0x0d)\n        /* \"CYBCC.sol\":12891:12898  _tTotal */\n      sload(0x0c)\n        /* \"CYBCC.sol\":12874:12899  return (_rTotal, _tTotal) */\n      swap4\n      pop\n      swap4\n      pop\n      pop\n      pop\n        /* \"CYBCC.sol\":12310:12952  function _getCurrentSupply() private view returns (uint256, uint256) {... */\n      swap1\n      swap2\n      jump\t// out\n        /* \"CYBCC.sol\":12827:12910  if (rSupply < _rTotal / _tTotal) {... */\n    tag_428:\n        /* \"CYBCC.sol\":12928:12935  rSupply */\n      swap1\n      swap4\n        /* \"CYBCC.sol\":12937:12944  tSupply */\n      swap1\n      swap3\n      pop\n        /* \"CYBCC.sol\":12310:12952  function _getCurrentSupply() private view returns (uint256, uint256) {... */\n      swap1\n      pop\n      jump\t// out\n        /* \"CYBCC.sol\":8102:8333  function removeAllFee() private {... */\n    tag_382:\n        /* \"CYBCC.sol\":8148:8162  _reflectionFee */\n      sload(0x0f)\n        /* \"CYBCC.sol\":8148:8167  _reflectionFee == 0 */\n      iszero\n        /* \"CYBCC.sol\":8148:8183  _reflectionFee == 0 && _taxFee == 0 */\n      dup1\n      iszero\n      tag_430\n      jumpi\n      pop\n        /* \"CYBCC.sol\":8171:8178  _taxFee */\n      sload(0x11)\n        /* \"CYBCC.sol\":8171:8183  _taxFee == 0 */\n      iszero\n        /* \"CYBCC.sol\":8148:8183  _reflectionFee == 0 && _taxFee == 0 */\n    tag_430:\n        /* \"CYBCC.sol\":8144:8192  if (_reflectionFee == 0 && _taxFee == 0) return; */\n      iszero\n      tag_431\n      jumpi\n        /* \"CYBCC.sol\":8102:8333  function removeAllFee() private {... */\n      jump\t// out\n        /* \"CYBCC.sol\":8144:8192  if (_reflectionFee == 0 && _taxFee == 0) return; */\n    tag_431:\n        /* \"CYBCC.sol\":8227:8241  _reflectionFee */\n      0x0f\n      dup1\n      sload\n        /* \"CYBCC.sol\":8202:8224  _previousReflectionFee */\n      0x10\n        /* \"CYBCC.sol\":8202:8241  _previousReflectionFee = _reflectionFee */\n      sstore\n        /* \"CYBCC.sol\":8269:8276  _taxFee */\n      0x11\n      dup1\n      sload\n        /* \"CYBCC.sol\":8251:8266  _previousTaxFee */\n      0x12\n        /* \"CYBCC.sol\":8251:8276  _previousTaxFee = _taxFee */\n      sstore\n      0x00\n        /* \"CYBCC.sol\":8287:8305  _reflectionFee = 0 */\n      swap2\n      dup3\n      swap1\n      sstore\n        /* \"CYBCC.sol\":8315:8326  _taxFee = 0 */\n      sstore\n        /* \"CYBCC.sol\":8102:8333  function removeAllFee() private {... */\n      jump\t// out\n        /* \"CYBCC.sol\":9727:10372  function _transferFromExcluded(... */\n    tag_386:\n        /* \"CYBCC.sol\":9872:9887  uint256 rAmount */\n      0x00\n        /* \"CYBCC.sol\":9901:9924  uint256 rTransferAmount */\n      0x00\n        /* \"CYBCC.sol\":9938:9961  uint256 tTransferAmount */\n      0x00\n        /* \"CYBCC.sol\":9975:9994  uint256 currentRate */\n      0x00\n        /* \"CYBCC.sol\":10007:10034  _getTransferValues(tAmount) */\n      tag_433\n        /* \"CYBCC.sol\":10026:10033  tAmount */\n      dup6\n        /* \"CYBCC.sol\":10007:10025  _getTransferValues */\n      tag_188\n        /* \"CYBCC.sol\":10007:10034  _getTransferValues(tAmount) */\n      jump\t// in\n    tag_433:\n      sub(shl(0xa0, 0x01), 0x01)\n        /* \"CYBCC.sol\":10062:10077  _tOwned[sender] */\n      dup12\n      and\n      0x00\n      swap1\n      dup2\n      mstore\n        /* \"CYBCC.sol\":10062:10069  _tOwned */\n      0x06\n        /* \"CYBCC.sol\":10062:10077  _tOwned[sender] */\n      0x20\n      mstore\n      0x40\n      swap1\n      keccak256\n      sload\n        /* \"CYBCC.sol\":9858:10034  (... */\n      swap4\n      swap8\n      pop\n      swap2\n      swap6\n      pop\n      swap4\n      pop\n      swap2\n      pop\n        /* \"CYBCC.sol\":10062:10087  _tOwned[sender] - tAmount */\n      tag_434\n      swap1\n        /* \"CYBCC.sol\":10080:10087  tAmount */\n      dup7\n      swap1\n        /* \"CYBCC.sol\":10062:10087  _tOwned[sender] - tAmount */\n      tag_190\n      jump\t// in\n    tag_434:\n      sub(shl(0xa0, 0x01), 0x01)\n        /* \"CYBCC.sol\":10044:10059  _tOwned[sender] */\n      dup9\n      and\n      0x00\n      swap1\n      dup2\n      mstore\n        /* \"CYBCC.sol\":10044:10051  _tOwned */\n      0x06\n        /* \"CYBCC.sol\":10044:10059  _tOwned[sender] */\n      0x20\n      swap1\n      dup2\n      mstore\n      0x40\n      dup1\n      dup4\n      keccak256\n        /* \"CYBCC.sol\":10044:10087  _tOwned[sender] = _tOwned[sender] - tAmount */\n      swap4\n      swap1\n      swap4\n      sstore\n        /* \"CYBCC.sol\":10115:10122  _rOwned */\n      0x05\n        /* \"CYBCC.sol\":10115:10130  _rOwned[sender] */\n      swap1\n      mstore\n      keccak256\n      sload\n        /* \"CYBCC.sol\":10115:10140  _rOwned[sender] - rAmount */\n      tag_435\n      swap1\n        /* \"CYBCC.sol\":10133:10140  rAmount */\n      dup6\n      swap1\n        /* \"CYBCC.sol\":10115:10140  _rOwned[sender] - rAmount */\n      tag_190\n      jump\t// in\n    tag_435:\n      sub(shl(0xa0, 0x01), 0x01)\n        /* \"CYBCC.sol\":10097:10112  _rOwned[sender] */\n      dup1\n      dup10\n      and\n      0x00\n      swap1\n      dup2\n      mstore\n        /* \"CYBCC.sol\":10097:10104  _rOwned */\n      0x05\n        /* \"CYBCC.sol\":10097:10112  _rOwned[sender] */\n      0x20\n      mstore\n      0x40\n      dup1\n      dup3\n      keccak256\n        /* \"CYBCC.sol\":10097:10140  _rOwned[sender] = _rOwned[sender] - rAmount */\n      swap4\n      swap1\n      swap4\n      sstore\n        /* \"CYBCC.sol\":10171:10189  _rOwned[recipient] */\n      swap1\n      dup9\n      and\n      dup2\n      mstore\n      keccak256\n      sload\n        /* \"CYBCC.sol\":10171:10207  _rOwned[recipient] + rTransferAmount */\n      tag_436\n      swap1\n        /* \"CYBCC.sol\":10192:10207  rTransferAmount */\n      dup5\n      swap1\n        /* \"CYBCC.sol\":10171:10207  _rOwned[recipient] + rTransferAmount */\n      tag_193\n      jump\t// in\n    tag_436:\n      sub(shl(0xa0, 0x01), 0x01)\n        /* \"CYBCC.sol\":10150:10168  _rOwned[recipient] */\n      dup8\n      and\n      0x00\n      swap1\n      dup2\n      mstore\n        /* \"CYBCC.sol\":10150:10157  _rOwned */\n      0x05\n        /* \"CYBCC.sol\":10150:10168  _rOwned[recipient] */\n      0x20\n      mstore\n      0x40\n      swap1\n      keccak256\n        /* \"CYBCC.sol\":10150:10207  _rOwned[recipient] = _rOwned[recipient] + rTransferAmount */\n      sstore\n        /* \"CYBCC.sol\":10218:10262  taxFeeTransfer(sender, tAmount, currentRate) */\n      tag_437\n        /* \"CYBCC.sol\":10233:10239  sender */\n      dup8\n        /* \"CYBCC.sol\":10241:10248  tAmount */\n      dup7\n        /* \"CYBCC.sol\":10250:10261  currentRate */\n      dup4\n        /* \"CYBCC.sol\":10218:10232  taxFeeTransfer */\n      tag_438\n        /* \"CYBCC.sol\":10218:10262  taxFeeTransfer(sender, tAmount, currentRate) */\n      jump\t// in\n    tag_437:\n        /* \"CYBCC.sol\":10272:10305  _reflectFee(tAmount, currentRate) */\n      tag_439\n        /* \"CYBCC.sol\":10284:10291  tAmount */\n      dup6\n        /* \"CYBCC.sol\":10293:10304  currentRate */\n      dup3\n        /* \"CYBCC.sol\":10272:10283  _reflectFee */\n      tag_440\n        /* \"CYBCC.sol\":10272:10305  _reflectFee(tAmount, currentRate) */\n      jump\t// in\n    tag_439:\n        /* \"CYBCC.sol\":10338:10347  recipient */\n      dup6\n      sub(shl(0xa0, 0x01), 0x01)\n        /* \"CYBCC.sol\":10321:10365  Transfer(sender, recipient, tTransferAmount) */\n      and\n        /* \"CYBCC.sol\":10330:10336  sender */\n      dup8\n      sub(shl(0xa0, 0x01), 0x01)\n        /* \"CYBCC.sol\":10321:10365  Transfer(sender, recipient, tTransferAmount) */\n      and\n      0xddf252ad1be2c89b69c2b068fc378daa952ba7f163c4a11628f55a4df523b3ef\n        /* \"CYBCC.sol\":10349:10364  tTransferAmount */\n      dup5\n        /* \"CYBCC.sol\":10321:10365  Transfer(sender, recipient, tTransferAmount) */\n      mload(0x40)\n      tag_441\n      swap2\n        /* \"#utility.yul\":1489:1514   */\n      dup2\n      mstore\n        /* \"#utility.yul\":1477:1479   */\n      0x20\n        /* \"#utility.yul\":1462:1480   */\n      add\n      swap1\n        /* \"#utility.yul\":1343:1520   */\n      jump\n        /* \"CYBCC.sol\":10321:10365  Transfer(sender, recipient, tTransferAmount) */\n    tag_441:\n      mload(0x40)\n      dup1\n      swap2\n      sub\n      swap1\n      log3\n        /* \"CYBCC.sol\":9848:10372  {... */\n      pop\n      pop\n      pop\n      pop\n        /* \"CYBCC.sol\":9727:10372  function _transferFromExcluded(... */\n      pop\n      pop\n      pop\n      jump\t// out\n        /* \"CYBCC.sol\":9064:9721  function _transferToExcluded(... */\n    tag_391:\n        /* \"CYBCC.sol\":9207:9222  uint256 rAmount */\n      0x00\n        /* \"CYBCC.sol\":9236:9259  uint256 rTransferAmount */\n      0x00\n        /* \"CYBCC.sol\":9273:9296  uint256 tTransferAmount */\n      0x00\n        /* \"CYBCC.sol\":9310:9329  uint256 currentRate */\n      0x00\n        /* \"CYBCC.sol\":9342:9369  _getTransferValues(tAmount) */\n      tag_443\n        /* \"CYBCC.sol\":9361:9368  tAmount */\n      dup6\n        /* \"CYBCC.sol\":9342:9360  _getTransferValues */\n      tag_188\n        /* \"CYBCC.sol\":9342:9369  _getTransferValues(tAmount) */\n      jump\t// in\n    tag_443:\n      sub(shl(0xa0, 0x01), 0x01)\n        /* \"CYBCC.sol\":9397:9412  _rOwned[sender] */\n      dup12\n      and\n      0x00\n      swap1\n      dup2\n      mstore\n        /* \"CYBCC.sol\":9397:9404  _rOwned */\n      0x05\n        /* \"CYBCC.sol\":9397:9412  _rOwned[sender] */\n      0x20\n      mstore\n      0x40\n      swap1\n      keccak256\n      sload\n        /* \"CYBCC.sol\":9193:9369  (... */\n      swap4\n      swap8\n      pop\n      swap2\n      swap6\n      pop\n      swap4\n      pop\n      swap2\n      pop\n        /* \"CYBCC.sol\":9397:9422  _rOwned[sender] - rAmount */\n      tag_444\n      swap1\n        /* \"CYBCC.sol\":9193:9369  (... */\n      dup6\n      swap1\n        /* \"CYBCC.sol\":9397:9422  _rOwned[sender] - rAmount */\n      tag_190\n      jump\t// in\n    tag_444:\n      sub(shl(0xa0, 0x01), 0x01)\n        /* \"CYBCC.sol\":9379:9394  _rOwned[sender] */\n      dup1\n      dup10\n      and\n      0x00\n      swap1\n      dup2\n      mstore\n        /* \"CYBCC.sol\":9379:9386  _rOwned */\n      0x05\n        /* \"CYBCC.sol\":9379:9394  _rOwned[sender] */\n      0x20\n      swap1\n      dup2\n      mstore\n      0x40\n      dup1\n      dup4\n      keccak256\n        /* \"CYBCC.sol\":9379:9422  _rOwned[sender] = _rOwned[sender] - rAmount */\n      swap5\n      swap1\n      swap5\n      sstore\n        /* \"CYBCC.sol\":9453:9471  _tOwned[recipient] */\n      swap2\n      dup10\n      and\n      dup2\n      mstore\n        /* \"CYBCC.sol\":9453:9460  _tOwned */\n      0x06\n        /* \"CYBCC.sol\":9453:9471  _tOwned[recipient] */\n      swap1\n      swap2\n      mstore\n      keccak256\n      sload\n        /* \"CYBCC.sol\":9453:9489  _tOwned[recipient] + tTransferAmount */\n      tag_445\n      swap1\n        /* \"CYBCC.sol\":9474:9489  tTransferAmount */\n      dup4\n      swap1\n        /* \"CYBCC.sol\":9453:9489  _tOwned[recipient] + tTransferAmount */\n      tag_193\n      jump\t// in\n    tag_445:\n      sub(shl(0xa0, 0x01), 0x01)\n        /* \"CYBCC.sol\":9432:9450  _tOwned[recipient] */\n      dup8\n      and\n      0x00\n      swap1\n      dup2\n      mstore\n        /* \"CYBCC.sol\":9432:9439  _tOwned */\n      0x06\n        /* \"CYBCC.sol\":9432:9450  _tOwned[recipient] */\n      0x20\n      swap1\n      dup2\n      mstore\n      0x40\n      dup1\n      dup4\n      keccak256\n        /* \"CYBCC.sol\":9432:9489  _tOwned[recipient] = _tOwned[recipient] + tTransferAmount */\n      swap4\n      swap1\n      swap4\n      sstore\n        /* \"CYBCC.sol\":9520:9527  _rOwned */\n      0x05\n        /* \"CYBCC.sol\":9520:9538  _rOwned[recipient] */\n      swap1\n      mstore\n      keccak256\n      sload\n        /* \"CYBCC.sol\":9520:9556  _rOwned[recipient] + rTransferAmount */\n      tag_436\n      swap1\n        /* \"CYBCC.sol\":9541:9556  rTransferAmount */\n      dup5\n      swap1\n        /* \"CYBCC.sol\":9520:9556  _rOwned[recipient] + rTransferAmount */\n      tag_193\n      jump\t// in\n        /* \"CYBCC.sol\":8469:9058  function _transferStandard(... */\n    tag_396:\n        /* \"CYBCC.sol\":8610:8625  uint256 rAmount */\n      0x00\n        /* \"CYBCC.sol\":8639:8662  uint256 rTransferAmount */\n      0x00\n        /* \"CYBCC.sol\":8676:8699  uint256 tTransferAmount */\n      0x00\n        /* \"CYBCC.sol\":8713:8732  uint256 currentRate */\n      0x00\n        /* \"CYBCC.sol\":8745:8772  _getTransferValues(tAmount) */\n      tag_451\n        /* \"CYBCC.sol\":8764:8771  tAmount */\n      dup6\n        /* \"CYBCC.sol\":8745:8763  _getTransferValues */\n      tag_188\n        /* \"CYBCC.sol\":8745:8772  _getTransferValues(tAmount) */\n      jump\t// in\n    tag_451:\n      sub(shl(0xa0, 0x01), 0x01)\n        /* \"CYBCC.sol\":8801:8816  _rOwned[sender] */\n      dup12\n      and\n      0x00\n      swap1\n      dup2\n      mstore\n        /* \"CYBCC.sol\":8801:8808  _rOwned */\n      0x05\n        /* \"CYBCC.sol\":8801:8816  _rOwned[sender] */\n      0x20\n      mstore\n      0x40\n      swap1\n      keccak256\n      sload\n        /* \"CYBCC.sol\":8596:8772  (... */\n      swap4\n      swap8\n      pop\n      swap2\n      swap6\n      pop\n      swap4\n      pop\n      swap2\n      pop\n        /* \"CYBCC.sol\":8801:8826  _rOwned[sender] - rAmount */\n      tag_435\n      swap1\n        /* \"CYBCC.sol\":8596:8772  (... */\n      dup6\n      swap1\n        /* \"CYBCC.sol\":8801:8826  _rOwned[sender] - rAmount */\n      tag_190\n      jump\t// in\n        /* \"CYBCC.sol\":10378:11090  function _transferBothExcluded(... */\n    tag_401:\n        /* \"CYBCC.sol\":10523:10538  uint256 rAmount */\n      0x00\n        /* \"CYBCC.sol\":10552:10575  uint256 rTransferAmount */\n      0x00\n        /* \"CYBCC.sol\":10589:10612  uint256 tTransferAmount */\n      0x00\n        /* \"CYBCC.sol\":10626:10645  uint256 currentRate */\n      0x00\n        /* \"CYBCC.sol\":10658:10685  _getTransferValues(tAmount) */\n      tag_458\n        /* \"CYBCC.sol\":10677:10684  tAmount */\n      dup6\n        /* \"CYBCC.sol\":10658:10676  _getTransferValues */\n      tag_188\n        /* \"CYBCC.sol\":10658:10685  _getTransferValues(tAmount) */\n      jump\t// in\n    tag_458:\n      sub(shl(0xa0, 0x01), 0x01)\n        /* \"CYBCC.sol\":10713:10728  _tOwned[sender] */\n      dup12\n      and\n      0x00\n      swap1\n      dup2\n      mstore\n        /* \"CYBCC.sol\":10713:10720  _tOwned */\n      0x06\n        /* \"CYBCC.sol\":10713:10728  _tOwned[sender] */\n      0x20\n      mstore\n      0x40\n      swap1\n      keccak256\n      sload\n        /* \"CYBCC.sol\":10509:10685  (... */\n      swap4\n      swap8\n      pop\n      swap2\n      swap6\n      pop\n      swap4\n      pop\n      swap2\n      pop\n        /* \"CYBCC.sol\":10713:10738  _tOwned[sender] - tAmount */\n      tag_459\n      swap1\n        /* \"CYBCC.sol\":10731:10738  tAmount */\n      dup7\n      swap1\n        /* \"CYBCC.sol\":10713:10738  _tOwned[sender] - tAmount */\n      tag_190\n      jump\t// in\n    tag_459:\n      sub(shl(0xa0, 0x01), 0x01)\n        /* \"CYBCC.sol\":10695:10710  _tOwned[sender] */\n      dup9\n      and\n      0x00\n      swap1\n      dup2\n      mstore\n        /* \"CYBCC.sol\":10695:10702  _tOwned */\n      0x06\n        /* \"CYBCC.sol\":10695:10710  _tOwned[sender] */\n      0x20\n      swap1\n      dup2\n      mstore\n      0x40\n      dup1\n      dup4\n      keccak256\n        /* \"CYBCC.sol\":10695:10738  _tOwned[sender] = _tOwned[sender] - tAmount */\n      swap4\n      swap1\n      swap4\n      sstore\n        /* \"CYBCC.sol\":10766:10773  _rOwned */\n      0x05\n        /* \"CYBCC.sol\":10766:10781  _rOwned[sender] */\n      swap1\n      mstore\n      keccak256\n      sload\n        /* \"CYBCC.sol\":10766:10791  _rOwned[sender] - rAmount */\n      tag_444\n      swap1\n        /* \"CYBCC.sol\":10784:10791  rAmount */\n      dup6\n      swap1\n        /* \"CYBCC.sol\":10766:10791  _rOwned[sender] - rAmount */\n      tag_190\n      jump\t// in\n        /* \"CYBCC.sol\":12958:13552  function taxFeeTransfer(... */\n    tag_438:\n        /* \"CYBCC.sol\":13084:13099  uint256 tTaxFee */\n      0x00\n        /* \"CYBCC.sol\":13124:13127  100 */\n      0x64\n        /* \"CYBCC.sol\":13113:13120  _taxFee */\n      sload(0x11)\n        /* \"CYBCC.sol\":13103:13110  tAmount */\n      dup5\n        /* \"CYBCC.sol\":13103:13120  tAmount * _taxFee */\n      tag_468\n      swap2\n      swap1\n      tag_312\n      jump\t// in\n    tag_468:\n        /* \"CYBCC.sol\":13102:13127  (tAmount * _taxFee) / 100 */\n      tag_469\n      swap2\n      swap1\n      tag_363\n      jump\t// in\n    tag_469:\n        /* \"CYBCC.sol\":13084:13127  uint256 tTaxFee = (tAmount * _taxFee) / 100 */\n      swap1\n      pop\n        /* \"CYBCC.sol\":13141:13152  tTaxFee > 0 */\n      dup1\n      iszero\n        /* \"CYBCC.sol\":13137:13546  if (tTaxFee > 0) {... */\n      tag_323\n      jumpi\n        /* \"CYBCC.sol\":13168:13183  uint256 rTaxFee */\n      0x00\n        /* \"CYBCC.sol\":13212:13213  2 */\n      0x02\n        /* \"CYBCC.sol\":13187:13208  tTaxFee * currentRate */\n      tag_471\n        /* \"CYBCC.sol\":13197:13208  currentRate */\n      dup5\n        /* \"CYBCC.sol\":13187:13194  tTaxFee */\n      dup5\n        /* \"CYBCC.sol\":13187:13208  tTaxFee * currentRate */\n      tag_312\n      jump\t// in\n    tag_471:\n        /* \"CYBCC.sol\":13186:13213  (tTaxFee * currentRate) / 2 */\n      tag_472\n      swap2\n      swap1\n      tag_363\n      jump\t// in\n    tag_472:\n        /* \"CYBCC.sol\":13264:13281  _marketingAccount */\n      and(sub(shl(0xa0, 0x01), 0x01), sload(0x13))\n        /* \"CYBCC.sol\":13256:13282  _rOwned[_marketingAccount] */\n      0x00\n      swap1\n      dup2\n      mstore\n        /* \"CYBCC.sol\":13256:13263  _rOwned */\n      0x05\n        /* \"CYBCC.sol\":13256:13282  _rOwned[_marketingAccount] */\n      0x20\n      mstore\n      0x40\n      swap1\n      keccak256\n      sload\n        /* \"CYBCC.sol\":13168:13213  uint256 rTaxFee = (tTaxFee * currentRate) / 2 */\n      swap1\n      swap2\n      pop\n        /* \"CYBCC.sol\":13256:13292  _rOwned[_marketingAccount] + rTaxFee */\n      tag_473\n      swap1\n        /* \"CYBCC.sol\":13168:13213  uint256 rTaxFee = (tTaxFee * currentRate) / 2 */\n      dup3\n      swap1\n        /* \"CYBCC.sol\":13256:13292  _rOwned[_marketingAccount] + rTaxFee */\n      tag_193\n      jump\t// in\n    tag_473:\n        /* \"CYBCC.sol\":13235:13252  _marketingAccount */\n      sload(0x13)\n      sub(shl(0xa0, 0x01), 0x01)\n      swap1\n      dup2\n      and\n        /* \"CYBCC.sol\":13227:13253  _rOwned[_marketingAccount] */\n      0x00\n      swap1\n      dup2\n      mstore\n        /* \"CYBCC.sol\":13227:13234  _rOwned */\n      0x05\n        /* \"CYBCC.sol\":13227:13253  _rOwned[_marketingAccount] */\n      0x20\n      mstore\n      0x40\n      dup1\n      dup3\n      keccak256\n        /* \"CYBCC.sol\":13227:13292  _rOwned[_marketingAccount] = _rOwned[_marketingAccount] + rTaxFee */\n      swap4\n      swap1\n      swap4\n      sstore\n        /* \"CYBCC.sol\":13361:13380  _developmentAccount */\n      sload(0x14)\n      swap1\n      swap2\n      and\n        /* \"CYBCC.sol\":13353:13381  _rOwned[_developmentAccount] */\n      dup2\n      mstore\n      keccak256\n      sload\n        /* \"CYBCC.sol\":13353:13407  _rOwned[_developmentAccount] +... */\n      tag_474\n      swap1\n        /* \"CYBCC.sol\":13400:13407  rTaxFee */\n      dup3\n      swap1\n        /* \"CYBCC.sol\":13353:13407  _rOwned[_developmentAccount] +... */\n      tag_193\n      jump\t// in\n    tag_474:\n        /* \"CYBCC.sol\":13314:13333  _developmentAccount */\n      sload(0x14)\n      sub(shl(0xa0, 0x01), 0x01)\n      swap1\n      dup2\n      and\n        /* \"CYBCC.sol\":13306:13334  _rOwned[_developmentAccount] */\n      0x00\n      swap1\n      dup2\n      mstore\n        /* \"CYBCC.sol\":13306:13313  _rOwned */\n      0x05\n        /* \"CYBCC.sol\":13306:13334  _rOwned[_developmentAccount] */\n      0x20\n      swap1\n      dup2\n      mstore\n      0x40\n      swap2\n      dup3\n      swap1\n      keccak256\n        /* \"CYBCC.sol\":13306:13407  _rOwned[_developmentAccount] =... */\n      swap4\n      swap1\n      swap4\n      sstore\n        /* \"CYBCC.sol\":13443:13460  _marketingAccount */\n      sload(0x13)\n        /* \"CYBCC.sol\":13426:13470  Transfer(sender, _marketingAccount, tTaxFee) */\n      swap1\n      mload\n        /* \"#utility.yul\":1489:1514   */\n      dup6\n      dup2\n      mstore\n        /* \"CYBCC.sol\":13443:13460  _marketingAccount */\n      swap1\n      dup3\n      and\n      swap3\n        /* \"CYBCC.sol\":13426:13470  Transfer(sender, _marketingAccount, tTaxFee) */\n      swap2\n      dup9\n      and\n      swap2\n      0xddf252ad1be2c89b69c2b068fc378daa952ba7f163c4a11628f55a4df523b3ef\n      swap2\n        /* \"#utility.yul\":1462:1480   */\n      add\n        /* \"CYBCC.sol\":13426:13470  Transfer(sender, _marketingAccount, tTaxFee) */\n      mload(0x40)\n      dup1\n      swap2\n      sub\n      swap1\n      log3\n        /* \"CYBCC.sol\":13506:13525  _developmentAccount */\n      sload(0x14)\n        /* \"CYBCC.sol\":13489:13535  Transfer(sender, _developmentAccount, tTaxFee) */\n      mload(0x40)\n        /* \"#utility.yul\":1489:1514   */\n      dup4\n      dup2\n      mstore\n      sub(shl(0xa0, 0x01), 0x01)\n        /* \"CYBCC.sol\":13506:13525  _developmentAccount */\n      swap2\n      dup3\n      and\n      swap2\n        /* \"CYBCC.sol\":13489:13535  Transfer(sender, _developmentAccount, tTaxFee) */\n      dup8\n      and\n      swap1\n      0xddf252ad1be2c89b69c2b068fc378daa952ba7f163c4a11628f55a4df523b3ef\n      swap1\n        /* \"#utility.yul\":1477:1479   */\n      0x20\n        /* \"#utility.yul\":1462:1480   */\n      add\n        /* \"CYBCC.sol\":13489:13535  Transfer(sender, _developmentAccount, tTaxFee) */\n      mload(0x40)\n      dup1\n      swap2\n      sub\n      swap1\n      log3\n        /* \"CYBCC.sol\":13154:13546  {... */\n      pop\n        /* \"CYBCC.sol\":13074:13552  {... */\n      pop\n        /* \"CYBCC.sol\":12958:13552  function taxFeeTransfer(... */\n      pop\n      pop\n      pop\n      jump\t// out\n        /* \"CYBCC.sol\":11891:12140  function _reflectFee(uint256 tAmount, uint256 currentRate) private {... */\n    tag_440:\n        /* \"CYBCC.sol\":11968:11980  uint256 tFee */\n      0x00\n        /* \"CYBCC.sol\":12012:12015  100 */\n      0x64\n        /* \"CYBCC.sol\":11994:12008  _reflectionFee */\n      sload(0x0f)\n        /* \"CYBCC.sol\":11984:11991  tAmount */\n      dup5\n        /* \"CYBCC.sol\":11984:12008  tAmount * _reflectionFee */\n      tag_478\n      swap2\n      swap1\n      tag_312\n      jump\t// in\n    tag_478:\n        /* \"CYBCC.sol\":11983:12015  (tAmount * _reflectionFee) / 100 */\n      tag_479\n      swap2\n      swap1\n      tag_363\n      jump\t// in\n    tag_479:\n        /* \"CYBCC.sol\":11968:12015  uint256 tFee = (tAmount * _reflectionFee) / 100 */\n      swap1\n      pop\n        /* \"CYBCC.sol\":12025:12037  uint256 rFee */\n      0x00\n        /* \"CYBCC.sol\":12040:12058  tFee * currentRate */\n      tag_480\n        /* \"CYBCC.sol\":12047:12058  currentRate */\n      dup4\n        /* \"CYBCC.sol\":11968:12015  uint256 tFee = (tAmount * _reflectionFee) / 100 */\n      dup4\n        /* \"CYBCC.sol\":12040:12058  tFee * currentRate */\n      tag_312\n      jump\t// in\n    tag_480:\n        /* \"CYBCC.sol\":12025:12058  uint256 rFee = tFee * currentRate */\n      swap1\n      pop\n        /* \"CYBCC.sol\":12089:12093  rFee */\n      dup1\n        /* \"CYBCC.sol\":12079:12086  _rTotal */\n      sload(0x0d)\n        /* \"CYBCC.sol\":12079:12093  _rTotal - rFee */\n      tag_481\n      swap2\n      swap1\n      tag_190\n      jump\t// in\n    tag_481:\n        /* \"CYBCC.sol\":12069:12076  _rTotal */\n      0x0d\n        /* \"CYBCC.sol\":12069:12093  _rTotal = _rTotal - rFee */\n      sstore\n        /* \"CYBCC.sol\":12116:12126  _tFeeTotal */\n      sload(0x0e)\n        /* \"CYBCC.sol\":12116:12133  _tFeeTotal + tFee */\n      tag_482\n      swap1\n        /* \"CYBCC.sol\":12129:12133  tFee */\n      dup4\n      swap1\n        /* \"CYBCC.sol\":12116:12133  _tFeeTotal + tFee */\n      tag_193\n      jump\t// in\n    tag_482:\n        /* \"CYBCC.sol\":12103:12113  _tFeeTotal */\n      0x0e\n        /* \"CYBCC.sol\":12103:12133  _tFeeTotal = _tFeeTotal + tFee */\n      sstore\n      pop\n      pop\n      pop\n      pop\n        /* \"CYBCC.sol\":11891:12140  function _reflectFee(uint256 tAmount, uint256 currentRate) private {... */\n      jump\t// out\n        /* \"#utility.yul\":14:240   */\n    tag_45:\n        /* \"#utility.yul\":73:79   */\n      0x00\n        /* \"#utility.yul\":126:128   */\n      0x20\n        /* \"#utility.yul\":114:123   */\n      dup3\n        /* \"#utility.yul\":105:112   */\n      dup5\n        /* \"#utility.yul\":101:124   */\n      sub\n        /* \"#utility.yul\":97:129   */\n      slt\n        /* \"#utility.yul\":94:146   */\n      iszero\n      tag_487\n      jumpi\n        /* \"#utility.yul\":142:143   */\n      0x00\n        /* \"#utility.yul\":139:140   */\n      0x00\n        /* \"#utility.yul\":132:144   */\n      revert\n        /* \"#utility.yul\":94:146   */\n    tag_487:\n      pop\n        /* \"#utility.yul\":187:210   */\n      calldataload\n      swap2\n        /* \"#utility.yul\":14:240   */\n      swap1\n      pop\n      jump\t// out\n        /* \"#utility.yul\":245:663   */\n    tag_51:\n        /* \"#utility.yul\":394:396   */\n      0x20\n        /* \"#utility.yul\":383:392   */\n      dup2\n        /* \"#utility.yul\":376:397   */\n      mstore\n        /* \"#utility.yul\":357:361   */\n      0x00\n        /* \"#utility.yul\":426:432   */\n      dup3\n        /* \"#utility.yul\":420:433   */\n      mload\n        /* \"#utility.yul\":469:475   */\n      dup1\n        /* \"#utility.yul\":464:466   */\n      0x20\n        /* \"#utility.yul\":453:462   */\n      dup5\n        /* \"#utility.yul\":449:467   */\n      add\n        /* \"#utility.yul\":442:476   */\n      mstore\n        /* \"#utility.yul\":528:534   */\n      dup1\n        /* \"#utility.yul\":523:525   */\n      0x20\n        /* \"#utility.yul\":515:521   */\n      dup6\n        /* \"#utility.yul\":511:526   */\n      add\n        /* \"#utility.yul\":506:508   */\n      0x40\n        /* \"#utility.yul\":495:504   */\n      dup6\n        /* \"#utility.yul\":491:509   */\n      add\n        /* \"#utility.yul\":485:535   */\n      mcopy\n        /* \"#utility.yul\":584:585   */\n      0x00\n        /* \"#utility.yul\":579:581   */\n      0x40\n        /* \"#utility.yul\":570:576   */\n      dup3\n        /* \"#utility.yul\":559:568   */\n      dup6\n        /* \"#utility.yul\":555:577   */\n      add\n        /* \"#utility.yul\":551:582   */\n      add\n        /* \"#utility.yul\":544:586   */\n      mstore\n        /* \"#utility.yul\":654:656   */\n      0x40\n        /* \"#utility.yul\":647:649   */\n      0x1f\n        /* \"#utility.yul\":643:650   */\n      not\n        /* \"#utility.yul\":638:640   */\n      0x1f\n        /* \"#utility.yul\":630:636   */\n      dup4\n        /* \"#utility.yul\":626:641   */\n      add\n        /* \"#utility.yul\":622:651   */\n      and\n        /* \"#utility.yul\":611:620   */\n      dup5\n        /* \"#utility.yul\":607:652   */\n      add\n        /* \"#utility.yul\":603:657   */\n      add\n        /* \"#utility.yul\":595:657   */\n      swap2\n      pop\n      pop\n        /* \"#utility.yul\":245:663   */\n      swap3\n      swap2\n      pop\n      pop\n      jump\t// out\n        /* \"#utility.yul\":668:841   */\n    tag_483:\n        /* \"#utility.yul\":736:756   */\n      dup1\n      calldataload\n      sub(shl(0xa0, 0x01), 0x01)\n        /* \"#utility.yul\":785:816   */\n      dup2\n      and\n        /* \"#utility.yul\":775:817   */\n      dup2\n      eq\n        /* \"#utility.yul\":765:835   */\n      tag_490\n      jumpi\n        /* \"#utility.yul\":831:832   */\n      0x00\n        /* \"#utility.yul\":828:829   */\n      0x00\n        /* \"#utility.yul\":821:833   */\n      revert\n        /* \"#utility.yul\":765:835   */\n    tag_490:\n        /* \"#utility.yul\":668:841   */\n      swap2\n      swap1\n      pop\n      jump\t// out\n        /* \"#utility.yul\":846:1146   */\n    tag_55:\n        /* \"#utility.yul\":914:920   */\n      0x00\n        /* \"#utility.yul\":922:928   */\n      0x00\n        /* \"#utility.yul\":975:977   */\n      0x40\n        /* \"#utility.yul\":963:972   */\n      dup4\n        /* \"#utility.yul\":954:961   */\n      dup6\n        /* \"#utility.yul\":950:973   */\n      sub\n        /* \"#utility.yul\":946:978   */\n      slt\n        /* \"#utility.yul\":943:995   */\n      iszero\n      tag_492\n      jumpi\n        /* \"#utility.yul\":991:992   */\n      0x00\n        /* \"#utility.yul\":988:989   */\n      0x00\n        /* \"#utility.yul\":981:993   */\n      revert\n        /* \"#utility.yul\":943:995   */\n    tag_492:\n        /* \"#utility.yul\":1014:1043   */\n      tag_493\n        /* \"#utility.yul\":1033:1042   */\n      dup4\n        /* \"#utility.yul\":1014:1043   */\n      tag_483\n      jump\t// in\n    tag_493:\n        /* \"#utility.yul\":1004:1043   */\n      swap5\n        /* \"#utility.yul\":1112:1114   */\n      0x20\n        /* \"#utility.yul\":1097:1115   */\n      swap4\n      swap1\n      swap4\n      add\n        /* \"#utility.yul\":1084:1116   */\n      calldataload\n      swap4\n      pop\n      pop\n      pop\n        /* \"#utility.yul\":846:1146   */\n      jump\t// out\n        /* \"#utility.yul\":1733:2107   */\n    tag_72:\n        /* \"#utility.yul\":1810:1816   */\n      0x00\n        /* \"#utility.yul\":1818:1824   */\n      0x00\n        /* \"#utility.yul\":1826:1832   */\n      0x00\n        /* \"#utility.yul\":1879:1881   */\n      0x60\n        /* \"#utility.yul\":1867:1876   */\n      dup5\n        /* \"#utility.yul\":1858:1865   */\n      dup7\n        /* \"#utility.yul\":1854:1877   */\n      sub\n        /* \"#utility.yul\":1850:1882   */\n      slt\n        /* \"#utility.yul\":1847:1899   */\n      iszero\n      tag_498\n      jumpi\n        /* \"#utility.yul\":1895:1896   */\n      0x00\n        /* \"#utility.yul\":1892:1893   */\n      0x00\n        /* \"#utility.yul\":1885:1897   */\n      revert\n        /* \"#utility.yul\":1847:1899   */\n    tag_498:\n        /* \"#utility.yul\":1918:1947   */\n      tag_499\n        /* \"#utility.yul\":1937:1946   */\n      dup5\n        /* \"#utility.yul\":1918:1947   */\n      tag_483\n      jump\t// in\n    tag_499:\n        /* \"#utility.yul\":1908:1947   */\n      swap3\n      pop\n        /* \"#utility.yul\":1966:2004   */\n      tag_500\n        /* \"#utility.yul\":2000:2002   */\n      0x20\n        /* \"#utility.yul\":1989:1998   */\n      dup6\n        /* \"#utility.yul\":1985:2003   */\n      add\n        /* \"#utility.yul\":1966:2004   */\n      tag_483\n      jump\t// in\n    tag_500:\n        /* \"#utility.yul\":1733:2107   */\n      swap3\n      swap6\n        /* \"#utility.yul\":1956:2004   */\n      swap3\n      swap5\n      pop\n      pop\n      pop\n        /* \"#utility.yul\":2073:2075   */\n      0x40\n        /* \"#utility.yul\":2058:2076   */\n      swap2\n      swap1\n      swap2\n      add\n        /* \"#utility.yul\":2045:2077   */\n      calldataload\n      swap1\n        /* \"#utility.yul\":1733:2107   */\n      jump\t// out\n        /* \"#utility.yul\":2301:2487   */\n    tag_87:\n        /* \"#utility.yul\":2360:2366   */\n      0x00\n        /* \"#utility.yul\":2413:2415   */\n      0x20\n        /* \"#utility.yul\":2401:2410   */\n      dup3\n        /* \"#utility.yul\":2392:2399   */\n      dup5\n        /* \"#utility.yul\":2388:2411   */\n      sub\n        /* \"#utility.yul\":2384:2416   */\n      slt\n        /* \"#utility.yul\":2381:2433   */\n      iszero\n      tag_503\n      jumpi\n        /* \"#utility.yul\":2429:2430   */\n      0x00\n        /* \"#utility.yul\":2426:2427   */\n      0x00\n        /* \"#utility.yul\":2419:2431   */\n      revert\n        /* \"#utility.yul\":2381:2433   */\n    tag_503:\n        /* \"#utility.yul\":2452:2481   */\n      tag_362\n        /* \"#utility.yul\":2471:2480   */\n      dup3\n        /* \"#utility.yul\":2452:2481   */\n      tag_483\n      jump\t// in\n        /* \"#utility.yul\":2492:2887   */\n    tag_97:\n        /* \"#utility.yul\":2557:2563   */\n      0x00\n        /* \"#utility.yul\":2565:2571   */\n      0x00\n        /* \"#utility.yul\":2618:2620   */\n      0x40\n        /* \"#utility.yul\":2606:2615   */\n      dup4\n        /* \"#utility.yul\":2597:2604   */\n      dup6\n        /* \"#utility.yul\":2593:2616   */\n      sub\n        /* \"#utility.yul\":2589:2621   */\n      slt\n        /* \"#utility.yul\":2586:2638   */\n      iszero\n      tag_506\n      jumpi\n        /* \"#utility.yul\":2634:2635   */\n      0x00\n        /* \"#utility.yul\":2631:2632   */\n      0x00\n        /* \"#utility.yul\":2624:2636   */\n      revert\n        /* \"#utility.yul\":2586:2638   */\n    tag_506:\n        /* \"#utility.yul\":2679:2702   */\n      dup3\n      calldataload\n      swap2\n      pop\n        /* \"#utility.yul\":2778:2780   */\n      0x20\n        /* \"#utility.yul\":2763:2781   */\n      dup4\n      add\n        /* \"#utility.yul\":2750:2782   */\n      calldataload\n        /* \"#utility.yul\":2820:2835   */\n      dup1\n      iszero\n        /* \"#utility.yul\":2813:2836   */\n      iszero\n        /* \"#utility.yul\":2801:2837   */\n      dup2\n      eq\n        /* \"#utility.yul\":2791:2855   */\n      tag_507\n      jumpi\n        /* \"#utility.yul\":2851:2852   */\n      0x00\n        /* \"#utility.yul\":2848:2849   */\n      0x00\n        /* \"#utility.yul\":2841:2853   */\n      revert\n        /* \"#utility.yul\":2791:2855   */\n    tag_507:\n        /* \"#utility.yul\":2874:2881   */\n      dup1\n        /* \"#utility.yul\":2864:2881   */\n      swap2\n      pop\n      pop\n        /* \"#utility.yul\":2492:2887   */\n      swap3\n      pop\n      swap3\n      swap1\n      pop\n      jump\t// out\n        /* \"#utility.yul\":2892:3152   */\n    tag_166:\n        /* \"#utility.yul\":2960:2966   */\n      0x00\n        /* \"#utility.yul\":2968:2974   */\n      0x00\n        /* \"#utility.yul\":3021:3023   */\n      0x40\n        /* \"#utility.yul\":3009:3018   */\n      dup4\n        /* \"#utility.yul\":3000:3007   */\n      dup6\n        /* \"#utility.yul\":2996:3019   */\n      sub\n        /* \"#utility.yul\":2992:3024   */\n      slt\n        /* \"#utility.yul\":2989:3041   */\n      iszero\n      tag_509\n      jumpi\n        /* \"#utility.yul\":3037:3038   */\n      0x00\n        /* \"#utility.yul\":3034:3035   */\n      0x00\n        /* \"#utility.yul\":3027:3039   */\n      revert\n        /* \"#utility.yul\":2989:3041   */\n    tag_509:\n        /* \"#utility.yul\":3060:3089   */\n      tag_510\n        /* \"#utility.yul\":3079:3088   */\n      dup4\n        /* \"#utility.yul\":3060:3089   */\n      tag_483\n      jump\t// in\n    tag_510:\n        /* \"#utility.yul\":3050:3089   */\n      swap2\n      pop\n        /* \"#utility.yul\":3108:3146   */\n      tag_511\n        /* \"#utility.yul\":3142:3144   */\n      0x20\n        /* \"#utility.yul\":3131:3140   */\n      dup5\n        /* \"#utility.yul\":3127:3145   */\n      add\n        /* \"#utility.yul\":3108:3146   */\n      tag_483\n      jump\t// in\n    tag_511:\n        /* \"#utility.yul\":3098:3146   */\n      swap1\n      pop\n        /* \"#utility.yul\":2892:3152   */\n      swap3\n      pop\n      swap3\n      swap1\n      pop\n      jump\t// out\n        /* \"#utility.yul\":3570:3697   */\n    tag_484:\n        /* \"#utility.yul\":3631:3641   */\n      0x4e487b71\n        /* \"#utility.yul\":3626:3629   */\n      0xe0\n        /* \"#utility.yul\":3622:3642   */\n      shl\n        /* \"#utility.yul\":3619:3620   */\n      0x00\n        /* \"#utility.yul\":3612:3643   */\n      mstore\n        /* \"#utility.yul\":3662:3666   */\n      0x11\n        /* \"#utility.yul\":3659:3660   */\n      0x04\n        /* \"#utility.yul\":3652:3667   */\n      mstore\n        /* \"#utility.yul\":3686:3690   */\n      0x24\n        /* \"#utility.yul\":3683:3684   */\n      0x00\n        /* \"#utility.yul\":3676:3691   */\n      revert\n        /* \"#utility.yul\":3702:3830   */\n    tag_190:\n        /* \"#utility.yul\":3769:3778   */\n      dup2\n      dup2\n      sub\n        /* \"#utility.yul\":3790:3801   */\n      dup2\n      dup2\n      gt\n        /* \"#utility.yul\":3787:3824   */\n      iszero\n      tag_201\n      jumpi\n        /* \"#utility.yul\":3804:3822   */\n      tag_201\n      tag_484\n      jump\t// in\n        /* \"#utility.yul\":3835:3960   */\n    tag_193:\n        /* \"#utility.yul\":3900:3909   */\n      dup1\n      dup3\n      add\n        /* \"#utility.yul\":3921:3931   */\n      dup1\n      dup3\n      gt\n        /* \"#utility.yul\":3918:3954   */\n      iszero\n      tag_201\n      jumpi\n        /* \"#utility.yul\":3934:3952   */\n      tag_201\n      tag_484\n      jump\t// in\n        /* \"#utility.yul\":3965:4345   */\n    tag_196:\n        /* \"#utility.yul\":4044:4045   */\n      0x01\n        /* \"#utility.yul\":4040:4052   */\n      dup2\n      dup2\n      shr\n      swap1\n        /* \"#utility.yul\":4087:4099   */\n      dup3\n      and\n      dup1\n        /* \"#utility.yul\":4108:4169   */\n      tag_521\n      jumpi\n        /* \"#utility.yul\":4162:4166   */\n      0x7f\n        /* \"#utility.yul\":4154:4160   */\n      dup3\n        /* \"#utility.yul\":4150:4167   */\n      and\n        /* \"#utility.yul\":4140:4167   */\n      swap2\n      pop\n        /* \"#utility.yul\":4108:4169   */\n    tag_521:\n        /* \"#utility.yul\":4215:4217   */\n      0x20\n        /* \"#utility.yul\":4207:4213   */\n      dup3\n        /* \"#utility.yul\":4204:4218   */\n      lt\n        /* \"#utility.yul\":4184:4202   */\n      dup2\n        /* \"#utility.yul\":4181:4219   */\n      sub\n        /* \"#utility.yul\":4178:4339   */\n      tag_522\n      jumpi\n        /* \"#utility.yul\":4261:4271   */\n      0x4e487b71\n        /* \"#utility.yul\":4256:4259   */\n      0xe0\n        /* \"#utility.yul\":4252:4272   */\n      shl\n        /* \"#utility.yul\":4249:4250   */\n      0x00\n        /* \"#utility.yul\":4242:4273   */\n      mstore\n        /* \"#utility.yul\":4296:4300   */\n      0x22\n        /* \"#utility.yul\":4293:4294   */\n      0x04\n        /* \"#utility.yul\":4286:4301   */\n      mstore\n        /* \"#utility.yul\":4324:4328   */\n      0x24\n        /* \"#utility.yul\":4321:4322   */\n      0x00\n        /* \"#utility.yul\":4314:4329   */\n      revert\n        /* \"#utility.yul\":4178:4339   */\n    tag_522:\n      pop\n        /* \"#utility.yul\":3965:4345   */\n      swap2\n      swap1\n      pop\n      jump\t// out\n        /* \"#utility.yul\":5066:5468   */\n    tag_245:\n        /* \"#utility.yul\":5268:5270   */\n      0x20\n        /* \"#utility.yul\":5250:5271   */\n      dup1\n      dup3\n      mstore\n        /* \"#utility.yul\":5307:5309   */\n      0x26\n        /* \"#utility.yul\":5287:5305   */\n      swap1\n      dup3\n      add\n        /* \"#utility.yul\":5280:5310   */\n      mstore\n        /* \"#utility.yul\":5346:5380   */\n      0x7a65726f20616464726573732063616e206e6f74206265207468652046656541\n        /* \"#utility.yul\":5341:5343   */\n      0x40\n        /* \"#utility.yul\":5326:5344   */\n      dup3\n      add\n        /* \"#utility.yul\":5319:5381   */\n      mstore\n      shl(0xd2, 0x18d8dbdd5b9d)\n        /* \"#utility.yul\":5412:5414   */\n      0x60\n        /* \"#utility.yul\":5397:5415   */\n      dup3\n      add\n        /* \"#utility.yul\":5390:5426   */\n      mstore\n        /* \"#utility.yul\":5458:5461   */\n      0x80\n        /* \"#utility.yul\":5443:5462   */\n      add\n      swap1\n        /* \"#utility.yul\":5066:5468   */\n      jump\t// out\n        /* \"#utility.yul\":5829:5956   */\n    tag_290:\n        /* \"#utility.yul\":5890:5900   */\n      0x4e487b71\n        /* \"#utility.yul\":5885:5888   */\n      0xe0\n        /* \"#utility.yul\":5881:5901   */\n      shl\n        /* \"#utility.yul\":5878:5879   */\n      0x00\n        /* \"#utility.yul\":5871:5902   */\n      mstore\n        /* \"#utility.yul\":5921:5925   */\n      0x32\n        /* \"#utility.yul\":5918:5919   */\n      0x04\n        /* \"#utility.yul\":5911:5926   */\n      mstore\n        /* \"#utility.yul\":5945:5949   */\n      0x24\n        /* \"#utility.yul\":5942:5943   */\n      0x00\n        /* \"#utility.yul\":5935:5950   */\n      revert\n        /* \"#utility.yul\":5961:6088   */\n    tag_302:\n        /* \"#utility.yul\":6022:6032   */\n      0x4e487b71\n        /* \"#utility.yul\":6017:6020   */\n      0xe0\n        /* \"#utility.yul\":6013:6033   */\n      shl\n        /* \"#utility.yul\":6010:6011   */\n      0x00\n        /* \"#utility.yul\":6003:6034   */\n      mstore\n        /* \"#utility.yul\":6053:6057   */\n      0x31\n        /* \"#utility.yul\":6050:6051   */\n      0x04\n        /* \"#utility.yul\":6043:6058   */\n      mstore\n        /* \"#utility.yul\":6077:6081   */\n      0x24\n        /* \"#utility.yul\":6074:6075   */\n      0x00\n        /* \"#utility.yul\":6067:6082   */\n      revert\n        /* \"#utility.yul\":6093:6261   */\n    tag_312:\n        /* \"#utility.yul\":6166:6175   */\n      dup1\n      dup3\n      mul\n        /* \"#utility.yul\":6197:6206   */\n      dup2\n      iszero\n        /* \"#utility.yul\":6214:6229   */\n      dup3\n      dup3\n      div\n        /* \"#utility.yul\":6208:6230   */\n      dup5\n      eq\n        /* \"#utility.yul\":6194:6231   */\n      or\n        /* \"#utility.yul\":6184:6255   */\n      tag_201\n      jumpi\n        /* \"#utility.yul\":6235:6253   */\n      tag_201\n      tag_484\n      jump\t// in\n        /* \"#utility.yul\":9344:9561   */\n    tag_363:\n        /* \"#utility.yul\":9384:9385   */\n      0x00\n        /* \"#utility.yul\":9410:9411   */\n      dup3\n        /* \"#utility.yul\":9400:9532   */\n      tag_541\n      jumpi\n        /* \"#utility.yul\":9454:9464   */\n      0x4e487b71\n        /* \"#utility.yul\":9449:9452   */\n      0xe0\n        /* \"#utility.yul\":9445:9465   */\n      shl\n        /* \"#utility.yul\":9442:9443   */\n      0x00\n        /* \"#utility.yul\":9435:9466   */\n      mstore\n        /* \"#utility.yul\":9489:9493   */\n      0x12\n        /* \"#utility.yul\":9486:9487   */\n      0x04\n        /* \"#utility.yul\":9479:9494   */\n      mstore\n        /* \"#utility.yul\":9517:9521   */\n      0x24\n        /* \"#utility.yul\":9514:9515   */\n      0x00\n        /* \"#utility.yul\":9507:9522   */\n      revert\n        /* \"#utility.yul\":9400:9532   */\n    tag_541:\n      pop\n        /* \"#utility.yul\":9546:9555   */\n      div\n      swap1\n        /* \"#utility.yul\":9344:9561   */\n      jump\t// out\n\n    auxdata: 0xa264697066735822122019380d14c9f7bf1dd1e23090b0947411a4ff74a2dd7729dd5972f733931c61fe64736f6c634300081d0033\n}\n",
				"bytecode": {
					"linkReferences": {},
					"object": "6080604052600b80546101003302610100600160a81b0319821681179092555f600e556100359160ff908116911617600a61041a565b610042906298968061042c565b6016556018805460ff1916905534801561005a575f5ffd5b506040518060400160405280600d81526020016c21aca122a921a0aa29a1a7a4a760991b81525060405180604001604052806005815260200164435942434360d81b81525081600390816100ae91906104db565b5060046100bb82826104db565b5050600b805460ff191660129081179091556100d99150600a61041a565b6100e790633b9aca0061042c565b600c8190556100f7905f19610595565b610102905f196105b4565b600d9081556002600f81905560108190556011819055601255600b8054601380546001600160a01b0319166001600160a01b0361010093849004811691821783555f918252600760209081526040808420805460ff1990811660019081179092559554841685528185208054871682179055601454841685528185208054871682179055308552818520805490961617909455955494549390930490921682526005909352919091208190556101b99033906101be565b6105da565b6001600160a01b0382166101ec5760405163ec442f0560e01b81525f60048201526024015b60405180910390fd5b6101f75f83836101fb565b5050565b6001600160a01b038316610225578060025f82825461021a91906105c7565b909155506102959050565b6001600160a01b0383165f90815260208190526040902054818110156102775760405163391434e360e21b81526001600160a01b038516600482015260248101829052604481018390526064016101e3565b6001600160a01b0384165f9081526020819052604090209082900390555b6001600160a01b0382166102b1576002805482900390556102cf565b6001600160a01b0382165f9081526020819052604090208054820190555b816001600160a01b0316836001600160a01b03167fddf252ad1be2c89b69c2b068fc378daa952ba7f163c4a11628f55a4df523b3ef8360405161031491815260200190565b60405180910390a3505050565b634e487b7160e01b5f52601160045260245ffd5b6001815b60018411156103705780850481111561035457610354610321565b600184161561036257908102905b60019390931c928002610339565b935093915050565b5f8261038657506001610414565b8161039257505f610414565b81600181146103a857600281146103b2576103ce565b6001915050610414565b60ff8411156103c3576103c3610321565b50506001821b610414565b5060208310610133831016604e8410600b84101617156103f1575081810a610414565b6103fd5f198484610335565b805f190482111561041057610410610321565b0290505b92915050565b5f6104258383610378565b9392505050565b808202811582820484141761041457610414610321565b634e487b7160e01b5f52604160045260245ffd5b600181811c9082168061046b57607f821691505b60208210810361048957634e487b7160e01b5f52602260045260245ffd5b50919050565b601f8211156104d657805f5260205f20601f840160051c810160208510156104b45750805b601f840160051c820191505b818110156104d3575f81556001016104c0565b50505b505050565b81516001600160401b038111156104f4576104f4610443565b610508816105028454610457565b8461048f565b6020601f82116001811461053a575f83156105235750848201515b5f19600385901b1c1916600184901b1784556104d3565b5f84815260208120601f198516915b828110156105695787850151825560209485019460019092019101610549565b508482101561058657868401515f19600387901b60f8161c191681555b50505050600190811b01905550565b5f826105af57634e487b7160e01b5f52601260045260245ffd5b500690565b8181038181111561041457610414610321565b8082018082111561041457610414610321565b611be9806105e75f395ff3fe6080604052600436106101c8575f3560e01c8063838fcc90116100f2578063c486377011610092578063dd62ed3e11610062578063dd62ed3e14610533578063f66608fe14610577578063fdeb889f1461058b578063ffb54a99146105aa575f5ffd5b8063c4863770146104b4578063c9567bf9146104d3578063cba0e996146104e7578063d00efb2f1461051e575f5ffd5b80638da5cb5b116100cd5780638da5cb5b1461044057806395d89b4114610462578063a8b0898214610476578063a9059cbb14610495575f5ffd5b8063838fcc90146103f057806383ad79941461040d5780638873b15f14610421575f5ffd5b806332035504116101685780635342acb4116101385780635342acb41461035c5780636049876e14610393578063706407fd146103b257806370a08231146103d1575f5ffd5b806332035504146102dc5780633af32abf146102f0578063437823ec1461031e5780634549b0391461033d575f5ffd5b806318160ddd116101a357806318160ddd1461024d5780631cf8fef51461026b57806323b872dd1461029c578063313ce567146102bb575f5ffd5b8063053ab182146101d357806306fdde03146101f4578063095ea7b31461021e575f5ffd5b366101cf57005b5f5ffd5b3480156101de575f5ffd5b506101f26101ed366004611958565b6105c3565b005b3480156101ff575f5ffd5b506102086106ae565b604051610215919061196f565b60405180910390f35b348015610229575f5ffd5b5061023d6102383660046119bf565b61073e565b6040519015158152602001610215565b348015610258575f5ffd5b50600c545b604051908152602001610215565b348015610276575f5ffd5b506014546001600160a01b03165b6040516001600160a01b039091168152602001610215565b3480156102a7575f5ffd5b5061023d6102b63660046119e7565b610757565b3480156102c6575f5ffd5b50600b5460405160ff9091168152602001610215565b3480156102e7575f5ffd5b50600e5461025d565b3480156102fb575f5ffd5b5061023d61030a366004611a21565b60086020525f908152604090205460ff1681565b348015610329575f5ffd5b506101f2610338366004611a21565b61077a565b348015610348575f5ffd5b5061025d610357366004611a3a565b6107c1565b348015610367575f5ffd5b5061023d610376366004611a21565b6001600160a01b03165f9081526007602052604090205460ff1690565b34801561039e575f5ffd5b506101f26103ad366004611a21565b610847565b3480156103bd575f5ffd5b506101f26103cc366004611a21565b61098c565b3480156103dc575f5ffd5b5061025d6103eb366004611a21565b6109f3565b3480156103fb575f5ffd5b506013546001600160a01b0316610284565b348015610418575f5ffd5b50600f5461025d565b34801561042c575f5ffd5b506101f261043b366004611a21565b610a4f565b34801561044b575f5ffd5b50600b5461010090046001600160a01b0316610284565b34801561046d575f5ffd5b50610208610a90565b348015610481575f5ffd5b50601554610284906001600160a01b031681565b3480156104a0575f5ffd5b5061023d6104af3660046119bf565b610a9f565b3480156104bf575f5ffd5b506101f26104ce366004611a21565b610aac565b3480156104de575f5ffd5b506101f2610b13565b3480156104f2575f5ffd5b5061023d610501366004611a21565b6001600160a01b03165f9081526009602052604090205460ff1690565b348015610529575f5ffd5b5061025d60175481565b34801561053e575f5ffd5b5061025d61054d366004611a6c565b6001600160a01b039182165f90815260016020908152604080832093909416825291909152205490565b348015610582575f5ffd5b5060115461025d565b348015610596575f5ffd5b506101f26105a5366004611a21565b610b48565b3480156105b5575f5ffd5b5060185461023d9060ff1681565b335f8181526009602052604090205460ff161561063c5760405162461bcd60e51b815260206004820152602c60248201527f4578636c75646564206164647265737365732063616e6e6f742063616c6c207460448201526b3434b990333ab731ba34b7b760a11b60648201526084015b60405180910390fd5b5f61064683610ce4565b5050506001600160a01b0383165f9081526005602052604090205490915061066f908290611ab1565b6001600160a01b0383165f90815260056020526040902055600d54610695908290611ab1565b600d55600e546106a6908490611ac4565b600e55505050565b6060600380546106bd90611ad7565b80601f01602080910402602001604051908101604052809291908181526020018280546106e990611ad7565b80156107345780601f1061070b57610100808354040283529160200191610734565b820191905f5260205f20905b81548152906001019060200180831161071757829003601f168201915b5050505050905090565b5f3361074b818585610d35565b60019150505b92915050565b5f33610764858285610d47565b61076f858585610dc3565b506001949350505050565b600b54339061010090046001600160a01b03166001600160a01b0316036107be576001600160a01b0381165f908152600760205260409020805460ff191660011790555b50565b5f600c548311156108145760405162461bcd60e51b815260206004820152601f60248201527f416d6f756e74206d757374206265206c657373207468616e20737570706c79006044820152606401610633565b81610830575f61082384610ce4565b5091935061075192505050565b5f61083a84610ce4565b5090935061075192505050565b600b54339061010090046001600160a01b03166001600160a01b0316036107be576001600160a01b0381165f9081526009602052604090205460ff16156108d05760405162461bcd60e51b815260206004820152601b60248201527f4163636f756e7420697320616c7265616479206578636c7564656400000000006044820152606401610633565b6001600160a01b0381165f9081526005602052604090205415610927576001600160a01b0381165f9081526005602052604090205461090e906110b4565b6001600160a01b0382165f908152600660205260409020555b6001600160a01b03165f818152600960205260408120805460ff19166001908117909155600a805491820181559091527fc65a7bb8d6351c1cf70c95a316cc6a92839c986682d98bc35f958f4883f9d2a80180546001600160a01b0319169091179055565b600b54339061010090046001600160a01b03166001600160a01b0316036107be576001600160a01b0381166109d35760405162461bcd60e51b815260040161063390611b0f565b601480546001600160a01b0383166001600160a01b031990911617905550565b6001600160a01b0381165f9081526009602052604081205460ff1615610a2e57506001600160a01b03165f9081526006602052604090205490565b6001600160a01b0382165f90815260056020526040902054610751906110b4565b600b54339061010090046001600160a01b03166001600160a01b0316036107be57601580546001600160a01b0383166001600160a01b031990911617905550565b6060600480546106bd90611ad7565b5f3361074b818585610dc3565b600b54339061010090046001600160a01b03166001600160a01b0316036107be576001600160a01b038116610af35760405162461bcd60e51b815260040161063390611b0f565b601380546001600160a01b0383166001600160a01b031990911617905550565b600b54339061010090046001600160a01b03166001600160a01b031603610b46576018805460ff19166001179055436017555b565b600b54339061010090046001600160a01b03166001600160a01b0316036107be576001600160a01b0381165f9081526009602052604090205460ff16610bd05760405162461bcd60e51b815260206004820152601b60248201527f4163636f756e7420697320616c726561647920696e636c7564656400000000006044820152606401610633565b5f5b600a54811015610ce057816001600160a01b0316600a8281548110610bf957610bf9611b55565b5f918252602090912001546001600160a01b031603610cd857600a8054610c2290600190611ab1565b81548110610c3257610c32611b55565b5f91825260209091200154600a80546001600160a01b039092169183908110610c5d57610c5d611b55565b5f91825260208083209190910180546001600160a01b0319166001600160a01b039485161790559184168152600682526040808220829055600990925220805460ff19169055600a805480610cb457610cb4611b69565b5f8281526020902081015f1990810180546001600160a01b03191690550190555050565b600101610bd2565b5050565b5f5f5f5f5f610cf286611136565b90505f610cff8288611ab1565b90505f610d0a611169565b90505f610d178284611b7d565b90505f610d24838b611b7d565b9a9199509297509095509350505050565b610d42838383600161118a565b505050565b6001600160a01b038381165f908152600160209081526040808320938616835292905220545f19811015610dbd5781811015610daf57604051637dc7a0d960e11b81526001600160a01b03841660048201526024810182905260448101839052606401610633565b610dbd84848484035f61118a565b50505050565b6018548390839060ff16610e3d576001600160a01b0381165f9081526008602052604090205460ff16610e385760405162461bcd60e51b815260206004820152601760248201527f54726164696e67206e6f742079657420656e61626c65640000000000000000006044820152606401610633565b610ec3565b601754610e4b906003611ac4565b4311610ec3576001600160a01b0381165f9081526008602052604090205460ff16610ec35760405162461bcd60e51b815260206004820152602260248201527f4c61756e63682070726f74656374696f6e3a206e6f742077686974656c697374604482015261195960f21b6064820152608401610633565b6001600160a01b038516610f275760405162461bcd60e51b815260206004820152602560248201527f45524332303a207472616e736665722066726f6d20746865207a65726f206164604482015264647265737360d81b6064820152608401610633565b6001600160a01b038416610f895760405162461bcd60e51b815260206004820152602360248201527f45524332303a207472616e7366657220746f20746865207a65726f206164647260448201526265737360e81b6064820152608401610633565b5f610f93866109f3565b905083811015610ff45760405162461bcd60e51b815260206004820152602660248201527f45524332303a207472616e7366657220616d6f756e7420657863656564732062604482015265616c616e636560d01b6064820152608401610633565b6001600160a01b0385165f9081526007602052604090205460ff1661106b5760165484611020876109f3565b61102a9190611ac4565b111561106b5760405162461bcd60e51b815260206004820152601060248201526f5768616c65206465746563746564212160801b6044820152606401610633565b6015545f906001600160a01b038881169116148061109657506015546001600160a01b038781169116145b1561109f575060015b6110ab8787878461125c565b50505050505050565b5f600d5482111561111a5760405162461bcd60e51b815260206004820152602a60248201527f416d6f756e74206d757374206265206c657373207468616e20746f74616c207260448201526965666c656374696f6e7360b01b6064820152608401610633565b5f611123611169565b905061112f8184611b94565b9392505050565b5f5f601154600f546111489190611ac4565b90505f60646111578386611b7d565b6111619190611b94565b949350505050565b5f5f5f6111746113cb565b90925090506111838183611b94565b9250505090565b6001600160a01b0384166111b35760405163e602df0560e01b81525f6004820152602401610633565b6001600160a01b0383166111dc57604051634a1406b160e11b81525f6004820152602401610633565b6001600160a01b038085165f9081526001602090815260408083209387168352929052208290558015610dbd57826001600160a01b0316846001600160a01b03167f8c5be1e5ebec7d5bd14f71427d1e84f3dd0314c0f7b2291e5b200ac8c7c3b9258460405161124e91815260200190565b60405180910390a350505050565b806112695761126961153b565b6001600160a01b0384165f9081526009602052604090205460ff1680156112a857506001600160a01b0383165f9081526009602052604090205460ff16155b156112bd576112b8848484611568565b6113b5565b6001600160a01b0384165f9081526009602052604090205460ff161580156112fc57506001600160a01b0383165f9081526009602052604090205460ff165b1561130c576112b8848484611683565b6001600160a01b0384165f9081526009602052604090205460ff1615801561134c57506001600160a01b0383165f9081526009602052604090205460ff16155b1561135c576112b8848484611722565b6001600160a01b0384165f9081526009602052604090205460ff16801561139a57506001600160a01b0383165f9081526009602052604090205460ff165b156113aa576112b884848461175c565b6113b5848484611722565b80610dbd57610dbd601054600f55601254601155565b600d54600c545f918291825b600a5481101561150a578260055f600a84815481106113f8576113f8611b55565b5f9182526020808320909101546001600160a01b03168352820192909252604001902054118061146057508160065f600a848154811061143a5761143a611b55565b5f9182526020808320909101546001600160a01b03168352820192909252604001902054115b1561147657600d54600c54945094505050509091565b60055f600a838154811061148c5761148c611b55565b5f9182526020808320909101546001600160a01b031683528201929092526040019020546114ba9084611ab1565b925060065f600a83815481106114d2576114d2611b55565b5f9182526020808320909101546001600160a01b031683528201929092526040019020546115009083611ab1565b91506001016113d7565b50600c54600d5461151b9190611b94565b82101561153257600d54600c549350935050509091565b90939092509050565b600f5415801561154b5750601154155b1561155257565b600f8054601055601180546012555f9182905555565b5f5f5f5f61157585610ce4565b6001600160a01b038b165f90815260066020526040902054939750919550935091506115a2908690611ab1565b6001600160a01b0388165f908152600660209081526040808320939093556005905220546115d1908590611ab1565b6001600160a01b038089165f908152600560205260408082209390935590881681522054611600908490611ac4565b6001600160a01b0387165f908152600560205260409020556116238786836117c5565b61162d8582611906565b856001600160a01b0316876001600160a01b03167fddf252ad1be2c89b69c2b068fc378daa952ba7f163c4a11628f55a4df523b3ef8460405161167291815260200190565b60405180910390a350505050505050565b5f5f5f5f61169085610ce4565b6001600160a01b038b165f90815260056020526040902054939750919550935091506116bd908590611ab1565b6001600160a01b038089165f908152600560209081526040808320949094559189168152600690915220546116f3908390611ac4565b6001600160a01b0387165f90815260066020908152604080832093909355600590522054611600908490611ac4565b5f5f5f5f61172f85610ce4565b6001600160a01b038b165f90815260056020526040902054939750919550935091506115d1908590611ab1565b5f5f5f5f61176985610ce4565b6001600160a01b038b165f9081526006602052604090205493975091955093509150611796908690611ab1565b6001600160a01b0388165f908152600660209081526040808320939093556005905220546116bd908590611ab1565b5f6064601154846117d69190611b7d565b6117e09190611b94565b90508015610dbd575f60026117f58484611b7d565b6117ff9190611b94565b6013546001600160a01b03165f90815260056020526040902054909150611827908290611ac4565b6013546001600160a01b039081165f90815260056020526040808220939093556014549091168152205461185c908290611ac4565b6014546001600160a01b039081165f9081526005602090815260409182902093909355601354905185815290821692918816917fddf252ad1be2c89b69c2b068fc378daa952ba7f163c4a11628f55a4df523b3ef910160405180910390a36014546040518381526001600160a01b03918216918716907fddf252ad1be2c89b69c2b068fc378daa952ba7f163c4a11628f55a4df523b3ef9060200160405180910390a35050505050565b5f6064600f54846119179190611b7d565b6119219190611b94565b90505f61192e8383611b7d565b905080600d5461193e9190611ab1565b600d55600e5461194f908390611ac4565b600e5550505050565b5f60208284031215611968575f5ffd5b5035919050565b602081525f82518060208401528060208501604085015e5f604082850101526040601f19601f83011684010191505092915050565b80356001600160a01b03811681146119ba575f5ffd5b919050565b5f5f604083850312156119d0575f5ffd5b6119d9836119a4565b946020939093013593505050565b5f5f5f606084860312156119f9575f5ffd5b611a02846119a4565b9250611a10602085016119a4565b929592945050506040919091013590565b5f60208284031215611a31575f5ffd5b61112f826119a4565b5f5f60408385031215611a4b575f5ffd5b8235915060208301358015158114611a61575f5ffd5b809150509250929050565b5f5f60408385031215611a7d575f5ffd5b611a86836119a4565b9150611a94602084016119a4565b90509250929050565b634e487b7160e01b5f52601160045260245ffd5b8181038181111561075157610751611a9d565b8082018082111561075157610751611a9d565b600181811c90821680611aeb57607f821691505b602082108103611b0957634e487b7160e01b5f52602260045260245ffd5b50919050565b60208082526026908201527f7a65726f20616464726573732063616e206e6f7420626520746865204665654160408201526518d8dbdd5b9d60d21b606082015260800190565b634e487b7160e01b5f52603260045260245ffd5b634e487b7160e01b5f52603160045260245ffd5b808202811582820484141761075157610751611a9d565b5f82611bae57634e487b7160e01b5f52601260045260245ffd5b50049056fea264697066735822122019380d14c9f7bf1dd1e23090b0947411a4ff74a2dd7729dd5972f733931c61fe64736f6c634300081d0033",
					"opcodes": "PUSH1 0x80 PUSH1 0x40 MSTORE PUSH1 0xB DUP1 SLOAD PUSH2 0x100 CALLER MUL PUSH2 0x100 PUSH1 0x1 PUSH1 0xA8 SHL SUB NOT DUP3 AND DUP2 OR SWAP1 SWAP3 SSTORE PUSH0 PUSH1 0xE SSTORE PUSH2 0x35 SWAP2 PUSH1 0xFF SWAP1 DUP2 AND SWAP2 AND OR PUSH1 0xA PUSH2 0x41A JUMP JUMPDEST PUSH2 0x42 SWAP1 PUSH3 0x989680 PUSH2 0x42C JUMP JUMPDEST PUSH1 0x16 SSTORE PUSH1 0x18 DUP1 SLOAD PUSH1 0xFF NOT AND SWAP1 SSTORE CALLVALUE DUP1 ISZERO PUSH2 0x5A JUMPI PUSH0 PUSH0 REVERT JUMPDEST POP PUSH1 0x40 MLOAD DUP1 PUSH1 0x40 ADD PUSH1 0x40 MSTORE DUP1 PUSH1 0xD DUP2 MSTORE PUSH1 0x20 ADD PUSH13 0x21ACA122A921A0AA29A1A7A4A7 PUSH1 0x99 SHL DUP2 MSTORE POP PUSH1 0x40 MLOAD DUP1 PUSH1 0x40 ADD PUSH1 0x40 MSTORE DUP1 PUSH1 0x5 DUP2 MSTORE PUSH1 0x20 ADD PUSH5 0x4359424343 PUSH1 0xD8 SHL DUP2 MSTORE POP DUP2 PUSH1 0x3 SWAP1 DUP2 PUSH2 0xAE SWAP2 SWAP1 PUSH2 0x4DB JUMP JUMPDEST POP PUSH1 0x4 PUSH2 0xBB DUP3 DUP3 PUSH2 0x4DB JUMP JUMPDEST POP POP PUSH1 0xB DUP1 SLOAD PUSH1 0xFF NOT AND PUSH1 0x12 SWAP1 DUP2 OR SWAP1 SWAP2 SSTORE PUSH2 0xD9 SWAP2 POP PUSH1 0xA PUSH2 0x41A JUMP JUMPDEST PUSH2 0xE7 SWAP1 PUSH4 0x3B9ACA00 PUSH2 0x42C JUMP JUMPDEST PUSH1 0xC DUP2 SWAP1 SSTORE PUSH2 0xF7 SWAP1 PUSH0 NOT PUSH2 0x595 JUMP JUMPDEST PUSH2 0x102 SWAP1 PUSH0 NOT PUSH2 0x5B4 JUMP JUMPDEST PUSH1 0xD SWAP1 DUP2 SSTORE PUSH1 0x2 PUSH1 0xF DUP2 SWAP1 SSTORE PUSH1 0x10 DUP2 SWAP1 SSTORE PUSH1 0x11 DUP2 SWAP1 SSTORE PUSH1 0x12 SSTORE PUSH1 0xB DUP1 SLOAD PUSH1 0x13 DUP1 SLOAD PUSH1 0x1 PUSH1 0x1 PUSH1 0xA0 SHL SUB NOT AND PUSH1 0x1 PUSH1 0x1 PUSH1 0xA0 SHL SUB PUSH2 0x100 SWAP4 DUP5 SWAP1 DIV DUP2 AND SWAP2 DUP3 OR DUP4 SSTORE PUSH0 SWAP2 DUP3 MSTORE PUSH1 0x7 PUSH1 0x20 SWAP1 DUP2 MSTORE PUSH1 0x40 DUP1 DUP5 KECCAK256 DUP1 SLOAD PUSH1 0xFF NOT SWAP1 DUP2 AND PUSH1 0x1 SWAP1 DUP2 OR SWAP1 SWAP3 SSTORE SWAP6 SLOAD DUP5 AND DUP6 MSTORE DUP2 DUP6 KECCAK256 DUP1 SLOAD DUP8 AND DUP3 OR SWAP1 SSTORE PUSH1 0x14 SLOAD DUP5 AND DUP6 MSTORE DUP2 DUP6 KECCAK256 DUP1 SLOAD DUP8 AND DUP3 OR SWAP1 SSTORE ADDRESS DUP6 MSTORE DUP2 DUP6 KECCAK256 DUP1 SLOAD SWAP1 SWAP7 AND OR SWAP1 SWAP5 SSTORE SWAP6 SLOAD SWAP5 SLOAD SWAP4 SWAP1 SWAP4 DIV SWAP1 SWAP3 AND DUP3 MSTORE PUSH1 0x5 SWAP1 SWAP4 MSTORE SWAP2 SWAP1 SWAP2 KECCAK256 DUP2 SWAP1 SSTORE PUSH2 0x1B9 SWAP1 CALLER SWAP1 PUSH2 0x1BE JUMP JUMPDEST PUSH2 0x5DA JUMP JUMPDEST PUSH1 0x1 PUSH1 0x1 PUSH1 0xA0 SHL SUB DUP3 AND PUSH2 0x1EC JUMPI PUSH1 0x40 MLOAD PUSH4 0xEC442F05 PUSH1 0xE0 SHL DUP2 MSTORE PUSH0 PUSH1 0x4 DUP3 ADD MSTORE PUSH1 0x24 ADD JUMPDEST PUSH1 0x40 MLOAD DUP1 SWAP2 SUB SWAP1 REVERT JUMPDEST PUSH2 0x1F7 PUSH0 DUP4 DUP4 PUSH2 0x1FB JUMP JUMPDEST POP POP JUMP JUMPDEST PUSH1 0x1 PUSH1 0x1 PUSH1 0xA0 SHL SUB DUP4 AND PUSH2 0x225 JUMPI DUP1 PUSH1 0x2 PUSH0 DUP3 DUP3 SLOAD PUSH2 0x21A SWAP2 SWAP1 PUSH2 0x5C7 JUMP JUMPDEST SWAP1 SWAP2 SSTORE POP PUSH2 0x295 SWAP1 POP JUMP JUMPDEST PUSH1 0x1 PUSH1 0x1 PUSH1 0xA0 SHL SUB DUP4 AND PUSH0 SWAP1 DUP2 MSTORE PUSH1 0x20 DUP2 SWAP1 MSTORE PUSH1 0x40 SWAP1 KECCAK256 SLOAD DUP2 DUP2 LT ISZERO PUSH2 0x277 JUMPI PUSH1 0x40 MLOAD PUSH4 0x391434E3 PUSH1 0xE2 SHL DUP2 MSTORE PUSH1 0x1 PUSH1 0x1 PUSH1 0xA0 SHL SUB DUP6 AND PUSH1 0x4 DUP3 ADD MSTORE PUSH1 0x24 DUP2 ADD DUP3 SWAP1 MSTORE PUSH1 0x44 DUP2 ADD DUP4 SWAP1 MSTORE PUSH1 0x64 ADD PUSH2 0x1E3 JUMP JUMPDEST PUSH1 0x1 PUSH1 0x1 PUSH1 0xA0 SHL SUB DUP5 AND PUSH0 SWAP1 DUP2 MSTORE PUSH1 0x20 DUP2 SWAP1 MSTORE PUSH1 0x40 SWAP1 KECCAK256 SWAP1 DUP3 SWAP1 SUB SWAP1 SSTORE JUMPDEST PUSH1 0x1 PUSH1 0x1 PUSH1 0xA0 SHL SUB DUP3 AND PUSH2 0x2B1 JUMPI PUSH1 0x2 DUP1 SLOAD DUP3 SWAP1 SUB SWAP1 SSTORE PUSH2 0x2CF JUMP JUMPDEST PUSH1 0x1 PUSH1 0x1 PUSH1 0xA0 SHL SUB DUP3 AND PUSH0 SWAP1 DUP2 MSTORE PUSH1 0x20 DUP2 SWAP1 MSTORE PUSH1 0x40 SWAP1 KECCAK256 DUP1 SLOAD DUP3 ADD SWAP1 SSTORE JUMPDEST DUP2 PUSH1 0x1 PUSH1 0x1 PUSH1 0xA0 SHL SUB AND DUP4 PUSH1 0x1 PUSH1 0x1 PUSH1 0xA0 SHL SUB AND PUSH32 0xDDF252AD1BE2C89B69C2B068FC378DAA952BA7F163C4A11628F55A4DF523B3EF DUP4 PUSH1 0x40 MLOAD PUSH2 0x314 SWAP2 DUP2 MSTORE PUSH1 0x20 ADD SWAP1 JUMP JUMPDEST PUSH1 0x40 MLOAD DUP1 SWAP2 SUB SWAP1 LOG3 POP POP POP JUMP JUMPDEST PUSH4 0x4E487B71 PUSH1 0xE0 SHL PUSH0 MSTORE PUSH1 0x11 PUSH1 0x4 MSTORE PUSH1 0x24 PUSH0 REVERT JUMPDEST PUSH1 0x1 DUP2 JUMPDEST PUSH1 0x1 DUP5 GT ISZERO PUSH2 0x370 JUMPI DUP1 DUP6 DIV DUP2 GT ISZERO PUSH2 0x354 JUMPI PUSH2 0x354 PUSH2 0x321 JUMP JUMPDEST PUSH1 0x1 DUP5 AND ISZERO PUSH2 0x362 JUMPI SWAP1 DUP2 MUL SWAP1 JUMPDEST PUSH1 0x1 SWAP4 SWAP1 SWAP4 SHR SWAP3 DUP1 MUL PUSH2 0x339 JUMP JUMPDEST SWAP4 POP SWAP4 SWAP2 POP POP JUMP JUMPDEST PUSH0 DUP3 PUSH2 0x386 JUMPI POP PUSH1 0x1 PUSH2 0x414 JUMP JUMPDEST DUP2 PUSH2 0x392 JUMPI POP PUSH0 PUSH2 0x414 JUMP JUMPDEST DUP2 PUSH1 0x1 DUP2 EQ PUSH2 0x3A8 JUMPI PUSH1 0x2 DUP2 EQ PUSH2 0x3B2 JUMPI PUSH2 0x3CE JUMP JUMPDEST PUSH1 0x1 SWAP2 POP POP PUSH2 0x414 JUMP JUMPDEST PUSH1 0xFF DUP5 GT ISZERO PUSH2 0x3C3 JUMPI PUSH2 0x3C3 PUSH2 0x321 JUMP JUMPDEST POP POP PUSH1 0x1 DUP3 SHL PUSH2 0x414 JUMP JUMPDEST POP PUSH1 0x20 DUP4 LT PUSH2 0x133 DUP4 LT AND PUSH1 0x4E DUP5 LT PUSH1 0xB DUP5 LT AND OR ISZERO PUSH2 0x3F1 JUMPI POP DUP2 DUP2 EXP PUSH2 0x414 JUMP JUMPDEST PUSH2 0x3FD PUSH0 NOT DUP5 DUP5 PUSH2 0x335 JUMP JUMPDEST DUP1 PUSH0 NOT DIV DUP3 GT ISZERO PUSH2 0x410 JUMPI PUSH2 0x410 PUSH2 0x321 JUMP JUMPDEST MUL SWAP1 POP JUMPDEST SWAP3 SWAP2 POP POP JUMP JUMPDEST PUSH0 PUSH2 0x425 DUP4 DUP4 PUSH2 0x378 JUMP JUMPDEST SWAP4 SWAP3 POP POP POP JUMP JUMPDEST DUP1 DUP3 MUL DUP2 ISZERO DUP3 DUP3 DIV DUP5 EQ OR PUSH2 0x414 JUMPI PUSH2 0x414 PUSH2 0x321 JUMP JUMPDEST PUSH4 0x4E487B71 PUSH1 0xE0 SHL PUSH0 MSTORE PUSH1 0x41 PUSH1 0x4 MSTORE PUSH1 0x24 PUSH0 REVERT JUMPDEST PUSH1 0x1 DUP2 DUP2 SHR SWAP1 DUP3 AND DUP1 PUSH2 0x46B JUMPI PUSH1 0x7F DUP3 AND SWAP2 POP JUMPDEST PUSH1 0x20 DUP3 LT DUP2 SUB PUSH2 0x489 JUMPI PUSH4 0x4E487B71 PUSH1 0xE0 SHL PUSH0 MSTORE PUSH1 0x22 PUSH1 0x4 MSTORE PUSH1 0x24 PUSH0 REVERT JUMPDEST POP SWAP2 SWAP1 POP JUMP JUMPDEST PUSH1 0x1F DUP3 GT ISZERO PUSH2 0x4D6 JUMPI DUP1 PUSH0 MSTORE PUSH1 0x20 PUSH0 KECCAK256 PUSH1 0x1F DUP5 ADD PUSH1 0x5 SHR DUP2 ADD PUSH1 0x20 DUP6 LT ISZERO PUSH2 0x4B4 JUMPI POP DUP1 JUMPDEST PUSH1 0x1F DUP5 ADD PUSH1 0x5 SHR DUP3 ADD SWAP2 POP JUMPDEST DUP2 DUP2 LT ISZERO PUSH2 0x4D3 JUMPI PUSH0 DUP2 SSTORE PUSH1 0x1 ADD PUSH2 0x4C0 JUMP JUMPDEST POP POP JUMPDEST POP POP POP JUMP JUMPDEST DUP2 MLOAD PUSH1 0x1 PUSH1 0x1 PUSH1 0x40 SHL SUB DUP2 GT ISZERO PUSH2 0x4F4 JUMPI PUSH2 0x4F4 PUSH2 0x443 JUMP JUMPDEST PUSH2 0x508 DUP2 PUSH2 0x502 DUP5 SLOAD PUSH2 0x457 JUMP JUMPDEST DUP5 PUSH2 0x48F JUMP JUMPDEST PUSH1 0x20 PUSH1 0x1F DUP3 GT PUSH1 0x1 DUP2 EQ PUSH2 0x53A JUMPI PUSH0 DUP4 ISZERO PUSH2 0x523 JUMPI POP DUP5 DUP3 ADD MLOAD JUMPDEST PUSH0 NOT PUSH1 0x3 DUP6 SWAP1 SHL SHR NOT AND PUSH1 0x1 DUP5 SWAP1 SHL OR DUP5 SSTORE PUSH2 0x4D3 JUMP JUMPDEST PUSH0 DUP5 DUP2 MSTORE PUSH1 0x20 DUP2 KECCAK256 PUSH1 0x1F NOT DUP6 AND SWAP2 JUMPDEST DUP3 DUP2 LT ISZERO PUSH2 0x569 JUMPI DUP8 DUP6 ADD MLOAD DUP3 SSTORE PUSH1 0x20 SWAP5 DUP6 ADD SWAP5 PUSH1 0x1 SWAP1 SWAP3 ADD SWAP2 ADD PUSH2 0x549 JUMP JUMPDEST POP DUP5 DUP3 LT ISZERO PUSH2 0x586 JUMPI DUP7 DUP5 ADD MLOAD PUSH0 NOT PUSH1 0x3 DUP8 SWAP1 SHL PUSH1 0xF8 AND SHR NOT AND DUP2 SSTORE JUMPDEST POP POP POP POP PUSH1 0x1 SWAP1 DUP2 SHL ADD SWAP1 SSTORE POP JUMP JUMPDEST PUSH0 DUP3 PUSH2 0x5AF JUMPI PUSH4 0x4E487B71 PUSH1 0xE0 SHL PUSH0 MSTORE PUSH1 0x12 PUSH1 0x4 MSTORE PUSH1 0x24 PUSH0 REVERT JUMPDEST POP MOD SWAP1 JUMP JUMPDEST DUP2 DUP2 SUB DUP2 DUP2 GT ISZERO PUSH2 0x414 JUMPI PUSH2 0x414 PUSH2 0x321 JUMP JUMPDEST DUP1 DUP3 ADD DUP1 DUP3 GT ISZERO PUSH2 0x414 JUMPI PUSH2 0x414 PUSH2 0x321 JUMP JUMPDEST PUSH2 0x1BE9 DUP1 PUSH2 0x5E7 PUSH0 CODECOPY PUSH0 RETURN INVALID PUSH1 0x80 PUSH1 0x40 MSTORE PUSH1 0x4 CALLDATASIZE LT PUSH2 0x1C8 JUMPI PUSH0 CALLDATALOAD PUSH1 0xE0 SHR DUP1 PUSH4 0x838FCC90 GT PUSH2 0xF2 JUMPI DUP1 PUSH4 0xC4863770 GT PUSH2 0x92 JUMPI DUP1 PUSH4 0xDD62ED3E GT PUSH2 0x62 JUMPI DUP1 PUSH4 0xDD62ED3E EQ PUSH2 0x533 JUMPI DUP1 PUSH4 0xF66608FE EQ PUSH2 0x577 JUMPI DUP1 PUSH4 0xFDEB889F EQ PUSH2 0x58B JUMPI DUP1 PUSH4 0xFFB54A99 EQ PUSH2 0x5AA JUMPI PUSH0 PUSH0 REVERT JUMPDEST DUP1 PUSH4 0xC4863770 EQ PUSH2 0x4B4 JUMPI DUP1 PUSH4 0xC9567BF9 EQ PUSH2 0x4D3 JUMPI DUP1 PUSH4 0xCBA0E996 EQ PUSH2 0x4E7 JUMPI DUP1 PUSH4 0xD00EFB2F EQ PUSH2 0x51E JUMPI PUSH0 PUSH0 REVERT JUMPDEST DUP1 PUSH4 0x8DA5CB5B GT PUSH2 0xCD JUMPI DUP1 PUSH4 0x8DA5CB5B EQ PUSH2 0x440 JUMPI DUP1 PUSH4 0x95D89B41 EQ PUSH2 0x462 JUMPI DUP1 PUSH4 0xA8B08982 EQ PUSH2 0x476 JUMPI DUP1 PUSH4 0xA9059CBB EQ PUSH2 0x495 JUMPI PUSH0 PUSH0 REVERT JUMPDEST DUP1 PUSH4 0x838FCC90 EQ PUSH2 0x3F0 JUMPI DUP1 PUSH4 0x83AD7994 EQ PUSH2 0x40D JUMPI DUP1 PUSH4 0x8873B15F EQ PUSH2 0x421 JUMPI PUSH0 PUSH0 REVERT JUMPDEST DUP1 PUSH4 0x32035504 GT PUSH2 0x168 JUMPI DUP1 PUSH4 0x5342ACB4 GT PUSH2 0x138 JUMPI DUP1 PUSH4 0x5342ACB4 EQ PUSH2 0x35C JUMPI DUP1 PUSH4 0x6049876E EQ PUSH2 0x393 JUMPI DUP1 PUSH4 0x706407FD EQ PUSH2 0x3B2 JUMPI DUP1 PUSH4 0x70A08231 EQ PUSH2 0x3D1 JUMPI PUSH0 PUSH0 REVERT JUMPDEST DUP1 PUSH4 0x32035504 EQ PUSH2 0x2DC JUMPI DUP1 PUSH4 0x3AF32ABF EQ PUSH2 0x2F0 JUMPI DUP1 PUSH4 0x437823EC EQ PUSH2 0x31E JUMPI DUP1 PUSH4 0x4549B039 EQ PUSH2 0x33D JUMPI PUSH0 PUSH0 REVERT JUMPDEST DUP1 PUSH4 0x18160DDD GT PUSH2 0x1A3 JUMPI DUP1 PUSH4 0x18160DDD EQ PUSH2 0x24D JUMPI DUP1 PUSH4 0x1CF8FEF5 EQ PUSH2 0x26B JUMPI DUP1 PUSH4 0x23B872DD EQ PUSH2 0x29C JUMPI DUP1 PUSH4 0x313CE567 EQ PUSH2 0x2BB JUMPI PUSH0 PUSH0 REVERT JUMPDEST DUP1 PUSH4 0x53AB182 EQ PUSH2 0x1D3 JUMPI DUP1 PUSH4 0x6FDDE03 EQ PUSH2 0x1F4 JUMPI DUP1 PUSH4 0x95EA7B3 EQ PUSH2 0x21E JUMPI PUSH0 PUSH0 REVERT JUMPDEST CALLDATASIZE PUSH2 0x1CF JUMPI STOP JUMPDEST PUSH0 PUSH0 REVERT JUMPDEST CALLVALUE DUP1 ISZERO PUSH2 0x1DE JUMPI PUSH0 PUSH0 REVERT JUMPDEST POP PUSH2 0x1F2 PUSH2 0x1ED CALLDATASIZE PUSH1 0x4 PUSH2 0x1958 JUMP JUMPDEST PUSH2 0x5C3 JUMP JUMPDEST STOP JUMPDEST CALLVALUE DUP1 ISZERO PUSH2 0x1FF JUMPI PUSH0 PUSH0 REVERT JUMPDEST POP PUSH2 0x208 PUSH2 0x6AE JUMP JUMPDEST PUSH1 0x40 MLOAD PUSH2 0x215 SWAP2 SWAP1 PUSH2 0x196F JUMP JUMPDEST PUSH1 0x40 MLOAD DUP1 SWAP2 SUB SWAP1 RETURN JUMPDEST CALLVALUE DUP1 ISZERO PUSH2 0x229 JUMPI PUSH0 PUSH0 REVERT JUMPDEST POP PUSH2 0x23D PUSH2 0x238 CALLDATASIZE PUSH1 0x4 PUSH2 0x19BF JUMP JUMPDEST PUSH2 0x73E JUMP JUMPDEST PUSH1 0x40 MLOAD SWAP1 ISZERO ISZERO DUP2 MSTORE PUSH1 0x20 ADD PUSH2 0x215 JUMP JUMPDEST CALLVALUE DUP1 ISZERO PUSH2 0x258 JUMPI PUSH0 PUSH0 REVERT JUMPDEST POP PUSH1 0xC SLOAD JUMPDEST PUSH1 0x40 MLOAD SWAP1 DUP2 MSTORE PUSH1 0x20 ADD PUSH2 0x215 JUMP JUMPDEST CALLVALUE DUP1 ISZERO PUSH2 0x276 JUMPI PUSH0 PUSH0 REVERT JUMPDEST POP PUSH1 0x14 SLOAD PUSH1 0x1 PUSH1 0x1 PUSH1 0xA0 SHL SUB AND JUMPDEST PUSH1 0x40 MLOAD PUSH1 0x1 PUSH1 0x1 PUSH1 0xA0 SHL SUB SWAP1 SWAP2 AND DUP2 MSTORE PUSH1 0x20 ADD PUSH2 0x215 JUMP JUMPDEST CALLVALUE DUP1 ISZERO PUSH2 0x2A7 JUMPI PUSH0 PUSH0 REVERT JUMPDEST POP PUSH2 0x23D PUSH2 0x2B6 CALLDATASIZE PUSH1 0x4 PUSH2 0x19E7 JUMP JUMPDEST PUSH2 0x757 JUMP JUMPDEST CALLVALUE DUP1 ISZERO PUSH2 0x2C6 JUMPI PUSH0 PUSH0 REVERT JUMPDEST POP PUSH1 0xB SLOAD PUSH1 0x40 MLOAD PUSH1 0xFF SWAP1 SWAP2 AND DUP2 MSTORE PUSH1 0x20 ADD PUSH2 0x215 JUMP JUMPDEST CALLVALUE DUP1 ISZERO PUSH2 0x2E7 JUMPI PUSH0 PUSH0 REVERT JUMPDEST POP PUSH1 0xE SLOAD PUSH2 0x25D JUMP JUMPDEST CALLVALUE DUP1 ISZERO PUSH2 0x2FB JUMPI PUSH0 PUSH0 REVERT JUMPDEST POP PUSH2 0x23D PUSH2 0x30A CALLDATASIZE PUSH1 0x4 PUSH2 0x1A21 JUMP JUMPDEST PUSH1 0x8 PUSH1 0x20 MSTORE PUSH0 SWAP1 DUP2 MSTORE PUSH1 0x40 SWAP1 KECCAK256 SLOAD PUSH1 0xFF AND DUP2 JUMP JUMPDEST CALLVALUE DUP1 ISZERO PUSH2 0x329 JUMPI PUSH0 PUSH0 REVERT JUMPDEST POP PUSH2 0x1F2 PUSH2 0x338 CALLDATASIZE PUSH1 0x4 PUSH2 0x1A21 JUMP JUMPDEST PUSH2 0x77A JUMP JUMPDEST CALLVALUE DUP1 ISZERO PUSH2 0x348 JUMPI PUSH0 PUSH0 REVERT JUMPDEST POP PUSH2 0x25D PUSH2 0x357 CALLDATASIZE PUSH1 0x4 PUSH2 0x1A3A JUMP JUMPDEST PUSH2 0x7C1 JUMP JUMPDEST CALLVALUE DUP1 ISZERO PUSH2 0x367 JUMPI PUSH0 PUSH0 REVERT JUMPDEST POP PUSH2 0x23D PUSH2 0x376 CALLDATASIZE PUSH1 0x4 PUSH2 0x1A21 JUMP JUMPDEST PUSH1 0x1 PUSH1 0x1 PUSH1 0xA0 SHL SUB AND PUSH0 SWAP1 DUP2 MSTORE PUSH1 0x7 PUSH1 0x20 MSTORE PUSH1 0x40 SWAP1 KECCAK256 SLOAD PUSH1 0xFF AND SWAP1 JUMP JUMPDEST CALLVALUE DUP1 ISZERO PUSH2 0x39E JUMPI PUSH0 PUSH0 REVERT JUMPDEST POP PUSH2 0x1F2 PUSH2 0x3AD CALLDATASIZE PUSH1 0x4 PUSH2 0x1A21 JUMP JUMPDEST PUSH2 0x847 JUMP JUMPDEST CALLVALUE DUP1 ISZERO PUSH2 0x3BD JUMPI PUSH0 PUSH0 REVERT JUMPDEST POP PUSH2 0x1F2 PUSH2 0x3CC CALLDATASIZE PUSH1 0x4 PUSH2 0x1A21 JUMP JUMPDEST PUSH2 0x98C JUMP JUMPDEST CALLVALUE DUP1 ISZERO PUSH2 0x3DC JUMPI PUSH0 PUSH0 REVERT JUMPDEST POP PUSH2 0x25D PUSH2 0x3EB CALLDATASIZE PUSH1 0x4 PUSH2 0x1A21 JUMP JUMPDEST PUSH2 0x9F3 JUMP JUMPDEST CALLVALUE DUP1 ISZERO PUSH2 0x3FB JUMPI PUSH0 PUSH0 REVERT JUMPDEST POP PUSH1 0x13 SLOAD PUSH1 0x1 PUSH1 0x1 PUSH1 0xA0 SHL SUB AND PUSH2 0x284 JUMP JUMPDEST CALLVALUE DUP1 ISZERO PUSH2 0x418 JUMPI PUSH0 PUSH0 REVERT JUMPDEST POP PUSH1 0xF SLOAD PUSH2 0x25D JUMP JUMPDEST CALLVALUE DUP1 ISZERO PUSH2 0x42C JUMPI PUSH0 PUSH0 REVERT JUMPDEST POP PUSH2 0x1F2 PUSH2 0x43B CALLDATASIZE PUSH1 0x4 PUSH2 0x1A21 JUMP JUMPDEST PUSH2 0xA4F JUMP JUMPDEST CALLVALUE DUP1 ISZERO PUSH2 0x44B JUMPI PUSH0 PUSH0 REVERT JUMPDEST POP PUSH1 0xB SLOAD PUSH2 0x100 SWAP1 DIV PUSH1 0x1 PUSH1 0x1 PUSH1 0xA0 SHL SUB AND PUSH2 0x284 JUMP JUMPDEST CALLVALUE DUP1 ISZERO PUSH2 0x46D JUMPI PUSH0 PUSH0 REVERT JUMPDEST POP PUSH2 0x208 PUSH2 0xA90 JUMP JUMPDEST CALLVALUE DUP1 ISZERO PUSH2 0x481 JUMPI PUSH0 PUSH0 REVERT JUMPDEST POP PUSH1 0x15 SLOAD PUSH2 0x284 SWAP1 PUSH1 0x1 PUSH1 0x1 PUSH1 0xA0 SHL SUB AND DUP2 JUMP JUMPDEST CALLVALUE DUP1 ISZERO PUSH2 0x4A0 JUMPI PUSH0 PUSH0 REVERT JUMPDEST POP PUSH2 0x23D PUSH2 0x4AF CALLDATASIZE PUSH1 0x4 PUSH2 0x19BF JUMP JUMPDEST PUSH2 0xA9F JUMP JUMPDEST CALLVALUE DUP1 ISZERO PUSH2 0x4BF JUMPI PUSH0 PUSH0 REVERT JUMPDEST POP PUSH2 0x1F2 PUSH2 0x4CE CALLDATASIZE PUSH1 0x4 PUSH2 0x1A21 JUMP JUMPDEST PUSH2 0xAAC JUMP JUMPDEST CALLVALUE DUP1 ISZERO PUSH2 0x4DE JUMPI PUSH0 PUSH0 REVERT JUMPDEST POP PUSH2 0x1F2 PUSH2 0xB13 JUMP JUMPDEST CALLVALUE DUP1 ISZERO PUSH2 0x4F2 JUMPI PUSH0 PUSH0 REVERT JUMPDEST POP PUSH2 0x23D PUSH2 0x501 CALLDATASIZE PUSH1 0x4 PUSH2 0x1A21 JUMP JUMPDEST PUSH1 0x1 PUSH1 0x1 PUSH1 0xA0 SHL SUB AND PUSH0 SWAP1 DUP2 MSTORE PUSH1 0x9 PUSH1 0x20 MSTORE PUSH1 0x40 SWAP1 KECCAK256 SLOAD PUSH1 0xFF AND SWAP1 JUMP JUMPDEST CALLVALUE DUP1 ISZERO PUSH2 0x529 JUMPI PUSH0 PUSH0 REVERT JUMPDEST POP PUSH2 0x25D PUSH1 0x17 SLOAD DUP2 JUMP JUMPDEST CALLVALUE DUP1 ISZERO PUSH2 0x53E JUMPI PUSH0 PUSH0 REVERT JUMPDEST POP PUSH2 0x25D PUSH2 0x54D CALLDATASIZE PUSH1 0x4 PUSH2 0x1A6C JUMP JUMPDEST PUSH1 0x1 PUSH1 0x1 PUSH1 0xA0 SHL SUB SWAP2 DUP3 AND PUSH0 SWAP1 DUP2 MSTORE PUSH1 0x1 PUSH1 0x20 SWAP1 DUP2 MSTORE PUSH1 0x40 DUP1 DUP4 KECCAK256 SWAP4 SWAP1 SWAP5 AND DUP3 MSTORE SWAP2 SWAP1 SWAP2 MSTORE KECCAK256 SLOAD SWAP1 JUMP JUMPDEST CALLVALUE DUP1 ISZERO PUSH2 0x582 JUMPI PUSH0 PUSH0 REVERT JUMPDEST POP PUSH1 0x11 SLOAD PUSH2 0x25D JUMP JUMPDEST CALLVALUE DUP1 ISZERO PUSH2 0x596 JUMPI PUSH0 PUSH0 REVERT JUMPDEST POP PUSH2 0x1F2 PUSH2 0x5A5 CALLDATASIZE PUSH1 0x4 PUSH2 0x1A21 JUMP JUMPDEST PUSH2 0xB48 JUMP JUMPDEST CALLVALUE DUP1 ISZERO PUSH2 0x5B5 JUMPI PUSH0 PUSH0 REVERT JUMPDEST POP PUSH1 0x18 SLOAD PUSH2 0x23D SWAP1 PUSH1 0xFF AND DUP2 JUMP JUMPDEST CALLER PUSH0 DUP2 DUP2 MSTORE PUSH1 0x9 PUSH1 0x20 MSTORE PUSH1 0x40 SWAP1 KECCAK256 SLOAD PUSH1 0xFF AND ISZERO PUSH2 0x63C JUMPI PUSH1 0x40 MLOAD PUSH3 0x461BCD PUSH1 0xE5 SHL DUP2 MSTORE PUSH1 0x20 PUSH1 0x4 DUP3 ADD MSTORE PUSH1 0x2C PUSH1 0x24 DUP3 ADD MSTORE PUSH32 0x4578636C75646564206164647265737365732063616E6E6F742063616C6C2074 PUSH1 0x44 DUP3 ADD MSTORE PUSH12 0x3434B990333AB731BA34B7B7 PUSH1 0xA1 SHL PUSH1 0x64 DUP3 ADD MSTORE PUSH1 0x84 ADD JUMPDEST PUSH1 0x40 MLOAD DUP1 SWAP2 SUB SWAP1 REVERT JUMPDEST PUSH0 PUSH2 0x646 DUP4 PUSH2 0xCE4 JUMP JUMPDEST POP POP POP PUSH1 0x1 PUSH1 0x1 PUSH1 0xA0 SHL SUB DUP4 AND PUSH0 SWAP1 DUP2 MSTORE PUSH1 0x5 PUSH1 0x20 MSTORE PUSH1 0x40 SWAP1 KECCAK256 SLOAD SWAP1 SWAP2 POP PUSH2 0x66F SWAP1 DUP3 SWAP1 PUSH2 0x1AB1 JUMP JUMPDEST PUSH1 0x1 PUSH1 0x1 PUSH1 0xA0 SHL SUB DUP4 AND PUSH0 SWAP1 DUP2 MSTORE PUSH1 0x5 PUSH1 0x20 MSTORE PUSH1 0x40 SWAP1 KECCAK256 SSTORE PUSH1 0xD SLOAD PUSH2 0x695 SWAP1 DUP3 SWAP1 PUSH2 0x1AB1 JUMP JUMPDEST PUSH1 0xD SSTORE PUSH1 0xE SLOAD PUSH2 0x6A6 SWAP1 DUP5 SWAP1 PUSH2 0x1AC4 JUMP JUMPDEST PUSH1 0xE SSTORE POP POP POP JUMP JUMPDEST PUSH1 0x60 PUSH1 0x3 DUP1 SLOAD PUSH2 0x6BD SWAP1 PUSH2 0x1AD7 JUMP JUMPDEST DUP1 PUSH1 0x1F ADD PUSH1 0x20 DUP1 SWAP2 DIV MUL PUSH1 0x20 ADD PUSH1 0x40 MLOAD SWAP1 DUP2 ADD PUSH1 0x40 MSTORE DUP1 SWAP3 SWAP2 SWAP1 DUP2 DUP2 MSTORE PUSH1 0x20 ADD DUP3 DUP1 SLOAD PUSH2 0x6E9 SWAP1 PUSH2 0x1AD7 JUMP JUMPDEST DUP1 ISZERO PUSH2 0x734 JUMPI DUP1 PUSH1 0x1F LT PUSH2 0x70B JUMPI PUSH2 0x100 DUP1 DUP4 SLOAD DIV MUL DUP4 MSTORE SWAP2 PUSH1 0x20 ADD SWAP2 PUSH2 0x734 JUMP JUMPDEST DUP3 ADD SWAP2 SWAP1 PUSH0 MSTORE PUSH1 0x20 PUSH0 KECCAK256 SWAP1 JUMPDEST DUP2 SLOAD DUP2 MSTORE SWAP1 PUSH1 0x1 ADD SWAP1 PUSH1 0x20 ADD DUP1 DUP4 GT PUSH2 0x717 JUMPI DUP3 SWAP1 SUB PUSH1 0x1F AND DUP3 ADD SWAP2 JUMPDEST POP POP POP POP POP SWAP1 POP SWAP1 JUMP JUMPDEST PUSH0 CALLER PUSH2 0x74B DUP2 DUP6 DUP6 PUSH2 0xD35 JUMP JUMPDEST PUSH1 0x1 SWAP2 POP POP JUMPDEST SWAP3 SWAP2 POP POP JUMP JUMPDEST PUSH0 CALLER PUSH2 0x764 DUP6 DUP3 DUP6 PUSH2 0xD47 JUMP JUMPDEST PUSH2 0x76F DUP6 DUP6 DUP6 PUSH2 0xDC3 JUMP JUMPDEST POP PUSH1 0x1 SWAP5 SWAP4 POP POP POP POP JUMP JUMPDEST PUSH1 0xB SLOAD CALLER SWAP1 PUSH2 0x100 SWAP1 DIV PUSH1 0x1 PUSH1 0x1 PUSH1 0xA0 SHL SUB AND PUSH1 0x1 PUSH1 0x1 PUSH1 0xA0 SHL SUB AND SUB PUSH2 0x7BE JUMPI PUSH1 0x1 PUSH1 0x1 PUSH1 0xA0 SHL SUB DUP2 AND PUSH0 SWAP1 DUP2 MSTORE PUSH1 0x7 PUSH1 0x20 MSTORE PUSH1 0x40 SWAP1 KECCAK256 DUP1 SLOAD PUSH1 0xFF NOT AND PUSH1 0x1 OR SWAP1 SSTORE JUMPDEST POP JUMP JUMPDEST PUSH0 PUSH1 0xC SLOAD DUP4 GT ISZERO PUSH2 0x814 JUMPI PUSH1 0x40 MLOAD PUSH3 0x461BCD PUSH1 0xE5 SHL DUP2 MSTORE PUSH1 0x20 PUSH1 0x4 DUP3 ADD MSTORE PUSH1 0x1F PUSH1 0x24 DUP3 ADD MSTORE PUSH32 0x416D6F756E74206D757374206265206C657373207468616E20737570706C7900 PUSH1 0x44 DUP3 ADD MSTORE PUSH1 0x64 ADD PUSH2 0x633 JUMP JUMPDEST DUP2 PUSH2 0x830 JUMPI PUSH0 PUSH2 0x823 DUP5 PUSH2 0xCE4 JUMP JUMPDEST POP SWAP2 SWAP4 POP PUSH2 0x751 SWAP3 POP POP POP JUMP JUMPDEST PUSH0 PUSH2 0x83A DUP5 PUSH2 0xCE4 JUMP JUMPDEST POP SWAP1 SWAP4 POP PUSH2 0x751 SWAP3 POP POP POP JUMP JUMPDEST PUSH1 0xB SLOAD CALLER SWAP1 PUSH2 0x100 SWAP1 DIV PUSH1 0x1 PUSH1 0x1 PUSH1 0xA0 SHL SUB AND PUSH1 0x1 PUSH1 0x1 PUSH1 0xA0 SHL SUB AND SUB PUSH2 0x7BE JUMPI PUSH1 0x1 PUSH1 0x1 PUSH1 0xA0 SHL SUB DUP2 AND PUSH0 SWAP1 DUP2 MSTORE PUSH1 0x9 PUSH1 0x20 MSTORE PUSH1 0x40 SWAP1 KECCAK256 SLOAD PUSH1 0xFF AND ISZERO PUSH2 0x8D0 JUMPI PUSH1 0x40 MLOAD PUSH3 0x461BCD PUSH1 0xE5 SHL DUP2 MSTORE PUSH1 0x20 PUSH1 0x4 DUP3 ADD MSTORE PUSH1 0x1B PUSH1 0x24 DUP3 ADD MSTORE PUSH32 0x4163636F756E7420697320616C7265616479206578636C756465640000000000 PUSH1 0x44 DUP3 ADD MSTORE PUSH1 0x64 ADD PUSH2 0x633 JUMP JUMPDEST PUSH1 0x1 PUSH1 0x1 PUSH1 0xA0 SHL SUB DUP2 AND PUSH0 SWAP1 DUP2 MSTORE PUSH1 0x5 PUSH1 0x20 MSTORE PUSH1 0x40 SWAP1 KECCAK256 SLOAD ISZERO PUSH2 0x927 JUMPI PUSH1 0x1 PUSH1 0x1 PUSH1 0xA0 SHL SUB DUP2 AND PUSH0 SWAP1 DUP2 MSTORE PUSH1 0x5 PUSH1 0x20 MSTORE PUSH1 0x40 SWAP1 KECCAK256 SLOAD PUSH2 0x90E SWAP1 PUSH2 0x10B4 JUMP JUMPDEST PUSH1 0x1 PUSH1 0x1 PUSH1 0xA0 SHL SUB DUP3 AND PUSH0 SWAP1 DUP2 MSTORE PUSH1 0x6 PUSH1 0x20 MSTORE PUSH1 0x40 SWAP1 KECCAK256 SSTORE JUMPDEST PUSH1 0x1 PUSH1 0x1 PUSH1 0xA0 SHL SUB AND PUSH0 DUP2 DUP2 MSTORE PUSH1 0x9 PUSH1 0x20 MSTORE PUSH1 0x40 DUP2 KECCAK256 DUP1 SLOAD PUSH1 0xFF NOT AND PUSH1 0x1 SWAP1 DUP2 OR SWAP1 SWAP2 SSTORE PUSH1 0xA DUP1 SLOAD SWAP2 DUP3 ADD DUP2 SSTORE SWAP1 SWAP2 MSTORE PUSH32 0xC65A7BB8D6351C1CF70C95A316CC6A92839C986682D98BC35F958F4883F9D2A8 ADD DUP1 SLOAD PUSH1 0x1 PUSH1 0x1 PUSH1 0xA0 SHL SUB NOT AND SWAP1 SWAP2 OR SWAP1 SSTORE JUMP JUMPDEST PUSH1 0xB SLOAD CALLER SWAP1 PUSH2 0x100 SWAP1 DIV PUSH1 0x1 PUSH1 0x1 PUSH1 0xA0 SHL SUB AND PUSH1 0x1 PUSH1 0x1 PUSH1 0xA0 SHL SUB AND SUB PUSH2 0x7BE JUMPI PUSH1 0x1 PUSH1 0x1 PUSH1 0xA0 SHL SUB DUP2 AND PUSH2 0x9D3 JUMPI PUSH1 0x40 MLOAD PUSH3 0x461BCD PUSH1 0xE5 SHL DUP2 MSTORE PUSH1 0x4 ADD PUSH2 0x633 SWAP1 PUSH2 0x1B0F JUMP JUMPDEST PUSH1 0x14 DUP1 SLOAD PUSH1 0x1 PUSH1 0x1 PUSH1 0xA0 SHL SUB DUP4 AND PUSH1 0x1 PUSH1 0x1 PUSH1 0xA0 SHL SUB NOT SWAP1 SWAP2 AND OR SWAP1 SSTORE POP JUMP JUMPDEST PUSH1 0x1 PUSH1 0x1 PUSH1 0xA0 SHL SUB DUP2 AND PUSH0 SWAP1 DUP2 MSTORE PUSH1 0x9 PUSH1 0x20 MSTORE PUSH1 0x40 DUP2 KECCAK256 SLOAD PUSH1 0xFF AND ISZERO PUSH2 0xA2E JUMPI POP PUSH1 0x1 PUSH1 0x1 PUSH1 0xA0 SHL SUB AND PUSH0 SWAP1 DUP2 MSTORE PUSH1 0x6 PUSH1 0x20 MSTORE PUSH1 0x40 SWAP1 KECCAK256 SLOAD SWAP1 JUMP JUMPDEST PUSH1 0x1 PUSH1 0x1 PUSH1 0xA0 SHL SUB DUP3 AND PUSH0 SWAP1 DUP2 MSTORE PUSH1 0x5 PUSH1 0x20 MSTORE PUSH1 0x40 SWAP1 KECCAK256 SLOAD PUSH2 0x751 SWAP1 PUSH2 0x10B4 JUMP JUMPDEST PUSH1 0xB SLOAD CALLER SWAP1 PUSH2 0x100 SWAP1 DIV PUSH1 0x1 PUSH1 0x1 PUSH1 0xA0 SHL SUB AND PUSH1 0x1 PUSH1 0x1 PUSH1 0xA0 SHL SUB AND SUB PUSH2 0x7BE JUMPI PUSH1 0x15 DUP1 SLOAD PUSH1 0x1 PUSH1 0x1 PUSH1 0xA0 SHL SUB DUP4 AND PUSH1 0x1 PUSH1 0x1 PUSH1 0xA0 SHL SUB NOT SWAP1 SWAP2 AND OR SWAP1 SSTORE POP JUMP JUMPDEST PUSH1 0x60 PUSH1 0x4 DUP1 SLOAD PUSH2 0x6BD SWAP1 PUSH2 0x1AD7 JUMP JUMPDEST PUSH0 CALLER PUSH2 0x74B DUP2 DUP6 DUP6 PUSH2 0xDC3 JUMP JUMPDEST PUSH1 0xB SLOAD CALLER SWAP1 PUSH2 0x100 SWAP1 DIV PUSH1 0x1 PUSH1 0x1 PUSH1 0xA0 SHL SUB AND PUSH1 0x1 PUSH1 0x1 PUSH1 0xA0 SHL SUB AND SUB PUSH2 0x7BE JUMPI PUSH1 0x1 PUSH1 0x1 PUSH1 0xA0 SHL SUB DUP2 AND PUSH2 0xAF3 JUMPI PUSH1 0x40 MLOAD PUSH3 0x461BCD PUSH1 0xE5 SHL DUP2 MSTORE PUSH1 0x4 ADD PUSH2 0x633 SWAP1 PUSH2 0x1B0F JUMP JUMPDEST PUSH1 0x13 DUP1 SLOAD PUSH1 0x1 PUSH1 0x1 PUSH1 0xA0 SHL SUB DUP4 AND PUSH1 0x1 PUSH1 0x1 PUSH1 0xA0 SHL SUB NOT SWAP1 SWAP2 AND OR SWAP1 SSTORE POP JUMP JUMPDEST PUSH1 0xB SLOAD CALLER SWAP1 PUSH2 0x100 SWAP1 DIV PUSH1 0x1 PUSH1 0x1 PUSH1 0xA0 SHL SUB AND PUSH1 0x1 PUSH1 0x1 PUSH1 0xA0 SHL SUB AND SUB PUSH2 0xB46 JUMPI PUSH1 0x18 DUP1 SLOAD PUSH1 0xFF NOT AND PUSH1 0x1 OR SWAP1 SSTORE NUMBER PUSH1 0x17 SSTORE JUMPDEST JUMP JUMPDEST PUSH1 0xB SLOAD CALLER SWAP1 PUSH2 0x100 SWAP1 DIV PUSH1 0x1 PUSH1 0x1 PUSH1 0xA0 SHL SUB AND PUSH1 0x1 PUSH1 0x1 PUSH1 0xA0 SHL SUB AND SUB PUSH2 0x7BE JUMPI PUSH1 0x1 PUSH1 0x1 PUSH1 0xA0 SHL SUB DUP2 AND PUSH0 SWAP1 DUP2 MSTORE PUSH1 0x9 PUSH1 0x20 MSTORE PUSH1 0x40 SWAP1 KECCAK256 SLOAD PUSH1 0xFF AND PUSH2 0xBD0 JUMPI PUSH1 0x40 MLOAD PUSH3 0x461BCD PUSH1 0xE5 SHL DUP2 MSTORE PUSH1 0x20 PUSH1 0x4 DUP3 ADD MSTORE PUSH1 0x1B PUSH1 0x24 DUP3 ADD MSTORE PUSH32 0x4163636F756E7420697320616C726561647920696E636C756465640000000000 PUSH1 0x44 DUP3 ADD MSTORE PUSH1 0x64 ADD PUSH2 0x633 JUMP JUMPDEST PUSH0 JUMPDEST PUSH1 0xA SLOAD DUP2 LT ISZERO PUSH2 0xCE0 JUMPI DUP2 PUSH1 0x1 PUSH1 0x1 PUSH1 0xA0 SHL SUB AND PUSH1 0xA DUP3 DUP2 SLOAD DUP2 LT PUSH2 0xBF9 JUMPI PUSH2 0xBF9 PUSH2 0x1B55 JUMP JUMPDEST PUSH0 SWAP2 DUP3 MSTORE PUSH1 0x20 SWAP1 SWAP2 KECCAK256 ADD SLOAD PUSH1 0x1 PUSH1 0x1 PUSH1 0xA0 SHL SUB AND SUB PUSH2 0xCD8 JUMPI PUSH1 0xA DUP1 SLOAD PUSH2 0xC22 SWAP1 PUSH1 0x1 SWAP1 PUSH2 0x1AB1 JUMP JUMPDEST DUP2 SLOAD DUP2 LT PUSH2 0xC32 JUMPI PUSH2 0xC32 PUSH2 0x1B55 JUMP JUMPDEST PUSH0 SWAP2 DUP3 MSTORE PUSH1 0x20 SWAP1 SWAP2 KECCAK256 ADD SLOAD PUSH1 0xA DUP1 SLOAD PUSH1 0x1 PUSH1 0x1 PUSH1 0xA0 SHL SUB SWAP1 SWAP3 AND SWAP2 DUP4 SWAP1 DUP2 LT PUSH2 0xC5D JUMPI PUSH2 0xC5D PUSH2 0x1B55 JUMP JUMPDEST PUSH0 SWAP2 DUP3 MSTORE PUSH1 0x20 DUP1 DUP4 KECCAK256 SWAP2 SWAP1 SWAP2 ADD DUP1 SLOAD PUSH1 0x1 PUSH1 0x1 PUSH1 0xA0 SHL SUB NOT AND PUSH1 0x1 PUSH1 0x1 PUSH1 0xA0 SHL SUB SWAP5 DUP6 AND OR SWAP1 SSTORE SWAP2 DUP5 AND DUP2 MSTORE PUSH1 0x6 DUP3 MSTORE PUSH1 0x40 DUP1 DUP3 KECCAK256 DUP3 SWAP1 SSTORE PUSH1 0x9 SWAP1 SWAP3 MSTORE KECCAK256 DUP1 SLOAD PUSH1 0xFF NOT AND SWAP1 SSTORE PUSH1 0xA DUP1 SLOAD DUP1 PUSH2 0xCB4 JUMPI PUSH2 0xCB4 PUSH2 0x1B69 JUMP JUMPDEST PUSH0 DUP3 DUP2 MSTORE PUSH1 0x20 SWAP1 KECCAK256 DUP2 ADD PUSH0 NOT SWAP1 DUP2 ADD DUP1 SLOAD PUSH1 0x1 PUSH1 0x1 PUSH1 0xA0 SHL SUB NOT AND SWAP1 SSTORE ADD SWAP1 SSTORE POP POP JUMP JUMPDEST PUSH1 0x1 ADD PUSH2 0xBD2 JUMP JUMPDEST POP POP JUMP JUMPDEST PUSH0 PUSH0 PUSH0 PUSH0 PUSH0 PUSH2 0xCF2 DUP7 PUSH2 0x1136 JUMP JUMPDEST SWAP1 POP PUSH0 PUSH2 0xCFF DUP3 DUP9 PUSH2 0x1AB1 JUMP JUMPDEST SWAP1 POP PUSH0 PUSH2 0xD0A PUSH2 0x1169 JUMP JUMPDEST SWAP1 POP PUSH0 PUSH2 0xD17 DUP3 DUP5 PUSH2 0x1B7D JUMP JUMPDEST SWAP1 POP PUSH0 PUSH2 0xD24 DUP4 DUP12 PUSH2 0x1B7D JUMP JUMPDEST SWAP11 SWAP2 SWAP10 POP SWAP3 SWAP8 POP SWAP1 SWAP6 POP SWAP4 POP POP POP POP JUMP JUMPDEST PUSH2 0xD42 DUP4 DUP4 DUP4 PUSH1 0x1 PUSH2 0x118A JUMP JUMPDEST POP POP POP JUMP JUMPDEST PUSH1 0x1 PUSH1 0x1 PUSH1 0xA0 SHL SUB DUP4 DUP2 AND PUSH0 SWAP1 DUP2 MSTORE PUSH1 0x1 PUSH1 0x20 SWAP1 DUP2 MSTORE PUSH1 0x40 DUP1 DUP4 KECCAK256 SWAP4 DUP7 AND DUP4 MSTORE SWAP3 SWAP1 MSTORE KECCAK256 SLOAD PUSH0 NOT DUP2 LT ISZERO PUSH2 0xDBD JUMPI DUP2 DUP2 LT ISZERO PUSH2 0xDAF JUMPI PUSH1 0x40 MLOAD PUSH4 0x7DC7A0D9 PUSH1 0xE1 SHL DUP2 MSTORE PUSH1 0x1 PUSH1 0x1 PUSH1 0xA0 SHL SUB DUP5 AND PUSH1 0x4 DUP3 ADD MSTORE PUSH1 0x24 DUP2 ADD DUP3 SWAP1 MSTORE PUSH1 0x44 DUP2 ADD DUP4 SWAP1 MSTORE PUSH1 0x64 ADD PUSH2 0x633 JUMP JUMPDEST PUSH2 0xDBD DUP5 DUP5 DUP5 DUP5 SUB PUSH0 PUSH2 0x118A JUMP JUMPDEST POP POP POP POP JUMP JUMPDEST PUSH1 0x18 SLOAD DUP4 SWAP1 DUP4 SWAP1 PUSH1 0xFF AND PUSH2 0xE3D JUMPI PUSH1 0x1 PUSH1 0x1 PUSH1 0xA0 SHL SUB DUP2 AND PUSH0 SWAP1 DUP2 MSTORE PUSH1 0x8 PUSH1 0x20 MSTORE PUSH1 0x40 SWAP1 KECCAK256 SLOAD PUSH1 0xFF AND PUSH2 0xE38 JUMPI PUSH1 0x40 MLOAD PUSH3 0x461BCD PUSH1 0xE5 SHL DUP2 MSTORE PUSH1 0x20 PUSH1 0x4 DUP3 ADD MSTORE PUSH1 0x17 PUSH1 0x24 DUP3 ADD MSTORE PUSH32 0x54726164696E67206E6F742079657420656E61626C6564000000000000000000 PUSH1 0x44 DUP3 ADD MSTORE PUSH1 0x64 ADD PUSH2 0x633 JUMP JUMPDEST PUSH2 0xEC3 JUMP JUMPDEST PUSH1 0x17 SLOAD PUSH2 0xE4B SWAP1 PUSH1 0x3 PUSH2 0x1AC4 JUMP JUMPDEST NUMBER GT PUSH2 0xEC3 JUMPI PUSH1 0x1 PUSH1 0x1 PUSH1 0xA0 SHL SUB DUP2 AND PUSH0 SWAP1 DUP2 MSTORE PUSH1 0x8 PUSH1 0x20 MSTORE PUSH1 0x40 SWAP1 KECCAK256 SLOAD PUSH1 0xFF AND PUSH2 0xEC3 JUMPI PUSH1 0x40 MLOAD PUSH3 0x461BCD PUSH1 0xE5 SHL DUP2 MSTORE PUSH1 0x20 PUSH1 0x4 DUP3 ADD MSTORE PUSH1 0x22 PUSH1 0x24 DUP3 ADD MSTORE PUSH32 0x4C61756E63682070726F74656374696F6E3A206E6F742077686974656C697374 PUSH1 0x44 DUP3 ADD MSTORE PUSH2 0x1959 PUSH1 0xF2 SHL PUSH1 0x64 DUP3 ADD MSTORE PUSH1 0x84 ADD PUSH2 0x633 JUMP JUMPDEST PUSH1 0x1 PUSH1 0x1 PUSH1 0xA0 SHL SUB DUP6 AND PUSH2 0xF27 JUMPI PUSH1 0x40 MLOAD PUSH3 0x461BCD PUSH1 0xE5 SHL DUP2 MSTORE PUSH1 0x20 PUSH1 0x4 DUP3 ADD MSTORE PUSH1 0x25 PUSH1 0x24 DUP3 ADD MSTORE PUSH32 0x45524332303A207472616E736665722066726F6D20746865207A65726F206164 PUSH1 0x44 DUP3 ADD MSTORE PUSH5 0x6472657373 PUSH1 0xD8 SHL PUSH1 0x64 DUP3 ADD MSTORE PUSH1 0x84 ADD PUSH2 0x633 JUMP JUMPDEST PUSH1 0x1 PUSH1 0x1 PUSH1 0xA0 SHL SUB DUP5 AND PUSH2 0xF89 JUMPI PUSH1 0x40 MLOAD PUSH3 0x461BCD PUSH1 0xE5 SHL DUP2 MSTORE PUSH1 0x20 PUSH1 0x4 DUP3 ADD MSTORE PUSH1 0x23 PUSH1 0x24 DUP3 ADD MSTORE PUSH32 0x45524332303A207472616E7366657220746F20746865207A65726F2061646472 PUSH1 0x44 DUP3 ADD MSTORE PUSH3 0x657373 PUSH1 0xE8 SHL PUSH1 0x64 DUP3 ADD MSTORE PUSH1 0x84 ADD PUSH2 0x633 JUMP JUMPDEST PUSH0 PUSH2 0xF93 DUP7 PUSH2 0x9F3 JUMP JUMPDEST SWAP1 POP DUP4 DUP2 LT ISZERO PUSH2 0xFF4 JUMPI PUSH1 0x40 MLOAD PUSH3 0x461BCD PUSH1 0xE5 SHL DUP2 MSTORE PUSH1 0x20 PUSH1 0x4 DUP3 ADD MSTORE PUSH1 0x26 PUSH1 0x24 DUP3 ADD MSTORE PUSH32 0x45524332303A207472616E7366657220616D6F756E7420657863656564732062 PUSH1 0x44 DUP3 ADD MSTORE PUSH6 0x616C616E6365 PUSH1 0xD0 SHL PUSH1 0x64 DUP3 ADD MSTORE PUSH1 0x84 ADD PUSH2 0x633 JUMP JUMPDEST PUSH1 0x1 PUSH1 0x1 PUSH1 0xA0 SHL SUB DUP6 AND PUSH0 SWAP1 DUP2 MSTORE PUSH1 0x7 PUSH1 0x20 MSTORE PUSH1 0x40 SWAP1 KECCAK256 SLOAD PUSH1 0xFF AND PUSH2 0x106B JUMPI PUSH1 0x16 SLOAD DUP5 PUSH2 0x1020 DUP8 PUSH2 0x9F3 JUMP JUMPDEST PUSH2 0x102A SWAP2 SWAP1 PUSH2 0x1AC4 JUMP JUMPDEST GT ISZERO PUSH2 0x106B JUMPI PUSH1 0x40 MLOAD PUSH3 0x461BCD PUSH1 0xE5 SHL DUP2 MSTORE PUSH1 0x20 PUSH1 0x4 DUP3 ADD MSTORE PUSH1 0x10 PUSH1 0x24 DUP3 ADD MSTORE PUSH16 0x5768616C652064657465637465642121 PUSH1 0x80 SHL PUSH1 0x44 DUP3 ADD MSTORE PUSH1 0x64 ADD PUSH2 0x633 JUMP JUMPDEST PUSH1 0x15 SLOAD PUSH0 SWAP1 PUSH1 0x1 PUSH1 0x1 PUSH1 0xA0 SHL SUB DUP9 DUP2 AND SWAP2 AND EQ DUP1 PUSH2 0x1096 JUMPI POP PUSH1 0x15 SLOAD PUSH1 0x1 PUSH1 0x1 PUSH1 0xA0 SHL SUB DUP8 DUP2 AND SWAP2 AND EQ JUMPDEST ISZERO PUSH2 0x109F JUMPI POP PUSH1 0x1 JUMPDEST PUSH2 0x10AB DUP8 DUP8 DUP8 DUP5 PUSH2 0x125C JUMP JUMPDEST POP POP POP POP POP POP POP JUMP JUMPDEST PUSH0 PUSH1 0xD SLOAD DUP3 GT ISZERO PUSH2 0x111A JUMPI PUSH1 0x40 MLOAD PUSH3 0x461BCD PUSH1 0xE5 SHL DUP2 MSTORE PUSH1 0x20 PUSH1 0x4 DUP3 ADD MSTORE PUSH1 0x2A PUSH1 0x24 DUP3 ADD MSTORE PUSH32 0x416D6F756E74206D757374206265206C657373207468616E20746F74616C2072 PUSH1 0x44 DUP3 ADD MSTORE PUSH10 0x65666C656374696F6E73 PUSH1 0xB0 SHL PUSH1 0x64 DUP3 ADD MSTORE PUSH1 0x84 ADD PUSH2 0x633 JUMP JUMPDEST PUSH0 PUSH2 0x1123 PUSH2 0x1169 JUMP JUMPDEST SWAP1 POP PUSH2 0x112F DUP2 DUP5 PUSH2 0x1B94 JUMP JUMPDEST SWAP4 SWAP3 POP POP POP JUMP JUMPDEST PUSH0 PUSH0 PUSH1 0x11 SLOAD PUSH1 0xF SLOAD PUSH2 0x1148 SWAP2 SWAP1 PUSH2 0x1AC4 JUMP JUMPDEST SWAP1 POP PUSH0 PUSH1 0x64 PUSH2 0x1157 DUP4 DUP7 PUSH2 0x1B7D JUMP JUMPDEST PUSH2 0x1161 SWAP2 SWAP1 PUSH2 0x1B94 JUMP JUMPDEST SWAP5 SWAP4 POP POP POP POP JUMP JUMPDEST PUSH0 PUSH0 PUSH0 PUSH2 0x1174 PUSH2 0x13CB JUMP JUMPDEST SWAP1 SWAP3 POP SWAP1 POP PUSH2 0x1183 DUP2 DUP4 PUSH2 0x1B94 JUMP JUMPDEST SWAP3 POP POP POP SWAP1 JUMP JUMPDEST PUSH1 0x1 PUSH1 0x1 PUSH1 0xA0 SHL SUB DUP5 AND PUSH2 0x11B3 JUMPI PUSH1 0x40 MLOAD PUSH4 0xE602DF05 PUSH1 0xE0 SHL DUP2 MSTORE PUSH0 PUSH1 0x4 DUP3 ADD MSTORE PUSH1 0x24 ADD PUSH2 0x633 JUMP JUMPDEST PUSH1 0x1 PUSH1 0x1 PUSH1 0xA0 SHL SUB DUP4 AND PUSH2 0x11DC JUMPI PUSH1 0x40 MLOAD PUSH4 0x4A1406B1 PUSH1 0xE1 SHL DUP2 MSTORE PUSH0 PUSH1 0x4 DUP3 ADD MSTORE PUSH1 0x24 ADD PUSH2 0x633 JUMP JUMPDEST PUSH1 0x1 PUSH1 0x1 PUSH1 0xA0 SHL SUB DUP1 DUP6 AND PUSH0 SWAP1 DUP2 MSTORE PUSH1 0x1 PUSH1 0x20 SWAP1 DUP2 MSTORE PUSH1 0x40 DUP1 DUP4 KECCAK256 SWAP4 DUP8 AND DUP4 MSTORE SWAP3 SWAP1 MSTORE KECCAK256 DUP3 SWAP1 SSTORE DUP1 ISZERO PUSH2 0xDBD JUMPI DUP3 PUSH1 0x1 PUSH1 0x1 PUSH1 0xA0 SHL SUB AND DUP5 PUSH1 0x1 PUSH1 0x1 PUSH1 0xA0 SHL SUB AND PUSH32 0x8C5BE1E5EBEC7D5BD14F71427D1E84F3DD0314C0F7B2291E5B200AC8C7C3B925 DUP5 PUSH1 0x40 MLOAD PUSH2 0x124E SWAP2 DUP2 MSTORE PUSH1 0x20 ADD SWAP1 JUMP JUMPDEST PUSH1 0x40 MLOAD DUP1 SWAP2 SUB SWAP1 LOG3 POP POP POP POP JUMP JUMPDEST DUP1 PUSH2 0x1269 JUMPI PUSH2 0x1269 PUSH2 0x153B JUMP JUMPDEST PUSH1 0x1 PUSH1 0x1 PUSH1 0xA0 SHL SUB DUP5 AND PUSH0 SWAP1 DUP2 MSTORE PUSH1 0x9 PUSH1 0x20 MSTORE PUSH1 0x40 SWAP1 KECCAK256 SLOAD PUSH1 0xFF AND DUP1 ISZERO PUSH2 0x12A8 JUMPI POP PUSH1 0x1 PUSH1 0x1 PUSH1 0xA0 SHL SUB DUP4 AND PUSH0 SWAP1 DUP2 MSTORE PUSH1 0x9 PUSH1 0x20 MSTORE PUSH1 0x40 SWAP1 KECCAK256 SLOAD PUSH1 0xFF AND ISZERO JUMPDEST ISZERO PUSH2 0x12BD JUMPI PUSH2 0x12B8 DUP5 DUP5 DUP5 PUSH2 0x1568 JUMP JUMPDEST PUSH2 0x13B5 JUMP JUMPDEST PUSH1 0x1 PUSH1 0x1 PUSH1 0xA0 SHL SUB DUP5 AND PUSH0 SWAP1 DUP2 MSTORE PUSH1 0x9 PUSH1 0x20 MSTORE PUSH1 0x40 SWAP1 KECCAK256 SLOAD PUSH1 0xFF AND ISZERO DUP1 ISZERO PUSH2 0x12FC JUMPI POP PUSH1 0x1 PUSH1 0x1 PUSH1 0xA0 SHL SUB DUP4 AND PUSH0 SWAP1 DUP2 MSTORE PUSH1 0x9 PUSH1 0x20 MSTORE PUSH1 0x40 SWAP1 KECCAK256 SLOAD PUSH1 0xFF AND JUMPDEST ISZERO PUSH2 0x130C JUMPI PUSH2 0x12B8 DUP5 DUP5 DUP5 PUSH2 0x1683 JUMP JUMPDEST PUSH1 0x1 PUSH1 0x1 PUSH1 0xA0 SHL SUB DUP5 AND PUSH0 SWAP1 DUP2 MSTORE PUSH1 0x9 PUSH1 0x20 MSTORE PUSH1 0x40 SWAP1 KECCAK256 SLOAD PUSH1 0xFF AND ISZERO DUP1 ISZERO PUSH2 0x134C JUMPI POP PUSH1 0x1 PUSH1 0x1 PUSH1 0xA0 SHL SUB DUP4 AND PUSH0 SWAP1 DUP2 MSTORE PUSH1 0x9 PUSH1 0x20 MSTORE PUSH1 0x40 SWAP1 KECCAK256 SLOAD PUSH1 0xFF AND ISZERO JUMPDEST ISZERO PUSH2 0x135C JUMPI PUSH2 0x12B8 DUP5 DUP5 DUP5 PUSH2 0x1722 JUMP JUMPDEST PUSH1 0x1 PUSH1 0x1 PUSH1 0xA0 SHL SUB DUP5 AND PUSH0 SWAP1 DUP2 MSTORE PUSH1 0x9 PUSH1 0x20 MSTORE PUSH1 0x40 SWAP1 KECCAK256 SLOAD PUSH1 0xFF AND DUP1 ISZERO PUSH2 0x139A JUMPI POP PUSH1 0x1 PUSH1 0x1 PUSH1 0xA0 SHL SUB DUP4 AND PUSH0 SWAP1 DUP2 MSTORE PUSH1 0x9 PUSH1 0x20 MSTORE PUSH1 0x40 SWAP1 KECCAK256 SLOAD PUSH1 0xFF AND JUMPDEST ISZERO PUSH2 0x13AA JUMPI PUSH2 0x12B8 DUP5 DUP5 DUP5 PUSH2 0x175C JUMP JUMPDEST PUSH2 0x13B5 DUP5 DUP5 DUP5 PUSH2 0x1722 JUMP JUMPDEST DUP1 PUSH2 0xDBD JUMPI PUSH2 0xDBD PUSH1 0x10 SLOAD PUSH1 0xF SSTORE PUSH1 0x12 SLOAD PUSH1 0x11 SSTORE JUMP JUMPDEST PUSH1 0xD SLOAD PUSH1 0xC SLOAD PUSH0 SWAP2 DUP3 SWAP2 DUP3 JUMPDEST PUSH1 0xA SLOAD DUP2 LT ISZERO PUSH2 0x150A JUMPI DUP3 PUSH1 0x5 PUSH0 PUSH1 0xA DUP5 DUP2 SLOAD DUP2 LT PUSH2 0x13F8 JUMPI PUSH2 0x13F8 PUSH2 0x1B55 JUMP JUMPDEST PUSH0 SWAP2 DUP3 MSTORE PUSH1 0x20 DUP1 DUP4 KECCAK256 SWAP1 SWAP2 ADD SLOAD PUSH1 0x1 PUSH1 0x1 PUSH1 0xA0 SHL SUB AND DUP4 MSTORE DUP3 ADD SWAP3 SWAP1 SWAP3 MSTORE PUSH1 0x40 ADD SWAP1 KECCAK256 SLOAD GT DUP1 PUSH2 0x1460 JUMPI POP DUP2 PUSH1 0x6 PUSH0 PUSH1 0xA DUP5 DUP2 SLOAD DUP2 LT PUSH2 0x143A JUMPI PUSH2 0x143A PUSH2 0x1B55 JUMP JUMPDEST PUSH0 SWAP2 DUP3 MSTORE PUSH1 0x20 DUP1 DUP4 KECCAK256 SWAP1 SWAP2 ADD SLOAD PUSH1 0x1 PUSH1 0x1 PUSH1 0xA0 SHL SUB AND DUP4 MSTORE DUP3 ADD SWAP3 SWAP1 SWAP3 MSTORE PUSH1 0x40 ADD SWAP1 KECCAK256 SLOAD GT JUMPDEST ISZERO PUSH2 0x1476 JUMPI PUSH1 0xD SLOAD PUSH1 0xC SLOAD SWAP5 POP SWAP5 POP POP POP POP SWAP1 SWAP2 JUMP JUMPDEST PUSH1 0x5 PUSH0 PUSH1 0xA DUP4 DUP2 SLOAD DUP2 LT PUSH2 0x148C JUMPI PUSH2 0x148C PUSH2 0x1B55 JUMP JUMPDEST PUSH0 SWAP2 DUP3 MSTORE PUSH1 0x20 DUP1 DUP4 KECCAK256 SWAP1 SWAP2 ADD SLOAD PUSH1 0x1 PUSH1 0x1 PUSH1 0xA0 SHL SUB AND DUP4 MSTORE DUP3 ADD SWAP3 SWAP1 SWAP3 MSTORE PUSH1 0x40 ADD SWAP1 KECCAK256 SLOAD PUSH2 0x14BA SWAP1 DUP5 PUSH2 0x1AB1 JUMP JUMPDEST SWAP3 POP PUSH1 0x6 PUSH0 PUSH1 0xA DUP4 DUP2 SLOAD DUP2 LT PUSH2 0x14D2 JUMPI PUSH2 0x14D2 PUSH2 0x1B55 JUMP JUMPDEST PUSH0 SWAP2 DUP3 MSTORE PUSH1 0x20 DUP1 DUP4 KECCAK256 SWAP1 SWAP2 ADD SLOAD PUSH1 0x1 PUSH1 0x1 PUSH1 0xA0 SHL SUB AND DUP4 MSTORE DUP3 ADD SWAP3 SWAP1 SWAP3 MSTORE PUSH1 0x40 ADD SWAP1 KECCAK256 SLOAD PUSH2 0x1500 SWAP1 DUP4 PUSH2 0x1AB1 JUMP JUMPDEST SWAP2 POP PUSH1 0x1 ADD PUSH2 0x13D7 JUMP JUMPDEST POP PUSH1 0xC SLOAD PUSH1 0xD SLOAD PUSH2 0x151B SWAP2 SWAP1 PUSH2 0x1B94 JUMP JUMPDEST DUP3 LT ISZERO PUSH2 0x1532 JUMPI PUSH1 0xD SLOAD PUSH1 0xC SLOAD SWAP4 POP SWAP4 POP POP POP SWAP1 SWAP2 JUMP JUMPDEST SWAP1 SWAP4 SWAP1 SWAP3 POP SWAP1 POP JUMP JUMPDEST PUSH1 0xF SLOAD ISZERO DUP1 ISZERO PUSH2 0x154B JUMPI POP PUSH1 0x11 SLOAD ISZERO JUMPDEST ISZERO PUSH2 0x1552 JUMPI JUMP JUMPDEST PUSH1 0xF DUP1 SLOAD PUSH1 0x10 SSTORE PUSH1 0x11 DUP1 SLOAD PUSH1 0x12 SSTORE PUSH0 SWAP2 DUP3 SWAP1 SSTORE SSTORE JUMP JUMPDEST PUSH0 PUSH0 PUSH0 PUSH0 PUSH2 0x1575 DUP6 PUSH2 0xCE4 JUMP JUMPDEST PUSH1 0x1 PUSH1 0x1 PUSH1 0xA0 SHL SUB DUP12 AND PUSH0 SWAP1 DUP2 MSTORE PUSH1 0x6 PUSH1 0x20 MSTORE PUSH1 0x40 SWAP1 KECCAK256 SLOAD SWAP4 SWAP8 POP SWAP2 SWAP6 POP SWAP4 POP SWAP2 POP PUSH2 0x15A2 SWAP1 DUP7 SWAP1 PUSH2 0x1AB1 JUMP JUMPDEST PUSH1 0x1 PUSH1 0x1 PUSH1 0xA0 SHL SUB DUP9 AND PUSH0 SWAP1 DUP2 MSTORE PUSH1 0x6 PUSH1 0x20 SWAP1 DUP2 MSTORE PUSH1 0x40 DUP1 DUP4 KECCAK256 SWAP4 SWAP1 SWAP4 SSTORE PUSH1 0x5 SWAP1 MSTORE KECCAK256 SLOAD PUSH2 0x15D1 SWAP1 DUP6 SWAP1 PUSH2 0x1AB1 JUMP JUMPDEST PUSH1 0x1 PUSH1 0x1 PUSH1 0xA0 SHL SUB DUP1 DUP10 AND PUSH0 SWAP1 DUP2 MSTORE PUSH1 0x5 PUSH1 0x20 MSTORE PUSH1 0x40 DUP1 DUP3 KECCAK256 SWAP4 SWAP1 SWAP4 SSTORE SWAP1 DUP9 AND DUP2 MSTORE KECCAK256 SLOAD PUSH2 0x1600 SWAP1 DUP5 SWAP1 PUSH2 0x1AC4 JUMP JUMPDEST PUSH1 0x1 PUSH1 0x1 PUSH1 0xA0 SHL SUB DUP8 AND PUSH0 SWAP1 DUP2 MSTORE PUSH1 0x5 PUSH1 0x20 MSTORE PUSH1 0x40 SWAP1 KECCAK256 SSTORE PUSH2 0x1623 DUP8 DUP7 DUP4 PUSH2 0x17C5 JUMP JUMPDEST PUSH2 0x162D DUP6 DUP3 PUSH2 0x1906 JUMP JUMPDEST DUP6 PUSH1 0x1 PUSH1 0x1 PUSH1 0xA0 SHL SUB AND DUP8 PUSH1 0x1 PUSH1 0x1 PUSH1 0xA0 SHL SUB AND PUSH32 0xDDF252AD1BE2C89B69C2B068FC378DAA952BA7F163C4A11628F55A4DF523B3EF DUP5 PUSH1 0x40 MLOAD PUSH2 0x1672 SWAP2 DUP2 MSTORE PUSH1 0x20 ADD SWAP1 JUMP JUMPDEST PUSH1 0x40 MLOAD DUP1 SWAP2 SUB SWAP1 LOG3 POP POP POP POP POP POP POP JUMP JUMPDEST PUSH0 PUSH0 PUSH0 PUSH0 PUSH2 0x1690 DUP6 PUSH2 0xCE4 JUMP JUMPDEST PUSH1 0x1 PUSH1 0x1 PUSH1 0xA0 SHL SUB DUP12 AND PUSH0 SWAP1 DUP2 MSTORE PUSH1 0x5 PUSH1 0x20 MSTORE PUSH1 0x40 SWAP1 KECCAK256 SLOAD SWAP4 SWAP8 POP SWAP2 SWAP6 POP SWAP4 POP SWAP2 POP PUSH2 0x16BD SWAP1 DUP6 SWAP1 PUSH2 0x1AB1 JUMP JUMPDEST PUSH1 0x1 PUSH1 0x1 PUSH1 0xA0 SHL SUB DUP1 DUP10 AND PUSH0 SWAP1 DUP2 MSTORE PUSH1 0x5 PUSH1 0x20 SWAP1 DUP2 MSTORE PUSH1 0x40 DUP1 DUP4 KECCAK256 SWAP5 SWAP1 SWAP5 SSTORE SWAP2 DUP10 AND DUP2 MSTORE PUSH1 0x6 SWAP1 SWAP2 MSTORE KECCAK256 SLOAD PUSH2 0x16F3 SWAP1 DUP4 SWAP1 PUSH2 0x1AC4 JUMP JUMPDEST PUSH1 0x1 PUSH1 0x1 PUSH1 0xA0 SHL SUB DUP8 AND PUSH0 SWAP1 DUP2 MSTORE PUSH1 0x6 PUSH1 0x20 SWAP1 DUP2 MSTORE PUSH1 0x40 DUP1 DUP4 KECCAK256 SWAP4 SWAP1 SWAP4 SSTORE PUSH1 0x5 SWAP1 MSTORE KECCAK256 SLOAD PUSH2 0x1600 SWAP1 DUP5 SWAP1 PUSH2 0x1AC4 JUMP JUMPDEST PUSH0 PUSH0 PUSH0 PUSH0 PUSH2 0x172F DUP6 PUSH2 0xCE4 JUMP JUMPDEST PUSH1 0x1 PUSH1 0x1 PUSH1 0xA0 SHL SUB DUP12 AND PUSH0 SWAP1 DUP2 MSTORE PUSH1 0x5 PUSH1 0x20 MSTORE PUSH1 0x40 SWAP1 KECCAK256 SLOAD SWAP4 SWAP8 POP SWAP2 SWAP6 POP SWAP4 POP SWAP2 POP PUSH2 0x15D1 SWAP1 DUP6 SWAP1 PUSH2 0x1AB1 JUMP JUMPDEST PUSH0 PUSH0 PUSH0 PUSH0 PUSH2 0x1769 DUP6 PUSH2 0xCE4 JUMP JUMPDEST PUSH1 0x1 PUSH1 0x1 PUSH1 0xA0 SHL SUB DUP12 AND PUSH0 SWAP1 DUP2 MSTORE PUSH1 0x6 PUSH1 0x20 MSTORE PUSH1 0x40 SWAP1 KECCAK256 SLOAD SWAP4 SWAP8 POP SWAP2 SWAP6 POP SWAP4 POP SWAP2 POP PUSH2 0x1796 SWAP1 DUP7 SWAP1 PUSH2 0x1AB1 JUMP JUMPDEST PUSH1 0x1 PUSH1 0x1 PUSH1 0xA0 SHL SUB DUP9 AND PUSH0 SWAP1 DUP2 MSTORE PUSH1 0x6 PUSH1 0x20 SWAP1 DUP2 MSTORE PUSH1 0x40 DUP1 DUP4 KECCAK256 SWAP4 SWAP1 SWAP4 SSTORE PUSH1 0x5 SWAP1 MSTORE KECCAK256 SLOAD PUSH2 0x16BD SWAP1 DUP6 SWAP1 PUSH2 0x1AB1 JUMP JUMPDEST PUSH0 PUSH1 0x64 PUSH1 0x11 SLOAD DUP5 PUSH2 0x17D6 SWAP2 SWAP1 PUSH2 0x1B7D JUMP JUMPDEST PUSH2 0x17E0 SWAP2 SWAP1 PUSH2 0x1B94 JUMP JUMPDEST SWAP1 POP DUP1 ISZERO PUSH2 0xDBD JUMPI PUSH0 PUSH1 0x2 PUSH2 0x17F5 DUP5 DUP5 PUSH2 0x1B7D JUMP JUMPDEST PUSH2 0x17FF SWAP2 SWAP1 PUSH2 0x1B94 JUMP JUMPDEST PUSH1 0x13 SLOAD PUSH1 0x1 PUSH1 0x1 PUSH1 0xA0 SHL SUB AND PUSH0 SWAP1 DUP2 MSTORE PUSH1 0x5 PUSH1 0x20 MSTORE PUSH1 0x40 SWAP1 KECCAK256 SLOAD SWAP1 SWAP2 POP PUSH2 0x1827 SWAP1 DUP3 SWAP1 PUSH2 0x1AC4 JUMP JUMPDEST PUSH1 0x13 SLOAD PUSH1 0x1 PUSH1 0x1 PUSH1 0xA0 SHL SUB SWAP1 DUP2 AND PUSH0 SWAP1 DUP2 MSTORE PUSH1 0x5 PUSH1 0x20 MSTORE PUSH1 0x40 DUP1 DUP3 KECCAK256 SWAP4 SWAP1 SWAP4 SSTORE PUSH1 0x14 SLOAD SWAP1 SWAP2 AND DUP2 MSTORE KECCAK256 SLOAD PUSH2 0x185C SWAP1 DUP3 SWAP1 PUSH2 0x1AC4 JUMP JUMPDEST PUSH1 0x14 SLOAD PUSH1 0x1 PUSH1 0x1 PUSH1 0xA0 SHL SUB SWAP1 DUP2 AND PUSH0 SWAP1 DUP2 MSTORE PUSH1 0x5 PUSH1 0x20 SWAP1 DUP2 MSTORE PUSH1 0x40 SWAP2 DUP3 SWAP1 KECCAK256 SWAP4 SWAP1 SWAP4 SSTORE PUSH1 0x13 SLOAD SWAP1 MLOAD DUP6 DUP2 MSTORE SWAP1 DUP3 AND SWAP3 SWAP2 DUP9 AND SWAP2 PUSH32 0xDDF252AD1BE2C89B69C2B068FC378DAA952BA7F163C4A11628F55A4DF523B3EF SWAP2 ADD PUSH1 0x40 MLOAD DUP1 SWAP2 SUB SWAP1 LOG3 PUSH1 0x14 SLOAD PUSH1 0x40 MLOAD DUP4 DUP2 MSTORE PUSH1 0x1 PUSH1 0x1 PUSH1 0xA0 SHL SUB SWAP2 DUP3 AND SWAP2 DUP8 AND SWAP1 PUSH32 0xDDF252AD1BE2C89B69C2B068FC378DAA952BA7F163C4A11628F55A4DF523B3EF SWAP1 PUSH1 0x20 ADD PUSH1 0x40 MLOAD DUP1 SWAP2 SUB SWAP1 LOG3 POP POP POP POP POP JUMP JUMPDEST PUSH0 PUSH1 0x64 PUSH1 0xF SLOAD DUP5 PUSH2 0x1917 SWAP2 SWAP1 PUSH2 0x1B7D JUMP JUMPDEST PUSH2 0x1921 SWAP2 SWAP1 PUSH2 0x1B94 JUMP JUMPDEST SWAP1 POP PUSH0 PUSH2 0x192E DUP4 DUP4 PUSH2 0x1B7D JUMP JUMPDEST SWAP1 POP DUP1 PUSH1 0xD SLOAD PUSH2 0x193E SWAP2 SWAP1 PUSH2 0x1AB1 JUMP JUMPDEST PUSH1 0xD SSTORE PUSH1 0xE SLOAD PUSH2 0x194F SWAP1 DUP4 SWAP1 PUSH2 0x1AC4 JUMP JUMPDEST PUSH1 0xE SSTORE POP POP POP POP JUMP JUMPDEST PUSH0 PUSH1 0x20 DUP3 DUP5 SUB SLT ISZERO PUSH2 0x1968 JUMPI PUSH0 PUSH0 REVERT JUMPDEST POP CALLDATALOAD SWAP2 SWAP1 POP JUMP JUMPDEST PUSH1 0x20 DUP2 MSTORE PUSH0 DUP3 MLOAD DUP1 PUSH1 0x20 DUP5 ADD MSTORE DUP1 PUSH1 0x20 DUP6 ADD PUSH1 0x40 DUP6 ADD MCOPY PUSH0 PUSH1 0x40 DUP3 DUP6 ADD ADD MSTORE PUSH1 0x40 PUSH1 0x1F NOT PUSH1 0x1F DUP4 ADD AND DUP5 ADD ADD SWAP2 POP POP SWAP3 SWAP2 POP POP JUMP JUMPDEST DUP1 CALLDATALOAD PUSH1 0x1 PUSH1 0x1 PUSH1 0xA0 SHL SUB DUP2 AND DUP2 EQ PUSH2 0x19BA JUMPI PUSH0 PUSH0 REVERT JUMPDEST SWAP2 SWAP1 POP JUMP JUMPDEST PUSH0 PUSH0 PUSH1 0x40 DUP4 DUP6 SUB SLT ISZERO PUSH2 0x19D0 JUMPI PUSH0 PUSH0 REVERT JUMPDEST PUSH2 0x19D9 DUP4 PUSH2 0x19A4 JUMP JUMPDEST SWAP5 PUSH1 0x20 SWAP4 SWAP1 SWAP4 ADD CALLDATALOAD SWAP4 POP POP POP JUMP JUMPDEST PUSH0 PUSH0 PUSH0 PUSH1 0x60 DUP5 DUP7 SUB SLT ISZERO PUSH2 0x19F9 JUMPI PUSH0 PUSH0 REVERT JUMPDEST PUSH2 0x1A02 DUP5 PUSH2 0x19A4 JUMP JUMPDEST SWAP3 POP PUSH2 0x1A10 PUSH1 0x20 DUP6 ADD PUSH2 0x19A4 JUMP JUMPDEST SWAP3 SWAP6 SWAP3 SWAP5 POP POP POP PUSH1 0x40 SWAP2 SWAP1 SWAP2 ADD CALLDATALOAD SWAP1 JUMP JUMPDEST PUSH0 PUSH1 0x20 DUP3 DUP5 SUB SLT ISZERO PUSH2 0x1A31 JUMPI PUSH0 PUSH0 REVERT JUMPDEST PUSH2 0x112F DUP3 PUSH2 0x19A4 JUMP JUMPDEST PUSH0 PUSH0 PUSH1 0x40 DUP4 DUP6 SUB SLT ISZERO PUSH2 0x1A4B JUMPI PUSH0 PUSH0 REVERT JUMPDEST DUP3 CALLDATALOAD SWAP2 POP PUSH1 0x20 DUP4 ADD CALLDATALOAD DUP1 ISZERO ISZERO DUP2 EQ PUSH2 0x1A61 JUMPI PUSH0 PUSH0 REVERT JUMPDEST DUP1 SWAP2 POP POP SWAP3 POP SWAP3 SWAP1 POP JUMP JUMPDEST PUSH0 PUSH0 PUSH1 0x40 DUP4 DUP6 SUB SLT ISZERO PUSH2 0x1A7D JUMPI PUSH0 PUSH0 REVERT JUMPDEST PUSH2 0x1A86 DUP4 PUSH2 0x19A4 JUMP JUMPDEST SWAP2 POP PUSH2 0x1A94 PUSH1 0x20 DUP5 ADD PUSH2 0x19A4 JUMP JUMPDEST SWAP1 POP SWAP3 POP SWAP3 SWAP1 POP JUMP JUMPDEST PUSH4 0x4E487B71 PUSH1 0xE0 SHL PUSH0 MSTORE PUSH1 0x11 PUSH1 0x4 MSTORE PUSH1 0x24 PUSH0 REVERT JUMPDEST DUP2 DUP2 SUB DUP2 DUP2 GT ISZERO PUSH2 0x751 JUMPI PUSH2 0x751 PUSH2 0x1A9D JUMP JUMPDEST DUP1 DUP3 ADD DUP1 DUP3 GT ISZERO PUSH2 0x751 JUMPI PUSH2 0x751 PUSH2 0x1A9D JUMP JUMPDEST PUSH1 0x1 DUP2 DUP2 SHR SWAP1 DUP3 AND DUP1 PUSH2 0x1AEB JUMPI PUSH1 0x7F DUP3 AND SWAP2 POP JUMPDEST PUSH1 0x20 DUP3 LT DUP2 SUB PUSH2 0x1B09 JUMPI PUSH4 0x4E487B71 PUSH1 0xE0 SHL PUSH0 MSTORE PUSH1 0x22 PUSH1 0x4 MSTORE PUSH1 0x24 PUSH0 REVERT JUMPDEST POP SWAP2 SWAP1 POP JUMP JUMPDEST PUSH1 0x20 DUP1 DUP3 MSTORE PUSH1 0x26 SWAP1 DUP3 ADD MSTORE PUSH32 0x7A65726F20616464726573732063616E206E6F74206265207468652046656541 PUSH1 0x40 DUP3 ADD MSTORE PUSH6 0x18D8DBDD5B9D PUSH1 0xD2 SHL PUSH1 0x60 DUP3 ADD MSTORE PUSH1 0x80 ADD SWAP1 JUMP JUMPDEST PUSH4 0x4E487B71 PUSH1 0xE0 SHL PUSH0 MSTORE PUSH1 0x32 PUSH1 0x4 MSTORE PUSH1 0x24 PUSH0 REVERT JUMPDEST PUSH4 0x4E487B71 PUSH1 0xE0 SHL PUSH0 MSTORE PUSH1 0x31 PUSH1 0x4 MSTORE PUSH1 0x24 PUSH0 REVERT JUMPDEST DUP1 DUP3 MUL DUP2 ISZERO DUP3 DUP3 DIV DUP5 EQ OR PUSH2 0x751 JUMPI PUSH2 0x751 PUSH2 0x1A9D JUMP JUMPDEST PUSH0 DUP3 PUSH2 0x1BAE JUMPI PUSH4 0x4E487B71 PUSH1 0xE0 SHL PUSH0 MSTORE PUSH1 0x12 PUSH1 0x4 MSTORE PUSH1 0x24 PUSH0 REVERT JUMPDEST POP DIV SWAP1 JUMP INVALID LOG2 PUSH5 0x6970667358 0x22 SLT KECCAK256 NOT CODESIZE 0xD EQ 0xC9 0xF7 0xBF SAR DATALOADN 0xE230 SWAP1 0xB0 SWAP5 PUSH21 0x11A4FF74A2DD7729DD5972F733931C61FE64736F6C PUSH4 0x4300081D STOP CALLER "
				},
				"gasEstimates": {
					"creation": {
						"codeDepositCost": "1429000",
						"executionCost": "infinite",
						"totalCost": "infinite"
					},
					"external": {
						"allowance(address,address)": "infinite",
						"approve(address,uint256)": "24802",
						"balanceOf(address)": "infinite",
						"changeDevelopmentAccount(address)": "26857",
						"changeMarketingAccount(address)": "26813",
						"changePairAddress(address)": "26823",
						"decimals()": "2400",
						"excludeAccountFromReward(address)": "infinite",
						"excludeFromFee(address)": "26874",
						"getDevelopmentAccount()": "2387",
						"getMarketingAccount()": "2376",
						"getTaxFee()": "2357",
						"includeAccountinReward(address)": "infinite",
						"isExcluded(address)": "2635",
						"isExcludedFromFee(address)": "2591",
						"isWhitelisted(address)": "2596",
						"launchBlock()": "2405",
						"name()": "infinite",
						"openTrading()": "48711",
						"owner()": "2386",
						"pairAddress()": "2425",
						"reflect(uint256)": "infinite",
						"reflectionFee()": "2359",
						"reflectionFromToken(uint256,bool)": "infinite",
						"symbol()": "infinite",
						"totalFeesRedistributed()": "2337",
						"totalSupply()": "2326",
						"tradingOpen()": "2419",
						"transfer(address,uint256)": "infinite",
						"transferFrom(address,address,uint256)": "infinite"
					},
					"internal": {
						"_getCompleteTaxValue(uint256)": "infinite",
						"_getCurrentSupply()": "infinite",
						"_getRate()": "infinite",
						"_getTransferValues(uint256)": "infinite",
						"_reflectFee(uint256,uint256)": "infinite",
						"_tokenTransfer(address,address,uint256,bool)": "infinite",
						"_transfer(address,address,uint256)": "infinite",
						"_transferBothExcluded(address,address,uint256)": "infinite",
						"_transferFromExcluded(address,address,uint256)": "infinite",
						"_transferStandard(address,address,uint256)": "infinite",
						"_transferToExcluded(address,address,uint256)": "infinite",
						"removeAllFee()": "62689",
						"restoreAllFee()": "infinite",
						"taxFeeTransfer(address,uint256,uint256)": "infinite",
						"tokenFromReflection(uint256)": "infinite"
					}
				},
				"methodIdentifiers": {
					"allowance(address,address)": "dd62ed3e",
					"approve(address,uint256)": "095ea7b3",
					"balanceOf(address)": "70a08231",
					"changeDevelopmentAccount(address)": "706407fd",
					"changeMarketingAccount(address)": "c4863770",
					"changePairAddress(address)": "8873b15f",
					"decimals()": "313ce567",
					"excludeAccountFromReward(address)": "6049876e",
					"excludeFromFee(address)": "437823ec",
					"getDevelopmentAccount()": "1cf8fef5",
					"getMarketingAccount()": "838fcc90",
					"getTaxFee()": "f66608fe",
					"includeAccountinReward(address)": "fdeb889f",
					"isExcluded(address)": "cba0e996",
					"isExcludedFromFee(address)": "5342acb4",
					"isWhitelisted(address)": "3af32abf",
					"launchBlock()": "d00efb2f",
					"name()": "06fdde03",
					"openTrading()": "c9567bf9",
					"owner()": "8da5cb5b",
					"pairAddress()": "a8b08982",
					"reflect(uint256)": "053ab182",
					"reflectionFee()": "83ad7994",
					"reflectionFromToken(uint256,bool)": "4549b039",
					"symbol()": "95d89b41",
					"totalFeesRedistributed()": "32035504",
					"totalSupply()": "18160ddd",
					"tradingOpen()": "ffb54a99",
					"transfer(address,uint256)": "a9059cbb",
					"transferFrom(address,address,uint256)": "23b872dd"
				}
			},
			"storageLayout": {
				"storage": [
					{
						"astId": 159,
						"contract": "CYBCC.sol:CYBCC",
						"label": "_balances",
						"offset": 0,
						"slot": "0",
						"type": "t_mapping(t_address,t_uint256)"
					},
					{
						"astId": 165,
						"contract": "CYBCC.sol:CYBCC",
						"label": "_allowances",
						"offset": 0,
						"slot": "1",
						"type": "t_mapping(t_address,t_mapping(t_address,t_uint256))"
					},
					{
						"astId": 167,
						"contract": "CYBCC.sol:CYBCC",
						"label": "_totalSupply",
						"offset": 0,
						"slot": "2",
						"type": "t_uint256"
					},
					{
						"astId": 169,
						"contract": "CYBCC.sol:CYBCC",
						"label": "_name",
						"offset": 0,
						"slot": "3",
						"type": "t_string_storage"
					},
					{
						"astId": 171,
						"contract": "CYBCC.sol:CYBCC",
						"label": "_symbol",
						"offset": 0,
						"slot": "4",
						"type": "t_string_storage"
					},
					{
						"astId": 795,
						"contract": "CYBCC.sol:CYBCC",
						"label": "_rOwned",
						"offset": 0,
						"slot": "5",
						"type": "t_mapping(t_address,t_uint256)"
					},
					{
						"astId": 799,
						"contract": "CYBCC.sol:CYBCC",
						"label": "_tOwned",
						"offset": 0,
						"slot": "6",
						"type": "t_mapping(t_address,t_uint256)"
					},
					{
						"astId": 803,
						"contract": "CYBCC.sol:CYBCC",
						"label": "_isExcludedFromFee",
						"offset": 0,
						"slot": "7",
						"type": "t_mapping(t_address,t_bool)"
					},
					{
						"astId": 807,
						"contract": "CYBCC.sol:CYBCC",
						"label": "isWhitelisted",
						"offset": 0,
						"slot": "8",
						"type": "t_mapping(t_address,t_bool)"
					},
					{
						"astId": 811,
						"contract": "CYBCC.sol:CYBCC",
						"label": "_isExcluded",
						"offset": 0,
						"slot": "9",
						"type": "t_mapping(t_address,t_bool)"
					},
					{
						"astId": 814,
						"contract": "CYBCC.sol:CYBCC",
						"label": "_excluded",
						"offset": 0,
						"slot": "10",
						"type": "t_array(t_address)dyn_storage"
					},
					{
						"astId": 816,
						"contract": "CYBCC.sol:CYBCC",
						"label": "_decimals",
						"offset": 0,
						"slot": "11",
						"type": "t_uint8"
					},
					{
						"astId": 820,
						"contract": "CYBCC.sol:CYBCC",
						"label": "_owner",
						"offset": 1,
						"slot": "11",
						"type": "t_address"
					},
					{
						"astId": 829,
						"contract": "CYBCC.sol:CYBCC",
						"label": "_tTotal",
						"offset": 0,
						"slot": "12",
						"type": "t_uint256"
					},
					{
						"astId": 831,
						"contract": "CYBCC.sol:CYBCC",
						"label": "_rTotal",
						"offset": 0,
						"slot": "13",
						"type": "t_uint256"
					},
					{
						"astId": 834,
						"contract": "CYBCC.sol:CYBCC",
						"label": "_tFeeTotal",
						"offset": 0,
						"slot": "14",
						"type": "t_uint256"
					},
					{
						"astId": 836,
						"contract": "CYBCC.sol:CYBCC",
						"label": "_reflectionFee",
						"offset": 0,
						"slot": "15",
						"type": "t_uint256"
					},
					{
						"astId": 838,
						"contract": "CYBCC.sol:CYBCC",
						"label": "_previousReflectionFee",
						"offset": 0,
						"slot": "16",
						"type": "t_uint256"
					},
					{
						"astId": 840,
						"contract": "CYBCC.sol:CYBCC",
						"label": "_taxFee",
						"offset": 0,
						"slot": "17",
						"type": "t_uint256"
					},
					{
						"astId": 842,
						"contract": "CYBCC.sol:CYBCC",
						"label": "_previousTaxFee",
						"offset": 0,
						"slot": "18",
						"type": "t_uint256"
					},
					{
						"astId": 844,
						"contract": "CYBCC.sol:CYBCC",
						"label": "_marketingAccount",
						"offset": 0,
						"slot": "19",
						"type": "t_address"
					},
					{
						"astId": 846,
						"contract": "CYBCC.sol:CYBCC",
						"label": "_developmentAccount",
						"offset": 0,
						"slot": "20",
						"type": "t_address"
					},
					{
						"astId": 848,
						"contract": "CYBCC.sol:CYBCC",
						"label": "pairAddress",
						"offset": 0,
						"slot": "21",
						"type": "t_address"
					},
					{
						"astId": 858,
						"contract": "CYBCC.sol:CYBCC",
						"label": "maxWalletAmount",
						"offset": 0,
						"slot": "22",
						"type": "t_uint256"
					},
					{
						"astId": 860,
						"contract": "CYBCC.sol:CYBCC",
						"label": "launchBlock",
						"offset": 0,
						"slot": "23",
						"type": "t_uint256"
					},
					{
						"astId": 863,
						"contract": "CYBCC.sol:CYBCC",
						"label": "tradingOpen",
						"offset": 0,
						"slot": "24",
						"type": "t_bool"
					}
				],
				"types": {
					"t_address": {
						"encoding": "inplace",
						"label": "address",
						"numberOfBytes": "20"
					},
					"t_array(t_address)dyn_storage": {
						"base": "t_address",
						"encoding": "dynamic_array",
						"label": "address[]",
						"numberOfBytes": "32"
					},
					"t_bool": {
						"encoding": "inplace",
						"label": "bool",
						"numberOfBytes": "1"
					},
					"t_mapping(t_address,t_bool)": {
						"encoding": "mapping",
						"key": "t_address",
						"label": "mapping(address => bool)",
						"numberOfBytes": "32",
						"value": "t_bool"
					},
					"t_mapping(t_address,t_mapping(t_address,t_uint256))": {
						"encoding": "mapping",
						"key": "t_address",
						"label": "mapping(address => mapping(address => uint256))",
						"numberOfBytes": "32",
						"value": "t_mapping(t_address,t_uint256)"
					},
					"t_mapping(t_address,t_uint256)": {
						"encoding": "mapping",
						"key": "t_address",
						"label": "mapping(address => uint256)",
						"numberOfBytes": "32",
						"value": "t_uint256"
					},
					"t_string_storage": {
						"encoding": "bytes",
						"label": "string",
						"numberOfBytes": "32"
					},
					"t_uint256": {
						"encoding": "inplace",
						"label": "uint256",
						"numberOfBytes": "32"
					},
					"t_uint8": {
						"encoding": "inplace",
						"label": "uint8",
						"numberOfBytes": "1"
					}
				}
			},
			"userdoc": {
				"kind": "user",
				"methods": {},
				"version": 1
			}
		}
	}
}