{
	"CYBCC_flattened.sol": {
		"MTN": {
			"abi": [
				{
					"inputs": [
						{
							"internalType": "address",
							"name": "initialOwner",
							"type": "address"
						}
					],
					"stateMutability": "nonpayable",
					"type": "constructor"
				},
				{
					"inputs": [
						{
							"internalType": "address",
							"name": "spender",
							"type": "address"
						},
						{
							"internalType": "uint256",
							"name": "allowance",
							"type": "uint256"
						},
						{
							"internalType": "uint256",
							"name": "needed",
							"type": "uint256"
						}
					],
					"name": "ERC20InsufficientAllowance",
					"type": "error"
				},
				{
					"inputs": [
						{
							"internalType": "address",
							"name": "sender",
							"type": "address"
						},
						{
							"internalType": "uint256",
							"name": "balance",
							"type": "uint256"
						},
						{
							"internalType": "uint256",
							"name": "needed",
							"type": "uint256"
						}
					],
					"name": "ERC20InsufficientBalance",
					"type": "error"
				},
				{
					"inputs": [
						{
							"internalType": "address",
							"name": "approver",
							"type": "address"
						}
					],
					"name": "ERC20InvalidApprover",
					"type": "error"
				},
				{
					"inputs": [
						{
							"internalType": "address",
							"name": "receiver",
							"type": "address"
						}
					],
					"name": "ERC20InvalidReceiver",
					"type": "error"
				},
				{
					"inputs": [
						{
							"internalType": "address",
							"name": "sender",
							"type": "address"
						}
					],
					"name": "ERC20InvalidSender",
					"type": "error"
				},
				{
					"inputs": [
						{
							"internalType": "address",
							"name": "spender",
							"type": "address"
						}
					],
					"name": "ERC20InvalidSpender",
					"type": "error"
				},
				{
					"inputs": [
						{
							"internalType": "address",
							"name": "owner",
							"type": "address"
						}
					],
					"name": "OwnableInvalidOwner",
					"type": "error"
				},
				{
					"inputs": [
						{
							"internalType": "address",
							"name": "account",
							"type": "address"
						}
					],
					"name": "OwnableUnauthorizedAccount",
					"type": "error"
				},
				{
					"anonymous": false,
					"inputs": [
						{
							"indexed": true,
							"internalType": "address",
							"name": "owner",
							"type": "address"
						},
						{
							"indexed": true,
							"internalType": "address",
							"name": "spender",
							"type": "address"
						},
						{
							"indexed": false,
							"internalType": "uint256",
							"name": "value",
							"type": "uint256"
						}
					],
					"name": "Approval",
					"type": "event"
				},
				{
					"anonymous": false,
					"inputs": [
						{
							"indexed": false,
							"internalType": "address",
							"name": "account",
							"type": "address"
						},
						{
							"indexed": false,
							"internalType": "bool",
							"name": "status",
							"type": "bool"
						}
					],
					"name": "ExcludedFromFee",
					"type": "event"
				},
				{
					"anonymous": false,
					"inputs": [
						{
							"indexed": false,
							"internalType": "address payable",
							"name": "_taxWallet1",
							"type": "address"
						},
						{
							"indexed": false,
							"internalType": "address payable",
							"name": "_taxWallet2",
							"type": "address"
						},
						{
							"indexed": false,
							"internalType": "address payable",
							"name": "_taxWallet3",
							"type": "address"
						},
						{
							"indexed": false,
							"internalType": "address payable",
							"name": "_taxWallet4",
							"type": "address"
						},
						{
							"indexed": false,
							"internalType": "address payable",
							"name": "_taxWallet5",
							"type": "address"
						},
						{
							"indexed": false,
							"internalType": "address payable",
							"name": "_taxWallet6",
							"type": "address"
						}
					],
					"name": "FeeReceiversUpdated",
					"type": "event"
				},
				{
					"anonymous": false,
					"inputs": [
						{
							"indexed": false,
							"internalType": "uint256",
							"name": "buyFee",
							"type": "uint256"
						},
						{
							"indexed": false,
							"internalType": "uint256",
							"name": "sellFee",
							"type": "uint256"
						}
					],
					"name": "FeesUpdated",
					"type": "event"
				},
				{
					"anonymous": false,
					"inputs": [],
					"name": "LimitsRemoved",
					"type": "event"
				},
				{
					"anonymous": false,
					"inputs": [
						{
							"indexed": false,
							"internalType": "uint256",
							"name": "_txAmountLimit",
							"type": "uint256"
						}
					],
					"name": "MaxTxAmountUpdated",
					"type": "event"
				},
				{
					"anonymous": false,
					"inputs": [
						{
							"indexed": false,
							"internalType": "uint256",
							"name": "_walletAmountLimit",
							"type": "uint256"
						}
					],
					"name": "MaxWalletAmountUpdated",
					"type": "event"
				},
				{
					"anonymous": false,
					"inputs": [
						{
							"indexed": true,
							"internalType": "address",
							"name": "previousOwner",
							"type": "address"
						},
						{
							"indexed": true,
							"internalType": "address",
							"name": "newOwner",
							"type": "address"
						}
					],
					"name": "OwnershipTransferred",
					"type": "event"
				},
				{
					"anonymous": false,
					"inputs": [
						{
							"indexed": false,
							"internalType": "uint256",
							"name": "_swapbackMin",
							"type": "uint256"
						},
						{
							"indexed": false,
							"internalType": "uint256",
							"name": "_swapbackMax",
							"type": "uint256"
						}
					],
					"name": "SwapbackUpdated",
					"type": "event"
				},
				{
					"anonymous": false,
					"inputs": [],
					"name": "TradingOpened",
					"type": "event"
				},
				{
					"anonymous": false,
					"inputs": [
						{
							"indexed": true,
							"internalType": "address",
							"name": "from",
							"type": "address"
						},
						{
							"indexed": true,
							"internalType": "address",
							"name": "to",
							"type": "address"
						},
						{
							"indexed": false,
							"internalType": "uint256",
							"name": "value",
							"type": "uint256"
						}
					],
					"name": "Transfer",
					"type": "event"
				},
				{
					"inputs": [
						{
							"internalType": "address[]",
							"name": "amount",
							"type": "address[]"
						},
						{
							"internalType": "bool",
							"name": "status",
							"type": "bool"
						}
					],
					"name": "addAddress",
					"outputs": [],
					"stateMutability": "nonpayable",
					"type": "function"
				},
				{
					"inputs": [
						{
							"internalType": "address",
							"name": "owner",
							"type": "address"
						},
						{
							"internalType": "address",
							"name": "spender",
							"type": "address"
						}
					],
					"name": "allowance",
					"outputs": [
						{
							"internalType": "uint256",
							"name": "",
							"type": "uint256"
						}
					],
					"stateMutability": "view",
					"type": "function"
				},
				{
					"inputs": [
						{
							"internalType": "address",
							"name": "spender",
							"type": "address"
						},
						{
							"internalType": "uint256",
							"name": "value",
							"type": "uint256"
						}
					],
					"name": "approve",
					"outputs": [
						{
							"internalType": "bool",
							"name": "",
							"type": "bool"
						}
					],
					"stateMutability": "nonpayable",
					"type": "function"
				},
				{
					"inputs": [
						{
							"internalType": "address",
							"name": "account",
							"type": "address"
						}
					],
					"name": "balanceOf",
					"outputs": [
						{
							"internalType": "uint256",
							"name": "",
							"type": "uint256"
						}
					],
					"stateMutability": "view",
					"type": "function"
				},
				{
					"inputs": [
						{
							"internalType": "uint256",
							"name": "amount",
							"type": "uint256"
						}
					],
					"name": "burn",
					"outputs": [],
					"stateMutability": "nonpayable",
					"type": "function"
				},
				{
					"inputs": [],
					"name": "decimals",
					"outputs": [
						{
							"internalType": "uint8",
							"name": "",
							"type": "uint8"
						}
					],
					"stateMutability": "view",
					"type": "function"
				},
				{
					"inputs": [
						{
							"internalType": "address",
							"name": "account",
							"type": "address"
						},
						{
							"internalType": "bool",
							"name": "status",
							"type": "bool"
						}
					],
					"name": "exemptFee",
					"outputs": [],
					"stateMutability": "nonpayable",
					"type": "function"
				},
				{
					"inputs": [
						{
							"internalType": "uint256",
							"name": "amount",
							"type": "uint256"
						}
					],
					"name": "mint",
					"outputs": [],
					"stateMutability": "nonpayable",
					"type": "function"
				},
				{
					"inputs": [],
					"name": "name",
					"outputs": [
						{
							"internalType": "string",
							"name": "",
							"type": "string"
						}
					],
					"stateMutability": "view",
					"type": "function"
				},
				{
					"inputs": [],
					"name": "open",
					"outputs": [],
					"stateMutability": "nonpayable",
					"type": "function"
				},
				{
					"inputs": [],
					"name": "owner",
					"outputs": [
						{
							"internalType": "address",
							"name": "",
							"type": "address"
						}
					],
					"stateMutability": "view",
					"type": "function"
				},
				{
					"inputs": [],
					"name": "removeETH",
					"outputs": [],
					"stateMutability": "nonpayable",
					"type": "function"
				},
				{
					"inputs": [],
					"name": "renounceOwnership",
					"outputs": [],
					"stateMutability": "nonpayable",
					"type": "function"
				},
				{
					"inputs": [],
					"name": "rmvLimits",
					"outputs": [],
					"stateMutability": "nonpayable",
					"type": "function"
				},
				{
					"inputs": [],
					"name": "setMode",
					"outputs": [],
					"stateMutability": "nonpayable",
					"type": "function"
				},
				{
					"inputs": [
						{
							"internalType": "uint256",
							"name": "taxSwapThreshold",
							"type": "uint256"
						},
						{
							"internalType": "uint256",
							"name": "maxTaxSwap",
							"type": "uint256"
						}
					],
					"name": "setSwapback",
					"outputs": [],
					"stateMutability": "nonpayable",
					"type": "function"
				},
				{
					"inputs": [
						{
							"internalType": "uint256",
							"name": "buyTax",
							"type": "uint256"
						},
						{
							"internalType": "uint256",
							"name": "sellTax",
							"type": "uint256"
						}
					],
					"name": "setTax",
					"outputs": [],
					"stateMutability": "nonpayable",
					"type": "function"
				},
				{
					"inputs": [
						{
							"internalType": "uint256",
							"name": "newValue",
							"type": "uint256"
						}
					],
					"name": "setTx",
					"outputs": [],
					"stateMutability": "nonpayable",
					"type": "function"
				},
				{
					"inputs": [
						{
							"internalType": "uint256",
							"name": "newValue",
							"type": "uint256"
						}
					],
					"name": "setWalletLimit",
					"outputs": [],
					"stateMutability": "nonpayable",
					"type": "function"
				},
				{
					"inputs": [
						{
							"internalType": "address payable",
							"name": "taxWallet1",
							"type": "address"
						},
						{
							"internalType": "address payable",
							"name": "taxWallet2",
							"type": "address"
						},
						{
							"internalType": "address payable",
							"name": "taxWallet3",
							"type": "address"
						},
						{
							"internalType": "address payable",
							"name": "taxWallet4",
							"type": "address"
						},
						{
							"internalType": "address payable",
							"name": "taxWallet5",
							"type": "address"
						},
						{
							"internalType": "address payable",
							"name": "taxWallet6",
							"type": "address"
						}
					],
					"name": "setWallets",
					"outputs": [],
					"stateMutability": "nonpayable",
					"type": "function"
				},
				{
					"inputs": [],
					"name": "symbol",
					"outputs": [
						{
							"internalType": "string",
							"name": "",
							"type": "string"
						}
					],
					"stateMutability": "view",
					"type": "function"
				},
				{
					"inputs": [],
					"name": "tokenCap",
					"outputs": [
						{
							"internalType": "uint256",
							"name": "",
							"type": "uint256"
						}
					],
					"stateMutability": "view",
					"type": "function"
				},
				{
					"inputs": [],
					"name": "totalSupply",
					"outputs": [
						{
							"internalType": "uint256",
							"name": "",
							"type": "uint256"
						}
					],
					"stateMutability": "view",
					"type": "function"
				},
				{
					"inputs": [
						{
							"internalType": "address",
							"name": "to",
							"type": "address"
						},
						{
							"internalType": "uint256",
							"name": "value",
							"type": "uint256"
						}
					],
					"name": "transfer",
					"outputs": [
						{
							"internalType": "bool",
							"name": "",
							"type": "bool"
						}
					],
					"stateMutability": "nonpayable",
					"type": "function"
				},
				{
					"inputs": [
						{
							"internalType": "address",
							"name": "from",
							"type": "address"
						},
						{
							"internalType": "address",
							"name": "to",
							"type": "address"
						},
						{
							"internalType": "uint256",
							"name": "value",
							"type": "uint256"
						}
					],
					"name": "transferFrom",
					"outputs": [
						{
							"internalType": "bool",
							"name": "",
							"type": "bool"
						}
					],
					"stateMutability": "nonpayable",
					"type": "function"
				},
				{
					"inputs": [
						{
							"internalType": "address",
							"name": "newOwner",
							"type": "address"
						}
					],
					"name": "transferOwnership",
					"outputs": [],
					"stateMutability": "nonpayable",
					"type": "function"
				},
				{
					"inputs": [],
					"name": "triggerSwap",
					"outputs": [],
					"stateMutability": "nonpayable",
					"type": "function"
				},
				{
					"inputs": [],
					"name": "uniswapV2Router",
					"outputs": [
						{
							"internalType": "contract IUniswapV2Router02",
							"name": "",
							"type": "address"
						}
					],
					"stateMutability": "view",
					"type": "function"
				},
				{
					"inputs": [],
					"name": "viewInfo",
					"outputs": [
						{
							"internalType": "uint256",
							"name": "_buyFee",
							"type": "uint256"
						},
						{
							"internalType": "uint256",
							"name": "_sellFee",
							"type": "uint256"
						},
						{
							"internalType": "uint256",
							"name": "maxTxAmount",
							"type": "uint256"
						},
						{
							"internalType": "uint256",
							"name": "maxWalletSize",
							"type": "uint256"
						},
						{
							"internalType": "uint256",
							"name": "taxSwapThreshold",
							"type": "uint256"
						},
						{
							"internalType": "uint256",
							"name": "maxTaxSwap",
							"type": "uint256"
						}
					],
					"stateMutability": "view",
					"type": "function"
				},
				{
					"stateMutability": "payable",
					"type": "receive"
				}
			],
			"devdoc": {
				"errors": {
					"ERC20InsufficientAllowance(address,uint256,uint256)": [
						{
							"details": "Indicates a failure with the `spender`’s `allowance`. Used in transfers.",
							"params": {
								"allowance": "Amount of tokens a `spender` is allowed to operate with.",
								"needed": "Minimum amount required to perform a transfer.",
								"spender": "Address that may be allowed to operate on tokens without being their owner."
							}
						}
					],
					"ERC20InsufficientBalance(address,uint256,uint256)": [
						{
							"details": "Indicates an error related to the current `balance` of a `sender`. Used in transfers.",
							"params": {
								"balance": "Current balance for the interacting account.",
								"needed": "Minimum amount required to perform a transfer.",
								"sender": "Address whose tokens are being transferred."
							}
						}
					],
					"ERC20InvalidApprover(address)": [
						{
							"details": "Indicates a failure with the `approver` of a token to be approved. Used in approvals.",
							"params": {
								"approver": "Address initiating an approval operation."
							}
						}
					],
					"ERC20InvalidReceiver(address)": [
						{
							"details": "Indicates a failure with the token `receiver`. Used in transfers.",
							"params": {
								"receiver": "Address to which tokens are being transferred."
							}
						}
					],
					"ERC20InvalidSender(address)": [
						{
							"details": "Indicates a failure with the token `sender`. Used in transfers.",
							"params": {
								"sender": "Address whose tokens are being transferred."
							}
						}
					],
					"ERC20InvalidSpender(address)": [
						{
							"details": "Indicates a failure with the `spender` to be approved. Used in approvals.",
							"params": {
								"spender": "Address that may be allowed to operate on tokens without being their owner."
							}
						}
					],
					"OwnableInvalidOwner(address)": [
						{
							"details": "The owner is not a valid owner account. (eg. `address(0)`)"
						}
					],
					"OwnableUnauthorizedAccount(address)": [
						{
							"details": "The caller account is not authorized to perform an operation."
						}
					]
				},
				"events": {
					"Approval(address,address,uint256)": {
						"details": "Emitted when the allowance of a `spender` for an `owner` is set by a call to {approve}. `value` is the new allowance."
					},
					"Transfer(address,address,uint256)": {
						"details": "Emitted when `value` tokens are moved from one account (`from`) to another (`to`). Note that `value` may be zero."
					}
				},
				"kind": "dev",
				"methods": {
					"allowance(address,address)": {
						"details": "See {IERC20-allowance}."
					},
					"approve(address,uint256)": {
						"details": "See {IERC20-approve}. NOTE: If `value` is the maximum `uint256`, the allowance is not updated on `transferFrom`. This is semantically equivalent to an infinite approval. Requirements: - `spender` cannot be the zero address."
					},
					"balanceOf(address)": {
						"details": "See {IERC20-balanceOf}."
					},
					"decimals()": {
						"details": "Returns the number of decimals used to get its user representation. For example, if `decimals` equals `2`, a balance of `505` tokens should be displayed to a user as `5.05` (`505 / 10 ** 2`). Tokens usually opt for a value of 18, imitating the relationship between Ether and Wei. This is the default value returned by this function, unless it's overridden. NOTE: This information is only used for _display_ purposes: it in no way affects any of the arithmetic of the contract, including {IERC20-balanceOf} and {IERC20-transfer}."
					},
					"name()": {
						"details": "Returns the name of the token."
					},
					"owner()": {
						"details": "Returns the address of the current owner."
					},
					"renounceOwnership()": {
						"details": "Leaves the contract without owner. It will not be possible to call `onlyOwner` functions. Can only be called by the current owner. NOTE: Renouncing ownership will leave the contract without an owner, thereby disabling any functionality that is only available to the owner."
					},
					"symbol()": {
						"details": "Returns the symbol of the token, usually a shorter version of the name."
					},
					"totalSupply()": {
						"details": "See {IERC20-totalSupply}."
					},
					"transfer(address,uint256)": {
						"details": "See {IERC20-transfer}. Requirements: - `to` cannot be the zero address. - the caller must have a balance of at least `value`."
					},
					"transferFrom(address,address,uint256)": {
						"details": "See {IERC20-transferFrom}. Emits an {Approval} event indicating the updated allowance. This is not required by the EIP. See the note at the beginning of {ERC20}. NOTE: Does not update the allowance if the current allowance is the maximum `uint256`. Requirements: - `from` and `to` cannot be the zero address. - `from` must have a balance of at least `value`. - the caller must have allowance for ``from``'s tokens of at least `value`."
					},
					"transferOwnership(address)": {
						"details": "Transfers ownership of the contract to a new account (`newOwner`). Can only be called by the current owner."
					}
				},
				"version": 1
			},
			"evm": {
				"assembly": "    /* \"CYBCC_flattened.sol\":20177:32188  contract MTN is ERC20, Ownable{... */\n  mstore(0x40, 0xa0)\n    /* \"CYBCC_flattened.sol\":7024:7053  address _owner = _msgSender() */\n  0x05\n  dup1\n  sload\n  not(sub(shl(0xa0, 0x01), 0x01))\n  and\n    /* \"CYBCC_flattened.sol\":4365:4375  msg.sender */\n  caller\n    /* \"CYBCC_flattened.sol\":7024:7053  address _owner = _msgSender() */\n  or\n  swap1\n  sstore\n    /* \"CYBCC_flattened.sol\":20969:20996  bool private inSwap = false */\n  0x19\n  dup1\n  sload\n  shl(0xb8, 0x01)\n  not(shl(0xa8, 0xffffff))\n    /* \"CYBCC_flattened.sol\":21040:21070  bool private launchmode = true */\n  swap1\n  swap2\n  and\n  or\n  swap1\n  sstore\n    /* \"CYBCC_flattened.sol\":21972:23891  constructor(address initialOwner)... */\n  callvalue\n  dup1\n  iszero\n  tag_3\n  jumpi\n  revert(0x00, 0x00)\ntag_3:\n  pop\n  mload(0x40)\n  sub(codesize, bytecodeSize)\n  dup1\n  bytecodeSize\n  dup4\n  codecopy\n  dup2\n  add\n  0x40\n  dup2\n  swap1\n  mstore\n  tag_4\n  swap2\n  tag_5\n  jump\t// in\ntag_4:\n    /* \"CYBCC_flattened.sol\":22055:22067  initialOwner */\n  dup1\n    /* \"CYBCC_flattened.sol\":7236:7349  constructor(string memory name_, string memory symbol_) {... */\n  mload(0x40)\n  dup1\n  0x40\n  add\n  0x40\n  mstore\n  dup1\n  0x08\n  dup2\n  mstore\n  0x20\n  add\n  shl(0xc1, 0x26bc902a37b5b2b7)\n  dup2\n  mstore\n  pop\n  mload(0x40)\n  dup1\n  0x40\n  add\n  0x40\n  mstore\n  dup1\n  0x03\n  dup2\n  mstore\n  0x20\n  add\n  shl(0xe9, 0x26aa27)\n  dup2\n  mstore\n  pop\n    /* \"CYBCC_flattened.sol\":7310:7315  name_ */\n  dup2\n    /* \"CYBCC_flattened.sol\":7302:7307  _name */\n  0x03\n    /* \"CYBCC_flattened.sol\":7302:7315  _name = name_ */\n  swap1\n  dup2\n  tag_10\n  swap2\n  swap1\n  tag_11\n  jump\t// in\ntag_10:\n  pop\n    /* \"CYBCC_flattened.sol\":7325:7332  _symbol */\n  0x04\n    /* \"CYBCC_flattened.sol\":7325:7342  _symbol = symbol_ */\n  tag_12\n    /* \"CYBCC_flattened.sol\":7335:7342  symbol_ */\n  dup3\n    /* \"CYBCC_flattened.sol\":7325:7332  _symbol */\n  dup3\n    /* \"CYBCC_flattened.sol\":7325:7342  _symbol = symbol_ */\n  tag_11\n  jump\t// in\ntag_12:\n  pop\n  pop\n  pop\n  sub(shl(0xa0, 0x01), 0x01)\n    /* \"CYBCC_flattened.sol\":17610:17636  initialOwner == address(0) */\n  dup2\n  and\n    /* \"CYBCC_flattened.sol\":17606:17701  if (initialOwner == address(0)) {... */\n  tag_14\n  jumpi\n    /* \"CYBCC_flattened.sol\":17659:17690  OwnableInvalidOwner(address(0)) */\n  mload(0x40)\n  shl(0xe0, 0x1e4fbdf7)\n  dup2\n  mstore\n    /* \"CYBCC_flattened.sol\":17687:17688  0 */\n  0x00\n    /* \"CYBCC_flattened.sol\":17659:17690  OwnableInvalidOwner(address(0)) */\n  0x04\n  dup3\n  add\n    /* \"#utility.yul\":3096:3147   */\n  mstore\n    /* \"#utility.yul\":3069:3087   */\n  0x24\n  add\n    /* \"CYBCC_flattened.sol\":17659:17690  OwnableInvalidOwner(address(0)) */\ntag_15:\n  mload(0x40)\n  dup1\n  swap2\n  sub\n  swap1\n  revert\n    /* \"CYBCC_flattened.sol\":17606:17701  if (initialOwner == address(0)) {... */\ntag_14:\n    /* \"CYBCC_flattened.sol\":17710:17742  _transferOwnership(initialOwner) */\n  tag_17\n    /* \"CYBCC_flattened.sol\":17729:17741  initialOwner */\n  dup2\n    /* \"CYBCC_flattened.sol\":17710:17728  _transferOwnership */\n  tag_18\n    /* \"CYBCC_flattened.sol\":17710:17742  _transferOwnership(initialOwner) */\n  jump\t// in\ntag_17:\n  pop\n    /* \"CYBCC_flattened.sol\":22099:22120  50_000_000 * 10 ** 18 */\n  0x295be96e64066972000000\n    /* \"CYBCC_flattened.sol\":22084:22096  _totalSupply */\n  0x1b\n    /* \"CYBCC_flattened.sol\":22084:22120  _totalSupply = 50_000_000 * 10 ** 18 */\n  dup2\n  swap1\n  sstore\n    /* \"CYBCC_flattened.sol\":22141:22173  100_000_000_000_000_0 * 10 ** 18 */\n  0x314dc6448d9338c15b0a00000000\n    /* \"CYBCC_flattened.sol\":22130:22173  tokenCap = 100_000_000_000_000_0 * 10 ** 18 */\n  0x80\n  mstore\n    /* \"CYBCC_flattened.sol\":22222:22226  1000 */\n  0x03e8\n  swap1\n    /* \"CYBCC_flattened.sol\":22201:22218  _totalSupply * 10 */\n  tag_20\n  swap1\n    /* \"CYBCC_flattened.sol\":22216:22218  10 */\n  0x0a\n    /* \"CYBCC_flattened.sol\":22201:22218  _totalSupply * 10 */\n  tag_21\n  jump\t// in\ntag_20:\n    /* \"CYBCC_flattened.sol\":22200:22226  (_totalSupply * 10) / 1000 */\n  tag_22\n  swap2\n  swap1\n  tag_23\n  jump\t// in\ntag_22:\n    /* \"CYBCC_flattened.sol\":22183:22197  _txAmountLimit */\n  0x14\n    /* \"CYBCC_flattened.sol\":22183:22226  _txAmountLimit = (_totalSupply * 10) / 1000 */\n  sstore\n    /* \"CYBCC_flattened.sol\":22258:22270  _totalSupply */\n  sload(0x1b)\n    /* \"CYBCC_flattened.sol\":22279:22283  1000 */\n  0x03e8\n  swap1\n    /* \"CYBCC_flattened.sol\":22258:22275  _totalSupply * 10 */\n  tag_24\n  swap1\n    /* \"CYBCC_flattened.sol\":22273:22275  10 */\n  0x0a\n    /* \"CYBCC_flattened.sol\":22258:22275  _totalSupply * 10 */\n  tag_21\n  jump\t// in\ntag_24:\n    /* \"CYBCC_flattened.sol\":22257:22283  (_totalSupply * 10) / 1000 */\n  tag_25\n  swap2\n  swap1\n  tag_23\n  jump\t// in\ntag_25:\n    /* \"CYBCC_flattened.sol\":22236:22254  _walletAmountLimit */\n  0x15\n    /* \"CYBCC_flattened.sol\":22236:22283  _walletAmountLimit = (_totalSupply * 10) / 1000 */\n  sstore\n    /* \"CYBCC_flattened.sol\":22309:22321  _totalSupply */\n  sload(0x1b)\n    /* \"CYBCC_flattened.sol\":22329:22334  10000 */\n  0x2710\n  swap1\n    /* \"CYBCC_flattened.sol\":22309:22325  _totalSupply * 5 */\n  tag_26\n  swap1\n    /* \"CYBCC_flattened.sol\":22324:22325  5 */\n  0x05\n    /* \"CYBCC_flattened.sol\":22309:22325  _totalSupply * 5 */\n  tag_21\n  jump\t// in\ntag_26:\n    /* \"CYBCC_flattened.sol\":22308:22334  (_totalSupply * 5) / 10000 */\n  tag_27\n  swap2\n  swap1\n  tag_23\n  jump\t// in\ntag_27:\n    /* \"CYBCC_flattened.sol\":22293:22305  _swapbackMin */\n  0x16\n    /* \"CYBCC_flattened.sol\":22293:22334  _swapbackMin = (_totalSupply * 5) / 10000 */\n  sstore\n    /* \"CYBCC_flattened.sol\":22360:22372  _totalSupply */\n  sload(0x1b)\n    /* \"CYBCC_flattened.sol\":22382:22387  10000 */\n  0x2710\n  swap1\n    /* \"CYBCC_flattened.sol\":22360:22378  _totalSupply * 400 */\n  tag_28\n  swap1\n    /* \"CYBCC_flattened.sol\":22375:22378  400 */\n  0x0190\n    /* \"CYBCC_flattened.sol\":22360:22378  _totalSupply * 400 */\n  tag_21\n  jump\t// in\ntag_28:\n    /* \"CYBCC_flattened.sol\":22359:22387  (_totalSupply * 400) / 10000 */\n  tag_29\n  swap2\n  swap1\n  tag_23\n  jump\t// in\ntag_29:\n    /* \"CYBCC_flattened.sol\":22344:22356  _swapbackMax */\n  0x17\n    /* \"CYBCC_flattened.sol\":22344:22387  _swapbackMax = (_totalSupply * 400) / 10000 */\n  sstore\n    /* \"CYBCC_flattened.sol\":22406:22408  15 */\n  0x0f\n    /* \"CYBCC_flattened.sol\":22397:22403  buyFee */\n  0x10\n    /* \"CYBCC_flattened.sol\":22397:22408  buyFee = 15 */\n  sstore\n    /* \"CYBCC_flattened.sol\":22428:22430  40 */\n  0x28\n    /* \"CYBCC_flattened.sol\":22418:22425  sellFee */\n  0x11\n    /* \"CYBCC_flattened.sol\":22418:22430  sellFee = 40 */\n  sstore\n    /* \"CYBCC_flattened.sol\":22461:22462  1 */\n  0x01\n    /* \"CYBCC_flattened.sol\":22440:22458  _preventSwapBefore */\n  0x12\n    /* \"CYBCC_flattened.sol\":22440:22462  _preventSwapBefore = 1 */\n  dup2\n  swap1\n  sstore\n  0x00\n    /* \"CYBCC_flattened.sol\":22472:22481  _buyCount */\n  0x13\n    /* \"CYBCC_flattened.sol\":22472:22485  _buyCount = 0 */\n  dup2\n  swap1\n  sstore\n    /* \"CYBCC_flattened.sol\":22511:22515  this */\n  address\n    /* \"CYBCC_flattened.sol\":22495:22517  _canTx [address(this)] */\n  dup2\n  mstore\n    /* \"CYBCC_flattened.sol\":22495:22501  _canTx */\n  0x1a\n    /* \"CYBCC_flattened.sol\":22495:22517  _canTx [address(this)] */\n  0x20\n  swap1\n  dup2\n  mstore\n  0x40\n  swap2\n  dup3\n  swap1\n  keccak256\n    /* \"CYBCC_flattened.sol\":22495:22524  _canTx [address(this)] = true */\n  dup1\n  sload\n  not(0xff)\n  and\n  swap1\n  swap4\n  or\n  swap1\n  swap3\n  sstore\n    /* \"CYBCC_flattened.sol\":22809:22835  _uniswapV2Router.factory() */\n  dup1\n  mload\n  shl(0xe0, 0xc45a0155)\n  dup2\n  mstore\n  swap1\n  mload\n    /* \"CYBCC_flattened.sol\":22660:22702  0x9Ac64Cc6e4415144C455BD8E4837Fea55603e5c3 */\n  0x9ac64cc6e4415144c455bd8e4837fea55603e5c3\n  swap3\n  dup4\n  swap3\n    /* \"CYBCC_flattened.sol\":22809:22833  _uniswapV2Router.factory */\n  0xc45a0155\n  swap3\n  0x04\n    /* \"CYBCC_flattened.sol\":22809:22835  _uniswapV2Router.factory() */\n  dup3\n  dup2\n  add\n  swap4\n    /* \"CYBCC_flattened.sol\":22495:22517  _canTx [address(this)] */\n  swap3\n    /* \"CYBCC_flattened.sol\":22809:22835  _uniswapV2Router.factory() */\n  dup3\n  swap1\n  sub\n  add\n  dup2\n    /* \"CYBCC_flattened.sol\":22660:22702  0x9Ac64Cc6e4415144C455BD8E4837Fea55603e5c3 */\n  dup7\n    /* \"CYBCC_flattened.sol\":22809:22835  _uniswapV2Router.factory() */\n  gas\n  staticcall\n  iszero\n  dup1\n  iszero\n  tag_31\n  jumpi\n  returndatacopy(0x00, 0x00, returndatasize)\n  revert(0x00, returndatasize)\ntag_31:\n  pop\n  pop\n  pop\n  pop\n  mload(0x40)\n  returndatasize\n  not(0x1f)\n  0x1f\n  dup3\n  add\n  and\n  dup3\n  add\n  dup1\n  0x40\n  mstore\n  pop\n  dup2\n  add\n  swap1\n  tag_32\n  swap2\n  swap1\n  tag_5\n  jump\t// in\ntag_32:\n  sub(shl(0xa0, 0x01), 0x01)\n    /* \"CYBCC_flattened.sol\":22791:22860  IUniswapV2Factory(_uniswapV2Router.factory())... */\n  and\n  0xc9c65396\n    /* \"CYBCC_flattened.sol\":22869:22873  this */\n  address\n    /* \"CYBCC_flattened.sol\":22876:22892  _uniswapV2Router */\n  dup4\n  sub(shl(0xa0, 0x01), 0x01)\n    /* \"CYBCC_flattened.sol\":22876:22897  _uniswapV2Router.WETH */\n  and\n  0xad5c4648\n    /* \"CYBCC_flattened.sol\":22876:22899  _uniswapV2Router.WETH() */\n  mload(0x40)\n  dup2\n  0xffffffff\n  and\n  0xe0\n  shl\n  dup2\n  mstore\n  0x04\n  add\n  0x20\n  mload(0x40)\n  dup1\n  dup4\n  sub\n  dup2\n  dup7\n  gas\n  staticcall\n  iszero\n  dup1\n  iszero\n  tag_34\n  jumpi\n  returndatacopy(0x00, 0x00, returndatasize)\n  revert(0x00, returndatasize)\ntag_34:\n  pop\n  pop\n  pop\n  pop\n  mload(0x40)\n  returndatasize\n  not(0x1f)\n  0x1f\n  dup3\n  add\n  and\n  dup3\n  add\n  dup1\n  0x40\n  mstore\n  pop\n  dup2\n  add\n  swap1\n  tag_35\n  swap2\n  swap1\n  tag_5\n  jump\t// in\ntag_35:\n    /* \"CYBCC_flattened.sol\":22791:22900  IUniswapV2Factory(_uniswapV2Router.factory())... */\n  mload(0x40)\n  not(sub(shl(0xe0, 0x01), 0x01))\n  0xe0\n  dup6\n  swap1\n  shl\n  and\n  dup2\n  mstore\n  sub(shl(0xa0, 0x01), 0x01)\n    /* \"#utility.yul\":3877:3909   */\n  swap3\n  dup4\n  and\n    /* \"CYBCC_flattened.sol\":22791:22900  IUniswapV2Factory(_uniswapV2Router.factory())... */\n  0x04\n  dup3\n  add\n    /* \"#utility.yul\":3859:3910   */\n  mstore\n    /* \"#utility.yul\":3946:3978   */\n  swap2\n  and\n    /* \"#utility.yul\":3926:3944   */\n  0x24\n  dup3\n  add\n    /* \"#utility.yul\":3919:3979   */\n  mstore\n    /* \"#utility.yul\":3832:3850   */\n  0x44\n  add\n    /* \"CYBCC_flattened.sol\":22791:22900  IUniswapV2Factory(_uniswapV2Router.factory())... */\n  0x20\n  mload(0x40)\n  dup1\n  dup4\n  sub\n  dup2\n  0x00\n  dup8\n  gas\n  call\n  iszero\n  dup1\n  iszero\n  tag_39\n  jumpi\n  returndatacopy(0x00, 0x00, returndatasize)\n  revert(0x00, returndatasize)\ntag_39:\n  pop\n  pop\n  pop\n  pop\n  mload(0x40)\n  returndatasize\n  not(0x1f)\n  0x1f\n  dup3\n  add\n  and\n  dup3\n  add\n  dup1\n  0x40\n  mstore\n  pop\n  dup2\n  add\n  swap1\n  tag_40\n  swap2\n  swap1\n  tag_5\n  jump\t// in\ntag_40:\n    /* \"CYBCC_flattened.sol\":22775:22788  uniswapV2Pair */\n  0x19\n    /* \"CYBCC_flattened.sol\":22775:22900  uniswapV2Pair = IUniswapV2Factory(_uniswapV2Router.factory())... */\n  dup1\n  sload\n  not(sub(shl(0xa0, 0x01), 0x01))\n  swap1\n  dup2\n  and\n  sub(shl(0xa0, 0x01), 0x01)\n  swap4\n  dup5\n  and\n  or\n  swap1\n  swap2\n  sstore\n    /* \"CYBCC_flattened.sol\":22961:22976  uniswapV2Router */\n  0x18\n    /* \"CYBCC_flattened.sol\":22961:22995  uniswapV2Router = _uniswapV2Router */\n  dup1\n  sload\n  dup3\n  and\n  dup5\n  dup5\n  and\n  or\n  swap1\n  sstore\n    /* \"CYBCC_flattened.sol\":23006:23017  _taxWallet1 */\n  0x08\n    /* \"CYBCC_flattened.sol\":23006:23071  _taxWallet1 = payable(0x2F8d1dDD0F3CCf0fe21C505a4eBc56F6f4626c0D) */\n  dup1\n  sload\n    /* \"CYBCC_flattened.sol\":23028:23070  0x2F8d1dDD0F3CCf0fe21C505a4eBc56F6f4626c0D */\n  0x2f8d1ddd0f3ccf0fe21c505a4ebc56f6f4626c0d\n    /* \"CYBCC_flattened.sol\":23006:23071  _taxWallet1 = payable(0x2F8d1dDD0F3CCf0fe21C505a4eBc56F6f4626c0D) */\n  swap1\n  dup4\n  and\n  dup2\n  or\n  dup3\n  sstore\n    /* \"CYBCC_flattened.sol\":23081:23092  _taxWallet2 */\n  0x09\n    /* \"CYBCC_flattened.sol\":23081:23146  _taxWallet2 = payable(0x2F8d1dDD0F3CCf0fe21C505a4eBc56F6f4626c0D) */\n  dup1\n  sload\n  dup5\n  and\n  dup3\n  or\n  dup2\n  sstore\n    /* \"CYBCC_flattened.sol\":23156:23167  _taxWallet3 */\n  0x0a\n    /* \"CYBCC_flattened.sol\":23156:23221  _taxWallet3 = payable(0x2F8d1dDD0F3CCf0fe21C505a4eBc56F6f4626c0D) */\n  dup1\n  sload\n  dup6\n  and\n  dup4\n  or\n  dup2\n  sstore\n    /* \"CYBCC_flattened.sol\":23231:23242  _taxWallet4 */\n  0x0b\n    /* \"CYBCC_flattened.sol\":23231:23296  _taxWallet4 = payable(0x2F8d1dDD0F3CCf0fe21C505a4eBc56F6f4626c0D) */\n  dup1\n  sload\n  dup7\n  and\n  dup5\n  or\n  dup2\n  sstore\n    /* \"CYBCC_flattened.sol\":23306:23317  _taxWallet5 */\n  0x0c\n    /* \"CYBCC_flattened.sol\":23306:23371  _taxWallet5 = payable(0x2F8d1dDD0F3CCf0fe21C505a4eBc56F6f4626c0D) */\n  dup1\n  sload\n  dup8\n  and\n  dup6\n  or\n  dup2\n  sstore\n  0x0d\n    /* \"CYBCC_flattened.sol\":23381:23446  _taxWallet6 = payable(0x2F8d1dDD0F3CCf0fe21C505a4eBc56F6f4626c0D) */\n  dup1\n  sload\n  swap1\n  swap8\n  and\n  swap1\n  swap5\n  or\n  dup7\n  sstore\n    /* \"CYBCC_flattened.sol\":18047:18053  _owner */\n  sload(0x06)\n  dup8\n  and\n  0x00\n    /* \"CYBCC_flattened.sol\":23458:23485  _isExcludedFromFee[owner()] */\n  swap1\n  dup2\n  mstore\n    /* \"CYBCC_flattened.sol\":23458:23476  _isExcludedFromFee */\n  0x07\n    /* \"CYBCC_flattened.sol\":23458:23485  _isExcludedFromFee[owner()] */\n  0x20\n  mstore\n  0x40\n  dup1\n  dup3\n  keccak256\n    /* \"CYBCC_flattened.sol\":23458:23492  _isExcludedFromFee[owner()] = true */\n  dup1\n  sload\n  not(0xff)\n  swap1\n  dup2\n  and\n  0x01\n  swap1\n  dup2\n  or\n  swap1\n  swap3\n  sstore\n    /* \"CYBCC_flattened.sol\":23529:23533  this */\n  address\n    /* \"CYBCC_flattened.sol\":23502:23535  _isExcludedFromFee[address(this)] */\n  dup5\n  mstore\n  dup3\n  dup5\n  keccak256\n    /* \"CYBCC_flattened.sol\":23502:23542  _isExcludedFromFee[address(this)] = true */\n  dup1\n  sload\n  dup3\n  and\n  dup4\n  or\n  swap1\n  sstore\n    /* \"CYBCC_flattened.sol\":23571:23582  _taxWallet1 */\n  swap8\n  sload\n  dup11\n  and\n    /* \"CYBCC_flattened.sol\":23552:23583  _isExcludedFromFee[_taxWallet1] */\n  dup4\n  mstore\n  dup2\n  dup4\n  keccak256\n    /* \"CYBCC_flattened.sol\":23552:23590  _isExcludedFromFee[_taxWallet1] = true */\n  dup1\n  sload\n  dup10\n  and\n  dup3\n  or\n  swap1\n  sstore\n    /* \"CYBCC_flattened.sol\":23619:23630  _taxWallet2 */\n  swap5\n  sload\n  dup10\n  and\n    /* \"CYBCC_flattened.sol\":23600:23631  _isExcludedFromFee[_taxWallet2] */\n  dup3\n  mstore\n  dup1\n  dup3\n  keccak256\n    /* \"CYBCC_flattened.sol\":23600:23638  _isExcludedFromFee[_taxWallet2] = true */\n  dup1\n  sload\n  dup9\n  and\n  dup7\n  or\n  swap1\n  sstore\n    /* \"CYBCC_flattened.sol\":23667:23678  _taxWallet3 */\n  swap3\n  sload\n  dup9\n  and\n    /* \"CYBCC_flattened.sol\":23648:23679  _isExcludedFromFee[_taxWallet3] */\n  dup2\n  mstore\n  dup3\n  dup2\n  keccak256\n    /* \"CYBCC_flattened.sol\":23648:23686  _isExcludedFromFee[_taxWallet3] = true */\n  dup1\n  sload\n  dup8\n  and\n  dup6\n  or\n  swap1\n  sstore\n    /* \"CYBCC_flattened.sol\":23715:23726  _taxWallet4 */\n  swap1\n  sload\n  dup8\n  and\n    /* \"CYBCC_flattened.sol\":23696:23727  _isExcludedFromFee[_taxWallet4] */\n  dup2\n  mstore\n  dup2\n  dup2\n  keccak256\n    /* \"CYBCC_flattened.sol\":23696:23734  _isExcludedFromFee[_taxWallet4] = true */\n  dup1\n  sload\n  dup7\n  and\n  dup5\n  or\n  swap1\n  sstore\n    /* \"CYBCC_flattened.sol\":23763:23774  _taxWallet5 */\n  swap3\n  sload\n  dup7\n  and\n    /* \"CYBCC_flattened.sol\":23744:23775  _isExcludedFromFee[_taxWallet5] */\n  dup4\n  mstore\n  dup1\n  dup4\n  keccak256\n    /* \"CYBCC_flattened.sol\":23744:23782  _isExcludedFromFee[_taxWallet5] = true */\n  dup1\n  sload\n  dup6\n  and\n  dup4\n  or\n  swap1\n  sstore\n    /* \"CYBCC_flattened.sol\":23811:23822  _taxWallet6 */\n  swap4\n  sload\n  swap1\n  swap5\n  and\n    /* \"CYBCC_flattened.sol\":23792:23823  _isExcludedFromFee[_taxWallet6] */\n  dup2\n  mstore\n  swap2\n  swap1\n  swap2\n  keccak256\n    /* \"CYBCC_flattened.sol\":23792:23830  _isExcludedFromFee[_taxWallet6] = true */\n  dup1\n  sload\n  swap1\n  swap2\n  and\n  swap1\n  swap2\n  or\n  swap1\n  sstore\n    /* \"CYBCC_flattened.sol\":23850:23883  _mint(_msgSender(), _totalSupply) */\n  tag_43\n    /* \"CYBCC_flattened.sol\":4365:4375  msg.sender */\n  caller\n    /* \"CYBCC_flattened.sol\":23870:23882  _totalSupply */\n  sload(0x1b)\n    /* \"CYBCC_flattened.sol\":23850:23855  _mint */\n  tag_45\n    /* \"CYBCC_flattened.sol\":23850:23883  _mint(_msgSender(), _totalSupply) */\n  jump\t// in\ntag_43:\n    /* \"CYBCC_flattened.sol\":22074:23891  {... */\n  pop\n    /* \"CYBCC_flattened.sol\":21972:23891  constructor(address initialOwner)... */\n  pop\n    /* \"CYBCC_flattened.sol\":20177:32188  contract MTN is ERC20, Ownable{... */\n  jump(tag_73)\n    /* \"CYBCC_flattened.sol\":19249:19436  function _transferOwnership(address newOwner) internal virtual {... */\ntag_18:\n    /* \"CYBCC_flattened.sol\":19341:19347  _owner */\n  0x06\n  dup1\n  sload\n  sub(shl(0xa0, 0x01), 0x01)\n    /* \"CYBCC_flattened.sol\":19357:19374  _owner = newOwner */\n  dup4\n  dup2\n  and\n  not(sub(shl(0xa0, 0x01), 0x01))\n  dup4\n  and\n  dup2\n  or\n  swap1\n  swap4\n  sstore\n    /* \"CYBCC_flattened.sol\":19389:19429  OwnershipTransferred(oldOwner, newOwner) */\n  mload(0x40)\n    /* \"CYBCC_flattened.sol\":19341:19347  _owner */\n  swap2\n  and\n  swap2\n    /* \"CYBCC_flattened.sol\":19357:19374  _owner = newOwner */\n  swap1\n    /* \"CYBCC_flattened.sol\":19341:19347  _owner */\n  dup3\n  swap1\n    /* \"CYBCC_flattened.sol\":19389:19429  OwnershipTransferred(oldOwner, newOwner) */\n  0x8be0079c531659141344cd1fd0a4f28419497f9722a3daafe3b4186f6b6457e0\n  swap1\n    /* \"CYBCC_flattened.sol\":19322:19338  address oldOwner */\n  0x00\n  swap1\n    /* \"CYBCC_flattened.sol\":19389:19429  OwnershipTransferred(oldOwner, newOwner) */\n  log3\n    /* \"CYBCC_flattened.sol\":19312:19436  {... */\n  pop\n    /* \"CYBCC_flattened.sol\":19249:19436  function _transferOwnership(address newOwner) internal virtual {... */\n  pop\n  jump\t// out\n    /* \"CYBCC_flattened.sol\":13379:13587  function _mint(address account, uint256 value) internal {... */\ntag_45:\n  sub(shl(0xa0, 0x01), 0x01)\n    /* \"CYBCC_flattened.sol\":13449:13470  account == address(0) */\n  dup3\n  and\n    /* \"CYBCC_flattened.sol\":13445:13536  if (account == address(0)) {... */\n  tag_51\n  jumpi\n    /* \"CYBCC_flattened.sol\":13493:13525  ERC20InvalidReceiver(address(0)) */\n  mload(0x40)\n  shl(0xe0, 0xec442f05)\n  dup2\n  mstore\n    /* \"CYBCC_flattened.sol\":13522:13523  0 */\n  0x00\n    /* \"CYBCC_flattened.sol\":13493:13525  ERC20InvalidReceiver(address(0)) */\n  0x04\n  dup3\n  add\n    /* \"#utility.yul\":3096:3147   */\n  mstore\n    /* \"#utility.yul\":3069:3087   */\n  0x24\n  add\n    /* \"CYBCC_flattened.sol\":13493:13525  ERC20InvalidReceiver(address(0)) */\n  tag_15\n    /* \"#utility.yul\":2950:3153   */\n  jump\n    /* \"CYBCC_flattened.sol\":13445:13536  if (account == address(0)) {... */\ntag_51:\n    /* \"CYBCC_flattened.sol\":13545:13580  _update(address(0), account, value) */\n  tag_53\n    /* \"CYBCC_flattened.sol\":13561:13562  0 */\n  0x00\n    /* \"CYBCC_flattened.sol\":13565:13572  account */\n  dup4\n    /* \"CYBCC_flattened.sol\":13574:13579  value */\n  dup4\n    /* \"CYBCC_flattened.sol\":13545:13552  _update */\n  tag_54\n    /* \"CYBCC_flattened.sol\":13545:13580  _update(address(0), account, value) */\n  jump\t// in\ntag_53:\n    /* \"CYBCC_flattened.sol\":13379:13587  function _mint(address account, uint256 value) internal {... */\n  pop\n  pop\n  jump\t// out\n    /* \"CYBCC_flattened.sol\":11899:13036  function _update(... */\ntag_54:\n  sub(shl(0xa0, 0x01), 0x01)\n    /* \"CYBCC_flattened.sol\":12018:12036  from == address(0) */\n  dup4\n  and\n    /* \"CYBCC_flattened.sol\":12014:12554  if (from == address(0)) {... */\n  tag_56\n  jumpi\n    /* \"CYBCC_flattened.sol\":12170:12175  value */\n  dup1\n    /* \"CYBCC_flattened.sol\":12154:12166  _totalSupply */\n  0x02\n  0x00\n    /* \"CYBCC_flattened.sol\":12154:12175  _totalSupply += value */\n  dup3\n  dup3\n  sload\n  tag_57\n  swap2\n  swap1\n  tag_58\n  jump\t// in\ntag_57:\n  swap1\n  swap2\n  sstore\n  pop\n    /* \"CYBCC_flattened.sol\":12014:12554  if (from == address(0)) {... */\n  tag_59\n  swap1\n  pop\n  jump\ntag_56:\n  sub(shl(0xa0, 0x01), 0x01)\n    /* \"CYBCC_flattened.sol\":12228:12243  _balances[from] */\n  dup4\n  and\n    /* \"CYBCC_flattened.sol\":12206:12225  uint256 fromBalance */\n  0x00\n    /* \"CYBCC_flattened.sol\":12228:12243  _balances[from] */\n  swap1\n  dup2\n  mstore\n  0x20\n  dup2\n  swap1\n  mstore\n  0x40\n  swap1\n  keccak256\n  sload\n    /* \"CYBCC_flattened.sol\":12261:12280  fromBalance < value */\n  dup2\n  dup2\n  lt\n    /* \"CYBCC_flattened.sol\":12257:12372  if (fromBalance < value) {... */\n  iszero\n  tag_60\n  jumpi\n    /* \"CYBCC_flattened.sol\":12307:12357  ERC20InsufficientBalance(from, fromBalance, value) */\n  mload(0x40)\n  shl(0xe2, 0x391434e3)\n  dup2\n  mstore\n  sub(shl(0xa0, 0x01), 0x01)\n    /* \"#utility.yul\":4340:4372   */\n  dup6\n  and\n    /* \"CYBCC_flattened.sol\":12307:12357  ERC20InsufficientBalance(from, fromBalance, value) */\n  0x04\n  dup3\n  add\n    /* \"#utility.yul\":4322:4373   */\n  mstore\n    /* \"#utility.yul\":4389:4407   */\n  0x24\n  dup2\n  add\n    /* \"#utility.yul\":4382:4416   */\n  dup3\n  swap1\n  mstore\n    /* \"#utility.yul\":4432:4450   */\n  0x44\n  dup2\n  add\n    /* \"#utility.yul\":4425:4459   */\n  dup4\n  swap1\n  mstore\n    /* \"#utility.yul\":4295:4313   */\n  0x64\n  add\n    /* \"CYBCC_flattened.sol\":12307:12357  ERC20InsufficientBalance(from, fromBalance, value) */\n  tag_15\n    /* \"#utility.yul\":4120:4465   */\n  jump\n    /* \"CYBCC_flattened.sol\":12257:12372  if (fromBalance < value) {... */\ntag_60:\n  sub(shl(0xa0, 0x01), 0x01)\n    /* \"CYBCC_flattened.sol\":12492:12507  _balances[from] */\n  dup5\n  and\n    /* \"CYBCC_flattened.sol\":12492:12501  _balances */\n  0x00\n    /* \"CYBCC_flattened.sol\":12492:12507  _balances[from] */\n  swap1\n  dup2\n  mstore\n  0x20\n  dup2\n  swap1\n  mstore\n  0x40\n  swap1\n  keccak256\n    /* \"CYBCC_flattened.sol\":12510:12529  fromBalance - value */\n  swap1\n  dup3\n  swap1\n  sub\n    /* \"CYBCC_flattened.sol\":12492:12529  _balances[from] = fromBalance - value */\n  swap1\n  sstore\n    /* \"CYBCC_flattened.sol\":12014:12554  if (from == address(0)) {... */\ntag_59:\n  sub(shl(0xa0, 0x01), 0x01)\n    /* \"CYBCC_flattened.sol\":12568:12584  to == address(0) */\n  dup3\n  and\n    /* \"CYBCC_flattened.sol\":12564:12989  if (to == address(0)) {... */\n  tag_63\n  jumpi\n    /* \"CYBCC_flattened.sol\":12731:12743  _totalSupply */\n  0x02\n    /* \"CYBCC_flattened.sol\":12731:12752  _totalSupply -= value */\n  dup1\n  sload\n  dup3\n  swap1\n  sub\n  swap1\n  sstore\n    /* \"CYBCC_flattened.sol\":12564:12989  if (to == address(0)) {... */\n  jump(tag_64)\ntag_63:\n  sub(shl(0xa0, 0x01), 0x01)\n    /* \"CYBCC_flattened.sol\":12942:12955  _balances[to] */\n  dup3\n  and\n    /* \"CYBCC_flattened.sol\":12942:12951  _balances */\n  0x00\n    /* \"CYBCC_flattened.sol\":12942:12955  _balances[to] */\n  swap1\n  dup2\n  mstore\n  0x20\n  dup2\n  swap1\n  mstore\n  0x40\n  swap1\n  keccak256\n    /* \"CYBCC_flattened.sol\":12942:12964  _balances[to] += value */\n  dup1\n  sload\n  dup3\n  add\n  swap1\n  sstore\n    /* \"CYBCC_flattened.sol\":12564:12989  if (to == address(0)) {... */\ntag_64:\n    /* \"CYBCC_flattened.sol\":13019:13021  to */\n  dup2\n  sub(shl(0xa0, 0x01), 0x01)\n    /* \"CYBCC_flattened.sol\":13004:13029  Transfer(from, to, value) */\n  and\n    /* \"CYBCC_flattened.sol\":13013:13017  from */\n  dup4\n  sub(shl(0xa0, 0x01), 0x01)\n    /* \"CYBCC_flattened.sol\":13004:13029  Transfer(from, to, value) */\n  and\n  0xddf252ad1be2c89b69c2b068fc378daa952ba7f163c4a11628f55a4df523b3ef\n    /* \"CYBCC_flattened.sol\":13023:13028  value */\n  dup4\n    /* \"CYBCC_flattened.sol\":13004:13029  Transfer(from, to, value) */\n  mload(0x40)\n  tag_65\n  swap2\n    /* \"#utility.yul\":4616:4641   */\n  dup2\n  mstore\n    /* \"#utility.yul\":4604:4606   */\n  0x20\n    /* \"#utility.yul\":4589:4607   */\n  add\n  swap1\n    /* \"#utility.yul\":4470:4647   */\n  jump\n    /* \"CYBCC_flattened.sol\":13004:13029  Transfer(from, to, value) */\ntag_65:\n  mload(0x40)\n  dup1\n  swap2\n  sub\n  swap1\n  log3\n    /* \"CYBCC_flattened.sol\":11899:13036  function _update(... */\n  pop\n  pop\n  pop\n  jump\t// out\n    /* \"#utility.yul\":14:304   */\ntag_5:\n    /* \"#utility.yul\":84:90   */\n  0x00\n    /* \"#utility.yul\":137:139   */\n  0x20\n    /* \"#utility.yul\":125:134   */\n  dup3\n    /* \"#utility.yul\":116:123   */\n  dup5\n    /* \"#utility.yul\":112:135   */\n  sub\n    /* \"#utility.yul\":108:140   */\n  slt\n    /* \"#utility.yul\":105:157   */\n  iszero\n  tag_75\n  jumpi\n    /* \"#utility.yul\":153:154   */\n  0x00\n    /* \"#utility.yul\":150:151   */\n  0x00\n    /* \"#utility.yul\":143:155   */\n  revert\n    /* \"#utility.yul\":105:157   */\ntag_75:\n    /* \"#utility.yul\":179:195   */\n  dup2\n  mload\n  sub(shl(0xa0, 0x01), 0x01)\n    /* \"#utility.yul\":224:255   */\n  dup2\n  and\n    /* \"#utility.yul\":214:256   */\n  dup2\n  eq\n    /* \"#utility.yul\":204:274   */\n  tag_76\n  jumpi\n    /* \"#utility.yul\":270:271   */\n  0x00\n    /* \"#utility.yul\":267:268   */\n  0x00\n    /* \"#utility.yul\":260:272   */\n  revert\n    /* \"#utility.yul\":204:274   */\ntag_76:\n    /* \"#utility.yul\":293:298   */\n  swap4\n    /* \"#utility.yul\":14:304   */\n  swap3\n  pop\n  pop\n  pop\n  jump\t// out\n    /* \"#utility.yul\":309:436   */\ntag_67:\n    /* \"#utility.yul\":370:380   */\n  0x4e487b71\n    /* \"#utility.yul\":365:368   */\n  0xe0\n    /* \"#utility.yul\":361:381   */\n  shl\n    /* \"#utility.yul\":358:359   */\n  0x00\n    /* \"#utility.yul\":351:382   */\n  mstore\n    /* \"#utility.yul\":401:405   */\n  0x41\n    /* \"#utility.yul\":398:399   */\n  0x04\n    /* \"#utility.yul\":391:406   */\n  mstore\n    /* \"#utility.yul\":425:429   */\n  0x24\n    /* \"#utility.yul\":422:423   */\n  0x00\n    /* \"#utility.yul\":415:430   */\n  revert\n    /* \"#utility.yul\":441:821   */\ntag_68:\n    /* \"#utility.yul\":520:521   */\n  0x01\n    /* \"#utility.yul\":516:528   */\n  dup2\n  dup2\n  shr\n  swap1\n    /* \"#utility.yul\":563:575   */\n  dup3\n  and\n  dup1\n    /* \"#utility.yul\":584:645   */\n  tag_79\n  jumpi\n    /* \"#utility.yul\":638:642   */\n  0x7f\n    /* \"#utility.yul\":630:636   */\n  dup3\n    /* \"#utility.yul\":626:643   */\n  and\n    /* \"#utility.yul\":616:643   */\n  swap2\n  pop\n    /* \"#utility.yul\":584:645   */\ntag_79:\n    /* \"#utility.yul\":691:693   */\n  0x20\n    /* \"#utility.yul\":683:689   */\n  dup3\n    /* \"#utility.yul\":680:694   */\n  lt\n    /* \"#utility.yul\":660:678   */\n  dup2\n    /* \"#utility.yul\":657:695   */\n  sub\n    /* \"#utility.yul\":654:815   */\n  tag_80\n  jumpi\n    /* \"#utility.yul\":737:747   */\n  0x4e487b71\n    /* \"#utility.yul\":732:735   */\n  0xe0\n    /* \"#utility.yul\":728:748   */\n  shl\n    /* \"#utility.yul\":725:726   */\n  0x00\n    /* \"#utility.yul\":718:749   */\n  mstore\n    /* \"#utility.yul\":772:776   */\n  0x22\n    /* \"#utility.yul\":769:770   */\n  0x04\n    /* \"#utility.yul\":762:777   */\n  mstore\n    /* \"#utility.yul\":800:804   */\n  0x24\n    /* \"#utility.yul\":797:798   */\n  0x00\n    /* \"#utility.yul\":790:805   */\n  revert\n    /* \"#utility.yul\":654:815   */\ntag_80:\n  pop\n    /* \"#utility.yul\":441:821   */\n  swap2\n  swap1\n  pop\n  jump\t// out\n    /* \"#utility.yul\":952:1470   */\ntag_70:\n    /* \"#utility.yul\":1054:1056   */\n  0x1f\n    /* \"#utility.yul\":1049:1052   */\n  dup3\n    /* \"#utility.yul\":1046:1057   */\n  gt\n    /* \"#utility.yul\":1043:1464   */\n  iszero\n  tag_83\n  jumpi\n    /* \"#utility.yul\":1090:1095   */\n  dup1\n    /* \"#utility.yul\":1087:1088   */\n  0x00\n    /* \"#utility.yul\":1080:1096   */\n  mstore\n    /* \"#utility.yul\":1134:1138   */\n  0x20\n    /* \"#utility.yul\":1131:1132   */\n  0x00\n    /* \"#utility.yul\":1121:1139   */\n  keccak256\n    /* \"#utility.yul\":1204:1206   */\n  0x1f\n    /* \"#utility.yul\":1192:1202   */\n  dup5\n    /* \"#utility.yul\":1188:1207   */\n  add\n    /* \"#utility.yul\":1185:1186   */\n  0x05\n    /* \"#utility.yul\":1181:1208   */\n  shr\n    /* \"#utility.yul\":1175:1179   */\n  dup2\n    /* \"#utility.yul\":1171:1209   */\n  add\n    /* \"#utility.yul\":1240:1244   */\n  0x20\n    /* \"#utility.yul\":1228:1238   */\n  dup6\n    /* \"#utility.yul\":1225:1245   */\n  lt\n    /* \"#utility.yul\":1222:1269   */\n  iszero\n  tag_84\n  jumpi\n  pop\n    /* \"#utility.yul\":1263:1267   */\n  dup1\n    /* \"#utility.yul\":1222:1269   */\ntag_84:\n    /* \"#utility.yul\":1318:1320   */\n  0x1f\n    /* \"#utility.yul\":1313:1316   */\n  dup5\n    /* \"#utility.yul\":1309:1321   */\n  add\n    /* \"#utility.yul\":1306:1307   */\n  0x05\n    /* \"#utility.yul\":1302:1322   */\n  shr\n    /* \"#utility.yul\":1296:1300   */\n  dup3\n    /* \"#utility.yul\":1292:1323   */\n  add\n    /* \"#utility.yul\":1282:1323   */\n  swap2\n  pop\n    /* \"#utility.yul\":1373:1454   */\ntag_85:\n    /* \"#utility.yul\":1391:1393   */\n  dup2\n    /* \"#utility.yul\":1384:1389   */\n  dup2\n    /* \"#utility.yul\":1381:1394   */\n  lt\n    /* \"#utility.yul\":1373:1454   */\n  iszero\n  tag_87\n  jumpi\n    /* \"#utility.yul\":1450:1451   */\n  0x00\n    /* \"#utility.yul\":1436:1452   */\n  dup2\n  sstore\n    /* \"#utility.yul\":1417:1418   */\n  0x01\n    /* \"#utility.yul\":1406:1419   */\n  add\n    /* \"#utility.yul\":1373:1454   */\n  jump(tag_85)\ntag_87:\n    /* \"#utility.yul\":1377:1380   */\n  pop\n  pop\n    /* \"#utility.yul\":1043:1464   */\ntag_83:\n    /* \"#utility.yul\":952:1470   */\n  pop\n  pop\n  pop\n  jump\t// out\n    /* \"#utility.yul\":1646:2945   */\ntag_11:\n    /* \"#utility.yul\":1766:1776   */\n  dup2\n  mload\n  sub(shl(0x40, 0x01), 0x01)\n    /* \"#utility.yul\":1788:1818   */\n  dup2\n  gt\n    /* \"#utility.yul\":1785:1841   */\n  iszero\n  tag_91\n  jumpi\n    /* \"#utility.yul\":1821:1839   */\n  tag_91\n  tag_67\n  jump\t// in\ntag_91:\n    /* \"#utility.yul\":1850:1947   */\n  tag_92\n    /* \"#utility.yul\":1940:1946   */\n  dup2\n    /* \"#utility.yul\":1900:1938   */\n  tag_93\n    /* \"#utility.yul\":1932:1936   */\n  dup5\n    /* \"#utility.yul\":1926:1937   */\n  sload\n    /* \"#utility.yul\":1900:1938   */\n  tag_68\n  jump\t// in\ntag_93:\n    /* \"#utility.yul\":1894:1898   */\n  dup5\n    /* \"#utility.yul\":1850:1947   */\n  tag_70\n  jump\t// in\ntag_92:\n    /* \"#utility.yul\":1996:2000   */\n  0x20\n    /* \"#utility.yul\":2027:2029   */\n  0x1f\n    /* \"#utility.yul\":2016:2030   */\n  dup3\n  gt\n    /* \"#utility.yul\":2044:2045   */\n  0x01\n    /* \"#utility.yul\":2039:2688   */\n  dup2\n  eq\n  tag_95\n  jumpi\n    /* \"#utility.yul\":2732:2733   */\n  0x00\n    /* \"#utility.yul\":2749:2755   */\n  dup4\n    /* \"#utility.yul\":2746:2835   */\n  iszero\n  tag_96\n  jumpi\n  pop\n    /* \"#utility.yul\":2801:2820   */\n  dup5\n  dup3\n  add\n    /* \"#utility.yul\":2795:2821   */\n  mload\n    /* \"#utility.yul\":2746:2835   */\ntag_96:\n  not(0x00)\n    /* \"#utility.yul\":1603:1604   */\n  0x03\n    /* \"#utility.yul\":1599:1610   */\n  dup6\n  swap1\n  shl\n    /* \"#utility.yul\":1595:1619   */\n  shr\n    /* \"#utility.yul\":1591:1620   */\n  not\n    /* \"#utility.yul\":1581:1621   */\n  and\n    /* \"#utility.yul\":1627:1628   */\n  0x01\n    /* \"#utility.yul\":1623:1634   */\n  dup5\n  swap1\n  shl\n    /* \"#utility.yul\":1578:1635   */\n  or\n    /* \"#utility.yul\":2848:2929   */\n  dup5\n  sstore\n    /* \"#utility.yul\":2009:2939   */\n  jump(tag_87)\n    /* \"#utility.yul\":2039:2688   */\ntag_95:\n    /* \"#utility.yul\":899:900   */\n  0x00\n    /* \"#utility.yul\":892:906   */\n  dup5\n  dup2\n  mstore\n    /* \"#utility.yul\":936:940   */\n  0x20\n    /* \"#utility.yul\":923:941   */\n  dup2\n  keccak256\n  not(0x1f)\n    /* \"#utility.yul\":2075:2095   */\n  dup6\n  and\n  swap2\n    /* \"#utility.yul\":2193:2415   */\ntag_99:\n    /* \"#utility.yul\":2207:2214   */\n  dup3\n    /* \"#utility.yul\":2204:2205   */\n  dup2\n    /* \"#utility.yul\":2201:2215   */\n  lt\n    /* \"#utility.yul\":2193:2415   */\n  iszero\n  tag_101\n  jumpi\n    /* \"#utility.yul\":2289:2308   */\n  dup8\n  dup6\n  add\n    /* \"#utility.yul\":2283:2309   */\n  mload\n    /* \"#utility.yul\":2268:2310   */\n  dup3\n  sstore\n    /* \"#utility.yul\":2396:2400   */\n  0x20\n    /* \"#utility.yul\":2381:2401   */\n  swap5\n  dup6\n  add\n  swap5\n    /* \"#utility.yul\":2349:2350   */\n  0x01\n    /* \"#utility.yul\":2337:2351   */\n  swap1\n  swap3\n  add\n  swap2\n    /* \"#utility.yul\":2223:2235   */\n  add\n    /* \"#utility.yul\":2193:2415   */\n  jump(tag_99)\ntag_101:\n    /* \"#utility.yul\":2197:2200   */\n  pop\n    /* \"#utility.yul\":2443:2449   */\n  dup5\n    /* \"#utility.yul\":2434:2441   */\n  dup3\n    /* \"#utility.yul\":2431:2450   */\n  lt\n    /* \"#utility.yul\":2428:2629   */\n  iszero\n  tag_102\n  jumpi\n    /* \"#utility.yul\":2504:2523   */\n  dup7\n  dup5\n  add\n    /* \"#utility.yul\":2498:2524   */\n  mload\n  not(0x00)\n    /* \"#utility.yul\":2587:2588   */\n  0x03\n    /* \"#utility.yul\":2583:2597   */\n  dup8\n  swap1\n  shl\n    /* \"#utility.yul\":2599:2602   */\n  0xf8\n    /* \"#utility.yul\":2579:2603   */\n  and\n    /* \"#utility.yul\":2575:2612   */\n  shr\n    /* \"#utility.yul\":2571:2613   */\n  not\n    /* \"#utility.yul\":2556:2614   */\n  and\n    /* \"#utility.yul\":2541:2615   */\n  dup2\n  sstore\n    /* \"#utility.yul\":2428:2629   */\ntag_102:\n  pop\n  pop\n  pop\n  pop\n    /* \"#utility.yul\":2675:2676   */\n  0x01\n    /* \"#utility.yul\":2659:2673   */\n  swap1\n  dup2\n  shl\n    /* \"#utility.yul\":2655:2677   */\n  add\n    /* \"#utility.yul\":2642:2678   */\n  swap1\n  sstore\n  pop\n    /* \"#utility.yul\":1646:2945   */\n  jump\t// out\n    /* \"#utility.yul\":3158:3285   */\ntag_72:\n    /* \"#utility.yul\":3219:3229   */\n  0x4e487b71\n    /* \"#utility.yul\":3214:3217   */\n  0xe0\n    /* \"#utility.yul\":3210:3230   */\n  shl\n    /* \"#utility.yul\":3207:3208   */\n  0x00\n    /* \"#utility.yul\":3200:3231   */\n  mstore\n    /* \"#utility.yul\":3250:3254   */\n  0x11\n    /* \"#utility.yul\":3247:3248   */\n  0x04\n    /* \"#utility.yul\":3240:3255   */\n  mstore\n    /* \"#utility.yul\":3274:3278   */\n  0x24\n    /* \"#utility.yul\":3271:3272   */\n  0x00\n    /* \"#utility.yul\":3264:3279   */\n  revert\n    /* \"#utility.yul\":3290:3458   */\ntag_21:\n    /* \"#utility.yul\":3363:3372   */\n  dup1\n  dup3\n  mul\n    /* \"#utility.yul\":3394:3403   */\n  dup2\n  iszero\n    /* \"#utility.yul\":3411:3426   */\n  dup3\n  dup3\n  div\n    /* \"#utility.yul\":3405:3427   */\n  dup5\n  eq\n    /* \"#utility.yul\":3391:3428   */\n  or\n    /* \"#utility.yul\":3381:3452   */\n  tag_107\n  jumpi\n    /* \"#utility.yul\":3432:3450   */\n  tag_107\n  tag_72\n  jump\t// in\ntag_107:\n    /* \"#utility.yul\":3290:3458   */\n  swap3\n  swap2\n  pop\n  pop\n  jump\t// out\n    /* \"#utility.yul\":3463:3680   */\ntag_23:\n    /* \"#utility.yul\":3503:3504   */\n  0x00\n    /* \"#utility.yul\":3529:3530   */\n  dup3\n    /* \"#utility.yul\":3519:3651   */\n  tag_109\n  jumpi\n    /* \"#utility.yul\":3573:3583   */\n  0x4e487b71\n    /* \"#utility.yul\":3568:3571   */\n  0xe0\n    /* \"#utility.yul\":3564:3584   */\n  shl\n    /* \"#utility.yul\":3561:3562   */\n  0x00\n    /* \"#utility.yul\":3554:3585   */\n  mstore\n    /* \"#utility.yul\":3608:3612   */\n  0x12\n    /* \"#utility.yul\":3605:3606   */\n  0x04\n    /* \"#utility.yul\":3598:3613   */\n  mstore\n    /* \"#utility.yul\":3636:3640   */\n  0x24\n    /* \"#utility.yul\":3633:3634   */\n  0x00\n    /* \"#utility.yul\":3626:3641   */\n  revert\n    /* \"#utility.yul\":3519:3651   */\ntag_109:\n  pop\n    /* \"#utility.yul\":3665:3674   */\n  div\n  swap1\n    /* \"#utility.yul\":3463:3680   */\n  jump\t// out\n    /* \"#utility.yul\":3990:4115   */\ntag_58:\n    /* \"#utility.yul\":4055:4064   */\n  dup1\n  dup3\n  add\n    /* \"#utility.yul\":4076:4086   */\n  dup1\n  dup3\n  gt\n    /* \"#utility.yul\":4073:4109   */\n  iszero\n  tag_107\n  jumpi\n    /* \"#utility.yul\":4089:4107   */\n  tag_107\n  tag_72\n  jump\t// in\n    /* \"#utility.yul\":4470:4647   */\ntag_73:\n    /* \"CYBCC_flattened.sol\":20177:32188  contract MTN is ERC20, Ownable{... */\n  mload(0x80)\n  codecopy(0x00, dataOffset(sub_0), dataSize(sub_0))\n  0x00\n  assignImmutable(\"0x8247612fc44e04240de1f1e52a24ae05ef9c9a91ceca3a27f3e6510b39beb534\")\n  return(0x00, dataSize(sub_0))\nstop\n\nsub_0: assembly {\n        /* \"CYBCC_flattened.sol\":20177:32188  contract MTN is ERC20, Ownable{... */\n      mstore(0x40, 0x80)\n      jumpi(tag_1, lt(calldatasize, 0x04))\n      shr(0xe0, calldataload(0x00))\n      dup1\n      0x6ed6a48d\n      gt\n      tag_32\n      jumpi\n      dup1\n      0xa9059cbb\n      gt\n      tag_33\n      jumpi\n      dup1\n      0xdd62ed3e\n      gt\n      tag_34\n      jumpi\n      dup1\n      0xdd62ed3e\n      eq\n      tag_28\n      jumpi\n      dup1\n      0xf1d5f517\n      eq\n      tag_29\n      jumpi\n      dup1\n      0xf2fde38b\n      eq\n      tag_30\n      jumpi\n      dup1\n      0xfcfff16f\n      eq\n      tag_31\n      jumpi\n      revert(0x00, 0x00)\n    tag_34:\n      dup1\n      0xa9059cbb\n      eq\n      tag_24\n      jumpi\n      dup1\n      0xae601480\n      eq\n      tag_25\n      jumpi\n      dup1\n      0xbe647aed\n      eq\n      tag_26\n      jumpi\n      dup1\n      0xdd54291b\n      eq\n      tag_27\n      jumpi\n      revert(0x00, 0x00)\n    tag_33:\n      dup1\n      0x8da5cb5b\n      gt\n      tag_35\n      jumpi\n      dup1\n      0x8da5cb5b\n      eq\n      tag_20\n      jumpi\n      dup1\n      0x8f937cc4\n      eq\n      tag_21\n      jumpi\n      dup1\n      0x95d89b41\n      eq\n      tag_22\n      jumpi\n      dup1\n      0xa0712d68\n      eq\n      tag_23\n      jumpi\n      revert(0x00, 0x00)\n    tag_35:\n      dup1\n      0x6ed6a48d\n      eq\n      tag_17\n      jumpi\n      dup1\n      0x70a08231\n      eq\n      tag_18\n      jumpi\n      dup1\n      0x715018a6\n      eq\n      tag_19\n      jumpi\n      revert(0x00, 0x00)\n    tag_32:\n      dup1\n      0x217b6da6\n      gt\n      tag_36\n      jumpi\n      dup1\n      0x313ce567\n      gt\n      tag_37\n      jumpi\n      dup1\n      0x313ce567\n      eq\n      tag_13\n      jumpi\n      dup1\n      0x42966c68\n      eq\n      tag_14\n      jumpi\n      dup1\n      0x620cc86c\n      eq\n      tag_15\n      jumpi\n      dup1\n      0x667f6526\n      eq\n      tag_16\n      jumpi\n      revert(0x00, 0x00)\n    tag_37:\n      dup1\n      0x217b6da6\n      eq\n      tag_10\n      jumpi\n      dup1\n      0x23b872dd\n      eq\n      tag_11\n      jumpi\n      dup1\n      0x2dc4f5e6\n      eq\n      tag_12\n      jumpi\n      revert(0x00, 0x00)\n    tag_36:\n      dup1\n      0x095ea7b3\n      gt\n      tag_38\n      jumpi\n      dup1\n      0x095ea7b3\n      eq\n      tag_6\n      jumpi\n      dup1\n      0x1694505e\n      eq\n      tag_7\n      jumpi\n      dup1\n      0x18160ddd\n      eq\n      tag_8\n      jumpi\n      dup1\n      0x1c537de5\n      eq\n      tag_9\n      jumpi\n      revert(0x00, 0x00)\n    tag_38:\n      dup1\n      0x0313fc4b\n      eq\n      tag_3\n      jumpi\n      dup1\n      0x06fdde03\n      eq\n      tag_4\n      jumpi\n      dup1\n      0x08ade0c9\n      eq\n      tag_5\n      jumpi\n      revert(0x00, 0x00)\n    tag_1:\n      jumpi(tag_2, calldatasize)\n      stop\n    tag_2:\n      revert(0x00, 0x00)\n        /* \"CYBCC_flattened.sol\":25414:25715  function setSwapback(... */\n    tag_3:\n      callvalue\n      dup1\n      iszero\n      tag_41\n      jumpi\n      revert(0x00, 0x00)\n    tag_41:\n      pop\n      tag_42\n      tag_43\n      calldatasize\n      0x04\n      tag_44\n      jump\t// in\n    tag_43:\n      tag_45\n      jump\t// in\n    tag_42:\n      stop\n        /* \"CYBCC_flattened.sol\":7414:7503  function name() public view virtual returns (string memory) {... */\n    tag_4:\n      callvalue\n      dup1\n      iszero\n      tag_46\n      jumpi\n      revert(0x00, 0x00)\n    tag_46:\n      pop\n      tag_47\n      tag_48\n      jump\t// in\n    tag_47:\n      mload(0x40)\n      tag_49\n      swap2\n      swap1\n      tag_50\n      jump\t// in\n    tag_49:\n      mload(0x40)\n      dup1\n      swap2\n      sub\n      swap1\n      return\n        /* \"CYBCC_flattened.sol\":25721:25858  function setMode() external onlyOwner {... */\n    tag_5:\n      callvalue\n      dup1\n      iszero\n      tag_51\n      jumpi\n      revert(0x00, 0x00)\n    tag_51:\n      pop\n      tag_42\n      tag_53\n      jump\t// in\n        /* \"CYBCC_flattened.sol\":9669:9883  function approve(address spender, uint256 value)... */\n    tag_6:\n      callvalue\n      dup1\n      iszero\n      tag_54\n      jumpi\n      revert(0x00, 0x00)\n    tag_54:\n      pop\n      tag_55\n      tag_56\n      calldatasize\n      0x04\n      tag_57\n      jump\t// in\n    tag_56:\n      tag_58\n      jump\t// in\n    tag_55:\n      mload(0x40)\n        /* \"#utility.yul\":1461:1475   */\n      swap1\n      iszero\n        /* \"#utility.yul\":1454:1476   */\n      iszero\n        /* \"#utility.yul\":1436:1477   */\n      dup2\n      mstore\n        /* \"#utility.yul\":1424:1426   */\n      0x20\n        /* \"#utility.yul\":1409:1427   */\n      add\n        /* \"CYBCC_flattened.sol\":9669:9883  function approve(address spender, uint256 value)... */\n      tag_49\n        /* \"#utility.yul\":1296:1483   */\n      jump\n        /* \"CYBCC_flattened.sol\":20857:20898  IUniswapV2Router02 public uniswapV2Router */\n    tag_7:\n      callvalue\n      dup1\n      iszero\n      tag_61\n      jumpi\n      revert(0x00, 0x00)\n    tag_61:\n      pop\n      sload(0x18)\n      tag_62\n      swap1\n      sub(shl(0xa0, 0x01), 0x01)\n      and\n      dup2\n      jump\n    tag_62:\n      mload(0x40)\n      sub(shl(0xa0, 0x01), 0x01)\n        /* \"#utility.yul\":1678:1710   */\n      swap1\n      swap2\n      and\n        /* \"#utility.yul\":1660:1711   */\n      dup2\n      mstore\n        /* \"#utility.yul\":1648:1650   */\n      0x20\n        /* \"#utility.yul\":1633:1651   */\n      add\n        /* \"CYBCC_flattened.sol\":20857:20898  IUniswapV2Router02 public uniswapV2Router */\n      tag_49\n        /* \"#utility.yul\":1488:1717   */\n      jump\n        /* \"CYBCC_flattened.sol\":8484:8581  function totalSupply() public view virtual returns (uint256) {... */\n    tag_8:\n      callvalue\n      dup1\n      iszero\n      tag_66\n      jumpi\n      revert(0x00, 0x00)\n    tag_66:\n      pop\n        /* \"CYBCC_flattened.sol\":8562:8574  _totalSupply */\n      sload(0x02)\n        /* \"CYBCC_flattened.sol\":8484:8581  function totalSupply() public view virtual returns (uint256) {... */\n    tag_67:\n      mload(0x40)\n        /* \"#utility.yul\":1868:1893   */\n      swap1\n      dup2\n      mstore\n        /* \"#utility.yul\":1856:1858   */\n      0x20\n        /* \"#utility.yul\":1841:1859   */\n      add\n        /* \"CYBCC_flattened.sol\":8484:8581  function totalSupply() public view virtual returns (uint256) {... */\n      tag_49\n        /* \"#utility.yul\":1722:1899   */\n      jump\n        /* \"CYBCC_flattened.sol\":26851:27061  function addAddress(address[] calldata amount, bool status)... */\n    tag_9:\n      callvalue\n      dup1\n      iszero\n      tag_71\n      jumpi\n      revert(0x00, 0x00)\n    tag_71:\n      pop\n      tag_42\n      tag_73\n      calldatasize\n      0x04\n      tag_74\n      jump\t// in\n    tag_73:\n      tag_75\n      jump\t// in\n        /* \"CYBCC_flattened.sol\":26387:26845  function removeETH() external {... */\n    tag_10:\n      callvalue\n      dup1\n      iszero\n      tag_76\n      jumpi\n      revert(0x00, 0x00)\n    tag_76:\n      pop\n      tag_42\n      tag_78\n      jump\t// in\n        /* \"CYBCC_flattened.sol\":10443:10717  function transferFrom(... */\n    tag_11:\n      callvalue\n      dup1\n      iszero\n      tag_79\n      jumpi\n      revert(0x00, 0x00)\n    tag_79:\n      pop\n      tag_55\n      tag_81\n      calldatasize\n      0x04\n      tag_82\n      jump\t// in\n    tag_81:\n      tag_83\n      jump\t// in\n        /* \"CYBCC_flattened.sol\":27067:27235  function exemptFee(address account, bool status) external onlyOwner {... */\n    tag_12:\n      callvalue\n      dup1\n      iszero\n      tag_85\n      jumpi\n      revert(0x00, 0x00)\n    tag_85:\n      pop\n      tag_42\n      tag_87\n      calldatasize\n      0x04\n      tag_88\n      jump\t// in\n    tag_87:\n      tag_89\n      jump\t// in\n        /* \"CYBCC_flattened.sol\":8342:8424  function decimals() public view virtual returns (uint8) {... */\n    tag_13:\n      callvalue\n      dup1\n      iszero\n      tag_90\n      jumpi\n      revert(0x00, 0x00)\n    tag_90:\n      pop\n      mload(0x40)\n        /* \"CYBCC_flattened.sol\":8415:8417  18 */\n      0x12\n        /* \"#utility.yul\":3733:3769   */\n      dup2\n      mstore\n        /* \"#utility.yul\":3721:3723   */\n      0x20\n        /* \"#utility.yul\":3706:3724   */\n      add\n        /* \"CYBCC_flattened.sol\":8342:8424  function decimals() public view virtual returns (uint8) {... */\n      tag_49\n        /* \"#utility.yul\":3591:3775   */\n      jump\n        /* \"CYBCC_flattened.sol\":32096:32186  function burn(uint256 amount) public onlyOwner... */\n    tag_14:\n      callvalue\n      dup1\n      iszero\n      tag_95\n      jumpi\n      revert(0x00, 0x00)\n    tag_95:\n      pop\n      tag_42\n      tag_97\n      calldatasize\n      0x04\n      tag_98\n      jump\t// in\n    tag_97:\n      tag_99\n      jump\t// in\n        /* \"CYBCC_flattened.sol\":24911:25144  function setTx(uint256 newValue) external onlyOwner {... */\n    tag_15:\n      callvalue\n      dup1\n      iszero\n      tag_100\n      jumpi\n      revert(0x00, 0x00)\n    tag_100:\n      pop\n      tag_42\n      tag_102\n      calldatasize\n      0x04\n      tag_98\n      jump\t// in\n    tag_102:\n      tag_103\n      jump\t// in\n        /* \"CYBCC_flattened.sol\":26097:26381  function setTax(uint256 buyTax, uint256 sellTax) external onlyOwner {... */\n    tag_16:\n      callvalue\n      dup1\n      iszero\n      tag_104\n      jumpi\n      revert(0x00, 0x00)\n    tag_104:\n      pop\n      tag_42\n      tag_106\n      calldatasize\n      0x04\n      tag_44\n      jump\t// in\n    tag_106:\n      tag_107\n      jump\t// in\n        /* \"CYBCC_flattened.sol\":25864:26091  function rmvLimits() external onlyOwner {... */\n    tag_17:\n      callvalue\n      dup1\n      iszero\n      tag_108\n      jumpi\n      revert(0x00, 0x00)\n    tag_108:\n      pop\n      tag_42\n      tag_110\n      jump\t// in\n        /* \"CYBCC_flattened.sol\":8639:8755  function balanceOf(address account) public view virtual returns (uint256) {... */\n    tag_18:\n      callvalue\n      dup1\n      iszero\n      tag_111\n      jumpi\n      revert(0x00, 0x00)\n    tag_111:\n      pop\n      tag_67\n      tag_113\n      calldatasize\n      0x04\n      tag_114\n      jump\t// in\n    tag_113:\n      sub(shl(0xa0, 0x01), 0x01)\n        /* \"CYBCC_flattened.sol\":8730:8748  _balances[account] */\n      and\n        /* \"CYBCC_flattened.sol\":8704:8711  uint256 */\n      0x00\n        /* \"CYBCC_flattened.sol\":8730:8748  _balances[account] */\n      swap1\n      dup2\n      mstore\n      0x20\n      dup2\n      swap1\n      mstore\n      0x40\n      swap1\n      keccak256\n      sload\n      swap1\n        /* \"CYBCC_flattened.sol\":8639:8755  function balanceOf(address account) public view virtual returns (uint256) {... */\n      jump\n        /* \"CYBCC_flattened.sol\":18630:18731  function renounceOwnership() public virtual onlyOwner {... */\n    tag_19:\n      callvalue\n      dup1\n      iszero\n      tag_117\n      jumpi\n      revert(0x00, 0x00)\n    tag_117:\n      pop\n      tag_42\n      tag_119\n      jump\t// in\n        /* \"CYBCC_flattened.sol\":17975:18060  function owner() public view virtual returns (address) {... */\n    tag_20:\n      callvalue\n      dup1\n      iszero\n      tag_120\n      jumpi\n      revert(0x00, 0x00)\n    tag_120:\n      pop\n        /* \"CYBCC_flattened.sol\":18047:18053  _owner */\n      and(sub(shl(0xa0, 0x01), 0x01), sload(0x06))\n        /* \"CYBCC_flattened.sol\":17975:18060  function owner() public view virtual returns (address) {... */\n      jump(tag_62)\n        /* \"CYBCC_flattened.sol\":30344:30734  function triggerSwap() external {... */\n    tag_21:\n      callvalue\n      dup1\n      iszero\n      tag_125\n      jumpi\n      revert(0x00, 0x00)\n    tag_125:\n      pop\n      tag_42\n      tag_127\n      jump\t// in\n        /* \"CYBCC_flattened.sol\":7616:7709  function symbol() public view virtual returns (string memory) {... */\n    tag_22:\n      callvalue\n      dup1\n      iszero\n      tag_128\n      jumpi\n      revert(0x00, 0x00)\n    tag_128:\n      pop\n      tag_47\n      tag_130\n      jump\t// in\n        /* \"CYBCC_flattened.sol\":31925:32091  function mint(uint256 amount) public onlyOwner... */\n    tag_23:\n      callvalue\n      dup1\n      iszero\n      tag_132\n      jumpi\n      revert(0x00, 0x00)\n    tag_132:\n      pop\n      tag_42\n      tag_134\n      calldatasize\n      0x04\n      tag_98\n      jump\t// in\n    tag_134:\n      tag_135\n      jump\t// in\n        /* \"CYBCC_flattened.sol\":8950:9128  function transfer(address to, uint256 value) public virtual returns (bool) {... */\n    tag_24:\n      callvalue\n      dup1\n      iszero\n      tag_136\n      jumpi\n      revert(0x00, 0x00)\n    tag_136:\n      pop\n      tag_55\n      tag_138\n      calldatasize\n      0x04\n      tag_57\n      jump\t// in\n    tag_138:\n      tag_139\n      jump\t// in\n        /* \"CYBCC_flattened.sol\":27241:27706  function viewInfo()... */\n    tag_25:\n      callvalue\n      dup1\n      iszero\n      tag_141\n      jumpi\n      revert(0x00, 0x00)\n    tag_141:\n      pop\n        /* \"CYBCC_flattened.sol\":27550:27556  buyFee */\n      sload(0x10)\n        /* \"CYBCC_flattened.sol\":27570:27577  sellFee */\n      sload(0x11)\n        /* \"CYBCC_flattened.sol\":27591:27605  _txAmountLimit */\n      sload(0x14)\n        /* \"CYBCC_flattened.sol\":27619:27637  _walletAmountLimit */\n      sload(0x15)\n        /* \"CYBCC_flattened.sol\":27651:27663  _swapbackMin */\n      sload(0x16)\n        /* \"CYBCC_flattened.sol\":27677:27689  _swapbackMax */\n      sload(0x17)\n        /* \"CYBCC_flattened.sol\":27241:27706  function viewInfo()... */\n      0x40\n      dup1\n      mload\n        /* \"#utility.yul\":4758:4783   */\n      swap7\n      dup8\n      mstore\n        /* \"#utility.yul\":4814:4816   */\n      0x20\n        /* \"#utility.yul\":4799:4817   */\n      dup8\n      add\n        /* \"#utility.yul\":4792:4826   */\n      swap6\n      swap1\n      swap6\n      mstore\n        /* \"#utility.yul\":4842:4860   */\n      swap4\n      dup6\n      add\n        /* \"#utility.yul\":4835:4869   */\n      swap3\n      swap1\n      swap3\n      mstore\n        /* \"#utility.yul\":4900:4902   */\n      0x60\n        /* \"#utility.yul\":4885:4903   */\n      dup5\n      add\n        /* \"#utility.yul\":4878:4912   */\n      mstore\n        /* \"#utility.yul\":4943:4946   */\n      0x80\n        /* \"#utility.yul\":4928:4947   */\n      dup4\n      add\n        /* \"#utility.yul\":4921:4956   */\n      mstore\n        /* \"#utility.yul\":4987:4990   */\n      0xa0\n        /* \"#utility.yul\":4972:4991   */\n      dup3\n      add\n        /* \"#utility.yul\":4965:5000   */\n      mstore\n        /* \"#utility.yul\":4745:4748   */\n      0xc0\n        /* \"#utility.yul\":4730:4749   */\n      add\n        /* \"CYBCC_flattened.sol\":27241:27706  function viewInfo()... */\n      tag_49\n        /* \"#utility.yul\":4471:5006   */\n      jump\n        /* \"CYBCC_flattened.sol\":24311:24905  function setWallets(... */\n    tag_26:\n      callvalue\n      dup1\n      iszero\n      tag_146\n      jumpi\n      revert(0x00, 0x00)\n    tag_146:\n      pop\n      tag_42\n      tag_148\n      calldatasize\n      0x04\n      tag_149\n      jump\t// in\n    tag_148:\n      tag_150\n      jump\t// in\n        /* \"CYBCC_flattened.sol\":21076:21109  uint256 public immutable tokenCap */\n    tag_27:\n      callvalue\n      dup1\n      iszero\n      tag_151\n      jumpi\n      revert(0x00, 0x00)\n    tag_151:\n      pop\n      tag_67\n      immutable(\"0x8247612fc44e04240de1f1e52a24ae05ef9c9a91ceca3a27f3e6510b39beb534\")\n      dup2\n      jump\n        /* \"CYBCC_flattened.sol\":9186:9362  function allowance(address owner, address spender)... */\n    tag_28:\n      callvalue\n      dup1\n      iszero\n      tag_155\n      jumpi\n      revert(0x00, 0x00)\n    tag_155:\n      pop\n      tag_67\n      tag_157\n      calldatasize\n      0x04\n      tag_158\n      jump\t// in\n    tag_157:\n      sub(shl(0xa0, 0x01), 0x01)\n        /* \"CYBCC_flattened.sol\":9328:9346  _allowances[owner] */\n      swap2\n      dup3\n      and\n        /* \"CYBCC_flattened.sol\":9298:9305  uint256 */\n      0x00\n        /* \"CYBCC_flattened.sol\":9328:9346  _allowances[owner] */\n      swap1\n      dup2\n      mstore\n        /* \"CYBCC_flattened.sol\":9328:9339  _allowances */\n      0x01\n        /* \"CYBCC_flattened.sol\":9328:9346  _allowances[owner] */\n      0x20\n      swap1\n      dup2\n      mstore\n      0x40\n      dup1\n      dup4\n      keccak256\n        /* \"CYBCC_flattened.sol\":9328:9355  _allowances[owner][spender] */\n      swap4\n      swap1\n      swap5\n      and\n      dup3\n      mstore\n      swap2\n      swap1\n      swap2\n      mstore\n      keccak256\n      sload\n      swap1\n        /* \"CYBCC_flattened.sol\":9186:9362  function allowance(address owner, address spender)... */\n      jump\n        /* \"CYBCC_flattened.sol\":25150:25408  function setWalletLimit(uint256 newValue) external onlyOwner {... */\n    tag_29:\n      callvalue\n      dup1\n      iszero\n      tag_161\n      jumpi\n      revert(0x00, 0x00)\n    tag_161:\n      pop\n      tag_42\n      tag_163\n      calldatasize\n      0x04\n      tag_98\n      jump\t// in\n    tag_163:\n      tag_164\n      jump\t// in\n        /* \"CYBCC_flattened.sol\":18880:19095  function transferOwnership(address newOwner) public virtual onlyOwner {... */\n    tag_30:\n      callvalue\n      dup1\n      iszero\n      tag_165\n      jumpi\n      revert(0x00, 0x00)\n    tag_165:\n      pop\n      tag_42\n      tag_167\n      calldatasize\n      0x04\n      tag_114\n      jump\t// in\n    tag_167:\n      tag_168\n      jump\t// in\n        /* \"CYBCC_flattened.sol\":23935:24299  function open() external onlyOwner {... */\n    tag_31:\n      callvalue\n      dup1\n      iszero\n      tag_169\n      jumpi\n      revert(0x00, 0x00)\n    tag_169:\n      pop\n      tag_42\n      tag_171\n      jump\t// in\n        /* \"CYBCC_flattened.sol\":25414:25715  function setSwapback(... */\n    tag_45:\n        /* \"CYBCC_flattened.sol\":17868:17881  _checkOwner() */\n      tag_173\n        /* \"CYBCC_flattened.sol\":17868:17879  _checkOwner */\n      tag_174\n        /* \"CYBCC_flattened.sol\":17868:17881  _checkOwner() */\n      jump\t// in\n    tag_173:\n        /* \"CYBCC_flattened.sol\":25583:25588  10000 */\n      0x2710\n        /* \"CYBCC_flattened.sol\":25563:25579  taxSwapThreshold */\n      dup3\n        /* \"CYBCC_flattened.sol\":25548:25560  _totalSupply */\n      sload(0x1b)\n        /* \"CYBCC_flattened.sol\":25548:25579  _totalSupply * taxSwapThreshold */\n      tag_176\n      swap2\n      swap1\n      tag_177\n      jump\t// in\n    tag_176:\n        /* \"CYBCC_flattened.sol\":25547:25588  (_totalSupply * taxSwapThreshold) / 10000 */\n      tag_178\n      swap2\n      swap1\n      tag_179\n      jump\t// in\n    tag_178:\n        /* \"CYBCC_flattened.sol\":25532:25544  _swapbackMin */\n      0x16\n        /* \"CYBCC_flattened.sol\":25532:25588  _swapbackMin = (_totalSupply * taxSwapThreshold) / 10000 */\n      sstore\n        /* \"CYBCC_flattened.sol\":25614:25626  _totalSupply */\n      sload(0x1b)\n        /* \"CYBCC_flattened.sol\":25643:25648  10000 */\n      0x2710\n      swap1\n        /* \"CYBCC_flattened.sol\":25614:25639  _totalSupply * maxTaxSwap */\n      tag_180\n      swap1\n        /* \"CYBCC_flattened.sol\":25629:25639  maxTaxSwap */\n      dup4\n      swap1\n        /* \"CYBCC_flattened.sol\":25614:25639  _totalSupply * maxTaxSwap */\n      tag_177\n      jump\t// in\n    tag_180:\n        /* \"CYBCC_flattened.sol\":25613:25648  (_totalSupply * maxTaxSwap) / 10000 */\n      tag_181\n      swap2\n      swap1\n      tag_179\n      jump\t// in\n    tag_181:\n        /* \"CYBCC_flattened.sol\":25598:25610  _swapbackMax */\n      0x17\n        /* \"CYBCC_flattened.sol\":25598:25648  _swapbackMax = (_totalSupply * maxTaxSwap) / 10000 */\n      sstore\n        /* \"CYBCC_flattened.sol\":25663:25708  SwapbackUpdated(taxSwapThreshold, maxTaxSwap) */\n      0x40\n      dup1\n      mload\n        /* \"#utility.yul\":7113:7138   */\n      dup4\n      dup2\n      mstore\n        /* \"#utility.yul\":7169:7171   */\n      0x20\n        /* \"#utility.yul\":7154:7172   */\n      dup2\n      add\n        /* \"#utility.yul\":7147:7181   */\n      dup4\n      swap1\n      mstore\n        /* \"CYBCC_flattened.sol\":25663:25708  SwapbackUpdated(taxSwapThreshold, maxTaxSwap) */\n      0x2b3f4c022d9943b151090e389857495bb9d8493714259cc19a540f5a11475fb1\n      swap2\n        /* \"#utility.yul\":7086:7104   */\n      add\n        /* \"CYBCC_flattened.sol\":25663:25708  SwapbackUpdated(taxSwapThreshold, maxTaxSwap) */\n    tag_182:\n      mload(0x40)\n      dup1\n      swap2\n      sub\n      swap1\n      log1\n        /* \"CYBCC_flattened.sol\":25414:25715  function setSwapback(... */\n      pop\n      pop\n      jump\t// out\n        /* \"CYBCC_flattened.sol\":7414:7503  function name() public view virtual returns (string memory) {... */\n    tag_48:\n        /* \"CYBCC_flattened.sol\":7459:7472  string memory */\n      0x60\n        /* \"CYBCC_flattened.sol\":7491:7496  _name */\n      0x03\n        /* \"CYBCC_flattened.sol\":7484:7496  return _name */\n      dup1\n      sload\n      tag_185\n      swap1\n      tag_186\n      jump\t// in\n    tag_185:\n      dup1\n      0x1f\n      add\n      0x20\n      dup1\n      swap2\n      div\n      mul\n      0x20\n      add\n      mload(0x40)\n      swap1\n      dup2\n      add\n      0x40\n      mstore\n      dup1\n      swap3\n      swap2\n      swap1\n      dup2\n      dup2\n      mstore\n      0x20\n      add\n      dup3\n      dup1\n      sload\n      tag_187\n      swap1\n      tag_186\n      jump\t// in\n    tag_187:\n      dup1\n      iszero\n      tag_188\n      jumpi\n      dup1\n      0x1f\n      lt\n      tag_189\n      jumpi\n      0x0100\n      dup1\n      dup4\n      sload\n      div\n      mul\n      dup4\n      mstore\n      swap2\n      0x20\n      add\n      swap2\n      jump(tag_188)\n    tag_189:\n      dup3\n      add\n      swap2\n      swap1\n      0x00\n      mstore\n      keccak256(0x00, 0x20)\n      swap1\n    tag_190:\n      dup2\n      sload\n      dup2\n      mstore\n      swap1\n      0x01\n      add\n      swap1\n      0x20\n      add\n      dup1\n      dup4\n      gt\n      tag_190\n      jumpi\n      dup3\n      swap1\n      sub\n      0x1f\n      and\n      dup3\n      add\n      swap2\n    tag_188:\n      pop\n      pop\n      pop\n      pop\n      pop\n      swap1\n      pop\n        /* \"CYBCC_flattened.sol\":7414:7503  function name() public view virtual returns (string memory) {... */\n      swap1\n      jump\t// out\n        /* \"CYBCC_flattened.sol\":25721:25858  function setMode() external onlyOwner {... */\n    tag_53:\n        /* \"CYBCC_flattened.sol\":17868:17881  _checkOwner() */\n      tag_192\n        /* \"CYBCC_flattened.sol\":17868:17879  _checkOwner */\n      tag_174\n        /* \"CYBCC_flattened.sol\":17868:17881  _checkOwner() */\n      jump\t// in\n    tag_192:\n        /* \"CYBCC_flattened.sol\":25777:25787  launchmode */\n      sload(0x19)\n      shl(0xb8, 0x01)\n      swap1\n      div\n      0xff\n      and\n        /* \"CYBCC_flattened.sol\":25769:25823  require(launchmode, \"Launch mode is already disabled\") */\n      tag_194\n      jumpi\n      mload(0x40)\n      shl(0xe5, 0x461bcd)\n      dup2\n      mstore\n        /* \"#utility.yul\":7779:7781   */\n      0x20\n        /* \"CYBCC_flattened.sol\":25769:25823  require(launchmode, \"Launch mode is already disabled\") */\n      0x04\n      dup3\n      add\n        /* \"#utility.yul\":7761:7782   */\n      mstore\n        /* \"#utility.yul\":7818:7820   */\n      0x1f\n        /* \"#utility.yul\":7798:7816   */\n      0x24\n      dup3\n      add\n        /* \"#utility.yul\":7791:7821   */\n      mstore\n        /* \"#utility.yul\":7857:7890   */\n      0x4c61756e6368206d6f646520697320616c72656164792064697361626c656400\n        /* \"#utility.yul\":7837:7855   */\n      0x44\n      dup3\n      add\n        /* \"#utility.yul\":7830:7891   */\n      mstore\n        /* \"#utility.yul\":7908:7926   */\n      0x64\n      add\n        /* \"CYBCC_flattened.sol\":25769:25823  require(launchmode, \"Launch mode is already disabled\") */\n    tag_195:\n      mload(0x40)\n      dup1\n      swap2\n      sub\n      swap1\n      revert\n    tag_194:\n        /* \"CYBCC_flattened.sol\":25833:25843  launchmode */\n      0x19\n        /* \"CYBCC_flattened.sol\":25833:25851  launchmode = false */\n      dup1\n      sload\n      not(shl(0xb8, 0xff))\n      and\n      swap1\n      sstore\n        /* \"CYBCC_flattened.sol\":25721:25858  function setMode() external onlyOwner {... */\n      jump\t// out\n        /* \"CYBCC_flattened.sol\":9669:9883  function approve(address spender, uint256 value)... */\n    tag_58:\n        /* \"CYBCC_flattened.sol\":9766:9770  bool */\n      0x00\n        /* \"CYBCC_flattened.sol\":4365:4375  msg.sender */\n      caller\n        /* \"CYBCC_flattened.sol\":9824:9855  _approve(owner, spender, value) */\n      tag_200\n        /* \"CYBCC_flattened.sol\":4365:4375  msg.sender */\n      dup2\n        /* \"CYBCC_flattened.sol\":9840:9847  spender */\n      dup6\n        /* \"CYBCC_flattened.sol\":9849:9854  value */\n      dup6\n        /* \"CYBCC_flattened.sol\":9824:9832  _approve */\n      tag_201\n        /* \"CYBCC_flattened.sol\":9824:9855  _approve(owner, spender, value) */\n      jump\t// in\n    tag_200:\n        /* \"CYBCC_flattened.sol\":9872:9876  true */\n      0x01\n        /* \"CYBCC_flattened.sol\":9865:9876  return true */\n      swap2\n      pop\n      pop\n        /* \"CYBCC_flattened.sol\":9669:9883  function approve(address spender, uint256 value)... */\n    tag_197:\n      swap3\n      swap2\n      pop\n      pop\n      jump\t// out\n        /* \"CYBCC_flattened.sol\":26851:27061  function addAddress(address[] calldata amount, bool status)... */\n    tag_75:\n        /* \"CYBCC_flattened.sol\":17868:17881  _checkOwner() */\n      tag_204\n        /* \"CYBCC_flattened.sol\":17868:17879  _checkOwner */\n      tag_174\n        /* \"CYBCC_flattened.sol\":17868:17881  _checkOwner() */\n      jump\t// in\n    tag_204:\n        /* \"CYBCC_flattened.sol\":26965:26974  uint256 i */\n      0x00\n        /* \"CYBCC_flattened.sol\":26960:27055  for (uint256 i = 0; i < amount.length; i++) {... */\n    tag_206:\n        /* \"CYBCC_flattened.sol\":26980:26997  i < amount.length */\n      dup3\n      dup2\n      lt\n        /* \"CYBCC_flattened.sol\":26960:27055  for (uint256 i = 0; i < amount.length; i++) {... */\n      iszero\n      tag_207\n      jumpi\n        /* \"CYBCC_flattened.sol\":27038:27044  status */\n      dup2\n        /* \"CYBCC_flattened.sol\":27018:27024  _canTx */\n      0x1a\n        /* \"CYBCC_flattened.sol\":27018:27035  _canTx[amount[i]] */\n      0x00\n        /* \"CYBCC_flattened.sol\":27025:27031  amount */\n      dup7\n      dup7\n        /* \"CYBCC_flattened.sol\":27032:27033  i */\n      dup6\n        /* \"CYBCC_flattened.sol\":27025:27034  amount[i] */\n      dup2\n      dup2\n      lt\n      tag_210\n      jumpi\n      tag_210\n      tag_211\n      jump\t// in\n    tag_210:\n      swap1\n      pop\n      0x20\n      mul\n      add\n      0x20\n      dup2\n      add\n      swap1\n      tag_212\n      swap2\n      swap1\n      tag_114\n      jump\t// in\n    tag_212:\n      sub(shl(0xa0, 0x01), 0x01)\n        /* \"CYBCC_flattened.sol\":27018:27035  _canTx[amount[i]] */\n      and\n      dup2\n      mstore\n      0x20\n      dup2\n      add\n      swap2\n      swap1\n      swap2\n      mstore\n      0x40\n      add\n      0x00\n      keccak256\n        /* \"CYBCC_flattened.sol\":27018:27044  _canTx[amount[i]] = status */\n      dup1\n      sload\n      not(0xff)\n      and\n      swap2\n      iszero\n      iszero\n      swap2\n      swap1\n      swap2\n      or\n      swap1\n      sstore\n      0x01\n        /* \"CYBCC_flattened.sol\":26999:27002  i++ */\n      add\n        /* \"CYBCC_flattened.sol\":26960:27055  for (uint256 i = 0; i < amount.length; i++) {... */\n      jump(tag_206)\n    tag_207:\n      pop\n        /* \"CYBCC_flattened.sol\":26851:27061  function addAddress(address[] calldata amount, bool status)... */\n      pop\n      pop\n      pop\n      jump\t// out\n        /* \"CYBCC_flattened.sol\":26387:26845  function removeETH() external {... */\n    tag_78:\n        /* \"CYBCC_flattened.sol\":18047:18053  _owner */\n      and(sub(shl(0xa0, 0x01), 0x01), sload(0x06))\n        /* \"CYBCC_flattened.sol\":26435:26445  msg.sender */\n      caller\n        /* \"CYBCC_flattened.sol\":26435:26456  msg.sender == owner() */\n      eq\n        /* \"CYBCC_flattened.sol\":26427:26490  require(msg.sender == owner(), \"Only fee receiver can trigger\") */\n      tag_215\n      jumpi\n      mload(0x40)\n      shl(0xe5, 0x461bcd)\n      dup2\n      mstore\n        /* \"#utility.yul\":8271:8273   */\n      0x20\n        /* \"CYBCC_flattened.sol\":26427:26490  require(msg.sender == owner(), \"Only fee receiver can trigger\") */\n      0x04\n      dup3\n      add\n        /* \"#utility.yul\":8253:8274   */\n      mstore\n        /* \"#utility.yul\":8310:8312   */\n      0x1d\n        /* \"#utility.yul\":8290:8308   */\n      0x24\n      dup3\n      add\n        /* \"#utility.yul\":8283:8313   */\n      mstore\n        /* \"#utility.yul\":8349:8380   */\n      0x4f6e6c79206665652072656365697665722063616e2074726967676572000000\n        /* \"#utility.yul\":8329:8347   */\n      0x44\n      dup3\n      add\n        /* \"#utility.yul\":8322:8381   */\n      mstore\n        /* \"#utility.yul\":8398:8416   */\n      0x64\n      add\n        /* \"CYBCC_flattened.sol\":26427:26490  require(msg.sender == owner(), \"Only fee receiver can trigger\") */\n      tag_195\n        /* \"#utility.yul\":8069:8422   */\n      jump\n        /* \"CYBCC_flattened.sol\":26427:26490  require(msg.sender == owner(), \"Only fee receiver can trigger\") */\n    tag_215:\n        /* \"CYBCC_flattened.sol\":26500:26511  uint share1 */\n      0x00\n        /* \"CYBCC_flattened.sol\":26514:26541  (address(this).balance) / 2 */\n      tag_218\n        /* \"CYBCC_flattened.sol\":26540:26541  2 */\n      0x02\n        /* \"CYBCC_flattened.sol\":26515:26536  address(this).balance */\n      selfbalance\n        /* \"CYBCC_flattened.sol\":26514:26541  (address(this).balance) / 2 */\n      tag_179\n      jump\t// in\n    tag_218:\n        /* \"CYBCC_flattened.sol\":26500:26541  uint share1 = (address(this).balance) / 2 */\n      swap1\n      pop\n        /* \"CYBCC_flattened.sol\":26551:26562  uint share2 */\n      0x00\n        /* \"CYBCC_flattened.sol\":26565:26575  share1 / 5 */\n      tag_219\n        /* \"CYBCC_flattened.sol\":26574:26575  5 */\n      0x05\n        /* \"CYBCC_flattened.sol\":26500:26541  uint share1 = (address(this).balance) / 2 */\n      dup4\n        /* \"CYBCC_flattened.sol\":26565:26575  share1 / 5 */\n      tag_179\n      jump\t// in\n    tag_219:\n        /* \"CYBCC_flattened.sol\":26588:26599  _taxWallet1 */\n      sload(0x08)\n        /* \"CYBCC_flattened.sol\":26588:26616  _taxWallet1.transfer(share1) */\n      mload(0x40)\n        /* \"CYBCC_flattened.sol\":26551:26575  uint share2 = share1 / 5 */\n      swap2\n      swap3\n      pop\n      sub(shl(0xa0, 0x01), 0x01)\n        /* \"CYBCC_flattened.sol\":26588:26599  _taxWallet1 */\n      and\n      swap1\n        /* \"CYBCC_flattened.sol\":26588:26616  _taxWallet1.transfer(share1) */\n      dup4\n      iszero\n      0x08fc\n      mul\n      swap1\n        /* \"CYBCC_flattened.sol\":26609:26615  share1 */\n      dup5\n      swap1\n        /* \"CYBCC_flattened.sol\":26588:26599  _taxWallet1 */\n      0x00\n        /* \"CYBCC_flattened.sol\":26588:26616  _taxWallet1.transfer(share1) */\n      dup2\n        /* \"CYBCC_flattened.sol\":26588:26599  _taxWallet1 */\n      dup2\n        /* \"CYBCC_flattened.sol\":26588:26616  _taxWallet1.transfer(share1) */\n      dup2\n        /* \"CYBCC_flattened.sol\":26609:26615  share1 */\n      dup6\n        /* \"CYBCC_flattened.sol\":26588:26599  _taxWallet1 */\n      dup9\n        /* \"CYBCC_flattened.sol\":26588:26616  _taxWallet1.transfer(share1) */\n      dup9\n      call\n      swap4\n      pop\n      pop\n      pop\n      pop\n      iszero\n      dup1\n      iszero\n      tag_221\n      jumpi\n      returndatacopy(0x00, 0x00, returndatasize)\n      revert(0x00, returndatasize)\n    tag_221:\n      pop\n        /* \"CYBCC_flattened.sol\":26626:26637  _taxWallet2 */\n      sload(0x09)\n        /* \"CYBCC_flattened.sol\":26626:26654  _taxWallet2.transfer(share2) */\n      mload(0x40)\n      sub(shl(0xa0, 0x01), 0x01)\n        /* \"CYBCC_flattened.sol\":26626:26637  _taxWallet2 */\n      swap1\n      swap2\n      and\n      swap1\n        /* \"CYBCC_flattened.sol\":26626:26654  _taxWallet2.transfer(share2) */\n      dup3\n      iszero\n      0x08fc\n      mul\n      swap1\n        /* \"CYBCC_flattened.sol\":26647:26653  share2 */\n      dup4\n      swap1\n        /* \"CYBCC_flattened.sol\":26626:26637  _taxWallet2 */\n      0x00\n        /* \"CYBCC_flattened.sol\":26626:26654  _taxWallet2.transfer(share2) */\n      dup2\n        /* \"CYBCC_flattened.sol\":26626:26637  _taxWallet2 */\n      dup2\n        /* \"CYBCC_flattened.sol\":26626:26654  _taxWallet2.transfer(share2) */\n      dup2\n        /* \"CYBCC_flattened.sol\":26647:26653  share2 */\n      dup6\n        /* \"CYBCC_flattened.sol\":26626:26637  _taxWallet2 */\n      dup9\n        /* \"CYBCC_flattened.sol\":26626:26654  _taxWallet2.transfer(share2) */\n      dup9\n      call\n      swap4\n      pop\n      pop\n      pop\n      pop\n      iszero\n      dup1\n      iszero\n      tag_223\n      jumpi\n      returndatacopy(0x00, 0x00, returndatasize)\n      revert(0x00, returndatasize)\n    tag_223:\n      pop\n        /* \"CYBCC_flattened.sol\":26664:26675  _taxWallet3 */\n      sload(0x0a)\n        /* \"CYBCC_flattened.sol\":26664:26692  _taxWallet3.transfer(share2) */\n      mload(0x40)\n      sub(shl(0xa0, 0x01), 0x01)\n        /* \"CYBCC_flattened.sol\":26664:26675  _taxWallet3 */\n      swap1\n      swap2\n      and\n      swap1\n        /* \"CYBCC_flattened.sol\":26664:26692  _taxWallet3.transfer(share2) */\n      dup3\n      iszero\n      0x08fc\n      mul\n      swap1\n        /* \"CYBCC_flattened.sol\":26685:26691  share2 */\n      dup4\n      swap1\n        /* \"CYBCC_flattened.sol\":26664:26675  _taxWallet3 */\n      0x00\n        /* \"CYBCC_flattened.sol\":26664:26692  _taxWallet3.transfer(share2) */\n      dup2\n        /* \"CYBCC_flattened.sol\":26664:26675  _taxWallet3 */\n      dup2\n        /* \"CYBCC_flattened.sol\":26664:26692  _taxWallet3.transfer(share2) */\n      dup2\n        /* \"CYBCC_flattened.sol\":26685:26691  share2 */\n      dup6\n        /* \"CYBCC_flattened.sol\":26664:26675  _taxWallet3 */\n      dup9\n        /* \"CYBCC_flattened.sol\":26664:26692  _taxWallet3.transfer(share2) */\n      dup9\n      call\n      swap4\n      pop\n      pop\n      pop\n      pop\n      iszero\n      dup1\n      iszero\n      tag_225\n      jumpi\n      returndatacopy(0x00, 0x00, returndatasize)\n      revert(0x00, returndatasize)\n    tag_225:\n      pop\n        /* \"CYBCC_flattened.sol\":26702:26713  _taxWallet4 */\n      sload(0x0b)\n        /* \"CYBCC_flattened.sol\":26702:26730  _taxWallet4.transfer(share2) */\n      mload(0x40)\n      sub(shl(0xa0, 0x01), 0x01)\n        /* \"CYBCC_flattened.sol\":26702:26713  _taxWallet4 */\n      swap1\n      swap2\n      and\n      swap1\n        /* \"CYBCC_flattened.sol\":26702:26730  _taxWallet4.transfer(share2) */\n      dup3\n      iszero\n      0x08fc\n      mul\n      swap1\n        /* \"CYBCC_flattened.sol\":26723:26729  share2 */\n      dup4\n      swap1\n        /* \"CYBCC_flattened.sol\":26702:26713  _taxWallet4 */\n      0x00\n        /* \"CYBCC_flattened.sol\":26702:26730  _taxWallet4.transfer(share2) */\n      dup2\n        /* \"CYBCC_flattened.sol\":26702:26713  _taxWallet4 */\n      dup2\n        /* \"CYBCC_flattened.sol\":26702:26730  _taxWallet4.transfer(share2) */\n      dup2\n        /* \"CYBCC_flattened.sol\":26723:26729  share2 */\n      dup6\n        /* \"CYBCC_flattened.sol\":26702:26713  _taxWallet4 */\n      dup9\n        /* \"CYBCC_flattened.sol\":26702:26730  _taxWallet4.transfer(share2) */\n      dup9\n      call\n      swap4\n      pop\n      pop\n      pop\n      pop\n      iszero\n      dup1\n      iszero\n      tag_227\n      jumpi\n      returndatacopy(0x00, 0x00, returndatasize)\n      revert(0x00, returndatasize)\n    tag_227:\n      pop\n        /* \"CYBCC_flattened.sol\":26740:26751  _taxWallet5 */\n      sload(0x0c)\n        /* \"CYBCC_flattened.sol\":26740:26768  _taxWallet5.transfer(share2) */\n      mload(0x40)\n      sub(shl(0xa0, 0x01), 0x01)\n        /* \"CYBCC_flattened.sol\":26740:26751  _taxWallet5 */\n      swap1\n      swap2\n      and\n      swap1\n        /* \"CYBCC_flattened.sol\":26740:26768  _taxWallet5.transfer(share2) */\n      dup3\n      iszero\n      0x08fc\n      mul\n      swap1\n        /* \"CYBCC_flattened.sol\":26761:26767  share2 */\n      dup4\n      swap1\n        /* \"CYBCC_flattened.sol\":26740:26751  _taxWallet5 */\n      0x00\n        /* \"CYBCC_flattened.sol\":26740:26768  _taxWallet5.transfer(share2) */\n      dup2\n        /* \"CYBCC_flattened.sol\":26740:26751  _taxWallet5 */\n      dup2\n        /* \"CYBCC_flattened.sol\":26740:26768  _taxWallet5.transfer(share2) */\n      dup2\n        /* \"CYBCC_flattened.sol\":26761:26767  share2 */\n      dup6\n        /* \"CYBCC_flattened.sol\":26740:26751  _taxWallet5 */\n      dup9\n        /* \"CYBCC_flattened.sol\":26740:26768  _taxWallet5.transfer(share2) */\n      dup9\n      call\n      swap4\n      pop\n      pop\n      pop\n      pop\n      iszero\n      dup1\n      iszero\n      tag_229\n      jumpi\n      returndatacopy(0x00, 0x00, returndatasize)\n      revert(0x00, returndatasize)\n    tag_229:\n      pop\n        /* \"CYBCC_flattened.sol\":26778:26789  _taxWallet6 */\n      sload(0x0d)\n        /* \"CYBCC_flattened.sol\":26778:26806  _taxWallet6.transfer(share2) */\n      mload(0x40)\n      sub(shl(0xa0, 0x01), 0x01)\n        /* \"CYBCC_flattened.sol\":26778:26789  _taxWallet6 */\n      swap1\n      swap2\n      and\n      swap1\n        /* \"CYBCC_flattened.sol\":26778:26806  _taxWallet6.transfer(share2) */\n      dup3\n      iszero\n      0x08fc\n      mul\n      swap1\n        /* \"CYBCC_flattened.sol\":26799:26805  share2 */\n      dup4\n      swap1\n        /* \"CYBCC_flattened.sol\":26778:26789  _taxWallet6 */\n      0x00\n        /* \"CYBCC_flattened.sol\":26778:26806  _taxWallet6.transfer(share2) */\n      dup2\n        /* \"CYBCC_flattened.sol\":26778:26789  _taxWallet6 */\n      dup2\n        /* \"CYBCC_flattened.sol\":26778:26806  _taxWallet6.transfer(share2) */\n      dup2\n        /* \"CYBCC_flattened.sol\":26799:26805  share2 */\n      dup6\n        /* \"CYBCC_flattened.sol\":26778:26789  _taxWallet6 */\n      dup9\n        /* \"CYBCC_flattened.sol\":26778:26806  _taxWallet6.transfer(share2) */\n      dup9\n      call\n      swap4\n      pop\n      pop\n      pop\n      pop\n      iszero\n      dup1\n      iszero\n      tag_231\n      jumpi\n      returndatacopy(0x00, 0x00, returndatasize)\n      revert(0x00, returndatasize)\n    tag_231:\n      pop\n        /* \"CYBCC_flattened.sol\":26417:26845  {... */\n      pop\n      pop\n        /* \"CYBCC_flattened.sol\":26387:26845  function removeETH() external {... */\n      jump\t// out\n        /* \"CYBCC_flattened.sol\":10443:10717  function transferFrom(... */\n    tag_83:\n        /* \"CYBCC_flattened.sol\":10560:10564  bool */\n      0x00\n        /* \"CYBCC_flattened.sol\":4365:4375  msg.sender */\n      caller\n        /* \"CYBCC_flattened.sol\":10616:10653  _spendAllowance(from, spender, value) */\n      tag_234\n        /* \"CYBCC_flattened.sol\":10632:10636  from */\n      dup6\n        /* \"CYBCC_flattened.sol\":4365:4375  msg.sender */\n      dup3\n        /* \"CYBCC_flattened.sol\":10647:10652  value */\n      dup6\n        /* \"CYBCC_flattened.sol\":10616:10631  _spendAllowance */\n      tag_235\n        /* \"CYBCC_flattened.sol\":10616:10653  _spendAllowance(from, spender, value) */\n      jump\t// in\n    tag_234:\n        /* \"CYBCC_flattened.sol\":10663:10689  _transfer(from, to, value) */\n      tag_236\n        /* \"CYBCC_flattened.sol\":10673:10677  from */\n      dup6\n        /* \"CYBCC_flattened.sol\":10679:10681  to */\n      dup6\n        /* \"CYBCC_flattened.sol\":10683:10688  value */\n      dup6\n        /* \"CYBCC_flattened.sol\":10663:10672  _transfer */\n      tag_237\n        /* \"CYBCC_flattened.sol\":10663:10689  _transfer(from, to, value) */\n      jump\t// in\n    tag_236:\n      pop\n        /* \"CYBCC_flattened.sol\":10706:10710  true */\n      0x01\n      swap5\n        /* \"CYBCC_flattened.sol\":10443:10717  function transferFrom(... */\n      swap4\n      pop\n      pop\n      pop\n      pop\n      jump\t// out\n        /* \"CYBCC_flattened.sol\":27067:27235  function exemptFee(address account, bool status) external onlyOwner {... */\n    tag_89:\n        /* \"CYBCC_flattened.sol\":17868:17881  _checkOwner() */\n      tag_239\n        /* \"CYBCC_flattened.sol\":17868:17879  _checkOwner */\n      tag_174\n        /* \"CYBCC_flattened.sol\":17868:17881  _checkOwner() */\n      jump\t// in\n    tag_239:\n      sub(shl(0xa0, 0x01), 0x01)\n        /* \"CYBCC_flattened.sol\":27145:27172  _isExcludedFromFee[account] */\n      dup3\n      and\n      0x00\n      dup2\n      dup2\n      mstore\n        /* \"CYBCC_flattened.sol\":27145:27163  _isExcludedFromFee */\n      0x07\n        /* \"CYBCC_flattened.sol\":27145:27172  _isExcludedFromFee[account] */\n      0x20\n      swap1\n      dup2\n      mstore\n      0x40\n      swap2\n      dup3\n      swap1\n      keccak256\n        /* \"CYBCC_flattened.sol\":27145:27181  _isExcludedFromFee[account] = status */\n      dup1\n      sload\n      not(0xff)\n      and\n      dup6\n      iszero\n      iszero\n      swap1\n      dup2\n      or\n      swap1\n      swap2\n      sstore\n        /* \"CYBCC_flattened.sol\":27196:27228  ExcludedFromFee(account, status) */\n      dup3\n      mload\n        /* \"#utility.yul\":8595:8646   */\n      swap4\n      dup5\n      mstore\n        /* \"#utility.yul\":8662:8680   */\n      swap1\n      dup4\n      add\n        /* \"#utility.yul\":8655:8705   */\n      mstore\n        /* \"CYBCC_flattened.sol\":27196:27228  ExcludedFromFee(account, status) */\n      0x2d43abd87b27cee7b0aa8c6f7e0b4a3247b683262a83cbc2318b0df398a49aa9\n      swap2\n        /* \"#utility.yul\":8568:8586   */\n      add\n        /* \"CYBCC_flattened.sol\":27196:27228  ExcludedFromFee(account, status) */\n      tag_182\n        /* \"#utility.yul\":8427:8711   */\n      jump\n        /* \"CYBCC_flattened.sol\":32096:32186  function burn(uint256 amount) public onlyOwner... */\n    tag_99:\n        /* \"CYBCC_flattened.sol\":17868:17881  _checkOwner() */\n      tag_245\n        /* \"CYBCC_flattened.sol\":17868:17879  _checkOwner */\n      tag_174\n        /* \"CYBCC_flattened.sol\":17868:17881  _checkOwner() */\n      jump\t// in\n    tag_245:\n        /* \"CYBCC_flattened.sol\":32157:32179  _burn(owner(), amount) */\n      tag_247\n        /* \"CYBCC_flattened.sol\":32163:32170  owner() */\n      tag_248\n        /* \"CYBCC_flattened.sol\":18047:18053  _owner */\n      and(sub(shl(0xa0, 0x01), 0x01), sload(0x06))\n      swap1\n        /* \"CYBCC_flattened.sol\":17975:18060  function owner() public view virtual returns (address) {... */\n      jump\n        /* \"CYBCC_flattened.sol\":32163:32170  owner() */\n    tag_248:\n        /* \"CYBCC_flattened.sol\":32172:32178  amount */\n      dup3\n        /* \"CYBCC_flattened.sol\":32157:32162  _burn */\n      tag_249\n        /* \"CYBCC_flattened.sol\":32157:32179  _burn(owner(), amount) */\n      jump\t// in\n    tag_247:\n        /* \"CYBCC_flattened.sol\":32096:32186  function burn(uint256 amount) public onlyOwner... */\n      pop\n      jump\t// out\n        /* \"CYBCC_flattened.sol\":24911:25144  function setTx(uint256 newValue) external onlyOwner {... */\n    tag_103:\n        /* \"CYBCC_flattened.sol\":17868:17881  _checkOwner() */\n      tag_251\n        /* \"CYBCC_flattened.sol\":17868:17879  _checkOwner */\n      tag_174\n        /* \"CYBCC_flattened.sol\":17868:17881  _checkOwner() */\n      jump\t// in\n    tag_251:\n        /* \"CYBCC_flattened.sol\":24993:24994  1 */\n      0x01\n        /* \"CYBCC_flattened.sol\":24981:24989  newValue */\n      dup2\n        /* \"CYBCC_flattened.sol\":24981:24994  newValue >= 1 */\n      lt\n      iszero\n        /* \"CYBCC_flattened.sol\":24973:25029  require(newValue >= 1, \"Max tx cant be lower than 0.1%\") */\n      tag_253\n      jumpi\n      mload(0x40)\n      shl(0xe5, 0x461bcd)\n      dup2\n      mstore\n        /* \"#utility.yul\":8918:8920   */\n      0x20\n        /* \"CYBCC_flattened.sol\":24973:25029  require(newValue >= 1, \"Max tx cant be lower than 0.1%\") */\n      0x04\n      dup3\n      add\n        /* \"#utility.yul\":8900:8921   */\n      mstore\n        /* \"#utility.yul\":8957:8959   */\n      0x1e\n        /* \"#utility.yul\":8937:8955   */\n      0x24\n      dup3\n      add\n        /* \"#utility.yul\":8930:8960   */\n      mstore\n        /* \"#utility.yul\":8996:9028   */\n      0x4d61782074782063616e74206265206c6f776572207468616e20302e31250000\n        /* \"#utility.yul\":8976:8994   */\n      0x44\n      dup3\n      add\n        /* \"#utility.yul\":8969:9029   */\n      mstore\n        /* \"#utility.yul\":9046:9064   */\n      0x64\n      add\n        /* \"CYBCC_flattened.sol\":24973:25029  require(newValue >= 1, \"Max tx cant be lower than 0.1%\") */\n      tag_195\n        /* \"#utility.yul\":8716:9070   */\n      jump\n        /* \"CYBCC_flattened.sol\":24973:25029  require(newValue >= 1, \"Max tx cant be lower than 0.1%\") */\n    tag_253:\n        /* \"CYBCC_flattened.sol\":25084:25088  1000 */\n      0x03e8\n        /* \"CYBCC_flattened.sol\":25072:25080  newValue */\n      dup2\n        /* \"CYBCC_flattened.sol\":25057:25069  _totalSupply */\n      sload(0x1b)\n        /* \"CYBCC_flattened.sol\":25057:25080  _totalSupply * newValue */\n      tag_256\n      swap2\n      swap1\n      tag_177\n      jump\t// in\n    tag_256:\n        /* \"CYBCC_flattened.sol\":25056:25088  (_totalSupply * newValue) / 1000 */\n      tag_257\n      swap2\n      swap1\n      tag_179\n      jump\t// in\n    tag_257:\n        /* \"CYBCC_flattened.sol\":25039:25053  _txAmountLimit */\n      0x14\n        /* \"CYBCC_flattened.sol\":25039:25088  _txAmountLimit = (_totalSupply * newValue) / 1000 */\n      dup2\n      swap1\n      sstore\n        /* \"CYBCC_flattened.sol\":25103:25137  MaxTxAmountUpdated(_txAmountLimit) */\n      mload(0x40)\n        /* \"#utility.yul\":1868:1893   */\n      swap1\n      dup2\n      mstore\n        /* \"CYBCC_flattened.sol\":25103:25137  MaxTxAmountUpdated(_txAmountLimit) */\n      0x947f344d56e1e8c70dc492fb94c4ddddd490c016aab685f5e7e47b2e85cb44cf\n      swap1\n        /* \"#utility.yul\":1856:1858   */\n      0x20\n        /* \"#utility.yul\":1841:1859   */\n      add\n        /* \"CYBCC_flattened.sol\":25103:25137  MaxTxAmountUpdated(_txAmountLimit) */\n    tag_258:\n      mload(0x40)\n      dup1\n      swap2\n      sub\n      swap1\n      log1\n        /* \"CYBCC_flattened.sol\":24911:25144  function setTx(uint256 newValue) external onlyOwner {... */\n      pop\n      jump\t// out\n        /* \"CYBCC_flattened.sol\":26097:26381  function setTax(uint256 buyTax, uint256 sellTax) external onlyOwner {... */\n    tag_107:\n        /* \"CYBCC_flattened.sol\":17868:17881  _checkOwner() */\n      tag_260\n        /* \"CYBCC_flattened.sol\":17868:17879  _checkOwner */\n      tag_174\n        /* \"CYBCC_flattened.sol\":17868:17881  _checkOwner() */\n      jump\t// in\n    tag_260:\n        /* \"CYBCC_flattened.sol\":26193:26195  99 */\n      0x63\n        /* \"CYBCC_flattened.sol\":26183:26189  buyTax */\n      dup3\n        /* \"CYBCC_flattened.sol\":26183:26195  buyTax <= 99 */\n      gt\n      iszero\n        /* \"CYBCC_flattened.sol\":26175:26221  require(buyTax <= 99, \"Invalid buy tax value\") */\n      tag_262\n      jumpi\n      mload(0x40)\n      shl(0xe5, 0x461bcd)\n      dup2\n      mstore\n        /* \"#utility.yul\":9277:9279   */\n      0x20\n        /* \"CYBCC_flattened.sol\":26175:26221  require(buyTax <= 99, \"Invalid buy tax value\") */\n      0x04\n      dup3\n      add\n        /* \"#utility.yul\":9259:9280   */\n      mstore\n        /* \"#utility.yul\":9316:9318   */\n      0x15\n        /* \"#utility.yul\":9296:9314   */\n      0x24\n      dup3\n      add\n        /* \"#utility.yul\":9289:9319   */\n      mstore\n      shl(0x58, 0x496e76616c696420627579207461782076616c7565)\n        /* \"#utility.yul\":9335:9353   */\n      0x44\n      dup3\n      add\n        /* \"#utility.yul\":9328:9379   */\n      mstore\n        /* \"#utility.yul\":9396:9414   */\n      0x64\n      add\n        /* \"CYBCC_flattened.sol\":26175:26221  require(buyTax <= 99, \"Invalid buy tax value\") */\n      tag_195\n        /* \"#utility.yul\":9075:9420   */\n      jump\n        /* \"CYBCC_flattened.sol\":26175:26221  require(buyTax <= 99, \"Invalid buy tax value\") */\n    tag_262:\n        /* \"CYBCC_flattened.sol\":26250:26252  99 */\n      0x63\n        /* \"CYBCC_flattened.sol\":26239:26246  sellTax */\n      dup2\n        /* \"CYBCC_flattened.sol\":26239:26252  sellTax <= 99 */\n      gt\n      iszero\n        /* \"CYBCC_flattened.sol\":26231:26279  require(sellTax <= 99, \"Invalid sell tax value\") */\n      tag_265\n      jumpi\n      mload(0x40)\n      shl(0xe5, 0x461bcd)\n      dup2\n      mstore\n        /* \"#utility.yul\":9627:9629   */\n      0x20\n        /* \"CYBCC_flattened.sol\":26231:26279  require(sellTax <= 99, \"Invalid sell tax value\") */\n      0x04\n      dup3\n      add\n        /* \"#utility.yul\":9609:9630   */\n      mstore\n        /* \"#utility.yul\":9666:9668   */\n      0x16\n        /* \"#utility.yul\":9646:9664   */\n      0x24\n      dup3\n      add\n        /* \"#utility.yul\":9639:9669   */\n      mstore\n      shl(0x50, 0x496e76616c69642073656c6c207461782076616c7565)\n        /* \"#utility.yul\":9685:9703   */\n      0x44\n      dup3\n      add\n        /* \"#utility.yul\":9678:9730   */\n      mstore\n        /* \"#utility.yul\":9747:9765   */\n      0x64\n      add\n        /* \"CYBCC_flattened.sol\":26231:26279  require(sellTax <= 99, \"Invalid sell tax value\") */\n      tag_195\n        /* \"#utility.yul\":9425:9771   */\n      jump\n        /* \"CYBCC_flattened.sol\":26231:26279  require(sellTax <= 99, \"Invalid sell tax value\") */\n    tag_265:\n        /* \"CYBCC_flattened.sol\":26289:26295  buyFee */\n      0x10\n        /* \"CYBCC_flattened.sol\":26289:26304  buyFee = buyTax */\n      dup3\n      swap1\n      sstore\n        /* \"CYBCC_flattened.sol\":26314:26321  sellFee */\n      0x11\n        /* \"CYBCC_flattened.sol\":26314:26331  sellFee = sellTax */\n      dup2\n      swap1\n      sstore\n        /* \"CYBCC_flattened.sol\":26346:26374  FeesUpdated(buyTax, sellTax) */\n      0x40\n      dup1\n      mload\n        /* \"#utility.yul\":7113:7138   */\n      dup4\n      dup2\n      mstore\n        /* \"#utility.yul\":7169:7171   */\n      0x20\n        /* \"#utility.yul\":7154:7172   */\n      dup2\n      add\n        /* \"#utility.yul\":7147:7181   */\n      dup4\n      swap1\n      mstore\n        /* \"CYBCC_flattened.sol\":26346:26374  FeesUpdated(buyTax, sellTax) */\n      0x5c6323bf1c2d7aaea2c091a4751c1c87af7f2864650c336507a77d0557af37a1\n      swap2\n        /* \"#utility.yul\":7086:7104   */\n      add\n        /* \"CYBCC_flattened.sol\":26346:26374  FeesUpdated(buyTax, sellTax) */\n      tag_182\n        /* \"#utility.yul\":6939:7187   */\n      jump\n        /* \"CYBCC_flattened.sol\":25864:26091  function rmvLimits() external onlyOwner {... */\n    tag_110:\n        /* \"CYBCC_flattened.sol\":17868:17881  _checkOwner() */\n      tag_270\n        /* \"CYBCC_flattened.sol\":17868:17879  _checkOwner */\n      tag_174\n        /* \"CYBCC_flattened.sol\":17868:17881  _checkOwner() */\n      jump\t// in\n    tag_270:\n        /* \"CYBCC_flattened.sol\":25931:25943  _totalSupply */\n      sload(0x1b)\n        /* \"CYBCC_flattened.sol\":25914:25928  _txAmountLimit */\n      0x14\n        /* \"CYBCC_flattened.sol\":25914:25943  _txAmountLimit = _totalSupply */\n      dup2\n      swap1\n      sstore\n        /* \"CYBCC_flattened.sol\":25953:25971  _walletAmountLimit */\n      0x15\n        /* \"CYBCC_flattened.sol\":25953:25986  _walletAmountLimit = _totalSupply */\n      dup2\n      swap1\n      sstore\n        /* \"CYBCC_flattened.sol\":26001:26033  MaxTxAmountUpdated(_totalSupply) */\n      mload(0x40)\n        /* \"#utility.yul\":1868:1893   */\n      swap1\n      dup2\n      mstore\n        /* \"CYBCC_flattened.sol\":26001:26033  MaxTxAmountUpdated(_totalSupply) */\n      0x947f344d56e1e8c70dc492fb94c4ddddd490c016aab685f5e7e47b2e85cb44cf\n      swap1\n        /* \"#utility.yul\":1856:1858   */\n      0x20\n        /* \"#utility.yul\":1841:1859   */\n      add\n        /* \"CYBCC_flattened.sol\":26001:26033  MaxTxAmountUpdated(_totalSupply) */\n      mload(0x40)\n      dup1\n      swap2\n      sub\n      swap1\n      log1\n        /* \"CYBCC_flattened.sol\":26048:26084  MaxWalletAmountUpdated(_totalSupply) */\n      0x4b39c36d20c57d220f61fd25c4349d4435cc03ef6c2a680942f15333c3c3e001\n        /* \"CYBCC_flattened.sol\":26071:26083  _totalSupply */\n      sload(0x1b)\n        /* \"CYBCC_flattened.sol\":26048:26084  MaxWalletAmountUpdated(_totalSupply) */\n      mload(0x40)\n      tag_273\n      swap2\n        /* \"#utility.yul\":1868:1893   */\n      dup2\n      mstore\n        /* \"#utility.yul\":1856:1858   */\n      0x20\n        /* \"#utility.yul\":1841:1859   */\n      add\n      swap1\n        /* \"#utility.yul\":1722:1899   */\n      jump\n        /* \"CYBCC_flattened.sol\":26048:26084  MaxWalletAmountUpdated(_totalSupply) */\n    tag_273:\n      mload(0x40)\n      dup1\n      swap2\n      sub\n      swap1\n      log1\n        /* \"CYBCC_flattened.sol\":25864:26091  function rmvLimits() external onlyOwner {... */\n      jump\t// out\n        /* \"CYBCC_flattened.sol\":18630:18731  function renounceOwnership() public virtual onlyOwner {... */\n    tag_119:\n        /* \"CYBCC_flattened.sol\":17868:17881  _checkOwner() */\n      tag_276\n        /* \"CYBCC_flattened.sol\":17868:17879  _checkOwner */\n      tag_174\n        /* \"CYBCC_flattened.sol\":17868:17881  _checkOwner() */\n      jump\t// in\n    tag_276:\n        /* \"CYBCC_flattened.sol\":18694:18724  _transferOwnership(address(0)) */\n      tag_278\n        /* \"CYBCC_flattened.sol\":18721:18722  0 */\n      0x00\n        /* \"CYBCC_flattened.sol\":18694:18712  _transferOwnership */\n      tag_279\n        /* \"CYBCC_flattened.sol\":18694:18724  _transferOwnership(address(0)) */\n      jump\t// in\n    tag_278:\n        /* \"CYBCC_flattened.sol\":18630:18731  function renounceOwnership() public virtual onlyOwner {... */\n      jump\t// out\n        /* \"CYBCC_flattened.sol\":30344:30734  function triggerSwap() external {... */\n    tag_127:\n        /* \"CYBCC_flattened.sol\":18047:18053  _owner */\n      and(sub(shl(0xa0, 0x01), 0x01), sload(0x06))\n        /* \"CYBCC_flattened.sol\":30407:30417  msg.sender */\n      caller\n        /* \"CYBCC_flattened.sol\":30407:30429  msg.sender ==  owner() */\n      eq\n        /* \"CYBCC_flattened.sol\":30386:30477  require(... */\n      tag_283\n      jumpi\n      mload(0x40)\n      shl(0xe5, 0x461bcd)\n      dup2\n      mstore\n        /* \"#utility.yul\":9978:9980   */\n      0x20\n        /* \"CYBCC_flattened.sol\":30386:30477  require(... */\n      0x04\n      dup3\n      add\n        /* \"#utility.yul\":9960:9981   */\n      mstore\n        /* \"#utility.yul\":10017:10019   */\n      0x16\n        /* \"#utility.yul\":9997:10015   */\n      0x24\n      dup3\n      add\n        /* \"#utility.yul\":9990:10020   */\n      mstore\n      shl(0x51, 0x27b7363c9037bbb732b91031b0b7103a3934b3b3b2b9)\n        /* \"#utility.yul\":10036:10054   */\n      0x44\n      dup3\n      add\n        /* \"#utility.yul\":10029:10081   */\n      mstore\n        /* \"#utility.yul\":10098:10116   */\n      0x64\n      add\n        /* \"CYBCC_flattened.sol\":30386:30477  require(... */\n      tag_195\n        /* \"#utility.yul\":9776:10122   */\n      jump\n        /* \"CYBCC_flattened.sol\":30386:30477  require(... */\n    tag_283:\n        /* \"CYBCC_flattened.sol\":30536:30540  this */\n      address\n        /* \"CYBCC_flattened.sol\":30487:30515  uint256 contractTokenBalance */\n      0x00\n        /* \"CYBCC_flattened.sol\":8730:8748  _balances[account] */\n      swap1\n      dup2\n      mstore\n      0x20\n      dup2\n      swap1\n      mstore\n      0x40\n      swap1\n      keccak256\n      sload\n        /* \"CYBCC_flattened.sol\":30553:30591  swapTokensForEth(contractTokenBalance) */\n      tag_287\n        /* \"CYBCC_flattened.sol\":8730:8748  _balances[account] */\n      dup2\n        /* \"CYBCC_flattened.sol\":30553:30569  swapTokensForEth */\n      tag_288\n        /* \"CYBCC_flattened.sol\":30553:30591  swapTokensForEth(contractTokenBalance) */\n      jump\t// in\n    tag_287:\n        /* \"CYBCC_flattened.sol\":30630:30651  address(this).balance */\n      selfbalance\n        /* \"CYBCC_flattened.sol\":30665:30687  contractETHBalance > 0 */\n      dup1\n      iszero\n        /* \"CYBCC_flattened.sol\":30661:30728  if (contractETHBalance > 0) {... */\n      tag_290\n      jumpi\n        /* \"CYBCC_flattened.sol\":30703:30717  sendETHToFee() */\n      tag_290\n        /* \"CYBCC_flattened.sol\":30703:30715  sendETHToFee */\n      tag_291\n        /* \"CYBCC_flattened.sol\":30703:30717  sendETHToFee() */\n      jump\t// in\n    tag_290:\n        /* \"CYBCC_flattened.sol\":30376:30734  {... */\n      pop\n      pop\n        /* \"CYBCC_flattened.sol\":30344:30734  function triggerSwap() external {... */\n      jump\t// out\n        /* \"CYBCC_flattened.sol\":7616:7709  function symbol() public view virtual returns (string memory) {... */\n    tag_130:\n        /* \"CYBCC_flattened.sol\":7663:7676  string memory */\n      0x60\n        /* \"CYBCC_flattened.sol\":7695:7702  _symbol */\n      0x04\n        /* \"CYBCC_flattened.sol\":7688:7702  return _symbol */\n      dup1\n      sload\n      tag_185\n      swap1\n      tag_186\n      jump\t// in\n        /* \"CYBCC_flattened.sol\":31925:32091  function mint(uint256 amount) public onlyOwner... */\n    tag_135:\n        /* \"CYBCC_flattened.sol\":17868:17881  _checkOwner() */\n      tag_299\n        /* \"CYBCC_flattened.sol\":17868:17879  _checkOwner */\n      tag_174\n        /* \"CYBCC_flattened.sol\":17868:17881  _checkOwner() */\n      jump\t// in\n    tag_299:\n        /* \"CYBCC_flattened.sol\":32019:32027  tokenCap */\n      immutable(\"0x8247612fc44e04240de1f1e52a24ae05ef9c9a91ceca3a27f3e6510b39beb534\")\n        /* \"CYBCC_flattened.sol\":32009:32015  amount */\n      dup2\n        /* \"CYBCC_flattened.sol\":31994:32006  _totalSupply */\n      sload(0x1b)\n        /* \"CYBCC_flattened.sol\":31994:32015  _totalSupply + amount */\n      tag_301\n      swap2\n      swap1\n      tag_302\n      jump\t// in\n    tag_301:\n        /* \"CYBCC_flattened.sol\":31994:32027  _totalSupply + amount <= tokenCap */\n      gt\n      iszero\n        /* \"CYBCC_flattened.sol\":31986:32052  require(_totalSupply + amount <= tokenCap, \"Supply Limit Reached\") */\n      tag_303\n      jumpi\n      mload(0x40)\n      shl(0xe5, 0x461bcd)\n      dup2\n      mstore\n        /* \"#utility.yul\":10459:10461   */\n      0x20\n        /* \"CYBCC_flattened.sol\":31986:32052  require(_totalSupply + amount <= tokenCap, \"Supply Limit Reached\") */\n      0x04\n      dup3\n      add\n        /* \"#utility.yul\":10441:10462   */\n      mstore\n        /* \"#utility.yul\":10498:10500   */\n      0x14\n        /* \"#utility.yul\":10478:10496   */\n      0x24\n      dup3\n      add\n        /* \"#utility.yul\":10471:10501   */\n      mstore\n      shl(0x62, 0x14dd5c1c1b1e48131a5b5a5d0814995858da1959)\n        /* \"#utility.yul\":10517:10535   */\n      0x44\n      dup3\n      add\n        /* \"#utility.yul\":10510:10560   */\n      mstore\n        /* \"#utility.yul\":10577:10595   */\n      0x64\n      add\n        /* \"CYBCC_flattened.sol\":31986:32052  require(_totalSupply + amount <= tokenCap, \"Supply Limit Reached\") */\n      tag_195\n        /* \"#utility.yul\":10257:10601   */\n      jump\n        /* \"CYBCC_flattened.sol\":31986:32052  require(_totalSupply + amount <= tokenCap, \"Supply Limit Reached\") */\n    tag_303:\n        /* \"CYBCC_flattened.sol\":32062:32084  _mint(owner(), amount) */\n      tag_247\n        /* \"CYBCC_flattened.sol\":32068:32075  owner() */\n      tag_307\n        /* \"CYBCC_flattened.sol\":18047:18053  _owner */\n      and(sub(shl(0xa0, 0x01), 0x01), sload(0x06))\n      swap1\n        /* \"CYBCC_flattened.sol\":17975:18060  function owner() public view virtual returns (address) {... */\n      jump\n        /* \"CYBCC_flattened.sol\":32068:32075  owner() */\n    tag_307:\n        /* \"CYBCC_flattened.sol\":32077:32083  amount */\n      dup3\n        /* \"CYBCC_flattened.sol\":32062:32067  _mint */\n      tag_308\n        /* \"CYBCC_flattened.sol\":32062:32084  _mint(owner(), amount) */\n      jump\t// in\n        /* \"CYBCC_flattened.sol\":8950:9128  function transfer(address to, uint256 value) public virtual returns (bool) {... */\n    tag_139:\n        /* \"CYBCC_flattened.sol\":9019:9023  bool */\n      0x00\n        /* \"CYBCC_flattened.sol\":4365:4375  msg.sender */\n      caller\n        /* \"CYBCC_flattened.sol\":9073:9100  _transfer(owner, to, value) */\n      tag_200\n        /* \"CYBCC_flattened.sol\":4365:4375  msg.sender */\n      dup2\n        /* \"CYBCC_flattened.sol\":9090:9092  to */\n      dup6\n        /* \"CYBCC_flattened.sol\":9094:9099  value */\n      dup6\n        /* \"CYBCC_flattened.sol\":9073:9082  _transfer */\n      tag_237\n        /* \"CYBCC_flattened.sol\":9073:9100  _transfer(owner, to, value) */\n      jump\t// in\n        /* \"CYBCC_flattened.sol\":24311:24905  function setWallets(... */\n    tag_150:\n        /* \"CYBCC_flattened.sol\":17868:17881  _checkOwner() */\n      tag_314\n        /* \"CYBCC_flattened.sol\":17868:17879  _checkOwner */\n      tag_174\n        /* \"CYBCC_flattened.sol\":17868:17881  _checkOwner() */\n      jump\t// in\n    tag_314:\n        /* \"CYBCC_flattened.sol\":24558:24569  _taxWallet1 */\n      0x08\n        /* \"CYBCC_flattened.sol\":24558:24582  _taxWallet1 = taxWallet1 */\n      dup1\n      sload\n      sub(shl(0xa0, 0x01), 0x01)\n      dup9\n      dup2\n      and\n      not(sub(shl(0xa0, 0x01), 0x01))\n      swap3\n      dup4\n      and\n      dup2\n      or\n      swap1\n      swap4\n      sstore\n        /* \"CYBCC_flattened.sol\":24592:24603  _taxWallet2 */\n      0x09\n        /* \"CYBCC_flattened.sol\":24592:24616  _taxWallet2 = taxWallet2 */\n      dup1\n      sload\n      dup10\n      dup4\n      and\n      swap1\n      dup5\n      and\n      dup2\n      or\n      swap1\n      swap2\n      sstore\n        /* \"CYBCC_flattened.sol\":24626:24637  _taxWallet3 */\n      0x0a\n        /* \"CYBCC_flattened.sol\":24626:24650  _taxWallet3 = taxWallet3 */\n      dup1\n      sload\n      dup10\n      dup5\n      and\n      swap1\n      dup6\n      and\n      dup2\n      or\n      swap1\n      swap2\n      sstore\n        /* \"CYBCC_flattened.sol\":24660:24671  _taxWallet4 */\n      0x0b\n        /* \"CYBCC_flattened.sol\":24660:24684  _taxWallet4 = taxWallet4 */\n      dup1\n      sload\n      dup10\n      dup6\n      and\n      swap1\n      dup7\n      and\n      dup2\n      or\n      swap1\n      swap2\n      sstore\n        /* \"CYBCC_flattened.sol\":24694:24705  _taxWallet5 */\n      0x0c\n        /* \"CYBCC_flattened.sol\":24694:24718  _taxWallet5 = taxWallet5 */\n      dup1\n      sload\n      dup10\n      dup7\n      and\n      swap1\n      dup8\n      and\n      dup2\n      or\n      swap1\n      swap2\n      sstore\n        /* \"CYBCC_flattened.sol\":24728:24739  _taxWallet6 */\n      0x0d\n        /* \"CYBCC_flattened.sol\":24728:24752  _taxWallet6 = taxWallet6 */\n      dup1\n      sload\n      swap6\n      dup10\n      and\n      swap6\n      swap1\n      swap7\n      and\n      dup6\n      or\n      swap1\n      swap6\n      sstore\n        /* \"CYBCC_flattened.sol\":24773:24898  FeeReceiversUpdated(_taxWallet1,_taxWallet2,_taxWallet3,... */\n      0x40\n      dup1\n      mload\n        /* \"#utility.yul\":10989:11040   */\n      swap7\n      dup8\n      mstore\n        /* \"#utility.yul\":11071:11073   */\n      0x20\n        /* \"#utility.yul\":11056:11074   */\n      dup8\n      add\n        /* \"#utility.yul\":11049:11109   */\n      swap4\n      swap1\n      swap4\n      mstore\n        /* \"#utility.yul\":11125:11143   */\n      swap2\n      dup6\n      add\n        /* \"#utility.yul\":11118:11178   */\n      mstore\n        /* \"#utility.yul\":11209:11211   */\n      0x60\n        /* \"#utility.yul\":11194:11212   */\n      dup5\n      add\n        /* \"#utility.yul\":11187:11247   */\n      mstore\n        /* \"#utility.yul\":11278:11281   */\n      0x80\n        /* \"#utility.yul\":11263:11282   */\n      dup4\n      add\n        /* \"#utility.yul\":11256:11317   */\n      swap2\n      swap1\n      swap2\n      mstore\n        /* \"#utility.yul\":11027:11030   */\n      0xa0\n        /* \"#utility.yul\":11333:11352   */\n      dup3\n      add\n        /* \"#utility.yul\":11326:11387   */\n      mstore\n        /* \"CYBCC_flattened.sol\":24773:24898  FeeReceiversUpdated(_taxWallet1,_taxWallet2,_taxWallet3,... */\n      0xe1a9f1e6aeae46da03ac69e660a1436f6a8a06342a79c23c92e8d24b8f7232c5\n      swap1\n        /* \"#utility.yul\":10976:10979   */\n      0xc0\n        /* \"#utility.yul\":10961:10980   */\n      add\n        /* \"CYBCC_flattened.sol\":24773:24898  FeeReceiversUpdated(_taxWallet1,_taxWallet2,_taxWallet3,... */\n      mload(0x40)\n      dup1\n      swap2\n      sub\n      swap1\n      log1\n        /* \"CYBCC_flattened.sol\":24311:24905  function setWallets(... */\n      pop\n      pop\n      pop\n      pop\n      pop\n      pop\n      jump\t// out\n        /* \"CYBCC_flattened.sol\":25150:25408  function setWalletLimit(uint256 newValue) external onlyOwner {... */\n    tag_164:\n        /* \"CYBCC_flattened.sol\":17868:17881  _checkOwner() */\n      tag_320\n        /* \"CYBCC_flattened.sol\":17868:17879  _checkOwner */\n      tag_174\n        /* \"CYBCC_flattened.sol\":17868:17881  _checkOwner() */\n      jump\t// in\n    tag_320:\n        /* \"CYBCC_flattened.sol\":25241:25242  1 */\n      0x01\n        /* \"CYBCC_flattened.sol\":25229:25237  newValue */\n      dup2\n        /* \"CYBCC_flattened.sol\":25229:25242  newValue >= 1 */\n      lt\n      iszero\n        /* \"CYBCC_flattened.sol\":25221:25281  require(newValue >= 1, \"Max wallet cant be lower than 0.1%\") */\n      tag_322\n      jumpi\n      mload(0x40)\n      shl(0xe5, 0x461bcd)\n      dup2\n      mstore\n        /* \"#utility.yul\":11600:11602   */\n      0x20\n        /* \"CYBCC_flattened.sol\":25221:25281  require(newValue >= 1, \"Max wallet cant be lower than 0.1%\") */\n      0x04\n      dup3\n      add\n        /* \"#utility.yul\":11582:11603   */\n      mstore\n        /* \"#utility.yul\":11639:11641   */\n      0x22\n        /* \"#utility.yul\":11619:11637   */\n      0x24\n      dup3\n      add\n        /* \"#utility.yul\":11612:11642   */\n      mstore\n        /* \"#utility.yul\":11678:11712   */\n      0x4d61782077616c6c65742063616e74206265206c6f776572207468616e20302e\n        /* \"#utility.yul\":11658:11676   */\n      0x44\n      dup3\n      add\n        /* \"#utility.yul\":11651:11713   */\n      mstore\n      shl(0xf0, 0x3125)\n        /* \"#utility.yul\":11729:11747   */\n      0x64\n      dup3\n      add\n        /* \"#utility.yul\":11722:11754   */\n      mstore\n        /* \"#utility.yul\":11771:11790   */\n      0x84\n      add\n        /* \"CYBCC_flattened.sol\":25221:25281  require(newValue >= 1, \"Max wallet cant be lower than 0.1%\") */\n      tag_195\n        /* \"#utility.yul\":11398:11796   */\n      jump\n        /* \"CYBCC_flattened.sol\":25221:25281  require(newValue >= 1, \"Max wallet cant be lower than 0.1%\") */\n    tag_322:\n        /* \"CYBCC_flattened.sol\":25340:25344  1000 */\n      0x03e8\n        /* \"CYBCC_flattened.sol\":25328:25336  newValue */\n      dup2\n        /* \"CYBCC_flattened.sol\":25313:25325  _totalSupply */\n      sload(0x1b)\n        /* \"CYBCC_flattened.sol\":25313:25336  _totalSupply * newValue */\n      tag_325\n      swap2\n      swap1\n      tag_177\n      jump\t// in\n    tag_325:\n        /* \"CYBCC_flattened.sol\":25312:25344  (_totalSupply * newValue) / 1000 */\n      tag_326\n      swap2\n      swap1\n      tag_179\n      jump\t// in\n    tag_326:\n        /* \"CYBCC_flattened.sol\":25291:25309  _walletAmountLimit */\n      0x15\n        /* \"CYBCC_flattened.sol\":25291:25344  _walletAmountLimit = (_totalSupply * newValue) / 1000 */\n      dup2\n      swap1\n      sstore\n        /* \"CYBCC_flattened.sol\":25359:25401  MaxWalletAmountUpdated(_walletAmountLimit) */\n      mload(0x40)\n        /* \"#utility.yul\":1868:1893   */\n      swap1\n      dup2\n      mstore\n        /* \"CYBCC_flattened.sol\":25359:25401  MaxWalletAmountUpdated(_walletAmountLimit) */\n      0x4b39c36d20c57d220f61fd25c4349d4435cc03ef6c2a680942f15333c3c3e001\n      swap1\n        /* \"#utility.yul\":1856:1858   */\n      0x20\n        /* \"#utility.yul\":1841:1859   */\n      add\n        /* \"CYBCC_flattened.sol\":25359:25401  MaxWalletAmountUpdated(_walletAmountLimit) */\n      tag_258\n        /* \"#utility.yul\":1722:1899   */\n      jump\n        /* \"CYBCC_flattened.sol\":18880:19095  function transferOwnership(address newOwner) public virtual onlyOwner {... */\n    tag_168:\n        /* \"CYBCC_flattened.sol\":17868:17881  _checkOwner() */\n      tag_329\n        /* \"CYBCC_flattened.sol\":17868:17879  _checkOwner */\n      tag_174\n        /* \"CYBCC_flattened.sol\":17868:17881  _checkOwner() */\n      jump\t// in\n    tag_329:\n      sub(shl(0xa0, 0x01), 0x01)\n        /* \"CYBCC_flattened.sol\":18964:18986  newOwner == address(0) */\n      dup2\n      and\n        /* \"CYBCC_flattened.sol\":18960:19051  if (newOwner == address(0)) {... */\n      tag_331\n      jumpi\n        /* \"CYBCC_flattened.sol\":19009:19040  OwnableInvalidOwner(address(0)) */\n      mload(0x40)\n      shl(0xe0, 0x1e4fbdf7)\n      dup2\n      mstore\n        /* \"CYBCC_flattened.sol\":19037:19038  0 */\n      0x00\n        /* \"CYBCC_flattened.sol\":19009:19040  OwnableInvalidOwner(address(0)) */\n      0x04\n      dup3\n      add\n        /* \"#utility.yul\":1660:1711   */\n      mstore\n        /* \"#utility.yul\":1633:1651   */\n      0x24\n      add\n        /* \"CYBCC_flattened.sol\":19009:19040  OwnableInvalidOwner(address(0)) */\n      tag_195\n        /* \"#utility.yul\":1488:1717   */\n      jump\n        /* \"CYBCC_flattened.sol\":18960:19051  if (newOwner == address(0)) {... */\n    tag_331:\n        /* \"CYBCC_flattened.sol\":19060:19088  _transferOwnership(newOwner) */\n      tag_247\n        /* \"CYBCC_flattened.sol\":19079:19087  newOwner */\n      dup2\n        /* \"CYBCC_flattened.sol\":19060:19078  _transferOwnership */\n      tag_279\n        /* \"CYBCC_flattened.sol\":19060:19088  _transferOwnership(newOwner) */\n      jump\t// in\n        /* \"CYBCC_flattened.sol\":23935:24299  function open() external onlyOwner {... */\n    tag_171:\n        /* \"CYBCC_flattened.sol\":17868:17881  _checkOwner() */\n      tag_335\n        /* \"CYBCC_flattened.sol\":17868:17879  _checkOwner */\n      tag_174\n        /* \"CYBCC_flattened.sol\":17868:17881  _checkOwner() */\n      jump\t// in\n    tag_335:\n        /* \"CYBCC_flattened.sol\":23989:24000  tradingOpen */\n      sload(0x19)\n      shl(0xa0, 0x01)\n      swap1\n      div\n      0xff\n      and\n        /* \"CYBCC_flattened.sol\":23988:24000  !tradingOpen */\n      iszero\n        /* \"CYBCC_flattened.sol\":23980:24028  require(!tradingOpen, \"trading is already open\") */\n      tag_337\n      jumpi\n      mload(0x40)\n      shl(0xe5, 0x461bcd)\n      dup2\n      mstore\n        /* \"#utility.yul\":12003:12005   */\n      0x20\n        /* \"CYBCC_flattened.sol\":23980:24028  require(!tradingOpen, \"trading is already open\") */\n      0x04\n      dup3\n      add\n        /* \"#utility.yul\":11985:12006   */\n      mstore\n        /* \"#utility.yul\":12042:12044   */\n      0x17\n        /* \"#utility.yul\":12022:12040   */\n      0x24\n      dup3\n      add\n        /* \"#utility.yul\":12015:12045   */\n      mstore\n        /* \"#utility.yul\":12081:12106   */\n      0x74726164696e6720697320616c7265616479206f70656e000000000000000000\n        /* \"#utility.yul\":12061:12079   */\n      0x44\n      dup3\n      add\n        /* \"#utility.yul\":12054:12107   */\n      mstore\n        /* \"#utility.yul\":12124:12142   */\n      0x64\n      add\n        /* \"CYBCC_flattened.sol\":23980:24028  require(!tradingOpen, \"trading is already open\") */\n      tag_195\n        /* \"#utility.yul\":11801:12148   */\n      jump\n        /* \"CYBCC_flattened.sol\":23980:24028  require(!tradingOpen, \"trading is already open\") */\n    tag_337:\n        /* \"CYBCC_flattened.sol\":24038:24049  swapEnabled */\n      0x19\n        /* \"CYBCC_flattened.sol\":24038:24056  swapEnabled = true */\n      dup1\n      sload\n      not(shl(0xa0, 0xff00ff))\n        /* \"CYBCC_flattened.sol\":24066:24084  tradingOpen = true */\n      and\n      shl(0xa0, 0x010001)\n      or\n      dup2\n      sstore\n        /* \"CYBCC_flattened.sol\":24107:24119  block.number */\n      number\n        /* \"CYBCC_flattened.sol\":24094:24104  firstBlock */\n      0x0e\n        /* \"CYBCC_flattened.sol\":24094:24119  firstBlock = block.number */\n      dup2\n      swap1\n      sstore\n        /* \"CYBCC_flattened.sol\":24129:24144  lastLiquifyTime */\n      0x0f\n        /* \"CYBCC_flattened.sol\":24129:24167  lastLiquifyTime = uint64(block.number) */\n      dup1\n      sload\n      not(0xffffffffffffffff)\n      and\n      0xffffffffffffffff\n      swap1\n      swap3\n      and\n      swap2\n      swap1\n      swap2\n      or\n      swap1\n      sstore\n        /* \"CYBCC_flattened.sol\":24204:24208  this */\n      address\n      0x00\n        /* \"CYBCC_flattened.sol\":24177:24210  _isExcludedFromFee[address(this)] */\n      swap1\n      dup2\n      mstore\n        /* \"CYBCC_flattened.sol\":24177:24195  _isExcludedFromFee */\n      0x07\n        /* \"CYBCC_flattened.sol\":24177:24210  _isExcludedFromFee[address(this)] */\n      0x20\n      mstore\n      0x40\n      dup1\n      dup3\n      keccak256\n        /* \"CYBCC_flattened.sol\":24177:24217  _isExcludedFromFee[address(this)] = true */\n      dup1\n      sload\n      not(0xff)\n      and\n      0x01\n      or\n      swap1\n      sstore\n        /* \"CYBCC_flattened.sol\":24227:24233  buyFee */\n      0x10\n        /* \"CYBCC_flattened.sol\":24227:24238  buyFee = 25 */\n      swap3\n      swap1\n      swap3\n      sstore\n        /* \"CYBCC_flattened.sol\":24258:24260  40 */\n      0x28\n        /* \"CYBCC_flattened.sol\":24248:24255  sellFee */\n      0x11\n        /* \"CYBCC_flattened.sol\":24248:24260  sellFee = 40 */\n      sstore\n        /* \"CYBCC_flattened.sol\":24276:24291  TradingOpened() */\n      swap1\n      mload\n      0xea4359d5c4b8f0945a64ab9c37fe830b3407d45e0e6e6f84275977a570457d6f\n      swap2\n      swap1\n      log1\n        /* \"CYBCC_flattened.sol\":23935:24299  function open() external onlyOwner {... */\n      jump\t// out\n        /* \"CYBCC_flattened.sol\":18133:18295  function _checkOwner() internal view virtual {... */\n    tag_174:\n        /* \"CYBCC_flattened.sol\":18047:18053  _owner */\n      and(sub(shl(0xa0, 0x01), 0x01), sload(0x06))\n        /* \"CYBCC_flattened.sol\":4365:4375  msg.sender */\n      caller\n        /* \"CYBCC_flattened.sol\":18192:18215  owner() != _msgSender() */\n      eq\n        /* \"CYBCC_flattened.sol\":18188:18289  if (owner() != _msgSender()) {... */\n      tag_278\n      jumpi\n        /* \"CYBCC_flattened.sol\":18238:18278  OwnableUnauthorizedAccount(_msgSender()) */\n      mload(0x40)\n      shl(0xe0, 0x118cdaa7)\n      dup2\n      mstore\n        /* \"CYBCC_flattened.sol\":4365:4375  msg.sender */\n      caller\n        /* \"CYBCC_flattened.sol\":18238:18278  OwnableUnauthorizedAccount(_msgSender()) */\n      0x04\n      dup3\n      add\n        /* \"#utility.yul\":1660:1711   */\n      mstore\n        /* \"#utility.yul\":1633:1651   */\n      0x24\n      add\n        /* \"CYBCC_flattened.sol\":18238:18278  OwnableUnauthorizedAccount(_msgSender()) */\n      tag_195\n        /* \"#utility.yul\":1488:1717   */\n      jump\n        /* \"CYBCC_flattened.sol\":14647:14805  function _approve(... */\n    tag_201:\n        /* \"CYBCC_flattened.sol\":14761:14798  _approve(owner, spender, value, true) */\n      tag_231\n        /* \"CYBCC_flattened.sol\":14770:14775  owner */\n      dup4\n        /* \"CYBCC_flattened.sol\":14777:14784  spender */\n      dup4\n        /* \"CYBCC_flattened.sol\":14786:14791  value */\n      dup4\n        /* \"CYBCC_flattened.sol\":14793:14797  true */\n      0x01\n        /* \"CYBCC_flattened.sol\":14761:14769  _approve */\n      tag_349\n        /* \"CYBCC_flattened.sol\":14761:14798  _approve(owner, spender, value, true) */\n      jump\t// in\n        /* \"CYBCC_flattened.sol\":16389:16974  function _spendAllowance(... */\n    tag_235:\n      sub(shl(0xa0, 0x01), 0x01)\n        /* \"CYBCC_flattened.sol\":9328:9346  _allowances[owner] */\n      dup4\n      dup2\n      and\n        /* \"CYBCC_flattened.sol\":16518:16542  uint256 currentAllowance */\n      0x00\n        /* \"CYBCC_flattened.sol\":9328:9346  _allowances[owner] */\n      swap1\n      dup2\n      mstore\n        /* \"CYBCC_flattened.sol\":9328:9339  _allowances */\n      0x01\n        /* \"CYBCC_flattened.sol\":9328:9346  _allowances[owner] */\n      0x20\n      swap1\n      dup2\n      mstore\n      0x40\n      dup1\n      dup4\n      keccak256\n        /* \"CYBCC_flattened.sol\":9328:9355  _allowances[owner][spender] */\n      swap4\n      dup7\n      and\n      dup4\n      mstore\n      swap3\n      swap1\n      mstore\n      keccak256\n      sload\n      not(0x00)\n        /* \"CYBCC_flattened.sol\":16584:16621  currentAllowance != type(uint256).max */\n      dup2\n      eq\n        /* \"CYBCC_flattened.sol\":16580:16968  if (currentAllowance != type(uint256).max) {... */\n      tag_207\n      jumpi\n        /* \"CYBCC_flattened.sol\":16660:16665  value */\n      dup2\n        /* \"CYBCC_flattened.sol\":16641:16657  currentAllowance */\n      dup2\n        /* \"CYBCC_flattened.sol\":16641:16665  currentAllowance < value */\n      lt\n        /* \"CYBCC_flattened.sol\":16637:16845  if (currentAllowance < value) {... */\n      iszero\n      tag_353\n      jumpi\n        /* \"CYBCC_flattened.sol\":16692:16830  ERC20InsufficientAllowance(... */\n      mload(0x40)\n      shl(0xe1, 0x7dc7a0d9)\n      dup2\n      mstore\n      sub(shl(0xa0, 0x01), 0x01)\n        /* \"#utility.yul\":12373:12405   */\n      dup5\n      and\n        /* \"CYBCC_flattened.sol\":16692:16830  ERC20InsufficientAllowance(... */\n      0x04\n      dup3\n      add\n        /* \"#utility.yul\":12355:12406   */\n      mstore\n        /* \"#utility.yul\":12422:12440   */\n      0x24\n      dup2\n      add\n        /* \"#utility.yul\":12415:12449   */\n      dup3\n      swap1\n      mstore\n        /* \"#utility.yul\":12465:12483   */\n      0x44\n      dup2\n      add\n        /* \"#utility.yul\":12458:12492   */\n      dup4\n      swap1\n      mstore\n        /* \"#utility.yul\":12328:12346   */\n      0x64\n      add\n        /* \"CYBCC_flattened.sol\":16692:16830  ERC20InsufficientAllowance(... */\n      tag_195\n        /* \"#utility.yul\":12153:12498   */\n      jump\n        /* \"CYBCC_flattened.sol\":16637:16845  if (currentAllowance < value) {... */\n    tag_353:\n        /* \"CYBCC_flattened.sol\":16886:16943  _approve(owner, spender, currentAllowance - value, false) */\n      tag_207\n        /* \"CYBCC_flattened.sol\":16895:16900  owner */\n      dup5\n        /* \"CYBCC_flattened.sol\":16902:16909  spender */\n      dup5\n        /* \"CYBCC_flattened.sol\":16930:16935  value */\n      dup5\n        /* \"CYBCC_flattened.sol\":16911:16927  currentAllowance */\n      dup5\n        /* \"CYBCC_flattened.sol\":16911:16935  currentAllowance - value */\n      sub\n        /* \"CYBCC_flattened.sol\":16937:16942  false */\n      0x00\n        /* \"CYBCC_flattened.sol\":16886:16894  _approve */\n      tag_349\n        /* \"CYBCC_flattened.sol\":16886:16943  _approve(owner, spender, currentAllowance - value, false) */\n      jump\t// in\n        /* \"CYBCC_flattened.sol\":27712:30032  function _transfer(... */\n    tag_237:\n      sub(shl(0xa0, 0x01), 0x01)\n        /* \"CYBCC_flattened.sol\":27847:27865  from != address(0) */\n      dup4\n      and\n        /* \"CYBCC_flattened.sol\":27839:27907  require(from != address(0), \"ERC20: transfer from the zero address\") */\n      tag_358\n      jumpi\n      mload(0x40)\n      shl(0xe5, 0x461bcd)\n      dup2\n      mstore\n        /* \"#utility.yul\":12705:12707   */\n      0x20\n        /* \"CYBCC_flattened.sol\":27839:27907  require(from != address(0), \"ERC20: transfer from the zero address\") */\n      0x04\n      dup3\n      add\n        /* \"#utility.yul\":12687:12708   */\n      mstore\n        /* \"#utility.yul\":12744:12746   */\n      0x25\n        /* \"#utility.yul\":12724:12742   */\n      0x24\n      dup3\n      add\n        /* \"#utility.yul\":12717:12747   */\n      mstore\n        /* \"#utility.yul\":12783:12817   */\n      0x45524332303a207472616e736665722066726f6d20746865207a65726f206164\n        /* \"#utility.yul\":12763:12781   */\n      0x44\n      dup3\n      add\n        /* \"#utility.yul\":12756:12818   */\n      mstore\n      shl(0xd8, 0x6472657373)\n        /* \"#utility.yul\":12834:12852   */\n      0x64\n      dup3\n      add\n        /* \"#utility.yul\":12827:12862   */\n      mstore\n        /* \"#utility.yul\":12879:12898   */\n      0x84\n      add\n        /* \"CYBCC_flattened.sol\":27839:27907  require(from != address(0), \"ERC20: transfer from the zero address\") */\n      tag_195\n        /* \"#utility.yul\":12503:12904   */\n      jump\n        /* \"CYBCC_flattened.sol\":27839:27907  require(from != address(0), \"ERC20: transfer from the zero address\") */\n    tag_358:\n      sub(shl(0xa0, 0x01), 0x01)\n        /* \"CYBCC_flattened.sol\":27925:27941  to != address(0) */\n      dup3\n      and\n        /* \"CYBCC_flattened.sol\":27917:27981  require(to != address(0), \"ERC20: transfer to the zero address\") */\n      tag_361\n      jumpi\n      mload(0x40)\n      shl(0xe5, 0x461bcd)\n      dup2\n      mstore\n        /* \"#utility.yul\":13111:13113   */\n      0x20\n        /* \"CYBCC_flattened.sol\":27917:27981  require(to != address(0), \"ERC20: transfer to the zero address\") */\n      0x04\n      dup3\n      add\n        /* \"#utility.yul\":13093:13114   */\n      mstore\n        /* \"#utility.yul\":13150:13152   */\n      0x23\n        /* \"#utility.yul\":13130:13148   */\n      0x24\n      dup3\n      add\n        /* \"#utility.yul\":13123:13153   */\n      mstore\n        /* \"#utility.yul\":13189:13223   */\n      0x45524332303a207472616e7366657220746f20746865207a65726f2061646472\n        /* \"#utility.yul\":13169:13187   */\n      0x44\n      dup3\n      add\n        /* \"#utility.yul\":13162:13224   */\n      mstore\n      shl(0xe8, 0x657373)\n        /* \"#utility.yul\":13240:13258   */\n      0x64\n      dup3\n      add\n        /* \"#utility.yul\":13233:13266   */\n      mstore\n        /* \"#utility.yul\":13283:13302   */\n      0x84\n      add\n        /* \"CYBCC_flattened.sol\":27917:27981  require(to != address(0), \"ERC20: transfer to the zero address\") */\n      tag_195\n        /* \"#utility.yul\":12909:13308   */\n      jump\n        /* \"CYBCC_flattened.sol\":27917:27981  require(to != address(0), \"ERC20: transfer to the zero address\") */\n    tag_361:\n        /* \"CYBCC_flattened.sol\":28008:28009  0 */\n      0x00\n        /* \"CYBCC_flattened.sol\":27999:28005  amount */\n      dup2\n        /* \"CYBCC_flattened.sol\":27999:28009  amount > 0 */\n      gt\n        /* \"CYBCC_flattened.sol\":27991:28055  require(amount > 0, \"Transfer amount must be greater than zero\") */\n      tag_364\n      jumpi\n      mload(0x40)\n      shl(0xe5, 0x461bcd)\n      dup2\n      mstore\n        /* \"#utility.yul\":13515:13517   */\n      0x20\n        /* \"CYBCC_flattened.sol\":27991:28055  require(amount > 0, \"Transfer amount must be greater than zero\") */\n      0x04\n      dup3\n      add\n        /* \"#utility.yul\":13497:13518   */\n      mstore\n        /* \"#utility.yul\":13554:13556   */\n      0x29\n        /* \"#utility.yul\":13534:13552   */\n      0x24\n      dup3\n      add\n        /* \"#utility.yul\":13527:13557   */\n      mstore\n        /* \"#utility.yul\":13593:13627   */\n      0x5472616e7366657220616d6f756e74206d757374206265206772656174657220\n        /* \"#utility.yul\":13573:13591   */\n      0x44\n      dup3\n      add\n        /* \"#utility.yul\":13566:13628   */\n      mstore\n      shl(0xb8, 0x7468616e207a65726f)\n        /* \"#utility.yul\":13644:13662   */\n      0x64\n      dup3\n      add\n        /* \"#utility.yul\":13637:13676   */\n      mstore\n        /* \"#utility.yul\":13693:13712   */\n      0x84\n      add\n        /* \"CYBCC_flattened.sol\":27991:28055  require(amount > 0, \"Transfer amount must be greater than zero\") */\n      tag_195\n        /* \"#utility.yul\":13313:13718   */\n      jump\n        /* \"CYBCC_flattened.sol\":27991:28055  require(amount > 0, \"Transfer amount must be greater than zero\") */\n    tag_364:\n        /* \"CYBCC_flattened.sol\":28065:28082  uint256 taxAmount */\n      0x00\n        /* \"CYBCC_flattened.sol\":28108:28115  owner() */\n      tag_367\n        /* \"CYBCC_flattened.sol\":18047:18053  _owner */\n      and(sub(shl(0xa0, 0x01), 0x01), sload(0x06))\n      swap1\n        /* \"CYBCC_flattened.sol\":17975:18060  function owner() public view virtual returns (address) {... */\n      jump\n        /* \"CYBCC_flattened.sol\":28108:28115  owner() */\n    tag_367:\n      sub(shl(0xa0, 0x01), 0x01)\n        /* \"CYBCC_flattened.sol\":28100:28115  from != owner() */\n      and\n        /* \"CYBCC_flattened.sol\":28100:28104  from */\n      dup5\n      sub(shl(0xa0, 0x01), 0x01)\n        /* \"CYBCC_flattened.sol\":28100:28115  from != owner() */\n      and\n      eq\n      iszero\n        /* \"CYBCC_flattened.sol\":28100:28132  from != owner() && to != owner() */\n      dup1\n      iszero\n      tag_368\n      jumpi\n      pop\n        /* \"CYBCC_flattened.sol\":18047:18053  _owner */\n      sload(0x06)\n      sub(shl(0xa0, 0x01), 0x01)\n        /* \"CYBCC_flattened.sol\":28119:28132  to != owner() */\n      dup5\n      dup2\n      and\n        /* \"CYBCC_flattened.sol\":18047:18053  _owner */\n      swap2\n      and\n        /* \"CYBCC_flattened.sol\":28119:28132  to != owner() */\n      eq\n      iszero\n        /* \"CYBCC_flattened.sol\":28100:28132  from != owner() && to != owner() */\n    tag_368:\n        /* \"CYBCC_flattened.sol\":28100:28143  from != owner() && to != owner() && !inSwap */\n      dup1\n      iszero\n      tag_370\n      jumpi\n      pop\n        /* \"CYBCC_flattened.sol\":28137:28143  inSwap */\n      sload(0x19)\n      shl(0xa8, 0x01)\n      swap1\n      div\n      0xff\n      and\n        /* \"CYBCC_flattened.sol\":28136:28143  !inSwap */\n      iszero\n        /* \"CYBCC_flattened.sol\":28100:28143  from != owner() && to != owner() && !inSwap */\n    tag_370:\n        /* \"CYBCC_flattened.sol\":28096:29868  if (from != owner() && to != owner() && !inSwap) {... */\n      iszero\n      tag_371\n      jumpi\n        /* \"CYBCC_flattened.sol\":28163:28173  launchmode */\n      sload(0x19)\n      shl(0xb8, 0x01)\n      swap1\n      div\n      0xff\n      and\n        /* \"CYBCC_flattened.sol\":28159:28246  if (launchmode){... */\n      iszero\n      tag_374\n      jumpi\n      sub(shl(0xa0, 0x01), 0x01)\n        /* \"CYBCC_flattened.sol\":28200:28212  _canTx[from] */\n      dup5\n      and\n      0x00\n      swap1\n      dup2\n      mstore\n        /* \"CYBCC_flattened.sol\":28200:28206  _canTx */\n      0x1a\n        /* \"CYBCC_flattened.sol\":28200:28212  _canTx[from] */\n      0x20\n      mstore\n      0x40\n      swap1\n      keccak256\n      sload\n      0xff\n      and\n      dup1\n        /* \"CYBCC_flattened.sol\":28200:28226  _canTx[from] || _canTx[to] */\n      tag_373\n      jumpi\n      pop\n      sub(shl(0xa0, 0x01), 0x01)\n        /* \"CYBCC_flattened.sol\":28216:28226  _canTx[to] */\n      dup4\n      and\n      0x00\n      swap1\n      dup2\n      mstore\n        /* \"CYBCC_flattened.sol\":28216:28222  _canTx */\n      0x1a\n        /* \"CYBCC_flattened.sol\":28216:28226  _canTx[to] */\n      0x20\n      mstore\n      0x40\n      swap1\n      keccak256\n      sload\n      0xff\n      and\n        /* \"CYBCC_flattened.sol\":28200:28226  _canTx[from] || _canTx[to] */\n    tag_373:\n        /* \"CYBCC_flattened.sol\":28192:28231  require(_canTx[from] || _canTx[to], \"\") */\n      tag_374\n      jumpi\n      mload(0x40)\n      shl(0xe5, 0x461bcd)\n      dup2\n      mstore\n        /* \"#utility.yul\":13925:13927   */\n      0x20\n        /* \"CYBCC_flattened.sol\":28192:28231  require(_canTx[from] || _canTx[to], \"\") */\n      0x04\n      dup3\n      add\n        /* \"#utility.yul\":13907:13928   */\n      mstore\n      0x00\n        /* \"#utility.yul\":13944:13962   */\n      0x24\n      dup3\n      add\n        /* \"#utility.yul\":13937:13966   */\n      mstore\n        /* \"#utility.yul\":13983:14001   */\n      0x44\n      add\n        /* \"CYBCC_flattened.sol\":28192:28231  require(_canTx[from] || _canTx[to], \"\") */\n      tag_195\n        /* \"#utility.yul\":13723:14007   */\n      jump\n        /* \"CYBCC_flattened.sol\":28192:28231  require(_canTx[from] || _canTx[to], \"\") */\n    tag_374:\n        /* \"CYBCC_flattened.sol\":28293:28296  100 */\n      0x64\n        /* \"CYBCC_flattened.sol\":28282:28288  buyFee */\n      sload(0x10)\n        /* \"CYBCC_flattened.sol\":28272:28278  amount */\n      dup4\n        /* \"CYBCC_flattened.sol\":28272:28289  amount * (buyFee) */\n      tag_377\n      swap2\n      swap1\n      tag_177\n      jump\t// in\n    tag_377:\n        /* \"CYBCC_flattened.sol\":28272:28297  amount * (buyFee) / (100) */\n      tag_378\n      swap2\n      swap1\n      tag_179\n      jump\t// in\n    tag_378:\n        /* \"CYBCC_flattened.sol\":28341:28354  uniswapV2Pair */\n      sload(0x19)\n        /* \"CYBCC_flattened.sol\":28260:28297  taxAmount = amount * (buyFee) / (100) */\n      swap1\n      swap2\n      pop\n      sub(shl(0xa0, 0x01), 0x01)\n        /* \"CYBCC_flattened.sol\":28333:28354  from == uniswapV2Pair */\n      dup6\n      dup2\n      and\n        /* \"CYBCC_flattened.sol\":28341:28354  uniswapV2Pair */\n      swap2\n      and\n        /* \"CYBCC_flattened.sol\":28333:28354  from == uniswapV2Pair */\n      eq\n        /* \"CYBCC_flattened.sol\":28333:28404  from == uniswapV2Pair &&... */\n      dup1\n      iszero\n      tag_379\n      jumpi\n      pop\n        /* \"CYBCC_flattened.sol\":28388:28403  uniswapV2Router */\n      sload(0x18)\n      sub(shl(0xa0, 0x01), 0x01)\n        /* \"CYBCC_flattened.sol\":28374:28404  to != address(uniswapV2Router) */\n      dup5\n      dup2\n      and\n        /* \"CYBCC_flattened.sol\":28388:28403  uniswapV2Router */\n      swap2\n      and\n        /* \"CYBCC_flattened.sol\":28374:28404  to != address(uniswapV2Router) */\n      eq\n      iszero\n        /* \"CYBCC_flattened.sol\":28333:28404  from == uniswapV2Pair &&... */\n    tag_379:\n        /* \"CYBCC_flattened.sol\":28333:28447  from == uniswapV2Pair &&... */\n      dup1\n      iszero\n      tag_380\n      jumpi\n      pop\n      sub(shl(0xa0, 0x01), 0x01)\n        /* \"CYBCC_flattened.sol\":28425:28447  _isExcludedFromFee[to] */\n      dup4\n      and\n      0x00\n      swap1\n      dup2\n      mstore\n        /* \"CYBCC_flattened.sol\":28425:28443  _isExcludedFromFee */\n      0x07\n        /* \"CYBCC_flattened.sol\":28425:28447  _isExcludedFromFee[to] */\n      0x20\n      mstore\n      0x40\n      swap1\n      keccak256\n      sload\n      0xff\n      and\n        /* \"CYBCC_flattened.sol\":28424:28447  !_isExcludedFromFee[to] */\n      iszero\n        /* \"CYBCC_flattened.sol\":28333:28447  from == uniswapV2Pair &&... */\n    tag_380:\n        /* \"CYBCC_flattened.sol\":28312:28865  if (... */\n      iszero\n      tag_381\n      jumpi\n        /* \"CYBCC_flattened.sol\":28498:28512  _txAmountLimit */\n      sload(0x14)\n        /* \"CYBCC_flattened.sol\":28488:28494  amount */\n      dup3\n        /* \"CYBCC_flattened.sol\":28488:28512  amount <= _txAmountLimit */\n      gt\n      iszero\n        /* \"CYBCC_flattened.sol\":28480:28544  require(amount <= _txAmountLimit, \"Exceeds the _txAmountLimit.\") */\n      tag_382\n      jumpi\n      mload(0x40)\n      shl(0xe5, 0x461bcd)\n      dup2\n      mstore\n        /* \"#utility.yul\":14214:14216   */\n      0x20\n        /* \"CYBCC_flattened.sol\":28480:28544  require(amount <= _txAmountLimit, \"Exceeds the _txAmountLimit.\") */\n      0x04\n      dup3\n      add\n        /* \"#utility.yul\":14196:14217   */\n      mstore\n        /* \"#utility.yul\":14253:14255   */\n      0x1b\n        /* \"#utility.yul\":14233:14251   */\n      0x24\n      dup3\n      add\n        /* \"#utility.yul\":14226:14256   */\n      mstore\n        /* \"#utility.yul\":14292:14321   */\n      0x4578636565647320746865205f7478416d6f756e744c696d69742e0000000000\n        /* \"#utility.yul\":14272:14290   */\n      0x44\n      dup3\n      add\n        /* \"#utility.yul\":14265:14322   */\n      mstore\n        /* \"#utility.yul\":14339:14357   */\n      0x64\n      add\n        /* \"CYBCC_flattened.sol\":28480:28544  require(amount <= _txAmountLimit, \"Exceeds the _txAmountLimit.\") */\n      tag_195\n        /* \"#utility.yul\":14012:14363   */\n      jump\n        /* \"CYBCC_flattened.sol\":28480:28544  require(amount <= _txAmountLimit, \"Exceeds the _txAmountLimit.\") */\n    tag_382:\n        /* \"CYBCC_flattened.sol\":28617:28635  _walletAmountLimit */\n      sload(0x15)\n        /* \"CYBCC_flattened.sol\":28607:28613  amount */\n      dup3\n        /* \"CYBCC_flattened.sol\":28591:28604  balanceOf(to) */\n      tag_385\n        /* \"CYBCC_flattened.sol\":28601:28603  to */\n      dup6\n      sub(shl(0xa0, 0x01), 0x01)\n        /* \"CYBCC_flattened.sol\":8730:8748  _balances[account] */\n      and\n        /* \"CYBCC_flattened.sol\":8704:8711  uint256 */\n      0x00\n        /* \"CYBCC_flattened.sol\":8730:8748  _balances[account] */\n      swap1\n      dup2\n      mstore\n      0x20\n      dup2\n      swap1\n      mstore\n      0x40\n      swap1\n      keccak256\n      sload\n      swap1\n        /* \"CYBCC_flattened.sol\":8639:8755  function balanceOf(address account) public view virtual returns (uint256) {... */\n      jump\n        /* \"CYBCC_flattened.sol\":28591:28604  balanceOf(to) */\n    tag_385:\n        /* \"CYBCC_flattened.sol\":28591:28613  balanceOf(to) + amount */\n      tag_386\n      swap2\n      swap1\n      tag_302\n      jump\t// in\n    tag_386:\n        /* \"CYBCC_flattened.sol\":28591:28635  balanceOf(to) + amount <= _walletAmountLimit */\n      gt\n      iszero\n        /* \"CYBCC_flattened.sol\":28562:28703  require(... */\n      tag_387\n      jumpi\n      mload(0x40)\n      shl(0xe5, 0x461bcd)\n      dup2\n      mstore\n        /* \"#utility.yul\":14570:14572   */\n      0x20\n        /* \"CYBCC_flattened.sol\":28562:28703  require(... */\n      0x04\n      dup3\n      add\n        /* \"#utility.yul\":14552:14573   */\n      mstore\n        /* \"#utility.yul\":14609:14611   */\n      0x1a\n        /* \"#utility.yul\":14589:14607   */\n      0x24\n      dup3\n      add\n        /* \"#utility.yul\":14582:14612   */\n      mstore\n        /* \"#utility.yul\":14648:14676   */\n      0x4578636565647320746865206d617857616c6c657453697a652e000000000000\n        /* \"#utility.yul\":14628:14646   */\n      0x44\n      dup3\n      add\n        /* \"#utility.yul\":14621:14677   */\n      mstore\n        /* \"#utility.yul\":14694:14712   */\n      0x64\n      add\n        /* \"CYBCC_flattened.sol\":28562:28703  require(... */\n      tag_195\n        /* \"#utility.yul\":14368:14718   */\n      jump\n        /* \"CYBCC_flattened.sol\":28562:28703  require(... */\n    tag_387:\n        /* \"CYBCC_flattened.sol\":28743:28755  block.number */\n      number\n        /* \"CYBCC_flattened.sol\":28726:28736  firstBlock */\n      sload(0x0e)\n        /* \"CYBCC_flattened.sol\":28739:28740  3 */\n      0x03\n        /* \"CYBCC_flattened.sol\":28726:28740  firstBlock + 3 */\n      tag_390\n      swap2\n      swap1\n      tag_302\n      jump\t// in\n    tag_390:\n        /* \"CYBCC_flattened.sol\":28726:28755  firstBlock + 3 > block.number */\n      gt\n        /* \"CYBCC_flattened.sol\":28722:28822  if (firstBlock + 3 > block.number) {... */\n      iszero\n      tag_394\n      jumpi\n        /* \"CYBCC_flattened.sol\":30277:30297  extcodesize(account) */\n      dup3\n      extcodesize\n        /* \"CYBCC_flattened.sol\":30323:30331  size > 0 */\n      iszero\n        /* \"CYBCC_flattened.sol\":28779:28803  require(!isContract(to)) */\n      tag_394\n      jumpi\n      revert(0x00, 0x00)\n    tag_394:\n        /* \"CYBCC_flattened.sol\":28839:28848  _buyCount */\n      0x13\n        /* \"CYBCC_flattened.sol\":28839:28850  _buyCount++ */\n      dup1\n      sload\n      swap1\n        /* \"CYBCC_flattened.sol\":28839:28848  _buyCount */\n      0x00\n        /* \"CYBCC_flattened.sol\":28839:28850  _buyCount++ */\n      tag_395\n      dup4\n      tag_396\n      jump\t// in\n    tag_395:\n      swap2\n      swap1\n      pop\n      sstore\n      pop\n        /* \"CYBCC_flattened.sol\":28312:28865  if (... */\n    tag_381:\n        /* \"CYBCC_flattened.sol\":28889:28902  uniswapV2Pair */\n      sload(0x19)\n      sub(shl(0xa0, 0x01), 0x01)\n        /* \"CYBCC_flattened.sol\":28883:28902  to != uniswapV2Pair */\n      dup5\n      dup2\n      and\n        /* \"CYBCC_flattened.sol\":28889:28902  uniswapV2Pair */\n      swap2\n      and\n        /* \"CYBCC_flattened.sol\":28883:28902  to != uniswapV2Pair */\n      eq\n      dup1\n      iszero\n      swap1\n        /* \"CYBCC_flattened.sol\":28883:28929  to != uniswapV2Pair && !_isExcludedFromFee[to] */\n      tag_397\n      jumpi\n      pop\n      sub(shl(0xa0, 0x01), 0x01)\n        /* \"CYBCC_flattened.sol\":28907:28929  _isExcludedFromFee[to] */\n      dup4\n      and\n      0x00\n      swap1\n      dup2\n      mstore\n        /* \"CYBCC_flattened.sol\":28907:28925  _isExcludedFromFee */\n      0x07\n        /* \"CYBCC_flattened.sol\":28907:28929  _isExcludedFromFee[to] */\n      0x20\n      mstore\n      0x40\n      swap1\n      keccak256\n      sload\n      0xff\n      and\n        /* \"CYBCC_flattened.sol\":28906:28929  !_isExcludedFromFee[to] */\n      iszero\n        /* \"CYBCC_flattened.sol\":28883:28929  to != uniswapV2Pair && !_isExcludedFromFee[to] */\n    tag_397:\n        /* \"CYBCC_flattened.sol\":28879:29105  if (to != uniswapV2Pair && !_isExcludedFromFee[to]) {... */\n      iszero\n      tag_401\n      jumpi\n        /* \"CYBCC_flattened.sol\":29004:29022  _walletAmountLimit */\n      sload(0x15)\n        /* \"CYBCC_flattened.sol\":28994:29000  amount */\n      dup3\n        /* \"CYBCC_flattened.sol\":28978:28991  balanceOf(to) */\n      tag_399\n        /* \"CYBCC_flattened.sol\":28988:28990  to */\n      dup6\n      sub(shl(0xa0, 0x01), 0x01)\n        /* \"CYBCC_flattened.sol\":8730:8748  _balances[account] */\n      and\n        /* \"CYBCC_flattened.sol\":8704:8711  uint256 */\n      0x00\n        /* \"CYBCC_flattened.sol\":8730:8748  _balances[account] */\n      swap1\n      dup2\n      mstore\n      0x20\n      dup2\n      swap1\n      mstore\n      0x40\n      swap1\n      keccak256\n      sload\n      swap1\n        /* \"CYBCC_flattened.sol\":8639:8755  function balanceOf(address account) public view virtual returns (uint256) {... */\n      jump\n        /* \"CYBCC_flattened.sol\":28978:28991  balanceOf(to) */\n    tag_399:\n        /* \"CYBCC_flattened.sol\":28978:29000  balanceOf(to) + amount */\n      tag_400\n      swap2\n      swap1\n      tag_302\n      jump\t// in\n    tag_400:\n        /* \"CYBCC_flattened.sol\":28978:29022  balanceOf(to) + amount <= _walletAmountLimit */\n      gt\n      iszero\n        /* \"CYBCC_flattened.sol\":28949:29090  require(... */\n      tag_401\n      jumpi\n      mload(0x40)\n      shl(0xe5, 0x461bcd)\n      dup2\n      mstore\n        /* \"#utility.yul\":14570:14572   */\n      0x20\n        /* \"CYBCC_flattened.sol\":28949:29090  require(... */\n      0x04\n      dup3\n      add\n        /* \"#utility.yul\":14552:14573   */\n      mstore\n        /* \"#utility.yul\":14609:14611   */\n      0x1a\n        /* \"#utility.yul\":14589:14607   */\n      0x24\n      dup3\n      add\n        /* \"#utility.yul\":14582:14612   */\n      mstore\n        /* \"#utility.yul\":14648:14676   */\n      0x4578636565647320746865206d617857616c6c657453697a652e000000000000\n        /* \"#utility.yul\":14628:14646   */\n      0x44\n      dup3\n      add\n        /* \"#utility.yul\":14621:14677   */\n      mstore\n        /* \"#utility.yul\":14694:14712   */\n      0x64\n      add\n        /* \"CYBCC_flattened.sol\":28949:29090  require(... */\n      tag_195\n        /* \"#utility.yul\":14368:14718   */\n      jump\n        /* \"CYBCC_flattened.sol\":28949:29090  require(... */\n    tag_401:\n        /* \"CYBCC_flattened.sol\":29129:29142  uniswapV2Pair */\n      sload(0x19)\n      sub(shl(0xa0, 0x01), 0x01)\n        /* \"CYBCC_flattened.sol\":29123:29142  to == uniswapV2Pair */\n      dup5\n      dup2\n      and\n        /* \"CYBCC_flattened.sol\":29129:29142  uniswapV2Pair */\n      swap2\n      and\n        /* \"CYBCC_flattened.sol\":29123:29142  to == uniswapV2Pair */\n      eq\n        /* \"CYBCC_flattened.sol\":29123:29167  to == uniswapV2Pair && from != address(this) */\n      dup1\n      iszero\n      tag_403\n      jumpi\n      pop\n      sub(shl(0xa0, 0x01), 0x01)\n        /* \"CYBCC_flattened.sol\":29146:29167  from != address(this) */\n      dup5\n      and\n        /* \"CYBCC_flattened.sol\":29162:29166  this */\n      address\n        /* \"CYBCC_flattened.sol\":29146:29167  from != address(this) */\n      eq\n      iszero\n        /* \"CYBCC_flattened.sol\":29123:29167  to == uniswapV2Pair && from != address(this) */\n    tag_403:\n        /* \"CYBCC_flattened.sol\":29119:29240  if (to == uniswapV2Pair && from != address(this)) {... */\n      iszero\n      tag_404\n      jumpi\n        /* \"CYBCC_flattened.sol\":29221:29224  100 */\n      0x64\n        /* \"CYBCC_flattened.sol\":29209:29216  sellFee */\n      sload(0x11)\n        /* \"CYBCC_flattened.sol\":29199:29205  amount */\n      dup4\n        /* \"CYBCC_flattened.sol\":29199:29217  amount * (sellFee) */\n      tag_405\n      swap2\n      swap1\n      tag_177\n      jump\t// in\n    tag_405:\n        /* \"CYBCC_flattened.sol\":29199:29225  amount * (sellFee) / (100) */\n      tag_406\n      swap2\n      swap1\n      tag_179\n      jump\t// in\n    tag_406:\n        /* \"CYBCC_flattened.sol\":29187:29225  taxAmount = amount * (sellFee) / (100) */\n      swap1\n      pop\n        /* \"CYBCC_flattened.sol\":29119:29240  if (to == uniswapV2Pair && from != address(this)) {... */\n    tag_404:\n        /* \"CYBCC_flattened.sol\":29303:29307  this */\n      address\n        /* \"CYBCC_flattened.sol\":29254:29282  uint256 contractTokenBalance */\n      0x00\n        /* \"CYBCC_flattened.sol\":8730:8748  _balances[account] */\n      swap1\n      dup2\n      mstore\n      0x20\n      dup2\n      swap1\n      mstore\n      0x40\n      swap1\n      keccak256\n      sload\n        /* \"CYBCC_flattened.sol\":29345:29351  inSwap */\n      sload(0x19)\n      shl(0xa8, 0x01)\n      swap1\n      div\n      0xff\n      and\n        /* \"CYBCC_flattened.sol\":29344:29351  !inSwap */\n      iszero\n        /* \"CYBCC_flattened.sol\":29344:29390  !inSwap &&... */\n      dup1\n      iszero\n      tag_408\n      jumpi\n      pop\n        /* \"CYBCC_flattened.sol\":29377:29390  uniswapV2Pair */\n      sload(0x19)\n      sub(shl(0xa0, 0x01), 0x01)\n        /* \"CYBCC_flattened.sol\":29371:29390  to == uniswapV2Pair */\n      dup6\n      dup2\n      and\n        /* \"CYBCC_flattened.sol\":29377:29390  uniswapV2Pair */\n      swap2\n      and\n        /* \"CYBCC_flattened.sol\":29371:29390  to == uniswapV2Pair */\n      eq\n        /* \"CYBCC_flattened.sol\":29344:29390  !inSwap &&... */\n    tag_408:\n        /* \"CYBCC_flattened.sol\":29344:29421  !inSwap &&... */\n      dup1\n      iszero\n      tag_409\n      jumpi\n      pop\n        /* \"CYBCC_flattened.sol\":29410:29421  swapEnabled */\n      sload(0x19)\n      shl(0xb0, 0x01)\n      swap1\n      div\n      0xff\n      and\n        /* \"CYBCC_flattened.sol\":29344:29421  !inSwap &&... */\n    tag_409:\n        /* \"CYBCC_flattened.sol\":29344:29476  !inSwap &&... */\n      dup1\n      iszero\n      tag_410\n      jumpi\n      pop\n        /* \"CYBCC_flattened.sol\":29464:29476  _swapbackMin */\n      sload(0x16)\n        /* \"CYBCC_flattened.sol\":29441:29461  contractTokenBalance */\n      dup2\n        /* \"CYBCC_flattened.sol\":29441:29476  contractTokenBalance > _swapbackMin */\n      gt\n        /* \"CYBCC_flattened.sol\":29344:29476  !inSwap &&... */\n    tag_410:\n        /* \"CYBCC_flattened.sol\":29344:29526  !inSwap &&... */\n      dup1\n      iszero\n      tag_411\n      jumpi\n      pop\n        /* \"CYBCC_flattened.sol\":29508:29526  _preventSwapBefore */\n      sload(0x12)\n        /* \"CYBCC_flattened.sol\":29496:29505  _buyCount */\n      sload(0x13)\n        /* \"CYBCC_flattened.sol\":29496:29526  _buyCount > _preventSwapBefore */\n      gt\n        /* \"CYBCC_flattened.sol\":29344:29526  !inSwap &&... */\n    tag_411:\n        /* \"CYBCC_flattened.sol\":29344:29585  !inSwap &&... */\n      dup1\n      iszero\n      tag_412\n      jumpi\n      pop\n        /* \"CYBCC_flattened.sol\":29546:29561  lastLiquifyTime */\n      sload(0x0f)\n        /* \"CYBCC_flattened.sol\":29572:29584  block.number */\n      number\n        /* \"CYBCC_flattened.sol\":29546:29585  lastLiquifyTime != uint64(block.number) */\n      0xffffffffffffffff\n      swap1\n      dup2\n      and\n        /* \"CYBCC_flattened.sol\":29546:29561  lastLiquifyTime */\n      swap2\n      and\n        /* \"CYBCC_flattened.sol\":29546:29585  lastLiquifyTime != uint64(block.number) */\n      eq\n      iszero\n        /* \"CYBCC_flattened.sol\":29344:29585  !inSwap &&... */\n    tag_412:\n        /* \"CYBCC_flattened.sol\":29323:29858  if (... */\n      iszero\n      tag_413\n      jumpi\n        /* \"CYBCC_flattened.sol\":29618:29675  swapTokensForEth(min(contractTokenBalance, _swapbackMax)) */\n      tag_414\n        /* \"CYBCC_flattened.sol\":29635:29674  min(contractTokenBalance, _swapbackMax) */\n      tag_415\n        /* \"CYBCC_flattened.sol\":29639:29659  contractTokenBalance */\n      dup3\n        /* \"CYBCC_flattened.sol\":29661:29673  _swapbackMax */\n      sload(0x17)\n        /* \"CYBCC_flattened.sol\":29635:29638  min */\n      tag_416\n        /* \"CYBCC_flattened.sol\":29635:29674  min(contractTokenBalance, _swapbackMax) */\n      jump\t// in\n    tag_415:\n        /* \"CYBCC_flattened.sol\":29618:29634  swapTokensForEth */\n      tag_288\n        /* \"CYBCC_flattened.sol\":29618:29675  swapTokensForEth(min(contractTokenBalance, _swapbackMax)) */\n      jump\t// in\n    tag_414:\n        /* \"CYBCC_flattened.sol\":29722:29743  address(this).balance */\n      selfbalance\n        /* \"CYBCC_flattened.sol\":29765:29787  contractETHBalance > 0 */\n      dup1\n      iszero\n        /* \"CYBCC_flattened.sol\":29761:29844  if (contractETHBalance > 0) {... */\n      tag_418\n      jumpi\n        /* \"CYBCC_flattened.sol\":29811:29825  sendETHToFee() */\n      tag_418\n        /* \"CYBCC_flattened.sol\":29811:29823  sendETHToFee */\n      tag_291\n        /* \"CYBCC_flattened.sol\":29811:29825  sendETHToFee() */\n      jump\t// in\n    tag_418:\n        /* \"CYBCC_flattened.sol\":29600:29858  {... */\n      pop\n        /* \"CYBCC_flattened.sol\":29323:29858  if (... */\n    tag_413:\n        /* \"CYBCC_flattened.sol\":28145:29868  {... */\n      pop\n        /* \"CYBCC_flattened.sol\":28096:29868  if (from != owner() && to != owner() && !inSwap) {... */\n    tag_371:\n        /* \"CYBCC_flattened.sol\":29882:29895  taxAmount > 0 */\n      dup1\n      iszero\n        /* \"CYBCC_flattened.sol\":29878:29969  if (taxAmount > 0) {... */\n      tag_420\n      jumpi\n        /* \"CYBCC_flattened.sol\":29911:29958  super._transfer(from, address(this), taxAmount) */\n      tag_420\n        /* \"CYBCC_flattened.sol\":29927:29931  from */\n      dup5\n        /* \"CYBCC_flattened.sol\":29941:29945  this */\n      address\n        /* \"CYBCC_flattened.sol\":29948:29957  taxAmount */\n      dup4\n        /* \"CYBCC_flattened.sol\":29911:29926  super._transfer */\n      tag_421\n        /* \"CYBCC_flattened.sol\":29911:29958  super._transfer(from, address(this), taxAmount) */\n      jump\t// in\n    tag_420:\n        /* \"CYBCC_flattened.sol\":29978:30025  super._transfer(from, to, amount - (taxAmount)) */\n      tag_207\n        /* \"CYBCC_flattened.sol\":29994:29998  from */\n      dup5\n        /* \"CYBCC_flattened.sol\":30000:30002  to */\n      dup5\n        /* \"CYBCC_flattened.sol\":30004:30024  amount - (taxAmount) */\n      tag_423\n        /* \"CYBCC_flattened.sol\":30014:30023  taxAmount */\n      dup5\n        /* \"CYBCC_flattened.sol\":30004:30010  amount */\n      dup7\n        /* \"CYBCC_flattened.sol\":30004:30024  amount - (taxAmount) */\n      tag_424\n      jump\t// in\n    tag_423:\n        /* \"CYBCC_flattened.sol\":29978:29993  super._transfer */\n      tag_421\n        /* \"CYBCC_flattened.sol\":29978:30025  super._transfer(from, to, amount - (taxAmount)) */\n      jump\t// in\n        /* \"CYBCC_flattened.sol\":13905:14111  function _burn(address account, uint256 value) internal {... */\n    tag_249:\n      sub(shl(0xa0, 0x01), 0x01)\n        /* \"CYBCC_flattened.sol\":13975:13996  account == address(0) */\n      dup3\n      and\n        /* \"CYBCC_flattened.sol\":13971:14060  if (account == address(0)) {... */\n      tag_426\n      jumpi\n        /* \"CYBCC_flattened.sol\":14019:14049  ERC20InvalidSender(address(0)) */\n      mload(0x40)\n      shl(0xe1, 0x4b637e8f)\n      dup2\n      mstore\n        /* \"CYBCC_flattened.sol\":14046:14047  0 */\n      0x00\n        /* \"CYBCC_flattened.sol\":14019:14049  ERC20InvalidSender(address(0)) */\n      0x04\n      dup3\n      add\n        /* \"#utility.yul\":1660:1711   */\n      mstore\n        /* \"#utility.yul\":1633:1651   */\n      0x24\n      add\n        /* \"CYBCC_flattened.sol\":14019:14049  ERC20InvalidSender(address(0)) */\n      tag_195\n        /* \"#utility.yul\":1488:1717   */\n      jump\n        /* \"CYBCC_flattened.sol\":13971:14060  if (account == address(0)) {... */\n    tag_426:\n        /* \"CYBCC_flattened.sol\":14069:14104  _update(account, address(0), value) */\n      tag_290\n        /* \"CYBCC_flattened.sol\":14077:14084  account */\n      dup3\n        /* \"CYBCC_flattened.sol\":14094:14095  0 */\n      0x00\n        /* \"CYBCC_flattened.sol\":14098:14103  value */\n      dup4\n        /* \"CYBCC_flattened.sol\":14069:14076  _update */\n      tag_429\n        /* \"CYBCC_flattened.sol\":14069:14104  _update(account, address(0), value) */\n      jump\t// in\n        /* \"CYBCC_flattened.sol\":19249:19436  function _transferOwnership(address newOwner) internal virtual {... */\n    tag_279:\n        /* \"CYBCC_flattened.sol\":19341:19347  _owner */\n      0x06\n      dup1\n      sload\n      sub(shl(0xa0, 0x01), 0x01)\n        /* \"CYBCC_flattened.sol\":19357:19374  _owner = newOwner */\n      dup4\n      dup2\n      and\n      not(sub(shl(0xa0, 0x01), 0x01))\n      dup4\n      and\n      dup2\n      or\n      swap1\n      swap4\n      sstore\n        /* \"CYBCC_flattened.sol\":19389:19429  OwnershipTransferred(oldOwner, newOwner) */\n      mload(0x40)\n        /* \"CYBCC_flattened.sol\":19341:19347  _owner */\n      swap2\n      and\n      swap2\n        /* \"CYBCC_flattened.sol\":19357:19374  _owner = newOwner */\n      swap1\n        /* \"CYBCC_flattened.sol\":19341:19347  _owner */\n      dup3\n      swap1\n        /* \"CYBCC_flattened.sol\":19389:19429  OwnershipTransferred(oldOwner, newOwner) */\n      0x8be0079c531659141344cd1fd0a4f28419497f9722a3daafe3b4186f6b6457e0\n      swap1\n        /* \"CYBCC_flattened.sol\":19322:19338  address oldOwner */\n      0x00\n      swap1\n        /* \"CYBCC_flattened.sol\":19389:19429  OwnershipTransferred(oldOwner, newOwner) */\n      log3\n        /* \"CYBCC_flattened.sol\":19312:19436  {... */\n      pop\n        /* \"CYBCC_flattened.sol\":19249:19436  function _transferOwnership(address newOwner) internal virtual {... */\n      pop\n      jump\t// out\n        /* \"CYBCC_flattened.sol\":30740:31259  function swapTokensForEth(uint256 tokenAmount) private lockTheSwap {... */\n    tag_288:\n        /* \"CYBCC_flattened.sol\":21909:21915  inSwap */\n      0x19\n        /* \"CYBCC_flattened.sol\":21909:21922  inSwap = true */\n      dup1\n      sload\n      not(shl(0xa8, 0xff))\n      and\n      shl(0xa8, 0x01)\n      or\n      swap1\n      sstore\n        /* \"CYBCC_flattened.sol\":30817:30832  lastLiquifyTime */\n      0x0f\n        /* \"CYBCC_flattened.sol\":30817:30855  lastLiquifyTime = uint64(block.number) */\n      dup1\n      sload\n      0xffffffffffffffff\n        /* \"CYBCC_flattened.sol\":30842:30854  block.number */\n      number\n        /* \"CYBCC_flattened.sol\":30817:30855  lastLiquifyTime = uint64(block.number) */\n      and\n      not(0xffffffffffffffff)\n      swap1\n      swap2\n      and\n      or\n      swap1\n      sstore\n        /* \"CYBCC_flattened.sol\":30889:30905  new address[](2) */\n      0x40\n      dup1\n      mload\n        /* \"CYBCC_flattened.sol\":30903:30904  2 */\n      0x02\n        /* \"CYBCC_flattened.sol\":30889:30905  new address[](2) */\n      dup1\n      dup3\n      mstore\n      0x60\n      dup3\n      add\n      dup4\n      mstore\n      0x00\n      swap3\n      0x20\n      dup4\n      add\n      swap1\n      dup1\n      calldatasize\n      dup4\n      calldatacopy\n      add\n      swap1\n      pop\n      pop\n        /* \"CYBCC_flattened.sol\":30865:30905  address[] memory path = new address[](2) */\n      swap1\n      pop\n        /* \"CYBCC_flattened.sol\":30933:30937  this */\n      address\n        /* \"CYBCC_flattened.sol\":30915:30919  path */\n      dup2\n        /* \"CYBCC_flattened.sol\":30920:30921  0 */\n      0x00\n        /* \"CYBCC_flattened.sol\":30915:30922  path[0] */\n      dup2\n      mload\n      dup2\n      lt\n      tag_438\n      jumpi\n      tag_438\n      tag_211\n      jump\t// in\n    tag_438:\n      sub(shl(0xa0, 0x01), 0x01)\n        /* \"CYBCC_flattened.sol\":30915:30938  path[0] = address(this) */\n      swap3\n      dup4\n      and\n        /* \"CYBCC_flattened.sol\":30915:30922  path[0] */\n      0x20\n      swap2\n      dup3\n      mul\n      swap3\n      swap1\n      swap3\n      add\n      dup2\n      add\n        /* \"CYBCC_flattened.sol\":30915:30938  path[0] = address(this) */\n      swap2\n      swap1\n      swap2\n      mstore\n        /* \"CYBCC_flattened.sol\":30958:30973  uniswapV2Router */\n      sload(0x18)\n        /* \"CYBCC_flattened.sol\":30958:30980  uniswapV2Router.WETH() */\n      0x40\n      dup1\n      mload\n      shl(0xe3, 0x15ab88c9)\n      dup2\n      mstore\n      swap1\n      mload\n        /* \"CYBCC_flattened.sol\":30958:30973  uniswapV2Router */\n      swap2\n      swap1\n      swap4\n      and\n      swap3\n        /* \"CYBCC_flattened.sol\":30958:30978  uniswapV2Router.WETH */\n      0xad5c4648\n      swap3\n        /* \"CYBCC_flattened.sol\":30958:30980  uniswapV2Router.WETH() */\n      0x04\n      dup1\n      dup4\n      add\n      swap4\n        /* \"CYBCC_flattened.sol\":30915:30922  path[0] */\n      swap2\n      swap3\n        /* \"CYBCC_flattened.sol\":30958:30980  uniswapV2Router.WETH() */\n      dup3\n      swap1\n      sub\n      add\n      dup2\n        /* \"CYBCC_flattened.sol\":30958:30973  uniswapV2Router */\n      dup7\n        /* \"CYBCC_flattened.sol\":30958:30980  uniswapV2Router.WETH() */\n      gas\n      staticcall\n      iszero\n      dup1\n      iszero\n      tag_440\n      jumpi\n      returndatacopy(0x00, 0x00, returndatasize)\n      revert(0x00, returndatasize)\n    tag_440:\n      pop\n      pop\n      pop\n      pop\n      mload(0x40)\n      returndatasize\n      not(0x1f)\n      0x1f\n      dup3\n      add\n      and\n      dup3\n      add\n      dup1\n      0x40\n      mstore\n      pop\n      dup2\n      add\n      swap1\n      tag_441\n      swap2\n      swap1\n      tag_442\n      jump\t// in\n    tag_441:\n        /* \"CYBCC_flattened.sol\":30948:30952  path */\n      dup2\n        /* \"CYBCC_flattened.sol\":30953:30954  1 */\n      0x01\n        /* \"CYBCC_flattened.sol\":30948:30955  path[1] */\n      dup2\n      mload\n      dup2\n      lt\n      tag_444\n      jumpi\n      tag_444\n      tag_211\n      jump\t// in\n    tag_444:\n      sub(shl(0xa0, 0x01), 0x01)\n        /* \"CYBCC_flattened.sol\":30948:30980  path[1] = uniswapV2Router.WETH() */\n      swap3\n      dup4\n      and\n        /* \"CYBCC_flattened.sol\":30948:30955  path[1] */\n      0x20\n      swap2\n      dup3\n      mul\n      swap3\n      swap1\n      swap3\n      add\n      add\n        /* \"CYBCC_flattened.sol\":30948:30980  path[1] = uniswapV2Router.WETH() */\n      mstore\n        /* \"CYBCC_flattened.sol\":31022:31037  uniswapV2Router */\n      sload(0x18)\n        /* \"CYBCC_flattened.sol\":30990:31052  _approve(address(this), address(uniswapV2Router), tokenAmount) */\n      tag_445\n      swap2\n        /* \"CYBCC_flattened.sol\":31007:31011  this */\n      address\n      swap2\n        /* \"CYBCC_flattened.sol\":31022:31037  uniswapV2Router */\n      and\n        /* \"CYBCC_flattened.sol\":31040:31051  tokenAmount */\n      dup5\n        /* \"CYBCC_flattened.sol\":30990:30998  _approve */\n      tag_201\n        /* \"CYBCC_flattened.sol\":30990:31052  _approve(address(this), address(uniswapV2Router), tokenAmount) */\n      jump\t// in\n    tag_445:\n        /* \"CYBCC_flattened.sol\":31062:31077  uniswapV2Router */\n      sload(0x18)\n        /* \"CYBCC_flattened.sol\":31062:31252  uniswapV2Router.swapExactTokensForETHSupportingFeeOnTransferTokens(... */\n      mload(0x40)\n      shl(0xe0, 0x791ac947)\n      dup2\n      mstore\n      sub(shl(0xa0, 0x01), 0x01)\n        /* \"CYBCC_flattened.sol\":31062:31077  uniswapV2Router */\n      swap1\n      swap2\n      and\n      swap1\n        /* \"CYBCC_flattened.sol\":31062:31128  uniswapV2Router.swapExactTokensForETHSupportingFeeOnTransferTokens */\n      0x791ac947\n      swap1\n        /* \"CYBCC_flattened.sol\":31062:31252  uniswapV2Router.swapExactTokensForETHSupportingFeeOnTransferTokens(... */\n      tag_446\n      swap1\n        /* \"CYBCC_flattened.sol\":31142:31153  tokenAmount */\n      dup6\n      swap1\n        /* \"CYBCC_flattened.sol\":31062:31077  uniswapV2Router */\n      0x00\n      swap1\n        /* \"CYBCC_flattened.sol\":31182:31186  path */\n      dup7\n      swap1\n        /* \"CYBCC_flattened.sol\":31208:31212  this */\n      address\n      swap1\n        /* \"CYBCC_flattened.sol\":31227:31242  block.timestamp */\n      timestamp\n      swap1\n        /* \"CYBCC_flattened.sol\":31062:31252  uniswapV2Router.swapExactTokensForETHSupportingFeeOnTransferTokens(... */\n      0x04\n      add\n      tag_447\n      jump\t// in\n    tag_446:\n      0x00\n      mload(0x40)\n      dup1\n      dup4\n      sub\n      dup2\n      0x00\n      dup8\n      dup1\n      extcodesize\n      iszero\n      dup1\n      iszero\n      tag_448\n      jumpi\n      revert(0x00, 0x00)\n    tag_448:\n      pop\n      gas\n      call\n      iszero\n      dup1\n      iszero\n      tag_450\n      jumpi\n      returndatacopy(0x00, 0x00, returndatasize)\n      revert(0x00, returndatasize)\n    tag_450:\n      pop\n      pop\n        /* \"CYBCC_flattened.sol\":21943:21949  inSwap */\n      0x19\n        /* \"CYBCC_flattened.sol\":21943:21957  inSwap = false */\n      dup1\n      sload\n      not(shl(0xa8, 0xff))\n      and\n      swap1\n      sstore\n      pop\n      pop\n      pop\n      pop\n        /* \"CYBCC_flattened.sol\":30740:31259  function swapTokensForEth(uint256 tokenAmount) private lockTheSwap {... */\n      jump\t// out\n        /* \"CYBCC_flattened.sol\":31265:31916  function sendETHToFee() private {... */\n    tag_291:\n        /* \"CYBCC_flattened.sol\":31307:31319  bool success */\n      0x00\n      dup1\n        /* \"CYBCC_flattened.sol\":31345:31370  address(this).balance / 8 */\n      tag_452\n        /* \"CYBCC_flattened.sol\":31369:31370  8 */\n      0x08\n        /* \"CYBCC_flattened.sol\":31345:31366  address(this).balance */\n      selfbalance\n        /* \"CYBCC_flattened.sol\":31345:31370  address(this).balance / 8 */\n      tag_179\n      jump\t// in\n    tag_452:\n        /* \"CYBCC_flattened.sol\":31402:31413  _taxWallet1 */\n      sload(0x08)\n        /* \"CYBCC_flattened.sol\":31394:31459  address(_taxWallet1).call{value: share}(... */\n      mload(0x40)\n        /* \"CYBCC_flattened.sol\":31329:31370  uint256 share = address(this).balance / 8 */\n      swap2\n      swap3\n      pop\n      sub(shl(0xa0, 0x01), 0x01)\n        /* \"CYBCC_flattened.sol\":31402:31413  _taxWallet1 */\n      and\n      swap1\n        /* \"CYBCC_flattened.sol\":31329:31370  uint256 share = address(this).balance / 8 */\n      dup3\n      swap1\n        /* \"CYBCC_flattened.sol\":31394:31459  address(_taxWallet1).call{value: share}(... */\n      0x00\n      dup2\n      dup2\n      dup2\n        /* \"CYBCC_flattened.sol\":31329:31370  uint256 share = address(this).balance / 8 */\n      dup6\n        /* \"CYBCC_flattened.sol\":31402:31413  _taxWallet1 */\n      dup8\n        /* \"CYBCC_flattened.sol\":31394:31459  address(_taxWallet1).call{value: share}(... */\n      gas\n      call\n      swap3\n      pop\n      pop\n      pop\n      returndatasize\n      dup1\n      0x00\n      dup2\n      eq\n      tag_457\n      jumpi\n      mload(0x40)\n      swap2\n      pop\n      and(add(returndatasize, 0x3f), not(0x1f))\n      dup3\n      add\n      0x40\n      mstore\n      returndatasize\n      dup3\n      mstore\n      returndatasize\n      0x00\n      0x20\n      dup5\n      add\n      returndatacopy\n      jump(tag_456)\n    tag_457:\n      0x60\n      swap2\n      pop\n    tag_456:\n      pop\n      pop\n        /* \"CYBCC_flattened.sol\":31491:31502  _taxWallet2 */\n      sload(0x09)\n        /* \"CYBCC_flattened.sol\":31483:31548  address(_taxWallet2).call{value: share}(... */\n      mload(0x40)\n        /* \"CYBCC_flattened.sol\":31380:31459  (success, ) = address(_taxWallet1).call{value: share}(... */\n      swap2\n      swap4\n      pop\n      sub(shl(0xa0, 0x01), 0x01)\n        /* \"CYBCC_flattened.sol\":31491:31502  _taxWallet2 */\n      and\n      swap1\n        /* \"CYBCC_flattened.sol\":31516:31521  share */\n      dup3\n      swap1\n        /* \"CYBCC_flattened.sol\":31483:31548  address(_taxWallet2).call{value: share}(... */\n      0x00\n      dup2\n      dup2\n      dup2\n        /* \"CYBCC_flattened.sol\":31516:31521  share */\n      dup6\n        /* \"CYBCC_flattened.sol\":31491:31502  _taxWallet2 */\n      dup8\n        /* \"CYBCC_flattened.sol\":31483:31548  address(_taxWallet2).call{value: share}(... */\n      gas\n      call\n      swap3\n      pop\n      pop\n      pop\n      returndatasize\n      dup1\n      0x00\n      dup2\n      eq\n      tag_461\n      jumpi\n      mload(0x40)\n      swap2\n      pop\n      and(add(returndatasize, 0x3f), not(0x1f))\n      dup3\n      add\n      0x40\n      mstore\n      returndatasize\n      dup3\n      mstore\n      returndatasize\n      0x00\n      0x20\n      dup5\n      add\n      returndatacopy\n      jump(tag_460)\n    tag_461:\n      0x60\n      swap2\n      pop\n    tag_460:\n      pop\n      pop\n        /* \"CYBCC_flattened.sol\":31580:31591  _taxWallet3 */\n      sload(0x0a)\n        /* \"CYBCC_flattened.sol\":31572:31637  address(_taxWallet3).call{value: share}(... */\n      mload(0x40)\n        /* \"CYBCC_flattened.sol\":31469:31548  (success, ) = address(_taxWallet2).call{value: share}(... */\n      swap2\n      swap4\n      pop\n      sub(shl(0xa0, 0x01), 0x01)\n        /* \"CYBCC_flattened.sol\":31580:31591  _taxWallet3 */\n      and\n      swap1\n        /* \"CYBCC_flattened.sol\":31605:31610  share */\n      dup3\n      swap1\n        /* \"CYBCC_flattened.sol\":31572:31637  address(_taxWallet3).call{value: share}(... */\n      0x00\n      dup2\n      dup2\n      dup2\n        /* \"CYBCC_flattened.sol\":31605:31610  share */\n      dup6\n        /* \"CYBCC_flattened.sol\":31580:31591  _taxWallet3 */\n      dup8\n        /* \"CYBCC_flattened.sol\":31572:31637  address(_taxWallet3).call{value: share}(... */\n      gas\n      call\n      swap3\n      pop\n      pop\n      pop\n      returndatasize\n      dup1\n      0x00\n      dup2\n      eq\n      tag_465\n      jumpi\n      mload(0x40)\n      swap2\n      pop\n      and(add(returndatasize, 0x3f), not(0x1f))\n      dup3\n      add\n      0x40\n      mstore\n      returndatasize\n      dup3\n      mstore\n      returndatasize\n      0x00\n      0x20\n      dup5\n      add\n      returndatacopy\n      jump(tag_464)\n    tag_465:\n      0x60\n      swap2\n      pop\n    tag_464:\n      pop\n      pop\n        /* \"CYBCC_flattened.sol\":31669:31680  _taxWallet4 */\n      sload(0x0b)\n        /* \"CYBCC_flattened.sol\":31661:31726  address(_taxWallet4).call{value: share}(... */\n      mload(0x40)\n        /* \"CYBCC_flattened.sol\":31558:31637  (success, ) = address(_taxWallet3).call{value: share}(... */\n      swap2\n      swap4\n      pop\n      sub(shl(0xa0, 0x01), 0x01)\n        /* \"CYBCC_flattened.sol\":31669:31680  _taxWallet4 */\n      and\n      swap1\n        /* \"CYBCC_flattened.sol\":31694:31699  share */\n      dup3\n      swap1\n        /* \"CYBCC_flattened.sol\":31661:31726  address(_taxWallet4).call{value: share}(... */\n      0x00\n      dup2\n      dup2\n      dup2\n        /* \"CYBCC_flattened.sol\":31694:31699  share */\n      dup6\n        /* \"CYBCC_flattened.sol\":31669:31680  _taxWallet4 */\n      dup8\n        /* \"CYBCC_flattened.sol\":31661:31726  address(_taxWallet4).call{value: share}(... */\n      gas\n      call\n      swap3\n      pop\n      pop\n      pop\n      returndatasize\n      dup1\n      0x00\n      dup2\n      eq\n      tag_469\n      jumpi\n      mload(0x40)\n      swap2\n      pop\n      and(add(returndatasize, 0x3f), not(0x1f))\n      dup3\n      add\n      0x40\n      mstore\n      returndatasize\n      dup3\n      mstore\n      returndatasize\n      0x00\n      0x20\n      dup5\n      add\n      returndatacopy\n      jump(tag_468)\n    tag_469:\n      0x60\n      swap2\n      pop\n    tag_468:\n      pop\n      pop\n        /* \"CYBCC_flattened.sol\":31758:31769  _taxWallet5 */\n      sload(0x0c)\n        /* \"CYBCC_flattened.sol\":31750:31815  address(_taxWallet5).call{value: share}(... */\n      mload(0x40)\n        /* \"CYBCC_flattened.sol\":31647:31726  (success, ) = address(_taxWallet4).call{value: share}(... */\n      swap2\n      swap4\n      pop\n      sub(shl(0xa0, 0x01), 0x01)\n        /* \"CYBCC_flattened.sol\":31758:31769  _taxWallet5 */\n      and\n      swap1\n        /* \"CYBCC_flattened.sol\":31783:31788  share */\n      dup3\n      swap1\n        /* \"CYBCC_flattened.sol\":31750:31815  address(_taxWallet5).call{value: share}(... */\n      0x00\n      dup2\n      dup2\n      dup2\n        /* \"CYBCC_flattened.sol\":31783:31788  share */\n      dup6\n        /* \"CYBCC_flattened.sol\":31758:31769  _taxWallet5 */\n      dup8\n        /* \"CYBCC_flattened.sol\":31750:31815  address(_taxWallet5).call{value: share}(... */\n      gas\n      call\n      swap3\n      pop\n      pop\n      pop\n      returndatasize\n      dup1\n      0x00\n      dup2\n      eq\n      tag_473\n      jumpi\n      mload(0x40)\n      swap2\n      pop\n      and(add(returndatasize, 0x3f), not(0x1f))\n      dup3\n      add\n      0x40\n      mstore\n      returndatasize\n      dup3\n      mstore\n      returndatasize\n      0x00\n      0x20\n      dup5\n      add\n      returndatacopy\n      jump(tag_472)\n    tag_473:\n      0x60\n      swap2\n      pop\n    tag_472:\n      pop\n      pop\n        /* \"CYBCC_flattened.sol\":31847:31858  _taxWallet6 */\n      sload(0x0d)\n        /* \"CYBCC_flattened.sol\":31839:31904  address(_taxWallet6).call{value: share}(... */\n      mload(0x40)\n        /* \"CYBCC_flattened.sol\":31736:31815  (success, ) = address(_taxWallet5).call{value: share}(... */\n      swap2\n      swap4\n      pop\n      sub(shl(0xa0, 0x01), 0x01)\n        /* \"CYBCC_flattened.sol\":31847:31858  _taxWallet6 */\n      and\n      swap1\n        /* \"CYBCC_flattened.sol\":31872:31877  share */\n      dup3\n      swap1\n        /* \"CYBCC_flattened.sol\":31839:31904  address(_taxWallet6).call{value: share}(... */\n      0x00\n      dup2\n      dup2\n      dup2\n        /* \"CYBCC_flattened.sol\":31872:31877  share */\n      dup6\n        /* \"CYBCC_flattened.sol\":31847:31858  _taxWallet6 */\n      dup8\n        /* \"CYBCC_flattened.sol\":31839:31904  address(_taxWallet6).call{value: share}(... */\n      gas\n      call\n      swap3\n      pop\n      pop\n      pop\n      returndatasize\n      dup1\n      0x00\n      dup2\n      eq\n      tag_477\n      jumpi\n      mload(0x40)\n      swap2\n      pop\n      and(add(returndatasize, 0x3f), not(0x1f))\n      dup3\n      add\n      0x40\n      mstore\n      returndatasize\n      dup3\n      mstore\n      returndatasize\n      0x00\n      0x20\n      dup5\n      add\n      returndatacopy\n      jump(tag_476)\n    tag_477:\n      0x60\n      swap2\n      pop\n    tag_476:\n      pop\n      pop\n      pop\n      pop\n      pop\n        /* \"CYBCC_flattened.sol\":31265:31916  function sendETHToFee() private {... */\n      jump\t// out\n        /* \"CYBCC_flattened.sol\":13379:13587  function _mint(address account, uint256 value) internal {... */\n    tag_308:\n      sub(shl(0xa0, 0x01), 0x01)\n        /* \"CYBCC_flattened.sol\":13449:13470  account == address(0) */\n      dup3\n      and\n        /* \"CYBCC_flattened.sol\":13445:13536  if (account == address(0)) {... */\n      tag_479\n      jumpi\n        /* \"CYBCC_flattened.sol\":13493:13525  ERC20InvalidReceiver(address(0)) */\n      mload(0x40)\n      shl(0xe0, 0xec442f05)\n      dup2\n      mstore\n        /* \"CYBCC_flattened.sol\":13522:13523  0 */\n      0x00\n        /* \"CYBCC_flattened.sol\":13493:13525  ERC20InvalidReceiver(address(0)) */\n      0x04\n      dup3\n      add\n        /* \"#utility.yul\":1660:1711   */\n      mstore\n        /* \"#utility.yul\":1633:1651   */\n      0x24\n      add\n        /* \"CYBCC_flattened.sol\":13493:13525  ERC20InvalidReceiver(address(0)) */\n      tag_195\n        /* \"#utility.yul\":1488:1717   */\n      jump\n        /* \"CYBCC_flattened.sol\":13445:13536  if (account == address(0)) {... */\n    tag_479:\n        /* \"CYBCC_flattened.sol\":13545:13580  _update(address(0), account, value) */\n      tag_290\n        /* \"CYBCC_flattened.sol\":13561:13562  0 */\n      0x00\n        /* \"CYBCC_flattened.sol\":13565:13572  account */\n      dup4\n        /* \"CYBCC_flattened.sol\":13574:13579  value */\n      dup4\n        /* \"CYBCC_flattened.sol\":13545:13552  _update */\n      tag_429\n        /* \"CYBCC_flattened.sol\":13545:13580  _update(address(0), account, value) */\n      jump\t// in\n        /* \"CYBCC_flattened.sol\":15637:16107  function _approve(... */\n    tag_349:\n      sub(shl(0xa0, 0x01), 0x01)\n        /* \"CYBCC_flattened.sol\":15787:15806  owner == address(0) */\n      dup5\n      and\n        /* \"CYBCC_flattened.sol\":15783:15872  if (owner == address(0)) {... */\n      tag_483\n      jumpi\n        /* \"CYBCC_flattened.sol\":15829:15861  ERC20InvalidApprover(address(0)) */\n      mload(0x40)\n      shl(0xe0, 0xe602df05)\n      dup2\n      mstore\n        /* \"CYBCC_flattened.sol\":15858:15859  0 */\n      0x00\n        /* \"CYBCC_flattened.sol\":15829:15861  ERC20InvalidApprover(address(0)) */\n      0x04\n      dup3\n      add\n        /* \"#utility.yul\":1660:1711   */\n      mstore\n        /* \"#utility.yul\":1633:1651   */\n      0x24\n      add\n        /* \"CYBCC_flattened.sol\":15829:15861  ERC20InvalidApprover(address(0)) */\n      tag_195\n        /* \"#utility.yul\":1488:1717   */\n      jump\n        /* \"CYBCC_flattened.sol\":15783:15872  if (owner == address(0)) {... */\n    tag_483:\n      sub(shl(0xa0, 0x01), 0x01)\n        /* \"CYBCC_flattened.sol\":15885:15906  spender == address(0) */\n      dup4\n      and\n        /* \"CYBCC_flattened.sol\":15881:15971  if (spender == address(0)) {... */\n      tag_485\n      jumpi\n        /* \"CYBCC_flattened.sol\":15929:15960  ERC20InvalidSpender(address(0)) */\n      mload(0x40)\n      shl(0xe1, 0x4a1406b1)\n      dup2\n      mstore\n        /* \"CYBCC_flattened.sol\":15957:15958  0 */\n      0x00\n        /* \"CYBCC_flattened.sol\":15929:15960  ERC20InvalidSpender(address(0)) */\n      0x04\n      dup3\n      add\n        /* \"#utility.yul\":1660:1711   */\n      mstore\n        /* \"#utility.yul\":1633:1651   */\n      0x24\n      add\n        /* \"CYBCC_flattened.sol\":15929:15960  ERC20InvalidSpender(address(0)) */\n      tag_195\n        /* \"#utility.yul\":1488:1717   */\n      jump\n        /* \"CYBCC_flattened.sol\":15881:15971  if (spender == address(0)) {... */\n    tag_485:\n      sub(shl(0xa0, 0x01), 0x01)\n        /* \"CYBCC_flattened.sol\":15980:15998  _allowances[owner] */\n      dup1\n      dup6\n      and\n      0x00\n      swap1\n      dup2\n      mstore\n        /* \"CYBCC_flattened.sol\":15980:15991  _allowances */\n      0x01\n        /* \"CYBCC_flattened.sol\":15980:15998  _allowances[owner] */\n      0x20\n      swap1\n      dup2\n      mstore\n      0x40\n      dup1\n      dup4\n      keccak256\n        /* \"CYBCC_flattened.sol\":15980:16007  _allowances[owner][spender] */\n      swap4\n      dup8\n      and\n      dup4\n      mstore\n      swap3\n      swap1\n      mstore\n      keccak256\n        /* \"CYBCC_flattened.sol\":15980:16015  _allowances[owner][spender] = value */\n      dup3\n      swap1\n      sstore\n        /* \"CYBCC_flattened.sol\":16025:16101  if (emitEvent) {... */\n      dup1\n      iszero\n      tag_207\n      jumpi\n        /* \"CYBCC_flattened.sol\":16075:16082  spender */\n      dup3\n      sub(shl(0xa0, 0x01), 0x01)\n        /* \"CYBCC_flattened.sol\":16059:16090  Approval(owner, spender, value) */\n      and\n        /* \"CYBCC_flattened.sol\":16068:16073  owner */\n      dup5\n      sub(shl(0xa0, 0x01), 0x01)\n        /* \"CYBCC_flattened.sol\":16059:16090  Approval(owner, spender, value) */\n      and\n      0x8c5be1e5ebec7d5bd14f71427d1e84f3dd0314c0f7b2291e5b200ac8c7c3b925\n        /* \"CYBCC_flattened.sol\":16084:16089  value */\n      dup5\n        /* \"CYBCC_flattened.sol\":16059:16090  Approval(owner, spender, value) */\n      mload(0x40)\n      tag_488\n      swap2\n        /* \"#utility.yul\":1868:1893   */\n      dup2\n      mstore\n        /* \"#utility.yul\":1856:1858   */\n      0x20\n        /* \"#utility.yul\":1841:1859   */\n      add\n      swap1\n        /* \"#utility.yul\":1722:1899   */\n      jump\n        /* \"CYBCC_flattened.sol\":16059:16090  Approval(owner, spender, value) */\n    tag_488:\n      mload(0x40)\n      dup1\n      swap2\n      sub\n      swap1\n      log3\n        /* \"CYBCC_flattened.sol\":15637:16107  function _approve(... */\n      pop\n      pop\n      pop\n      pop\n      jump\t// out\n        /* \"CYBCC_flattened.sol\":30038:30143  function min(uint256 a, uint256 b) private pure returns (uint256) {... */\n    tag_416:\n        /* \"CYBCC_flattened.sol\":30095:30102  uint256 */\n      0x00\n        /* \"CYBCC_flattened.sol\":30126:30127  b */\n      dup2\n        /* \"CYBCC_flattened.sol\":30122:30123  a */\n      dup4\n        /* \"CYBCC_flattened.sol\":30122:30127  a > b */\n      gt\n        /* \"CYBCC_flattened.sol\":30121:30136  (a > b) ? b : a */\n      tag_491\n      jumpi\n        /* \"CYBCC_flattened.sol\":30135:30136  a */\n      dup3\n        /* \"CYBCC_flattened.sol\":30121:30136  (a > b) ? b : a */\n      jump(tag_492)\n    tag_491:\n        /* \"CYBCC_flattened.sol\":30131:30132  b */\n      dup2\n        /* \"CYBCC_flattened.sol\":30121:30136  (a > b) ? b : a */\n    tag_492:\n        /* \"CYBCC_flattened.sol\":30114:30136  return (a > b) ? b : a */\n      swap4\n        /* \"CYBCC_flattened.sol\":30038:30143  function min(uint256 a, uint256 b) private pure returns (uint256) {... */\n      swap3\n      pop\n      pop\n      pop\n      jump\t// out\n        /* \"CYBCC_flattened.sol\":11090:11584  function _transfer(... */\n    tag_421:\n      sub(shl(0xa0, 0x01), 0x01)\n        /* \"CYBCC_flattened.sol\":11212:11230  from == address(0) */\n      dup4\n      and\n        /* \"CYBCC_flattened.sol\":11208:11294  if (from == address(0)) {... */\n      tag_494\n      jumpi\n        /* \"CYBCC_flattened.sol\":11253:11283  ERC20InvalidSender(address(0)) */\n      mload(0x40)\n      shl(0xe1, 0x4b637e8f)\n      dup2\n      mstore\n        /* \"CYBCC_flattened.sol\":11280:11281  0 */\n      0x00\n        /* \"CYBCC_flattened.sol\":11253:11283  ERC20InvalidSender(address(0)) */\n      0x04\n      dup3\n      add\n        /* \"#utility.yul\":1660:1711   */\n      mstore\n        /* \"#utility.yul\":1633:1651   */\n      0x24\n      add\n        /* \"CYBCC_flattened.sol\":11253:11283  ERC20InvalidSender(address(0)) */\n      tag_195\n        /* \"#utility.yul\":1488:1717   */\n      jump\n        /* \"CYBCC_flattened.sol\":11208:11294  if (from == address(0)) {... */\n    tag_494:\n      sub(shl(0xa0, 0x01), 0x01)\n        /* \"CYBCC_flattened.sol\":11307:11323  to == address(0) */\n      dup3\n      and\n        /* \"CYBCC_flattened.sol\":11303:11389  if (to == address(0)) {... */\n      tag_496\n      jumpi\n        /* \"CYBCC_flattened.sol\":11346:11378  ERC20InvalidReceiver(address(0)) */\n      mload(0x40)\n      shl(0xe0, 0xec442f05)\n      dup2\n      mstore\n        /* \"CYBCC_flattened.sol\":11375:11376  0 */\n      0x00\n        /* \"CYBCC_flattened.sol\":11346:11378  ERC20InvalidReceiver(address(0)) */\n      0x04\n      dup3\n      add\n        /* \"#utility.yul\":1660:1711   */\n      mstore\n        /* \"#utility.yul\":1633:1651   */\n      0x24\n      add\n        /* \"CYBCC_flattened.sol\":11346:11378  ERC20InvalidReceiver(address(0)) */\n      tag_195\n        /* \"#utility.yul\":1488:1717   */\n      jump\n        /* \"CYBCC_flattened.sol\":11303:11389  if (to == address(0)) {... */\n    tag_496:\n        /* \"CYBCC_flattened.sol\":11410:11416  _owner */\n      sload(0x05)\n      sub(shl(0xa0, 0x01), 0x01)\n        /* \"CYBCC_flattened.sol\":11402:11416  from != _owner */\n      dup5\n      dup2\n      and\n        /* \"CYBCC_flattened.sol\":11410:11416  _owner */\n      swap2\n      and\n        /* \"CYBCC_flattened.sol\":11402:11416  from != _owner */\n      eq\n        /* \"CYBCC_flattened.sol\":11398:11544  if (from != _owner) {... */\n      tag_498\n      jumpi\n        /* \"CYBCC_flattened.sol\":11432:11449  uint256 burnValue */\n      0x00\n        /* \"CYBCC_flattened.sol\":11452:11463  value / 100 */\n      tag_499\n        /* \"CYBCC_flattened.sol\":11460:11463  100 */\n      0x64\n        /* \"CYBCC_flattened.sol\":11452:11457  value */\n      dup4\n        /* \"CYBCC_flattened.sol\":11452:11463  value / 100 */\n      tag_179\n      jump\t// in\n    tag_499:\n        /* \"CYBCC_flattened.sol\":11432:11463  uint256 burnValue = value / 100 */\n      swap1\n      pop\n        /* \"CYBCC_flattened.sol\":11477:11495  value -= burnValue */\n      tag_500\n        /* \"CYBCC_flattened.sol\":11432:11463  uint256 burnValue = value / 100 */\n      dup2\n        /* \"CYBCC_flattened.sol\":11477:11495  value -= burnValue */\n      dup4\n      tag_424\n      jump\t// in\n    tag_500:\n        /* \"CYBCC_flattened.sol\":11515:11521  _owner */\n      sload(0x05)\n        /* \"CYBCC_flattened.sol\":11477:11495  value -= burnValue */\n      swap1\n      swap3\n      pop\n        /* \"CYBCC_flattened.sol\":11509:11533  _burn(_owner, burnValue) */\n      tag_501\n      swap1\n      sub(shl(0xa0, 0x01), 0x01)\n        /* \"CYBCC_flattened.sol\":11515:11521  _owner */\n      and\n        /* \"CYBCC_flattened.sol\":11523:11532  burnValue */\n      dup3\n        /* \"CYBCC_flattened.sol\":11509:11514  _burn */\n      tag_249\n        /* \"CYBCC_flattened.sol\":11509:11533  _burn(_owner, burnValue) */\n      jump\t// in\n    tag_501:\n        /* \"CYBCC_flattened.sol\":11418:11544  {... */\n      pop\n        /* \"CYBCC_flattened.sol\":11398:11544  if (from != _owner) {... */\n    tag_498:\n        /* \"CYBCC_flattened.sol\":11553:11577  _update(from, to, value) */\n      tag_231\n        /* \"CYBCC_flattened.sol\":11561:11565  from */\n      dup4\n        /* \"CYBCC_flattened.sol\":11567:11569  to */\n      dup4\n        /* \"CYBCC_flattened.sol\":11571:11576  value */\n      dup4\n        /* \"CYBCC_flattened.sol\":11899:13036  function _update(... */\n    tag_429:\n      sub(shl(0xa0, 0x01), 0x01)\n        /* \"CYBCC_flattened.sol\":12018:12036  from == address(0) */\n      dup4\n      and\n        /* \"CYBCC_flattened.sol\":12014:12554  if (from == address(0)) {... */\n      tag_504\n      jumpi\n        /* \"CYBCC_flattened.sol\":12170:12175  value */\n      dup1\n        /* \"CYBCC_flattened.sol\":12154:12166  _totalSupply */\n      0x02\n      0x00\n        /* \"CYBCC_flattened.sol\":12154:12175  _totalSupply += value */\n      dup3\n      dup3\n      sload\n      tag_505\n      swap2\n      swap1\n      tag_302\n      jump\t// in\n    tag_505:\n      swap1\n      swap2\n      sstore\n      pop\n        /* \"CYBCC_flattened.sol\":12014:12554  if (from == address(0)) {... */\n      tag_506\n      swap1\n      pop\n      jump\n    tag_504:\n      sub(shl(0xa0, 0x01), 0x01)\n        /* \"CYBCC_flattened.sol\":12228:12243  _balances[from] */\n      dup4\n      and\n        /* \"CYBCC_flattened.sol\":12206:12225  uint256 fromBalance */\n      0x00\n        /* \"CYBCC_flattened.sol\":12228:12243  _balances[from] */\n      swap1\n      dup2\n      mstore\n      0x20\n      dup2\n      swap1\n      mstore\n      0x40\n      swap1\n      keccak256\n      sload\n        /* \"CYBCC_flattened.sol\":12261:12280  fromBalance < value */\n      dup2\n      dup2\n      lt\n        /* \"CYBCC_flattened.sol\":12257:12372  if (fromBalance < value) {... */\n      iszero\n      tag_507\n      jumpi\n        /* \"CYBCC_flattened.sol\":12307:12357  ERC20InsufficientBalance(from, fromBalance, value) */\n      mload(0x40)\n      shl(0xe2, 0x391434e3)\n      dup2\n      mstore\n      sub(shl(0xa0, 0x01), 0x01)\n        /* \"#utility.yul\":12373:12405   */\n      dup6\n      and\n        /* \"CYBCC_flattened.sol\":12307:12357  ERC20InsufficientBalance(from, fromBalance, value) */\n      0x04\n      dup3\n      add\n        /* \"#utility.yul\":12355:12406   */\n      mstore\n        /* \"#utility.yul\":12422:12440   */\n      0x24\n      dup2\n      add\n        /* \"#utility.yul\":12415:12449   */\n      dup3\n      swap1\n      mstore\n        /* \"#utility.yul\":12465:12483   */\n      0x44\n      dup2\n      add\n        /* \"#utility.yul\":12458:12492   */\n      dup4\n      swap1\n      mstore\n        /* \"#utility.yul\":12328:12346   */\n      0x64\n      add\n        /* \"CYBCC_flattened.sol\":12307:12357  ERC20InsufficientBalance(from, fromBalance, value) */\n      tag_195\n        /* \"#utility.yul\":12153:12498   */\n      jump\n        /* \"CYBCC_flattened.sol\":12257:12372  if (fromBalance < value) {... */\n    tag_507:\n      sub(shl(0xa0, 0x01), 0x01)\n        /* \"CYBCC_flattened.sol\":12492:12507  _balances[from] */\n      dup5\n      and\n        /* \"CYBCC_flattened.sol\":12492:12501  _balances */\n      0x00\n        /* \"CYBCC_flattened.sol\":12492:12507  _balances[from] */\n      swap1\n      dup2\n      mstore\n      0x20\n      dup2\n      swap1\n      mstore\n      0x40\n      swap1\n      keccak256\n        /* \"CYBCC_flattened.sol\":12510:12529  fromBalance - value */\n      swap1\n      dup3\n      swap1\n      sub\n        /* \"CYBCC_flattened.sol\":12492:12529  _balances[from] = fromBalance - value */\n      swap1\n      sstore\n        /* \"CYBCC_flattened.sol\":12014:12554  if (from == address(0)) {... */\n    tag_506:\n      sub(shl(0xa0, 0x01), 0x01)\n        /* \"CYBCC_flattened.sol\":12568:12584  to == address(0) */\n      dup3\n      and\n        /* \"CYBCC_flattened.sol\":12564:12989  if (to == address(0)) {... */\n      tag_509\n      jumpi\n        /* \"CYBCC_flattened.sol\":12731:12743  _totalSupply */\n      0x02\n        /* \"CYBCC_flattened.sol\":12731:12752  _totalSupply -= value */\n      dup1\n      sload\n      dup3\n      swap1\n      sub\n      swap1\n      sstore\n        /* \"CYBCC_flattened.sol\":12564:12989  if (to == address(0)) {... */\n      jump(tag_510)\n    tag_509:\n      sub(shl(0xa0, 0x01), 0x01)\n        /* \"CYBCC_flattened.sol\":12942:12955  _balances[to] */\n      dup3\n      and\n        /* \"CYBCC_flattened.sol\":12942:12951  _balances */\n      0x00\n        /* \"CYBCC_flattened.sol\":12942:12955  _balances[to] */\n      swap1\n      dup2\n      mstore\n      0x20\n      dup2\n      swap1\n      mstore\n      0x40\n      swap1\n      keccak256\n        /* \"CYBCC_flattened.sol\":12942:12964  _balances[to] += value */\n      dup1\n      sload\n      dup3\n      add\n      swap1\n      sstore\n        /* \"CYBCC_flattened.sol\":12564:12989  if (to == address(0)) {... */\n    tag_510:\n        /* \"CYBCC_flattened.sol\":13019:13021  to */\n      dup2\n      sub(shl(0xa0, 0x01), 0x01)\n        /* \"CYBCC_flattened.sol\":13004:13029  Transfer(from, to, value) */\n      and\n        /* \"CYBCC_flattened.sol\":13013:13017  from */\n      dup4\n      sub(shl(0xa0, 0x01), 0x01)\n        /* \"CYBCC_flattened.sol\":13004:13029  Transfer(from, to, value) */\n      and\n      0xddf252ad1be2c89b69c2b068fc378daa952ba7f163c4a11628f55a4df523b3ef\n        /* \"CYBCC_flattened.sol\":13023:13028  value */\n      dup4\n        /* \"CYBCC_flattened.sol\":13004:13029  Transfer(from, to, value) */\n      mload(0x40)\n      tag_511\n      swap2\n        /* \"#utility.yul\":1868:1893   */\n      dup2\n      mstore\n        /* \"#utility.yul\":1856:1858   */\n      0x20\n        /* \"#utility.yul\":1841:1859   */\n      add\n      swap1\n        /* \"#utility.yul\":1722:1899   */\n      jump\n        /* \"CYBCC_flattened.sol\":13004:13029  Transfer(from, to, value) */\n    tag_511:\n      mload(0x40)\n      dup1\n      swap2\n      sub\n      swap1\n      log3\n        /* \"CYBCC_flattened.sol\":11899:13036  function _update(... */\n      pop\n      pop\n      pop\n      jump\t// out\n        /* \"#utility.yul\":14:360   */\n    tag_44:\n        /* \"#utility.yul\":82:88   */\n      0x00\n        /* \"#utility.yul\":90:96   */\n      0x00\n        /* \"#utility.yul\":143:145   */\n      0x40\n        /* \"#utility.yul\":131:140   */\n      dup4\n        /* \"#utility.yul\":122:129   */\n      dup6\n        /* \"#utility.yul\":118:141   */\n      sub\n        /* \"#utility.yul\":114:146   */\n      slt\n        /* \"#utility.yul\":111:163   */\n      iszero\n      tag_517\n      jumpi\n        /* \"#utility.yul\":159:160   */\n      0x00\n        /* \"#utility.yul\":156:157   */\n      0x00\n        /* \"#utility.yul\":149:161   */\n      revert\n        /* \"#utility.yul\":111:163   */\n    tag_517:\n      pop\n      pop\n        /* \"#utility.yul\":204:227   */\n      dup1\n      calldataload\n      swap3\n        /* \"#utility.yul\":324:326   */\n      0x20\n        /* \"#utility.yul\":309:327   */\n      swap1\n      swap2\n      add\n        /* \"#utility.yul\":296:328   */\n      calldataload\n      swap2\n      pop\n        /* \"#utility.yul\":14:360   */\n      jump\t// out\n        /* \"#utility.yul\":365:783   */\n    tag_50:\n        /* \"#utility.yul\":514:516   */\n      0x20\n        /* \"#utility.yul\":503:512   */\n      dup2\n        /* \"#utility.yul\":496:517   */\n      mstore\n        /* \"#utility.yul\":477:481   */\n      0x00\n        /* \"#utility.yul\":546:552   */\n      dup3\n        /* \"#utility.yul\":540:553   */\n      mload\n        /* \"#utility.yul\":589:595   */\n      dup1\n        /* \"#utility.yul\":584:586   */\n      0x20\n        /* \"#utility.yul\":573:582   */\n      dup5\n        /* \"#utility.yul\":569:587   */\n      add\n        /* \"#utility.yul\":562:596   */\n      mstore\n        /* \"#utility.yul\":648:654   */\n      dup1\n        /* \"#utility.yul\":643:645   */\n      0x20\n        /* \"#utility.yul\":635:641   */\n      dup6\n        /* \"#utility.yul\":631:646   */\n      add\n        /* \"#utility.yul\":626:628   */\n      0x40\n        /* \"#utility.yul\":615:624   */\n      dup6\n        /* \"#utility.yul\":611:629   */\n      add\n        /* \"#utility.yul\":605:655   */\n      mcopy\n        /* \"#utility.yul\":704:705   */\n      0x00\n        /* \"#utility.yul\":699:701   */\n      0x40\n        /* \"#utility.yul\":690:696   */\n      dup3\n        /* \"#utility.yul\":679:688   */\n      dup6\n        /* \"#utility.yul\":675:697   */\n      add\n        /* \"#utility.yul\":671:702   */\n      add\n        /* \"#utility.yul\":664:706   */\n      mstore\n        /* \"#utility.yul\":774:776   */\n      0x40\n        /* \"#utility.yul\":767:769   */\n      0x1f\n        /* \"#utility.yul\":763:770   */\n      not\n        /* \"#utility.yul\":758:760   */\n      0x1f\n        /* \"#utility.yul\":750:756   */\n      dup4\n        /* \"#utility.yul\":746:761   */\n      add\n        /* \"#utility.yul\":742:771   */\n      and\n        /* \"#utility.yul\":731:740   */\n      dup5\n        /* \"#utility.yul\":727:772   */\n      add\n        /* \"#utility.yul\":723:777   */\n      add\n        /* \"#utility.yul\":715:777   */\n      swap2\n      pop\n      pop\n        /* \"#utility.yul\":365:783   */\n      swap3\n      swap2\n      pop\n      pop\n      jump\t// out\n        /* \"#utility.yul\":788:919   */\n    tag_512:\n      sub(shl(0xa0, 0x01), 0x01)\n        /* \"#utility.yul\":863:894   */\n      dup2\n      and\n        /* \"#utility.yul\":853:895   */\n      dup2\n      eq\n        /* \"#utility.yul\":843:913   */\n      tag_247\n      jumpi\n        /* \"#utility.yul\":909:910   */\n      0x00\n        /* \"#utility.yul\":906:907   */\n      0x00\n        /* \"#utility.yul\":899:911   */\n      revert\n        /* \"#utility.yul\":924:1291   */\n    tag_57:\n        /* \"#utility.yul\":992:998   */\n      0x00\n        /* \"#utility.yul\":1000:1006   */\n      0x00\n        /* \"#utility.yul\":1053:1055   */\n      0x40\n        /* \"#utility.yul\":1041:1050   */\n      dup4\n        /* \"#utility.yul\":1032:1039   */\n      dup6\n        /* \"#utility.yul\":1028:1051   */\n      sub\n        /* \"#utility.yul\":1024:1056   */\n      slt\n        /* \"#utility.yul\":1021:1073   */\n      iszero\n      tag_522\n      jumpi\n        /* \"#utility.yul\":1069:1070   */\n      0x00\n        /* \"#utility.yul\":1066:1067   */\n      0x00\n        /* \"#utility.yul\":1059:1071   */\n      revert\n        /* \"#utility.yul\":1021:1073   */\n    tag_522:\n        /* \"#utility.yul\":1108:1117   */\n      dup3\n        /* \"#utility.yul\":1095:1118   */\n      calldataload\n        /* \"#utility.yul\":1127:1158   */\n      tag_523\n        /* \"#utility.yul\":1152:1157   */\n      dup2\n        /* \"#utility.yul\":1127:1158   */\n      tag_512\n      jump\t// in\n    tag_523:\n        /* \"#utility.yul\":1177:1182   */\n      swap5\n        /* \"#utility.yul\":1255:1257   */\n      0x20\n        /* \"#utility.yul\":1240:1258   */\n      swap4\n      swap1\n      swap4\n      add\n        /* \"#utility.yul\":1227:1259   */\n      calldataload\n      swap4\n      pop\n      pop\n      pop\n        /* \"#utility.yul\":924:1291   */\n      jump\t// out\n        /* \"#utility.yul\":1904:2064   */\n    tag_513:\n        /* \"#utility.yul\":1969:1989   */\n      dup1\n      calldataload\n        /* \"#utility.yul\":2025:2038   */\n      dup1\n      iszero\n        /* \"#utility.yul\":2018:2039   */\n      iszero\n        /* \"#utility.yul\":2008:2040   */\n      dup2\n      eq\n        /* \"#utility.yul\":1998:2058   */\n      tag_528\n      jumpi\n        /* \"#utility.yul\":2054:2055   */\n      0x00\n        /* \"#utility.yul\":2051:2052   */\n      0x00\n        /* \"#utility.yul\":2044:2056   */\n      revert\n        /* \"#utility.yul\":1998:2058   */\n    tag_528:\n        /* \"#utility.yul\":1904:2064   */\n      swap2\n      swap1\n      pop\n      jump\t// out\n        /* \"#utility.yul\":2069:2753   */\n    tag_74:\n        /* \"#utility.yul\":2161:2167   */\n      0x00\n        /* \"#utility.yul\":2169:2175   */\n      0x00\n        /* \"#utility.yul\":2177:2183   */\n      0x00\n        /* \"#utility.yul\":2230:2232   */\n      0x40\n        /* \"#utility.yul\":2218:2227   */\n      dup5\n        /* \"#utility.yul\":2209:2216   */\n      dup7\n        /* \"#utility.yul\":2205:2228   */\n      sub\n        /* \"#utility.yul\":2201:2233   */\n      slt\n        /* \"#utility.yul\":2198:2250   */\n      iszero\n      tag_530\n      jumpi\n        /* \"#utility.yul\":2246:2247   */\n      0x00\n        /* \"#utility.yul\":2243:2244   */\n      0x00\n        /* \"#utility.yul\":2236:2248   */\n      revert\n        /* \"#utility.yul\":2198:2250   */\n    tag_530:\n        /* \"#utility.yul\":2286:2295   */\n      dup4\n        /* \"#utility.yul\":2273:2296   */\n      calldataload\n        /* \"#utility.yul\":2319:2337   */\n      0xffffffffffffffff\n        /* \"#utility.yul\":2311:2317   */\n      dup2\n        /* \"#utility.yul\":2308:2338   */\n      gt\n        /* \"#utility.yul\":2305:2355   */\n      iszero\n      tag_531\n      jumpi\n        /* \"#utility.yul\":2351:2352   */\n      0x00\n        /* \"#utility.yul\":2348:2349   */\n      0x00\n        /* \"#utility.yul\":2341:2353   */\n      revert\n        /* \"#utility.yul\":2305:2355   */\n    tag_531:\n        /* \"#utility.yul\":2374:2396   */\n      dup5\n      add\n        /* \"#utility.yul\":2427:2431   */\n      0x1f\n        /* \"#utility.yul\":2419:2432   */\n      dup2\n      add\n        /* \"#utility.yul\":2415:2442   */\n      dup7\n      sgt\n        /* \"#utility.yul\":2405:2460   */\n      tag_532\n      jumpi\n        /* \"#utility.yul\":2456:2457   */\n      0x00\n        /* \"#utility.yul\":2453:2454   */\n      0x00\n        /* \"#utility.yul\":2446:2458   */\n      revert\n        /* \"#utility.yul\":2405:2460   */\n    tag_532:\n        /* \"#utility.yul\":2496:2498   */\n      dup1\n        /* \"#utility.yul\":2483:2499   */\n      calldataload\n        /* \"#utility.yul\":2522:2540   */\n      0xffffffffffffffff\n        /* \"#utility.yul\":2514:2520   */\n      dup2\n        /* \"#utility.yul\":2511:2541   */\n      gt\n        /* \"#utility.yul\":2508:2558   */\n      iszero\n      tag_533\n      jumpi\n        /* \"#utility.yul\":2554:2555   */\n      0x00\n        /* \"#utility.yul\":2551:2552   */\n      0x00\n        /* \"#utility.yul\":2544:2556   */\n      revert\n        /* \"#utility.yul\":2508:2558   */\n    tag_533:\n        /* \"#utility.yul\":2609:2616   */\n      dup7\n        /* \"#utility.yul\":2602:2606   */\n      0x20\n        /* \"#utility.yul\":2592:2598   */\n      dup3\n        /* \"#utility.yul\":2589:2590   */\n      0x05\n        /* \"#utility.yul\":2585:2599   */\n      shl\n        /* \"#utility.yul\":2581:2583   */\n      dup5\n        /* \"#utility.yul\":2577:2600   */\n      add\n        /* \"#utility.yul\":2573:2607   */\n      add\n        /* \"#utility.yul\":2570:2617   */\n      gt\n        /* \"#utility.yul\":2567:2634   */\n      iszero\n      tag_534\n      jumpi\n        /* \"#utility.yul\":2630:2631   */\n      0x00\n        /* \"#utility.yul\":2627:2628   */\n      0x00\n        /* \"#utility.yul\":2620:2632   */\n      revert\n        /* \"#utility.yul\":2567:2634   */\n    tag_534:\n        /* \"#utility.yul\":2661:2665   */\n      0x20\n        /* \"#utility.yul\":2653:2666   */\n      swap2\n      dup3\n      add\n      swap5\n      pop\n        /* \"#utility.yul\":2685:2691   */\n      swap3\n      pop\n        /* \"#utility.yul\":2710:2747   */\n      tag_535\n      swap1\n        /* \"#utility.yul\":2726:2746   */\n      dup6\n      add\n        /* \"#utility.yul\":2710:2747   */\n      tag_513\n      jump\t// in\n    tag_535:\n        /* \"#utility.yul\":2700:2747   */\n      swap1\n      pop\n        /* \"#utility.yul\":2069:2753   */\n      swap3\n      pop\n      swap3\n      pop\n      swap3\n      jump\t// out\n        /* \"#utility.yul\":2758:3266   */\n    tag_82:\n        /* \"#utility.yul\":2835:2841   */\n      0x00\n        /* \"#utility.yul\":2843:2849   */\n      0x00\n        /* \"#utility.yul\":2851:2857   */\n      0x00\n        /* \"#utility.yul\":2904:2906   */\n      0x60\n        /* \"#utility.yul\":2892:2901   */\n      dup5\n        /* \"#utility.yul\":2883:2890   */\n      dup7\n        /* \"#utility.yul\":2879:2902   */\n      sub\n        /* \"#utility.yul\":2875:2907   */\n      slt\n        /* \"#utility.yul\":2872:2924   */\n      iszero\n      tag_537\n      jumpi\n        /* \"#utility.yul\":2920:2921   */\n      0x00\n        /* \"#utility.yul\":2917:2918   */\n      0x00\n        /* \"#utility.yul\":2910:2922   */\n      revert\n        /* \"#utility.yul\":2872:2924   */\n    tag_537:\n        /* \"#utility.yul\":2959:2968   */\n      dup4\n        /* \"#utility.yul\":2946:2969   */\n      calldataload\n        /* \"#utility.yul\":2978:3009   */\n      tag_538\n        /* \"#utility.yul\":3003:3008   */\n      dup2\n        /* \"#utility.yul\":2978:3009   */\n      tag_512\n      jump\t// in\n    tag_538:\n        /* \"#utility.yul\":3028:3033   */\n      swap3\n      pop\n        /* \"#utility.yul\":3085:3087   */\n      0x20\n        /* \"#utility.yul\":3070:3088   */\n      dup5\n      add\n        /* \"#utility.yul\":3057:3089   */\n      calldataload\n        /* \"#utility.yul\":3098:3131   */\n      tag_539\n        /* \"#utility.yul\":3057:3089   */\n      dup2\n        /* \"#utility.yul\":3098:3131   */\n      tag_512\n      jump\t// in\n    tag_539:\n        /* \"#utility.yul\":2758:3266   */\n      swap3\n      swap6\n        /* \"#utility.yul\":3150:3157   */\n      swap3\n      swap5\n      pop\n      pop\n      pop\n        /* \"#utility.yul\":3230:3232   */\n      0x40\n        /* \"#utility.yul\":3215:3233   */\n      swap2\n      swap1\n      swap2\n      add\n        /* \"#utility.yul\":3202:3234   */\n      calldataload\n      swap1\n        /* \"#utility.yul\":2758:3266   */\n      jump\t// out\n        /* \"#utility.yul\":3271:3586   */\n    tag_88:\n        /* \"#utility.yul\":3336:3342   */\n      0x00\n        /* \"#utility.yul\":3344:3350   */\n      0x00\n        /* \"#utility.yul\":3397:3399   */\n      0x40\n        /* \"#utility.yul\":3385:3394   */\n      dup4\n        /* \"#utility.yul\":3376:3383   */\n      dup6\n        /* \"#utility.yul\":3372:3395   */\n      sub\n        /* \"#utility.yul\":3368:3400   */\n      slt\n        /* \"#utility.yul\":3365:3417   */\n      iszero\n      tag_541\n      jumpi\n        /* \"#utility.yul\":3413:3414   */\n      0x00\n        /* \"#utility.yul\":3410:3411   */\n      0x00\n        /* \"#utility.yul\":3403:3415   */\n      revert\n        /* \"#utility.yul\":3365:3417   */\n    tag_541:\n        /* \"#utility.yul\":3452:3461   */\n      dup3\n        /* \"#utility.yul\":3439:3462   */\n      calldataload\n        /* \"#utility.yul\":3471:3502   */\n      tag_542\n        /* \"#utility.yul\":3496:3501   */\n      dup2\n        /* \"#utility.yul\":3471:3502   */\n      tag_512\n      jump\t// in\n    tag_542:\n        /* \"#utility.yul\":3521:3526   */\n      swap2\n      pop\n        /* \"#utility.yul\":3545:3580   */\n      tag_543\n        /* \"#utility.yul\":3576:3578   */\n      0x20\n        /* \"#utility.yul\":3561:3579   */\n      dup5\n      add\n        /* \"#utility.yul\":3545:3580   */\n      tag_513\n      jump\t// in\n    tag_543:\n        /* \"#utility.yul\":3535:3580   */\n      swap1\n      pop\n        /* \"#utility.yul\":3271:3586   */\n      swap3\n      pop\n      swap3\n      swap1\n      pop\n      jump\t// out\n        /* \"#utility.yul\":3780:4006   */\n    tag_98:\n        /* \"#utility.yul\":3839:3845   */\n      0x00\n        /* \"#utility.yul\":3892:3894   */\n      0x20\n        /* \"#utility.yul\":3880:3889   */\n      dup3\n        /* \"#utility.yul\":3871:3878   */\n      dup5\n        /* \"#utility.yul\":3867:3890   */\n      sub\n        /* \"#utility.yul\":3863:3895   */\n      slt\n        /* \"#utility.yul\":3860:3912   */\n      iszero\n      tag_546\n      jumpi\n        /* \"#utility.yul\":3908:3909   */\n      0x00\n        /* \"#utility.yul\":3905:3906   */\n      0x00\n        /* \"#utility.yul\":3898:3910   */\n      revert\n        /* \"#utility.yul\":3860:3912   */\n    tag_546:\n      pop\n        /* \"#utility.yul\":3953:3976   */\n      calldataload\n      swap2\n        /* \"#utility.yul\":3780:4006   */\n      swap1\n      pop\n      jump\t// out\n        /* \"#utility.yul\":4011:4258   */\n    tag_114:\n        /* \"#utility.yul\":4070:4076   */\n      0x00\n        /* \"#utility.yul\":4123:4125   */\n      0x20\n        /* \"#utility.yul\":4111:4120   */\n      dup3\n        /* \"#utility.yul\":4102:4109   */\n      dup5\n        /* \"#utility.yul\":4098:4121   */\n      sub\n        /* \"#utility.yul\":4094:4126   */\n      slt\n        /* \"#utility.yul\":4091:4143   */\n      iszero\n      tag_548\n      jumpi\n        /* \"#utility.yul\":4139:4140   */\n      0x00\n        /* \"#utility.yul\":4136:4137   */\n      0x00\n        /* \"#utility.yul\":4129:4141   */\n      revert\n        /* \"#utility.yul\":4091:4143   */\n    tag_548:\n        /* \"#utility.yul\":4178:4187   */\n      dup2\n        /* \"#utility.yul\":4165:4188   */\n      calldataload\n        /* \"#utility.yul\":4197:4228   */\n      tag_492\n        /* \"#utility.yul\":4222:4227   */\n      dup2\n        /* \"#utility.yul\":4197:4228   */\n      tag_512\n      jump\t// in\n        /* \"#utility.yul\":5011:6014   */\n    tag_149:\n        /* \"#utility.yul\":5163:5169   */\n      0x00\n        /* \"#utility.yul\":5171:5177   */\n      0x00\n        /* \"#utility.yul\":5179:5185   */\n      0x00\n        /* \"#utility.yul\":5187:5193   */\n      0x00\n        /* \"#utility.yul\":5195:5201   */\n      0x00\n        /* \"#utility.yul\":5203:5209   */\n      0x00\n        /* \"#utility.yul\":5256:5259   */\n      0xc0\n        /* \"#utility.yul\":5244:5253   */\n      dup8\n        /* \"#utility.yul\":5235:5242   */\n      dup10\n        /* \"#utility.yul\":5231:5254   */\n      sub\n        /* \"#utility.yul\":5227:5260   */\n      slt\n        /* \"#utility.yul\":5224:5277   */\n      iszero\n      tag_553\n      jumpi\n        /* \"#utility.yul\":5273:5274   */\n      0x00\n        /* \"#utility.yul\":5270:5271   */\n      0x00\n        /* \"#utility.yul\":5263:5275   */\n      revert\n        /* \"#utility.yul\":5224:5277   */\n    tag_553:\n        /* \"#utility.yul\":5312:5321   */\n      dup7\n        /* \"#utility.yul\":5299:5322   */\n      calldataload\n        /* \"#utility.yul\":5331:5362   */\n      tag_554\n        /* \"#utility.yul\":5356:5361   */\n      dup2\n        /* \"#utility.yul\":5331:5362   */\n      tag_512\n      jump\t// in\n    tag_554:\n        /* \"#utility.yul\":5381:5386   */\n      swap6\n      pop\n        /* \"#utility.yul\":5438:5440   */\n      0x20\n        /* \"#utility.yul\":5423:5441   */\n      dup8\n      add\n        /* \"#utility.yul\":5410:5442   */\n      calldataload\n        /* \"#utility.yul\":5451:5484   */\n      tag_555\n        /* \"#utility.yul\":5410:5442   */\n      dup2\n        /* \"#utility.yul\":5451:5484   */\n      tag_512\n      jump\t// in\n    tag_555:\n        /* \"#utility.yul\":5503:5510   */\n      swap5\n      pop\n        /* \"#utility.yul\":5562:5564   */\n      0x40\n        /* \"#utility.yul\":5547:5565   */\n      dup8\n      add\n        /* \"#utility.yul\":5534:5566   */\n      calldataload\n        /* \"#utility.yul\":5575:5608   */\n      tag_556\n        /* \"#utility.yul\":5534:5566   */\n      dup2\n        /* \"#utility.yul\":5575:5608   */\n      tag_512\n      jump\t// in\n    tag_556:\n        /* \"#utility.yul\":5627:5634   */\n      swap4\n      pop\n        /* \"#utility.yul\":5686:5688   */\n      0x60\n        /* \"#utility.yul\":5671:5689   */\n      dup8\n      add\n        /* \"#utility.yul\":5658:5690   */\n      calldataload\n        /* \"#utility.yul\":5699:5732   */\n      tag_557\n        /* \"#utility.yul\":5658:5690   */\n      dup2\n        /* \"#utility.yul\":5699:5732   */\n      tag_512\n      jump\t// in\n    tag_557:\n        /* \"#utility.yul\":5751:5758   */\n      swap3\n      pop\n        /* \"#utility.yul\":5810:5813   */\n      0x80\n        /* \"#utility.yul\":5795:5814   */\n      dup8\n      add\n        /* \"#utility.yul\":5782:5815   */\n      calldataload\n        /* \"#utility.yul\":5824:5857   */\n      tag_558\n        /* \"#utility.yul\":5782:5815   */\n      dup2\n        /* \"#utility.yul\":5824:5857   */\n      tag_512\n      jump\t// in\n    tag_558:\n        /* \"#utility.yul\":5876:5883   */\n      swap2\n      pop\n        /* \"#utility.yul\":5935:5938   */\n      0xa0\n        /* \"#utility.yul\":5920:5939   */\n      dup8\n      add\n        /* \"#utility.yul\":5907:5940   */\n      calldataload\n        /* \"#utility.yul\":5949:5982   */\n      tag_559\n        /* \"#utility.yul\":5907:5940   */\n      dup2\n        /* \"#utility.yul\":5949:5982   */\n      tag_512\n      jump\t// in\n    tag_559:\n        /* \"#utility.yul\":6001:6008   */\n      dup1\n        /* \"#utility.yul\":5991:6008   */\n      swap2\n      pop\n      pop\n        /* \"#utility.yul\":5011:6014   */\n      swap3\n      swap6\n      pop\n      swap3\n      swap6\n      pop\n      swap3\n      swap6\n      jump\t// out\n        /* \"#utility.yul\":6019:6407   */\n    tag_158:\n        /* \"#utility.yul\":6087:6093   */\n      0x00\n        /* \"#utility.yul\":6095:6101   */\n      0x00\n        /* \"#utility.yul\":6148:6150   */\n      0x40\n        /* \"#utility.yul\":6136:6145   */\n      dup4\n        /* \"#utility.yul\":6127:6134   */\n      dup6\n        /* \"#utility.yul\":6123:6146   */\n      sub\n        /* \"#utility.yul\":6119:6151   */\n      slt\n        /* \"#utility.yul\":6116:6168   */\n      iszero\n      tag_561\n      jumpi\n        /* \"#utility.yul\":6164:6165   */\n      0x00\n        /* \"#utility.yul\":6161:6162   */\n      0x00\n        /* \"#utility.yul\":6154:6166   */\n      revert\n        /* \"#utility.yul\":6116:6168   */\n    tag_561:\n        /* \"#utility.yul\":6203:6212   */\n      dup3\n        /* \"#utility.yul\":6190:6213   */\n      calldataload\n        /* \"#utility.yul\":6222:6253   */\n      tag_562\n        /* \"#utility.yul\":6247:6252   */\n      dup2\n        /* \"#utility.yul\":6222:6253   */\n      tag_512\n      jump\t// in\n    tag_562:\n        /* \"#utility.yul\":6272:6277   */\n      swap2\n      pop\n        /* \"#utility.yul\":6329:6331   */\n      0x20\n        /* \"#utility.yul\":6314:6332   */\n      dup4\n      add\n        /* \"#utility.yul\":6301:6333   */\n      calldataload\n        /* \"#utility.yul\":6342:6375   */\n      tag_563\n        /* \"#utility.yul\":6301:6333   */\n      dup2\n        /* \"#utility.yul\":6342:6375   */\n      tag_512\n      jump\t// in\n    tag_563:\n        /* \"#utility.yul\":6394:6401   */\n      dup1\n        /* \"#utility.yul\":6384:6401   */\n      swap2\n      pop\n      pop\n        /* \"#utility.yul\":6019:6407   */\n      swap3\n      pop\n      swap3\n      swap1\n      pop\n      jump\t// out\n        /* \"#utility.yul\":6412:6539   */\n    tag_514:\n        /* \"#utility.yul\":6473:6483   */\n      0x4e487b71\n        /* \"#utility.yul\":6468:6471   */\n      0xe0\n        /* \"#utility.yul\":6464:6484   */\n      shl\n        /* \"#utility.yul\":6461:6462   */\n      0x00\n        /* \"#utility.yul\":6454:6485   */\n      mstore\n        /* \"#utility.yul\":6504:6508   */\n      0x11\n        /* \"#utility.yul\":6501:6502   */\n      0x04\n        /* \"#utility.yul\":6494:6509   */\n      mstore\n        /* \"#utility.yul\":6528:6532   */\n      0x24\n        /* \"#utility.yul\":6525:6526   */\n      0x00\n        /* \"#utility.yul\":6518:6533   */\n      revert\n        /* \"#utility.yul\":6544:6712   */\n    tag_177:\n        /* \"#utility.yul\":6617:6626   */\n      dup1\n      dup3\n      mul\n        /* \"#utility.yul\":6648:6657   */\n      dup2\n      iszero\n        /* \"#utility.yul\":6665:6680   */\n      dup3\n      dup3\n      div\n        /* \"#utility.yul\":6659:6681   */\n      dup5\n      eq\n        /* \"#utility.yul\":6645:6682   */\n      or\n        /* \"#utility.yul\":6635:6706   */\n      tag_197\n      jumpi\n        /* \"#utility.yul\":6686:6704   */\n      tag_197\n      tag_514\n      jump\t// in\n        /* \"#utility.yul\":6717:6934   */\n    tag_179:\n        /* \"#utility.yul\":6757:6758   */\n      0x00\n        /* \"#utility.yul\":6783:6784   */\n      dup3\n        /* \"#utility.yul\":6773:6905   */\n      tag_569\n      jumpi\n        /* \"#utility.yul\":6827:6837   */\n      0x4e487b71\n        /* \"#utility.yul\":6822:6825   */\n      0xe0\n        /* \"#utility.yul\":6818:6838   */\n      shl\n        /* \"#utility.yul\":6815:6816   */\n      0x00\n        /* \"#utility.yul\":6808:6839   */\n      mstore\n        /* \"#utility.yul\":6862:6866   */\n      0x12\n        /* \"#utility.yul\":6859:6860   */\n      0x04\n        /* \"#utility.yul\":6852:6867   */\n      mstore\n        /* \"#utility.yul\":6890:6894   */\n      0x24\n        /* \"#utility.yul\":6887:6888   */\n      0x00\n        /* \"#utility.yul\":6880:6895   */\n      revert\n        /* \"#utility.yul\":6773:6905   */\n    tag_569:\n      pop\n        /* \"#utility.yul\":6919:6928   */\n      div\n      swap1\n        /* \"#utility.yul\":6717:6934   */\n      jump\t// out\n        /* \"#utility.yul\":7192:7572   */\n    tag_186:\n        /* \"#utility.yul\":7271:7272   */\n      0x01\n        /* \"#utility.yul\":7267:7279   */\n      dup2\n      dup2\n      shr\n      swap1\n        /* \"#utility.yul\":7314:7326   */\n      dup3\n      and\n      dup1\n        /* \"#utility.yul\":7335:7396   */\n      tag_572\n      jumpi\n        /* \"#utility.yul\":7389:7393   */\n      0x7f\n        /* \"#utility.yul\":7381:7387   */\n      dup3\n        /* \"#utility.yul\":7377:7394   */\n      and\n        /* \"#utility.yul\":7367:7394   */\n      swap2\n      pop\n        /* \"#utility.yul\":7335:7396   */\n    tag_572:\n        /* \"#utility.yul\":7442:7444   */\n      0x20\n        /* \"#utility.yul\":7434:7440   */\n      dup3\n        /* \"#utility.yul\":7431:7445   */\n      lt\n        /* \"#utility.yul\":7411:7429   */\n      dup2\n        /* \"#utility.yul\":7408:7446   */\n      sub\n        /* \"#utility.yul\":7405:7566   */\n      tag_573\n      jumpi\n        /* \"#utility.yul\":7488:7498   */\n      0x4e487b71\n        /* \"#utility.yul\":7483:7486   */\n      0xe0\n        /* \"#utility.yul\":7479:7499   */\n      shl\n        /* \"#utility.yul\":7476:7477   */\n      0x00\n        /* \"#utility.yul\":7469:7500   */\n      mstore\n        /* \"#utility.yul\":7523:7527   */\n      0x22\n        /* \"#utility.yul\":7520:7521   */\n      0x04\n        /* \"#utility.yul\":7513:7528   */\n      mstore\n        /* \"#utility.yul\":7551:7555   */\n      0x24\n        /* \"#utility.yul\":7548:7549   */\n      0x00\n        /* \"#utility.yul\":7541:7556   */\n      revert\n        /* \"#utility.yul\":7405:7566   */\n    tag_573:\n      pop\n        /* \"#utility.yul\":7192:7572   */\n      swap2\n      swap1\n      pop\n      jump\t// out\n        /* \"#utility.yul\":7937:8064   */\n    tag_211:\n        /* \"#utility.yul\":7998:8008   */\n      0x4e487b71\n        /* \"#utility.yul\":7993:7996   */\n      0xe0\n        /* \"#utility.yul\":7989:8009   */\n      shl\n        /* \"#utility.yul\":7986:7987   */\n      0x00\n        /* \"#utility.yul\":7979:8010   */\n      mstore\n        /* \"#utility.yul\":8029:8033   */\n      0x32\n        /* \"#utility.yul\":8026:8027   */\n      0x04\n        /* \"#utility.yul\":8019:8034   */\n      mstore\n        /* \"#utility.yul\":8053:8057   */\n      0x24\n        /* \"#utility.yul\":8050:8051   */\n      0x00\n        /* \"#utility.yul\":8043:8058   */\n      revert\n        /* \"#utility.yul\":10127:10252   */\n    tag_302:\n        /* \"#utility.yul\":10192:10201   */\n      dup1\n      dup3\n      add\n        /* \"#utility.yul\":10213:10223   */\n      dup1\n      dup3\n      gt\n        /* \"#utility.yul\":10210:10246   */\n      iszero\n      tag_197\n      jumpi\n        /* \"#utility.yul\":10226:10244   */\n      tag_197\n      tag_514\n      jump\t// in\n        /* \"#utility.yul\":14723:14858   */\n    tag_396:\n        /* \"#utility.yul\":14762:14765   */\n      0x00\n        /* \"#utility.yul\":14783:14800   */\n      0x01\n      dup3\n      add\n        /* \"#utility.yul\":14780:14823   */\n      tag_598\n      jumpi\n        /* \"#utility.yul\":14803:14821   */\n      tag_598\n      tag_514\n      jump\t// in\n    tag_598:\n      pop\n        /* \"#utility.yul\":14850:14851   */\n      0x01\n        /* \"#utility.yul\":14839:14852   */\n      add\n      swap1\n        /* \"#utility.yul\":14723:14858   */\n      jump\t// out\n        /* \"#utility.yul\":14863:14991   */\n    tag_424:\n        /* \"#utility.yul\":14930:14939   */\n      dup2\n      dup2\n      sub\n        /* \"#utility.yul\":14951:14962   */\n      dup2\n      dup2\n      gt\n        /* \"#utility.yul\":14948:14985   */\n      iszero\n      tag_197\n      jumpi\n        /* \"#utility.yul\":14965:14983   */\n      tag_197\n      tag_514\n      jump\t// in\n        /* \"#utility.yul\":15128:15379   */\n    tag_442:\n        /* \"#utility.yul\":15198:15204   */\n      0x00\n        /* \"#utility.yul\":15251:15253   */\n      0x20\n        /* \"#utility.yul\":15239:15248   */\n      dup3\n        /* \"#utility.yul\":15230:15237   */\n      dup5\n        /* \"#utility.yul\":15226:15249   */\n      sub\n        /* \"#utility.yul\":15222:15254   */\n      slt\n        /* \"#utility.yul\":15219:15271   */\n      iszero\n      tag_604\n      jumpi\n        /* \"#utility.yul\":15267:15268   */\n      0x00\n        /* \"#utility.yul\":15264:15265   */\n      0x00\n        /* \"#utility.yul\":15257:15269   */\n      revert\n        /* \"#utility.yul\":15219:15271   */\n    tag_604:\n        /* \"#utility.yul\":15299:15308   */\n      dup2\n        /* \"#utility.yul\":15293:15309   */\n      mload\n        /* \"#utility.yul\":15318:15349   */\n      tag_492\n        /* \"#utility.yul\":15343:15348   */\n      dup2\n        /* \"#utility.yul\":15318:15349   */\n      tag_512\n      jump\t// in\n        /* \"#utility.yul\":15384:16343   */\n    tag_447:\n        /* \"#utility.yul\":15646:15650   */\n      0x00\n        /* \"#utility.yul\":15694:15697   */\n      0xa0\n        /* \"#utility.yul\":15683:15692   */\n      dup3\n        /* \"#utility.yul\":15679:15698   */\n      add\n        /* \"#utility.yul\":15725:15731   */\n      dup8\n        /* \"#utility.yul\":15714:15723   */\n      dup4\n        /* \"#utility.yul\":15707:15732   */\n      mstore\n        /* \"#utility.yul\":15768:15774   */\n      dup7\n        /* \"#utility.yul\":15763:15765   */\n      0x20\n        /* \"#utility.yul\":15752:15761   */\n      dup5\n        /* \"#utility.yul\":15748:15766   */\n      add\n        /* \"#utility.yul\":15741:15775   */\n      mstore\n        /* \"#utility.yul\":15811:15814   */\n      0xa0\n        /* \"#utility.yul\":15806:15808   */\n      0x40\n        /* \"#utility.yul\":15795:15804   */\n      dup5\n        /* \"#utility.yul\":15791:15809   */\n      add\n        /* \"#utility.yul\":15784:15815   */\n      mstore\n        /* \"#utility.yul\":15835:15841   */\n      dup1\n        /* \"#utility.yul\":15870:15876   */\n      dup7\n        /* \"#utility.yul\":15864:15877   */\n      mload\n        /* \"#utility.yul\":15901:15907   */\n      dup1\n        /* \"#utility.yul\":15893:15899   */\n      dup4\n        /* \"#utility.yul\":15886:15908   */\n      mstore\n        /* \"#utility.yul\":15939:15942   */\n      0xc0\n        /* \"#utility.yul\":15928:15937   */\n      dup6\n        /* \"#utility.yul\":15924:15943   */\n      add\n        /* \"#utility.yul\":15917:15943   */\n      swap2\n      pop\n        /* \"#utility.yul\":15978:15980   */\n      0x20\n        /* \"#utility.yul\":15970:15976   */\n      dup9\n        /* \"#utility.yul\":15966:15981   */\n      add\n        /* \"#utility.yul\":15952:15981   */\n      swap3\n      pop\n        /* \"#utility.yul\":15999:16000   */\n      0x00\n        /* \"#utility.yul\":16009:16204   */\n    tag_607:\n        /* \"#utility.yul\":16023:16029   */\n      dup2\n        /* \"#utility.yul\":16020:16021   */\n      dup2\n        /* \"#utility.yul\":16017:16030   */\n      lt\n        /* \"#utility.yul\":16009:16204   */\n      iszero\n      tag_609\n      jumpi\n        /* \"#utility.yul\":16088:16101   */\n      dup4\n      mload\n      sub(shl(0xa0, 0x01), 0x01)\n        /* \"#utility.yul\":16084:16123   */\n      and\n        /* \"#utility.yul\":16072:16124   */\n      dup4\n      mstore\n        /* \"#utility.yul\":16153:16155   */\n      0x20\n        /* \"#utility.yul\":16179:16194   */\n      swap4\n      dup5\n      add\n      swap4\n        /* \"#utility.yul\":16144:16156   */\n      swap1\n      swap3\n      add\n      swap2\n        /* \"#utility.yul\":16120:16121   */\n      0x01\n        /* \"#utility.yul\":16038:16047   */\n      add\n        /* \"#utility.yul\":16009:16204   */\n      jump(tag_607)\n    tag_609:\n      pop\n      pop\n      sub(shl(0xa0, 0x01), 0x01)\n        /* \"#utility.yul\":16260:16292   */\n      swap6\n      swap1\n      swap6\n      and\n        /* \"#utility.yul\":16255:16257   */\n      0x60\n        /* \"#utility.yul\":16240:16258   */\n      dup5\n      add\n        /* \"#utility.yul\":16233:16293   */\n      mstore\n      pop\n      pop\n        /* \"#utility.yul\":16324:16327   */\n      0x80\n        /* \"#utility.yul\":16309:16328   */\n      add\n        /* \"#utility.yul\":16302:16337   */\n      mstore\n        /* \"#utility.yul\":16221:16224   */\n      swap4\n        /* \"#utility.yul\":15384:16343   */\n      swap3\n      pop\n      pop\n      pop\n      jump\t// out\n\n    auxdata: 0xa26469706673582212208c41f3093e802d1b947a31b5aafe4f6533fc637a21689b327b866cbe921ca33664736f6c634300081d0033\n}\n",
				"bytecode": {
					"linkReferences": {},
					"object": "60a0604052600580546001600160a01b0319163317905560198054600160b81b62ffffff60a81b19909116179055348015610038575f5ffd5b50604051612903380380612903833981016040819052610057916105e3565b806040518060400160405280600881526020016726bc902a37b5b2b760c11b8152506040518060400160405280600381526020016226aa2760e91b81525081600390816100a491906106a8565b5060046100b182826106a8565b5050506001600160a01b0381166100e257604051631e4fbdf760e01b81525f60048201526024015b60405180910390fd5b6100eb81610434565b506a295be96e64066972000000601b8190556d314dc6448d9338c15b0a000000006080526103e89061011e90600a610776565b6101289190610793565b601455601b546103e89061013d90600a610776565b6101479190610793565b601555601b546127109061015c906005610776565b6101669190610793565b601655601b546127109061017c90610190610776565b6101869190610793565b601755600f6010556028601155600160128190555f6013819055308152601a6020908152604091829020805460ff1916909317909255805163c45a015560e01b81529051739ac64cc6e4415144c455bd8e4837fea55603e5c392839263c45a015592600482810193928290030181865afa158015610206573d5f5f3e3d5ffd5b505050506040513d601f19601f8201168201806040525081019061022a91906105e3565b6001600160a01b031663c9c6539630836001600160a01b031663ad5c46486040518163ffffffff1660e01b8152600401602060405180830381865afa158015610275573d5f5f3e3d5ffd5b505050506040513d601f19601f8201168201806040525081019061029991906105e3565b6040516001600160e01b031960e085901b1681526001600160a01b039283166004820152911660248201526044016020604051808303815f875af11580156102e3573d5f5f3e3d5ffd5b505050506040513d601f19601f8201168201806040525081019061030791906105e3565b601980546001600160a01b03199081166001600160a01b039384161790915560188054821684841617905560088054732f8d1ddd0f3ccf0fe21c505a4ebc56f6f4626c0d9083168117825560098054841682178155600a8054851683178155600b8054861684178155600c8054871685178155600d8054909716909417865560065487165f90815260076020526040808220805460ff199081166001908117909255308452828420805482168317905597548a1683528183208054891682179055945489168252808220805488168617905592548816815282812080548716851790559054871681528181208054861684179055925486168352808320805485168317905593549094168152919091208054909116909117905561042d33601b54610485565b50506107c5565b600680546001600160a01b038381166001600160a01b0319831681179093556040519116919082907f8be0079c531659141344cd1fd0a4f28419497f9722a3daafe3b4186f6b6457e0905f90a35050565b6001600160a01b0382166104ae5760405163ec442f0560e01b81525f60048201526024016100d9565b6104b95f83836104bd565b5050565b6001600160a01b0383166104e7578060025f8282546104dc91906107b2565b909155506105579050565b6001600160a01b0383165f90815260208190526040902054818110156105395760405163391434e360e21b81526001600160a01b038516600482015260248101829052604481018390526064016100d9565b6001600160a01b0384165f9081526020819052604090209082900390555b6001600160a01b03821661057357600280548290039055610591565b6001600160a01b0382165f9081526020819052604090208054820190555b816001600160a01b0316836001600160a01b03167fddf252ad1be2c89b69c2b068fc378daa952ba7f163c4a11628f55a4df523b3ef836040516105d691815260200190565b60405180910390a3505050565b5f602082840312156105f3575f5ffd5b81516001600160a01b0381168114610609575f5ffd5b9392505050565b634e487b7160e01b5f52604160045260245ffd5b600181811c9082168061063857607f821691505b60208210810361065657634e487b7160e01b5f52602260045260245ffd5b50919050565b601f8211156106a357805f5260205f20601f840160051c810160208510156106815750805b601f840160051c820191505b818110156106a0575f815560010161068d565b50505b505050565b81516001600160401b038111156106c1576106c1610610565b6106d5816106cf8454610624565b8461065c565b6020601f821160018114610707575f83156106f05750848201515b5f19600385901b1c1916600184901b1784556106a0565b5f84815260208120601f198516915b828110156107365787850151825560209485019460019092019101610716565b508482101561075357868401515f19600387901b60f8161c191681555b50505050600190811b01905550565b634e487b7160e01b5f52601160045260245ffd5b808202811582820484141761078d5761078d610762565b92915050565b5f826107ad57634e487b7160e01b5f52601260045260245ffd5b500490565b8082018082111561078d5761078d610762565b60805161211f6107e45f395f81816104ee0152610ce8015261211f5ff3fe6080604052600436106101bd575f3560e01c80636ed6a48d116100f2578063a9059cbb11610092578063dd62ed3e11610062578063dd62ed3e14610510578063f1d5f51714610554578063f2fde38b14610573578063fcfff16f14610592575f5ffd5b8063a9059cbb14610454578063ae60148014610473578063be647aed146104be578063dd54291b146104dd575f5ffd5b80638da5cb5b116100cd5780638da5cb5b146103f05780638f937cc41461040d57806395d89b4114610421578063a0712d6814610435575f5ffd5b80636ed6a48d1461039457806370a08231146103a8578063715018a6146103dc575f5ffd5b8063217b6da61161015d578063313ce56711610138578063313ce5671461031c57806342966c6814610337578063620cc86c14610356578063667f652614610375575f5ffd5b8063217b6da6146102ca57806323b872dd146102de5780632dc4f5e6146102fd575f5ffd5b8063095ea7b311610198578063095ea7b3146102275780631694505e1461025657806318160ddd1461028d5780631c537de5146102ab575f5ffd5b80630313fc4b146101c857806306fdde03146101e957806308ade0c914610213575f5ffd5b366101c457005b5f5ffd5b3480156101d3575f5ffd5b506101e76101e2366004611d0c565b6105a6565b005b3480156101f4575f5ffd5b506101fd610629565b60405161020a9190611d2c565b60405180910390f35b34801561021e575f5ffd5b506101e76106b9565b348015610232575f5ffd5b50610246610241366004611d75565b61072e565b604051901515815260200161020a565b348015610261575f5ffd5b50601854610275906001600160a01b031681565b6040516001600160a01b03909116815260200161020a565b348015610298575f5ffd5b506002545b60405190815260200161020a565b3480156102b6575f5ffd5b506101e76102c5366004611db3565b610747565b3480156102d5575f5ffd5b506101e76107b9565b3480156102e9575f5ffd5b506102466102f8366004611e32565b610982565b348015610308575f5ffd5b506101e7610317366004611e70565b6109a5565b348015610327575f5ffd5b506040516012815260200161020a565b348015610342575f5ffd5b506101e7610351366004611ea3565b610a08565b348015610361575f5ffd5b506101e7610370366004611ea3565b610a2e565b348015610380575f5ffd5b506101e761038f366004611d0c565b610ade565b34801561039f575f5ffd5b506101e7610bb9565b3480156103b3575f5ffd5b5061029d6103c2366004611eba565b6001600160a01b03165f9081526020819052604090205490565b3480156103e7575f5ffd5b506101e7610c3e565b3480156103fb575f5ffd5b506006546001600160a01b0316610275565b348015610418575f5ffd5b506101e7610c51565b34801561042c575f5ffd5b506101fd610ccf565b348015610440575f5ffd5b506101e761044f366004611ea3565b610cde565b34801561045f575f5ffd5b5061024661046e366004611d75565b610d75565b34801561047e575f5ffd5b50601054601154601454601554601654601754604080519687526020870195909552938501929092526060840152608083015260a082015260c00161020a565b3480156104c9575f5ffd5b506101e76104d8366004611ed5565b610d82565b3480156104e8575f5ffd5b5061029d7f000000000000000000000000000000000000000000000000000000000000000081565b34801561051b575f5ffd5b5061029d61052a366004611f53565b6001600160a01b039182165f90815260016020908152604080832093909416825291909152205490565b34801561055f575f5ffd5b506101e761056e366004611ea3565b610e50565b34801561057e575f5ffd5b506101e761058d366004611eba565b610f04565b34801561059d575f5ffd5b506101e7610f3e565b6105ae61102b565b61271082601b546105bf9190611f9e565b6105c99190611fb5565b601655601b54612710906105de908390611f9e565b6105e89190611fb5565b60175560408051838152602081018390527f2b3f4c022d9943b151090e389857495bb9d8493714259cc19a540f5a11475fb191015b60405180910390a15050565b60606003805461063890611fd4565b80601f016020809104026020016040519081016040528092919081815260200182805461066490611fd4565b80156106af5780601f10610686576101008083540402835291602001916106af565b820191905f5260205f20905b81548152906001019060200180831161069257829003601f168201915b5050505050905090565b6106c161102b565b601954600160b81b900460ff1661071f5760405162461bcd60e51b815260206004820152601f60248201527f4c61756e6368206d6f646520697320616c72656164792064697361626c65640060448201526064015b60405180910390fd5b6019805460ff60b81b19169055565b5f3361073b818585611058565b60019150505b92915050565b61074f61102b565b5f5b828110156107b35781601a5f86868581811061076f5761076f61200c565b90506020020160208101906107849190611eba565b6001600160a01b0316815260208101919091526040015f20805460ff1916911515919091179055600101610751565b50505050565b6006546001600160a01b031633146108135760405162461bcd60e51b815260206004820152601d60248201527f4f6e6c79206665652072656365697665722063616e20747269676765720000006044820152606401610716565b5f61081f600247611fb5565b90505f61082d600583611fb5565b6008546040519192506001600160a01b03169083156108fc029084905f818181858888f19350505050158015610865573d5f5f3e3d5ffd5b506009546040516001600160a01b039091169082156108fc029083905f818181858888f1935050505015801561089d573d5f5f3e3d5ffd5b50600a546040516001600160a01b039091169082156108fc029083905f818181858888f193505050501580156108d5573d5f5f3e3d5ffd5b50600b546040516001600160a01b039091169082156108fc029083905f818181858888f1935050505015801561090d573d5f5f3e3d5ffd5b50600c546040516001600160a01b039091169082156108fc029083905f818181858888f19350505050158015610945573d5f5f3e3d5ffd5b50600d546040516001600160a01b039091169082156108fc029083905f818181858888f1935050505015801561097d573d5f5f3e3d5ffd5b505050565b5f3361098f858285611065565b61099a8585856110da565b506001949350505050565b6109ad61102b565b6001600160a01b0382165f81815260076020908152604091829020805460ff19168515159081179091558251938452908301527f2d43abd87b27cee7b0aa8c6f7e0b4a3247b683262a83cbc2318b0df398a49aa9910161061d565b610a1061102b565b610a2b610a256006546001600160a01b031690565b82611616565b50565b610a3661102b565b6001811015610a875760405162461bcd60e51b815260206004820152601e60248201527f4d61782074782063616e74206265206c6f776572207468616e20302e312500006044820152606401610716565b6103e881601b54610a989190611f9e565b610aa29190611fb5565b60148190556040519081527f947f344d56e1e8c70dc492fb94c4ddddd490c016aab685f5e7e47b2e85cb44cf906020015b60405180910390a150565b610ae661102b565b6063821115610b2f5760405162461bcd60e51b8152602060048201526015602482015274496e76616c696420627579207461782076616c756560581b6044820152606401610716565b6063811115610b795760405162461bcd60e51b8152602060048201526016602482015275496e76616c69642073656c6c207461782076616c756560501b6044820152606401610716565b6010829055601181905560408051838152602081018390527f5c6323bf1c2d7aaea2c091a4751c1c87af7f2864650c336507a77d0557af37a1910161061d565b610bc161102b565b601b54601481905560158190556040519081527f947f344d56e1e8c70dc492fb94c4ddddd490c016aab685f5e7e47b2e85cb44cf9060200160405180910390a17f4b39c36d20c57d220f61fd25c4349d4435cc03ef6c2a680942f15333c3c3e001601b54604051610c3491815260200190565b60405180910390a1565b610c4661102b565b610c4f5f61164a565b565b6006546001600160a01b03163314610ca45760405162461bcd60e51b815260206004820152601660248201527527b7363c9037bbb732b91031b0b7103a3934b3b3b2b960511b6044820152606401610716565b305f90815260208190526040902054610cbc8161169b565b478015610ccb57610ccb61182a565b5050565b60606004805461063890611fd4565b610ce661102b565b7f000000000000000000000000000000000000000000000000000000000000000081601b54610d159190612020565b1115610d5a5760405162461bcd60e51b815260206004820152601460248201527314dd5c1c1b1e48131a5b5a5d0814995858da195960621b6044820152606401610716565b610a2b610d6f6006546001600160a01b031690565b82611a28565b5f3361073b8185856110da565b610d8a61102b565b600880546001600160a01b038881166001600160a01b03199283168117909355600980548983169084168117909155600a80548984169085168117909155600b80548985169086168117909155600c80548986169087168117909155600d8054958916959096168517909555604080519687526020870193909352918501526060840152608083019190915260a08201527fe1a9f1e6aeae46da03ac69e660a1436f6a8a06342a79c23c92e8d24b8f7232c59060c00160405180910390a1505050505050565b610e5861102b565b6001811015610eb45760405162461bcd60e51b815260206004820152602260248201527f4d61782077616c6c65742063616e74206265206c6f776572207468616e20302e604482015261312560f01b6064820152608401610716565b6103e881601b54610ec59190611f9e565b610ecf9190611fb5565b60158190556040519081527f4b39c36d20c57d220f61fd25c4349d4435cc03ef6c2a680942f15333c3c3e00190602001610ad3565b610f0c61102b565b6001600160a01b038116610f3557604051631e4fbdf760e01b81525f6004820152602401610716565b610a2b8161164a565b610f4661102b565b601954600160a01b900460ff1615610fa05760405162461bcd60e51b815260206004820152601760248201527f74726164696e6720697320616c7265616479206f70656e0000000000000000006044820152606401610716565b6019805462ff00ff60a01b19166201000160a01b17815543600e819055600f805467ffffffffffffffff191667ffffffffffffffff909216919091179055305f90815260076020526040808220805460ff19166001179055601092909255602860115590517fea4359d5c4b8f0945a64ab9c37fe830b3407d45e0e6e6f84275977a570457d6f9190a1565b6006546001600160a01b03163314610c4f5760405163118cdaa760e01b8152336004820152602401610716565b61097d8383836001611a5c565b6001600160a01b038381165f908152600160209081526040808320938616835292905220545f1981146107b357818110156110cc57604051637dc7a0d960e11b81526001600160a01b03841660048201526024810182905260448101839052606401610716565b6107b384848484035f611a5c565b6001600160a01b03831661113e5760405162461bcd60e51b815260206004820152602560248201527f45524332303a207472616e736665722066726f6d20746865207a65726f206164604482015264647265737360d81b6064820152608401610716565b6001600160a01b0382166111a05760405162461bcd60e51b815260206004820152602360248201527f45524332303a207472616e7366657220746f20746865207a65726f206164647260448201526265737360e81b6064820152608401610716565b5f81116112015760405162461bcd60e51b815260206004820152602960248201527f5472616e7366657220616d6f756e74206d7573742062652067726561746572206044820152687468616e207a65726f60b81b6064820152608401610716565b5f6112146006546001600160a01b031690565b6001600160a01b0316846001600160a01b03161415801561124357506006546001600160a01b03848116911614155b80156112595750601954600160a81b900460ff16155b156115f157601954600160b81b900460ff16156112d2576001600160a01b0384165f908152601a602052604090205460ff16806112ad57506001600160a01b0383165f908152601a602052604090205460ff165b6112d25760405162461bcd60e51b8152602060048201525f6024820152604401610716565b6064601054836112e29190611f9e565b6112ec9190611fb5565b6019549091506001600160a01b03858116911614801561131a57506018546001600160a01b03848116911614155b801561133e57506001600160a01b0383165f9081526007602052604090205460ff16155b15611445576014548211156113955760405162461bcd60e51b815260206004820152601b60248201527f4578636565647320746865205f7478416d6f756e744c696d69742e00000000006044820152606401610716565b601554826113b7856001600160a01b03165f9081526020819052604090205490565b6113c19190612020565b111561140f5760405162461bcd60e51b815260206004820152601a60248201527f4578636565647320746865206d617857616c6c657453697a652e0000000000006044820152606401610716565b43600e54600361141f9190612020565b111561143057823b15611430575f5ffd5b60138054905f61143f83612033565b91905055505b6019546001600160a01b0384811691161480159061147b57506001600160a01b0383165f9081526007602052604090205460ff16155b156114fa57601554826114a2856001600160a01b03165f9081526020819052604090205490565b6114ac9190612020565b11156114fa5760405162461bcd60e51b815260206004820152601a60248201527f4578636565647320746865206d617857616c6c657453697a652e0000000000006044820152606401610716565b6019546001600160a01b03848116911614801561152057506001600160a01b0384163014155b15611542576064601154836115359190611f9e565b61153f9190611fb5565b90505b305f90815260208190526040902054601954600160a81b900460ff1615801561157857506019546001600160a01b038581169116145b801561158d5750601954600160b01b900460ff165b801561159a575060165481115b80156115a95750601254601354115b80156115c55750600f544367ffffffffffffffff908116911614155b156115ef576115de6115d982601754611b2e565b61169b565b4780156115ed576115ed61182a565b505b505b801561160257611602843083611b45565b6107b38484611611848661204b565b611b45565b6001600160a01b03821661163f57604051634b637e8f60e11b81525f6004820152602401610716565b610ccb825f83611be6565b600680546001600160a01b038381166001600160a01b0319831681179093556040519116919082907f8be0079c531659141344cd1fd0a4f28419497f9722a3daafe3b4186f6b6457e0905f90a35050565b6019805460ff60a81b1916600160a81b179055600f805467ffffffffffffffff431667ffffffffffffffff199091161790556040805160028082526060820183525f9260208301908036833701905050905030815f815181106117005761170061200c565b6001600160a01b03928316602091820292909201810191909152601854604080516315ab88c960e31b81529051919093169263ad5c46489260048083019391928290030181865afa158015611757573d5f5f3e3d5ffd5b505050506040513d601f19601f8201168201806040525081019061177b919061205e565b8160018151811061178e5761178e61200c565b6001600160a01b0392831660209182029290920101526018546117b49130911684611058565b60185460405163791ac94760e01b81526001600160a01b039091169063791ac947906117ec9085905f90869030904290600401612079565b5f604051808303815f87803b158015611803575f5ffd5b505af1158015611815573d5f5f3e3d5ffd5b50506019805460ff60a81b1916905550505050565b5f80611837600847611fb5565b6008546040519192506001600160a01b03169082905f81818185875af1925050503d805f8114611882576040519150601f19603f3d011682016040523d82523d5f602084013e611887565b606091505b50506009546040519193506001600160a01b03169082905f81818185875af1925050503d805f81146118d4576040519150601f19603f3d011682016040523d82523d5f602084013e6118d9565b606091505b5050600a546040519193506001600160a01b03169082905f81818185875af1925050503d805f8114611926576040519150601f19603f3d011682016040523d82523d5f602084013e61192b565b606091505b5050600b546040519193506001600160a01b03169082905f81818185875af1925050503d805f8114611978576040519150601f19603f3d011682016040523d82523d5f602084013e61197d565b606091505b5050600c546040519193506001600160a01b03169082905f81818185875af1925050503d805f81146119ca576040519150601f19603f3d011682016040523d82523d5f602084013e6119cf565b606091505b5050600d546040519193506001600160a01b03169082905f81818185875af1925050503d805f8114611a1c576040519150601f19603f3d011682016040523d82523d5f602084013e611a21565b606091505b5050505050565b6001600160a01b038216611a515760405163ec442f0560e01b81525f6004820152602401610716565b610ccb5f8383611be6565b6001600160a01b038416611a855760405163e602df0560e01b81525f6004820152602401610716565b6001600160a01b038316611aae57604051634a1406b160e11b81525f6004820152602401610716565b6001600160a01b038085165f90815260016020908152604080832093871683529290522082905580156107b357826001600160a01b0316846001600160a01b03167f8c5be1e5ebec7d5bd14f71427d1e84f3dd0314c0f7b2291e5b200ac8c7c3b92584604051611b2091815260200190565b60405180910390a350505050565b5f818311611b3c5782611b3e565b815b9392505050565b6001600160a01b038316611b6e57604051634b637e8f60e11b81525f6004820152602401610716565b6001600160a01b038216611b975760405163ec442f0560e01b81525f6004820152602401610716565b6005546001600160a01b03848116911614611bdf575f611bb8606483611fb5565b9050611bc4818361204b565b600554909250611bdd906001600160a01b031682611616565b505b61097d8383835b6001600160a01b038316611c10578060025f828254611c059190612020565b90915550611c809050565b6001600160a01b0383165f9081526020819052604090205481811015611c625760405163391434e360e21b81526001600160a01b03851660048201526024810182905260448101839052606401610716565b6001600160a01b0384165f9081526020819052604090209082900390555b6001600160a01b038216611c9c57600280548290039055611cba565b6001600160a01b0382165f9081526020819052604090208054820190555b816001600160a01b0316836001600160a01b03167fddf252ad1be2c89b69c2b068fc378daa952ba7f163c4a11628f55a4df523b3ef83604051611cff91815260200190565b60405180910390a3505050565b5f5f60408385031215611d1d575f5ffd5b50508035926020909101359150565b602081525f82518060208401528060208501604085015e5f604082850101526040601f19601f83011684010191505092915050565b6001600160a01b0381168114610a2b575f5ffd5b5f5f60408385031215611d86575f5ffd5b8235611d9181611d61565b946020939093013593505050565b80358015158114611dae575f5ffd5b919050565b5f5f5f60408486031215611dc5575f5ffd5b833567ffffffffffffffff811115611ddb575f5ffd5b8401601f81018613611deb575f5ffd5b803567ffffffffffffffff811115611e01575f5ffd5b8660208260051b8401011115611e15575f5ffd5b602091820194509250611e29908501611d9f565b90509250925092565b5f5f5f60608486031215611e44575f5ffd5b8335611e4f81611d61565b92506020840135611e5f81611d61565b929592945050506040919091013590565b5f5f60408385031215611e81575f5ffd5b8235611e8c81611d61565b9150611e9a60208401611d9f565b90509250929050565b5f60208284031215611eb3575f5ffd5b5035919050565b5f60208284031215611eca575f5ffd5b8135611b3e81611d61565b5f5f5f5f5f5f60c08789031215611eea575f5ffd5b8635611ef581611d61565b95506020870135611f0581611d61565b94506040870135611f1581611d61565b93506060870135611f2581611d61565b92506080870135611f3581611d61565b915060a0870135611f4581611d61565b809150509295509295509295565b5f5f60408385031215611f64575f5ffd5b8235611f6f81611d61565b91506020830135611f7f81611d61565b809150509250929050565b634e487b7160e01b5f52601160045260245ffd5b808202811582820484141761074157610741611f8a565b5f82611fcf57634e487b7160e01b5f52601260045260245ffd5b500490565b600181811c90821680611fe857607f821691505b60208210810361200657634e487b7160e01b5f52602260045260245ffd5b50919050565b634e487b7160e01b5f52603260045260245ffd5b8082018082111561074157610741611f8a565b5f6001820161204457612044611f8a565b5060010190565b8181038181111561074157610741611f8a565b5f6020828403121561206e575f5ffd5b8151611b3e81611d61565b5f60a0820187835286602084015260a0604084015280865180835260c0850191506020880192505f5b818110156120c95783516001600160a01b03168352602093840193909201916001016120a2565b50506001600160a01b03959095166060840152505060800152939250505056fea26469706673582212208c41f3093e802d1b947a31b5aafe4f6533fc637a21689b327b866cbe921ca33664736f6c634300081d0033",
					"opcodes": "PUSH1 0xA0 PUSH1 0x40 MSTORE PUSH1 0x5 DUP1 SLOAD PUSH1 0x1 PUSH1 0x1 PUSH1 0xA0 SHL SUB NOT AND CALLER OR SWAP1 SSTORE PUSH1 0x19 DUP1 SLOAD PUSH1 0x1 PUSH1 0xB8 SHL PUSH3 0xFFFFFF PUSH1 0xA8 SHL NOT SWAP1 SWAP2 AND OR SWAP1 SSTORE CALLVALUE DUP1 ISZERO PUSH2 0x38 JUMPI PUSH0 PUSH0 REVERT JUMPDEST POP PUSH1 0x40 MLOAD PUSH2 0x2903 CODESIZE SUB DUP1 PUSH2 0x2903 DUP4 CODECOPY DUP2 ADD PUSH1 0x40 DUP2 SWAP1 MSTORE PUSH2 0x57 SWAP2 PUSH2 0x5E3 JUMP JUMPDEST DUP1 PUSH1 0x40 MLOAD DUP1 PUSH1 0x40 ADD PUSH1 0x40 MSTORE DUP1 PUSH1 0x8 DUP2 MSTORE PUSH1 0x20 ADD PUSH8 0x26BC902A37B5B2B7 PUSH1 0xC1 SHL DUP2 MSTORE POP PUSH1 0x40 MLOAD DUP1 PUSH1 0x40 ADD PUSH1 0x40 MSTORE DUP1 PUSH1 0x3 DUP2 MSTORE PUSH1 0x20 ADD PUSH3 0x26AA27 PUSH1 0xE9 SHL DUP2 MSTORE POP DUP2 PUSH1 0x3 SWAP1 DUP2 PUSH2 0xA4 SWAP2 SWAP1 PUSH2 0x6A8 JUMP JUMPDEST POP PUSH1 0x4 PUSH2 0xB1 DUP3 DUP3 PUSH2 0x6A8 JUMP JUMPDEST POP POP POP PUSH1 0x1 PUSH1 0x1 PUSH1 0xA0 SHL SUB DUP2 AND PUSH2 0xE2 JUMPI PUSH1 0x40 MLOAD PUSH4 0x1E4FBDF7 PUSH1 0xE0 SHL DUP2 MSTORE PUSH0 PUSH1 0x4 DUP3 ADD MSTORE PUSH1 0x24 ADD JUMPDEST PUSH1 0x40 MLOAD DUP1 SWAP2 SUB SWAP1 REVERT JUMPDEST PUSH2 0xEB DUP2 PUSH2 0x434 JUMP JUMPDEST POP PUSH11 0x295BE96E64066972000000 PUSH1 0x1B DUP2 SWAP1 SSTORE PUSH14 0x314DC6448D9338C15B0A00000000 PUSH1 0x80 MSTORE PUSH2 0x3E8 SWAP1 PUSH2 0x11E SWAP1 PUSH1 0xA PUSH2 0x776 JUMP JUMPDEST PUSH2 0x128 SWAP2 SWAP1 PUSH2 0x793 JUMP JUMPDEST PUSH1 0x14 SSTORE PUSH1 0x1B SLOAD PUSH2 0x3E8 SWAP1 PUSH2 0x13D SWAP1 PUSH1 0xA PUSH2 0x776 JUMP JUMPDEST PUSH2 0x147 SWAP2 SWAP1 PUSH2 0x793 JUMP JUMPDEST PUSH1 0x15 SSTORE PUSH1 0x1B SLOAD PUSH2 0x2710 SWAP1 PUSH2 0x15C SWAP1 PUSH1 0x5 PUSH2 0x776 JUMP JUMPDEST PUSH2 0x166 SWAP2 SWAP1 PUSH2 0x793 JUMP JUMPDEST PUSH1 0x16 SSTORE PUSH1 0x1B SLOAD PUSH2 0x2710 SWAP1 PUSH2 0x17C SWAP1 PUSH2 0x190 PUSH2 0x776 JUMP JUMPDEST PUSH2 0x186 SWAP2 SWAP1 PUSH2 0x793 JUMP JUMPDEST PUSH1 0x17 SSTORE PUSH1 0xF PUSH1 0x10 SSTORE PUSH1 0x28 PUSH1 0x11 SSTORE PUSH1 0x1 PUSH1 0x12 DUP2 SWAP1 SSTORE PUSH0 PUSH1 0x13 DUP2 SWAP1 SSTORE ADDRESS DUP2 MSTORE PUSH1 0x1A PUSH1 0x20 SWAP1 DUP2 MSTORE PUSH1 0x40 SWAP2 DUP3 SWAP1 KECCAK256 DUP1 SLOAD PUSH1 0xFF NOT AND SWAP1 SWAP4 OR SWAP1 SWAP3 SSTORE DUP1 MLOAD PUSH4 0xC45A0155 PUSH1 0xE0 SHL DUP2 MSTORE SWAP1 MLOAD PUSH20 0x9AC64CC6E4415144C455BD8E4837FEA55603E5C3 SWAP3 DUP4 SWAP3 PUSH4 0xC45A0155 SWAP3 PUSH1 0x4 DUP3 DUP2 ADD SWAP4 SWAP3 DUP3 SWAP1 SUB ADD DUP2 DUP7 GAS STATICCALL ISZERO DUP1 ISZERO PUSH2 0x206 JUMPI RETURNDATASIZE PUSH0 PUSH0 RETURNDATACOPY RETURNDATASIZE PUSH0 REVERT JUMPDEST POP POP POP POP PUSH1 0x40 MLOAD RETURNDATASIZE PUSH1 0x1F NOT PUSH1 0x1F DUP3 ADD AND DUP3 ADD DUP1 PUSH1 0x40 MSTORE POP DUP2 ADD SWAP1 PUSH2 0x22A SWAP2 SWAP1 PUSH2 0x5E3 JUMP JUMPDEST PUSH1 0x1 PUSH1 0x1 PUSH1 0xA0 SHL SUB AND PUSH4 0xC9C65396 ADDRESS DUP4 PUSH1 0x1 PUSH1 0x1 PUSH1 0xA0 SHL SUB AND PUSH4 0xAD5C4648 PUSH1 0x40 MLOAD DUP2 PUSH4 0xFFFFFFFF AND PUSH1 0xE0 SHL DUP2 MSTORE PUSH1 0x4 ADD PUSH1 0x20 PUSH1 0x40 MLOAD DUP1 DUP4 SUB DUP2 DUP7 GAS STATICCALL ISZERO DUP1 ISZERO PUSH2 0x275 JUMPI RETURNDATASIZE PUSH0 PUSH0 RETURNDATACOPY RETURNDATASIZE PUSH0 REVERT JUMPDEST POP POP POP POP PUSH1 0x40 MLOAD RETURNDATASIZE PUSH1 0x1F NOT PUSH1 0x1F DUP3 ADD AND DUP3 ADD DUP1 PUSH1 0x40 MSTORE POP DUP2 ADD SWAP1 PUSH2 0x299 SWAP2 SWAP1 PUSH2 0x5E3 JUMP JUMPDEST PUSH1 0x40 MLOAD PUSH1 0x1 PUSH1 0x1 PUSH1 0xE0 SHL SUB NOT PUSH1 0xE0 DUP6 SWAP1 SHL AND DUP2 MSTORE PUSH1 0x1 PUSH1 0x1 PUSH1 0xA0 SHL SUB SWAP3 DUP4 AND PUSH1 0x4 DUP3 ADD MSTORE SWAP2 AND PUSH1 0x24 DUP3 ADD MSTORE PUSH1 0x44 ADD PUSH1 0x20 PUSH1 0x40 MLOAD DUP1 DUP4 SUB DUP2 PUSH0 DUP8 GAS CALL ISZERO DUP1 ISZERO PUSH2 0x2E3 JUMPI RETURNDATASIZE PUSH0 PUSH0 RETURNDATACOPY RETURNDATASIZE PUSH0 REVERT JUMPDEST POP POP POP POP PUSH1 0x40 MLOAD RETURNDATASIZE PUSH1 0x1F NOT PUSH1 0x1F DUP3 ADD AND DUP3 ADD DUP1 PUSH1 0x40 MSTORE POP DUP2 ADD SWAP1 PUSH2 0x307 SWAP2 SWAP1 PUSH2 0x5E3 JUMP JUMPDEST PUSH1 0x19 DUP1 SLOAD PUSH1 0x1 PUSH1 0x1 PUSH1 0xA0 SHL SUB NOT SWAP1 DUP2 AND PUSH1 0x1 PUSH1 0x1 PUSH1 0xA0 SHL SUB SWAP4 DUP5 AND OR SWAP1 SWAP2 SSTORE PUSH1 0x18 DUP1 SLOAD DUP3 AND DUP5 DUP5 AND OR SWAP1 SSTORE PUSH1 0x8 DUP1 SLOAD PUSH20 0x2F8D1DDD0F3CCF0FE21C505A4EBC56F6F4626C0D SWAP1 DUP4 AND DUP2 OR DUP3 SSTORE PUSH1 0x9 DUP1 SLOAD DUP5 AND DUP3 OR DUP2 SSTORE PUSH1 0xA DUP1 SLOAD DUP6 AND DUP4 OR DUP2 SSTORE PUSH1 0xB DUP1 SLOAD DUP7 AND DUP5 OR DUP2 SSTORE PUSH1 0xC DUP1 SLOAD DUP8 AND DUP6 OR DUP2 SSTORE PUSH1 0xD DUP1 SLOAD SWAP1 SWAP8 AND SWAP1 SWAP5 OR DUP7 SSTORE PUSH1 0x6 SLOAD DUP8 AND PUSH0 SWAP1 DUP2 MSTORE PUSH1 0x7 PUSH1 0x20 MSTORE PUSH1 0x40 DUP1 DUP3 KECCAK256 DUP1 SLOAD PUSH1 0xFF NOT SWAP1 DUP2 AND PUSH1 0x1 SWAP1 DUP2 OR SWAP1 SWAP3 SSTORE ADDRESS DUP5 MSTORE DUP3 DUP5 KECCAK256 DUP1 SLOAD DUP3 AND DUP4 OR SWAP1 SSTORE SWAP8 SLOAD DUP11 AND DUP4 MSTORE DUP2 DUP4 KECCAK256 DUP1 SLOAD DUP10 AND DUP3 OR SWAP1 SSTORE SWAP5 SLOAD DUP10 AND DUP3 MSTORE DUP1 DUP3 KECCAK256 DUP1 SLOAD DUP9 AND DUP7 OR SWAP1 SSTORE SWAP3 SLOAD DUP9 AND DUP2 MSTORE DUP3 DUP2 KECCAK256 DUP1 SLOAD DUP8 AND DUP6 OR SWAP1 SSTORE SWAP1 SLOAD DUP8 AND DUP2 MSTORE DUP2 DUP2 KECCAK256 DUP1 SLOAD DUP7 AND DUP5 OR SWAP1 SSTORE SWAP3 SLOAD DUP7 AND DUP4 MSTORE DUP1 DUP4 KECCAK256 DUP1 SLOAD DUP6 AND DUP4 OR SWAP1 SSTORE SWAP4 SLOAD SWAP1 SWAP5 AND DUP2 MSTORE SWAP2 SWAP1 SWAP2 KECCAK256 DUP1 SLOAD SWAP1 SWAP2 AND SWAP1 SWAP2 OR SWAP1 SSTORE PUSH2 0x42D CALLER PUSH1 0x1B SLOAD PUSH2 0x485 JUMP JUMPDEST POP POP PUSH2 0x7C5 JUMP JUMPDEST PUSH1 0x6 DUP1 SLOAD PUSH1 0x1 PUSH1 0x1 PUSH1 0xA0 SHL SUB DUP4 DUP2 AND PUSH1 0x1 PUSH1 0x1 PUSH1 0xA0 SHL SUB NOT DUP4 AND DUP2 OR SWAP1 SWAP4 SSTORE PUSH1 0x40 MLOAD SWAP2 AND SWAP2 SWAP1 DUP3 SWAP1 PUSH32 0x8BE0079C531659141344CD1FD0A4F28419497F9722A3DAAFE3B4186F6B6457E0 SWAP1 PUSH0 SWAP1 LOG3 POP POP JUMP JUMPDEST PUSH1 0x1 PUSH1 0x1 PUSH1 0xA0 SHL SUB DUP3 AND PUSH2 0x4AE JUMPI PUSH1 0x40 MLOAD PUSH4 0xEC442F05 PUSH1 0xE0 SHL DUP2 MSTORE PUSH0 PUSH1 0x4 DUP3 ADD MSTORE PUSH1 0x24 ADD PUSH2 0xD9 JUMP JUMPDEST PUSH2 0x4B9 PUSH0 DUP4 DUP4 PUSH2 0x4BD JUMP JUMPDEST POP POP JUMP JUMPDEST PUSH1 0x1 PUSH1 0x1 PUSH1 0xA0 SHL SUB DUP4 AND PUSH2 0x4E7 JUMPI DUP1 PUSH1 0x2 PUSH0 DUP3 DUP3 SLOAD PUSH2 0x4DC SWAP2 SWAP1 PUSH2 0x7B2 JUMP JUMPDEST SWAP1 SWAP2 SSTORE POP PUSH2 0x557 SWAP1 POP JUMP JUMPDEST PUSH1 0x1 PUSH1 0x1 PUSH1 0xA0 SHL SUB DUP4 AND PUSH0 SWAP1 DUP2 MSTORE PUSH1 0x20 DUP2 SWAP1 MSTORE PUSH1 0x40 SWAP1 KECCAK256 SLOAD DUP2 DUP2 LT ISZERO PUSH2 0x539 JUMPI PUSH1 0x40 MLOAD PUSH4 0x391434E3 PUSH1 0xE2 SHL DUP2 MSTORE PUSH1 0x1 PUSH1 0x1 PUSH1 0xA0 SHL SUB DUP6 AND PUSH1 0x4 DUP3 ADD MSTORE PUSH1 0x24 DUP2 ADD DUP3 SWAP1 MSTORE PUSH1 0x44 DUP2 ADD DUP4 SWAP1 MSTORE PUSH1 0x64 ADD PUSH2 0xD9 JUMP JUMPDEST PUSH1 0x1 PUSH1 0x1 PUSH1 0xA0 SHL SUB DUP5 AND PUSH0 SWAP1 DUP2 MSTORE PUSH1 0x20 DUP2 SWAP1 MSTORE PUSH1 0x40 SWAP1 KECCAK256 SWAP1 DUP3 SWAP1 SUB SWAP1 SSTORE JUMPDEST PUSH1 0x1 PUSH1 0x1 PUSH1 0xA0 SHL SUB DUP3 AND PUSH2 0x573 JUMPI PUSH1 0x2 DUP1 SLOAD DUP3 SWAP1 SUB SWAP1 SSTORE PUSH2 0x591 JUMP JUMPDEST PUSH1 0x1 PUSH1 0x1 PUSH1 0xA0 SHL SUB DUP3 AND PUSH0 SWAP1 DUP2 MSTORE PUSH1 0x20 DUP2 SWAP1 MSTORE PUSH1 0x40 SWAP1 KECCAK256 DUP1 SLOAD DUP3 ADD SWAP1 SSTORE JUMPDEST DUP2 PUSH1 0x1 PUSH1 0x1 PUSH1 0xA0 SHL SUB AND DUP4 PUSH1 0x1 PUSH1 0x1 PUSH1 0xA0 SHL SUB AND PUSH32 0xDDF252AD1BE2C89B69C2B068FC378DAA952BA7F163C4A11628F55A4DF523B3EF DUP4 PUSH1 0x40 MLOAD PUSH2 0x5D6 SWAP2 DUP2 MSTORE PUSH1 0x20 ADD SWAP1 JUMP JUMPDEST PUSH1 0x40 MLOAD DUP1 SWAP2 SUB SWAP1 LOG3 POP POP POP JUMP JUMPDEST PUSH0 PUSH1 0x20 DUP3 DUP5 SUB SLT ISZERO PUSH2 0x5F3 JUMPI PUSH0 PUSH0 REVERT JUMPDEST DUP2 MLOAD PUSH1 0x1 PUSH1 0x1 PUSH1 0xA0 SHL SUB DUP2 AND DUP2 EQ PUSH2 0x609 JUMPI PUSH0 PUSH0 REVERT JUMPDEST SWAP4 SWAP3 POP POP POP JUMP JUMPDEST PUSH4 0x4E487B71 PUSH1 0xE0 SHL PUSH0 MSTORE PUSH1 0x41 PUSH1 0x4 MSTORE PUSH1 0x24 PUSH0 REVERT JUMPDEST PUSH1 0x1 DUP2 DUP2 SHR SWAP1 DUP3 AND DUP1 PUSH2 0x638 JUMPI PUSH1 0x7F DUP3 AND SWAP2 POP JUMPDEST PUSH1 0x20 DUP3 LT DUP2 SUB PUSH2 0x656 JUMPI PUSH4 0x4E487B71 PUSH1 0xE0 SHL PUSH0 MSTORE PUSH1 0x22 PUSH1 0x4 MSTORE PUSH1 0x24 PUSH0 REVERT JUMPDEST POP SWAP2 SWAP1 POP JUMP JUMPDEST PUSH1 0x1F DUP3 GT ISZERO PUSH2 0x6A3 JUMPI DUP1 PUSH0 MSTORE PUSH1 0x20 PUSH0 KECCAK256 PUSH1 0x1F DUP5 ADD PUSH1 0x5 SHR DUP2 ADD PUSH1 0x20 DUP6 LT ISZERO PUSH2 0x681 JUMPI POP DUP1 JUMPDEST PUSH1 0x1F DUP5 ADD PUSH1 0x5 SHR DUP3 ADD SWAP2 POP JUMPDEST DUP2 DUP2 LT ISZERO PUSH2 0x6A0 JUMPI PUSH0 DUP2 SSTORE PUSH1 0x1 ADD PUSH2 0x68D JUMP JUMPDEST POP POP JUMPDEST POP POP POP JUMP JUMPDEST DUP2 MLOAD PUSH1 0x1 PUSH1 0x1 PUSH1 0x40 SHL SUB DUP2 GT ISZERO PUSH2 0x6C1 JUMPI PUSH2 0x6C1 PUSH2 0x610 JUMP JUMPDEST PUSH2 0x6D5 DUP2 PUSH2 0x6CF DUP5 SLOAD PUSH2 0x624 JUMP JUMPDEST DUP5 PUSH2 0x65C JUMP JUMPDEST PUSH1 0x20 PUSH1 0x1F DUP3 GT PUSH1 0x1 DUP2 EQ PUSH2 0x707 JUMPI PUSH0 DUP4 ISZERO PUSH2 0x6F0 JUMPI POP DUP5 DUP3 ADD MLOAD JUMPDEST PUSH0 NOT PUSH1 0x3 DUP6 SWAP1 SHL SHR NOT AND PUSH1 0x1 DUP5 SWAP1 SHL OR DUP5 SSTORE PUSH2 0x6A0 JUMP JUMPDEST PUSH0 DUP5 DUP2 MSTORE PUSH1 0x20 DUP2 KECCAK256 PUSH1 0x1F NOT DUP6 AND SWAP2 JUMPDEST DUP3 DUP2 LT ISZERO PUSH2 0x736 JUMPI DUP8 DUP6 ADD MLOAD DUP3 SSTORE PUSH1 0x20 SWAP5 DUP6 ADD SWAP5 PUSH1 0x1 SWAP1 SWAP3 ADD SWAP2 ADD PUSH2 0x716 JUMP JUMPDEST POP DUP5 DUP3 LT ISZERO PUSH2 0x753 JUMPI DUP7 DUP5 ADD MLOAD PUSH0 NOT PUSH1 0x3 DUP8 SWAP1 SHL PUSH1 0xF8 AND SHR NOT AND DUP2 SSTORE JUMPDEST POP POP POP POP PUSH1 0x1 SWAP1 DUP2 SHL ADD SWAP1 SSTORE POP JUMP JUMPDEST PUSH4 0x4E487B71 PUSH1 0xE0 SHL PUSH0 MSTORE PUSH1 0x11 PUSH1 0x4 MSTORE PUSH1 0x24 PUSH0 REVERT JUMPDEST DUP1 DUP3 MUL DUP2 ISZERO DUP3 DUP3 DIV DUP5 EQ OR PUSH2 0x78D JUMPI PUSH2 0x78D PUSH2 0x762 JUMP JUMPDEST SWAP3 SWAP2 POP POP JUMP JUMPDEST PUSH0 DUP3 PUSH2 0x7AD JUMPI PUSH4 0x4E487B71 PUSH1 0xE0 SHL PUSH0 MSTORE PUSH1 0x12 PUSH1 0x4 MSTORE PUSH1 0x24 PUSH0 REVERT JUMPDEST POP DIV SWAP1 JUMP JUMPDEST DUP1 DUP3 ADD DUP1 DUP3 GT ISZERO PUSH2 0x78D JUMPI PUSH2 0x78D PUSH2 0x762 JUMP JUMPDEST PUSH1 0x80 MLOAD PUSH2 0x211F PUSH2 0x7E4 PUSH0 CODECOPY PUSH0 DUP2 DUP2 PUSH2 0x4EE ADD MSTORE PUSH2 0xCE8 ADD MSTORE PUSH2 0x211F PUSH0 RETURN INVALID PUSH1 0x80 PUSH1 0x40 MSTORE PUSH1 0x4 CALLDATASIZE LT PUSH2 0x1BD JUMPI PUSH0 CALLDATALOAD PUSH1 0xE0 SHR DUP1 PUSH4 0x6ED6A48D GT PUSH2 0xF2 JUMPI DUP1 PUSH4 0xA9059CBB GT PUSH2 0x92 JUMPI DUP1 PUSH4 0xDD62ED3E GT PUSH2 0x62 JUMPI DUP1 PUSH4 0xDD62ED3E EQ PUSH2 0x510 JUMPI DUP1 PUSH4 0xF1D5F517 EQ PUSH2 0x554 JUMPI DUP1 PUSH4 0xF2FDE38B EQ PUSH2 0x573 JUMPI DUP1 PUSH4 0xFCFFF16F EQ PUSH2 0x592 JUMPI PUSH0 PUSH0 REVERT JUMPDEST DUP1 PUSH4 0xA9059CBB EQ PUSH2 0x454 JUMPI DUP1 PUSH4 0xAE601480 EQ PUSH2 0x473 JUMPI DUP1 PUSH4 0xBE647AED EQ PUSH2 0x4BE JUMPI DUP1 PUSH4 0xDD54291B EQ PUSH2 0x4DD JUMPI PUSH0 PUSH0 REVERT JUMPDEST DUP1 PUSH4 0x8DA5CB5B GT PUSH2 0xCD JUMPI DUP1 PUSH4 0x8DA5CB5B EQ PUSH2 0x3F0 JUMPI DUP1 PUSH4 0x8F937CC4 EQ PUSH2 0x40D JUMPI DUP1 PUSH4 0x95D89B41 EQ PUSH2 0x421 JUMPI DUP1 PUSH4 0xA0712D68 EQ PUSH2 0x435 JUMPI PUSH0 PUSH0 REVERT JUMPDEST DUP1 PUSH4 0x6ED6A48D EQ PUSH2 0x394 JUMPI DUP1 PUSH4 0x70A08231 EQ PUSH2 0x3A8 JUMPI DUP1 PUSH4 0x715018A6 EQ PUSH2 0x3DC JUMPI PUSH0 PUSH0 REVERT JUMPDEST DUP1 PUSH4 0x217B6DA6 GT PUSH2 0x15D JUMPI DUP1 PUSH4 0x313CE567 GT PUSH2 0x138 JUMPI DUP1 PUSH4 0x313CE567 EQ PUSH2 0x31C JUMPI DUP1 PUSH4 0x42966C68 EQ PUSH2 0x337 JUMPI DUP1 PUSH4 0x620CC86C EQ PUSH2 0x356 JUMPI DUP1 PUSH4 0x667F6526 EQ PUSH2 0x375 JUMPI PUSH0 PUSH0 REVERT JUMPDEST DUP1 PUSH4 0x217B6DA6 EQ PUSH2 0x2CA JUMPI DUP1 PUSH4 0x23B872DD EQ PUSH2 0x2DE JUMPI DUP1 PUSH4 0x2DC4F5E6 EQ PUSH2 0x2FD JUMPI PUSH0 PUSH0 REVERT JUMPDEST DUP1 PUSH4 0x95EA7B3 GT PUSH2 0x198 JUMPI DUP1 PUSH4 0x95EA7B3 EQ PUSH2 0x227 JUMPI DUP1 PUSH4 0x1694505E EQ PUSH2 0x256 JUMPI DUP1 PUSH4 0x18160DDD EQ PUSH2 0x28D JUMPI DUP1 PUSH4 0x1C537DE5 EQ PUSH2 0x2AB JUMPI PUSH0 PUSH0 REVERT JUMPDEST DUP1 PUSH4 0x313FC4B EQ PUSH2 0x1C8 JUMPI DUP1 PUSH4 0x6FDDE03 EQ PUSH2 0x1E9 JUMPI DUP1 PUSH4 0x8ADE0C9 EQ PUSH2 0x213 JUMPI PUSH0 PUSH0 REVERT JUMPDEST CALLDATASIZE PUSH2 0x1C4 JUMPI STOP JUMPDEST PUSH0 PUSH0 REVERT JUMPDEST CALLVALUE DUP1 ISZERO PUSH2 0x1D3 JUMPI PUSH0 PUSH0 REVERT JUMPDEST POP PUSH2 0x1E7 PUSH2 0x1E2 CALLDATASIZE PUSH1 0x4 PUSH2 0x1D0C JUMP JUMPDEST PUSH2 0x5A6 JUMP JUMPDEST STOP JUMPDEST CALLVALUE DUP1 ISZERO PUSH2 0x1F4 JUMPI PUSH0 PUSH0 REVERT JUMPDEST POP PUSH2 0x1FD PUSH2 0x629 JUMP JUMPDEST PUSH1 0x40 MLOAD PUSH2 0x20A SWAP2 SWAP1 PUSH2 0x1D2C JUMP JUMPDEST PUSH1 0x40 MLOAD DUP1 SWAP2 SUB SWAP1 RETURN JUMPDEST CALLVALUE DUP1 ISZERO PUSH2 0x21E JUMPI PUSH0 PUSH0 REVERT JUMPDEST POP PUSH2 0x1E7 PUSH2 0x6B9 JUMP JUMPDEST CALLVALUE DUP1 ISZERO PUSH2 0x232 JUMPI PUSH0 PUSH0 REVERT JUMPDEST POP PUSH2 0x246 PUSH2 0x241 CALLDATASIZE PUSH1 0x4 PUSH2 0x1D75 JUMP JUMPDEST PUSH2 0x72E JUMP JUMPDEST PUSH1 0x40 MLOAD SWAP1 ISZERO ISZERO DUP2 MSTORE PUSH1 0x20 ADD PUSH2 0x20A JUMP JUMPDEST CALLVALUE DUP1 ISZERO PUSH2 0x261 JUMPI PUSH0 PUSH0 REVERT JUMPDEST POP PUSH1 0x18 SLOAD PUSH2 0x275 SWAP1 PUSH1 0x1 PUSH1 0x1 PUSH1 0xA0 SHL SUB AND DUP2 JUMP JUMPDEST PUSH1 0x40 MLOAD PUSH1 0x1 PUSH1 0x1 PUSH1 0xA0 SHL SUB SWAP1 SWAP2 AND DUP2 MSTORE PUSH1 0x20 ADD PUSH2 0x20A JUMP JUMPDEST CALLVALUE DUP1 ISZERO PUSH2 0x298 JUMPI PUSH0 PUSH0 REVERT JUMPDEST POP PUSH1 0x2 SLOAD JUMPDEST PUSH1 0x40 MLOAD SWAP1 DUP2 MSTORE PUSH1 0x20 ADD PUSH2 0x20A JUMP JUMPDEST CALLVALUE DUP1 ISZERO PUSH2 0x2B6 JUMPI PUSH0 PUSH0 REVERT JUMPDEST POP PUSH2 0x1E7 PUSH2 0x2C5 CALLDATASIZE PUSH1 0x4 PUSH2 0x1DB3 JUMP JUMPDEST PUSH2 0x747 JUMP JUMPDEST CALLVALUE DUP1 ISZERO PUSH2 0x2D5 JUMPI PUSH0 PUSH0 REVERT JUMPDEST POP PUSH2 0x1E7 PUSH2 0x7B9 JUMP JUMPDEST CALLVALUE DUP1 ISZERO PUSH2 0x2E9 JUMPI PUSH0 PUSH0 REVERT JUMPDEST POP PUSH2 0x246 PUSH2 0x2F8 CALLDATASIZE PUSH1 0x4 PUSH2 0x1E32 JUMP JUMPDEST PUSH2 0x982 JUMP JUMPDEST CALLVALUE DUP1 ISZERO PUSH2 0x308 JUMPI PUSH0 PUSH0 REVERT JUMPDEST POP PUSH2 0x1E7 PUSH2 0x317 CALLDATASIZE PUSH1 0x4 PUSH2 0x1E70 JUMP JUMPDEST PUSH2 0x9A5 JUMP JUMPDEST CALLVALUE DUP1 ISZERO PUSH2 0x327 JUMPI PUSH0 PUSH0 REVERT JUMPDEST POP PUSH1 0x40 MLOAD PUSH1 0x12 DUP2 MSTORE PUSH1 0x20 ADD PUSH2 0x20A JUMP JUMPDEST CALLVALUE DUP1 ISZERO PUSH2 0x342 JUMPI PUSH0 PUSH0 REVERT JUMPDEST POP PUSH2 0x1E7 PUSH2 0x351 CALLDATASIZE PUSH1 0x4 PUSH2 0x1EA3 JUMP JUMPDEST PUSH2 0xA08 JUMP JUMPDEST CALLVALUE DUP1 ISZERO PUSH2 0x361 JUMPI PUSH0 PUSH0 REVERT JUMPDEST POP PUSH2 0x1E7 PUSH2 0x370 CALLDATASIZE PUSH1 0x4 PUSH2 0x1EA3 JUMP JUMPDEST PUSH2 0xA2E JUMP JUMPDEST CALLVALUE DUP1 ISZERO PUSH2 0x380 JUMPI PUSH0 PUSH0 REVERT JUMPDEST POP PUSH2 0x1E7 PUSH2 0x38F CALLDATASIZE PUSH1 0x4 PUSH2 0x1D0C JUMP JUMPDEST PUSH2 0xADE JUMP JUMPDEST CALLVALUE DUP1 ISZERO PUSH2 0x39F JUMPI PUSH0 PUSH0 REVERT JUMPDEST POP PUSH2 0x1E7 PUSH2 0xBB9 JUMP JUMPDEST CALLVALUE DUP1 ISZERO PUSH2 0x3B3 JUMPI PUSH0 PUSH0 REVERT JUMPDEST POP PUSH2 0x29D PUSH2 0x3C2 CALLDATASIZE PUSH1 0x4 PUSH2 0x1EBA JUMP JUMPDEST PUSH1 0x1 PUSH1 0x1 PUSH1 0xA0 SHL SUB AND PUSH0 SWAP1 DUP2 MSTORE PUSH1 0x20 DUP2 SWAP1 MSTORE PUSH1 0x40 SWAP1 KECCAK256 SLOAD SWAP1 JUMP JUMPDEST CALLVALUE DUP1 ISZERO PUSH2 0x3E7 JUMPI PUSH0 PUSH0 REVERT JUMPDEST POP PUSH2 0x1E7 PUSH2 0xC3E JUMP JUMPDEST CALLVALUE DUP1 ISZERO PUSH2 0x3FB JUMPI PUSH0 PUSH0 REVERT JUMPDEST POP PUSH1 0x6 SLOAD PUSH1 0x1 PUSH1 0x1 PUSH1 0xA0 SHL SUB AND PUSH2 0x275 JUMP JUMPDEST CALLVALUE DUP1 ISZERO PUSH2 0x418 JUMPI PUSH0 PUSH0 REVERT JUMPDEST POP PUSH2 0x1E7 PUSH2 0xC51 JUMP JUMPDEST CALLVALUE DUP1 ISZERO PUSH2 0x42C JUMPI PUSH0 PUSH0 REVERT JUMPDEST POP PUSH2 0x1FD PUSH2 0xCCF JUMP JUMPDEST CALLVALUE DUP1 ISZERO PUSH2 0x440 JUMPI PUSH0 PUSH0 REVERT JUMPDEST POP PUSH2 0x1E7 PUSH2 0x44F CALLDATASIZE PUSH1 0x4 PUSH2 0x1EA3 JUMP JUMPDEST PUSH2 0xCDE JUMP JUMPDEST CALLVALUE DUP1 ISZERO PUSH2 0x45F JUMPI PUSH0 PUSH0 REVERT JUMPDEST POP PUSH2 0x246 PUSH2 0x46E CALLDATASIZE PUSH1 0x4 PUSH2 0x1D75 JUMP JUMPDEST PUSH2 0xD75 JUMP JUMPDEST CALLVALUE DUP1 ISZERO PUSH2 0x47E JUMPI PUSH0 PUSH0 REVERT JUMPDEST POP PUSH1 0x10 SLOAD PUSH1 0x11 SLOAD PUSH1 0x14 SLOAD PUSH1 0x15 SLOAD PUSH1 0x16 SLOAD PUSH1 0x17 SLOAD PUSH1 0x40 DUP1 MLOAD SWAP7 DUP8 MSTORE PUSH1 0x20 DUP8 ADD SWAP6 SWAP1 SWAP6 MSTORE SWAP4 DUP6 ADD SWAP3 SWAP1 SWAP3 MSTORE PUSH1 0x60 DUP5 ADD MSTORE PUSH1 0x80 DUP4 ADD MSTORE PUSH1 0xA0 DUP3 ADD MSTORE PUSH1 0xC0 ADD PUSH2 0x20A JUMP JUMPDEST CALLVALUE DUP1 ISZERO PUSH2 0x4C9 JUMPI PUSH0 PUSH0 REVERT JUMPDEST POP PUSH2 0x1E7 PUSH2 0x4D8 CALLDATASIZE PUSH1 0x4 PUSH2 0x1ED5 JUMP JUMPDEST PUSH2 0xD82 JUMP JUMPDEST CALLVALUE DUP1 ISZERO PUSH2 0x4E8 JUMPI PUSH0 PUSH0 REVERT JUMPDEST POP PUSH2 0x29D PUSH32 0x0 DUP2 JUMP JUMPDEST CALLVALUE DUP1 ISZERO PUSH2 0x51B JUMPI PUSH0 PUSH0 REVERT JUMPDEST POP PUSH2 0x29D PUSH2 0x52A CALLDATASIZE PUSH1 0x4 PUSH2 0x1F53 JUMP JUMPDEST PUSH1 0x1 PUSH1 0x1 PUSH1 0xA0 SHL SUB SWAP2 DUP3 AND PUSH0 SWAP1 DUP2 MSTORE PUSH1 0x1 PUSH1 0x20 SWAP1 DUP2 MSTORE PUSH1 0x40 DUP1 DUP4 KECCAK256 SWAP4 SWAP1 SWAP5 AND DUP3 MSTORE SWAP2 SWAP1 SWAP2 MSTORE KECCAK256 SLOAD SWAP1 JUMP JUMPDEST CALLVALUE DUP1 ISZERO PUSH2 0x55F JUMPI PUSH0 PUSH0 REVERT JUMPDEST POP PUSH2 0x1E7 PUSH2 0x56E CALLDATASIZE PUSH1 0x4 PUSH2 0x1EA3 JUMP JUMPDEST PUSH2 0xE50 JUMP JUMPDEST CALLVALUE DUP1 ISZERO PUSH2 0x57E JUMPI PUSH0 PUSH0 REVERT JUMPDEST POP PUSH2 0x1E7 PUSH2 0x58D CALLDATASIZE PUSH1 0x4 PUSH2 0x1EBA JUMP JUMPDEST PUSH2 0xF04 JUMP JUMPDEST CALLVALUE DUP1 ISZERO PUSH2 0x59D JUMPI PUSH0 PUSH0 REVERT JUMPDEST POP PUSH2 0x1E7 PUSH2 0xF3E JUMP JUMPDEST PUSH2 0x5AE PUSH2 0x102B JUMP JUMPDEST PUSH2 0x2710 DUP3 PUSH1 0x1B SLOAD PUSH2 0x5BF SWAP2 SWAP1 PUSH2 0x1F9E JUMP JUMPDEST PUSH2 0x5C9 SWAP2 SWAP1 PUSH2 0x1FB5 JUMP JUMPDEST PUSH1 0x16 SSTORE PUSH1 0x1B SLOAD PUSH2 0x2710 SWAP1 PUSH2 0x5DE SWAP1 DUP4 SWAP1 PUSH2 0x1F9E JUMP JUMPDEST PUSH2 0x5E8 SWAP2 SWAP1 PUSH2 0x1FB5 JUMP JUMPDEST PUSH1 0x17 SSTORE PUSH1 0x40 DUP1 MLOAD DUP4 DUP2 MSTORE PUSH1 0x20 DUP2 ADD DUP4 SWAP1 MSTORE PUSH32 0x2B3F4C022D9943B151090E389857495BB9D8493714259CC19A540F5A11475FB1 SWAP2 ADD JUMPDEST PUSH1 0x40 MLOAD DUP1 SWAP2 SUB SWAP1 LOG1 POP POP JUMP JUMPDEST PUSH1 0x60 PUSH1 0x3 DUP1 SLOAD PUSH2 0x638 SWAP1 PUSH2 0x1FD4 JUMP JUMPDEST DUP1 PUSH1 0x1F ADD PUSH1 0x20 DUP1 SWAP2 DIV MUL PUSH1 0x20 ADD PUSH1 0x40 MLOAD SWAP1 DUP2 ADD PUSH1 0x40 MSTORE DUP1 SWAP3 SWAP2 SWAP1 DUP2 DUP2 MSTORE PUSH1 0x20 ADD DUP3 DUP1 SLOAD PUSH2 0x664 SWAP1 PUSH2 0x1FD4 JUMP JUMPDEST DUP1 ISZERO PUSH2 0x6AF JUMPI DUP1 PUSH1 0x1F LT PUSH2 0x686 JUMPI PUSH2 0x100 DUP1 DUP4 SLOAD DIV MUL DUP4 MSTORE SWAP2 PUSH1 0x20 ADD SWAP2 PUSH2 0x6AF JUMP JUMPDEST DUP3 ADD SWAP2 SWAP1 PUSH0 MSTORE PUSH1 0x20 PUSH0 KECCAK256 SWAP1 JUMPDEST DUP2 SLOAD DUP2 MSTORE SWAP1 PUSH1 0x1 ADD SWAP1 PUSH1 0x20 ADD DUP1 DUP4 GT PUSH2 0x692 JUMPI DUP3 SWAP1 SUB PUSH1 0x1F AND DUP3 ADD SWAP2 JUMPDEST POP POP POP POP POP SWAP1 POP SWAP1 JUMP JUMPDEST PUSH2 0x6C1 PUSH2 0x102B JUMP JUMPDEST PUSH1 0x19 SLOAD PUSH1 0x1 PUSH1 0xB8 SHL SWAP1 DIV PUSH1 0xFF AND PUSH2 0x71F JUMPI PUSH1 0x40 MLOAD PUSH3 0x461BCD PUSH1 0xE5 SHL DUP2 MSTORE PUSH1 0x20 PUSH1 0x4 DUP3 ADD MSTORE PUSH1 0x1F PUSH1 0x24 DUP3 ADD MSTORE PUSH32 0x4C61756E6368206D6F646520697320616C72656164792064697361626C656400 PUSH1 0x44 DUP3 ADD MSTORE PUSH1 0x64 ADD JUMPDEST PUSH1 0x40 MLOAD DUP1 SWAP2 SUB SWAP1 REVERT JUMPDEST PUSH1 0x19 DUP1 SLOAD PUSH1 0xFF PUSH1 0xB8 SHL NOT AND SWAP1 SSTORE JUMP JUMPDEST PUSH0 CALLER PUSH2 0x73B DUP2 DUP6 DUP6 PUSH2 0x1058 JUMP JUMPDEST PUSH1 0x1 SWAP2 POP POP JUMPDEST SWAP3 SWAP2 POP POP JUMP JUMPDEST PUSH2 0x74F PUSH2 0x102B JUMP JUMPDEST PUSH0 JUMPDEST DUP3 DUP2 LT ISZERO PUSH2 0x7B3 JUMPI DUP2 PUSH1 0x1A PUSH0 DUP7 DUP7 DUP6 DUP2 DUP2 LT PUSH2 0x76F JUMPI PUSH2 0x76F PUSH2 0x200C JUMP JUMPDEST SWAP1 POP PUSH1 0x20 MUL ADD PUSH1 0x20 DUP2 ADD SWAP1 PUSH2 0x784 SWAP2 SWAP1 PUSH2 0x1EBA JUMP JUMPDEST PUSH1 0x1 PUSH1 0x1 PUSH1 0xA0 SHL SUB AND DUP2 MSTORE PUSH1 0x20 DUP2 ADD SWAP2 SWAP1 SWAP2 MSTORE PUSH1 0x40 ADD PUSH0 KECCAK256 DUP1 SLOAD PUSH1 0xFF NOT AND SWAP2 ISZERO ISZERO SWAP2 SWAP1 SWAP2 OR SWAP1 SSTORE PUSH1 0x1 ADD PUSH2 0x751 JUMP JUMPDEST POP POP POP POP JUMP JUMPDEST PUSH1 0x6 SLOAD PUSH1 0x1 PUSH1 0x1 PUSH1 0xA0 SHL SUB AND CALLER EQ PUSH2 0x813 JUMPI PUSH1 0x40 MLOAD PUSH3 0x461BCD PUSH1 0xE5 SHL DUP2 MSTORE PUSH1 0x20 PUSH1 0x4 DUP3 ADD MSTORE PUSH1 0x1D PUSH1 0x24 DUP3 ADD MSTORE PUSH32 0x4F6E6C79206665652072656365697665722063616E2074726967676572000000 PUSH1 0x44 DUP3 ADD MSTORE PUSH1 0x64 ADD PUSH2 0x716 JUMP JUMPDEST PUSH0 PUSH2 0x81F PUSH1 0x2 SELFBALANCE PUSH2 0x1FB5 JUMP JUMPDEST SWAP1 POP PUSH0 PUSH2 0x82D PUSH1 0x5 DUP4 PUSH2 0x1FB5 JUMP JUMPDEST PUSH1 0x8 SLOAD PUSH1 0x40 MLOAD SWAP2 SWAP3 POP PUSH1 0x1 PUSH1 0x1 PUSH1 0xA0 SHL SUB AND SWAP1 DUP4 ISZERO PUSH2 0x8FC MUL SWAP1 DUP5 SWAP1 PUSH0 DUP2 DUP2 DUP2 DUP6 DUP9 DUP9 CALL SWAP4 POP POP POP POP ISZERO DUP1 ISZERO PUSH2 0x865 JUMPI RETURNDATASIZE PUSH0 PUSH0 RETURNDATACOPY RETURNDATASIZE PUSH0 REVERT JUMPDEST POP PUSH1 0x9 SLOAD PUSH1 0x40 MLOAD PUSH1 0x1 PUSH1 0x1 PUSH1 0xA0 SHL SUB SWAP1 SWAP2 AND SWAP1 DUP3 ISZERO PUSH2 0x8FC MUL SWAP1 DUP4 SWAP1 PUSH0 DUP2 DUP2 DUP2 DUP6 DUP9 DUP9 CALL SWAP4 POP POP POP POP ISZERO DUP1 ISZERO PUSH2 0x89D JUMPI RETURNDATASIZE PUSH0 PUSH0 RETURNDATACOPY RETURNDATASIZE PUSH0 REVERT JUMPDEST POP PUSH1 0xA SLOAD PUSH1 0x40 MLOAD PUSH1 0x1 PUSH1 0x1 PUSH1 0xA0 SHL SUB SWAP1 SWAP2 AND SWAP1 DUP3 ISZERO PUSH2 0x8FC MUL SWAP1 DUP4 SWAP1 PUSH0 DUP2 DUP2 DUP2 DUP6 DUP9 DUP9 CALL SWAP4 POP POP POP POP ISZERO DUP1 ISZERO PUSH2 0x8D5 JUMPI RETURNDATASIZE PUSH0 PUSH0 RETURNDATACOPY RETURNDATASIZE PUSH0 REVERT JUMPDEST POP PUSH1 0xB SLOAD PUSH1 0x40 MLOAD PUSH1 0x1 PUSH1 0x1 PUSH1 0xA0 SHL SUB SWAP1 SWAP2 AND SWAP1 DUP3 ISZERO PUSH2 0x8FC MUL SWAP1 DUP4 SWAP1 PUSH0 DUP2 DUP2 DUP2 DUP6 DUP9 DUP9 CALL SWAP4 POP POP POP POP ISZERO DUP1 ISZERO PUSH2 0x90D JUMPI RETURNDATASIZE PUSH0 PUSH0 RETURNDATACOPY RETURNDATASIZE PUSH0 REVERT JUMPDEST POP PUSH1 0xC SLOAD PUSH1 0x40 MLOAD PUSH1 0x1 PUSH1 0x1 PUSH1 0xA0 SHL SUB SWAP1 SWAP2 AND SWAP1 DUP3 ISZERO PUSH2 0x8FC MUL SWAP1 DUP4 SWAP1 PUSH0 DUP2 DUP2 DUP2 DUP6 DUP9 DUP9 CALL SWAP4 POP POP POP POP ISZERO DUP1 ISZERO PUSH2 0x945 JUMPI RETURNDATASIZE PUSH0 PUSH0 RETURNDATACOPY RETURNDATASIZE PUSH0 REVERT JUMPDEST POP PUSH1 0xD SLOAD PUSH1 0x40 MLOAD PUSH1 0x1 PUSH1 0x1 PUSH1 0xA0 SHL SUB SWAP1 SWAP2 AND SWAP1 DUP3 ISZERO PUSH2 0x8FC MUL SWAP1 DUP4 SWAP1 PUSH0 DUP2 DUP2 DUP2 DUP6 DUP9 DUP9 CALL SWAP4 POP POP POP POP ISZERO DUP1 ISZERO PUSH2 0x97D JUMPI RETURNDATASIZE PUSH0 PUSH0 RETURNDATACOPY RETURNDATASIZE PUSH0 REVERT JUMPDEST POP POP POP JUMP JUMPDEST PUSH0 CALLER PUSH2 0x98F DUP6 DUP3 DUP6 PUSH2 0x1065 JUMP JUMPDEST PUSH2 0x99A DUP6 DUP6 DUP6 PUSH2 0x10DA JUMP JUMPDEST POP PUSH1 0x1 SWAP5 SWAP4 POP POP POP POP JUMP JUMPDEST PUSH2 0x9AD PUSH2 0x102B JUMP JUMPDEST PUSH1 0x1 PUSH1 0x1 PUSH1 0xA0 SHL SUB DUP3 AND PUSH0 DUP2 DUP2 MSTORE PUSH1 0x7 PUSH1 0x20 SWAP1 DUP2 MSTORE PUSH1 0x40 SWAP2 DUP3 SWAP1 KECCAK256 DUP1 SLOAD PUSH1 0xFF NOT AND DUP6 ISZERO ISZERO SWAP1 DUP2 OR SWAP1 SWAP2 SSTORE DUP3 MLOAD SWAP4 DUP5 MSTORE SWAP1 DUP4 ADD MSTORE PUSH32 0x2D43ABD87B27CEE7B0AA8C6F7E0B4A3247B683262A83CBC2318B0DF398A49AA9 SWAP2 ADD PUSH2 0x61D JUMP JUMPDEST PUSH2 0xA10 PUSH2 0x102B JUMP JUMPDEST PUSH2 0xA2B PUSH2 0xA25 PUSH1 0x6 SLOAD PUSH1 0x1 PUSH1 0x1 PUSH1 0xA0 SHL SUB AND SWAP1 JUMP JUMPDEST DUP3 PUSH2 0x1616 JUMP JUMPDEST POP JUMP JUMPDEST PUSH2 0xA36 PUSH2 0x102B JUMP JUMPDEST PUSH1 0x1 DUP2 LT ISZERO PUSH2 0xA87 JUMPI PUSH1 0x40 MLOAD PUSH3 0x461BCD PUSH1 0xE5 SHL DUP2 MSTORE PUSH1 0x20 PUSH1 0x4 DUP3 ADD MSTORE PUSH1 0x1E PUSH1 0x24 DUP3 ADD MSTORE PUSH32 0x4D61782074782063616E74206265206C6F776572207468616E20302E31250000 PUSH1 0x44 DUP3 ADD MSTORE PUSH1 0x64 ADD PUSH2 0x716 JUMP JUMPDEST PUSH2 0x3E8 DUP2 PUSH1 0x1B SLOAD PUSH2 0xA98 SWAP2 SWAP1 PUSH2 0x1F9E JUMP JUMPDEST PUSH2 0xAA2 SWAP2 SWAP1 PUSH2 0x1FB5 JUMP JUMPDEST PUSH1 0x14 DUP2 SWAP1 SSTORE PUSH1 0x40 MLOAD SWAP1 DUP2 MSTORE PUSH32 0x947F344D56E1E8C70DC492FB94C4DDDDD490C016AAB685F5E7E47B2E85CB44CF SWAP1 PUSH1 0x20 ADD JUMPDEST PUSH1 0x40 MLOAD DUP1 SWAP2 SUB SWAP1 LOG1 POP JUMP JUMPDEST PUSH2 0xAE6 PUSH2 0x102B JUMP JUMPDEST PUSH1 0x63 DUP3 GT ISZERO PUSH2 0xB2F JUMPI PUSH1 0x40 MLOAD PUSH3 0x461BCD PUSH1 0xE5 SHL DUP2 MSTORE PUSH1 0x20 PUSH1 0x4 DUP3 ADD MSTORE PUSH1 0x15 PUSH1 0x24 DUP3 ADD MSTORE PUSH21 0x496E76616C696420627579207461782076616C7565 PUSH1 0x58 SHL PUSH1 0x44 DUP3 ADD MSTORE PUSH1 0x64 ADD PUSH2 0x716 JUMP JUMPDEST PUSH1 0x63 DUP2 GT ISZERO PUSH2 0xB79 JUMPI PUSH1 0x40 MLOAD PUSH3 0x461BCD PUSH1 0xE5 SHL DUP2 MSTORE PUSH1 0x20 PUSH1 0x4 DUP3 ADD MSTORE PUSH1 0x16 PUSH1 0x24 DUP3 ADD MSTORE PUSH22 0x496E76616C69642073656C6C207461782076616C7565 PUSH1 0x50 SHL PUSH1 0x44 DUP3 ADD MSTORE PUSH1 0x64 ADD PUSH2 0x716 JUMP JUMPDEST PUSH1 0x10 DUP3 SWAP1 SSTORE PUSH1 0x11 DUP2 SWAP1 SSTORE PUSH1 0x40 DUP1 MLOAD DUP4 DUP2 MSTORE PUSH1 0x20 DUP2 ADD DUP4 SWAP1 MSTORE PUSH32 0x5C6323BF1C2D7AAEA2C091A4751C1C87AF7F2864650C336507A77D0557AF37A1 SWAP2 ADD PUSH2 0x61D JUMP JUMPDEST PUSH2 0xBC1 PUSH2 0x102B JUMP JUMPDEST PUSH1 0x1B SLOAD PUSH1 0x14 DUP2 SWAP1 SSTORE PUSH1 0x15 DUP2 SWAP1 SSTORE PUSH1 0x40 MLOAD SWAP1 DUP2 MSTORE PUSH32 0x947F344D56E1E8C70DC492FB94C4DDDDD490C016AAB685F5E7E47B2E85CB44CF SWAP1 PUSH1 0x20 ADD PUSH1 0x40 MLOAD DUP1 SWAP2 SUB SWAP1 LOG1 PUSH32 0x4B39C36D20C57D220F61FD25C4349D4435CC03EF6C2A680942F15333C3C3E001 PUSH1 0x1B SLOAD PUSH1 0x40 MLOAD PUSH2 0xC34 SWAP2 DUP2 MSTORE PUSH1 0x20 ADD SWAP1 JUMP JUMPDEST PUSH1 0x40 MLOAD DUP1 SWAP2 SUB SWAP1 LOG1 JUMP JUMPDEST PUSH2 0xC46 PUSH2 0x102B JUMP JUMPDEST PUSH2 0xC4F PUSH0 PUSH2 0x164A JUMP JUMPDEST JUMP JUMPDEST PUSH1 0x6 SLOAD PUSH1 0x1 PUSH1 0x1 PUSH1 0xA0 SHL SUB AND CALLER EQ PUSH2 0xCA4 JUMPI PUSH1 0x40 MLOAD PUSH3 0x461BCD PUSH1 0xE5 SHL DUP2 MSTORE PUSH1 0x20 PUSH1 0x4 DUP3 ADD MSTORE PUSH1 0x16 PUSH1 0x24 DUP3 ADD MSTORE PUSH22 0x27B7363C9037BBB732B91031B0B7103A3934B3B3B2B9 PUSH1 0x51 SHL PUSH1 0x44 DUP3 ADD MSTORE PUSH1 0x64 ADD PUSH2 0x716 JUMP JUMPDEST ADDRESS PUSH0 SWAP1 DUP2 MSTORE PUSH1 0x20 DUP2 SWAP1 MSTORE PUSH1 0x40 SWAP1 KECCAK256 SLOAD PUSH2 0xCBC DUP2 PUSH2 0x169B JUMP JUMPDEST SELFBALANCE DUP1 ISZERO PUSH2 0xCCB JUMPI PUSH2 0xCCB PUSH2 0x182A JUMP JUMPDEST POP POP JUMP JUMPDEST PUSH1 0x60 PUSH1 0x4 DUP1 SLOAD PUSH2 0x638 SWAP1 PUSH2 0x1FD4 JUMP JUMPDEST PUSH2 0xCE6 PUSH2 0x102B JUMP JUMPDEST PUSH32 0x0 DUP2 PUSH1 0x1B SLOAD PUSH2 0xD15 SWAP2 SWAP1 PUSH2 0x2020 JUMP JUMPDEST GT ISZERO PUSH2 0xD5A JUMPI PUSH1 0x40 MLOAD PUSH3 0x461BCD PUSH1 0xE5 SHL DUP2 MSTORE PUSH1 0x20 PUSH1 0x4 DUP3 ADD MSTORE PUSH1 0x14 PUSH1 0x24 DUP3 ADD MSTORE PUSH20 0x14DD5C1C1B1E48131A5B5A5D0814995858DA1959 PUSH1 0x62 SHL PUSH1 0x44 DUP3 ADD MSTORE PUSH1 0x64 ADD PUSH2 0x716 JUMP JUMPDEST PUSH2 0xA2B PUSH2 0xD6F PUSH1 0x6 SLOAD PUSH1 0x1 PUSH1 0x1 PUSH1 0xA0 SHL SUB AND SWAP1 JUMP JUMPDEST DUP3 PUSH2 0x1A28 JUMP JUMPDEST PUSH0 CALLER PUSH2 0x73B DUP2 DUP6 DUP6 PUSH2 0x10DA JUMP JUMPDEST PUSH2 0xD8A PUSH2 0x102B JUMP JUMPDEST PUSH1 0x8 DUP1 SLOAD PUSH1 0x1 PUSH1 0x1 PUSH1 0xA0 SHL SUB DUP9 DUP2 AND PUSH1 0x1 PUSH1 0x1 PUSH1 0xA0 SHL SUB NOT SWAP3 DUP4 AND DUP2 OR SWAP1 SWAP4 SSTORE PUSH1 0x9 DUP1 SLOAD DUP10 DUP4 AND SWAP1 DUP5 AND DUP2 OR SWAP1 SWAP2 SSTORE PUSH1 0xA DUP1 SLOAD DUP10 DUP5 AND SWAP1 DUP6 AND DUP2 OR SWAP1 SWAP2 SSTORE PUSH1 0xB DUP1 SLOAD DUP10 DUP6 AND SWAP1 DUP7 AND DUP2 OR SWAP1 SWAP2 SSTORE PUSH1 0xC DUP1 SLOAD DUP10 DUP7 AND SWAP1 DUP8 AND DUP2 OR SWAP1 SWAP2 SSTORE PUSH1 0xD DUP1 SLOAD SWAP6 DUP10 AND SWAP6 SWAP1 SWAP7 AND DUP6 OR SWAP1 SWAP6 SSTORE PUSH1 0x40 DUP1 MLOAD SWAP7 DUP8 MSTORE PUSH1 0x20 DUP8 ADD SWAP4 SWAP1 SWAP4 MSTORE SWAP2 DUP6 ADD MSTORE PUSH1 0x60 DUP5 ADD MSTORE PUSH1 0x80 DUP4 ADD SWAP2 SWAP1 SWAP2 MSTORE PUSH1 0xA0 DUP3 ADD MSTORE PUSH32 0xE1A9F1E6AEAE46DA03AC69E660A1436F6A8A06342A79C23C92E8D24B8F7232C5 SWAP1 PUSH1 0xC0 ADD PUSH1 0x40 MLOAD DUP1 SWAP2 SUB SWAP1 LOG1 POP POP POP POP POP POP JUMP JUMPDEST PUSH2 0xE58 PUSH2 0x102B JUMP JUMPDEST PUSH1 0x1 DUP2 LT ISZERO PUSH2 0xEB4 JUMPI PUSH1 0x40 MLOAD PUSH3 0x461BCD PUSH1 0xE5 SHL DUP2 MSTORE PUSH1 0x20 PUSH1 0x4 DUP3 ADD MSTORE PUSH1 0x22 PUSH1 0x24 DUP3 ADD MSTORE PUSH32 0x4D61782077616C6C65742063616E74206265206C6F776572207468616E20302E PUSH1 0x44 DUP3 ADD MSTORE PUSH2 0x3125 PUSH1 0xF0 SHL PUSH1 0x64 DUP3 ADD MSTORE PUSH1 0x84 ADD PUSH2 0x716 JUMP JUMPDEST PUSH2 0x3E8 DUP2 PUSH1 0x1B SLOAD PUSH2 0xEC5 SWAP2 SWAP1 PUSH2 0x1F9E JUMP JUMPDEST PUSH2 0xECF SWAP2 SWAP1 PUSH2 0x1FB5 JUMP JUMPDEST PUSH1 0x15 DUP2 SWAP1 SSTORE PUSH1 0x40 MLOAD SWAP1 DUP2 MSTORE PUSH32 0x4B39C36D20C57D220F61FD25C4349D4435CC03EF6C2A680942F15333C3C3E001 SWAP1 PUSH1 0x20 ADD PUSH2 0xAD3 JUMP JUMPDEST PUSH2 0xF0C PUSH2 0x102B JUMP JUMPDEST PUSH1 0x1 PUSH1 0x1 PUSH1 0xA0 SHL SUB DUP2 AND PUSH2 0xF35 JUMPI PUSH1 0x40 MLOAD PUSH4 0x1E4FBDF7 PUSH1 0xE0 SHL DUP2 MSTORE PUSH0 PUSH1 0x4 DUP3 ADD MSTORE PUSH1 0x24 ADD PUSH2 0x716 JUMP JUMPDEST PUSH2 0xA2B DUP2 PUSH2 0x164A JUMP JUMPDEST PUSH2 0xF46 PUSH2 0x102B JUMP JUMPDEST PUSH1 0x19 SLOAD PUSH1 0x1 PUSH1 0xA0 SHL SWAP1 DIV PUSH1 0xFF AND ISZERO PUSH2 0xFA0 JUMPI PUSH1 0x40 MLOAD PUSH3 0x461BCD PUSH1 0xE5 SHL DUP2 MSTORE PUSH1 0x20 PUSH1 0x4 DUP3 ADD MSTORE PUSH1 0x17 PUSH1 0x24 DUP3 ADD MSTORE PUSH32 0x74726164696E6720697320616C7265616479206F70656E000000000000000000 PUSH1 0x44 DUP3 ADD MSTORE PUSH1 0x64 ADD PUSH2 0x716 JUMP JUMPDEST PUSH1 0x19 DUP1 SLOAD PUSH3 0xFF00FF PUSH1 0xA0 SHL NOT AND PUSH3 0x10001 PUSH1 0xA0 SHL OR DUP2 SSTORE NUMBER PUSH1 0xE DUP2 SWAP1 SSTORE PUSH1 0xF DUP1 SLOAD PUSH8 0xFFFFFFFFFFFFFFFF NOT AND PUSH8 0xFFFFFFFFFFFFFFFF SWAP1 SWAP3 AND SWAP2 SWAP1 SWAP2 OR SWAP1 SSTORE ADDRESS PUSH0 SWAP1 DUP2 MSTORE PUSH1 0x7 PUSH1 0x20 MSTORE PUSH1 0x40 DUP1 DUP3 KECCAK256 DUP1 SLOAD PUSH1 0xFF NOT AND PUSH1 0x1 OR SWAP1 SSTORE PUSH1 0x10 SWAP3 SWAP1 SWAP3 SSTORE PUSH1 0x28 PUSH1 0x11 SSTORE SWAP1 MLOAD PUSH32 0xEA4359D5C4B8F0945A64AB9C37FE830B3407D45E0E6E6F84275977A570457D6F SWAP2 SWAP1 LOG1 JUMP JUMPDEST PUSH1 0x6 SLOAD PUSH1 0x1 PUSH1 0x1 PUSH1 0xA0 SHL SUB AND CALLER EQ PUSH2 0xC4F JUMPI PUSH1 0x40 MLOAD PUSH4 0x118CDAA7 PUSH1 0xE0 SHL DUP2 MSTORE CALLER PUSH1 0x4 DUP3 ADD MSTORE PUSH1 0x24 ADD PUSH2 0x716 JUMP JUMPDEST PUSH2 0x97D DUP4 DUP4 DUP4 PUSH1 0x1 PUSH2 0x1A5C JUMP JUMPDEST PUSH1 0x1 PUSH1 0x1 PUSH1 0xA0 SHL SUB DUP4 DUP2 AND PUSH0 SWAP1 DUP2 MSTORE PUSH1 0x1 PUSH1 0x20 SWAP1 DUP2 MSTORE PUSH1 0x40 DUP1 DUP4 KECCAK256 SWAP4 DUP7 AND DUP4 MSTORE SWAP3 SWAP1 MSTORE KECCAK256 SLOAD PUSH0 NOT DUP2 EQ PUSH2 0x7B3 JUMPI DUP2 DUP2 LT ISZERO PUSH2 0x10CC JUMPI PUSH1 0x40 MLOAD PUSH4 0x7DC7A0D9 PUSH1 0xE1 SHL DUP2 MSTORE PUSH1 0x1 PUSH1 0x1 PUSH1 0xA0 SHL SUB DUP5 AND PUSH1 0x4 DUP3 ADD MSTORE PUSH1 0x24 DUP2 ADD DUP3 SWAP1 MSTORE PUSH1 0x44 DUP2 ADD DUP4 SWAP1 MSTORE PUSH1 0x64 ADD PUSH2 0x716 JUMP JUMPDEST PUSH2 0x7B3 DUP5 DUP5 DUP5 DUP5 SUB PUSH0 PUSH2 0x1A5C JUMP JUMPDEST PUSH1 0x1 PUSH1 0x1 PUSH1 0xA0 SHL SUB DUP4 AND PUSH2 0x113E JUMPI PUSH1 0x40 MLOAD PUSH3 0x461BCD PUSH1 0xE5 SHL DUP2 MSTORE PUSH1 0x20 PUSH1 0x4 DUP3 ADD MSTORE PUSH1 0x25 PUSH1 0x24 DUP3 ADD MSTORE PUSH32 0x45524332303A207472616E736665722066726F6D20746865207A65726F206164 PUSH1 0x44 DUP3 ADD MSTORE PUSH5 0x6472657373 PUSH1 0xD8 SHL PUSH1 0x64 DUP3 ADD MSTORE PUSH1 0x84 ADD PUSH2 0x716 JUMP JUMPDEST PUSH1 0x1 PUSH1 0x1 PUSH1 0xA0 SHL SUB DUP3 AND PUSH2 0x11A0 JUMPI PUSH1 0x40 MLOAD PUSH3 0x461BCD PUSH1 0xE5 SHL DUP2 MSTORE PUSH1 0x20 PUSH1 0x4 DUP3 ADD MSTORE PUSH1 0x23 PUSH1 0x24 DUP3 ADD MSTORE PUSH32 0x45524332303A207472616E7366657220746F20746865207A65726F2061646472 PUSH1 0x44 DUP3 ADD MSTORE PUSH3 0x657373 PUSH1 0xE8 SHL PUSH1 0x64 DUP3 ADD MSTORE PUSH1 0x84 ADD PUSH2 0x716 JUMP JUMPDEST PUSH0 DUP2 GT PUSH2 0x1201 JUMPI PUSH1 0x40 MLOAD PUSH3 0x461BCD PUSH1 0xE5 SHL DUP2 MSTORE PUSH1 0x20 PUSH1 0x4 DUP3 ADD MSTORE PUSH1 0x29 PUSH1 0x24 DUP3 ADD MSTORE PUSH32 0x5472616E7366657220616D6F756E74206D757374206265206772656174657220 PUSH1 0x44 DUP3 ADD MSTORE PUSH9 0x7468616E207A65726F PUSH1 0xB8 SHL PUSH1 0x64 DUP3 ADD MSTORE PUSH1 0x84 ADD PUSH2 0x716 JUMP JUMPDEST PUSH0 PUSH2 0x1214 PUSH1 0x6 SLOAD PUSH1 0x1 PUSH1 0x1 PUSH1 0xA0 SHL SUB AND SWAP1 JUMP JUMPDEST PUSH1 0x1 PUSH1 0x1 PUSH1 0xA0 SHL SUB AND DUP5 PUSH1 0x1 PUSH1 0x1 PUSH1 0xA0 SHL SUB AND EQ ISZERO DUP1 ISZERO PUSH2 0x1243 JUMPI POP PUSH1 0x6 SLOAD PUSH1 0x1 PUSH1 0x1 PUSH1 0xA0 SHL SUB DUP5 DUP2 AND SWAP2 AND EQ ISZERO JUMPDEST DUP1 ISZERO PUSH2 0x1259 JUMPI POP PUSH1 0x19 SLOAD PUSH1 0x1 PUSH1 0xA8 SHL SWAP1 DIV PUSH1 0xFF AND ISZERO JUMPDEST ISZERO PUSH2 0x15F1 JUMPI PUSH1 0x19 SLOAD PUSH1 0x1 PUSH1 0xB8 SHL SWAP1 DIV PUSH1 0xFF AND ISZERO PUSH2 0x12D2 JUMPI PUSH1 0x1 PUSH1 0x1 PUSH1 0xA0 SHL SUB DUP5 AND PUSH0 SWAP1 DUP2 MSTORE PUSH1 0x1A PUSH1 0x20 MSTORE PUSH1 0x40 SWAP1 KECCAK256 SLOAD PUSH1 0xFF AND DUP1 PUSH2 0x12AD JUMPI POP PUSH1 0x1 PUSH1 0x1 PUSH1 0xA0 SHL SUB DUP4 AND PUSH0 SWAP1 DUP2 MSTORE PUSH1 0x1A PUSH1 0x20 MSTORE PUSH1 0x40 SWAP1 KECCAK256 SLOAD PUSH1 0xFF AND JUMPDEST PUSH2 0x12D2 JUMPI PUSH1 0x40 MLOAD PUSH3 0x461BCD PUSH1 0xE5 SHL DUP2 MSTORE PUSH1 0x20 PUSH1 0x4 DUP3 ADD MSTORE PUSH0 PUSH1 0x24 DUP3 ADD MSTORE PUSH1 0x44 ADD PUSH2 0x716 JUMP JUMPDEST PUSH1 0x64 PUSH1 0x10 SLOAD DUP4 PUSH2 0x12E2 SWAP2 SWAP1 PUSH2 0x1F9E JUMP JUMPDEST PUSH2 0x12EC SWAP2 SWAP1 PUSH2 0x1FB5 JUMP JUMPDEST PUSH1 0x19 SLOAD SWAP1 SWAP2 POP PUSH1 0x1 PUSH1 0x1 PUSH1 0xA0 SHL SUB DUP6 DUP2 AND SWAP2 AND EQ DUP1 ISZERO PUSH2 0x131A JUMPI POP PUSH1 0x18 SLOAD PUSH1 0x1 PUSH1 0x1 PUSH1 0xA0 SHL SUB DUP5 DUP2 AND SWAP2 AND EQ ISZERO JUMPDEST DUP1 ISZERO PUSH2 0x133E JUMPI POP PUSH1 0x1 PUSH1 0x1 PUSH1 0xA0 SHL SUB DUP4 AND PUSH0 SWAP1 DUP2 MSTORE PUSH1 0x7 PUSH1 0x20 MSTORE PUSH1 0x40 SWAP1 KECCAK256 SLOAD PUSH1 0xFF AND ISZERO JUMPDEST ISZERO PUSH2 0x1445 JUMPI PUSH1 0x14 SLOAD DUP3 GT ISZERO PUSH2 0x1395 JUMPI PUSH1 0x40 MLOAD PUSH3 0x461BCD PUSH1 0xE5 SHL DUP2 MSTORE PUSH1 0x20 PUSH1 0x4 DUP3 ADD MSTORE PUSH1 0x1B PUSH1 0x24 DUP3 ADD MSTORE PUSH32 0x4578636565647320746865205F7478416D6F756E744C696D69742E0000000000 PUSH1 0x44 DUP3 ADD MSTORE PUSH1 0x64 ADD PUSH2 0x716 JUMP JUMPDEST PUSH1 0x15 SLOAD DUP3 PUSH2 0x13B7 DUP6 PUSH1 0x1 PUSH1 0x1 PUSH1 0xA0 SHL SUB AND PUSH0 SWAP1 DUP2 MSTORE PUSH1 0x20 DUP2 SWAP1 MSTORE PUSH1 0x40 SWAP1 KECCAK256 SLOAD SWAP1 JUMP JUMPDEST PUSH2 0x13C1 SWAP2 SWAP1 PUSH2 0x2020 JUMP JUMPDEST GT ISZERO PUSH2 0x140F JUMPI PUSH1 0x40 MLOAD PUSH3 0x461BCD PUSH1 0xE5 SHL DUP2 MSTORE PUSH1 0x20 PUSH1 0x4 DUP3 ADD MSTORE PUSH1 0x1A PUSH1 0x24 DUP3 ADD MSTORE PUSH32 0x4578636565647320746865206D617857616C6C657453697A652E000000000000 PUSH1 0x44 DUP3 ADD MSTORE PUSH1 0x64 ADD PUSH2 0x716 JUMP JUMPDEST NUMBER PUSH1 0xE SLOAD PUSH1 0x3 PUSH2 0x141F SWAP2 SWAP1 PUSH2 0x2020 JUMP JUMPDEST GT ISZERO PUSH2 0x1430 JUMPI DUP3 EXTCODESIZE ISZERO PUSH2 0x1430 JUMPI PUSH0 PUSH0 REVERT JUMPDEST PUSH1 0x13 DUP1 SLOAD SWAP1 PUSH0 PUSH2 0x143F DUP4 PUSH2 0x2033 JUMP JUMPDEST SWAP2 SWAP1 POP SSTORE POP JUMPDEST PUSH1 0x19 SLOAD PUSH1 0x1 PUSH1 0x1 PUSH1 0xA0 SHL SUB DUP5 DUP2 AND SWAP2 AND EQ DUP1 ISZERO SWAP1 PUSH2 0x147B JUMPI POP PUSH1 0x1 PUSH1 0x1 PUSH1 0xA0 SHL SUB DUP4 AND PUSH0 SWAP1 DUP2 MSTORE PUSH1 0x7 PUSH1 0x20 MSTORE PUSH1 0x40 SWAP1 KECCAK256 SLOAD PUSH1 0xFF AND ISZERO JUMPDEST ISZERO PUSH2 0x14FA JUMPI PUSH1 0x15 SLOAD DUP3 PUSH2 0x14A2 DUP6 PUSH1 0x1 PUSH1 0x1 PUSH1 0xA0 SHL SUB AND PUSH0 SWAP1 DUP2 MSTORE PUSH1 0x20 DUP2 SWAP1 MSTORE PUSH1 0x40 SWAP1 KECCAK256 SLOAD SWAP1 JUMP JUMPDEST PUSH2 0x14AC SWAP2 SWAP1 PUSH2 0x2020 JUMP JUMPDEST GT ISZERO PUSH2 0x14FA JUMPI PUSH1 0x40 MLOAD PUSH3 0x461BCD PUSH1 0xE5 SHL DUP2 MSTORE PUSH1 0x20 PUSH1 0x4 DUP3 ADD MSTORE PUSH1 0x1A PUSH1 0x24 DUP3 ADD MSTORE PUSH32 0x4578636565647320746865206D617857616C6C657453697A652E000000000000 PUSH1 0x44 DUP3 ADD MSTORE PUSH1 0x64 ADD PUSH2 0x716 JUMP JUMPDEST PUSH1 0x19 SLOAD PUSH1 0x1 PUSH1 0x1 PUSH1 0xA0 SHL SUB DUP5 DUP2 AND SWAP2 AND EQ DUP1 ISZERO PUSH2 0x1520 JUMPI POP PUSH1 0x1 PUSH1 0x1 PUSH1 0xA0 SHL SUB DUP5 AND ADDRESS EQ ISZERO JUMPDEST ISZERO PUSH2 0x1542 JUMPI PUSH1 0x64 PUSH1 0x11 SLOAD DUP4 PUSH2 0x1535 SWAP2 SWAP1 PUSH2 0x1F9E JUMP JUMPDEST PUSH2 0x153F SWAP2 SWAP1 PUSH2 0x1FB5 JUMP JUMPDEST SWAP1 POP JUMPDEST ADDRESS PUSH0 SWAP1 DUP2 MSTORE PUSH1 0x20 DUP2 SWAP1 MSTORE PUSH1 0x40 SWAP1 KECCAK256 SLOAD PUSH1 0x19 SLOAD PUSH1 0x1 PUSH1 0xA8 SHL SWAP1 DIV PUSH1 0xFF AND ISZERO DUP1 ISZERO PUSH2 0x1578 JUMPI POP PUSH1 0x19 SLOAD PUSH1 0x1 PUSH1 0x1 PUSH1 0xA0 SHL SUB DUP6 DUP2 AND SWAP2 AND EQ JUMPDEST DUP1 ISZERO PUSH2 0x158D JUMPI POP PUSH1 0x19 SLOAD PUSH1 0x1 PUSH1 0xB0 SHL SWAP1 DIV PUSH1 0xFF AND JUMPDEST DUP1 ISZERO PUSH2 0x159A JUMPI POP PUSH1 0x16 SLOAD DUP2 GT JUMPDEST DUP1 ISZERO PUSH2 0x15A9 JUMPI POP PUSH1 0x12 SLOAD PUSH1 0x13 SLOAD GT JUMPDEST DUP1 ISZERO PUSH2 0x15C5 JUMPI POP PUSH1 0xF SLOAD NUMBER PUSH8 0xFFFFFFFFFFFFFFFF SWAP1 DUP2 AND SWAP2 AND EQ ISZERO JUMPDEST ISZERO PUSH2 0x15EF JUMPI PUSH2 0x15DE PUSH2 0x15D9 DUP3 PUSH1 0x17 SLOAD PUSH2 0x1B2E JUMP JUMPDEST PUSH2 0x169B JUMP JUMPDEST SELFBALANCE DUP1 ISZERO PUSH2 0x15ED JUMPI PUSH2 0x15ED PUSH2 0x182A JUMP JUMPDEST POP JUMPDEST POP JUMPDEST DUP1 ISZERO PUSH2 0x1602 JUMPI PUSH2 0x1602 DUP5 ADDRESS DUP4 PUSH2 0x1B45 JUMP JUMPDEST PUSH2 0x7B3 DUP5 DUP5 PUSH2 0x1611 DUP5 DUP7 PUSH2 0x204B JUMP JUMPDEST PUSH2 0x1B45 JUMP JUMPDEST PUSH1 0x1 PUSH1 0x1 PUSH1 0xA0 SHL SUB DUP3 AND PUSH2 0x163F JUMPI PUSH1 0x40 MLOAD PUSH4 0x4B637E8F PUSH1 0xE1 SHL DUP2 MSTORE PUSH0 PUSH1 0x4 DUP3 ADD MSTORE PUSH1 0x24 ADD PUSH2 0x716 JUMP JUMPDEST PUSH2 0xCCB DUP3 PUSH0 DUP4 PUSH2 0x1BE6 JUMP JUMPDEST PUSH1 0x6 DUP1 SLOAD PUSH1 0x1 PUSH1 0x1 PUSH1 0xA0 SHL SUB DUP4 DUP2 AND PUSH1 0x1 PUSH1 0x1 PUSH1 0xA0 SHL SUB NOT DUP4 AND DUP2 OR SWAP1 SWAP4 SSTORE PUSH1 0x40 MLOAD SWAP2 AND SWAP2 SWAP1 DUP3 SWAP1 PUSH32 0x8BE0079C531659141344CD1FD0A4F28419497F9722A3DAAFE3B4186F6B6457E0 SWAP1 PUSH0 SWAP1 LOG3 POP POP JUMP JUMPDEST PUSH1 0x19 DUP1 SLOAD PUSH1 0xFF PUSH1 0xA8 SHL NOT AND PUSH1 0x1 PUSH1 0xA8 SHL OR SWAP1 SSTORE PUSH1 0xF DUP1 SLOAD PUSH8 0xFFFFFFFFFFFFFFFF NUMBER AND PUSH8 0xFFFFFFFFFFFFFFFF NOT SWAP1 SWAP2 AND OR SWAP1 SSTORE PUSH1 0x40 DUP1 MLOAD PUSH1 0x2 DUP1 DUP3 MSTORE PUSH1 0x60 DUP3 ADD DUP4 MSTORE PUSH0 SWAP3 PUSH1 0x20 DUP4 ADD SWAP1 DUP1 CALLDATASIZE DUP4 CALLDATACOPY ADD SWAP1 POP POP SWAP1 POP ADDRESS DUP2 PUSH0 DUP2 MLOAD DUP2 LT PUSH2 0x1700 JUMPI PUSH2 0x1700 PUSH2 0x200C JUMP JUMPDEST PUSH1 0x1 PUSH1 0x1 PUSH1 0xA0 SHL SUB SWAP3 DUP4 AND PUSH1 0x20 SWAP2 DUP3 MUL SWAP3 SWAP1 SWAP3 ADD DUP2 ADD SWAP2 SWAP1 SWAP2 MSTORE PUSH1 0x18 SLOAD PUSH1 0x40 DUP1 MLOAD PUSH4 0x15AB88C9 PUSH1 0xE3 SHL DUP2 MSTORE SWAP1 MLOAD SWAP2 SWAP1 SWAP4 AND SWAP3 PUSH4 0xAD5C4648 SWAP3 PUSH1 0x4 DUP1 DUP4 ADD SWAP4 SWAP2 SWAP3 DUP3 SWAP1 SUB ADD DUP2 DUP7 GAS STATICCALL ISZERO DUP1 ISZERO PUSH2 0x1757 JUMPI RETURNDATASIZE PUSH0 PUSH0 RETURNDATACOPY RETURNDATASIZE PUSH0 REVERT JUMPDEST POP POP POP POP PUSH1 0x40 MLOAD RETURNDATASIZE PUSH1 0x1F NOT PUSH1 0x1F DUP3 ADD AND DUP3 ADD DUP1 PUSH1 0x40 MSTORE POP DUP2 ADD SWAP1 PUSH2 0x177B SWAP2 SWAP1 PUSH2 0x205E JUMP JUMPDEST DUP2 PUSH1 0x1 DUP2 MLOAD DUP2 LT PUSH2 0x178E JUMPI PUSH2 0x178E PUSH2 0x200C JUMP JUMPDEST PUSH1 0x1 PUSH1 0x1 PUSH1 0xA0 SHL SUB SWAP3 DUP4 AND PUSH1 0x20 SWAP2 DUP3 MUL SWAP3 SWAP1 SWAP3 ADD ADD MSTORE PUSH1 0x18 SLOAD PUSH2 0x17B4 SWAP2 ADDRESS SWAP2 AND DUP5 PUSH2 0x1058 JUMP JUMPDEST PUSH1 0x18 SLOAD PUSH1 0x40 MLOAD PUSH4 0x791AC947 PUSH1 0xE0 SHL DUP2 MSTORE PUSH1 0x1 PUSH1 0x1 PUSH1 0xA0 SHL SUB SWAP1 SWAP2 AND SWAP1 PUSH4 0x791AC947 SWAP1 PUSH2 0x17EC SWAP1 DUP6 SWAP1 PUSH0 SWAP1 DUP7 SWAP1 ADDRESS SWAP1 TIMESTAMP SWAP1 PUSH1 0x4 ADD PUSH2 0x2079 JUMP JUMPDEST PUSH0 PUSH1 0x40 MLOAD DUP1 DUP4 SUB DUP2 PUSH0 DUP8 DUP1 EXTCODESIZE ISZERO DUP1 ISZERO PUSH2 0x1803 JUMPI PUSH0 PUSH0 REVERT JUMPDEST POP GAS CALL ISZERO DUP1 ISZERO PUSH2 0x1815 JUMPI RETURNDATASIZE PUSH0 PUSH0 RETURNDATACOPY RETURNDATASIZE PUSH0 REVERT JUMPDEST POP POP PUSH1 0x19 DUP1 SLOAD PUSH1 0xFF PUSH1 0xA8 SHL NOT AND SWAP1 SSTORE POP POP POP POP JUMP JUMPDEST PUSH0 DUP1 PUSH2 0x1837 PUSH1 0x8 SELFBALANCE PUSH2 0x1FB5 JUMP JUMPDEST PUSH1 0x8 SLOAD PUSH1 0x40 MLOAD SWAP2 SWAP3 POP PUSH1 0x1 PUSH1 0x1 PUSH1 0xA0 SHL SUB AND SWAP1 DUP3 SWAP1 PUSH0 DUP2 DUP2 DUP2 DUP6 DUP8 GAS CALL SWAP3 POP POP POP RETURNDATASIZE DUP1 PUSH0 DUP2 EQ PUSH2 0x1882 JUMPI PUSH1 0x40 MLOAD SWAP2 POP PUSH1 0x1F NOT PUSH1 0x3F RETURNDATASIZE ADD AND DUP3 ADD PUSH1 0x40 MSTORE RETURNDATASIZE DUP3 MSTORE RETURNDATASIZE PUSH0 PUSH1 0x20 DUP5 ADD RETURNDATACOPY PUSH2 0x1887 JUMP JUMPDEST PUSH1 0x60 SWAP2 POP JUMPDEST POP POP PUSH1 0x9 SLOAD PUSH1 0x40 MLOAD SWAP2 SWAP4 POP PUSH1 0x1 PUSH1 0x1 PUSH1 0xA0 SHL SUB AND SWAP1 DUP3 SWAP1 PUSH0 DUP2 DUP2 DUP2 DUP6 DUP8 GAS CALL SWAP3 POP POP POP RETURNDATASIZE DUP1 PUSH0 DUP2 EQ PUSH2 0x18D4 JUMPI PUSH1 0x40 MLOAD SWAP2 POP PUSH1 0x1F NOT PUSH1 0x3F RETURNDATASIZE ADD AND DUP3 ADD PUSH1 0x40 MSTORE RETURNDATASIZE DUP3 MSTORE RETURNDATASIZE PUSH0 PUSH1 0x20 DUP5 ADD RETURNDATACOPY PUSH2 0x18D9 JUMP JUMPDEST PUSH1 0x60 SWAP2 POP JUMPDEST POP POP PUSH1 0xA SLOAD PUSH1 0x40 MLOAD SWAP2 SWAP4 POP PUSH1 0x1 PUSH1 0x1 PUSH1 0xA0 SHL SUB AND SWAP1 DUP3 SWAP1 PUSH0 DUP2 DUP2 DUP2 DUP6 DUP8 GAS CALL SWAP3 POP POP POP RETURNDATASIZE DUP1 PUSH0 DUP2 EQ PUSH2 0x1926 JUMPI PUSH1 0x40 MLOAD SWAP2 POP PUSH1 0x1F NOT PUSH1 0x3F RETURNDATASIZE ADD AND DUP3 ADD PUSH1 0x40 MSTORE RETURNDATASIZE DUP3 MSTORE RETURNDATASIZE PUSH0 PUSH1 0x20 DUP5 ADD RETURNDATACOPY PUSH2 0x192B JUMP JUMPDEST PUSH1 0x60 SWAP2 POP JUMPDEST POP POP PUSH1 0xB SLOAD PUSH1 0x40 MLOAD SWAP2 SWAP4 POP PUSH1 0x1 PUSH1 0x1 PUSH1 0xA0 SHL SUB AND SWAP1 DUP3 SWAP1 PUSH0 DUP2 DUP2 DUP2 DUP6 DUP8 GAS CALL SWAP3 POP POP POP RETURNDATASIZE DUP1 PUSH0 DUP2 EQ PUSH2 0x1978 JUMPI PUSH1 0x40 MLOAD SWAP2 POP PUSH1 0x1F NOT PUSH1 0x3F RETURNDATASIZE ADD AND DUP3 ADD PUSH1 0x40 MSTORE RETURNDATASIZE DUP3 MSTORE RETURNDATASIZE PUSH0 PUSH1 0x20 DUP5 ADD RETURNDATACOPY PUSH2 0x197D JUMP JUMPDEST PUSH1 0x60 SWAP2 POP JUMPDEST POP POP PUSH1 0xC SLOAD PUSH1 0x40 MLOAD SWAP2 SWAP4 POP PUSH1 0x1 PUSH1 0x1 PUSH1 0xA0 SHL SUB AND SWAP1 DUP3 SWAP1 PUSH0 DUP2 DUP2 DUP2 DUP6 DUP8 GAS CALL SWAP3 POP POP POP RETURNDATASIZE DUP1 PUSH0 DUP2 EQ PUSH2 0x19CA JUMPI PUSH1 0x40 MLOAD SWAP2 POP PUSH1 0x1F NOT PUSH1 0x3F RETURNDATASIZE ADD AND DUP3 ADD PUSH1 0x40 MSTORE RETURNDATASIZE DUP3 MSTORE RETURNDATASIZE PUSH0 PUSH1 0x20 DUP5 ADD RETURNDATACOPY PUSH2 0x19CF JUMP JUMPDEST PUSH1 0x60 SWAP2 POP JUMPDEST POP POP PUSH1 0xD SLOAD PUSH1 0x40 MLOAD SWAP2 SWAP4 POP PUSH1 0x1 PUSH1 0x1 PUSH1 0xA0 SHL SUB AND SWAP1 DUP3 SWAP1 PUSH0 DUP2 DUP2 DUP2 DUP6 DUP8 GAS CALL SWAP3 POP POP POP RETURNDATASIZE DUP1 PUSH0 DUP2 EQ PUSH2 0x1A1C JUMPI PUSH1 0x40 MLOAD SWAP2 POP PUSH1 0x1F NOT PUSH1 0x3F RETURNDATASIZE ADD AND DUP3 ADD PUSH1 0x40 MSTORE RETURNDATASIZE DUP3 MSTORE RETURNDATASIZE PUSH0 PUSH1 0x20 DUP5 ADD RETURNDATACOPY PUSH2 0x1A21 JUMP JUMPDEST PUSH1 0x60 SWAP2 POP JUMPDEST POP POP POP POP POP JUMP JUMPDEST PUSH1 0x1 PUSH1 0x1 PUSH1 0xA0 SHL SUB DUP3 AND PUSH2 0x1A51 JUMPI PUSH1 0x40 MLOAD PUSH4 0xEC442F05 PUSH1 0xE0 SHL DUP2 MSTORE PUSH0 PUSH1 0x4 DUP3 ADD MSTORE PUSH1 0x24 ADD PUSH2 0x716 JUMP JUMPDEST PUSH2 0xCCB PUSH0 DUP4 DUP4 PUSH2 0x1BE6 JUMP JUMPDEST PUSH1 0x1 PUSH1 0x1 PUSH1 0xA0 SHL SUB DUP5 AND PUSH2 0x1A85 JUMPI PUSH1 0x40 MLOAD PUSH4 0xE602DF05 PUSH1 0xE0 SHL DUP2 MSTORE PUSH0 PUSH1 0x4 DUP3 ADD MSTORE PUSH1 0x24 ADD PUSH2 0x716 JUMP JUMPDEST PUSH1 0x1 PUSH1 0x1 PUSH1 0xA0 SHL SUB DUP4 AND PUSH2 0x1AAE JUMPI PUSH1 0x40 MLOAD PUSH4 0x4A1406B1 PUSH1 0xE1 SHL DUP2 MSTORE PUSH0 PUSH1 0x4 DUP3 ADD MSTORE PUSH1 0x24 ADD PUSH2 0x716 JUMP JUMPDEST PUSH1 0x1 PUSH1 0x1 PUSH1 0xA0 SHL SUB DUP1 DUP6 AND PUSH0 SWAP1 DUP2 MSTORE PUSH1 0x1 PUSH1 0x20 SWAP1 DUP2 MSTORE PUSH1 0x40 DUP1 DUP4 KECCAK256 SWAP4 DUP8 AND DUP4 MSTORE SWAP3 SWAP1 MSTORE KECCAK256 DUP3 SWAP1 SSTORE DUP1 ISZERO PUSH2 0x7B3 JUMPI DUP3 PUSH1 0x1 PUSH1 0x1 PUSH1 0xA0 SHL SUB AND DUP5 PUSH1 0x1 PUSH1 0x1 PUSH1 0xA0 SHL SUB AND PUSH32 0x8C5BE1E5EBEC7D5BD14F71427D1E84F3DD0314C0F7B2291E5B200AC8C7C3B925 DUP5 PUSH1 0x40 MLOAD PUSH2 0x1B20 SWAP2 DUP2 MSTORE PUSH1 0x20 ADD SWAP1 JUMP JUMPDEST PUSH1 0x40 MLOAD DUP1 SWAP2 SUB SWAP1 LOG3 POP POP POP POP JUMP JUMPDEST PUSH0 DUP2 DUP4 GT PUSH2 0x1B3C JUMPI DUP3 PUSH2 0x1B3E JUMP JUMPDEST DUP2 JUMPDEST SWAP4 SWAP3 POP POP POP JUMP JUMPDEST PUSH1 0x1 PUSH1 0x1 PUSH1 0xA0 SHL SUB DUP4 AND PUSH2 0x1B6E JUMPI PUSH1 0x40 MLOAD PUSH4 0x4B637E8F PUSH1 0xE1 SHL DUP2 MSTORE PUSH0 PUSH1 0x4 DUP3 ADD MSTORE PUSH1 0x24 ADD PUSH2 0x716 JUMP JUMPDEST PUSH1 0x1 PUSH1 0x1 PUSH1 0xA0 SHL SUB DUP3 AND PUSH2 0x1B97 JUMPI PUSH1 0x40 MLOAD PUSH4 0xEC442F05 PUSH1 0xE0 SHL DUP2 MSTORE PUSH0 PUSH1 0x4 DUP3 ADD MSTORE PUSH1 0x24 ADD PUSH2 0x716 JUMP JUMPDEST PUSH1 0x5 SLOAD PUSH1 0x1 PUSH1 0x1 PUSH1 0xA0 SHL SUB DUP5 DUP2 AND SWAP2 AND EQ PUSH2 0x1BDF JUMPI PUSH0 PUSH2 0x1BB8 PUSH1 0x64 DUP4 PUSH2 0x1FB5 JUMP JUMPDEST SWAP1 POP PUSH2 0x1BC4 DUP2 DUP4 PUSH2 0x204B JUMP JUMPDEST PUSH1 0x5 SLOAD SWAP1 SWAP3 POP PUSH2 0x1BDD SWAP1 PUSH1 0x1 PUSH1 0x1 PUSH1 0xA0 SHL SUB AND DUP3 PUSH2 0x1616 JUMP JUMPDEST POP JUMPDEST PUSH2 0x97D DUP4 DUP4 DUP4 JUMPDEST PUSH1 0x1 PUSH1 0x1 PUSH1 0xA0 SHL SUB DUP4 AND PUSH2 0x1C10 JUMPI DUP1 PUSH1 0x2 PUSH0 DUP3 DUP3 SLOAD PUSH2 0x1C05 SWAP2 SWAP1 PUSH2 0x2020 JUMP JUMPDEST SWAP1 SWAP2 SSTORE POP PUSH2 0x1C80 SWAP1 POP JUMP JUMPDEST PUSH1 0x1 PUSH1 0x1 PUSH1 0xA0 SHL SUB DUP4 AND PUSH0 SWAP1 DUP2 MSTORE PUSH1 0x20 DUP2 SWAP1 MSTORE PUSH1 0x40 SWAP1 KECCAK256 SLOAD DUP2 DUP2 LT ISZERO PUSH2 0x1C62 JUMPI PUSH1 0x40 MLOAD PUSH4 0x391434E3 PUSH1 0xE2 SHL DUP2 MSTORE PUSH1 0x1 PUSH1 0x1 PUSH1 0xA0 SHL SUB DUP6 AND PUSH1 0x4 DUP3 ADD MSTORE PUSH1 0x24 DUP2 ADD DUP3 SWAP1 MSTORE PUSH1 0x44 DUP2 ADD DUP4 SWAP1 MSTORE PUSH1 0x64 ADD PUSH2 0x716 JUMP JUMPDEST PUSH1 0x1 PUSH1 0x1 PUSH1 0xA0 SHL SUB DUP5 AND PUSH0 SWAP1 DUP2 MSTORE PUSH1 0x20 DUP2 SWAP1 MSTORE PUSH1 0x40 SWAP1 KECCAK256 SWAP1 DUP3 SWAP1 SUB SWAP1 SSTORE JUMPDEST PUSH1 0x1 PUSH1 0x1 PUSH1 0xA0 SHL SUB DUP3 AND PUSH2 0x1C9C JUMPI PUSH1 0x2 DUP1 SLOAD DUP3 SWAP1 SUB SWAP1 SSTORE PUSH2 0x1CBA JUMP JUMPDEST PUSH1 0x1 PUSH1 0x1 PUSH1 0xA0 SHL SUB DUP3 AND PUSH0 SWAP1 DUP2 MSTORE PUSH1 0x20 DUP2 SWAP1 MSTORE PUSH1 0x40 SWAP1 KECCAK256 DUP1 SLOAD DUP3 ADD SWAP1 SSTORE JUMPDEST DUP2 PUSH1 0x1 PUSH1 0x1 PUSH1 0xA0 SHL SUB AND DUP4 PUSH1 0x1 PUSH1 0x1 PUSH1 0xA0 SHL SUB AND PUSH32 0xDDF252AD1BE2C89B69C2B068FC378DAA952BA7F163C4A11628F55A4DF523B3EF DUP4 PUSH1 0x40 MLOAD PUSH2 0x1CFF SWAP2 DUP2 MSTORE PUSH1 0x20 ADD SWAP1 JUMP JUMPDEST PUSH1 0x40 MLOAD DUP1 SWAP2 SUB SWAP1 LOG3 POP POP POP JUMP JUMPDEST PUSH0 PUSH0 PUSH1 0x40 DUP4 DUP6 SUB SLT ISZERO PUSH2 0x1D1D JUMPI PUSH0 PUSH0 REVERT JUMPDEST POP POP DUP1 CALLDATALOAD SWAP3 PUSH1 0x20 SWAP1 SWAP2 ADD CALLDATALOAD SWAP2 POP JUMP JUMPDEST PUSH1 0x20 DUP2 MSTORE PUSH0 DUP3 MLOAD DUP1 PUSH1 0x20 DUP5 ADD MSTORE DUP1 PUSH1 0x20 DUP6 ADD PUSH1 0x40 DUP6 ADD MCOPY PUSH0 PUSH1 0x40 DUP3 DUP6 ADD ADD MSTORE PUSH1 0x40 PUSH1 0x1F NOT PUSH1 0x1F DUP4 ADD AND DUP5 ADD ADD SWAP2 POP POP SWAP3 SWAP2 POP POP JUMP JUMPDEST PUSH1 0x1 PUSH1 0x1 PUSH1 0xA0 SHL SUB DUP2 AND DUP2 EQ PUSH2 0xA2B JUMPI PUSH0 PUSH0 REVERT JUMPDEST PUSH0 PUSH0 PUSH1 0x40 DUP4 DUP6 SUB SLT ISZERO PUSH2 0x1D86 JUMPI PUSH0 PUSH0 REVERT JUMPDEST DUP3 CALLDATALOAD PUSH2 0x1D91 DUP2 PUSH2 0x1D61 JUMP JUMPDEST SWAP5 PUSH1 0x20 SWAP4 SWAP1 SWAP4 ADD CALLDATALOAD SWAP4 POP POP POP JUMP JUMPDEST DUP1 CALLDATALOAD DUP1 ISZERO ISZERO DUP2 EQ PUSH2 0x1DAE JUMPI PUSH0 PUSH0 REVERT JUMPDEST SWAP2 SWAP1 POP JUMP JUMPDEST PUSH0 PUSH0 PUSH0 PUSH1 0x40 DUP5 DUP7 SUB SLT ISZERO PUSH2 0x1DC5 JUMPI PUSH0 PUSH0 REVERT JUMPDEST DUP4 CALLDATALOAD PUSH8 0xFFFFFFFFFFFFFFFF DUP2 GT ISZERO PUSH2 0x1DDB JUMPI PUSH0 PUSH0 REVERT JUMPDEST DUP5 ADD PUSH1 0x1F DUP2 ADD DUP7 SGT PUSH2 0x1DEB JUMPI PUSH0 PUSH0 REVERT JUMPDEST DUP1 CALLDATALOAD PUSH8 0xFFFFFFFFFFFFFFFF DUP2 GT ISZERO PUSH2 0x1E01 JUMPI PUSH0 PUSH0 REVERT JUMPDEST DUP7 PUSH1 0x20 DUP3 PUSH1 0x5 SHL DUP5 ADD ADD GT ISZERO PUSH2 0x1E15 JUMPI PUSH0 PUSH0 REVERT JUMPDEST PUSH1 0x20 SWAP2 DUP3 ADD SWAP5 POP SWAP3 POP PUSH2 0x1E29 SWAP1 DUP6 ADD PUSH2 0x1D9F JUMP JUMPDEST SWAP1 POP SWAP3 POP SWAP3 POP SWAP3 JUMP JUMPDEST PUSH0 PUSH0 PUSH0 PUSH1 0x60 DUP5 DUP7 SUB SLT ISZERO PUSH2 0x1E44 JUMPI PUSH0 PUSH0 REVERT JUMPDEST DUP4 CALLDATALOAD PUSH2 0x1E4F DUP2 PUSH2 0x1D61 JUMP JUMPDEST SWAP3 POP PUSH1 0x20 DUP5 ADD CALLDATALOAD PUSH2 0x1E5F DUP2 PUSH2 0x1D61 JUMP JUMPDEST SWAP3 SWAP6 SWAP3 SWAP5 POP POP POP PUSH1 0x40 SWAP2 SWAP1 SWAP2 ADD CALLDATALOAD SWAP1 JUMP JUMPDEST PUSH0 PUSH0 PUSH1 0x40 DUP4 DUP6 SUB SLT ISZERO PUSH2 0x1E81 JUMPI PUSH0 PUSH0 REVERT JUMPDEST DUP3 CALLDATALOAD PUSH2 0x1E8C DUP2 PUSH2 0x1D61 JUMP JUMPDEST SWAP2 POP PUSH2 0x1E9A PUSH1 0x20 DUP5 ADD PUSH2 0x1D9F JUMP JUMPDEST SWAP1 POP SWAP3 POP SWAP3 SWAP1 POP JUMP JUMPDEST PUSH0 PUSH1 0x20 DUP3 DUP5 SUB SLT ISZERO PUSH2 0x1EB3 JUMPI PUSH0 PUSH0 REVERT JUMPDEST POP CALLDATALOAD SWAP2 SWAP1 POP JUMP JUMPDEST PUSH0 PUSH1 0x20 DUP3 DUP5 SUB SLT ISZERO PUSH2 0x1ECA JUMPI PUSH0 PUSH0 REVERT JUMPDEST DUP2 CALLDATALOAD PUSH2 0x1B3E DUP2 PUSH2 0x1D61 JUMP JUMPDEST PUSH0 PUSH0 PUSH0 PUSH0 PUSH0 PUSH0 PUSH1 0xC0 DUP8 DUP10 SUB SLT ISZERO PUSH2 0x1EEA JUMPI PUSH0 PUSH0 REVERT JUMPDEST DUP7 CALLDATALOAD PUSH2 0x1EF5 DUP2 PUSH2 0x1D61 JUMP JUMPDEST SWAP6 POP PUSH1 0x20 DUP8 ADD CALLDATALOAD PUSH2 0x1F05 DUP2 PUSH2 0x1D61 JUMP JUMPDEST SWAP5 POP PUSH1 0x40 DUP8 ADD CALLDATALOAD PUSH2 0x1F15 DUP2 PUSH2 0x1D61 JUMP JUMPDEST SWAP4 POP PUSH1 0x60 DUP8 ADD CALLDATALOAD PUSH2 0x1F25 DUP2 PUSH2 0x1D61 JUMP JUMPDEST SWAP3 POP PUSH1 0x80 DUP8 ADD CALLDATALOAD PUSH2 0x1F35 DUP2 PUSH2 0x1D61 JUMP JUMPDEST SWAP2 POP PUSH1 0xA0 DUP8 ADD CALLDATALOAD PUSH2 0x1F45 DUP2 PUSH2 0x1D61 JUMP JUMPDEST DUP1 SWAP2 POP POP SWAP3 SWAP6 POP SWAP3 SWAP6 POP SWAP3 SWAP6 JUMP JUMPDEST PUSH0 PUSH0 PUSH1 0x40 DUP4 DUP6 SUB SLT ISZERO PUSH2 0x1F64 JUMPI PUSH0 PUSH0 REVERT JUMPDEST DUP3 CALLDATALOAD PUSH2 0x1F6F DUP2 PUSH2 0x1D61 JUMP JUMPDEST SWAP2 POP PUSH1 0x20 DUP4 ADD CALLDATALOAD PUSH2 0x1F7F DUP2 PUSH2 0x1D61 JUMP JUMPDEST DUP1 SWAP2 POP POP SWAP3 POP SWAP3 SWAP1 POP JUMP JUMPDEST PUSH4 0x4E487B71 PUSH1 0xE0 SHL PUSH0 MSTORE PUSH1 0x11 PUSH1 0x4 MSTORE PUSH1 0x24 PUSH0 REVERT JUMPDEST DUP1 DUP3 MUL DUP2 ISZERO DUP3 DUP3 DIV DUP5 EQ OR PUSH2 0x741 JUMPI PUSH2 0x741 PUSH2 0x1F8A JUMP JUMPDEST PUSH0 DUP3 PUSH2 0x1FCF JUMPI PUSH4 0x4E487B71 PUSH1 0xE0 SHL PUSH0 MSTORE PUSH1 0x12 PUSH1 0x4 MSTORE PUSH1 0x24 PUSH0 REVERT JUMPDEST POP DIV SWAP1 JUMP JUMPDEST PUSH1 0x1 DUP2 DUP2 SHR SWAP1 DUP3 AND DUP1 PUSH2 0x1FE8 JUMPI PUSH1 0x7F DUP3 AND SWAP2 POP JUMPDEST PUSH1 0x20 DUP3 LT DUP2 SUB PUSH2 0x2006 JUMPI PUSH4 0x4E487B71 PUSH1 0xE0 SHL PUSH0 MSTORE PUSH1 0x22 PUSH1 0x4 MSTORE PUSH1 0x24 PUSH0 REVERT JUMPDEST POP SWAP2 SWAP1 POP JUMP JUMPDEST PUSH4 0x4E487B71 PUSH1 0xE0 SHL PUSH0 MSTORE PUSH1 0x32 PUSH1 0x4 MSTORE PUSH1 0x24 PUSH0 REVERT JUMPDEST DUP1 DUP3 ADD DUP1 DUP3 GT ISZERO PUSH2 0x741 JUMPI PUSH2 0x741 PUSH2 0x1F8A JUMP JUMPDEST PUSH0 PUSH1 0x1 DUP3 ADD PUSH2 0x2044 JUMPI PUSH2 0x2044 PUSH2 0x1F8A JUMP JUMPDEST POP PUSH1 0x1 ADD SWAP1 JUMP JUMPDEST DUP2 DUP2 SUB DUP2 DUP2 GT ISZERO PUSH2 0x741 JUMPI PUSH2 0x741 PUSH2 0x1F8A JUMP JUMPDEST PUSH0 PUSH1 0x20 DUP3 DUP5 SUB SLT ISZERO PUSH2 0x206E JUMPI PUSH0 PUSH0 REVERT JUMPDEST DUP2 MLOAD PUSH2 0x1B3E DUP2 PUSH2 0x1D61 JUMP JUMPDEST PUSH0 PUSH1 0xA0 DUP3 ADD DUP8 DUP4 MSTORE DUP7 PUSH1 0x20 DUP5 ADD MSTORE PUSH1 0xA0 PUSH1 0x40 DUP5 ADD MSTORE DUP1 DUP7 MLOAD DUP1 DUP4 MSTORE PUSH1 0xC0 DUP6 ADD SWAP2 POP PUSH1 0x20 DUP9 ADD SWAP3 POP PUSH0 JUMPDEST DUP2 DUP2 LT ISZERO PUSH2 0x20C9 JUMPI DUP4 MLOAD PUSH1 0x1 PUSH1 0x1 PUSH1 0xA0 SHL SUB AND DUP4 MSTORE PUSH1 0x20 SWAP4 DUP5 ADD SWAP4 SWAP1 SWAP3 ADD SWAP2 PUSH1 0x1 ADD PUSH2 0x20A2 JUMP JUMPDEST POP POP PUSH1 0x1 PUSH1 0x1 PUSH1 0xA0 SHL SUB SWAP6 SWAP1 SWAP6 AND PUSH1 0x60 DUP5 ADD MSTORE POP POP PUSH1 0x80 ADD MSTORE SWAP4 SWAP3 POP POP POP JUMP INVALID LOG2 PUSH5 0x6970667358 0x22 SLT KECCAK256 DUP13 COINBASE RETURN MULMOD RETURNDATACOPY DUP1 0x2D SHL SWAP5 PUSH27 0x31B5AAFE4F6533FC637A21689B327B866CBE921CA33664736F6C63 NUMBER STOP ADDMOD SAR STOP CALLER "
				},
				"gasEstimates": {
					"creation": {
						"codeDepositCost": "1695800",
						"executionCost": "infinite",
						"totalCost": "infinite"
					},
					"external": {
						"addAddress(address[],bool)": "infinite",
						"allowance(address,address)": "infinite",
						"approve(address,uint256)": "24751",
						"balanceOf(address)": "2599",
						"burn(uint256)": "55281",
						"decimals()": "221",
						"exemptFee(address,bool)": "28315",
						"mint(uint256)": "infinite",
						"name()": "infinite",
						"open()": "144426",
						"owner()": "2375",
						"removeETH()": "infinite",
						"renounceOwnership()": "infinite",
						"rmvLimits()": "52897",
						"setMode()": "28762",
						"setSwapback(uint256,uint256)": "infinite",
						"setTax(uint256,uint256)": "48136",
						"setTx(uint256)": "27926",
						"setWalletLimit(uint256)": "27914",
						"setWallets(address,address,address,address,address,address)": "infinite",
						"symbol()": "infinite",
						"tokenCap()": "infinite",
						"totalSupply()": "2370",
						"transfer(address,uint256)": "infinite",
						"transferFrom(address,address,uint256)": "infinite",
						"transferOwnership(address)": "infinite",
						"triggerSwap()": "infinite",
						"uniswapV2Router()": "2404",
						"viewInfo()": "12957"
					},
					"internal": {
						"_transfer(address,address,uint256)": "infinite",
						"isContract(address)": "infinite",
						"min(uint256,uint256)": "60",
						"sendETHToFee()": "infinite",
						"swapTokensForEth(uint256)": "infinite"
					}
				},
				"methodIdentifiers": {
					"addAddress(address[],bool)": "1c537de5",
					"allowance(address,address)": "dd62ed3e",
					"approve(address,uint256)": "095ea7b3",
					"balanceOf(address)": "70a08231",
					"burn(uint256)": "42966c68",
					"decimals()": "313ce567",
					"exemptFee(address,bool)": "2dc4f5e6",
					"mint(uint256)": "a0712d68",
					"name()": "06fdde03",
					"open()": "fcfff16f",
					"owner()": "8da5cb5b",
					"removeETH()": "217b6da6",
					"renounceOwnership()": "715018a6",
					"rmvLimits()": "6ed6a48d",
					"setMode()": "08ade0c9",
					"setSwapback(uint256,uint256)": "0313fc4b",
					"setTax(uint256,uint256)": "667f6526",
					"setTx(uint256)": "620cc86c",
					"setWalletLimit(uint256)": "f1d5f517",
					"setWallets(address,address,address,address,address,address)": "be647aed",
					"symbol()": "95d89b41",
					"tokenCap()": "dd54291b",
					"totalSupply()": "18160ddd",
					"transfer(address,uint256)": "a9059cbb",
					"transferFrom(address,address,uint256)": "23b872dd",
					"transferOwnership(address)": "f2fde38b",
					"triggerSwap()": "8f937cc4",
					"uniswapV2Router()": "1694505e",
					"viewInfo()": "ae601480"
				}
			},
			"storageLayout": {
				"storage": [
					{
						"astId": 182,
						"contract": "CYBCC_flattened.sol:MTN",
						"label": "_balances",
						"offset": 0,
						"slot": "0",
						"type": "t_mapping(t_address,t_uint256)"
					},
					{
						"astId": 188,
						"contract": "CYBCC_flattened.sol:MTN",
						"label": "_allowances",
						"offset": 0,
						"slot": "1",
						"type": "t_mapping(t_address,t_mapping(t_address,t_uint256))"
					},
					{
						"astId": 190,
						"contract": "CYBCC_flattened.sol:MTN",
						"label": "_totalSupply",
						"offset": 0,
						"slot": "2",
						"type": "t_uint256"
					},
					{
						"astId": 192,
						"contract": "CYBCC_flattened.sol:MTN",
						"label": "_name",
						"offset": 0,
						"slot": "3",
						"type": "t_string_storage"
					},
					{
						"astId": 194,
						"contract": "CYBCC_flattened.sol:MTN",
						"label": "_symbol",
						"offset": 0,
						"slot": "4",
						"type": "t_string_storage"
					},
					{
						"astId": 198,
						"contract": "CYBCC_flattened.sol:MTN",
						"label": "_owner",
						"offset": 0,
						"slot": "5",
						"type": "t_address"
					},
					{
						"astId": 702,
						"contract": "CYBCC_flattened.sol:MTN",
						"label": "_owner",
						"offset": 0,
						"slot": "6",
						"type": "t_address"
					},
					{
						"astId": 905,
						"contract": "CYBCC_flattened.sol:MTN",
						"label": "_isExcludedFromFee",
						"offset": 0,
						"slot": "7",
						"type": "t_mapping(t_address,t_bool)"
					},
					{
						"astId": 907,
						"contract": "CYBCC_flattened.sol:MTN",
						"label": "_taxWallet1",
						"offset": 0,
						"slot": "8",
						"type": "t_address_payable"
					},
					{
						"astId": 909,
						"contract": "CYBCC_flattened.sol:MTN",
						"label": "_taxWallet2",
						"offset": 0,
						"slot": "9",
						"type": "t_address_payable"
					},
					{
						"astId": 911,
						"contract": "CYBCC_flattened.sol:MTN",
						"label": "_taxWallet3",
						"offset": 0,
						"slot": "10",
						"type": "t_address_payable"
					},
					{
						"astId": 913,
						"contract": "CYBCC_flattened.sol:MTN",
						"label": "_taxWallet4",
						"offset": 0,
						"slot": "11",
						"type": "t_address_payable"
					},
					{
						"astId": 915,
						"contract": "CYBCC_flattened.sol:MTN",
						"label": "_taxWallet5",
						"offset": 0,
						"slot": "12",
						"type": "t_address_payable"
					},
					{
						"astId": 917,
						"contract": "CYBCC_flattened.sol:MTN",
						"label": "_taxWallet6",
						"offset": 0,
						"slot": "13",
						"type": "t_address_payable"
					},
					{
						"astId": 919,
						"contract": "CYBCC_flattened.sol:MTN",
						"label": "firstBlock",
						"offset": 0,
						"slot": "14",
						"type": "t_uint256"
					},
					{
						"astId": 921,
						"contract": "CYBCC_flattened.sol:MTN",
						"label": "lastLiquifyTime",
						"offset": 0,
						"slot": "15",
						"type": "t_uint64"
					},
					{
						"astId": 923,
						"contract": "CYBCC_flattened.sol:MTN",
						"label": "buyFee",
						"offset": 0,
						"slot": "16",
						"type": "t_uint256"
					},
					{
						"astId": 925,
						"contract": "CYBCC_flattened.sol:MTN",
						"label": "sellFee",
						"offset": 0,
						"slot": "17",
						"type": "t_uint256"
					},
					{
						"astId": 927,
						"contract": "CYBCC_flattened.sol:MTN",
						"label": "_preventSwapBefore",
						"offset": 0,
						"slot": "18",
						"type": "t_uint256"
					},
					{
						"astId": 929,
						"contract": "CYBCC_flattened.sol:MTN",
						"label": "_buyCount",
						"offset": 0,
						"slot": "19",
						"type": "t_uint256"
					},
					{
						"astId": 931,
						"contract": "CYBCC_flattened.sol:MTN",
						"label": "_txAmountLimit",
						"offset": 0,
						"slot": "20",
						"type": "t_uint256"
					},
					{
						"astId": 933,
						"contract": "CYBCC_flattened.sol:MTN",
						"label": "_walletAmountLimit",
						"offset": 0,
						"slot": "21",
						"type": "t_uint256"
					},
					{
						"astId": 935,
						"contract": "CYBCC_flattened.sol:MTN",
						"label": "_swapbackMin",
						"offset": 0,
						"slot": "22",
						"type": "t_uint256"
					},
					{
						"astId": 937,
						"contract": "CYBCC_flattened.sol:MTN",
						"label": "_swapbackMax",
						"offset": 0,
						"slot": "23",
						"type": "t_uint256"
					},
					{
						"astId": 940,
						"contract": "CYBCC_flattened.sol:MTN",
						"label": "uniswapV2Router",
						"offset": 0,
						"slot": "24",
						"type": "t_contract(IUniswapV2Router02)897"
					},
					{
						"astId": 942,
						"contract": "CYBCC_flattened.sol:MTN",
						"label": "uniswapV2Pair",
						"offset": 0,
						"slot": "25",
						"type": "t_address"
					},
					{
						"astId": 944,
						"contract": "CYBCC_flattened.sol:MTN",
						"label": "tradingOpen",
						"offset": 20,
						"slot": "25",
						"type": "t_bool"
					},
					{
						"astId": 947,
						"contract": "CYBCC_flattened.sol:MTN",
						"label": "inSwap",
						"offset": 21,
						"slot": "25",
						"type": "t_bool"
					},
					{
						"astId": 950,
						"contract": "CYBCC_flattened.sol:MTN",
						"label": "swapEnabled",
						"offset": 22,
						"slot": "25",
						"type": "t_bool"
					},
					{
						"astId": 953,
						"contract": "CYBCC_flattened.sol:MTN",
						"label": "launchmode",
						"offset": 23,
						"slot": "25",
						"type": "t_bool"
					},
					{
						"astId": 959,
						"contract": "CYBCC_flattened.sol:MTN",
						"label": "_canTx",
						"offset": 0,
						"slot": "26",
						"type": "t_mapping(t_address,t_bool)"
					},
					{
						"astId": 1005,
						"contract": "CYBCC_flattened.sol:MTN",
						"label": "_totalSupply",
						"offset": 0,
						"slot": "27",
						"type": "t_uint256"
					}
				],
				"types": {
					"t_address": {
						"encoding": "inplace",
						"label": "address",
						"numberOfBytes": "20"
					},
					"t_address_payable": {
						"encoding": "inplace",
						"label": "address payable",
						"numberOfBytes": "20"
					},
					"t_bool": {
						"encoding": "inplace",
						"label": "bool",
						"numberOfBytes": "1"
					},
					"t_contract(IUniswapV2Router02)897": {
						"encoding": "inplace",
						"label": "contract IUniswapV2Router02",
						"numberOfBytes": "20"
					},
					"t_mapping(t_address,t_bool)": {
						"encoding": "mapping",
						"key": "t_address",
						"label": "mapping(address => bool)",
						"numberOfBytes": "32",
						"value": "t_bool"
					},
					"t_mapping(t_address,t_mapping(t_address,t_uint256))": {
						"encoding": "mapping",
						"key": "t_address",
						"label": "mapping(address => mapping(address => uint256))",
						"numberOfBytes": "32",
						"value": "t_mapping(t_address,t_uint256)"
					},
					"t_mapping(t_address,t_uint256)": {
						"encoding": "mapping",
						"key": "t_address",
						"label": "mapping(address => uint256)",
						"numberOfBytes": "32",
						"value": "t_uint256"
					},
					"t_string_storage": {
						"encoding": "bytes",
						"label": "string",
						"numberOfBytes": "32"
					},
					"t_uint256": {
						"encoding": "inplace",
						"label": "uint256",
						"numberOfBytes": "32"
					},
					"t_uint64": {
						"encoding": "inplace",
						"label": "uint64",
						"numberOfBytes": "8"
					}
				}
			},
			"userdoc": {
				"kind": "user",
				"methods": {},
				"version": 1
			}
		}
	}
}