{
	"CYBCC.sol": {
		"CYBCC": {
			"abi": [
				{
					"inputs": [],
					"stateMutability": "nonpayable",
					"type": "constructor"
				},
				{
					"inputs": [
						{
							"internalType": "address",
							"name": "spender",
							"type": "address"
						},
						{
							"internalType": "uint256",
							"name": "allowance",
							"type": "uint256"
						},
						{
							"internalType": "uint256",
							"name": "needed",
							"type": "uint256"
						}
					],
					"name": "ERC20InsufficientAllowance",
					"type": "error"
				},
				{
					"inputs": [
						{
							"internalType": "address",
							"name": "sender",
							"type": "address"
						},
						{
							"internalType": "uint256",
							"name": "balance",
							"type": "uint256"
						},
						{
							"internalType": "uint256",
							"name": "needed",
							"type": "uint256"
						}
					],
					"name": "ERC20InsufficientBalance",
					"type": "error"
				},
				{
					"inputs": [
						{
							"internalType": "address",
							"name": "approver",
							"type": "address"
						}
					],
					"name": "ERC20InvalidApprover",
					"type": "error"
				},
				{
					"inputs": [
						{
							"internalType": "address",
							"name": "receiver",
							"type": "address"
						}
					],
					"name": "ERC20InvalidReceiver",
					"type": "error"
				},
				{
					"inputs": [
						{
							"internalType": "address",
							"name": "sender",
							"type": "address"
						}
					],
					"name": "ERC20InvalidSender",
					"type": "error"
				},
				{
					"inputs": [
						{
							"internalType": "address",
							"name": "spender",
							"type": "address"
						}
					],
					"name": "ERC20InvalidSpender",
					"type": "error"
				},
				{
					"anonymous": false,
					"inputs": [
						{
							"indexed": true,
							"internalType": "address",
							"name": "owner",
							"type": "address"
						},
						{
							"indexed": true,
							"internalType": "address",
							"name": "spender",
							"type": "address"
						},
						{
							"indexed": false,
							"internalType": "uint256",
							"name": "value",
							"type": "uint256"
						}
					],
					"name": "Approval",
					"type": "event"
				},
				{
					"anonymous": false,
					"inputs": [
						{
							"indexed": true,
							"internalType": "address",
							"name": "from",
							"type": "address"
						},
						{
							"indexed": true,
							"internalType": "address",
							"name": "to",
							"type": "address"
						},
						{
							"indexed": false,
							"internalType": "uint256",
							"name": "value",
							"type": "uint256"
						}
					],
					"name": "Transfer",
					"type": "event"
				},
				{
					"inputs": [
						{
							"internalType": "address",
							"name": "owner",
							"type": "address"
						},
						{
							"internalType": "address",
							"name": "spender",
							"type": "address"
						}
					],
					"name": "allowance",
					"outputs": [
						{
							"internalType": "uint256",
							"name": "",
							"type": "uint256"
						}
					],
					"stateMutability": "view",
					"type": "function"
				},
				{
					"inputs": [
						{
							"internalType": "address",
							"name": "spender",
							"type": "address"
						},
						{
							"internalType": "uint256",
							"name": "value",
							"type": "uint256"
						}
					],
					"name": "approve",
					"outputs": [
						{
							"internalType": "bool",
							"name": "",
							"type": "bool"
						}
					],
					"stateMutability": "nonpayable",
					"type": "function"
				},
				{
					"inputs": [
						{
							"internalType": "address",
							"name": "sender",
							"type": "address"
						}
					],
					"name": "balanceOf",
					"outputs": [
						{
							"internalType": "uint256",
							"name": "",
							"type": "uint256"
						}
					],
					"stateMutability": "view",
					"type": "function"
				},
				{
					"inputs": [
						{
							"internalType": "address",
							"name": "_pairAddress",
							"type": "address"
						}
					],
					"name": "changePairAddress",
					"outputs": [],
					"stateMutability": "nonpayable",
					"type": "function"
				},
				{
					"inputs": [],
					"name": "decimals",
					"outputs": [
						{
							"internalType": "uint8",
							"name": "",
							"type": "uint8"
						}
					],
					"stateMutability": "view",
					"type": "function"
				},
				{
					"inputs": [],
					"name": "disbleAntiWhale",
					"outputs": [],
					"stateMutability": "nonpayable",
					"type": "function"
				},
				{
					"inputs": [],
					"name": "enableAntiWhale",
					"outputs": [],
					"stateMutability": "nonpayable",
					"type": "function"
				},
				{
					"inputs": [
						{
							"internalType": "address",
							"name": "account",
							"type": "address"
						}
					],
					"name": "excludeAccountFromReward",
					"outputs": [],
					"stateMutability": "nonpayable",
					"type": "function"
				},
				{
					"inputs": [
						{
							"internalType": "address",
							"name": "account",
							"type": "address"
						}
					],
					"name": "excludeFromFee",
					"outputs": [],
					"stateMutability": "nonpayable",
					"type": "function"
				},
				{
					"inputs": [],
					"name": "getMarketingAndDevelopmentAccount",
					"outputs": [
						{
							"internalType": "address",
							"name": "",
							"type": "address"
						}
					],
					"stateMutability": "view",
					"type": "function"
				},
				{
					"inputs": [],
					"name": "getTaxFee",
					"outputs": [
						{
							"internalType": "uint256",
							"name": "",
							"type": "uint256"
						}
					],
					"stateMutability": "view",
					"type": "function"
				},
				{
					"inputs": [
						{
							"internalType": "address",
							"name": "account",
							"type": "address"
						}
					],
					"name": "includeAccountinReward",
					"outputs": [],
					"stateMutability": "nonpayable",
					"type": "function"
				},
				{
					"inputs": [
						{
							"internalType": "address",
							"name": "account",
							"type": "address"
						}
					],
					"name": "isExcluded",
					"outputs": [
						{
							"internalType": "bool",
							"name": "",
							"type": "bool"
						}
					],
					"stateMutability": "view",
					"type": "function"
				},
				{
					"inputs": [
						{
							"internalType": "address",
							"name": "account",
							"type": "address"
						}
					],
					"name": "isExcludedFromFee",
					"outputs": [
						{
							"internalType": "bool",
							"name": "",
							"type": "bool"
						}
					],
					"stateMutability": "view",
					"type": "function"
				},
				{
					"inputs": [],
					"name": "name",
					"outputs": [
						{
							"internalType": "string",
							"name": "",
							"type": "string"
						}
					],
					"stateMutability": "view",
					"type": "function"
				},
				{
					"inputs": [],
					"name": "owner",
					"outputs": [
						{
							"internalType": "address",
							"name": "",
							"type": "address"
						}
					],
					"stateMutability": "view",
					"type": "function"
				},
				{
					"inputs": [],
					"name": "pairAddress",
					"outputs": [
						{
							"internalType": "address",
							"name": "",
							"type": "address"
						}
					],
					"stateMutability": "view",
					"type": "function"
				},
				{
					"inputs": [
						{
							"internalType": "uint256",
							"name": "tAmount",
							"type": "uint256"
						}
					],
					"name": "reflect",
					"outputs": [],
					"stateMutability": "nonpayable",
					"type": "function"
				},
				{
					"inputs": [],
					"name": "reflectionFee",
					"outputs": [
						{
							"internalType": "uint256",
							"name": "",
							"type": "uint256"
						}
					],
					"stateMutability": "view",
					"type": "function"
				},
				{
					"inputs": [
						{
							"internalType": "uint256",
							"name": "tAmount",
							"type": "uint256"
						},
						{
							"internalType": "bool",
							"name": "deductTransferFee",
							"type": "bool"
						}
					],
					"name": "reflectionFromToken",
					"outputs": [
						{
							"internalType": "uint256",
							"name": "",
							"type": "uint256"
						}
					],
					"stateMutability": "view",
					"type": "function"
				},
				{
					"inputs": [],
					"name": "renounceOwnership",
					"outputs": [],
					"stateMutability": "nonpayable",
					"type": "function"
				},
				{
					"inputs": [],
					"name": "symbol",
					"outputs": [
						{
							"internalType": "string",
							"name": "",
							"type": "string"
						}
					],
					"stateMutability": "view",
					"type": "function"
				},
				{
					"inputs": [],
					"name": "totalFeesRedistributed",
					"outputs": [
						{
							"internalType": "uint256",
							"name": "",
							"type": "uint256"
						}
					],
					"stateMutability": "view",
					"type": "function"
				},
				{
					"inputs": [],
					"name": "totalSupply",
					"outputs": [
						{
							"internalType": "uint256",
							"name": "",
							"type": "uint256"
						}
					],
					"stateMutability": "view",
					"type": "function"
				},
				{
					"inputs": [
						{
							"internalType": "address",
							"name": "to",
							"type": "address"
						},
						{
							"internalType": "uint256",
							"name": "value",
							"type": "uint256"
						}
					],
					"name": "transfer",
					"outputs": [
						{
							"internalType": "bool",
							"name": "",
							"type": "bool"
						}
					],
					"stateMutability": "nonpayable",
					"type": "function"
				},
				{
					"inputs": [
						{
							"internalType": "address",
							"name": "from",
							"type": "address"
						},
						{
							"internalType": "address",
							"name": "to",
							"type": "address"
						},
						{
							"internalType": "uint256",
							"name": "value",
							"type": "uint256"
						}
					],
					"name": "transferFrom",
					"outputs": [
						{
							"internalType": "bool",
							"name": "",
							"type": "bool"
						}
					],
					"stateMutability": "nonpayable",
					"type": "function"
				},
				{
					"inputs": [
						{
							"internalType": "address",
							"name": "newOwner",
							"type": "address"
						}
					],
					"name": "transferOwnership",
					"outputs": [],
					"stateMutability": "nonpayable",
					"type": "function"
				},
				{
					"stateMutability": "payable",
					"type": "receive"
				}
			],
			"devdoc": {
				"errors": {
					"ERC20InsufficientAllowance(address,uint256,uint256)": [
						{
							"details": "Indicates a failure with the `spender`’s `allowance`. Used in transfers.",
							"params": {
								"allowance": "Amount of tokens a `spender` is allowed to operate with.",
								"needed": "Minimum amount required to perform a transfer.",
								"spender": "Address that may be allowed to operate on tokens without being their owner."
							}
						}
					],
					"ERC20InsufficientBalance(address,uint256,uint256)": [
						{
							"details": "Indicates an error related to the current `balance` of a `sender`. Used in transfers.",
							"params": {
								"balance": "Current balance for the interacting account.",
								"needed": "Minimum amount required to perform a transfer.",
								"sender": "Address whose tokens are being transferred."
							}
						}
					],
					"ERC20InvalidApprover(address)": [
						{
							"details": "Indicates a failure with the `approver` of a token to be approved. Used in approvals.",
							"params": {
								"approver": "Address initiating an approval operation."
							}
						}
					],
					"ERC20InvalidReceiver(address)": [
						{
							"details": "Indicates a failure with the token `receiver`. Used in transfers.",
							"params": {
								"receiver": "Address to which tokens are being transferred."
							}
						}
					],
					"ERC20InvalidSender(address)": [
						{
							"details": "Indicates a failure with the token `sender`. Used in transfers.",
							"params": {
								"sender": "Address whose tokens are being transferred."
							}
						}
					],
					"ERC20InvalidSpender(address)": [
						{
							"details": "Indicates a failure with the `spender` to be approved. Used in approvals.",
							"params": {
								"spender": "Address that may be allowed to operate on tokens without being their owner."
							}
						}
					]
				},
				"events": {
					"Approval(address,address,uint256)": {
						"details": "Emitted when the allowance of a `spender` for an `owner` is set by a call to {approve}. `value` is the new allowance."
					},
					"Transfer(address,address,uint256)": {
						"details": "Emitted when `value` tokens are moved from one account (`from`) to another (`to`). Note that `value` may be zero."
					}
				},
				"kind": "dev",
				"methods": {
					"allowance(address,address)": {
						"details": "See {IERC20-allowance}."
					},
					"approve(address,uint256)": {
						"details": "See {IERC20-approve}. NOTE: If `value` is the maximum `uint256`, the allowance is not updated on `transferFrom`. This is semantically equivalent to an infinite approval. Requirements: - `spender` cannot be the zero address."
					},
					"decimals()": {
						"details": "Returns the number of decimals used to get its user representation. For example, if `decimals` equals `2`, a balance of `505` tokens should be displayed to a user as `5.05` (`505 / 10 ** 2`). Tokens usually opt for a value of 18, imitating the relationship between Ether and Wei. This is the default value returned by this function, unless it's overridden. NOTE: This information is only used for _display_ purposes: it in no way affects any of the arithmetic of the contract, including {IERC20-balanceOf} and {IERC20-transfer}."
					},
					"name()": {
						"details": "Returns the name of the token."
					},
					"symbol()": {
						"details": "Returns the symbol of the token, usually a shorter version of the name."
					},
					"totalSupply()": {
						"details": "See {IERC20-totalSupply}."
					},
					"transfer(address,uint256)": {
						"details": "See {IERC20-transfer}. Requirements: - `to` cannot be the zero address. - the caller must have a balance of at least `value`."
					},
					"transferFrom(address,address,uint256)": {
						"details": "See {IERC20-transferFrom}. Skips emitting an {Approval} event indicating an allowance update. This is not required by the ERC. See {xref-ERC20-_approve-address-address-uint256-bool-}[_approve]. NOTE: Does not update the allowance if the current allowance is the maximum `uint256`. Requirements: - `from` and `to` cannot be the zero address. - `from` must have a balance of at least `value`. - the caller must have allowance for ``from``'s tokens of at least `value`."
					}
				},
				"version": 1
			},
			"evm": {
				"assembly": "    /* \"CYBCC.sol\":17775:30422  contract CYBCC is ERC20 {... */\n  mstore(0x40, 0x80)\n    /* \"CYBCC.sol\":18078:18113  address private _owner = msg.sender */\n  0x0a\n  dup1\n  sload\n  not(sub(shl(0xa8, 0x01), 0x0100))\n  and\n    /* \"CYBCC.sol\":18103:18113  msg.sender */\n  caller\n    /* \"CYBCC.sol\":18078:18113  address private _owner = msg.sender */\n  0x0100\n  mul\n  or\n  swap1\n  sstore\n  0x00\n    /* \"CYBCC.sol\":18229:18259  uint256 private _tFeeTotal = 0 */\n  0x0d\n  sstore\n    /* \"CYBCC.sol\":18540:18562  bool antiWhale = false */\n  0x15\n  dup1\n  sload\n  not(0xff)\n  and\n  swap1\n  sstore\n    /* \"CYBCC.sol\":18569:19244  constructor() ERC20(\"abc coin\", \"CYBCC\") {... */\n  callvalue\n  dup1\n  iszero\n  tag_1\n  jumpi\n  0x00\n  dup1\n  revert\ntag_1:\n  pop\n    /* \"CYBCC.sol\":8096:8209  constructor(string memory name_, string memory symbol_) {... */\n  mload(0x40)\n  dup1\n  0x40\n  add\n  0x40\n  mstore\n  dup1\n  0x08\n  dup2\n  mstore\n  0x20\n  add\n  shl(0xc1, 0x30b1319031b7b4b7)\n  dup2\n  mstore\n  pop\n  mload(0x40)\n  dup1\n  0x40\n  add\n  0x40\n  mstore\n  dup1\n  0x05\n  dup2\n  mstore\n  0x20\n  add\n  shl(0xd8, 0x4359424343)\n  dup2\n  mstore\n  pop\n    /* \"CYBCC.sol\":8170:8175  name_ */\n  dup2\n    /* \"CYBCC.sol\":8162:8167  _name */\n  0x03\n    /* \"CYBCC.sol\":8162:8175  _name = name_ */\n  swap1\n  dup2\n  tag_5\n  swap2\n  swap1\n  tag_6\n  jump\t// in\ntag_5:\n  pop\n    /* \"CYBCC.sol\":8185:8192  _symbol */\n  0x04\n    /* \"CYBCC.sol\":8185:8202  _symbol = symbol_ */\n  tag_7\n    /* \"CYBCC.sol\":8195:8202  symbol_ */\n  dup3\n    /* \"CYBCC.sol\":8185:8192  _symbol */\n  dup3\n    /* \"CYBCC.sol\":8185:8202  _symbol = symbol_ */\n  tag_6\n  jump\t// in\ntag_7:\n  pop\n  pop\n    /* \"CYBCC.sol\":18620:18629  _decimals */\n  0x0a\n    /* \"CYBCC.sol\":18620:18634  _decimals = 18 */\n  dup1\n  sload\n  not(0xff)\n  and\n    /* \"CYBCC.sol\":18632:18634  18 */\n  0x12\n    /* \"CYBCC.sol\":18620:18634  _decimals = 18 */\n  swap1\n  dup2\n  or\n  dup3\n  sstore\n    /* \"CYBCC.sol\":18668:18690  10**uint256(_decimals) */\n  tag_9\n  swap3\n  pop\n    /* \"CYBCC.sol\":18632:18634  18 */\n  swap1\n    /* \"CYBCC.sol\":18668:18690  10**uint256(_decimals) */\n  tag_10\n  jump\t// in\ntag_9:\n    /* \"CYBCC.sol\":18655:18690  1000000000 * 10**uint256(_decimals) */\n  tag_11\n  swap1\n    /* \"CYBCC.sol\":18655:18665  1000000000 */\n  0x3b9aca00\n    /* \"CYBCC.sol\":18655:18690  1000000000 * 10**uint256(_decimals) */\n  tag_12\n  jump\t// in\ntag_11:\n    /* \"CYBCC.sol\":18645:18652  _tTotal */\n  0x0b\n    /* \"CYBCC.sol\":18645:18690  _tTotal = 1000000000 * 10**uint256(_decimals) */\n  dup2\n  swap1\n  sstore\n    /* \"CYBCC.sol\":18719:18732  MAX % _tTotal */\n  tag_13\n  swap1\n  not(0x00)\n  tag_14\n  jump\t// in\ntag_13:\n    /* \"CYBCC.sol\":18712:18733  MAX - (MAX % _tTotal) */\n  tag_15\n  swap1\n  not(0x00)\n  tag_16\n  jump\t// in\ntag_15:\n    /* \"CYBCC.sol\":18701:18708  _rTotal */\n  0x0c\n    /* \"CYBCC.sol\":18701:18734  _rTotal = (MAX - (MAX % _tTotal)) */\n  sstore\n    /* \"CYBCC.sol\":18762:18763  2 */\n  0x02\n    /* \"CYBCC.sol\":18745:18759  _reflectionFee */\n  0x0e\n    /* \"CYBCC.sol\":18745:18763  _reflectionFee = 2 */\n  dup2\n  swap1\n  sstore\n    /* \"CYBCC.sol\":18774:18796  _previousReflectionFee */\n  0x0f\n    /* \"CYBCC.sol\":18774:18813  _previousReflectionFee = _reflectionFee */\n  sstore\n    /* \"CYBCC.sol\":18834:18835  1 */\n  0x01\n    /* \"CYBCC.sol\":18824:18831  _taxFee */\n  0x10\n    /* \"CYBCC.sol\":18824:18835  _taxFee = 1 */\n  dup2\n  swap1\n  sstore\n    /* \"CYBCC.sol\":18846:18861  _previousTaxFee */\n  0x11\n    /* \"CYBCC.sol\":18846:18871  _previousTaxFee = _taxFee */\n  sstore\n    /* \"CYBCC.sol\":18916:18922  _owner */\n  sload(0x0a)\n    /* \"CYBCC.sol\":18882:18913  _marketingAndDevelopmentAccount */\n  0x12\n    /* \"CYBCC.sol\":18882:18922  _marketingAndDevelopmentAccount = _owner */\n  dup1\n  sload\n    /* \"CYBCC.sol\":18916:18922  _owner */\n  0x0100\n  swap1\n  swap3\n  div\n  sub(shl(0xa0, 0x01), 0x01)\n  and\n  not(sub(shl(0xa0, 0x01), 0x01))\n    /* \"CYBCC.sol\":18882:18922  _marketingAndDevelopmentAccount = _owner */\n  swap1\n  swap3\n  and\n  swap2\n  swap1\n  swap2\n  or\n  swap1\n  sstore\n    /* \"CYBCC.sol\":18985:18992  _tTotal */\n  sload(0x0b)\n    /* \"CYBCC.sol\":18985:18998  _tTotal / 100 */\n  tag_17\n  swap1\n    /* \"CYBCC.sol\":18995:18998  100 */\n  0x64\n  swap1\n    /* \"CYBCC.sol\":18985:18998  _tTotal / 100 */\n  tag_18\n  jump\t// in\ntag_17:\n    /* \"CYBCC.sol\":18980:18999  2 * (_tTotal / 100) */\n  tag_19\n  swap1\n    /* \"CYBCC.sol\":18980:18981  2 */\n  0x02\n    /* \"CYBCC.sol\":18980:18999  2 * (_tTotal / 100) */\n  tag_12\n  jump\t// in\ntag_19:\n    /* \"CYBCC.sol\":18962:18977  maxWalletAmount */\n  0x14\n    /* \"CYBCC.sol\":18962:18999  maxWalletAmount = 2 * (_tTotal / 100) */\n  sstore\n    /* \"CYBCC.sol\":19040:19044  true */\n  0x01\n    /* \"CYBCC.sol\":19010:19028  _isExcludedFromFee */\n  0x07\n    /* \"CYBCC.sol\":19010:19037  _isExcludedFromFee[owner()] */\n  0x00\n    /* \"CYBCC.sol\":19029:19036  owner() */\n  tag_20\n    /* \"CYBCC.sol\":19357:19363  _owner */\n  sload(0x0a)\n  0x0100\n  swap1\n  div\n  sub(shl(0xa0, 0x01), 0x01)\n  and\n  swap1\n    /* \"CYBCC.sol\":19285:19370  function owner() public view virtual returns (address) {... */\n  jump\n    /* \"CYBCC.sol\":19029:19036  owner() */\ntag_20:\n  sub(shl(0xa0, 0x01), 0x01)\n    /* \"CYBCC.sol\":19010:19037  _isExcludedFromFee[owner()] */\n  swap1\n  dup2\n  and\n  dup3\n  mstore\n  0x20\n  dup1\n  dup4\n  add\n  swap4\n  swap1\n  swap4\n  mstore\n  0x40\n  swap2\n  dup3\n  add\n  0x00\n  swap1\n  dup2\n  keccak256\n    /* \"CYBCC.sol\":19010:19044  _isExcludedFromFee[owner()] = true */\n  dup1\n  sload\n  swap6\n  iszero\n  iszero\n  not(0xff)\n  swap7\n  dup8\n  and\n  or\n  swap1\n  sstore\n    /* \"CYBCC.sol\":19074:19105  _marketingAndDevelopmentAccount */\n  sload(0x12)\n  dup3\n  and\n    /* \"CYBCC.sol\":19055:19106  _isExcludedFromFee[_marketingAndDevelopmentAccount] */\n  dup2\n  mstore\n    /* \"CYBCC.sol\":19055:19073  _isExcludedFromFee */\n  0x07\n    /* \"CYBCC.sol\":19055:19106  _isExcludedFromFee[_marketingAndDevelopmentAccount] */\n  dup5\n  mstore\n  dup3\n  dup2\n  keccak256\n    /* \"CYBCC.sol\":19055:19113  _isExcludedFromFee[_marketingAndDevelopmentAccount] = true */\n  dup1\n  sload\n  dup7\n  and\n    /* \"CYBCC.sol\":19010:19044  _isExcludedFromFee[owner()] = true */\n  0x01\n    /* \"CYBCC.sol\":19055:19113  _isExcludedFromFee[_marketingAndDevelopmentAccount] = true */\n  swap1\n  dup2\n  or\n  swap1\n  swap2\n  sstore\n    /* \"CYBCC.sol\":19151:19155  this */\n  address\n    /* \"CYBCC.sol\":19124:19157  _isExcludedFromFee[address(this)] */\n  dup3\n  mstore\n  dup4\n  dup3\n  keccak256\n    /* \"CYBCC.sol\":19124:19164  _isExcludedFromFee[address(this)] = true */\n  dup1\n  sload\n  swap1\n  swap7\n  and\n  or\n  swap1\n  swap5\n  sstore\n    /* \"CYBCC.sol\":19193:19200  _rTotal */\n  sload(0x0c)\n    /* \"CYBCC.sol\":19183:19189  _owner */\n  sload(0x0a)\n    /* \"CYBCC.sol\":19010:19044  _isExcludedFromFee[owner()] = true */\n  0x0100\n    /* \"CYBCC.sol\":19183:19189  _owner */\n  swap1\n  div\n  swap1\n  swap2\n  and\n    /* \"CYBCC.sol\":19175:19190  _rOwned[_owner] */\n  dup5\n  mstore\n    /* \"CYBCC.sol\":19175:19182  _rOwned */\n  0x05\n    /* \"CYBCC.sol\":19175:19190  _rOwned[_owner] */\n  swap1\n  swap3\n  mstore\n  swap1\n  swap2\n  keccak256\n    /* \"CYBCC.sol\":19175:19200  _rOwned[_owner] = _rTotal */\n  dup2\n  swap1\n  sstore\n    /* \"CYBCC.sol\":19211:19237  _mint(msg.sender, _rTotal) */\n  tag_22\n  swap1\n    /* \"CYBCC.sol\":19217:19227  msg.sender */\n  caller\n  swap1\n    /* \"CYBCC.sol\":19211:19216  _mint */\n  tag_23\n    /* \"CYBCC.sol\":19211:19237  _mint(msg.sender, _rTotal) */\n  jump\t// in\ntag_22:\n    /* \"CYBCC.sol\":17775:30422  contract CYBCC is ERC20 {... */\n  jump(tag_53)\n    /* \"CYBCC.sol\":14115:14323  function _mint(address account, uint256 value) internal {... */\ntag_23:\n  sub(shl(0xa0, 0x01), 0x01)\n    /* \"CYBCC.sol\":14185:14206  account == address(0) */\n  dup3\n  and\n    /* \"CYBCC.sol\":14181:14272  if (account == address(0)) {... */\n  tag_27\n  jumpi\n    /* \"CYBCC.sol\":14229:14261  ERC20InvalidReceiver(address(0)) */\n  mload(0x40)\n  shl(0xe0, 0xec442f05)\n  dup2\n  mstore\n    /* \"CYBCC.sol\":14258:14259  0 */\n  0x00\n    /* \"CYBCC.sol\":14229:14261  ERC20InvalidReceiver(address(0)) */\n  0x04\n  dup3\n  add\n    /* \"#utility.yul\":5067:5118   */\n  mstore\n    /* \"#utility.yul\":5040:5058   */\n  0x24\n  add\n    /* \"CYBCC.sol\":14229:14261  ERC20InvalidReceiver(address(0)) */\ntag_28:\n  mload(0x40)\n  dup1\n  swap2\n  sub\n  swap1\n  revert\n    /* \"CYBCC.sol\":14181:14272  if (account == address(0)) {... */\ntag_27:\n    /* \"CYBCC.sol\":14281:14316  _update(address(0), account, value) */\n  tag_30\n    /* \"CYBCC.sol\":14297:14298  0 */\n  0x00\n    /* \"CYBCC.sol\":14301:14308  account */\n  dup4\n    /* \"CYBCC.sol\":14310:14315  value */\n  dup4\n    /* \"CYBCC.sol\":14281:14288  _update */\n  tag_31\n    /* \"CYBCC.sol\":14281:14316  _update(address(0), account, value) */\n  jump\t// in\ntag_30:\n    /* \"CYBCC.sol\":14115:14323  function _mint(address account, uint256 value) internal {... */\n  pop\n  pop\n  jump\t// out\n    /* \"CYBCC.sol\":12635:13772  function _update(... */\ntag_31:\n  sub(shl(0xa0, 0x01), 0x01)\n    /* \"CYBCC.sol\":12754:12772  from == address(0) */\n  dup4\n  and\n    /* \"CYBCC.sol\":12750:13290  if (from == address(0)) {... */\n  tag_33\n  jumpi\n    /* \"CYBCC.sol\":12906:12911  value */\n  dup1\n    /* \"CYBCC.sol\":12890:12902  _totalSupply */\n  0x02\n  0x00\n    /* \"CYBCC.sol\":12890:12911  _totalSupply += value */\n  dup3\n  dup3\n  sload\n  tag_34\n  swap2\n  swap1\n  tag_35\n  jump\t// in\ntag_34:\n  swap1\n  swap2\n  sstore\n  pop\n    /* \"CYBCC.sol\":12750:13290  if (from == address(0)) {... */\n  tag_36\n  swap1\n  pop\n  jump\ntag_33:\n  sub(shl(0xa0, 0x01), 0x01)\n    /* \"CYBCC.sol\":12964:12979  _balances[from] */\n  dup4\n  and\n    /* \"CYBCC.sol\":12942:12961  uint256 fromBalance */\n  0x00\n    /* \"CYBCC.sol\":12964:12979  _balances[from] */\n  swap1\n  dup2\n  mstore\n  0x20\n  dup2\n  swap1\n  mstore\n  0x40\n  swap1\n  keccak256\n  sload\n    /* \"CYBCC.sol\":12997:13016  fromBalance < value */\n  dup2\n  dup2\n  lt\n    /* \"CYBCC.sol\":12993:13108  if (fromBalance < value) {... */\n  iszero\n  tag_37\n  jumpi\n    /* \"CYBCC.sol\":13043:13093  ERC20InsufficientBalance(from, fromBalance, value) */\n  mload(0x40)\n  shl(0xe2, 0x391434e3)\n  dup2\n  mstore\n  sub(shl(0xa0, 0x01), 0x01)\n    /* \"#utility.yul\":5479:5511   */\n  dup6\n  and\n    /* \"CYBCC.sol\":13043:13093  ERC20InsufficientBalance(from, fromBalance, value) */\n  0x04\n  dup3\n  add\n    /* \"#utility.yul\":5461:5512   */\n  mstore\n    /* \"#utility.yul\":5528:5546   */\n  0x24\n  dup2\n  add\n    /* \"#utility.yul\":5521:5555   */\n  dup3\n  swap1\n  mstore\n    /* \"#utility.yul\":5571:5589   */\n  0x44\n  dup2\n  add\n    /* \"#utility.yul\":5564:5598   */\n  dup4\n  swap1\n  mstore\n    /* \"#utility.yul\":5434:5452   */\n  0x64\n  add\n    /* \"CYBCC.sol\":13043:13093  ERC20InsufficientBalance(from, fromBalance, value) */\n  tag_28\n    /* \"#utility.yul\":5259:5604   */\n  jump\n    /* \"CYBCC.sol\":12993:13108  if (fromBalance < value) {... */\ntag_37:\n  sub(shl(0xa0, 0x01), 0x01)\n    /* \"CYBCC.sol\":13228:13243  _balances[from] */\n  dup5\n  and\n    /* \"CYBCC.sol\":13228:13237  _balances */\n  0x00\n    /* \"CYBCC.sol\":13228:13243  _balances[from] */\n  swap1\n  dup2\n  mstore\n  0x20\n  dup2\n  swap1\n  mstore\n  0x40\n  swap1\n  keccak256\n    /* \"CYBCC.sol\":13246:13265  fromBalance - value */\n  swap1\n  dup3\n  swap1\n  sub\n    /* \"CYBCC.sol\":13228:13265  _balances[from] = fromBalance - value */\n  swap1\n  sstore\n    /* \"CYBCC.sol\":12750:13290  if (from == address(0)) {... */\ntag_36:\n  sub(shl(0xa0, 0x01), 0x01)\n    /* \"CYBCC.sol\":13304:13320  to == address(0) */\n  dup3\n  and\n    /* \"CYBCC.sol\":13300:13725  if (to == address(0)) {... */\n  tag_40\n  jumpi\n    /* \"CYBCC.sol\":13467:13479  _totalSupply */\n  0x02\n    /* \"CYBCC.sol\":13467:13488  _totalSupply -= value */\n  dup1\n  sload\n  dup3\n  swap1\n  sub\n  swap1\n  sstore\n    /* \"CYBCC.sol\":13300:13725  if (to == address(0)) {... */\n  jump(tag_41)\ntag_40:\n  sub(shl(0xa0, 0x01), 0x01)\n    /* \"CYBCC.sol\":13678:13691  _balances[to] */\n  dup3\n  and\n    /* \"CYBCC.sol\":13678:13687  _balances */\n  0x00\n    /* \"CYBCC.sol\":13678:13691  _balances[to] */\n  swap1\n  dup2\n  mstore\n  0x20\n  dup2\n  swap1\n  mstore\n  0x40\n  swap1\n  keccak256\n    /* \"CYBCC.sol\":13678:13700  _balances[to] += value */\n  dup1\n  sload\n  dup3\n  add\n  swap1\n  sstore\n    /* \"CYBCC.sol\":13300:13725  if (to == address(0)) {... */\ntag_41:\n    /* \"CYBCC.sol\":13755:13757  to */\n  dup2\n  sub(shl(0xa0, 0x01), 0x01)\n    /* \"CYBCC.sol\":13740:13765  Transfer(from, to, value) */\n  and\n    /* \"CYBCC.sol\":13749:13753  from */\n  dup4\n  sub(shl(0xa0, 0x01), 0x01)\n    /* \"CYBCC.sol\":13740:13765  Transfer(from, to, value) */\n  and\n  0xddf252ad1be2c89b69c2b068fc378daa952ba7f163c4a11628f55a4df523b3ef\n    /* \"CYBCC.sol\":13759:13764  value */\n  dup4\n    /* \"CYBCC.sol\":13740:13765  Transfer(from, to, value) */\n  mload(0x40)\n  tag_42\n  swap2\n    /* \"#utility.yul\":5755:5780   */\n  dup2\n  mstore\n    /* \"#utility.yul\":5743:5745   */\n  0x20\n    /* \"#utility.yul\":5728:5746   */\n  add\n  swap1\n    /* \"#utility.yul\":5609:5786   */\n  jump\n    /* \"CYBCC.sol\":13740:13765  Transfer(from, to, value) */\ntag_42:\n  mload(0x40)\n  dup1\n  swap2\n  sub\n  swap1\n  log3\n    /* \"CYBCC.sol\":12635:13772  function _update(... */\n  pop\n  pop\n  pop\n  jump\t// out\n    /* \"#utility.yul\":14:141   */\ntag_44:\n    /* \"#utility.yul\":75:85   */\n  0x4e487b71\n    /* \"#utility.yul\":70:73   */\n  0xe0\n    /* \"#utility.yul\":66:86   */\n  shl\n    /* \"#utility.yul\":63:64   */\n  0x00\n    /* \"#utility.yul\":56:87   */\n  mstore\n    /* \"#utility.yul\":106:110   */\n  0x41\n    /* \"#utility.yul\":103:104   */\n  0x04\n    /* \"#utility.yul\":96:111   */\n  mstore\n    /* \"#utility.yul\":130:134   */\n  0x24\n    /* \"#utility.yul\":127:128   */\n  0x00\n    /* \"#utility.yul\":120:135   */\n  revert\n    /* \"#utility.yul\":146:526   */\ntag_45:\n    /* \"#utility.yul\":225:226   */\n  0x01\n    /* \"#utility.yul\":221:233   */\n  dup2\n  dup2\n  shr\n  swap1\n    /* \"#utility.yul\":268:280   */\n  dup3\n  and\n  dup1\n    /* \"#utility.yul\":289:350   */\n  tag_56\n  jumpi\n    /* \"#utility.yul\":343:347   */\n  0x7f\n    /* \"#utility.yul\":335:341   */\n  dup3\n    /* \"#utility.yul\":331:348   */\n  and\n    /* \"#utility.yul\":321:348   */\n  swap2\n  pop\n    /* \"#utility.yul\":289:350   */\ntag_56:\n    /* \"#utility.yul\":396:398   */\n  0x20\n    /* \"#utility.yul\":388:394   */\n  dup3\n    /* \"#utility.yul\":385:399   */\n  lt\n    /* \"#utility.yul\":365:383   */\n  dup2\n    /* \"#utility.yul\":362:400   */\n  sub\n    /* \"#utility.yul\":359:520   */\n  tag_57\n  jumpi\n    /* \"#utility.yul\":442:452   */\n  0x4e487b71\n    /* \"#utility.yul\":437:440   */\n  0xe0\n    /* \"#utility.yul\":433:453   */\n  shl\n    /* \"#utility.yul\":430:431   */\n  0x00\n    /* \"#utility.yul\":423:454   */\n  mstore\n    /* \"#utility.yul\":477:481   */\n  0x22\n    /* \"#utility.yul\":474:475   */\n  0x04\n    /* \"#utility.yul\":467:482   */\n  mstore\n    /* \"#utility.yul\":505:509   */\n  0x24\n    /* \"#utility.yul\":502:503   */\n  0x00\n    /* \"#utility.yul\":495:510   */\n  revert\n    /* \"#utility.yul\":359:520   */\ntag_57:\n  pop\n    /* \"#utility.yul\":146:526   */\n  swap2\n  swap1\n  pop\n  jump\t// out\n    /* \"#utility.yul\":657:1202   */\ntag_47:\n    /* \"#utility.yul\":759:761   */\n  0x1f\n    /* \"#utility.yul\":754:757   */\n  dup3\n    /* \"#utility.yul\":751:762   */\n  gt\n    /* \"#utility.yul\":748:1196   */\n  iszero\n  tag_60\n  jumpi\n    /* \"#utility.yul\":795:796   */\n  0x00\n    /* \"#utility.yul\":820:825   */\n  dup2\n    /* \"#utility.yul\":816:818   */\n  dup2\n    /* \"#utility.yul\":809:826   */\n  mstore\n    /* \"#utility.yul\":865:869   */\n  0x20\n    /* \"#utility.yul\":861:863   */\n  dup2\n    /* \"#utility.yul\":851:870   */\n  keccak256\n    /* \"#utility.yul\":935:937   */\n  0x1f\n    /* \"#utility.yul\":923:933   */\n  dup6\n    /* \"#utility.yul\":919:938   */\n  add\n    /* \"#utility.yul\":916:917   */\n  0x05\n    /* \"#utility.yul\":912:939   */\n  shr\n    /* \"#utility.yul\":906:910   */\n  dup2\n    /* \"#utility.yul\":902:940   */\n  add\n    /* \"#utility.yul\":971:975   */\n  0x20\n    /* \"#utility.yul\":959:969   */\n  dup7\n    /* \"#utility.yul\":956:976   */\n  lt\n    /* \"#utility.yul\":953:1000   */\n  iszero\n  tag_61\n  jumpi\n  pop\n    /* \"#utility.yul\":994:998   */\n  dup1\n    /* \"#utility.yul\":953:1000   */\ntag_61:\n    /* \"#utility.yul\":1049:1051   */\n  0x1f\n    /* \"#utility.yul\":1044:1047   */\n  dup6\n    /* \"#utility.yul\":1040:1052   */\n  add\n    /* \"#utility.yul\":1037:1038   */\n  0x05\n    /* \"#utility.yul\":1033:1053   */\n  shr\n    /* \"#utility.yul\":1027:1031   */\n  dup3\n    /* \"#utility.yul\":1023:1054   */\n  add\n    /* \"#utility.yul\":1013:1054   */\n  swap2\n  pop\n    /* \"#utility.yul\":1104:1186   */\ntag_62:\n    /* \"#utility.yul\":1122:1124   */\n  dup2\n    /* \"#utility.yul\":1115:1120   */\n  dup2\n    /* \"#utility.yul\":1112:1125   */\n  lt\n    /* \"#utility.yul\":1104:1186   */\n  iszero\n  tag_64\n  jumpi\n    /* \"#utility.yul\":1167:1184   */\n  dup3\n  dup2\n  sstore\n    /* \"#utility.yul\":1148:1149   */\n  0x01\n    /* \"#utility.yul\":1137:1150   */\n  add\n    /* \"#utility.yul\":1104:1186   */\n  jump(tag_62)\ntag_64:\n    /* \"#utility.yul\":1108:1111   */\n  pop\n  pop\n  pop\n    /* \"#utility.yul\":748:1196   */\ntag_60:\n    /* \"#utility.yul\":657:1202   */\n  pop\n  pop\n  pop\n  jump\t// out\n    /* \"#utility.yul\":1378:2730   */\ntag_6:\n    /* \"#utility.yul\":1498:1508   */\n  dup2\n  mload\n  sub(shl(0x40, 0x01), 0x01)\n    /* \"#utility.yul\":1520:1550   */\n  dup2\n  gt\n    /* \"#utility.yul\":1517:1573   */\n  iszero\n  tag_68\n  jumpi\n    /* \"#utility.yul\":1553:1571   */\n  tag_68\n  tag_44\n  jump\t// in\ntag_68:\n    /* \"#utility.yul\":1582:1679   */\n  tag_69\n    /* \"#utility.yul\":1672:1678   */\n  dup2\n    /* \"#utility.yul\":1632:1670   */\n  tag_70\n    /* \"#utility.yul\":1664:1668   */\n  dup5\n    /* \"#utility.yul\":1658:1669   */\n  sload\n    /* \"#utility.yul\":1632:1670   */\n  tag_45\n  jump\t// in\ntag_70:\n    /* \"#utility.yul\":1626:1630   */\n  dup5\n    /* \"#utility.yul\":1582:1679   */\n  tag_47\n  jump\t// in\ntag_69:\n    /* \"#utility.yul\":1734:1738   */\n  0x20\n  dup1\n    /* \"#utility.yul\":1798:1800   */\n  0x1f\n    /* \"#utility.yul\":1787:1801   */\n  dup4\n  gt\n    /* \"#utility.yul\":1815:1816   */\n  0x01\n    /* \"#utility.yul\":1810:2473   */\n  dup2\n  eq\n  tag_72\n  jumpi\n    /* \"#utility.yul\":2517:2518   */\n  0x00\n    /* \"#utility.yul\":2534:2540   */\n  dup5\n    /* \"#utility.yul\":2531:2620   */\n  iszero\n  tag_73\n  jumpi\n  pop\n    /* \"#utility.yul\":2586:2605   */\n  dup6\n  dup4\n  add\n    /* \"#utility.yul\":2580:2606   */\n  mload\n    /* \"#utility.yul\":2531:2620   */\ntag_73:\n  not(0x00)\n    /* \"#utility.yul\":1335:1336   */\n  0x03\n    /* \"#utility.yul\":1331:1342   */\n  dup7\n  swap1\n  shl\n    /* \"#utility.yul\":1327:1351   */\n  shr\n    /* \"#utility.yul\":1323:1352   */\n  not\n    /* \"#utility.yul\":1313:1353   */\n  and\n    /* \"#utility.yul\":1359:1360   */\n  0x01\n    /* \"#utility.yul\":1355:1366   */\n  dup6\n  swap1\n  shl\n    /* \"#utility.yul\":1310:1367   */\n  or\n    /* \"#utility.yul\":2633:2714   */\n  dup6\n  sstore\n    /* \"#utility.yul\":1780:2724   */\n  jump(tag_64)\n    /* \"#utility.yul\":1810:2473   */\ntag_72:\n    /* \"#utility.yul\":604:605   */\n  0x00\n    /* \"#utility.yul\":597:611   */\n  dup6\n  dup2\n  mstore\n    /* \"#utility.yul\":641:645   */\n  0x20\n    /* \"#utility.yul\":628:646   */\n  dup2\n  keccak256\n  not(0x1f)\n    /* \"#utility.yul\":1846:1866   */\n  dup7\n  and\n  swap2\n    /* \"#utility.yul\":1964:2200   */\ntag_76:\n    /* \"#utility.yul\":1978:1985   */\n  dup3\n    /* \"#utility.yul\":1975:1976   */\n  dup2\n    /* \"#utility.yul\":1972:1986   */\n  lt\n    /* \"#utility.yul\":1964:2200   */\n  iszero\n  tag_78\n  jumpi\n    /* \"#utility.yul\":2067:2086   */\n  dup9\n  dup7\n  add\n    /* \"#utility.yul\":2061:2087   */\n  mload\n    /* \"#utility.yul\":2046:2088   */\n  dup3\n  sstore\n    /* \"#utility.yul\":2159:2186   */\n  swap5\n  dup5\n  add\n  swap5\n    /* \"#utility.yul\":2127:2128   */\n  0x01\n    /* \"#utility.yul\":2115:2129   */\n  swap1\n  swap2\n  add\n  swap1\n    /* \"#utility.yul\":1994:2013   */\n  dup5\n  add\n    /* \"#utility.yul\":1964:2200   */\n  jump(tag_76)\ntag_78:\n    /* \"#utility.yul\":1968:1971   */\n  pop\n    /* \"#utility.yul\":2228:2234   */\n  dup6\n    /* \"#utility.yul\":2219:2226   */\n  dup3\n    /* \"#utility.yul\":2216:2235   */\n  lt\n    /* \"#utility.yul\":2213:2414   */\n  iszero\n  tag_79\n  jumpi\n    /* \"#utility.yul\":2289:2308   */\n  dup8\n  dup6\n  add\n    /* \"#utility.yul\":2283:2309   */\n  mload\n  not(0x00)\n    /* \"#utility.yul\":2372:2373   */\n  0x03\n    /* \"#utility.yul\":2368:2382   */\n  dup9\n  swap1\n  shl\n    /* \"#utility.yul\":2384:2387   */\n  0xf8\n    /* \"#utility.yul\":2364:2388   */\n  and\n    /* \"#utility.yul\":2360:2397   */\n  shr\n    /* \"#utility.yul\":2356:2398   */\n  not\n    /* \"#utility.yul\":2341:2399   */\n  and\n    /* \"#utility.yul\":2326:2400   */\n  dup2\n  sstore\n    /* \"#utility.yul\":2213:2414   */\ntag_79:\n  pop\n  pop\n  pop\n  pop\n  pop\n    /* \"#utility.yul\":2460:2461   */\n  0x01\n    /* \"#utility.yul\":2444:2458   */\n  swap1\n  dup2\n  shl\n    /* \"#utility.yul\":2440:2462   */\n  add\n    /* \"#utility.yul\":2427:2463   */\n  swap1\n  sstore\n  pop\n    /* \"#utility.yul\":1378:2730   */\n  jump\t// out\n    /* \"#utility.yul\":2735:2862   */\ntag_49:\n    /* \"#utility.yul\":2796:2806   */\n  0x4e487b71\n    /* \"#utility.yul\":2791:2794   */\n  0xe0\n    /* \"#utility.yul\":2787:2807   */\n  shl\n    /* \"#utility.yul\":2784:2785   */\n  0x00\n    /* \"#utility.yul\":2777:2808   */\n  mstore\n    /* \"#utility.yul\":2827:2831   */\n  0x11\n    /* \"#utility.yul\":2824:2825   */\n  0x04\n    /* \"#utility.yul\":2817:2832   */\n  mstore\n    /* \"#utility.yul\":2851:2855   */\n  0x24\n    /* \"#utility.yul\":2848:2849   */\n  0x00\n    /* \"#utility.yul\":2841:2856   */\n  revert\n    /* \"#utility.yul\":2867:3289   */\ntag_50:\n    /* \"#utility.yul\":2956:2957   */\n  0x01\n    /* \"#utility.yul\":2999:3004   */\n  dup2\n    /* \"#utility.yul\":2956:2957   */\n  dup2\n    /* \"#utility.yul\":3013:3283   */\ntag_82:\n    /* \"#utility.yul\":3034:3041   */\n  dup1\n    /* \"#utility.yul\":3024:3032   */\n  dup6\n    /* \"#utility.yul\":3021:3042   */\n  gt\n    /* \"#utility.yul\":3013:3283   */\n  iszero\n  tag_84\n  jumpi\n    /* \"#utility.yul\":3093:3097   */\n  dup2\n    /* \"#utility.yul\":3089:3090   */\n  0x00\n    /* \"#utility.yul\":3085:3091   */\n  not\n    /* \"#utility.yul\":3081:3098   */\n  div\n    /* \"#utility.yul\":3075:3079   */\n  dup3\n    /* \"#utility.yul\":3072:3099   */\n  gt\n    /* \"#utility.yul\":3069:3122   */\n  iszero\n  tag_86\n  jumpi\n    /* \"#utility.yul\":3102:3120   */\n  tag_86\n  tag_49\n  jump\t// in\ntag_86:\n    /* \"#utility.yul\":3152:3159   */\n  dup1\n    /* \"#utility.yul\":3142:3150   */\n  dup6\n    /* \"#utility.yul\":3138:3160   */\n  and\n    /* \"#utility.yul\":3135:3190   */\n  iszero\n  tag_87\n  jumpi\n    /* \"#utility.yul\":3172:3188   */\n  swap2\n  dup2\n  mul\n  swap2\n    /* \"#utility.yul\":3135:3190   */\ntag_87:\n    /* \"#utility.yul\":3251:3273   */\n  swap4\n  dup5\n  shr\n  swap4\n    /* \"#utility.yul\":3211:3226   */\n  swap1\n  dup1\n  mul\n  swap1\n    /* \"#utility.yul\":3013:3283   */\n  jump(tag_82)\ntag_84:\n    /* \"#utility.yul\":3017:3020   */\n  pop\n    /* \"#utility.yul\":2867:3289   */\n  swap3\n  pop\n  swap3\n  swap1\n  pop\n  jump\t// out\n    /* \"#utility.yul\":3294:4100   */\ntag_51:\n    /* \"#utility.yul\":3343:3348   */\n  0x00\n    /* \"#utility.yul\":3373:3381   */\n  dup3\n    /* \"#utility.yul\":3363:3443   */\n  tag_89\n  jumpi\n  pop\n    /* \"#utility.yul\":3414:3415   */\n  0x01\n    /* \"#utility.yul\":3428:3433   */\n  jump(tag_88)\n    /* \"#utility.yul\":3363:3443   */\ntag_89:\n    /* \"#utility.yul\":3462:3466   */\n  dup2\n    /* \"#utility.yul\":3452:3528   */\n  tag_90\n  jumpi\n  pop\n    /* \"#utility.yul\":3499:3500   */\n  0x00\n    /* \"#utility.yul\":3513:3518   */\n  jump(tag_88)\n    /* \"#utility.yul\":3452:3528   */\ntag_90:\n    /* \"#utility.yul\":3544:3548   */\n  dup2\n    /* \"#utility.yul\":3562:3563   */\n  0x01\n    /* \"#utility.yul\":3557:3616   */\n  dup2\n  eq\n  tag_92\n  jumpi\n    /* \"#utility.yul\":3630:3631   */\n  0x02\n    /* \"#utility.yul\":3625:3755   */\n  dup2\n  eq\n  tag_93\n  jumpi\n    /* \"#utility.yul\":3537:3755   */\n  jump(tag_91)\n    /* \"#utility.yul\":3557:3616   */\ntag_92:\n    /* \"#utility.yul\":3587:3588   */\n  0x01\n    /* \"#utility.yul\":3578:3588   */\n  swap2\n  pop\n    /* \"#utility.yul\":3601:3606   */\n  pop\n  jump(tag_88)\n    /* \"#utility.yul\":3625:3755   */\ntag_93:\n    /* \"#utility.yul\":3662:3665   */\n  0xff\n    /* \"#utility.yul\":3652:3660   */\n  dup5\n    /* \"#utility.yul\":3649:3666   */\n  gt\n    /* \"#utility.yul\":3646:3689   */\n  iszero\n  tag_95\n  jumpi\n    /* \"#utility.yul\":3669:3687   */\n  tag_95\n  tag_49\n  jump\t// in\ntag_95:\n  pop\n  pop\n    /* \"#utility.yul\":3725:3726   */\n  0x01\n    /* \"#utility.yul\":3711:3727   */\n  dup3\n  shl\n    /* \"#utility.yul\":3740:3745   */\n  jump(tag_88)\n    /* \"#utility.yul\":3537:3755   */\ntag_91:\n  pop\n    /* \"#utility.yul\":3839:3841   */\n  0x20\n    /* \"#utility.yul\":3829:3837   */\n  dup4\n    /* \"#utility.yul\":3826:3842   */\n  lt\n    /* \"#utility.yul\":3820:3823   */\n  0x0133\n    /* \"#utility.yul\":3814:3818   */\n  dup4\n    /* \"#utility.yul\":3811:3824   */\n  lt\n    /* \"#utility.yul\":3807:3843   */\n  and\n    /* \"#utility.yul\":3801:3803   */\n  0x4e\n    /* \"#utility.yul\":3791:3799   */\n  dup5\n    /* \"#utility.yul\":3788:3804   */\n  lt\n    /* \"#utility.yul\":3783:3785   */\n  0x0b\n    /* \"#utility.yul\":3777:3781   */\n  dup5\n    /* \"#utility.yul\":3774:3786   */\n  lt\n    /* \"#utility.yul\":3770:3805   */\n  and\n    /* \"#utility.yul\":3767:3844   */\n  or\n    /* \"#utility.yul\":3764:3923   */\n  iszero\n  tag_96\n  jumpi\n  pop\n    /* \"#utility.yul\":3876:3895   */\n  dup2\n  dup2\n  exp\n    /* \"#utility.yul\":3908:3913   */\n  jump(tag_88)\n    /* \"#utility.yul\":3764:3923   */\ntag_96:\n    /* \"#utility.yul\":3955:3989   */\n  tag_97\n    /* \"#utility.yul\":3980:3988   */\n  dup4\n    /* \"#utility.yul\":3974:3978   */\n  dup4\n    /* \"#utility.yul\":3955:3989   */\n  tag_50\n  jump\t// in\ntag_97:\n    /* \"#utility.yul\":4025:4031   */\n  dup1\n    /* \"#utility.yul\":4021:4022   */\n  0x00\n    /* \"#utility.yul\":4017:4023   */\n  not\n    /* \"#utility.yul\":4013:4032   */\n  div\n    /* \"#utility.yul\":4004:4011   */\n  dup3\n    /* \"#utility.yul\":4001:4033   */\n  gt\n    /* \"#utility.yul\":3998:4056   */\n  iszero\n  tag_99\n  jumpi\n    /* \"#utility.yul\":4036:4054   */\n  tag_99\n  tag_49\n  jump\t// in\ntag_99:\n    /* \"#utility.yul\":4074:4094   */\n  mul\n  swap1\n  pop\n    /* \"#utility.yul\":3294:4100   */\ntag_88:\n  swap3\n  swap2\n  pop\n  pop\n  jump\t// out\n    /* \"#utility.yul\":4105:4236   */\ntag_10:\n    /* \"#utility.yul\":4165:4170   */\n  0x00\n    /* \"#utility.yul\":4194:4230   */\n  tag_101\n    /* \"#utility.yul\":4221:4229   */\n  dup4\n    /* \"#utility.yul\":4215:4219   */\n  dup4\n    /* \"#utility.yul\":4194:4230   */\n  tag_51\n  jump\t// in\ntag_101:\n    /* \"#utility.yul\":4185:4230   */\n  swap4\n    /* \"#utility.yul\":4105:4236   */\n  swap3\n  pop\n  pop\n  pop\n  jump\t// out\n    /* \"#utility.yul\":4241:4409   */\ntag_12:\n    /* \"#utility.yul\":4314:4323   */\n  dup1\n  dup3\n  mul\n    /* \"#utility.yul\":4345:4354   */\n  dup2\n  iszero\n    /* \"#utility.yul\":4362:4377   */\n  dup3\n  dup3\n  div\n    /* \"#utility.yul\":4356:4378   */\n  dup5\n  eq\n    /* \"#utility.yul\":4342:4379   */\n  or\n    /* \"#utility.yul\":4332:4403   */\n  tag_88\n  jumpi\n    /* \"#utility.yul\":4383:4401   */\n  tag_88\n  tag_49\n  jump\t// in\n    /* \"#utility.yul\":4414:4541   */\ntag_52:\n    /* \"#utility.yul\":4475:4485   */\n  0x4e487b71\n    /* \"#utility.yul\":4470:4473   */\n  0xe0\n    /* \"#utility.yul\":4466:4486   */\n  shl\n    /* \"#utility.yul\":4463:4464   */\n  0x00\n    /* \"#utility.yul\":4456:4487   */\n  mstore\n    /* \"#utility.yul\":4506:4510   */\n  0x12\n    /* \"#utility.yul\":4503:4504   */\n  0x04\n    /* \"#utility.yul\":4496:4511   */\n  mstore\n    /* \"#utility.yul\":4530:4534   */\n  0x24\n    /* \"#utility.yul\":4527:4528   */\n  0x00\n    /* \"#utility.yul\":4520:4535   */\n  revert\n    /* \"#utility.yul\":4546:4658   */\ntag_14:\n    /* \"#utility.yul\":4578:4579   */\n  0x00\n    /* \"#utility.yul\":4604:4605   */\n  dup3\n    /* \"#utility.yul\":4594:4629   */\n  tag_108\n  jumpi\n    /* \"#utility.yul\":4609:4627   */\n  tag_108\n  tag_52\n  jump\t// in\ntag_108:\n  pop\n    /* \"#utility.yul\":4643:4652   */\n  mod\n  swap1\n    /* \"#utility.yul\":4546:4658   */\n  jump\t// out\n    /* \"#utility.yul\":4663:4791   */\ntag_16:\n    /* \"#utility.yul\":4730:4739   */\n  dup2\n  dup2\n  sub\n    /* \"#utility.yul\":4751:4762   */\n  dup2\n  dup2\n  gt\n    /* \"#utility.yul\":4748:4785   */\n  iszero\n  tag_88\n  jumpi\n    /* \"#utility.yul\":4765:4783   */\n  tag_88\n  tag_49\n  jump\t// in\n    /* \"#utility.yul\":4796:4916   */\ntag_18:\n    /* \"#utility.yul\":4836:4837   */\n  0x00\n    /* \"#utility.yul\":4862:4863   */\n  dup3\n    /* \"#utility.yul\":4852:4887   */\n  tag_114\n  jumpi\n    /* \"#utility.yul\":4867:4885   */\n  tag_114\n  tag_52\n  jump\t// in\ntag_114:\n  pop\n    /* \"#utility.yul\":4901:4910   */\n  div\n  swap1\n    /* \"#utility.yul\":4796:4916   */\n  jump\t// out\n    /* \"#utility.yul\":5129:5254   */\ntag_35:\n    /* \"#utility.yul\":5194:5203   */\n  dup1\n  dup3\n  add\n    /* \"#utility.yul\":5215:5225   */\n  dup1\n  dup3\n  gt\n    /* \"#utility.yul\":5212:5248   */\n  iszero\n  tag_88\n  jumpi\n    /* \"#utility.yul\":5228:5246   */\n  tag_88\n  tag_49\n  jump\t// in\n    /* \"#utility.yul\":5609:5786   */\ntag_53:\n    /* \"CYBCC.sol\":17775:30422  contract CYBCC is ERC20 {... */\n  dataSize(sub_0)\n  dup1\n  dataOffset(sub_0)\n  0x00\n  codecopy\n  0x00\n  return\nstop\n\nsub_0: assembly {\n        /* \"CYBCC.sol\":17775:30422  contract CYBCC is ERC20 {... */\n      mstore(0x40, 0x80)\n      jumpi(tag_1, lt(calldatasize, 0x04))\n      shr(0xe0, calldataload(0x00))\n      dup1\n      0x70a08231\n      gt\n      tag_30\n      jumpi\n      dup1\n      0xa9059cbb\n      gt\n      tag_31\n      jumpi\n      dup1\n      0xdd62ed3e\n      gt\n      tag_32\n      jumpi\n      dup1\n      0xdd62ed3e\n      eq\n      tag_26\n      jumpi\n      dup1\n      0xf2fde38b\n      eq\n      tag_27\n      jumpi\n      dup1\n      0xf66608fe\n      eq\n      tag_28\n      jumpi\n      dup1\n      0xfdeb889f\n      eq\n      tag_29\n      jumpi\n      0x00\n      dup1\n      revert\n    tag_32:\n      dup1\n      0xa9059cbb\n      eq\n      tag_23\n      jumpi\n      dup1\n      0xcba0e996\n      eq\n      tag_24\n      jumpi\n      dup1\n      0xd12dc1c1\n      eq\n      tag_25\n      jumpi\n      0x00\n      dup1\n      revert\n    tag_31:\n      dup1\n      0x8873b15f\n      gt\n      tag_33\n      jumpi\n      dup1\n      0x8873b15f\n      eq\n      tag_19\n      jumpi\n      dup1\n      0x8da5cb5b\n      eq\n      tag_20\n      jumpi\n      dup1\n      0x95d89b41\n      eq\n      tag_21\n      jumpi\n      dup1\n      0xa8b08982\n      eq\n      tag_22\n      jumpi\n      0x00\n      dup1\n      revert\n    tag_33:\n      dup1\n      0x70a08231\n      eq\n      tag_16\n      jumpi\n      dup1\n      0x715018a6\n      eq\n      tag_17\n      jumpi\n      dup1\n      0x83ad7994\n      eq\n      tag_18\n      jumpi\n      0x00\n      dup1\n      revert\n    tag_30:\n      dup1\n      0x32035504\n      gt\n      tag_34\n      jumpi\n      dup1\n      0x5342acb4\n      gt\n      tag_35\n      jumpi\n      dup1\n      0x5342acb4\n      eq\n      tag_12\n      jumpi\n      dup1\n      0x5c7ffc88\n      eq\n      tag_13\n      jumpi\n      dup1\n      0x6049876e\n      eq\n      tag_14\n      jumpi\n      dup1\n      0x60c3ae84\n      eq\n      tag_15\n      jumpi\n      0x00\n      dup1\n      revert\n    tag_35:\n      dup1\n      0x32035504\n      eq\n      tag_9\n      jumpi\n      dup1\n      0x437823ec\n      eq\n      tag_10\n      jumpi\n      dup1\n      0x4549b039\n      eq\n      tag_11\n      jumpi\n      0x00\n      dup1\n      revert\n    tag_34:\n      dup1\n      0x053ab182\n      eq\n      tag_3\n      jumpi\n      dup1\n      0x06fdde03\n      eq\n      tag_4\n      jumpi\n      dup1\n      0x095ea7b3\n      eq\n      tag_5\n      jumpi\n      dup1\n      0x18160ddd\n      eq\n      tag_6\n      jumpi\n      dup1\n      0x23b872dd\n      eq\n      tag_7\n      jumpi\n      dup1\n      0x313ce567\n      eq\n      tag_8\n      jumpi\n      0x00\n      dup1\n      revert\n    tag_1:\n      jumpi(tag_2, calldatasize)\n      stop\n    tag_2:\n      0x00\n      dup1\n      revert\n        /* \"CYBCC.sol\":20832:21241  function reflect(uint256 tAmount) public {... */\n    tag_3:\n      callvalue\n      dup1\n      iszero\n      tag_38\n      jumpi\n      0x00\n      dup1\n      revert\n    tag_38:\n      pop\n      tag_39\n      tag_40\n      calldatasize\n      0x04\n      tag_41\n      jump\t// in\n    tag_40:\n      tag_42\n      jump\t// in\n    tag_39:\n      stop\n        /* \"CYBCC.sol\":8274:8363  function name() public view virtual returns (string memory) {... */\n    tag_4:\n      callvalue\n      dup1\n      iszero\n      tag_43\n      jumpi\n      0x00\n      dup1\n      revert\n    tag_43:\n      pop\n      tag_44\n      tag_45\n      jump\t// in\n    tag_44:\n      mload(0x40)\n      tag_46\n      swap2\n      swap1\n      tag_47\n      jump\t// in\n    tag_46:\n      mload(0x40)\n      dup1\n      swap2\n      sub\n      swap1\n      return\n        /* \"CYBCC.sol\":10529:10743  function approve(address spender, uint256 value)... */\n    tag_5:\n      callvalue\n      dup1\n      iszero\n      tag_48\n      jumpi\n      0x00\n      dup1\n      revert\n    tag_48:\n      pop\n      tag_49\n      tag_50\n      calldatasize\n      0x04\n      tag_51\n      jump\t// in\n    tag_50:\n      tag_52\n      jump\t// in\n    tag_49:\n      mload(0x40)\n        /* \"#utility.yul\":1354:1368   */\n      swap1\n      iszero\n        /* \"#utility.yul\":1347:1369   */\n      iszero\n        /* \"#utility.yul\":1329:1370   */\n      dup2\n      mstore\n        /* \"#utility.yul\":1317:1319   */\n      0x20\n        /* \"#utility.yul\":1302:1320   */\n      add\n        /* \"CYBCC.sol\":10529:10743  function approve(address spender, uint256 value)... */\n      tag_46\n        /* \"#utility.yul\":1189:1376   */\n      jump\n        /* \"CYBCC.sol\":19552:19653  function totalSupply() public view virtual override returns (uint256) {... */\n    tag_6:\n      callvalue\n      dup1\n      iszero\n      tag_55\n      jumpi\n      0x00\n      dup1\n      revert\n    tag_55:\n      pop\n        /* \"CYBCC.sol\":19639:19646  _tTotal */\n      sload(0x0b)\n        /* \"CYBCC.sol\":19552:19653  function totalSupply() public view virtual override returns (uint256) {... */\n    tag_56:\n      mload(0x40)\n        /* \"#utility.yul\":1527:1552   */\n      swap1\n      dup2\n      mstore\n        /* \"#utility.yul\":1515:1517   */\n      0x20\n        /* \"#utility.yul\":1500:1518   */\n      add\n        /* \"CYBCC.sol\":19552:19653  function totalSupply() public view virtual override returns (uint256) {... */\n      tag_46\n        /* \"#utility.yul\":1381:1558   */\n      jump\n        /* \"CYBCC.sol\":11335:11609  function transferFrom(... */\n    tag_7:\n      callvalue\n      dup1\n      iszero\n      tag_60\n      jumpi\n      0x00\n      dup1\n      revert\n    tag_60:\n      pop\n      tag_49\n      tag_62\n      calldatasize\n      0x04\n      tag_63\n      jump\t// in\n    tag_62:\n      tag_64\n      jump\t// in\n        /* \"CYBCC.sol\":19448:19546  function decimals() public view virtual override returns (uint8) {... */\n    tag_8:\n      callvalue\n      dup1\n      iszero\n      tag_66\n      jumpi\n      0x00\n      dup1\n      revert\n    tag_66:\n      pop\n        /* \"CYBCC.sol\":19530:19539  _decimals */\n      sload(0x0a)\n        /* \"CYBCC.sol\":19448:19546  function decimals() public view virtual override returns (uint8) {... */\n      mload(0x40)\n        /* \"CYBCC.sol\":19530:19539  _decimals */\n      0xff\n      swap1\n      swap2\n      and\n        /* \"#utility.yul\":2038:2074   */\n      dup2\n      mstore\n        /* \"#utility.yul\":2026:2028   */\n      0x20\n        /* \"#utility.yul\":2011:2029   */\n      add\n        /* \"CYBCC.sol\":19448:19546  function decimals() public view virtual override returns (uint8) {... */\n      tag_46\n        /* \"#utility.yul\":1896:2080   */\n      jump\n        /* \"CYBCC.sol\":20498:20596  function totalFeesRedistributed() public view returns (uint256) {... */\n    tag_9:\n      callvalue\n      dup1\n      iszero\n      tag_71\n      jumpi\n      0x00\n      dup1\n      revert\n    tag_71:\n      pop\n        /* \"CYBCC.sol\":20579:20589  _tFeeTotal */\n      sload(0x0d)\n        /* \"CYBCC.sol\":20498:20596  function totalFeesRedistributed() public view returns (uint256) {... */\n      jump(tag_56)\n        /* \"CYBCC.sol\":20602:20711  function excludeFromFee(address account) public onlyOwner {... */\n    tag_10:\n      callvalue\n      dup1\n      iszero\n      tag_75\n      jumpi\n      0x00\n      dup1\n      revert\n    tag_75:\n      pop\n      tag_39\n      tag_77\n      calldatasize\n      0x04\n      tag_78\n      jump\t// in\n    tag_77:\n      tag_79\n      jump\t// in\n        /* \"CYBCC.sol\":21247:21724  function reflectionFromToken(uint256 tAmount, bool deductTransferFee)... */\n    tag_11:\n      callvalue\n      dup1\n      iszero\n      tag_80\n      jumpi\n      0x00\n      dup1\n      revert\n    tag_80:\n      pop\n      tag_56\n      tag_82\n      calldatasize\n      0x04\n      tag_83\n      jump\t// in\n    tag_82:\n      tag_84\n      jump\t// in\n        /* \"CYBCC.sol\":19982:20104  function isExcludedFromFee(address account) public view returns (bool) {... */\n    tag_12:\n      callvalue\n      dup1\n      iszero\n      tag_86\n      jumpi\n      0x00\n      dup1\n      revert\n    tag_86:\n      pop\n      tag_49\n      tag_88\n      calldatasize\n      0x04\n      tag_78\n      jump\t// in\n    tag_88:\n      sub(shl(0xa0, 0x01), 0x01)\n        /* \"CYBCC.sol\":20070:20097  _isExcludedFromFee[account] */\n      and\n        /* \"CYBCC.sol\":20047:20051  bool */\n      0x00\n        /* \"CYBCC.sol\":20070:20097  _isExcludedFromFee[account] */\n      swap1\n      dup2\n      mstore\n        /* \"CYBCC.sol\":20070:20088  _isExcludedFromFee */\n      0x07\n        /* \"CYBCC.sol\":20070:20097  _isExcludedFromFee[account] */\n      0x20\n      mstore\n      0x40\n      swap1\n      keccak256\n      sload\n      0xff\n      and\n      swap1\n        /* \"CYBCC.sol\":19982:20104  function isExcludedFromFee(address account) public view returns (bool) {... */\n      jump\n        /* \"CYBCC.sol\":22870:22947  function enableAntiWhale() public onlyOwner {... */\n    tag_13:\n      callvalue\n      dup1\n      iszero\n      tag_91\n      jumpi\n      0x00\n      dup1\n      revert\n    tag_91:\n      pop\n      tag_39\n      tag_93\n      jump\t// in\n        /* \"CYBCC.sol\":22047:22382  function excludeAccountFromReward(address account) public onlyOwner {... */\n    tag_14:\n      callvalue\n      dup1\n      iszero\n      tag_94\n      jumpi\n      0x00\n      dup1\n      revert\n    tag_94:\n      pop\n      tag_39\n      tag_96\n      calldatasize\n      0x04\n      tag_78\n      jump\t// in\n    tag_96:\n      tag_97\n      jump\t// in\n        /* \"CYBCC.sol\":22953:23031  function disbleAntiWhale() public onlyOwner {... */\n    tag_15:\n      callvalue\n      dup1\n      iszero\n      tag_98\n      jumpi\n      0x00\n      dup1\n      revert\n    tag_98:\n      pop\n      tag_39\n      tag_100\n      jump\t// in\n        /* \"CYBCC.sol\":20110:20378  function balanceOf(address sender)... */\n    tag_16:\n      callvalue\n      dup1\n      iszero\n      tag_101\n      jumpi\n      0x00\n      dup1\n      revert\n    tag_101:\n      pop\n      tag_56\n      tag_103\n      calldatasize\n      0x04\n      tag_78\n      jump\t// in\n    tag_103:\n      tag_104\n      jump\t// in\n        /* \"CYBCC.sol\":29685:29827  function renounceOwnership() public onlyOwner {... */\n    tag_17:\n      callvalue\n      dup1\n      iszero\n      tag_106\n      jumpi\n      0x00\n      dup1\n      revert\n    tag_106:\n      pop\n      tag_39\n      tag_108\n      jump\t// in\n        /* \"CYBCC.sol\":19659:19752  function reflectionFee() public view returns (uint256) {... */\n    tag_18:\n      callvalue\n      dup1\n      iszero\n      tag_109\n      jumpi\n      0x00\n      dup1\n      revert\n    tag_109:\n      pop\n        /* \"CYBCC.sol\":19731:19745  _reflectionFee */\n      sload(0x0e)\n        /* \"CYBCC.sol\":19659:19752  function reflectionFee() public view returns (uint256) {... */\n      jump(tag_56)\n        /* \"CYBCC.sol\":20717:20826  function changePairAddress(address _pairAddress) public onlyOwner {... */\n    tag_19:\n      callvalue\n      dup1\n      iszero\n      tag_113\n      jumpi\n      0x00\n      dup1\n      revert\n    tag_113:\n      pop\n      tag_39\n      tag_115\n      calldatasize\n      0x04\n      tag_78\n      jump\t// in\n    tag_115:\n      tag_116\n      jump\t// in\n        /* \"CYBCC.sol\":19285:19370  function owner() public view virtual returns (address) {... */\n    tag_20:\n      callvalue\n      dup1\n      iszero\n      tag_117\n      jumpi\n      0x00\n      dup1\n      revert\n    tag_117:\n      pop\n        /* \"CYBCC.sol\":19357:19363  _owner */\n      sload(0x0a)\n      0x0100\n      swap1\n      div\n      sub(shl(0xa0, 0x01), 0x01)\n      and\n        /* \"CYBCC.sol\":19285:19370  function owner() public view virtual returns (address) {... */\n    tag_118:\n      mload(0x40)\n      sub(shl(0xa0, 0x01), 0x01)\n        /* \"#utility.yul\":2786:2818   */\n      swap1\n      swap2\n      and\n        /* \"#utility.yul\":2768:2819   */\n      dup2\n      mstore\n        /* \"#utility.yul\":2756:2758   */\n      0x20\n        /* \"#utility.yul\":2741:2759   */\n      add\n        /* \"CYBCC.sol\":19285:19370  function owner() public view virtual returns (address) {... */\n      tag_46\n        /* \"#utility.yul\":2622:2825   */\n      jump\n        /* \"CYBCC.sol\":8476:8569  function symbol() public view virtual returns (string memory) {... */\n    tag_21:\n      callvalue\n      dup1\n      iszero\n      tag_122\n      jumpi\n      0x00\n      dup1\n      revert\n    tag_122:\n      pop\n      tag_44\n      tag_124\n      jump\t// in\n        /* \"CYBCC.sol\":18470:18496  address public pairAddress */\n    tag_22:\n      callvalue\n      dup1\n      iszero\n      tag_126\n      jumpi\n      0x00\n      dup1\n      revert\n    tag_126:\n      pop\n      sload(0x13)\n      tag_118\n      swap1\n      sub(shl(0xa0, 0x01), 0x01)\n      and\n      dup2\n      jump\n        /* \"CYBCC.sol\":9810:9988  function transfer(address to, uint256 value) public virtual returns (bool) {... */\n    tag_23:\n      callvalue\n      dup1\n      iszero\n      tag_130\n      jumpi\n      0x00\n      dup1\n      revert\n    tag_130:\n      pop\n      tag_49\n      tag_132\n      calldatasize\n      0x04\n      tag_51\n      jump\t// in\n    tag_132:\n      tag_133\n      jump\t// in\n        /* \"CYBCC.sol\":20384:20492  function isExcluded(address account) public view returns (bool) {... */\n    tag_24:\n      callvalue\n      dup1\n      iszero\n      tag_135\n      jumpi\n      0x00\n      dup1\n      revert\n    tag_135:\n      pop\n      tag_49\n      tag_137\n      calldatasize\n      0x04\n      tag_78\n      jump\t// in\n    tag_137:\n      sub(shl(0xa0, 0x01), 0x01)\n        /* \"CYBCC.sol\":20465:20485  _isExcluded[account] */\n      and\n        /* \"CYBCC.sol\":20442:20446  bool */\n      0x00\n        /* \"CYBCC.sol\":20465:20485  _isExcluded[account] */\n      swap1\n      dup2\n      mstore\n        /* \"CYBCC.sol\":20465:20476  _isExcluded */\n      0x08\n        /* \"CYBCC.sol\":20465:20485  _isExcluded[account] */\n      0x20\n      mstore\n      0x40\n      swap1\n      keccak256\n      sload\n      0xff\n      and\n      swap1\n        /* \"CYBCC.sol\":20384:20492  function isExcluded(address account) public view returns (bool) {... */\n      jump\n        /* \"CYBCC.sol\":19846:19976  function getMarketingAndDevelopmentAccount() public view returns (address) {... */\n    tag_25:\n      callvalue\n      dup1\n      iszero\n      tag_140\n      jumpi\n      0x00\n      dup1\n      revert\n    tag_140:\n      pop\n        /* \"CYBCC.sol\":19938:19969  _marketingAndDevelopmentAccount */\n      and(sub(shl(0xa0, 0x01), 0x01), sload(0x12))\n        /* \"CYBCC.sol\":19846:19976  function getMarketingAndDevelopmentAccount() public view returns (address) {... */\n      jump(tag_118)\n        /* \"CYBCC.sol\":10046:10222  function allowance(address owner, address spender)... */\n    tag_26:\n      callvalue\n      dup1\n      iszero\n      tag_144\n      jumpi\n      0x00\n      dup1\n      revert\n    tag_144:\n      pop\n      tag_56\n      tag_146\n      calldatasize\n      0x04\n      tag_147\n      jump\t// in\n    tag_146:\n      sub(shl(0xa0, 0x01), 0x01)\n        /* \"CYBCC.sol\":10188:10206  _allowances[owner] */\n      swap2\n      dup3\n      and\n        /* \"CYBCC.sol\":10158:10165  uint256 */\n      0x00\n        /* \"CYBCC.sol\":10188:10206  _allowances[owner] */\n      swap1\n      dup2\n      mstore\n        /* \"CYBCC.sol\":10188:10199  _allowances */\n      0x01\n        /* \"CYBCC.sol\":10188:10206  _allowances[owner] */\n      0x20\n      swap1\n      dup2\n      mstore\n      0x40\n      dup1\n      dup4\n      keccak256\n        /* \"CYBCC.sol\":10188:10215  _allowances[owner][spender] */\n      swap4\n      swap1\n      swap5\n      and\n      dup3\n      mstore\n      swap2\n      swap1\n      swap2\n      mstore\n      keccak256\n      sload\n      swap1\n        /* \"CYBCC.sol\":10046:10222  function allowance(address owner, address spender)... */\n      jump\n        /* \"CYBCC.sol\":29833:29929  function transferOwnership(address newOwner) public onlyOwner {... */\n    tag_27:\n      callvalue\n      dup1\n      iszero\n      tag_150\n      jumpi\n      0x00\n      dup1\n      revert\n    tag_150:\n      pop\n      tag_39\n      tag_152\n      calldatasize\n      0x04\n      tag_78\n      jump\t// in\n    tag_152:\n      tag_153\n      jump\t// in\n        /* \"CYBCC.sol\":19758:19840  function getTaxFee() public view returns (uint256) {... */\n    tag_28:\n      callvalue\n      dup1\n      iszero\n      tag_154\n      jumpi\n      0x00\n      dup1\n      revert\n    tag_154:\n      pop\n        /* \"CYBCC.sol\":19826:19833  _taxFee */\n      sload(0x10)\n        /* \"CYBCC.sol\":19758:19840  function getTaxFee() public view returns (uint256) {... */\n      jump(tag_56)\n        /* \"CYBCC.sol\":22388:22864  function includeAccountinReward(address account) public onlyOwner {... */\n    tag_29:\n      callvalue\n      dup1\n      iszero\n      tag_158\n      jumpi\n      0x00\n      dup1\n      revert\n    tag_158:\n      pop\n      tag_39\n      tag_160\n      calldatasize\n      0x04\n      tag_78\n      jump\t// in\n    tag_160:\n      tag_161\n      jump\t// in\n        /* \"CYBCC.sol\":20832:21241  function reflect(uint256 tAmount) public {... */\n    tag_42:\n        /* \"CYBCC.sol\":4366:4376  msg.sender */\n      caller\n        /* \"CYBCC.sol\":20883:20897  address sender */\n      0x00\n        /* \"CYBCC.sol\":20945:20964  _isExcluded[sender] */\n      dup2\n      dup2\n      mstore\n        /* \"CYBCC.sol\":20945:20956  _isExcluded */\n      0x08\n        /* \"CYBCC.sol\":20945:20964  _isExcluded[sender] */\n      0x20\n      mstore\n      0x40\n      swap1\n      keccak256\n      sload\n      0xff\n      and\n        /* \"CYBCC.sol\":20944:20964  !_isExcluded[sender] */\n      iszero\n        /* \"CYBCC.sol\":20923:21034  require(... */\n      tag_165\n      jumpi\n      mload(0x40)\n      shl(0xe5, 0x461bcd)\n      dup2\n      mstore\n        /* \"#utility.yul\":3297:3299   */\n      0x20\n        /* \"CYBCC.sol\":20923:21034  require(... */\n      0x04\n      dup3\n      add\n        /* \"#utility.yul\":3279:3300   */\n      mstore\n        /* \"#utility.yul\":3336:3338   */\n      0x2c\n        /* \"#utility.yul\":3316:3334   */\n      0x24\n      dup3\n      add\n        /* \"#utility.yul\":3309:3339   */\n      mstore\n        /* \"#utility.yul\":3375:3409   */\n      0x4578636c75646564206164647265737365732063616e6e6f742063616c6c2074\n        /* \"#utility.yul\":3355:3373   */\n      0x44\n      dup3\n      add\n        /* \"#utility.yul\":3348:3410   */\n      mstore\n      shl(0xa1, 0x3434b990333ab731ba34b7b7)\n        /* \"#utility.yul\":3426:3444   */\n      0x64\n      dup3\n      add\n        /* \"#utility.yul\":3419:3461   */\n      mstore\n        /* \"#utility.yul\":3478:3497   */\n      0x84\n      add\n        /* \"CYBCC.sol\":20923:21034  require(... */\n    tag_166:\n      mload(0x40)\n      dup1\n      swap2\n      sub\n      swap1\n      revert\n    tag_165:\n        /* \"CYBCC.sol\":21046:21061  uint256 rAmount */\n      0x00\n        /* \"CYBCC.sol\":21071:21098  _getTransferValues(tAmount) */\n      tag_168\n        /* \"CYBCC.sol\":21090:21097  tAmount */\n      dup4\n        /* \"CYBCC.sol\":21071:21089  _getTransferValues */\n      tag_169\n        /* \"CYBCC.sol\":21071:21098  _getTransferValues(tAmount) */\n      jump\t// in\n    tag_168:\n      pop\n      pop\n      pop\n      sub(shl(0xa0, 0x01), 0x01)\n        /* \"CYBCC.sol\":21127:21142  _rOwned[sender] */\n      dup4\n      and\n      0x00\n      swap1\n      dup2\n      mstore\n        /* \"CYBCC.sol\":21127:21134  _rOwned */\n      0x05\n        /* \"CYBCC.sol\":21127:21142  _rOwned[sender] */\n      0x20\n      mstore\n      0x40\n      swap1\n      keccak256\n      sload\n        /* \"CYBCC.sol\":21045:21098  (uint256 rAmount, , , ) = _getTransferValues(tAmount) */\n      swap1\n      swap2\n      pop\n        /* \"CYBCC.sol\":21127:21152  _rOwned[sender] - rAmount */\n      tag_170\n      swap1\n        /* \"CYBCC.sol\":21045:21098  (uint256 rAmount, , , ) = _getTransferValues(tAmount) */\n      dup3\n      swap1\n        /* \"CYBCC.sol\":21127:21152  _rOwned[sender] - rAmount */\n      tag_171\n      jump\t// in\n    tag_170:\n      sub(shl(0xa0, 0x01), 0x01)\n        /* \"CYBCC.sol\":21109:21124  _rOwned[sender] */\n      dup4\n      and\n      0x00\n      swap1\n      dup2\n      mstore\n        /* \"CYBCC.sol\":21109:21116  _rOwned */\n      0x05\n        /* \"CYBCC.sol\":21109:21124  _rOwned[sender] */\n      0x20\n      mstore\n      0x40\n      swap1\n      keccak256\n        /* \"CYBCC.sol\":21109:21152  _rOwned[sender] = _rOwned[sender] - rAmount */\n      sstore\n        /* \"CYBCC.sol\":21173:21180  _rTotal */\n      sload(0x0c)\n        /* \"CYBCC.sol\":21173:21190  _rTotal - rAmount */\n      tag_172\n      swap1\n        /* \"CYBCC.sol\":21183:21190  rAmount */\n      dup3\n      swap1\n        /* \"CYBCC.sol\":21173:21190  _rTotal - rAmount */\n      tag_171\n      jump\t// in\n    tag_172:\n        /* \"CYBCC.sol\":21163:21170  _rTotal */\n      0x0c\n        /* \"CYBCC.sol\":21163:21190  _rTotal = _rTotal - rAmount */\n      sstore\n        /* \"CYBCC.sol\":21214:21224  _tFeeTotal */\n      sload(0x0d)\n        /* \"CYBCC.sol\":21214:21234  _tFeeTotal + tAmount */\n      tag_173\n      swap1\n        /* \"CYBCC.sol\":21227:21234  tAmount */\n      dup5\n      swap1\n        /* \"CYBCC.sol\":21214:21234  _tFeeTotal + tAmount */\n      tag_174\n      jump\t// in\n    tag_173:\n        /* \"CYBCC.sol\":21201:21211  _tFeeTotal */\n      0x0d\n        /* \"CYBCC.sol\":21201:21234  _tFeeTotal = _tFeeTotal + tAmount */\n      sstore\n      pop\n      pop\n      pop\n        /* \"CYBCC.sol\":20832:21241  function reflect(uint256 tAmount) public {... */\n      jump\t// out\n        /* \"CYBCC.sol\":8274:8363  function name() public view virtual returns (string memory) {... */\n    tag_45:\n        /* \"CYBCC.sol\":8319:8332  string memory */\n      0x60\n        /* \"CYBCC.sol\":8351:8356  _name */\n      0x03\n        /* \"CYBCC.sol\":8344:8356  return _name */\n      dup1\n      sload\n      tag_176\n      swap1\n      tag_177\n      jump\t// in\n    tag_176:\n      dup1\n      0x1f\n      add\n      0x20\n      dup1\n      swap2\n      div\n      mul\n      0x20\n      add\n      mload(0x40)\n      swap1\n      dup2\n      add\n      0x40\n      mstore\n      dup1\n      swap3\n      swap2\n      swap1\n      dup2\n      dup2\n      mstore\n      0x20\n      add\n      dup3\n      dup1\n      sload\n      tag_178\n      swap1\n      tag_177\n      jump\t// in\n    tag_178:\n      dup1\n      iszero\n      tag_179\n      jumpi\n      dup1\n      0x1f\n      lt\n      tag_180\n      jumpi\n      0x0100\n      dup1\n      dup4\n      sload\n      div\n      mul\n      dup4\n      mstore\n      swap2\n      0x20\n      add\n      swap2\n      jump(tag_179)\n    tag_180:\n      dup3\n      add\n      swap2\n      swap1\n      0x00\n      mstore\n      keccak256(0x00, 0x20)\n      swap1\n    tag_181:\n      dup2\n      sload\n      dup2\n      mstore\n      swap1\n      0x01\n      add\n      swap1\n      0x20\n      add\n      dup1\n      dup4\n      gt\n      tag_181\n      jumpi\n      dup3\n      swap1\n      sub\n      0x1f\n      and\n      dup3\n      add\n      swap2\n    tag_179:\n      pop\n      pop\n      pop\n      pop\n      pop\n      swap1\n      pop\n        /* \"CYBCC.sol\":8274:8363  function name() public view virtual returns (string memory) {... */\n      swap1\n      jump\t// out\n        /* \"CYBCC.sol\":10529:10743  function approve(address spender, uint256 value)... */\n    tag_52:\n        /* \"CYBCC.sol\":10626:10630  bool */\n      0x00\n        /* \"CYBCC.sol\":4366:4376  msg.sender */\n      caller\n        /* \"CYBCC.sol\":10684:10715  _approve(owner, spender, value) */\n      tag_184\n        /* \"CYBCC.sol\":4366:4376  msg.sender */\n      dup2\n        /* \"CYBCC.sol\":10700:10707  spender */\n      dup6\n        /* \"CYBCC.sol\":10709:10714  value */\n      dup6\n        /* \"CYBCC.sol\":10684:10692  _approve */\n      tag_185\n        /* \"CYBCC.sol\":10684:10715  _approve(owner, spender, value) */\n      jump\t// in\n    tag_184:\n        /* \"CYBCC.sol\":10732:10736  true */\n      0x01\n        /* \"CYBCC.sol\":10725:10736  return true */\n      swap2\n      pop\n      pop\n        /* \"CYBCC.sol\":10529:10743  function approve(address spender, uint256 value)... */\n    tag_182:\n      swap3\n      swap2\n      pop\n      pop\n      jump\t// out\n        /* \"CYBCC.sol\":11335:11609  function transferFrom(... */\n    tag_64:\n        /* \"CYBCC.sol\":11452:11456  bool */\n      0x00\n        /* \"CYBCC.sol\":4366:4376  msg.sender */\n      caller\n        /* \"CYBCC.sol\":11508:11545  _spendAllowance(from, spender, value) */\n      tag_189\n        /* \"CYBCC.sol\":11524:11528  from */\n      dup6\n        /* \"CYBCC.sol\":4366:4376  msg.sender */\n      dup3\n        /* \"CYBCC.sol\":11539:11544  value */\n      dup6\n        /* \"CYBCC.sol\":11508:11523  _spendAllowance */\n      tag_190\n        /* \"CYBCC.sol\":11508:11545  _spendAllowance(from, spender, value) */\n      jump\t// in\n    tag_189:\n        /* \"CYBCC.sol\":11555:11581  _transfer(from, to, value) */\n      tag_191\n        /* \"CYBCC.sol\":11565:11569  from */\n      dup6\n        /* \"CYBCC.sol\":11571:11573  to */\n      dup6\n        /* \"CYBCC.sol\":11575:11580  value */\n      dup6\n        /* \"CYBCC.sol\":11555:11564  _transfer */\n      tag_192\n        /* \"CYBCC.sol\":11555:11581  _transfer(from, to, value) */\n      jump\t// in\n    tag_191:\n      pop\n        /* \"CYBCC.sol\":11598:11602  true */\n      0x01\n      swap5\n        /* \"CYBCC.sol\":11335:11609  function transferFrom(... */\n      swap4\n      pop\n      pop\n      pop\n      pop\n      jump\t// out\n        /* \"CYBCC.sol\":20602:20711  function excludeFromFee(address account) public onlyOwner {... */\n    tag_79:\n        /* \"CYBCC.sol\":19357:19363  _owner */\n      sload(0x0a)\n        /* \"CYBCC.sol\":19422:19432  msg.sender */\n      caller\n      swap1\n        /* \"CYBCC.sol\":19357:19363  _owner */\n      0x0100\n      swap1\n      div\n      sub(shl(0xa0, 0x01), 0x01)\n      and\n      sub(shl(0xa0, 0x01), 0x01)\n        /* \"CYBCC.sol\":19411:19432  owner() == msg.sender */\n      and\n      sub\n        /* \"CYBCC.sol\":19407:19435  if (owner() == msg.sender) _ */\n      tag_197\n      jumpi\n      sub(shl(0xa0, 0x01), 0x01)\n        /* \"CYBCC.sol\":20670:20697  _isExcludedFromFee[account] */\n      dup2\n      and\n      0x00\n      swap1\n      dup2\n      mstore\n        /* \"CYBCC.sol\":20670:20688  _isExcludedFromFee */\n      0x07\n        /* \"CYBCC.sol\":20670:20697  _isExcludedFromFee[account] */\n      0x20\n      mstore\n      0x40\n      swap1\n      keccak256\n        /* \"CYBCC.sol\":20670:20704  _isExcludedFromFee[account] = true */\n      dup1\n      sload\n      not(0xff)\n      and\n        /* \"CYBCC.sol\":20700:20704  true */\n      0x01\n        /* \"CYBCC.sol\":20670:20704  _isExcludedFromFee[account] = true */\n      or\n      swap1\n      sstore\n        /* \"CYBCC.sol\":19407:19435  if (owner() == msg.sender) _ */\n    tag_197:\n        /* \"CYBCC.sol\":20602:20711  function excludeFromFee(address account) public onlyOwner {... */\n      pop\n      jump\t// out\n        /* \"CYBCC.sol\":21247:21724  function reflectionFromToken(uint256 tAmount, bool deductTransferFee)... */\n    tag_84:\n        /* \"CYBCC.sol\":21362:21369  uint256 */\n      0x00\n        /* \"CYBCC.sol\":21404:21411  _tTotal */\n      sload(0x0b)\n        /* \"CYBCC.sol\":21393:21400  tAmount */\n      dup4\n        /* \"CYBCC.sol\":21393:21411  tAmount <= _tTotal */\n      gt\n      iszero\n        /* \"CYBCC.sol\":21385:21447  require(tAmount <= _tTotal, \"Amount must be less than supply\") */\n      tag_200\n      jumpi\n      mload(0x40)\n      shl(0xe5, 0x461bcd)\n      dup2\n      mstore\n        /* \"#utility.yul\":4490:4492   */\n      0x20\n        /* \"CYBCC.sol\":21385:21447  require(tAmount <= _tTotal, \"Amount must be less than supply\") */\n      0x04\n      dup3\n      add\n        /* \"#utility.yul\":4472:4493   */\n      mstore\n        /* \"#utility.yul\":4529:4531   */\n      0x1f\n        /* \"#utility.yul\":4509:4527   */\n      0x24\n      dup3\n      add\n        /* \"#utility.yul\":4502:4532   */\n      mstore\n        /* \"#utility.yul\":4568:4601   */\n      0x416d6f756e74206d757374206265206c657373207468616e20737570706c7900\n        /* \"#utility.yul\":4548:4566   */\n      0x44\n      dup3\n      add\n        /* \"#utility.yul\":4541:4602   */\n      mstore\n        /* \"#utility.yul\":4619:4637   */\n      0x64\n      add\n        /* \"CYBCC.sol\":21385:21447  require(tAmount <= _tTotal, \"Amount must be less than supply\") */\n      tag_166\n        /* \"#utility.yul\":4288:4643   */\n      jump\n        /* \"CYBCC.sol\":21385:21447  require(tAmount <= _tTotal, \"Amount must be less than supply\") */\n    tag_200:\n        /* \"CYBCC.sol\":21463:21480  deductTransferFee */\n      dup2\n        /* \"CYBCC.sol\":21458:21718  if (!deductTransferFee) {... */\n      tag_203\n      jumpi\n        /* \"CYBCC.sol\":21497:21512  uint256 rAmount */\n      0x00\n        /* \"CYBCC.sol\":21522:21549  _getTransferValues(tAmount) */\n      tag_204\n        /* \"CYBCC.sol\":21541:21548  tAmount */\n      dup5\n        /* \"CYBCC.sol\":21522:21540  _getTransferValues */\n      tag_169\n        /* \"CYBCC.sol\":21522:21549  _getTransferValues(tAmount) */\n      jump\t// in\n    tag_204:\n      pop\n        /* \"CYBCC.sol\":21496:21549  (uint256 rAmount, , , ) = _getTransferValues(tAmount) */\n      swap2\n      swap4\n      pop\n        /* \"CYBCC.sol\":21564:21578  return rAmount */\n      tag_182\n      swap3\n      pop\n      pop\n      pop\n      jump\n        /* \"CYBCC.sol\":21458:21718  if (!deductTransferFee) {... */\n    tag_203:\n        /* \"CYBCC.sol\":21612:21635  uint256 rTransferAmount */\n      0x00\n        /* \"CYBCC.sol\":21643:21670  _getTransferValues(tAmount) */\n      tag_206\n        /* \"CYBCC.sol\":21662:21669  tAmount */\n      dup5\n        /* \"CYBCC.sol\":21643:21661  _getTransferValues */\n      tag_169\n        /* \"CYBCC.sol\":21643:21670  _getTransferValues(tAmount) */\n      jump\t// in\n    tag_206:\n      pop\n        /* \"CYBCC.sol\":21609:21670  (, uint256 rTransferAmount, , ) = _getTransferValues(tAmount) */\n      swap1\n      swap4\n      pop\n        /* \"CYBCC.sol\":21685:21707  return rTransferAmount */\n      tag_182\n      swap3\n      pop\n      pop\n      pop\n      jump\n        /* \"CYBCC.sol\":22870:22947  function enableAntiWhale() public onlyOwner {... */\n    tag_93:\n        /* \"CYBCC.sol\":19357:19363  _owner */\n      sload(0x0a)\n        /* \"CYBCC.sol\":19422:19432  msg.sender */\n      caller\n      swap1\n        /* \"CYBCC.sol\":19357:19363  _owner */\n      0x0100\n      swap1\n      div\n      sub(shl(0xa0, 0x01), 0x01)\n      and\n      sub(shl(0xa0, 0x01), 0x01)\n        /* \"CYBCC.sol\":19411:19432  owner() == msg.sender */\n      and\n      sub\n        /* \"CYBCC.sol\":19407:19435  if (owner() == msg.sender) _ */\n      tag_210\n      jumpi\n        /* \"CYBCC.sol\":22924:22933  antiWhale */\n      0x15\n        /* \"CYBCC.sol\":22924:22940  antiWhale = true */\n      dup1\n      sload\n      not(0xff)\n      and\n        /* \"CYBCC.sol\":22936:22940  true */\n      0x01\n        /* \"CYBCC.sol\":22924:22940  antiWhale = true */\n      or\n      swap1\n      sstore\n        /* \"CYBCC.sol\":19407:19435  if (owner() == msg.sender) _ */\n    tag_210:\n        /* \"CYBCC.sol\":22870:22947  function enableAntiWhale() public onlyOwner {... */\n      jump\t// out\n        /* \"CYBCC.sol\":22047:22382  function excludeAccountFromReward(address account) public onlyOwner {... */\n    tag_97:\n        /* \"CYBCC.sol\":19357:19363  _owner */\n      sload(0x0a)\n        /* \"CYBCC.sol\":19422:19432  msg.sender */\n      caller\n      swap1\n        /* \"CYBCC.sol\":19357:19363  _owner */\n      0x0100\n      swap1\n      div\n      sub(shl(0xa0, 0x01), 0x01)\n      and\n      sub(shl(0xa0, 0x01), 0x01)\n        /* \"CYBCC.sol\":19411:19432  owner() == msg.sender */\n      and\n      sub\n        /* \"CYBCC.sol\":19407:19435  if (owner() == msg.sender) _ */\n      tag_197\n      jumpi\n      sub(shl(0xa0, 0x01), 0x01)\n        /* \"CYBCC.sol\":22134:22154  _isExcluded[account] */\n      dup2\n      and\n      0x00\n      swap1\n      dup2\n      mstore\n        /* \"CYBCC.sol\":22134:22145  _isExcluded */\n      0x08\n        /* \"CYBCC.sol\":22134:22154  _isExcluded[account] */\n      0x20\n      mstore\n      0x40\n      swap1\n      keccak256\n      sload\n      0xff\n      and\n        /* \"CYBCC.sol\":22133:22154  !_isExcluded[account] */\n      iszero\n        /* \"CYBCC.sol\":22125:22186  require(!_isExcluded[account], \"Account is already excluded\") */\n      tag_216\n      jumpi\n      mload(0x40)\n      shl(0xe5, 0x461bcd)\n      dup2\n      mstore\n        /* \"#utility.yul\":4850:4852   */\n      0x20\n        /* \"CYBCC.sol\":22125:22186  require(!_isExcluded[account], \"Account is already excluded\") */\n      0x04\n      dup3\n      add\n        /* \"#utility.yul\":4832:4853   */\n      mstore\n        /* \"#utility.yul\":4889:4891   */\n      0x1b\n        /* \"#utility.yul\":4869:4887   */\n      0x24\n      dup3\n      add\n        /* \"#utility.yul\":4862:4892   */\n      mstore\n        /* \"#utility.yul\":4928:4957   */\n      0x4163636f756e7420697320616c7265616479206578636c756465640000000000\n        /* \"#utility.yul\":4908:4926   */\n      0x44\n      dup3\n      add\n        /* \"#utility.yul\":4901:4958   */\n      mstore\n        /* \"#utility.yul\":4975:4993   */\n      0x64\n      add\n        /* \"CYBCC.sol\":22125:22186  require(!_isExcluded[account], \"Account is already excluded\") */\n      tag_166\n        /* \"#utility.yul\":4648:4999   */\n      jump\n        /* \"CYBCC.sol\":22125:22186  require(!_isExcluded[account], \"Account is already excluded\") */\n    tag_216:\n      sub(shl(0xa0, 0x01), 0x01)\n        /* \"CYBCC.sol\":22201:22217  _rOwned[account] */\n      dup2\n      and\n        /* \"CYBCC.sol\":22220:22221  0 */\n      0x00\n        /* \"CYBCC.sol\":22201:22217  _rOwned[account] */\n      swap1\n      dup2\n      mstore\n        /* \"CYBCC.sol\":22201:22208  _rOwned */\n      0x05\n        /* \"CYBCC.sol\":22201:22217  _rOwned[account] */\n      0x20\n      mstore\n      0x40\n      swap1\n      keccak256\n      sload\n        /* \"CYBCC.sol\":22201:22221  _rOwned[account] > 0 */\n      iszero\n        /* \"CYBCC.sol\":22197:22304  if (_rOwned[account] > 0) {... */\n      tag_219\n      jumpi\n      sub(shl(0xa0, 0x01), 0x01)\n        /* \"CYBCC.sol\":22276:22292  _rOwned[account] */\n      dup2\n      and\n      0x00\n      swap1\n      dup2\n      mstore\n        /* \"CYBCC.sol\":22276:22283  _rOwned */\n      0x05\n        /* \"CYBCC.sol\":22276:22292  _rOwned[account] */\n      0x20\n      mstore\n      0x40\n      swap1\n      keccak256\n      sload\n        /* \"CYBCC.sol\":22256:22293  tokenFromReflection(_rOwned[account]) */\n      tag_220\n      swap1\n        /* \"CYBCC.sol\":22256:22275  tokenFromReflection */\n      tag_221\n        /* \"CYBCC.sol\":22256:22293  tokenFromReflection(_rOwned[account]) */\n      jump\t// in\n    tag_220:\n      sub(shl(0xa0, 0x01), 0x01)\n        /* \"CYBCC.sol\":22237:22253  _tOwned[account] */\n      dup3\n      and\n      0x00\n      swap1\n      dup2\n      mstore\n        /* \"CYBCC.sol\":22237:22244  _tOwned */\n      0x06\n        /* \"CYBCC.sol\":22237:22253  _tOwned[account] */\n      0x20\n      mstore\n      0x40\n      swap1\n      keccak256\n        /* \"CYBCC.sol\":22237:22293  _tOwned[account] = tokenFromReflection(_rOwned[account]) */\n      sstore\n        /* \"CYBCC.sol\":22197:22304  if (_rOwned[account] > 0) {... */\n    tag_219:\n      sub(shl(0xa0, 0x01), 0x01)\n        /* \"CYBCC.sol\":22314:22334  _isExcluded[account] */\n      and\n      0x00\n      dup2\n      dup2\n      mstore\n        /* \"CYBCC.sol\":22314:22325  _isExcluded */\n      0x08\n        /* \"CYBCC.sol\":22314:22334  _isExcluded[account] */\n      0x20\n      mstore\n      0x40\n      dup2\n      keccak256\n        /* \"CYBCC.sol\":22314:22341  _isExcluded[account] = true */\n      dup1\n      sload\n      not(0xff)\n      and\n        /* \"CYBCC.sol\":22337:22341  true */\n      0x01\n        /* \"CYBCC.sol\":22314:22341  _isExcluded[account] = true */\n      swap1\n      dup2\n      or\n      swap1\n      swap2\n      sstore\n        /* \"CYBCC.sol\":22352:22361  _excluded */\n      0x09\n        /* \"CYBCC.sol\":22352:22375  _excluded.push(account) */\n      dup1\n      sload\n      swap2\n      dup3\n      add\n      dup2\n      sstore\n      swap1\n      swap2\n      mstore\n      0x6e1540171b6c0c960b71a7020d9f60077f6af931a8bbf590da0223dacf75c7af\n      add\n      dup1\n      sload\n      not(sub(shl(0xa0, 0x01), 0x01))\n      and\n      swap1\n      swap2\n      or\n      swap1\n      sstore\n        /* \"CYBCC.sol\":22047:22382  function excludeAccountFromReward(address account) public onlyOwner {... */\n      jump\t// out\n        /* \"CYBCC.sol\":22953:23031  function disbleAntiWhale() public onlyOwner {... */\n    tag_100:\n        /* \"CYBCC.sol\":19357:19363  _owner */\n      sload(0x0a)\n        /* \"CYBCC.sol\":19422:19432  msg.sender */\n      caller\n      swap1\n        /* \"CYBCC.sol\":19357:19363  _owner */\n      0x0100\n      swap1\n      div\n      sub(shl(0xa0, 0x01), 0x01)\n      and\n      sub(shl(0xa0, 0x01), 0x01)\n        /* \"CYBCC.sol\":19411:19432  owner() == msg.sender */\n      and\n      sub\n        /* \"CYBCC.sol\":19407:19435  if (owner() == msg.sender) _ */\n      tag_210\n      jumpi\n        /* \"CYBCC.sol\":23007:23016  antiWhale */\n      0x15\n        /* \"CYBCC.sol\":23007:23024  antiWhale = false */\n      dup1\n      sload\n      not(0xff)\n      and\n      swap1\n      sstore\n        /* \"CYBCC.sol\":22953:23031  function disbleAntiWhale() public onlyOwner {... */\n      jump\t// out\n        /* \"CYBCC.sol\":20110:20378  function balanceOf(address sender)... */\n    tag_104:\n      sub(shl(0xa0, 0x01), 0x01)\n        /* \"CYBCC.sol\":20250:20269  _isExcluded[sender] */\n      dup2\n      and\n        /* \"CYBCC.sol\":20223:20230  uint256 */\n      0x00\n        /* \"CYBCC.sol\":20250:20269  _isExcluded[sender] */\n      swap1\n      dup2\n      mstore\n        /* \"CYBCC.sol\":20250:20261  _isExcluded */\n      0x08\n        /* \"CYBCC.sol\":20250:20269  _isExcluded[sender] */\n      0x20\n      mstore\n      0x40\n      dup2\n      keccak256\n      sload\n      0xff\n      and\n        /* \"CYBCC.sol\":20246:20318  if (_isExcluded[sender]) {... */\n      iszero\n      tag_228\n      jumpi\n      pop\n      sub(shl(0xa0, 0x01), 0x01)\n        /* \"CYBCC.sol\":20292:20307  _tOwned[sender] */\n      and\n      0x00\n      swap1\n      dup2\n      mstore\n        /* \"CYBCC.sol\":20292:20299  _tOwned */\n      0x06\n        /* \"CYBCC.sol\":20292:20307  _tOwned[sender] */\n      0x20\n      mstore\n      0x40\n      swap1\n      keccak256\n      sload\n      swap1\n        /* \"CYBCC.sol\":20110:20378  function balanceOf(address sender)... */\n      jump\t// out\n        /* \"CYBCC.sol\":20246:20318  if (_isExcluded[sender]) {... */\n    tag_228:\n      sub(shl(0xa0, 0x01), 0x01)\n        /* \"CYBCC.sol\":20355:20370  _rOwned[sender] */\n      dup3\n      and\n      0x00\n      swap1\n      dup2\n      mstore\n        /* \"CYBCC.sol\":20355:20362  _rOwned */\n      0x05\n        /* \"CYBCC.sol\":20355:20370  _rOwned[sender] */\n      0x20\n      mstore\n      0x40\n      swap1\n      keccak256\n      sload\n        /* \"CYBCC.sol\":20335:20371  tokenFromReflection(_rOwned[sender]) */\n      tag_182\n      swap1\n        /* \"CYBCC.sol\":20335:20354  tokenFromReflection */\n      tag_221\n        /* \"CYBCC.sol\":20335:20371  tokenFromReflection(_rOwned[sender]) */\n      jump\t// in\n        /* \"CYBCC.sol\":29685:29827  function renounceOwnership() public onlyOwner {... */\n    tag_108:\n        /* \"CYBCC.sol\":19357:19363  _owner */\n      sload(0x0a)\n        /* \"CYBCC.sol\":19422:19432  msg.sender */\n      caller\n      swap1\n        /* \"CYBCC.sol\":19357:19363  _owner */\n      0x0100\n      swap1\n      div\n      sub(shl(0xa0, 0x01), 0x01)\n      and\n      sub(shl(0xa0, 0x01), 0x01)\n        /* \"CYBCC.sol\":19411:19432  owner() == msg.sender */\n      and\n      sub\n        /* \"CYBCC.sol\":19407:19435  if (owner() == msg.sender) _ */\n      tag_210\n      jumpi\n        /* \"CYBCC.sol\":29749:29755  _owner */\n      sload(0x0a)\n      0x0100\n      swap1\n      div\n      sub(shl(0xa0, 0x01), 0x01)\n      and\n        /* \"CYBCC.sol\":29741:29791  require(_owner != address(0), \"already renounced\") */\n      tag_234\n      jumpi\n      mload(0x40)\n      shl(0xe5, 0x461bcd)\n      dup2\n      mstore\n        /* \"#utility.yul\":5206:5208   */\n      0x20\n        /* \"CYBCC.sol\":29741:29791  require(_owner != address(0), \"already renounced\") */\n      0x04\n      dup3\n      add\n        /* \"#utility.yul\":5188:5209   */\n      mstore\n        /* \"#utility.yul\":5245:5247   */\n      0x11\n        /* \"#utility.yul\":5225:5243   */\n      0x24\n      dup3\n      add\n        /* \"#utility.yul\":5218:5248   */\n      mstore\n      shl(0x7a, 0x185b1c9958591e481c995b9bdd5b98d959)\n        /* \"#utility.yul\":5264:5282   */\n      0x44\n      dup3\n      add\n        /* \"#utility.yul\":5257:5304   */\n      mstore\n        /* \"#utility.yul\":5321:5339   */\n      0x64\n      add\n        /* \"CYBCC.sol\":29741:29791  require(_owner != address(0), \"already renounced\") */\n      tag_166\n        /* \"#utility.yul\":5004:5345   */\n      jump\n        /* \"CYBCC.sol\":29741:29791  require(_owner != address(0), \"already renounced\") */\n    tag_234:\n        /* \"CYBCC.sol\":29801:29807  _owner */\n      0x0a\n        /* \"CYBCC.sol\":29801:29820  _owner = address(0) */\n      dup1\n      sload\n      not(sub(shl(0xa8, 0x01), 0x0100))\n      and\n      swap1\n      sstore\n        /* \"CYBCC.sol\":29685:29827  function renounceOwnership() public onlyOwner {... */\n      jump\t// out\n        /* \"CYBCC.sol\":20717:20826  function changePairAddress(address _pairAddress) public onlyOwner {... */\n    tag_116:\n        /* \"CYBCC.sol\":19357:19363  _owner */\n      sload(0x0a)\n        /* \"CYBCC.sol\":19422:19432  msg.sender */\n      caller\n      swap1\n        /* \"CYBCC.sol\":19357:19363  _owner */\n      0x0100\n      swap1\n      div\n      sub(shl(0xa0, 0x01), 0x01)\n      and\n      sub(shl(0xa0, 0x01), 0x01)\n        /* \"CYBCC.sol\":19411:19432  owner() == msg.sender */\n      and\n      sub\n        /* \"CYBCC.sol\":19407:19435  if (owner() == msg.sender) _ */\n      tag_197\n      jumpi\n        /* \"CYBCC.sol\":20793:20804  pairAddress */\n      0x13\n        /* \"CYBCC.sol\":20793:20819  pairAddress = _pairAddress */\n      dup1\n      sload\n      sub(shl(0xa0, 0x01), 0x01)\n      dup4\n      and\n      not(sub(shl(0xa0, 0x01), 0x01))\n      swap1\n      swap2\n      and\n      or\n      swap1\n      sstore\n        /* \"CYBCC.sol\":20717:20826  function changePairAddress(address _pairAddress) public onlyOwner {... */\n      pop\n      jump\t// out\n        /* \"CYBCC.sol\":8476:8569  function symbol() public view virtual returns (string memory) {... */\n    tag_124:\n        /* \"CYBCC.sol\":8523:8536  string memory */\n      0x60\n        /* \"CYBCC.sol\":8555:8562  _symbol */\n      0x04\n        /* \"CYBCC.sol\":8548:8562  return _symbol */\n      dup1\n      sload\n      tag_176\n      swap1\n      tag_177\n      jump\t// in\n        /* \"CYBCC.sol\":9810:9988  function transfer(address to, uint256 value) public virtual returns (bool) {... */\n    tag_133:\n        /* \"CYBCC.sol\":9879:9883  bool */\n      0x00\n        /* \"CYBCC.sol\":4366:4376  msg.sender */\n      caller\n        /* \"CYBCC.sol\":9933:9960  _transfer(owner, to, value) */\n      tag_184\n        /* \"CYBCC.sol\":4366:4376  msg.sender */\n      dup2\n        /* \"CYBCC.sol\":9950:9952  to */\n      dup6\n        /* \"CYBCC.sol\":9954:9959  value */\n      dup6\n        /* \"CYBCC.sol\":9933:9942  _transfer */\n      tag_192\n        /* \"CYBCC.sol\":9933:9960  _transfer(owner, to, value) */\n      jump\t// in\n        /* \"CYBCC.sol\":29833:29929  function transferOwnership(address newOwner) public onlyOwner {... */\n    tag_153:\n        /* \"CYBCC.sol\":19357:19363  _owner */\n      sload(0x0a)\n        /* \"CYBCC.sol\":19422:19432  msg.sender */\n      caller\n      swap1\n        /* \"CYBCC.sol\":19357:19363  _owner */\n      0x0100\n      swap1\n      div\n      sub(shl(0xa0, 0x01), 0x01)\n      and\n      sub(shl(0xa0, 0x01), 0x01)\n        /* \"CYBCC.sol\":19411:19432  owner() == msg.sender */\n      and\n      sub\n        /* \"CYBCC.sol\":19407:19435  if (owner() == msg.sender) _ */\n      tag_197\n      jumpi\n        /* \"CYBCC.sol\":29905:29911  _owner */\n      0x0a\n        /* \"CYBCC.sol\":29905:29922  _owner = newOwner */\n      dup1\n      sload\n      sub(shl(0xa0, 0x01), 0x01)\n      dup4\n      and\n      0x0100\n      mul\n      not(sub(shl(0xa8, 0x01), 0x0100))\n      swap1\n      swap2\n      and\n      or\n      swap1\n      sstore\n        /* \"CYBCC.sol\":29833:29929  function transferOwnership(address newOwner) public onlyOwner {... */\n      pop\n      jump\t// out\n        /* \"CYBCC.sol\":22388:22864  function includeAccountinReward(address account) public onlyOwner {... */\n    tag_161:\n        /* \"CYBCC.sol\":19357:19363  _owner */\n      sload(0x0a)\n        /* \"CYBCC.sol\":19422:19432  msg.sender */\n      caller\n      swap1\n        /* \"CYBCC.sol\":19357:19363  _owner */\n      0x0100\n      swap1\n      div\n      sub(shl(0xa0, 0x01), 0x01)\n      and\n      sub(shl(0xa0, 0x01), 0x01)\n        /* \"CYBCC.sol\":19411:19432  owner() == msg.sender */\n      and\n      sub\n        /* \"CYBCC.sol\":19407:19435  if (owner() == msg.sender) _ */\n      tag_197\n      jumpi\n      sub(shl(0xa0, 0x01), 0x01)\n        /* \"CYBCC.sol\":22472:22492  _isExcluded[account] */\n      dup2\n      and\n      0x00\n      swap1\n      dup2\n      mstore\n        /* \"CYBCC.sol\":22472:22483  _isExcluded */\n      0x08\n        /* \"CYBCC.sol\":22472:22492  _isExcluded[account] */\n      0x20\n      mstore\n      0x40\n      swap1\n      keccak256\n      sload\n      0xff\n      and\n        /* \"CYBCC.sol\":22464:22524  require(_isExcluded[account], \"Account is already included\") */\n      tag_264\n      jumpi\n      mload(0x40)\n      shl(0xe5, 0x461bcd)\n      dup2\n      mstore\n        /* \"#utility.yul\":5552:5554   */\n      0x20\n        /* \"CYBCC.sol\":22464:22524  require(_isExcluded[account], \"Account is already included\") */\n      0x04\n      dup3\n      add\n        /* \"#utility.yul\":5534:5555   */\n      mstore\n        /* \"#utility.yul\":5591:5593   */\n      0x1b\n        /* \"#utility.yul\":5571:5589   */\n      0x24\n      dup3\n      add\n        /* \"#utility.yul\":5564:5594   */\n      mstore\n        /* \"#utility.yul\":5630:5659   */\n      0x4163636f756e7420697320616c726561647920696e636c756465640000000000\n        /* \"#utility.yul\":5610:5628   */\n      0x44\n      dup3\n      add\n        /* \"#utility.yul\":5603:5660   */\n      mstore\n        /* \"#utility.yul\":5677:5695   */\n      0x64\n      add\n        /* \"CYBCC.sol\":22464:22524  require(_isExcluded[account], \"Account is already included\") */\n      tag_166\n        /* \"#utility.yul\":5350:5701   */\n      jump\n        /* \"CYBCC.sol\":22464:22524  require(_isExcluded[account], \"Account is already included\") */\n    tag_264:\n        /* \"CYBCC.sol\":22540:22549  uint256 i */\n      0x00\n        /* \"CYBCC.sol\":22535:22858  for (uint256 i = 0; i < _excluded.length; i++) {... */\n    tag_267:\n        /* \"CYBCC.sol\":22559:22568  _excluded */\n      0x09\n        /* \"CYBCC.sol\":22559:22575  _excluded.length */\n      sload\n        /* \"CYBCC.sol\":22555:22575  i < _excluded.length */\n      dup2\n      lt\n        /* \"CYBCC.sol\":22535:22858  for (uint256 i = 0; i < _excluded.length; i++) {... */\n      iszero\n      tag_268\n      jumpi\n        /* \"CYBCC.sol\":22616:22623  account */\n      dup2\n      sub(shl(0xa0, 0x01), 0x01)\n        /* \"CYBCC.sol\":22600:22623  _excluded[i] == account */\n      and\n        /* \"CYBCC.sol\":22600:22609  _excluded */\n      0x09\n        /* \"CYBCC.sol\":22610:22611  i */\n      dup3\n        /* \"CYBCC.sol\":22600:22612  _excluded[i] */\n      dup2\n      sload\n      dup2\n      lt\n      tag_271\n      jumpi\n      tag_271\n      tag_272\n      jump\t// in\n    tag_271:\n      0x00\n      swap2\n      dup3\n      mstore\n      0x20\n      swap1\n      swap2\n      keccak256\n      add\n      sload\n      sub(shl(0xa0, 0x01), 0x01)\n      and\n        /* \"CYBCC.sol\":22600:22623  _excluded[i] == account */\n      sub\n        /* \"CYBCC.sol\":22596:22848  if (_excluded[i] == account) {... */\n      tag_274\n      jumpi\n        /* \"CYBCC.sol\":22658:22667  _excluded */\n      0x09\n        /* \"CYBCC.sol\":22668:22684  _excluded.length */\n      dup1\n      sload\n        /* \"CYBCC.sol\":22668:22688  _excluded.length - 1 */\n      tag_275\n      swap1\n        /* \"CYBCC.sol\":22687:22688  1 */\n      0x01\n      swap1\n        /* \"CYBCC.sol\":22668:22688  _excluded.length - 1 */\n      tag_171\n      jump\t// in\n    tag_275:\n        /* \"CYBCC.sol\":22658:22689  _excluded[_excluded.length - 1] */\n      dup2\n      sload\n      dup2\n      lt\n      tag_277\n      jumpi\n      tag_277\n      tag_272\n      jump\t// in\n    tag_277:\n      0x00\n      swap2\n      dup3\n      mstore\n      0x20\n      swap1\n      swap2\n      keccak256\n      add\n      sload\n        /* \"CYBCC.sol\":22643:22652  _excluded */\n      0x09\n        /* \"CYBCC.sol\":22643:22655  _excluded[i] */\n      dup1\n      sload\n      sub(shl(0xa0, 0x01), 0x01)\n        /* \"CYBCC.sol\":22658:22689  _excluded[_excluded.length - 1] */\n      swap1\n      swap3\n      and\n      swap2\n        /* \"CYBCC.sol\":22653:22654  i */\n      dup4\n      swap1\n        /* \"CYBCC.sol\":22643:22655  _excluded[i] */\n      dup2\n      lt\n      tag_280\n      jumpi\n      tag_280\n      tag_272\n      jump\t// in\n    tag_280:\n      0x00\n      swap2\n      dup3\n      mstore\n      0x20\n      dup1\n      dup4\n      keccak256\n      swap2\n      swap1\n      swap2\n      add\n        /* \"CYBCC.sol\":22643:22689  _excluded[i] = _excluded[_excluded.length - 1] */\n      dup1\n      sload\n      not(sub(shl(0xa0, 0x01), 0x01))\n      and\n      sub(shl(0xa0, 0x01), 0x01)\n      swap5\n      dup6\n      and\n      or\n      swap1\n      sstore\n        /* \"CYBCC.sol\":22708:22724  _tOwned[account] */\n      swap2\n      dup5\n      and\n      dup2\n      mstore\n        /* \"CYBCC.sol\":22708:22715  _tOwned */\n      0x06\n        /* \"CYBCC.sol\":22708:22724  _tOwned[account] */\n      dup3\n      mstore\n      0x40\n      dup1\n      dup3\n      keccak256\n        /* \"CYBCC.sol\":22708:22728  _tOwned[account] = 0 */\n      dup3\n      swap1\n      sstore\n        /* \"CYBCC.sol\":22747:22758  _isExcluded */\n      0x08\n        /* \"CYBCC.sol\":22747:22767  _isExcluded[account] */\n      swap1\n      swap3\n      mstore\n      keccak256\n        /* \"CYBCC.sol\":22747:22775  _isExcluded[account] = false */\n      dup1\n      sload\n      not(0xff)\n      and\n      swap1\n      sstore\n        /* \"CYBCC.sol\":22794:22803  _excluded */\n      0x09\n        /* \"CYBCC.sol\":22794:22809  _excluded.pop() */\n      dup1\n      sload\n      dup1\n      tag_283\n      jumpi\n      tag_283\n      tag_284\n      jump\t// in\n    tag_283:\n      0x00\n      dup3\n      dup2\n      mstore\n      0x20\n      swap1\n      keccak256\n      dup2\n      add\n      not(0x00)\n      swap1\n      dup2\n      add\n      dup1\n      sload\n      not(sub(shl(0xa0, 0x01), 0x01))\n      and\n      swap1\n      sstore\n      add\n      swap1\n      sstore\n        /* \"CYBCC.sol\":22535:22858  for (uint256 i = 0; i < _excluded.length; i++) {... */\n      pop\n        /* \"CYBCC.sol\":22388:22864  function includeAccountinReward(address account) public onlyOwner {... */\n      pop\n      jump\t// out\n        /* \"CYBCC.sol\":22596:22848  if (_excluded[i] == account) {... */\n    tag_274:\n        /* \"CYBCC.sol\":22577:22580  i++ */\n      dup1\n      tag_286\n      dup2\n      tag_287\n      jump\t// in\n    tag_286:\n      swap2\n      pop\n      pop\n        /* \"CYBCC.sol\":22535:22858  for (uint256 i = 0; i < _excluded.length; i++) {... */\n      jump(tag_267)\n    tag_268:\n      pop\n        /* \"CYBCC.sol\":22388:22864  function includeAccountinReward(address account) public onlyOwner {... */\n      pop\n      jump\t// out\n        /* \"CYBCC.sol\":28064:28606  function _getTransferValues(uint256 tAmount)... */\n    tag_169:\n        /* \"CYBCC.sol\":28168:28175  uint256 */\n      0x00\n        /* \"CYBCC.sol\":28189:28196  uint256 */\n      dup1\n        /* \"CYBCC.sol\":28210:28217  uint256 */\n      0x00\n        /* \"CYBCC.sol\":28231:28238  uint256 */\n      dup1\n        /* \"CYBCC.sol\":28263:28279  uint256 taxValue */\n      0x00\n        /* \"CYBCC.sol\":28282:28311  _getCompleteTaxValue(tAmount) */\n      tag_290\n        /* \"CYBCC.sol\":28303:28310  tAmount */\n      dup7\n        /* \"CYBCC.sol\":28282:28302  _getCompleteTaxValue */\n      tag_291\n        /* \"CYBCC.sol\":28282:28311  _getCompleteTaxValue(tAmount) */\n      jump\t// in\n    tag_290:\n        /* \"CYBCC.sol\":28263:28311  uint256 taxValue = _getCompleteTaxValue(tAmount) */\n      swap1\n      pop\n        /* \"CYBCC.sol\":28322:28345  uint256 tTransferAmount */\n      0x00\n        /* \"CYBCC.sol\":28348:28366  tAmount - taxValue */\n      tag_292\n        /* \"CYBCC.sol\":28263:28311  uint256 taxValue = _getCompleteTaxValue(tAmount) */\n      dup3\n        /* \"CYBCC.sol\":28348:28355  tAmount */\n      dup9\n        /* \"CYBCC.sol\":28348:28366  tAmount - taxValue */\n      tag_171\n      jump\t// in\n    tag_292:\n        /* \"CYBCC.sol\":28322:28366  uint256 tTransferAmount = tAmount - taxValue */\n      swap1\n      pop\n        /* \"CYBCC.sol\":28377:28396  uint256 currentRate */\n      0x00\n        /* \"CYBCC.sol\":28399:28409  _getRate() */\n      tag_293\n        /* \"CYBCC.sol\":28399:28407  _getRate */\n      tag_294\n        /* \"CYBCC.sol\":28399:28409  _getRate() */\n      jump\t// in\n    tag_293:\n        /* \"CYBCC.sol\":28377:28409  uint256 currentRate = _getRate() */\n      swap1\n      pop\n        /* \"CYBCC.sol\":28420:28443  uint256 rTransferAmount */\n      0x00\n        /* \"CYBCC.sol\":28446:28475  tTransferAmount * currentRate */\n      tag_295\n        /* \"CYBCC.sol\":28377:28409  uint256 currentRate = _getRate() */\n      dup3\n        /* \"CYBCC.sol\":28446:28461  tTransferAmount */\n      dup5\n        /* \"CYBCC.sol\":28446:28475  tTransferAmount * currentRate */\n      tag_296\n      jump\t// in\n    tag_295:\n        /* \"CYBCC.sol\":28420:28475  uint256 rTransferAmount = tTransferAmount * currentRate */\n      swap1\n      pop\n        /* \"CYBCC.sol\":28486:28501  uint256 rAmount */\n      0x00\n        /* \"CYBCC.sol\":28504:28525  tAmount * currentRate */\n      tag_297\n        /* \"CYBCC.sol\":28514:28525  currentRate */\n      dup4\n        /* \"CYBCC.sol\":28504:28511  tAmount */\n      dup12\n        /* \"CYBCC.sol\":28504:28525  tAmount * currentRate */\n      tag_296\n      jump\t// in\n    tag_297:\n        /* \"CYBCC.sol\":28486:28525  uint256 rAmount = tAmount * currentRate */\n      swap11\n        /* \"CYBCC.sol\":28553:28568  rTransferAmount */\n      swap2\n      swap10\n      pop\n        /* \"CYBCC.sol\":28570:28585  tTransferAmount */\n      swap3\n      swap8\n      pop\n        /* \"CYBCC.sol\":28587:28598  currentRate */\n      swap1\n      swap6\n      pop\n        /* \"CYBCC.sol\":28064:28606  function _getTransferValues(uint256 tAmount)... */\n      swap4\n      pop\n      pop\n      pop\n      pop\n      jump\t// out\n        /* \"CYBCC.sol\":15383:15541  function _approve(... */\n    tag_185:\n        /* \"CYBCC.sol\":15497:15534  _approve(owner, spender, value, true) */\n      tag_299\n        /* \"CYBCC.sol\":15506:15511  owner */\n      dup4\n        /* \"CYBCC.sol\":15513:15520  spender */\n      dup4\n        /* \"CYBCC.sol\":15522:15527  value */\n      dup4\n        /* \"CYBCC.sol\":15529:15533  true */\n      0x01\n        /* \"CYBCC.sol\":15497:15505  _approve */\n      tag_300\n        /* \"CYBCC.sol\":15497:15534  _approve(owner, spender, value, true) */\n      jump\t// in\n    tag_299:\n        /* \"CYBCC.sol\":15383:15541  function _approve(... */\n      pop\n      pop\n      pop\n      jump\t// out\n        /* \"CYBCC.sol\":17140:17724  function _spendAllowance(... */\n    tag_190:\n      sub(shl(0xa0, 0x01), 0x01)\n        /* \"CYBCC.sol\":10188:10206  _allowances[owner] */\n      dup4\n      dup2\n      and\n        /* \"CYBCC.sol\":17269:17293  uint256 currentAllowance */\n      0x00\n        /* \"CYBCC.sol\":10188:10206  _allowances[owner] */\n      swap1\n      dup2\n      mstore\n        /* \"CYBCC.sol\":10188:10199  _allowances */\n      0x01\n        /* \"CYBCC.sol\":10188:10206  _allowances[owner] */\n      0x20\n      swap1\n      dup2\n      mstore\n      0x40\n      dup1\n      dup4\n      keccak256\n        /* \"CYBCC.sol\":10188:10215  _allowances[owner][spender] */\n      swap4\n      dup7\n      and\n      dup4\n      mstore\n      swap3\n      swap1\n      mstore\n      keccak256\n      sload\n      not(0x00)\n        /* \"CYBCC.sol\":17335:17371  currentAllowance < type(uint256).max */\n      dup2\n      lt\n        /* \"CYBCC.sol\":17331:17718  if (currentAllowance < type(uint256).max) {... */\n      iszero\n      tag_307\n      jumpi\n        /* \"CYBCC.sol\":17410:17415  value */\n      dup2\n        /* \"CYBCC.sol\":17391:17407  currentAllowance */\n      dup2\n        /* \"CYBCC.sol\":17391:17415  currentAllowance < value */\n      lt\n        /* \"CYBCC.sol\":17387:17595  if (currentAllowance < value) {... */\n      iszero\n      tag_304\n      jumpi\n        /* \"CYBCC.sol\":17442:17580  ERC20InsufficientAllowance(... */\n      mload(0x40)\n      shl(0xe1, 0x7dc7a0d9)\n      dup2\n      mstore\n      sub(shl(0xa0, 0x01), 0x01)\n        /* \"#utility.yul\":6503:6535   */\n      dup5\n      and\n        /* \"CYBCC.sol\":17442:17580  ERC20InsufficientAllowance(... */\n      0x04\n      dup3\n      add\n        /* \"#utility.yul\":6485:6536   */\n      mstore\n        /* \"#utility.yul\":6552:6570   */\n      0x24\n      dup2\n      add\n        /* \"#utility.yul\":6545:6579   */\n      dup3\n      swap1\n      mstore\n        /* \"#utility.yul\":6595:6613   */\n      0x44\n      dup2\n      add\n        /* \"#utility.yul\":6588:6622   */\n      dup4\n      swap1\n      mstore\n        /* \"#utility.yul\":6458:6476   */\n      0x64\n      add\n        /* \"CYBCC.sol\":17442:17580  ERC20InsufficientAllowance(... */\n      tag_166\n        /* \"#utility.yul\":6283:6628   */\n      jump\n        /* \"CYBCC.sol\":17387:17595  if (currentAllowance < value) {... */\n    tag_304:\n        /* \"CYBCC.sol\":17636:17693  _approve(owner, spender, currentAllowance - value, false) */\n      tag_307\n        /* \"CYBCC.sol\":17645:17650  owner */\n      dup5\n        /* \"CYBCC.sol\":17652:17659  spender */\n      dup5\n        /* \"CYBCC.sol\":17680:17685  value */\n      dup5\n        /* \"CYBCC.sol\":17661:17677  currentAllowance */\n      dup5\n        /* \"CYBCC.sol\":17661:17685  currentAllowance - value */\n      sub\n        /* \"CYBCC.sol\":17687:17692  false */\n      0x00\n        /* \"CYBCC.sol\":17636:17644  _approve */\n      tag_300\n        /* \"CYBCC.sol\":17636:17693  _approve(owner, spender, currentAllowance - value, false) */\n      jump\t// in\n    tag_307:\n        /* \"CYBCC.sol\":17259:17724  {... */\n      pop\n        /* \"CYBCC.sol\":17140:17724  function _spendAllowance(... */\n      pop\n      pop\n      pop\n      jump\t// out\n        /* \"CYBCC.sol\":23037:24017  function _transfer(... */\n    tag_192:\n      sub(shl(0xa0, 0x01), 0x01)\n        /* \"CYBCC.sol\":23181:23201  sender != address(0) */\n      dup4\n      and\n        /* \"CYBCC.sol\":23173:23243  require(sender != address(0), \"ERC20: transfer from the zero address\") */\n      tag_309\n      jumpi\n      mload(0x40)\n      shl(0xe5, 0x461bcd)\n      dup2\n      mstore\n        /* \"#utility.yul\":6835:6837   */\n      0x20\n        /* \"CYBCC.sol\":23173:23243  require(sender != address(0), \"ERC20: transfer from the zero address\") */\n      0x04\n      dup3\n      add\n        /* \"#utility.yul\":6817:6838   */\n      mstore\n        /* \"#utility.yul\":6874:6876   */\n      0x25\n        /* \"#utility.yul\":6854:6872   */\n      0x24\n      dup3\n      add\n        /* \"#utility.yul\":6847:6877   */\n      mstore\n        /* \"#utility.yul\":6913:6947   */\n      0x45524332303a207472616e736665722066726f6d20746865207a65726f206164\n        /* \"#utility.yul\":6893:6911   */\n      0x44\n      dup3\n      add\n        /* \"#utility.yul\":6886:6948   */\n      mstore\n      shl(0xd8, 0x6472657373)\n        /* \"#utility.yul\":6964:6982   */\n      0x64\n      dup3\n      add\n        /* \"#utility.yul\":6957:6992   */\n      mstore\n        /* \"#utility.yul\":7009:7028   */\n      0x84\n      add\n        /* \"CYBCC.sol\":23173:23243  require(sender != address(0), \"ERC20: transfer from the zero address\") */\n      tag_166\n        /* \"#utility.yul\":6633:7034   */\n      jump\n        /* \"CYBCC.sol\":23173:23243  require(sender != address(0), \"ERC20: transfer from the zero address\") */\n    tag_309:\n      sub(shl(0xa0, 0x01), 0x01)\n        /* \"CYBCC.sol\":23262:23285  recipient != address(0) */\n      dup3\n      and\n        /* \"CYBCC.sol\":23254:23325  require(recipient != address(0), \"ERC20: transfer to the zero address\") */\n      tag_312\n      jumpi\n      mload(0x40)\n      shl(0xe5, 0x461bcd)\n      dup2\n      mstore\n        /* \"#utility.yul\":7241:7243   */\n      0x20\n        /* \"CYBCC.sol\":23254:23325  require(recipient != address(0), \"ERC20: transfer to the zero address\") */\n      0x04\n      dup3\n      add\n        /* \"#utility.yul\":7223:7244   */\n      mstore\n        /* \"#utility.yul\":7280:7282   */\n      0x23\n        /* \"#utility.yul\":7260:7278   */\n      0x24\n      dup3\n      add\n        /* \"#utility.yul\":7253:7283   */\n      mstore\n        /* \"#utility.yul\":7319:7353   */\n      0x45524332303a207472616e7366657220746f20746865207a65726f2061646472\n        /* \"#utility.yul\":7299:7317   */\n      0x44\n      dup3\n      add\n        /* \"#utility.yul\":7292:7354   */\n      mstore\n      shl(0xe8, 0x657373)\n        /* \"#utility.yul\":7370:7388   */\n      0x64\n      dup3\n      add\n        /* \"#utility.yul\":7363:7396   */\n      mstore\n        /* \"#utility.yul\":7413:7432   */\n      0x84\n      add\n        /* \"CYBCC.sol\":23254:23325  require(recipient != address(0), \"ERC20: transfer to the zero address\") */\n      tag_166\n        /* \"#utility.yul\":7039:7438   */\n      jump\n        /* \"CYBCC.sol\":23254:23325  require(recipient != address(0), \"ERC20: transfer to the zero address\") */\n    tag_312:\n        /* \"CYBCC.sol\":23336:23357  uint256 senderBalance */\n      0x00\n        /* \"CYBCC.sol\":23360:23377  balanceOf(sender) */\n      tag_315\n        /* \"CYBCC.sol\":23370:23376  sender */\n      dup5\n        /* \"CYBCC.sol\":23360:23369  balanceOf */\n      tag_104\n        /* \"CYBCC.sol\":23360:23377  balanceOf(sender) */\n      jump\t// in\n    tag_315:\n        /* \"CYBCC.sol\":23336:23377  uint256 senderBalance = balanceOf(sender) */\n      swap1\n      pop\n        /* \"CYBCC.sol\":23426:23432  amount */\n      dup2\n        /* \"CYBCC.sol\":23409:23422  senderBalance */\n      dup2\n        /* \"CYBCC.sol\":23409:23432  senderBalance >= amount */\n      lt\n      iszero\n        /* \"CYBCC.sol\":23388:23496  require(... */\n      tag_316\n      jumpi\n      mload(0x40)\n      shl(0xe5, 0x461bcd)\n      dup2\n      mstore\n        /* \"#utility.yul\":7645:7647   */\n      0x20\n        /* \"CYBCC.sol\":23388:23496  require(... */\n      0x04\n      dup3\n      add\n        /* \"#utility.yul\":7627:7648   */\n      mstore\n        /* \"#utility.yul\":7684:7686   */\n      0x26\n        /* \"#utility.yul\":7664:7682   */\n      0x24\n      dup3\n      add\n        /* \"#utility.yul\":7657:7687   */\n      mstore\n        /* \"#utility.yul\":7723:7757   */\n      0x45524332303a207472616e7366657220616d6f756e7420657863656564732062\n        /* \"#utility.yul\":7703:7721   */\n      0x44\n      dup3\n      add\n        /* \"#utility.yul\":7696:7758   */\n      mstore\n      shl(0xd0, 0x616c616e6365)\n        /* \"#utility.yul\":7774:7792   */\n      0x64\n      dup3\n      add\n        /* \"#utility.yul\":7767:7803   */\n      mstore\n        /* \"#utility.yul\":7820:7839   */\n      0x84\n      add\n        /* \"CYBCC.sol\":23388:23496  require(... */\n      tag_166\n        /* \"#utility.yul\":7443:7845   */\n      jump\n        /* \"CYBCC.sol\":23388:23496  require(... */\n    tag_316:\n        /* \"CYBCC.sol\":19357:19363  _owner */\n      sload(0x0a)\n      sub(shl(0xa0, 0x01), 0x01)\n        /* \"CYBCC.sol\":23511:23528  sender != owner() */\n      dup6\n      dup2\n      and\n        /* \"CYBCC.sol\":19357:19363  _owner */\n      0x0100\n      swap1\n      swap3\n      div\n      and\n        /* \"CYBCC.sol\":23511:23528  sender != owner() */\n      eq\n      dup1\n      iszero\n      swap1\n        /* \"CYBCC.sol\":23511:23577  sender != owner() && sender != getMarketingAndDevelopmentAccount() */\n      tag_320\n      jumpi\n      pop\n        /* \"CYBCC.sol\":19938:19969  _marketingAndDevelopmentAccount */\n      sload(0x12)\n      sub(shl(0xa0, 0x01), 0x01)\n        /* \"CYBCC.sol\":23532:23577  sender != getMarketingAndDevelopmentAccount() */\n      dup6\n      dup2\n      and\n        /* \"CYBCC.sol\":19938:19969  _marketingAndDevelopmentAccount */\n      swap2\n      and\n        /* \"CYBCC.sol\":23532:23577  sender != getMarketingAndDevelopmentAccount() */\n      eq\n      iszero\n        /* \"CYBCC.sol\":23511:23577  sender != owner() && sender != getMarketingAndDevelopmentAccount() */\n    tag_320:\n        /* \"CYBCC.sol\":23511:23590  sender != owner() && sender != getMarketingAndDevelopmentAccount() && antiWhale */\n      dup1\n      iszero\n      tag_322\n      jumpi\n      pop\n        /* \"CYBCC.sol\":23581:23590  antiWhale */\n      and(0xff, sload(0x15))\n        /* \"CYBCC.sol\":23511:23590  sender != owner() && sender != getMarketingAndDevelopmentAccount() && antiWhale */\n    tag_322:\n        /* \"CYBCC.sol\":23507:23742  if (sender != owner() && sender != getMarketingAndDevelopmentAccount() && antiWhale) {... */\n      iszero\n      tag_326\n      jumpi\n        /* \"CYBCC.sol\":23665:23680  maxWalletAmount */\n      sload(0x14)\n        /* \"CYBCC.sol\":23655:23661  amount */\n      dup3\n        /* \"CYBCC.sol\":23632:23652  balanceOf(recipient) */\n      tag_324\n        /* \"CYBCC.sol\":23642:23651  recipient */\n      dup6\n        /* \"CYBCC.sol\":23632:23641  balanceOf */\n      tag_104\n        /* \"CYBCC.sol\":23632:23652  balanceOf(recipient) */\n      jump\t// in\n    tag_324:\n        /* \"CYBCC.sol\":23632:23661  balanceOf(recipient) + amount */\n      tag_325\n      swap2\n      swap1\n      tag_174\n      jump\t// in\n    tag_325:\n        /* \"CYBCC.sol\":23632:23680  balanceOf(recipient) + amount <= maxWalletAmount */\n      gt\n      iszero\n        /* \"CYBCC.sol\":23607:23730  require(... */\n      tag_326\n      jumpi\n      mload(0x40)\n      shl(0xe5, 0x461bcd)\n      dup2\n      mstore\n        /* \"#utility.yul\":8052:8054   */\n      0x20\n        /* \"CYBCC.sol\":23607:23730  require(... */\n      0x04\n      dup3\n      add\n        /* \"#utility.yul\":8034:8055   */\n      mstore\n        /* \"#utility.yul\":8091:8093   */\n      0x10\n        /* \"#utility.yul\":8071:8089   */\n      0x24\n      dup3\n      add\n        /* \"#utility.yul\":8064:8094   */\n      mstore\n      shl(0x80, 0x5768616c652064657465637465642121)\n        /* \"#utility.yul\":8110:8128   */\n      0x44\n      dup3\n      add\n        /* \"#utility.yul\":8103:8149   */\n      mstore\n        /* \"#utility.yul\":8166:8184   */\n      0x64\n      add\n        /* \"CYBCC.sol\":23607:23730  require(... */\n      tag_166\n        /* \"#utility.yul\":7850:8190   */\n      jump\n        /* \"CYBCC.sol\":23607:23730  require(... */\n    tag_326:\n        /* \"CYBCC.sol\":23789:23800  pairAddress */\n      sload(0x13)\n        /* \"CYBCC.sol\":23752:23764  bool takeFee */\n      0x00\n      swap1\n      sub(shl(0xa0, 0x01), 0x01)\n        /* \"CYBCC.sol\":23779:23800  sender == pairAddress */\n      dup7\n      dup2\n      and\n        /* \"CYBCC.sol\":23789:23800  pairAddress */\n      swap2\n      and\n        /* \"CYBCC.sol\":23779:23800  sender == pairAddress */\n      eq\n      dup1\n        /* \"CYBCC.sol\":23779:23828  sender == pairAddress || recipient == pairAddress */\n      tag_329\n      jumpi\n      pop\n        /* \"CYBCC.sol\":23817:23828  pairAddress */\n      sload(0x13)\n      sub(shl(0xa0, 0x01), 0x01)\n        /* \"CYBCC.sol\":23804:23828  recipient == pairAddress */\n      dup6\n      dup2\n      and\n        /* \"CYBCC.sol\":23817:23828  pairAddress */\n      swap2\n      and\n        /* \"CYBCC.sol\":23804:23828  recipient == pairAddress */\n      eq\n        /* \"CYBCC.sol\":23779:23828  sender == pairAddress || recipient == pairAddress */\n    tag_329:\n        /* \"CYBCC.sol\":23775:23869  if (sender == pairAddress || recipient == pairAddress) {... */\n      iszero\n      tag_330\n      jumpi\n      pop\n        /* \"CYBCC.sol\":23854:23858  true */\n      0x01\n        /* \"CYBCC.sol\":23775:23869  if (sender == pairAddress || recipient == pairAddress) {... */\n    tag_330:\n      sub(shl(0xa0, 0x01), 0x01)\n        /* \"CYBCC.sol\":20070:20097  _isExcludedFromFee[account] */\n      dup6\n      and\n        /* \"CYBCC.sol\":20047:20051  bool */\n      0x00\n        /* \"CYBCC.sol\":20070:20097  _isExcludedFromFee[account] */\n      swap1\n      dup2\n      mstore\n        /* \"CYBCC.sol\":20070:20088  _isExcludedFromFee */\n      0x07\n        /* \"CYBCC.sol\":20070:20097  _isExcludedFromFee[account] */\n      0x20\n      mstore\n      0x40\n      swap1\n      keccak256\n      sload\n      0xff\n      and\n        /* \"CYBCC.sol\":23879:23950  if (isExcludedFromFee(sender)) {... */\n      iszero\n      tag_332\n      jumpi\n      pop\n        /* \"CYBCC.sol\":23934:23939  false */\n      0x00\n        /* \"CYBCC.sol\":23879:23950  if (isExcludedFromFee(sender)) {... */\n    tag_332:\n        /* \"CYBCC.sol\":23960:24010  _tokenTransfer(sender, recipient, amount, takeFee) */\n      tag_333\n        /* \"CYBCC.sol\":23975:23981  sender */\n      dup6\n        /* \"CYBCC.sol\":23983:23992  recipient */\n      dup6\n        /* \"CYBCC.sol\":23994:24000  amount */\n      dup6\n        /* \"CYBCC.sol\":24002:24009  takeFee */\n      dup5\n        /* \"CYBCC.sol\":23960:23974  _tokenTransfer */\n      tag_334\n        /* \"CYBCC.sol\":23960:24010  _tokenTransfer(sender, recipient, amount, takeFee) */\n      jump\t// in\n    tag_333:\n        /* \"CYBCC.sol\":23163:24017  {... */\n      pop\n      pop\n        /* \"CYBCC.sol\":23037:24017  function _transfer(... */\n      pop\n      pop\n      pop\n      jump\t// out\n        /* \"CYBCC.sol\":21730:22041  function tokenFromReflection(uint256 rAmount)... */\n    tag_221:\n        /* \"CYBCC.sol\":21822:21829  uint256 */\n      0x00\n        /* \"CYBCC.sol\":21877:21884  _rTotal */\n      sload(0x0c)\n        /* \"CYBCC.sol\":21866:21873  rAmount */\n      dup3\n        /* \"CYBCC.sol\":21866:21884  rAmount <= _rTotal */\n      gt\n      iszero\n        /* \"CYBCC.sol\":21845:21952  require(... */\n      tag_336\n      jumpi\n      mload(0x40)\n      shl(0xe5, 0x461bcd)\n      dup2\n      mstore\n        /* \"#utility.yul\":8397:8399   */\n      0x20\n        /* \"CYBCC.sol\":21845:21952  require(... */\n      0x04\n      dup3\n      add\n        /* \"#utility.yul\":8379:8400   */\n      mstore\n        /* \"#utility.yul\":8436:8438   */\n      0x2a\n        /* \"#utility.yul\":8416:8434   */\n      0x24\n      dup3\n      add\n        /* \"#utility.yul\":8409:8439   */\n      mstore\n        /* \"#utility.yul\":8475:8509   */\n      0x416d6f756e74206d757374206265206c657373207468616e20746f74616c2072\n        /* \"#utility.yul\":8455:8473   */\n      0x44\n      dup3\n      add\n        /* \"#utility.yul\":8448:8510   */\n      mstore\n      shl(0xb0, 0x65666c656374696f6e73)\n        /* \"#utility.yul\":8526:8544   */\n      0x64\n      dup3\n      add\n        /* \"#utility.yul\":8519:8559   */\n      mstore\n        /* \"#utility.yul\":8576:8595   */\n      0x84\n      add\n        /* \"CYBCC.sol\":21845:21952  require(... */\n      tag_166\n        /* \"#utility.yul\":8195:8601   */\n      jump\n        /* \"CYBCC.sol\":21845:21952  require(... */\n    tag_336:\n        /* \"CYBCC.sol\":21963:21982  uint256 currentRate */\n      0x00\n        /* \"CYBCC.sol\":21985:21995  _getRate() */\n      tag_339\n        /* \"CYBCC.sol\":21985:21993  _getRate */\n      tag_294\n        /* \"CYBCC.sol\":21985:21995  _getRate() */\n      jump\t// in\n    tag_339:\n        /* \"CYBCC.sol\":21963:21995  uint256 currentRate = _getRate() */\n      swap1\n      pop\n        /* \"CYBCC.sol\":22013:22034  rAmount / currentRate */\n      tag_340\n        /* \"CYBCC.sol\":21963:21995  uint256 currentRate = _getRate() */\n      dup2\n        /* \"CYBCC.sol\":22013:22020  rAmount */\n      dup5\n        /* \"CYBCC.sol\":22013:22034  rAmount / currentRate */\n      tag_341\n      jump\t// in\n    tag_340:\n        /* \"CYBCC.sol\":22006:22034  return rAmount / currentRate */\n      swap4\n        /* \"CYBCC.sol\":21730:22041  function tokenFromReflection(uint256 rAmount)... */\n      swap3\n      pop\n      pop\n      pop\n      jump\t// out\n        /* \"CYBCC.sol\":27810:28058  function _getCompleteTaxValue(uint256 tAmount)... */\n    tag_291:\n        /* \"CYBCC.sol\":27903:27910  uint256 */\n      0x00\n        /* \"CYBCC.sol\":27926:27942  uint256 allTaxes */\n      dup1\n        /* \"CYBCC.sol\":27962:27969  _taxFee */\n      sload(0x10)\n        /* \"CYBCC.sol\":27945:27959  _reflectionFee */\n      sload(0x0e)\n        /* \"CYBCC.sol\":27945:27969  _reflectionFee + _taxFee */\n      tag_343\n      swap2\n      swap1\n      tag_174\n      jump\t// in\n    tag_343:\n        /* \"CYBCC.sol\":27926:27969  uint256 allTaxes = _reflectionFee + _taxFee */\n      swap1\n      pop\n        /* \"CYBCC.sol\":27980:27996  uint256 taxValue */\n      0x00\n        /* \"CYBCC.sol\":28022:28025  100 */\n      0x64\n        /* \"CYBCC.sol\":28000:28018  tAmount * allTaxes */\n      tag_344\n        /* \"CYBCC.sol\":27926:27969  uint256 allTaxes = _reflectionFee + _taxFee */\n      dup4\n        /* \"CYBCC.sol\":28000:28007  tAmount */\n      dup7\n        /* \"CYBCC.sol\":28000:28018  tAmount * allTaxes */\n      tag_296\n      jump\t// in\n    tag_344:\n        /* \"CYBCC.sol\":27999:28025  (tAmount * allTaxes) / 100 */\n      tag_345\n      swap2\n      swap1\n      tag_341\n      jump\t// in\n    tag_345:\n        /* \"CYBCC.sol\":27980:28025  uint256 taxValue = (tAmount * allTaxes) / 100 */\n      swap5\n        /* \"CYBCC.sol\":27810:28058  function _getCompleteTaxValue(uint256 tAmount)... */\n      swap4\n      pop\n      pop\n      pop\n      pop\n      jump\t// out\n        /* \"CYBCC.sol\":28869:29028  function _getRate() private view returns (uint256) {... */\n    tag_294:\n        /* \"CYBCC.sol\":28911:28918  uint256 */\n      0x00\n        /* \"CYBCC.sol\":28931:28946  uint256 rSupply */\n      dup1\n        /* \"CYBCC.sol\":28948:28963  uint256 tSupply */\n      0x00\n        /* \"CYBCC.sol\":28967:28986  _getCurrentSupply() */\n      tag_347\n        /* \"CYBCC.sol\":28967:28984  _getCurrentSupply */\n      tag_348\n        /* \"CYBCC.sol\":28967:28986  _getCurrentSupply() */\n      jump\t// in\n    tag_347:\n        /* \"CYBCC.sol\":28930:28986  (uint256 rSupply, uint256 tSupply) = _getCurrentSupply() */\n      swap1\n      swap3\n      pop\n      swap1\n      pop\n        /* \"CYBCC.sol\":29004:29021  rSupply / tSupply */\n      tag_349\n        /* \"CYBCC.sol\":28930:28986  (uint256 rSupply, uint256 tSupply) = _getCurrentSupply() */\n      dup2\n      dup4\n        /* \"CYBCC.sol\":29004:29021  rSupply / tSupply */\n      tag_341\n      jump\t// in\n    tag_349:\n        /* \"CYBCC.sol\":28997:29021  return rSupply / tSupply */\n      swap3\n      pop\n      pop\n      pop\n        /* \"CYBCC.sol\":28869:29028  function _getRate() private view returns (uint256) {... */\n      swap1\n      jump\t// out\n        /* \"CYBCC.sol\":16388:16858  function _approve(... */\n    tag_300:\n      sub(shl(0xa0, 0x01), 0x01)\n        /* \"CYBCC.sol\":16538:16557  owner == address(0) */\n      dup5\n      and\n        /* \"CYBCC.sol\":16534:16623  if (owner == address(0)) {... */\n      tag_351\n      jumpi\n        /* \"CYBCC.sol\":16580:16612  ERC20InvalidApprover(address(0)) */\n      mload(0x40)\n      shl(0xe0, 0xe602df05)\n      dup2\n      mstore\n        /* \"CYBCC.sol\":16609:16610  0 */\n      0x00\n        /* \"CYBCC.sol\":16580:16612  ERC20InvalidApprover(address(0)) */\n      0x04\n      dup3\n      add\n        /* \"#utility.yul\":2768:2819   */\n      mstore\n        /* \"#utility.yul\":2741:2759   */\n      0x24\n      add\n        /* \"CYBCC.sol\":16580:16612  ERC20InvalidApprover(address(0)) */\n      tag_166\n        /* \"#utility.yul\":2622:2825   */\n      jump\n        /* \"CYBCC.sol\":16534:16623  if (owner == address(0)) {... */\n    tag_351:\n      sub(shl(0xa0, 0x01), 0x01)\n        /* \"CYBCC.sol\":16636:16657  spender == address(0) */\n      dup4\n      and\n        /* \"CYBCC.sol\":16632:16722  if (spender == address(0)) {... */\n      tag_353\n      jumpi\n        /* \"CYBCC.sol\":16680:16711  ERC20InvalidSpender(address(0)) */\n      mload(0x40)\n      shl(0xe1, 0x4a1406b1)\n      dup2\n      mstore\n        /* \"CYBCC.sol\":16708:16709  0 */\n      0x00\n        /* \"CYBCC.sol\":16680:16711  ERC20InvalidSpender(address(0)) */\n      0x04\n      dup3\n      add\n        /* \"#utility.yul\":2768:2819   */\n      mstore\n        /* \"#utility.yul\":2741:2759   */\n      0x24\n      add\n        /* \"CYBCC.sol\":16680:16711  ERC20InvalidSpender(address(0)) */\n      tag_166\n        /* \"#utility.yul\":2622:2825   */\n      jump\n        /* \"CYBCC.sol\":16632:16722  if (spender == address(0)) {... */\n    tag_353:\n      sub(shl(0xa0, 0x01), 0x01)\n        /* \"CYBCC.sol\":16731:16749  _allowances[owner] */\n      dup1\n      dup6\n      and\n      0x00\n      swap1\n      dup2\n      mstore\n        /* \"CYBCC.sol\":16731:16742  _allowances */\n      0x01\n        /* \"CYBCC.sol\":16731:16749  _allowances[owner] */\n      0x20\n      swap1\n      dup2\n      mstore\n      0x40\n      dup1\n      dup4\n      keccak256\n        /* \"CYBCC.sol\":16731:16758  _allowances[owner][spender] */\n      swap4\n      dup8\n      and\n      dup4\n      mstore\n      swap3\n      swap1\n      mstore\n      keccak256\n        /* \"CYBCC.sol\":16731:16766  _allowances[owner][spender] = value */\n      dup3\n      swap1\n      sstore\n        /* \"CYBCC.sol\":16776:16852  if (emitEvent) {... */\n      dup1\n      iszero\n      tag_307\n      jumpi\n        /* \"CYBCC.sol\":16826:16833  spender */\n      dup3\n      sub(shl(0xa0, 0x01), 0x01)\n        /* \"CYBCC.sol\":16810:16841  Approval(owner, spender, value) */\n      and\n        /* \"CYBCC.sol\":16819:16824  owner */\n      dup5\n      sub(shl(0xa0, 0x01), 0x01)\n        /* \"CYBCC.sol\":16810:16841  Approval(owner, spender, value) */\n      and\n      0x8c5be1e5ebec7d5bd14f71427d1e84f3dd0314c0f7b2291e5b200ac8c7c3b925\n        /* \"CYBCC.sol\":16835:16840  value */\n      dup5\n        /* \"CYBCC.sol\":16810:16841  Approval(owner, spender, value) */\n      mload(0x40)\n      tag_356\n      swap2\n        /* \"#utility.yul\":1527:1552   */\n      dup2\n      mstore\n        /* \"#utility.yul\":1515:1517   */\n      0x20\n        /* \"#utility.yul\":1500:1518   */\n      add\n      swap1\n        /* \"#utility.yul\":1381:1558   */\n      jump\n        /* \"CYBCC.sol\":16810:16841  Approval(owner, spender, value) */\n    tag_356:\n      mload(0x40)\n      dup1\n      swap2\n      sub\n      swap1\n      log3\n        /* \"CYBCC.sol\":16388:16858  function _approve(... */\n      pop\n      pop\n      pop\n      pop\n      jump\t// out\n        /* \"CYBCC.sol\":24023:24792  function _tokenTransfer(... */\n    tag_334:\n        /* \"CYBCC.sol\":24163:24170  takeFee */\n      dup1\n        /* \"CYBCC.sol\":24158:24211  if (!takeFee) {... */\n      tag_359\n      jumpi\n        /* \"CYBCC.sol\":24186:24200  removeAllFee() */\n      tag_359\n        /* \"CYBCC.sol\":24186:24198  removeAllFee */\n      tag_360\n        /* \"CYBCC.sol\":24186:24200  removeAllFee() */\n      jump\t// in\n    tag_359:\n      sub(shl(0xa0, 0x01), 0x01)\n        /* \"CYBCC.sol\":24225:24242  _isExcluded[from] */\n      dup5\n      and\n      0x00\n      swap1\n      dup2\n      mstore\n        /* \"CYBCC.sol\":24225:24236  _isExcluded */\n      0x08\n        /* \"CYBCC.sol\":24225:24242  _isExcluded[from] */\n      0x20\n      mstore\n      0x40\n      swap1\n      keccak256\n      sload\n      0xff\n      and\n        /* \"CYBCC.sol\":24225:24262  _isExcluded[from] && !_isExcluded[to] */\n      dup1\n      iszero\n      tag_361\n      jumpi\n      pop\n      sub(shl(0xa0, 0x01), 0x01)\n        /* \"CYBCC.sol\":24247:24262  _isExcluded[to] */\n      dup4\n      and\n      0x00\n      swap1\n      dup2\n      mstore\n        /* \"CYBCC.sol\":24247:24258  _isExcluded */\n      0x08\n        /* \"CYBCC.sol\":24247:24262  _isExcluded[to] */\n      0x20\n      mstore\n      0x40\n      swap1\n      keccak256\n      sload\n      0xff\n      and\n        /* \"CYBCC.sol\":24246:24262  !_isExcluded[to] */\n      iszero\n        /* \"CYBCC.sol\":24225:24262  _isExcluded[from] && !_isExcluded[to] */\n    tag_361:\n        /* \"CYBCC.sol\":24221:24722  if (_isExcluded[from] && !_isExcluded[to]) {... */\n      iszero\n      tag_362\n      jumpi\n        /* \"CYBCC.sol\":24278:24316  _transferFromExcluded(from, to, value) */\n      tag_363\n        /* \"CYBCC.sol\":24300:24304  from */\n      dup5\n        /* \"CYBCC.sol\":24306:24308  to */\n      dup5\n        /* \"CYBCC.sol\":24310:24315  value */\n      dup5\n        /* \"CYBCC.sol\":24278:24299  _transferFromExcluded */\n      tag_364\n        /* \"CYBCC.sol\":24278:24316  _transferFromExcluded(from, to, value) */\n      jump\t// in\n    tag_363:\n        /* \"CYBCC.sol\":24221:24722  if (_isExcluded[from] && !_isExcluded[to]) {... */\n      jump(tag_381)\n    tag_362:\n      sub(shl(0xa0, 0x01), 0x01)\n        /* \"CYBCC.sol\":24338:24355  _isExcluded[from] */\n      dup5\n      and\n      0x00\n      swap1\n      dup2\n      mstore\n        /* \"CYBCC.sol\":24338:24349  _isExcluded */\n      0x08\n        /* \"CYBCC.sol\":24338:24355  _isExcluded[from] */\n      0x20\n      mstore\n      0x40\n      swap1\n      keccak256\n      sload\n      0xff\n      and\n        /* \"CYBCC.sol\":24337:24355  !_isExcluded[from] */\n      iszero\n        /* \"CYBCC.sol\":24337:24374  !_isExcluded[from] && _isExcluded[to] */\n      dup1\n      iszero\n      tag_366\n      jumpi\n      pop\n      sub(shl(0xa0, 0x01), 0x01)\n        /* \"CYBCC.sol\":24359:24374  _isExcluded[to] */\n      dup4\n      and\n      0x00\n      swap1\n      dup2\n      mstore\n        /* \"CYBCC.sol\":24359:24370  _isExcluded */\n      0x08\n        /* \"CYBCC.sol\":24359:24374  _isExcluded[to] */\n      0x20\n      mstore\n      0x40\n      swap1\n      keccak256\n      sload\n      0xff\n      and\n        /* \"CYBCC.sol\":24337:24374  !_isExcluded[from] && _isExcluded[to] */\n    tag_366:\n        /* \"CYBCC.sol\":24333:24722  if (!_isExcluded[from] && _isExcluded[to]) {... */\n      iszero\n      tag_367\n      jumpi\n        /* \"CYBCC.sol\":24390:24426  _transferToExcluded(from, to, value) */\n      tag_363\n        /* \"CYBCC.sol\":24410:24414  from */\n      dup5\n        /* \"CYBCC.sol\":24416:24418  to */\n      dup5\n        /* \"CYBCC.sol\":24420:24425  value */\n      dup5\n        /* \"CYBCC.sol\":24390:24409  _transferToExcluded */\n      tag_369\n        /* \"CYBCC.sol\":24390:24426  _transferToExcluded(from, to, value) */\n      jump\t// in\n        /* \"CYBCC.sol\":24333:24722  if (!_isExcluded[from] && _isExcluded[to]) {... */\n    tag_367:\n      sub(shl(0xa0, 0x01), 0x01)\n        /* \"CYBCC.sol\":24448:24465  _isExcluded[from] */\n      dup5\n      and\n      0x00\n      swap1\n      dup2\n      mstore\n        /* \"CYBCC.sol\":24448:24459  _isExcluded */\n      0x08\n        /* \"CYBCC.sol\":24448:24465  _isExcluded[from] */\n      0x20\n      mstore\n      0x40\n      swap1\n      keccak256\n      sload\n      0xff\n      and\n        /* \"CYBCC.sol\":24447:24465  !_isExcluded[from] */\n      iszero\n        /* \"CYBCC.sol\":24447:24485  !_isExcluded[from] && !_isExcluded[to] */\n      dup1\n      iszero\n      tag_371\n      jumpi\n      pop\n      sub(shl(0xa0, 0x01), 0x01)\n        /* \"CYBCC.sol\":24470:24485  _isExcluded[to] */\n      dup4\n      and\n      0x00\n      swap1\n      dup2\n      mstore\n        /* \"CYBCC.sol\":24470:24481  _isExcluded */\n      0x08\n        /* \"CYBCC.sol\":24470:24485  _isExcluded[to] */\n      0x20\n      mstore\n      0x40\n      swap1\n      keccak256\n      sload\n      0xff\n      and\n        /* \"CYBCC.sol\":24469:24485  !_isExcluded[to] */\n      iszero\n        /* \"CYBCC.sol\":24447:24485  !_isExcluded[from] && !_isExcluded[to] */\n    tag_371:\n        /* \"CYBCC.sol\":24443:24722  if (!_isExcluded[from] && !_isExcluded[to]) {... */\n      iszero\n      tag_372\n      jumpi\n        /* \"CYBCC.sol\":24501:24535  _transferStandard(from, to, value) */\n      tag_363\n        /* \"CYBCC.sol\":24519:24523  from */\n      dup5\n        /* \"CYBCC.sol\":24525:24527  to */\n      dup5\n        /* \"CYBCC.sol\":24529:24534  value */\n      dup5\n        /* \"CYBCC.sol\":24501:24518  _transferStandard */\n      tag_374\n        /* \"CYBCC.sol\":24501:24535  _transferStandard(from, to, value) */\n      jump\t// in\n        /* \"CYBCC.sol\":24443:24722  if (!_isExcluded[from] && !_isExcluded[to]) {... */\n    tag_372:\n      sub(shl(0xa0, 0x01), 0x01)\n        /* \"CYBCC.sol\":24556:24573  _isExcluded[from] */\n      dup5\n      and\n      0x00\n      swap1\n      dup2\n      mstore\n        /* \"CYBCC.sol\":24556:24567  _isExcluded */\n      0x08\n        /* \"CYBCC.sol\":24556:24573  _isExcluded[from] */\n      0x20\n      mstore\n      0x40\n      swap1\n      keccak256\n      sload\n      0xff\n      and\n        /* \"CYBCC.sol\":24556:24592  _isExcluded[from] && _isExcluded[to] */\n      dup1\n      iszero\n      tag_376\n      jumpi\n      pop\n      sub(shl(0xa0, 0x01), 0x01)\n        /* \"CYBCC.sol\":24577:24592  _isExcluded[to] */\n      dup4\n      and\n      0x00\n      swap1\n      dup2\n      mstore\n        /* \"CYBCC.sol\":24577:24588  _isExcluded */\n      0x08\n        /* \"CYBCC.sol\":24577:24592  _isExcluded[to] */\n      0x20\n      mstore\n      0x40\n      swap1\n      keccak256\n      sload\n      0xff\n      and\n        /* \"CYBCC.sol\":24556:24592  _isExcluded[from] && _isExcluded[to] */\n    tag_376:\n        /* \"CYBCC.sol\":24552:24722  if (_isExcluded[from] && _isExcluded[to]) {... */\n      iszero\n      tag_377\n      jumpi\n        /* \"CYBCC.sol\":24608:24646  _transferBothExcluded(from, to, value) */\n      tag_363\n        /* \"CYBCC.sol\":24630:24634  from */\n      dup5\n        /* \"CYBCC.sol\":24636:24638  to */\n      dup5\n        /* \"CYBCC.sol\":24640:24645  value */\n      dup5\n        /* \"CYBCC.sol\":24608:24629  _transferBothExcluded */\n      tag_379\n        /* \"CYBCC.sol\":24608:24646  _transferBothExcluded(from, to, value) */\n      jump\t// in\n        /* \"CYBCC.sol\":24552:24722  if (_isExcluded[from] && _isExcluded[to]) {... */\n    tag_377:\n        /* \"CYBCC.sol\":24677:24711  _transferStandard(from, to, value) */\n      tag_381\n        /* \"CYBCC.sol\":24695:24699  from */\n      dup5\n        /* \"CYBCC.sol\":24701:24703  to */\n      dup5\n        /* \"CYBCC.sol\":24705:24710  value */\n      dup5\n        /* \"CYBCC.sol\":24677:24694  _transferStandard */\n      tag_374\n        /* \"CYBCC.sol\":24677:24711  _transferStandard(from, to, value) */\n      jump\t// in\n    tag_381:\n        /* \"CYBCC.sol\":24737:24744  takeFee */\n      dup1\n        /* \"CYBCC.sol\":24732:24786  if (!takeFee) {... */\n      tag_307\n      jumpi\n        /* \"CYBCC.sol\":24760:24775  restoreAllFee() */\n      tag_307\n        /* \"CYBCC.sol\":25097:25119  _previousReflectionFee */\n      sload(0x0f)\n        /* \"CYBCC.sol\":25080:25094  _reflectionFee */\n      0x0e\n        /* \"CYBCC.sol\":25080:25119  _reflectionFee = _previousReflectionFee */\n      sstore\n        /* \"CYBCC.sol\":25140:25155  _previousTaxFee */\n      sload(0x11)\n        /* \"CYBCC.sol\":25130:25137  _taxFee */\n      0x10\n        /* \"CYBCC.sol\":25130:25155  _taxFee = _previousTaxFee */\n      sstore\n        /* \"CYBCC.sol\":25037:25162  function restoreAllFee() private {... */\n      jump\n        /* \"CYBCC.sol\":29034:29679  function _getCurrentSupply() private view returns (uint256, uint256) {... */\n    tag_348:\n        /* \"CYBCC.sol\":29131:29138  _rTotal */\n      sload(0x0c)\n        /* \"CYBCC.sol\":29167:29174  _tTotal */\n      sload(0x0b)\n        /* \"CYBCC.sol\":29085:29092  uint256 */\n      0x00\n      swap2\n      dup3\n      swap2\n      dup3\n        /* \"CYBCC.sol\":29185:29544  for (uint256 i = 0; i < _excluded.length; i++) {... */\n    tag_386:\n        /* \"CYBCC.sol\":29209:29218  _excluded */\n      0x09\n        /* \"CYBCC.sol\":29209:29225  _excluded.length */\n      sload\n        /* \"CYBCC.sol\":29205:29225  i < _excluded.length */\n      dup2\n      lt\n        /* \"CYBCC.sol\":29185:29544  for (uint256 i = 0; i < _excluded.length; i++) {... */\n      iszero\n      tag_387\n      jumpi\n        /* \"CYBCC.sol\":29291:29298  rSupply */\n      dup3\n        /* \"CYBCC.sol\":29267:29274  _rOwned */\n      0x05\n        /* \"CYBCC.sol\":29267:29288  _rOwned[_excluded[i]] */\n      0x00\n        /* \"CYBCC.sol\":29275:29284  _excluded */\n      0x09\n        /* \"CYBCC.sol\":29285:29286  i */\n      dup5\n        /* \"CYBCC.sol\":29275:29287  _excluded[i] */\n      dup2\n      sload\n      dup2\n      lt\n      tag_390\n      jumpi\n      tag_390\n      tag_272\n      jump\t// in\n    tag_390:\n      0x00\n      swap2\n      dup3\n      mstore\n      0x20\n      dup1\n      dup4\n      keccak256\n      swap1\n      swap2\n      add\n      sload\n      sub(shl(0xa0, 0x01), 0x01)\n      and\n        /* \"CYBCC.sol\":29267:29288  _rOwned[_excluded[i]] */\n      dup4\n      mstore\n      dup3\n      add\n      swap3\n      swap1\n      swap3\n      mstore\n      0x40\n      add\n      swap1\n      keccak256\n      sload\n        /* \"CYBCC.sol\":29267:29298  _rOwned[_excluded[i]] > rSupply */\n      gt\n      dup1\n        /* \"CYBCC.sol\":29267:29349  _rOwned[_excluded[i]] > rSupply ||... */\n      tag_392\n      jumpi\n      pop\n        /* \"CYBCC.sol\":29342:29349  tSupply */\n      dup2\n        /* \"CYBCC.sol\":29318:29325  _tOwned */\n      0x06\n        /* \"CYBCC.sol\":29318:29339  _tOwned[_excluded[i]] */\n      0x00\n        /* \"CYBCC.sol\":29326:29335  _excluded */\n      0x09\n        /* \"CYBCC.sol\":29336:29337  i */\n      dup5\n        /* \"CYBCC.sol\":29326:29338  _excluded[i] */\n      dup2\n      sload\n      dup2\n      lt\n      tag_394\n      jumpi\n      tag_394\n      tag_272\n      jump\t// in\n    tag_394:\n      0x00\n      swap2\n      dup3\n      mstore\n      0x20\n      dup1\n      dup4\n      keccak256\n      swap1\n      swap2\n      add\n      sload\n      sub(shl(0xa0, 0x01), 0x01)\n      and\n        /* \"CYBCC.sol\":29318:29339  _tOwned[_excluded[i]] */\n      dup4\n      mstore\n      dup3\n      add\n      swap3\n      swap1\n      swap3\n      mstore\n      0x40\n      add\n      swap1\n      keccak256\n      sload\n        /* \"CYBCC.sol\":29318:29349  _tOwned[_excluded[i]] > tSupply */\n      gt\n        /* \"CYBCC.sol\":29267:29349  _rOwned[_excluded[i]] > rSupply ||... */\n    tag_392:\n        /* \"CYBCC.sol\":29246:29422  if (... */\n      iszero\n      tag_396\n      jumpi\n        /* \"CYBCC.sol\":29390:29397  _rTotal */\n      sload(0x0c)\n        /* \"CYBCC.sol\":29399:29406  _tTotal */\n      sload(0x0b)\n        /* \"CYBCC.sol\":29382:29407  return (_rTotal, _tTotal) */\n      swap5\n      pop\n      swap5\n      pop\n      pop\n      pop\n      pop\n        /* \"CYBCC.sol\":29034:29679  function _getCurrentSupply() private view returns (uint256, uint256) {... */\n      swap1\n      swap2\n      jump\t// out\n        /* \"CYBCC.sol\":29246:29422  if (... */\n    tag_396:\n        /* \"CYBCC.sol\":29456:29463  _rOwned */\n      0x05\n        /* \"CYBCC.sol\":29456:29477  _rOwned[_excluded[i]] */\n      0x00\n        /* \"CYBCC.sol\":29464:29473  _excluded */\n      0x09\n        /* \"CYBCC.sol\":29474:29475  i */\n      dup4\n        /* \"CYBCC.sol\":29464:29476  _excluded[i] */\n      dup2\n      sload\n      dup2\n      lt\n      tag_398\n      jumpi\n      tag_398\n      tag_272\n      jump\t// in\n    tag_398:\n      0x00\n      swap2\n      dup3\n      mstore\n      0x20\n      dup1\n      dup4\n      keccak256\n      swap1\n      swap2\n      add\n      sload\n      sub(shl(0xa0, 0x01), 0x01)\n      and\n        /* \"CYBCC.sol\":29456:29477  _rOwned[_excluded[i]] */\n      dup4\n      mstore\n      dup3\n      add\n      swap3\n      swap1\n      swap3\n      mstore\n      0x40\n      add\n      swap1\n      keccak256\n      sload\n        /* \"CYBCC.sol\":29446:29477  rSupply - _rOwned[_excluded[i]] */\n      tag_400\n      swap1\n        /* \"CYBCC.sol\":29446:29453  rSupply */\n      dup5\n        /* \"CYBCC.sol\":29446:29477  rSupply - _rOwned[_excluded[i]] */\n      tag_171\n      jump\t// in\n    tag_400:\n        /* \"CYBCC.sol\":29436:29477  rSupply = rSupply - _rOwned[_excluded[i]] */\n      swap3\n      pop\n        /* \"CYBCC.sol\":29512:29519  _tOwned */\n      0x06\n        /* \"CYBCC.sol\":29512:29533  _tOwned[_excluded[i]] */\n      0x00\n        /* \"CYBCC.sol\":29520:29529  _excluded */\n      0x09\n        /* \"CYBCC.sol\":29530:29531  i */\n      dup4\n        /* \"CYBCC.sol\":29520:29532  _excluded[i] */\n      dup2\n      sload\n      dup2\n      lt\n      tag_402\n      jumpi\n      tag_402\n      tag_272\n      jump\t// in\n    tag_402:\n      0x00\n      swap2\n      dup3\n      mstore\n      0x20\n      dup1\n      dup4\n      keccak256\n      swap1\n      swap2\n      add\n      sload\n      sub(shl(0xa0, 0x01), 0x01)\n      and\n        /* \"CYBCC.sol\":29512:29533  _tOwned[_excluded[i]] */\n      dup4\n      mstore\n      dup3\n      add\n      swap3\n      swap1\n      swap3\n      mstore\n      0x40\n      add\n      swap1\n      keccak256\n      sload\n        /* \"CYBCC.sol\":29502:29533  tSupply - _tOwned[_excluded[i]] */\n      tag_404\n      swap1\n        /* \"CYBCC.sol\":29502:29509  tSupply */\n      dup4\n        /* \"CYBCC.sol\":29502:29533  tSupply - _tOwned[_excluded[i]] */\n      tag_171\n      jump\t// in\n    tag_404:\n        /* \"CYBCC.sol\":29492:29533  tSupply = tSupply - _tOwned[_excluded[i]] */\n      swap2\n      pop\n        /* \"CYBCC.sol\":29227:29230  i++ */\n      dup1\n      tag_405\n      dup2\n      tag_287\n      jump\t// in\n    tag_405:\n      swap2\n      pop\n      pop\n        /* \"CYBCC.sol\":29185:29544  for (uint256 i = 0; i < _excluded.length; i++) {... */\n      jump(tag_386)\n    tag_387:\n      pop\n        /* \"CYBCC.sol\":29578:29585  _tTotal */\n      sload(0x0b)\n        /* \"CYBCC.sol\":29568:29575  _rTotal */\n      sload(0x0c)\n        /* \"CYBCC.sol\":29568:29585  _rTotal / _tTotal */\n      tag_406\n      swap2\n      swap1\n      tag_341\n      jump\t// in\n    tag_406:\n        /* \"CYBCC.sol\":29558:29565  rSupply */\n      dup3\n        /* \"CYBCC.sol\":29558:29585  rSupply < _rTotal / _tTotal */\n      lt\n        /* \"CYBCC.sol\":29554:29637  if (rSupply < _rTotal / _tTotal) {... */\n      iszero\n      tag_407\n      jumpi\n        /* \"CYBCC.sol\":29609:29616  _rTotal */\n      sload(0x0c)\n        /* \"CYBCC.sol\":29618:29625  _tTotal */\n      sload(0x0b)\n        /* \"CYBCC.sol\":29601:29626  return (_rTotal, _tTotal) */\n      swap4\n      pop\n      swap4\n      pop\n      pop\n      pop\n        /* \"CYBCC.sol\":29034:29679  function _getCurrentSupply() private view returns (uint256, uint256) {... */\n      swap1\n      swap2\n      jump\t// out\n        /* \"CYBCC.sol\":29554:29637  if (rSupply < _rTotal / _tTotal) {... */\n    tag_407:\n        /* \"CYBCC.sol\":29655:29662  rSupply */\n      swap1\n      swap4\n        /* \"CYBCC.sol\":29664:29671  tSupply */\n      swap1\n      swap3\n      pop\n        /* \"CYBCC.sol\":29034:29679  function _getCurrentSupply() private view returns (uint256, uint256) {... */\n      swap1\n      pop\n      jump\t// out\n        /* \"CYBCC.sol\":24798:25031  function removeAllFee() private {... */\n    tag_360:\n        /* \"CYBCC.sol\":24844:24858  _reflectionFee */\n      sload(0x0e)\n        /* \"CYBCC.sol\":24844:24863  _reflectionFee == 0 */\n      iszero\n        /* \"CYBCC.sol\":24844:24879  _reflectionFee == 0 && _taxFee == 0 */\n      dup1\n      iszero\n      tag_409\n      jumpi\n      pop\n        /* \"CYBCC.sol\":24867:24874  _taxFee */\n      sload(0x10)\n        /* \"CYBCC.sol\":24867:24879  _taxFee == 0 */\n      iszero\n        /* \"CYBCC.sol\":24844:24879  _reflectionFee == 0 && _taxFee == 0 */\n    tag_409:\n        /* \"CYBCC.sol\":24840:24888  if (_reflectionFee == 0 && _taxFee == 0) return; */\n      iszero\n      tag_410\n      jumpi\n        /* \"CYBCC.sol\":24798:25031  function removeAllFee() private {... */\n      jump\t// out\n        /* \"CYBCC.sol\":24840:24888  if (_reflectionFee == 0 && _taxFee == 0) return; */\n    tag_410:\n        /* \"CYBCC.sol\":24923:24937  _reflectionFee */\n      0x0e\n      dup1\n      sload\n        /* \"CYBCC.sol\":24898:24920  _previousReflectionFee */\n      0x0f\n        /* \"CYBCC.sol\":24898:24937  _previousReflectionFee = _reflectionFee */\n      sstore\n        /* \"CYBCC.sol\":24966:24973  _taxFee */\n      0x10\n      dup1\n      sload\n        /* \"CYBCC.sol\":24948:24963  _previousTaxFee */\n      0x11\n        /* \"CYBCC.sol\":24948:24973  _previousTaxFee = _taxFee */\n      sstore\n      0x00\n        /* \"CYBCC.sol\":24984:25002  _reflectionFee = 0 */\n      swap2\n      dup3\n      swap1\n      sstore\n        /* \"CYBCC.sol\":25013:25024  _taxFee = 0 */\n      sstore\n        /* \"CYBCC.sol\":24798:25031  function removeAllFee() private {... */\n      jump\t// out\n        /* \"CYBCC.sol\":26432:27081  function _transferFromExcluded(... */\n    tag_364:\n        /* \"CYBCC.sol\":26577:26592  uint256 rAmount */\n      0x00\n        /* \"CYBCC.sol\":26606:26629  uint256 rTransferAmount */\n      dup1\n        /* \"CYBCC.sol\":26643:26666  uint256 tTransferAmount */\n      0x00\n        /* \"CYBCC.sol\":26680:26699  uint256 currentRate */\n      dup1\n        /* \"CYBCC.sol\":26712:26739  _getTransferValues(tAmount) */\n      tag_412\n        /* \"CYBCC.sol\":26731:26738  tAmount */\n      dup6\n        /* \"CYBCC.sol\":26712:26730  _getTransferValues */\n      tag_169\n        /* \"CYBCC.sol\":26712:26739  _getTransferValues(tAmount) */\n      jump\t// in\n    tag_412:\n      sub(shl(0xa0, 0x01), 0x01)\n        /* \"CYBCC.sol\":26768:26783  _tOwned[sender] */\n      dup12\n      and\n      0x00\n      swap1\n      dup2\n      mstore\n        /* \"CYBCC.sol\":26768:26775  _tOwned */\n      0x06\n        /* \"CYBCC.sol\":26768:26783  _tOwned[sender] */\n      0x20\n      mstore\n      0x40\n      swap1\n      keccak256\n      sload\n        /* \"CYBCC.sol\":26563:26739  (... */\n      swap4\n      swap8\n      pop\n      swap2\n      swap6\n      pop\n      swap4\n      pop\n      swap2\n      pop\n        /* \"CYBCC.sol\":26768:26793  _tOwned[sender] - tAmount */\n      tag_413\n      swap1\n        /* \"CYBCC.sol\":26786:26793  tAmount */\n      dup7\n      swap1\n        /* \"CYBCC.sol\":26768:26793  _tOwned[sender] - tAmount */\n      tag_171\n      jump\t// in\n    tag_413:\n      sub(shl(0xa0, 0x01), 0x01)\n        /* \"CYBCC.sol\":26750:26765  _tOwned[sender] */\n      dup9\n      and\n      0x00\n      swap1\n      dup2\n      mstore\n        /* \"CYBCC.sol\":26750:26757  _tOwned */\n      0x06\n        /* \"CYBCC.sol\":26750:26765  _tOwned[sender] */\n      0x20\n      swap1\n      dup2\n      mstore\n      0x40\n      dup1\n      dup4\n      keccak256\n        /* \"CYBCC.sol\":26750:26793  _tOwned[sender] = _tOwned[sender] - tAmount */\n      swap4\n      swap1\n      swap4\n      sstore\n        /* \"CYBCC.sol\":26822:26829  _rOwned */\n      0x05\n        /* \"CYBCC.sol\":26822:26837  _rOwned[sender] */\n      swap1\n      mstore\n      keccak256\n      sload\n        /* \"CYBCC.sol\":26822:26847  _rOwned[sender] - rAmount */\n      tag_414\n      swap1\n        /* \"CYBCC.sol\":26840:26847  rAmount */\n      dup6\n      swap1\n        /* \"CYBCC.sol\":26822:26847  _rOwned[sender] - rAmount */\n      tag_171\n      jump\t// in\n    tag_414:\n      sub(shl(0xa0, 0x01), 0x01)\n        /* \"CYBCC.sol\":26804:26819  _rOwned[sender] */\n      dup1\n      dup10\n      and\n      0x00\n      swap1\n      dup2\n      mstore\n        /* \"CYBCC.sol\":26804:26811  _rOwned */\n      0x05\n        /* \"CYBCC.sol\":26804:26819  _rOwned[sender] */\n      0x20\n      mstore\n      0x40\n      dup1\n      dup3\n      keccak256\n        /* \"CYBCC.sol\":26804:26847  _rOwned[sender] = _rOwned[sender] - rAmount */\n      swap4\n      swap1\n      swap4\n      sstore\n        /* \"CYBCC.sol\":26879:26897  _rOwned[recipient] */\n      swap1\n      dup9\n      and\n      dup2\n      mstore\n      keccak256\n      sload\n        /* \"CYBCC.sol\":26879:26915  _rOwned[recipient] + rTransferAmount */\n      tag_415\n      swap1\n        /* \"CYBCC.sol\":26900:26915  rTransferAmount */\n      dup5\n      swap1\n        /* \"CYBCC.sol\":26879:26915  _rOwned[recipient] + rTransferAmount */\n      tag_174\n      jump\t// in\n    tag_415:\n      sub(shl(0xa0, 0x01), 0x01)\n        /* \"CYBCC.sol\":26858:26876  _rOwned[recipient] */\n      dup8\n      and\n      0x00\n      swap1\n      dup2\n      mstore\n        /* \"CYBCC.sol\":26858:26865  _rOwned */\n      0x05\n        /* \"CYBCC.sol\":26858:26876  _rOwned[recipient] */\n      0x20\n      mstore\n      0x40\n      swap1\n      keccak256\n        /* \"CYBCC.sol\":26858:26915  _rOwned[recipient] = _rOwned[recipient] + rTransferAmount */\n      sstore\n        /* \"CYBCC.sol\":26926:26970  taxFeeTransfer(sender, tAmount, currentRate) */\n      tag_416\n        /* \"CYBCC.sol\":26941:26947  sender */\n      dup8\n        /* \"CYBCC.sol\":26949:26956  tAmount */\n      dup7\n        /* \"CYBCC.sol\":26958:26969  currentRate */\n      dup4\n        /* \"CYBCC.sol\":26926:26940  taxFeeTransfer */\n      tag_417\n        /* \"CYBCC.sol\":26926:26970  taxFeeTransfer(sender, tAmount, currentRate) */\n      jump\t// in\n    tag_416:\n        /* \"CYBCC.sol\":26981:27014  _reflectFee(tAmount, currentRate) */\n      tag_418\n        /* \"CYBCC.sol\":26993:27000  tAmount */\n      dup6\n        /* \"CYBCC.sol\":27002:27013  currentRate */\n      dup3\n        /* \"CYBCC.sol\":26981:26992  _reflectFee */\n      tag_419\n        /* \"CYBCC.sol\":26981:27014  _reflectFee(tAmount, currentRate) */\n      jump\t// in\n    tag_418:\n        /* \"CYBCC.sol\":27047:27056  recipient */\n      dup6\n      sub(shl(0xa0, 0x01), 0x01)\n        /* \"CYBCC.sol\":27030:27074  Transfer(sender, recipient, tTransferAmount) */\n      and\n        /* \"CYBCC.sol\":27039:27045  sender */\n      dup8\n      sub(shl(0xa0, 0x01), 0x01)\n        /* \"CYBCC.sol\":27030:27074  Transfer(sender, recipient, tTransferAmount) */\n      and\n      0xddf252ad1be2c89b69c2b068fc378daa952ba7f163c4a11628f55a4df523b3ef\n        /* \"CYBCC.sol\":27058:27073  tTransferAmount */\n      dup5\n        /* \"CYBCC.sol\":27030:27074  Transfer(sender, recipient, tTransferAmount) */\n      mload(0x40)\n      tag_420\n      swap2\n        /* \"#utility.yul\":1527:1552   */\n      dup2\n      mstore\n        /* \"#utility.yul\":1515:1517   */\n      0x20\n        /* \"#utility.yul\":1500:1518   */\n      add\n      swap1\n        /* \"#utility.yul\":1381:1558   */\n      jump\n        /* \"CYBCC.sol\":27030:27074  Transfer(sender, recipient, tTransferAmount) */\n    tag_420:\n      mload(0x40)\n      dup1\n      swap2\n      sub\n      swap1\n      log3\n        /* \"CYBCC.sol\":26553:27081  {... */\n      pop\n      pop\n      pop\n      pop\n        /* \"CYBCC.sol\":26432:27081  function _transferFromExcluded(... */\n      pop\n      pop\n      pop\n      jump\t// out\n        /* \"CYBCC.sol\":25765:26426  function _transferToExcluded(... */\n    tag_369:\n        /* \"CYBCC.sol\":25908:25923  uint256 rAmount */\n      0x00\n        /* \"CYBCC.sol\":25937:25960  uint256 rTransferAmount */\n      dup1\n        /* \"CYBCC.sol\":25974:25997  uint256 tTransferAmount */\n      0x00\n        /* \"CYBCC.sol\":26011:26030  uint256 currentRate */\n      dup1\n        /* \"CYBCC.sol\":26043:26070  _getTransferValues(tAmount) */\n      tag_422\n        /* \"CYBCC.sol\":26062:26069  tAmount */\n      dup6\n        /* \"CYBCC.sol\":26043:26061  _getTransferValues */\n      tag_169\n        /* \"CYBCC.sol\":26043:26070  _getTransferValues(tAmount) */\n      jump\t// in\n    tag_422:\n      sub(shl(0xa0, 0x01), 0x01)\n        /* \"CYBCC.sol\":26099:26114  _rOwned[sender] */\n      dup12\n      and\n      0x00\n      swap1\n      dup2\n      mstore\n        /* \"CYBCC.sol\":26099:26106  _rOwned */\n      0x05\n        /* \"CYBCC.sol\":26099:26114  _rOwned[sender] */\n      0x20\n      mstore\n      0x40\n      swap1\n      keccak256\n      sload\n        /* \"CYBCC.sol\":25894:26070  (... */\n      swap4\n      swap8\n      pop\n      swap2\n      swap6\n      pop\n      swap4\n      pop\n      swap2\n      pop\n        /* \"CYBCC.sol\":26099:26124  _rOwned[sender] - rAmount */\n      tag_423\n      swap1\n        /* \"CYBCC.sol\":25894:26070  (... */\n      dup6\n      swap1\n        /* \"CYBCC.sol\":26099:26124  _rOwned[sender] - rAmount */\n      tag_171\n      jump\t// in\n    tag_423:\n      sub(shl(0xa0, 0x01), 0x01)\n        /* \"CYBCC.sol\":26081:26096  _rOwned[sender] */\n      dup1\n      dup10\n      and\n      0x00\n      swap1\n      dup2\n      mstore\n        /* \"CYBCC.sol\":26081:26088  _rOwned */\n      0x05\n        /* \"CYBCC.sol\":26081:26096  _rOwned[sender] */\n      0x20\n      swap1\n      dup2\n      mstore\n      0x40\n      dup1\n      dup4\n      keccak256\n        /* \"CYBCC.sol\":26081:26124  _rOwned[sender] = _rOwned[sender] - rAmount */\n      swap5\n      swap1\n      swap5\n      sstore\n        /* \"CYBCC.sol\":26156:26174  _tOwned[recipient] */\n      swap2\n      dup10\n      and\n      dup2\n      mstore\n        /* \"CYBCC.sol\":26156:26163  _tOwned */\n      0x06\n        /* \"CYBCC.sol\":26156:26174  _tOwned[recipient] */\n      swap1\n      swap2\n      mstore\n      keccak256\n      sload\n        /* \"CYBCC.sol\":26156:26192  _tOwned[recipient] + tTransferAmount */\n      tag_424\n      swap1\n        /* \"CYBCC.sol\":26177:26192  tTransferAmount */\n      dup4\n      swap1\n        /* \"CYBCC.sol\":26156:26192  _tOwned[recipient] + tTransferAmount */\n      tag_174\n      jump\t// in\n    tag_424:\n      sub(shl(0xa0, 0x01), 0x01)\n        /* \"CYBCC.sol\":26135:26153  _tOwned[recipient] */\n      dup8\n      and\n      0x00\n      swap1\n      dup2\n      mstore\n        /* \"CYBCC.sol\":26135:26142  _tOwned */\n      0x06\n        /* \"CYBCC.sol\":26135:26153  _tOwned[recipient] */\n      0x20\n      swap1\n      dup2\n      mstore\n      0x40\n      dup1\n      dup4\n      keccak256\n        /* \"CYBCC.sol\":26135:26192  _tOwned[recipient] = _tOwned[recipient] + tTransferAmount */\n      swap4\n      swap1\n      swap4\n      sstore\n        /* \"CYBCC.sol\":26224:26231  _rOwned */\n      0x05\n        /* \"CYBCC.sol\":26224:26242  _rOwned[recipient] */\n      swap1\n      mstore\n      keccak256\n      sload\n        /* \"CYBCC.sol\":26224:26260  _rOwned[recipient] + rTransferAmount */\n      tag_415\n      swap1\n        /* \"CYBCC.sol\":26245:26260  rTransferAmount */\n      dup5\n      swap1\n        /* \"CYBCC.sol\":26224:26260  _rOwned[recipient] + rTransferAmount */\n      tag_174\n      jump\t// in\n        /* \"CYBCC.sol\":25168:25759  function _transferStandard(... */\n    tag_374:\n        /* \"CYBCC.sol\":25309:25324  uint256 rAmount */\n      0x00\n        /* \"CYBCC.sol\":25338:25361  uint256 rTransferAmount */\n      dup1\n        /* \"CYBCC.sol\":25375:25398  uint256 tTransferAmount */\n      0x00\n        /* \"CYBCC.sol\":25412:25431  uint256 currentRate */\n      dup1\n        /* \"CYBCC.sol\":25444:25471  _getTransferValues(tAmount) */\n      tag_430\n        /* \"CYBCC.sol\":25463:25470  tAmount */\n      dup6\n        /* \"CYBCC.sol\":25444:25462  _getTransferValues */\n      tag_169\n        /* \"CYBCC.sol\":25444:25471  _getTransferValues(tAmount) */\n      jump\t// in\n    tag_430:\n      sub(shl(0xa0, 0x01), 0x01)\n        /* \"CYBCC.sol\":25500:25515  _rOwned[sender] */\n      dup12\n      and\n      0x00\n      swap1\n      dup2\n      mstore\n        /* \"CYBCC.sol\":25500:25507  _rOwned */\n      0x05\n        /* \"CYBCC.sol\":25500:25515  _rOwned[sender] */\n      0x20\n      mstore\n      0x40\n      swap1\n      keccak256\n      sload\n        /* \"CYBCC.sol\":25295:25471  (... */\n      swap4\n      swap8\n      pop\n      swap2\n      swap6\n      pop\n      swap4\n      pop\n      swap2\n      pop\n        /* \"CYBCC.sol\":25500:25525  _rOwned[sender] - rAmount */\n      tag_414\n      swap1\n        /* \"CYBCC.sol\":25295:25471  (... */\n      dup6\n      swap1\n        /* \"CYBCC.sol\":25500:25525  _rOwned[sender] - rAmount */\n      tag_171\n      jump\t// in\n        /* \"CYBCC.sol\":27087:27804  function _transferBothExcluded(... */\n    tag_379:\n        /* \"CYBCC.sol\":27232:27247  uint256 rAmount */\n      0x00\n        /* \"CYBCC.sol\":27261:27284  uint256 rTransferAmount */\n      dup1\n        /* \"CYBCC.sol\":27298:27321  uint256 tTransferAmount */\n      0x00\n        /* \"CYBCC.sol\":27335:27354  uint256 currentRate */\n      dup1\n        /* \"CYBCC.sol\":27367:27394  _getTransferValues(tAmount) */\n      tag_437\n        /* \"CYBCC.sol\":27386:27393  tAmount */\n      dup6\n        /* \"CYBCC.sol\":27367:27385  _getTransferValues */\n      tag_169\n        /* \"CYBCC.sol\":27367:27394  _getTransferValues(tAmount) */\n      jump\t// in\n    tag_437:\n      sub(shl(0xa0, 0x01), 0x01)\n        /* \"CYBCC.sol\":27423:27438  _tOwned[sender] */\n      dup12\n      and\n      0x00\n      swap1\n      dup2\n      mstore\n        /* \"CYBCC.sol\":27423:27430  _tOwned */\n      0x06\n        /* \"CYBCC.sol\":27423:27438  _tOwned[sender] */\n      0x20\n      mstore\n      0x40\n      swap1\n      keccak256\n      sload\n        /* \"CYBCC.sol\":27218:27394  (... */\n      swap4\n      swap8\n      pop\n      swap2\n      swap6\n      pop\n      swap4\n      pop\n      swap2\n      pop\n        /* \"CYBCC.sol\":27423:27448  _tOwned[sender] - tAmount */\n      tag_438\n      swap1\n        /* \"CYBCC.sol\":27441:27448  tAmount */\n      dup7\n      swap1\n        /* \"CYBCC.sol\":27423:27448  _tOwned[sender] - tAmount */\n      tag_171\n      jump\t// in\n    tag_438:\n      sub(shl(0xa0, 0x01), 0x01)\n        /* \"CYBCC.sol\":27405:27420  _tOwned[sender] */\n      dup9\n      and\n      0x00\n      swap1\n      dup2\n      mstore\n        /* \"CYBCC.sol\":27405:27412  _tOwned */\n      0x06\n        /* \"CYBCC.sol\":27405:27420  _tOwned[sender] */\n      0x20\n      swap1\n      dup2\n      mstore\n      0x40\n      dup1\n      dup4\n      keccak256\n        /* \"CYBCC.sol\":27405:27448  _tOwned[sender] = _tOwned[sender] - tAmount */\n      swap4\n      swap1\n      swap4\n      sstore\n        /* \"CYBCC.sol\":27477:27484  _rOwned */\n      0x05\n        /* \"CYBCC.sol\":27477:27492  _rOwned[sender] */\n      swap1\n      mstore\n      keccak256\n      sload\n        /* \"CYBCC.sol\":27477:27502  _rOwned[sender] - rAmount */\n      tag_423\n      swap1\n        /* \"CYBCC.sol\":27495:27502  rAmount */\n      dup6\n      swap1\n        /* \"CYBCC.sol\":27477:27502  _rOwned[sender] - rAmount */\n      tag_171\n      jump\t// in\n        /* \"CYBCC.sol\":29935:30420  function taxFeeTransfer(... */\n    tag_417:\n        /* \"CYBCC.sol\":30061:30076  uint256 tTaxFee */\n      0x00\n        /* \"CYBCC.sol\":30101:30104  100 */\n      0x64\n        /* \"CYBCC.sol\":30090:30097  _taxFee */\n      sload(0x10)\n        /* \"CYBCC.sol\":30080:30087  tAmount */\n      dup5\n        /* \"CYBCC.sol\":30080:30097  tAmount * _taxFee */\n      tag_447\n      swap2\n      swap1\n      tag_296\n      jump\t// in\n    tag_447:\n        /* \"CYBCC.sol\":30079:30104  (tAmount * _taxFee) / 100 */\n      tag_448\n      swap2\n      swap1\n      tag_341\n      jump\t// in\n    tag_448:\n        /* \"CYBCC.sol\":30061:30104  uint256 tTaxFee = (tAmount * _taxFee) / 100 */\n      swap1\n      pop\n        /* \"CYBCC.sol\":30119:30130  tTaxFee > 0 */\n      dup1\n      iszero\n        /* \"CYBCC.sol\":30115:30414  if (tTaxFee > 0) {... */\n      tag_307\n      jumpi\n        /* \"CYBCC.sol\":30146:30161  uint256 rTaxFee */\n      0x00\n        /* \"CYBCC.sol\":30164:30185  tTaxFee * currentRate */\n      tag_450\n        /* \"CYBCC.sol\":30174:30185  currentRate */\n      dup4\n        /* \"CYBCC.sol\":30164:30171  tTaxFee */\n      dup4\n        /* \"CYBCC.sol\":30164:30185  tTaxFee * currentRate */\n      tag_296\n      jump\t// in\n    tag_450:\n        /* \"CYBCC.sol\":30267:30298  _marketingAndDevelopmentAccount */\n      and(sub(shl(0xa0, 0x01), 0x01), sload(0x12))\n        /* \"CYBCC.sol\":30259:30299  _rOwned[_marketingAndDevelopmentAccount] */\n      0x00\n      swap1\n      dup2\n      mstore\n        /* \"CYBCC.sol\":30259:30266  _rOwned */\n      0x05\n        /* \"CYBCC.sol\":30259:30299  _rOwned[_marketingAndDevelopmentAccount] */\n      0x20\n      mstore\n      0x40\n      swap1\n      keccak256\n      sload\n        /* \"CYBCC.sol\":30146:30185  uint256 rTaxFee = tTaxFee * currentRate */\n      swap1\n      swap2\n      pop\n        /* \"CYBCC.sol\":30259:30325  _rOwned[_marketingAndDevelopmentAccount] +... */\n      tag_451\n      swap1\n        /* \"CYBCC.sol\":30146:30185  uint256 rTaxFee = tTaxFee * currentRate */\n      dup3\n      swap1\n        /* \"CYBCC.sol\":30259:30325  _rOwned[_marketingAndDevelopmentAccount] +... */\n      tag_174\n      jump\t// in\n    tag_451:\n        /* \"CYBCC.sol\":30208:30239  _marketingAndDevelopmentAccount */\n      0x12\n      dup1\n      sload\n      sub(shl(0xa0, 0x01), 0x01)\n      swap1\n      dup2\n      and\n        /* \"CYBCC.sol\":30200:30240  _rOwned[_marketingAndDevelopmentAccount] */\n      0x00\n      swap1\n      dup2\n      mstore\n        /* \"CYBCC.sol\":30200:30207  _rOwned */\n      0x05\n        /* \"CYBCC.sol\":30200:30240  _rOwned[_marketingAndDevelopmentAccount] */\n      0x20\n      swap1\n      dup2\n      mstore\n      0x40\n      swap2\n      dup3\n      swap1\n      keccak256\n        /* \"CYBCC.sol\":30200:30325  _rOwned[_marketingAndDevelopmentAccount] =... */\n      swap5\n      swap1\n      swap5\n      sstore\n        /* \"CYBCC.sol\":30362:30393  _marketingAndDevelopmentAccount */\n      swap2\n      sload\n        /* \"CYBCC.sol\":30345:30403  Transfer(sender, _marketingAndDevelopmentAccount, tTaxFee) */\n      swap2\n      mload\n        /* \"#utility.yul\":1527:1552   */\n      dup6\n      dup2\n      mstore\n        /* \"CYBCC.sol\":30362:30393  _marketingAndDevelopmentAccount */\n      swap2\n      dup2\n      and\n      swap3\n        /* \"CYBCC.sol\":30345:30403  Transfer(sender, _marketingAndDevelopmentAccount, tTaxFee) */\n      swap1\n      dup9\n      and\n      swap2\n      0xddf252ad1be2c89b69c2b068fc378daa952ba7f163c4a11628f55a4df523b3ef\n      swap2\n        /* \"#utility.yul\":1500:1518   */\n      add\n        /* \"CYBCC.sol\":30345:30403  Transfer(sender, _marketingAndDevelopmentAccount, tTaxFee) */\n      mload(0x40)\n      dup1\n      swap2\n      sub\n      swap1\n      log3\n        /* \"CYBCC.sol\":30132:30414  {... */\n      pop\n        /* \"CYBCC.sol\":30051:30420  {... */\n      pop\n        /* \"CYBCC.sol\":29935:30420  function taxFeeTransfer(... */\n      pop\n      pop\n      pop\n      jump\t// out\n        /* \"CYBCC.sol\":28612:28863  function _reflectFee(uint256 tAmount, uint256 currentRate) private {... */\n    tag_419:\n        /* \"CYBCC.sol\":28689:28701  uint256 tFee */\n      0x00\n        /* \"CYBCC.sol\":28733:28736  100 */\n      0x64\n        /* \"CYBCC.sol\":28715:28729  _reflectionFee */\n      sload(0x0e)\n        /* \"CYBCC.sol\":28705:28712  tAmount */\n      dup5\n        /* \"CYBCC.sol\":28705:28729  tAmount * _reflectionFee */\n      tag_454\n      swap2\n      swap1\n      tag_296\n      jump\t// in\n    tag_454:\n        /* \"CYBCC.sol\":28704:28736  (tAmount * _reflectionFee) / 100 */\n      tag_455\n      swap2\n      swap1\n      tag_341\n      jump\t// in\n    tag_455:\n        /* \"CYBCC.sol\":28689:28736  uint256 tFee = (tAmount * _reflectionFee) / 100 */\n      swap1\n      pop\n        /* \"CYBCC.sol\":28747:28759  uint256 rFee */\n      0x00\n        /* \"CYBCC.sol\":28762:28780  tFee * currentRate */\n      tag_456\n        /* \"CYBCC.sol\":28769:28780  currentRate */\n      dup4\n        /* \"CYBCC.sol\":28689:28736  uint256 tFee = (tAmount * _reflectionFee) / 100 */\n      dup4\n        /* \"CYBCC.sol\":28762:28780  tFee * currentRate */\n      tag_296\n      jump\t// in\n    tag_456:\n        /* \"CYBCC.sol\":28747:28780  uint256 rFee = tFee * currentRate */\n      swap1\n      pop\n        /* \"CYBCC.sol\":28811:28815  rFee */\n      dup1\n        /* \"CYBCC.sol\":28801:28808  _rTotal */\n      sload(0x0c)\n        /* \"CYBCC.sol\":28801:28815  _rTotal - rFee */\n      tag_457\n      swap2\n      swap1\n      tag_171\n      jump\t// in\n    tag_457:\n        /* \"CYBCC.sol\":28791:28798  _rTotal */\n      0x0c\n        /* \"CYBCC.sol\":28791:28815  _rTotal = _rTotal - rFee */\n      sstore\n        /* \"CYBCC.sol\":28839:28849  _tFeeTotal */\n      sload(0x0d)\n        /* \"CYBCC.sol\":28839:28856  _tFeeTotal + tFee */\n      tag_458\n      swap1\n        /* \"CYBCC.sol\":28852:28856  tFee */\n      dup4\n      swap1\n        /* \"CYBCC.sol\":28839:28856  _tFeeTotal + tFee */\n      tag_174\n      jump\t// in\n    tag_458:\n        /* \"CYBCC.sol\":28826:28836  _tFeeTotal */\n      0x0d\n        /* \"CYBCC.sol\":28826:28856  _tFeeTotal = _tFeeTotal + tFee */\n      sstore\n      pop\n      pop\n      pop\n      pop\n        /* \"CYBCC.sol\":28612:28863  function _reflectFee(uint256 tAmount, uint256 currentRate) private {... */\n      jump\t// out\n        /* \"#utility.yul\":14:194   */\n    tag_41:\n        /* \"#utility.yul\":73:79   */\n      0x00\n        /* \"#utility.yul\":126:128   */\n      0x20\n        /* \"#utility.yul\":114:123   */\n      dup3\n        /* \"#utility.yul\":105:112   */\n      dup5\n        /* \"#utility.yul\":101:124   */\n      sub\n        /* \"#utility.yul\":97:129   */\n      slt\n        /* \"#utility.yul\":94:146   */\n      iszero\n      tag_463\n      jumpi\n        /* \"#utility.yul\":142:143   */\n      0x00\n        /* \"#utility.yul\":139:140   */\n      dup1\n        /* \"#utility.yul\":132:144   */\n      revert\n        /* \"#utility.yul\":94:146   */\n    tag_463:\n      pop\n        /* \"#utility.yul\":165:188   */\n      calldataload\n      swap2\n        /* \"#utility.yul\":14:194   */\n      swap1\n      pop\n      jump\t// out\n        /* \"#utility.yul\":199:747   */\n    tag_47:\n        /* \"#utility.yul\":311:315   */\n      0x00\n        /* \"#utility.yul\":340:342   */\n      0x20\n        /* \"#utility.yul\":369:371   */\n      dup1\n        /* \"#utility.yul\":358:367   */\n      dup4\n        /* \"#utility.yul\":351:372   */\n      mstore\n        /* \"#utility.yul\":401:407   */\n      dup4\n        /* \"#utility.yul\":395:408   */\n      mload\n        /* \"#utility.yul\":444:450   */\n      dup1\n        /* \"#utility.yul\":439:441   */\n      dup3\n        /* \"#utility.yul\":428:437   */\n      dup6\n        /* \"#utility.yul\":424:442   */\n      add\n        /* \"#utility.yul\":417:451   */\n      mstore\n        /* \"#utility.yul\":469:470   */\n      0x00\n        /* \"#utility.yul\":479:619   */\n    tag_465:\n        /* \"#utility.yul\":493:499   */\n      dup2\n        /* \"#utility.yul\":490:491   */\n      dup2\n        /* \"#utility.yul\":487:500   */\n      lt\n        /* \"#utility.yul\":479:619   */\n      iszero\n      tag_467\n      jumpi\n        /* \"#utility.yul\":588:602   */\n      dup6\n      dup2\n      add\n        /* \"#utility.yul\":584:607   */\n      dup4\n      add\n        /* \"#utility.yul\":578:608   */\n      mload\n        /* \"#utility.yul\":554:571   */\n      dup6\n      dup3\n      add\n        /* \"#utility.yul\":573:575   */\n      0x40\n        /* \"#utility.yul\":550:576   */\n      add\n        /* \"#utility.yul\":543:609   */\n      mstore\n        /* \"#utility.yul\":508:518   */\n      dup3\n      add\n        /* \"#utility.yul\":479:619   */\n      jump(tag_465)\n    tag_467:\n        /* \"#utility.yul\":483:486   */\n      pop\n        /* \"#utility.yul\":668:669   */\n      0x00\n        /* \"#utility.yul\":663:665   */\n      0x40\n        /* \"#utility.yul\":654:660   */\n      dup3\n        /* \"#utility.yul\":643:652   */\n      dup7\n        /* \"#utility.yul\":639:661   */\n      add\n        /* \"#utility.yul\":635:666   */\n      add\n        /* \"#utility.yul\":628:670   */\n      mstore\n        /* \"#utility.yul\":738:740   */\n      0x40\n        /* \"#utility.yul\":731:733   */\n      0x1f\n        /* \"#utility.yul\":727:734   */\n      not\n        /* \"#utility.yul\":722:724   */\n      0x1f\n        /* \"#utility.yul\":714:720   */\n      dup4\n        /* \"#utility.yul\":710:725   */\n      add\n        /* \"#utility.yul\":706:735   */\n      and\n        /* \"#utility.yul\":695:704   */\n      dup6\n        /* \"#utility.yul\":691:736   */\n      add\n        /* \"#utility.yul\":687:741   */\n      add\n        /* \"#utility.yul\":679:741   */\n      swap3\n      pop\n      pop\n      pop\n        /* \"#utility.yul\":199:747   */\n      swap3\n      swap2\n      pop\n      pop\n      jump\t// out\n        /* \"#utility.yul\":752:925   */\n    tag_459:\n        /* \"#utility.yul\":820:840   */\n      dup1\n      calldataload\n      sub(shl(0xa0, 0x01), 0x01)\n        /* \"#utility.yul\":869:900   */\n      dup2\n      and\n        /* \"#utility.yul\":859:901   */\n      dup2\n      eq\n        /* \"#utility.yul\":849:919   */\n      tag_469\n      jumpi\n        /* \"#utility.yul\":915:916   */\n      0x00\n        /* \"#utility.yul\":912:913   */\n      dup1\n        /* \"#utility.yul\":905:917   */\n      revert\n        /* \"#utility.yul\":849:919   */\n    tag_469:\n        /* \"#utility.yul\":752:925   */\n      swap2\n      swap1\n      pop\n      jump\t// out\n        /* \"#utility.yul\":930:1184   */\n    tag_51:\n        /* \"#utility.yul\":998:1004   */\n      0x00\n        /* \"#utility.yul\":1006:1012   */\n      dup1\n        /* \"#utility.yul\":1059:1061   */\n      0x40\n        /* \"#utility.yul\":1047:1056   */\n      dup4\n        /* \"#utility.yul\":1038:1045   */\n      dup6\n        /* \"#utility.yul\":1034:1057   */\n      sub\n        /* \"#utility.yul\":1030:1062   */\n      slt\n        /* \"#utility.yul\":1027:1079   */\n      iszero\n      tag_471\n      jumpi\n        /* \"#utility.yul\":1075:1076   */\n      0x00\n        /* \"#utility.yul\":1072:1073   */\n      dup1\n        /* \"#utility.yul\":1065:1077   */\n      revert\n        /* \"#utility.yul\":1027:1079   */\n    tag_471:\n        /* \"#utility.yul\":1098:1127   */\n      tag_472\n        /* \"#utility.yul\":1117:1126   */\n      dup4\n        /* \"#utility.yul\":1098:1127   */\n      tag_459\n      jump\t// in\n    tag_472:\n        /* \"#utility.yul\":1088:1127   */\n      swap5\n        /* \"#utility.yul\":1174:1176   */\n      0x20\n        /* \"#utility.yul\":1159:1177   */\n      swap4\n      swap1\n      swap4\n      add\n        /* \"#utility.yul\":1146:1178   */\n      calldataload\n      swap4\n      pop\n      pop\n      pop\n        /* \"#utility.yul\":930:1184   */\n      jump\t// out\n        /* \"#utility.yul\":1563:1891   */\n    tag_63:\n        /* \"#utility.yul\":1640:1646   */\n      0x00\n        /* \"#utility.yul\":1648:1654   */\n      dup1\n        /* \"#utility.yul\":1656:1662   */\n      0x00\n        /* \"#utility.yul\":1709:1711   */\n      0x60\n        /* \"#utility.yul\":1697:1706   */\n      dup5\n        /* \"#utility.yul\":1688:1695   */\n      dup7\n        /* \"#utility.yul\":1684:1707   */\n      sub\n        /* \"#utility.yul\":1680:1712   */\n      slt\n        /* \"#utility.yul\":1677:1729   */\n      iszero\n      tag_476\n      jumpi\n        /* \"#utility.yul\":1725:1726   */\n      0x00\n        /* \"#utility.yul\":1722:1723   */\n      dup1\n        /* \"#utility.yul\":1715:1727   */\n      revert\n        /* \"#utility.yul\":1677:1729   */\n    tag_476:\n        /* \"#utility.yul\":1748:1777   */\n      tag_477\n        /* \"#utility.yul\":1767:1776   */\n      dup5\n        /* \"#utility.yul\":1748:1777   */\n      tag_459\n      jump\t// in\n    tag_477:\n        /* \"#utility.yul\":1738:1777   */\n      swap3\n      pop\n        /* \"#utility.yul\":1796:1834   */\n      tag_478\n        /* \"#utility.yul\":1830:1832   */\n      0x20\n        /* \"#utility.yul\":1819:1828   */\n      dup6\n        /* \"#utility.yul\":1815:1833   */\n      add\n        /* \"#utility.yul\":1796:1834   */\n      tag_459\n      jump\t// in\n    tag_478:\n        /* \"#utility.yul\":1786:1834   */\n      swap2\n      pop\n        /* \"#utility.yul\":1881:1883   */\n      0x40\n        /* \"#utility.yul\":1870:1879   */\n      dup5\n        /* \"#utility.yul\":1866:1884   */\n      add\n        /* \"#utility.yul\":1853:1885   */\n      calldataload\n        /* \"#utility.yul\":1843:1885   */\n      swap1\n      pop\n        /* \"#utility.yul\":1563:1891   */\n      swap3\n      pop\n      swap3\n      pop\n      swap3\n      jump\t// out\n        /* \"#utility.yul\":2085:2271   */\n    tag_78:\n        /* \"#utility.yul\":2144:2150   */\n      0x00\n        /* \"#utility.yul\":2197:2199   */\n      0x20\n        /* \"#utility.yul\":2185:2194   */\n      dup3\n        /* \"#utility.yul\":2176:2183   */\n      dup5\n        /* \"#utility.yul\":2172:2195   */\n      sub\n        /* \"#utility.yul\":2168:2200   */\n      slt\n        /* \"#utility.yul\":2165:2217   */\n      iszero\n      tag_481\n      jumpi\n        /* \"#utility.yul\":2213:2214   */\n      0x00\n        /* \"#utility.yul\":2210:2211   */\n      dup1\n        /* \"#utility.yul\":2203:2215   */\n      revert\n        /* \"#utility.yul\":2165:2217   */\n    tag_481:\n        /* \"#utility.yul\":2236:2265   */\n      tag_340\n        /* \"#utility.yul\":2255:2264   */\n      dup3\n        /* \"#utility.yul\":2236:2265   */\n      tag_459\n      jump\t// in\n        /* \"#utility.yul\":2276:2617   */\n    tag_83:\n        /* \"#utility.yul\":2341:2347   */\n      0x00\n        /* \"#utility.yul\":2349:2355   */\n      dup1\n        /* \"#utility.yul\":2402:2404   */\n      0x40\n        /* \"#utility.yul\":2390:2399   */\n      dup4\n        /* \"#utility.yul\":2381:2388   */\n      dup6\n        /* \"#utility.yul\":2377:2400   */\n      sub\n        /* \"#utility.yul\":2373:2405   */\n      slt\n        /* \"#utility.yul\":2370:2422   */\n      iszero\n      tag_484\n      jumpi\n        /* \"#utility.yul\":2418:2419   */\n      0x00\n        /* \"#utility.yul\":2415:2416   */\n      dup1\n        /* \"#utility.yul\":2408:2420   */\n      revert\n        /* \"#utility.yul\":2370:2422   */\n    tag_484:\n        /* \"#utility.yul\":2454:2463   */\n      dup3\n        /* \"#utility.yul\":2441:2464   */\n      calldataload\n        /* \"#utility.yul\":2431:2464   */\n      swap2\n      pop\n        /* \"#utility.yul\":2514:2516   */\n      0x20\n        /* \"#utility.yul\":2503:2512   */\n      dup4\n        /* \"#utility.yul\":2499:2517   */\n      add\n        /* \"#utility.yul\":2486:2518   */\n      calldataload\n        /* \"#utility.yul\":2561:2566   */\n      dup1\n        /* \"#utility.yul\":2554:2567   */\n      iszero\n        /* \"#utility.yul\":2547:2568   */\n      iszero\n        /* \"#utility.yul\":2540:2545   */\n      dup2\n        /* \"#utility.yul\":2537:2569   */\n      eq\n        /* \"#utility.yul\":2527:2587   */\n      tag_485\n      jumpi\n        /* \"#utility.yul\":2583:2584   */\n      0x00\n        /* \"#utility.yul\":2580:2581   */\n      dup1\n        /* \"#utility.yul\":2573:2585   */\n      revert\n        /* \"#utility.yul\":2527:2587   */\n    tag_485:\n        /* \"#utility.yul\":2606:2611   */\n      dup1\n        /* \"#utility.yul\":2596:2611   */\n      swap2\n      pop\n      pop\n        /* \"#utility.yul\":2276:2617   */\n      swap3\n      pop\n      swap3\n      swap1\n      pop\n      jump\t// out\n        /* \"#utility.yul\":2830:3090   */\n    tag_147:\n        /* \"#utility.yul\":2898:2904   */\n      0x00\n        /* \"#utility.yul\":2906:2912   */\n      dup1\n        /* \"#utility.yul\":2959:2961   */\n      0x40\n        /* \"#utility.yul\":2947:2956   */\n      dup4\n        /* \"#utility.yul\":2938:2945   */\n      dup6\n        /* \"#utility.yul\":2934:2957   */\n      sub\n        /* \"#utility.yul\":2930:2962   */\n      slt\n        /* \"#utility.yul\":2927:2979   */\n      iszero\n      tag_488\n      jumpi\n        /* \"#utility.yul\":2975:2976   */\n      0x00\n        /* \"#utility.yul\":2972:2973   */\n      dup1\n        /* \"#utility.yul\":2965:2977   */\n      revert\n        /* \"#utility.yul\":2927:2979   */\n    tag_488:\n        /* \"#utility.yul\":2998:3027   */\n      tag_489\n        /* \"#utility.yul\":3017:3026   */\n      dup4\n        /* \"#utility.yul\":2998:3027   */\n      tag_459\n      jump\t// in\n    tag_489:\n        /* \"#utility.yul\":2988:3027   */\n      swap2\n      pop\n        /* \"#utility.yul\":3046:3084   */\n      tag_490\n        /* \"#utility.yul\":3080:3082   */\n      0x20\n        /* \"#utility.yul\":3069:3078   */\n      dup5\n        /* \"#utility.yul\":3065:3083   */\n      add\n        /* \"#utility.yul\":3046:3084   */\n      tag_459\n      jump\t// in\n    tag_490:\n        /* \"#utility.yul\":3036:3084   */\n      swap1\n      pop\n        /* \"#utility.yul\":2830:3090   */\n      swap3\n      pop\n      swap3\n      swap1\n      pop\n      jump\t// out\n        /* \"#utility.yul\":3508:3635   */\n    tag_460:\n        /* \"#utility.yul\":3569:3579   */\n      0x4e487b71\n        /* \"#utility.yul\":3564:3567   */\n      0xe0\n        /* \"#utility.yul\":3560:3580   */\n      shl\n        /* \"#utility.yul\":3557:3558   */\n      0x00\n        /* \"#utility.yul\":3550:3581   */\n      mstore\n        /* \"#utility.yul\":3600:3604   */\n      0x11\n        /* \"#utility.yul\":3597:3598   */\n      0x04\n        /* \"#utility.yul\":3590:3605   */\n      mstore\n        /* \"#utility.yul\":3624:3628   */\n      0x24\n        /* \"#utility.yul\":3621:3622   */\n      0x00\n        /* \"#utility.yul\":3614:3629   */\n      revert\n        /* \"#utility.yul\":3640:3768   */\n    tag_171:\n        /* \"#utility.yul\":3707:3716   */\n      dup2\n      dup2\n      sub\n        /* \"#utility.yul\":3728:3739   */\n      dup2\n      dup2\n      gt\n        /* \"#utility.yul\":3725:3762   */\n      iszero\n      tag_182\n      jumpi\n        /* \"#utility.yul\":3742:3760   */\n      tag_182\n      tag_460\n      jump\t// in\n        /* \"#utility.yul\":3773:3898   */\n    tag_174:\n        /* \"#utility.yul\":3838:3847   */\n      dup1\n      dup3\n      add\n        /* \"#utility.yul\":3859:3869   */\n      dup1\n      dup3\n      gt\n        /* \"#utility.yul\":3856:3892   */\n      iszero\n      tag_182\n      jumpi\n        /* \"#utility.yul\":3872:3890   */\n      tag_182\n      tag_460\n      jump\t// in\n        /* \"#utility.yul\":3903:4283   */\n    tag_177:\n        /* \"#utility.yul\":3982:3983   */\n      0x01\n        /* \"#utility.yul\":3978:3990   */\n      dup2\n      dup2\n      shr\n      swap1\n        /* \"#utility.yul\":4025:4037   */\n      dup3\n      and\n      dup1\n        /* \"#utility.yul\":4046:4107   */\n      tag_500\n      jumpi\n        /* \"#utility.yul\":4100:4104   */\n      0x7f\n        /* \"#utility.yul\":4092:4098   */\n      dup3\n        /* \"#utility.yul\":4088:4105   */\n      and\n        /* \"#utility.yul\":4078:4105   */\n      swap2\n      pop\n        /* \"#utility.yul\":4046:4107   */\n    tag_500:\n        /* \"#utility.yul\":4153:4155   */\n      0x20\n        /* \"#utility.yul\":4145:4151   */\n      dup3\n        /* \"#utility.yul\":4142:4156   */\n      lt\n        /* \"#utility.yul\":4122:4140   */\n      dup2\n        /* \"#utility.yul\":4119:4157   */\n      sub\n        /* \"#utility.yul\":4116:4277   */\n      tag_501\n      jumpi\n        /* \"#utility.yul\":4199:4209   */\n      0x4e487b71\n        /* \"#utility.yul\":4194:4197   */\n      0xe0\n        /* \"#utility.yul\":4190:4210   */\n      shl\n        /* \"#utility.yul\":4187:4188   */\n      0x00\n        /* \"#utility.yul\":4180:4211   */\n      mstore\n        /* \"#utility.yul\":4234:4238   */\n      0x22\n        /* \"#utility.yul\":4231:4232   */\n      0x04\n        /* \"#utility.yul\":4224:4239   */\n      mstore\n        /* \"#utility.yul\":4262:4266   */\n      0x24\n        /* \"#utility.yul\":4259:4260   */\n      0x00\n        /* \"#utility.yul\":4252:4267   */\n      revert\n        /* \"#utility.yul\":4116:4277   */\n    tag_501:\n      pop\n        /* \"#utility.yul\":3903:4283   */\n      swap2\n      swap1\n      pop\n      jump\t// out\n        /* \"#utility.yul\":5706:5833   */\n    tag_272:\n        /* \"#utility.yul\":5767:5777   */\n      0x4e487b71\n        /* \"#utility.yul\":5762:5765   */\n      0xe0\n        /* \"#utility.yul\":5758:5778   */\n      shl\n        /* \"#utility.yul\":5755:5756   */\n      0x00\n        /* \"#utility.yul\":5748:5779   */\n      mstore\n        /* \"#utility.yul\":5798:5802   */\n      0x32\n        /* \"#utility.yul\":5795:5796   */\n      0x04\n        /* \"#utility.yul\":5788:5803   */\n      mstore\n        /* \"#utility.yul\":5822:5826   */\n      0x24\n        /* \"#utility.yul\":5819:5820   */\n      0x00\n        /* \"#utility.yul\":5812:5827   */\n      revert\n        /* \"#utility.yul\":5838:5965   */\n    tag_284:\n        /* \"#utility.yul\":5899:5909   */\n      0x4e487b71\n        /* \"#utility.yul\":5894:5897   */\n      0xe0\n        /* \"#utility.yul\":5890:5910   */\n      shl\n        /* \"#utility.yul\":5887:5888   */\n      0x00\n        /* \"#utility.yul\":5880:5911   */\n      mstore\n        /* \"#utility.yul\":5930:5934   */\n      0x31\n        /* \"#utility.yul\":5927:5928   */\n      0x04\n        /* \"#utility.yul\":5920:5935   */\n      mstore\n        /* \"#utility.yul\":5954:5958   */\n      0x24\n        /* \"#utility.yul\":5951:5952   */\n      0x00\n        /* \"#utility.yul\":5944:5959   */\n      revert\n        /* \"#utility.yul\":5970:6105   */\n    tag_287:\n        /* \"#utility.yul\":6009:6012   */\n      0x00\n        /* \"#utility.yul\":6030:6047   */\n      0x01\n      dup3\n      add\n        /* \"#utility.yul\":6027:6070   */\n      tag_510\n      jumpi\n        /* \"#utility.yul\":6050:6068   */\n      tag_510\n      tag_460\n      jump\t// in\n    tag_510:\n      pop\n        /* \"#utility.yul\":6097:6098   */\n      0x01\n        /* \"#utility.yul\":6086:6099   */\n      add\n      swap1\n        /* \"#utility.yul\":5970:6105   */\n      jump\t// out\n        /* \"#utility.yul\":6110:6278   */\n    tag_296:\n        /* \"#utility.yul\":6183:6192   */\n      dup1\n      dup3\n      mul\n        /* \"#utility.yul\":6214:6223   */\n      dup2\n      iszero\n        /* \"#utility.yul\":6231:6246   */\n      dup3\n      dup3\n      div\n        /* \"#utility.yul\":6225:6247   */\n      dup5\n      eq\n        /* \"#utility.yul\":6211:6248   */\n      or\n        /* \"#utility.yul\":6201:6272   */\n      tag_182\n      jumpi\n        /* \"#utility.yul\":6252:6270   */\n      tag_182\n      tag_460\n      jump\t// in\n        /* \"#utility.yul\":8606:8823   */\n    tag_341:\n        /* \"#utility.yul\":8646:8647   */\n      0x00\n        /* \"#utility.yul\":8672:8673   */\n      dup3\n        /* \"#utility.yul\":8662:8794   */\n      tag_521\n      jumpi\n        /* \"#utility.yul\":8716:8726   */\n      0x4e487b71\n        /* \"#utility.yul\":8711:8714   */\n      0xe0\n        /* \"#utility.yul\":8707:8727   */\n      shl\n        /* \"#utility.yul\":8704:8705   */\n      0x00\n        /* \"#utility.yul\":8697:8728   */\n      mstore\n        /* \"#utility.yul\":8751:8755   */\n      0x12\n        /* \"#utility.yul\":8748:8749   */\n      0x04\n        /* \"#utility.yul\":8741:8756   */\n      mstore\n        /* \"#utility.yul\":8779:8783   */\n      0x24\n        /* \"#utility.yul\":8776:8777   */\n      0x00\n        /* \"#utility.yul\":8769:8784   */\n      revert\n        /* \"#utility.yul\":8662:8794   */\n    tag_521:\n      pop\n        /* \"#utility.yul\":8808:8817   */\n      div\n      swap1\n        /* \"#utility.yul\":8606:8823   */\n      jump\t// out\n\n    auxdata: 0xa2646970667358221220ab85f0542cd11c51f3e18c8037bd49f28e828f82b915f7208c0e0cf6fdcfb53364736f6c63430008140033\n}\n",
				"bytecode": {
					"linkReferences": {},
					"object": "6080604052600a8054610100600160a81b03191633610100021790555f600d556015805460ff1916905534801562000035575f80fd5b506040518060400160405280600881526020016730b1319031b7b4b760c11b81525060405180604001604052806005815260200164435942434360d81b8152508160039081620000869190620003f2565b506004620000958282620003f2565b5050600a805460ff191660129081178255620000b3925090620005c9565b620000c390633b9aca00620005dd565b600b819055620000d5905f196200060b565b620000e2905f1962000621565b600c556002600e819055600f5560016010819055601155600a54601280546101009092046001600160a01b03166001600160a01b0319909216919091179055600b54620001329060649062000637565b6200013f906002620005dd565b601455600160075f6200015f600a5461010090046001600160a01b031690565b6001600160a01b03908116825260208083019390935260409182015f908120805495151560ff199687161790556012548216815260078452828120805486166001908117909155308252838220805490961617909455600c54600a54610100900490911684526005909252909120819055620001dd903390620001e3565b62000663565b6001600160a01b038216620002125760405163ec442f0560e01b81525f60048201526024015b60405180910390fd5b6200021f5f838362000223565b5050565b6001600160a01b03831662000251578060025f8282546200024591906200064d565b90915550620002c39050565b6001600160a01b0383165f9081526020819052604090205481811015620002a55760405163391434e360e21b81526001600160a01b0385166004820152602481018290526044810183905260640162000209565b6001600160a01b0384165f9081526020819052604090209082900390555b6001600160a01b038216620002e157600280548290039055620002ff565b6001600160a01b0382165f9081526020819052604090208054820190555b816001600160a01b0316836001600160a01b03167fddf252ad1be2c89b69c2b068fc378daa952ba7f163c4a11628f55a4df523b3ef836040516200034591815260200190565b60405180910390a3505050565b634e487b7160e01b5f52604160045260245ffd5b600181811c908216806200037b57607f821691505b6020821081036200039a57634e487b7160e01b5f52602260045260245ffd5b50919050565b601f821115620003ed575f81815260208120601f850160051c81016020861015620003c85750805b601f850160051c820191505b81811015620003e957828155600101620003d4565b5050505b505050565b81516001600160401b038111156200040e576200040e62000352565b62000426816200041f845462000366565b84620003a0565b602080601f8311600181146200045c575f8415620004445750858301515b5f19600386901b1c1916600185901b178555620003e9565b5f85815260208120601f198616915b828110156200048c578886015182559484019460019091019084016200046b565b5085821015620004aa57878501515f19600388901b60f8161c191681555b5050505050600190811b01905550565b634e487b7160e01b5f52601160045260245ffd5b600181815b808511156200050e57815f1904821115620004f257620004f2620004ba565b808516156200050057918102915b93841c9390800290620004d3565b509250929050565b5f826200052657506001620005c3565b816200053457505f620005c3565b81600181146200054d5760028114620005585762000578565b6001915050620005c3565b60ff8411156200056c576200056c620004ba565b50506001821b620005c3565b5060208310610133831016604e8410600b84101617156200059d575081810a620005c3565b620005a98383620004ce565b805f1904821115620005bf57620005bf620004ba565b0290505b92915050565b5f620005d6838362000516565b9392505050565b8082028115828204841417620005c357620005c3620004ba565b634e487b7160e01b5f52601260045260245ffd5b5f826200061c576200061c620005f7565b500690565b81810381811115620005c357620005c3620004ba565b5f82620006485762000648620005f7565b500490565b80820180821115620005c357620005c3620004ba565b611a2a80620006715f395ff3fe608060405260043610610198575f3560e01c806370a08231116100e7578063a9059cbb11610087578063dd62ed3e11610062578063dd62ed3e1461048d578063f2fde38b146104d1578063f66608fe146104f0578063fdeb889f14610504575f80fd5b8063a9059cbb1461041a578063cba0e99614610439578063d12dc1c114610470575f80fd5b80638873b15f116100c25780638873b15f146103925780638da5cb5b146103b157806395d89b41146103e7578063a8b08982146103fb575f80fd5b806370a082311461034b578063715018a61461036a57806383ad79941461037e575f80fd5b806332035504116101525780635342acb41161012d5780635342acb4146102cd5780635c7ffc88146103045780636049876e1461031857806360c3ae8414610337575f80fd5b8063320355041461027b578063437823ec1461028f5780634549b039146102ae575f80fd5b8063053ab182146101a357806306fdde03146101c4578063095ea7b3146101ee57806318160ddd1461021d57806323b872dd1461023b578063313ce5671461025a575f80fd5b3661019f57005b5f80fd5b3480156101ae575f80fd5b506101c26101bd3660046117b2565b610523565b005b3480156101cf575f80fd5b506101d861060e565b6040516101e591906117c9565b60405180910390f35b3480156101f9575f80fd5b5061020d61020836600461182f565b61069e565b60405190151581526020016101e5565b348015610228575f80fd5b50600b545b6040519081526020016101e5565b348015610246575f80fd5b5061020d610255366004611857565b6106b7565b348015610265575f80fd5b50600a5460405160ff90911681526020016101e5565b348015610286575f80fd5b50600d5461022d565b34801561029a575f80fd5b506101c26102a9366004611890565b6106da565b3480156102b9575f80fd5b5061022d6102c83660046118a9565b610721565b3480156102d8575f80fd5b5061020d6102e7366004611890565b6001600160a01b03165f9081526007602052604090205460ff1690565b34801561030f575f80fd5b506101c26107a7565b348015610323575f80fd5b506101c2610332366004611890565b6107d8565b348015610342575f80fd5b506101c261091d565b348015610356575f80fd5b5061022d610365366004611890565b61094a565b348015610375575f80fd5b506101c26109a6565b348015610389575f80fd5b50600e5461022d565b34801561039d575f80fd5b506101c26103ac366004611890565b610a2b565b3480156103bc575f80fd5b50600a5461010090046001600160a01b03165b6040516001600160a01b0390911681526020016101e5565b3480156103f2575f80fd5b506101d8610a6c565b348015610406575f80fd5b506013546103cf906001600160a01b031681565b348015610425575f80fd5b5061020d61043436600461182f565b610a7b565b348015610444575f80fd5b5061020d610453366004611890565b6001600160a01b03165f9081526008602052604090205460ff1690565b34801561047b575f80fd5b506012546001600160a01b03166103cf565b348015610498575f80fd5b5061022d6104a73660046118db565b6001600160a01b039182165f90815260016020908152604080832093909416825291909152205490565b3480156104dc575f80fd5b506101c26104eb366004611890565b610a88565b3480156104fb575f80fd5b5060105461022d565b34801561050f575f80fd5b506101c261051e366004611890565b610ace565b335f8181526008602052604090205460ff161561059c5760405162461bcd60e51b815260206004820152602c60248201527f4578636c75646564206164647265737365732063616e6e6f742063616c6c207460448201526b3434b990333ab731ba34b7b760a11b60648201526084015b60405180910390fd5b5f6105a683610c74565b5050506001600160a01b0383165f908152600560205260409020549091506105cf908290611920565b6001600160a01b0383165f90815260056020526040902055600c546105f5908290611920565b600c55600d54610606908490611933565b600d55505050565b60606003805461061d90611946565b80601f016020809104026020016040519081016040528092919081815260200182805461064990611946565b80156106945780601f1061066b57610100808354040283529160200191610694565b820191905f5260205f20905b81548152906001019060200180831161067757829003601f168201915b5050505050905090565b5f336106ab818585610cc5565b60019150505b92915050565b5f336106c4858285610cd7565b6106cf858585610d53565b506001949350505050565b600a54339061010090046001600160a01b03166001600160a01b03160361071e576001600160a01b0381165f908152600760205260409020805460ff191660011790555b50565b5f600b548311156107745760405162461bcd60e51b815260206004820152601f60248201527f416d6f756e74206d757374206265206c657373207468616e20737570706c79006044820152606401610593565b81610790575f61078384610c74565b509193506106b192505050565b5f61079a84610c74565b509093506106b192505050565b600a54339061010090046001600160a01b03166001600160a01b0316036107d6576015805460ff191660011790555b565b600a54339061010090046001600160a01b03166001600160a01b03160361071e576001600160a01b0381165f9081526008602052604090205460ff16156108615760405162461bcd60e51b815260206004820152601b60248201527f4163636f756e7420697320616c7265616479206578636c7564656400000000006044820152606401610593565b6001600160a01b0381165f90815260056020526040902054156108b8576001600160a01b0381165f9081526005602052604090205461089f90610f8a565b6001600160a01b0382165f908152600660205260409020555b6001600160a01b03165f818152600860205260408120805460ff191660019081179091556009805491820181559091527f6e1540171b6c0c960b71a7020d9f60077f6af931a8bbf590da0223dacf75c7af0180546001600160a01b0319169091179055565b600a54339061010090046001600160a01b03166001600160a01b0316036107d6576015805460ff19169055565b6001600160a01b0381165f9081526008602052604081205460ff161561098557506001600160a01b03165f9081526006602052604090205490565b6001600160a01b0382165f908152600560205260409020546106b190610f8a565b600a54339061010090046001600160a01b03166001600160a01b0316036107d657600a5461010090046001600160a01b0316610a185760405162461bcd60e51b8152602060048201526011602482015270185b1c9958591e481c995b9bdd5b98d959607a1b6044820152606401610593565b600a8054610100600160a81b0319169055565b600a54339061010090046001600160a01b03166001600160a01b03160361071e57601380546001600160a01b0383166001600160a01b031990911617905550565b60606004805461061d90611946565b5f336106ab818585610d53565b600a54339061010090046001600160a01b03166001600160a01b03160361071e57600a80546001600160a01b03831661010002610100600160a81b031990911617905550565b600a54339061010090046001600160a01b03166001600160a01b03160361071e576001600160a01b0381165f9081526008602052604090205460ff16610b565760405162461bcd60e51b815260206004820152601b60248201527f4163636f756e7420697320616c726561647920696e636c7564656400000000006044820152606401610593565b5f5b600954811015610c7057816001600160a01b031660098281548110610b7f57610b7f61197e565b5f918252602090912001546001600160a01b031603610c5e5760098054610ba890600190611920565b81548110610bb857610bb861197e565b5f91825260209091200154600980546001600160a01b039092169183908110610be357610be361197e565b5f91825260208083209190910180546001600160a01b0319166001600160a01b039485161790559184168152600682526040808220829055600890925220805460ff191690556009805480610c3a57610c3a611992565b5f8281526020902081015f1990810180546001600160a01b03191690550190555050565b80610c68816119a6565b915050610b58565b5050565b5f805f805f610c828661100c565b90505f610c8f8288611920565b90505f610c9a61103f565b90505f610ca782846119be565b90505f610cb4838b6119be565b9a9199509297509095509350505050565b610cd28383836001611060565b505050565b6001600160a01b038381165f908152600160209081526040808320938616835292905220545f19811015610d4d5781811015610d3f57604051637dc7a0d960e11b81526001600160a01b03841660048201526024810182905260448101839052606401610593565b610d4d84848484035f611060565b50505050565b6001600160a01b038316610db75760405162461bcd60e51b815260206004820152602560248201527f45524332303a207472616e736665722066726f6d20746865207a65726f206164604482015264647265737360d81b6064820152608401610593565b6001600160a01b038216610e195760405162461bcd60e51b815260206004820152602360248201527f45524332303a207472616e7366657220746f20746865207a65726f206164647260448201526265737360e81b6064820152608401610593565b5f610e238461094a565b905081811015610e845760405162461bcd60e51b815260206004820152602660248201527f45524332303a207472616e7366657220616d6f756e7420657863656564732062604482015265616c616e636560d01b6064820152608401610593565b600a546001600160a01b038581166101009092041614801590610eb557506012546001600160a01b03858116911614155b8015610ec3575060155460ff165b15610f205760145482610ed58561094a565b610edf9190611933565b1115610f205760405162461bcd60e51b815260206004820152601060248201526f5768616c65206465746563746564212160801b6044820152606401610593565b6013545f906001600160a01b0386811691161480610f4b57506013546001600160a01b038581169116145b15610f54575060015b6001600160a01b0385165f9081526007602052604090205460ff1615610f7757505f5b610f8385858584611132565b5050505050565b5f600c54821115610ff05760405162461bcd60e51b815260206004820152602a60248201527f416d6f756e74206d757374206265206c657373207468616e20746f74616c207260448201526965666c656374696f6e7360b01b6064820152608401610593565b5f610ff961103f565b905061100581846119d5565b9392505050565b5f80601054600e5461101e9190611933565b90505f606461102d83866119be565b61103791906119d5565b949350505050565b5f805f61104a6112a1565b909250905061105981836119d5565b9250505090565b6001600160a01b0384166110895760405163e602df0560e01b81525f6004820152602401610593565b6001600160a01b0383166110b257604051634a1406b160e11b81525f6004820152602401610593565b6001600160a01b038085165f9081526001602090815260408083209387168352929052208290558015610d4d57826001600160a01b0316846001600160a01b03167f8c5be1e5ebec7d5bd14f71427d1e84f3dd0314c0f7b2291e5b200ac8c7c3b9258460405161112491815260200190565b60405180910390a350505050565b8061113f5761113f61141b565b6001600160a01b0384165f9081526008602052604090205460ff16801561117e57506001600160a01b0383165f9081526008602052604090205460ff16155b156111935761118e848484611448565b61128b565b6001600160a01b0384165f9081526008602052604090205460ff161580156111d257506001600160a01b0383165f9081526008602052604090205460ff165b156111e25761118e848484611563565b6001600160a01b0384165f9081526008602052604090205460ff1615801561122257506001600160a01b0383165f9081526008602052604090205460ff16155b156112325761118e848484611602565b6001600160a01b0384165f9081526008602052604090205460ff16801561127057506001600160a01b0383165f9081526008602052604090205460ff165b156112805761118e84848461163c565b61128b848484611602565b80610d4d57610d4d600f54600e55601154601055565b600c54600b545f918291825b6009548110156113ea578260055f600984815481106112ce576112ce61197e565b5f9182526020808320909101546001600160a01b03168352820192909252604001902054118061133657508160065f600984815481106113105761131061197e565b5f9182526020808320909101546001600160a01b03168352820192909252604001902054115b1561134c57600c54600b54945094505050509091565b60055f600983815481106113625761136261197e565b5f9182526020808320909101546001600160a01b031683528201929092526040019020546113909084611920565b925060065f600983815481106113a8576113a861197e565b5f9182526020808320909101546001600160a01b031683528201929092526040019020546113d69083611920565b9150806113e2816119a6565b9150506112ad565b50600b54600c546113fb91906119d5565b82101561141257600c54600b549350935050509091565b90939092509050565b600e5415801561142b5750601054155b1561143257565b600e8054600f55601080546011555f9182905555565b5f805f8061145585610c74565b6001600160a01b038b165f9081526006602052604090205493975091955093509150611482908690611920565b6001600160a01b0388165f908152600660209081526040808320939093556005905220546114b1908590611920565b6001600160a01b038089165f9081526005602052604080822093909355908816815220546114e0908490611933565b6001600160a01b0387165f908152600560205260409020556115038786836116a5565b61150d8582611760565b856001600160a01b0316876001600160a01b03167fddf252ad1be2c89b69c2b068fc378daa952ba7f163c4a11628f55a4df523b3ef8460405161155291815260200190565b60405180910390a350505050505050565b5f805f8061157085610c74565b6001600160a01b038b165f908152600560205260409020549397509195509350915061159d908590611920565b6001600160a01b038089165f908152600560209081526040808320949094559189168152600690915220546115d3908390611933565b6001600160a01b0387165f908152600660209081526040808320939093556005905220546114e0908490611933565b5f805f8061160f85610c74565b6001600160a01b038b165f90815260056020526040902054939750919550935091506114b1908590611920565b5f805f8061164985610c74565b6001600160a01b038b165f9081526006602052604090205493975091955093509150611676908690611920565b6001600160a01b0388165f9081526006602090815260408083209390935560059052205461159d908590611920565b5f6064601054846116b691906119be565b6116c091906119d5565b90508015610d4d575f6116d383836119be565b6012546001600160a01b03165f908152600560205260409020549091506116fb908290611933565b601280546001600160a01b039081165f90815260056020908152604091829020949094559154915185815291811692908816917fddf252ad1be2c89b69c2b068fc378daa952ba7f163c4a11628f55a4df523b3ef910160405180910390a35050505050565b5f6064600e548461177191906119be565b61177b91906119d5565b90505f61178883836119be565b905080600c546117989190611920565b600c55600d546117a9908390611933565b600d5550505050565b5f602082840312156117c2575f80fd5b5035919050565b5f6020808352835180828501525f5b818110156117f4578581018301518582016040015282016117d8565b505f604082860101526040601f19601f8301168501019250505092915050565b80356001600160a01b038116811461182a575f80fd5b919050565b5f8060408385031215611840575f80fd5b61184983611814565b946020939093013593505050565b5f805f60608486031215611869575f80fd5b61187284611814565b925061188060208501611814565b9150604084013590509250925092565b5f602082840312156118a0575f80fd5b61100582611814565b5f80604083850312156118ba575f80fd5b82359150602083013580151581146118d0575f80fd5b809150509250929050565b5f80604083850312156118ec575f80fd5b6118f583611814565b915061190360208401611814565b90509250929050565b634e487b7160e01b5f52601160045260245ffd5b818103818111156106b1576106b161190c565b808201808211156106b1576106b161190c565b600181811c9082168061195a57607f821691505b60208210810361197857634e487b7160e01b5f52602260045260245ffd5b50919050565b634e487b7160e01b5f52603260045260245ffd5b634e487b7160e01b5f52603160045260245ffd5b5f600182016119b7576119b761190c565b5060010190565b80820281158282048414176106b1576106b161190c565b5f826119ef57634e487b7160e01b5f52601260045260245ffd5b50049056fea2646970667358221220ab85f0542cd11c51f3e18c8037bd49f28e828f82b915f7208c0e0cf6fdcfb53364736f6c63430008140033",
					"opcodes": "PUSH1 0x80 PUSH1 0x40 MSTORE PUSH1 0xA DUP1 SLOAD PUSH2 0x100 PUSH1 0x1 PUSH1 0xA8 SHL SUB NOT AND CALLER PUSH2 0x100 MUL OR SWAP1 SSTORE PUSH0 PUSH1 0xD SSTORE PUSH1 0x15 DUP1 SLOAD PUSH1 0xFF NOT AND SWAP1 SSTORE CALLVALUE DUP1 ISZERO PUSH3 0x35 JUMPI PUSH0 DUP1 REVERT JUMPDEST POP PUSH1 0x40 MLOAD DUP1 PUSH1 0x40 ADD PUSH1 0x40 MSTORE DUP1 PUSH1 0x8 DUP2 MSTORE PUSH1 0x20 ADD PUSH8 0x30B1319031B7B4B7 PUSH1 0xC1 SHL DUP2 MSTORE POP PUSH1 0x40 MLOAD DUP1 PUSH1 0x40 ADD PUSH1 0x40 MSTORE DUP1 PUSH1 0x5 DUP2 MSTORE PUSH1 0x20 ADD PUSH5 0x4359424343 PUSH1 0xD8 SHL DUP2 MSTORE POP DUP2 PUSH1 0x3 SWAP1 DUP2 PUSH3 0x86 SWAP2 SWAP1 PUSH3 0x3F2 JUMP JUMPDEST POP PUSH1 0x4 PUSH3 0x95 DUP3 DUP3 PUSH3 0x3F2 JUMP JUMPDEST POP POP PUSH1 0xA DUP1 SLOAD PUSH1 0xFF NOT AND PUSH1 0x12 SWAP1 DUP2 OR DUP3 SSTORE PUSH3 0xB3 SWAP3 POP SWAP1 PUSH3 0x5C9 JUMP JUMPDEST PUSH3 0xC3 SWAP1 PUSH4 0x3B9ACA00 PUSH3 0x5DD JUMP JUMPDEST PUSH1 0xB DUP2 SWAP1 SSTORE PUSH3 0xD5 SWAP1 PUSH0 NOT PUSH3 0x60B JUMP JUMPDEST PUSH3 0xE2 SWAP1 PUSH0 NOT PUSH3 0x621 JUMP JUMPDEST PUSH1 0xC SSTORE PUSH1 0x2 PUSH1 0xE DUP2 SWAP1 SSTORE PUSH1 0xF SSTORE PUSH1 0x1 PUSH1 0x10 DUP2 SWAP1 SSTORE PUSH1 0x11 SSTORE PUSH1 0xA SLOAD PUSH1 0x12 DUP1 SLOAD PUSH2 0x100 SWAP1 SWAP3 DIV PUSH1 0x1 PUSH1 0x1 PUSH1 0xA0 SHL SUB AND PUSH1 0x1 PUSH1 0x1 PUSH1 0xA0 SHL SUB NOT SWAP1 SWAP3 AND SWAP2 SWAP1 SWAP2 OR SWAP1 SSTORE PUSH1 0xB SLOAD PUSH3 0x132 SWAP1 PUSH1 0x64 SWAP1 PUSH3 0x637 JUMP JUMPDEST PUSH3 0x13F SWAP1 PUSH1 0x2 PUSH3 0x5DD JUMP JUMPDEST PUSH1 0x14 SSTORE PUSH1 0x1 PUSH1 0x7 PUSH0 PUSH3 0x15F PUSH1 0xA SLOAD PUSH2 0x100 SWAP1 DIV PUSH1 0x1 PUSH1 0x1 PUSH1 0xA0 SHL SUB AND SWAP1 JUMP JUMPDEST PUSH1 0x1 PUSH1 0x1 PUSH1 0xA0 SHL SUB SWAP1 DUP2 AND DUP3 MSTORE PUSH1 0x20 DUP1 DUP4 ADD SWAP4 SWAP1 SWAP4 MSTORE PUSH1 0x40 SWAP2 DUP3 ADD PUSH0 SWAP1 DUP2 KECCAK256 DUP1 SLOAD SWAP6 ISZERO ISZERO PUSH1 0xFF NOT SWAP7 DUP8 AND OR SWAP1 SSTORE PUSH1 0x12 SLOAD DUP3 AND DUP2 MSTORE PUSH1 0x7 DUP5 MSTORE DUP3 DUP2 KECCAK256 DUP1 SLOAD DUP7 AND PUSH1 0x1 SWAP1 DUP2 OR SWAP1 SWAP2 SSTORE ADDRESS DUP3 MSTORE DUP4 DUP3 KECCAK256 DUP1 SLOAD SWAP1 SWAP7 AND OR SWAP1 SWAP5 SSTORE PUSH1 0xC SLOAD PUSH1 0xA SLOAD PUSH2 0x100 SWAP1 DIV SWAP1 SWAP2 AND DUP5 MSTORE PUSH1 0x5 SWAP1 SWAP3 MSTORE SWAP1 SWAP2 KECCAK256 DUP2 SWAP1 SSTORE PUSH3 0x1DD SWAP1 CALLER SWAP1 PUSH3 0x1E3 JUMP JUMPDEST PUSH3 0x663 JUMP JUMPDEST PUSH1 0x1 PUSH1 0x1 PUSH1 0xA0 SHL SUB DUP3 AND PUSH3 0x212 JUMPI PUSH1 0x40 MLOAD PUSH4 0xEC442F05 PUSH1 0xE0 SHL DUP2 MSTORE PUSH0 PUSH1 0x4 DUP3 ADD MSTORE PUSH1 0x24 ADD JUMPDEST PUSH1 0x40 MLOAD DUP1 SWAP2 SUB SWAP1 REVERT JUMPDEST PUSH3 0x21F PUSH0 DUP4 DUP4 PUSH3 0x223 JUMP JUMPDEST POP POP JUMP JUMPDEST PUSH1 0x1 PUSH1 0x1 PUSH1 0xA0 SHL SUB DUP4 AND PUSH3 0x251 JUMPI DUP1 PUSH1 0x2 PUSH0 DUP3 DUP3 SLOAD PUSH3 0x245 SWAP2 SWAP1 PUSH3 0x64D JUMP JUMPDEST SWAP1 SWAP2 SSTORE POP PUSH3 0x2C3 SWAP1 POP JUMP JUMPDEST PUSH1 0x1 PUSH1 0x1 PUSH1 0xA0 SHL SUB DUP4 AND PUSH0 SWAP1 DUP2 MSTORE PUSH1 0x20 DUP2 SWAP1 MSTORE PUSH1 0x40 SWAP1 KECCAK256 SLOAD DUP2 DUP2 LT ISZERO PUSH3 0x2A5 JUMPI PUSH1 0x40 MLOAD PUSH4 0x391434E3 PUSH1 0xE2 SHL DUP2 MSTORE PUSH1 0x1 PUSH1 0x1 PUSH1 0xA0 SHL SUB DUP6 AND PUSH1 0x4 DUP3 ADD MSTORE PUSH1 0x24 DUP2 ADD DUP3 SWAP1 MSTORE PUSH1 0x44 DUP2 ADD DUP4 SWAP1 MSTORE PUSH1 0x64 ADD PUSH3 0x209 JUMP JUMPDEST PUSH1 0x1 PUSH1 0x1 PUSH1 0xA0 SHL SUB DUP5 AND PUSH0 SWAP1 DUP2 MSTORE PUSH1 0x20 DUP2 SWAP1 MSTORE PUSH1 0x40 SWAP1 KECCAK256 SWAP1 DUP3 SWAP1 SUB SWAP1 SSTORE JUMPDEST PUSH1 0x1 PUSH1 0x1 PUSH1 0xA0 SHL SUB DUP3 AND PUSH3 0x2E1 JUMPI PUSH1 0x2 DUP1 SLOAD DUP3 SWAP1 SUB SWAP1 SSTORE PUSH3 0x2FF JUMP JUMPDEST PUSH1 0x1 PUSH1 0x1 PUSH1 0xA0 SHL SUB DUP3 AND PUSH0 SWAP1 DUP2 MSTORE PUSH1 0x20 DUP2 SWAP1 MSTORE PUSH1 0x40 SWAP1 KECCAK256 DUP1 SLOAD DUP3 ADD SWAP1 SSTORE JUMPDEST DUP2 PUSH1 0x1 PUSH1 0x1 PUSH1 0xA0 SHL SUB AND DUP4 PUSH1 0x1 PUSH1 0x1 PUSH1 0xA0 SHL SUB AND PUSH32 0xDDF252AD1BE2C89B69C2B068FC378DAA952BA7F163C4A11628F55A4DF523B3EF DUP4 PUSH1 0x40 MLOAD PUSH3 0x345 SWAP2 DUP2 MSTORE PUSH1 0x20 ADD SWAP1 JUMP JUMPDEST PUSH1 0x40 MLOAD DUP1 SWAP2 SUB SWAP1 LOG3 POP POP POP JUMP JUMPDEST PUSH4 0x4E487B71 PUSH1 0xE0 SHL PUSH0 MSTORE PUSH1 0x41 PUSH1 0x4 MSTORE PUSH1 0x24 PUSH0 REVERT JUMPDEST PUSH1 0x1 DUP2 DUP2 SHR SWAP1 DUP3 AND DUP1 PUSH3 0x37B JUMPI PUSH1 0x7F DUP3 AND SWAP2 POP JUMPDEST PUSH1 0x20 DUP3 LT DUP2 SUB PUSH3 0x39A JUMPI PUSH4 0x4E487B71 PUSH1 0xE0 SHL PUSH0 MSTORE PUSH1 0x22 PUSH1 0x4 MSTORE PUSH1 0x24 PUSH0 REVERT JUMPDEST POP SWAP2 SWAP1 POP JUMP JUMPDEST PUSH1 0x1F DUP3 GT ISZERO PUSH3 0x3ED JUMPI PUSH0 DUP2 DUP2 MSTORE PUSH1 0x20 DUP2 KECCAK256 PUSH1 0x1F DUP6 ADD PUSH1 0x5 SHR DUP2 ADD PUSH1 0x20 DUP7 LT ISZERO PUSH3 0x3C8 JUMPI POP DUP1 JUMPDEST PUSH1 0x1F DUP6 ADD PUSH1 0x5 SHR DUP3 ADD SWAP2 POP JUMPDEST DUP2 DUP2 LT ISZERO PUSH3 0x3E9 JUMPI DUP3 DUP2 SSTORE PUSH1 0x1 ADD PUSH3 0x3D4 JUMP JUMPDEST POP POP POP JUMPDEST POP POP POP JUMP JUMPDEST DUP2 MLOAD PUSH1 0x1 PUSH1 0x1 PUSH1 0x40 SHL SUB DUP2 GT ISZERO PUSH3 0x40E JUMPI PUSH3 0x40E PUSH3 0x352 JUMP JUMPDEST PUSH3 0x426 DUP2 PUSH3 0x41F DUP5 SLOAD PUSH3 0x366 JUMP JUMPDEST DUP5 PUSH3 0x3A0 JUMP JUMPDEST PUSH1 0x20 DUP1 PUSH1 0x1F DUP4 GT PUSH1 0x1 DUP2 EQ PUSH3 0x45C JUMPI PUSH0 DUP5 ISZERO PUSH3 0x444 JUMPI POP DUP6 DUP4 ADD MLOAD JUMPDEST PUSH0 NOT PUSH1 0x3 DUP7 SWAP1 SHL SHR NOT AND PUSH1 0x1 DUP6 SWAP1 SHL OR DUP6 SSTORE PUSH3 0x3E9 JUMP JUMPDEST PUSH0 DUP6 DUP2 MSTORE PUSH1 0x20 DUP2 KECCAK256 PUSH1 0x1F NOT DUP7 AND SWAP2 JUMPDEST DUP3 DUP2 LT ISZERO PUSH3 0x48C JUMPI DUP9 DUP7 ADD MLOAD DUP3 SSTORE SWAP5 DUP5 ADD SWAP5 PUSH1 0x1 SWAP1 SWAP2 ADD SWAP1 DUP5 ADD PUSH3 0x46B JUMP JUMPDEST POP DUP6 DUP3 LT ISZERO PUSH3 0x4AA JUMPI DUP8 DUP6 ADD MLOAD PUSH0 NOT PUSH1 0x3 DUP9 SWAP1 SHL PUSH1 0xF8 AND SHR NOT AND DUP2 SSTORE JUMPDEST POP POP POP POP POP PUSH1 0x1 SWAP1 DUP2 SHL ADD SWAP1 SSTORE POP JUMP JUMPDEST PUSH4 0x4E487B71 PUSH1 0xE0 SHL PUSH0 MSTORE PUSH1 0x11 PUSH1 0x4 MSTORE PUSH1 0x24 PUSH0 REVERT JUMPDEST PUSH1 0x1 DUP2 DUP2 JUMPDEST DUP1 DUP6 GT ISZERO PUSH3 0x50E JUMPI DUP2 PUSH0 NOT DIV DUP3 GT ISZERO PUSH3 0x4F2 JUMPI PUSH3 0x4F2 PUSH3 0x4BA JUMP JUMPDEST DUP1 DUP6 AND ISZERO PUSH3 0x500 JUMPI SWAP2 DUP2 MUL SWAP2 JUMPDEST SWAP4 DUP5 SHR SWAP4 SWAP1 DUP1 MUL SWAP1 PUSH3 0x4D3 JUMP JUMPDEST POP SWAP3 POP SWAP3 SWAP1 POP JUMP JUMPDEST PUSH0 DUP3 PUSH3 0x526 JUMPI POP PUSH1 0x1 PUSH3 0x5C3 JUMP JUMPDEST DUP2 PUSH3 0x534 JUMPI POP PUSH0 PUSH3 0x5C3 JUMP JUMPDEST DUP2 PUSH1 0x1 DUP2 EQ PUSH3 0x54D JUMPI PUSH1 0x2 DUP2 EQ PUSH3 0x558 JUMPI PUSH3 0x578 JUMP JUMPDEST PUSH1 0x1 SWAP2 POP POP PUSH3 0x5C3 JUMP JUMPDEST PUSH1 0xFF DUP5 GT ISZERO PUSH3 0x56C JUMPI PUSH3 0x56C PUSH3 0x4BA JUMP JUMPDEST POP POP PUSH1 0x1 DUP3 SHL PUSH3 0x5C3 JUMP JUMPDEST POP PUSH1 0x20 DUP4 LT PUSH2 0x133 DUP4 LT AND PUSH1 0x4E DUP5 LT PUSH1 0xB DUP5 LT AND OR ISZERO PUSH3 0x59D JUMPI POP DUP2 DUP2 EXP PUSH3 0x5C3 JUMP JUMPDEST PUSH3 0x5A9 DUP4 DUP4 PUSH3 0x4CE JUMP JUMPDEST DUP1 PUSH0 NOT DIV DUP3 GT ISZERO PUSH3 0x5BF JUMPI PUSH3 0x5BF PUSH3 0x4BA JUMP JUMPDEST MUL SWAP1 POP JUMPDEST SWAP3 SWAP2 POP POP JUMP JUMPDEST PUSH0 PUSH3 0x5D6 DUP4 DUP4 PUSH3 0x516 JUMP JUMPDEST SWAP4 SWAP3 POP POP POP JUMP JUMPDEST DUP1 DUP3 MUL DUP2 ISZERO DUP3 DUP3 DIV DUP5 EQ OR PUSH3 0x5C3 JUMPI PUSH3 0x5C3 PUSH3 0x4BA JUMP JUMPDEST PUSH4 0x4E487B71 PUSH1 0xE0 SHL PUSH0 MSTORE PUSH1 0x12 PUSH1 0x4 MSTORE PUSH1 0x24 PUSH0 REVERT JUMPDEST PUSH0 DUP3 PUSH3 0x61C JUMPI PUSH3 0x61C PUSH3 0x5F7 JUMP JUMPDEST POP MOD SWAP1 JUMP JUMPDEST DUP2 DUP2 SUB DUP2 DUP2 GT ISZERO PUSH3 0x5C3 JUMPI PUSH3 0x5C3 PUSH3 0x4BA JUMP JUMPDEST PUSH0 DUP3 PUSH3 0x648 JUMPI PUSH3 0x648 PUSH3 0x5F7 JUMP JUMPDEST POP DIV SWAP1 JUMP JUMPDEST DUP1 DUP3 ADD DUP1 DUP3 GT ISZERO PUSH3 0x5C3 JUMPI PUSH3 0x5C3 PUSH3 0x4BA JUMP JUMPDEST PUSH2 0x1A2A DUP1 PUSH3 0x671 PUSH0 CODECOPY PUSH0 RETURN INVALID PUSH1 0x80 PUSH1 0x40 MSTORE PUSH1 0x4 CALLDATASIZE LT PUSH2 0x198 JUMPI PUSH0 CALLDATALOAD PUSH1 0xE0 SHR DUP1 PUSH4 0x70A08231 GT PUSH2 0xE7 JUMPI DUP1 PUSH4 0xA9059CBB GT PUSH2 0x87 JUMPI DUP1 PUSH4 0xDD62ED3E GT PUSH2 0x62 JUMPI DUP1 PUSH4 0xDD62ED3E EQ PUSH2 0x48D JUMPI DUP1 PUSH4 0xF2FDE38B EQ PUSH2 0x4D1 JUMPI DUP1 PUSH4 0xF66608FE EQ PUSH2 0x4F0 JUMPI DUP1 PUSH4 0xFDEB889F EQ PUSH2 0x504 JUMPI PUSH0 DUP1 REVERT JUMPDEST DUP1 PUSH4 0xA9059CBB EQ PUSH2 0x41A JUMPI DUP1 PUSH4 0xCBA0E996 EQ PUSH2 0x439 JUMPI DUP1 PUSH4 0xD12DC1C1 EQ PUSH2 0x470 JUMPI PUSH0 DUP1 REVERT JUMPDEST DUP1 PUSH4 0x8873B15F GT PUSH2 0xC2 JUMPI DUP1 PUSH4 0x8873B15F EQ PUSH2 0x392 JUMPI DUP1 PUSH4 0x8DA5CB5B EQ PUSH2 0x3B1 JUMPI DUP1 PUSH4 0x95D89B41 EQ PUSH2 0x3E7 JUMPI DUP1 PUSH4 0xA8B08982 EQ PUSH2 0x3FB JUMPI PUSH0 DUP1 REVERT JUMPDEST DUP1 PUSH4 0x70A08231 EQ PUSH2 0x34B JUMPI DUP1 PUSH4 0x715018A6 EQ PUSH2 0x36A JUMPI DUP1 PUSH4 0x83AD7994 EQ PUSH2 0x37E JUMPI PUSH0 DUP1 REVERT JUMPDEST DUP1 PUSH4 0x32035504 GT PUSH2 0x152 JUMPI DUP1 PUSH4 0x5342ACB4 GT PUSH2 0x12D JUMPI DUP1 PUSH4 0x5342ACB4 EQ PUSH2 0x2CD JUMPI DUP1 PUSH4 0x5C7FFC88 EQ PUSH2 0x304 JUMPI DUP1 PUSH4 0x6049876E EQ PUSH2 0x318 JUMPI DUP1 PUSH4 0x60C3AE84 EQ PUSH2 0x337 JUMPI PUSH0 DUP1 REVERT JUMPDEST DUP1 PUSH4 0x32035504 EQ PUSH2 0x27B JUMPI DUP1 PUSH4 0x437823EC EQ PUSH2 0x28F JUMPI DUP1 PUSH4 0x4549B039 EQ PUSH2 0x2AE JUMPI PUSH0 DUP1 REVERT JUMPDEST DUP1 PUSH4 0x53AB182 EQ PUSH2 0x1A3 JUMPI DUP1 PUSH4 0x6FDDE03 EQ PUSH2 0x1C4 JUMPI DUP1 PUSH4 0x95EA7B3 EQ PUSH2 0x1EE JUMPI DUP1 PUSH4 0x18160DDD EQ PUSH2 0x21D JUMPI DUP1 PUSH4 0x23B872DD EQ PUSH2 0x23B JUMPI DUP1 PUSH4 0x313CE567 EQ PUSH2 0x25A JUMPI PUSH0 DUP1 REVERT JUMPDEST CALLDATASIZE PUSH2 0x19F JUMPI STOP JUMPDEST PUSH0 DUP1 REVERT JUMPDEST CALLVALUE DUP1 ISZERO PUSH2 0x1AE JUMPI PUSH0 DUP1 REVERT JUMPDEST POP PUSH2 0x1C2 PUSH2 0x1BD CALLDATASIZE PUSH1 0x4 PUSH2 0x17B2 JUMP JUMPDEST PUSH2 0x523 JUMP JUMPDEST STOP JUMPDEST CALLVALUE DUP1 ISZERO PUSH2 0x1CF JUMPI PUSH0 DUP1 REVERT JUMPDEST POP PUSH2 0x1D8 PUSH2 0x60E JUMP JUMPDEST PUSH1 0x40 MLOAD PUSH2 0x1E5 SWAP2 SWAP1 PUSH2 0x17C9 JUMP JUMPDEST PUSH1 0x40 MLOAD DUP1 SWAP2 SUB SWAP1 RETURN JUMPDEST CALLVALUE DUP1 ISZERO PUSH2 0x1F9 JUMPI PUSH0 DUP1 REVERT JUMPDEST POP PUSH2 0x20D PUSH2 0x208 CALLDATASIZE PUSH1 0x4 PUSH2 0x182F JUMP JUMPDEST PUSH2 0x69E JUMP JUMPDEST PUSH1 0x40 MLOAD SWAP1 ISZERO ISZERO DUP2 MSTORE PUSH1 0x20 ADD PUSH2 0x1E5 JUMP JUMPDEST CALLVALUE DUP1 ISZERO PUSH2 0x228 JUMPI PUSH0 DUP1 REVERT JUMPDEST POP PUSH1 0xB SLOAD JUMPDEST PUSH1 0x40 MLOAD SWAP1 DUP2 MSTORE PUSH1 0x20 ADD PUSH2 0x1E5 JUMP JUMPDEST CALLVALUE DUP1 ISZERO PUSH2 0x246 JUMPI PUSH0 DUP1 REVERT JUMPDEST POP PUSH2 0x20D PUSH2 0x255 CALLDATASIZE PUSH1 0x4 PUSH2 0x1857 JUMP JUMPDEST PUSH2 0x6B7 JUMP JUMPDEST CALLVALUE DUP1 ISZERO PUSH2 0x265 JUMPI PUSH0 DUP1 REVERT JUMPDEST POP PUSH1 0xA SLOAD PUSH1 0x40 MLOAD PUSH1 0xFF SWAP1 SWAP2 AND DUP2 MSTORE PUSH1 0x20 ADD PUSH2 0x1E5 JUMP JUMPDEST CALLVALUE DUP1 ISZERO PUSH2 0x286 JUMPI PUSH0 DUP1 REVERT JUMPDEST POP PUSH1 0xD SLOAD PUSH2 0x22D JUMP JUMPDEST CALLVALUE DUP1 ISZERO PUSH2 0x29A JUMPI PUSH0 DUP1 REVERT JUMPDEST POP PUSH2 0x1C2 PUSH2 0x2A9 CALLDATASIZE PUSH1 0x4 PUSH2 0x1890 JUMP JUMPDEST PUSH2 0x6DA JUMP JUMPDEST CALLVALUE DUP1 ISZERO PUSH2 0x2B9 JUMPI PUSH0 DUP1 REVERT JUMPDEST POP PUSH2 0x22D PUSH2 0x2C8 CALLDATASIZE PUSH1 0x4 PUSH2 0x18A9 JUMP JUMPDEST PUSH2 0x721 JUMP JUMPDEST CALLVALUE DUP1 ISZERO PUSH2 0x2D8 JUMPI PUSH0 DUP1 REVERT JUMPDEST POP PUSH2 0x20D PUSH2 0x2E7 CALLDATASIZE PUSH1 0x4 PUSH2 0x1890 JUMP JUMPDEST PUSH1 0x1 PUSH1 0x1 PUSH1 0xA0 SHL SUB AND PUSH0 SWAP1 DUP2 MSTORE PUSH1 0x7 PUSH1 0x20 MSTORE PUSH1 0x40 SWAP1 KECCAK256 SLOAD PUSH1 0xFF AND SWAP1 JUMP JUMPDEST CALLVALUE DUP1 ISZERO PUSH2 0x30F JUMPI PUSH0 DUP1 REVERT JUMPDEST POP PUSH2 0x1C2 PUSH2 0x7A7 JUMP JUMPDEST CALLVALUE DUP1 ISZERO PUSH2 0x323 JUMPI PUSH0 DUP1 REVERT JUMPDEST POP PUSH2 0x1C2 PUSH2 0x332 CALLDATASIZE PUSH1 0x4 PUSH2 0x1890 JUMP JUMPDEST PUSH2 0x7D8 JUMP JUMPDEST CALLVALUE DUP1 ISZERO PUSH2 0x342 JUMPI PUSH0 DUP1 REVERT JUMPDEST POP PUSH2 0x1C2 PUSH2 0x91D JUMP JUMPDEST CALLVALUE DUP1 ISZERO PUSH2 0x356 JUMPI PUSH0 DUP1 REVERT JUMPDEST POP PUSH2 0x22D PUSH2 0x365 CALLDATASIZE PUSH1 0x4 PUSH2 0x1890 JUMP JUMPDEST PUSH2 0x94A JUMP JUMPDEST CALLVALUE DUP1 ISZERO PUSH2 0x375 JUMPI PUSH0 DUP1 REVERT JUMPDEST POP PUSH2 0x1C2 PUSH2 0x9A6 JUMP JUMPDEST CALLVALUE DUP1 ISZERO PUSH2 0x389 JUMPI PUSH0 DUP1 REVERT JUMPDEST POP PUSH1 0xE SLOAD PUSH2 0x22D JUMP JUMPDEST CALLVALUE DUP1 ISZERO PUSH2 0x39D JUMPI PUSH0 DUP1 REVERT JUMPDEST POP PUSH2 0x1C2 PUSH2 0x3AC CALLDATASIZE PUSH1 0x4 PUSH2 0x1890 JUMP JUMPDEST PUSH2 0xA2B JUMP JUMPDEST CALLVALUE DUP1 ISZERO PUSH2 0x3BC JUMPI PUSH0 DUP1 REVERT JUMPDEST POP PUSH1 0xA SLOAD PUSH2 0x100 SWAP1 DIV PUSH1 0x1 PUSH1 0x1 PUSH1 0xA0 SHL SUB AND JUMPDEST PUSH1 0x40 MLOAD PUSH1 0x1 PUSH1 0x1 PUSH1 0xA0 SHL SUB SWAP1 SWAP2 AND DUP2 MSTORE PUSH1 0x20 ADD PUSH2 0x1E5 JUMP JUMPDEST CALLVALUE DUP1 ISZERO PUSH2 0x3F2 JUMPI PUSH0 DUP1 REVERT JUMPDEST POP PUSH2 0x1D8 PUSH2 0xA6C JUMP JUMPDEST CALLVALUE DUP1 ISZERO PUSH2 0x406 JUMPI PUSH0 DUP1 REVERT JUMPDEST POP PUSH1 0x13 SLOAD PUSH2 0x3CF SWAP1 PUSH1 0x1 PUSH1 0x1 PUSH1 0xA0 SHL SUB AND DUP2 JUMP JUMPDEST CALLVALUE DUP1 ISZERO PUSH2 0x425 JUMPI PUSH0 DUP1 REVERT JUMPDEST POP PUSH2 0x20D PUSH2 0x434 CALLDATASIZE PUSH1 0x4 PUSH2 0x182F JUMP JUMPDEST PUSH2 0xA7B JUMP JUMPDEST CALLVALUE DUP1 ISZERO PUSH2 0x444 JUMPI PUSH0 DUP1 REVERT JUMPDEST POP PUSH2 0x20D PUSH2 0x453 CALLDATASIZE PUSH1 0x4 PUSH2 0x1890 JUMP JUMPDEST PUSH1 0x1 PUSH1 0x1 PUSH1 0xA0 SHL SUB AND PUSH0 SWAP1 DUP2 MSTORE PUSH1 0x8 PUSH1 0x20 MSTORE PUSH1 0x40 SWAP1 KECCAK256 SLOAD PUSH1 0xFF AND SWAP1 JUMP JUMPDEST CALLVALUE DUP1 ISZERO PUSH2 0x47B JUMPI PUSH0 DUP1 REVERT JUMPDEST POP PUSH1 0x12 SLOAD PUSH1 0x1 PUSH1 0x1 PUSH1 0xA0 SHL SUB AND PUSH2 0x3CF JUMP JUMPDEST CALLVALUE DUP1 ISZERO PUSH2 0x498 JUMPI PUSH0 DUP1 REVERT JUMPDEST POP PUSH2 0x22D PUSH2 0x4A7 CALLDATASIZE PUSH1 0x4 PUSH2 0x18DB JUMP JUMPDEST PUSH1 0x1 PUSH1 0x1 PUSH1 0xA0 SHL SUB SWAP2 DUP3 AND PUSH0 SWAP1 DUP2 MSTORE PUSH1 0x1 PUSH1 0x20 SWAP1 DUP2 MSTORE PUSH1 0x40 DUP1 DUP4 KECCAK256 SWAP4 SWAP1 SWAP5 AND DUP3 MSTORE SWAP2 SWAP1 SWAP2 MSTORE KECCAK256 SLOAD SWAP1 JUMP JUMPDEST CALLVALUE DUP1 ISZERO PUSH2 0x4DC JUMPI PUSH0 DUP1 REVERT JUMPDEST POP PUSH2 0x1C2 PUSH2 0x4EB CALLDATASIZE PUSH1 0x4 PUSH2 0x1890 JUMP JUMPDEST PUSH2 0xA88 JUMP JUMPDEST CALLVALUE DUP1 ISZERO PUSH2 0x4FB JUMPI PUSH0 DUP1 REVERT JUMPDEST POP PUSH1 0x10 SLOAD PUSH2 0x22D JUMP JUMPDEST CALLVALUE DUP1 ISZERO PUSH2 0x50F JUMPI PUSH0 DUP1 REVERT JUMPDEST POP PUSH2 0x1C2 PUSH2 0x51E CALLDATASIZE PUSH1 0x4 PUSH2 0x1890 JUMP JUMPDEST PUSH2 0xACE JUMP JUMPDEST CALLER PUSH0 DUP2 DUP2 MSTORE PUSH1 0x8 PUSH1 0x20 MSTORE PUSH1 0x40 SWAP1 KECCAK256 SLOAD PUSH1 0xFF AND ISZERO PUSH2 0x59C JUMPI PUSH1 0x40 MLOAD PUSH3 0x461BCD PUSH1 0xE5 SHL DUP2 MSTORE PUSH1 0x20 PUSH1 0x4 DUP3 ADD MSTORE PUSH1 0x2C PUSH1 0x24 DUP3 ADD MSTORE PUSH32 0x4578636C75646564206164647265737365732063616E6E6F742063616C6C2074 PUSH1 0x44 DUP3 ADD MSTORE PUSH12 0x3434B990333AB731BA34B7B7 PUSH1 0xA1 SHL PUSH1 0x64 DUP3 ADD MSTORE PUSH1 0x84 ADD JUMPDEST PUSH1 0x40 MLOAD DUP1 SWAP2 SUB SWAP1 REVERT JUMPDEST PUSH0 PUSH2 0x5A6 DUP4 PUSH2 0xC74 JUMP JUMPDEST POP POP POP PUSH1 0x1 PUSH1 0x1 PUSH1 0xA0 SHL SUB DUP4 AND PUSH0 SWAP1 DUP2 MSTORE PUSH1 0x5 PUSH1 0x20 MSTORE PUSH1 0x40 SWAP1 KECCAK256 SLOAD SWAP1 SWAP2 POP PUSH2 0x5CF SWAP1 DUP3 SWAP1 PUSH2 0x1920 JUMP JUMPDEST PUSH1 0x1 PUSH1 0x1 PUSH1 0xA0 SHL SUB DUP4 AND PUSH0 SWAP1 DUP2 MSTORE PUSH1 0x5 PUSH1 0x20 MSTORE PUSH1 0x40 SWAP1 KECCAK256 SSTORE PUSH1 0xC SLOAD PUSH2 0x5F5 SWAP1 DUP3 SWAP1 PUSH2 0x1920 JUMP JUMPDEST PUSH1 0xC SSTORE PUSH1 0xD SLOAD PUSH2 0x606 SWAP1 DUP5 SWAP1 PUSH2 0x1933 JUMP JUMPDEST PUSH1 0xD SSTORE POP POP POP JUMP JUMPDEST PUSH1 0x60 PUSH1 0x3 DUP1 SLOAD PUSH2 0x61D SWAP1 PUSH2 0x1946 JUMP JUMPDEST DUP1 PUSH1 0x1F ADD PUSH1 0x20 DUP1 SWAP2 DIV MUL PUSH1 0x20 ADD PUSH1 0x40 MLOAD SWAP1 DUP2 ADD PUSH1 0x40 MSTORE DUP1 SWAP3 SWAP2 SWAP1 DUP2 DUP2 MSTORE PUSH1 0x20 ADD DUP3 DUP1 SLOAD PUSH2 0x649 SWAP1 PUSH2 0x1946 JUMP JUMPDEST DUP1 ISZERO PUSH2 0x694 JUMPI DUP1 PUSH1 0x1F LT PUSH2 0x66B JUMPI PUSH2 0x100 DUP1 DUP4 SLOAD DIV MUL DUP4 MSTORE SWAP2 PUSH1 0x20 ADD SWAP2 PUSH2 0x694 JUMP JUMPDEST DUP3 ADD SWAP2 SWAP1 PUSH0 MSTORE PUSH1 0x20 PUSH0 KECCAK256 SWAP1 JUMPDEST DUP2 SLOAD DUP2 MSTORE SWAP1 PUSH1 0x1 ADD SWAP1 PUSH1 0x20 ADD DUP1 DUP4 GT PUSH2 0x677 JUMPI DUP3 SWAP1 SUB PUSH1 0x1F AND DUP3 ADD SWAP2 JUMPDEST POP POP POP POP POP SWAP1 POP SWAP1 JUMP JUMPDEST PUSH0 CALLER PUSH2 0x6AB DUP2 DUP6 DUP6 PUSH2 0xCC5 JUMP JUMPDEST PUSH1 0x1 SWAP2 POP POP JUMPDEST SWAP3 SWAP2 POP POP JUMP JUMPDEST PUSH0 CALLER PUSH2 0x6C4 DUP6 DUP3 DUP6 PUSH2 0xCD7 JUMP JUMPDEST PUSH2 0x6CF DUP6 DUP6 DUP6 PUSH2 0xD53 JUMP JUMPDEST POP PUSH1 0x1 SWAP5 SWAP4 POP POP POP POP JUMP JUMPDEST PUSH1 0xA SLOAD CALLER SWAP1 PUSH2 0x100 SWAP1 DIV PUSH1 0x1 PUSH1 0x1 PUSH1 0xA0 SHL SUB AND PUSH1 0x1 PUSH1 0x1 PUSH1 0xA0 SHL SUB AND SUB PUSH2 0x71E JUMPI PUSH1 0x1 PUSH1 0x1 PUSH1 0xA0 SHL SUB DUP2 AND PUSH0 SWAP1 DUP2 MSTORE PUSH1 0x7 PUSH1 0x20 MSTORE PUSH1 0x40 SWAP1 KECCAK256 DUP1 SLOAD PUSH1 0xFF NOT AND PUSH1 0x1 OR SWAP1 SSTORE JUMPDEST POP JUMP JUMPDEST PUSH0 PUSH1 0xB SLOAD DUP4 GT ISZERO PUSH2 0x774 JUMPI PUSH1 0x40 MLOAD PUSH3 0x461BCD PUSH1 0xE5 SHL DUP2 MSTORE PUSH1 0x20 PUSH1 0x4 DUP3 ADD MSTORE PUSH1 0x1F PUSH1 0x24 DUP3 ADD MSTORE PUSH32 0x416D6F756E74206D757374206265206C657373207468616E20737570706C7900 PUSH1 0x44 DUP3 ADD MSTORE PUSH1 0x64 ADD PUSH2 0x593 JUMP JUMPDEST DUP2 PUSH2 0x790 JUMPI PUSH0 PUSH2 0x783 DUP5 PUSH2 0xC74 JUMP JUMPDEST POP SWAP2 SWAP4 POP PUSH2 0x6B1 SWAP3 POP POP POP JUMP JUMPDEST PUSH0 PUSH2 0x79A DUP5 PUSH2 0xC74 JUMP JUMPDEST POP SWAP1 SWAP4 POP PUSH2 0x6B1 SWAP3 POP POP POP JUMP JUMPDEST PUSH1 0xA SLOAD CALLER SWAP1 PUSH2 0x100 SWAP1 DIV PUSH1 0x1 PUSH1 0x1 PUSH1 0xA0 SHL SUB AND PUSH1 0x1 PUSH1 0x1 PUSH1 0xA0 SHL SUB AND SUB PUSH2 0x7D6 JUMPI PUSH1 0x15 DUP1 SLOAD PUSH1 0xFF NOT AND PUSH1 0x1 OR SWAP1 SSTORE JUMPDEST JUMP JUMPDEST PUSH1 0xA SLOAD CALLER SWAP1 PUSH2 0x100 SWAP1 DIV PUSH1 0x1 PUSH1 0x1 PUSH1 0xA0 SHL SUB AND PUSH1 0x1 PUSH1 0x1 PUSH1 0xA0 SHL SUB AND SUB PUSH2 0x71E JUMPI PUSH1 0x1 PUSH1 0x1 PUSH1 0xA0 SHL SUB DUP2 AND PUSH0 SWAP1 DUP2 MSTORE PUSH1 0x8 PUSH1 0x20 MSTORE PUSH1 0x40 SWAP1 KECCAK256 SLOAD PUSH1 0xFF AND ISZERO PUSH2 0x861 JUMPI PUSH1 0x40 MLOAD PUSH3 0x461BCD PUSH1 0xE5 SHL DUP2 MSTORE PUSH1 0x20 PUSH1 0x4 DUP3 ADD MSTORE PUSH1 0x1B PUSH1 0x24 DUP3 ADD MSTORE PUSH32 0x4163636F756E7420697320616C7265616479206578636C756465640000000000 PUSH1 0x44 DUP3 ADD MSTORE PUSH1 0x64 ADD PUSH2 0x593 JUMP JUMPDEST PUSH1 0x1 PUSH1 0x1 PUSH1 0xA0 SHL SUB DUP2 AND PUSH0 SWAP1 DUP2 MSTORE PUSH1 0x5 PUSH1 0x20 MSTORE PUSH1 0x40 SWAP1 KECCAK256 SLOAD ISZERO PUSH2 0x8B8 JUMPI PUSH1 0x1 PUSH1 0x1 PUSH1 0xA0 SHL SUB DUP2 AND PUSH0 SWAP1 DUP2 MSTORE PUSH1 0x5 PUSH1 0x20 MSTORE PUSH1 0x40 SWAP1 KECCAK256 SLOAD PUSH2 0x89F SWAP1 PUSH2 0xF8A JUMP JUMPDEST PUSH1 0x1 PUSH1 0x1 PUSH1 0xA0 SHL SUB DUP3 AND PUSH0 SWAP1 DUP2 MSTORE PUSH1 0x6 PUSH1 0x20 MSTORE PUSH1 0x40 SWAP1 KECCAK256 SSTORE JUMPDEST PUSH1 0x1 PUSH1 0x1 PUSH1 0xA0 SHL SUB AND PUSH0 DUP2 DUP2 MSTORE PUSH1 0x8 PUSH1 0x20 MSTORE PUSH1 0x40 DUP2 KECCAK256 DUP1 SLOAD PUSH1 0xFF NOT AND PUSH1 0x1 SWAP1 DUP2 OR SWAP1 SWAP2 SSTORE PUSH1 0x9 DUP1 SLOAD SWAP2 DUP3 ADD DUP2 SSTORE SWAP1 SWAP2 MSTORE PUSH32 0x6E1540171B6C0C960B71A7020D9F60077F6AF931A8BBF590DA0223DACF75C7AF ADD DUP1 SLOAD PUSH1 0x1 PUSH1 0x1 PUSH1 0xA0 SHL SUB NOT AND SWAP1 SWAP2 OR SWAP1 SSTORE JUMP JUMPDEST PUSH1 0xA SLOAD CALLER SWAP1 PUSH2 0x100 SWAP1 DIV PUSH1 0x1 PUSH1 0x1 PUSH1 0xA0 SHL SUB AND PUSH1 0x1 PUSH1 0x1 PUSH1 0xA0 SHL SUB AND SUB PUSH2 0x7D6 JUMPI PUSH1 0x15 DUP1 SLOAD PUSH1 0xFF NOT AND SWAP1 SSTORE JUMP JUMPDEST PUSH1 0x1 PUSH1 0x1 PUSH1 0xA0 SHL SUB DUP2 AND PUSH0 SWAP1 DUP2 MSTORE PUSH1 0x8 PUSH1 0x20 MSTORE PUSH1 0x40 DUP2 KECCAK256 SLOAD PUSH1 0xFF AND ISZERO PUSH2 0x985 JUMPI POP PUSH1 0x1 PUSH1 0x1 PUSH1 0xA0 SHL SUB AND PUSH0 SWAP1 DUP2 MSTORE PUSH1 0x6 PUSH1 0x20 MSTORE PUSH1 0x40 SWAP1 KECCAK256 SLOAD SWAP1 JUMP JUMPDEST PUSH1 0x1 PUSH1 0x1 PUSH1 0xA0 SHL SUB DUP3 AND PUSH0 SWAP1 DUP2 MSTORE PUSH1 0x5 PUSH1 0x20 MSTORE PUSH1 0x40 SWAP1 KECCAK256 SLOAD PUSH2 0x6B1 SWAP1 PUSH2 0xF8A JUMP JUMPDEST PUSH1 0xA SLOAD CALLER SWAP1 PUSH2 0x100 SWAP1 DIV PUSH1 0x1 PUSH1 0x1 PUSH1 0xA0 SHL SUB AND PUSH1 0x1 PUSH1 0x1 PUSH1 0xA0 SHL SUB AND SUB PUSH2 0x7D6 JUMPI PUSH1 0xA SLOAD PUSH2 0x100 SWAP1 DIV PUSH1 0x1 PUSH1 0x1 PUSH1 0xA0 SHL SUB AND PUSH2 0xA18 JUMPI PUSH1 0x40 MLOAD PUSH3 0x461BCD PUSH1 0xE5 SHL DUP2 MSTORE PUSH1 0x20 PUSH1 0x4 DUP3 ADD MSTORE PUSH1 0x11 PUSH1 0x24 DUP3 ADD MSTORE PUSH17 0x185B1C9958591E481C995B9BDD5B98D959 PUSH1 0x7A SHL PUSH1 0x44 DUP3 ADD MSTORE PUSH1 0x64 ADD PUSH2 0x593 JUMP JUMPDEST PUSH1 0xA DUP1 SLOAD PUSH2 0x100 PUSH1 0x1 PUSH1 0xA8 SHL SUB NOT AND SWAP1 SSTORE JUMP JUMPDEST PUSH1 0xA SLOAD CALLER SWAP1 PUSH2 0x100 SWAP1 DIV PUSH1 0x1 PUSH1 0x1 PUSH1 0xA0 SHL SUB AND PUSH1 0x1 PUSH1 0x1 PUSH1 0xA0 SHL SUB AND SUB PUSH2 0x71E JUMPI PUSH1 0x13 DUP1 SLOAD PUSH1 0x1 PUSH1 0x1 PUSH1 0xA0 SHL SUB DUP4 AND PUSH1 0x1 PUSH1 0x1 PUSH1 0xA0 SHL SUB NOT SWAP1 SWAP2 AND OR SWAP1 SSTORE POP JUMP JUMPDEST PUSH1 0x60 PUSH1 0x4 DUP1 SLOAD PUSH2 0x61D SWAP1 PUSH2 0x1946 JUMP JUMPDEST PUSH0 CALLER PUSH2 0x6AB DUP2 DUP6 DUP6 PUSH2 0xD53 JUMP JUMPDEST PUSH1 0xA SLOAD CALLER SWAP1 PUSH2 0x100 SWAP1 DIV PUSH1 0x1 PUSH1 0x1 PUSH1 0xA0 SHL SUB AND PUSH1 0x1 PUSH1 0x1 PUSH1 0xA0 SHL SUB AND SUB PUSH2 0x71E JUMPI PUSH1 0xA DUP1 SLOAD PUSH1 0x1 PUSH1 0x1 PUSH1 0xA0 SHL SUB DUP4 AND PUSH2 0x100 MUL PUSH2 0x100 PUSH1 0x1 PUSH1 0xA8 SHL SUB NOT SWAP1 SWAP2 AND OR SWAP1 SSTORE POP JUMP JUMPDEST PUSH1 0xA SLOAD CALLER SWAP1 PUSH2 0x100 SWAP1 DIV PUSH1 0x1 PUSH1 0x1 PUSH1 0xA0 SHL SUB AND PUSH1 0x1 PUSH1 0x1 PUSH1 0xA0 SHL SUB AND SUB PUSH2 0x71E JUMPI PUSH1 0x1 PUSH1 0x1 PUSH1 0xA0 SHL SUB DUP2 AND PUSH0 SWAP1 DUP2 MSTORE PUSH1 0x8 PUSH1 0x20 MSTORE PUSH1 0x40 SWAP1 KECCAK256 SLOAD PUSH1 0xFF AND PUSH2 0xB56 JUMPI PUSH1 0x40 MLOAD PUSH3 0x461BCD PUSH1 0xE5 SHL DUP2 MSTORE PUSH1 0x20 PUSH1 0x4 DUP3 ADD MSTORE PUSH1 0x1B PUSH1 0x24 DUP3 ADD MSTORE PUSH32 0x4163636F756E7420697320616C726561647920696E636C756465640000000000 PUSH1 0x44 DUP3 ADD MSTORE PUSH1 0x64 ADD PUSH2 0x593 JUMP JUMPDEST PUSH0 JUMPDEST PUSH1 0x9 SLOAD DUP2 LT ISZERO PUSH2 0xC70 JUMPI DUP2 PUSH1 0x1 PUSH1 0x1 PUSH1 0xA0 SHL SUB AND PUSH1 0x9 DUP3 DUP2 SLOAD DUP2 LT PUSH2 0xB7F JUMPI PUSH2 0xB7F PUSH2 0x197E JUMP JUMPDEST PUSH0 SWAP2 DUP3 MSTORE PUSH1 0x20 SWAP1 SWAP2 KECCAK256 ADD SLOAD PUSH1 0x1 PUSH1 0x1 PUSH1 0xA0 SHL SUB AND SUB PUSH2 0xC5E JUMPI PUSH1 0x9 DUP1 SLOAD PUSH2 0xBA8 SWAP1 PUSH1 0x1 SWAP1 PUSH2 0x1920 JUMP JUMPDEST DUP2 SLOAD DUP2 LT PUSH2 0xBB8 JUMPI PUSH2 0xBB8 PUSH2 0x197E JUMP JUMPDEST PUSH0 SWAP2 DUP3 MSTORE PUSH1 0x20 SWAP1 SWAP2 KECCAK256 ADD SLOAD PUSH1 0x9 DUP1 SLOAD PUSH1 0x1 PUSH1 0x1 PUSH1 0xA0 SHL SUB SWAP1 SWAP3 AND SWAP2 DUP4 SWAP1 DUP2 LT PUSH2 0xBE3 JUMPI PUSH2 0xBE3 PUSH2 0x197E JUMP JUMPDEST PUSH0 SWAP2 DUP3 MSTORE PUSH1 0x20 DUP1 DUP4 KECCAK256 SWAP2 SWAP1 SWAP2 ADD DUP1 SLOAD PUSH1 0x1 PUSH1 0x1 PUSH1 0xA0 SHL SUB NOT AND PUSH1 0x1 PUSH1 0x1 PUSH1 0xA0 SHL SUB SWAP5 DUP6 AND OR SWAP1 SSTORE SWAP2 DUP5 AND DUP2 MSTORE PUSH1 0x6 DUP3 MSTORE PUSH1 0x40 DUP1 DUP3 KECCAK256 DUP3 SWAP1 SSTORE PUSH1 0x8 SWAP1 SWAP3 MSTORE KECCAK256 DUP1 SLOAD PUSH1 0xFF NOT AND SWAP1 SSTORE PUSH1 0x9 DUP1 SLOAD DUP1 PUSH2 0xC3A JUMPI PUSH2 0xC3A PUSH2 0x1992 JUMP JUMPDEST PUSH0 DUP3 DUP2 MSTORE PUSH1 0x20 SWAP1 KECCAK256 DUP2 ADD PUSH0 NOT SWAP1 DUP2 ADD DUP1 SLOAD PUSH1 0x1 PUSH1 0x1 PUSH1 0xA0 SHL SUB NOT AND SWAP1 SSTORE ADD SWAP1 SSTORE POP POP JUMP JUMPDEST DUP1 PUSH2 0xC68 DUP2 PUSH2 0x19A6 JUMP JUMPDEST SWAP2 POP POP PUSH2 0xB58 JUMP JUMPDEST POP POP JUMP JUMPDEST PUSH0 DUP1 PUSH0 DUP1 PUSH0 PUSH2 0xC82 DUP7 PUSH2 0x100C JUMP JUMPDEST SWAP1 POP PUSH0 PUSH2 0xC8F DUP3 DUP9 PUSH2 0x1920 JUMP JUMPDEST SWAP1 POP PUSH0 PUSH2 0xC9A PUSH2 0x103F JUMP JUMPDEST SWAP1 POP PUSH0 PUSH2 0xCA7 DUP3 DUP5 PUSH2 0x19BE JUMP JUMPDEST SWAP1 POP PUSH0 PUSH2 0xCB4 DUP4 DUP12 PUSH2 0x19BE JUMP JUMPDEST SWAP11 SWAP2 SWAP10 POP SWAP3 SWAP8 POP SWAP1 SWAP6 POP SWAP4 POP POP POP POP JUMP JUMPDEST PUSH2 0xCD2 DUP4 DUP4 DUP4 PUSH1 0x1 PUSH2 0x1060 JUMP JUMPDEST POP POP POP JUMP JUMPDEST PUSH1 0x1 PUSH1 0x1 PUSH1 0xA0 SHL SUB DUP4 DUP2 AND PUSH0 SWAP1 DUP2 MSTORE PUSH1 0x1 PUSH1 0x20 SWAP1 DUP2 MSTORE PUSH1 0x40 DUP1 DUP4 KECCAK256 SWAP4 DUP7 AND DUP4 MSTORE SWAP3 SWAP1 MSTORE KECCAK256 SLOAD PUSH0 NOT DUP2 LT ISZERO PUSH2 0xD4D JUMPI DUP2 DUP2 LT ISZERO PUSH2 0xD3F JUMPI PUSH1 0x40 MLOAD PUSH4 0x7DC7A0D9 PUSH1 0xE1 SHL DUP2 MSTORE PUSH1 0x1 PUSH1 0x1 PUSH1 0xA0 SHL SUB DUP5 AND PUSH1 0x4 DUP3 ADD MSTORE PUSH1 0x24 DUP2 ADD DUP3 SWAP1 MSTORE PUSH1 0x44 DUP2 ADD DUP4 SWAP1 MSTORE PUSH1 0x64 ADD PUSH2 0x593 JUMP JUMPDEST PUSH2 0xD4D DUP5 DUP5 DUP5 DUP5 SUB PUSH0 PUSH2 0x1060 JUMP JUMPDEST POP POP POP POP JUMP JUMPDEST PUSH1 0x1 PUSH1 0x1 PUSH1 0xA0 SHL SUB DUP4 AND PUSH2 0xDB7 JUMPI PUSH1 0x40 MLOAD PUSH3 0x461BCD PUSH1 0xE5 SHL DUP2 MSTORE PUSH1 0x20 PUSH1 0x4 DUP3 ADD MSTORE PUSH1 0x25 PUSH1 0x24 DUP3 ADD MSTORE PUSH32 0x45524332303A207472616E736665722066726F6D20746865207A65726F206164 PUSH1 0x44 DUP3 ADD MSTORE PUSH5 0x6472657373 PUSH1 0xD8 SHL PUSH1 0x64 DUP3 ADD MSTORE PUSH1 0x84 ADD PUSH2 0x593 JUMP JUMPDEST PUSH1 0x1 PUSH1 0x1 PUSH1 0xA0 SHL SUB DUP3 AND PUSH2 0xE19 JUMPI PUSH1 0x40 MLOAD PUSH3 0x461BCD PUSH1 0xE5 SHL DUP2 MSTORE PUSH1 0x20 PUSH1 0x4 DUP3 ADD MSTORE PUSH1 0x23 PUSH1 0x24 DUP3 ADD MSTORE PUSH32 0x45524332303A207472616E7366657220746F20746865207A65726F2061646472 PUSH1 0x44 DUP3 ADD MSTORE PUSH3 0x657373 PUSH1 0xE8 SHL PUSH1 0x64 DUP3 ADD MSTORE PUSH1 0x84 ADD PUSH2 0x593 JUMP JUMPDEST PUSH0 PUSH2 0xE23 DUP5 PUSH2 0x94A JUMP JUMPDEST SWAP1 POP DUP2 DUP2 LT ISZERO PUSH2 0xE84 JUMPI PUSH1 0x40 MLOAD PUSH3 0x461BCD PUSH1 0xE5 SHL DUP2 MSTORE PUSH1 0x20 PUSH1 0x4 DUP3 ADD MSTORE PUSH1 0x26 PUSH1 0x24 DUP3 ADD MSTORE PUSH32 0x45524332303A207472616E7366657220616D6F756E7420657863656564732062 PUSH1 0x44 DUP3 ADD MSTORE PUSH6 0x616C616E6365 PUSH1 0xD0 SHL PUSH1 0x64 DUP3 ADD MSTORE PUSH1 0x84 ADD PUSH2 0x593 JUMP JUMPDEST PUSH1 0xA SLOAD PUSH1 0x1 PUSH1 0x1 PUSH1 0xA0 SHL SUB DUP6 DUP2 AND PUSH2 0x100 SWAP1 SWAP3 DIV AND EQ DUP1 ISZERO SWAP1 PUSH2 0xEB5 JUMPI POP PUSH1 0x12 SLOAD PUSH1 0x1 PUSH1 0x1 PUSH1 0xA0 SHL SUB DUP6 DUP2 AND SWAP2 AND EQ ISZERO JUMPDEST DUP1 ISZERO PUSH2 0xEC3 JUMPI POP PUSH1 0x15 SLOAD PUSH1 0xFF AND JUMPDEST ISZERO PUSH2 0xF20 JUMPI PUSH1 0x14 SLOAD DUP3 PUSH2 0xED5 DUP6 PUSH2 0x94A JUMP JUMPDEST PUSH2 0xEDF SWAP2 SWAP1 PUSH2 0x1933 JUMP JUMPDEST GT ISZERO PUSH2 0xF20 JUMPI PUSH1 0x40 MLOAD PUSH3 0x461BCD PUSH1 0xE5 SHL DUP2 MSTORE PUSH1 0x20 PUSH1 0x4 DUP3 ADD MSTORE PUSH1 0x10 PUSH1 0x24 DUP3 ADD MSTORE PUSH16 0x5768616C652064657465637465642121 PUSH1 0x80 SHL PUSH1 0x44 DUP3 ADD MSTORE PUSH1 0x64 ADD PUSH2 0x593 JUMP JUMPDEST PUSH1 0x13 SLOAD PUSH0 SWAP1 PUSH1 0x1 PUSH1 0x1 PUSH1 0xA0 SHL SUB DUP7 DUP2 AND SWAP2 AND EQ DUP1 PUSH2 0xF4B JUMPI POP PUSH1 0x13 SLOAD PUSH1 0x1 PUSH1 0x1 PUSH1 0xA0 SHL SUB DUP6 DUP2 AND SWAP2 AND EQ JUMPDEST ISZERO PUSH2 0xF54 JUMPI POP PUSH1 0x1 JUMPDEST PUSH1 0x1 PUSH1 0x1 PUSH1 0xA0 SHL SUB DUP6 AND PUSH0 SWAP1 DUP2 MSTORE PUSH1 0x7 PUSH1 0x20 MSTORE PUSH1 0x40 SWAP1 KECCAK256 SLOAD PUSH1 0xFF AND ISZERO PUSH2 0xF77 JUMPI POP PUSH0 JUMPDEST PUSH2 0xF83 DUP6 DUP6 DUP6 DUP5 PUSH2 0x1132 JUMP JUMPDEST POP POP POP POP POP JUMP JUMPDEST PUSH0 PUSH1 0xC SLOAD DUP3 GT ISZERO PUSH2 0xFF0 JUMPI PUSH1 0x40 MLOAD PUSH3 0x461BCD PUSH1 0xE5 SHL DUP2 MSTORE PUSH1 0x20 PUSH1 0x4 DUP3 ADD MSTORE PUSH1 0x2A PUSH1 0x24 DUP3 ADD MSTORE PUSH32 0x416D6F756E74206D757374206265206C657373207468616E20746F74616C2072 PUSH1 0x44 DUP3 ADD MSTORE PUSH10 0x65666C656374696F6E73 PUSH1 0xB0 SHL PUSH1 0x64 DUP3 ADD MSTORE PUSH1 0x84 ADD PUSH2 0x593 JUMP JUMPDEST PUSH0 PUSH2 0xFF9 PUSH2 0x103F JUMP JUMPDEST SWAP1 POP PUSH2 0x1005 DUP2 DUP5 PUSH2 0x19D5 JUMP JUMPDEST SWAP4 SWAP3 POP POP POP JUMP JUMPDEST PUSH0 DUP1 PUSH1 0x10 SLOAD PUSH1 0xE SLOAD PUSH2 0x101E SWAP2 SWAP1 PUSH2 0x1933 JUMP JUMPDEST SWAP1 POP PUSH0 PUSH1 0x64 PUSH2 0x102D DUP4 DUP7 PUSH2 0x19BE JUMP JUMPDEST PUSH2 0x1037 SWAP2 SWAP1 PUSH2 0x19D5 JUMP JUMPDEST SWAP5 SWAP4 POP POP POP POP JUMP JUMPDEST PUSH0 DUP1 PUSH0 PUSH2 0x104A PUSH2 0x12A1 JUMP JUMPDEST SWAP1 SWAP3 POP SWAP1 POP PUSH2 0x1059 DUP2 DUP4 PUSH2 0x19D5 JUMP JUMPDEST SWAP3 POP POP POP SWAP1 JUMP JUMPDEST PUSH1 0x1 PUSH1 0x1 PUSH1 0xA0 SHL SUB DUP5 AND PUSH2 0x1089 JUMPI PUSH1 0x40 MLOAD PUSH4 0xE602DF05 PUSH1 0xE0 SHL DUP2 MSTORE PUSH0 PUSH1 0x4 DUP3 ADD MSTORE PUSH1 0x24 ADD PUSH2 0x593 JUMP JUMPDEST PUSH1 0x1 PUSH1 0x1 PUSH1 0xA0 SHL SUB DUP4 AND PUSH2 0x10B2 JUMPI PUSH1 0x40 MLOAD PUSH4 0x4A1406B1 PUSH1 0xE1 SHL DUP2 MSTORE PUSH0 PUSH1 0x4 DUP3 ADD MSTORE PUSH1 0x24 ADD PUSH2 0x593 JUMP JUMPDEST PUSH1 0x1 PUSH1 0x1 PUSH1 0xA0 SHL SUB DUP1 DUP6 AND PUSH0 SWAP1 DUP2 MSTORE PUSH1 0x1 PUSH1 0x20 SWAP1 DUP2 MSTORE PUSH1 0x40 DUP1 DUP4 KECCAK256 SWAP4 DUP8 AND DUP4 MSTORE SWAP3 SWAP1 MSTORE KECCAK256 DUP3 SWAP1 SSTORE DUP1 ISZERO PUSH2 0xD4D JUMPI DUP3 PUSH1 0x1 PUSH1 0x1 PUSH1 0xA0 SHL SUB AND DUP5 PUSH1 0x1 PUSH1 0x1 PUSH1 0xA0 SHL SUB AND PUSH32 0x8C5BE1E5EBEC7D5BD14F71427D1E84F3DD0314C0F7B2291E5B200AC8C7C3B925 DUP5 PUSH1 0x40 MLOAD PUSH2 0x1124 SWAP2 DUP2 MSTORE PUSH1 0x20 ADD SWAP1 JUMP JUMPDEST PUSH1 0x40 MLOAD DUP1 SWAP2 SUB SWAP1 LOG3 POP POP POP POP JUMP JUMPDEST DUP1 PUSH2 0x113F JUMPI PUSH2 0x113F PUSH2 0x141B JUMP JUMPDEST PUSH1 0x1 PUSH1 0x1 PUSH1 0xA0 SHL SUB DUP5 AND PUSH0 SWAP1 DUP2 MSTORE PUSH1 0x8 PUSH1 0x20 MSTORE PUSH1 0x40 SWAP1 KECCAK256 SLOAD PUSH1 0xFF AND DUP1 ISZERO PUSH2 0x117E JUMPI POP PUSH1 0x1 PUSH1 0x1 PUSH1 0xA0 SHL SUB DUP4 AND PUSH0 SWAP1 DUP2 MSTORE PUSH1 0x8 PUSH1 0x20 MSTORE PUSH1 0x40 SWAP1 KECCAK256 SLOAD PUSH1 0xFF AND ISZERO JUMPDEST ISZERO PUSH2 0x1193 JUMPI PUSH2 0x118E DUP5 DUP5 DUP5 PUSH2 0x1448 JUMP JUMPDEST PUSH2 0x128B JUMP JUMPDEST PUSH1 0x1 PUSH1 0x1 PUSH1 0xA0 SHL SUB DUP5 AND PUSH0 SWAP1 DUP2 MSTORE PUSH1 0x8 PUSH1 0x20 MSTORE PUSH1 0x40 SWAP1 KECCAK256 SLOAD PUSH1 0xFF AND ISZERO DUP1 ISZERO PUSH2 0x11D2 JUMPI POP PUSH1 0x1 PUSH1 0x1 PUSH1 0xA0 SHL SUB DUP4 AND PUSH0 SWAP1 DUP2 MSTORE PUSH1 0x8 PUSH1 0x20 MSTORE PUSH1 0x40 SWAP1 KECCAK256 SLOAD PUSH1 0xFF AND JUMPDEST ISZERO PUSH2 0x11E2 JUMPI PUSH2 0x118E DUP5 DUP5 DUP5 PUSH2 0x1563 JUMP JUMPDEST PUSH1 0x1 PUSH1 0x1 PUSH1 0xA0 SHL SUB DUP5 AND PUSH0 SWAP1 DUP2 MSTORE PUSH1 0x8 PUSH1 0x20 MSTORE PUSH1 0x40 SWAP1 KECCAK256 SLOAD PUSH1 0xFF AND ISZERO DUP1 ISZERO PUSH2 0x1222 JUMPI POP PUSH1 0x1 PUSH1 0x1 PUSH1 0xA0 SHL SUB DUP4 AND PUSH0 SWAP1 DUP2 MSTORE PUSH1 0x8 PUSH1 0x20 MSTORE PUSH1 0x40 SWAP1 KECCAK256 SLOAD PUSH1 0xFF AND ISZERO JUMPDEST ISZERO PUSH2 0x1232 JUMPI PUSH2 0x118E DUP5 DUP5 DUP5 PUSH2 0x1602 JUMP JUMPDEST PUSH1 0x1 PUSH1 0x1 PUSH1 0xA0 SHL SUB DUP5 AND PUSH0 SWAP1 DUP2 MSTORE PUSH1 0x8 PUSH1 0x20 MSTORE PUSH1 0x40 SWAP1 KECCAK256 SLOAD PUSH1 0xFF AND DUP1 ISZERO PUSH2 0x1270 JUMPI POP PUSH1 0x1 PUSH1 0x1 PUSH1 0xA0 SHL SUB DUP4 AND PUSH0 SWAP1 DUP2 MSTORE PUSH1 0x8 PUSH1 0x20 MSTORE PUSH1 0x40 SWAP1 KECCAK256 SLOAD PUSH1 0xFF AND JUMPDEST ISZERO PUSH2 0x1280 JUMPI PUSH2 0x118E DUP5 DUP5 DUP5 PUSH2 0x163C JUMP JUMPDEST PUSH2 0x128B DUP5 DUP5 DUP5 PUSH2 0x1602 JUMP JUMPDEST DUP1 PUSH2 0xD4D JUMPI PUSH2 0xD4D PUSH1 0xF SLOAD PUSH1 0xE SSTORE PUSH1 0x11 SLOAD PUSH1 0x10 SSTORE JUMP JUMPDEST PUSH1 0xC SLOAD PUSH1 0xB SLOAD PUSH0 SWAP2 DUP3 SWAP2 DUP3 JUMPDEST PUSH1 0x9 SLOAD DUP2 LT ISZERO PUSH2 0x13EA JUMPI DUP3 PUSH1 0x5 PUSH0 PUSH1 0x9 DUP5 DUP2 SLOAD DUP2 LT PUSH2 0x12CE JUMPI PUSH2 0x12CE PUSH2 0x197E JUMP JUMPDEST PUSH0 SWAP2 DUP3 MSTORE PUSH1 0x20 DUP1 DUP4 KECCAK256 SWAP1 SWAP2 ADD SLOAD PUSH1 0x1 PUSH1 0x1 PUSH1 0xA0 SHL SUB AND DUP4 MSTORE DUP3 ADD SWAP3 SWAP1 SWAP3 MSTORE PUSH1 0x40 ADD SWAP1 KECCAK256 SLOAD GT DUP1 PUSH2 0x1336 JUMPI POP DUP2 PUSH1 0x6 PUSH0 PUSH1 0x9 DUP5 DUP2 SLOAD DUP2 LT PUSH2 0x1310 JUMPI PUSH2 0x1310 PUSH2 0x197E JUMP JUMPDEST PUSH0 SWAP2 DUP3 MSTORE PUSH1 0x20 DUP1 DUP4 KECCAK256 SWAP1 SWAP2 ADD SLOAD PUSH1 0x1 PUSH1 0x1 PUSH1 0xA0 SHL SUB AND DUP4 MSTORE DUP3 ADD SWAP3 SWAP1 SWAP3 MSTORE PUSH1 0x40 ADD SWAP1 KECCAK256 SLOAD GT JUMPDEST ISZERO PUSH2 0x134C JUMPI PUSH1 0xC SLOAD PUSH1 0xB SLOAD SWAP5 POP SWAP5 POP POP POP POP SWAP1 SWAP2 JUMP JUMPDEST PUSH1 0x5 PUSH0 PUSH1 0x9 DUP4 DUP2 SLOAD DUP2 LT PUSH2 0x1362 JUMPI PUSH2 0x1362 PUSH2 0x197E JUMP JUMPDEST PUSH0 SWAP2 DUP3 MSTORE PUSH1 0x20 DUP1 DUP4 KECCAK256 SWAP1 SWAP2 ADD SLOAD PUSH1 0x1 PUSH1 0x1 PUSH1 0xA0 SHL SUB AND DUP4 MSTORE DUP3 ADD SWAP3 SWAP1 SWAP3 MSTORE PUSH1 0x40 ADD SWAP1 KECCAK256 SLOAD PUSH2 0x1390 SWAP1 DUP5 PUSH2 0x1920 JUMP JUMPDEST SWAP3 POP PUSH1 0x6 PUSH0 PUSH1 0x9 DUP4 DUP2 SLOAD DUP2 LT PUSH2 0x13A8 JUMPI PUSH2 0x13A8 PUSH2 0x197E JUMP JUMPDEST PUSH0 SWAP2 DUP3 MSTORE PUSH1 0x20 DUP1 DUP4 KECCAK256 SWAP1 SWAP2 ADD SLOAD PUSH1 0x1 PUSH1 0x1 PUSH1 0xA0 SHL SUB AND DUP4 MSTORE DUP3 ADD SWAP3 SWAP1 SWAP3 MSTORE PUSH1 0x40 ADD SWAP1 KECCAK256 SLOAD PUSH2 0x13D6 SWAP1 DUP4 PUSH2 0x1920 JUMP JUMPDEST SWAP2 POP DUP1 PUSH2 0x13E2 DUP2 PUSH2 0x19A6 JUMP JUMPDEST SWAP2 POP POP PUSH2 0x12AD JUMP JUMPDEST POP PUSH1 0xB SLOAD PUSH1 0xC SLOAD PUSH2 0x13FB SWAP2 SWAP1 PUSH2 0x19D5 JUMP JUMPDEST DUP3 LT ISZERO PUSH2 0x1412 JUMPI PUSH1 0xC SLOAD PUSH1 0xB SLOAD SWAP4 POP SWAP4 POP POP POP SWAP1 SWAP2 JUMP JUMPDEST SWAP1 SWAP4 SWAP1 SWAP3 POP SWAP1 POP JUMP JUMPDEST PUSH1 0xE SLOAD ISZERO DUP1 ISZERO PUSH2 0x142B JUMPI POP PUSH1 0x10 SLOAD ISZERO JUMPDEST ISZERO PUSH2 0x1432 JUMPI JUMP JUMPDEST PUSH1 0xE DUP1 SLOAD PUSH1 0xF SSTORE PUSH1 0x10 DUP1 SLOAD PUSH1 0x11 SSTORE PUSH0 SWAP2 DUP3 SWAP1 SSTORE SSTORE JUMP JUMPDEST PUSH0 DUP1 PUSH0 DUP1 PUSH2 0x1455 DUP6 PUSH2 0xC74 JUMP JUMPDEST PUSH1 0x1 PUSH1 0x1 PUSH1 0xA0 SHL SUB DUP12 AND PUSH0 SWAP1 DUP2 MSTORE PUSH1 0x6 PUSH1 0x20 MSTORE PUSH1 0x40 SWAP1 KECCAK256 SLOAD SWAP4 SWAP8 POP SWAP2 SWAP6 POP SWAP4 POP SWAP2 POP PUSH2 0x1482 SWAP1 DUP7 SWAP1 PUSH2 0x1920 JUMP JUMPDEST PUSH1 0x1 PUSH1 0x1 PUSH1 0xA0 SHL SUB DUP9 AND PUSH0 SWAP1 DUP2 MSTORE PUSH1 0x6 PUSH1 0x20 SWAP1 DUP2 MSTORE PUSH1 0x40 DUP1 DUP4 KECCAK256 SWAP4 SWAP1 SWAP4 SSTORE PUSH1 0x5 SWAP1 MSTORE KECCAK256 SLOAD PUSH2 0x14B1 SWAP1 DUP6 SWAP1 PUSH2 0x1920 JUMP JUMPDEST PUSH1 0x1 PUSH1 0x1 PUSH1 0xA0 SHL SUB DUP1 DUP10 AND PUSH0 SWAP1 DUP2 MSTORE PUSH1 0x5 PUSH1 0x20 MSTORE PUSH1 0x40 DUP1 DUP3 KECCAK256 SWAP4 SWAP1 SWAP4 SSTORE SWAP1 DUP9 AND DUP2 MSTORE KECCAK256 SLOAD PUSH2 0x14E0 SWAP1 DUP5 SWAP1 PUSH2 0x1933 JUMP JUMPDEST PUSH1 0x1 PUSH1 0x1 PUSH1 0xA0 SHL SUB DUP8 AND PUSH0 SWAP1 DUP2 MSTORE PUSH1 0x5 PUSH1 0x20 MSTORE PUSH1 0x40 SWAP1 KECCAK256 SSTORE PUSH2 0x1503 DUP8 DUP7 DUP4 PUSH2 0x16A5 JUMP JUMPDEST PUSH2 0x150D DUP6 DUP3 PUSH2 0x1760 JUMP JUMPDEST DUP6 PUSH1 0x1 PUSH1 0x1 PUSH1 0xA0 SHL SUB AND DUP8 PUSH1 0x1 PUSH1 0x1 PUSH1 0xA0 SHL SUB AND PUSH32 0xDDF252AD1BE2C89B69C2B068FC378DAA952BA7F163C4A11628F55A4DF523B3EF DUP5 PUSH1 0x40 MLOAD PUSH2 0x1552 SWAP2 DUP2 MSTORE PUSH1 0x20 ADD SWAP1 JUMP JUMPDEST PUSH1 0x40 MLOAD DUP1 SWAP2 SUB SWAP1 LOG3 POP POP POP POP POP POP POP JUMP JUMPDEST PUSH0 DUP1 PUSH0 DUP1 PUSH2 0x1570 DUP6 PUSH2 0xC74 JUMP JUMPDEST PUSH1 0x1 PUSH1 0x1 PUSH1 0xA0 SHL SUB DUP12 AND PUSH0 SWAP1 DUP2 MSTORE PUSH1 0x5 PUSH1 0x20 MSTORE PUSH1 0x40 SWAP1 KECCAK256 SLOAD SWAP4 SWAP8 POP SWAP2 SWAP6 POP SWAP4 POP SWAP2 POP PUSH2 0x159D SWAP1 DUP6 SWAP1 PUSH2 0x1920 JUMP JUMPDEST PUSH1 0x1 PUSH1 0x1 PUSH1 0xA0 SHL SUB DUP1 DUP10 AND PUSH0 SWAP1 DUP2 MSTORE PUSH1 0x5 PUSH1 0x20 SWAP1 DUP2 MSTORE PUSH1 0x40 DUP1 DUP4 KECCAK256 SWAP5 SWAP1 SWAP5 SSTORE SWAP2 DUP10 AND DUP2 MSTORE PUSH1 0x6 SWAP1 SWAP2 MSTORE KECCAK256 SLOAD PUSH2 0x15D3 SWAP1 DUP4 SWAP1 PUSH2 0x1933 JUMP JUMPDEST PUSH1 0x1 PUSH1 0x1 PUSH1 0xA0 SHL SUB DUP8 AND PUSH0 SWAP1 DUP2 MSTORE PUSH1 0x6 PUSH1 0x20 SWAP1 DUP2 MSTORE PUSH1 0x40 DUP1 DUP4 KECCAK256 SWAP4 SWAP1 SWAP4 SSTORE PUSH1 0x5 SWAP1 MSTORE KECCAK256 SLOAD PUSH2 0x14E0 SWAP1 DUP5 SWAP1 PUSH2 0x1933 JUMP JUMPDEST PUSH0 DUP1 PUSH0 DUP1 PUSH2 0x160F DUP6 PUSH2 0xC74 JUMP JUMPDEST PUSH1 0x1 PUSH1 0x1 PUSH1 0xA0 SHL SUB DUP12 AND PUSH0 SWAP1 DUP2 MSTORE PUSH1 0x5 PUSH1 0x20 MSTORE PUSH1 0x40 SWAP1 KECCAK256 SLOAD SWAP4 SWAP8 POP SWAP2 SWAP6 POP SWAP4 POP SWAP2 POP PUSH2 0x14B1 SWAP1 DUP6 SWAP1 PUSH2 0x1920 JUMP JUMPDEST PUSH0 DUP1 PUSH0 DUP1 PUSH2 0x1649 DUP6 PUSH2 0xC74 JUMP JUMPDEST PUSH1 0x1 PUSH1 0x1 PUSH1 0xA0 SHL SUB DUP12 AND PUSH0 SWAP1 DUP2 MSTORE PUSH1 0x6 PUSH1 0x20 MSTORE PUSH1 0x40 SWAP1 KECCAK256 SLOAD SWAP4 SWAP8 POP SWAP2 SWAP6 POP SWAP4 POP SWAP2 POP PUSH2 0x1676 SWAP1 DUP7 SWAP1 PUSH2 0x1920 JUMP JUMPDEST PUSH1 0x1 PUSH1 0x1 PUSH1 0xA0 SHL SUB DUP9 AND PUSH0 SWAP1 DUP2 MSTORE PUSH1 0x6 PUSH1 0x20 SWAP1 DUP2 MSTORE PUSH1 0x40 DUP1 DUP4 KECCAK256 SWAP4 SWAP1 SWAP4 SSTORE PUSH1 0x5 SWAP1 MSTORE KECCAK256 SLOAD PUSH2 0x159D SWAP1 DUP6 SWAP1 PUSH2 0x1920 JUMP JUMPDEST PUSH0 PUSH1 0x64 PUSH1 0x10 SLOAD DUP5 PUSH2 0x16B6 SWAP2 SWAP1 PUSH2 0x19BE JUMP JUMPDEST PUSH2 0x16C0 SWAP2 SWAP1 PUSH2 0x19D5 JUMP JUMPDEST SWAP1 POP DUP1 ISZERO PUSH2 0xD4D JUMPI PUSH0 PUSH2 0x16D3 DUP4 DUP4 PUSH2 0x19BE JUMP JUMPDEST PUSH1 0x12 SLOAD PUSH1 0x1 PUSH1 0x1 PUSH1 0xA0 SHL SUB AND PUSH0 SWAP1 DUP2 MSTORE PUSH1 0x5 PUSH1 0x20 MSTORE PUSH1 0x40 SWAP1 KECCAK256 SLOAD SWAP1 SWAP2 POP PUSH2 0x16FB SWAP1 DUP3 SWAP1 PUSH2 0x1933 JUMP JUMPDEST PUSH1 0x12 DUP1 SLOAD PUSH1 0x1 PUSH1 0x1 PUSH1 0xA0 SHL SUB SWAP1 DUP2 AND PUSH0 SWAP1 DUP2 MSTORE PUSH1 0x5 PUSH1 0x20 SWAP1 DUP2 MSTORE PUSH1 0x40 SWAP2 DUP3 SWAP1 KECCAK256 SWAP5 SWAP1 SWAP5 SSTORE SWAP2 SLOAD SWAP2 MLOAD DUP6 DUP2 MSTORE SWAP2 DUP2 AND SWAP3 SWAP1 DUP9 AND SWAP2 PUSH32 0xDDF252AD1BE2C89B69C2B068FC378DAA952BA7F163C4A11628F55A4DF523B3EF SWAP2 ADD PUSH1 0x40 MLOAD DUP1 SWAP2 SUB SWAP1 LOG3 POP POP POP POP POP JUMP JUMPDEST PUSH0 PUSH1 0x64 PUSH1 0xE SLOAD DUP5 PUSH2 0x1771 SWAP2 SWAP1 PUSH2 0x19BE JUMP JUMPDEST PUSH2 0x177B SWAP2 SWAP1 PUSH2 0x19D5 JUMP JUMPDEST SWAP1 POP PUSH0 PUSH2 0x1788 DUP4 DUP4 PUSH2 0x19BE JUMP JUMPDEST SWAP1 POP DUP1 PUSH1 0xC SLOAD PUSH2 0x1798 SWAP2 SWAP1 PUSH2 0x1920 JUMP JUMPDEST PUSH1 0xC SSTORE PUSH1 0xD SLOAD PUSH2 0x17A9 SWAP1 DUP4 SWAP1 PUSH2 0x1933 JUMP JUMPDEST PUSH1 0xD SSTORE POP POP POP POP JUMP JUMPDEST PUSH0 PUSH1 0x20 DUP3 DUP5 SUB SLT ISZERO PUSH2 0x17C2 JUMPI PUSH0 DUP1 REVERT JUMPDEST POP CALLDATALOAD SWAP2 SWAP1 POP JUMP JUMPDEST PUSH0 PUSH1 0x20 DUP1 DUP4 MSTORE DUP4 MLOAD DUP1 DUP3 DUP6 ADD MSTORE PUSH0 JUMPDEST DUP2 DUP2 LT ISZERO PUSH2 0x17F4 JUMPI DUP6 DUP2 ADD DUP4 ADD MLOAD DUP6 DUP3 ADD PUSH1 0x40 ADD MSTORE DUP3 ADD PUSH2 0x17D8 JUMP JUMPDEST POP PUSH0 PUSH1 0x40 DUP3 DUP7 ADD ADD MSTORE PUSH1 0x40 PUSH1 0x1F NOT PUSH1 0x1F DUP4 ADD AND DUP6 ADD ADD SWAP3 POP POP POP SWAP3 SWAP2 POP POP JUMP JUMPDEST DUP1 CALLDATALOAD PUSH1 0x1 PUSH1 0x1 PUSH1 0xA0 SHL SUB DUP2 AND DUP2 EQ PUSH2 0x182A JUMPI PUSH0 DUP1 REVERT JUMPDEST SWAP2 SWAP1 POP JUMP JUMPDEST PUSH0 DUP1 PUSH1 0x40 DUP4 DUP6 SUB SLT ISZERO PUSH2 0x1840 JUMPI PUSH0 DUP1 REVERT JUMPDEST PUSH2 0x1849 DUP4 PUSH2 0x1814 JUMP JUMPDEST SWAP5 PUSH1 0x20 SWAP4 SWAP1 SWAP4 ADD CALLDATALOAD SWAP4 POP POP POP JUMP JUMPDEST PUSH0 DUP1 PUSH0 PUSH1 0x60 DUP5 DUP7 SUB SLT ISZERO PUSH2 0x1869 JUMPI PUSH0 DUP1 REVERT JUMPDEST PUSH2 0x1872 DUP5 PUSH2 0x1814 JUMP JUMPDEST SWAP3 POP PUSH2 0x1880 PUSH1 0x20 DUP6 ADD PUSH2 0x1814 JUMP JUMPDEST SWAP2 POP PUSH1 0x40 DUP5 ADD CALLDATALOAD SWAP1 POP SWAP3 POP SWAP3 POP SWAP3 JUMP JUMPDEST PUSH0 PUSH1 0x20 DUP3 DUP5 SUB SLT ISZERO PUSH2 0x18A0 JUMPI PUSH0 DUP1 REVERT JUMPDEST PUSH2 0x1005 DUP3 PUSH2 0x1814 JUMP JUMPDEST PUSH0 DUP1 PUSH1 0x40 DUP4 DUP6 SUB SLT ISZERO PUSH2 0x18BA JUMPI PUSH0 DUP1 REVERT JUMPDEST DUP3 CALLDATALOAD SWAP2 POP PUSH1 0x20 DUP4 ADD CALLDATALOAD DUP1 ISZERO ISZERO DUP2 EQ PUSH2 0x18D0 JUMPI PUSH0 DUP1 REVERT JUMPDEST DUP1 SWAP2 POP POP SWAP3 POP SWAP3 SWAP1 POP JUMP JUMPDEST PUSH0 DUP1 PUSH1 0x40 DUP4 DUP6 SUB SLT ISZERO PUSH2 0x18EC JUMPI PUSH0 DUP1 REVERT JUMPDEST PUSH2 0x18F5 DUP4 PUSH2 0x1814 JUMP JUMPDEST SWAP2 POP PUSH2 0x1903 PUSH1 0x20 DUP5 ADD PUSH2 0x1814 JUMP JUMPDEST SWAP1 POP SWAP3 POP SWAP3 SWAP1 POP JUMP JUMPDEST PUSH4 0x4E487B71 PUSH1 0xE0 SHL PUSH0 MSTORE PUSH1 0x11 PUSH1 0x4 MSTORE PUSH1 0x24 PUSH0 REVERT JUMPDEST DUP2 DUP2 SUB DUP2 DUP2 GT ISZERO PUSH2 0x6B1 JUMPI PUSH2 0x6B1 PUSH2 0x190C JUMP JUMPDEST DUP1 DUP3 ADD DUP1 DUP3 GT ISZERO PUSH2 0x6B1 JUMPI PUSH2 0x6B1 PUSH2 0x190C JUMP JUMPDEST PUSH1 0x1 DUP2 DUP2 SHR SWAP1 DUP3 AND DUP1 PUSH2 0x195A JUMPI PUSH1 0x7F DUP3 AND SWAP2 POP JUMPDEST PUSH1 0x20 DUP3 LT DUP2 SUB PUSH2 0x1978 JUMPI PUSH4 0x4E487B71 PUSH1 0xE0 SHL PUSH0 MSTORE PUSH1 0x22 PUSH1 0x4 MSTORE PUSH1 0x24 PUSH0 REVERT JUMPDEST POP SWAP2 SWAP1 POP JUMP JUMPDEST PUSH4 0x4E487B71 PUSH1 0xE0 SHL PUSH0 MSTORE PUSH1 0x32 PUSH1 0x4 MSTORE PUSH1 0x24 PUSH0 REVERT JUMPDEST PUSH4 0x4E487B71 PUSH1 0xE0 SHL PUSH0 MSTORE PUSH1 0x31 PUSH1 0x4 MSTORE PUSH1 0x24 PUSH0 REVERT JUMPDEST PUSH0 PUSH1 0x1 DUP3 ADD PUSH2 0x19B7 JUMPI PUSH2 0x19B7 PUSH2 0x190C JUMP JUMPDEST POP PUSH1 0x1 ADD SWAP1 JUMP JUMPDEST DUP1 DUP3 MUL DUP2 ISZERO DUP3 DUP3 DIV DUP5 EQ OR PUSH2 0x6B1 JUMPI PUSH2 0x6B1 PUSH2 0x190C JUMP JUMPDEST PUSH0 DUP3 PUSH2 0x19EF JUMPI PUSH4 0x4E487B71 PUSH1 0xE0 SHL PUSH0 MSTORE PUSH1 0x12 PUSH1 0x4 MSTORE PUSH1 0x24 PUSH0 REVERT JUMPDEST POP DIV SWAP1 JUMP INVALID LOG2 PUSH5 0x6970667358 0x22 SLT KECCAK256 0xAB DUP6 CREATE SLOAD 0x2C 0xD1 SHR MLOAD RETURN 0xE1 DUP13 DUP1 CALLDATACOPY 0xBD 0x49 CALLCODE DUP15 DUP3 DUP16 DUP3 0xB9 ISZERO 0xF7 KECCAK256 DUP13 0xE 0xC 0xF6 REVERT 0xCF 0xB5 CALLER PUSH5 0x736F6C6343 STOP ADDMOD EQ STOP CALLER "
				},
				"gasEstimates": {
					"creation": {
						"codeDepositCost": "1339600",
						"executionCost": "infinite",
						"totalCost": "infinite"
					},
					"external": {
						"allowance(address,address)": "infinite",
						"approve(address,uint256)": "24780",
						"balanceOf(address)": "infinite",
						"changePairAddress(address)": "26778",
						"decimals()": "2422",
						"disbleAntiWhale()": "26643",
						"enableAntiWhale()": "26606",
						"excludeAccountFromReward(address)": "infinite",
						"excludeFromFee(address)": "26852",
						"getMarketingAndDevelopmentAccount()": "2419",
						"getTaxFee()": "2379",
						"includeAccountinReward(address)": "infinite",
						"isExcluded(address)": "2613",
						"isExcludedFromFee(address)": "2591",
						"name()": "infinite",
						"owner()": "2397",
						"pairAddress()": "2447",
						"reflect(uint256)": "infinite",
						"reflectionFee()": "2381",
						"reflectionFromToken(uint256,bool)": "infinite",
						"renounceOwnership()": "28758",
						"symbol()": "infinite",
						"totalFeesRedistributed()": "2337",
						"totalSupply()": "2370",
						"transfer(address,uint256)": "infinite",
						"transferFrom(address,address,uint256)": "infinite",
						"transferOwnership(address)": "26807"
					},
					"internal": {
						"_getCompleteTaxValue(uint256)": "infinite",
						"_getCurrentSupply()": "infinite",
						"_getRate()": "infinite",
						"_getTransferValues(uint256)": "infinite",
						"_reflectFee(uint256,uint256)": "infinite",
						"_tokenTransfer(address,address,uint256,bool)": "infinite",
						"_transfer(address,address,uint256)": "infinite",
						"_transferBothExcluded(address,address,uint256)": "infinite",
						"_transferFromExcluded(address,address,uint256)": "infinite",
						"_transferStandard(address,address,uint256)": "infinite",
						"_transferToExcluded(address,address,uint256)": "infinite",
						"removeAllFee()": "62689",
						"restoreAllFee()": "infinite",
						"taxFeeTransfer(address,uint256,uint256)": "infinite",
						"tokenFromReflection(uint256)": "infinite"
					}
				},
				"methodIdentifiers": {
					"allowance(address,address)": "dd62ed3e",
					"approve(address,uint256)": "095ea7b3",
					"balanceOf(address)": "70a08231",
					"changePairAddress(address)": "8873b15f",
					"decimals()": "313ce567",
					"disbleAntiWhale()": "60c3ae84",
					"enableAntiWhale()": "5c7ffc88",
					"excludeAccountFromReward(address)": "6049876e",
					"excludeFromFee(address)": "437823ec",
					"getMarketingAndDevelopmentAccount()": "d12dc1c1",
					"getTaxFee()": "f66608fe",
					"includeAccountinReward(address)": "fdeb889f",
					"isExcluded(address)": "cba0e996",
					"isExcludedFromFee(address)": "5342acb4",
					"name()": "06fdde03",
					"owner()": "8da5cb5b",
					"pairAddress()": "a8b08982",
					"reflect(uint256)": "053ab182",
					"reflectionFee()": "83ad7994",
					"reflectionFromToken(uint256,bool)": "4549b039",
					"renounceOwnership()": "715018a6",
					"symbol()": "95d89b41",
					"totalFeesRedistributed()": "32035504",
					"totalSupply()": "18160ddd",
					"transfer(address,uint256)": "a9059cbb",
					"transferFrom(address,address,uint256)": "23b872dd",
					"transferOwnership(address)": "f2fde38b"
				}
			},
			"storageLayout": {
				"storage": [
					{
						"astId": 184,
						"contract": "CYBCC.sol:CYBCC",
						"label": "_balances",
						"offset": 0,
						"slot": "0",
						"type": "t_mapping(t_address,t_uint256)"
					},
					{
						"astId": 190,
						"contract": "CYBCC.sol:CYBCC",
						"label": "_allowances",
						"offset": 0,
						"slot": "1",
						"type": "t_mapping(t_address,t_mapping(t_address,t_uint256))"
					},
					{
						"astId": 192,
						"contract": "CYBCC.sol:CYBCC",
						"label": "_totalSupply",
						"offset": 0,
						"slot": "2",
						"type": "t_uint256"
					},
					{
						"astId": 194,
						"contract": "CYBCC.sol:CYBCC",
						"label": "_name",
						"offset": 0,
						"slot": "3",
						"type": "t_string_storage"
					},
					{
						"astId": 196,
						"contract": "CYBCC.sol:CYBCC",
						"label": "_symbol",
						"offset": 0,
						"slot": "4",
						"type": "t_string_storage"
					},
					{
						"astId": 683,
						"contract": "CYBCC.sol:CYBCC",
						"label": "_rOwned",
						"offset": 0,
						"slot": "5",
						"type": "t_mapping(t_address,t_uint256)"
					},
					{
						"astId": 687,
						"contract": "CYBCC.sol:CYBCC",
						"label": "_tOwned",
						"offset": 0,
						"slot": "6",
						"type": "t_mapping(t_address,t_uint256)"
					},
					{
						"astId": 691,
						"contract": "CYBCC.sol:CYBCC",
						"label": "_isExcludedFromFee",
						"offset": 0,
						"slot": "7",
						"type": "t_mapping(t_address,t_bool)"
					},
					{
						"astId": 695,
						"contract": "CYBCC.sol:CYBCC",
						"label": "_isExcluded",
						"offset": 0,
						"slot": "8",
						"type": "t_mapping(t_address,t_bool)"
					},
					{
						"astId": 698,
						"contract": "CYBCC.sol:CYBCC",
						"label": "_excluded",
						"offset": 0,
						"slot": "9",
						"type": "t_array(t_address)dyn_storage"
					},
					{
						"astId": 700,
						"contract": "CYBCC.sol:CYBCC",
						"label": "_decimals",
						"offset": 0,
						"slot": "10",
						"type": "t_uint8"
					},
					{
						"astId": 704,
						"contract": "CYBCC.sol:CYBCC",
						"label": "_owner",
						"offset": 1,
						"slot": "10",
						"type": "t_address"
					},
					{
						"astId": 713,
						"contract": "CYBCC.sol:CYBCC",
						"label": "_tTotal",
						"offset": 0,
						"slot": "11",
						"type": "t_uint256"
					},
					{
						"astId": 715,
						"contract": "CYBCC.sol:CYBCC",
						"label": "_rTotal",
						"offset": 0,
						"slot": "12",
						"type": "t_uint256"
					},
					{
						"astId": 718,
						"contract": "CYBCC.sol:CYBCC",
						"label": "_tFeeTotal",
						"offset": 0,
						"slot": "13",
						"type": "t_uint256"
					},
					{
						"astId": 720,
						"contract": "CYBCC.sol:CYBCC",
						"label": "_reflectionFee",
						"offset": 0,
						"slot": "14",
						"type": "t_uint256"
					},
					{
						"astId": 722,
						"contract": "CYBCC.sol:CYBCC",
						"label": "_previousReflectionFee",
						"offset": 0,
						"slot": "15",
						"type": "t_uint256"
					},
					{
						"astId": 724,
						"contract": "CYBCC.sol:CYBCC",
						"label": "_taxFee",
						"offset": 0,
						"slot": "16",
						"type": "t_uint256"
					},
					{
						"astId": 726,
						"contract": "CYBCC.sol:CYBCC",
						"label": "_previousTaxFee",
						"offset": 0,
						"slot": "17",
						"type": "t_uint256"
					},
					{
						"astId": 728,
						"contract": "CYBCC.sol:CYBCC",
						"label": "_marketingAndDevelopmentAccount",
						"offset": 0,
						"slot": "18",
						"type": "t_address"
					},
					{
						"astId": 730,
						"contract": "CYBCC.sol:CYBCC",
						"label": "pairAddress",
						"offset": 0,
						"slot": "19",
						"type": "t_address"
					},
					{
						"astId": 732,
						"contract": "CYBCC.sol:CYBCC",
						"label": "maxWalletAmount",
						"offset": 0,
						"slot": "20",
						"type": "t_uint256"
					},
					{
						"astId": 735,
						"contract": "CYBCC.sol:CYBCC",
						"label": "antiWhale",
						"offset": 0,
						"slot": "21",
						"type": "t_bool"
					}
				],
				"types": {
					"t_address": {
						"encoding": "inplace",
						"label": "address",
						"numberOfBytes": "20"
					},
					"t_array(t_address)dyn_storage": {
						"base": "t_address",
						"encoding": "dynamic_array",
						"label": "address[]",
						"numberOfBytes": "32"
					},
					"t_bool": {
						"encoding": "inplace",
						"label": "bool",
						"numberOfBytes": "1"
					},
					"t_mapping(t_address,t_bool)": {
						"encoding": "mapping",
						"key": "t_address",
						"label": "mapping(address => bool)",
						"numberOfBytes": "32",
						"value": "t_bool"
					},
					"t_mapping(t_address,t_mapping(t_address,t_uint256))": {
						"encoding": "mapping",
						"key": "t_address",
						"label": "mapping(address => mapping(address => uint256))",
						"numberOfBytes": "32",
						"value": "t_mapping(t_address,t_uint256)"
					},
					"t_mapping(t_address,t_uint256)": {
						"encoding": "mapping",
						"key": "t_address",
						"label": "mapping(address => uint256)",
						"numberOfBytes": "32",
						"value": "t_uint256"
					},
					"t_string_storage": {
						"encoding": "bytes",
						"label": "string",
						"numberOfBytes": "32"
					},
					"t_uint256": {
						"encoding": "inplace",
						"label": "uint256",
						"numberOfBytes": "32"
					},
					"t_uint8": {
						"encoding": "inplace",
						"label": "uint8",
						"numberOfBytes": "1"
					}
				}
			},
			"userdoc": {
				"kind": "user",
				"methods": {},
				"version": 1
			}
		}
	}
}