{
	"CYBCC.sol": {
		"CYBCC": {
			"abi": [
				{
					"inputs": [],
					"stateMutability": "nonpayable",
					"type": "constructor"
				},
				{
					"inputs": [
						{
							"internalType": "address",
							"name": "spender",
							"type": "address"
						},
						{
							"internalType": "uint256",
							"name": "allowance",
							"type": "uint256"
						},
						{
							"internalType": "uint256",
							"name": "needed",
							"type": "uint256"
						}
					],
					"name": "ERC20InsufficientAllowance",
					"type": "error"
				},
				{
					"inputs": [
						{
							"internalType": "address",
							"name": "sender",
							"type": "address"
						},
						{
							"internalType": "uint256",
							"name": "balance",
							"type": "uint256"
						},
						{
							"internalType": "uint256",
							"name": "needed",
							"type": "uint256"
						}
					],
					"name": "ERC20InsufficientBalance",
					"type": "error"
				},
				{
					"inputs": [
						{
							"internalType": "address",
							"name": "approver",
							"type": "address"
						}
					],
					"name": "ERC20InvalidApprover",
					"type": "error"
				},
				{
					"inputs": [
						{
							"internalType": "address",
							"name": "receiver",
							"type": "address"
						}
					],
					"name": "ERC20InvalidReceiver",
					"type": "error"
				},
				{
					"inputs": [
						{
							"internalType": "address",
							"name": "sender",
							"type": "address"
						}
					],
					"name": "ERC20InvalidSender",
					"type": "error"
				},
				{
					"inputs": [
						{
							"internalType": "address",
							"name": "spender",
							"type": "address"
						}
					],
					"name": "ERC20InvalidSpender",
					"type": "error"
				},
				{
					"anonymous": false,
					"inputs": [
						{
							"indexed": true,
							"internalType": "address",
							"name": "owner",
							"type": "address"
						},
						{
							"indexed": true,
							"internalType": "address",
							"name": "spender",
							"type": "address"
						},
						{
							"indexed": false,
							"internalType": "uint256",
							"name": "value",
							"type": "uint256"
						}
					],
					"name": "Approval",
					"type": "event"
				},
				{
					"anonymous": false,
					"inputs": [
						{
							"indexed": true,
							"internalType": "address",
							"name": "from",
							"type": "address"
						},
						{
							"indexed": true,
							"internalType": "address",
							"name": "to",
							"type": "address"
						},
						{
							"indexed": false,
							"internalType": "uint256",
							"name": "value",
							"type": "uint256"
						}
					],
					"name": "Transfer",
					"type": "event"
				},
				{
					"inputs": [
						{
							"internalType": "address",
							"name": "owner",
							"type": "address"
						},
						{
							"internalType": "address",
							"name": "spender",
							"type": "address"
						}
					],
					"name": "allowance",
					"outputs": [
						{
							"internalType": "uint256",
							"name": "",
							"type": "uint256"
						}
					],
					"stateMutability": "view",
					"type": "function"
				},
				{
					"inputs": [
						{
							"internalType": "address",
							"name": "spender",
							"type": "address"
						},
						{
							"internalType": "uint256",
							"name": "value",
							"type": "uint256"
						}
					],
					"name": "approve",
					"outputs": [
						{
							"internalType": "bool",
							"name": "",
							"type": "bool"
						}
					],
					"stateMutability": "nonpayable",
					"type": "function"
				},
				{
					"inputs": [
						{
							"internalType": "address",
							"name": "sender",
							"type": "address"
						}
					],
					"name": "balanceOf",
					"outputs": [
						{
							"internalType": "uint256",
							"name": "",
							"type": "uint256"
						}
					],
					"stateMutability": "view",
					"type": "function"
				},
				{
					"inputs": [
						{
							"internalType": "address",
							"name": "newFeeAccount",
							"type": "address"
						}
					],
					"name": "changeDevelopmentAccount",
					"outputs": [],
					"stateMutability": "nonpayable",
					"type": "function"
				},
				{
					"inputs": [
						{
							"internalType": "address",
							"name": "newFeeAccount",
							"type": "address"
						}
					],
					"name": "changeMarketingAccount",
					"outputs": [],
					"stateMutability": "nonpayable",
					"type": "function"
				},
				{
					"inputs": [
						{
							"internalType": "address",
							"name": "_pairAddress",
							"type": "address"
						}
					],
					"name": "changePairAddress",
					"outputs": [],
					"stateMutability": "nonpayable",
					"type": "function"
				},
				{
					"inputs": [],
					"name": "decimals",
					"outputs": [
						{
							"internalType": "uint8",
							"name": "",
							"type": "uint8"
						}
					],
					"stateMutability": "view",
					"type": "function"
				},
				{
					"inputs": [
						{
							"internalType": "address",
							"name": "account",
							"type": "address"
						}
					],
					"name": "excludeAccountFromReward",
					"outputs": [],
					"stateMutability": "nonpayable",
					"type": "function"
				},
				{
					"inputs": [
						{
							"internalType": "address",
							"name": "account",
							"type": "address"
						}
					],
					"name": "excludeFromFee",
					"outputs": [],
					"stateMutability": "nonpayable",
					"type": "function"
				},
				{
					"inputs": [],
					"name": "getDevelopmentAccount",
					"outputs": [
						{
							"internalType": "address",
							"name": "",
							"type": "address"
						}
					],
					"stateMutability": "view",
					"type": "function"
				},
				{
					"inputs": [],
					"name": "getMarketingAccount",
					"outputs": [
						{
							"internalType": "address",
							"name": "",
							"type": "address"
						}
					],
					"stateMutability": "view",
					"type": "function"
				},
				{
					"inputs": [],
					"name": "getTaxFee",
					"outputs": [
						{
							"internalType": "uint256",
							"name": "",
							"type": "uint256"
						}
					],
					"stateMutability": "view",
					"type": "function"
				},
				{
					"inputs": [
						{
							"internalType": "address",
							"name": "account",
							"type": "address"
						}
					],
					"name": "includeAccountinReward",
					"outputs": [],
					"stateMutability": "nonpayable",
					"type": "function"
				},
				{
					"inputs": [
						{
							"internalType": "address",
							"name": "account",
							"type": "address"
						}
					],
					"name": "isExcluded",
					"outputs": [
						{
							"internalType": "bool",
							"name": "",
							"type": "bool"
						}
					],
					"stateMutability": "view",
					"type": "function"
				},
				{
					"inputs": [
						{
							"internalType": "address",
							"name": "account",
							"type": "address"
						}
					],
					"name": "isExcludedFromFee",
					"outputs": [
						{
							"internalType": "bool",
							"name": "",
							"type": "bool"
						}
					],
					"stateMutability": "view",
					"type": "function"
				},
				{
					"inputs": [
						{
							"internalType": "address",
							"name": "",
							"type": "address"
						}
					],
					"name": "isWhitelisted",
					"outputs": [
						{
							"internalType": "bool",
							"name": "",
							"type": "bool"
						}
					],
					"stateMutability": "view",
					"type": "function"
				},
				{
					"inputs": [
						{
							"internalType": "address",
							"name": "account",
							"type": "address"
						}
					],
					"name": "isWhitelistedAddress",
					"outputs": [
						{
							"internalType": "bool",
							"name": "",
							"type": "bool"
						}
					],
					"stateMutability": "view",
					"type": "function"
				},
				{
					"inputs": [],
					"name": "launchBlock",
					"outputs": [
						{
							"internalType": "uint256",
							"name": "",
							"type": "uint256"
						}
					],
					"stateMutability": "view",
					"type": "function"
				},
				{
					"inputs": [],
					"name": "name",
					"outputs": [
						{
							"internalType": "string",
							"name": "",
							"type": "string"
						}
					],
					"stateMutability": "view",
					"type": "function"
				},
				{
					"inputs": [],
					"name": "openTrading",
					"outputs": [],
					"stateMutability": "nonpayable",
					"type": "function"
				},
				{
					"inputs": [],
					"name": "owner",
					"outputs": [
						{
							"internalType": "address",
							"name": "",
							"type": "address"
						}
					],
					"stateMutability": "view",
					"type": "function"
				},
				{
					"inputs": [],
					"name": "pairAddress",
					"outputs": [
						{
							"internalType": "address",
							"name": "",
							"type": "address"
						}
					],
					"stateMutability": "view",
					"type": "function"
				},
				{
					"inputs": [
						{
							"internalType": "uint256",
							"name": "tAmount",
							"type": "uint256"
						}
					],
					"name": "reflect",
					"outputs": [],
					"stateMutability": "nonpayable",
					"type": "function"
				},
				{
					"inputs": [],
					"name": "reflectionFee",
					"outputs": [
						{
							"internalType": "uint256",
							"name": "",
							"type": "uint256"
						}
					],
					"stateMutability": "view",
					"type": "function"
				},
				{
					"inputs": [
						{
							"internalType": "uint256",
							"name": "tAmount",
							"type": "uint256"
						},
						{
							"internalType": "bool",
							"name": "deductTransferFee",
							"type": "bool"
						}
					],
					"name": "reflectionFromToken",
					"outputs": [
						{
							"internalType": "uint256",
							"name": "",
							"type": "uint256"
						}
					],
					"stateMutability": "view",
					"type": "function"
				},
				{
					"inputs": [],
					"name": "symbol",
					"outputs": [
						{
							"internalType": "string",
							"name": "",
							"type": "string"
						}
					],
					"stateMutability": "view",
					"type": "function"
				},
				{
					"inputs": [],
					"name": "totalFeesRedistributed",
					"outputs": [
						{
							"internalType": "uint256",
							"name": "",
							"type": "uint256"
						}
					],
					"stateMutability": "view",
					"type": "function"
				},
				{
					"inputs": [],
					"name": "totalSupply",
					"outputs": [
						{
							"internalType": "uint256",
							"name": "",
							"type": "uint256"
						}
					],
					"stateMutability": "view",
					"type": "function"
				},
				{
					"inputs": [],
					"name": "tradingOpen",
					"outputs": [
						{
							"internalType": "bool",
							"name": "",
							"type": "bool"
						}
					],
					"stateMutability": "view",
					"type": "function"
				},
				{
					"inputs": [
						{
							"internalType": "address",
							"name": "to",
							"type": "address"
						},
						{
							"internalType": "uint256",
							"name": "value",
							"type": "uint256"
						}
					],
					"name": "transfer",
					"outputs": [
						{
							"internalType": "bool",
							"name": "",
							"type": "bool"
						}
					],
					"stateMutability": "nonpayable",
					"type": "function"
				},
				{
					"inputs": [
						{
							"internalType": "address",
							"name": "from",
							"type": "address"
						},
						{
							"internalType": "address",
							"name": "to",
							"type": "address"
						},
						{
							"internalType": "uint256",
							"name": "value",
							"type": "uint256"
						}
					],
					"name": "transferFrom",
					"outputs": [
						{
							"internalType": "bool",
							"name": "",
							"type": "bool"
						}
					],
					"stateMutability": "nonpayable",
					"type": "function"
				},
				{
					"inputs": [
						{
							"internalType": "address",
							"name": "account",
							"type": "address"
						}
					],
					"name": "whitelistedAddress",
					"outputs": [],
					"stateMutability": "nonpayable",
					"type": "function"
				},
				{
					"stateMutability": "payable",
					"type": "receive"
				}
			],
			"devdoc": {
				"errors": {
					"ERC20InsufficientAllowance(address,uint256,uint256)": [
						{
							"details": "Indicates a failure with the `spender`’s `allowance`. Used in transfers.",
							"params": {
								"allowance": "Amount of tokens a `spender` is allowed to operate with.",
								"needed": "Minimum amount required to perform a transfer.",
								"spender": "Address that may be allowed to operate on tokens without being their owner."
							}
						}
					],
					"ERC20InsufficientBalance(address,uint256,uint256)": [
						{
							"details": "Indicates an error related to the current `balance` of a `sender`. Used in transfers.",
							"params": {
								"balance": "Current balance for the interacting account.",
								"needed": "Minimum amount required to perform a transfer.",
								"sender": "Address whose tokens are being transferred."
							}
						}
					],
					"ERC20InvalidApprover(address)": [
						{
							"details": "Indicates a failure with the `approver` of a token to be approved. Used in approvals.",
							"params": {
								"approver": "Address initiating an approval operation."
							}
						}
					],
					"ERC20InvalidReceiver(address)": [
						{
							"details": "Indicates a failure with the token `receiver`. Used in transfers.",
							"params": {
								"receiver": "Address to which tokens are being transferred."
							}
						}
					],
					"ERC20InvalidSender(address)": [
						{
							"details": "Indicates a failure with the token `sender`. Used in transfers.",
							"params": {
								"sender": "Address whose tokens are being transferred."
							}
						}
					],
					"ERC20InvalidSpender(address)": [
						{
							"details": "Indicates a failure with the `spender` to be approved. Used in approvals.",
							"params": {
								"spender": "Address that may be allowed to operate on tokens without being their owner."
							}
						}
					]
				},
				"events": {
					"Approval(address,address,uint256)": {
						"details": "Emitted when the allowance of a `spender` for an `owner` is set by a call to {approve}. `value` is the new allowance."
					},
					"Transfer(address,address,uint256)": {
						"details": "Emitted when `value` tokens are moved from one account (`from`) to another (`to`). Note that `value` may be zero."
					}
				},
				"kind": "dev",
				"methods": {
					"allowance(address,address)": {
						"details": "See {IERC20-allowance}."
					},
					"approve(address,uint256)": {
						"details": "See {IERC20-approve}. NOTE: If `value` is the maximum `uint256`, the allowance is not updated on `transferFrom`. This is semantically equivalent to an infinite approval. Requirements: - `spender` cannot be the zero address."
					},
					"decimals()": {
						"details": "Returns the number of decimals used to get its user representation. For example, if `decimals` equals `2`, a balance of `505` tokens should be displayed to a user as `5.05` (`505 / 10 ** 2`). Tokens usually opt for a value of 18, imitating the relationship between Ether and Wei. This is the default value returned by this function, unless it's overridden. NOTE: This information is only used for _display_ purposes: it in no way affects any of the arithmetic of the contract, including {IERC20-balanceOf} and {IERC20-transfer}."
					},
					"name()": {
						"details": "Returns the name of the token."
					},
					"symbol()": {
						"details": "Returns the symbol of the token, usually a shorter version of the name."
					},
					"totalSupply()": {
						"details": "See {IERC20-totalSupply}."
					},
					"transfer(address,uint256)": {
						"details": "See {IERC20-transfer}. Requirements: - `to` cannot be the zero address. - the caller must have a balance of at least `value`."
					},
					"transferFrom(address,address,uint256)": {
						"details": "See {IERC20-transferFrom}. Skips emitting an {Approval} event indicating an allowance update. This is not required by the ERC. See {xref-ERC20-_approve-address-address-uint256-bool-}[_approve]. NOTE: Does not update the allowance if the current allowance is the maximum `uint256`. Requirements: - `from` and `to` cannot be the zero address. - `from` must have a balance of at least `value`. - the caller must have allowance for ``from``'s tokens of at least `value`."
					}
				},
				"version": 1
			},
			"evm": {
				"assembly": "    /* \"CYBCC.sol\":128:14009  contract CYBCC is ERC20 {... */\n  mstore(0x40, 0x80)\n    /* \"CYBCC.sol\":478:513  address private _owner = msg.sender */\n  0x0b\n  dup1\n  sload\n  0x0100\n    /* \"CYBCC.sol\":503:513  msg.sender */\n  caller\n    /* \"CYBCC.sol\":478:513  address private _owner = msg.sender */\n  mul\n  not(sub(shl(0xa8, 0x01), 0x0100))\n  dup3\n  and\n  dup2\n  or\n  swap1\n  swap3\n  sstore\n  0x00\n    /* \"CYBCC.sol\":625:655  uint256 private _tFeeTotal = 0 */\n  0x0e\n  sstore\n    /* \"CYBCC.sol\":969:991  10**uint256(_decimals) */\n  tag_1\n  swap2\n    /* \"CYBCC.sol\":981:990  _decimals */\n  0xff\n  swap1\n  dup2\n  and\n  swap2\n  and\n  or\n    /* \"CYBCC.sol\":969:971  10 */\n  0x0a\n    /* \"CYBCC.sol\":969:991  10**uint256(_decimals) */\n  tag_2\n  jump\t// in\ntag_1:\n    /* \"CYBCC.sol\":958:991  10000000 * 10**uint256(_decimals) */\n  tag_3\n  swap1\n    /* \"CYBCC.sol\":958:966  10000000 */\n  0x989680\n    /* \"CYBCC.sol\":958:991  10000000 * 10**uint256(_decimals) */\n  tag_4\n  jump\t// in\ntag_3:\n    /* \"CYBCC.sol\":924:991  uint256 private maxWalletAmount = 10000000 * 10**uint256(_decimals) */\n  0x16\n  sstore\n    /* \"CYBCC.sol\":1030:1061  bool public tradingOpen = false */\n  0x18\n  dup1\n  sload\n  not(0xff)\n  and\n  swap1\n  sstore\n    /* \"CYBCC.sol\":1068:1893  constructor() ERC20(\"CYBERCATSCOIN\", \"CYBCC\") {... */\n  callvalue\n  dup1\n  iszero\n  tag_5\n  jumpi\n  revert(0x00, 0x00)\ntag_5:\n  pop\n    /* \"@openzeppelin/contracts/token/ERC20/ERC20.sol\":1582:1695  constructor(string memory name_, string memory symbol_) {... */\n  mload(0x40)\n  dup1\n  0x40\n  add\n  0x40\n  mstore\n  dup1\n  0x0d\n  dup2\n  mstore\n  0x20\n  add\n  shl(0x99, 0x21aca122a921a0aa29a1a7a4a7)\n  dup2\n  mstore\n  pop\n  mload(0x40)\n  dup1\n  0x40\n  add\n  0x40\n  mstore\n  dup1\n  0x05\n  dup2\n  mstore\n  0x20\n  add\n  shl(0xd8, 0x4359424343)\n  dup2\n  mstore\n  pop\n    /* \"@openzeppelin/contracts/token/ERC20/ERC20.sol\":1656:1661  name_ */\n  dup2\n    /* \"@openzeppelin/contracts/token/ERC20/ERC20.sol\":1648:1653  _name */\n  0x03\n    /* \"@openzeppelin/contracts/token/ERC20/ERC20.sol\":1648:1661  _name = name_ */\n  swap1\n  dup2\n  tag_9\n  swap2\n  swap1\n  tag_10\n  jump\t// in\ntag_9:\n  pop\n    /* \"@openzeppelin/contracts/token/ERC20/ERC20.sol\":1671:1678  _symbol */\n  0x04\n    /* \"@openzeppelin/contracts/token/ERC20/ERC20.sol\":1671:1688  _symbol = symbol_ */\n  tag_11\n    /* \"@openzeppelin/contracts/token/ERC20/ERC20.sol\":1681:1688  symbol_ */\n  dup3\n    /* \"@openzeppelin/contracts/token/ERC20/ERC20.sol\":1671:1678  _symbol */\n  dup3\n    /* \"@openzeppelin/contracts/token/ERC20/ERC20.sol\":1671:1688  _symbol = symbol_ */\n  tag_10\n  jump\t// in\ntag_11:\n  pop\n  pop\n    /* \"CYBCC.sol\":1124:1133  _decimals */\n  0x0b\n    /* \"CYBCC.sol\":1124:1138  _decimals = 18 */\n  dup1\n  sload\n  not(0xff)\n  and\n    /* \"CYBCC.sol\":1136:1138  18 */\n  0x12\n    /* \"CYBCC.sol\":1124:1138  _decimals = 18 */\n  swap1\n  dup2\n  or\n  swap1\n  swap2\n  sstore\n    /* \"CYBCC.sol\":1171:1193  10**uint256(_decimals) */\n  tag_13\n  swap2\n  pop\n    /* \"CYBCC.sol\":1171:1173  10 */\n  0x0a\n    /* \"CYBCC.sol\":1171:1193  10**uint256(_decimals) */\n  tag_2\n  jump\t// in\ntag_13:\n    /* \"CYBCC.sol\":1158:1193  1000000000 * 10**uint256(_decimals) */\n  tag_14\n  swap1\n    /* \"CYBCC.sol\":1158:1168  1000000000 */\n  0x3b9aca00\n    /* \"CYBCC.sol\":1158:1193  1000000000 * 10**uint256(_decimals) */\n  tag_4\n  jump\t// in\ntag_14:\n    /* \"CYBCC.sol\":1148:1155  _tTotal */\n  0x0c\n    /* \"CYBCC.sol\":1148:1193  _tTotal = 1000000000 * 10**uint256(_decimals) */\n  dup2\n  swap1\n  sstore\n    /* \"CYBCC.sol\":1221:1234  MAX % _tTotal */\n  tag_15\n  swap1\n  not(0x00)\n  tag_16\n  jump\t// in\ntag_15:\n    /* \"CYBCC.sol\":1214:1235  MAX - (MAX % _tTotal) */\n  tag_17\n  swap1\n  not(0x00)\n  tag_18\n  jump\t// in\ntag_17:\n    /* \"CYBCC.sol\":1203:1210  _rTotal */\n  0x0d\n    /* \"CYBCC.sol\":1203:1236  _rTotal = (MAX - (MAX % _tTotal)) */\n  swap1\n  dup2\n  sstore\n    /* \"CYBCC.sol\":1264:1265  2 */\n  0x02\n    /* \"CYBCC.sol\":1247:1261  _reflectionFee */\n  0x0f\n    /* \"CYBCC.sol\":1247:1265  _reflectionFee = 2 */\n  dup2\n  swap1\n  sstore\n    /* \"CYBCC.sol\":1275:1297  _previousReflectionFee */\n  0x10\n    /* \"CYBCC.sol\":1275:1314  _previousReflectionFee = _reflectionFee */\n  dup2\n  swap1\n  sstore\n    /* \"CYBCC.sol\":1325:1332  _taxFee */\n  0x11\n    /* \"CYBCC.sol\":1325:1336  _taxFee = 2 */\n  dup2\n  swap1\n  sstore\n    /* \"CYBCC.sol\":1346:1361  _previousTaxFee */\n  0x12\n    /* \"CYBCC.sol\":1346:1371  _previousTaxFee = _taxFee */\n  sstore\n    /* \"CYBCC.sol\":1402:1408  _owner */\n  0x0b\n  dup1\n  sload\n    /* \"CYBCC.sol\":1382:1399  _marketingAccount */\n  0x13\n    /* \"CYBCC.sol\":1382:1408  _marketingAccount = _owner */\n  dup1\n  sload\n  not(sub(shl(0xa0, 0x01), 0x01))\n  and\n  sub(shl(0xa0, 0x01), 0x01)\n    /* \"CYBCC.sol\":1402:1408  _owner */\n  0x0100\n  swap4\n  dup5\n  swap1\n  div\n  dup2\n  and\n    /* \"CYBCC.sol\":1382:1408  _marketingAccount = _owner */\n  swap2\n  dup3\n  or\n  dup4\n  sstore\n  0x00\n    /* \"CYBCC.sol\":1482:1509  _isExcludedFromFee[owner()] */\n  swap2\n  dup3\n  mstore\n    /* \"CYBCC.sol\":1482:1500  _isExcludedFromFee */\n  0x07\n    /* \"CYBCC.sol\":1482:1509  _isExcludedFromFee[owner()] */\n  0x20\n  swap1\n  dup2\n  mstore\n  0x40\n  dup1\n  dup5\n  keccak256\n    /* \"CYBCC.sol\":1482:1516  _isExcludedFromFee[owner()] = true */\n  dup1\n  sload\n  not(0xff)\n  swap1\n  dup2\n  and\n  0x01\n  swap1\n  dup2\n  or\n  swap1\n  swap3\n  sstore\n    /* \"CYBCC.sol\":1545:1562  _marketingAccount */\n  dup7\n  sload\n  dup6\n  and\n    /* \"CYBCC.sol\":1526:1563  _isExcludedFromFee[_marketingAccount] */\n  dup7\n  mstore\n  dup3\n  dup7\n  keccak256\n    /* \"CYBCC.sol\":1526:1570  _isExcludedFromFee[_marketingAccount] = true */\n  dup1\n  sload\n  dup3\n  and\n  dup4\n  or\n  swap1\n  sstore\n    /* \"CYBCC.sol\":1599:1618  _developmentAccount */\n  0x14\n  dup1\n  sload\n  dup7\n  and\n    /* \"CYBCC.sol\":1580:1619  _isExcludedFromFee[_developmentAccount] */\n  dup8\n  mstore\n  dup4\n  dup8\n  keccak256\n    /* \"CYBCC.sol\":1580:1626  _isExcludedFromFee[_developmentAccount] = true */\n  dup1\n  sload\n  dup4\n  and\n  dup5\n  or\n  swap1\n  sstore\n    /* \"CYBCC.sol\":1663:1667  this */\n  address\n    /* \"CYBCC.sol\":1636:1669  _isExcludedFromFee[address(this)] */\n  dup8\n  mstore\n  dup4\n  dup8\n  keccak256\n    /* \"CYBCC.sol\":1636:1676  _isExcludedFromFee[address(this)] = true */\n  dup1\n  sload\n  dup4\n  and\n  dup5\n  or\n  swap1\n  sstore\n    /* \"CYBCC.sol\":2006:2012  _owner */\n  dup10\n  sload\n  dup10\n  swap1\n  div\n  dup7\n  and\n    /* \"CYBCC.sol\":1686:1708  isWhitelisted[owner()] */\n  dup8\n  mstore\n    /* \"CYBCC.sol\":1686:1699  isWhitelisted */\n  0x08\n    /* \"CYBCC.sol\":1686:1708  isWhitelisted[owner()] */\n  dup6\n  mstore\n  dup4\n  dup8\n  keccak256\n    /* \"CYBCC.sol\":1686:1715  isWhitelisted[owner()] = true */\n  dup1\n  sload\n  dup4\n  and\n  dup5\n  or\n  swap1\n  sstore\n    /* \"CYBCC.sol\":1739:1756  _marketingAccount */\n  swap7\n  sload\n  dup6\n  and\n    /* \"CYBCC.sol\":1725:1757  isWhitelisted[_marketingAccount] */\n  dup7\n  mstore\n  dup3\n  dup7\n  keccak256\n    /* \"CYBCC.sol\":1725:1764  isWhitelisted[_marketingAccount] = true */\n  dup1\n  sload\n  dup3\n  and\n  dup4\n  or\n  swap1\n  sstore\n    /* \"CYBCC.sol\":1788:1807  _developmentAccount */\n  swap6\n  sload\n  dup5\n  and\n    /* \"CYBCC.sol\":1774:1808  isWhitelisted[_developmentAccount] */\n  dup6\n  mstore\n  dup2\n  dup6\n  keccak256\n    /* \"CYBCC.sol\":1774:1815  isWhitelisted[_developmentAccount] = true */\n  dup1\n  sload\n  swap1\n  swap7\n  and\n  or\n  swap1\n  swap5\n  sstore\n    /* \"CYBCC.sol\":1843:1850  _rTotal */\n  swap6\n  sload\n    /* \"CYBCC.sol\":1833:1839  _owner */\n  swap5\n  sload\n  swap4\n  swap1\n  swap4\n  div\n  swap1\n  swap3\n  and\n    /* \"CYBCC.sol\":1825:1840  _rOwned[_owner] */\n  dup3\n  mstore\n    /* \"CYBCC.sol\":1825:1832  _rOwned */\n  0x05\n    /* \"CYBCC.sol\":1825:1840  _rOwned[_owner] */\n  swap1\n  swap4\n  mstore\n  swap2\n  swap1\n  swap2\n  keccak256\n    /* \"CYBCC.sol\":1825:1850  _rOwned[_owner] = _rTotal */\n  dup2\n  swap1\n  sstore\n    /* \"CYBCC.sol\":1860:1886  _mint(msg.sender, _rTotal) */\n  tag_22\n  swap1\n    /* \"CYBCC.sol\":1866:1876  msg.sender */\n  caller\n  swap1\n    /* \"CYBCC.sol\":1860:1865  _mint */\n  tag_23\n    /* \"CYBCC.sol\":1860:1886  _mint(msg.sender, _rTotal) */\n  jump\t// in\ntag_22:\n    /* \"CYBCC.sol\":128:14009  contract CYBCC is ERC20 {... */\n  jump(tag_52)\n    /* \"@openzeppelin/contracts/token/ERC20/ERC20.sol\":7447:7655  function _mint(address account, uint256 value) internal {... */\ntag_23:\n  sub(shl(0xa0, 0x01), 0x01)\n    /* \"@openzeppelin/contracts/token/ERC20/ERC20.sol\":7517:7538  account == address(0) */\n  dup3\n  and\n    /* \"@openzeppelin/contracts/token/ERC20/ERC20.sol\":7513:7604  if (account == address(0)) {... */\n  tag_27\n  jumpi\n    /* \"@openzeppelin/contracts/token/ERC20/ERC20.sol\":7561:7593  ERC20InvalidReceiver(address(0)) */\n  mload(0x40)\n  shl(0xe0, 0xec442f05)\n  dup2\n  mstore\n    /* \"@openzeppelin/contracts/token/ERC20/ERC20.sol\":7590:7591  0 */\n  0x00\n    /* \"@openzeppelin/contracts/token/ERC20/ERC20.sol\":7561:7593  ERC20InvalidReceiver(address(0)) */\n  0x04\n  dup3\n  add\n    /* \"#utility.yul\":4876:4927   */\n  mstore\n    /* \"#utility.yul\":4849:4867   */\n  0x24\n  add\n    /* \"@openzeppelin/contracts/token/ERC20/ERC20.sol\":7561:7593  ERC20InvalidReceiver(address(0)) */\ntag_28:\n  mload(0x40)\n  dup1\n  swap2\n  sub\n  swap1\n  revert\n    /* \"@openzeppelin/contracts/token/ERC20/ERC20.sol\":7513:7604  if (account == address(0)) {... */\ntag_27:\n    /* \"@openzeppelin/contracts/token/ERC20/ERC20.sol\":7613:7648  _update(address(0), account, value) */\n  tag_30\n    /* \"@openzeppelin/contracts/token/ERC20/ERC20.sol\":7629:7630  0 */\n  0x00\n    /* \"@openzeppelin/contracts/token/ERC20/ERC20.sol\":7633:7640  account */\n  dup4\n    /* \"@openzeppelin/contracts/token/ERC20/ERC20.sol\":7642:7647  value */\n  dup4\n    /* \"@openzeppelin/contracts/token/ERC20/ERC20.sol\":7613:7620  _update */\n  tag_31\n    /* \"@openzeppelin/contracts/token/ERC20/ERC20.sol\":7613:7648  _update(address(0), account, value) */\n  jump\t// in\ntag_30:\n    /* \"@openzeppelin/contracts/token/ERC20/ERC20.sol\":7447:7655  function _mint(address account, uint256 value) internal {... */\n  pop\n  pop\n  jump\t// out\n    /* \"@openzeppelin/contracts/token/ERC20/ERC20.sol\":5997:7104  function _update(address from, address to, uint256 value) internal virtual {... */\ntag_31:\n  sub(shl(0xa0, 0x01), 0x01)\n    /* \"@openzeppelin/contracts/token/ERC20/ERC20.sol\":6086:6104  from == address(0) */\n  dup4\n  and\n    /* \"@openzeppelin/contracts/token/ERC20/ERC20.sol\":6082:6622  if (from == address(0)) {... */\n  tag_33\n  jumpi\n    /* \"@openzeppelin/contracts/token/ERC20/ERC20.sol\":6238:6243  value */\n  dup1\n    /* \"@openzeppelin/contracts/token/ERC20/ERC20.sol\":6222:6234  _totalSupply */\n  0x02\n  0x00\n    /* \"@openzeppelin/contracts/token/ERC20/ERC20.sol\":6222:6243  _totalSupply += value */\n  dup3\n  dup3\n  sload\n  tag_34\n  swap2\n  swap1\n  tag_35\n  jump\t// in\ntag_34:\n  swap1\n  swap2\n  sstore\n  pop\n    /* \"@openzeppelin/contracts/token/ERC20/ERC20.sol\":6082:6622  if (from == address(0)) {... */\n  tag_36\n  swap1\n  pop\n  jump\ntag_33:\n  sub(shl(0xa0, 0x01), 0x01)\n    /* \"@openzeppelin/contracts/token/ERC20/ERC20.sol\":6296:6311  _balances[from] */\n  dup4\n  and\n    /* \"@openzeppelin/contracts/token/ERC20/ERC20.sol\":6274:6293  uint256 fromBalance */\n  0x00\n    /* \"@openzeppelin/contracts/token/ERC20/ERC20.sol\":6296:6311  _balances[from] */\n  swap1\n  dup2\n  mstore\n  0x20\n  dup2\n  swap1\n  mstore\n  0x40\n  swap1\n  keccak256\n  sload\n    /* \"@openzeppelin/contracts/token/ERC20/ERC20.sol\":6329:6348  fromBalance < value */\n  dup2\n  dup2\n  lt\n    /* \"@openzeppelin/contracts/token/ERC20/ERC20.sol\":6325:6440  if (fromBalance < value) {... */\n  iszero\n  tag_37\n  jumpi\n    /* \"@openzeppelin/contracts/token/ERC20/ERC20.sol\":6375:6425  ERC20InsufficientBalance(from, fromBalance, value) */\n  mload(0x40)\n  shl(0xe2, 0x391434e3)\n  dup2\n  mstore\n  sub(shl(0xa0, 0x01), 0x01)\n    /* \"#utility.yul\":5288:5320   */\n  dup6\n  and\n    /* \"@openzeppelin/contracts/token/ERC20/ERC20.sol\":6375:6425  ERC20InsufficientBalance(from, fromBalance, value) */\n  0x04\n  dup3\n  add\n    /* \"#utility.yul\":5270:5321   */\n  mstore\n    /* \"#utility.yul\":5337:5355   */\n  0x24\n  dup2\n  add\n    /* \"#utility.yul\":5330:5364   */\n  dup3\n  swap1\n  mstore\n    /* \"#utility.yul\":5380:5398   */\n  0x44\n  dup2\n  add\n    /* \"#utility.yul\":5373:5407   */\n  dup4\n  swap1\n  mstore\n    /* \"#utility.yul\":5243:5261   */\n  0x64\n  add\n    /* \"@openzeppelin/contracts/token/ERC20/ERC20.sol\":6375:6425  ERC20InsufficientBalance(from, fromBalance, value) */\n  tag_28\n    /* \"#utility.yul\":5068:5413   */\n  jump\n    /* \"@openzeppelin/contracts/token/ERC20/ERC20.sol\":6325:6440  if (fromBalance < value) {... */\ntag_37:\n  sub(shl(0xa0, 0x01), 0x01)\n    /* \"@openzeppelin/contracts/token/ERC20/ERC20.sol\":6560:6575  _balances[from] */\n  dup5\n  and\n    /* \"@openzeppelin/contracts/token/ERC20/ERC20.sol\":6560:6569  _balances */\n  0x00\n    /* \"@openzeppelin/contracts/token/ERC20/ERC20.sol\":6560:6575  _balances[from] */\n  swap1\n  dup2\n  mstore\n  0x20\n  dup2\n  swap1\n  mstore\n  0x40\n  swap1\n  keccak256\n    /* \"@openzeppelin/contracts/token/ERC20/ERC20.sol\":6578:6597  fromBalance - value */\n  swap1\n  dup3\n  swap1\n  sub\n    /* \"@openzeppelin/contracts/token/ERC20/ERC20.sol\":6560:6597  _balances[from] = fromBalance - value */\n  swap1\n  sstore\n    /* \"@openzeppelin/contracts/token/ERC20/ERC20.sol\":6082:6622  if (from == address(0)) {... */\ntag_36:\n  sub(shl(0xa0, 0x01), 0x01)\n    /* \"@openzeppelin/contracts/token/ERC20/ERC20.sol\":6636:6652  to == address(0) */\n  dup3\n  and\n    /* \"@openzeppelin/contracts/token/ERC20/ERC20.sol\":6632:7057  if (to == address(0)) {... */\n  tag_40\n  jumpi\n    /* \"@openzeppelin/contracts/token/ERC20/ERC20.sol\":6799:6811  _totalSupply */\n  0x02\n    /* \"@openzeppelin/contracts/token/ERC20/ERC20.sol\":6799:6820  _totalSupply -= value */\n  dup1\n  sload\n  dup3\n  swap1\n  sub\n  swap1\n  sstore\n    /* \"@openzeppelin/contracts/token/ERC20/ERC20.sol\":6632:7057  if (to == address(0)) {... */\n  jump(tag_41)\ntag_40:\n  sub(shl(0xa0, 0x01), 0x01)\n    /* \"@openzeppelin/contracts/token/ERC20/ERC20.sol\":7010:7023  _balances[to] */\n  dup3\n  and\n    /* \"@openzeppelin/contracts/token/ERC20/ERC20.sol\":7010:7019  _balances */\n  0x00\n    /* \"@openzeppelin/contracts/token/ERC20/ERC20.sol\":7010:7023  _balances[to] */\n  swap1\n  dup2\n  mstore\n  0x20\n  dup2\n  swap1\n  mstore\n  0x40\n  swap1\n  keccak256\n    /* \"@openzeppelin/contracts/token/ERC20/ERC20.sol\":7010:7032  _balances[to] += value */\n  dup1\n  sload\n  dup3\n  add\n  swap1\n  sstore\n    /* \"@openzeppelin/contracts/token/ERC20/ERC20.sol\":6632:7057  if (to == address(0)) {... */\ntag_41:\n    /* \"@openzeppelin/contracts/token/ERC20/ERC20.sol\":7087:7089  to */\n  dup2\n  sub(shl(0xa0, 0x01), 0x01)\n    /* \"@openzeppelin/contracts/token/ERC20/ERC20.sol\":7072:7097  Transfer(from, to, value) */\n  and\n    /* \"@openzeppelin/contracts/token/ERC20/ERC20.sol\":7081:7085  from */\n  dup4\n  sub(shl(0xa0, 0x01), 0x01)\n    /* \"@openzeppelin/contracts/token/ERC20/ERC20.sol\":7072:7097  Transfer(from, to, value) */\n  and\n  0xddf252ad1be2c89b69c2b068fc378daa952ba7f163c4a11628f55a4df523b3ef\n    /* \"@openzeppelin/contracts/token/ERC20/ERC20.sol\":7091:7096  value */\n  dup4\n    /* \"@openzeppelin/contracts/token/ERC20/ERC20.sol\":7072:7097  Transfer(from, to, value) */\n  mload(0x40)\n  tag_42\n  swap2\n    /* \"#utility.yul\":5564:5589   */\n  dup2\n  mstore\n    /* \"#utility.yul\":5552:5554   */\n  0x20\n    /* \"#utility.yul\":5537:5555   */\n  add\n  swap1\n    /* \"#utility.yul\":5418:5595   */\n  jump\n    /* \"@openzeppelin/contracts/token/ERC20/ERC20.sol\":7072:7097  Transfer(from, to, value) */\ntag_42:\n  mload(0x40)\n  dup1\n  swap2\n  sub\n  swap1\n  log3\n    /* \"@openzeppelin/contracts/token/ERC20/ERC20.sol\":5997:7104  function _update(address from, address to, uint256 value) internal virtual {... */\n  pop\n  pop\n  pop\n  jump\t// out\n    /* \"#utility.yul\":14:141   */\ntag_44:\n    /* \"#utility.yul\":75:85   */\n  0x4e487b71\n    /* \"#utility.yul\":70:73   */\n  0xe0\n    /* \"#utility.yul\":66:86   */\n  shl\n    /* \"#utility.yul\":63:64   */\n  0x00\n    /* \"#utility.yul\":56:87   */\n  mstore\n    /* \"#utility.yul\":106:110   */\n  0x11\n    /* \"#utility.yul\":103:104   */\n  0x04\n    /* \"#utility.yul\":96:111   */\n  mstore\n    /* \"#utility.yul\":130:134   */\n  0x24\n    /* \"#utility.yul\":127:128   */\n  0x00\n    /* \"#utility.yul\":120:135   */\n  revert\n    /* \"#utility.yul\":146:521   */\ntag_45:\n    /* \"#utility.yul\":234:235   */\n  0x01\n    /* \"#utility.yul\":252:257   */\n  dup2\n    /* \"#utility.yul\":266:515   */\ntag_55:\n    /* \"#utility.yul\":287:288   */\n  0x01\n    /* \"#utility.yul\":277:285   */\n  dup5\n    /* \"#utility.yul\":274:289   */\n  gt\n    /* \"#utility.yul\":266:515   */\n  iszero\n  tag_57\n  jumpi\n    /* \"#utility.yul\":337:341   */\n  dup1\n    /* \"#utility.yul\":332:335   */\n  dup6\n    /* \"#utility.yul\":328:342   */\n  div\n    /* \"#utility.yul\":322:326   */\n  dup2\n    /* \"#utility.yul\":319:343   */\n  gt\n    /* \"#utility.yul\":316:366   */\n  iszero\n  tag_59\n  jumpi\n    /* \"#utility.yul\":346:364   */\n  tag_59\n  tag_44\n  jump\t// in\ntag_59:\n    /* \"#utility.yul\":396:397   */\n  0x01\n    /* \"#utility.yul\":386:394   */\n  dup5\n    /* \"#utility.yul\":382:398   */\n  and\n    /* \"#utility.yul\":379:428   */\n  iszero\n  tag_60\n  jumpi\n    /* \"#utility.yul\":410:426   */\n  swap1\n  dup2\n  mul\n  swap1\n    /* \"#utility.yul\":379:428   */\ntag_60:\n    /* \"#utility.yul\":493:494   */\n  0x01\n    /* \"#utility.yul\":489:505   */\n  swap4\n  swap1\n  swap4\n  shr\n  swap3\n    /* \"#utility.yul\":449:464   */\n  dup1\n  mul\n    /* \"#utility.yul\":266:515   */\n  jump(tag_55)\ntag_57:\n    /* \"#utility.yul\":146:521   */\n  swap4\n  pop\n  swap4\n  swap2\n  pop\n  pop\n  jump\t// out\n    /* \"#utility.yul\":526:1428   */\ntag_46:\n    /* \"#utility.yul\":575:580   */\n  0x00\n    /* \"#utility.yul\":605:613   */\n  dup3\n    /* \"#utility.yul\":595:675   */\n  tag_62\n  jumpi\n  pop\n    /* \"#utility.yul\":646:647   */\n  0x01\n    /* \"#utility.yul\":660:665   */\n  jump(tag_61)\n    /* \"#utility.yul\":595:675   */\ntag_62:\n    /* \"#utility.yul\":694:698   */\n  dup2\n    /* \"#utility.yul\":684:760   */\n  tag_63\n  jumpi\n  pop\n    /* \"#utility.yul\":731:732   */\n  0x00\n    /* \"#utility.yul\":745:750   */\n  jump(tag_61)\n    /* \"#utility.yul\":684:760   */\ntag_63:\n    /* \"#utility.yul\":776:780   */\n  dup2\n    /* \"#utility.yul\":794:795   */\n  0x01\n    /* \"#utility.yul\":789:848   */\n  dup2\n  eq\n  tag_65\n  jumpi\n    /* \"#utility.yul\":862:863   */\n  0x02\n    /* \"#utility.yul\":857:1031   */\n  dup2\n  eq\n  tag_66\n  jumpi\n    /* \"#utility.yul\":769:1031   */\n  jump(tag_64)\n    /* \"#utility.yul\":789:848   */\ntag_65:\n    /* \"#utility.yul\":819:820   */\n  0x01\n    /* \"#utility.yul\":810:820   */\n  swap2\n  pop\n    /* \"#utility.yul\":833:838   */\n  pop\n  jump(tag_61)\n    /* \"#utility.yul\":857:1031   */\ntag_66:\n    /* \"#utility.yul\":894:897   */\n  0xff\n    /* \"#utility.yul\":884:892   */\n  dup5\n    /* \"#utility.yul\":881:898   */\n  gt\n    /* \"#utility.yul\":878:921   */\n  iszero\n  tag_68\n  jumpi\n    /* \"#utility.yul\":901:919   */\n  tag_68\n  tag_44\n  jump\t// in\ntag_68:\n  pop\n  pop\n    /* \"#utility.yul\":957:958   */\n  0x01\n    /* \"#utility.yul\":943:959   */\n  dup3\n  shl\n    /* \"#utility.yul\":1016:1021   */\n  jump(tag_61)\n    /* \"#utility.yul\":769:1031   */\ntag_64:\n  pop\n    /* \"#utility.yul\":1115:1117   */\n  0x20\n    /* \"#utility.yul\":1105:1113   */\n  dup4\n    /* \"#utility.yul\":1102:1118   */\n  lt\n    /* \"#utility.yul\":1096:1099   */\n  0x0133\n    /* \"#utility.yul\":1090:1094   */\n  dup4\n    /* \"#utility.yul\":1087:1100   */\n  lt\n    /* \"#utility.yul\":1083:1119   */\n  and\n    /* \"#utility.yul\":1077:1079   */\n  0x4e\n    /* \"#utility.yul\":1067:1075   */\n  dup5\n    /* \"#utility.yul\":1064:1080   */\n  lt\n    /* \"#utility.yul\":1059:1061   */\n  0x0b\n    /* \"#utility.yul\":1053:1057   */\n  dup5\n    /* \"#utility.yul\":1050:1062   */\n  lt\n    /* \"#utility.yul\":1046:1081   */\n  and\n    /* \"#utility.yul\":1043:1120   */\n  or\n    /* \"#utility.yul\":1040:1243   */\n  iszero\n  tag_69\n  jumpi\n  pop\n    /* \"#utility.yul\":1152:1171   */\n  dup2\n  dup2\n  exp\n    /* \"#utility.yul\":1228:1233   */\n  jump(tag_61)\n    /* \"#utility.yul\":1040:1243   */\ntag_69:\n    /* \"#utility.yul\":1275:1317   */\n  tag_70\n  not(0x00)\n    /* \"#utility.yul\":1300:1308   */\n  dup5\n    /* \"#utility.yul\":1294:1298   */\n  dup5\n    /* \"#utility.yul\":1275:1317   */\n  tag_45\n  jump\t// in\ntag_70:\n    /* \"#utility.yul\":1353:1359   */\n  dup1\n    /* \"#utility.yul\":1349:1350   */\n  0x00\n    /* \"#utility.yul\":1345:1351   */\n  not\n    /* \"#utility.yul\":1341:1360   */\n  div\n    /* \"#utility.yul\":1332:1339   */\n  dup3\n    /* \"#utility.yul\":1329:1361   */\n  gt\n    /* \"#utility.yul\":1326:1384   */\n  iszero\n  tag_72\n  jumpi\n    /* \"#utility.yul\":1364:1382   */\n  tag_72\n  tag_44\n  jump\t// in\ntag_72:\n    /* \"#utility.yul\":1402:1422   */\n  mul\n  swap1\n  pop\n    /* \"#utility.yul\":526:1428   */\ntag_61:\n  swap3\n  swap2\n  pop\n  pop\n  jump\t// out\n    /* \"#utility.yul\":1433:1564   */\ntag_2:\n    /* \"#utility.yul\":1493:1498   */\n  0x00\n    /* \"#utility.yul\":1522:1558   */\n  tag_74\n    /* \"#utility.yul\":1549:1557   */\n  dup4\n    /* \"#utility.yul\":1543:1547   */\n  dup4\n    /* \"#utility.yul\":1522:1558   */\n  tag_46\n  jump\t// in\ntag_74:\n    /* \"#utility.yul\":1513:1558   */\n  swap4\n    /* \"#utility.yul\":1433:1564   */\n  swap3\n  pop\n  pop\n  pop\n  jump\t// out\n    /* \"#utility.yul\":1569:1737   */\ntag_4:\n    /* \"#utility.yul\":1642:1651   */\n  dup1\n  dup3\n  mul\n    /* \"#utility.yul\":1673:1682   */\n  dup2\n  iszero\n    /* \"#utility.yul\":1690:1705   */\n  dup3\n  dup3\n  div\n    /* \"#utility.yul\":1684:1706   */\n  dup5\n  eq\n    /* \"#utility.yul\":1670:1707   */\n  or\n    /* \"#utility.yul\":1660:1731   */\n  tag_61\n  jumpi\n    /* \"#utility.yul\":1711:1729   */\n  tag_61\n  tag_44\n  jump\t// in\n    /* \"#utility.yul\":1742:1869   */\ntag_47:\n    /* \"#utility.yul\":1803:1813   */\n  0x4e487b71\n    /* \"#utility.yul\":1798:1801   */\n  0xe0\n    /* \"#utility.yul\":1794:1814   */\n  shl\n    /* \"#utility.yul\":1791:1792   */\n  0x00\n    /* \"#utility.yul\":1784:1815   */\n  mstore\n    /* \"#utility.yul\":1834:1838   */\n  0x41\n    /* \"#utility.yul\":1831:1832   */\n  0x04\n    /* \"#utility.yul\":1824:1839   */\n  mstore\n    /* \"#utility.yul\":1858:1862   */\n  0x24\n    /* \"#utility.yul\":1855:1856   */\n  0x00\n    /* \"#utility.yul\":1848:1863   */\n  revert\n    /* \"#utility.yul\":1874:2254   */\ntag_48:\n    /* \"#utility.yul\":1953:1954   */\n  0x01\n    /* \"#utility.yul\":1949:1961   */\n  dup2\n  dup2\n  shr\n  swap1\n    /* \"#utility.yul\":1996:2008   */\n  dup3\n  and\n  dup1\n    /* \"#utility.yul\":2017:2078   */\n  tag_80\n  jumpi\n    /* \"#utility.yul\":2071:2075   */\n  0x7f\n    /* \"#utility.yul\":2063:2069   */\n  dup3\n    /* \"#utility.yul\":2059:2076   */\n  and\n    /* \"#utility.yul\":2049:2076   */\n  swap2\n  pop\n    /* \"#utility.yul\":2017:2078   */\ntag_80:\n    /* \"#utility.yul\":2124:2126   */\n  0x20\n    /* \"#utility.yul\":2116:2122   */\n  dup3\n    /* \"#utility.yul\":2113:2127   */\n  lt\n    /* \"#utility.yul\":2093:2111   */\n  dup2\n    /* \"#utility.yul\":2090:2128   */\n  sub\n    /* \"#utility.yul\":2087:2248   */\n  tag_81\n  jumpi\n    /* \"#utility.yul\":2170:2180   */\n  0x4e487b71\n    /* \"#utility.yul\":2165:2168   */\n  0xe0\n    /* \"#utility.yul\":2161:2181   */\n  shl\n    /* \"#utility.yul\":2158:2159   */\n  0x00\n    /* \"#utility.yul\":2151:2182   */\n  mstore\n    /* \"#utility.yul\":2205:2209   */\n  0x22\n    /* \"#utility.yul\":2202:2203   */\n  0x04\n    /* \"#utility.yul\":2195:2210   */\n  mstore\n    /* \"#utility.yul\":2233:2237   */\n  0x24\n    /* \"#utility.yul\":2230:2231   */\n  0x00\n    /* \"#utility.yul\":2223:2238   */\n  revert\n    /* \"#utility.yul\":2087:2248   */\ntag_81:\n  pop\n    /* \"#utility.yul\":1874:2254   */\n  swap2\n  swap1\n  pop\n  jump\t// out\n    /* \"#utility.yul\":2385:2903   */\ntag_50:\n    /* \"#utility.yul\":2487:2489   */\n  0x1f\n    /* \"#utility.yul\":2482:2485   */\n  dup3\n    /* \"#utility.yul\":2479:2490   */\n  gt\n    /* \"#utility.yul\":2476:2897   */\n  iszero\n  tag_84\n  jumpi\n    /* \"#utility.yul\":2523:2528   */\n  dup1\n    /* \"#utility.yul\":2520:2521   */\n  0x00\n    /* \"#utility.yul\":2513:2529   */\n  mstore\n    /* \"#utility.yul\":2567:2571   */\n  0x20\n    /* \"#utility.yul\":2564:2565   */\n  0x00\n    /* \"#utility.yul\":2554:2572   */\n  keccak256\n    /* \"#utility.yul\":2637:2639   */\n  0x1f\n    /* \"#utility.yul\":2625:2635   */\n  dup5\n    /* \"#utility.yul\":2621:2640   */\n  add\n    /* \"#utility.yul\":2618:2619   */\n  0x05\n    /* \"#utility.yul\":2614:2641   */\n  shr\n    /* \"#utility.yul\":2608:2612   */\n  dup2\n    /* \"#utility.yul\":2604:2642   */\n  add\n    /* \"#utility.yul\":2673:2677   */\n  0x20\n    /* \"#utility.yul\":2661:2671   */\n  dup6\n    /* \"#utility.yul\":2658:2678   */\n  lt\n    /* \"#utility.yul\":2655:2702   */\n  iszero\n  tag_85\n  jumpi\n  pop\n    /* \"#utility.yul\":2696:2700   */\n  dup1\n    /* \"#utility.yul\":2655:2702   */\ntag_85:\n    /* \"#utility.yul\":2751:2753   */\n  0x1f\n    /* \"#utility.yul\":2746:2749   */\n  dup5\n    /* \"#utility.yul\":2742:2754   */\n  add\n    /* \"#utility.yul\":2739:2740   */\n  0x05\n    /* \"#utility.yul\":2735:2755   */\n  shr\n    /* \"#utility.yul\":2729:2733   */\n  dup3\n    /* \"#utility.yul\":2725:2756   */\n  add\n    /* \"#utility.yul\":2715:2756   */\n  swap2\n  pop\n    /* \"#utility.yul\":2806:2887   */\ntag_86:\n    /* \"#utility.yul\":2824:2826   */\n  dup2\n    /* \"#utility.yul\":2817:2822   */\n  dup2\n    /* \"#utility.yul\":2814:2827   */\n  lt\n    /* \"#utility.yul\":2806:2887   */\n  iszero\n  tag_88\n  jumpi\n    /* \"#utility.yul\":2883:2884   */\n  0x00\n    /* \"#utility.yul\":2869:2885   */\n  dup2\n  sstore\n    /* \"#utility.yul\":2850:2851   */\n  0x01\n    /* \"#utility.yul\":2839:2852   */\n  add\n    /* \"#utility.yul\":2806:2887   */\n  jump(tag_86)\ntag_88:\n    /* \"#utility.yul\":2810:2813   */\n  pop\n  pop\n    /* \"#utility.yul\":2476:2897   */\ntag_84:\n    /* \"#utility.yul\":2385:2903   */\n  pop\n  pop\n  pop\n  jump\t// out\n    /* \"#utility.yul\":3079:4378   */\ntag_10:\n    /* \"#utility.yul\":3199:3209   */\n  dup2\n  mload\n  sub(shl(0x40, 0x01), 0x01)\n    /* \"#utility.yul\":3221:3251   */\n  dup2\n  gt\n    /* \"#utility.yul\":3218:3274   */\n  iszero\n  tag_92\n  jumpi\n    /* \"#utility.yul\":3254:3272   */\n  tag_92\n  tag_47\n  jump\t// in\ntag_92:\n    /* \"#utility.yul\":3283:3380   */\n  tag_93\n    /* \"#utility.yul\":3373:3379   */\n  dup2\n    /* \"#utility.yul\":3333:3371   */\n  tag_94\n    /* \"#utility.yul\":3365:3369   */\n  dup5\n    /* \"#utility.yul\":3359:3370   */\n  sload\n    /* \"#utility.yul\":3333:3371   */\n  tag_48\n  jump\t// in\ntag_94:\n    /* \"#utility.yul\":3327:3331   */\n  dup5\n    /* \"#utility.yul\":3283:3380   */\n  tag_50\n  jump\t// in\ntag_93:\n    /* \"#utility.yul\":3429:3433   */\n  0x20\n    /* \"#utility.yul\":3460:3462   */\n  0x1f\n    /* \"#utility.yul\":3449:3463   */\n  dup3\n  gt\n    /* \"#utility.yul\":3477:3478   */\n  0x01\n    /* \"#utility.yul\":3472:4121   */\n  dup2\n  eq\n  tag_96\n  jumpi\n    /* \"#utility.yul\":4165:4166   */\n  0x00\n    /* \"#utility.yul\":4182:4188   */\n  dup4\n    /* \"#utility.yul\":4179:4268   */\n  iszero\n  tag_97\n  jumpi\n  pop\n    /* \"#utility.yul\":4234:4253   */\n  dup5\n  dup3\n  add\n    /* \"#utility.yul\":4228:4254   */\n  mload\n    /* \"#utility.yul\":4179:4268   */\ntag_97:\n  not(0x00)\n    /* \"#utility.yul\":3036:3037   */\n  0x03\n    /* \"#utility.yul\":3032:3043   */\n  dup6\n  swap1\n  shl\n    /* \"#utility.yul\":3028:3052   */\n  shr\n    /* \"#utility.yul\":3024:3053   */\n  not\n    /* \"#utility.yul\":3014:3054   */\n  and\n    /* \"#utility.yul\":3060:3061   */\n  0x01\n    /* \"#utility.yul\":3056:3067   */\n  dup5\n  swap1\n  shl\n    /* \"#utility.yul\":3011:3068   */\n  or\n    /* \"#utility.yul\":4281:4362   */\n  dup5\n  sstore\n    /* \"#utility.yul\":3442:4372   */\n  jump(tag_88)\n    /* \"#utility.yul\":3472:4121   */\ntag_96:\n    /* \"#utility.yul\":2332:2333   */\n  0x00\n    /* \"#utility.yul\":2325:2339   */\n  dup5\n  dup2\n  mstore\n    /* \"#utility.yul\":2369:2373   */\n  0x20\n    /* \"#utility.yul\":2356:2374   */\n  dup2\n  keccak256\n  not(0x1f)\n    /* \"#utility.yul\":3508:3528   */\n  dup6\n  and\n  swap2\n    /* \"#utility.yul\":3626:3848   */\ntag_100:\n    /* \"#utility.yul\":3640:3647   */\n  dup3\n    /* \"#utility.yul\":3637:3638   */\n  dup2\n    /* \"#utility.yul\":3634:3648   */\n  lt\n    /* \"#utility.yul\":3626:3848   */\n  iszero\n  tag_102\n  jumpi\n    /* \"#utility.yul\":3722:3741   */\n  dup8\n  dup6\n  add\n    /* \"#utility.yul\":3716:3742   */\n  mload\n    /* \"#utility.yul\":3701:3743   */\n  dup3\n  sstore\n    /* \"#utility.yul\":3829:3833   */\n  0x20\n    /* \"#utility.yul\":3814:3834   */\n  swap5\n  dup6\n  add\n  swap5\n    /* \"#utility.yul\":3782:3783   */\n  0x01\n    /* \"#utility.yul\":3770:3784   */\n  swap1\n  swap3\n  add\n  swap2\n    /* \"#utility.yul\":3656:3668   */\n  add\n    /* \"#utility.yul\":3626:3848   */\n  jump(tag_100)\ntag_102:\n    /* \"#utility.yul\":3630:3633   */\n  pop\n    /* \"#utility.yul\":3876:3882   */\n  dup5\n    /* \"#utility.yul\":3867:3874   */\n  dup3\n    /* \"#utility.yul\":3864:3883   */\n  lt\n    /* \"#utility.yul\":3861:4062   */\n  iszero\n  tag_103\n  jumpi\n    /* \"#utility.yul\":3937:3956   */\n  dup7\n  dup5\n  add\n    /* \"#utility.yul\":3931:3957   */\n  mload\n  not(0x00)\n    /* \"#utility.yul\":4020:4021   */\n  0x03\n    /* \"#utility.yul\":4016:4030   */\n  dup8\n  swap1\n  shl\n    /* \"#utility.yul\":4032:4035   */\n  0xf8\n    /* \"#utility.yul\":4012:4036   */\n  and\n    /* \"#utility.yul\":4008:4045   */\n  shr\n    /* \"#utility.yul\":4004:4046   */\n  not\n    /* \"#utility.yul\":3989:4047   */\n  and\n    /* \"#utility.yul\":3974:4048   */\n  dup2\n  sstore\n    /* \"#utility.yul\":3861:4062   */\ntag_103:\n  pop\n  pop\n  pop\n  pop\n    /* \"#utility.yul\":4108:4109   */\n  0x01\n    /* \"#utility.yul\":4092:4106   */\n  swap1\n  dup2\n  shl\n    /* \"#utility.yul\":4088:4110   */\n  add\n    /* \"#utility.yul\":4075:4111   */\n  swap1\n  sstore\n  pop\n    /* \"#utility.yul\":3079:4378   */\n  jump\t// out\n    /* \"#utility.yul\":4383:4592   */\ntag_16:\n    /* \"#utility.yul\":4415:4416   */\n  0x00\n    /* \"#utility.yul\":4441:4442   */\n  dup3\n    /* \"#utility.yul\":4431:4563   */\n  tag_105\n  jumpi\n    /* \"#utility.yul\":4485:4495   */\n  0x4e487b71\n    /* \"#utility.yul\":4480:4483   */\n  0xe0\n    /* \"#utility.yul\":4476:4496   */\n  shl\n    /* \"#utility.yul\":4473:4474   */\n  0x00\n    /* \"#utility.yul\":4466:4497   */\n  mstore\n    /* \"#utility.yul\":4520:4524   */\n  0x12\n    /* \"#utility.yul\":4517:4518   */\n  0x04\n    /* \"#utility.yul\":4510:4525   */\n  mstore\n    /* \"#utility.yul\":4548:4552   */\n  0x24\n    /* \"#utility.yul\":4545:4546   */\n  0x00\n    /* \"#utility.yul\":4538:4553   */\n  revert\n    /* \"#utility.yul\":4431:4563   */\ntag_105:\n  pop\n    /* \"#utility.yul\":4577:4586   */\n  mod\n  swap1\n    /* \"#utility.yul\":4383:4592   */\n  jump\t// out\n    /* \"#utility.yul\":4597:4725   */\ntag_18:\n    /* \"#utility.yul\":4664:4673   */\n  dup2\n  dup2\n  sub\n    /* \"#utility.yul\":4685:4696   */\n  dup2\n  dup2\n  gt\n    /* \"#utility.yul\":4682:4719   */\n  iszero\n  tag_61\n  jumpi\n    /* \"#utility.yul\":4699:4717   */\n  tag_61\n  tag_44\n  jump\t// in\n    /* \"#utility.yul\":4938:5063   */\ntag_35:\n    /* \"#utility.yul\":5003:5012   */\n  dup1\n  dup3\n  add\n    /* \"#utility.yul\":5024:5034   */\n  dup1\n  dup3\n  gt\n    /* \"#utility.yul\":5021:5057   */\n  iszero\n  tag_61\n  jumpi\n    /* \"#utility.yul\":5037:5055   */\n  tag_61\n  tag_44\n  jump\t// in\n    /* \"#utility.yul\":5418:5595   */\ntag_52:\n    /* \"CYBCC.sol\":128:14009  contract CYBCC is ERC20 {... */\n  dataSize(sub_0)\n  dup1\n  dataOffset(sub_0)\n  0x00\n  codecopy\n  0x00\n  return\nstop\n\nsub_0: assembly {\n        /* \"CYBCC.sol\":128:14009  contract CYBCC is ERC20 {... */\n      mstore(0x40, 0x80)\n      jumpi(tag_1, lt(calldatasize, 0x04))\n      shr(0xe0, calldataload(0x00))\n      dup1\n      0x838fcc90\n      gt\n      tag_35\n      jumpi\n      dup1\n      0xc4863770\n      gt\n      tag_36\n      jumpi\n      dup1\n      0xdd62ed3e\n      gt\n      tag_37\n      jumpi\n      dup1\n      0xdd62ed3e\n      eq\n      tag_31\n      jumpi\n      dup1\n      0xf66608fe\n      eq\n      tag_32\n      jumpi\n      dup1\n      0xfdeb889f\n      eq\n      tag_33\n      jumpi\n      dup1\n      0xffb54a99\n      eq\n      tag_34\n      jumpi\n      revert(0x00, 0x00)\n    tag_37:\n      dup1\n      0xc4863770\n      eq\n      tag_27\n      jumpi\n      dup1\n      0xc9567bf9\n      eq\n      tag_28\n      jumpi\n      dup1\n      0xcba0e996\n      eq\n      tag_29\n      jumpi\n      dup1\n      0xd00efb2f\n      eq\n      tag_30\n      jumpi\n      revert(0x00, 0x00)\n    tag_36:\n      dup1\n      0x95d89b41\n      gt\n      tag_38\n      jumpi\n      dup1\n      0x95d89b41\n      eq\n      tag_23\n      jumpi\n      dup1\n      0xa8b08982\n      eq\n      tag_24\n      jumpi\n      dup1\n      0xa9059cbb\n      eq\n      tag_25\n      jumpi\n      dup1\n      0xc30796ab\n      eq\n      tag_26\n      jumpi\n      revert(0x00, 0x00)\n    tag_38:\n      dup1\n      0x838fcc90\n      eq\n      tag_19\n      jumpi\n      dup1\n      0x83ad7994\n      eq\n      tag_20\n      jumpi\n      dup1\n      0x8873b15f\n      eq\n      tag_21\n      jumpi\n      dup1\n      0x8da5cb5b\n      eq\n      tag_22\n      jumpi\n      revert(0x00, 0x00)\n    tag_35:\n      dup1\n      0x3af32abf\n      gt\n      tag_39\n      jumpi\n      dup1\n      0x5fae0576\n      gt\n      tag_40\n      jumpi\n      dup1\n      0x5fae0576\n      eq\n      tag_15\n      jumpi\n      dup1\n      0x6049876e\n      eq\n      tag_16\n      jumpi\n      dup1\n      0x706407fd\n      eq\n      tag_17\n      jumpi\n      dup1\n      0x70a08231\n      eq\n      tag_18\n      jumpi\n      revert(0x00, 0x00)\n    tag_40:\n      dup1\n      0x3af32abf\n      eq\n      tag_11\n      jumpi\n      dup1\n      0x437823ec\n      eq\n      tag_12\n      jumpi\n      dup1\n      0x4549b039\n      eq\n      tag_13\n      jumpi\n      dup1\n      0x5342acb4\n      eq\n      tag_14\n      jumpi\n      revert(0x00, 0x00)\n    tag_39:\n      dup1\n      0x1cf8fef5\n      gt\n      tag_41\n      jumpi\n      dup1\n      0x1cf8fef5\n      eq\n      tag_7\n      jumpi\n      dup1\n      0x23b872dd\n      eq\n      tag_8\n      jumpi\n      dup1\n      0x313ce567\n      eq\n      tag_9\n      jumpi\n      dup1\n      0x32035504\n      eq\n      tag_10\n      jumpi\n      revert(0x00, 0x00)\n    tag_41:\n      dup1\n      0x053ab182\n      eq\n      tag_3\n      jumpi\n      dup1\n      0x06fdde03\n      eq\n      tag_4\n      jumpi\n      dup1\n      0x095ea7b3\n      eq\n      tag_5\n      jumpi\n      dup1\n      0x18160ddd\n      eq\n      tag_6\n      jumpi\n      revert(0x00, 0x00)\n    tag_1:\n      jumpi(tag_2, calldatasize)\n      stop\n    tag_2:\n      revert(0x00, 0x00)\n        /* \"CYBCC.sol\":4068:4472  function reflect(uint256 tAmount) public {... */\n    tag_3:\n      callvalue\n      dup1\n      iszero\n      tag_44\n      jumpi\n      revert(0x00, 0x00)\n    tag_44:\n      pop\n      tag_45\n      tag_46\n      calldatasize\n      0x04\n      tag_47\n      jump\t// in\n    tag_46:\n      tag_48\n      jump\t// in\n    tag_45:\n      stop\n        /* \"@openzeppelin/contracts/token/ERC20/ERC20.sol\":1760:1849  function name() public view virtual returns (string memory) {... */\n    tag_4:\n      callvalue\n      dup1\n      iszero\n      tag_49\n      jumpi\n      revert(0x00, 0x00)\n    tag_49:\n      pop\n      tag_50\n      tag_51\n      jump\t// in\n    tag_50:\n      mload(0x40)\n      tag_52\n      swap2\n      swap1\n      tag_53\n      jump\t// in\n    tag_52:\n      mload(0x40)\n      dup1\n      swap2\n      sub\n      swap1\n      return\n        /* \"@openzeppelin/contracts/token/ERC20/ERC20.sol\":3979:4165  function approve(address spender, uint256 value) public virtual returns (bool) {... */\n    tag_5:\n      callvalue\n      dup1\n      iszero\n      tag_54\n      jumpi\n      revert(0x00, 0x00)\n    tag_54:\n      pop\n      tag_55\n      tag_56\n      calldatasize\n      0x04\n      tag_57\n      jump\t// in\n    tag_56:\n      tag_58\n      jump\t// in\n    tag_55:\n      mload(0x40)\n        /* \"#utility.yul\":1316:1330   */\n      swap1\n      iszero\n        /* \"#utility.yul\":1309:1331   */\n      iszero\n        /* \"#utility.yul\":1291:1332   */\n      dup2\n      mstore\n        /* \"#utility.yul\":1279:1281   */\n      0x20\n        /* \"#utility.yul\":1264:1282   */\n      add\n        /* \"@openzeppelin/contracts/token/ERC20/ERC20.sol\":3979:4165  function approve(address spender, uint256 value) public virtual returns (bool) {... */\n      tag_52\n        /* \"#utility.yul\":1151:1338   */\n      jump\n        /* \"CYBCC.sol\":2201:2302  function totalSupply() public view virtual override returns (uint256) {... */\n    tag_6:\n      callvalue\n      dup1\n      iszero\n      tag_61\n      jumpi\n      revert(0x00, 0x00)\n    tag_61:\n      pop\n        /* \"CYBCC.sol\":2288:2295  _tTotal */\n      sload(0x0c)\n        /* \"CYBCC.sol\":2201:2302  function totalSupply() public view virtual override returns (uint256) {... */\n    tag_62:\n      mload(0x40)\n        /* \"#utility.yul\":1489:1514   */\n      swap1\n      dup2\n      mstore\n        /* \"#utility.yul\":1477:1479   */\n      0x20\n        /* \"#utility.yul\":1462:1480   */\n      add\n        /* \"CYBCC.sol\":2201:2302  function totalSupply() public view virtual override returns (uint256) {... */\n      tag_52\n        /* \"#utility.yul\":1343:1520   */\n      jump\n        /* \"CYBCC.sol\":2603:2709  function getDevelopmentAccount() public view returns (address) {... */\n    tag_7:\n      callvalue\n      dup1\n      iszero\n      tag_66\n      jumpi\n      revert(0x00, 0x00)\n    tag_66:\n      pop\n        /* \"CYBCC.sol\":2683:2702  _developmentAccount */\n      and(sub(shl(0xa0, 0x01), 0x01), sload(0x14))\n        /* \"CYBCC.sol\":2603:2709  function getDevelopmentAccount() public view returns (address) {... */\n    tag_67:\n      mload(0x40)\n      sub(shl(0xa0, 0x01), 0x01)\n        /* \"#utility.yul\":1689:1721   */\n      swap1\n      swap2\n      and\n        /* \"#utility.yul\":1671:1722   */\n      dup2\n      mstore\n        /* \"#utility.yul\":1659:1661   */\n      0x20\n        /* \"#utility.yul\":1644:1662   */\n      add\n        /* \"CYBCC.sol\":2603:2709  function getDevelopmentAccount() public view returns (address) {... */\n      tag_52\n        /* \"#utility.yul\":1525:1728   */\n      jump\n        /* \"@openzeppelin/contracts/token/ERC20/ERC20.sol\":4757:5001  function transferFrom(address from, address to, uint256 value) public virtual returns (bool) {... */\n    tag_8:\n      callvalue\n      dup1\n      iszero\n      tag_71\n      jumpi\n      revert(0x00, 0x00)\n    tag_71:\n      pop\n      tag_55\n      tag_73\n      calldatasize\n      0x04\n      tag_74\n      jump\t// in\n    tag_73:\n      tag_75\n      jump\t// in\n        /* \"CYBCC.sol\":2097:2195  function decimals() public view virtual override returns (uint8) {... */\n    tag_9:\n      callvalue\n      dup1\n      iszero\n      tag_77\n      jumpi\n      revert(0x00, 0x00)\n    tag_77:\n      pop\n        /* \"CYBCC.sol\":2179:2188  _decimals */\n      sload(0x0b)\n        /* \"CYBCC.sol\":2097:2195  function decimals() public view virtual override returns (uint8) {... */\n      mload(0x40)\n        /* \"CYBCC.sol\":2179:2188  _decimals */\n      0xff\n      swap1\n      swap2\n      and\n        /* \"#utility.yul\":2254:2290   */\n      dup2\n      mstore\n        /* \"#utility.yul\":2242:2244   */\n      0x20\n        /* \"#utility.yul\":2227:2245   */\n      add\n        /* \"CYBCC.sol\":2097:2195  function decimals() public view virtual override returns (uint8) {... */\n      tag_52\n        /* \"#utility.yul\":2112:2296   */\n      jump\n        /* \"CYBCC.sol\":3230:3328  function totalFeesRedistributed() public view returns (uint256) {... */\n    tag_10:\n      callvalue\n      dup1\n      iszero\n      tag_82\n      jumpi\n      revert(0x00, 0x00)\n    tag_82:\n      pop\n        /* \"CYBCC.sol\":3311:3321  _tFeeTotal */\n      sload(0x0e)\n        /* \"CYBCC.sol\":3230:3328  function totalFeesRedistributed() public view returns (uint256) {... */\n      jump(tag_62)\n        /* \"CYBCC.sol\":313:358  mapping(address => bool) public isWhitelisted */\n    tag_11:\n      callvalue\n      dup1\n      iszero\n      tag_86\n      jumpi\n      revert(0x00, 0x00)\n    tag_86:\n      pop\n      tag_55\n      tag_88\n      calldatasize\n      0x04\n      tag_89\n      jump\t// in\n    tag_88:\n      mstore(0x20, 0x08)\n      0x00\n      swap1\n      dup2\n      mstore\n      0x40\n      swap1\n      keccak256\n      sload\n      0xff\n      and\n      dup2\n      jump\n        /* \"CYBCC.sol\":3334:3443  function excludeFromFee(address account) public onlyOwner {... */\n    tag_12:\n      callvalue\n      dup1\n      iszero\n      tag_92\n      jumpi\n      revert(0x00, 0x00)\n    tag_92:\n      pop\n      tag_45\n      tag_94\n      calldatasize\n      0x04\n      tag_89\n      jump\t// in\n    tag_94:\n      tag_95\n      jump\t// in\n        /* \"CYBCC.sol\":4478:4952  function reflectionFromToken(uint256 tAmount, bool deductTransferFee)... */\n    tag_13:\n      callvalue\n      dup1\n      iszero\n      tag_96\n      jumpi\n      revert(0x00, 0x00)\n    tag_96:\n      pop\n      tag_62\n      tag_98\n      calldatasize\n      0x04\n      tag_99\n      jump\t// in\n    tag_98:\n      tag_100\n      jump\t// in\n        /* \"CYBCC.sol\":2715:2837  function isExcludedFromFee(address account) public view returns (bool) {... */\n    tag_14:\n      callvalue\n      dup1\n      iszero\n      tag_102\n      jumpi\n      revert(0x00, 0x00)\n    tag_102:\n      pop\n      tag_55\n      tag_104\n      calldatasize\n      0x04\n      tag_89\n      jump\t// in\n    tag_104:\n      sub(shl(0xa0, 0x01), 0x01)\n        /* \"CYBCC.sol\":2803:2830  _isExcludedFromFee[account] */\n      and\n        /* \"CYBCC.sol\":2780:2784  bool */\n      0x00\n        /* \"CYBCC.sol\":2803:2830  _isExcludedFromFee[account] */\n      swap1\n      dup2\n      mstore\n        /* \"CYBCC.sol\":2803:2821  _isExcludedFromFee */\n      0x07\n        /* \"CYBCC.sol\":2803:2830  _isExcludedFromFee[account] */\n      0x20\n      mstore\n      0x40\n      swap1\n      keccak256\n      sload\n      0xff\n      and\n      swap1\n        /* \"CYBCC.sol\":2715:2837  function isExcludedFromFee(address account) public view returns (bool) {... */\n      jump\n        /* \"CYBCC.sol\":6088:6208  function isWhitelistedAddress(address account) public view returns (bool) {... */\n    tag_15:\n      callvalue\n      dup1\n      iszero\n      tag_107\n      jumpi\n      revert(0x00, 0x00)\n    tag_107:\n      pop\n      tag_55\n      tag_109\n      calldatasize\n      0x04\n      tag_89\n      jump\t// in\n    tag_109:\n      sub(shl(0xa0, 0x01), 0x01)\n        /* \"CYBCC.sol\":6179:6201  isWhitelisted[account] */\n      and\n        /* \"CYBCC.sol\":6156:6160  bool */\n      0x00\n        /* \"CYBCC.sol\":6179:6201  isWhitelisted[account] */\n      swap1\n      dup2\n      mstore\n        /* \"CYBCC.sol\":6179:6192  isWhitelisted */\n      0x08\n        /* \"CYBCC.sol\":6179:6201  isWhitelisted[account] */\n      0x20\n      mstore\n      0x40\n      swap1\n      keccak256\n      sload\n      0xff\n      and\n      swap1\n        /* \"CYBCC.sol\":6088:6208  function isWhitelistedAddress(address account) public view returns (bool) {... */\n      jump\n        /* \"CYBCC.sol\":5273:5605  function excludeAccountFromReward(address account) public onlyOwner {... */\n    tag_16:\n      callvalue\n      dup1\n      iszero\n      tag_112\n      jumpi\n      revert(0x00, 0x00)\n    tag_112:\n      pop\n      tag_45\n      tag_114\n      calldatasize\n      0x04\n      tag_89\n      jump\t// in\n    tag_114:\n      tag_115\n      jump\t// in\n        /* \"CYBCC.sol\":3699:3947  function changeDevelopmentAccount(address newFeeAccount) public onlyOwner {... */\n    tag_17:\n      callvalue\n      dup1\n      iszero\n      tag_116\n      jumpi\n      revert(0x00, 0x00)\n    tag_116:\n      pop\n      tag_45\n      tag_118\n      calldatasize\n      0x04\n      tag_89\n      jump\t// in\n    tag_118:\n      tag_119\n      jump\t// in\n        /* \"CYBCC.sol\":2843:3110  function balanceOf(address sender)... */\n    tag_18:\n      callvalue\n      dup1\n      iszero\n      tag_120\n      jumpi\n      revert(0x00, 0x00)\n    tag_120:\n      pop\n      tag_62\n      tag_122\n      calldatasize\n      0x04\n      tag_89\n      jump\t// in\n    tag_122:\n      tag_123\n      jump\t// in\n        /* \"CYBCC.sol\":2495:2597  function getMarketingAccount() public view returns (address) {... */\n    tag_19:\n      callvalue\n      dup1\n      iszero\n      tag_125\n      jumpi\n      revert(0x00, 0x00)\n    tag_125:\n      pop\n        /* \"CYBCC.sol\":2573:2590  _marketingAccount */\n      and(sub(shl(0xa0, 0x01), 0x01), sload(0x13))\n        /* \"CYBCC.sol\":2495:2597  function getMarketingAccount() public view returns (address) {... */\n      jump(tag_67)\n        /* \"CYBCC.sol\":2308:2401  function reflectionFee() public view returns (uint256) {... */\n    tag_20:\n      callvalue\n      dup1\n      iszero\n      tag_129\n      jumpi\n      revert(0x00, 0x00)\n    tag_129:\n      pop\n        /* \"CYBCC.sol\":2380:2394  _reflectionFee */\n      sload(0x0f)\n        /* \"CYBCC.sol\":2308:2401  function reflectionFee() public view returns (uint256) {... */\n      jump(tag_62)\n        /* \"CYBCC.sol\":3953:4062  function changePairAddress(address _pairAddress) public onlyOwner {... */\n    tag_21:\n      callvalue\n      dup1\n      iszero\n      tag_133\n      jumpi\n      revert(0x00, 0x00)\n    tag_133:\n      pop\n      tag_45\n      tag_135\n      calldatasize\n      0x04\n      tag_89\n      jump\t// in\n    tag_135:\n      tag_136\n      jump\t// in\n        /* \"CYBCC.sol\":1934:2019  function owner() public view virtual returns (address) {... */\n    tag_22:\n      callvalue\n      dup1\n      iszero\n      tag_137\n      jumpi\n      revert(0x00, 0x00)\n    tag_137:\n      pop\n        /* \"CYBCC.sol\":2006:2012  _owner */\n      sload(0x0b)\n      0x0100\n      swap1\n      div\n      sub(shl(0xa0, 0x01), 0x01)\n      and\n        /* \"CYBCC.sol\":1934:2019  function owner() public view virtual returns (address) {... */\n      jump(tag_67)\n        /* \"@openzeppelin/contracts/token/ERC20/ERC20.sol\":1962:2055  function symbol() public view virtual returns (string memory) {... */\n    tag_23:\n      callvalue\n      dup1\n      iszero\n      tag_141\n      jumpi\n      revert(0x00, 0x00)\n    tag_141:\n      pop\n      tag_50\n      tag_143\n      jump\t// in\n        /* \"CYBCC.sol\":891:917  address public pairAddress */\n    tag_24:\n      callvalue\n      dup1\n      iszero\n      tag_145\n      jumpi\n      revert(0x00, 0x00)\n    tag_145:\n      pop\n      sload(0x15)\n      tag_67\n      swap1\n      sub(shl(0xa0, 0x01), 0x01)\n      and\n      dup2\n      jump\n        /* \"@openzeppelin/contracts/token/ERC20/ERC20.sol\":3296:3474  function transfer(address to, uint256 value) public virtual returns (bool) {... */\n    tag_25:\n      callvalue\n      dup1\n      iszero\n      tag_149\n      jumpi\n      revert(0x00, 0x00)\n    tag_149:\n      pop\n      tag_55\n      tag_151\n      calldatasize\n      0x04\n      tag_57\n      jump\t// in\n    tag_151:\n      tag_152\n      jump\t// in\n        /* \"CYBCC.sol\":6214:6398  function whitelistedAddress(address account) public onlyOwner {... */\n    tag_26:\n      callvalue\n      dup1\n      iszero\n      tag_154\n      jumpi\n      revert(0x00, 0x00)\n    tag_154:\n      pop\n      tag_45\n      tag_156\n      calldatasize\n      0x04\n      tag_89\n      jump\t// in\n    tag_156:\n      tag_157\n      jump\t// in\n        /* \"CYBCC.sol\":3449:3693  function changeMarketingAccount(address newFeeAccount) public onlyOwner {... */\n    tag_27:\n      callvalue\n      dup1\n      iszero\n      tag_158\n      jumpi\n      revert(0x00, 0x00)\n    tag_158:\n      pop\n      tag_45\n      tag_160\n      calldatasize\n      0x04\n      tag_89\n      jump\t// in\n    tag_160:\n      tag_161\n      jump\t// in\n        /* \"CYBCC.sol\":6404:6517  function openTrading() external onlyOwner {... */\n    tag_28:\n      callvalue\n      dup1\n      iszero\n      tag_162\n      jumpi\n      revert(0x00, 0x00)\n    tag_162:\n      pop\n      tag_45\n      tag_164\n      jump\t// in\n        /* \"CYBCC.sol\":3116:3224  function isExcluded(address account) public view returns (bool) {... */\n    tag_29:\n      callvalue\n      dup1\n      iszero\n      tag_165\n      jumpi\n      revert(0x00, 0x00)\n    tag_165:\n      pop\n      tag_55\n      tag_167\n      calldatasize\n      0x04\n      tag_89\n      jump\t// in\n    tag_167:\n      sub(shl(0xa0, 0x01), 0x01)\n        /* \"CYBCC.sol\":3197:3217  _isExcluded[account] */\n      and\n        /* \"CYBCC.sol\":3174:3178  bool */\n      0x00\n        /* \"CYBCC.sol\":3197:3217  _isExcluded[account] */\n      swap1\n      dup2\n      mstore\n        /* \"CYBCC.sol\":3197:3208  _isExcluded */\n      0x09\n        /* \"CYBCC.sol\":3197:3217  _isExcluded[account] */\n      0x20\n      mstore\n      0x40\n      swap1\n      keccak256\n      sload\n      0xff\n      and\n      swap1\n        /* \"CYBCC.sol\":3116:3224  function isExcluded(address account) public view returns (bool) {... */\n      jump\n        /* \"CYBCC.sol\":998:1024  uint256 public launchBlock */\n    tag_30:\n      callvalue\n      dup1\n      iszero\n      tag_170\n      jumpi\n      revert(0x00, 0x00)\n    tag_170:\n      pop\n      tag_62\n      sload(0x17)\n      dup2\n      jump\n        /* \"@openzeppelin/contracts/token/ERC20/ERC20.sol\":3532:3672  function allowance(address owner, address spender) public view virtual returns (uint256) {... */\n    tag_31:\n      callvalue\n      dup1\n      iszero\n      tag_174\n      jumpi\n      revert(0x00, 0x00)\n    tag_174:\n      pop\n      tag_62\n      tag_176\n      calldatasize\n      0x04\n      tag_177\n      jump\t// in\n    tag_176:\n      sub(shl(0xa0, 0x01), 0x01)\n        /* \"@openzeppelin/contracts/token/ERC20/ERC20.sol\":3638:3656  _allowances[owner] */\n      swap2\n      dup3\n      and\n        /* \"@openzeppelin/contracts/token/ERC20/ERC20.sol\":3612:3619  uint256 */\n      0x00\n        /* \"@openzeppelin/contracts/token/ERC20/ERC20.sol\":3638:3656  _allowances[owner] */\n      swap1\n      dup2\n      mstore\n        /* \"@openzeppelin/contracts/token/ERC20/ERC20.sol\":3638:3649  _allowances */\n      0x01\n        /* \"@openzeppelin/contracts/token/ERC20/ERC20.sol\":3638:3656  _allowances[owner] */\n      0x20\n      swap1\n      dup2\n      mstore\n      0x40\n      dup1\n      dup4\n      keccak256\n        /* \"@openzeppelin/contracts/token/ERC20/ERC20.sol\":3638:3665  _allowances[owner][spender] */\n      swap4\n      swap1\n      swap5\n      and\n      dup3\n      mstore\n      swap2\n      swap1\n      swap2\n      mstore\n      keccak256\n      sload\n      swap1\n        /* \"@openzeppelin/contracts/token/ERC20/ERC20.sol\":3532:3672  function allowance(address owner, address spender) public view virtual returns (uint256) {... */\n      jump\n        /* \"CYBCC.sol\":2407:2489  function getTaxFee() public view returns (uint256) {... */\n    tag_32:\n      callvalue\n      dup1\n      iszero\n      tag_180\n      jumpi\n      revert(0x00, 0x00)\n    tag_180:\n      pop\n        /* \"CYBCC.sol\":2475:2482  _taxFee */\n      sload(0x11)\n        /* \"CYBCC.sol\":2407:2489  function getTaxFee() public view returns (uint256) {... */\n      jump(tag_62)\n        /* \"CYBCC.sol\":5611:6082  function includeAccountinReward(address account) public onlyOwner {... */\n    tag_33:\n      callvalue\n      dup1\n      iszero\n      tag_184\n      jumpi\n      revert(0x00, 0x00)\n    tag_184:\n      pop\n      tag_45\n      tag_186\n      calldatasize\n      0x04\n      tag_89\n      jump\t// in\n    tag_186:\n      tag_187\n      jump\t// in\n        /* \"CYBCC.sol\":1030:1061  bool public tradingOpen = false */\n    tag_34:\n      callvalue\n      dup1\n      iszero\n      tag_188\n      jumpi\n      revert(0x00, 0x00)\n    tag_188:\n      pop\n      sload(0x18)\n      tag_55\n      swap1\n      0xff\n      and\n      dup2\n      jump\n        /* \"CYBCC.sol\":4068:4472  function reflect(uint256 tAmount) public {... */\n    tag_48:\n        /* \"@openzeppelin/contracts/utils/Context.sol\":735:745  msg.sender */\n      caller\n        /* \"CYBCC.sol\":4119:4133  address sender */\n      0x00\n        /* \"CYBCC.sol\":4180:4199  _isExcluded[sender] */\n      dup2\n      dup2\n      mstore\n        /* \"CYBCC.sol\":4180:4191  _isExcluded */\n      0x09\n        /* \"CYBCC.sol\":4180:4199  _isExcluded[sender] */\n      0x20\n      mstore\n      0x40\n      swap1\n      keccak256\n      sload\n      0xff\n      and\n        /* \"CYBCC.sol\":4179:4199  !_isExcluded[sender] */\n      iszero\n        /* \"CYBCC.sol\":4158:4269  require(... */\n      tag_195\n      jumpi\n      mload(0x40)\n      shl(0xe5, 0x461bcd)\n      dup2\n      mstore\n        /* \"#utility.yul\":3359:3361   */\n      0x20\n        /* \"CYBCC.sol\":4158:4269  require(... */\n      0x04\n      dup3\n      add\n        /* \"#utility.yul\":3341:3362   */\n      mstore\n        /* \"#utility.yul\":3398:3400   */\n      0x2c\n        /* \"#utility.yul\":3378:3396   */\n      0x24\n      dup3\n      add\n        /* \"#utility.yul\":3371:3401   */\n      mstore\n        /* \"#utility.yul\":3437:3471   */\n      0x4578636c75646564206164647265737365732063616e6e6f742063616c6c2074\n        /* \"#utility.yul\":3417:3435   */\n      0x44\n      dup3\n      add\n        /* \"#utility.yul\":3410:3472   */\n      mstore\n      shl(0xa1, 0x3434b990333ab731ba34b7b7)\n        /* \"#utility.yul\":3488:3506   */\n      0x64\n      dup3\n      add\n        /* \"#utility.yul\":3481:3523   */\n      mstore\n        /* \"#utility.yul\":3540:3559   */\n      0x84\n      add\n        /* \"CYBCC.sol\":4158:4269  require(... */\n    tag_196:\n      mload(0x40)\n      dup1\n      swap2\n      sub\n      swap1\n      revert\n    tag_195:\n        /* \"CYBCC.sol\":4280:4295  uint256 rAmount */\n      0x00\n        /* \"CYBCC.sol\":4305:4332  _getTransferValues(tAmount) */\n      tag_198\n        /* \"CYBCC.sol\":4324:4331  tAmount */\n      dup4\n        /* \"CYBCC.sol\":4305:4323  _getTransferValues */\n      tag_199\n        /* \"CYBCC.sol\":4305:4332  _getTransferValues(tAmount) */\n      jump\t// in\n    tag_198:\n      pop\n      pop\n      pop\n      sub(shl(0xa0, 0x01), 0x01)\n        /* \"CYBCC.sol\":4360:4375  _rOwned[sender] */\n      dup4\n      and\n      0x00\n      swap1\n      dup2\n      mstore\n        /* \"CYBCC.sol\":4360:4367  _rOwned */\n      0x05\n        /* \"CYBCC.sol\":4360:4375  _rOwned[sender] */\n      0x20\n      mstore\n      0x40\n      swap1\n      keccak256\n      sload\n        /* \"CYBCC.sol\":4279:4332  (uint256 rAmount, , , ) = _getTransferValues(tAmount) */\n      swap1\n      swap2\n      pop\n        /* \"CYBCC.sol\":4360:4385  _rOwned[sender] - rAmount */\n      tag_200\n      swap1\n        /* \"CYBCC.sol\":4279:4332  (uint256 rAmount, , , ) = _getTransferValues(tAmount) */\n      dup3\n      swap1\n        /* \"CYBCC.sol\":4360:4385  _rOwned[sender] - rAmount */\n      tag_201\n      jump\t// in\n    tag_200:\n      sub(shl(0xa0, 0x01), 0x01)\n        /* \"CYBCC.sol\":4342:4357  _rOwned[sender] */\n      dup4\n      and\n      0x00\n      swap1\n      dup2\n      mstore\n        /* \"CYBCC.sol\":4342:4349  _rOwned */\n      0x05\n        /* \"CYBCC.sol\":4342:4357  _rOwned[sender] */\n      0x20\n      mstore\n      0x40\n      swap1\n      keccak256\n        /* \"CYBCC.sol\":4342:4385  _rOwned[sender] = _rOwned[sender] - rAmount */\n      sstore\n        /* \"CYBCC.sol\":4405:4412  _rTotal */\n      sload(0x0d)\n        /* \"CYBCC.sol\":4405:4422  _rTotal - rAmount */\n      tag_202\n      swap1\n        /* \"CYBCC.sol\":4415:4422  rAmount */\n      dup3\n      swap1\n        /* \"CYBCC.sol\":4405:4422  _rTotal - rAmount */\n      tag_201\n      jump\t// in\n    tag_202:\n        /* \"CYBCC.sol\":4395:4402  _rTotal */\n      0x0d\n        /* \"CYBCC.sol\":4395:4422  _rTotal = _rTotal - rAmount */\n      sstore\n        /* \"CYBCC.sol\":4445:4455  _tFeeTotal */\n      sload(0x0e)\n        /* \"CYBCC.sol\":4445:4465  _tFeeTotal + tAmount */\n      tag_203\n      swap1\n        /* \"CYBCC.sol\":4458:4465  tAmount */\n      dup5\n      swap1\n        /* \"CYBCC.sol\":4445:4465  _tFeeTotal + tAmount */\n      tag_204\n      jump\t// in\n    tag_203:\n        /* \"CYBCC.sol\":4432:4442  _tFeeTotal */\n      0x0e\n        /* \"CYBCC.sol\":4432:4465  _tFeeTotal = _tFeeTotal + tAmount */\n      sstore\n      pop\n      pop\n      pop\n        /* \"CYBCC.sol\":4068:4472  function reflect(uint256 tAmount) public {... */\n      jump\t// out\n        /* \"@openzeppelin/contracts/token/ERC20/ERC20.sol\":1760:1849  function name() public view virtual returns (string memory) {... */\n    tag_51:\n        /* \"@openzeppelin/contracts/token/ERC20/ERC20.sol\":1805:1818  string memory */\n      0x60\n        /* \"@openzeppelin/contracts/token/ERC20/ERC20.sol\":1837:1842  _name */\n      0x03\n        /* \"@openzeppelin/contracts/token/ERC20/ERC20.sol\":1830:1842  return _name */\n      dup1\n      sload\n      tag_206\n      swap1\n      tag_207\n      jump\t// in\n    tag_206:\n      dup1\n      0x1f\n      add\n      0x20\n      dup1\n      swap2\n      div\n      mul\n      0x20\n      add\n      mload(0x40)\n      swap1\n      dup2\n      add\n      0x40\n      mstore\n      dup1\n      swap3\n      swap2\n      swap1\n      dup2\n      dup2\n      mstore\n      0x20\n      add\n      dup3\n      dup1\n      sload\n      tag_208\n      swap1\n      tag_207\n      jump\t// in\n    tag_208:\n      dup1\n      iszero\n      tag_209\n      jumpi\n      dup1\n      0x1f\n      lt\n      tag_210\n      jumpi\n      0x0100\n      dup1\n      dup4\n      sload\n      div\n      mul\n      dup4\n      mstore\n      swap2\n      0x20\n      add\n      swap2\n      jump(tag_209)\n    tag_210:\n      dup3\n      add\n      swap2\n      swap1\n      0x00\n      mstore\n      keccak256(0x00, 0x20)\n      swap1\n    tag_211:\n      dup2\n      sload\n      dup2\n      mstore\n      swap1\n      0x01\n      add\n      swap1\n      0x20\n      add\n      dup1\n      dup4\n      gt\n      tag_211\n      jumpi\n      dup3\n      swap1\n      sub\n      0x1f\n      and\n      dup3\n      add\n      swap2\n    tag_209:\n      pop\n      pop\n      pop\n      pop\n      pop\n      swap1\n      pop\n        /* \"@openzeppelin/contracts/token/ERC20/ERC20.sol\":1760:1849  function name() public view virtual returns (string memory) {... */\n      swap1\n      jump\t// out\n        /* \"@openzeppelin/contracts/token/ERC20/ERC20.sol\":3979:4165  function approve(address spender, uint256 value) public virtual returns (bool) {... */\n    tag_58:\n        /* \"@openzeppelin/contracts/token/ERC20/ERC20.sol\":4052:4056  bool */\n      0x00\n        /* \"@openzeppelin/contracts/utils/Context.sol\":735:745  msg.sender */\n      caller\n        /* \"@openzeppelin/contracts/token/ERC20/ERC20.sol\":4106:4137  _approve(owner, spender, value) */\n      tag_214\n        /* \"@openzeppelin/contracts/utils/Context.sol\":735:745  msg.sender */\n      dup2\n        /* \"@openzeppelin/contracts/token/ERC20/ERC20.sol\":4122:4129  spender */\n      dup6\n        /* \"@openzeppelin/contracts/token/ERC20/ERC20.sol\":4131:4136  value */\n      dup6\n        /* \"@openzeppelin/contracts/token/ERC20/ERC20.sol\":4106:4114  _approve */\n      tag_215\n        /* \"@openzeppelin/contracts/token/ERC20/ERC20.sol\":4106:4137  _approve(owner, spender, value) */\n      jump\t// in\n    tag_214:\n        /* \"@openzeppelin/contracts/token/ERC20/ERC20.sol\":4154:4158  true */\n      0x01\n        /* \"@openzeppelin/contracts/token/ERC20/ERC20.sol\":4147:4158  return true */\n      swap2\n      pop\n      pop\n        /* \"@openzeppelin/contracts/token/ERC20/ERC20.sol\":3979:4165  function approve(address spender, uint256 value) public virtual returns (bool) {... */\n    tag_212:\n      swap3\n      swap2\n      pop\n      pop\n      jump\t// out\n        /* \"@openzeppelin/contracts/token/ERC20/ERC20.sol\":4757:5001  function transferFrom(address from, address to, uint256 value) public virtual returns (bool) {... */\n    tag_75:\n        /* \"@openzeppelin/contracts/token/ERC20/ERC20.sol\":4844:4848  bool */\n      0x00\n        /* \"@openzeppelin/contracts/utils/Context.sol\":735:745  msg.sender */\n      caller\n        /* \"@openzeppelin/contracts/token/ERC20/ERC20.sol\":4900:4937  _spendAllowance(from, spender, value) */\n      tag_220\n        /* \"@openzeppelin/contracts/token/ERC20/ERC20.sol\":4916:4920  from */\n      dup6\n        /* \"@openzeppelin/contracts/utils/Context.sol\":735:745  msg.sender */\n      dup3\n        /* \"@openzeppelin/contracts/token/ERC20/ERC20.sol\":4931:4936  value */\n      dup6\n        /* \"@openzeppelin/contracts/token/ERC20/ERC20.sol\":4900:4915  _spendAllowance */\n      tag_221\n        /* \"@openzeppelin/contracts/token/ERC20/ERC20.sol\":4900:4937  _spendAllowance(from, spender, value) */\n      jump\t// in\n    tag_220:\n        /* \"@openzeppelin/contracts/token/ERC20/ERC20.sol\":4947:4973  _transfer(from, to, value) */\n      tag_222\n        /* \"@openzeppelin/contracts/token/ERC20/ERC20.sol\":4957:4961  from */\n      dup6\n        /* \"@openzeppelin/contracts/token/ERC20/ERC20.sol\":4963:4965  to */\n      dup6\n        /* \"@openzeppelin/contracts/token/ERC20/ERC20.sol\":4967:4972  value */\n      dup6\n        /* \"@openzeppelin/contracts/token/ERC20/ERC20.sol\":4947:4956  _transfer */\n      tag_223\n        /* \"@openzeppelin/contracts/token/ERC20/ERC20.sol\":4947:4973  _transfer(from, to, value) */\n      jump\t// in\n    tag_222:\n      pop\n        /* \"@openzeppelin/contracts/token/ERC20/ERC20.sol\":4990:4994  true */\n      0x01\n      swap5\n        /* \"@openzeppelin/contracts/token/ERC20/ERC20.sol\":4757:5001  function transferFrom(address from, address to, uint256 value) public virtual returns (bool) {... */\n      swap4\n      pop\n      pop\n      pop\n      pop\n      jump\t// out\n        /* \"CYBCC.sol\":3334:3443  function excludeFromFee(address account) public onlyOwner {... */\n    tag_95:\n        /* \"CYBCC.sol\":2006:2012  _owner */\n      sload(0x0b)\n        /* \"CYBCC.sol\":2071:2081  msg.sender */\n      caller\n      swap1\n        /* \"CYBCC.sol\":2006:2012  _owner */\n      0x0100\n      swap1\n      div\n      sub(shl(0xa0, 0x01), 0x01)\n      and\n      sub(shl(0xa0, 0x01), 0x01)\n        /* \"CYBCC.sol\":2060:2081  owner() == msg.sender */\n      and\n      sub\n        /* \"CYBCC.sol\":2056:2084  if (owner() == msg.sender) _ */\n      tag_228\n      jumpi\n      sub(shl(0xa0, 0x01), 0x01)\n        /* \"CYBCC.sol\":3402:3429  _isExcludedFromFee[account] */\n      dup2\n      and\n      0x00\n      swap1\n      dup2\n      mstore\n        /* \"CYBCC.sol\":3402:3420  _isExcludedFromFee */\n      0x07\n        /* \"CYBCC.sol\":3402:3429  _isExcludedFromFee[account] */\n      0x20\n      mstore\n      0x40\n      swap1\n      keccak256\n        /* \"CYBCC.sol\":3402:3436  _isExcludedFromFee[account] = true */\n      dup1\n      sload\n      not(0xff)\n      and\n        /* \"CYBCC.sol\":3432:3436  true */\n      0x01\n        /* \"CYBCC.sol\":3402:3436  _isExcludedFromFee[account] = true */\n      or\n      swap1\n      sstore\n        /* \"CYBCC.sol\":2056:2084  if (owner() == msg.sender) _ */\n    tag_228:\n        /* \"CYBCC.sol\":3334:3443  function excludeFromFee(address account) public onlyOwner {... */\n      pop\n      jump\t// out\n        /* \"CYBCC.sol\":4478:4952  function reflectionFromToken(uint256 tAmount, bool deductTransferFee)... */\n    tag_100:\n        /* \"CYBCC.sol\":4593:4600  uint256 */\n      0x00\n        /* \"CYBCC.sol\":4635:4642  _tTotal */\n      sload(0x0c)\n        /* \"CYBCC.sol\":4624:4631  tAmount */\n      dup4\n        /* \"CYBCC.sol\":4624:4642  tAmount <= _tTotal */\n      gt\n      iszero\n        /* \"CYBCC.sol\":4616:4678  require(tAmount <= _tTotal, \"Amount must be less than supply\") */\n      tag_231\n      jumpi\n      mload(0x40)\n      shl(0xe5, 0x461bcd)\n      dup2\n      mstore\n        /* \"#utility.yul\":4552:4554   */\n      0x20\n        /* \"CYBCC.sol\":4616:4678  require(tAmount <= _tTotal, \"Amount must be less than supply\") */\n      0x04\n      dup3\n      add\n        /* \"#utility.yul\":4534:4555   */\n      mstore\n        /* \"#utility.yul\":4591:4593   */\n      0x1f\n        /* \"#utility.yul\":4571:4589   */\n      0x24\n      dup3\n      add\n        /* \"#utility.yul\":4564:4594   */\n      mstore\n        /* \"#utility.yul\":4630:4663   */\n      0x416d6f756e74206d757374206265206c657373207468616e20737570706c7900\n        /* \"#utility.yul\":4610:4628   */\n      0x44\n      dup3\n      add\n        /* \"#utility.yul\":4603:4664   */\n      mstore\n        /* \"#utility.yul\":4681:4699   */\n      0x64\n      add\n        /* \"CYBCC.sol\":4616:4678  require(tAmount <= _tTotal, \"Amount must be less than supply\") */\n      tag_196\n        /* \"#utility.yul\":4350:4705   */\n      jump\n        /* \"CYBCC.sol\":4616:4678  require(tAmount <= _tTotal, \"Amount must be less than supply\") */\n    tag_231:\n        /* \"CYBCC.sol\":4693:4710  deductTransferFee */\n      dup2\n        /* \"CYBCC.sol\":4688:4946  if (!deductTransferFee) {... */\n      tag_234\n      jumpi\n        /* \"CYBCC.sol\":4727:4742  uint256 rAmount */\n      0x00\n        /* \"CYBCC.sol\":4752:4779  _getTransferValues(tAmount) */\n      tag_235\n        /* \"CYBCC.sol\":4771:4778  tAmount */\n      dup5\n        /* \"CYBCC.sol\":4752:4770  _getTransferValues */\n      tag_199\n        /* \"CYBCC.sol\":4752:4779  _getTransferValues(tAmount) */\n      jump\t// in\n    tag_235:\n      pop\n        /* \"CYBCC.sol\":4726:4779  (uint256 rAmount, , , ) = _getTransferValues(tAmount) */\n      swap2\n      swap4\n      pop\n        /* \"CYBCC.sol\":4793:4807  return rAmount */\n      tag_212\n      swap3\n      pop\n      pop\n      pop\n      jump\n        /* \"CYBCC.sol\":4688:4946  if (!deductTransferFee) {... */\n    tag_234:\n        /* \"CYBCC.sol\":4841:4864  uint256 rTransferAmount */\n      0x00\n        /* \"CYBCC.sol\":4872:4899  _getTransferValues(tAmount) */\n      tag_237\n        /* \"CYBCC.sol\":4891:4898  tAmount */\n      dup5\n        /* \"CYBCC.sol\":4872:4890  _getTransferValues */\n      tag_199\n        /* \"CYBCC.sol\":4872:4899  _getTransferValues(tAmount) */\n      jump\t// in\n    tag_237:\n      pop\n        /* \"CYBCC.sol\":4838:4899  (, uint256 rTransferAmount, , ) = _getTransferValues(tAmount) */\n      swap1\n      swap4\n      pop\n        /* \"CYBCC.sol\":4913:4935  return rTransferAmount */\n      tag_212\n      swap3\n      pop\n      pop\n      pop\n      jump\n        /* \"CYBCC.sol\":5273:5605  function excludeAccountFromReward(address account) public onlyOwner {... */\n    tag_115:\n        /* \"CYBCC.sol\":2006:2012  _owner */\n      sload(0x0b)\n        /* \"CYBCC.sol\":2071:2081  msg.sender */\n      caller\n      swap1\n        /* \"CYBCC.sol\":2006:2012  _owner */\n      0x0100\n      swap1\n      div\n      sub(shl(0xa0, 0x01), 0x01)\n      and\n      sub(shl(0xa0, 0x01), 0x01)\n        /* \"CYBCC.sol\":2060:2081  owner() == msg.sender */\n      and\n      sub\n        /* \"CYBCC.sol\":2056:2084  if (owner() == msg.sender) _ */\n      tag_228\n      jumpi\n      sub(shl(0xa0, 0x01), 0x01)\n        /* \"CYBCC.sol\":5360:5380  _isExcluded[account] */\n      dup2\n      and\n      0x00\n      swap1\n      dup2\n      mstore\n        /* \"CYBCC.sol\":5360:5371  _isExcluded */\n      0x09\n        /* \"CYBCC.sol\":5360:5380  _isExcluded[account] */\n      0x20\n      mstore\n      0x40\n      swap1\n      keccak256\n      sload\n      0xff\n      and\n        /* \"CYBCC.sol\":5359:5380  !_isExcluded[account] */\n      iszero\n        /* \"CYBCC.sol\":5351:5412  require(!_isExcluded[account], \"Account is already excluded\") */\n      tag_244\n      jumpi\n      mload(0x40)\n      shl(0xe5, 0x461bcd)\n      dup2\n      mstore\n        /* \"#utility.yul\":4912:4914   */\n      0x20\n        /* \"CYBCC.sol\":5351:5412  require(!_isExcluded[account], \"Account is already excluded\") */\n      0x04\n      dup3\n      add\n        /* \"#utility.yul\":4894:4915   */\n      mstore\n        /* \"#utility.yul\":4951:4953   */\n      0x1b\n        /* \"#utility.yul\":4931:4949   */\n      0x24\n      dup3\n      add\n        /* \"#utility.yul\":4924:4954   */\n      mstore\n        /* \"#utility.yul\":4990:5019   */\n      0x4163636f756e7420697320616c7265616479206578636c756465640000000000\n        /* \"#utility.yul\":4970:4988   */\n      0x44\n      dup3\n      add\n        /* \"#utility.yul\":4963:5020   */\n      mstore\n        /* \"#utility.yul\":5037:5055   */\n      0x64\n      add\n        /* \"CYBCC.sol\":5351:5412  require(!_isExcluded[account], \"Account is already excluded\") */\n      tag_196\n        /* \"#utility.yul\":4710:5061   */\n      jump\n        /* \"CYBCC.sol\":5351:5412  require(!_isExcluded[account], \"Account is already excluded\") */\n    tag_244:\n      sub(shl(0xa0, 0x01), 0x01)\n        /* \"CYBCC.sol\":5426:5442  _rOwned[account] */\n      dup2\n      and\n        /* \"CYBCC.sol\":5445:5446  0 */\n      0x00\n        /* \"CYBCC.sol\":5426:5442  _rOwned[account] */\n      swap1\n      dup2\n      mstore\n        /* \"CYBCC.sol\":5426:5433  _rOwned */\n      0x05\n        /* \"CYBCC.sol\":5426:5442  _rOwned[account] */\n      0x20\n      mstore\n      0x40\n      swap1\n      keccak256\n      sload\n        /* \"CYBCC.sol\":5426:5446  _rOwned[account] > 0 */\n      iszero\n        /* \"CYBCC.sol\":5422:5529  if (_rOwned[account] > 0) {... */\n      tag_247\n      jumpi\n      sub(shl(0xa0, 0x01), 0x01)\n        /* \"CYBCC.sol\":5501:5517  _rOwned[account] */\n      dup2\n      and\n      0x00\n      swap1\n      dup2\n      mstore\n        /* \"CYBCC.sol\":5501:5508  _rOwned */\n      0x05\n        /* \"CYBCC.sol\":5501:5517  _rOwned[account] */\n      0x20\n      mstore\n      0x40\n      swap1\n      keccak256\n      sload\n        /* \"CYBCC.sol\":5481:5518  tokenFromReflection(_rOwned[account]) */\n      tag_248\n      swap1\n        /* \"CYBCC.sol\":5481:5500  tokenFromReflection */\n      tag_249\n        /* \"CYBCC.sol\":5481:5518  tokenFromReflection(_rOwned[account]) */\n      jump\t// in\n    tag_248:\n      sub(shl(0xa0, 0x01), 0x01)\n        /* \"CYBCC.sol\":5462:5478  _tOwned[account] */\n      dup3\n      and\n      0x00\n      swap1\n      dup2\n      mstore\n        /* \"CYBCC.sol\":5462:5469  _tOwned */\n      0x06\n        /* \"CYBCC.sol\":5462:5478  _tOwned[account] */\n      0x20\n      mstore\n      0x40\n      swap1\n      keccak256\n        /* \"CYBCC.sol\":5462:5518  _tOwned[account] = tokenFromReflection(_rOwned[account]) */\n      sstore\n        /* \"CYBCC.sol\":5422:5529  if (_rOwned[account] > 0) {... */\n    tag_247:\n      sub(shl(0xa0, 0x01), 0x01)\n        /* \"CYBCC.sol\":5538:5558  _isExcluded[account] */\n      and\n      0x00\n      dup2\n      dup2\n      mstore\n        /* \"CYBCC.sol\":5538:5549  _isExcluded */\n      0x09\n        /* \"CYBCC.sol\":5538:5558  _isExcluded[account] */\n      0x20\n      mstore\n      0x40\n      dup2\n      keccak256\n        /* \"CYBCC.sol\":5538:5565  _isExcluded[account] = true */\n      dup1\n      sload\n      not(0xff)\n      and\n        /* \"CYBCC.sol\":5561:5565  true */\n      0x01\n        /* \"CYBCC.sol\":5538:5565  _isExcluded[account] = true */\n      swap1\n      dup2\n      or\n      swap1\n      swap2\n      sstore\n        /* \"CYBCC.sol\":5575:5584  _excluded */\n      0x0a\n        /* \"CYBCC.sol\":5575:5598  _excluded.push(account) */\n      dup1\n      sload\n      swap2\n      dup3\n      add\n      dup2\n      sstore\n      swap1\n      swap2\n      mstore\n      0xc65a7bb8d6351c1cf70c95a316cc6a92839c986682d98bc35f958f4883f9d2a8\n      add\n      dup1\n      sload\n      not(sub(shl(0xa0, 0x01), 0x01))\n      and\n      swap1\n      swap2\n      or\n      swap1\n      sstore\n        /* \"CYBCC.sol\":5273:5605  function excludeAccountFromReward(address account) public onlyOwner {... */\n      jump\t// out\n        /* \"CYBCC.sol\":3699:3947  function changeDevelopmentAccount(address newFeeAccount) public onlyOwner {... */\n    tag_119:\n        /* \"CYBCC.sol\":2006:2012  _owner */\n      sload(0x0b)\n        /* \"CYBCC.sol\":2071:2081  msg.sender */\n      caller\n      swap1\n        /* \"CYBCC.sol\":2006:2012  _owner */\n      0x0100\n      swap1\n      div\n      sub(shl(0xa0, 0x01), 0x01)\n      and\n      sub(shl(0xa0, 0x01), 0x01)\n        /* \"CYBCC.sol\":2060:2081  owner() == msg.sender */\n      and\n      sub\n        /* \"CYBCC.sol\":2056:2084  if (owner() == msg.sender) _ */\n      tag_228\n      jumpi\n      sub(shl(0xa0, 0x01), 0x01)\n        /* \"CYBCC.sol\":3804:3831  newFeeAccount != address(0) */\n      dup2\n      and\n        /* \"CYBCC.sol\":3783:3895  require(... */\n      tag_255\n      jumpi\n      mload(0x40)\n      shl(0xe5, 0x461bcd)\n      dup2\n      mstore\n      0x04\n      add\n      tag_196\n      swap1\n      tag_257\n      jump\t// in\n    tag_255:\n        /* \"CYBCC.sol\":3905:3924  _developmentAccount */\n      0x14\n        /* \"CYBCC.sol\":3905:3940  _developmentAccount = newFeeAccount */\n      dup1\n      sload\n      sub(shl(0xa0, 0x01), 0x01)\n      dup4\n      and\n      not(sub(shl(0xa0, 0x01), 0x01))\n      swap1\n      swap2\n      and\n      or\n      swap1\n      sstore\n        /* \"CYBCC.sol\":3699:3947  function changeDevelopmentAccount(address newFeeAccount) public onlyOwner {... */\n      pop\n      jump\t// out\n        /* \"CYBCC.sol\":2843:3110  function balanceOf(address sender)... */\n    tag_123:\n      sub(shl(0xa0, 0x01), 0x01)\n        /* \"CYBCC.sol\":2983:3002  _isExcluded[sender] */\n      dup2\n      and\n        /* \"CYBCC.sol\":2956:2963  uint256 */\n      0x00\n        /* \"CYBCC.sol\":2983:3002  _isExcluded[sender] */\n      swap1\n      dup2\n      mstore\n        /* \"CYBCC.sol\":2983:2994  _isExcluded */\n      0x09\n        /* \"CYBCC.sol\":2983:3002  _isExcluded[sender] */\n      0x20\n      mstore\n      0x40\n      dup2\n      keccak256\n      sload\n      0xff\n      and\n        /* \"CYBCC.sol\":2979:3051  if (_isExcluded[sender]) {... */\n      iszero\n      tag_259\n      jumpi\n      pop\n      sub(shl(0xa0, 0x01), 0x01)\n        /* \"CYBCC.sol\":3025:3040  _tOwned[sender] */\n      and\n      0x00\n      swap1\n      dup2\n      mstore\n        /* \"CYBCC.sol\":3025:3032  _tOwned */\n      0x06\n        /* \"CYBCC.sol\":3025:3040  _tOwned[sender] */\n      0x20\n      mstore\n      0x40\n      swap1\n      keccak256\n      sload\n      swap1\n        /* \"CYBCC.sol\":2843:3110  function balanceOf(address sender)... */\n      jump\t// out\n        /* \"CYBCC.sol\":2979:3051  if (_isExcluded[sender]) {... */\n    tag_259:\n      sub(shl(0xa0, 0x01), 0x01)\n        /* \"CYBCC.sol\":3087:3102  _rOwned[sender] */\n      dup3\n      and\n      0x00\n      swap1\n      dup2\n      mstore\n        /* \"CYBCC.sol\":3087:3094  _rOwned */\n      0x05\n        /* \"CYBCC.sol\":3087:3102  _rOwned[sender] */\n      0x20\n      mstore\n      0x40\n      swap1\n      keccak256\n      sload\n        /* \"CYBCC.sol\":3067:3103  tokenFromReflection(_rOwned[sender]) */\n      tag_212\n      swap1\n        /* \"CYBCC.sol\":3067:3086  tokenFromReflection */\n      tag_249\n        /* \"CYBCC.sol\":3067:3103  tokenFromReflection(_rOwned[sender]) */\n      jump\t// in\n        /* \"CYBCC.sol\":3953:4062  function changePairAddress(address _pairAddress) public onlyOwner {... */\n    tag_136:\n        /* \"CYBCC.sol\":2006:2012  _owner */\n      sload(0x0b)\n        /* \"CYBCC.sol\":2071:2081  msg.sender */\n      caller\n      swap1\n        /* \"CYBCC.sol\":2006:2012  _owner */\n      0x0100\n      swap1\n      div\n      sub(shl(0xa0, 0x01), 0x01)\n      and\n      sub(shl(0xa0, 0x01), 0x01)\n        /* \"CYBCC.sol\":2060:2081  owner() == msg.sender */\n      and\n      sub\n        /* \"CYBCC.sol\":2056:2084  if (owner() == msg.sender) _ */\n      tag_228\n      jumpi\n        /* \"CYBCC.sol\":4029:4040  pairAddress */\n      0x15\n        /* \"CYBCC.sol\":4029:4055  pairAddress = _pairAddress */\n      dup1\n      sload\n      sub(shl(0xa0, 0x01), 0x01)\n      dup4\n      and\n      not(sub(shl(0xa0, 0x01), 0x01))\n      swap1\n      swap2\n      and\n      or\n      swap1\n      sstore\n        /* \"CYBCC.sol\":3953:4062  function changePairAddress(address _pairAddress) public onlyOwner {... */\n      pop\n      jump\t// out\n        /* \"@openzeppelin/contracts/token/ERC20/ERC20.sol\":1962:2055  function symbol() public view virtual returns (string memory) {... */\n    tag_143:\n        /* \"@openzeppelin/contracts/token/ERC20/ERC20.sol\":2009:2022  string memory */\n      0x60\n        /* \"@openzeppelin/contracts/token/ERC20/ERC20.sol\":2041:2048  _symbol */\n      0x04\n        /* \"@openzeppelin/contracts/token/ERC20/ERC20.sol\":2034:2048  return _symbol */\n      dup1\n      sload\n      tag_206\n      swap1\n      tag_207\n      jump\t// in\n        /* \"@openzeppelin/contracts/token/ERC20/ERC20.sol\":3296:3474  function transfer(address to, uint256 value) public virtual returns (bool) {... */\n    tag_152:\n        /* \"@openzeppelin/contracts/token/ERC20/ERC20.sol\":3365:3369  bool */\n      0x00\n        /* \"@openzeppelin/contracts/utils/Context.sol\":735:745  msg.sender */\n      caller\n        /* \"@openzeppelin/contracts/token/ERC20/ERC20.sol\":3419:3446  _transfer(owner, to, value) */\n      tag_214\n        /* \"@openzeppelin/contracts/utils/Context.sol\":735:745  msg.sender */\n      dup2\n        /* \"@openzeppelin/contracts/token/ERC20/ERC20.sol\":3436:3438  to */\n      dup6\n        /* \"@openzeppelin/contracts/token/ERC20/ERC20.sol\":3440:3445  value */\n      dup6\n        /* \"@openzeppelin/contracts/token/ERC20/ERC20.sol\":3419:3428  _transfer */\n      tag_223\n        /* \"@openzeppelin/contracts/token/ERC20/ERC20.sol\":3419:3446  _transfer(owner, to, value) */\n      jump\t// in\n        /* \"CYBCC.sol\":6214:6398  function whitelistedAddress(address account) public onlyOwner {... */\n    tag_157:\n        /* \"CYBCC.sol\":2006:2012  _owner */\n      sload(0x0b)\n        /* \"CYBCC.sol\":2071:2081  msg.sender */\n      caller\n      swap1\n        /* \"CYBCC.sol\":2006:2012  _owner */\n      0x0100\n      swap1\n      div\n      sub(shl(0xa0, 0x01), 0x01)\n      and\n      sub(shl(0xa0, 0x01), 0x01)\n        /* \"CYBCC.sol\":2060:2081  owner() == msg.sender */\n      and\n      sub\n        /* \"CYBCC.sol\":2056:2084  if (owner() == msg.sender) _ */\n      tag_228\n      jumpi\n      sub(shl(0xa0, 0x01), 0x01)\n        /* \"CYBCC.sol\":6295:6317  isWhitelisted[account] */\n      dup2\n      and\n      0x00\n      swap1\n      dup2\n      mstore\n        /* \"CYBCC.sol\":6295:6308  isWhitelisted */\n      0x08\n        /* \"CYBCC.sol\":6295:6317  isWhitelisted[account] */\n      0x20\n      mstore\n      0x40\n      swap1\n      keccak256\n      sload\n      0xff\n      and\n        /* \"CYBCC.sol\":6294:6317  !isWhitelisted[account] */\n      iszero\n        /* \"CYBCC.sol\":6286:6352  require(!isWhitelisted[account], \"Address is already whitelisted\") */\n      tag_281\n      jumpi\n      mload(0x40)\n      shl(0xe5, 0x461bcd)\n      dup2\n      mstore\n        /* \"#utility.yul\":5675:5677   */\n      0x20\n        /* \"CYBCC.sol\":6286:6352  require(!isWhitelisted[account], \"Address is already whitelisted\") */\n      0x04\n      dup3\n      add\n        /* \"#utility.yul\":5657:5678   */\n      mstore\n        /* \"#utility.yul\":5714:5716   */\n      0x1e\n        /* \"#utility.yul\":5694:5712   */\n      0x24\n      dup3\n      add\n        /* \"#utility.yul\":5687:5717   */\n      mstore\n        /* \"#utility.yul\":5753:5785   */\n      0x4164647265737320697320616c72656164792077686974656c69737465640000\n        /* \"#utility.yul\":5733:5751   */\n      0x44\n      dup3\n      add\n        /* \"#utility.yul\":5726:5786   */\n      mstore\n        /* \"#utility.yul\":5803:5821   */\n      0x64\n      add\n        /* \"CYBCC.sol\":6286:6352  require(!isWhitelisted[account], \"Address is already whitelisted\") */\n      tag_196\n        /* \"#utility.yul\":5473:5827   */\n      jump\n        /* \"CYBCC.sol\":6286:6352  require(!isWhitelisted[account], \"Address is already whitelisted\") */\n    tag_281:\n      sub(shl(0xa0, 0x01), 0x01)\n        /* \"CYBCC.sol\":6362:6384  isWhitelisted[account] */\n      dup2\n      and\n      0x00\n      swap1\n      dup2\n      mstore\n        /* \"CYBCC.sol\":6362:6375  isWhitelisted */\n      0x08\n        /* \"CYBCC.sol\":6362:6384  isWhitelisted[account] */\n      0x20\n      mstore\n      0x40\n      swap1\n      keccak256\n        /* \"CYBCC.sol\":6362:6391  isWhitelisted[account] = true */\n      dup1\n      sload\n      not(0xff)\n      and\n        /* \"CYBCC.sol\":6387:6391  true */\n      0x01\n        /* \"CYBCC.sol\":6362:6391  isWhitelisted[account] = true */\n      or\n      swap1\n      sstore\n        /* \"CYBCC.sol\":6214:6398  function whitelistedAddress(address account) public onlyOwner {... */\n      pop\n      jump\t// out\n        /* \"CYBCC.sol\":3449:3693  function changeMarketingAccount(address newFeeAccount) public onlyOwner {... */\n    tag_161:\n        /* \"CYBCC.sol\":2006:2012  _owner */\n      sload(0x0b)\n        /* \"CYBCC.sol\":2071:2081  msg.sender */\n      caller\n      swap1\n        /* \"CYBCC.sol\":2006:2012  _owner */\n      0x0100\n      swap1\n      div\n      sub(shl(0xa0, 0x01), 0x01)\n      and\n      sub(shl(0xa0, 0x01), 0x01)\n        /* \"CYBCC.sol\":2060:2081  owner() == msg.sender */\n      and\n      sub\n        /* \"CYBCC.sol\":2056:2084  if (owner() == msg.sender) _ */\n      tag_228\n      jumpi\n      sub(shl(0xa0, 0x01), 0x01)\n        /* \"CYBCC.sol\":3552:3579  newFeeAccount != address(0) */\n      dup2\n      and\n        /* \"CYBCC.sol\":3531:3643  require(... */\n      tag_288\n      jumpi\n      mload(0x40)\n      shl(0xe5, 0x461bcd)\n      dup2\n      mstore\n      0x04\n      add\n      tag_196\n      swap1\n      tag_257\n      jump\t// in\n    tag_288:\n        /* \"CYBCC.sol\":3653:3670  _marketingAccount */\n      0x13\n        /* \"CYBCC.sol\":3653:3686  _marketingAccount = newFeeAccount */\n      dup1\n      sload\n      sub(shl(0xa0, 0x01), 0x01)\n      dup4\n      and\n      not(sub(shl(0xa0, 0x01), 0x01))\n      swap1\n      swap2\n      and\n      or\n      swap1\n      sstore\n        /* \"CYBCC.sol\":3449:3693  function changeMarketingAccount(address newFeeAccount) public onlyOwner {... */\n      pop\n      jump\t// out\n        /* \"CYBCC.sol\":6404:6517  function openTrading() external onlyOwner {... */\n    tag_164:\n        /* \"CYBCC.sol\":2006:2012  _owner */\n      sload(0x0b)\n        /* \"CYBCC.sol\":2071:2081  msg.sender */\n      caller\n      swap1\n        /* \"CYBCC.sol\":2006:2012  _owner */\n      0x0100\n      swap1\n      div\n      sub(shl(0xa0, 0x01), 0x01)\n      and\n      sub(shl(0xa0, 0x01), 0x01)\n        /* \"CYBCC.sol\":2060:2081  owner() == msg.sender */\n      and\n      sub\n        /* \"CYBCC.sol\":2056:2084  if (owner() == msg.sender) _ */\n      tag_292\n      jumpi\n        /* \"CYBCC.sol\":6456:6467  tradingOpen */\n      0x18\n        /* \"CYBCC.sol\":6456:6474  tradingOpen = true */\n      dup1\n      sload\n      not(0xff)\n      and\n        /* \"CYBCC.sol\":6470:6474  true */\n      0x01\n        /* \"CYBCC.sol\":6456:6474  tradingOpen = true */\n      or\n      swap1\n      sstore\n        /* \"CYBCC.sol\":6498:6510  block.number */\n      number\n        /* \"CYBCC.sol\":6484:6495  launchBlock */\n      0x17\n        /* \"CYBCC.sol\":6484:6510  launchBlock = block.number */\n      sstore\n        /* \"CYBCC.sol\":2056:2084  if (owner() == msg.sender) _ */\n    tag_292:\n        /* \"CYBCC.sol\":6404:6517  function openTrading() external onlyOwner {... */\n      jump\t// out\n        /* \"CYBCC.sol\":5611:6082  function includeAccountinReward(address account) public onlyOwner {... */\n    tag_187:\n        /* \"CYBCC.sol\":2006:2012  _owner */\n      sload(0x0b)\n        /* \"CYBCC.sol\":2071:2081  msg.sender */\n      caller\n      swap1\n        /* \"CYBCC.sol\":2006:2012  _owner */\n      0x0100\n      swap1\n      div\n      sub(shl(0xa0, 0x01), 0x01)\n      and\n      sub(shl(0xa0, 0x01), 0x01)\n        /* \"CYBCC.sol\":2060:2081  owner() == msg.sender */\n      and\n      sub\n        /* \"CYBCC.sol\":2056:2084  if (owner() == msg.sender) _ */\n      tag_228\n      jumpi\n      sub(shl(0xa0, 0x01), 0x01)\n        /* \"CYBCC.sol\":5695:5715  _isExcluded[account] */\n      dup2\n      and\n      0x00\n      swap1\n      dup2\n      mstore\n        /* \"CYBCC.sol\":5695:5706  _isExcluded */\n      0x09\n        /* \"CYBCC.sol\":5695:5715  _isExcluded[account] */\n      0x20\n      mstore\n      0x40\n      swap1\n      keccak256\n      sload\n      0xff\n      and\n        /* \"CYBCC.sol\":5687:5747  require(_isExcluded[account], \"Account is already included\") */\n      tag_301\n      jumpi\n      mload(0x40)\n      shl(0xe5, 0x461bcd)\n      dup2\n      mstore\n        /* \"#utility.yul\":6034:6036   */\n      0x20\n        /* \"CYBCC.sol\":5687:5747  require(_isExcluded[account], \"Account is already included\") */\n      0x04\n      dup3\n      add\n        /* \"#utility.yul\":6016:6037   */\n      mstore\n        /* \"#utility.yul\":6073:6075   */\n      0x1b\n        /* \"#utility.yul\":6053:6071   */\n      0x24\n      dup3\n      add\n        /* \"#utility.yul\":6046:6076   */\n      mstore\n        /* \"#utility.yul\":6112:6141   */\n      0x4163636f756e7420697320616c726561647920696e636c756465640000000000\n        /* \"#utility.yul\":6092:6110   */\n      0x44\n      dup3\n      add\n        /* \"#utility.yul\":6085:6142   */\n      mstore\n        /* \"#utility.yul\":6159:6177   */\n      0x64\n      add\n        /* \"CYBCC.sol\":5687:5747  require(_isExcluded[account], \"Account is already included\") */\n      tag_196\n        /* \"#utility.yul\":5832:6183   */\n      jump\n        /* \"CYBCC.sol\":5687:5747  require(_isExcluded[account], \"Account is already included\") */\n    tag_301:\n        /* \"CYBCC.sol\":5762:5771  uint256 i */\n      0x00\n        /* \"CYBCC.sol\":5757:6076  for (uint256 i = 0; i < _excluded.length; i++) {... */\n    tag_304:\n        /* \"CYBCC.sol\":5781:5790  _excluded */\n      0x0a\n        /* \"CYBCC.sol\":5781:5797  _excluded.length */\n      sload\n        /* \"CYBCC.sol\":5777:5797  i < _excluded.length */\n      dup2\n      lt\n        /* \"CYBCC.sol\":5757:6076  for (uint256 i = 0; i < _excluded.length; i++) {... */\n      iszero\n      tag_305\n      jumpi\n        /* \"CYBCC.sol\":5838:5845  account */\n      dup2\n      sub(shl(0xa0, 0x01), 0x01)\n        /* \"CYBCC.sol\":5822:5845  _excluded[i] == account */\n      and\n        /* \"CYBCC.sol\":5822:5831  _excluded */\n      0x0a\n        /* \"CYBCC.sol\":5832:5833  i */\n      dup3\n        /* \"CYBCC.sol\":5822:5834  _excluded[i] */\n      dup2\n      sload\n      dup2\n      lt\n      tag_308\n      jumpi\n      tag_308\n      tag_309\n      jump\t// in\n    tag_308:\n      0x00\n      swap2\n      dup3\n      mstore\n      0x20\n      swap1\n      swap2\n      keccak256\n      add\n      sload\n      sub(shl(0xa0, 0x01), 0x01)\n      and\n        /* \"CYBCC.sol\":5822:5845  _excluded[i] == account */\n      sub\n        /* \"CYBCC.sol\":5818:6066  if (_excluded[i] == account) {... */\n      tag_311\n      jumpi\n        /* \"CYBCC.sol\":5880:5889  _excluded */\n      0x0a\n        /* \"CYBCC.sol\":5890:5906  _excluded.length */\n      dup1\n      sload\n        /* \"CYBCC.sol\":5890:5910  _excluded.length - 1 */\n      tag_312\n      swap1\n        /* \"CYBCC.sol\":5909:5910  1 */\n      0x01\n      swap1\n        /* \"CYBCC.sol\":5890:5910  _excluded.length - 1 */\n      tag_201\n      jump\t// in\n    tag_312:\n        /* \"CYBCC.sol\":5880:5911  _excluded[_excluded.length - 1] */\n      dup2\n      sload\n      dup2\n      lt\n      tag_314\n      jumpi\n      tag_314\n      tag_309\n      jump\t// in\n    tag_314:\n      0x00\n      swap2\n      dup3\n      mstore\n      0x20\n      swap1\n      swap2\n      keccak256\n      add\n      sload\n        /* \"CYBCC.sol\":5865:5874  _excluded */\n      0x0a\n        /* \"CYBCC.sol\":5865:5877  _excluded[i] */\n      dup1\n      sload\n      sub(shl(0xa0, 0x01), 0x01)\n        /* \"CYBCC.sol\":5880:5911  _excluded[_excluded.length - 1] */\n      swap1\n      swap3\n      and\n      swap2\n        /* \"CYBCC.sol\":5875:5876  i */\n      dup4\n      swap1\n        /* \"CYBCC.sol\":5865:5877  _excluded[i] */\n      dup2\n      lt\n      tag_317\n      jumpi\n      tag_317\n      tag_309\n      jump\t// in\n    tag_317:\n      0x00\n      swap2\n      dup3\n      mstore\n      0x20\n      dup1\n      dup4\n      keccak256\n      swap2\n      swap1\n      swap2\n      add\n        /* \"CYBCC.sol\":5865:5911  _excluded[i] = _excluded[_excluded.length - 1] */\n      dup1\n      sload\n      not(sub(shl(0xa0, 0x01), 0x01))\n      and\n      sub(shl(0xa0, 0x01), 0x01)\n      swap5\n      dup6\n      and\n      or\n      swap1\n      sstore\n        /* \"CYBCC.sol\":5929:5945  _tOwned[account] */\n      swap2\n      dup5\n      and\n      dup2\n      mstore\n        /* \"CYBCC.sol\":5929:5936  _tOwned */\n      0x06\n        /* \"CYBCC.sol\":5929:5945  _tOwned[account] */\n      dup3\n      mstore\n      0x40\n      dup1\n      dup3\n      keccak256\n        /* \"CYBCC.sol\":5929:5949  _tOwned[account] = 0 */\n      dup3\n      swap1\n      sstore\n        /* \"CYBCC.sol\":5967:5978  _isExcluded */\n      0x09\n        /* \"CYBCC.sol\":5967:5987  _isExcluded[account] */\n      swap1\n      swap3\n      mstore\n      keccak256\n        /* \"CYBCC.sol\":5967:5995  _isExcluded[account] = false */\n      dup1\n      sload\n      not(0xff)\n      and\n      swap1\n      sstore\n        /* \"CYBCC.sol\":6013:6022  _excluded */\n      0x0a\n        /* \"CYBCC.sol\":6013:6028  _excluded.pop() */\n      dup1\n      sload\n      dup1\n      tag_320\n      jumpi\n      tag_320\n      tag_321\n      jump\t// in\n    tag_320:\n      0x00\n      dup3\n      dup2\n      mstore\n      0x20\n      swap1\n      keccak256\n      dup2\n      add\n      not(0x00)\n      swap1\n      dup2\n      add\n      dup1\n      sload\n      not(sub(shl(0xa0, 0x01), 0x01))\n      and\n      swap1\n      sstore\n      add\n      swap1\n      sstore\n        /* \"CYBCC.sol\":5757:6076  for (uint256 i = 0; i < _excluded.length; i++) {... */\n      pop\n        /* \"CYBCC.sol\":5611:6082  function includeAccountinReward(address account) public onlyOwner {... */\n      pop\n      jump\t// out\n        /* \"CYBCC.sol\":5818:6066  if (_excluded[i] == account) {... */\n    tag_311:\n        /* \"CYBCC.sol\":5799:5802  i++ */\n      0x01\n      add\n        /* \"CYBCC.sol\":5757:6076  for (uint256 i = 0; i < _excluded.length; i++) {... */\n      jump(tag_304)\n    tag_305:\n      pop\n        /* \"CYBCC.sol\":5611:6082  function includeAccountinReward(address account) public onlyOwner {... */\n      pop\n      jump\t// out\n        /* \"CYBCC.sol\":11803:12340  function _getTransferValues(uint256 tAmount)... */\n    tag_199:\n        /* \"CYBCC.sol\":11907:11914  uint256 */\n      0x00\n        /* \"CYBCC.sol\":11928:11935  uint256 */\n      0x00\n        /* \"CYBCC.sol\":11949:11956  uint256 */\n      0x00\n        /* \"CYBCC.sol\":11970:11977  uint256 */\n      0x00\n        /* \"CYBCC.sol\":12002:12018  uint256 taxValue */\n      0x00\n        /* \"CYBCC.sol\":12021:12050  _getCompleteTaxValue(tAmount) */\n      tag_325\n        /* \"CYBCC.sol\":12042:12049  tAmount */\n      dup7\n        /* \"CYBCC.sol\":12021:12041  _getCompleteTaxValue */\n      tag_326\n        /* \"CYBCC.sol\":12021:12050  _getCompleteTaxValue(tAmount) */\n      jump\t// in\n    tag_325:\n        /* \"CYBCC.sol\":12002:12050  uint256 taxValue = _getCompleteTaxValue(tAmount) */\n      swap1\n      pop\n        /* \"CYBCC.sol\":12060:12083  uint256 tTransferAmount */\n      0x00\n        /* \"CYBCC.sol\":12086:12104  tAmount - taxValue */\n      tag_327\n        /* \"CYBCC.sol\":12002:12050  uint256 taxValue = _getCompleteTaxValue(tAmount) */\n      dup3\n        /* \"CYBCC.sol\":12086:12093  tAmount */\n      dup9\n        /* \"CYBCC.sol\":12086:12104  tAmount - taxValue */\n      tag_201\n      jump\t// in\n    tag_327:\n        /* \"CYBCC.sol\":12060:12104  uint256 tTransferAmount = tAmount - taxValue */\n      swap1\n      pop\n        /* \"CYBCC.sol\":12114:12133  uint256 currentRate */\n      0x00\n        /* \"CYBCC.sol\":12136:12146  _getRate() */\n      tag_328\n        /* \"CYBCC.sol\":12136:12144  _getRate */\n      tag_329\n        /* \"CYBCC.sol\":12136:12146  _getRate() */\n      jump\t// in\n    tag_328:\n        /* \"CYBCC.sol\":12114:12146  uint256 currentRate = _getRate() */\n      swap1\n      pop\n        /* \"CYBCC.sol\":12156:12179  uint256 rTransferAmount */\n      0x00\n        /* \"CYBCC.sol\":12182:12211  tTransferAmount * currentRate */\n      tag_330\n        /* \"CYBCC.sol\":12114:12146  uint256 currentRate = _getRate() */\n      dup3\n        /* \"CYBCC.sol\":12182:12197  tTransferAmount */\n      dup5\n        /* \"CYBCC.sol\":12182:12211  tTransferAmount * currentRate */\n      tag_331\n      jump\t// in\n    tag_330:\n        /* \"CYBCC.sol\":12156:12211  uint256 rTransferAmount = tTransferAmount * currentRate */\n      swap1\n      pop\n        /* \"CYBCC.sol\":12221:12236  uint256 rAmount */\n      0x00\n        /* \"CYBCC.sol\":12239:12260  tAmount * currentRate */\n      tag_332\n        /* \"CYBCC.sol\":12249:12260  currentRate */\n      dup4\n        /* \"CYBCC.sol\":12239:12246  tAmount */\n      dup12\n        /* \"CYBCC.sol\":12239:12260  tAmount * currentRate */\n      tag_331\n      jump\t// in\n    tag_332:\n        /* \"CYBCC.sol\":12221:12260  uint256 rAmount = tAmount * currentRate */\n      swap11\n        /* \"CYBCC.sol\":12287:12302  rTransferAmount */\n      swap2\n      swap10\n      pop\n        /* \"CYBCC.sol\":12304:12319  tTransferAmount */\n      swap3\n      swap8\n      pop\n        /* \"CYBCC.sol\":12321:12332  currentRate */\n      swap1\n      swap6\n      pop\n        /* \"CYBCC.sol\":11803:12340  function _getTransferValues(uint256 tAmount)... */\n      swap4\n      pop\n      pop\n      pop\n      pop\n      jump\t// out\n        /* \"@openzeppelin/contracts/token/ERC20/ERC20.sol\":8715:8843  function _approve(address owner, address spender, uint256 value) internal {... */\n    tag_215:\n        /* \"@openzeppelin/contracts/token/ERC20/ERC20.sol\":8799:8836  _approve(owner, spender, value, true) */\n      tag_334\n        /* \"@openzeppelin/contracts/token/ERC20/ERC20.sol\":8808:8813  owner */\n      dup4\n        /* \"@openzeppelin/contracts/token/ERC20/ERC20.sol\":8815:8822  spender */\n      dup4\n        /* \"@openzeppelin/contracts/token/ERC20/ERC20.sol\":8824:8829  value */\n      dup4\n        /* \"@openzeppelin/contracts/token/ERC20/ERC20.sol\":8831:8835  true */\n      0x01\n        /* \"@openzeppelin/contracts/token/ERC20/ERC20.sol\":8799:8807  _approve */\n      tag_335\n        /* \"@openzeppelin/contracts/token/ERC20/ERC20.sol\":8799:8836  _approve(owner, spender, value, true) */\n      jump\t// in\n    tag_334:\n        /* \"@openzeppelin/contracts/token/ERC20/ERC20.sol\":8715:8843  function _approve(address owner, address spender, uint256 value) internal {... */\n      pop\n      pop\n      pop\n      jump\t// out\n        /* \"@openzeppelin/contracts/token/ERC20/ERC20.sol\":10404:10880  function _spendAllowance(address owner, address spender, uint256 value) internal virtual {... */\n    tag_221:\n      sub(shl(0xa0, 0x01), 0x01)\n        /* \"@openzeppelin/contracts/token/ERC20/ERC20.sol\":3638:3656  _allowances[owner] */\n      dup4\n      dup2\n      and\n        /* \"@openzeppelin/contracts/token/ERC20/ERC20.sol\":10503:10527  uint256 currentAllowance */\n      0x00\n        /* \"@openzeppelin/contracts/token/ERC20/ERC20.sol\":3638:3656  _allowances[owner] */\n      swap1\n      dup2\n      mstore\n        /* \"@openzeppelin/contracts/token/ERC20/ERC20.sol\":3638:3649  _allowances */\n      0x01\n        /* \"@openzeppelin/contracts/token/ERC20/ERC20.sol\":3638:3656  _allowances[owner] */\n      0x20\n      swap1\n      dup2\n      mstore\n      0x40\n      dup1\n      dup4\n      keccak256\n        /* \"@openzeppelin/contracts/token/ERC20/ERC20.sol\":3638:3665  _allowances[owner][spender] */\n      swap4\n      dup7\n      and\n      dup4\n      mstore\n      swap3\n      swap1\n      mstore\n      keccak256\n      sload\n      not(0x00)\n        /* \"@openzeppelin/contracts/token/ERC20/ERC20.sol\":10569:10605  currentAllowance < type(uint256).max */\n      dup2\n      lt\n        /* \"@openzeppelin/contracts/token/ERC20/ERC20.sol\":10565:10874  if (currentAllowance < type(uint256).max) {... */\n      iszero\n      tag_342\n      jumpi\n        /* \"@openzeppelin/contracts/token/ERC20/ERC20.sol\":10644:10649  value */\n      dup2\n        /* \"@openzeppelin/contracts/token/ERC20/ERC20.sol\":10625:10641  currentAllowance */\n      dup2\n        /* \"@openzeppelin/contracts/token/ERC20/ERC20.sol\":10625:10649  currentAllowance < value */\n      lt\n        /* \"@openzeppelin/contracts/token/ERC20/ERC20.sol\":10621:10751  if (currentAllowance < value) {... */\n      iszero\n      tag_339\n      jumpi\n        /* \"@openzeppelin/contracts/token/ERC20/ERC20.sol\":10676:10736  ERC20InsufficientAllowance(spender, currentAllowance, value) */\n      mload(0x40)\n      shl(0xe1, 0x7dc7a0d9)\n      dup2\n      mstore\n      sub(shl(0xa0, 0x01), 0x01)\n        /* \"#utility.yul\":6845:6877   */\n      dup5\n      and\n        /* \"@openzeppelin/contracts/token/ERC20/ERC20.sol\":10676:10736  ERC20InsufficientAllowance(spender, currentAllowance, value) */\n      0x04\n      dup3\n      add\n        /* \"#utility.yul\":6827:6878   */\n      mstore\n        /* \"#utility.yul\":6894:6912   */\n      0x24\n      dup2\n      add\n        /* \"#utility.yul\":6887:6921   */\n      dup3\n      swap1\n      mstore\n        /* \"#utility.yul\":6937:6955   */\n      0x44\n      dup2\n      add\n        /* \"#utility.yul\":6930:6964   */\n      dup4\n      swap1\n      mstore\n        /* \"#utility.yul\":6800:6818   */\n      0x64\n      add\n        /* \"@openzeppelin/contracts/token/ERC20/ERC20.sol\":10676:10736  ERC20InsufficientAllowance(spender, currentAllowance, value) */\n      tag_196\n        /* \"#utility.yul\":6625:6970   */\n      jump\n        /* \"@openzeppelin/contracts/token/ERC20/ERC20.sol\":10621:10751  if (currentAllowance < value) {... */\n    tag_339:\n        /* \"@openzeppelin/contracts/token/ERC20/ERC20.sol\":10792:10849  _approve(owner, spender, currentAllowance - value, false) */\n      tag_342\n        /* \"@openzeppelin/contracts/token/ERC20/ERC20.sol\":10801:10806  owner */\n      dup5\n        /* \"@openzeppelin/contracts/token/ERC20/ERC20.sol\":10808:10815  spender */\n      dup5\n        /* \"@openzeppelin/contracts/token/ERC20/ERC20.sol\":10836:10841  value */\n      dup5\n        /* \"@openzeppelin/contracts/token/ERC20/ERC20.sol\":10817:10833  currentAllowance */\n      dup5\n        /* \"@openzeppelin/contracts/token/ERC20/ERC20.sol\":10817:10841  currentAllowance - value */\n      sub\n        /* \"@openzeppelin/contracts/token/ERC20/ERC20.sol\":10843:10848  false */\n      0x00\n        /* \"@openzeppelin/contracts/token/ERC20/ERC20.sol\":10792:10800  _approve */\n      tag_335\n        /* \"@openzeppelin/contracts/token/ERC20/ERC20.sol\":10792:10849  _approve(owner, spender, currentAllowance - value, false) */\n      jump\t// in\n    tag_342:\n        /* \"@openzeppelin/contracts/token/ERC20/ERC20.sol\":10493:10880  {... */\n      pop\n        /* \"@openzeppelin/contracts/token/ERC20/ERC20.sol\":10404:10880  function _spendAllowance(address owner, address spender, uint256 value) internal virtual {... */\n      pop\n      pop\n      pop\n      jump\t// out\n        /* \"CYBCC.sol\":6897:7776  function _transfer(... */\n    tag_223:\n        /* \"CYBCC.sol\":6590:6601  tradingOpen */\n      sload(0x18)\n        /* \"CYBCC.sol\":7040:7046  sender */\n      dup4\n      swap1\n        /* \"CYBCC.sol\":7048:7057  recipient */\n      dup4\n      swap1\n        /* \"CYBCC.sol\":6590:6601  tradingOpen */\n      0xff\n      and\n        /* \"CYBCC.sol\":6585:6874  if (!tradingOpen) {... */\n      tag_344\n      jumpi\n      sub(shl(0xa0, 0x01), 0x01)\n        /* \"CYBCC.sol\":6625:6642  isWhitelisted[to] */\n      dup2\n      and\n      0x00\n      swap1\n      dup2\n      mstore\n        /* \"CYBCC.sol\":6625:6638  isWhitelisted */\n      0x08\n        /* \"CYBCC.sol\":6625:6642  isWhitelisted[to] */\n      0x20\n      mstore\n      0x40\n      swap1\n      keccak256\n      sload\n      0xff\n      and\n        /* \"CYBCC.sol\":6617:6670  require(isWhitelisted[to], \"Trading not yet enabled\") */\n      tag_345\n      jumpi\n      mload(0x40)\n      shl(0xe5, 0x461bcd)\n      dup2\n      mstore\n        /* \"#utility.yul\":7177:7179   */\n      0x20\n        /* \"CYBCC.sol\":6617:6670  require(isWhitelisted[to], \"Trading not yet enabled\") */\n      0x04\n      dup3\n      add\n        /* \"#utility.yul\":7159:7180   */\n      mstore\n        /* \"#utility.yul\":7216:7218   */\n      0x17\n        /* \"#utility.yul\":7196:7214   */\n      0x24\n      dup3\n      add\n        /* \"#utility.yul\":7189:7219   */\n      mstore\n        /* \"#utility.yul\":7255:7280   */\n      0x54726164696e67206e6f742079657420656e61626c6564000000000000000000\n        /* \"#utility.yul\":7235:7253   */\n      0x44\n      dup3\n      add\n        /* \"#utility.yul\":7228:7281   */\n      mstore\n        /* \"#utility.yul\":7298:7316   */\n      0x64\n      add\n        /* \"CYBCC.sol\":6617:6670  require(isWhitelisted[to], \"Trading not yet enabled\") */\n      tag_196\n        /* \"#utility.yul\":6975:7322   */\n      jump\n        /* \"CYBCC.sol\":6617:6670  require(isWhitelisted[to], \"Trading not yet enabled\") */\n    tag_345:\n        /* \"CYBCC.sol\":6585:6874  if (!tradingOpen) {... */\n      jump(tag_351)\n    tag_344:\n        /* \"CYBCC.sol\":6707:6718  launchBlock */\n      sload(0x17)\n        /* \"CYBCC.sol\":6707:6722  launchBlock + 3 */\n      tag_349\n      swap1\n        /* \"CYBCC.sol\":6721:6722  3 */\n      0x03\n        /* \"CYBCC.sol\":6707:6722  launchBlock + 3 */\n      tag_204\n      jump\t// in\n    tag_349:\n        /* \"CYBCC.sol\":6691:6703  block.number */\n      number\n        /* \"CYBCC.sol\":6691:6722  block.number <= launchBlock + 3 */\n      gt\n        /* \"CYBCC.sol\":6687:6874  if (block.number <= launchBlock + 3) {... */\n      tag_351\n      jumpi\n      sub(shl(0xa0, 0x01), 0x01)\n        /* \"CYBCC.sol\":6807:6824  isWhitelisted[to] */\n      dup2\n      and\n      0x00\n      swap1\n      dup2\n      mstore\n        /* \"CYBCC.sol\":6807:6820  isWhitelisted */\n      0x08\n        /* \"CYBCC.sol\":6807:6824  isWhitelisted[to] */\n      0x20\n      mstore\n      0x40\n      swap1\n      keccak256\n      sload\n      0xff\n      and\n        /* \"CYBCC.sol\":6799:6863  require(isWhitelisted[to], \"Launch protection: not whitelisted\") */\n      tag_351\n      jumpi\n      mload(0x40)\n      shl(0xe5, 0x461bcd)\n      dup2\n      mstore\n        /* \"#utility.yul\":7529:7531   */\n      0x20\n        /* \"CYBCC.sol\":6799:6863  require(isWhitelisted[to], \"Launch protection: not whitelisted\") */\n      0x04\n      dup3\n      add\n        /* \"#utility.yul\":7511:7532   */\n      mstore\n        /* \"#utility.yul\":7568:7570   */\n      0x22\n        /* \"#utility.yul\":7548:7566   */\n      0x24\n      dup3\n      add\n        /* \"#utility.yul\":7541:7571   */\n      mstore\n        /* \"#utility.yul\":7607:7641   */\n      0x4c61756e63682070726f74656374696f6e3a206e6f742077686974656c697374\n        /* \"#utility.yul\":7587:7605   */\n      0x44\n      dup3\n      add\n        /* \"#utility.yul\":7580:7642   */\n      mstore\n      shl(0xf2, 0x1959)\n        /* \"#utility.yul\":7658:7676   */\n      0x64\n      dup3\n      add\n        /* \"#utility.yul\":7651:7683   */\n      mstore\n        /* \"#utility.yul\":7700:7719   */\n      0x84\n      add\n        /* \"CYBCC.sol\":6799:6863  require(isWhitelisted[to], \"Launch protection: not whitelisted\") */\n      tag_196\n        /* \"#utility.yul\":7327:7725   */\n      jump\n        /* \"CYBCC.sol\":6799:6863  require(isWhitelisted[to], \"Launch protection: not whitelisted\") */\n    tag_351:\n      sub(shl(0xa0, 0x01), 0x01)\n        /* \"CYBCC.sol\":7077:7097  sender != address(0) */\n      dup6\n      and\n        /* \"CYBCC.sol\":7069:7139  require(sender != address(0), \"ERC20: transfer from the zero address\") */\n      tag_355\n      jumpi\n      mload(0x40)\n      shl(0xe5, 0x461bcd)\n      dup2\n      mstore\n        /* \"#utility.yul\":7932:7934   */\n      0x20\n        /* \"CYBCC.sol\":7069:7139  require(sender != address(0), \"ERC20: transfer from the zero address\") */\n      0x04\n      dup3\n      add\n        /* \"#utility.yul\":7914:7935   */\n      mstore\n        /* \"#utility.yul\":7971:7973   */\n      0x25\n        /* \"#utility.yul\":7951:7969   */\n      0x24\n      dup3\n      add\n        /* \"#utility.yul\":7944:7974   */\n      mstore\n        /* \"#utility.yul\":8010:8044   */\n      0x45524332303a207472616e736665722066726f6d20746865207a65726f206164\n        /* \"#utility.yul\":7990:8008   */\n      0x44\n      dup3\n      add\n        /* \"#utility.yul\":7983:8045   */\n      mstore\n      shl(0xd8, 0x6472657373)\n        /* \"#utility.yul\":8061:8079   */\n      0x64\n      dup3\n      add\n        /* \"#utility.yul\":8054:8089   */\n      mstore\n        /* \"#utility.yul\":8106:8125   */\n      0x84\n      add\n        /* \"CYBCC.sol\":7069:7139  require(sender != address(0), \"ERC20: transfer from the zero address\") */\n      tag_196\n        /* \"#utility.yul\":7730:8131   */\n      jump\n        /* \"CYBCC.sol\":7069:7139  require(sender != address(0), \"ERC20: transfer from the zero address\") */\n    tag_355:\n      sub(shl(0xa0, 0x01), 0x01)\n        /* \"CYBCC.sol\":7157:7180  recipient != address(0) */\n      dup5\n      and\n        /* \"CYBCC.sol\":7149:7220  require(recipient != address(0), \"ERC20: transfer to the zero address\") */\n      tag_358\n      jumpi\n      mload(0x40)\n      shl(0xe5, 0x461bcd)\n      dup2\n      mstore\n        /* \"#utility.yul\":8338:8340   */\n      0x20\n        /* \"CYBCC.sol\":7149:7220  require(recipient != address(0), \"ERC20: transfer to the zero address\") */\n      0x04\n      dup3\n      add\n        /* \"#utility.yul\":8320:8341   */\n      mstore\n        /* \"#utility.yul\":8377:8379   */\n      0x23\n        /* \"#utility.yul\":8357:8375   */\n      0x24\n      dup3\n      add\n        /* \"#utility.yul\":8350:8380   */\n      mstore\n        /* \"#utility.yul\":8416:8450   */\n      0x45524332303a207472616e7366657220746f20746865207a65726f2061646472\n        /* \"#utility.yul\":8396:8414   */\n      0x44\n      dup3\n      add\n        /* \"#utility.yul\":8389:8451   */\n      mstore\n      shl(0xe8, 0x657373)\n        /* \"#utility.yul\":8467:8485   */\n      0x64\n      dup3\n      add\n        /* \"#utility.yul\":8460:8493   */\n      mstore\n        /* \"#utility.yul\":8510:8529   */\n      0x84\n      add\n        /* \"CYBCC.sol\":7149:7220  require(recipient != address(0), \"ERC20: transfer to the zero address\") */\n      tag_196\n        /* \"#utility.yul\":8136:8535   */\n      jump\n        /* \"CYBCC.sol\":7149:7220  require(recipient != address(0), \"ERC20: transfer to the zero address\") */\n    tag_358:\n        /* \"CYBCC.sol\":7230:7251  uint256 senderBalance */\n      0x00\n        /* \"CYBCC.sol\":7254:7271  balanceOf(sender) */\n      tag_361\n        /* \"CYBCC.sol\":7264:7270  sender */\n      dup7\n        /* \"CYBCC.sol\":7254:7263  balanceOf */\n      tag_123\n        /* \"CYBCC.sol\":7254:7271  balanceOf(sender) */\n      jump\t// in\n    tag_361:\n        /* \"CYBCC.sol\":7230:7271  uint256 senderBalance = balanceOf(sender) */\n      swap1\n      pop\n        /* \"CYBCC.sol\":7319:7325  amount */\n      dup4\n        /* \"CYBCC.sol\":7302:7315  senderBalance */\n      dup2\n        /* \"CYBCC.sol\":7302:7325  senderBalance >= amount */\n      lt\n      iszero\n        /* \"CYBCC.sol\":7281:7389  require(... */\n      tag_362\n      jumpi\n      mload(0x40)\n      shl(0xe5, 0x461bcd)\n      dup2\n      mstore\n        /* \"#utility.yul\":8742:8744   */\n      0x20\n        /* \"CYBCC.sol\":7281:7389  require(... */\n      0x04\n      dup3\n      add\n        /* \"#utility.yul\":8724:8745   */\n      mstore\n        /* \"#utility.yul\":8781:8783   */\n      0x26\n        /* \"#utility.yul\":8761:8779   */\n      0x24\n      dup3\n      add\n        /* \"#utility.yul\":8754:8784   */\n      mstore\n        /* \"#utility.yul\":8820:8854   */\n      0x45524332303a207472616e7366657220616d6f756e7420657863656564732062\n        /* \"#utility.yul\":8800:8818   */\n      0x44\n      dup3\n      add\n        /* \"#utility.yul\":8793:8855   */\n      mstore\n      shl(0xd0, 0x616c616e6365)\n        /* \"#utility.yul\":8871:8889   */\n      0x64\n      dup3\n      add\n        /* \"#utility.yul\":8864:8900   */\n      mstore\n        /* \"#utility.yul\":8917:8936   */\n      0x84\n      add\n        /* \"CYBCC.sol\":7281:7389  require(... */\n      tag_196\n        /* \"#utility.yul\":8540:8942   */\n      jump\n        /* \"CYBCC.sol\":7281:7389  require(... */\n    tag_362:\n      sub(shl(0xa0, 0x01), 0x01)\n        /* \"CYBCC.sol\":2803:2830  _isExcludedFromFee[account] */\n      dup6\n      and\n        /* \"CYBCC.sol\":2780:2784  bool */\n      0x00\n        /* \"CYBCC.sol\":2803:2830  _isExcludedFromFee[account] */\n      swap1\n      dup2\n      mstore\n        /* \"CYBCC.sol\":2803:2821  _isExcludedFromFee */\n      0x07\n        /* \"CYBCC.sol\":2803:2830  _isExcludedFromFee[account] */\n      0x20\n      mstore\n      0x40\n      swap1\n      keccak256\n      sload\n      0xff\n      and\n        /* \"CYBCC.sol\":7400:7583  if (!isExcludedFromFee(recipient)) {... */\n      tag_369\n      jumpi\n        /* \"CYBCC.sol\":7507:7522  maxWalletAmount */\n      sload(0x16)\n        /* \"CYBCC.sol\":7497:7503  amount */\n      dup5\n        /* \"CYBCC.sol\":7474:7494  balanceOf(recipient) */\n      tag_367\n        /* \"CYBCC.sol\":7484:7493  recipient */\n      dup8\n        /* \"CYBCC.sol\":7474:7483  balanceOf */\n      tag_123\n        /* \"CYBCC.sol\":7474:7494  balanceOf(recipient) */\n      jump\t// in\n    tag_367:\n        /* \"CYBCC.sol\":7474:7503  balanceOf(recipient) + amount */\n      tag_368\n      swap2\n      swap1\n      tag_204\n      jump\t// in\n    tag_368:\n        /* \"CYBCC.sol\":7474:7522  balanceOf(recipient) + amount <= maxWalletAmount */\n      gt\n      iszero\n        /* \"CYBCC.sol\":7449:7572  require(... */\n      tag_369\n      jumpi\n      mload(0x40)\n      shl(0xe5, 0x461bcd)\n      dup2\n      mstore\n        /* \"#utility.yul\":9149:9151   */\n      0x20\n        /* \"CYBCC.sol\":7449:7572  require(... */\n      0x04\n      dup3\n      add\n        /* \"#utility.yul\":9131:9152   */\n      mstore\n        /* \"#utility.yul\":9188:9190   */\n      0x10\n        /* \"#utility.yul\":9168:9186   */\n      0x24\n      dup3\n      add\n        /* \"#utility.yul\":9161:9191   */\n      mstore\n      shl(0x80, 0x5768616c652064657465637465642121)\n        /* \"#utility.yul\":9207:9225   */\n      0x44\n      dup3\n      add\n        /* \"#utility.yul\":9200:9246   */\n      mstore\n        /* \"#utility.yul\":9263:9281   */\n      0x64\n      add\n        /* \"CYBCC.sol\":7449:7572  require(... */\n      tag_196\n        /* \"#utility.yul\":8947:9287   */\n      jump\n        /* \"CYBCC.sol\":7449:7572  require(... */\n    tag_369:\n        /* \"CYBCC.sol\":7629:7640  pairAddress */\n      sload(0x15)\n        /* \"CYBCC.sol\":7592:7604  bool takeFee */\n      0x00\n      swap1\n      sub(shl(0xa0, 0x01), 0x01)\n        /* \"CYBCC.sol\":7619:7640  sender == pairAddress */\n      dup9\n      dup2\n      and\n        /* \"CYBCC.sol\":7629:7640  pairAddress */\n      swap2\n      and\n        /* \"CYBCC.sol\":7619:7640  sender == pairAddress */\n      eq\n      dup1\n        /* \"CYBCC.sol\":7619:7668  sender == pairAddress || recipient == pairAddress */\n      tag_372\n      jumpi\n      pop\n        /* \"CYBCC.sol\":7657:7668  pairAddress */\n      sload(0x15)\n      sub(shl(0xa0, 0x01), 0x01)\n        /* \"CYBCC.sol\":7644:7668  recipient == pairAddress */\n      dup8\n      dup2\n      and\n        /* \"CYBCC.sol\":7657:7668  pairAddress */\n      swap2\n      and\n        /* \"CYBCC.sol\":7644:7668  recipient == pairAddress */\n      eq\n        /* \"CYBCC.sol\":7619:7668  sender == pairAddress || recipient == pairAddress */\n    tag_372:\n        /* \"CYBCC.sol\":7615:7709  if (sender == pairAddress || recipient == pairAddress) {... */\n      iszero\n      tag_373\n      jumpi\n      pop\n        /* \"CYBCC.sol\":7694:7698  true */\n      0x01\n        /* \"CYBCC.sol\":7615:7709  if (sender == pairAddress || recipient == pairAddress) {... */\n    tag_373:\n        /* \"CYBCC.sol\":7719:7769  _tokenTransfer(sender, recipient, amount, takeFee) */\n      tag_374\n        /* \"CYBCC.sol\":7734:7740  sender */\n      dup8\n        /* \"CYBCC.sol\":7742:7751  recipient */\n      dup8\n        /* \"CYBCC.sol\":7753:7759  amount */\n      dup8\n        /* \"CYBCC.sol\":7761:7768  takeFee */\n      dup5\n        /* \"CYBCC.sol\":7719:7733  _tokenTransfer */\n      tag_375\n        /* \"CYBCC.sol\":7719:7769  _tokenTransfer(sender, recipient, amount, takeFee) */\n      jump\t// in\n    tag_374:\n        /* \"CYBCC.sol\":7059:7776  {... */\n      pop\n      pop\n        /* \"CYBCC.sol\":6897:7776  function _transfer(... */\n      pop\n      pop\n      pop\n      pop\n      pop\n      jump\t// out\n        /* \"CYBCC.sol\":4958:5267  function tokenFromReflection(uint256 rAmount)... */\n    tag_249:\n        /* \"CYBCC.sol\":5050:5057  uint256 */\n      0x00\n        /* \"CYBCC.sol\":5105:5112  _rTotal */\n      sload(0x0d)\n        /* \"CYBCC.sol\":5094:5101  rAmount */\n      dup3\n        /* \"CYBCC.sol\":5094:5112  rAmount <= _rTotal */\n      gt\n      iszero\n        /* \"CYBCC.sol\":5073:5180  require(... */\n      tag_377\n      jumpi\n      mload(0x40)\n      shl(0xe5, 0x461bcd)\n      dup2\n      mstore\n        /* \"#utility.yul\":9494:9496   */\n      0x20\n        /* \"CYBCC.sol\":5073:5180  require(... */\n      0x04\n      dup3\n      add\n        /* \"#utility.yul\":9476:9497   */\n      mstore\n        /* \"#utility.yul\":9533:9535   */\n      0x2a\n        /* \"#utility.yul\":9513:9531   */\n      0x24\n      dup3\n      add\n        /* \"#utility.yul\":9506:9536   */\n      mstore\n        /* \"#utility.yul\":9572:9606   */\n      0x416d6f756e74206d757374206265206c657373207468616e20746f74616c2072\n        /* \"#utility.yul\":9552:9570   */\n      0x44\n      dup3\n      add\n        /* \"#utility.yul\":9545:9607   */\n      mstore\n      shl(0xb0, 0x65666c656374696f6e73)\n        /* \"#utility.yul\":9623:9641   */\n      0x64\n      dup3\n      add\n        /* \"#utility.yul\":9616:9656   */\n      mstore\n        /* \"#utility.yul\":9673:9692   */\n      0x84\n      add\n        /* \"CYBCC.sol\":5073:5180  require(... */\n      tag_196\n        /* \"#utility.yul\":9292:9698   */\n      jump\n        /* \"CYBCC.sol\":5073:5180  require(... */\n    tag_377:\n        /* \"CYBCC.sol\":5190:5209  uint256 currentRate */\n      0x00\n        /* \"CYBCC.sol\":5212:5222  _getRate() */\n      tag_380\n        /* \"CYBCC.sol\":5212:5220  _getRate */\n      tag_329\n        /* \"CYBCC.sol\":5212:5222  _getRate() */\n      jump\t// in\n    tag_380:\n        /* \"CYBCC.sol\":5190:5222  uint256 currentRate = _getRate() */\n      swap1\n      pop\n        /* \"CYBCC.sol\":5239:5260  rAmount / currentRate */\n      tag_381\n        /* \"CYBCC.sol\":5190:5222  uint256 currentRate = _getRate() */\n      dup2\n        /* \"CYBCC.sol\":5239:5246  rAmount */\n      dup5\n        /* \"CYBCC.sol\":5239:5260  rAmount / currentRate */\n      tag_382\n      jump\t// in\n    tag_381:\n        /* \"CYBCC.sol\":5232:5260  return rAmount / currentRate */\n      swap4\n        /* \"CYBCC.sol\":4958:5267  function tokenFromReflection(uint256 rAmount)... */\n      swap3\n      pop\n      pop\n      pop\n      jump\t// out\n        /* \"CYBCC.sol\":11551:11797  function _getCompleteTaxValue(uint256 tAmount)... */\n    tag_326:\n        /* \"CYBCC.sol\":11644:11651  uint256 */\n      0x00\n        /* \"CYBCC.sol\":11667:11683  uint256 allTaxes */\n      0x00\n        /* \"CYBCC.sol\":11703:11710  _taxFee */\n      sload(0x11)\n        /* \"CYBCC.sol\":11686:11700  _reflectionFee */\n      sload(0x0f)\n        /* \"CYBCC.sol\":11686:11710  _reflectionFee + _taxFee */\n      tag_384\n      swap2\n      swap1\n      tag_204\n      jump\t// in\n    tag_384:\n        /* \"CYBCC.sol\":11667:11710  uint256 allTaxes = _reflectionFee + _taxFee */\n      swap1\n      pop\n        /* \"CYBCC.sol\":11720:11736  uint256 taxValue */\n      0x00\n        /* \"CYBCC.sol\":11762:11765  100 */\n      0x64\n        /* \"CYBCC.sol\":11740:11758  tAmount * allTaxes */\n      tag_385\n        /* \"CYBCC.sol\":11667:11710  uint256 allTaxes = _reflectionFee + _taxFee */\n      dup4\n        /* \"CYBCC.sol\":11740:11747  tAmount */\n      dup7\n        /* \"CYBCC.sol\":11740:11758  tAmount * allTaxes */\n      tag_331\n      jump\t// in\n    tag_385:\n        /* \"CYBCC.sol\":11739:11765  (tAmount * allTaxes) / 100 */\n      tag_386\n      swap2\n      swap1\n      tag_382\n      jump\t// in\n    tag_386:\n        /* \"CYBCC.sol\":11720:11765  uint256 taxValue = (tAmount * allTaxes) / 100 */\n      swap5\n        /* \"CYBCC.sol\":11551:11797  function _getCompleteTaxValue(uint256 tAmount)... */\n      swap4\n      pop\n      pop\n      pop\n      pop\n      jump\t// out\n        /* \"CYBCC.sol\":12601:12759  function _getRate() private view returns (uint256) {... */\n    tag_329:\n        /* \"CYBCC.sol\":12643:12650  uint256 */\n      0x00\n        /* \"CYBCC.sol\":12663:12678  uint256 rSupply */\n      0x00\n        /* \"CYBCC.sol\":12680:12695  uint256 tSupply */\n      0x00\n        /* \"CYBCC.sol\":12699:12718  _getCurrentSupply() */\n      tag_388\n        /* \"CYBCC.sol\":12699:12716  _getCurrentSupply */\n      tag_389\n        /* \"CYBCC.sol\":12699:12718  _getCurrentSupply() */\n      jump\t// in\n    tag_388:\n        /* \"CYBCC.sol\":12662:12718  (uint256 rSupply, uint256 tSupply) = _getCurrentSupply() */\n      swap1\n      swap3\n      pop\n      swap1\n      pop\n        /* \"CYBCC.sol\":12735:12752  rSupply / tSupply */\n      tag_390\n        /* \"CYBCC.sol\":12662:12718  (uint256 rSupply, uint256 tSupply) = _getCurrentSupply() */\n      dup2\n      dup4\n        /* \"CYBCC.sol\":12735:12752  rSupply / tSupply */\n      tag_382\n      jump\t// in\n    tag_390:\n        /* \"CYBCC.sol\":12728:12752  return rSupply / tSupply */\n      swap3\n      pop\n      pop\n      pop\n        /* \"CYBCC.sol\":12601:12759  function _getRate() private view returns (uint256) {... */\n      swap1\n      jump\t// out\n        /* \"@openzeppelin/contracts/token/ERC20/ERC20.sol\":9690:10122  function _approve(address owner, address spender, uint256 value, bool emitEvent) internal virtual {... */\n    tag_335:\n      sub(shl(0xa0, 0x01), 0x01)\n        /* \"@openzeppelin/contracts/token/ERC20/ERC20.sol\":9802:9821  owner == address(0) */\n      dup5\n      and\n        /* \"@openzeppelin/contracts/token/ERC20/ERC20.sol\":9798:9887  if (owner == address(0)) {... */\n      tag_392\n      jumpi\n        /* \"@openzeppelin/contracts/token/ERC20/ERC20.sol\":9844:9876  ERC20InvalidApprover(address(0)) */\n      mload(0x40)\n      shl(0xe0, 0xe602df05)\n      dup2\n      mstore\n        /* \"@openzeppelin/contracts/token/ERC20/ERC20.sol\":9873:9874  0 */\n      0x00\n        /* \"@openzeppelin/contracts/token/ERC20/ERC20.sol\":9844:9876  ERC20InvalidApprover(address(0)) */\n      0x04\n      dup3\n      add\n        /* \"#utility.yul\":1671:1722   */\n      mstore\n        /* \"#utility.yul\":1644:1662   */\n      0x24\n      add\n        /* \"@openzeppelin/contracts/token/ERC20/ERC20.sol\":9844:9876  ERC20InvalidApprover(address(0)) */\n      tag_196\n        /* \"#utility.yul\":1525:1728   */\n      jump\n        /* \"@openzeppelin/contracts/token/ERC20/ERC20.sol\":9798:9887  if (owner == address(0)) {... */\n    tag_392:\n      sub(shl(0xa0, 0x01), 0x01)\n        /* \"@openzeppelin/contracts/token/ERC20/ERC20.sol\":9900:9921  spender == address(0) */\n      dup4\n      and\n        /* \"@openzeppelin/contracts/token/ERC20/ERC20.sol\":9896:9986  if (spender == address(0)) {... */\n      tag_394\n      jumpi\n        /* \"@openzeppelin/contracts/token/ERC20/ERC20.sol\":9944:9975  ERC20InvalidSpender(address(0)) */\n      mload(0x40)\n      shl(0xe1, 0x4a1406b1)\n      dup2\n      mstore\n        /* \"@openzeppelin/contracts/token/ERC20/ERC20.sol\":9972:9973  0 */\n      0x00\n        /* \"@openzeppelin/contracts/token/ERC20/ERC20.sol\":9944:9975  ERC20InvalidSpender(address(0)) */\n      0x04\n      dup3\n      add\n        /* \"#utility.yul\":1671:1722   */\n      mstore\n        /* \"#utility.yul\":1644:1662   */\n      0x24\n      add\n        /* \"@openzeppelin/contracts/token/ERC20/ERC20.sol\":9944:9975  ERC20InvalidSpender(address(0)) */\n      tag_196\n        /* \"#utility.yul\":1525:1728   */\n      jump\n        /* \"@openzeppelin/contracts/token/ERC20/ERC20.sol\":9896:9986  if (spender == address(0)) {... */\n    tag_394:\n      sub(shl(0xa0, 0x01), 0x01)\n        /* \"@openzeppelin/contracts/token/ERC20/ERC20.sol\":9995:10013  _allowances[owner] */\n      dup1\n      dup6\n      and\n      0x00\n      swap1\n      dup2\n      mstore\n        /* \"@openzeppelin/contracts/token/ERC20/ERC20.sol\":9995:10006  _allowances */\n      0x01\n        /* \"@openzeppelin/contracts/token/ERC20/ERC20.sol\":9995:10013  _allowances[owner] */\n      0x20\n      swap1\n      dup2\n      mstore\n      0x40\n      dup1\n      dup4\n      keccak256\n        /* \"@openzeppelin/contracts/token/ERC20/ERC20.sol\":9995:10022  _allowances[owner][spender] */\n      swap4\n      dup8\n      and\n      dup4\n      mstore\n      swap3\n      swap1\n      mstore\n      keccak256\n        /* \"@openzeppelin/contracts/token/ERC20/ERC20.sol\":9995:10030  _allowances[owner][spender] = value */\n      dup3\n      swap1\n      sstore\n        /* \"@openzeppelin/contracts/token/ERC20/ERC20.sol\":10040:10116  if (emitEvent) {... */\n      dup1\n      iszero\n      tag_342\n      jumpi\n        /* \"@openzeppelin/contracts/token/ERC20/ERC20.sol\":10090:10097  spender */\n      dup3\n      sub(shl(0xa0, 0x01), 0x01)\n        /* \"@openzeppelin/contracts/token/ERC20/ERC20.sol\":10074:10105  Approval(owner, spender, value) */\n      and\n        /* \"@openzeppelin/contracts/token/ERC20/ERC20.sol\":10083:10088  owner */\n      dup5\n      sub(shl(0xa0, 0x01), 0x01)\n        /* \"@openzeppelin/contracts/token/ERC20/ERC20.sol\":10074:10105  Approval(owner, spender, value) */\n      and\n      0x8c5be1e5ebec7d5bd14f71427d1e84f3dd0314c0f7b2291e5b200ac8c7c3b925\n        /* \"@openzeppelin/contracts/token/ERC20/ERC20.sol\":10099:10104  value */\n      dup5\n        /* \"@openzeppelin/contracts/token/ERC20/ERC20.sol\":10074:10105  Approval(owner, spender, value) */\n      mload(0x40)\n      tag_397\n      swap2\n        /* \"#utility.yul\":1489:1514   */\n      dup2\n      mstore\n        /* \"#utility.yul\":1477:1479   */\n      0x20\n        /* \"#utility.yul\":1462:1480   */\n      add\n      swap1\n        /* \"#utility.yul\":1343:1520   */\n      jump\n        /* \"@openzeppelin/contracts/token/ERC20/ERC20.sol\":10074:10105  Approval(owner, spender, value) */\n    tag_397:\n      mload(0x40)\n      dup1\n      swap2\n      sub\n      swap1\n      log3\n        /* \"@openzeppelin/contracts/token/ERC20/ERC20.sol\":9690:10122  function _approve(address owner, address spender, uint256 value, bool emitEvent) internal virtual {... */\n      pop\n      pop\n      pop\n      pop\n      jump\t// out\n        /* \"CYBCC.sol\":7782:8551  function _tokenTransfer(... */\n    tag_375:\n        /* \"CYBCC.sol\":7922:7929  takeFee */\n      dup1\n        /* \"CYBCC.sol\":7917:7970  if (!takeFee) {... */\n      tag_400\n      jumpi\n        /* \"CYBCC.sol\":7945:7959  removeAllFee() */\n      tag_400\n        /* \"CYBCC.sol\":7945:7957  removeAllFee */\n      tag_401\n        /* \"CYBCC.sol\":7945:7959  removeAllFee() */\n      jump\t// in\n    tag_400:\n      sub(shl(0xa0, 0x01), 0x01)\n        /* \"CYBCC.sol\":7984:8001  _isExcluded[from] */\n      dup5\n      and\n      0x00\n      swap1\n      dup2\n      mstore\n        /* \"CYBCC.sol\":7984:7995  _isExcluded */\n      0x09\n        /* \"CYBCC.sol\":7984:8001  _isExcluded[from] */\n      0x20\n      mstore\n      0x40\n      swap1\n      keccak256\n      sload\n      0xff\n      and\n        /* \"CYBCC.sol\":7984:8021  _isExcluded[from] && !_isExcluded[to] */\n      dup1\n      iszero\n      tag_402\n      jumpi\n      pop\n      sub(shl(0xa0, 0x01), 0x01)\n        /* \"CYBCC.sol\":8006:8021  _isExcluded[to] */\n      dup4\n      and\n      0x00\n      swap1\n      dup2\n      mstore\n        /* \"CYBCC.sol\":8006:8017  _isExcluded */\n      0x09\n        /* \"CYBCC.sol\":8006:8021  _isExcluded[to] */\n      0x20\n      mstore\n      0x40\n      swap1\n      keccak256\n      sload\n      0xff\n      and\n        /* \"CYBCC.sol\":8005:8021  !_isExcluded[to] */\n      iszero\n        /* \"CYBCC.sol\":7984:8021  _isExcluded[from] && !_isExcluded[to] */\n    tag_402:\n        /* \"CYBCC.sol\":7980:8481  if (_isExcluded[from] && !_isExcluded[to]) {... */\n      iszero\n      tag_403\n      jumpi\n        /* \"CYBCC.sol\":8037:8075  _transferFromExcluded(from, to, value) */\n      tag_404\n        /* \"CYBCC.sol\":8059:8063  from */\n      dup5\n        /* \"CYBCC.sol\":8065:8067  to */\n      dup5\n        /* \"CYBCC.sol\":8069:8074  value */\n      dup5\n        /* \"CYBCC.sol\":8037:8058  _transferFromExcluded */\n      tag_405\n        /* \"CYBCC.sol\":8037:8075  _transferFromExcluded(from, to, value) */\n      jump\t// in\n    tag_404:\n        /* \"CYBCC.sol\":7980:8481  if (_isExcluded[from] && !_isExcluded[to]) {... */\n      jump(tag_422)\n    tag_403:\n      sub(shl(0xa0, 0x01), 0x01)\n        /* \"CYBCC.sol\":8097:8114  _isExcluded[from] */\n      dup5\n      and\n      0x00\n      swap1\n      dup2\n      mstore\n        /* \"CYBCC.sol\":8097:8108  _isExcluded */\n      0x09\n        /* \"CYBCC.sol\":8097:8114  _isExcluded[from] */\n      0x20\n      mstore\n      0x40\n      swap1\n      keccak256\n      sload\n      0xff\n      and\n        /* \"CYBCC.sol\":8096:8114  !_isExcluded[from] */\n      iszero\n        /* \"CYBCC.sol\":8096:8133  !_isExcluded[from] && _isExcluded[to] */\n      dup1\n      iszero\n      tag_407\n      jumpi\n      pop\n      sub(shl(0xa0, 0x01), 0x01)\n        /* \"CYBCC.sol\":8118:8133  _isExcluded[to] */\n      dup4\n      and\n      0x00\n      swap1\n      dup2\n      mstore\n        /* \"CYBCC.sol\":8118:8129  _isExcluded */\n      0x09\n        /* \"CYBCC.sol\":8118:8133  _isExcluded[to] */\n      0x20\n      mstore\n      0x40\n      swap1\n      keccak256\n      sload\n      0xff\n      and\n        /* \"CYBCC.sol\":8096:8133  !_isExcluded[from] && _isExcluded[to] */\n    tag_407:\n        /* \"CYBCC.sol\":8092:8481  if (!_isExcluded[from] && _isExcluded[to]) {... */\n      iszero\n      tag_408\n      jumpi\n        /* \"CYBCC.sol\":8149:8185  _transferToExcluded(from, to, value) */\n      tag_404\n        /* \"CYBCC.sol\":8169:8173  from */\n      dup5\n        /* \"CYBCC.sol\":8175:8177  to */\n      dup5\n        /* \"CYBCC.sol\":8179:8184  value */\n      dup5\n        /* \"CYBCC.sol\":8149:8168  _transferToExcluded */\n      tag_410\n        /* \"CYBCC.sol\":8149:8185  _transferToExcluded(from, to, value) */\n      jump\t// in\n        /* \"CYBCC.sol\":8092:8481  if (!_isExcluded[from] && _isExcluded[to]) {... */\n    tag_408:\n      sub(shl(0xa0, 0x01), 0x01)\n        /* \"CYBCC.sol\":8207:8224  _isExcluded[from] */\n      dup5\n      and\n      0x00\n      swap1\n      dup2\n      mstore\n        /* \"CYBCC.sol\":8207:8218  _isExcluded */\n      0x09\n        /* \"CYBCC.sol\":8207:8224  _isExcluded[from] */\n      0x20\n      mstore\n      0x40\n      swap1\n      keccak256\n      sload\n      0xff\n      and\n        /* \"CYBCC.sol\":8206:8224  !_isExcluded[from] */\n      iszero\n        /* \"CYBCC.sol\":8206:8244  !_isExcluded[from] && !_isExcluded[to] */\n      dup1\n      iszero\n      tag_412\n      jumpi\n      pop\n      sub(shl(0xa0, 0x01), 0x01)\n        /* \"CYBCC.sol\":8229:8244  _isExcluded[to] */\n      dup4\n      and\n      0x00\n      swap1\n      dup2\n      mstore\n        /* \"CYBCC.sol\":8229:8240  _isExcluded */\n      0x09\n        /* \"CYBCC.sol\":8229:8244  _isExcluded[to] */\n      0x20\n      mstore\n      0x40\n      swap1\n      keccak256\n      sload\n      0xff\n      and\n        /* \"CYBCC.sol\":8228:8244  !_isExcluded[to] */\n      iszero\n        /* \"CYBCC.sol\":8206:8244  !_isExcluded[from] && !_isExcluded[to] */\n    tag_412:\n        /* \"CYBCC.sol\":8202:8481  if (!_isExcluded[from] && !_isExcluded[to]) {... */\n      iszero\n      tag_413\n      jumpi\n        /* \"CYBCC.sol\":8260:8294  _transferStandard(from, to, value) */\n      tag_404\n        /* \"CYBCC.sol\":8278:8282  from */\n      dup5\n        /* \"CYBCC.sol\":8284:8286  to */\n      dup5\n        /* \"CYBCC.sol\":8288:8293  value */\n      dup5\n        /* \"CYBCC.sol\":8260:8277  _transferStandard */\n      tag_415\n        /* \"CYBCC.sol\":8260:8294  _transferStandard(from, to, value) */\n      jump\t// in\n        /* \"CYBCC.sol\":8202:8481  if (!_isExcluded[from] && !_isExcluded[to]) {... */\n    tag_413:\n      sub(shl(0xa0, 0x01), 0x01)\n        /* \"CYBCC.sol\":8315:8332  _isExcluded[from] */\n      dup5\n      and\n      0x00\n      swap1\n      dup2\n      mstore\n        /* \"CYBCC.sol\":8315:8326  _isExcluded */\n      0x09\n        /* \"CYBCC.sol\":8315:8332  _isExcluded[from] */\n      0x20\n      mstore\n      0x40\n      swap1\n      keccak256\n      sload\n      0xff\n      and\n        /* \"CYBCC.sol\":8315:8351  _isExcluded[from] && _isExcluded[to] */\n      dup1\n      iszero\n      tag_417\n      jumpi\n      pop\n      sub(shl(0xa0, 0x01), 0x01)\n        /* \"CYBCC.sol\":8336:8351  _isExcluded[to] */\n      dup4\n      and\n      0x00\n      swap1\n      dup2\n      mstore\n        /* \"CYBCC.sol\":8336:8347  _isExcluded */\n      0x09\n        /* \"CYBCC.sol\":8336:8351  _isExcluded[to] */\n      0x20\n      mstore\n      0x40\n      swap1\n      keccak256\n      sload\n      0xff\n      and\n        /* \"CYBCC.sol\":8315:8351  _isExcluded[from] && _isExcluded[to] */\n    tag_417:\n        /* \"CYBCC.sol\":8311:8481  if (_isExcluded[from] && _isExcluded[to]) {... */\n      iszero\n      tag_418\n      jumpi\n        /* \"CYBCC.sol\":8367:8405  _transferBothExcluded(from, to, value) */\n      tag_404\n        /* \"CYBCC.sol\":8389:8393  from */\n      dup5\n        /* \"CYBCC.sol\":8395:8397  to */\n      dup5\n        /* \"CYBCC.sol\":8399:8404  value */\n      dup5\n        /* \"CYBCC.sol\":8367:8388  _transferBothExcluded */\n      tag_420\n        /* \"CYBCC.sol\":8367:8405  _transferBothExcluded(from, to, value) */\n      jump\t// in\n        /* \"CYBCC.sol\":8311:8481  if (_isExcluded[from] && _isExcluded[to]) {... */\n    tag_418:\n        /* \"CYBCC.sol\":8436:8470  _transferStandard(from, to, value) */\n      tag_422\n        /* \"CYBCC.sol\":8454:8458  from */\n      dup5\n        /* \"CYBCC.sol\":8460:8462  to */\n      dup5\n        /* \"CYBCC.sol\":8464:8469  value */\n      dup5\n        /* \"CYBCC.sol\":8436:8453  _transferStandard */\n      tag_415\n        /* \"CYBCC.sol\":8436:8470  _transferStandard(from, to, value) */\n      jump\t// in\n    tag_422:\n        /* \"CYBCC.sol\":8496:8503  takeFee */\n      dup1\n        /* \"CYBCC.sol\":8491:8545  if (!takeFee) {... */\n      tag_342\n      jumpi\n        /* \"CYBCC.sol\":8519:8534  restoreAllFee() */\n      tag_342\n        /* \"CYBCC.sol\":8854:8876  _previousReflectionFee */\n      sload(0x10)\n        /* \"CYBCC.sol\":8837:8851  _reflectionFee */\n      0x0f\n        /* \"CYBCC.sol\":8837:8876  _reflectionFee = _previousReflectionFee */\n      sstore\n        /* \"CYBCC.sol\":8896:8911  _previousTaxFee */\n      sload(0x12)\n        /* \"CYBCC.sol\":8886:8893  _taxFee */\n      0x11\n        /* \"CYBCC.sol\":8886:8911  _taxFee = _previousTaxFee */\n      sstore\n        /* \"CYBCC.sol\":8794:8918  function restoreAllFee() private {... */\n      jump\n        /* \"CYBCC.sol\":12765:13407  function _getCurrentSupply() private view returns (uint256, uint256) {... */\n    tag_389:\n        /* \"CYBCC.sol\":12862:12869  _rTotal */\n      sload(0x0d)\n        /* \"CYBCC.sol\":12897:12904  _tTotal */\n      sload(0x0c)\n        /* \"CYBCC.sol\":12816:12823  uint256 */\n      0x00\n      swap2\n      dup3\n      swap2\n      dup3\n        /* \"CYBCC.sol\":12915:13272  for (uint256 i = 0; i < _excluded.length; i++) {... */\n    tag_427:\n        /* \"CYBCC.sol\":12939:12948  _excluded */\n      0x0a\n        /* \"CYBCC.sol\":12939:12955  _excluded.length */\n      sload\n        /* \"CYBCC.sol\":12935:12955  i < _excluded.length */\n      dup2\n      lt\n        /* \"CYBCC.sol\":12915:13272  for (uint256 i = 0; i < _excluded.length; i++) {... */\n      iszero\n      tag_428\n      jumpi\n        /* \"CYBCC.sol\":13021:13028  rSupply */\n      dup3\n        /* \"CYBCC.sol\":12997:13004  _rOwned */\n      0x05\n        /* \"CYBCC.sol\":12997:13018  _rOwned[_excluded[i]] */\n      0x00\n        /* \"CYBCC.sol\":13005:13014  _excluded */\n      0x0a\n        /* \"CYBCC.sol\":13015:13016  i */\n      dup5\n        /* \"CYBCC.sol\":13005:13017  _excluded[i] */\n      dup2\n      sload\n      dup2\n      lt\n      tag_431\n      jumpi\n      tag_431\n      tag_309\n      jump\t// in\n    tag_431:\n      0x00\n      swap2\n      dup3\n      mstore\n      0x20\n      dup1\n      dup4\n      keccak256\n      swap1\n      swap2\n      add\n      sload\n      sub(shl(0xa0, 0x01), 0x01)\n      and\n        /* \"CYBCC.sol\":12997:13018  _rOwned[_excluded[i]] */\n      dup4\n      mstore\n      dup3\n      add\n      swap3\n      swap1\n      swap3\n      mstore\n      0x40\n      add\n      swap1\n      keccak256\n      sload\n        /* \"CYBCC.sol\":12997:13028  _rOwned[_excluded[i]] > rSupply */\n      gt\n      dup1\n        /* \"CYBCC.sol\":12997:13079  _rOwned[_excluded[i]] > rSupply ||... */\n      tag_433\n      jumpi\n      pop\n        /* \"CYBCC.sol\":13072:13079  tSupply */\n      dup2\n        /* \"CYBCC.sol\":13048:13055  _tOwned */\n      0x06\n        /* \"CYBCC.sol\":13048:13069  _tOwned[_excluded[i]] */\n      0x00\n        /* \"CYBCC.sol\":13056:13065  _excluded */\n      0x0a\n        /* \"CYBCC.sol\":13066:13067  i */\n      dup5\n        /* \"CYBCC.sol\":13056:13068  _excluded[i] */\n      dup2\n      sload\n      dup2\n      lt\n      tag_435\n      jumpi\n      tag_435\n      tag_309\n      jump\t// in\n    tag_435:\n      0x00\n      swap2\n      dup3\n      mstore\n      0x20\n      dup1\n      dup4\n      keccak256\n      swap1\n      swap2\n      add\n      sload\n      sub(shl(0xa0, 0x01), 0x01)\n      and\n        /* \"CYBCC.sol\":13048:13069  _tOwned[_excluded[i]] */\n      dup4\n      mstore\n      dup3\n      add\n      swap3\n      swap1\n      swap3\n      mstore\n      0x40\n      add\n      swap1\n      keccak256\n      sload\n        /* \"CYBCC.sol\":13048:13079  _tOwned[_excluded[i]] > tSupply */\n      gt\n        /* \"CYBCC.sol\":12997:13079  _rOwned[_excluded[i]] > rSupply ||... */\n    tag_433:\n        /* \"CYBCC.sol\":12976:13152  if (... */\n      iszero\n      tag_437\n      jumpi\n        /* \"CYBCC.sol\":13120:13127  _rTotal */\n      sload(0x0d)\n        /* \"CYBCC.sol\":13129:13136  _tTotal */\n      sload(0x0c)\n        /* \"CYBCC.sol\":13112:13137  return (_rTotal, _tTotal) */\n      swap5\n      pop\n      swap5\n      pop\n      pop\n      pop\n      pop\n        /* \"CYBCC.sol\":12765:13407  function _getCurrentSupply() private view returns (uint256, uint256) {... */\n      swap1\n      swap2\n      jump\t// out\n        /* \"CYBCC.sol\":12976:13152  if (... */\n    tag_437:\n        /* \"CYBCC.sol\":13185:13192  _rOwned */\n      0x05\n        /* \"CYBCC.sol\":13185:13206  _rOwned[_excluded[i]] */\n      0x00\n        /* \"CYBCC.sol\":13193:13202  _excluded */\n      0x0a\n        /* \"CYBCC.sol\":13203:13204  i */\n      dup4\n        /* \"CYBCC.sol\":13193:13205  _excluded[i] */\n      dup2\n      sload\n      dup2\n      lt\n      tag_439\n      jumpi\n      tag_439\n      tag_309\n      jump\t// in\n    tag_439:\n      0x00\n      swap2\n      dup3\n      mstore\n      0x20\n      dup1\n      dup4\n      keccak256\n      swap1\n      swap2\n      add\n      sload\n      sub(shl(0xa0, 0x01), 0x01)\n      and\n        /* \"CYBCC.sol\":13185:13206  _rOwned[_excluded[i]] */\n      dup4\n      mstore\n      dup3\n      add\n      swap3\n      swap1\n      swap3\n      mstore\n      0x40\n      add\n      swap1\n      keccak256\n      sload\n        /* \"CYBCC.sol\":13175:13206  rSupply - _rOwned[_excluded[i]] */\n      tag_441\n      swap1\n        /* \"CYBCC.sol\":13175:13182  rSupply */\n      dup5\n        /* \"CYBCC.sol\":13175:13206  rSupply - _rOwned[_excluded[i]] */\n      tag_201\n      jump\t// in\n    tag_441:\n        /* \"CYBCC.sol\":13165:13206  rSupply = rSupply - _rOwned[_excluded[i]] */\n      swap3\n      pop\n        /* \"CYBCC.sol\":13240:13247  _tOwned */\n      0x06\n        /* \"CYBCC.sol\":13240:13261  _tOwned[_excluded[i]] */\n      0x00\n        /* \"CYBCC.sol\":13248:13257  _excluded */\n      0x0a\n        /* \"CYBCC.sol\":13258:13259  i */\n      dup4\n        /* \"CYBCC.sol\":13248:13260  _excluded[i] */\n      dup2\n      sload\n      dup2\n      lt\n      tag_443\n      jumpi\n      tag_443\n      tag_309\n      jump\t// in\n    tag_443:\n      0x00\n      swap2\n      dup3\n      mstore\n      0x20\n      dup1\n      dup4\n      keccak256\n      swap1\n      swap2\n      add\n      sload\n      sub(shl(0xa0, 0x01), 0x01)\n      and\n        /* \"CYBCC.sol\":13240:13261  _tOwned[_excluded[i]] */\n      dup4\n      mstore\n      dup3\n      add\n      swap3\n      swap1\n      swap3\n      mstore\n      0x40\n      add\n      swap1\n      keccak256\n      sload\n        /* \"CYBCC.sol\":13230:13261  tSupply - _tOwned[_excluded[i]] */\n      tag_445\n      swap1\n        /* \"CYBCC.sol\":13230:13237  tSupply */\n      dup4\n        /* \"CYBCC.sol\":13230:13261  tSupply - _tOwned[_excluded[i]] */\n      tag_201\n      jump\t// in\n    tag_445:\n        /* \"CYBCC.sol\":13220:13261  tSupply = tSupply - _tOwned[_excluded[i]] */\n      swap2\n      pop\n        /* \"CYBCC.sol\":12957:12960  i++ */\n      0x01\n      add\n        /* \"CYBCC.sol\":12915:13272  for (uint256 i = 0; i < _excluded.length; i++) {... */\n      jump(tag_427)\n    tag_428:\n      pop\n        /* \"CYBCC.sol\":13306:13313  _tTotal */\n      sload(0x0c)\n        /* \"CYBCC.sol\":13296:13303  _rTotal */\n      sload(0x0d)\n        /* \"CYBCC.sol\":13296:13313  _rTotal / _tTotal */\n      tag_446\n      swap2\n      swap1\n      tag_382\n      jump\t// in\n    tag_446:\n        /* \"CYBCC.sol\":13286:13293  rSupply */\n      dup3\n        /* \"CYBCC.sol\":13286:13313  rSupply < _rTotal / _tTotal */\n      lt\n        /* \"CYBCC.sol\":13282:13365  if (rSupply < _rTotal / _tTotal) {... */\n      iszero\n      tag_447\n      jumpi\n        /* \"CYBCC.sol\":13337:13344  _rTotal */\n      sload(0x0d)\n        /* \"CYBCC.sol\":13346:13353  _tTotal */\n      sload(0x0c)\n        /* \"CYBCC.sol\":13329:13354  return (_rTotal, _tTotal) */\n      swap4\n      pop\n      swap4\n      pop\n      pop\n      pop\n        /* \"CYBCC.sol\":12765:13407  function _getCurrentSupply() private view returns (uint256, uint256) {... */\n      swap1\n      swap2\n      jump\t// out\n        /* \"CYBCC.sol\":13282:13365  if (rSupply < _rTotal / _tTotal) {... */\n    tag_447:\n        /* \"CYBCC.sol\":13383:13390  rSupply */\n      swap1\n      swap4\n        /* \"CYBCC.sol\":13392:13399  tSupply */\n      swap1\n      swap3\n      pop\n        /* \"CYBCC.sol\":12765:13407  function _getCurrentSupply() private view returns (uint256, uint256) {... */\n      swap1\n      pop\n      jump\t// out\n        /* \"CYBCC.sol\":8557:8788  function removeAllFee() private {... */\n    tag_401:\n        /* \"CYBCC.sol\":8603:8617  _reflectionFee */\n      sload(0x0f)\n        /* \"CYBCC.sol\":8603:8622  _reflectionFee == 0 */\n      iszero\n        /* \"CYBCC.sol\":8603:8638  _reflectionFee == 0 && _taxFee == 0 */\n      dup1\n      iszero\n      tag_449\n      jumpi\n      pop\n        /* \"CYBCC.sol\":8626:8633  _taxFee */\n      sload(0x11)\n        /* \"CYBCC.sol\":8626:8638  _taxFee == 0 */\n      iszero\n        /* \"CYBCC.sol\":8603:8638  _reflectionFee == 0 && _taxFee == 0 */\n    tag_449:\n        /* \"CYBCC.sol\":8599:8647  if (_reflectionFee == 0 && _taxFee == 0) return; */\n      iszero\n      tag_450\n      jumpi\n        /* \"CYBCC.sol\":8557:8788  function removeAllFee() private {... */\n      jump\t// out\n        /* \"CYBCC.sol\":8599:8647  if (_reflectionFee == 0 && _taxFee == 0) return; */\n    tag_450:\n        /* \"CYBCC.sol\":8682:8696  _reflectionFee */\n      0x0f\n      dup1\n      sload\n        /* \"CYBCC.sol\":8657:8679  _previousReflectionFee */\n      0x10\n        /* \"CYBCC.sol\":8657:8696  _previousReflectionFee = _reflectionFee */\n      sstore\n        /* \"CYBCC.sol\":8724:8731  _taxFee */\n      0x11\n      dup1\n      sload\n        /* \"CYBCC.sol\":8706:8721  _previousTaxFee */\n      0x12\n        /* \"CYBCC.sol\":8706:8731  _previousTaxFee = _taxFee */\n      sstore\n      0x00\n        /* \"CYBCC.sol\":8742:8760  _reflectionFee = 0 */\n      swap2\n      dup3\n      swap1\n      sstore\n        /* \"CYBCC.sol\":8770:8781  _taxFee = 0 */\n      sstore\n        /* \"CYBCC.sol\":8557:8788  function removeAllFee() private {... */\n      jump\t// out\n        /* \"CYBCC.sol\":10182:10827  function _transferFromExcluded(... */\n    tag_405:\n        /* \"CYBCC.sol\":10327:10342  uint256 rAmount */\n      0x00\n        /* \"CYBCC.sol\":10356:10379  uint256 rTransferAmount */\n      0x00\n        /* \"CYBCC.sol\":10393:10416  uint256 tTransferAmount */\n      0x00\n        /* \"CYBCC.sol\":10430:10449  uint256 currentRate */\n      0x00\n        /* \"CYBCC.sol\":10462:10489  _getTransferValues(tAmount) */\n      tag_452\n        /* \"CYBCC.sol\":10481:10488  tAmount */\n      dup6\n        /* \"CYBCC.sol\":10462:10480  _getTransferValues */\n      tag_199\n        /* \"CYBCC.sol\":10462:10489  _getTransferValues(tAmount) */\n      jump\t// in\n    tag_452:\n      sub(shl(0xa0, 0x01), 0x01)\n        /* \"CYBCC.sol\":10517:10532  _tOwned[sender] */\n      dup12\n      and\n      0x00\n      swap1\n      dup2\n      mstore\n        /* \"CYBCC.sol\":10517:10524  _tOwned */\n      0x06\n        /* \"CYBCC.sol\":10517:10532  _tOwned[sender] */\n      0x20\n      mstore\n      0x40\n      swap1\n      keccak256\n      sload\n        /* \"CYBCC.sol\":10313:10489  (... */\n      swap4\n      swap8\n      pop\n      swap2\n      swap6\n      pop\n      swap4\n      pop\n      swap2\n      pop\n        /* \"CYBCC.sol\":10517:10542  _tOwned[sender] - tAmount */\n      tag_453\n      swap1\n        /* \"CYBCC.sol\":10535:10542  tAmount */\n      dup7\n      swap1\n        /* \"CYBCC.sol\":10517:10542  _tOwned[sender] - tAmount */\n      tag_201\n      jump\t// in\n    tag_453:\n      sub(shl(0xa0, 0x01), 0x01)\n        /* \"CYBCC.sol\":10499:10514  _tOwned[sender] */\n      dup9\n      and\n      0x00\n      swap1\n      dup2\n      mstore\n        /* \"CYBCC.sol\":10499:10506  _tOwned */\n      0x06\n        /* \"CYBCC.sol\":10499:10514  _tOwned[sender] */\n      0x20\n      swap1\n      dup2\n      mstore\n      0x40\n      dup1\n      dup4\n      keccak256\n        /* \"CYBCC.sol\":10499:10542  _tOwned[sender] = _tOwned[sender] - tAmount */\n      swap4\n      swap1\n      swap4\n      sstore\n        /* \"CYBCC.sol\":10570:10577  _rOwned */\n      0x05\n        /* \"CYBCC.sol\":10570:10585  _rOwned[sender] */\n      swap1\n      mstore\n      keccak256\n      sload\n        /* \"CYBCC.sol\":10570:10595  _rOwned[sender] - rAmount */\n      tag_454\n      swap1\n        /* \"CYBCC.sol\":10588:10595  rAmount */\n      dup6\n      swap1\n        /* \"CYBCC.sol\":10570:10595  _rOwned[sender] - rAmount */\n      tag_201\n      jump\t// in\n    tag_454:\n      sub(shl(0xa0, 0x01), 0x01)\n        /* \"CYBCC.sol\":10552:10567  _rOwned[sender] */\n      dup1\n      dup10\n      and\n      0x00\n      swap1\n      dup2\n      mstore\n        /* \"CYBCC.sol\":10552:10559  _rOwned */\n      0x05\n        /* \"CYBCC.sol\":10552:10567  _rOwned[sender] */\n      0x20\n      mstore\n      0x40\n      dup1\n      dup3\n      keccak256\n        /* \"CYBCC.sol\":10552:10595  _rOwned[sender] = _rOwned[sender] - rAmount */\n      swap4\n      swap1\n      swap4\n      sstore\n        /* \"CYBCC.sol\":10626:10644  _rOwned[recipient] */\n      swap1\n      dup9\n      and\n      dup2\n      mstore\n      keccak256\n      sload\n        /* \"CYBCC.sol\":10626:10662  _rOwned[recipient] + rTransferAmount */\n      tag_455\n      swap1\n        /* \"CYBCC.sol\":10647:10662  rTransferAmount */\n      dup5\n      swap1\n        /* \"CYBCC.sol\":10626:10662  _rOwned[recipient] + rTransferAmount */\n      tag_204\n      jump\t// in\n    tag_455:\n      sub(shl(0xa0, 0x01), 0x01)\n        /* \"CYBCC.sol\":10605:10623  _rOwned[recipient] */\n      dup8\n      and\n      0x00\n      swap1\n      dup2\n      mstore\n        /* \"CYBCC.sol\":10605:10612  _rOwned */\n      0x05\n        /* \"CYBCC.sol\":10605:10623  _rOwned[recipient] */\n      0x20\n      mstore\n      0x40\n      swap1\n      keccak256\n        /* \"CYBCC.sol\":10605:10662  _rOwned[recipient] = _rOwned[recipient] + rTransferAmount */\n      sstore\n        /* \"CYBCC.sol\":10673:10717  taxFeeTransfer(sender, tAmount, currentRate) */\n      tag_456\n        /* \"CYBCC.sol\":10688:10694  sender */\n      dup8\n        /* \"CYBCC.sol\":10696:10703  tAmount */\n      dup7\n        /* \"CYBCC.sol\":10705:10716  currentRate */\n      dup4\n        /* \"CYBCC.sol\":10673:10687  taxFeeTransfer */\n      tag_457\n        /* \"CYBCC.sol\":10673:10717  taxFeeTransfer(sender, tAmount, currentRate) */\n      jump\t// in\n    tag_456:\n        /* \"CYBCC.sol\":10727:10760  _reflectFee(tAmount, currentRate) */\n      tag_458\n        /* \"CYBCC.sol\":10739:10746  tAmount */\n      dup6\n        /* \"CYBCC.sol\":10748:10759  currentRate */\n      dup3\n        /* \"CYBCC.sol\":10727:10738  _reflectFee */\n      tag_459\n        /* \"CYBCC.sol\":10727:10760  _reflectFee(tAmount, currentRate) */\n      jump\t// in\n    tag_458:\n        /* \"CYBCC.sol\":10793:10802  recipient */\n      dup6\n      sub(shl(0xa0, 0x01), 0x01)\n        /* \"CYBCC.sol\":10776:10820  Transfer(sender, recipient, tTransferAmount) */\n      and\n        /* \"CYBCC.sol\":10785:10791  sender */\n      dup8\n      sub(shl(0xa0, 0x01), 0x01)\n        /* \"CYBCC.sol\":10776:10820  Transfer(sender, recipient, tTransferAmount) */\n      and\n      0xddf252ad1be2c89b69c2b068fc378daa952ba7f163c4a11628f55a4df523b3ef\n        /* \"CYBCC.sol\":10804:10819  tTransferAmount */\n      dup5\n        /* \"CYBCC.sol\":10776:10820  Transfer(sender, recipient, tTransferAmount) */\n      mload(0x40)\n      tag_460\n      swap2\n        /* \"#utility.yul\":1489:1514   */\n      dup2\n      mstore\n        /* \"#utility.yul\":1477:1479   */\n      0x20\n        /* \"#utility.yul\":1462:1480   */\n      add\n      swap1\n        /* \"#utility.yul\":1343:1520   */\n      jump\n        /* \"CYBCC.sol\":10776:10820  Transfer(sender, recipient, tTransferAmount) */\n    tag_460:\n      mload(0x40)\n      dup1\n      swap2\n      sub\n      swap1\n      log3\n        /* \"CYBCC.sol\":10303:10827  {... */\n      pop\n      pop\n      pop\n      pop\n        /* \"CYBCC.sol\":10182:10827  function _transferFromExcluded(... */\n      pop\n      pop\n      pop\n      jump\t// out\n        /* \"CYBCC.sol\":9519:10176  function _transferToExcluded(... */\n    tag_410:\n        /* \"CYBCC.sol\":9662:9677  uint256 rAmount */\n      0x00\n        /* \"CYBCC.sol\":9691:9714  uint256 rTransferAmount */\n      0x00\n        /* \"CYBCC.sol\":9728:9751  uint256 tTransferAmount */\n      0x00\n        /* \"CYBCC.sol\":9765:9784  uint256 currentRate */\n      0x00\n        /* \"CYBCC.sol\":9797:9824  _getTransferValues(tAmount) */\n      tag_462\n        /* \"CYBCC.sol\":9816:9823  tAmount */\n      dup6\n        /* \"CYBCC.sol\":9797:9815  _getTransferValues */\n      tag_199\n        /* \"CYBCC.sol\":9797:9824  _getTransferValues(tAmount) */\n      jump\t// in\n    tag_462:\n      sub(shl(0xa0, 0x01), 0x01)\n        /* \"CYBCC.sol\":9852:9867  _rOwned[sender] */\n      dup12\n      and\n      0x00\n      swap1\n      dup2\n      mstore\n        /* \"CYBCC.sol\":9852:9859  _rOwned */\n      0x05\n        /* \"CYBCC.sol\":9852:9867  _rOwned[sender] */\n      0x20\n      mstore\n      0x40\n      swap1\n      keccak256\n      sload\n        /* \"CYBCC.sol\":9648:9824  (... */\n      swap4\n      swap8\n      pop\n      swap2\n      swap6\n      pop\n      swap4\n      pop\n      swap2\n      pop\n        /* \"CYBCC.sol\":9852:9877  _rOwned[sender] - rAmount */\n      tag_463\n      swap1\n        /* \"CYBCC.sol\":9648:9824  (... */\n      dup6\n      swap1\n        /* \"CYBCC.sol\":9852:9877  _rOwned[sender] - rAmount */\n      tag_201\n      jump\t// in\n    tag_463:\n      sub(shl(0xa0, 0x01), 0x01)\n        /* \"CYBCC.sol\":9834:9849  _rOwned[sender] */\n      dup1\n      dup10\n      and\n      0x00\n      swap1\n      dup2\n      mstore\n        /* \"CYBCC.sol\":9834:9841  _rOwned */\n      0x05\n        /* \"CYBCC.sol\":9834:9849  _rOwned[sender] */\n      0x20\n      swap1\n      dup2\n      mstore\n      0x40\n      dup1\n      dup4\n      keccak256\n        /* \"CYBCC.sol\":9834:9877  _rOwned[sender] = _rOwned[sender] - rAmount */\n      swap5\n      swap1\n      swap5\n      sstore\n        /* \"CYBCC.sol\":9908:9926  _tOwned[recipient] */\n      swap2\n      dup10\n      and\n      dup2\n      mstore\n        /* \"CYBCC.sol\":9908:9915  _tOwned */\n      0x06\n        /* \"CYBCC.sol\":9908:9926  _tOwned[recipient] */\n      swap1\n      swap2\n      mstore\n      keccak256\n      sload\n        /* \"CYBCC.sol\":9908:9944  _tOwned[recipient] + tTransferAmount */\n      tag_464\n      swap1\n        /* \"CYBCC.sol\":9929:9944  tTransferAmount */\n      dup4\n      swap1\n        /* \"CYBCC.sol\":9908:9944  _tOwned[recipient] + tTransferAmount */\n      tag_204\n      jump\t// in\n    tag_464:\n      sub(shl(0xa0, 0x01), 0x01)\n        /* \"CYBCC.sol\":9887:9905  _tOwned[recipient] */\n      dup8\n      and\n      0x00\n      swap1\n      dup2\n      mstore\n        /* \"CYBCC.sol\":9887:9894  _tOwned */\n      0x06\n        /* \"CYBCC.sol\":9887:9905  _tOwned[recipient] */\n      0x20\n      swap1\n      dup2\n      mstore\n      0x40\n      dup1\n      dup4\n      keccak256\n        /* \"CYBCC.sol\":9887:9944  _tOwned[recipient] = _tOwned[recipient] + tTransferAmount */\n      swap4\n      swap1\n      swap4\n      sstore\n        /* \"CYBCC.sol\":9975:9982  _rOwned */\n      0x05\n        /* \"CYBCC.sol\":9975:9993  _rOwned[recipient] */\n      swap1\n      mstore\n      keccak256\n      sload\n        /* \"CYBCC.sol\":9975:10011  _rOwned[recipient] + rTransferAmount */\n      tag_455\n      swap1\n        /* \"CYBCC.sol\":9996:10011  rTransferAmount */\n      dup5\n      swap1\n        /* \"CYBCC.sol\":9975:10011  _rOwned[recipient] + rTransferAmount */\n      tag_204\n      jump\t// in\n        /* \"CYBCC.sol\":8924:9513  function _transferStandard(... */\n    tag_415:\n        /* \"CYBCC.sol\":9065:9080  uint256 rAmount */\n      0x00\n        /* \"CYBCC.sol\":9094:9117  uint256 rTransferAmount */\n      0x00\n        /* \"CYBCC.sol\":9131:9154  uint256 tTransferAmount */\n      0x00\n        /* \"CYBCC.sol\":9168:9187  uint256 currentRate */\n      0x00\n        /* \"CYBCC.sol\":9200:9227  _getTransferValues(tAmount) */\n      tag_470\n        /* \"CYBCC.sol\":9219:9226  tAmount */\n      dup6\n        /* \"CYBCC.sol\":9200:9218  _getTransferValues */\n      tag_199\n        /* \"CYBCC.sol\":9200:9227  _getTransferValues(tAmount) */\n      jump\t// in\n    tag_470:\n      sub(shl(0xa0, 0x01), 0x01)\n        /* \"CYBCC.sol\":9256:9271  _rOwned[sender] */\n      dup12\n      and\n      0x00\n      swap1\n      dup2\n      mstore\n        /* \"CYBCC.sol\":9256:9263  _rOwned */\n      0x05\n        /* \"CYBCC.sol\":9256:9271  _rOwned[sender] */\n      0x20\n      mstore\n      0x40\n      swap1\n      keccak256\n      sload\n        /* \"CYBCC.sol\":9051:9227  (... */\n      swap4\n      swap8\n      pop\n      swap2\n      swap6\n      pop\n      swap4\n      pop\n      swap2\n      pop\n        /* \"CYBCC.sol\":9256:9281  _rOwned[sender] - rAmount */\n      tag_454\n      swap1\n        /* \"CYBCC.sol\":9051:9227  (... */\n      dup6\n      swap1\n        /* \"CYBCC.sol\":9256:9281  _rOwned[sender] - rAmount */\n      tag_201\n      jump\t// in\n        /* \"CYBCC.sol\":10833:11545  function _transferBothExcluded(... */\n    tag_420:\n        /* \"CYBCC.sol\":10978:10993  uint256 rAmount */\n      0x00\n        /* \"CYBCC.sol\":11007:11030  uint256 rTransferAmount */\n      0x00\n        /* \"CYBCC.sol\":11044:11067  uint256 tTransferAmount */\n      0x00\n        /* \"CYBCC.sol\":11081:11100  uint256 currentRate */\n      0x00\n        /* \"CYBCC.sol\":11113:11140  _getTransferValues(tAmount) */\n      tag_477\n        /* \"CYBCC.sol\":11132:11139  tAmount */\n      dup6\n        /* \"CYBCC.sol\":11113:11131  _getTransferValues */\n      tag_199\n        /* \"CYBCC.sol\":11113:11140  _getTransferValues(tAmount) */\n      jump\t// in\n    tag_477:\n      sub(shl(0xa0, 0x01), 0x01)\n        /* \"CYBCC.sol\":11168:11183  _tOwned[sender] */\n      dup12\n      and\n      0x00\n      swap1\n      dup2\n      mstore\n        /* \"CYBCC.sol\":11168:11175  _tOwned */\n      0x06\n        /* \"CYBCC.sol\":11168:11183  _tOwned[sender] */\n      0x20\n      mstore\n      0x40\n      swap1\n      keccak256\n      sload\n        /* \"CYBCC.sol\":10964:11140  (... */\n      swap4\n      swap8\n      pop\n      swap2\n      swap6\n      pop\n      swap4\n      pop\n      swap2\n      pop\n        /* \"CYBCC.sol\":11168:11193  _tOwned[sender] - tAmount */\n      tag_478\n      swap1\n        /* \"CYBCC.sol\":11186:11193  tAmount */\n      dup7\n      swap1\n        /* \"CYBCC.sol\":11168:11193  _tOwned[sender] - tAmount */\n      tag_201\n      jump\t// in\n    tag_478:\n      sub(shl(0xa0, 0x01), 0x01)\n        /* \"CYBCC.sol\":11150:11165  _tOwned[sender] */\n      dup9\n      and\n      0x00\n      swap1\n      dup2\n      mstore\n        /* \"CYBCC.sol\":11150:11157  _tOwned */\n      0x06\n        /* \"CYBCC.sol\":11150:11165  _tOwned[sender] */\n      0x20\n      swap1\n      dup2\n      mstore\n      0x40\n      dup1\n      dup4\n      keccak256\n        /* \"CYBCC.sol\":11150:11193  _tOwned[sender] = _tOwned[sender] - tAmount */\n      swap4\n      swap1\n      swap4\n      sstore\n        /* \"CYBCC.sol\":11221:11228  _rOwned */\n      0x05\n        /* \"CYBCC.sol\":11221:11236  _rOwned[sender] */\n      swap1\n      mstore\n      keccak256\n      sload\n        /* \"CYBCC.sol\":11221:11246  _rOwned[sender] - rAmount */\n      tag_463\n      swap1\n        /* \"CYBCC.sol\":11239:11246  rAmount */\n      dup6\n      swap1\n        /* \"CYBCC.sol\":11221:11246  _rOwned[sender] - rAmount */\n      tag_201\n      jump\t// in\n        /* \"CYBCC.sol\":13413:14007  function taxFeeTransfer(... */\n    tag_457:\n        /* \"CYBCC.sol\":13539:13554  uint256 tTaxFee */\n      0x00\n        /* \"CYBCC.sol\":13579:13582  100 */\n      0x64\n        /* \"CYBCC.sol\":13568:13575  _taxFee */\n      sload(0x11)\n        /* \"CYBCC.sol\":13558:13565  tAmount */\n      dup5\n        /* \"CYBCC.sol\":13558:13575  tAmount * _taxFee */\n      tag_487\n      swap2\n      swap1\n      tag_331\n      jump\t// in\n    tag_487:\n        /* \"CYBCC.sol\":13557:13582  (tAmount * _taxFee) / 100 */\n      tag_488\n      swap2\n      swap1\n      tag_382\n      jump\t// in\n    tag_488:\n        /* \"CYBCC.sol\":13539:13582  uint256 tTaxFee = (tAmount * _taxFee) / 100 */\n      swap1\n      pop\n        /* \"CYBCC.sol\":13596:13607  tTaxFee > 0 */\n      dup1\n      iszero\n        /* \"CYBCC.sol\":13592:14001  if (tTaxFee > 0) {... */\n      tag_342\n      jumpi\n        /* \"CYBCC.sol\":13623:13638  uint256 rTaxFee */\n      0x00\n        /* \"CYBCC.sol\":13667:13668  2 */\n      0x02\n        /* \"CYBCC.sol\":13642:13663  tTaxFee * currentRate */\n      tag_490\n        /* \"CYBCC.sol\":13652:13663  currentRate */\n      dup5\n        /* \"CYBCC.sol\":13642:13649  tTaxFee */\n      dup5\n        /* \"CYBCC.sol\":13642:13663  tTaxFee * currentRate */\n      tag_331\n      jump\t// in\n    tag_490:\n        /* \"CYBCC.sol\":13641:13668  (tTaxFee * currentRate) / 2 */\n      tag_491\n      swap2\n      swap1\n      tag_382\n      jump\t// in\n    tag_491:\n        /* \"CYBCC.sol\":13719:13736  _marketingAccount */\n      and(sub(shl(0xa0, 0x01), 0x01), sload(0x13))\n        /* \"CYBCC.sol\":13711:13737  _rOwned[_marketingAccount] */\n      0x00\n      swap1\n      dup2\n      mstore\n        /* \"CYBCC.sol\":13711:13718  _rOwned */\n      0x05\n        /* \"CYBCC.sol\":13711:13737  _rOwned[_marketingAccount] */\n      0x20\n      mstore\n      0x40\n      swap1\n      keccak256\n      sload\n        /* \"CYBCC.sol\":13623:13668  uint256 rTaxFee = (tTaxFee * currentRate) / 2 */\n      swap1\n      swap2\n      pop\n        /* \"CYBCC.sol\":13711:13747  _rOwned[_marketingAccount] + rTaxFee */\n      tag_492\n      swap1\n        /* \"CYBCC.sol\":13623:13668  uint256 rTaxFee = (tTaxFee * currentRate) / 2 */\n      dup3\n      swap1\n        /* \"CYBCC.sol\":13711:13747  _rOwned[_marketingAccount] + rTaxFee */\n      tag_204\n      jump\t// in\n    tag_492:\n        /* \"CYBCC.sol\":13690:13707  _marketingAccount */\n      sload(0x13)\n      sub(shl(0xa0, 0x01), 0x01)\n      swap1\n      dup2\n      and\n        /* \"CYBCC.sol\":13682:13708  _rOwned[_marketingAccount] */\n      0x00\n      swap1\n      dup2\n      mstore\n        /* \"CYBCC.sol\":13682:13689  _rOwned */\n      0x05\n        /* \"CYBCC.sol\":13682:13708  _rOwned[_marketingAccount] */\n      0x20\n      mstore\n      0x40\n      dup1\n      dup3\n      keccak256\n        /* \"CYBCC.sol\":13682:13747  _rOwned[_marketingAccount] = _rOwned[_marketingAccount] + rTaxFee */\n      swap4\n      swap1\n      swap4\n      sstore\n        /* \"CYBCC.sol\":13816:13835  _developmentAccount */\n      sload(0x14)\n      swap1\n      swap2\n      and\n        /* \"CYBCC.sol\":13808:13836  _rOwned[_developmentAccount] */\n      dup2\n      mstore\n      keccak256\n      sload\n        /* \"CYBCC.sol\":13808:13862  _rOwned[_developmentAccount] +... */\n      tag_493\n      swap1\n        /* \"CYBCC.sol\":13855:13862  rTaxFee */\n      dup3\n      swap1\n        /* \"CYBCC.sol\":13808:13862  _rOwned[_developmentAccount] +... */\n      tag_204\n      jump\t// in\n    tag_493:\n        /* \"CYBCC.sol\":13769:13788  _developmentAccount */\n      sload(0x14)\n      sub(shl(0xa0, 0x01), 0x01)\n      swap1\n      dup2\n      and\n        /* \"CYBCC.sol\":13761:13789  _rOwned[_developmentAccount] */\n      0x00\n      swap1\n      dup2\n      mstore\n        /* \"CYBCC.sol\":13761:13768  _rOwned */\n      0x05\n        /* \"CYBCC.sol\":13761:13789  _rOwned[_developmentAccount] */\n      0x20\n      swap1\n      dup2\n      mstore\n      0x40\n      swap2\n      dup3\n      swap1\n      keccak256\n        /* \"CYBCC.sol\":13761:13862  _rOwned[_developmentAccount] =... */\n      swap4\n      swap1\n      swap4\n      sstore\n        /* \"CYBCC.sol\":13898:13915  _marketingAccount */\n      sload(0x13)\n        /* \"CYBCC.sol\":13881:13925  Transfer(sender, _marketingAccount, tTaxFee) */\n      swap1\n      mload\n        /* \"#utility.yul\":1489:1514   */\n      dup6\n      dup2\n      mstore\n        /* \"CYBCC.sol\":13898:13915  _marketingAccount */\n      swap1\n      dup3\n      and\n      swap3\n        /* \"CYBCC.sol\":13881:13925  Transfer(sender, _marketingAccount, tTaxFee) */\n      swap2\n      dup9\n      and\n      swap2\n      0xddf252ad1be2c89b69c2b068fc378daa952ba7f163c4a11628f55a4df523b3ef\n      swap2\n        /* \"#utility.yul\":1462:1480   */\n      add\n        /* \"CYBCC.sol\":13881:13925  Transfer(sender, _marketingAccount, tTaxFee) */\n      mload(0x40)\n      dup1\n      swap2\n      sub\n      swap1\n      log3\n        /* \"CYBCC.sol\":13961:13980  _developmentAccount */\n      sload(0x14)\n        /* \"CYBCC.sol\":13944:13990  Transfer(sender, _developmentAccount, tTaxFee) */\n      mload(0x40)\n        /* \"#utility.yul\":1489:1514   */\n      dup4\n      dup2\n      mstore\n      sub(shl(0xa0, 0x01), 0x01)\n        /* \"CYBCC.sol\":13961:13980  _developmentAccount */\n      swap2\n      dup3\n      and\n      swap2\n        /* \"CYBCC.sol\":13944:13990  Transfer(sender, _developmentAccount, tTaxFee) */\n      dup8\n      and\n      swap1\n      0xddf252ad1be2c89b69c2b068fc378daa952ba7f163c4a11628f55a4df523b3ef\n      swap1\n        /* \"#utility.yul\":1477:1479   */\n      0x20\n        /* \"#utility.yul\":1462:1480   */\n      add\n        /* \"CYBCC.sol\":13944:13990  Transfer(sender, _developmentAccount, tTaxFee) */\n      mload(0x40)\n      dup1\n      swap2\n      sub\n      swap1\n      log3\n        /* \"CYBCC.sol\":13609:14001  {... */\n      pop\n        /* \"CYBCC.sol\":13529:14007  {... */\n      pop\n        /* \"CYBCC.sol\":13413:14007  function taxFeeTransfer(... */\n      pop\n      pop\n      pop\n      jump\t// out\n        /* \"CYBCC.sol\":12346:12595  function _reflectFee(uint256 tAmount, uint256 currentRate) private {... */\n    tag_459:\n        /* \"CYBCC.sol\":12423:12435  uint256 tFee */\n      0x00\n        /* \"CYBCC.sol\":12467:12470  100 */\n      0x64\n        /* \"CYBCC.sol\":12449:12463  _reflectionFee */\n      sload(0x0f)\n        /* \"CYBCC.sol\":12439:12446  tAmount */\n      dup5\n        /* \"CYBCC.sol\":12439:12463  tAmount * _reflectionFee */\n      tag_497\n      swap2\n      swap1\n      tag_331\n      jump\t// in\n    tag_497:\n        /* \"CYBCC.sol\":12438:12470  (tAmount * _reflectionFee) / 100 */\n      tag_498\n      swap2\n      swap1\n      tag_382\n      jump\t// in\n    tag_498:\n        /* \"CYBCC.sol\":12423:12470  uint256 tFee = (tAmount * _reflectionFee) / 100 */\n      swap1\n      pop\n        /* \"CYBCC.sol\":12480:12492  uint256 rFee */\n      0x00\n        /* \"CYBCC.sol\":12495:12513  tFee * currentRate */\n      tag_499\n        /* \"CYBCC.sol\":12502:12513  currentRate */\n      dup4\n        /* \"CYBCC.sol\":12423:12470  uint256 tFee = (tAmount * _reflectionFee) / 100 */\n      dup4\n        /* \"CYBCC.sol\":12495:12513  tFee * currentRate */\n      tag_331\n      jump\t// in\n    tag_499:\n        /* \"CYBCC.sol\":12480:12513  uint256 rFee = tFee * currentRate */\n      swap1\n      pop\n        /* \"CYBCC.sol\":12544:12548  rFee */\n      dup1\n        /* \"CYBCC.sol\":12534:12541  _rTotal */\n      sload(0x0d)\n        /* \"CYBCC.sol\":12534:12548  _rTotal - rFee */\n      tag_500\n      swap2\n      swap1\n      tag_201\n      jump\t// in\n    tag_500:\n        /* \"CYBCC.sol\":12524:12531  _rTotal */\n      0x0d\n        /* \"CYBCC.sol\":12524:12548  _rTotal = _rTotal - rFee */\n      sstore\n        /* \"CYBCC.sol\":12571:12581  _tFeeTotal */\n      sload(0x0e)\n        /* \"CYBCC.sol\":12571:12588  _tFeeTotal + tFee */\n      tag_501\n      swap1\n        /* \"CYBCC.sol\":12584:12588  tFee */\n      dup4\n      swap1\n        /* \"CYBCC.sol\":12571:12588  _tFeeTotal + tFee */\n      tag_204\n      jump\t// in\n    tag_501:\n        /* \"CYBCC.sol\":12558:12568  _tFeeTotal */\n      0x0e\n        /* \"CYBCC.sol\":12558:12588  _tFeeTotal = _tFeeTotal + tFee */\n      sstore\n      pop\n      pop\n      pop\n      pop\n        /* \"CYBCC.sol\":12346:12595  function _reflectFee(uint256 tAmount, uint256 currentRate) private {... */\n      jump\t// out\n        /* \"#utility.yul\":14:240   */\n    tag_47:\n        /* \"#utility.yul\":73:79   */\n      0x00\n        /* \"#utility.yul\":126:128   */\n      0x20\n        /* \"#utility.yul\":114:123   */\n      dup3\n        /* \"#utility.yul\":105:112   */\n      dup5\n        /* \"#utility.yul\":101:124   */\n      sub\n        /* \"#utility.yul\":97:129   */\n      slt\n        /* \"#utility.yul\":94:146   */\n      iszero\n      tag_506\n      jumpi\n        /* \"#utility.yul\":142:143   */\n      0x00\n        /* \"#utility.yul\":139:140   */\n      0x00\n        /* \"#utility.yul\":132:144   */\n      revert\n        /* \"#utility.yul\":94:146   */\n    tag_506:\n      pop\n        /* \"#utility.yul\":187:210   */\n      calldataload\n      swap2\n        /* \"#utility.yul\":14:240   */\n      swap1\n      pop\n      jump\t// out\n        /* \"#utility.yul\":245:663   */\n    tag_53:\n        /* \"#utility.yul\":394:396   */\n      0x20\n        /* \"#utility.yul\":383:392   */\n      dup2\n        /* \"#utility.yul\":376:397   */\n      mstore\n        /* \"#utility.yul\":357:361   */\n      0x00\n        /* \"#utility.yul\":426:432   */\n      dup3\n        /* \"#utility.yul\":420:433   */\n      mload\n        /* \"#utility.yul\":469:475   */\n      dup1\n        /* \"#utility.yul\":464:466   */\n      0x20\n        /* \"#utility.yul\":453:462   */\n      dup5\n        /* \"#utility.yul\":449:467   */\n      add\n        /* \"#utility.yul\":442:476   */\n      mstore\n        /* \"#utility.yul\":528:534   */\n      dup1\n        /* \"#utility.yul\":523:525   */\n      0x20\n        /* \"#utility.yul\":515:521   */\n      dup6\n        /* \"#utility.yul\":511:526   */\n      add\n        /* \"#utility.yul\":506:508   */\n      0x40\n        /* \"#utility.yul\":495:504   */\n      dup6\n        /* \"#utility.yul\":491:509   */\n      add\n        /* \"#utility.yul\":485:535   */\n      mcopy\n        /* \"#utility.yul\":584:585   */\n      0x00\n        /* \"#utility.yul\":579:581   */\n      0x40\n        /* \"#utility.yul\":570:576   */\n      dup3\n        /* \"#utility.yul\":559:568   */\n      dup6\n        /* \"#utility.yul\":555:577   */\n      add\n        /* \"#utility.yul\":551:582   */\n      add\n        /* \"#utility.yul\":544:586   */\n      mstore\n        /* \"#utility.yul\":654:656   */\n      0x40\n        /* \"#utility.yul\":647:649   */\n      0x1f\n        /* \"#utility.yul\":643:650   */\n      not\n        /* \"#utility.yul\":638:640   */\n      0x1f\n        /* \"#utility.yul\":630:636   */\n      dup4\n        /* \"#utility.yul\":626:641   */\n      add\n        /* \"#utility.yul\":622:651   */\n      and\n        /* \"#utility.yul\":611:620   */\n      dup5\n        /* \"#utility.yul\":607:652   */\n      add\n        /* \"#utility.yul\":603:657   */\n      add\n        /* \"#utility.yul\":595:657   */\n      swap2\n      pop\n      pop\n        /* \"#utility.yul\":245:663   */\n      swap3\n      swap2\n      pop\n      pop\n      jump\t// out\n        /* \"#utility.yul\":668:841   */\n    tag_502:\n        /* \"#utility.yul\":736:756   */\n      dup1\n      calldataload\n      sub(shl(0xa0, 0x01), 0x01)\n        /* \"#utility.yul\":785:816   */\n      dup2\n      and\n        /* \"#utility.yul\":775:817   */\n      dup2\n      eq\n        /* \"#utility.yul\":765:835   */\n      tag_509\n      jumpi\n        /* \"#utility.yul\":831:832   */\n      0x00\n        /* \"#utility.yul\":828:829   */\n      0x00\n        /* \"#utility.yul\":821:833   */\n      revert\n        /* \"#utility.yul\":765:835   */\n    tag_509:\n        /* \"#utility.yul\":668:841   */\n      swap2\n      swap1\n      pop\n      jump\t// out\n        /* \"#utility.yul\":846:1146   */\n    tag_57:\n        /* \"#utility.yul\":914:920   */\n      0x00\n        /* \"#utility.yul\":922:928   */\n      0x00\n        /* \"#utility.yul\":975:977   */\n      0x40\n        /* \"#utility.yul\":963:972   */\n      dup4\n        /* \"#utility.yul\":954:961   */\n      dup6\n        /* \"#utility.yul\":950:973   */\n      sub\n        /* \"#utility.yul\":946:978   */\n      slt\n        /* \"#utility.yul\":943:995   */\n      iszero\n      tag_511\n      jumpi\n        /* \"#utility.yul\":991:992   */\n      0x00\n        /* \"#utility.yul\":988:989   */\n      0x00\n        /* \"#utility.yul\":981:993   */\n      revert\n        /* \"#utility.yul\":943:995   */\n    tag_511:\n        /* \"#utility.yul\":1014:1043   */\n      tag_512\n        /* \"#utility.yul\":1033:1042   */\n      dup4\n        /* \"#utility.yul\":1014:1043   */\n      tag_502\n      jump\t// in\n    tag_512:\n        /* \"#utility.yul\":1004:1043   */\n      swap5\n        /* \"#utility.yul\":1112:1114   */\n      0x20\n        /* \"#utility.yul\":1097:1115   */\n      swap4\n      swap1\n      swap4\n      add\n        /* \"#utility.yul\":1084:1116   */\n      calldataload\n      swap4\n      pop\n      pop\n      pop\n        /* \"#utility.yul\":846:1146   */\n      jump\t// out\n        /* \"#utility.yul\":1733:2107   */\n    tag_74:\n        /* \"#utility.yul\":1810:1816   */\n      0x00\n        /* \"#utility.yul\":1818:1824   */\n      0x00\n        /* \"#utility.yul\":1826:1832   */\n      0x00\n        /* \"#utility.yul\":1879:1881   */\n      0x60\n        /* \"#utility.yul\":1867:1876   */\n      dup5\n        /* \"#utility.yul\":1858:1865   */\n      dup7\n        /* \"#utility.yul\":1854:1877   */\n      sub\n        /* \"#utility.yul\":1850:1882   */\n      slt\n        /* \"#utility.yul\":1847:1899   */\n      iszero\n      tag_517\n      jumpi\n        /* \"#utility.yul\":1895:1896   */\n      0x00\n        /* \"#utility.yul\":1892:1893   */\n      0x00\n        /* \"#utility.yul\":1885:1897   */\n      revert\n        /* \"#utility.yul\":1847:1899   */\n    tag_517:\n        /* \"#utility.yul\":1918:1947   */\n      tag_518\n        /* \"#utility.yul\":1937:1946   */\n      dup5\n        /* \"#utility.yul\":1918:1947   */\n      tag_502\n      jump\t// in\n    tag_518:\n        /* \"#utility.yul\":1908:1947   */\n      swap3\n      pop\n        /* \"#utility.yul\":1966:2004   */\n      tag_519\n        /* \"#utility.yul\":2000:2002   */\n      0x20\n        /* \"#utility.yul\":1989:1998   */\n      dup6\n        /* \"#utility.yul\":1985:2003   */\n      add\n        /* \"#utility.yul\":1966:2004   */\n      tag_502\n      jump\t// in\n    tag_519:\n        /* \"#utility.yul\":1733:2107   */\n      swap3\n      swap6\n        /* \"#utility.yul\":1956:2004   */\n      swap3\n      swap5\n      pop\n      pop\n      pop\n        /* \"#utility.yul\":2073:2075   */\n      0x40\n        /* \"#utility.yul\":2058:2076   */\n      swap2\n      swap1\n      swap2\n      add\n        /* \"#utility.yul\":2045:2077   */\n      calldataload\n      swap1\n        /* \"#utility.yul\":1733:2107   */\n      jump\t// out\n        /* \"#utility.yul\":2301:2487   */\n    tag_89:\n        /* \"#utility.yul\":2360:2366   */\n      0x00\n        /* \"#utility.yul\":2413:2415   */\n      0x20\n        /* \"#utility.yul\":2401:2410   */\n      dup3\n        /* \"#utility.yul\":2392:2399   */\n      dup5\n        /* \"#utility.yul\":2388:2411   */\n      sub\n        /* \"#utility.yul\":2384:2416   */\n      slt\n        /* \"#utility.yul\":2381:2433   */\n      iszero\n      tag_522\n      jumpi\n        /* \"#utility.yul\":2429:2430   */\n      0x00\n        /* \"#utility.yul\":2426:2427   */\n      0x00\n        /* \"#utility.yul\":2419:2431   */\n      revert\n        /* \"#utility.yul\":2381:2433   */\n    tag_522:\n        /* \"#utility.yul\":2452:2481   */\n      tag_381\n        /* \"#utility.yul\":2471:2480   */\n      dup3\n        /* \"#utility.yul\":2452:2481   */\n      tag_502\n      jump\t// in\n        /* \"#utility.yul\":2492:2887   */\n    tag_99:\n        /* \"#utility.yul\":2557:2563   */\n      0x00\n        /* \"#utility.yul\":2565:2571   */\n      0x00\n        /* \"#utility.yul\":2618:2620   */\n      0x40\n        /* \"#utility.yul\":2606:2615   */\n      dup4\n        /* \"#utility.yul\":2597:2604   */\n      dup6\n        /* \"#utility.yul\":2593:2616   */\n      sub\n        /* \"#utility.yul\":2589:2621   */\n      slt\n        /* \"#utility.yul\":2586:2638   */\n      iszero\n      tag_525\n      jumpi\n        /* \"#utility.yul\":2634:2635   */\n      0x00\n        /* \"#utility.yul\":2631:2632   */\n      0x00\n        /* \"#utility.yul\":2624:2636   */\n      revert\n        /* \"#utility.yul\":2586:2638   */\n    tag_525:\n        /* \"#utility.yul\":2679:2702   */\n      dup3\n      calldataload\n      swap2\n      pop\n        /* \"#utility.yul\":2778:2780   */\n      0x20\n        /* \"#utility.yul\":2763:2781   */\n      dup4\n      add\n        /* \"#utility.yul\":2750:2782   */\n      calldataload\n        /* \"#utility.yul\":2820:2835   */\n      dup1\n      iszero\n        /* \"#utility.yul\":2813:2836   */\n      iszero\n        /* \"#utility.yul\":2801:2837   */\n      dup2\n      eq\n        /* \"#utility.yul\":2791:2855   */\n      tag_526\n      jumpi\n        /* \"#utility.yul\":2851:2852   */\n      0x00\n        /* \"#utility.yul\":2848:2849   */\n      0x00\n        /* \"#utility.yul\":2841:2853   */\n      revert\n        /* \"#utility.yul\":2791:2855   */\n    tag_526:\n        /* \"#utility.yul\":2874:2881   */\n      dup1\n        /* \"#utility.yul\":2864:2881   */\n      swap2\n      pop\n      pop\n        /* \"#utility.yul\":2492:2887   */\n      swap3\n      pop\n      swap3\n      swap1\n      pop\n      jump\t// out\n        /* \"#utility.yul\":2892:3152   */\n    tag_177:\n        /* \"#utility.yul\":2960:2966   */\n      0x00\n        /* \"#utility.yul\":2968:2974   */\n      0x00\n        /* \"#utility.yul\":3021:3023   */\n      0x40\n        /* \"#utility.yul\":3009:3018   */\n      dup4\n        /* \"#utility.yul\":3000:3007   */\n      dup6\n        /* \"#utility.yul\":2996:3019   */\n      sub\n        /* \"#utility.yul\":2992:3024   */\n      slt\n        /* \"#utility.yul\":2989:3041   */\n      iszero\n      tag_528\n      jumpi\n        /* \"#utility.yul\":3037:3038   */\n      0x00\n        /* \"#utility.yul\":3034:3035   */\n      0x00\n        /* \"#utility.yul\":3027:3039   */\n      revert\n        /* \"#utility.yul\":2989:3041   */\n    tag_528:\n        /* \"#utility.yul\":3060:3089   */\n      tag_529\n        /* \"#utility.yul\":3079:3088   */\n      dup4\n        /* \"#utility.yul\":3060:3089   */\n      tag_502\n      jump\t// in\n    tag_529:\n        /* \"#utility.yul\":3050:3089   */\n      swap2\n      pop\n        /* \"#utility.yul\":3108:3146   */\n      tag_530\n        /* \"#utility.yul\":3142:3144   */\n      0x20\n        /* \"#utility.yul\":3131:3140   */\n      dup5\n        /* \"#utility.yul\":3127:3145   */\n      add\n        /* \"#utility.yul\":3108:3146   */\n      tag_502\n      jump\t// in\n    tag_530:\n        /* \"#utility.yul\":3098:3146   */\n      swap1\n      pop\n        /* \"#utility.yul\":2892:3152   */\n      swap3\n      pop\n      swap3\n      swap1\n      pop\n      jump\t// out\n        /* \"#utility.yul\":3570:3697   */\n    tag_503:\n        /* \"#utility.yul\":3631:3641   */\n      0x4e487b71\n        /* \"#utility.yul\":3626:3629   */\n      0xe0\n        /* \"#utility.yul\":3622:3642   */\n      shl\n        /* \"#utility.yul\":3619:3620   */\n      0x00\n        /* \"#utility.yul\":3612:3643   */\n      mstore\n        /* \"#utility.yul\":3662:3666   */\n      0x11\n        /* \"#utility.yul\":3659:3660   */\n      0x04\n        /* \"#utility.yul\":3652:3667   */\n      mstore\n        /* \"#utility.yul\":3686:3690   */\n      0x24\n        /* \"#utility.yul\":3683:3684   */\n      0x00\n        /* \"#utility.yul\":3676:3691   */\n      revert\n        /* \"#utility.yul\":3702:3830   */\n    tag_201:\n        /* \"#utility.yul\":3769:3778   */\n      dup2\n      dup2\n      sub\n        /* \"#utility.yul\":3790:3801   */\n      dup2\n      dup2\n      gt\n        /* \"#utility.yul\":3787:3824   */\n      iszero\n      tag_212\n      jumpi\n        /* \"#utility.yul\":3804:3822   */\n      tag_212\n      tag_503\n      jump\t// in\n        /* \"#utility.yul\":3835:3960   */\n    tag_204:\n        /* \"#utility.yul\":3900:3909   */\n      dup1\n      dup3\n      add\n        /* \"#utility.yul\":3921:3931   */\n      dup1\n      dup3\n      gt\n        /* \"#utility.yul\":3918:3954   */\n      iszero\n      tag_212\n      jumpi\n        /* \"#utility.yul\":3934:3952   */\n      tag_212\n      tag_503\n      jump\t// in\n        /* \"#utility.yul\":3965:4345   */\n    tag_207:\n        /* \"#utility.yul\":4044:4045   */\n      0x01\n        /* \"#utility.yul\":4040:4052   */\n      dup2\n      dup2\n      shr\n      swap1\n        /* \"#utility.yul\":4087:4099   */\n      dup3\n      and\n      dup1\n        /* \"#utility.yul\":4108:4169   */\n      tag_540\n      jumpi\n        /* \"#utility.yul\":4162:4166   */\n      0x7f\n        /* \"#utility.yul\":4154:4160   */\n      dup3\n        /* \"#utility.yul\":4150:4167   */\n      and\n        /* \"#utility.yul\":4140:4167   */\n      swap2\n      pop\n        /* \"#utility.yul\":4108:4169   */\n    tag_540:\n        /* \"#utility.yul\":4215:4217   */\n      0x20\n        /* \"#utility.yul\":4207:4213   */\n      dup3\n        /* \"#utility.yul\":4204:4218   */\n      lt\n        /* \"#utility.yul\":4184:4202   */\n      dup2\n        /* \"#utility.yul\":4181:4219   */\n      sub\n        /* \"#utility.yul\":4178:4339   */\n      tag_541\n      jumpi\n        /* \"#utility.yul\":4261:4271   */\n      0x4e487b71\n        /* \"#utility.yul\":4256:4259   */\n      0xe0\n        /* \"#utility.yul\":4252:4272   */\n      shl\n        /* \"#utility.yul\":4249:4250   */\n      0x00\n        /* \"#utility.yul\":4242:4273   */\n      mstore\n        /* \"#utility.yul\":4296:4300   */\n      0x22\n        /* \"#utility.yul\":4293:4294   */\n      0x04\n        /* \"#utility.yul\":4286:4301   */\n      mstore\n        /* \"#utility.yul\":4324:4328   */\n      0x24\n        /* \"#utility.yul\":4321:4322   */\n      0x00\n        /* \"#utility.yul\":4314:4329   */\n      revert\n        /* \"#utility.yul\":4178:4339   */\n    tag_541:\n      pop\n        /* \"#utility.yul\":3965:4345   */\n      swap2\n      swap1\n      pop\n      jump\t// out\n        /* \"#utility.yul\":5066:5468   */\n    tag_257:\n        /* \"#utility.yul\":5268:5270   */\n      0x20\n        /* \"#utility.yul\":5250:5271   */\n      dup1\n      dup3\n      mstore\n        /* \"#utility.yul\":5307:5309   */\n      0x26\n        /* \"#utility.yul\":5287:5305   */\n      swap1\n      dup3\n      add\n        /* \"#utility.yul\":5280:5310   */\n      mstore\n        /* \"#utility.yul\":5346:5380   */\n      0x7a65726f20616464726573732063616e206e6f74206265207468652046656541\n        /* \"#utility.yul\":5341:5343   */\n      0x40\n        /* \"#utility.yul\":5326:5344   */\n      dup3\n      add\n        /* \"#utility.yul\":5319:5381   */\n      mstore\n      shl(0xd2, 0x18d8dbdd5b9d)\n        /* \"#utility.yul\":5412:5414   */\n      0x60\n        /* \"#utility.yul\":5397:5415   */\n      dup3\n      add\n        /* \"#utility.yul\":5390:5426   */\n      mstore\n        /* \"#utility.yul\":5458:5461   */\n      0x80\n        /* \"#utility.yul\":5443:5462   */\n      add\n      swap1\n        /* \"#utility.yul\":5066:5468   */\n      jump\t// out\n        /* \"#utility.yul\":6188:6315   */\n    tag_309:\n        /* \"#utility.yul\":6249:6259   */\n      0x4e487b71\n        /* \"#utility.yul\":6244:6247   */\n      0xe0\n        /* \"#utility.yul\":6240:6260   */\n      shl\n        /* \"#utility.yul\":6237:6238   */\n      0x00\n        /* \"#utility.yul\":6230:6261   */\n      mstore\n        /* \"#utility.yul\":6280:6284   */\n      0x32\n        /* \"#utility.yul\":6277:6278   */\n      0x04\n        /* \"#utility.yul\":6270:6285   */\n      mstore\n        /* \"#utility.yul\":6304:6308   */\n      0x24\n        /* \"#utility.yul\":6301:6302   */\n      0x00\n        /* \"#utility.yul\":6294:6309   */\n      revert\n        /* \"#utility.yul\":6320:6447   */\n    tag_321:\n        /* \"#utility.yul\":6381:6391   */\n      0x4e487b71\n        /* \"#utility.yul\":6376:6379   */\n      0xe0\n        /* \"#utility.yul\":6372:6392   */\n      shl\n        /* \"#utility.yul\":6369:6370   */\n      0x00\n        /* \"#utility.yul\":6362:6393   */\n      mstore\n        /* \"#utility.yul\":6412:6416   */\n      0x31\n        /* \"#utility.yul\":6409:6410   */\n      0x04\n        /* \"#utility.yul\":6402:6417   */\n      mstore\n        /* \"#utility.yul\":6436:6440   */\n      0x24\n        /* \"#utility.yul\":6433:6434   */\n      0x00\n        /* \"#utility.yul\":6426:6441   */\n      revert\n        /* \"#utility.yul\":6452:6620   */\n    tag_331:\n        /* \"#utility.yul\":6525:6534   */\n      dup1\n      dup3\n      mul\n        /* \"#utility.yul\":6556:6565   */\n      dup2\n      iszero\n        /* \"#utility.yul\":6573:6588   */\n      dup3\n      dup3\n      div\n        /* \"#utility.yul\":6567:6589   */\n      dup5\n      eq\n        /* \"#utility.yul\":6553:6590   */\n      or\n        /* \"#utility.yul\":6543:6614   */\n      tag_212\n      jumpi\n        /* \"#utility.yul\":6594:6612   */\n      tag_212\n      tag_503\n      jump\t// in\n        /* \"#utility.yul\":9703:9920   */\n    tag_382:\n        /* \"#utility.yul\":9743:9744   */\n      0x00\n        /* \"#utility.yul\":9769:9770   */\n      dup3\n        /* \"#utility.yul\":9759:9891   */\n      tag_561\n      jumpi\n        /* \"#utility.yul\":9813:9823   */\n      0x4e487b71\n        /* \"#utility.yul\":9808:9811   */\n      0xe0\n        /* \"#utility.yul\":9804:9824   */\n      shl\n        /* \"#utility.yul\":9801:9802   */\n      0x00\n        /* \"#utility.yul\":9794:9825   */\n      mstore\n        /* \"#utility.yul\":9848:9852   */\n      0x12\n        /* \"#utility.yul\":9845:9846   */\n      0x04\n        /* \"#utility.yul\":9838:9853   */\n      mstore\n        /* \"#utility.yul\":9876:9880   */\n      0x24\n        /* \"#utility.yul\":9873:9874   */\n      0x00\n        /* \"#utility.yul\":9866:9881   */\n      revert\n        /* \"#utility.yul\":9759:9891   */\n    tag_561:\n      pop\n        /* \"#utility.yul\":9905:9914   */\n      div\n      swap1\n        /* \"#utility.yul\":9703:9920   */\n      jump\t// out\n\n    auxdata: 0xa26469706673582212207bb390c0fe449a171cfc6aba242f295677db9e2a72560f4731b0f5aebd363d1064736f6c634300081d0033\n}\n",
				"bytecode": {
					"linkReferences": {},
					"object": "6080604052600b80546101003302610100600160a81b0319821681179092555f600e556100359160ff908116911617600a610455565b6100429062989680610467565b6016556018805460ff1916905534801561005a575f5ffd5b506040518060400160405280600d81526020016c21aca122a921a0aa29a1a7a4a760991b81525060405180604001604052806005815260200164435942434360d81b81525081600390816100ae9190610516565b5060046100bb8282610516565b5050600b805460ff191660129081179091556100d99150600a610455565b6100e790633b9aca00610467565b600c8190556100f7905f196105d0565b610102905f196105ef565b600d9081556002600f81905560108190556011819055601255600b8054601380546001600160a01b0319166001600160a01b0361010093849004811691821783555f918252600760209081526040808420805460ff19908116600190811790925586548516865282862080548216831790556014805486168752838720805483168417905530875283872080548316841790558954899004861687526008855283872080548316841790559654851686528286208054821683179055955484168552818520805490961617909455955494549390930490921682526005909352919091208190556101f49033906101f9565b610615565b6001600160a01b0382166102275760405163ec442f0560e01b81525f60048201526024015b60405180910390fd5b6102325f8383610236565b5050565b6001600160a01b038316610260578060025f8282546102559190610602565b909155506102d09050565b6001600160a01b0383165f90815260208190526040902054818110156102b25760405163391434e360e21b81526001600160a01b0385166004820152602481018290526044810183905260640161021e565b6001600160a01b0384165f9081526020819052604090209082900390555b6001600160a01b0382166102ec5760028054829003905561030a565b6001600160a01b0382165f9081526020819052604090208054820190555b816001600160a01b0316836001600160a01b03167fddf252ad1be2c89b69c2b068fc378daa952ba7f163c4a11628f55a4df523b3ef8360405161034f91815260200190565b60405180910390a3505050565b634e487b7160e01b5f52601160045260245ffd5b6001815b60018411156103ab5780850481111561038f5761038f61035c565b600184161561039d57908102905b60019390931c928002610374565b935093915050565b5f826103c15750600161044f565b816103cd57505f61044f565b81600181146103e357600281146103ed57610409565b600191505061044f565b60ff8411156103fe576103fe61035c565b50506001821b61044f565b5060208310610133831016604e8410600b841016171561042c575081810a61044f565b6104385f198484610370565b805f190482111561044b5761044b61035c565b0290505b92915050565b5f61046083836103b3565b9392505050565b808202811582820484141761044f5761044f61035c565b634e487b7160e01b5f52604160045260245ffd5b600181811c908216806104a657607f821691505b6020821081036104c457634e487b7160e01b5f52602260045260245ffd5b50919050565b601f82111561051157805f5260205f20601f840160051c810160208510156104ef5750805b601f840160051c820191505b8181101561050e575f81556001016104fb565b50505b505050565b81516001600160401b0381111561052f5761052f61047e565b6105438161053d8454610492565b846104ca565b6020601f821160018114610575575f831561055e5750848201515b5f19600385901b1c1916600184901b17845561050e565b5f84815260208120601f198516915b828110156105a45787850151825560209485019460019092019101610584565b50848210156105c157868401515f19600387901b60f8161c191681555b50505050600190811b01905550565b5f826105ea57634e487b7160e01b5f52601260045260245ffd5b500690565b8181038181111561044f5761044f61035c565b8082018082111561044f5761044f61035c565b611d03806106225f395ff3fe6080604052600436106101de575f3560e01c8063838fcc90116100fd578063c486377011610092578063dd62ed3e11610062578063dd62ed3e1461059f578063f66608fe146105e3578063fdeb889f146105f7578063ffb54a9914610616575f5ffd5b8063c486377014610520578063c9567bf91461053f578063cba0e99614610553578063d00efb2f1461058a575f5ffd5b806395d89b41116100cd57806395d89b41146104af578063a8b08982146104c3578063a9059cbb146104e2578063c30796ab14610501575f5ffd5b8063838fcc901461043d57806383ad79941461045a5780638873b15f1461046e5780638da5cb5b1461048d575f5ffd5b80633af32abf116101735780635fae0576116101435780635fae0576146103a95780636049876e146103e0578063706407fd146103ff57806370a082311461041e575f5ffd5b80633af32abf14610306578063437823ec146103345780634549b039146103535780635342acb414610372575f5ffd5b80631cf8fef5116101ae5780631cf8fef51461028157806323b872dd146102b2578063313ce567146102d157806332035504146102f2575f5ffd5b8063053ab182146101e957806306fdde031461020a578063095ea7b31461023457806318160ddd14610263575f5ffd5b366101e557005b5f5ffd5b3480156101f4575f5ffd5b50610208610203366004611a72565b61062f565b005b348015610215575f5ffd5b5061021e61071a565b60405161022b9190611a89565b60405180910390f35b34801561023f575f5ffd5b5061025361024e366004611ad9565b6107aa565b604051901515815260200161022b565b34801561026e575f5ffd5b50600c545b60405190815260200161022b565b34801561028c575f5ffd5b506014546001600160a01b03165b6040516001600160a01b03909116815260200161022b565b3480156102bd575f5ffd5b506102536102cc366004611b01565b6107c3565b3480156102dc575f5ffd5b50600b5460405160ff909116815260200161022b565b3480156102fd575f5ffd5b50600e54610273565b348015610311575f5ffd5b50610253610320366004611b3b565b60086020525f908152604090205460ff1681565b34801561033f575f5ffd5b5061020861034e366004611b3b565b6107e6565b34801561035e575f5ffd5b5061027361036d366004611b54565b61082d565b34801561037d575f5ffd5b5061025361038c366004611b3b565b6001600160a01b03165f9081526007602052604090205460ff1690565b3480156103b4575f5ffd5b506102536103c3366004611b3b565b6001600160a01b03165f9081526008602052604090205460ff1690565b3480156103eb575f5ffd5b506102086103fa366004611b3b565b6108b3565b34801561040a575f5ffd5b50610208610419366004611b3b565b6109f8565b348015610429575f5ffd5b50610273610438366004611b3b565b610a5f565b348015610448575f5ffd5b506013546001600160a01b031661029a565b348015610465575f5ffd5b50600f54610273565b348015610479575f5ffd5b50610208610488366004611b3b565b610abb565b348015610498575f5ffd5b50600b5461010090046001600160a01b031661029a565b3480156104ba575f5ffd5b5061021e610afc565b3480156104ce575f5ffd5b5060155461029a906001600160a01b031681565b3480156104ed575f5ffd5b506102536104fc366004611ad9565b610b0b565b34801561050c575f5ffd5b5061020861051b366004611b3b565b610b18565b34801561052b575f5ffd5b5061020861053a366004611b3b565b610bc6565b34801561054a575f5ffd5b50610208610c2d565b34801561055e575f5ffd5b5061025361056d366004611b3b565b6001600160a01b03165f9081526009602052604090205460ff1690565b348015610595575f5ffd5b5061027360175481565b3480156105aa575f5ffd5b506102736105b9366004611b86565b6001600160a01b039182165f90815260016020908152604080832093909416825291909152205490565b3480156105ee575f5ffd5b50601154610273565b348015610602575f5ffd5b50610208610611366004611b3b565b610c62565b348015610621575f5ffd5b506018546102539060ff1681565b335f8181526009602052604090205460ff16156106a85760405162461bcd60e51b815260206004820152602c60248201527f4578636c75646564206164647265737365732063616e6e6f742063616c6c207460448201526b3434b990333ab731ba34b7b760a11b60648201526084015b60405180910390fd5b5f6106b283610dfe565b5050506001600160a01b0383165f908152600560205260409020549091506106db908290611bcb565b6001600160a01b0383165f90815260056020526040902055600d54610701908290611bcb565b600d55600e54610712908490611bde565b600e55505050565b60606003805461072990611bf1565b80601f016020809104026020016040519081016040528092919081815260200182805461075590611bf1565b80156107a05780601f10610777576101008083540402835291602001916107a0565b820191905f5260205f20905b81548152906001019060200180831161078357829003601f168201915b5050505050905090565b5f336107b7818585610e4f565b60019150505b92915050565b5f336107d0858285610e61565b6107db858585610edd565b506001949350505050565b600b54339061010090046001600160a01b03166001600160a01b03160361082a576001600160a01b0381165f908152600760205260409020805460ff191660011790555b50565b5f600c548311156108805760405162461bcd60e51b815260206004820152601f60248201527f416d6f756e74206d757374206265206c657373207468616e20737570706c7900604482015260640161069f565b8161089c575f61088f84610dfe565b509193506107bd92505050565b5f6108a684610dfe565b509093506107bd92505050565b600b54339061010090046001600160a01b03166001600160a01b03160361082a576001600160a01b0381165f9081526009602052604090205460ff161561093c5760405162461bcd60e51b815260206004820152601b60248201527f4163636f756e7420697320616c7265616479206578636c756465640000000000604482015260640161069f565b6001600160a01b0381165f9081526005602052604090205415610993576001600160a01b0381165f9081526005602052604090205461097a906111ce565b6001600160a01b0382165f908152600660205260409020555b6001600160a01b03165f818152600960205260408120805460ff19166001908117909155600a805491820181559091527fc65a7bb8d6351c1cf70c95a316cc6a92839c986682d98bc35f958f4883f9d2a80180546001600160a01b0319169091179055565b600b54339061010090046001600160a01b03166001600160a01b03160361082a576001600160a01b038116610a3f5760405162461bcd60e51b815260040161069f90611c29565b601480546001600160a01b0383166001600160a01b031990911617905550565b6001600160a01b0381165f9081526009602052604081205460ff1615610a9a57506001600160a01b03165f9081526006602052604090205490565b6001600160a01b0382165f908152600560205260409020546107bd906111ce565b600b54339061010090046001600160a01b03166001600160a01b03160361082a57601580546001600160a01b0383166001600160a01b031990911617905550565b60606004805461072990611bf1565b5f336107b7818585610edd565b600b54339061010090046001600160a01b03166001600160a01b03160361082a576001600160a01b0381165f9081526008602052604090205460ff1615610ba15760405162461bcd60e51b815260206004820152601e60248201527f4164647265737320697320616c72656164792077686974656c69737465640000604482015260640161069f565b6001600160a01b0381165f908152600860205260409020805460ff1916600117905550565b600b54339061010090046001600160a01b03166001600160a01b03160361082a576001600160a01b038116610c0d5760405162461bcd60e51b815260040161069f90611c29565b601380546001600160a01b0383166001600160a01b031990911617905550565b600b54339061010090046001600160a01b03166001600160a01b031603610c60576018805460ff19166001179055436017555b565b600b54339061010090046001600160a01b03166001600160a01b03160361082a576001600160a01b0381165f9081526009602052604090205460ff16610cea5760405162461bcd60e51b815260206004820152601b60248201527f4163636f756e7420697320616c726561647920696e636c756465640000000000604482015260640161069f565b5f5b600a54811015610dfa57816001600160a01b0316600a8281548110610d1357610d13611c6f565b5f918252602090912001546001600160a01b031603610df257600a8054610d3c90600190611bcb565b81548110610d4c57610d4c611c6f565b5f91825260209091200154600a80546001600160a01b039092169183908110610d7757610d77611c6f565b5f91825260208083209190910180546001600160a01b0319166001600160a01b039485161790559184168152600682526040808220829055600990925220805460ff19169055600a805480610dce57610dce611c83565b5f8281526020902081015f1990810180546001600160a01b03191690550190555050565b600101610cec565b5050565b5f5f5f5f5f610e0c86611250565b90505f610e198288611bcb565b90505f610e24611283565b90505f610e318284611c97565b90505f610e3e838b611c97565b9a9199509297509095509350505050565b610e5c83838360016112a4565b505050565b6001600160a01b038381165f908152600160209081526040808320938616835292905220545f19811015610ed75781811015610ec957604051637dc7a0d960e11b81526001600160a01b0384166004820152602481018290526044810183905260640161069f565b610ed784848484035f6112a4565b50505050565b6018548390839060ff16610f57576001600160a01b0381165f9081526008602052604090205460ff16610f525760405162461bcd60e51b815260206004820152601760248201527f54726164696e67206e6f742079657420656e61626c6564000000000000000000604482015260640161069f565b610fdd565b601754610f65906003611bde565b4311610fdd576001600160a01b0381165f9081526008602052604090205460ff16610fdd5760405162461bcd60e51b815260206004820152602260248201527f4c61756e63682070726f74656374696f6e3a206e6f742077686974656c697374604482015261195960f21b606482015260840161069f565b6001600160a01b0385166110415760405162461bcd60e51b815260206004820152602560248201527f45524332303a207472616e736665722066726f6d20746865207a65726f206164604482015264647265737360d81b606482015260840161069f565b6001600160a01b0384166110a35760405162461bcd60e51b815260206004820152602360248201527f45524332303a207472616e7366657220746f20746865207a65726f206164647260448201526265737360e81b606482015260840161069f565b5f6110ad86610a5f565b90508381101561110e5760405162461bcd60e51b815260206004820152602660248201527f45524332303a207472616e7366657220616d6f756e7420657863656564732062604482015265616c616e636560d01b606482015260840161069f565b6001600160a01b0385165f9081526007602052604090205460ff16611185576016548461113a87610a5f565b6111449190611bde565b11156111855760405162461bcd60e51b815260206004820152601060248201526f5768616c65206465746563746564212160801b604482015260640161069f565b6015545f906001600160a01b03888116911614806111b057506015546001600160a01b038781169116145b156111b9575060015b6111c587878784611376565b50505050505050565b5f600d548211156112345760405162461bcd60e51b815260206004820152602a60248201527f416d6f756e74206d757374206265206c657373207468616e20746f74616c207260448201526965666c656374696f6e7360b01b606482015260840161069f565b5f61123d611283565b90506112498184611cae565b9392505050565b5f5f601154600f546112629190611bde565b90505f60646112718386611c97565b61127b9190611cae565b949350505050565b5f5f5f61128e6114e5565b909250905061129d8183611cae565b9250505090565b6001600160a01b0384166112cd5760405163e602df0560e01b81525f600482015260240161069f565b6001600160a01b0383166112f657604051634a1406b160e11b81525f600482015260240161069f565b6001600160a01b038085165f9081526001602090815260408083209387168352929052208290558015610ed757826001600160a01b0316846001600160a01b03167f8c5be1e5ebec7d5bd14f71427d1e84f3dd0314c0f7b2291e5b200ac8c7c3b9258460405161136891815260200190565b60405180910390a350505050565b8061138357611383611655565b6001600160a01b0384165f9081526009602052604090205460ff1680156113c257506001600160a01b0383165f9081526009602052604090205460ff16155b156113d7576113d2848484611682565b6114cf565b6001600160a01b0384165f9081526009602052604090205460ff1615801561141657506001600160a01b0383165f9081526009602052604090205460ff165b15611426576113d284848461179d565b6001600160a01b0384165f9081526009602052604090205460ff1615801561146657506001600160a01b0383165f9081526009602052604090205460ff16155b15611476576113d284848461183c565b6001600160a01b0384165f9081526009602052604090205460ff1680156114b457506001600160a01b0383165f9081526009602052604090205460ff165b156114c4576113d2848484611876565b6114cf84848461183c565b80610ed757610ed7601054600f55601254601155565b600d54600c545f918291825b600a54811015611624578260055f600a848154811061151257611512611c6f565b5f9182526020808320909101546001600160a01b03168352820192909252604001902054118061157a57508160065f600a848154811061155457611554611c6f565b5f9182526020808320909101546001600160a01b03168352820192909252604001902054115b1561159057600d54600c54945094505050509091565b60055f600a83815481106115a6576115a6611c6f565b5f9182526020808320909101546001600160a01b031683528201929092526040019020546115d49084611bcb565b925060065f600a83815481106115ec576115ec611c6f565b5f9182526020808320909101546001600160a01b0316835282019290925260400190205461161a9083611bcb565b91506001016114f1565b50600c54600d546116359190611cae565b82101561164c57600d54600c549350935050509091565b90939092509050565b600f541580156116655750601154155b1561166c57565b600f8054601055601180546012555f9182905555565b5f5f5f5f61168f85610dfe565b6001600160a01b038b165f90815260066020526040902054939750919550935091506116bc908690611bcb565b6001600160a01b0388165f908152600660209081526040808320939093556005905220546116eb908590611bcb565b6001600160a01b038089165f90815260056020526040808220939093559088168152205461171a908490611bde565b6001600160a01b0387165f9081526005602052604090205561173d8786836118df565b6117478582611a20565b856001600160a01b0316876001600160a01b03167fddf252ad1be2c89b69c2b068fc378daa952ba7f163c4a11628f55a4df523b3ef8460405161178c91815260200190565b60405180910390a350505050505050565b5f5f5f5f6117aa85610dfe565b6001600160a01b038b165f90815260056020526040902054939750919550935091506117d7908590611bcb565b6001600160a01b038089165f9081526005602090815260408083209490945591891681526006909152205461180d908390611bde565b6001600160a01b0387165f9081526006602090815260408083209390935560059052205461171a908490611bde565b5f5f5f5f61184985610dfe565b6001600160a01b038b165f90815260056020526040902054939750919550935091506116eb908590611bcb565b5f5f5f5f61188385610dfe565b6001600160a01b038b165f90815260066020526040902054939750919550935091506118b0908690611bcb565b6001600160a01b0388165f908152600660209081526040808320939093556005905220546117d7908590611bcb565b5f6064601154846118f09190611c97565b6118fa9190611cae565b90508015610ed7575f600261190f8484611c97565b6119199190611cae565b6013546001600160a01b03165f90815260056020526040902054909150611941908290611bde565b6013546001600160a01b039081165f908152600560205260408082209390935560145490911681522054611976908290611bde565b6014546001600160a01b039081165f9081526005602090815260409182902093909355601354905185815290821692918816917fddf252ad1be2c89b69c2b068fc378daa952ba7f163c4a11628f55a4df523b3ef910160405180910390a36014546040518381526001600160a01b03918216918716907fddf252ad1be2c89b69c2b068fc378daa952ba7f163c4a11628f55a4df523b3ef9060200160405180910390a35050505050565b5f6064600f5484611a319190611c97565b611a3b9190611cae565b90505f611a488383611c97565b905080600d54611a589190611bcb565b600d55600e54611a69908390611bde565b600e5550505050565b5f60208284031215611a82575f5ffd5b5035919050565b602081525f82518060208401528060208501604085015e5f604082850101526040601f19601f83011684010191505092915050565b80356001600160a01b0381168114611ad4575f5ffd5b919050565b5f5f60408385031215611aea575f5ffd5b611af383611abe565b946020939093013593505050565b5f5f5f60608486031215611b13575f5ffd5b611b1c84611abe565b9250611b2a60208501611abe565b929592945050506040919091013590565b5f60208284031215611b4b575f5ffd5b61124982611abe565b5f5f60408385031215611b65575f5ffd5b8235915060208301358015158114611b7b575f5ffd5b809150509250929050565b5f5f60408385031215611b97575f5ffd5b611ba083611abe565b9150611bae60208401611abe565b90509250929050565b634e487b7160e01b5f52601160045260245ffd5b818103818111156107bd576107bd611bb7565b808201808211156107bd576107bd611bb7565b600181811c90821680611c0557607f821691505b602082108103611c2357634e487b7160e01b5f52602260045260245ffd5b50919050565b60208082526026908201527f7a65726f20616464726573732063616e206e6f7420626520746865204665654160408201526518d8dbdd5b9d60d21b606082015260800190565b634e487b7160e01b5f52603260045260245ffd5b634e487b7160e01b5f52603160045260245ffd5b80820281158282048414176107bd576107bd611bb7565b5f82611cc857634e487b7160e01b5f52601260045260245ffd5b50049056fea26469706673582212207bb390c0fe449a171cfc6aba242f295677db9e2a72560f4731b0f5aebd363d1064736f6c634300081d0033",
					"opcodes": "PUSH1 0x80 PUSH1 0x40 MSTORE PUSH1 0xB DUP1 SLOAD PUSH2 0x100 CALLER MUL PUSH2 0x100 PUSH1 0x1 PUSH1 0xA8 SHL SUB NOT DUP3 AND DUP2 OR SWAP1 SWAP3 SSTORE PUSH0 PUSH1 0xE SSTORE PUSH2 0x35 SWAP2 PUSH1 0xFF SWAP1 DUP2 AND SWAP2 AND OR PUSH1 0xA PUSH2 0x455 JUMP JUMPDEST PUSH2 0x42 SWAP1 PUSH3 0x989680 PUSH2 0x467 JUMP JUMPDEST PUSH1 0x16 SSTORE PUSH1 0x18 DUP1 SLOAD PUSH1 0xFF NOT AND SWAP1 SSTORE CALLVALUE DUP1 ISZERO PUSH2 0x5A JUMPI PUSH0 PUSH0 REVERT JUMPDEST POP PUSH1 0x40 MLOAD DUP1 PUSH1 0x40 ADD PUSH1 0x40 MSTORE DUP1 PUSH1 0xD DUP2 MSTORE PUSH1 0x20 ADD PUSH13 0x21ACA122A921A0AA29A1A7A4A7 PUSH1 0x99 SHL DUP2 MSTORE POP PUSH1 0x40 MLOAD DUP1 PUSH1 0x40 ADD PUSH1 0x40 MSTORE DUP1 PUSH1 0x5 DUP2 MSTORE PUSH1 0x20 ADD PUSH5 0x4359424343 PUSH1 0xD8 SHL DUP2 MSTORE POP DUP2 PUSH1 0x3 SWAP1 DUP2 PUSH2 0xAE SWAP2 SWAP1 PUSH2 0x516 JUMP JUMPDEST POP PUSH1 0x4 PUSH2 0xBB DUP3 DUP3 PUSH2 0x516 JUMP JUMPDEST POP POP PUSH1 0xB DUP1 SLOAD PUSH1 0xFF NOT AND PUSH1 0x12 SWAP1 DUP2 OR SWAP1 SWAP2 SSTORE PUSH2 0xD9 SWAP2 POP PUSH1 0xA PUSH2 0x455 JUMP JUMPDEST PUSH2 0xE7 SWAP1 PUSH4 0x3B9ACA00 PUSH2 0x467 JUMP JUMPDEST PUSH1 0xC DUP2 SWAP1 SSTORE PUSH2 0xF7 SWAP1 PUSH0 NOT PUSH2 0x5D0 JUMP JUMPDEST PUSH2 0x102 SWAP1 PUSH0 NOT PUSH2 0x5EF JUMP JUMPDEST PUSH1 0xD SWAP1 DUP2 SSTORE PUSH1 0x2 PUSH1 0xF DUP2 SWAP1 SSTORE PUSH1 0x10 DUP2 SWAP1 SSTORE PUSH1 0x11 DUP2 SWAP1 SSTORE PUSH1 0x12 SSTORE PUSH1 0xB DUP1 SLOAD PUSH1 0x13 DUP1 SLOAD PUSH1 0x1 PUSH1 0x1 PUSH1 0xA0 SHL SUB NOT AND PUSH1 0x1 PUSH1 0x1 PUSH1 0xA0 SHL SUB PUSH2 0x100 SWAP4 DUP5 SWAP1 DIV DUP2 AND SWAP2 DUP3 OR DUP4 SSTORE PUSH0 SWAP2 DUP3 MSTORE PUSH1 0x7 PUSH1 0x20 SWAP1 DUP2 MSTORE PUSH1 0x40 DUP1 DUP5 KECCAK256 DUP1 SLOAD PUSH1 0xFF NOT SWAP1 DUP2 AND PUSH1 0x1 SWAP1 DUP2 OR SWAP1 SWAP3 SSTORE DUP7 SLOAD DUP6 AND DUP7 MSTORE DUP3 DUP7 KECCAK256 DUP1 SLOAD DUP3 AND DUP4 OR SWAP1 SSTORE PUSH1 0x14 DUP1 SLOAD DUP7 AND DUP8 MSTORE DUP4 DUP8 KECCAK256 DUP1 SLOAD DUP4 AND DUP5 OR SWAP1 SSTORE ADDRESS DUP8 MSTORE DUP4 DUP8 KECCAK256 DUP1 SLOAD DUP4 AND DUP5 OR SWAP1 SSTORE DUP10 SLOAD DUP10 SWAP1 DIV DUP7 AND DUP8 MSTORE PUSH1 0x8 DUP6 MSTORE DUP4 DUP8 KECCAK256 DUP1 SLOAD DUP4 AND DUP5 OR SWAP1 SSTORE SWAP7 SLOAD DUP6 AND DUP7 MSTORE DUP3 DUP7 KECCAK256 DUP1 SLOAD DUP3 AND DUP4 OR SWAP1 SSTORE SWAP6 SLOAD DUP5 AND DUP6 MSTORE DUP2 DUP6 KECCAK256 DUP1 SLOAD SWAP1 SWAP7 AND OR SWAP1 SWAP5 SSTORE SWAP6 SLOAD SWAP5 SLOAD SWAP4 SWAP1 SWAP4 DIV SWAP1 SWAP3 AND DUP3 MSTORE PUSH1 0x5 SWAP1 SWAP4 MSTORE SWAP2 SWAP1 SWAP2 KECCAK256 DUP2 SWAP1 SSTORE PUSH2 0x1F4 SWAP1 CALLER SWAP1 PUSH2 0x1F9 JUMP JUMPDEST PUSH2 0x615 JUMP JUMPDEST PUSH1 0x1 PUSH1 0x1 PUSH1 0xA0 SHL SUB DUP3 AND PUSH2 0x227 JUMPI PUSH1 0x40 MLOAD PUSH4 0xEC442F05 PUSH1 0xE0 SHL DUP2 MSTORE PUSH0 PUSH1 0x4 DUP3 ADD MSTORE PUSH1 0x24 ADD JUMPDEST PUSH1 0x40 MLOAD DUP1 SWAP2 SUB SWAP1 REVERT JUMPDEST PUSH2 0x232 PUSH0 DUP4 DUP4 PUSH2 0x236 JUMP JUMPDEST POP POP JUMP JUMPDEST PUSH1 0x1 PUSH1 0x1 PUSH1 0xA0 SHL SUB DUP4 AND PUSH2 0x260 JUMPI DUP1 PUSH1 0x2 PUSH0 DUP3 DUP3 SLOAD PUSH2 0x255 SWAP2 SWAP1 PUSH2 0x602 JUMP JUMPDEST SWAP1 SWAP2 SSTORE POP PUSH2 0x2D0 SWAP1 POP JUMP JUMPDEST PUSH1 0x1 PUSH1 0x1 PUSH1 0xA0 SHL SUB DUP4 AND PUSH0 SWAP1 DUP2 MSTORE PUSH1 0x20 DUP2 SWAP1 MSTORE PUSH1 0x40 SWAP1 KECCAK256 SLOAD DUP2 DUP2 LT ISZERO PUSH2 0x2B2 JUMPI PUSH1 0x40 MLOAD PUSH4 0x391434E3 PUSH1 0xE2 SHL DUP2 MSTORE PUSH1 0x1 PUSH1 0x1 PUSH1 0xA0 SHL SUB DUP6 AND PUSH1 0x4 DUP3 ADD MSTORE PUSH1 0x24 DUP2 ADD DUP3 SWAP1 MSTORE PUSH1 0x44 DUP2 ADD DUP4 SWAP1 MSTORE PUSH1 0x64 ADD PUSH2 0x21E JUMP JUMPDEST PUSH1 0x1 PUSH1 0x1 PUSH1 0xA0 SHL SUB DUP5 AND PUSH0 SWAP1 DUP2 MSTORE PUSH1 0x20 DUP2 SWAP1 MSTORE PUSH1 0x40 SWAP1 KECCAK256 SWAP1 DUP3 SWAP1 SUB SWAP1 SSTORE JUMPDEST PUSH1 0x1 PUSH1 0x1 PUSH1 0xA0 SHL SUB DUP3 AND PUSH2 0x2EC JUMPI PUSH1 0x2 DUP1 SLOAD DUP3 SWAP1 SUB SWAP1 SSTORE PUSH2 0x30A JUMP JUMPDEST PUSH1 0x1 PUSH1 0x1 PUSH1 0xA0 SHL SUB DUP3 AND PUSH0 SWAP1 DUP2 MSTORE PUSH1 0x20 DUP2 SWAP1 MSTORE PUSH1 0x40 SWAP1 KECCAK256 DUP1 SLOAD DUP3 ADD SWAP1 SSTORE JUMPDEST DUP2 PUSH1 0x1 PUSH1 0x1 PUSH1 0xA0 SHL SUB AND DUP4 PUSH1 0x1 PUSH1 0x1 PUSH1 0xA0 SHL SUB AND PUSH32 0xDDF252AD1BE2C89B69C2B068FC378DAA952BA7F163C4A11628F55A4DF523B3EF DUP4 PUSH1 0x40 MLOAD PUSH2 0x34F SWAP2 DUP2 MSTORE PUSH1 0x20 ADD SWAP1 JUMP JUMPDEST PUSH1 0x40 MLOAD DUP1 SWAP2 SUB SWAP1 LOG3 POP POP POP JUMP JUMPDEST PUSH4 0x4E487B71 PUSH1 0xE0 SHL PUSH0 MSTORE PUSH1 0x11 PUSH1 0x4 MSTORE PUSH1 0x24 PUSH0 REVERT JUMPDEST PUSH1 0x1 DUP2 JUMPDEST PUSH1 0x1 DUP5 GT ISZERO PUSH2 0x3AB JUMPI DUP1 DUP6 DIV DUP2 GT ISZERO PUSH2 0x38F JUMPI PUSH2 0x38F PUSH2 0x35C JUMP JUMPDEST PUSH1 0x1 DUP5 AND ISZERO PUSH2 0x39D JUMPI SWAP1 DUP2 MUL SWAP1 JUMPDEST PUSH1 0x1 SWAP4 SWAP1 SWAP4 SHR SWAP3 DUP1 MUL PUSH2 0x374 JUMP JUMPDEST SWAP4 POP SWAP4 SWAP2 POP POP JUMP JUMPDEST PUSH0 DUP3 PUSH2 0x3C1 JUMPI POP PUSH1 0x1 PUSH2 0x44F JUMP JUMPDEST DUP2 PUSH2 0x3CD JUMPI POP PUSH0 PUSH2 0x44F JUMP JUMPDEST DUP2 PUSH1 0x1 DUP2 EQ PUSH2 0x3E3 JUMPI PUSH1 0x2 DUP2 EQ PUSH2 0x3ED JUMPI PUSH2 0x409 JUMP JUMPDEST PUSH1 0x1 SWAP2 POP POP PUSH2 0x44F JUMP JUMPDEST PUSH1 0xFF DUP5 GT ISZERO PUSH2 0x3FE JUMPI PUSH2 0x3FE PUSH2 0x35C JUMP JUMPDEST POP POP PUSH1 0x1 DUP3 SHL PUSH2 0x44F JUMP JUMPDEST POP PUSH1 0x20 DUP4 LT PUSH2 0x133 DUP4 LT AND PUSH1 0x4E DUP5 LT PUSH1 0xB DUP5 LT AND OR ISZERO PUSH2 0x42C JUMPI POP DUP2 DUP2 EXP PUSH2 0x44F JUMP JUMPDEST PUSH2 0x438 PUSH0 NOT DUP5 DUP5 PUSH2 0x370 JUMP JUMPDEST DUP1 PUSH0 NOT DIV DUP3 GT ISZERO PUSH2 0x44B JUMPI PUSH2 0x44B PUSH2 0x35C JUMP JUMPDEST MUL SWAP1 POP JUMPDEST SWAP3 SWAP2 POP POP JUMP JUMPDEST PUSH0 PUSH2 0x460 DUP4 DUP4 PUSH2 0x3B3 JUMP JUMPDEST SWAP4 SWAP3 POP POP POP JUMP JUMPDEST DUP1 DUP3 MUL DUP2 ISZERO DUP3 DUP3 DIV DUP5 EQ OR PUSH2 0x44F JUMPI PUSH2 0x44F PUSH2 0x35C JUMP JUMPDEST PUSH4 0x4E487B71 PUSH1 0xE0 SHL PUSH0 MSTORE PUSH1 0x41 PUSH1 0x4 MSTORE PUSH1 0x24 PUSH0 REVERT JUMPDEST PUSH1 0x1 DUP2 DUP2 SHR SWAP1 DUP3 AND DUP1 PUSH2 0x4A6 JUMPI PUSH1 0x7F DUP3 AND SWAP2 POP JUMPDEST PUSH1 0x20 DUP3 LT DUP2 SUB PUSH2 0x4C4 JUMPI PUSH4 0x4E487B71 PUSH1 0xE0 SHL PUSH0 MSTORE PUSH1 0x22 PUSH1 0x4 MSTORE PUSH1 0x24 PUSH0 REVERT JUMPDEST POP SWAP2 SWAP1 POP JUMP JUMPDEST PUSH1 0x1F DUP3 GT ISZERO PUSH2 0x511 JUMPI DUP1 PUSH0 MSTORE PUSH1 0x20 PUSH0 KECCAK256 PUSH1 0x1F DUP5 ADD PUSH1 0x5 SHR DUP2 ADD PUSH1 0x20 DUP6 LT ISZERO PUSH2 0x4EF JUMPI POP DUP1 JUMPDEST PUSH1 0x1F DUP5 ADD PUSH1 0x5 SHR DUP3 ADD SWAP2 POP JUMPDEST DUP2 DUP2 LT ISZERO PUSH2 0x50E JUMPI PUSH0 DUP2 SSTORE PUSH1 0x1 ADD PUSH2 0x4FB JUMP JUMPDEST POP POP JUMPDEST POP POP POP JUMP JUMPDEST DUP2 MLOAD PUSH1 0x1 PUSH1 0x1 PUSH1 0x40 SHL SUB DUP2 GT ISZERO PUSH2 0x52F JUMPI PUSH2 0x52F PUSH2 0x47E JUMP JUMPDEST PUSH2 0x543 DUP2 PUSH2 0x53D DUP5 SLOAD PUSH2 0x492 JUMP JUMPDEST DUP5 PUSH2 0x4CA JUMP JUMPDEST PUSH1 0x20 PUSH1 0x1F DUP3 GT PUSH1 0x1 DUP2 EQ PUSH2 0x575 JUMPI PUSH0 DUP4 ISZERO PUSH2 0x55E JUMPI POP DUP5 DUP3 ADD MLOAD JUMPDEST PUSH0 NOT PUSH1 0x3 DUP6 SWAP1 SHL SHR NOT AND PUSH1 0x1 DUP5 SWAP1 SHL OR DUP5 SSTORE PUSH2 0x50E JUMP JUMPDEST PUSH0 DUP5 DUP2 MSTORE PUSH1 0x20 DUP2 KECCAK256 PUSH1 0x1F NOT DUP6 AND SWAP2 JUMPDEST DUP3 DUP2 LT ISZERO PUSH2 0x5A4 JUMPI DUP8 DUP6 ADD MLOAD DUP3 SSTORE PUSH1 0x20 SWAP5 DUP6 ADD SWAP5 PUSH1 0x1 SWAP1 SWAP3 ADD SWAP2 ADD PUSH2 0x584 JUMP JUMPDEST POP DUP5 DUP3 LT ISZERO PUSH2 0x5C1 JUMPI DUP7 DUP5 ADD MLOAD PUSH0 NOT PUSH1 0x3 DUP8 SWAP1 SHL PUSH1 0xF8 AND SHR NOT AND DUP2 SSTORE JUMPDEST POP POP POP POP PUSH1 0x1 SWAP1 DUP2 SHL ADD SWAP1 SSTORE POP JUMP JUMPDEST PUSH0 DUP3 PUSH2 0x5EA JUMPI PUSH4 0x4E487B71 PUSH1 0xE0 SHL PUSH0 MSTORE PUSH1 0x12 PUSH1 0x4 MSTORE PUSH1 0x24 PUSH0 REVERT JUMPDEST POP MOD SWAP1 JUMP JUMPDEST DUP2 DUP2 SUB DUP2 DUP2 GT ISZERO PUSH2 0x44F JUMPI PUSH2 0x44F PUSH2 0x35C JUMP JUMPDEST DUP1 DUP3 ADD DUP1 DUP3 GT ISZERO PUSH2 0x44F JUMPI PUSH2 0x44F PUSH2 0x35C JUMP JUMPDEST PUSH2 0x1D03 DUP1 PUSH2 0x622 PUSH0 CODECOPY PUSH0 RETURN INVALID PUSH1 0x80 PUSH1 0x40 MSTORE PUSH1 0x4 CALLDATASIZE LT PUSH2 0x1DE JUMPI PUSH0 CALLDATALOAD PUSH1 0xE0 SHR DUP1 PUSH4 0x838FCC90 GT PUSH2 0xFD JUMPI DUP1 PUSH4 0xC4863770 GT PUSH2 0x92 JUMPI DUP1 PUSH4 0xDD62ED3E GT PUSH2 0x62 JUMPI DUP1 PUSH4 0xDD62ED3E EQ PUSH2 0x59F JUMPI DUP1 PUSH4 0xF66608FE EQ PUSH2 0x5E3 JUMPI DUP1 PUSH4 0xFDEB889F EQ PUSH2 0x5F7 JUMPI DUP1 PUSH4 0xFFB54A99 EQ PUSH2 0x616 JUMPI PUSH0 PUSH0 REVERT JUMPDEST DUP1 PUSH4 0xC4863770 EQ PUSH2 0x520 JUMPI DUP1 PUSH4 0xC9567BF9 EQ PUSH2 0x53F JUMPI DUP1 PUSH4 0xCBA0E996 EQ PUSH2 0x553 JUMPI DUP1 PUSH4 0xD00EFB2F EQ PUSH2 0x58A JUMPI PUSH0 PUSH0 REVERT JUMPDEST DUP1 PUSH4 0x95D89B41 GT PUSH2 0xCD JUMPI DUP1 PUSH4 0x95D89B41 EQ PUSH2 0x4AF JUMPI DUP1 PUSH4 0xA8B08982 EQ PUSH2 0x4C3 JUMPI DUP1 PUSH4 0xA9059CBB EQ PUSH2 0x4E2 JUMPI DUP1 PUSH4 0xC30796AB EQ PUSH2 0x501 JUMPI PUSH0 PUSH0 REVERT JUMPDEST DUP1 PUSH4 0x838FCC90 EQ PUSH2 0x43D JUMPI DUP1 PUSH4 0x83AD7994 EQ PUSH2 0x45A JUMPI DUP1 PUSH4 0x8873B15F EQ PUSH2 0x46E JUMPI DUP1 PUSH4 0x8DA5CB5B EQ PUSH2 0x48D JUMPI PUSH0 PUSH0 REVERT JUMPDEST DUP1 PUSH4 0x3AF32ABF GT PUSH2 0x173 JUMPI DUP1 PUSH4 0x5FAE0576 GT PUSH2 0x143 JUMPI DUP1 PUSH4 0x5FAE0576 EQ PUSH2 0x3A9 JUMPI DUP1 PUSH4 0x6049876E EQ PUSH2 0x3E0 JUMPI DUP1 PUSH4 0x706407FD EQ PUSH2 0x3FF JUMPI DUP1 PUSH4 0x70A08231 EQ PUSH2 0x41E JUMPI PUSH0 PUSH0 REVERT JUMPDEST DUP1 PUSH4 0x3AF32ABF EQ PUSH2 0x306 JUMPI DUP1 PUSH4 0x437823EC EQ PUSH2 0x334 JUMPI DUP1 PUSH4 0x4549B039 EQ PUSH2 0x353 JUMPI DUP1 PUSH4 0x5342ACB4 EQ PUSH2 0x372 JUMPI PUSH0 PUSH0 REVERT JUMPDEST DUP1 PUSH4 0x1CF8FEF5 GT PUSH2 0x1AE JUMPI DUP1 PUSH4 0x1CF8FEF5 EQ PUSH2 0x281 JUMPI DUP1 PUSH4 0x23B872DD EQ PUSH2 0x2B2 JUMPI DUP1 PUSH4 0x313CE567 EQ PUSH2 0x2D1 JUMPI DUP1 PUSH4 0x32035504 EQ PUSH2 0x2F2 JUMPI PUSH0 PUSH0 REVERT JUMPDEST DUP1 PUSH4 0x53AB182 EQ PUSH2 0x1E9 JUMPI DUP1 PUSH4 0x6FDDE03 EQ PUSH2 0x20A JUMPI DUP1 PUSH4 0x95EA7B3 EQ PUSH2 0x234 JUMPI DUP1 PUSH4 0x18160DDD EQ PUSH2 0x263 JUMPI PUSH0 PUSH0 REVERT JUMPDEST CALLDATASIZE PUSH2 0x1E5 JUMPI STOP JUMPDEST PUSH0 PUSH0 REVERT JUMPDEST CALLVALUE DUP1 ISZERO PUSH2 0x1F4 JUMPI PUSH0 PUSH0 REVERT JUMPDEST POP PUSH2 0x208 PUSH2 0x203 CALLDATASIZE PUSH1 0x4 PUSH2 0x1A72 JUMP JUMPDEST PUSH2 0x62F JUMP JUMPDEST STOP JUMPDEST CALLVALUE DUP1 ISZERO PUSH2 0x215 JUMPI PUSH0 PUSH0 REVERT JUMPDEST POP PUSH2 0x21E PUSH2 0x71A JUMP JUMPDEST PUSH1 0x40 MLOAD PUSH2 0x22B SWAP2 SWAP1 PUSH2 0x1A89 JUMP JUMPDEST PUSH1 0x40 MLOAD DUP1 SWAP2 SUB SWAP1 RETURN JUMPDEST CALLVALUE DUP1 ISZERO PUSH2 0x23F JUMPI PUSH0 PUSH0 REVERT JUMPDEST POP PUSH2 0x253 PUSH2 0x24E CALLDATASIZE PUSH1 0x4 PUSH2 0x1AD9 JUMP JUMPDEST PUSH2 0x7AA JUMP JUMPDEST PUSH1 0x40 MLOAD SWAP1 ISZERO ISZERO DUP2 MSTORE PUSH1 0x20 ADD PUSH2 0x22B JUMP JUMPDEST CALLVALUE DUP1 ISZERO PUSH2 0x26E JUMPI PUSH0 PUSH0 REVERT JUMPDEST POP PUSH1 0xC SLOAD JUMPDEST PUSH1 0x40 MLOAD SWAP1 DUP2 MSTORE PUSH1 0x20 ADD PUSH2 0x22B JUMP JUMPDEST CALLVALUE DUP1 ISZERO PUSH2 0x28C JUMPI PUSH0 PUSH0 REVERT JUMPDEST POP PUSH1 0x14 SLOAD PUSH1 0x1 PUSH1 0x1 PUSH1 0xA0 SHL SUB AND JUMPDEST PUSH1 0x40 MLOAD PUSH1 0x1 PUSH1 0x1 PUSH1 0xA0 SHL SUB SWAP1 SWAP2 AND DUP2 MSTORE PUSH1 0x20 ADD PUSH2 0x22B JUMP JUMPDEST CALLVALUE DUP1 ISZERO PUSH2 0x2BD JUMPI PUSH0 PUSH0 REVERT JUMPDEST POP PUSH2 0x253 PUSH2 0x2CC CALLDATASIZE PUSH1 0x4 PUSH2 0x1B01 JUMP JUMPDEST PUSH2 0x7C3 JUMP JUMPDEST CALLVALUE DUP1 ISZERO PUSH2 0x2DC JUMPI PUSH0 PUSH0 REVERT JUMPDEST POP PUSH1 0xB SLOAD PUSH1 0x40 MLOAD PUSH1 0xFF SWAP1 SWAP2 AND DUP2 MSTORE PUSH1 0x20 ADD PUSH2 0x22B JUMP JUMPDEST CALLVALUE DUP1 ISZERO PUSH2 0x2FD JUMPI PUSH0 PUSH0 REVERT JUMPDEST POP PUSH1 0xE SLOAD PUSH2 0x273 JUMP JUMPDEST CALLVALUE DUP1 ISZERO PUSH2 0x311 JUMPI PUSH0 PUSH0 REVERT JUMPDEST POP PUSH2 0x253 PUSH2 0x320 CALLDATASIZE PUSH1 0x4 PUSH2 0x1B3B JUMP JUMPDEST PUSH1 0x8 PUSH1 0x20 MSTORE PUSH0 SWAP1 DUP2 MSTORE PUSH1 0x40 SWAP1 KECCAK256 SLOAD PUSH1 0xFF AND DUP2 JUMP JUMPDEST CALLVALUE DUP1 ISZERO PUSH2 0x33F JUMPI PUSH0 PUSH0 REVERT JUMPDEST POP PUSH2 0x208 PUSH2 0x34E CALLDATASIZE PUSH1 0x4 PUSH2 0x1B3B JUMP JUMPDEST PUSH2 0x7E6 JUMP JUMPDEST CALLVALUE DUP1 ISZERO PUSH2 0x35E JUMPI PUSH0 PUSH0 REVERT JUMPDEST POP PUSH2 0x273 PUSH2 0x36D CALLDATASIZE PUSH1 0x4 PUSH2 0x1B54 JUMP JUMPDEST PUSH2 0x82D JUMP JUMPDEST CALLVALUE DUP1 ISZERO PUSH2 0x37D JUMPI PUSH0 PUSH0 REVERT JUMPDEST POP PUSH2 0x253 PUSH2 0x38C CALLDATASIZE PUSH1 0x4 PUSH2 0x1B3B JUMP JUMPDEST PUSH1 0x1 PUSH1 0x1 PUSH1 0xA0 SHL SUB AND PUSH0 SWAP1 DUP2 MSTORE PUSH1 0x7 PUSH1 0x20 MSTORE PUSH1 0x40 SWAP1 KECCAK256 SLOAD PUSH1 0xFF AND SWAP1 JUMP JUMPDEST CALLVALUE DUP1 ISZERO PUSH2 0x3B4 JUMPI PUSH0 PUSH0 REVERT JUMPDEST POP PUSH2 0x253 PUSH2 0x3C3 CALLDATASIZE PUSH1 0x4 PUSH2 0x1B3B JUMP JUMPDEST PUSH1 0x1 PUSH1 0x1 PUSH1 0xA0 SHL SUB AND PUSH0 SWAP1 DUP2 MSTORE PUSH1 0x8 PUSH1 0x20 MSTORE PUSH1 0x40 SWAP1 KECCAK256 SLOAD PUSH1 0xFF AND SWAP1 JUMP JUMPDEST CALLVALUE DUP1 ISZERO PUSH2 0x3EB JUMPI PUSH0 PUSH0 REVERT JUMPDEST POP PUSH2 0x208 PUSH2 0x3FA CALLDATASIZE PUSH1 0x4 PUSH2 0x1B3B JUMP JUMPDEST PUSH2 0x8B3 JUMP JUMPDEST CALLVALUE DUP1 ISZERO PUSH2 0x40A JUMPI PUSH0 PUSH0 REVERT JUMPDEST POP PUSH2 0x208 PUSH2 0x419 CALLDATASIZE PUSH1 0x4 PUSH2 0x1B3B JUMP JUMPDEST PUSH2 0x9F8 JUMP JUMPDEST CALLVALUE DUP1 ISZERO PUSH2 0x429 JUMPI PUSH0 PUSH0 REVERT JUMPDEST POP PUSH2 0x273 PUSH2 0x438 CALLDATASIZE PUSH1 0x4 PUSH2 0x1B3B JUMP JUMPDEST PUSH2 0xA5F JUMP JUMPDEST CALLVALUE DUP1 ISZERO PUSH2 0x448 JUMPI PUSH0 PUSH0 REVERT JUMPDEST POP PUSH1 0x13 SLOAD PUSH1 0x1 PUSH1 0x1 PUSH1 0xA0 SHL SUB AND PUSH2 0x29A JUMP JUMPDEST CALLVALUE DUP1 ISZERO PUSH2 0x465 JUMPI PUSH0 PUSH0 REVERT JUMPDEST POP PUSH1 0xF SLOAD PUSH2 0x273 JUMP JUMPDEST CALLVALUE DUP1 ISZERO PUSH2 0x479 JUMPI PUSH0 PUSH0 REVERT JUMPDEST POP PUSH2 0x208 PUSH2 0x488 CALLDATASIZE PUSH1 0x4 PUSH2 0x1B3B JUMP JUMPDEST PUSH2 0xABB JUMP JUMPDEST CALLVALUE DUP1 ISZERO PUSH2 0x498 JUMPI PUSH0 PUSH0 REVERT JUMPDEST POP PUSH1 0xB SLOAD PUSH2 0x100 SWAP1 DIV PUSH1 0x1 PUSH1 0x1 PUSH1 0xA0 SHL SUB AND PUSH2 0x29A JUMP JUMPDEST CALLVALUE DUP1 ISZERO PUSH2 0x4BA JUMPI PUSH0 PUSH0 REVERT JUMPDEST POP PUSH2 0x21E PUSH2 0xAFC JUMP JUMPDEST CALLVALUE DUP1 ISZERO PUSH2 0x4CE JUMPI PUSH0 PUSH0 REVERT JUMPDEST POP PUSH1 0x15 SLOAD PUSH2 0x29A SWAP1 PUSH1 0x1 PUSH1 0x1 PUSH1 0xA0 SHL SUB AND DUP2 JUMP JUMPDEST CALLVALUE DUP1 ISZERO PUSH2 0x4ED JUMPI PUSH0 PUSH0 REVERT JUMPDEST POP PUSH2 0x253 PUSH2 0x4FC CALLDATASIZE PUSH1 0x4 PUSH2 0x1AD9 JUMP JUMPDEST PUSH2 0xB0B JUMP JUMPDEST CALLVALUE DUP1 ISZERO PUSH2 0x50C JUMPI PUSH0 PUSH0 REVERT JUMPDEST POP PUSH2 0x208 PUSH2 0x51B CALLDATASIZE PUSH1 0x4 PUSH2 0x1B3B JUMP JUMPDEST PUSH2 0xB18 JUMP JUMPDEST CALLVALUE DUP1 ISZERO PUSH2 0x52B JUMPI PUSH0 PUSH0 REVERT JUMPDEST POP PUSH2 0x208 PUSH2 0x53A CALLDATASIZE PUSH1 0x4 PUSH2 0x1B3B JUMP JUMPDEST PUSH2 0xBC6 JUMP JUMPDEST CALLVALUE DUP1 ISZERO PUSH2 0x54A JUMPI PUSH0 PUSH0 REVERT JUMPDEST POP PUSH2 0x208 PUSH2 0xC2D JUMP JUMPDEST CALLVALUE DUP1 ISZERO PUSH2 0x55E JUMPI PUSH0 PUSH0 REVERT JUMPDEST POP PUSH2 0x253 PUSH2 0x56D CALLDATASIZE PUSH1 0x4 PUSH2 0x1B3B JUMP JUMPDEST PUSH1 0x1 PUSH1 0x1 PUSH1 0xA0 SHL SUB AND PUSH0 SWAP1 DUP2 MSTORE PUSH1 0x9 PUSH1 0x20 MSTORE PUSH1 0x40 SWAP1 KECCAK256 SLOAD PUSH1 0xFF AND SWAP1 JUMP JUMPDEST CALLVALUE DUP1 ISZERO PUSH2 0x595 JUMPI PUSH0 PUSH0 REVERT JUMPDEST POP PUSH2 0x273 PUSH1 0x17 SLOAD DUP2 JUMP JUMPDEST CALLVALUE DUP1 ISZERO PUSH2 0x5AA JUMPI PUSH0 PUSH0 REVERT JUMPDEST POP PUSH2 0x273 PUSH2 0x5B9 CALLDATASIZE PUSH1 0x4 PUSH2 0x1B86 JUMP JUMPDEST PUSH1 0x1 PUSH1 0x1 PUSH1 0xA0 SHL SUB SWAP2 DUP3 AND PUSH0 SWAP1 DUP2 MSTORE PUSH1 0x1 PUSH1 0x20 SWAP1 DUP2 MSTORE PUSH1 0x40 DUP1 DUP4 KECCAK256 SWAP4 SWAP1 SWAP5 AND DUP3 MSTORE SWAP2 SWAP1 SWAP2 MSTORE KECCAK256 SLOAD SWAP1 JUMP JUMPDEST CALLVALUE DUP1 ISZERO PUSH2 0x5EE JUMPI PUSH0 PUSH0 REVERT JUMPDEST POP PUSH1 0x11 SLOAD PUSH2 0x273 JUMP JUMPDEST CALLVALUE DUP1 ISZERO PUSH2 0x602 JUMPI PUSH0 PUSH0 REVERT JUMPDEST POP PUSH2 0x208 PUSH2 0x611 CALLDATASIZE PUSH1 0x4 PUSH2 0x1B3B JUMP JUMPDEST PUSH2 0xC62 JUMP JUMPDEST CALLVALUE DUP1 ISZERO PUSH2 0x621 JUMPI PUSH0 PUSH0 REVERT JUMPDEST POP PUSH1 0x18 SLOAD PUSH2 0x253 SWAP1 PUSH1 0xFF AND DUP2 JUMP JUMPDEST CALLER PUSH0 DUP2 DUP2 MSTORE PUSH1 0x9 PUSH1 0x20 MSTORE PUSH1 0x40 SWAP1 KECCAK256 SLOAD PUSH1 0xFF AND ISZERO PUSH2 0x6A8 JUMPI PUSH1 0x40 MLOAD PUSH3 0x461BCD PUSH1 0xE5 SHL DUP2 MSTORE PUSH1 0x20 PUSH1 0x4 DUP3 ADD MSTORE PUSH1 0x2C PUSH1 0x24 DUP3 ADD MSTORE PUSH32 0x4578636C75646564206164647265737365732063616E6E6F742063616C6C2074 PUSH1 0x44 DUP3 ADD MSTORE PUSH12 0x3434B990333AB731BA34B7B7 PUSH1 0xA1 SHL PUSH1 0x64 DUP3 ADD MSTORE PUSH1 0x84 ADD JUMPDEST PUSH1 0x40 MLOAD DUP1 SWAP2 SUB SWAP1 REVERT JUMPDEST PUSH0 PUSH2 0x6B2 DUP4 PUSH2 0xDFE JUMP JUMPDEST POP POP POP PUSH1 0x1 PUSH1 0x1 PUSH1 0xA0 SHL SUB DUP4 AND PUSH0 SWAP1 DUP2 MSTORE PUSH1 0x5 PUSH1 0x20 MSTORE PUSH1 0x40 SWAP1 KECCAK256 SLOAD SWAP1 SWAP2 POP PUSH2 0x6DB SWAP1 DUP3 SWAP1 PUSH2 0x1BCB JUMP JUMPDEST PUSH1 0x1 PUSH1 0x1 PUSH1 0xA0 SHL SUB DUP4 AND PUSH0 SWAP1 DUP2 MSTORE PUSH1 0x5 PUSH1 0x20 MSTORE PUSH1 0x40 SWAP1 KECCAK256 SSTORE PUSH1 0xD SLOAD PUSH2 0x701 SWAP1 DUP3 SWAP1 PUSH2 0x1BCB JUMP JUMPDEST PUSH1 0xD SSTORE PUSH1 0xE SLOAD PUSH2 0x712 SWAP1 DUP5 SWAP1 PUSH2 0x1BDE JUMP JUMPDEST PUSH1 0xE SSTORE POP POP POP JUMP JUMPDEST PUSH1 0x60 PUSH1 0x3 DUP1 SLOAD PUSH2 0x729 SWAP1 PUSH2 0x1BF1 JUMP JUMPDEST DUP1 PUSH1 0x1F ADD PUSH1 0x20 DUP1 SWAP2 DIV MUL PUSH1 0x20 ADD PUSH1 0x40 MLOAD SWAP1 DUP2 ADD PUSH1 0x40 MSTORE DUP1 SWAP3 SWAP2 SWAP1 DUP2 DUP2 MSTORE PUSH1 0x20 ADD DUP3 DUP1 SLOAD PUSH2 0x755 SWAP1 PUSH2 0x1BF1 JUMP JUMPDEST DUP1 ISZERO PUSH2 0x7A0 JUMPI DUP1 PUSH1 0x1F LT PUSH2 0x777 JUMPI PUSH2 0x100 DUP1 DUP4 SLOAD DIV MUL DUP4 MSTORE SWAP2 PUSH1 0x20 ADD SWAP2 PUSH2 0x7A0 JUMP JUMPDEST DUP3 ADD SWAP2 SWAP1 PUSH0 MSTORE PUSH1 0x20 PUSH0 KECCAK256 SWAP1 JUMPDEST DUP2 SLOAD DUP2 MSTORE SWAP1 PUSH1 0x1 ADD SWAP1 PUSH1 0x20 ADD DUP1 DUP4 GT PUSH2 0x783 JUMPI DUP3 SWAP1 SUB PUSH1 0x1F AND DUP3 ADD SWAP2 JUMPDEST POP POP POP POP POP SWAP1 POP SWAP1 JUMP JUMPDEST PUSH0 CALLER PUSH2 0x7B7 DUP2 DUP6 DUP6 PUSH2 0xE4F JUMP JUMPDEST PUSH1 0x1 SWAP2 POP POP JUMPDEST SWAP3 SWAP2 POP POP JUMP JUMPDEST PUSH0 CALLER PUSH2 0x7D0 DUP6 DUP3 DUP6 PUSH2 0xE61 JUMP JUMPDEST PUSH2 0x7DB DUP6 DUP6 DUP6 PUSH2 0xEDD JUMP JUMPDEST POP PUSH1 0x1 SWAP5 SWAP4 POP POP POP POP JUMP JUMPDEST PUSH1 0xB SLOAD CALLER SWAP1 PUSH2 0x100 SWAP1 DIV PUSH1 0x1 PUSH1 0x1 PUSH1 0xA0 SHL SUB AND PUSH1 0x1 PUSH1 0x1 PUSH1 0xA0 SHL SUB AND SUB PUSH2 0x82A JUMPI PUSH1 0x1 PUSH1 0x1 PUSH1 0xA0 SHL SUB DUP2 AND PUSH0 SWAP1 DUP2 MSTORE PUSH1 0x7 PUSH1 0x20 MSTORE PUSH1 0x40 SWAP1 KECCAK256 DUP1 SLOAD PUSH1 0xFF NOT AND PUSH1 0x1 OR SWAP1 SSTORE JUMPDEST POP JUMP JUMPDEST PUSH0 PUSH1 0xC SLOAD DUP4 GT ISZERO PUSH2 0x880 JUMPI PUSH1 0x40 MLOAD PUSH3 0x461BCD PUSH1 0xE5 SHL DUP2 MSTORE PUSH1 0x20 PUSH1 0x4 DUP3 ADD MSTORE PUSH1 0x1F PUSH1 0x24 DUP3 ADD MSTORE PUSH32 0x416D6F756E74206D757374206265206C657373207468616E20737570706C7900 PUSH1 0x44 DUP3 ADD MSTORE PUSH1 0x64 ADD PUSH2 0x69F JUMP JUMPDEST DUP2 PUSH2 0x89C JUMPI PUSH0 PUSH2 0x88F DUP5 PUSH2 0xDFE JUMP JUMPDEST POP SWAP2 SWAP4 POP PUSH2 0x7BD SWAP3 POP POP POP JUMP JUMPDEST PUSH0 PUSH2 0x8A6 DUP5 PUSH2 0xDFE JUMP JUMPDEST POP SWAP1 SWAP4 POP PUSH2 0x7BD SWAP3 POP POP POP JUMP JUMPDEST PUSH1 0xB SLOAD CALLER SWAP1 PUSH2 0x100 SWAP1 DIV PUSH1 0x1 PUSH1 0x1 PUSH1 0xA0 SHL SUB AND PUSH1 0x1 PUSH1 0x1 PUSH1 0xA0 SHL SUB AND SUB PUSH2 0x82A JUMPI PUSH1 0x1 PUSH1 0x1 PUSH1 0xA0 SHL SUB DUP2 AND PUSH0 SWAP1 DUP2 MSTORE PUSH1 0x9 PUSH1 0x20 MSTORE PUSH1 0x40 SWAP1 KECCAK256 SLOAD PUSH1 0xFF AND ISZERO PUSH2 0x93C JUMPI PUSH1 0x40 MLOAD PUSH3 0x461BCD PUSH1 0xE5 SHL DUP2 MSTORE PUSH1 0x20 PUSH1 0x4 DUP3 ADD MSTORE PUSH1 0x1B PUSH1 0x24 DUP3 ADD MSTORE PUSH32 0x4163636F756E7420697320616C7265616479206578636C756465640000000000 PUSH1 0x44 DUP3 ADD MSTORE PUSH1 0x64 ADD PUSH2 0x69F JUMP JUMPDEST PUSH1 0x1 PUSH1 0x1 PUSH1 0xA0 SHL SUB DUP2 AND PUSH0 SWAP1 DUP2 MSTORE PUSH1 0x5 PUSH1 0x20 MSTORE PUSH1 0x40 SWAP1 KECCAK256 SLOAD ISZERO PUSH2 0x993 JUMPI PUSH1 0x1 PUSH1 0x1 PUSH1 0xA0 SHL SUB DUP2 AND PUSH0 SWAP1 DUP2 MSTORE PUSH1 0x5 PUSH1 0x20 MSTORE PUSH1 0x40 SWAP1 KECCAK256 SLOAD PUSH2 0x97A SWAP1 PUSH2 0x11CE JUMP JUMPDEST PUSH1 0x1 PUSH1 0x1 PUSH1 0xA0 SHL SUB DUP3 AND PUSH0 SWAP1 DUP2 MSTORE PUSH1 0x6 PUSH1 0x20 MSTORE PUSH1 0x40 SWAP1 KECCAK256 SSTORE JUMPDEST PUSH1 0x1 PUSH1 0x1 PUSH1 0xA0 SHL SUB AND PUSH0 DUP2 DUP2 MSTORE PUSH1 0x9 PUSH1 0x20 MSTORE PUSH1 0x40 DUP2 KECCAK256 DUP1 SLOAD PUSH1 0xFF NOT AND PUSH1 0x1 SWAP1 DUP2 OR SWAP1 SWAP2 SSTORE PUSH1 0xA DUP1 SLOAD SWAP2 DUP3 ADD DUP2 SSTORE SWAP1 SWAP2 MSTORE PUSH32 0xC65A7BB8D6351C1CF70C95A316CC6A92839C986682D98BC35F958F4883F9D2A8 ADD DUP1 SLOAD PUSH1 0x1 PUSH1 0x1 PUSH1 0xA0 SHL SUB NOT AND SWAP1 SWAP2 OR SWAP1 SSTORE JUMP JUMPDEST PUSH1 0xB SLOAD CALLER SWAP1 PUSH2 0x100 SWAP1 DIV PUSH1 0x1 PUSH1 0x1 PUSH1 0xA0 SHL SUB AND PUSH1 0x1 PUSH1 0x1 PUSH1 0xA0 SHL SUB AND SUB PUSH2 0x82A JUMPI PUSH1 0x1 PUSH1 0x1 PUSH1 0xA0 SHL SUB DUP2 AND PUSH2 0xA3F JUMPI PUSH1 0x40 MLOAD PUSH3 0x461BCD PUSH1 0xE5 SHL DUP2 MSTORE PUSH1 0x4 ADD PUSH2 0x69F SWAP1 PUSH2 0x1C29 JUMP JUMPDEST PUSH1 0x14 DUP1 SLOAD PUSH1 0x1 PUSH1 0x1 PUSH1 0xA0 SHL SUB DUP4 AND PUSH1 0x1 PUSH1 0x1 PUSH1 0xA0 SHL SUB NOT SWAP1 SWAP2 AND OR SWAP1 SSTORE POP JUMP JUMPDEST PUSH1 0x1 PUSH1 0x1 PUSH1 0xA0 SHL SUB DUP2 AND PUSH0 SWAP1 DUP2 MSTORE PUSH1 0x9 PUSH1 0x20 MSTORE PUSH1 0x40 DUP2 KECCAK256 SLOAD PUSH1 0xFF AND ISZERO PUSH2 0xA9A JUMPI POP PUSH1 0x1 PUSH1 0x1 PUSH1 0xA0 SHL SUB AND PUSH0 SWAP1 DUP2 MSTORE PUSH1 0x6 PUSH1 0x20 MSTORE PUSH1 0x40 SWAP1 KECCAK256 SLOAD SWAP1 JUMP JUMPDEST PUSH1 0x1 PUSH1 0x1 PUSH1 0xA0 SHL SUB DUP3 AND PUSH0 SWAP1 DUP2 MSTORE PUSH1 0x5 PUSH1 0x20 MSTORE PUSH1 0x40 SWAP1 KECCAK256 SLOAD PUSH2 0x7BD SWAP1 PUSH2 0x11CE JUMP JUMPDEST PUSH1 0xB SLOAD CALLER SWAP1 PUSH2 0x100 SWAP1 DIV PUSH1 0x1 PUSH1 0x1 PUSH1 0xA0 SHL SUB AND PUSH1 0x1 PUSH1 0x1 PUSH1 0xA0 SHL SUB AND SUB PUSH2 0x82A JUMPI PUSH1 0x15 DUP1 SLOAD PUSH1 0x1 PUSH1 0x1 PUSH1 0xA0 SHL SUB DUP4 AND PUSH1 0x1 PUSH1 0x1 PUSH1 0xA0 SHL SUB NOT SWAP1 SWAP2 AND OR SWAP1 SSTORE POP JUMP JUMPDEST PUSH1 0x60 PUSH1 0x4 DUP1 SLOAD PUSH2 0x729 SWAP1 PUSH2 0x1BF1 JUMP JUMPDEST PUSH0 CALLER PUSH2 0x7B7 DUP2 DUP6 DUP6 PUSH2 0xEDD JUMP JUMPDEST PUSH1 0xB SLOAD CALLER SWAP1 PUSH2 0x100 SWAP1 DIV PUSH1 0x1 PUSH1 0x1 PUSH1 0xA0 SHL SUB AND PUSH1 0x1 PUSH1 0x1 PUSH1 0xA0 SHL SUB AND SUB PUSH2 0x82A JUMPI PUSH1 0x1 PUSH1 0x1 PUSH1 0xA0 SHL SUB DUP2 AND PUSH0 SWAP1 DUP2 MSTORE PUSH1 0x8 PUSH1 0x20 MSTORE PUSH1 0x40 SWAP1 KECCAK256 SLOAD PUSH1 0xFF AND ISZERO PUSH2 0xBA1 JUMPI PUSH1 0x40 MLOAD PUSH3 0x461BCD PUSH1 0xE5 SHL DUP2 MSTORE PUSH1 0x20 PUSH1 0x4 DUP3 ADD MSTORE PUSH1 0x1E PUSH1 0x24 DUP3 ADD MSTORE PUSH32 0x4164647265737320697320616C72656164792077686974656C69737465640000 PUSH1 0x44 DUP3 ADD MSTORE PUSH1 0x64 ADD PUSH2 0x69F JUMP JUMPDEST PUSH1 0x1 PUSH1 0x1 PUSH1 0xA0 SHL SUB DUP2 AND PUSH0 SWAP1 DUP2 MSTORE PUSH1 0x8 PUSH1 0x20 MSTORE PUSH1 0x40 SWAP1 KECCAK256 DUP1 SLOAD PUSH1 0xFF NOT AND PUSH1 0x1 OR SWAP1 SSTORE POP JUMP JUMPDEST PUSH1 0xB SLOAD CALLER SWAP1 PUSH2 0x100 SWAP1 DIV PUSH1 0x1 PUSH1 0x1 PUSH1 0xA0 SHL SUB AND PUSH1 0x1 PUSH1 0x1 PUSH1 0xA0 SHL SUB AND SUB PUSH2 0x82A JUMPI PUSH1 0x1 PUSH1 0x1 PUSH1 0xA0 SHL SUB DUP2 AND PUSH2 0xC0D JUMPI PUSH1 0x40 MLOAD PUSH3 0x461BCD PUSH1 0xE5 SHL DUP2 MSTORE PUSH1 0x4 ADD PUSH2 0x69F SWAP1 PUSH2 0x1C29 JUMP JUMPDEST PUSH1 0x13 DUP1 SLOAD PUSH1 0x1 PUSH1 0x1 PUSH1 0xA0 SHL SUB DUP4 AND PUSH1 0x1 PUSH1 0x1 PUSH1 0xA0 SHL SUB NOT SWAP1 SWAP2 AND OR SWAP1 SSTORE POP JUMP JUMPDEST PUSH1 0xB SLOAD CALLER SWAP1 PUSH2 0x100 SWAP1 DIV PUSH1 0x1 PUSH1 0x1 PUSH1 0xA0 SHL SUB AND PUSH1 0x1 PUSH1 0x1 PUSH1 0xA0 SHL SUB AND SUB PUSH2 0xC60 JUMPI PUSH1 0x18 DUP1 SLOAD PUSH1 0xFF NOT AND PUSH1 0x1 OR SWAP1 SSTORE NUMBER PUSH1 0x17 SSTORE JUMPDEST JUMP JUMPDEST PUSH1 0xB SLOAD CALLER SWAP1 PUSH2 0x100 SWAP1 DIV PUSH1 0x1 PUSH1 0x1 PUSH1 0xA0 SHL SUB AND PUSH1 0x1 PUSH1 0x1 PUSH1 0xA0 SHL SUB AND SUB PUSH2 0x82A JUMPI PUSH1 0x1 PUSH1 0x1 PUSH1 0xA0 SHL SUB DUP2 AND PUSH0 SWAP1 DUP2 MSTORE PUSH1 0x9 PUSH1 0x20 MSTORE PUSH1 0x40 SWAP1 KECCAK256 SLOAD PUSH1 0xFF AND PUSH2 0xCEA JUMPI PUSH1 0x40 MLOAD PUSH3 0x461BCD PUSH1 0xE5 SHL DUP2 MSTORE PUSH1 0x20 PUSH1 0x4 DUP3 ADD MSTORE PUSH1 0x1B PUSH1 0x24 DUP3 ADD MSTORE PUSH32 0x4163636F756E7420697320616C726561647920696E636C756465640000000000 PUSH1 0x44 DUP3 ADD MSTORE PUSH1 0x64 ADD PUSH2 0x69F JUMP JUMPDEST PUSH0 JUMPDEST PUSH1 0xA SLOAD DUP2 LT ISZERO PUSH2 0xDFA JUMPI DUP2 PUSH1 0x1 PUSH1 0x1 PUSH1 0xA0 SHL SUB AND PUSH1 0xA DUP3 DUP2 SLOAD DUP2 LT PUSH2 0xD13 JUMPI PUSH2 0xD13 PUSH2 0x1C6F JUMP JUMPDEST PUSH0 SWAP2 DUP3 MSTORE PUSH1 0x20 SWAP1 SWAP2 KECCAK256 ADD SLOAD PUSH1 0x1 PUSH1 0x1 PUSH1 0xA0 SHL SUB AND SUB PUSH2 0xDF2 JUMPI PUSH1 0xA DUP1 SLOAD PUSH2 0xD3C SWAP1 PUSH1 0x1 SWAP1 PUSH2 0x1BCB JUMP JUMPDEST DUP2 SLOAD DUP2 LT PUSH2 0xD4C JUMPI PUSH2 0xD4C PUSH2 0x1C6F JUMP JUMPDEST PUSH0 SWAP2 DUP3 MSTORE PUSH1 0x20 SWAP1 SWAP2 KECCAK256 ADD SLOAD PUSH1 0xA DUP1 SLOAD PUSH1 0x1 PUSH1 0x1 PUSH1 0xA0 SHL SUB SWAP1 SWAP3 AND SWAP2 DUP4 SWAP1 DUP2 LT PUSH2 0xD77 JUMPI PUSH2 0xD77 PUSH2 0x1C6F JUMP JUMPDEST PUSH0 SWAP2 DUP3 MSTORE PUSH1 0x20 DUP1 DUP4 KECCAK256 SWAP2 SWAP1 SWAP2 ADD DUP1 SLOAD PUSH1 0x1 PUSH1 0x1 PUSH1 0xA0 SHL SUB NOT AND PUSH1 0x1 PUSH1 0x1 PUSH1 0xA0 SHL SUB SWAP5 DUP6 AND OR SWAP1 SSTORE SWAP2 DUP5 AND DUP2 MSTORE PUSH1 0x6 DUP3 MSTORE PUSH1 0x40 DUP1 DUP3 KECCAK256 DUP3 SWAP1 SSTORE PUSH1 0x9 SWAP1 SWAP3 MSTORE KECCAK256 DUP1 SLOAD PUSH1 0xFF NOT AND SWAP1 SSTORE PUSH1 0xA DUP1 SLOAD DUP1 PUSH2 0xDCE JUMPI PUSH2 0xDCE PUSH2 0x1C83 JUMP JUMPDEST PUSH0 DUP3 DUP2 MSTORE PUSH1 0x20 SWAP1 KECCAK256 DUP2 ADD PUSH0 NOT SWAP1 DUP2 ADD DUP1 SLOAD PUSH1 0x1 PUSH1 0x1 PUSH1 0xA0 SHL SUB NOT AND SWAP1 SSTORE ADD SWAP1 SSTORE POP POP JUMP JUMPDEST PUSH1 0x1 ADD PUSH2 0xCEC JUMP JUMPDEST POP POP JUMP JUMPDEST PUSH0 PUSH0 PUSH0 PUSH0 PUSH0 PUSH2 0xE0C DUP7 PUSH2 0x1250 JUMP JUMPDEST SWAP1 POP PUSH0 PUSH2 0xE19 DUP3 DUP9 PUSH2 0x1BCB JUMP JUMPDEST SWAP1 POP PUSH0 PUSH2 0xE24 PUSH2 0x1283 JUMP JUMPDEST SWAP1 POP PUSH0 PUSH2 0xE31 DUP3 DUP5 PUSH2 0x1C97 JUMP JUMPDEST SWAP1 POP PUSH0 PUSH2 0xE3E DUP4 DUP12 PUSH2 0x1C97 JUMP JUMPDEST SWAP11 SWAP2 SWAP10 POP SWAP3 SWAP8 POP SWAP1 SWAP6 POP SWAP4 POP POP POP POP JUMP JUMPDEST PUSH2 0xE5C DUP4 DUP4 DUP4 PUSH1 0x1 PUSH2 0x12A4 JUMP JUMPDEST POP POP POP JUMP JUMPDEST PUSH1 0x1 PUSH1 0x1 PUSH1 0xA0 SHL SUB DUP4 DUP2 AND PUSH0 SWAP1 DUP2 MSTORE PUSH1 0x1 PUSH1 0x20 SWAP1 DUP2 MSTORE PUSH1 0x40 DUP1 DUP4 KECCAK256 SWAP4 DUP7 AND DUP4 MSTORE SWAP3 SWAP1 MSTORE KECCAK256 SLOAD PUSH0 NOT DUP2 LT ISZERO PUSH2 0xED7 JUMPI DUP2 DUP2 LT ISZERO PUSH2 0xEC9 JUMPI PUSH1 0x40 MLOAD PUSH4 0x7DC7A0D9 PUSH1 0xE1 SHL DUP2 MSTORE PUSH1 0x1 PUSH1 0x1 PUSH1 0xA0 SHL SUB DUP5 AND PUSH1 0x4 DUP3 ADD MSTORE PUSH1 0x24 DUP2 ADD DUP3 SWAP1 MSTORE PUSH1 0x44 DUP2 ADD DUP4 SWAP1 MSTORE PUSH1 0x64 ADD PUSH2 0x69F JUMP JUMPDEST PUSH2 0xED7 DUP5 DUP5 DUP5 DUP5 SUB PUSH0 PUSH2 0x12A4 JUMP JUMPDEST POP POP POP POP JUMP JUMPDEST PUSH1 0x18 SLOAD DUP4 SWAP1 DUP4 SWAP1 PUSH1 0xFF AND PUSH2 0xF57 JUMPI PUSH1 0x1 PUSH1 0x1 PUSH1 0xA0 SHL SUB DUP2 AND PUSH0 SWAP1 DUP2 MSTORE PUSH1 0x8 PUSH1 0x20 MSTORE PUSH1 0x40 SWAP1 KECCAK256 SLOAD PUSH1 0xFF AND PUSH2 0xF52 JUMPI PUSH1 0x40 MLOAD PUSH3 0x461BCD PUSH1 0xE5 SHL DUP2 MSTORE PUSH1 0x20 PUSH1 0x4 DUP3 ADD MSTORE PUSH1 0x17 PUSH1 0x24 DUP3 ADD MSTORE PUSH32 0x54726164696E67206E6F742079657420656E61626C6564000000000000000000 PUSH1 0x44 DUP3 ADD MSTORE PUSH1 0x64 ADD PUSH2 0x69F JUMP JUMPDEST PUSH2 0xFDD JUMP JUMPDEST PUSH1 0x17 SLOAD PUSH2 0xF65 SWAP1 PUSH1 0x3 PUSH2 0x1BDE JUMP JUMPDEST NUMBER GT PUSH2 0xFDD JUMPI PUSH1 0x1 PUSH1 0x1 PUSH1 0xA0 SHL SUB DUP2 AND PUSH0 SWAP1 DUP2 MSTORE PUSH1 0x8 PUSH1 0x20 MSTORE PUSH1 0x40 SWAP1 KECCAK256 SLOAD PUSH1 0xFF AND PUSH2 0xFDD JUMPI PUSH1 0x40 MLOAD PUSH3 0x461BCD PUSH1 0xE5 SHL DUP2 MSTORE PUSH1 0x20 PUSH1 0x4 DUP3 ADD MSTORE PUSH1 0x22 PUSH1 0x24 DUP3 ADD MSTORE PUSH32 0x4C61756E63682070726F74656374696F6E3A206E6F742077686974656C697374 PUSH1 0x44 DUP3 ADD MSTORE PUSH2 0x1959 PUSH1 0xF2 SHL PUSH1 0x64 DUP3 ADD MSTORE PUSH1 0x84 ADD PUSH2 0x69F JUMP JUMPDEST PUSH1 0x1 PUSH1 0x1 PUSH1 0xA0 SHL SUB DUP6 AND PUSH2 0x1041 JUMPI PUSH1 0x40 MLOAD PUSH3 0x461BCD PUSH1 0xE5 SHL DUP2 MSTORE PUSH1 0x20 PUSH1 0x4 DUP3 ADD MSTORE PUSH1 0x25 PUSH1 0x24 DUP3 ADD MSTORE PUSH32 0x45524332303A207472616E736665722066726F6D20746865207A65726F206164 PUSH1 0x44 DUP3 ADD MSTORE PUSH5 0x6472657373 PUSH1 0xD8 SHL PUSH1 0x64 DUP3 ADD MSTORE PUSH1 0x84 ADD PUSH2 0x69F JUMP JUMPDEST PUSH1 0x1 PUSH1 0x1 PUSH1 0xA0 SHL SUB DUP5 AND PUSH2 0x10A3 JUMPI PUSH1 0x40 MLOAD PUSH3 0x461BCD PUSH1 0xE5 SHL DUP2 MSTORE PUSH1 0x20 PUSH1 0x4 DUP3 ADD MSTORE PUSH1 0x23 PUSH1 0x24 DUP3 ADD MSTORE PUSH32 0x45524332303A207472616E7366657220746F20746865207A65726F2061646472 PUSH1 0x44 DUP3 ADD MSTORE PUSH3 0x657373 PUSH1 0xE8 SHL PUSH1 0x64 DUP3 ADD MSTORE PUSH1 0x84 ADD PUSH2 0x69F JUMP JUMPDEST PUSH0 PUSH2 0x10AD DUP7 PUSH2 0xA5F JUMP JUMPDEST SWAP1 POP DUP4 DUP2 LT ISZERO PUSH2 0x110E JUMPI PUSH1 0x40 MLOAD PUSH3 0x461BCD PUSH1 0xE5 SHL DUP2 MSTORE PUSH1 0x20 PUSH1 0x4 DUP3 ADD MSTORE PUSH1 0x26 PUSH1 0x24 DUP3 ADD MSTORE PUSH32 0x45524332303A207472616E7366657220616D6F756E7420657863656564732062 PUSH1 0x44 DUP3 ADD MSTORE PUSH6 0x616C616E6365 PUSH1 0xD0 SHL PUSH1 0x64 DUP3 ADD MSTORE PUSH1 0x84 ADD PUSH2 0x69F JUMP JUMPDEST PUSH1 0x1 PUSH1 0x1 PUSH1 0xA0 SHL SUB DUP6 AND PUSH0 SWAP1 DUP2 MSTORE PUSH1 0x7 PUSH1 0x20 MSTORE PUSH1 0x40 SWAP1 KECCAK256 SLOAD PUSH1 0xFF AND PUSH2 0x1185 JUMPI PUSH1 0x16 SLOAD DUP5 PUSH2 0x113A DUP8 PUSH2 0xA5F JUMP JUMPDEST PUSH2 0x1144 SWAP2 SWAP1 PUSH2 0x1BDE JUMP JUMPDEST GT ISZERO PUSH2 0x1185 JUMPI PUSH1 0x40 MLOAD PUSH3 0x461BCD PUSH1 0xE5 SHL DUP2 MSTORE PUSH1 0x20 PUSH1 0x4 DUP3 ADD MSTORE PUSH1 0x10 PUSH1 0x24 DUP3 ADD MSTORE PUSH16 0x5768616C652064657465637465642121 PUSH1 0x80 SHL PUSH1 0x44 DUP3 ADD MSTORE PUSH1 0x64 ADD PUSH2 0x69F JUMP JUMPDEST PUSH1 0x15 SLOAD PUSH0 SWAP1 PUSH1 0x1 PUSH1 0x1 PUSH1 0xA0 SHL SUB DUP9 DUP2 AND SWAP2 AND EQ DUP1 PUSH2 0x11B0 JUMPI POP PUSH1 0x15 SLOAD PUSH1 0x1 PUSH1 0x1 PUSH1 0xA0 SHL SUB DUP8 DUP2 AND SWAP2 AND EQ JUMPDEST ISZERO PUSH2 0x11B9 JUMPI POP PUSH1 0x1 JUMPDEST PUSH2 0x11C5 DUP8 DUP8 DUP8 DUP5 PUSH2 0x1376 JUMP JUMPDEST POP POP POP POP POP POP POP JUMP JUMPDEST PUSH0 PUSH1 0xD SLOAD DUP3 GT ISZERO PUSH2 0x1234 JUMPI PUSH1 0x40 MLOAD PUSH3 0x461BCD PUSH1 0xE5 SHL DUP2 MSTORE PUSH1 0x20 PUSH1 0x4 DUP3 ADD MSTORE PUSH1 0x2A PUSH1 0x24 DUP3 ADD MSTORE PUSH32 0x416D6F756E74206D757374206265206C657373207468616E20746F74616C2072 PUSH1 0x44 DUP3 ADD MSTORE PUSH10 0x65666C656374696F6E73 PUSH1 0xB0 SHL PUSH1 0x64 DUP3 ADD MSTORE PUSH1 0x84 ADD PUSH2 0x69F JUMP JUMPDEST PUSH0 PUSH2 0x123D PUSH2 0x1283 JUMP JUMPDEST SWAP1 POP PUSH2 0x1249 DUP2 DUP5 PUSH2 0x1CAE JUMP JUMPDEST SWAP4 SWAP3 POP POP POP JUMP JUMPDEST PUSH0 PUSH0 PUSH1 0x11 SLOAD PUSH1 0xF SLOAD PUSH2 0x1262 SWAP2 SWAP1 PUSH2 0x1BDE JUMP JUMPDEST SWAP1 POP PUSH0 PUSH1 0x64 PUSH2 0x1271 DUP4 DUP7 PUSH2 0x1C97 JUMP JUMPDEST PUSH2 0x127B SWAP2 SWAP1 PUSH2 0x1CAE JUMP JUMPDEST SWAP5 SWAP4 POP POP POP POP JUMP JUMPDEST PUSH0 PUSH0 PUSH0 PUSH2 0x128E PUSH2 0x14E5 JUMP JUMPDEST SWAP1 SWAP3 POP SWAP1 POP PUSH2 0x129D DUP2 DUP4 PUSH2 0x1CAE JUMP JUMPDEST SWAP3 POP POP POP SWAP1 JUMP JUMPDEST PUSH1 0x1 PUSH1 0x1 PUSH1 0xA0 SHL SUB DUP5 AND PUSH2 0x12CD JUMPI PUSH1 0x40 MLOAD PUSH4 0xE602DF05 PUSH1 0xE0 SHL DUP2 MSTORE PUSH0 PUSH1 0x4 DUP3 ADD MSTORE PUSH1 0x24 ADD PUSH2 0x69F JUMP JUMPDEST PUSH1 0x1 PUSH1 0x1 PUSH1 0xA0 SHL SUB DUP4 AND PUSH2 0x12F6 JUMPI PUSH1 0x40 MLOAD PUSH4 0x4A1406B1 PUSH1 0xE1 SHL DUP2 MSTORE PUSH0 PUSH1 0x4 DUP3 ADD MSTORE PUSH1 0x24 ADD PUSH2 0x69F JUMP JUMPDEST PUSH1 0x1 PUSH1 0x1 PUSH1 0xA0 SHL SUB DUP1 DUP6 AND PUSH0 SWAP1 DUP2 MSTORE PUSH1 0x1 PUSH1 0x20 SWAP1 DUP2 MSTORE PUSH1 0x40 DUP1 DUP4 KECCAK256 SWAP4 DUP8 AND DUP4 MSTORE SWAP3 SWAP1 MSTORE KECCAK256 DUP3 SWAP1 SSTORE DUP1 ISZERO PUSH2 0xED7 JUMPI DUP3 PUSH1 0x1 PUSH1 0x1 PUSH1 0xA0 SHL SUB AND DUP5 PUSH1 0x1 PUSH1 0x1 PUSH1 0xA0 SHL SUB AND PUSH32 0x8C5BE1E5EBEC7D5BD14F71427D1E84F3DD0314C0F7B2291E5B200AC8C7C3B925 DUP5 PUSH1 0x40 MLOAD PUSH2 0x1368 SWAP2 DUP2 MSTORE PUSH1 0x20 ADD SWAP1 JUMP JUMPDEST PUSH1 0x40 MLOAD DUP1 SWAP2 SUB SWAP1 LOG3 POP POP POP POP JUMP JUMPDEST DUP1 PUSH2 0x1383 JUMPI PUSH2 0x1383 PUSH2 0x1655 JUMP JUMPDEST PUSH1 0x1 PUSH1 0x1 PUSH1 0xA0 SHL SUB DUP5 AND PUSH0 SWAP1 DUP2 MSTORE PUSH1 0x9 PUSH1 0x20 MSTORE PUSH1 0x40 SWAP1 KECCAK256 SLOAD PUSH1 0xFF AND DUP1 ISZERO PUSH2 0x13C2 JUMPI POP PUSH1 0x1 PUSH1 0x1 PUSH1 0xA0 SHL SUB DUP4 AND PUSH0 SWAP1 DUP2 MSTORE PUSH1 0x9 PUSH1 0x20 MSTORE PUSH1 0x40 SWAP1 KECCAK256 SLOAD PUSH1 0xFF AND ISZERO JUMPDEST ISZERO PUSH2 0x13D7 JUMPI PUSH2 0x13D2 DUP5 DUP5 DUP5 PUSH2 0x1682 JUMP JUMPDEST PUSH2 0x14CF JUMP JUMPDEST PUSH1 0x1 PUSH1 0x1 PUSH1 0xA0 SHL SUB DUP5 AND PUSH0 SWAP1 DUP2 MSTORE PUSH1 0x9 PUSH1 0x20 MSTORE PUSH1 0x40 SWAP1 KECCAK256 SLOAD PUSH1 0xFF AND ISZERO DUP1 ISZERO PUSH2 0x1416 JUMPI POP PUSH1 0x1 PUSH1 0x1 PUSH1 0xA0 SHL SUB DUP4 AND PUSH0 SWAP1 DUP2 MSTORE PUSH1 0x9 PUSH1 0x20 MSTORE PUSH1 0x40 SWAP1 KECCAK256 SLOAD PUSH1 0xFF AND JUMPDEST ISZERO PUSH2 0x1426 JUMPI PUSH2 0x13D2 DUP5 DUP5 DUP5 PUSH2 0x179D JUMP JUMPDEST PUSH1 0x1 PUSH1 0x1 PUSH1 0xA0 SHL SUB DUP5 AND PUSH0 SWAP1 DUP2 MSTORE PUSH1 0x9 PUSH1 0x20 MSTORE PUSH1 0x40 SWAP1 KECCAK256 SLOAD PUSH1 0xFF AND ISZERO DUP1 ISZERO PUSH2 0x1466 JUMPI POP PUSH1 0x1 PUSH1 0x1 PUSH1 0xA0 SHL SUB DUP4 AND PUSH0 SWAP1 DUP2 MSTORE PUSH1 0x9 PUSH1 0x20 MSTORE PUSH1 0x40 SWAP1 KECCAK256 SLOAD PUSH1 0xFF AND ISZERO JUMPDEST ISZERO PUSH2 0x1476 JUMPI PUSH2 0x13D2 DUP5 DUP5 DUP5 PUSH2 0x183C JUMP JUMPDEST PUSH1 0x1 PUSH1 0x1 PUSH1 0xA0 SHL SUB DUP5 AND PUSH0 SWAP1 DUP2 MSTORE PUSH1 0x9 PUSH1 0x20 MSTORE PUSH1 0x40 SWAP1 KECCAK256 SLOAD PUSH1 0xFF AND DUP1 ISZERO PUSH2 0x14B4 JUMPI POP PUSH1 0x1 PUSH1 0x1 PUSH1 0xA0 SHL SUB DUP4 AND PUSH0 SWAP1 DUP2 MSTORE PUSH1 0x9 PUSH1 0x20 MSTORE PUSH1 0x40 SWAP1 KECCAK256 SLOAD PUSH1 0xFF AND JUMPDEST ISZERO PUSH2 0x14C4 JUMPI PUSH2 0x13D2 DUP5 DUP5 DUP5 PUSH2 0x1876 JUMP JUMPDEST PUSH2 0x14CF DUP5 DUP5 DUP5 PUSH2 0x183C JUMP JUMPDEST DUP1 PUSH2 0xED7 JUMPI PUSH2 0xED7 PUSH1 0x10 SLOAD PUSH1 0xF SSTORE PUSH1 0x12 SLOAD PUSH1 0x11 SSTORE JUMP JUMPDEST PUSH1 0xD SLOAD PUSH1 0xC SLOAD PUSH0 SWAP2 DUP3 SWAP2 DUP3 JUMPDEST PUSH1 0xA SLOAD DUP2 LT ISZERO PUSH2 0x1624 JUMPI DUP3 PUSH1 0x5 PUSH0 PUSH1 0xA DUP5 DUP2 SLOAD DUP2 LT PUSH2 0x1512 JUMPI PUSH2 0x1512 PUSH2 0x1C6F JUMP JUMPDEST PUSH0 SWAP2 DUP3 MSTORE PUSH1 0x20 DUP1 DUP4 KECCAK256 SWAP1 SWAP2 ADD SLOAD PUSH1 0x1 PUSH1 0x1 PUSH1 0xA0 SHL SUB AND DUP4 MSTORE DUP3 ADD SWAP3 SWAP1 SWAP3 MSTORE PUSH1 0x40 ADD SWAP1 KECCAK256 SLOAD GT DUP1 PUSH2 0x157A JUMPI POP DUP2 PUSH1 0x6 PUSH0 PUSH1 0xA DUP5 DUP2 SLOAD DUP2 LT PUSH2 0x1554 JUMPI PUSH2 0x1554 PUSH2 0x1C6F JUMP JUMPDEST PUSH0 SWAP2 DUP3 MSTORE PUSH1 0x20 DUP1 DUP4 KECCAK256 SWAP1 SWAP2 ADD SLOAD PUSH1 0x1 PUSH1 0x1 PUSH1 0xA0 SHL SUB AND DUP4 MSTORE DUP3 ADD SWAP3 SWAP1 SWAP3 MSTORE PUSH1 0x40 ADD SWAP1 KECCAK256 SLOAD GT JUMPDEST ISZERO PUSH2 0x1590 JUMPI PUSH1 0xD SLOAD PUSH1 0xC SLOAD SWAP5 POP SWAP5 POP POP POP POP SWAP1 SWAP2 JUMP JUMPDEST PUSH1 0x5 PUSH0 PUSH1 0xA DUP4 DUP2 SLOAD DUP2 LT PUSH2 0x15A6 JUMPI PUSH2 0x15A6 PUSH2 0x1C6F JUMP JUMPDEST PUSH0 SWAP2 DUP3 MSTORE PUSH1 0x20 DUP1 DUP4 KECCAK256 SWAP1 SWAP2 ADD SLOAD PUSH1 0x1 PUSH1 0x1 PUSH1 0xA0 SHL SUB AND DUP4 MSTORE DUP3 ADD SWAP3 SWAP1 SWAP3 MSTORE PUSH1 0x40 ADD SWAP1 KECCAK256 SLOAD PUSH2 0x15D4 SWAP1 DUP5 PUSH2 0x1BCB JUMP JUMPDEST SWAP3 POP PUSH1 0x6 PUSH0 PUSH1 0xA DUP4 DUP2 SLOAD DUP2 LT PUSH2 0x15EC JUMPI PUSH2 0x15EC PUSH2 0x1C6F JUMP JUMPDEST PUSH0 SWAP2 DUP3 MSTORE PUSH1 0x20 DUP1 DUP4 KECCAK256 SWAP1 SWAP2 ADD SLOAD PUSH1 0x1 PUSH1 0x1 PUSH1 0xA0 SHL SUB AND DUP4 MSTORE DUP3 ADD SWAP3 SWAP1 SWAP3 MSTORE PUSH1 0x40 ADD SWAP1 KECCAK256 SLOAD PUSH2 0x161A SWAP1 DUP4 PUSH2 0x1BCB JUMP JUMPDEST SWAP2 POP PUSH1 0x1 ADD PUSH2 0x14F1 JUMP JUMPDEST POP PUSH1 0xC SLOAD PUSH1 0xD SLOAD PUSH2 0x1635 SWAP2 SWAP1 PUSH2 0x1CAE JUMP JUMPDEST DUP3 LT ISZERO PUSH2 0x164C JUMPI PUSH1 0xD SLOAD PUSH1 0xC SLOAD SWAP4 POP SWAP4 POP POP POP SWAP1 SWAP2 JUMP JUMPDEST SWAP1 SWAP4 SWAP1 SWAP3 POP SWAP1 POP JUMP JUMPDEST PUSH1 0xF SLOAD ISZERO DUP1 ISZERO PUSH2 0x1665 JUMPI POP PUSH1 0x11 SLOAD ISZERO JUMPDEST ISZERO PUSH2 0x166C JUMPI JUMP JUMPDEST PUSH1 0xF DUP1 SLOAD PUSH1 0x10 SSTORE PUSH1 0x11 DUP1 SLOAD PUSH1 0x12 SSTORE PUSH0 SWAP2 DUP3 SWAP1 SSTORE SSTORE JUMP JUMPDEST PUSH0 PUSH0 PUSH0 PUSH0 PUSH2 0x168F DUP6 PUSH2 0xDFE JUMP JUMPDEST PUSH1 0x1 PUSH1 0x1 PUSH1 0xA0 SHL SUB DUP12 AND PUSH0 SWAP1 DUP2 MSTORE PUSH1 0x6 PUSH1 0x20 MSTORE PUSH1 0x40 SWAP1 KECCAK256 SLOAD SWAP4 SWAP8 POP SWAP2 SWAP6 POP SWAP4 POP SWAP2 POP PUSH2 0x16BC SWAP1 DUP7 SWAP1 PUSH2 0x1BCB JUMP JUMPDEST PUSH1 0x1 PUSH1 0x1 PUSH1 0xA0 SHL SUB DUP9 AND PUSH0 SWAP1 DUP2 MSTORE PUSH1 0x6 PUSH1 0x20 SWAP1 DUP2 MSTORE PUSH1 0x40 DUP1 DUP4 KECCAK256 SWAP4 SWAP1 SWAP4 SSTORE PUSH1 0x5 SWAP1 MSTORE KECCAK256 SLOAD PUSH2 0x16EB SWAP1 DUP6 SWAP1 PUSH2 0x1BCB JUMP JUMPDEST PUSH1 0x1 PUSH1 0x1 PUSH1 0xA0 SHL SUB DUP1 DUP10 AND PUSH0 SWAP1 DUP2 MSTORE PUSH1 0x5 PUSH1 0x20 MSTORE PUSH1 0x40 DUP1 DUP3 KECCAK256 SWAP4 SWAP1 SWAP4 SSTORE SWAP1 DUP9 AND DUP2 MSTORE KECCAK256 SLOAD PUSH2 0x171A SWAP1 DUP5 SWAP1 PUSH2 0x1BDE JUMP JUMPDEST PUSH1 0x1 PUSH1 0x1 PUSH1 0xA0 SHL SUB DUP8 AND PUSH0 SWAP1 DUP2 MSTORE PUSH1 0x5 PUSH1 0x20 MSTORE PUSH1 0x40 SWAP1 KECCAK256 SSTORE PUSH2 0x173D DUP8 DUP7 DUP4 PUSH2 0x18DF JUMP JUMPDEST PUSH2 0x1747 DUP6 DUP3 PUSH2 0x1A20 JUMP JUMPDEST DUP6 PUSH1 0x1 PUSH1 0x1 PUSH1 0xA0 SHL SUB AND DUP8 PUSH1 0x1 PUSH1 0x1 PUSH1 0xA0 SHL SUB AND PUSH32 0xDDF252AD1BE2C89B69C2B068FC378DAA952BA7F163C4A11628F55A4DF523B3EF DUP5 PUSH1 0x40 MLOAD PUSH2 0x178C SWAP2 DUP2 MSTORE PUSH1 0x20 ADD SWAP1 JUMP JUMPDEST PUSH1 0x40 MLOAD DUP1 SWAP2 SUB SWAP1 LOG3 POP POP POP POP POP POP POP JUMP JUMPDEST PUSH0 PUSH0 PUSH0 PUSH0 PUSH2 0x17AA DUP6 PUSH2 0xDFE JUMP JUMPDEST PUSH1 0x1 PUSH1 0x1 PUSH1 0xA0 SHL SUB DUP12 AND PUSH0 SWAP1 DUP2 MSTORE PUSH1 0x5 PUSH1 0x20 MSTORE PUSH1 0x40 SWAP1 KECCAK256 SLOAD SWAP4 SWAP8 POP SWAP2 SWAP6 POP SWAP4 POP SWAP2 POP PUSH2 0x17D7 SWAP1 DUP6 SWAP1 PUSH2 0x1BCB JUMP JUMPDEST PUSH1 0x1 PUSH1 0x1 PUSH1 0xA0 SHL SUB DUP1 DUP10 AND PUSH0 SWAP1 DUP2 MSTORE PUSH1 0x5 PUSH1 0x20 SWAP1 DUP2 MSTORE PUSH1 0x40 DUP1 DUP4 KECCAK256 SWAP5 SWAP1 SWAP5 SSTORE SWAP2 DUP10 AND DUP2 MSTORE PUSH1 0x6 SWAP1 SWAP2 MSTORE KECCAK256 SLOAD PUSH2 0x180D SWAP1 DUP4 SWAP1 PUSH2 0x1BDE JUMP JUMPDEST PUSH1 0x1 PUSH1 0x1 PUSH1 0xA0 SHL SUB DUP8 AND PUSH0 SWAP1 DUP2 MSTORE PUSH1 0x6 PUSH1 0x20 SWAP1 DUP2 MSTORE PUSH1 0x40 DUP1 DUP4 KECCAK256 SWAP4 SWAP1 SWAP4 SSTORE PUSH1 0x5 SWAP1 MSTORE KECCAK256 SLOAD PUSH2 0x171A SWAP1 DUP5 SWAP1 PUSH2 0x1BDE JUMP JUMPDEST PUSH0 PUSH0 PUSH0 PUSH0 PUSH2 0x1849 DUP6 PUSH2 0xDFE JUMP JUMPDEST PUSH1 0x1 PUSH1 0x1 PUSH1 0xA0 SHL SUB DUP12 AND PUSH0 SWAP1 DUP2 MSTORE PUSH1 0x5 PUSH1 0x20 MSTORE PUSH1 0x40 SWAP1 KECCAK256 SLOAD SWAP4 SWAP8 POP SWAP2 SWAP6 POP SWAP4 POP SWAP2 POP PUSH2 0x16EB SWAP1 DUP6 SWAP1 PUSH2 0x1BCB JUMP JUMPDEST PUSH0 PUSH0 PUSH0 PUSH0 PUSH2 0x1883 DUP6 PUSH2 0xDFE JUMP JUMPDEST PUSH1 0x1 PUSH1 0x1 PUSH1 0xA0 SHL SUB DUP12 AND PUSH0 SWAP1 DUP2 MSTORE PUSH1 0x6 PUSH1 0x20 MSTORE PUSH1 0x40 SWAP1 KECCAK256 SLOAD SWAP4 SWAP8 POP SWAP2 SWAP6 POP SWAP4 POP SWAP2 POP PUSH2 0x18B0 SWAP1 DUP7 SWAP1 PUSH2 0x1BCB JUMP JUMPDEST PUSH1 0x1 PUSH1 0x1 PUSH1 0xA0 SHL SUB DUP9 AND PUSH0 SWAP1 DUP2 MSTORE PUSH1 0x6 PUSH1 0x20 SWAP1 DUP2 MSTORE PUSH1 0x40 DUP1 DUP4 KECCAK256 SWAP4 SWAP1 SWAP4 SSTORE PUSH1 0x5 SWAP1 MSTORE KECCAK256 SLOAD PUSH2 0x17D7 SWAP1 DUP6 SWAP1 PUSH2 0x1BCB JUMP JUMPDEST PUSH0 PUSH1 0x64 PUSH1 0x11 SLOAD DUP5 PUSH2 0x18F0 SWAP2 SWAP1 PUSH2 0x1C97 JUMP JUMPDEST PUSH2 0x18FA SWAP2 SWAP1 PUSH2 0x1CAE JUMP JUMPDEST SWAP1 POP DUP1 ISZERO PUSH2 0xED7 JUMPI PUSH0 PUSH1 0x2 PUSH2 0x190F DUP5 DUP5 PUSH2 0x1C97 JUMP JUMPDEST PUSH2 0x1919 SWAP2 SWAP1 PUSH2 0x1CAE JUMP JUMPDEST PUSH1 0x13 SLOAD PUSH1 0x1 PUSH1 0x1 PUSH1 0xA0 SHL SUB AND PUSH0 SWAP1 DUP2 MSTORE PUSH1 0x5 PUSH1 0x20 MSTORE PUSH1 0x40 SWAP1 KECCAK256 SLOAD SWAP1 SWAP2 POP PUSH2 0x1941 SWAP1 DUP3 SWAP1 PUSH2 0x1BDE JUMP JUMPDEST PUSH1 0x13 SLOAD PUSH1 0x1 PUSH1 0x1 PUSH1 0xA0 SHL SUB SWAP1 DUP2 AND PUSH0 SWAP1 DUP2 MSTORE PUSH1 0x5 PUSH1 0x20 MSTORE PUSH1 0x40 DUP1 DUP3 KECCAK256 SWAP4 SWAP1 SWAP4 SSTORE PUSH1 0x14 SLOAD SWAP1 SWAP2 AND DUP2 MSTORE KECCAK256 SLOAD PUSH2 0x1976 SWAP1 DUP3 SWAP1 PUSH2 0x1BDE JUMP JUMPDEST PUSH1 0x14 SLOAD PUSH1 0x1 PUSH1 0x1 PUSH1 0xA0 SHL SUB SWAP1 DUP2 AND PUSH0 SWAP1 DUP2 MSTORE PUSH1 0x5 PUSH1 0x20 SWAP1 DUP2 MSTORE PUSH1 0x40 SWAP2 DUP3 SWAP1 KECCAK256 SWAP4 SWAP1 SWAP4 SSTORE PUSH1 0x13 SLOAD SWAP1 MLOAD DUP6 DUP2 MSTORE SWAP1 DUP3 AND SWAP3 SWAP2 DUP9 AND SWAP2 PUSH32 0xDDF252AD1BE2C89B69C2B068FC378DAA952BA7F163C4A11628F55A4DF523B3EF SWAP2 ADD PUSH1 0x40 MLOAD DUP1 SWAP2 SUB SWAP1 LOG3 PUSH1 0x14 SLOAD PUSH1 0x40 MLOAD DUP4 DUP2 MSTORE PUSH1 0x1 PUSH1 0x1 PUSH1 0xA0 SHL SUB SWAP2 DUP3 AND SWAP2 DUP8 AND SWAP1 PUSH32 0xDDF252AD1BE2C89B69C2B068FC378DAA952BA7F163C4A11628F55A4DF523B3EF SWAP1 PUSH1 0x20 ADD PUSH1 0x40 MLOAD DUP1 SWAP2 SUB SWAP1 LOG3 POP POP POP POP POP JUMP JUMPDEST PUSH0 PUSH1 0x64 PUSH1 0xF SLOAD DUP5 PUSH2 0x1A31 SWAP2 SWAP1 PUSH2 0x1C97 JUMP JUMPDEST PUSH2 0x1A3B SWAP2 SWAP1 PUSH2 0x1CAE JUMP JUMPDEST SWAP1 POP PUSH0 PUSH2 0x1A48 DUP4 DUP4 PUSH2 0x1C97 JUMP JUMPDEST SWAP1 POP DUP1 PUSH1 0xD SLOAD PUSH2 0x1A58 SWAP2 SWAP1 PUSH2 0x1BCB JUMP JUMPDEST PUSH1 0xD SSTORE PUSH1 0xE SLOAD PUSH2 0x1A69 SWAP1 DUP4 SWAP1 PUSH2 0x1BDE JUMP JUMPDEST PUSH1 0xE SSTORE POP POP POP POP JUMP JUMPDEST PUSH0 PUSH1 0x20 DUP3 DUP5 SUB SLT ISZERO PUSH2 0x1A82 JUMPI PUSH0 PUSH0 REVERT JUMPDEST POP CALLDATALOAD SWAP2 SWAP1 POP JUMP JUMPDEST PUSH1 0x20 DUP2 MSTORE PUSH0 DUP3 MLOAD DUP1 PUSH1 0x20 DUP5 ADD MSTORE DUP1 PUSH1 0x20 DUP6 ADD PUSH1 0x40 DUP6 ADD MCOPY PUSH0 PUSH1 0x40 DUP3 DUP6 ADD ADD MSTORE PUSH1 0x40 PUSH1 0x1F NOT PUSH1 0x1F DUP4 ADD AND DUP5 ADD ADD SWAP2 POP POP SWAP3 SWAP2 POP POP JUMP JUMPDEST DUP1 CALLDATALOAD PUSH1 0x1 PUSH1 0x1 PUSH1 0xA0 SHL SUB DUP2 AND DUP2 EQ PUSH2 0x1AD4 JUMPI PUSH0 PUSH0 REVERT JUMPDEST SWAP2 SWAP1 POP JUMP JUMPDEST PUSH0 PUSH0 PUSH1 0x40 DUP4 DUP6 SUB SLT ISZERO PUSH2 0x1AEA JUMPI PUSH0 PUSH0 REVERT JUMPDEST PUSH2 0x1AF3 DUP4 PUSH2 0x1ABE JUMP JUMPDEST SWAP5 PUSH1 0x20 SWAP4 SWAP1 SWAP4 ADD CALLDATALOAD SWAP4 POP POP POP JUMP JUMPDEST PUSH0 PUSH0 PUSH0 PUSH1 0x60 DUP5 DUP7 SUB SLT ISZERO PUSH2 0x1B13 JUMPI PUSH0 PUSH0 REVERT JUMPDEST PUSH2 0x1B1C DUP5 PUSH2 0x1ABE JUMP JUMPDEST SWAP3 POP PUSH2 0x1B2A PUSH1 0x20 DUP6 ADD PUSH2 0x1ABE JUMP JUMPDEST SWAP3 SWAP6 SWAP3 SWAP5 POP POP POP PUSH1 0x40 SWAP2 SWAP1 SWAP2 ADD CALLDATALOAD SWAP1 JUMP JUMPDEST PUSH0 PUSH1 0x20 DUP3 DUP5 SUB SLT ISZERO PUSH2 0x1B4B JUMPI PUSH0 PUSH0 REVERT JUMPDEST PUSH2 0x1249 DUP3 PUSH2 0x1ABE JUMP JUMPDEST PUSH0 PUSH0 PUSH1 0x40 DUP4 DUP6 SUB SLT ISZERO PUSH2 0x1B65 JUMPI PUSH0 PUSH0 REVERT JUMPDEST DUP3 CALLDATALOAD SWAP2 POP PUSH1 0x20 DUP4 ADD CALLDATALOAD DUP1 ISZERO ISZERO DUP2 EQ PUSH2 0x1B7B JUMPI PUSH0 PUSH0 REVERT JUMPDEST DUP1 SWAP2 POP POP SWAP3 POP SWAP3 SWAP1 POP JUMP JUMPDEST PUSH0 PUSH0 PUSH1 0x40 DUP4 DUP6 SUB SLT ISZERO PUSH2 0x1B97 JUMPI PUSH0 PUSH0 REVERT JUMPDEST PUSH2 0x1BA0 DUP4 PUSH2 0x1ABE JUMP JUMPDEST SWAP2 POP PUSH2 0x1BAE PUSH1 0x20 DUP5 ADD PUSH2 0x1ABE JUMP JUMPDEST SWAP1 POP SWAP3 POP SWAP3 SWAP1 POP JUMP JUMPDEST PUSH4 0x4E487B71 PUSH1 0xE0 SHL PUSH0 MSTORE PUSH1 0x11 PUSH1 0x4 MSTORE PUSH1 0x24 PUSH0 REVERT JUMPDEST DUP2 DUP2 SUB DUP2 DUP2 GT ISZERO PUSH2 0x7BD JUMPI PUSH2 0x7BD PUSH2 0x1BB7 JUMP JUMPDEST DUP1 DUP3 ADD DUP1 DUP3 GT ISZERO PUSH2 0x7BD JUMPI PUSH2 0x7BD PUSH2 0x1BB7 JUMP JUMPDEST PUSH1 0x1 DUP2 DUP2 SHR SWAP1 DUP3 AND DUP1 PUSH2 0x1C05 JUMPI PUSH1 0x7F DUP3 AND SWAP2 POP JUMPDEST PUSH1 0x20 DUP3 LT DUP2 SUB PUSH2 0x1C23 JUMPI PUSH4 0x4E487B71 PUSH1 0xE0 SHL PUSH0 MSTORE PUSH1 0x22 PUSH1 0x4 MSTORE PUSH1 0x24 PUSH0 REVERT JUMPDEST POP SWAP2 SWAP1 POP JUMP JUMPDEST PUSH1 0x20 DUP1 DUP3 MSTORE PUSH1 0x26 SWAP1 DUP3 ADD MSTORE PUSH32 0x7A65726F20616464726573732063616E206E6F74206265207468652046656541 PUSH1 0x40 DUP3 ADD MSTORE PUSH6 0x18D8DBDD5B9D PUSH1 0xD2 SHL PUSH1 0x60 DUP3 ADD MSTORE PUSH1 0x80 ADD SWAP1 JUMP JUMPDEST PUSH4 0x4E487B71 PUSH1 0xE0 SHL PUSH0 MSTORE PUSH1 0x32 PUSH1 0x4 MSTORE PUSH1 0x24 PUSH0 REVERT JUMPDEST PUSH4 0x4E487B71 PUSH1 0xE0 SHL PUSH0 MSTORE PUSH1 0x31 PUSH1 0x4 MSTORE PUSH1 0x24 PUSH0 REVERT JUMPDEST DUP1 DUP3 MUL DUP2 ISZERO DUP3 DUP3 DIV DUP5 EQ OR PUSH2 0x7BD JUMPI PUSH2 0x7BD PUSH2 0x1BB7 JUMP JUMPDEST PUSH0 DUP3 PUSH2 0x1CC8 JUMPI PUSH4 0x4E487B71 PUSH1 0xE0 SHL PUSH0 MSTORE PUSH1 0x12 PUSH1 0x4 MSTORE PUSH1 0x24 PUSH0 REVERT JUMPDEST POP DIV SWAP1 JUMP INVALID LOG2 PUSH5 0x6970667358 0x22 SLT KECCAK256 PUSH28 0xB390C0FE449A171CFC6ABA242F295677DB9E2A72560F4731B0F5AEBD CALLDATASIZE RETURNDATASIZE LT PUSH5 0x736F6C6343 STOP ADDMOD SAR STOP CALLER "
				},
				"gasEstimates": {
					"creation": {
						"codeDepositCost": "1485400",
						"executionCost": "infinite",
						"totalCost": "infinite"
					},
					"external": {
						"allowance(address,address)": "infinite",
						"approve(address,uint256)": "24802",
						"balanceOf(address)": "infinite",
						"changeDevelopmentAccount(address)": "26857",
						"changeMarketingAccount(address)": "26813",
						"changePairAddress(address)": "26823",
						"decimals()": "2378",
						"excludeAccountFromReward(address)": "infinite",
						"excludeFromFee(address)": "26852",
						"getDevelopmentAccount()": "2365",
						"getMarketingAccount()": "2376",
						"getTaxFee()": "2357",
						"includeAccountinReward(address)": "infinite",
						"isExcluded(address)": "2635",
						"isExcludedFromFee(address)": "2658",
						"isWhitelisted(address)": "2574",
						"isWhitelistedAddress(address)": "2591",
						"launchBlock()": "2405",
						"name()": "infinite",
						"openTrading()": "48711",
						"owner()": "2453",
						"pairAddress()": "2403",
						"reflect(uint256)": "infinite",
						"reflectionFee()": "2359",
						"reflectionFromToken(uint256,bool)": "infinite",
						"symbol()": "infinite",
						"totalFeesRedistributed()": "2403",
						"totalSupply()": "2393",
						"tradingOpen()": "2419",
						"transfer(address,uint256)": "infinite",
						"transferFrom(address,address,uint256)": "infinite",
						"whitelistedAddress(address)": "29106"
					},
					"internal": {
						"_getCompleteTaxValue(uint256)": "infinite",
						"_getCurrentSupply()": "infinite",
						"_getRate()": "infinite",
						"_getTransferValues(uint256)": "infinite",
						"_reflectFee(uint256,uint256)": "infinite",
						"_tokenTransfer(address,address,uint256,bool)": "infinite",
						"_transfer(address,address,uint256)": "infinite",
						"_transferBothExcluded(address,address,uint256)": "infinite",
						"_transferFromExcluded(address,address,uint256)": "infinite",
						"_transferStandard(address,address,uint256)": "infinite",
						"_transferToExcluded(address,address,uint256)": "infinite",
						"removeAllFee()": "62689",
						"restoreAllFee()": "infinite",
						"taxFeeTransfer(address,uint256,uint256)": "infinite",
						"tokenFromReflection(uint256)": "infinite"
					}
				},
				"methodIdentifiers": {
					"allowance(address,address)": "dd62ed3e",
					"approve(address,uint256)": "095ea7b3",
					"balanceOf(address)": "70a08231",
					"changeDevelopmentAccount(address)": "706407fd",
					"changeMarketingAccount(address)": "c4863770",
					"changePairAddress(address)": "8873b15f",
					"decimals()": "313ce567",
					"excludeAccountFromReward(address)": "6049876e",
					"excludeFromFee(address)": "437823ec",
					"getDevelopmentAccount()": "1cf8fef5",
					"getMarketingAccount()": "838fcc90",
					"getTaxFee()": "f66608fe",
					"includeAccountinReward(address)": "fdeb889f",
					"isExcluded(address)": "cba0e996",
					"isExcludedFromFee(address)": "5342acb4",
					"isWhitelisted(address)": "3af32abf",
					"isWhitelistedAddress(address)": "5fae0576",
					"launchBlock()": "d00efb2f",
					"name()": "06fdde03",
					"openTrading()": "c9567bf9",
					"owner()": "8da5cb5b",
					"pairAddress()": "a8b08982",
					"reflect(uint256)": "053ab182",
					"reflectionFee()": "83ad7994",
					"reflectionFromToken(uint256,bool)": "4549b039",
					"symbol()": "95d89b41",
					"totalFeesRedistributed()": "32035504",
					"totalSupply()": "18160ddd",
					"tradingOpen()": "ffb54a99",
					"transfer(address,uint256)": "a9059cbb",
					"transferFrom(address,address,uint256)": "23b872dd",
					"whitelistedAddress(address)": "c30796ab"
				}
			},
			"storageLayout": {
				"storage": [
					{
						"astId": 159,
						"contract": "CYBCC.sol:CYBCC",
						"label": "_balances",
						"offset": 0,
						"slot": "0",
						"type": "t_mapping(t_address,t_uint256)"
					},
					{
						"astId": 165,
						"contract": "CYBCC.sol:CYBCC",
						"label": "_allowances",
						"offset": 0,
						"slot": "1",
						"type": "t_mapping(t_address,t_mapping(t_address,t_uint256))"
					},
					{
						"astId": 167,
						"contract": "CYBCC.sol:CYBCC",
						"label": "_totalSupply",
						"offset": 0,
						"slot": "2",
						"type": "t_uint256"
					},
					{
						"astId": 169,
						"contract": "CYBCC.sol:CYBCC",
						"label": "_name",
						"offset": 0,
						"slot": "3",
						"type": "t_string_storage"
					},
					{
						"astId": 171,
						"contract": "CYBCC.sol:CYBCC",
						"label": "_symbol",
						"offset": 0,
						"slot": "4",
						"type": "t_string_storage"
					},
					{
						"astId": 795,
						"contract": "CYBCC.sol:CYBCC",
						"label": "_rOwned",
						"offset": 0,
						"slot": "5",
						"type": "t_mapping(t_address,t_uint256)"
					},
					{
						"astId": 799,
						"contract": "CYBCC.sol:CYBCC",
						"label": "_tOwned",
						"offset": 0,
						"slot": "6",
						"type": "t_mapping(t_address,t_uint256)"
					},
					{
						"astId": 803,
						"contract": "CYBCC.sol:CYBCC",
						"label": "_isExcludedFromFee",
						"offset": 0,
						"slot": "7",
						"type": "t_mapping(t_address,t_bool)"
					},
					{
						"astId": 807,
						"contract": "CYBCC.sol:CYBCC",
						"label": "isWhitelisted",
						"offset": 0,
						"slot": "8",
						"type": "t_mapping(t_address,t_bool)"
					},
					{
						"astId": 811,
						"contract": "CYBCC.sol:CYBCC",
						"label": "_isExcluded",
						"offset": 0,
						"slot": "9",
						"type": "t_mapping(t_address,t_bool)"
					},
					{
						"astId": 814,
						"contract": "CYBCC.sol:CYBCC",
						"label": "_excluded",
						"offset": 0,
						"slot": "10",
						"type": "t_array(t_address)dyn_storage"
					},
					{
						"astId": 816,
						"contract": "CYBCC.sol:CYBCC",
						"label": "_decimals",
						"offset": 0,
						"slot": "11",
						"type": "t_uint8"
					},
					{
						"astId": 820,
						"contract": "CYBCC.sol:CYBCC",
						"label": "_owner",
						"offset": 1,
						"slot": "11",
						"type": "t_address"
					},
					{
						"astId": 829,
						"contract": "CYBCC.sol:CYBCC",
						"label": "_tTotal",
						"offset": 0,
						"slot": "12",
						"type": "t_uint256"
					},
					{
						"astId": 831,
						"contract": "CYBCC.sol:CYBCC",
						"label": "_rTotal",
						"offset": 0,
						"slot": "13",
						"type": "t_uint256"
					},
					{
						"astId": 834,
						"contract": "CYBCC.sol:CYBCC",
						"label": "_tFeeTotal",
						"offset": 0,
						"slot": "14",
						"type": "t_uint256"
					},
					{
						"astId": 836,
						"contract": "CYBCC.sol:CYBCC",
						"label": "_reflectionFee",
						"offset": 0,
						"slot": "15",
						"type": "t_uint256"
					},
					{
						"astId": 838,
						"contract": "CYBCC.sol:CYBCC",
						"label": "_previousReflectionFee",
						"offset": 0,
						"slot": "16",
						"type": "t_uint256"
					},
					{
						"astId": 840,
						"contract": "CYBCC.sol:CYBCC",
						"label": "_taxFee",
						"offset": 0,
						"slot": "17",
						"type": "t_uint256"
					},
					{
						"astId": 842,
						"contract": "CYBCC.sol:CYBCC",
						"label": "_previousTaxFee",
						"offset": 0,
						"slot": "18",
						"type": "t_uint256"
					},
					{
						"astId": 844,
						"contract": "CYBCC.sol:CYBCC",
						"label": "_marketingAccount",
						"offset": 0,
						"slot": "19",
						"type": "t_address"
					},
					{
						"astId": 846,
						"contract": "CYBCC.sol:CYBCC",
						"label": "_developmentAccount",
						"offset": 0,
						"slot": "20",
						"type": "t_address"
					},
					{
						"astId": 848,
						"contract": "CYBCC.sol:CYBCC",
						"label": "pairAddress",
						"offset": 0,
						"slot": "21",
						"type": "t_address"
					},
					{
						"astId": 858,
						"contract": "CYBCC.sol:CYBCC",
						"label": "maxWalletAmount",
						"offset": 0,
						"slot": "22",
						"type": "t_uint256"
					},
					{
						"astId": 860,
						"contract": "CYBCC.sol:CYBCC",
						"label": "launchBlock",
						"offset": 0,
						"slot": "23",
						"type": "t_uint256"
					},
					{
						"astId": 863,
						"contract": "CYBCC.sol:CYBCC",
						"label": "tradingOpen",
						"offset": 0,
						"slot": "24",
						"type": "t_bool"
					}
				],
				"types": {
					"t_address": {
						"encoding": "inplace",
						"label": "address",
						"numberOfBytes": "20"
					},
					"t_array(t_address)dyn_storage": {
						"base": "t_address",
						"encoding": "dynamic_array",
						"label": "address[]",
						"numberOfBytes": "32"
					},
					"t_bool": {
						"encoding": "inplace",
						"label": "bool",
						"numberOfBytes": "1"
					},
					"t_mapping(t_address,t_bool)": {
						"encoding": "mapping",
						"key": "t_address",
						"label": "mapping(address => bool)",
						"numberOfBytes": "32",
						"value": "t_bool"
					},
					"t_mapping(t_address,t_mapping(t_address,t_uint256))": {
						"encoding": "mapping",
						"key": "t_address",
						"label": "mapping(address => mapping(address => uint256))",
						"numberOfBytes": "32",
						"value": "t_mapping(t_address,t_uint256)"
					},
					"t_mapping(t_address,t_uint256)": {
						"encoding": "mapping",
						"key": "t_address",
						"label": "mapping(address => uint256)",
						"numberOfBytes": "32",
						"value": "t_uint256"
					},
					"t_string_storage": {
						"encoding": "bytes",
						"label": "string",
						"numberOfBytes": "32"
					},
					"t_uint256": {
						"encoding": "inplace",
						"label": "uint256",
						"numberOfBytes": "32"
					},
					"t_uint8": {
						"encoding": "inplace",
						"label": "uint8",
						"numberOfBytes": "1"
					}
				}
			},
			"userdoc": {
				"kind": "user",
				"methods": {},
				"version": 1
			}
		}
	}
}