{
	"data": {
		"bytecode": {
			"linkReferences": {},
			"object": "6080604052600b80546101003302610100600160a81b0319821681179092555f600e556100359160ff908116911617600a61041a565b610042906298968061042c565b6016556018805460ff1916905534801561005a575f5ffd5b506040518060400160405280600d81526020016c21aca122a921a0aa29a1a7a4a760991b81525060405180604001604052806005815260200164435942434360d81b81525081600390816100ae91906104db565b5060046100bb82826104db565b5050600b805460ff191660129081179091556100d99150600a61041a565b6100e790633b9aca0061042c565b600c8190556100f7905f19610595565b610102905f196105b4565b600d9081556002600f81905560108190556011819055601255600b8054601380546001600160a01b0319166001600160a01b0361010093849004811691821783555f918252600760209081526040808420805460ff1990811660019081179092559554841685528185208054871682179055601454841685528185208054871682179055308552818520805490961617909455955494549390930490921682526005909352919091208190556101b99033906101be565b6105da565b6001600160a01b0382166101ec5760405163ec442f0560e01b81525f60048201526024015b60405180910390fd5b6101f75f83836101fb565b5050565b6001600160a01b038316610225578060025f82825461021a91906105c7565b909155506102959050565b6001600160a01b0383165f90815260208190526040902054818110156102775760405163391434e360e21b81526001600160a01b038516600482015260248101829052604481018390526064016101e3565b6001600160a01b0384165f9081526020819052604090209082900390555b6001600160a01b0382166102b1576002805482900390556102cf565b6001600160a01b0382165f9081526020819052604090208054820190555b816001600160a01b0316836001600160a01b03167fddf252ad1be2c89b69c2b068fc378daa952ba7f163c4a11628f55a4df523b3ef8360405161031491815260200190565b60405180910390a3505050565b634e487b7160e01b5f52601160045260245ffd5b6001815b60018411156103705780850481111561035457610354610321565b600184161561036257908102905b60019390931c928002610339565b935093915050565b5f8261038657506001610414565b8161039257505f610414565b81600181146103a857600281146103b2576103ce565b6001915050610414565b60ff8411156103c3576103c3610321565b50506001821b610414565b5060208310610133831016604e8410600b84101617156103f1575081810a610414565b6103fd5f198484610335565b805f190482111561041057610410610321565b0290505b92915050565b5f6104258383610378565b9392505050565b808202811582820484141761041457610414610321565b634e487b7160e01b5f52604160045260245ffd5b600181811c9082168061046b57607f821691505b60208210810361048957634e487b7160e01b5f52602260045260245ffd5b50919050565b601f8211156104d657805f5260205f20601f840160051c810160208510156104b45750805b601f840160051c820191505b818110156104d3575f81556001016104c0565b50505b505050565b81516001600160401b038111156104f4576104f4610443565b610508816105028454610457565b8461048f565b6020601f82116001811461053a575f83156105235750848201515b5f19600385901b1c1916600184901b1784556104d3565b5f84815260208120601f198516915b828110156105695787850151825560209485019460019092019101610549565b508482101561058657868401515f19600387901b60f8161c191681555b50505050600190811b01905550565b5f826105af57634e487b7160e01b5f52601260045260245ffd5b500690565b8181038181111561041457610414610321565b8082018082111561041457610414610321565b611be9806105e75f395ff3fe6080604052600436106101c8575f3560e01c8063838fcc90116100f2578063c486377011610092578063dd62ed3e11610062578063dd62ed3e14610533578063f66608fe14610577578063fdeb889f1461058b578063ffb54a99146105aa575f5ffd5b8063c4863770146104b4578063c9567bf9146104d3578063cba0e996146104e7578063d00efb2f1461051e575f5ffd5b80638da5cb5b116100cd5780638da5cb5b1461044057806395d89b4114610462578063a8b0898214610476578063a9059cbb14610495575f5ffd5b8063838fcc90146103f057806383ad79941461040d5780638873b15f14610421575f5ffd5b806332035504116101685780635342acb4116101385780635342acb41461035c5780636049876e14610393578063706407fd146103b257806370a08231146103d1575f5ffd5b806332035504146102dc5780633af32abf146102f0578063437823ec1461031e5780634549b0391461033d575f5ffd5b806318160ddd116101a357806318160ddd1461024d5780631cf8fef51461026b57806323b872dd1461029c578063313ce567146102bb575f5ffd5b8063053ab182146101d357806306fdde03146101f4578063095ea7b31461021e575f5ffd5b366101cf57005b5f5ffd5b3480156101de575f5ffd5b506101f26101ed366004611958565b6105c3565b005b3480156101ff575f5ffd5b506102086106ae565b604051610215919061196f565b60405180910390f35b348015610229575f5ffd5b5061023d6102383660046119bf565b61073e565b6040519015158152602001610215565b348015610258575f5ffd5b50600c545b604051908152602001610215565b348015610276575f5ffd5b506014546001600160a01b03165b6040516001600160a01b039091168152602001610215565b3480156102a7575f5ffd5b5061023d6102b63660046119e7565b610757565b3480156102c6575f5ffd5b50600b5460405160ff9091168152602001610215565b3480156102e7575f5ffd5b50600e5461025d565b3480156102fb575f5ffd5b5061023d61030a366004611a21565b60086020525f908152604090205460ff1681565b348015610329575f5ffd5b506101f2610338366004611a21565b61077a565b348015610348575f5ffd5b5061025d610357366004611a3a565b6107c1565b348015610367575f5ffd5b5061023d610376366004611a21565b6001600160a01b03165f9081526007602052604090205460ff1690565b34801561039e575f5ffd5b506101f26103ad366004611a21565b610847565b3480156103bd575f5ffd5b506101f26103cc366004611a21565b61098c565b3480156103dc575f5ffd5b5061025d6103eb366004611a21565b6109f3565b3480156103fb575f5ffd5b506013546001600160a01b0316610284565b348015610418575f5ffd5b50600f5461025d565b34801561042c575f5ffd5b506101f261043b366004611a21565b610a4f565b34801561044b575f5ffd5b50600b5461010090046001600160a01b0316610284565b34801561046d575f5ffd5b50610208610a90565b348015610481575f5ffd5b50601554610284906001600160a01b031681565b3480156104a0575f5ffd5b5061023d6104af3660046119bf565b610a9f565b3480156104bf575f5ffd5b506101f26104ce366004611a21565b610aac565b3480156104de575f5ffd5b506101f2610b13565b3480156104f2575f5ffd5b5061023d610501366004611a21565b6001600160a01b03165f9081526009602052604090205460ff1690565b348015610529575f5ffd5b5061025d60175481565b34801561053e575f5ffd5b5061025d61054d366004611a6c565b6001600160a01b039182165f90815260016020908152604080832093909416825291909152205490565b348015610582575f5ffd5b5060115461025d565b348015610596575f5ffd5b506101f26105a5366004611a21565b610b48565b3480156105b5575f5ffd5b5060185461023d9060ff1681565b335f8181526009602052604090205460ff161561063c5760405162461bcd60e51b815260206004820152602c60248201527f4578636c75646564206164647265737365732063616e6e6f742063616c6c207460448201526b3434b990333ab731ba34b7b760a11b60648201526084015b60405180910390fd5b5f61064683610ce4565b5050506001600160a01b0383165f9081526005602052604090205490915061066f908290611ab1565b6001600160a01b0383165f90815260056020526040902055600d54610695908290611ab1565b600d55600e546106a6908490611ac4565b600e55505050565b6060600380546106bd90611ad7565b80601f01602080910402602001604051908101604052809291908181526020018280546106e990611ad7565b80156107345780601f1061070b57610100808354040283529160200191610734565b820191905f5260205f20905b81548152906001019060200180831161071757829003601f168201915b5050505050905090565b5f3361074b818585610d35565b60019150505b92915050565b5f33610764858285610d47565b61076f858585610dc3565b506001949350505050565b600b54339061010090046001600160a01b03166001600160a01b0316036107be576001600160a01b0381165f908152600760205260409020805460ff191660011790555b50565b5f600c548311156108145760405162461bcd60e51b815260206004820152601f60248201527f416d6f756e74206d757374206265206c657373207468616e20737570706c79006044820152606401610633565b81610830575f61082384610ce4565b5091935061075192505050565b5f61083a84610ce4565b5090935061075192505050565b600b54339061010090046001600160a01b03166001600160a01b0316036107be576001600160a01b0381165f9081526009602052604090205460ff16156108d05760405162461bcd60e51b815260206004820152601b60248201527f4163636f756e7420697320616c7265616479206578636c7564656400000000006044820152606401610633565b6001600160a01b0381165f9081526005602052604090205415610927576001600160a01b0381165f9081526005602052604090205461090e906110b4565b6001600160a01b0382165f908152600660205260409020555b6001600160a01b03165f818152600960205260408120805460ff19166001908117909155600a805491820181559091527fc65a7bb8d6351c1cf70c95a316cc6a92839c986682d98bc35f958f4883f9d2a80180546001600160a01b0319169091179055565b600b54339061010090046001600160a01b03166001600160a01b0316036107be576001600160a01b0381166109d35760405162461bcd60e51b815260040161063390611b0f565b601480546001600160a01b0383166001600160a01b031990911617905550565b6001600160a01b0381165f9081526009602052604081205460ff1615610a2e57506001600160a01b03165f9081526006602052604090205490565b6001600160a01b0382165f90815260056020526040902054610751906110b4565b600b54339061010090046001600160a01b03166001600160a01b0316036107be57601580546001600160a01b0383166001600160a01b031990911617905550565b6060600480546106bd90611ad7565b5f3361074b818585610dc3565b600b54339061010090046001600160a01b03166001600160a01b0316036107be576001600160a01b038116610af35760405162461bcd60e51b815260040161063390611b0f565b601380546001600160a01b0383166001600160a01b031990911617905550565b600b54339061010090046001600160a01b03166001600160a01b031603610b46576018805460ff19166001179055436017555b565b600b54339061010090046001600160a01b03166001600160a01b0316036107be576001600160a01b0381165f9081526009602052604090205460ff16610bd05760405162461bcd60e51b815260206004820152601b60248201527f4163636f756e7420697320616c726561647920696e636c7564656400000000006044820152606401610633565b5f5b600a54811015610ce057816001600160a01b0316600a8281548110610bf957610bf9611b55565b5f918252602090912001546001600160a01b031603610cd857600a8054610c2290600190611ab1565b81548110610c3257610c32611b55565b5f91825260209091200154600a80546001600160a01b039092169183908110610c5d57610c5d611b55565b5f91825260208083209190910180546001600160a01b0319166001600160a01b039485161790559184168152600682526040808220829055600990925220805460ff19169055600a805480610cb457610cb4611b69565b5f8281526020902081015f1990810180546001600160a01b03191690550190555050565b600101610bd2565b5050565b5f5f5f5f5f610cf286611136565b90505f610cff8288611ab1565b90505f610d0a611169565b90505f610d178284611b7d565b90505f610d24838b611b7d565b9a9199509297509095509350505050565b610d42838383600161118a565b505050565b6001600160a01b038381165f908152600160209081526040808320938616835292905220545f19811015610dbd5781811015610daf57604051637dc7a0d960e11b81526001600160a01b03841660048201526024810182905260448101839052606401610633565b610dbd84848484035f61118a565b50505050565b6018548390839060ff16610e3d576001600160a01b0381165f9081526008602052604090205460ff16610e385760405162461bcd60e51b815260206004820152601760248201527f54726164696e67206e6f742079657420656e61626c65640000000000000000006044820152606401610633565b610ec3565b601754610e4b906003611ac4565b4311610ec3576001600160a01b0381165f9081526008602052604090205460ff16610ec35760405162461bcd60e51b815260206004820152602260248201527f4c61756e63682070726f74656374696f6e3a206e6f742077686974656c697374604482015261195960f21b6064820152608401610633565b6001600160a01b038516610f275760405162461bcd60e51b815260206004820152602560248201527f45524332303a207472616e736665722066726f6d20746865207a65726f206164604482015264647265737360d81b6064820152608401610633565b6001600160a01b038416610f895760405162461bcd60e51b815260206004820152602360248201527f45524332303a207472616e7366657220746f20746865207a65726f206164647260448201526265737360e81b6064820152608401610633565b5f610f93866109f3565b905083811015610ff45760405162461bcd60e51b815260206004820152602660248201527f45524332303a207472616e7366657220616d6f756e7420657863656564732062604482015265616c616e636560d01b6064820152608401610633565b6001600160a01b0385165f9081526007602052604090205460ff1661106b5760165484611020876109f3565b61102a9190611ac4565b111561106b5760405162461bcd60e51b815260206004820152601060248201526f5768616c65206465746563746564212160801b6044820152606401610633565b6015545f906001600160a01b038881169116148061109657506015546001600160a01b038781169116145b1561109f575060015b6110ab8787878461125c565b50505050505050565b5f600d5482111561111a5760405162461bcd60e51b815260206004820152602a60248201527f416d6f756e74206d757374206265206c657373207468616e20746f74616c207260448201526965666c656374696f6e7360b01b6064820152608401610633565b5f611123611169565b905061112f8184611b94565b9392505050565b5f5f601154600f546111489190611ac4565b90505f60646111578386611b7d565b6111619190611b94565b949350505050565b5f5f5f6111746113cb565b90925090506111838183611b94565b9250505090565b6001600160a01b0384166111b35760405163e602df0560e01b81525f6004820152602401610633565b6001600160a01b0383166111dc57604051634a1406b160e11b81525f6004820152602401610633565b6001600160a01b038085165f9081526001602090815260408083209387168352929052208290558015610dbd57826001600160a01b0316846001600160a01b03167f8c5be1e5ebec7d5bd14f71427d1e84f3dd0314c0f7b2291e5b200ac8c7c3b9258460405161124e91815260200190565b60405180910390a350505050565b806112695761126961153b565b6001600160a01b0384165f9081526009602052604090205460ff1680156112a857506001600160a01b0383165f9081526009602052604090205460ff16155b156112bd576112b8848484611568565b6113b5565b6001600160a01b0384165f9081526009602052604090205460ff161580156112fc57506001600160a01b0383165f9081526009602052604090205460ff165b1561130c576112b8848484611683565b6001600160a01b0384165f9081526009602052604090205460ff1615801561134c57506001600160a01b0383165f9081526009602052604090205460ff16155b1561135c576112b8848484611722565b6001600160a01b0384165f9081526009602052604090205460ff16801561139a57506001600160a01b0383165f9081526009602052604090205460ff165b156113aa576112b884848461175c565b6113b5848484611722565b80610dbd57610dbd601054600f55601254601155565b600d54600c545f918291825b600a5481101561150a578260055f600a84815481106113f8576113f8611b55565b5f9182526020808320909101546001600160a01b03168352820192909252604001902054118061146057508160065f600a848154811061143a5761143a611b55565b5f9182526020808320909101546001600160a01b03168352820192909252604001902054115b1561147657600d54600c54945094505050509091565b60055f600a838154811061148c5761148c611b55565b5f9182526020808320909101546001600160a01b031683528201929092526040019020546114ba9084611ab1565b925060065f600a83815481106114d2576114d2611b55565b5f9182526020808320909101546001600160a01b031683528201929092526040019020546115009083611ab1565b91506001016113d7565b50600c54600d5461151b9190611b94565b82101561153257600d54600c549350935050509091565b90939092509050565b600f5415801561154b5750601154155b1561155257565b600f8054601055601180546012555f9182905555565b5f5f5f5f61157585610ce4565b6001600160a01b038b165f90815260066020526040902054939750919550935091506115a2908690611ab1565b6001600160a01b0388165f908152600660209081526040808320939093556005905220546115d1908590611ab1565b6001600160a01b038089165f908152600560205260408082209390935590881681522054611600908490611ac4565b6001600160a01b0387165f908152600560205260409020556116238786836117c5565b61162d8582611906565b856001600160a01b0316876001600160a01b03167fddf252ad1be2c89b69c2b068fc378daa952ba7f163c4a11628f55a4df523b3ef8460405161167291815260200190565b60405180910390a350505050505050565b5f5f5f5f61169085610ce4565b6001600160a01b038b165f90815260056020526040902054939750919550935091506116bd908590611ab1565b6001600160a01b038089165f908152600560209081526040808320949094559189168152600690915220546116f3908390611ac4565b6001600160a01b0387165f90815260066020908152604080832093909355600590522054611600908490611ac4565b5f5f5f5f61172f85610ce4565b6001600160a01b038b165f90815260056020526040902054939750919550935091506115d1908590611ab1565b5f5f5f5f61176985610ce4565b6001600160a01b038b165f9081526006602052604090205493975091955093509150611796908690611ab1565b6001600160a01b0388165f908152600660209081526040808320939093556005905220546116bd908590611ab1565b5f6064601154846117d69190611b7d565b6117e09190611b94565b90508015610dbd575f60026117f58484611b7d565b6117ff9190611b94565b6013546001600160a01b03165f90815260056020526040902054909150611827908290611ac4565b6013546001600160a01b039081165f90815260056020526040808220939093556014549091168152205461185c908290611ac4565b6014546001600160a01b039081165f9081526005602090815260409182902093909355601354905185815290821692918816917fddf252ad1be2c89b69c2b068fc378daa952ba7f163c4a11628f55a4df523b3ef910160405180910390a36014546040518381526001600160a01b03918216918716907fddf252ad1be2c89b69c2b068fc378daa952ba7f163c4a11628f55a4df523b3ef9060200160405180910390a35050505050565b5f6064600f54846119179190611b7d565b6119219190611b94565b90505f61192e8383611b7d565b905080600d5461193e9190611ab1565b600d55600e5461194f908390611ac4565b600e5550505050565b5f60208284031215611968575f5ffd5b5035919050565b602081525f82518060208401528060208501604085015e5f604082850101526040601f19601f83011684010191505092915050565b80356001600160a01b03811681146119ba575f5ffd5b919050565b5f5f604083850312156119d0575f5ffd5b6119d9836119a4565b946020939093013593505050565b5f5f5f606084860312156119f9575f5ffd5b611a02846119a4565b9250611a10602085016119a4565b929592945050506040919091013590565b5f60208284031215611a31575f5ffd5b61112f826119a4565b5f5f60408385031215611a4b575f5ffd5b8235915060208301358015158114611a61575f5ffd5b809150509250929050565b5f5f60408385031215611a7d575f5ffd5b611a86836119a4565b9150611a94602084016119a4565b90509250929050565b634e487b7160e01b5f52601160045260245ffd5b8181038181111561075157610751611a9d565b8082018082111561075157610751611a9d565b600181811c90821680611aeb57607f821691505b602082108103611b0957634e487b7160e01b5f52602260045260245ffd5b50919050565b60208082526026908201527f7a65726f20616464726573732063616e206e6f7420626520746865204665654160408201526518d8dbdd5b9d60d21b606082015260800190565b634e487b7160e01b5f52603260045260245ffd5b634e487b7160e01b5f52603160045260245ffd5b808202811582820484141761075157610751611a9d565b5f82611bae57634e487b7160e01b5f52601260045260245ffd5b50049056fea264697066735822122019380d14c9f7bf1dd1e23090b0947411a4ff74a2dd7729dd5972f733931c61fe64736f6c634300081d0033",
			"opcodes": "PUSH1 0x80 PUSH1 0x40 MSTORE PUSH1 0xB DUP1 SLOAD PUSH2 0x100 CALLER MUL PUSH2 0x100 PUSH1 0x1 PUSH1 0xA8 SHL SUB NOT DUP3 AND DUP2 OR SWAP1 SWAP3 SSTORE PUSH0 PUSH1 0xE SSTORE PUSH2 0x35 SWAP2 PUSH1 0xFF SWAP1 DUP2 AND SWAP2 AND OR PUSH1 0xA PUSH2 0x41A JUMP JUMPDEST PUSH2 0x42 SWAP1 PUSH3 0x989680 PUSH2 0x42C JUMP JUMPDEST PUSH1 0x16 SSTORE PUSH1 0x18 DUP1 SLOAD PUSH1 0xFF NOT AND SWAP1 SSTORE CALLVALUE DUP1 ISZERO PUSH2 0x5A JUMPI PUSH0 PUSH0 REVERT JUMPDEST POP PUSH1 0x40 MLOAD DUP1 PUSH1 0x40 ADD PUSH1 0x40 MSTORE DUP1 PUSH1 0xD DUP2 MSTORE PUSH1 0x20 ADD PUSH13 0x21ACA122A921A0AA29A1A7A4A7 PUSH1 0x99 SHL DUP2 MSTORE POP PUSH1 0x40 MLOAD DUP1 PUSH1 0x40 ADD PUSH1 0x40 MSTORE DUP1 PUSH1 0x5 DUP2 MSTORE PUSH1 0x20 ADD PUSH5 0x4359424343 PUSH1 0xD8 SHL DUP2 MSTORE POP DUP2 PUSH1 0x3 SWAP1 DUP2 PUSH2 0xAE SWAP2 SWAP1 PUSH2 0x4DB JUMP JUMPDEST POP PUSH1 0x4 PUSH2 0xBB DUP3 DUP3 PUSH2 0x4DB JUMP JUMPDEST POP POP PUSH1 0xB DUP1 SLOAD PUSH1 0xFF NOT AND PUSH1 0x12 SWAP1 DUP2 OR SWAP1 SWAP2 SSTORE PUSH2 0xD9 SWAP2 POP PUSH1 0xA PUSH2 0x41A JUMP JUMPDEST PUSH2 0xE7 SWAP1 PUSH4 0x3B9ACA00 PUSH2 0x42C JUMP JUMPDEST PUSH1 0xC DUP2 SWAP1 SSTORE PUSH2 0xF7 SWAP1 PUSH0 NOT PUSH2 0x595 JUMP JUMPDEST PUSH2 0x102 SWAP1 PUSH0 NOT PUSH2 0x5B4 JUMP JUMPDEST PUSH1 0xD SWAP1 DUP2 SSTORE PUSH1 0x2 PUSH1 0xF DUP2 SWAP1 SSTORE PUSH1 0x10 DUP2 SWAP1 SSTORE PUSH1 0x11 DUP2 SWAP1 SSTORE PUSH1 0x12 SSTORE PUSH1 0xB DUP1 SLOAD PUSH1 0x13 DUP1 SLOAD PUSH1 0x1 PUSH1 0x1 PUSH1 0xA0 SHL SUB NOT AND PUSH1 0x1 PUSH1 0x1 PUSH1 0xA0 SHL SUB PUSH2 0x100 SWAP4 DUP5 SWAP1 DIV DUP2 AND SWAP2 DUP3 OR DUP4 SSTORE PUSH0 SWAP2 DUP3 MSTORE PUSH1 0x7 PUSH1 0x20 SWAP1 DUP2 MSTORE PUSH1 0x40 DUP1 DUP5 KECCAK256 DUP1 SLOAD PUSH1 0xFF NOT SWAP1 DUP2 AND PUSH1 0x1 SWAP1 DUP2 OR SWAP1 SWAP3 SSTORE SWAP6 SLOAD DUP5 AND DUP6 MSTORE DUP2 DUP6 KECCAK256 DUP1 SLOAD DUP8 AND DUP3 OR SWAP1 SSTORE PUSH1 0x14 SLOAD DUP5 AND DUP6 MSTORE DUP2 DUP6 KECCAK256 DUP1 SLOAD DUP8 AND DUP3 OR SWAP1 SSTORE ADDRESS DUP6 MSTORE DUP2 DUP6 KECCAK256 DUP1 SLOAD SWAP1 SWAP7 AND OR SWAP1 SWAP5 SSTORE SWAP6 SLOAD SWAP5 SLOAD SWAP4 SWAP1 SWAP4 DIV SWAP1 SWAP3 AND DUP3 MSTORE PUSH1 0x5 SWAP1 SWAP4 MSTORE SWAP2 SWAP1 SWAP2 KECCAK256 DUP2 SWAP1 SSTORE PUSH2 0x1B9 SWAP1 CALLER SWAP1 PUSH2 0x1BE JUMP JUMPDEST PUSH2 0x5DA JUMP JUMPDEST PUSH1 0x1 PUSH1 0x1 PUSH1 0xA0 SHL SUB DUP3 AND PUSH2 0x1EC JUMPI PUSH1 0x40 MLOAD PUSH4 0xEC442F05 PUSH1 0xE0 SHL DUP2 MSTORE PUSH0 PUSH1 0x4 DUP3 ADD MSTORE PUSH1 0x24 ADD JUMPDEST PUSH1 0x40 MLOAD DUP1 SWAP2 SUB SWAP1 REVERT JUMPDEST PUSH2 0x1F7 PUSH0 DUP4 DUP4 PUSH2 0x1FB JUMP JUMPDEST POP POP JUMP JUMPDEST PUSH1 0x1 PUSH1 0x1 PUSH1 0xA0 SHL SUB DUP4 AND PUSH2 0x225 JUMPI DUP1 PUSH1 0x2 PUSH0 DUP3 DUP3 SLOAD PUSH2 0x21A SWAP2 SWAP1 PUSH2 0x5C7 JUMP JUMPDEST SWAP1 SWAP2 SSTORE POP PUSH2 0x295 SWAP1 POP JUMP JUMPDEST PUSH1 0x1 PUSH1 0x1 PUSH1 0xA0 SHL SUB DUP4 AND PUSH0 SWAP1 DUP2 MSTORE PUSH1 0x20 DUP2 SWAP1 MSTORE PUSH1 0x40 SWAP1 KECCAK256 SLOAD DUP2 DUP2 LT ISZERO PUSH2 0x277 JUMPI PUSH1 0x40 MLOAD PUSH4 0x391434E3 PUSH1 0xE2 SHL DUP2 MSTORE PUSH1 0x1 PUSH1 0x1 PUSH1 0xA0 SHL SUB DUP6 AND PUSH1 0x4 DUP3 ADD MSTORE PUSH1 0x24 DUP2 ADD DUP3 SWAP1 MSTORE PUSH1 0x44 DUP2 ADD DUP4 SWAP1 MSTORE PUSH1 0x64 ADD PUSH2 0x1E3 JUMP JUMPDEST PUSH1 0x1 PUSH1 0x1 PUSH1 0xA0 SHL SUB DUP5 AND PUSH0 SWAP1 DUP2 MSTORE PUSH1 0x20 DUP2 SWAP1 MSTORE PUSH1 0x40 SWAP1 KECCAK256 SWAP1 DUP3 SWAP1 SUB SWAP1 SSTORE JUMPDEST PUSH1 0x1 PUSH1 0x1 PUSH1 0xA0 SHL SUB DUP3 AND PUSH2 0x2B1 JUMPI PUSH1 0x2 DUP1 SLOAD DUP3 SWAP1 SUB SWAP1 SSTORE PUSH2 0x2CF JUMP JUMPDEST PUSH1 0x1 PUSH1 0x1 PUSH1 0xA0 SHL SUB DUP3 AND PUSH0 SWAP1 DUP2 MSTORE PUSH1 0x20 DUP2 SWAP1 MSTORE PUSH1 0x40 SWAP1 KECCAK256 DUP1 SLOAD DUP3 ADD SWAP1 SSTORE JUMPDEST DUP2 PUSH1 0x1 PUSH1 0x1 PUSH1 0xA0 SHL SUB AND DUP4 PUSH1 0x1 PUSH1 0x1 PUSH1 0xA0 SHL SUB AND PUSH32 0xDDF252AD1BE2C89B69C2B068FC378DAA952BA7F163C4A11628F55A4DF523B3EF DUP4 PUSH1 0x40 MLOAD PUSH2 0x314 SWAP2 DUP2 MSTORE PUSH1 0x20 ADD SWAP1 JUMP JUMPDEST PUSH1 0x40 MLOAD DUP1 SWAP2 SUB SWAP1 LOG3 POP POP POP JUMP JUMPDEST PUSH4 0x4E487B71 PUSH1 0xE0 SHL PUSH0 MSTORE PUSH1 0x11 PUSH1 0x4 MSTORE PUSH1 0x24 PUSH0 REVERT JUMPDEST PUSH1 0x1 DUP2 JUMPDEST PUSH1 0x1 DUP5 GT ISZERO PUSH2 0x370 JUMPI DUP1 DUP6 DIV DUP2 GT ISZERO PUSH2 0x354 JUMPI PUSH2 0x354 PUSH2 0x321 JUMP JUMPDEST PUSH1 0x1 DUP5 AND ISZERO PUSH2 0x362 JUMPI SWAP1 DUP2 MUL SWAP1 JUMPDEST PUSH1 0x1 SWAP4 SWAP1 SWAP4 SHR SWAP3 DUP1 MUL PUSH2 0x339 JUMP JUMPDEST SWAP4 POP SWAP4 SWAP2 POP POP JUMP JUMPDEST PUSH0 DUP3 PUSH2 0x386 JUMPI POP PUSH1 0x1 PUSH2 0x414 JUMP JUMPDEST DUP2 PUSH2 0x392 JUMPI POP PUSH0 PUSH2 0x414 JUMP JUMPDEST DUP2 PUSH1 0x1 DUP2 EQ PUSH2 0x3A8 JUMPI PUSH1 0x2 DUP2 EQ PUSH2 0x3B2 JUMPI PUSH2 0x3CE JUMP JUMPDEST PUSH1 0x1 SWAP2 POP POP PUSH2 0x414 JUMP JUMPDEST PUSH1 0xFF DUP5 GT ISZERO PUSH2 0x3C3 JUMPI PUSH2 0x3C3 PUSH2 0x321 JUMP JUMPDEST POP POP PUSH1 0x1 DUP3 SHL PUSH2 0x414 JUMP JUMPDEST POP PUSH1 0x20 DUP4 LT PUSH2 0x133 DUP4 LT AND PUSH1 0x4E DUP5 LT PUSH1 0xB DUP5 LT AND OR ISZERO PUSH2 0x3F1 JUMPI POP DUP2 DUP2 EXP PUSH2 0x414 JUMP JUMPDEST PUSH2 0x3FD PUSH0 NOT DUP5 DUP5 PUSH2 0x335 JUMP JUMPDEST DUP1 PUSH0 NOT DIV DUP3 GT ISZERO PUSH2 0x410 JUMPI PUSH2 0x410 PUSH2 0x321 JUMP JUMPDEST MUL SWAP1 POP JUMPDEST SWAP3 SWAP2 POP POP JUMP JUMPDEST PUSH0 PUSH2 0x425 DUP4 DUP4 PUSH2 0x378 JUMP JUMPDEST SWAP4 SWAP3 POP POP POP JUMP JUMPDEST DUP1 DUP3 MUL DUP2 ISZERO DUP3 DUP3 DIV DUP5 EQ OR PUSH2 0x414 JUMPI PUSH2 0x414 PUSH2 0x321 JUMP JUMPDEST PUSH4 0x4E487B71 PUSH1 0xE0 SHL PUSH0 MSTORE PUSH1 0x41 PUSH1 0x4 MSTORE PUSH1 0x24 PUSH0 REVERT JUMPDEST PUSH1 0x1 DUP2 DUP2 SHR SWAP1 DUP3 AND DUP1 PUSH2 0x46B JUMPI PUSH1 0x7F DUP3 AND SWAP2 POP JUMPDEST PUSH1 0x20 DUP3 LT DUP2 SUB PUSH2 0x489 JUMPI PUSH4 0x4E487B71 PUSH1 0xE0 SHL PUSH0 MSTORE PUSH1 0x22 PUSH1 0x4 MSTORE PUSH1 0x24 PUSH0 REVERT JUMPDEST POP SWAP2 SWAP1 POP JUMP JUMPDEST PUSH1 0x1F DUP3 GT ISZERO PUSH2 0x4D6 JUMPI DUP1 PUSH0 MSTORE PUSH1 0x20 PUSH0 KECCAK256 PUSH1 0x1F DUP5 ADD PUSH1 0x5 SHR DUP2 ADD PUSH1 0x20 DUP6 LT ISZERO PUSH2 0x4B4 JUMPI POP DUP1 JUMPDEST PUSH1 0x1F DUP5 ADD PUSH1 0x5 SHR DUP3 ADD SWAP2 POP JUMPDEST DUP2 DUP2 LT ISZERO PUSH2 0x4D3 JUMPI PUSH0 DUP2 SSTORE PUSH1 0x1 ADD PUSH2 0x4C0 JUMP JUMPDEST POP POP JUMPDEST POP POP POP JUMP JUMPDEST DUP2 MLOAD PUSH1 0x1 PUSH1 0x1 PUSH1 0x40 SHL SUB DUP2 GT ISZERO PUSH2 0x4F4 JUMPI PUSH2 0x4F4 PUSH2 0x443 JUMP JUMPDEST PUSH2 0x508 DUP2 PUSH2 0x502 DUP5 SLOAD PUSH2 0x457 JUMP JUMPDEST DUP5 PUSH2 0x48F JUMP JUMPDEST PUSH1 0x20 PUSH1 0x1F DUP3 GT PUSH1 0x1 DUP2 EQ PUSH2 0x53A JUMPI PUSH0 DUP4 ISZERO PUSH2 0x523 JUMPI POP DUP5 DUP3 ADD MLOAD JUMPDEST PUSH0 NOT PUSH1 0x3 DUP6 SWAP1 SHL SHR NOT AND PUSH1 0x1 DUP5 SWAP1 SHL OR DUP5 SSTORE PUSH2 0x4D3 JUMP JUMPDEST PUSH0 DUP5 DUP2 MSTORE PUSH1 0x20 DUP2 KECCAK256 PUSH1 0x1F NOT DUP6 AND SWAP2 JUMPDEST DUP3 DUP2 LT ISZERO PUSH2 0x569 JUMPI DUP8 DUP6 ADD MLOAD DUP3 SSTORE PUSH1 0x20 SWAP5 DUP6 ADD SWAP5 PUSH1 0x1 SWAP1 SWAP3 ADD SWAP2 ADD PUSH2 0x549 JUMP JUMPDEST POP DUP5 DUP3 LT ISZERO PUSH2 0x586 JUMPI DUP7 DUP5 ADD MLOAD PUSH0 NOT PUSH1 0x3 DUP8 SWAP1 SHL PUSH1 0xF8 AND SHR NOT AND DUP2 SSTORE JUMPDEST POP POP POP POP PUSH1 0x1 SWAP1 DUP2 SHL ADD SWAP1 SSTORE POP JUMP JUMPDEST PUSH0 DUP3 PUSH2 0x5AF JUMPI PUSH4 0x4E487B71 PUSH1 0xE0 SHL PUSH0 MSTORE PUSH1 0x12 PUSH1 0x4 MSTORE PUSH1 0x24 PUSH0 REVERT JUMPDEST POP MOD SWAP1 JUMP JUMPDEST DUP2 DUP2 SUB DUP2 DUP2 GT ISZERO PUSH2 0x414 JUMPI PUSH2 0x414 PUSH2 0x321 JUMP JUMPDEST DUP1 DUP3 ADD DUP1 DUP3 GT ISZERO PUSH2 0x414 JUMPI PUSH2 0x414 PUSH2 0x321 JUMP JUMPDEST PUSH2 0x1BE9 DUP1 PUSH2 0x5E7 PUSH0 CODECOPY PUSH0 RETURN INVALID PUSH1 0x80 PUSH1 0x40 MSTORE PUSH1 0x4 CALLDATASIZE LT PUSH2 0x1C8 JUMPI PUSH0 CALLDATALOAD PUSH1 0xE0 SHR DUP1 PUSH4 0x838FCC90 GT PUSH2 0xF2 JUMPI DUP1 PUSH4 0xC4863770 GT PUSH2 0x92 JUMPI DUP1 PUSH4 0xDD62ED3E GT PUSH2 0x62 JUMPI DUP1 PUSH4 0xDD62ED3E EQ PUSH2 0x533 JUMPI DUP1 PUSH4 0xF66608FE EQ PUSH2 0x577 JUMPI DUP1 PUSH4 0xFDEB889F EQ PUSH2 0x58B JUMPI DUP1 PUSH4 0xFFB54A99 EQ PUSH2 0x5AA JUMPI PUSH0 PUSH0 REVERT JUMPDEST DUP1 PUSH4 0xC4863770 EQ PUSH2 0x4B4 JUMPI DUP1 PUSH4 0xC9567BF9 EQ PUSH2 0x4D3 JUMPI DUP1 PUSH4 0xCBA0E996 EQ PUSH2 0x4E7 JUMPI DUP1 PUSH4 0xD00EFB2F EQ PUSH2 0x51E JUMPI PUSH0 PUSH0 REVERT JUMPDEST DUP1 PUSH4 0x8DA5CB5B GT PUSH2 0xCD JUMPI DUP1 PUSH4 0x8DA5CB5B EQ PUSH2 0x440 JUMPI DUP1 PUSH4 0x95D89B41 EQ PUSH2 0x462 JUMPI DUP1 PUSH4 0xA8B08982 EQ PUSH2 0x476 JUMPI DUP1 PUSH4 0xA9059CBB EQ PUSH2 0x495 JUMPI PUSH0 PUSH0 REVERT JUMPDEST DUP1 PUSH4 0x838FCC90 EQ PUSH2 0x3F0 JUMPI DUP1 PUSH4 0x83AD7994 EQ PUSH2 0x40D JUMPI DUP1 PUSH4 0x8873B15F EQ PUSH2 0x421 JUMPI PUSH0 PUSH0 REVERT JUMPDEST DUP1 PUSH4 0x32035504 GT PUSH2 0x168 JUMPI DUP1 PUSH4 0x5342ACB4 GT PUSH2 0x138 JUMPI DUP1 PUSH4 0x5342ACB4 EQ PUSH2 0x35C JUMPI DUP1 PUSH4 0x6049876E EQ PUSH2 0x393 JUMPI DUP1 PUSH4 0x706407FD EQ PUSH2 0x3B2 JUMPI DUP1 PUSH4 0x70A08231 EQ PUSH2 0x3D1 JUMPI PUSH0 PUSH0 REVERT JUMPDEST DUP1 PUSH4 0x32035504 EQ PUSH2 0x2DC JUMPI DUP1 PUSH4 0x3AF32ABF EQ PUSH2 0x2F0 JUMPI DUP1 PUSH4 0x437823EC EQ PUSH2 0x31E JUMPI DUP1 PUSH4 0x4549B039 EQ PUSH2 0x33D JUMPI PUSH0 PUSH0 REVERT JUMPDEST DUP1 PUSH4 0x18160DDD GT PUSH2 0x1A3 JUMPI DUP1 PUSH4 0x18160DDD EQ PUSH2 0x24D JUMPI DUP1 PUSH4 0x1CF8FEF5 EQ PUSH2 0x26B JUMPI DUP1 PUSH4 0x23B872DD EQ PUSH2 0x29C JUMPI DUP1 PUSH4 0x313CE567 EQ PUSH2 0x2BB JUMPI PUSH0 PUSH0 REVERT JUMPDEST DUP1 PUSH4 0x53AB182 EQ PUSH2 0x1D3 JUMPI DUP1 PUSH4 0x6FDDE03 EQ PUSH2 0x1F4 JUMPI DUP1 PUSH4 0x95EA7B3 EQ PUSH2 0x21E JUMPI PUSH0 PUSH0 REVERT JUMPDEST CALLDATASIZE PUSH2 0x1CF JUMPI STOP JUMPDEST PUSH0 PUSH0 REVERT JUMPDEST CALLVALUE DUP1 ISZERO PUSH2 0x1DE JUMPI PUSH0 PUSH0 REVERT JUMPDEST POP PUSH2 0x1F2 PUSH2 0x1ED CALLDATASIZE PUSH1 0x4 PUSH2 0x1958 JUMP JUMPDEST PUSH2 0x5C3 JUMP JUMPDEST STOP JUMPDEST CALLVALUE DUP1 ISZERO PUSH2 0x1FF JUMPI PUSH0 PUSH0 REVERT JUMPDEST POP PUSH2 0x208 PUSH2 0x6AE JUMP JUMPDEST PUSH1 0x40 MLOAD PUSH2 0x215 SWAP2 SWAP1 PUSH2 0x196F JUMP JUMPDEST PUSH1 0x40 MLOAD DUP1 SWAP2 SUB SWAP1 RETURN JUMPDEST CALLVALUE DUP1 ISZERO PUSH2 0x229 JUMPI PUSH0 PUSH0 REVERT JUMPDEST POP PUSH2 0x23D PUSH2 0x238 CALLDATASIZE PUSH1 0x4 PUSH2 0x19BF JUMP JUMPDEST PUSH2 0x73E JUMP JUMPDEST PUSH1 0x40 MLOAD SWAP1 ISZERO ISZERO DUP2 MSTORE PUSH1 0x20 ADD PUSH2 0x215 JUMP JUMPDEST CALLVALUE DUP1 ISZERO PUSH2 0x258 JUMPI PUSH0 PUSH0 REVERT JUMPDEST POP PUSH1 0xC SLOAD JUMPDEST PUSH1 0x40 MLOAD SWAP1 DUP2 MSTORE PUSH1 0x20 ADD PUSH2 0x215 JUMP JUMPDEST CALLVALUE DUP1 ISZERO PUSH2 0x276 JUMPI PUSH0 PUSH0 REVERT JUMPDEST POP PUSH1 0x14 SLOAD PUSH1 0x1 PUSH1 0x1 PUSH1 0xA0 SHL SUB AND JUMPDEST PUSH1 0x40 MLOAD PUSH1 0x1 PUSH1 0x1 PUSH1 0xA0 SHL SUB SWAP1 SWAP2 AND DUP2 MSTORE PUSH1 0x20 ADD PUSH2 0x215 JUMP JUMPDEST CALLVALUE DUP1 ISZERO PUSH2 0x2A7 JUMPI PUSH0 PUSH0 REVERT JUMPDEST POP PUSH2 0x23D PUSH2 0x2B6 CALLDATASIZE PUSH1 0x4 PUSH2 0x19E7 JUMP JUMPDEST PUSH2 0x757 JUMP JUMPDEST CALLVALUE DUP1 ISZERO PUSH2 0x2C6 JUMPI PUSH0 PUSH0 REVERT JUMPDEST POP PUSH1 0xB SLOAD PUSH1 0x40 MLOAD PUSH1 0xFF SWAP1 SWAP2 AND DUP2 MSTORE PUSH1 0x20 ADD PUSH2 0x215 JUMP JUMPDEST CALLVALUE DUP1 ISZERO PUSH2 0x2E7 JUMPI PUSH0 PUSH0 REVERT JUMPDEST POP PUSH1 0xE SLOAD PUSH2 0x25D JUMP JUMPDEST CALLVALUE DUP1 ISZERO PUSH2 0x2FB JUMPI PUSH0 PUSH0 REVERT JUMPDEST POP PUSH2 0x23D PUSH2 0x30A CALLDATASIZE PUSH1 0x4 PUSH2 0x1A21 JUMP JUMPDEST PUSH1 0x8 PUSH1 0x20 MSTORE PUSH0 SWAP1 DUP2 MSTORE PUSH1 0x40 SWAP1 KECCAK256 SLOAD PUSH1 0xFF AND DUP2 JUMP JUMPDEST CALLVALUE DUP1 ISZERO PUSH2 0x329 JUMPI PUSH0 PUSH0 REVERT JUMPDEST POP PUSH2 0x1F2 PUSH2 0x338 CALLDATASIZE PUSH1 0x4 PUSH2 0x1A21 JUMP JUMPDEST PUSH2 0x77A JUMP JUMPDEST CALLVALUE DUP1 ISZERO PUSH2 0x348 JUMPI PUSH0 PUSH0 REVERT JUMPDEST POP PUSH2 0x25D PUSH2 0x357 CALLDATASIZE PUSH1 0x4 PUSH2 0x1A3A JUMP JUMPDEST PUSH2 0x7C1 JUMP JUMPDEST CALLVALUE DUP1 ISZERO PUSH2 0x367 JUMPI PUSH0 PUSH0 REVERT JUMPDEST POP PUSH2 0x23D PUSH2 0x376 CALLDATASIZE PUSH1 0x4 PUSH2 0x1A21 JUMP JUMPDEST PUSH1 0x1 PUSH1 0x1 PUSH1 0xA0 SHL SUB AND PUSH0 SWAP1 DUP2 MSTORE PUSH1 0x7 PUSH1 0x20 MSTORE PUSH1 0x40 SWAP1 KECCAK256 SLOAD PUSH1 0xFF AND SWAP1 JUMP JUMPDEST CALLVALUE DUP1 ISZERO PUSH2 0x39E JUMPI PUSH0 PUSH0 REVERT JUMPDEST POP PUSH2 0x1F2 PUSH2 0x3AD CALLDATASIZE PUSH1 0x4 PUSH2 0x1A21 JUMP JUMPDEST PUSH2 0x847 JUMP JUMPDEST CALLVALUE DUP1 ISZERO PUSH2 0x3BD JUMPI PUSH0 PUSH0 REVERT JUMPDEST POP PUSH2 0x1F2 PUSH2 0x3CC CALLDATASIZE PUSH1 0x4 PUSH2 0x1A21 JUMP JUMPDEST PUSH2 0x98C JUMP JUMPDEST CALLVALUE DUP1 ISZERO PUSH2 0x3DC JUMPI PUSH0 PUSH0 REVERT JUMPDEST POP PUSH2 0x25D PUSH2 0x3EB CALLDATASIZE PUSH1 0x4 PUSH2 0x1A21 JUMP JUMPDEST PUSH2 0x9F3 JUMP JUMPDEST CALLVALUE DUP1 ISZERO PUSH2 0x3FB JUMPI PUSH0 PUSH0 REVERT JUMPDEST POP PUSH1 0x13 SLOAD PUSH1 0x1 PUSH1 0x1 PUSH1 0xA0 SHL SUB AND PUSH2 0x284 JUMP JUMPDEST CALLVALUE DUP1 ISZERO PUSH2 0x418 JUMPI PUSH0 PUSH0 REVERT JUMPDEST POP PUSH1 0xF SLOAD PUSH2 0x25D JUMP JUMPDEST CALLVALUE DUP1 ISZERO PUSH2 0x42C JUMPI PUSH0 PUSH0 REVERT JUMPDEST POP PUSH2 0x1F2 PUSH2 0x43B CALLDATASIZE PUSH1 0x4 PUSH2 0x1A21 JUMP JUMPDEST PUSH2 0xA4F JUMP JUMPDEST CALLVALUE DUP1 ISZERO PUSH2 0x44B JUMPI PUSH0 PUSH0 REVERT JUMPDEST POP PUSH1 0xB SLOAD PUSH2 0x100 SWAP1 DIV PUSH1 0x1 PUSH1 0x1 PUSH1 0xA0 SHL SUB AND PUSH2 0x284 JUMP JUMPDEST CALLVALUE DUP1 ISZERO PUSH2 0x46D JUMPI PUSH0 PUSH0 REVERT JUMPDEST POP PUSH2 0x208 PUSH2 0xA90 JUMP JUMPDEST CALLVALUE DUP1 ISZERO PUSH2 0x481 JUMPI PUSH0 PUSH0 REVERT JUMPDEST POP PUSH1 0x15 SLOAD PUSH2 0x284 SWAP1 PUSH1 0x1 PUSH1 0x1 PUSH1 0xA0 SHL SUB AND DUP2 JUMP JUMPDEST CALLVALUE DUP1 ISZERO PUSH2 0x4A0 JUMPI PUSH0 PUSH0 REVERT JUMPDEST POP PUSH2 0x23D PUSH2 0x4AF CALLDATASIZE PUSH1 0x4 PUSH2 0x19BF JUMP JUMPDEST PUSH2 0xA9F JUMP JUMPDEST CALLVALUE DUP1 ISZERO PUSH2 0x4BF JUMPI PUSH0 PUSH0 REVERT JUMPDEST POP PUSH2 0x1F2 PUSH2 0x4CE CALLDATASIZE PUSH1 0x4 PUSH2 0x1A21 JUMP JUMPDEST PUSH2 0xAAC JUMP JUMPDEST CALLVALUE DUP1 ISZERO PUSH2 0x4DE JUMPI PUSH0 PUSH0 REVERT JUMPDEST POP PUSH2 0x1F2 PUSH2 0xB13 JUMP JUMPDEST CALLVALUE DUP1 ISZERO PUSH2 0x4F2 JUMPI PUSH0 PUSH0 REVERT JUMPDEST POP PUSH2 0x23D PUSH2 0x501 CALLDATASIZE PUSH1 0x4 PUSH2 0x1A21 JUMP JUMPDEST PUSH1 0x1 PUSH1 0x1 PUSH1 0xA0 SHL SUB AND PUSH0 SWAP1 DUP2 MSTORE PUSH1 0x9 PUSH1 0x20 MSTORE PUSH1 0x40 SWAP1 KECCAK256 SLOAD PUSH1 0xFF AND SWAP1 JUMP JUMPDEST CALLVALUE DUP1 ISZERO PUSH2 0x529 JUMPI PUSH0 PUSH0 REVERT JUMPDEST POP PUSH2 0x25D PUSH1 0x17 SLOAD DUP2 JUMP JUMPDEST CALLVALUE DUP1 ISZERO PUSH2 0x53E JUMPI PUSH0 PUSH0 REVERT JUMPDEST POP PUSH2 0x25D PUSH2 0x54D CALLDATASIZE PUSH1 0x4 PUSH2 0x1A6C JUMP JUMPDEST PUSH1 0x1 PUSH1 0x1 PUSH1 0xA0 SHL SUB SWAP2 DUP3 AND PUSH0 SWAP1 DUP2 MSTORE PUSH1 0x1 PUSH1 0x20 SWAP1 DUP2 MSTORE PUSH1 0x40 DUP1 DUP4 KECCAK256 SWAP4 SWAP1 SWAP5 AND DUP3 MSTORE SWAP2 SWAP1 SWAP2 MSTORE KECCAK256 SLOAD SWAP1 JUMP JUMPDEST CALLVALUE DUP1 ISZERO PUSH2 0x582 JUMPI PUSH0 PUSH0 REVERT JUMPDEST POP PUSH1 0x11 SLOAD PUSH2 0x25D JUMP JUMPDEST CALLVALUE DUP1 ISZERO PUSH2 0x596 JUMPI PUSH0 PUSH0 REVERT JUMPDEST POP PUSH2 0x1F2 PUSH2 0x5A5 CALLDATASIZE PUSH1 0x4 PUSH2 0x1A21 JUMP JUMPDEST PUSH2 0xB48 JUMP JUMPDEST CALLVALUE DUP1 ISZERO PUSH2 0x5B5 JUMPI PUSH0 PUSH0 REVERT JUMPDEST POP PUSH1 0x18 SLOAD PUSH2 0x23D SWAP1 PUSH1 0xFF AND DUP2 JUMP JUMPDEST CALLER PUSH0 DUP2 DUP2 MSTORE PUSH1 0x9 PUSH1 0x20 MSTORE PUSH1 0x40 SWAP1 KECCAK256 SLOAD PUSH1 0xFF AND ISZERO PUSH2 0x63C JUMPI PUSH1 0x40 MLOAD PUSH3 0x461BCD PUSH1 0xE5 SHL DUP2 MSTORE PUSH1 0x20 PUSH1 0x4 DUP3 ADD MSTORE PUSH1 0x2C PUSH1 0x24 DUP3 ADD MSTORE PUSH32 0x4578636C75646564206164647265737365732063616E6E6F742063616C6C2074 PUSH1 0x44 DUP3 ADD MSTORE PUSH12 0x3434B990333AB731BA34B7B7 PUSH1 0xA1 SHL PUSH1 0x64 DUP3 ADD MSTORE PUSH1 0x84 ADD JUMPDEST PUSH1 0x40 MLOAD DUP1 SWAP2 SUB SWAP1 REVERT JUMPDEST PUSH0 PUSH2 0x646 DUP4 PUSH2 0xCE4 JUMP JUMPDEST POP POP POP PUSH1 0x1 PUSH1 0x1 PUSH1 0xA0 SHL SUB DUP4 AND PUSH0 SWAP1 DUP2 MSTORE PUSH1 0x5 PUSH1 0x20 MSTORE PUSH1 0x40 SWAP1 KECCAK256 SLOAD SWAP1 SWAP2 POP PUSH2 0x66F SWAP1 DUP3 SWAP1 PUSH2 0x1AB1 JUMP JUMPDEST PUSH1 0x1 PUSH1 0x1 PUSH1 0xA0 SHL SUB DUP4 AND PUSH0 SWAP1 DUP2 MSTORE PUSH1 0x5 PUSH1 0x20 MSTORE PUSH1 0x40 SWAP1 KECCAK256 SSTORE PUSH1 0xD SLOAD PUSH2 0x695 SWAP1 DUP3 SWAP1 PUSH2 0x1AB1 JUMP JUMPDEST PUSH1 0xD SSTORE PUSH1 0xE SLOAD PUSH2 0x6A6 SWAP1 DUP5 SWAP1 PUSH2 0x1AC4 JUMP JUMPDEST PUSH1 0xE SSTORE POP POP POP JUMP JUMPDEST PUSH1 0x60 PUSH1 0x3 DUP1 SLOAD PUSH2 0x6BD SWAP1 PUSH2 0x1AD7 JUMP JUMPDEST DUP1 PUSH1 0x1F ADD PUSH1 0x20 DUP1 SWAP2 DIV MUL PUSH1 0x20 ADD PUSH1 0x40 MLOAD SWAP1 DUP2 ADD PUSH1 0x40 MSTORE DUP1 SWAP3 SWAP2 SWAP1 DUP2 DUP2 MSTORE PUSH1 0x20 ADD DUP3 DUP1 SLOAD PUSH2 0x6E9 SWAP1 PUSH2 0x1AD7 JUMP JUMPDEST DUP1 ISZERO PUSH2 0x734 JUMPI DUP1 PUSH1 0x1F LT PUSH2 0x70B JUMPI PUSH2 0x100 DUP1 DUP4 SLOAD DIV MUL DUP4 MSTORE SWAP2 PUSH1 0x20 ADD SWAP2 PUSH2 0x734 JUMP JUMPDEST DUP3 ADD SWAP2 SWAP1 PUSH0 MSTORE PUSH1 0x20 PUSH0 KECCAK256 SWAP1 JUMPDEST DUP2 SLOAD DUP2 MSTORE SWAP1 PUSH1 0x1 ADD SWAP1 PUSH1 0x20 ADD DUP1 DUP4 GT PUSH2 0x717 JUMPI DUP3 SWAP1 SUB PUSH1 0x1F AND DUP3 ADD SWAP2 JUMPDEST POP POP POP POP POP SWAP1 POP SWAP1 JUMP JUMPDEST PUSH0 CALLER PUSH2 0x74B DUP2 DUP6 DUP6 PUSH2 0xD35 JUMP JUMPDEST PUSH1 0x1 SWAP2 POP POP JUMPDEST SWAP3 SWAP2 POP POP JUMP JUMPDEST PUSH0 CALLER PUSH2 0x764 DUP6 DUP3 DUP6 PUSH2 0xD47 JUMP JUMPDEST PUSH2 0x76F DUP6 DUP6 DUP6 PUSH2 0xDC3 JUMP JUMPDEST POP PUSH1 0x1 SWAP5 SWAP4 POP POP POP POP JUMP JUMPDEST PUSH1 0xB SLOAD CALLER SWAP1 PUSH2 0x100 SWAP1 DIV PUSH1 0x1 PUSH1 0x1 PUSH1 0xA0 SHL SUB AND PUSH1 0x1 PUSH1 0x1 PUSH1 0xA0 SHL SUB AND SUB PUSH2 0x7BE JUMPI PUSH1 0x1 PUSH1 0x1 PUSH1 0xA0 SHL SUB DUP2 AND PUSH0 SWAP1 DUP2 MSTORE PUSH1 0x7 PUSH1 0x20 MSTORE PUSH1 0x40 SWAP1 KECCAK256 DUP1 SLOAD PUSH1 0xFF NOT AND PUSH1 0x1 OR SWAP1 SSTORE JUMPDEST POP JUMP JUMPDEST PUSH0 PUSH1 0xC SLOAD DUP4 GT ISZERO PUSH2 0x814 JUMPI PUSH1 0x40 MLOAD PUSH3 0x461BCD PUSH1 0xE5 SHL DUP2 MSTORE PUSH1 0x20 PUSH1 0x4 DUP3 ADD MSTORE PUSH1 0x1F PUSH1 0x24 DUP3 ADD MSTORE PUSH32 0x416D6F756E74206D757374206265206C657373207468616E20737570706C7900 PUSH1 0x44 DUP3 ADD MSTORE PUSH1 0x64 ADD PUSH2 0x633 JUMP JUMPDEST DUP2 PUSH2 0x830 JUMPI PUSH0 PUSH2 0x823 DUP5 PUSH2 0xCE4 JUMP JUMPDEST POP SWAP2 SWAP4 POP PUSH2 0x751 SWAP3 POP POP POP JUMP JUMPDEST PUSH0 PUSH2 0x83A DUP5 PUSH2 0xCE4 JUMP JUMPDEST POP SWAP1 SWAP4 POP PUSH2 0x751 SWAP3 POP POP POP JUMP JUMPDEST PUSH1 0xB SLOAD CALLER SWAP1 PUSH2 0x100 SWAP1 DIV PUSH1 0x1 PUSH1 0x1 PUSH1 0xA0 SHL SUB AND PUSH1 0x1 PUSH1 0x1 PUSH1 0xA0 SHL SUB AND SUB PUSH2 0x7BE JUMPI PUSH1 0x1 PUSH1 0x1 PUSH1 0xA0 SHL SUB DUP2 AND PUSH0 SWAP1 DUP2 MSTORE PUSH1 0x9 PUSH1 0x20 MSTORE PUSH1 0x40 SWAP1 KECCAK256 SLOAD PUSH1 0xFF AND ISZERO PUSH2 0x8D0 JUMPI PUSH1 0x40 MLOAD PUSH3 0x461BCD PUSH1 0xE5 SHL DUP2 MSTORE PUSH1 0x20 PUSH1 0x4 DUP3 ADD MSTORE PUSH1 0x1B PUSH1 0x24 DUP3 ADD MSTORE PUSH32 0x4163636F756E7420697320616C7265616479206578636C756465640000000000 PUSH1 0x44 DUP3 ADD MSTORE PUSH1 0x64 ADD PUSH2 0x633 JUMP JUMPDEST PUSH1 0x1 PUSH1 0x1 PUSH1 0xA0 SHL SUB DUP2 AND PUSH0 SWAP1 DUP2 MSTORE PUSH1 0x5 PUSH1 0x20 MSTORE PUSH1 0x40 SWAP1 KECCAK256 SLOAD ISZERO PUSH2 0x927 JUMPI PUSH1 0x1 PUSH1 0x1 PUSH1 0xA0 SHL SUB DUP2 AND PUSH0 SWAP1 DUP2 MSTORE PUSH1 0x5 PUSH1 0x20 MSTORE PUSH1 0x40 SWAP1 KECCAK256 SLOAD PUSH2 0x90E SWAP1 PUSH2 0x10B4 JUMP JUMPDEST PUSH1 0x1 PUSH1 0x1 PUSH1 0xA0 SHL SUB DUP3 AND PUSH0 SWAP1 DUP2 MSTORE PUSH1 0x6 PUSH1 0x20 MSTORE PUSH1 0x40 SWAP1 KECCAK256 SSTORE JUMPDEST PUSH1 0x1 PUSH1 0x1 PUSH1 0xA0 SHL SUB AND PUSH0 DUP2 DUP2 MSTORE PUSH1 0x9 PUSH1 0x20 MSTORE PUSH1 0x40 DUP2 KECCAK256 DUP1 SLOAD PUSH1 0xFF NOT AND PUSH1 0x1 SWAP1 DUP2 OR SWAP1 SWAP2 SSTORE PUSH1 0xA DUP1 SLOAD SWAP2 DUP3 ADD DUP2 SSTORE SWAP1 SWAP2 MSTORE PUSH32 0xC65A7BB8D6351C1CF70C95A316CC6A92839C986682D98BC35F958F4883F9D2A8 ADD DUP1 SLOAD PUSH1 0x1 PUSH1 0x1 PUSH1 0xA0 SHL SUB NOT AND SWAP1 SWAP2 OR SWAP1 SSTORE JUMP JUMPDEST PUSH1 0xB SLOAD CALLER SWAP1 PUSH2 0x100 SWAP1 DIV PUSH1 0x1 PUSH1 0x1 PUSH1 0xA0 SHL SUB AND PUSH1 0x1 PUSH1 0x1 PUSH1 0xA0 SHL SUB AND SUB PUSH2 0x7BE JUMPI PUSH1 0x1 PUSH1 0x1 PUSH1 0xA0 SHL SUB DUP2 AND PUSH2 0x9D3 JUMPI PUSH1 0x40 MLOAD PUSH3 0x461BCD PUSH1 0xE5 SHL DUP2 MSTORE PUSH1 0x4 ADD PUSH2 0x633 SWAP1 PUSH2 0x1B0F JUMP JUMPDEST PUSH1 0x14 DUP1 SLOAD PUSH1 0x1 PUSH1 0x1 PUSH1 0xA0 SHL SUB DUP4 AND PUSH1 0x1 PUSH1 0x1 PUSH1 0xA0 SHL SUB NOT SWAP1 SWAP2 AND OR SWAP1 SSTORE POP JUMP JUMPDEST PUSH1 0x1 PUSH1 0x1 PUSH1 0xA0 SHL SUB DUP2 AND PUSH0 SWAP1 DUP2 MSTORE PUSH1 0x9 PUSH1 0x20 MSTORE PUSH1 0x40 DUP2 KECCAK256 SLOAD PUSH1 0xFF AND ISZERO PUSH2 0xA2E JUMPI POP PUSH1 0x1 PUSH1 0x1 PUSH1 0xA0 SHL SUB AND PUSH0 SWAP1 DUP2 MSTORE PUSH1 0x6 PUSH1 0x20 MSTORE PUSH1 0x40 SWAP1 KECCAK256 SLOAD SWAP1 JUMP JUMPDEST PUSH1 0x1 PUSH1 0x1 PUSH1 0xA0 SHL SUB DUP3 AND PUSH0 SWAP1 DUP2 MSTORE PUSH1 0x5 PUSH1 0x20 MSTORE PUSH1 0x40 SWAP1 KECCAK256 SLOAD PUSH2 0x751 SWAP1 PUSH2 0x10B4 JUMP JUMPDEST PUSH1 0xB SLOAD CALLER SWAP1 PUSH2 0x100 SWAP1 DIV PUSH1 0x1 PUSH1 0x1 PUSH1 0xA0 SHL SUB AND PUSH1 0x1 PUSH1 0x1 PUSH1 0xA0 SHL SUB AND SUB PUSH2 0x7BE JUMPI PUSH1 0x15 DUP1 SLOAD PUSH1 0x1 PUSH1 0x1 PUSH1 0xA0 SHL SUB DUP4 AND PUSH1 0x1 PUSH1 0x1 PUSH1 0xA0 SHL SUB NOT SWAP1 SWAP2 AND OR SWAP1 SSTORE POP JUMP JUMPDEST PUSH1 0x60 PUSH1 0x4 DUP1 SLOAD PUSH2 0x6BD SWAP1 PUSH2 0x1AD7 JUMP JUMPDEST PUSH0 CALLER PUSH2 0x74B DUP2 DUP6 DUP6 PUSH2 0xDC3 JUMP JUMPDEST PUSH1 0xB SLOAD CALLER SWAP1 PUSH2 0x100 SWAP1 DIV PUSH1 0x1 PUSH1 0x1 PUSH1 0xA0 SHL SUB AND PUSH1 0x1 PUSH1 0x1 PUSH1 0xA0 SHL SUB AND SUB PUSH2 0x7BE JUMPI PUSH1 0x1 PUSH1 0x1 PUSH1 0xA0 SHL SUB DUP2 AND PUSH2 0xAF3 JUMPI PUSH1 0x40 MLOAD PUSH3 0x461BCD PUSH1 0xE5 SHL DUP2 MSTORE PUSH1 0x4 ADD PUSH2 0x633 SWAP1 PUSH2 0x1B0F JUMP JUMPDEST PUSH1 0x13 DUP1 SLOAD PUSH1 0x1 PUSH1 0x1 PUSH1 0xA0 SHL SUB DUP4 AND PUSH1 0x1 PUSH1 0x1 PUSH1 0xA0 SHL SUB NOT SWAP1 SWAP2 AND OR SWAP1 SSTORE POP JUMP JUMPDEST PUSH1 0xB SLOAD CALLER SWAP1 PUSH2 0x100 SWAP1 DIV PUSH1 0x1 PUSH1 0x1 PUSH1 0xA0 SHL SUB AND PUSH1 0x1 PUSH1 0x1 PUSH1 0xA0 SHL SUB AND SUB PUSH2 0xB46 JUMPI PUSH1 0x18 DUP1 SLOAD PUSH1 0xFF NOT AND PUSH1 0x1 OR SWAP1 SSTORE NUMBER PUSH1 0x17 SSTORE JUMPDEST JUMP JUMPDEST PUSH1 0xB SLOAD CALLER SWAP1 PUSH2 0x100 SWAP1 DIV PUSH1 0x1 PUSH1 0x1 PUSH1 0xA0 SHL SUB AND PUSH1 0x1 PUSH1 0x1 PUSH1 0xA0 SHL SUB AND SUB PUSH2 0x7BE JUMPI PUSH1 0x1 PUSH1 0x1 PUSH1 0xA0 SHL SUB DUP2 AND PUSH0 SWAP1 DUP2 MSTORE PUSH1 0x9 PUSH1 0x20 MSTORE PUSH1 0x40 SWAP1 KECCAK256 SLOAD PUSH1 0xFF AND PUSH2 0xBD0 JUMPI PUSH1 0x40 MLOAD PUSH3 0x461BCD PUSH1 0xE5 SHL DUP2 MSTORE PUSH1 0x20 PUSH1 0x4 DUP3 ADD MSTORE PUSH1 0x1B PUSH1 0x24 DUP3 ADD MSTORE PUSH32 0x4163636F756E7420697320616C726561647920696E636C756465640000000000 PUSH1 0x44 DUP3 ADD MSTORE PUSH1 0x64 ADD PUSH2 0x633 JUMP JUMPDEST PUSH0 JUMPDEST PUSH1 0xA SLOAD DUP2 LT ISZERO PUSH2 0xCE0 JUMPI DUP2 PUSH1 0x1 PUSH1 0x1 PUSH1 0xA0 SHL SUB AND PUSH1 0xA DUP3 DUP2 SLOAD DUP2 LT PUSH2 0xBF9 JUMPI PUSH2 0xBF9 PUSH2 0x1B55 JUMP JUMPDEST PUSH0 SWAP2 DUP3 MSTORE PUSH1 0x20 SWAP1 SWAP2 KECCAK256 ADD SLOAD PUSH1 0x1 PUSH1 0x1 PUSH1 0xA0 SHL SUB AND SUB PUSH2 0xCD8 JUMPI PUSH1 0xA DUP1 SLOAD PUSH2 0xC22 SWAP1 PUSH1 0x1 SWAP1 PUSH2 0x1AB1 JUMP JUMPDEST DUP2 SLOAD DUP2 LT PUSH2 0xC32 JUMPI PUSH2 0xC32 PUSH2 0x1B55 JUMP JUMPDEST PUSH0 SWAP2 DUP3 MSTORE PUSH1 0x20 SWAP1 SWAP2 KECCAK256 ADD SLOAD PUSH1 0xA DUP1 SLOAD PUSH1 0x1 PUSH1 0x1 PUSH1 0xA0 SHL SUB SWAP1 SWAP3 AND SWAP2 DUP4 SWAP1 DUP2 LT PUSH2 0xC5D JUMPI PUSH2 0xC5D PUSH2 0x1B55 JUMP JUMPDEST PUSH0 SWAP2 DUP3 MSTORE PUSH1 0x20 DUP1 DUP4 KECCAK256 SWAP2 SWAP1 SWAP2 ADD DUP1 SLOAD PUSH1 0x1 PUSH1 0x1 PUSH1 0xA0 SHL SUB NOT AND PUSH1 0x1 PUSH1 0x1 PUSH1 0xA0 SHL SUB SWAP5 DUP6 AND OR SWAP1 SSTORE SWAP2 DUP5 AND DUP2 MSTORE PUSH1 0x6 DUP3 MSTORE PUSH1 0x40 DUP1 DUP3 KECCAK256 DUP3 SWAP1 SSTORE PUSH1 0x9 SWAP1 SWAP3 MSTORE KECCAK256 DUP1 SLOAD PUSH1 0xFF NOT AND SWAP1 SSTORE PUSH1 0xA DUP1 SLOAD DUP1 PUSH2 0xCB4 JUMPI PUSH2 0xCB4 PUSH2 0x1B69 JUMP JUMPDEST PUSH0 DUP3 DUP2 MSTORE PUSH1 0x20 SWAP1 KECCAK256 DUP2 ADD PUSH0 NOT SWAP1 DUP2 ADD DUP1 SLOAD PUSH1 0x1 PUSH1 0x1 PUSH1 0xA0 SHL SUB NOT AND SWAP1 SSTORE ADD SWAP1 SSTORE POP POP JUMP JUMPDEST PUSH1 0x1 ADD PUSH2 0xBD2 JUMP JUMPDEST POP POP JUMP JUMPDEST PUSH0 PUSH0 PUSH0 PUSH0 PUSH0 PUSH2 0xCF2 DUP7 PUSH2 0x1136 JUMP JUMPDEST SWAP1 POP PUSH0 PUSH2 0xCFF DUP3 DUP9 PUSH2 0x1AB1 JUMP JUMPDEST SWAP1 POP PUSH0 PUSH2 0xD0A PUSH2 0x1169 JUMP JUMPDEST SWAP1 POP PUSH0 PUSH2 0xD17 DUP3 DUP5 PUSH2 0x1B7D JUMP JUMPDEST SWAP1 POP PUSH0 PUSH2 0xD24 DUP4 DUP12 PUSH2 0x1B7D JUMP JUMPDEST SWAP11 SWAP2 SWAP10 POP SWAP3 SWAP8 POP SWAP1 SWAP6 POP SWAP4 POP POP POP POP JUMP JUMPDEST PUSH2 0xD42 DUP4 DUP4 DUP4 PUSH1 0x1 PUSH2 0x118A JUMP JUMPDEST POP POP POP JUMP JUMPDEST PUSH1 0x1 PUSH1 0x1 PUSH1 0xA0 SHL SUB DUP4 DUP2 AND PUSH0 SWAP1 DUP2 MSTORE PUSH1 0x1 PUSH1 0x20 SWAP1 DUP2 MSTORE PUSH1 0x40 DUP1 DUP4 KECCAK256 SWAP4 DUP7 AND DUP4 MSTORE SWAP3 SWAP1 MSTORE KECCAK256 SLOAD PUSH0 NOT DUP2 LT ISZERO PUSH2 0xDBD JUMPI DUP2 DUP2 LT ISZERO PUSH2 0xDAF JUMPI PUSH1 0x40 MLOAD PUSH4 0x7DC7A0D9 PUSH1 0xE1 SHL DUP2 MSTORE PUSH1 0x1 PUSH1 0x1 PUSH1 0xA0 SHL SUB DUP5 AND PUSH1 0x4 DUP3 ADD MSTORE PUSH1 0x24 DUP2 ADD DUP3 SWAP1 MSTORE PUSH1 0x44 DUP2 ADD DUP4 SWAP1 MSTORE PUSH1 0x64 ADD PUSH2 0x633 JUMP JUMPDEST PUSH2 0xDBD DUP5 DUP5 DUP5 DUP5 SUB PUSH0 PUSH2 0x118A JUMP JUMPDEST POP POP POP POP JUMP JUMPDEST PUSH1 0x18 SLOAD DUP4 SWAP1 DUP4 SWAP1 PUSH1 0xFF AND PUSH2 0xE3D JUMPI PUSH1 0x1 PUSH1 0x1 PUSH1 0xA0 SHL SUB DUP2 AND PUSH0 SWAP1 DUP2 MSTORE PUSH1 0x8 PUSH1 0x20 MSTORE PUSH1 0x40 SWAP1 KECCAK256 SLOAD PUSH1 0xFF AND PUSH2 0xE38 JUMPI PUSH1 0x40 MLOAD PUSH3 0x461BCD PUSH1 0xE5 SHL DUP2 MSTORE PUSH1 0x20 PUSH1 0x4 DUP3 ADD MSTORE PUSH1 0x17 PUSH1 0x24 DUP3 ADD MSTORE PUSH32 0x54726164696E67206E6F742079657420656E61626C6564000000000000000000 PUSH1 0x44 DUP3 ADD MSTORE PUSH1 0x64 ADD PUSH2 0x633 JUMP JUMPDEST PUSH2 0xEC3 JUMP JUMPDEST PUSH1 0x17 SLOAD PUSH2 0xE4B SWAP1 PUSH1 0x3 PUSH2 0x1AC4 JUMP JUMPDEST NUMBER GT PUSH2 0xEC3 JUMPI PUSH1 0x1 PUSH1 0x1 PUSH1 0xA0 SHL SUB DUP2 AND PUSH0 SWAP1 DUP2 MSTORE PUSH1 0x8 PUSH1 0x20 MSTORE PUSH1 0x40 SWAP1 KECCAK256 SLOAD PUSH1 0xFF AND PUSH2 0xEC3 JUMPI PUSH1 0x40 MLOAD PUSH3 0x461BCD PUSH1 0xE5 SHL DUP2 MSTORE PUSH1 0x20 PUSH1 0x4 DUP3 ADD MSTORE PUSH1 0x22 PUSH1 0x24 DUP3 ADD MSTORE PUSH32 0x4C61756E63682070726F74656374696F6E3A206E6F742077686974656C697374 PUSH1 0x44 DUP3 ADD MSTORE PUSH2 0x1959 PUSH1 0xF2 SHL PUSH1 0x64 DUP3 ADD MSTORE PUSH1 0x84 ADD PUSH2 0x633 JUMP JUMPDEST PUSH1 0x1 PUSH1 0x1 PUSH1 0xA0 SHL SUB DUP6 AND PUSH2 0xF27 JUMPI PUSH1 0x40 MLOAD PUSH3 0x461BCD PUSH1 0xE5 SHL DUP2 MSTORE PUSH1 0x20 PUSH1 0x4 DUP3 ADD MSTORE PUSH1 0x25 PUSH1 0x24 DUP3 ADD MSTORE PUSH32 0x45524332303A207472616E736665722066726F6D20746865207A65726F206164 PUSH1 0x44 DUP3 ADD MSTORE PUSH5 0x6472657373 PUSH1 0xD8 SHL PUSH1 0x64 DUP3 ADD MSTORE PUSH1 0x84 ADD PUSH2 0x633 JUMP JUMPDEST PUSH1 0x1 PUSH1 0x1 PUSH1 0xA0 SHL SUB DUP5 AND PUSH2 0xF89 JUMPI PUSH1 0x40 MLOAD PUSH3 0x461BCD PUSH1 0xE5 SHL DUP2 MSTORE PUSH1 0x20 PUSH1 0x4 DUP3 ADD MSTORE PUSH1 0x23 PUSH1 0x24 DUP3 ADD MSTORE PUSH32 0x45524332303A207472616E7366657220746F20746865207A65726F2061646472 PUSH1 0x44 DUP3 ADD MSTORE PUSH3 0x657373 PUSH1 0xE8 SHL PUSH1 0x64 DUP3 ADD MSTORE PUSH1 0x84 ADD PUSH2 0x633 JUMP JUMPDEST PUSH0 PUSH2 0xF93 DUP7 PUSH2 0x9F3 JUMP JUMPDEST SWAP1 POP DUP4 DUP2 LT ISZERO PUSH2 0xFF4 JUMPI PUSH1 0x40 MLOAD PUSH3 0x461BCD PUSH1 0xE5 SHL DUP2 MSTORE PUSH1 0x20 PUSH1 0x4 DUP3 ADD MSTORE PUSH1 0x26 PUSH1 0x24 DUP3 ADD MSTORE PUSH32 0x45524332303A207472616E7366657220616D6F756E7420657863656564732062 PUSH1 0x44 DUP3 ADD MSTORE PUSH6 0x616C616E6365 PUSH1 0xD0 SHL PUSH1 0x64 DUP3 ADD MSTORE PUSH1 0x84 ADD PUSH2 0x633 JUMP JUMPDEST PUSH1 0x1 PUSH1 0x1 PUSH1 0xA0 SHL SUB DUP6 AND PUSH0 SWAP1 DUP2 MSTORE PUSH1 0x7 PUSH1 0x20 MSTORE PUSH1 0x40 SWAP1 KECCAK256 SLOAD PUSH1 0xFF AND PUSH2 0x106B JUMPI PUSH1 0x16 SLOAD DUP5 PUSH2 0x1020 DUP8 PUSH2 0x9F3 JUMP JUMPDEST PUSH2 0x102A SWAP2 SWAP1 PUSH2 0x1AC4 JUMP JUMPDEST GT ISZERO PUSH2 0x106B JUMPI PUSH1 0x40 MLOAD PUSH3 0x461BCD PUSH1 0xE5 SHL DUP2 MSTORE PUSH1 0x20 PUSH1 0x4 DUP3 ADD MSTORE PUSH1 0x10 PUSH1 0x24 DUP3 ADD MSTORE PUSH16 0x5768616C652064657465637465642121 PUSH1 0x80 SHL PUSH1 0x44 DUP3 ADD MSTORE PUSH1 0x64 ADD PUSH2 0x633 JUMP JUMPDEST PUSH1 0x15 SLOAD PUSH0 SWAP1 PUSH1 0x1 PUSH1 0x1 PUSH1 0xA0 SHL SUB DUP9 DUP2 AND SWAP2 AND EQ DUP1 PUSH2 0x1096 JUMPI POP PUSH1 0x15 SLOAD PUSH1 0x1 PUSH1 0x1 PUSH1 0xA0 SHL SUB DUP8 DUP2 AND SWAP2 AND EQ JUMPDEST ISZERO PUSH2 0x109F JUMPI POP PUSH1 0x1 JUMPDEST PUSH2 0x10AB DUP8 DUP8 DUP8 DUP5 PUSH2 0x125C JUMP JUMPDEST POP POP POP POP POP POP POP JUMP JUMPDEST PUSH0 PUSH1 0xD SLOAD DUP3 GT ISZERO PUSH2 0x111A JUMPI PUSH1 0x40 MLOAD PUSH3 0x461BCD PUSH1 0xE5 SHL DUP2 MSTORE PUSH1 0x20 PUSH1 0x4 DUP3 ADD MSTORE PUSH1 0x2A PUSH1 0x24 DUP3 ADD MSTORE PUSH32 0x416D6F756E74206D757374206265206C657373207468616E20746F74616C2072 PUSH1 0x44 DUP3 ADD MSTORE PUSH10 0x65666C656374696F6E73 PUSH1 0xB0 SHL PUSH1 0x64 DUP3 ADD MSTORE PUSH1 0x84 ADD PUSH2 0x633 JUMP JUMPDEST PUSH0 PUSH2 0x1123 PUSH2 0x1169 JUMP JUMPDEST SWAP1 POP PUSH2 0x112F DUP2 DUP5 PUSH2 0x1B94 JUMP JUMPDEST SWAP4 SWAP3 POP POP POP JUMP JUMPDEST PUSH0 PUSH0 PUSH1 0x11 SLOAD PUSH1 0xF SLOAD PUSH2 0x1148 SWAP2 SWAP1 PUSH2 0x1AC4 JUMP JUMPDEST SWAP1 POP PUSH0 PUSH1 0x64 PUSH2 0x1157 DUP4 DUP7 PUSH2 0x1B7D JUMP JUMPDEST PUSH2 0x1161 SWAP2 SWAP1 PUSH2 0x1B94 JUMP JUMPDEST SWAP5 SWAP4 POP POP POP POP JUMP JUMPDEST PUSH0 PUSH0 PUSH0 PUSH2 0x1174 PUSH2 0x13CB JUMP JUMPDEST SWAP1 SWAP3 POP SWAP1 POP PUSH2 0x1183 DUP2 DUP4 PUSH2 0x1B94 JUMP JUMPDEST SWAP3 POP POP POP SWAP1 JUMP JUMPDEST PUSH1 0x1 PUSH1 0x1 PUSH1 0xA0 SHL SUB DUP5 AND PUSH2 0x11B3 JUMPI PUSH1 0x40 MLOAD PUSH4 0xE602DF05 PUSH1 0xE0 SHL DUP2 MSTORE PUSH0 PUSH1 0x4 DUP3 ADD MSTORE PUSH1 0x24 ADD PUSH2 0x633 JUMP JUMPDEST PUSH1 0x1 PUSH1 0x1 PUSH1 0xA0 SHL SUB DUP4 AND PUSH2 0x11DC JUMPI PUSH1 0x40 MLOAD PUSH4 0x4A1406B1 PUSH1 0xE1 SHL DUP2 MSTORE PUSH0 PUSH1 0x4 DUP3 ADD MSTORE PUSH1 0x24 ADD PUSH2 0x633 JUMP JUMPDEST PUSH1 0x1 PUSH1 0x1 PUSH1 0xA0 SHL SUB DUP1 DUP6 AND PUSH0 SWAP1 DUP2 MSTORE PUSH1 0x1 PUSH1 0x20 SWAP1 DUP2 MSTORE PUSH1 0x40 DUP1 DUP4 KECCAK256 SWAP4 DUP8 AND DUP4 MSTORE SWAP3 SWAP1 MSTORE KECCAK256 DUP3 SWAP1 SSTORE DUP1 ISZERO PUSH2 0xDBD JUMPI DUP3 PUSH1 0x1 PUSH1 0x1 PUSH1 0xA0 SHL SUB AND DUP5 PUSH1 0x1 PUSH1 0x1 PUSH1 0xA0 SHL SUB AND PUSH32 0x8C5BE1E5EBEC7D5BD14F71427D1E84F3DD0314C0F7B2291E5B200AC8C7C3B925 DUP5 PUSH1 0x40 MLOAD PUSH2 0x124E SWAP2 DUP2 MSTORE PUSH1 0x20 ADD SWAP1 JUMP JUMPDEST PUSH1 0x40 MLOAD DUP1 SWAP2 SUB SWAP1 LOG3 POP POP POP POP JUMP JUMPDEST DUP1 PUSH2 0x1269 JUMPI PUSH2 0x1269 PUSH2 0x153B JUMP JUMPDEST PUSH1 0x1 PUSH1 0x1 PUSH1 0xA0 SHL SUB DUP5 AND PUSH0 SWAP1 DUP2 MSTORE PUSH1 0x9 PUSH1 0x20 MSTORE PUSH1 0x40 SWAP1 KECCAK256 SLOAD PUSH1 0xFF AND DUP1 ISZERO PUSH2 0x12A8 JUMPI POP PUSH1 0x1 PUSH1 0x1 PUSH1 0xA0 SHL SUB DUP4 AND PUSH0 SWAP1 DUP2 MSTORE PUSH1 0x9 PUSH1 0x20 MSTORE PUSH1 0x40 SWAP1 KECCAK256 SLOAD PUSH1 0xFF AND ISZERO JUMPDEST ISZERO PUSH2 0x12BD JUMPI PUSH2 0x12B8 DUP5 DUP5 DUP5 PUSH2 0x1568 JUMP JUMPDEST PUSH2 0x13B5 JUMP JUMPDEST PUSH1 0x1 PUSH1 0x1 PUSH1 0xA0 SHL SUB DUP5 AND PUSH0 SWAP1 DUP2 MSTORE PUSH1 0x9 PUSH1 0x20 MSTORE PUSH1 0x40 SWAP1 KECCAK256 SLOAD PUSH1 0xFF AND ISZERO DUP1 ISZERO PUSH2 0x12FC JUMPI POP PUSH1 0x1 PUSH1 0x1 PUSH1 0xA0 SHL SUB DUP4 AND PUSH0 SWAP1 DUP2 MSTORE PUSH1 0x9 PUSH1 0x20 MSTORE PUSH1 0x40 SWAP1 KECCAK256 SLOAD PUSH1 0xFF AND JUMPDEST ISZERO PUSH2 0x130C JUMPI PUSH2 0x12B8 DUP5 DUP5 DUP5 PUSH2 0x1683 JUMP JUMPDEST PUSH1 0x1 PUSH1 0x1 PUSH1 0xA0 SHL SUB DUP5 AND PUSH0 SWAP1 DUP2 MSTORE PUSH1 0x9 PUSH1 0x20 MSTORE PUSH1 0x40 SWAP1 KECCAK256 SLOAD PUSH1 0xFF AND ISZERO DUP1 ISZERO PUSH2 0x134C JUMPI POP PUSH1 0x1 PUSH1 0x1 PUSH1 0xA0 SHL SUB DUP4 AND PUSH0 SWAP1 DUP2 MSTORE PUSH1 0x9 PUSH1 0x20 MSTORE PUSH1 0x40 SWAP1 KECCAK256 SLOAD PUSH1 0xFF AND ISZERO JUMPDEST ISZERO PUSH2 0x135C JUMPI PUSH2 0x12B8 DUP5 DUP5 DUP5 PUSH2 0x1722 JUMP JUMPDEST PUSH1 0x1 PUSH1 0x1 PUSH1 0xA0 SHL SUB DUP5 AND PUSH0 SWAP1 DUP2 MSTORE PUSH1 0x9 PUSH1 0x20 MSTORE PUSH1 0x40 SWAP1 KECCAK256 SLOAD PUSH1 0xFF AND DUP1 ISZERO PUSH2 0x139A JUMPI POP PUSH1 0x1 PUSH1 0x1 PUSH1 0xA0 SHL SUB DUP4 AND PUSH0 SWAP1 DUP2 MSTORE PUSH1 0x9 PUSH1 0x20 MSTORE PUSH1 0x40 SWAP1 KECCAK256 SLOAD PUSH1 0xFF AND JUMPDEST ISZERO PUSH2 0x13AA JUMPI PUSH2 0x12B8 DUP5 DUP5 DUP5 PUSH2 0x175C JUMP JUMPDEST PUSH2 0x13B5 DUP5 DUP5 DUP5 PUSH2 0x1722 JUMP JUMPDEST DUP1 PUSH2 0xDBD JUMPI PUSH2 0xDBD PUSH1 0x10 SLOAD PUSH1 0xF SSTORE PUSH1 0x12 SLOAD PUSH1 0x11 SSTORE JUMP JUMPDEST PUSH1 0xD SLOAD PUSH1 0xC SLOAD PUSH0 SWAP2 DUP3 SWAP2 DUP3 JUMPDEST PUSH1 0xA SLOAD DUP2 LT ISZERO PUSH2 0x150A JUMPI DUP3 PUSH1 0x5 PUSH0 PUSH1 0xA DUP5 DUP2 SLOAD DUP2 LT PUSH2 0x13F8 JUMPI PUSH2 0x13F8 PUSH2 0x1B55 JUMP JUMPDEST PUSH0 SWAP2 DUP3 MSTORE PUSH1 0x20 DUP1 DUP4 KECCAK256 SWAP1 SWAP2 ADD SLOAD PUSH1 0x1 PUSH1 0x1 PUSH1 0xA0 SHL SUB AND DUP4 MSTORE DUP3 ADD SWAP3 SWAP1 SWAP3 MSTORE PUSH1 0x40 ADD SWAP1 KECCAK256 SLOAD GT DUP1 PUSH2 0x1460 JUMPI POP DUP2 PUSH1 0x6 PUSH0 PUSH1 0xA DUP5 DUP2 SLOAD DUP2 LT PUSH2 0x143A JUMPI PUSH2 0x143A PUSH2 0x1B55 JUMP JUMPDEST PUSH0 SWAP2 DUP3 MSTORE PUSH1 0x20 DUP1 DUP4 KECCAK256 SWAP1 SWAP2 ADD SLOAD PUSH1 0x1 PUSH1 0x1 PUSH1 0xA0 SHL SUB AND DUP4 MSTORE DUP3 ADD SWAP3 SWAP1 SWAP3 MSTORE PUSH1 0x40 ADD SWAP1 KECCAK256 SLOAD GT JUMPDEST ISZERO PUSH2 0x1476 JUMPI PUSH1 0xD SLOAD PUSH1 0xC SLOAD SWAP5 POP SWAP5 POP POP POP POP SWAP1 SWAP2 JUMP JUMPDEST PUSH1 0x5 PUSH0 PUSH1 0xA DUP4 DUP2 SLOAD DUP2 LT PUSH2 0x148C JUMPI PUSH2 0x148C PUSH2 0x1B55 JUMP JUMPDEST PUSH0 SWAP2 DUP3 MSTORE PUSH1 0x20 DUP1 DUP4 KECCAK256 SWAP1 SWAP2 ADD SLOAD PUSH1 0x1 PUSH1 0x1 PUSH1 0xA0 SHL SUB AND DUP4 MSTORE DUP3 ADD SWAP3 SWAP1 SWAP3 MSTORE PUSH1 0x40 ADD SWAP1 KECCAK256 SLOAD PUSH2 0x14BA SWAP1 DUP5 PUSH2 0x1AB1 JUMP JUMPDEST SWAP3 POP PUSH1 0x6 PUSH0 PUSH1 0xA DUP4 DUP2 SLOAD DUP2 LT PUSH2 0x14D2 JUMPI PUSH2 0x14D2 PUSH2 0x1B55 JUMP JUMPDEST PUSH0 SWAP2 DUP3 MSTORE PUSH1 0x20 DUP1 DUP4 KECCAK256 SWAP1 SWAP2 ADD SLOAD PUSH1 0x1 PUSH1 0x1 PUSH1 0xA0 SHL SUB AND DUP4 MSTORE DUP3 ADD SWAP3 SWAP1 SWAP3 MSTORE PUSH1 0x40 ADD SWAP1 KECCAK256 SLOAD PUSH2 0x1500 SWAP1 DUP4 PUSH2 0x1AB1 JUMP JUMPDEST SWAP2 POP PUSH1 0x1 ADD PUSH2 0x13D7 JUMP JUMPDEST POP PUSH1 0xC SLOAD PUSH1 0xD SLOAD PUSH2 0x151B SWAP2 SWAP1 PUSH2 0x1B94 JUMP JUMPDEST DUP3 LT ISZERO PUSH2 0x1532 JUMPI PUSH1 0xD SLOAD PUSH1 0xC SLOAD SWAP4 POP SWAP4 POP POP POP SWAP1 SWAP2 JUMP JUMPDEST SWAP1 SWAP4 SWAP1 SWAP3 POP SWAP1 POP JUMP JUMPDEST PUSH1 0xF SLOAD ISZERO DUP1 ISZERO PUSH2 0x154B JUMPI POP PUSH1 0x11 SLOAD ISZERO JUMPDEST ISZERO PUSH2 0x1552 JUMPI JUMP JUMPDEST PUSH1 0xF DUP1 SLOAD PUSH1 0x10 SSTORE PUSH1 0x11 DUP1 SLOAD PUSH1 0x12 SSTORE PUSH0 SWAP2 DUP3 SWAP1 SSTORE SSTORE JUMP JUMPDEST PUSH0 PUSH0 PUSH0 PUSH0 PUSH2 0x1575 DUP6 PUSH2 0xCE4 JUMP JUMPDEST PUSH1 0x1 PUSH1 0x1 PUSH1 0xA0 SHL SUB DUP12 AND PUSH0 SWAP1 DUP2 MSTORE PUSH1 0x6 PUSH1 0x20 MSTORE PUSH1 0x40 SWAP1 KECCAK256 SLOAD SWAP4 SWAP8 POP SWAP2 SWAP6 POP SWAP4 POP SWAP2 POP PUSH2 0x15A2 SWAP1 DUP7 SWAP1 PUSH2 0x1AB1 JUMP JUMPDEST PUSH1 0x1 PUSH1 0x1 PUSH1 0xA0 SHL SUB DUP9 AND PUSH0 SWAP1 DUP2 MSTORE PUSH1 0x6 PUSH1 0x20 SWAP1 DUP2 MSTORE PUSH1 0x40 DUP1 DUP4 KECCAK256 SWAP4 SWAP1 SWAP4 SSTORE PUSH1 0x5 SWAP1 MSTORE KECCAK256 SLOAD PUSH2 0x15D1 SWAP1 DUP6 SWAP1 PUSH2 0x1AB1 JUMP JUMPDEST PUSH1 0x1 PUSH1 0x1 PUSH1 0xA0 SHL SUB DUP1 DUP10 AND PUSH0 SWAP1 DUP2 MSTORE PUSH1 0x5 PUSH1 0x20 MSTORE PUSH1 0x40 DUP1 DUP3 KECCAK256 SWAP4 SWAP1 SWAP4 SSTORE SWAP1 DUP9 AND DUP2 MSTORE KECCAK256 SLOAD PUSH2 0x1600 SWAP1 DUP5 SWAP1 PUSH2 0x1AC4 JUMP JUMPDEST PUSH1 0x1 PUSH1 0x1 PUSH1 0xA0 SHL SUB DUP8 AND PUSH0 SWAP1 DUP2 MSTORE PUSH1 0x5 PUSH1 0x20 MSTORE PUSH1 0x40 SWAP1 KECCAK256 SSTORE PUSH2 0x1623 DUP8 DUP7 DUP4 PUSH2 0x17C5 JUMP JUMPDEST PUSH2 0x162D DUP6 DUP3 PUSH2 0x1906 JUMP JUMPDEST DUP6 PUSH1 0x1 PUSH1 0x1 PUSH1 0xA0 SHL SUB AND DUP8 PUSH1 0x1 PUSH1 0x1 PUSH1 0xA0 SHL SUB AND PUSH32 0xDDF252AD1BE2C89B69C2B068FC378DAA952BA7F163C4A11628F55A4DF523B3EF DUP5 PUSH1 0x40 MLOAD PUSH2 0x1672 SWAP2 DUP2 MSTORE PUSH1 0x20 ADD SWAP1 JUMP JUMPDEST PUSH1 0x40 MLOAD DUP1 SWAP2 SUB SWAP1 LOG3 POP POP POP POP POP POP POP JUMP JUMPDEST PUSH0 PUSH0 PUSH0 PUSH0 PUSH2 0x1690 DUP6 PUSH2 0xCE4 JUMP JUMPDEST PUSH1 0x1 PUSH1 0x1 PUSH1 0xA0 SHL SUB DUP12 AND PUSH0 SWAP1 DUP2 MSTORE PUSH1 0x5 PUSH1 0x20 MSTORE PUSH1 0x40 SWAP1 KECCAK256 SLOAD SWAP4 SWAP8 POP SWAP2 SWAP6 POP SWAP4 POP SWAP2 POP PUSH2 0x16BD SWAP1 DUP6 SWAP1 PUSH2 0x1AB1 JUMP JUMPDEST PUSH1 0x1 PUSH1 0x1 PUSH1 0xA0 SHL SUB DUP1 DUP10 AND PUSH0 SWAP1 DUP2 MSTORE PUSH1 0x5 PUSH1 0x20 SWAP1 DUP2 MSTORE PUSH1 0x40 DUP1 DUP4 KECCAK256 SWAP5 SWAP1 SWAP5 SSTORE SWAP2 DUP10 AND DUP2 MSTORE PUSH1 0x6 SWAP1 SWAP2 MSTORE KECCAK256 SLOAD PUSH2 0x16F3 SWAP1 DUP4 SWAP1 PUSH2 0x1AC4 JUMP JUMPDEST PUSH1 0x1 PUSH1 0x1 PUSH1 0xA0 SHL SUB DUP8 AND PUSH0 SWAP1 DUP2 MSTORE PUSH1 0x6 PUSH1 0x20 SWAP1 DUP2 MSTORE PUSH1 0x40 DUP1 DUP4 KECCAK256 SWAP4 SWAP1 SWAP4 SSTORE PUSH1 0x5 SWAP1 MSTORE KECCAK256 SLOAD PUSH2 0x1600 SWAP1 DUP5 SWAP1 PUSH2 0x1AC4 JUMP JUMPDEST PUSH0 PUSH0 PUSH0 PUSH0 PUSH2 0x172F DUP6 PUSH2 0xCE4 JUMP JUMPDEST PUSH1 0x1 PUSH1 0x1 PUSH1 0xA0 SHL SUB DUP12 AND PUSH0 SWAP1 DUP2 MSTORE PUSH1 0x5 PUSH1 0x20 MSTORE PUSH1 0x40 SWAP1 KECCAK256 SLOAD SWAP4 SWAP8 POP SWAP2 SWAP6 POP SWAP4 POP SWAP2 POP PUSH2 0x15D1 SWAP1 DUP6 SWAP1 PUSH2 0x1AB1 JUMP JUMPDEST PUSH0 PUSH0 PUSH0 PUSH0 PUSH2 0x1769 DUP6 PUSH2 0xCE4 JUMP JUMPDEST PUSH1 0x1 PUSH1 0x1 PUSH1 0xA0 SHL SUB DUP12 AND PUSH0 SWAP1 DUP2 MSTORE PUSH1 0x6 PUSH1 0x20 MSTORE PUSH1 0x40 SWAP1 KECCAK256 SLOAD SWAP4 SWAP8 POP SWAP2 SWAP6 POP SWAP4 POP SWAP2 POP PUSH2 0x1796 SWAP1 DUP7 SWAP1 PUSH2 0x1AB1 JUMP JUMPDEST PUSH1 0x1 PUSH1 0x1 PUSH1 0xA0 SHL SUB DUP9 AND PUSH0 SWAP1 DUP2 MSTORE PUSH1 0x6 PUSH1 0x20 SWAP1 DUP2 MSTORE PUSH1 0x40 DUP1 DUP4 KECCAK256 SWAP4 SWAP1 SWAP4 SSTORE PUSH1 0x5 SWAP1 MSTORE KECCAK256 SLOAD PUSH2 0x16BD SWAP1 DUP6 SWAP1 PUSH2 0x1AB1 JUMP JUMPDEST PUSH0 PUSH1 0x64 PUSH1 0x11 SLOAD DUP5 PUSH2 0x17D6 SWAP2 SWAP1 PUSH2 0x1B7D JUMP JUMPDEST PUSH2 0x17E0 SWAP2 SWAP1 PUSH2 0x1B94 JUMP JUMPDEST SWAP1 POP DUP1 ISZERO PUSH2 0xDBD JUMPI PUSH0 PUSH1 0x2 PUSH2 0x17F5 DUP5 DUP5 PUSH2 0x1B7D JUMP JUMPDEST PUSH2 0x17FF SWAP2 SWAP1 PUSH2 0x1B94 JUMP JUMPDEST PUSH1 0x13 SLOAD PUSH1 0x1 PUSH1 0x1 PUSH1 0xA0 SHL SUB AND PUSH0 SWAP1 DUP2 MSTORE PUSH1 0x5 PUSH1 0x20 MSTORE PUSH1 0x40 SWAP1 KECCAK256 SLOAD SWAP1 SWAP2 POP PUSH2 0x1827 SWAP1 DUP3 SWAP1 PUSH2 0x1AC4 JUMP JUMPDEST PUSH1 0x13 SLOAD PUSH1 0x1 PUSH1 0x1 PUSH1 0xA0 SHL SUB SWAP1 DUP2 AND PUSH0 SWAP1 DUP2 MSTORE PUSH1 0x5 PUSH1 0x20 MSTORE PUSH1 0x40 DUP1 DUP3 KECCAK256 SWAP4 SWAP1 SWAP4 SSTORE PUSH1 0x14 SLOAD SWAP1 SWAP2 AND DUP2 MSTORE KECCAK256 SLOAD PUSH2 0x185C SWAP1 DUP3 SWAP1 PUSH2 0x1AC4 JUMP JUMPDEST PUSH1 0x14 SLOAD PUSH1 0x1 PUSH1 0x1 PUSH1 0xA0 SHL SUB SWAP1 DUP2 AND PUSH0 SWAP1 DUP2 MSTORE PUSH1 0x5 PUSH1 0x20 SWAP1 DUP2 MSTORE PUSH1 0x40 SWAP2 DUP3 SWAP1 KECCAK256 SWAP4 SWAP1 SWAP4 SSTORE PUSH1 0x13 SLOAD SWAP1 MLOAD DUP6 DUP2 MSTORE SWAP1 DUP3 AND SWAP3 SWAP2 DUP9 AND SWAP2 PUSH32 0xDDF252AD1BE2C89B69C2B068FC378DAA952BA7F163C4A11628F55A4DF523B3EF SWAP2 ADD PUSH1 0x40 MLOAD DUP1 SWAP2 SUB SWAP1 LOG3 PUSH1 0x14 SLOAD PUSH1 0x40 MLOAD DUP4 DUP2 MSTORE PUSH1 0x1 PUSH1 0x1 PUSH1 0xA0 SHL SUB SWAP2 DUP3 AND SWAP2 DUP8 AND SWAP1 PUSH32 0xDDF252AD1BE2C89B69C2B068FC378DAA952BA7F163C4A11628F55A4DF523B3EF SWAP1 PUSH1 0x20 ADD PUSH1 0x40 MLOAD DUP1 SWAP2 SUB SWAP1 LOG3 POP POP POP POP POP JUMP JUMPDEST PUSH0 PUSH1 0x64 PUSH1 0xF SLOAD DUP5 PUSH2 0x1917 SWAP2 SWAP1 PUSH2 0x1B7D JUMP JUMPDEST PUSH2 0x1921 SWAP2 SWAP1 PUSH2 0x1B94 JUMP JUMPDEST SWAP1 POP PUSH0 PUSH2 0x192E DUP4 DUP4 PUSH2 0x1B7D JUMP JUMPDEST SWAP1 POP DUP1 PUSH1 0xD SLOAD PUSH2 0x193E SWAP2 SWAP1 PUSH2 0x1AB1 JUMP JUMPDEST PUSH1 0xD SSTORE PUSH1 0xE SLOAD PUSH2 0x194F SWAP1 DUP4 SWAP1 PUSH2 0x1AC4 JUMP JUMPDEST PUSH1 0xE SSTORE POP POP POP POP JUMP JUMPDEST PUSH0 PUSH1 0x20 DUP3 DUP5 SUB SLT ISZERO PUSH2 0x1968 JUMPI PUSH0 PUSH0 REVERT JUMPDEST POP CALLDATALOAD SWAP2 SWAP1 POP JUMP JUMPDEST PUSH1 0x20 DUP2 MSTORE PUSH0 DUP3 MLOAD DUP1 PUSH1 0x20 DUP5 ADD MSTORE DUP1 PUSH1 0x20 DUP6 ADD PUSH1 0x40 DUP6 ADD MCOPY PUSH0 PUSH1 0x40 DUP3 DUP6 ADD ADD MSTORE PUSH1 0x40 PUSH1 0x1F NOT PUSH1 0x1F DUP4 ADD AND DUP5 ADD ADD SWAP2 POP POP SWAP3 SWAP2 POP POP JUMP JUMPDEST DUP1 CALLDATALOAD PUSH1 0x1 PUSH1 0x1 PUSH1 0xA0 SHL SUB DUP2 AND DUP2 EQ PUSH2 0x19BA JUMPI PUSH0 PUSH0 REVERT JUMPDEST SWAP2 SWAP1 POP JUMP JUMPDEST PUSH0 PUSH0 PUSH1 0x40 DUP4 DUP6 SUB SLT ISZERO PUSH2 0x19D0 JUMPI PUSH0 PUSH0 REVERT JUMPDEST PUSH2 0x19D9 DUP4 PUSH2 0x19A4 JUMP JUMPDEST SWAP5 PUSH1 0x20 SWAP4 SWAP1 SWAP4 ADD CALLDATALOAD SWAP4 POP POP POP JUMP JUMPDEST PUSH0 PUSH0 PUSH0 PUSH1 0x60 DUP5 DUP7 SUB SLT ISZERO PUSH2 0x19F9 JUMPI PUSH0 PUSH0 REVERT JUMPDEST PUSH2 0x1A02 DUP5 PUSH2 0x19A4 JUMP JUMPDEST SWAP3 POP PUSH2 0x1A10 PUSH1 0x20 DUP6 ADD PUSH2 0x19A4 JUMP JUMPDEST SWAP3 SWAP6 SWAP3 SWAP5 POP POP POP PUSH1 0x40 SWAP2 SWAP1 SWAP2 ADD CALLDATALOAD SWAP1 JUMP JUMPDEST PUSH0 PUSH1 0x20 DUP3 DUP5 SUB SLT ISZERO PUSH2 0x1A31 JUMPI PUSH0 PUSH0 REVERT JUMPDEST PUSH2 0x112F DUP3 PUSH2 0x19A4 JUMP JUMPDEST PUSH0 PUSH0 PUSH1 0x40 DUP4 DUP6 SUB SLT ISZERO PUSH2 0x1A4B JUMPI PUSH0 PUSH0 REVERT JUMPDEST DUP3 CALLDATALOAD SWAP2 POP PUSH1 0x20 DUP4 ADD CALLDATALOAD DUP1 ISZERO ISZERO DUP2 EQ PUSH2 0x1A61 JUMPI PUSH0 PUSH0 REVERT JUMPDEST DUP1 SWAP2 POP POP SWAP3 POP SWAP3 SWAP1 POP JUMP JUMPDEST PUSH0 PUSH0 PUSH1 0x40 DUP4 DUP6 SUB SLT ISZERO PUSH2 0x1A7D JUMPI PUSH0 PUSH0 REVERT JUMPDEST PUSH2 0x1A86 DUP4 PUSH2 0x19A4 JUMP JUMPDEST SWAP2 POP PUSH2 0x1A94 PUSH1 0x20 DUP5 ADD PUSH2 0x19A4 JUMP JUMPDEST SWAP1 POP SWAP3 POP SWAP3 SWAP1 POP JUMP JUMPDEST PUSH4 0x4E487B71 PUSH1 0xE0 SHL PUSH0 MSTORE PUSH1 0x11 PUSH1 0x4 MSTORE PUSH1 0x24 PUSH0 REVERT JUMPDEST DUP2 DUP2 SUB DUP2 DUP2 GT ISZERO PUSH2 0x751 JUMPI PUSH2 0x751 PUSH2 0x1A9D JUMP JUMPDEST DUP1 DUP3 ADD DUP1 DUP3 GT ISZERO PUSH2 0x751 JUMPI PUSH2 0x751 PUSH2 0x1A9D JUMP JUMPDEST PUSH1 0x1 DUP2 DUP2 SHR SWAP1 DUP3 AND DUP1 PUSH2 0x1AEB JUMPI PUSH1 0x7F DUP3 AND SWAP2 POP JUMPDEST PUSH1 0x20 DUP3 LT DUP2 SUB PUSH2 0x1B09 JUMPI PUSH4 0x4E487B71 PUSH1 0xE0 SHL PUSH0 MSTORE PUSH1 0x22 PUSH1 0x4 MSTORE PUSH1 0x24 PUSH0 REVERT JUMPDEST POP SWAP2 SWAP1 POP JUMP JUMPDEST PUSH1 0x20 DUP1 DUP3 MSTORE PUSH1 0x26 SWAP1 DUP3 ADD MSTORE PUSH32 0x7A65726F20616464726573732063616E206E6F74206265207468652046656541 PUSH1 0x40 DUP3 ADD MSTORE PUSH6 0x18D8DBDD5B9D PUSH1 0xD2 SHL PUSH1 0x60 DUP3 ADD MSTORE PUSH1 0x80 ADD SWAP1 JUMP JUMPDEST PUSH4 0x4E487B71 PUSH1 0xE0 SHL PUSH0 MSTORE PUSH1 0x32 PUSH1 0x4 MSTORE PUSH1 0x24 PUSH0 REVERT JUMPDEST PUSH4 0x4E487B71 PUSH1 0xE0 SHL PUSH0 MSTORE PUSH1 0x31 PUSH1 0x4 MSTORE PUSH1 0x24 PUSH0 REVERT JUMPDEST DUP1 DUP3 MUL DUP2 ISZERO DUP3 DUP3 DIV DUP5 EQ OR PUSH2 0x751 JUMPI PUSH2 0x751 PUSH2 0x1A9D JUMP JUMPDEST PUSH0 DUP3 PUSH2 0x1BAE JUMPI PUSH4 0x4E487B71 PUSH1 0xE0 SHL PUSH0 MSTORE PUSH1 0x12 PUSH1 0x4 MSTORE PUSH1 0x24 PUSH0 REVERT JUMPDEST POP DIV SWAP1 JUMP INVALID LOG2 PUSH5 0x6970667358 0x22 SLT KECCAK256 NOT CODESIZE 0xD EQ 0xC9 0xF7 0xBF SAR DATALOADN 0xE230 SWAP1 0xB0 SWAP5 PUSH21 0x11A4FF74A2DD7729DD5972F733931C61FE64736F6C PUSH4 0x4300081D STOP CALLER "
		},
		"gasEstimates": {
			"creation": {
				"codeDepositCost": "1429000",
				"executionCost": "infinite",
				"totalCost": "infinite"
			},
			"external": {
				"allowance(address,address)": "infinite",
				"approve(address,uint256)": "24802",
				"balanceOf(address)": "infinite",
				"changeDevelopmentAccount(address)": "26857",
				"changeMarketingAccount(address)": "26813",
				"changePairAddress(address)": "26823",
				"decimals()": "2400",
				"excludeAccountFromReward(address)": "infinite",
				"excludeFromFee(address)": "26874",
				"getDevelopmentAccount()": "2387",
				"getMarketingAccount()": "2376",
				"getTaxFee()": "2357",
				"includeAccountinReward(address)": "infinite",
				"isExcluded(address)": "2635",
				"isExcludedFromFee(address)": "2591",
				"isWhitelisted(address)": "2596",
				"launchBlock()": "2405",
				"name()": "infinite",
				"openTrading()": "48711",
				"owner()": "2386",
				"pairAddress()": "2425",
				"reflect(uint256)": "infinite",
				"reflectionFee()": "2359",
				"reflectionFromToken(uint256,bool)": "infinite",
				"symbol()": "infinite",
				"totalFeesRedistributed()": "2337",
				"totalSupply()": "2326",
				"tradingOpen()": "2419",
				"transfer(address,uint256)": "infinite",
				"transferFrom(address,address,uint256)": "infinite"
			},
			"internal": {
				"_getCompleteTaxValue(uint256)": "infinite",
				"_getCurrentSupply()": "infinite",
				"_getRate()": "infinite",
				"_getTransferValues(uint256)": "infinite",
				"_reflectFee(uint256,uint256)": "infinite",
				"_tokenTransfer(address,address,uint256,bool)": "infinite",
				"_transfer(address,address,uint256)": "infinite",
				"_transferBothExcluded(address,address,uint256)": "infinite",
				"_transferFromExcluded(address,address,uint256)": "infinite",
				"_transferStandard(address,address,uint256)": "infinite",
				"_transferToExcluded(address,address,uint256)": "infinite",
				"removeAllFee()": "62689",
				"restoreAllFee()": "infinite",
				"taxFeeTransfer(address,uint256,uint256)": "infinite",
				"tokenFromReflection(uint256)": "infinite"
			}
		},
		"methodIdentifiers": {
			"allowance(address,address)": "dd62ed3e",
			"approve(address,uint256)": "095ea7b3",
			"balanceOf(address)": "70a08231",
			"changeDevelopmentAccount(address)": "706407fd",
			"changeMarketingAccount(address)": "c4863770",
			"changePairAddress(address)": "8873b15f",
			"decimals()": "313ce567",
			"excludeAccountFromReward(address)": "6049876e",
			"excludeFromFee(address)": "437823ec",
			"getDevelopmentAccount()": "1cf8fef5",
			"getMarketingAccount()": "838fcc90",
			"getTaxFee()": "f66608fe",
			"includeAccountinReward(address)": "fdeb889f",
			"isExcluded(address)": "cba0e996",
			"isExcludedFromFee(address)": "5342acb4",
			"isWhitelisted(address)": "3af32abf",
			"launchBlock()": "d00efb2f",
			"name()": "06fdde03",
			"openTrading()": "c9567bf9",
			"owner()": "8da5cb5b",
			"pairAddress()": "a8b08982",
			"reflect(uint256)": "053ab182",
			"reflectionFee()": "83ad7994",
			"reflectionFromToken(uint256,bool)": "4549b039",
			"symbol()": "95d89b41",
			"totalFeesRedistributed()": "32035504",
			"totalSupply()": "18160ddd",
			"tradingOpen()": "ffb54a99",
			"transfer(address,uint256)": "a9059cbb",
			"transferFrom(address,address,uint256)": "23b872dd"
		}
	},
	"abi": [
		{
			"inputs": [],
			"stateMutability": "nonpayable",
			"type": "constructor"
		},
		{
			"inputs": [
				{
					"internalType": "address",
					"name": "spender",
					"type": "address"
				},
				{
					"internalType": "uint256",
					"name": "allowance",
					"type": "uint256"
				},
				{
					"internalType": "uint256",
					"name": "needed",
					"type": "uint256"
				}
			],
			"name": "ERC20InsufficientAllowance",
			"type": "error"
		},
		{
			"inputs": [
				{
					"internalType": "address",
					"name": "sender",
					"type": "address"
				},
				{
					"internalType": "uint256",
					"name": "balance",
					"type": "uint256"
				},
				{
					"internalType": "uint256",
					"name": "needed",
					"type": "uint256"
				}
			],
			"name": "ERC20InsufficientBalance",
			"type": "error"
		},
		{
			"inputs": [
				{
					"internalType": "address",
					"name": "approver",
					"type": "address"
				}
			],
			"name": "ERC20InvalidApprover",
			"type": "error"
		},
		{
			"inputs": [
				{
					"internalType": "address",
					"name": "receiver",
					"type": "address"
				}
			],
			"name": "ERC20InvalidReceiver",
			"type": "error"
		},
		{
			"inputs": [
				{
					"internalType": "address",
					"name": "sender",
					"type": "address"
				}
			],
			"name": "ERC20InvalidSender",
			"type": "error"
		},
		{
			"inputs": [
				{
					"internalType": "address",
					"name": "spender",
					"type": "address"
				}
			],
			"name": "ERC20InvalidSpender",
			"type": "error"
		},
		{
			"anonymous": false,
			"inputs": [
				{
					"indexed": true,
					"internalType": "address",
					"name": "owner",
					"type": "address"
				},
				{
					"indexed": true,
					"internalType": "address",
					"name": "spender",
					"type": "address"
				},
				{
					"indexed": false,
					"internalType": "uint256",
					"name": "value",
					"type": "uint256"
				}
			],
			"name": "Approval",
			"type": "event"
		},
		{
			"anonymous": false,
			"inputs": [
				{
					"indexed": true,
					"internalType": "address",
					"name": "from",
					"type": "address"
				},
				{
					"indexed": true,
					"internalType": "address",
					"name": "to",
					"type": "address"
				},
				{
					"indexed": false,
					"internalType": "uint256",
					"name": "value",
					"type": "uint256"
				}
			],
			"name": "Transfer",
			"type": "event"
		},
		{
			"inputs": [
				{
					"internalType": "address",
					"name": "owner",
					"type": "address"
				},
				{
					"internalType": "address",
					"name": "spender",
					"type": "address"
				}
			],
			"name": "allowance",
			"outputs": [
				{
					"internalType": "uint256",
					"name": "",
					"type": "uint256"
				}
			],
			"stateMutability": "view",
			"type": "function"
		},
		{
			"inputs": [
				{
					"internalType": "address",
					"name": "spender",
					"type": "address"
				},
				{
					"internalType": "uint256",
					"name": "value",
					"type": "uint256"
				}
			],
			"name": "approve",
			"outputs": [
				{
					"internalType": "bool",
					"name": "",
					"type": "bool"
				}
			],
			"stateMutability": "nonpayable",
			"type": "function"
		},
		{
			"inputs": [
				{
					"internalType": "address",
					"name": "sender",
					"type": "address"
				}
			],
			"name": "balanceOf",
			"outputs": [
				{
					"internalType": "uint256",
					"name": "",
					"type": "uint256"
				}
			],
			"stateMutability": "view",
			"type": "function"
		},
		{
			"inputs": [
				{
					"internalType": "address",
					"name": "newFeeAccount",
					"type": "address"
				}
			],
			"name": "changeDevelopmentAccount",
			"outputs": [],
			"stateMutability": "nonpayable",
			"type": "function"
		},
		{
			"inputs": [
				{
					"internalType": "address",
					"name": "newFeeAccount",
					"type": "address"
				}
			],
			"name": "changeMarketingAccount",
			"outputs": [],
			"stateMutability": "nonpayable",
			"type": "function"
		},
		{
			"inputs": [
				{
					"internalType": "address",
					"name": "_pairAddress",
					"type": "address"
				}
			],
			"name": "changePairAddress",
			"outputs": [],
			"stateMutability": "nonpayable",
			"type": "function"
		},
		{
			"inputs": [],
			"name": "decimals",
			"outputs": [
				{
					"internalType": "uint8",
					"name": "",
					"type": "uint8"
				}
			],
			"stateMutability": "view",
			"type": "function"
		},
		{
			"inputs": [
				{
					"internalType": "address",
					"name": "account",
					"type": "address"
				}
			],
			"name": "excludeAccountFromReward",
			"outputs": [],
			"stateMutability": "nonpayable",
			"type": "function"
		},
		{
			"inputs": [
				{
					"internalType": "address",
					"name": "account",
					"type": "address"
				}
			],
			"name": "excludeFromFee",
			"outputs": [],
			"stateMutability": "nonpayable",
			"type": "function"
		},
		{
			"inputs": [],
			"name": "getDevelopmentAccount",
			"outputs": [
				{
					"internalType": "address",
					"name": "",
					"type": "address"
				}
			],
			"stateMutability": "view",
			"type": "function"
		},
		{
			"inputs": [],
			"name": "getMarketingAccount",
			"outputs": [
				{
					"internalType": "address",
					"name": "",
					"type": "address"
				}
			],
			"stateMutability": "view",
			"type": "function"
		},
		{
			"inputs": [],
			"name": "getTaxFee",
			"outputs": [
				{
					"internalType": "uint256",
					"name": "",
					"type": "uint256"
				}
			],
			"stateMutability": "view",
			"type": "function"
		},
		{
			"inputs": [
				{
					"internalType": "address",
					"name": "account",
					"type": "address"
				}
			],
			"name": "includeAccountinReward",
			"outputs": [],
			"stateMutability": "nonpayable",
			"type": "function"
		},
		{
			"inputs": [
				{
					"internalType": "address",
					"name": "account",
					"type": "address"
				}
			],
			"name": "isExcluded",
			"outputs": [
				{
					"internalType": "bool",
					"name": "",
					"type": "bool"
				}
			],
			"stateMutability": "view",
			"type": "function"
		},
		{
			"inputs": [
				{
					"internalType": "address",
					"name": "account",
					"type": "address"
				}
			],
			"name": "isExcludedFromFee",
			"outputs": [
				{
					"internalType": "bool",
					"name": "",
					"type": "bool"
				}
			],
			"stateMutability": "view",
			"type": "function"
		},
		{
			"inputs": [
				{
					"internalType": "address",
					"name": "",
					"type": "address"
				}
			],
			"name": "isWhitelisted",
			"outputs": [
				{
					"internalType": "bool",
					"name": "",
					"type": "bool"
				}
			],
			"stateMutability": "view",
			"type": "function"
		},
		{
			"inputs": [],
			"name": "launchBlock",
			"outputs": [
				{
					"internalType": "uint256",
					"name": "",
					"type": "uint256"
				}
			],
			"stateMutability": "view",
			"type": "function"
		},
		{
			"inputs": [],
			"name": "name",
			"outputs": [
				{
					"internalType": "string",
					"name": "",
					"type": "string"
				}
			],
			"stateMutability": "view",
			"type": "function"
		},
		{
			"inputs": [],
			"name": "openTrading",
			"outputs": [],
			"stateMutability": "nonpayable",
			"type": "function"
		},
		{
			"inputs": [],
			"name": "owner",
			"outputs": [
				{
					"internalType": "address",
					"name": "",
					"type": "address"
				}
			],
			"stateMutability": "view",
			"type": "function"
		},
		{
			"inputs": [],
			"name": "pairAddress",
			"outputs": [
				{
					"internalType": "address",
					"name": "",
					"type": "address"
				}
			],
			"stateMutability": "view",
			"type": "function"
		},
		{
			"inputs": [
				{
					"internalType": "uint256",
					"name": "tAmount",
					"type": "uint256"
				}
			],
			"name": "reflect",
			"outputs": [],
			"stateMutability": "nonpayable",
			"type": "function"
		},
		{
			"inputs": [],
			"name": "reflectionFee",
			"outputs": [
				{
					"internalType": "uint256",
					"name": "",
					"type": "uint256"
				}
			],
			"stateMutability": "view",
			"type": "function"
		},
		{
			"inputs": [
				{
					"internalType": "uint256",
					"name": "tAmount",
					"type": "uint256"
				},
				{
					"internalType": "bool",
					"name": "deductTransferFee",
					"type": "bool"
				}
			],
			"name": "reflectionFromToken",
			"outputs": [
				{
					"internalType": "uint256",
					"name": "",
					"type": "uint256"
				}
			],
			"stateMutability": "view",
			"type": "function"
		},
		{
			"inputs": [],
			"name": "symbol",
			"outputs": [
				{
					"internalType": "string",
					"name": "",
					"type": "string"
				}
			],
			"stateMutability": "view",
			"type": "function"
		},
		{
			"inputs": [],
			"name": "totalFeesRedistributed",
			"outputs": [
				{
					"internalType": "uint256",
					"name": "",
					"type": "uint256"
				}
			],
			"stateMutability": "view",
			"type": "function"
		},
		{
			"inputs": [],
			"name": "totalSupply",
			"outputs": [
				{
					"internalType": "uint256",
					"name": "",
					"type": "uint256"
				}
			],
			"stateMutability": "view",
			"type": "function"
		},
		{
			"inputs": [],
			"name": "tradingOpen",
			"outputs": [
				{
					"internalType": "bool",
					"name": "",
					"type": "bool"
				}
			],
			"stateMutability": "view",
			"type": "function"
		},
		{
			"inputs": [
				{
					"internalType": "address",
					"name": "to",
					"type": "address"
				},
				{
					"internalType": "uint256",
					"name": "value",
					"type": "uint256"
				}
			],
			"name": "transfer",
			"outputs": [
				{
					"internalType": "bool",
					"name": "",
					"type": "bool"
				}
			],
			"stateMutability": "nonpayable",
			"type": "function"
		},
		{
			"inputs": [
				{
					"internalType": "address",
					"name": "from",
					"type": "address"
				},
				{
					"internalType": "address",
					"name": "to",
					"type": "address"
				},
				{
					"internalType": "uint256",
					"name": "value",
					"type": "uint256"
				}
			],
			"name": "transferFrom",
			"outputs": [
				{
					"internalType": "bool",
					"name": "",
					"type": "bool"
				}
			],
			"stateMutability": "nonpayable",
			"type": "function"
		},
		{
			"stateMutability": "payable",
			"type": "receive"
		}
	]
}