{
	"data": {
		"bytecode": {
			"linkReferences": {},
			"object": "6080604052600a8054610100600160a81b03191633610100021790555f600d556015805460ff1916905534801562000035575f80fd5b506040518060400160405280600881526020016730b1319031b7b4b760c11b81525060405180604001604052806005815260200164435942434360d81b8152508160039081620000869190620003f2565b506004620000958282620003f2565b5050600a805460ff191660129081178255620000b3925090620005c9565b620000c390633b9aca00620005dd565b600b819055620000d5905f196200060b565b620000e2905f1962000621565b600c556002600e819055600f5560016010819055601155600a54601280546101009092046001600160a01b03166001600160a01b0319909216919091179055600b54620001329060649062000637565b6200013f906002620005dd565b601455600160075f6200015f600a5461010090046001600160a01b031690565b6001600160a01b03908116825260208083019390935260409182015f908120805495151560ff199687161790556012548216815260078452828120805486166001908117909155308252838220805490961617909455600c54600a54610100900490911684526005909252909120819055620001dd903390620001e3565b62000663565b6001600160a01b038216620002125760405163ec442f0560e01b81525f60048201526024015b60405180910390fd5b6200021f5f838362000223565b5050565b6001600160a01b03831662000251578060025f8282546200024591906200064d565b90915550620002c39050565b6001600160a01b0383165f9081526020819052604090205481811015620002a55760405163391434e360e21b81526001600160a01b0385166004820152602481018290526044810183905260640162000209565b6001600160a01b0384165f9081526020819052604090209082900390555b6001600160a01b038216620002e157600280548290039055620002ff565b6001600160a01b0382165f9081526020819052604090208054820190555b816001600160a01b0316836001600160a01b03167fddf252ad1be2c89b69c2b068fc378daa952ba7f163c4a11628f55a4df523b3ef836040516200034591815260200190565b60405180910390a3505050565b634e487b7160e01b5f52604160045260245ffd5b600181811c908216806200037b57607f821691505b6020821081036200039a57634e487b7160e01b5f52602260045260245ffd5b50919050565b601f821115620003ed575f81815260208120601f850160051c81016020861015620003c85750805b601f850160051c820191505b81811015620003e957828155600101620003d4565b5050505b505050565b81516001600160401b038111156200040e576200040e62000352565b62000426816200041f845462000366565b84620003a0565b602080601f8311600181146200045c575f8415620004445750858301515b5f19600386901b1c1916600185901b178555620003e9565b5f85815260208120601f198616915b828110156200048c578886015182559484019460019091019084016200046b565b5085821015620004aa57878501515f19600388901b60f8161c191681555b5050505050600190811b01905550565b634e487b7160e01b5f52601160045260245ffd5b600181815b808511156200050e57815f1904821115620004f257620004f2620004ba565b808516156200050057918102915b93841c9390800290620004d3565b509250929050565b5f826200052657506001620005c3565b816200053457505f620005c3565b81600181146200054d5760028114620005585762000578565b6001915050620005c3565b60ff8411156200056c576200056c620004ba565b50506001821b620005c3565b5060208310610133831016604e8410600b84101617156200059d575081810a620005c3565b620005a98383620004ce565b805f1904821115620005bf57620005bf620004ba565b0290505b92915050565b5f620005d6838362000516565b9392505050565b8082028115828204841417620005c357620005c3620004ba565b634e487b7160e01b5f52601260045260245ffd5b5f826200061c576200061c620005f7565b500690565b81810381811115620005c357620005c3620004ba565b5f82620006485762000648620005f7565b500490565b80820180821115620005c357620005c3620004ba565b611a2a80620006715f395ff3fe608060405260043610610198575f3560e01c806370a08231116100e7578063a9059cbb11610087578063dd62ed3e11610062578063dd62ed3e1461048d578063f2fde38b146104d1578063f66608fe146104f0578063fdeb889f14610504575f80fd5b8063a9059cbb1461041a578063cba0e99614610439578063d12dc1c114610470575f80fd5b80638873b15f116100c25780638873b15f146103925780638da5cb5b146103b157806395d89b41146103e7578063a8b08982146103fb575f80fd5b806370a082311461034b578063715018a61461036a57806383ad79941461037e575f80fd5b806332035504116101525780635342acb41161012d5780635342acb4146102cd5780635c7ffc88146103045780636049876e1461031857806360c3ae8414610337575f80fd5b8063320355041461027b578063437823ec1461028f5780634549b039146102ae575f80fd5b8063053ab182146101a357806306fdde03146101c4578063095ea7b3146101ee57806318160ddd1461021d57806323b872dd1461023b578063313ce5671461025a575f80fd5b3661019f57005b5f80fd5b3480156101ae575f80fd5b506101c26101bd3660046117b2565b610523565b005b3480156101cf575f80fd5b506101d861060e565b6040516101e591906117c9565b60405180910390f35b3480156101f9575f80fd5b5061020d61020836600461182f565b61069e565b60405190151581526020016101e5565b348015610228575f80fd5b50600b545b6040519081526020016101e5565b348015610246575f80fd5b5061020d610255366004611857565b6106b7565b348015610265575f80fd5b50600a5460405160ff90911681526020016101e5565b348015610286575f80fd5b50600d5461022d565b34801561029a575f80fd5b506101c26102a9366004611890565b6106da565b3480156102b9575f80fd5b5061022d6102c83660046118a9565b610721565b3480156102d8575f80fd5b5061020d6102e7366004611890565b6001600160a01b03165f9081526007602052604090205460ff1690565b34801561030f575f80fd5b506101c26107a7565b348015610323575f80fd5b506101c2610332366004611890565b6107d8565b348015610342575f80fd5b506101c261091d565b348015610356575f80fd5b5061022d610365366004611890565b61094a565b348015610375575f80fd5b506101c26109a6565b348015610389575f80fd5b50600e5461022d565b34801561039d575f80fd5b506101c26103ac366004611890565b610a2b565b3480156103bc575f80fd5b50600a5461010090046001600160a01b03165b6040516001600160a01b0390911681526020016101e5565b3480156103f2575f80fd5b506101d8610a6c565b348015610406575f80fd5b506013546103cf906001600160a01b031681565b348015610425575f80fd5b5061020d61043436600461182f565b610a7b565b348015610444575f80fd5b5061020d610453366004611890565b6001600160a01b03165f9081526008602052604090205460ff1690565b34801561047b575f80fd5b506012546001600160a01b03166103cf565b348015610498575f80fd5b5061022d6104a73660046118db565b6001600160a01b039182165f90815260016020908152604080832093909416825291909152205490565b3480156104dc575f80fd5b506101c26104eb366004611890565b610a88565b3480156104fb575f80fd5b5060105461022d565b34801561050f575f80fd5b506101c261051e366004611890565b610ace565b335f8181526008602052604090205460ff161561059c5760405162461bcd60e51b815260206004820152602c60248201527f4578636c75646564206164647265737365732063616e6e6f742063616c6c207460448201526b3434b990333ab731ba34b7b760a11b60648201526084015b60405180910390fd5b5f6105a683610c74565b5050506001600160a01b0383165f908152600560205260409020549091506105cf908290611920565b6001600160a01b0383165f90815260056020526040902055600c546105f5908290611920565b600c55600d54610606908490611933565b600d55505050565b60606003805461061d90611946565b80601f016020809104026020016040519081016040528092919081815260200182805461064990611946565b80156106945780601f1061066b57610100808354040283529160200191610694565b820191905f5260205f20905b81548152906001019060200180831161067757829003601f168201915b5050505050905090565b5f336106ab818585610cc5565b60019150505b92915050565b5f336106c4858285610cd7565b6106cf858585610d53565b506001949350505050565b600a54339061010090046001600160a01b03166001600160a01b03160361071e576001600160a01b0381165f908152600760205260409020805460ff191660011790555b50565b5f600b548311156107745760405162461bcd60e51b815260206004820152601f60248201527f416d6f756e74206d757374206265206c657373207468616e20737570706c79006044820152606401610593565b81610790575f61078384610c74565b509193506106b192505050565b5f61079a84610c74565b509093506106b192505050565b600a54339061010090046001600160a01b03166001600160a01b0316036107d6576015805460ff191660011790555b565b600a54339061010090046001600160a01b03166001600160a01b03160361071e576001600160a01b0381165f9081526008602052604090205460ff16156108615760405162461bcd60e51b815260206004820152601b60248201527f4163636f756e7420697320616c7265616479206578636c7564656400000000006044820152606401610593565b6001600160a01b0381165f90815260056020526040902054156108b8576001600160a01b0381165f9081526005602052604090205461089f90610f8a565b6001600160a01b0382165f908152600660205260409020555b6001600160a01b03165f818152600860205260408120805460ff191660019081179091556009805491820181559091527f6e1540171b6c0c960b71a7020d9f60077f6af931a8bbf590da0223dacf75c7af0180546001600160a01b0319169091179055565b600a54339061010090046001600160a01b03166001600160a01b0316036107d6576015805460ff19169055565b6001600160a01b0381165f9081526008602052604081205460ff161561098557506001600160a01b03165f9081526006602052604090205490565b6001600160a01b0382165f908152600560205260409020546106b190610f8a565b600a54339061010090046001600160a01b03166001600160a01b0316036107d657600a5461010090046001600160a01b0316610a185760405162461bcd60e51b8152602060048201526011602482015270185b1c9958591e481c995b9bdd5b98d959607a1b6044820152606401610593565b600a8054610100600160a81b0319169055565b600a54339061010090046001600160a01b03166001600160a01b03160361071e57601380546001600160a01b0383166001600160a01b031990911617905550565b60606004805461061d90611946565b5f336106ab818585610d53565b600a54339061010090046001600160a01b03166001600160a01b03160361071e57600a80546001600160a01b03831661010002610100600160a81b031990911617905550565b600a54339061010090046001600160a01b03166001600160a01b03160361071e576001600160a01b0381165f9081526008602052604090205460ff16610b565760405162461bcd60e51b815260206004820152601b60248201527f4163636f756e7420697320616c726561647920696e636c7564656400000000006044820152606401610593565b5f5b600954811015610c7057816001600160a01b031660098281548110610b7f57610b7f61197e565b5f918252602090912001546001600160a01b031603610c5e5760098054610ba890600190611920565b81548110610bb857610bb861197e565b5f91825260209091200154600980546001600160a01b039092169183908110610be357610be361197e565b5f91825260208083209190910180546001600160a01b0319166001600160a01b039485161790559184168152600682526040808220829055600890925220805460ff191690556009805480610c3a57610c3a611992565b5f8281526020902081015f1990810180546001600160a01b03191690550190555050565b80610c68816119a6565b915050610b58565b5050565b5f805f805f610c828661100c565b90505f610c8f8288611920565b90505f610c9a61103f565b90505f610ca782846119be565b90505f610cb4838b6119be565b9a9199509297509095509350505050565b610cd28383836001611060565b505050565b6001600160a01b038381165f908152600160209081526040808320938616835292905220545f19811015610d4d5781811015610d3f57604051637dc7a0d960e11b81526001600160a01b03841660048201526024810182905260448101839052606401610593565b610d4d84848484035f611060565b50505050565b6001600160a01b038316610db75760405162461bcd60e51b815260206004820152602560248201527f45524332303a207472616e736665722066726f6d20746865207a65726f206164604482015264647265737360d81b6064820152608401610593565b6001600160a01b038216610e195760405162461bcd60e51b815260206004820152602360248201527f45524332303a207472616e7366657220746f20746865207a65726f206164647260448201526265737360e81b6064820152608401610593565b5f610e238461094a565b905081811015610e845760405162461bcd60e51b815260206004820152602660248201527f45524332303a207472616e7366657220616d6f756e7420657863656564732062604482015265616c616e636560d01b6064820152608401610593565b600a546001600160a01b038581166101009092041614801590610eb557506012546001600160a01b03858116911614155b8015610ec3575060155460ff165b15610f205760145482610ed58561094a565b610edf9190611933565b1115610f205760405162461bcd60e51b815260206004820152601060248201526f5768616c65206465746563746564212160801b6044820152606401610593565b6013545f906001600160a01b0386811691161480610f4b57506013546001600160a01b038581169116145b15610f54575060015b6001600160a01b0385165f9081526007602052604090205460ff1615610f7757505f5b610f8385858584611132565b5050505050565b5f600c54821115610ff05760405162461bcd60e51b815260206004820152602a60248201527f416d6f756e74206d757374206265206c657373207468616e20746f74616c207260448201526965666c656374696f6e7360b01b6064820152608401610593565b5f610ff961103f565b905061100581846119d5565b9392505050565b5f80601054600e5461101e9190611933565b90505f606461102d83866119be565b61103791906119d5565b949350505050565b5f805f61104a6112a1565b909250905061105981836119d5565b9250505090565b6001600160a01b0384166110895760405163e602df0560e01b81525f6004820152602401610593565b6001600160a01b0383166110b257604051634a1406b160e11b81525f6004820152602401610593565b6001600160a01b038085165f9081526001602090815260408083209387168352929052208290558015610d4d57826001600160a01b0316846001600160a01b03167f8c5be1e5ebec7d5bd14f71427d1e84f3dd0314c0f7b2291e5b200ac8c7c3b9258460405161112491815260200190565b60405180910390a350505050565b8061113f5761113f61141b565b6001600160a01b0384165f9081526008602052604090205460ff16801561117e57506001600160a01b0383165f9081526008602052604090205460ff16155b156111935761118e848484611448565b61128b565b6001600160a01b0384165f9081526008602052604090205460ff161580156111d257506001600160a01b0383165f9081526008602052604090205460ff165b156111e25761118e848484611563565b6001600160a01b0384165f9081526008602052604090205460ff1615801561122257506001600160a01b0383165f9081526008602052604090205460ff16155b156112325761118e848484611602565b6001600160a01b0384165f9081526008602052604090205460ff16801561127057506001600160a01b0383165f9081526008602052604090205460ff165b156112805761118e84848461163c565b61128b848484611602565b80610d4d57610d4d600f54600e55601154601055565b600c54600b545f918291825b6009548110156113ea578260055f600984815481106112ce576112ce61197e565b5f9182526020808320909101546001600160a01b03168352820192909252604001902054118061133657508160065f600984815481106113105761131061197e565b5f9182526020808320909101546001600160a01b03168352820192909252604001902054115b1561134c57600c54600b54945094505050509091565b60055f600983815481106113625761136261197e565b5f9182526020808320909101546001600160a01b031683528201929092526040019020546113909084611920565b925060065f600983815481106113a8576113a861197e565b5f9182526020808320909101546001600160a01b031683528201929092526040019020546113d69083611920565b9150806113e2816119a6565b9150506112ad565b50600b54600c546113fb91906119d5565b82101561141257600c54600b549350935050509091565b90939092509050565b600e5415801561142b5750601054155b1561143257565b600e8054600f55601080546011555f9182905555565b5f805f8061145585610c74565b6001600160a01b038b165f9081526006602052604090205493975091955093509150611482908690611920565b6001600160a01b0388165f908152600660209081526040808320939093556005905220546114b1908590611920565b6001600160a01b038089165f9081526005602052604080822093909355908816815220546114e0908490611933565b6001600160a01b0387165f908152600560205260409020556115038786836116a5565b61150d8582611760565b856001600160a01b0316876001600160a01b03167fddf252ad1be2c89b69c2b068fc378daa952ba7f163c4a11628f55a4df523b3ef8460405161155291815260200190565b60405180910390a350505050505050565b5f805f8061157085610c74565b6001600160a01b038b165f908152600560205260409020549397509195509350915061159d908590611920565b6001600160a01b038089165f908152600560209081526040808320949094559189168152600690915220546115d3908390611933565b6001600160a01b0387165f908152600660209081526040808320939093556005905220546114e0908490611933565b5f805f8061160f85610c74565b6001600160a01b038b165f90815260056020526040902054939750919550935091506114b1908590611920565b5f805f8061164985610c74565b6001600160a01b038b165f9081526006602052604090205493975091955093509150611676908690611920565b6001600160a01b0388165f9081526006602090815260408083209390935560059052205461159d908590611920565b5f6064601054846116b691906119be565b6116c091906119d5565b90508015610d4d575f6116d383836119be565b6012546001600160a01b03165f908152600560205260409020549091506116fb908290611933565b601280546001600160a01b039081165f90815260056020908152604091829020949094559154915185815291811692908816917fddf252ad1be2c89b69c2b068fc378daa952ba7f163c4a11628f55a4df523b3ef910160405180910390a35050505050565b5f6064600e548461177191906119be565b61177b91906119d5565b90505f61178883836119be565b905080600c546117989190611920565b600c55600d546117a9908390611933565b600d5550505050565b5f602082840312156117c2575f80fd5b5035919050565b5f6020808352835180828501525f5b818110156117f4578581018301518582016040015282016117d8565b505f604082860101526040601f19601f8301168501019250505092915050565b80356001600160a01b038116811461182a575f80fd5b919050565b5f8060408385031215611840575f80fd5b61184983611814565b946020939093013593505050565b5f805f60608486031215611869575f80fd5b61187284611814565b925061188060208501611814565b9150604084013590509250925092565b5f602082840312156118a0575f80fd5b61100582611814565b5f80604083850312156118ba575f80fd5b82359150602083013580151581146118d0575f80fd5b809150509250929050565b5f80604083850312156118ec575f80fd5b6118f583611814565b915061190360208401611814565b90509250929050565b634e487b7160e01b5f52601160045260245ffd5b818103818111156106b1576106b161190c565b808201808211156106b1576106b161190c565b600181811c9082168061195a57607f821691505b60208210810361197857634e487b7160e01b5f52602260045260245ffd5b50919050565b634e487b7160e01b5f52603260045260245ffd5b634e487b7160e01b5f52603160045260245ffd5b5f600182016119b7576119b761190c565b5060010190565b80820281158282048414176106b1576106b161190c565b5f826119ef57634e487b7160e01b5f52601260045260245ffd5b50049056fea2646970667358221220ab85f0542cd11c51f3e18c8037bd49f28e828f82b915f7208c0e0cf6fdcfb53364736f6c63430008140033",
			"opcodes": "PUSH1 0x80 PUSH1 0x40 MSTORE PUSH1 0xA DUP1 SLOAD PUSH2 0x100 PUSH1 0x1 PUSH1 0xA8 SHL SUB NOT AND CALLER PUSH2 0x100 MUL OR SWAP1 SSTORE PUSH0 PUSH1 0xD SSTORE PUSH1 0x15 DUP1 SLOAD PUSH1 0xFF NOT AND SWAP1 SSTORE CALLVALUE DUP1 ISZERO PUSH3 0x35 JUMPI PUSH0 DUP1 REVERT JUMPDEST POP PUSH1 0x40 MLOAD DUP1 PUSH1 0x40 ADD PUSH1 0x40 MSTORE DUP1 PUSH1 0x8 DUP2 MSTORE PUSH1 0x20 ADD PUSH8 0x30B1319031B7B4B7 PUSH1 0xC1 SHL DUP2 MSTORE POP PUSH1 0x40 MLOAD DUP1 PUSH1 0x40 ADD PUSH1 0x40 MSTORE DUP1 PUSH1 0x5 DUP2 MSTORE PUSH1 0x20 ADD PUSH5 0x4359424343 PUSH1 0xD8 SHL DUP2 MSTORE POP DUP2 PUSH1 0x3 SWAP1 DUP2 PUSH3 0x86 SWAP2 SWAP1 PUSH3 0x3F2 JUMP JUMPDEST POP PUSH1 0x4 PUSH3 0x95 DUP3 DUP3 PUSH3 0x3F2 JUMP JUMPDEST POP POP PUSH1 0xA DUP1 SLOAD PUSH1 0xFF NOT AND PUSH1 0x12 SWAP1 DUP2 OR DUP3 SSTORE PUSH3 0xB3 SWAP3 POP SWAP1 PUSH3 0x5C9 JUMP JUMPDEST PUSH3 0xC3 SWAP1 PUSH4 0x3B9ACA00 PUSH3 0x5DD JUMP JUMPDEST PUSH1 0xB DUP2 SWAP1 SSTORE PUSH3 0xD5 SWAP1 PUSH0 NOT PUSH3 0x60B JUMP JUMPDEST PUSH3 0xE2 SWAP1 PUSH0 NOT PUSH3 0x621 JUMP JUMPDEST PUSH1 0xC SSTORE PUSH1 0x2 PUSH1 0xE DUP2 SWAP1 SSTORE PUSH1 0xF SSTORE PUSH1 0x1 PUSH1 0x10 DUP2 SWAP1 SSTORE PUSH1 0x11 SSTORE PUSH1 0xA SLOAD PUSH1 0x12 DUP1 SLOAD PUSH2 0x100 SWAP1 SWAP3 DIV PUSH1 0x1 PUSH1 0x1 PUSH1 0xA0 SHL SUB AND PUSH1 0x1 PUSH1 0x1 PUSH1 0xA0 SHL SUB NOT SWAP1 SWAP3 AND SWAP2 SWAP1 SWAP2 OR SWAP1 SSTORE PUSH1 0xB SLOAD PUSH3 0x132 SWAP1 PUSH1 0x64 SWAP1 PUSH3 0x637 JUMP JUMPDEST PUSH3 0x13F SWAP1 PUSH1 0x2 PUSH3 0x5DD JUMP JUMPDEST PUSH1 0x14 SSTORE PUSH1 0x1 PUSH1 0x7 PUSH0 PUSH3 0x15F PUSH1 0xA SLOAD PUSH2 0x100 SWAP1 DIV PUSH1 0x1 PUSH1 0x1 PUSH1 0xA0 SHL SUB AND SWAP1 JUMP JUMPDEST PUSH1 0x1 PUSH1 0x1 PUSH1 0xA0 SHL SUB SWAP1 DUP2 AND DUP3 MSTORE PUSH1 0x20 DUP1 DUP4 ADD SWAP4 SWAP1 SWAP4 MSTORE PUSH1 0x40 SWAP2 DUP3 ADD PUSH0 SWAP1 DUP2 KECCAK256 DUP1 SLOAD SWAP6 ISZERO ISZERO PUSH1 0xFF NOT SWAP7 DUP8 AND OR SWAP1 SSTORE PUSH1 0x12 SLOAD DUP3 AND DUP2 MSTORE PUSH1 0x7 DUP5 MSTORE DUP3 DUP2 KECCAK256 DUP1 SLOAD DUP7 AND PUSH1 0x1 SWAP1 DUP2 OR SWAP1 SWAP2 SSTORE ADDRESS DUP3 MSTORE DUP4 DUP3 KECCAK256 DUP1 SLOAD SWAP1 SWAP7 AND OR SWAP1 SWAP5 SSTORE PUSH1 0xC SLOAD PUSH1 0xA SLOAD PUSH2 0x100 SWAP1 DIV SWAP1 SWAP2 AND DUP5 MSTORE PUSH1 0x5 SWAP1 SWAP3 MSTORE SWAP1 SWAP2 KECCAK256 DUP2 SWAP1 SSTORE PUSH3 0x1DD SWAP1 CALLER SWAP1 PUSH3 0x1E3 JUMP JUMPDEST PUSH3 0x663 JUMP JUMPDEST PUSH1 0x1 PUSH1 0x1 PUSH1 0xA0 SHL SUB DUP3 AND PUSH3 0x212 JUMPI PUSH1 0x40 MLOAD PUSH4 0xEC442F05 PUSH1 0xE0 SHL DUP2 MSTORE PUSH0 PUSH1 0x4 DUP3 ADD MSTORE PUSH1 0x24 ADD JUMPDEST PUSH1 0x40 MLOAD DUP1 SWAP2 SUB SWAP1 REVERT JUMPDEST PUSH3 0x21F PUSH0 DUP4 DUP4 PUSH3 0x223 JUMP JUMPDEST POP POP JUMP JUMPDEST PUSH1 0x1 PUSH1 0x1 PUSH1 0xA0 SHL SUB DUP4 AND PUSH3 0x251 JUMPI DUP1 PUSH1 0x2 PUSH0 DUP3 DUP3 SLOAD PUSH3 0x245 SWAP2 SWAP1 PUSH3 0x64D JUMP JUMPDEST SWAP1 SWAP2 SSTORE POP PUSH3 0x2C3 SWAP1 POP JUMP JUMPDEST PUSH1 0x1 PUSH1 0x1 PUSH1 0xA0 SHL SUB DUP4 AND PUSH0 SWAP1 DUP2 MSTORE PUSH1 0x20 DUP2 SWAP1 MSTORE PUSH1 0x40 SWAP1 KECCAK256 SLOAD DUP2 DUP2 LT ISZERO PUSH3 0x2A5 JUMPI PUSH1 0x40 MLOAD PUSH4 0x391434E3 PUSH1 0xE2 SHL DUP2 MSTORE PUSH1 0x1 PUSH1 0x1 PUSH1 0xA0 SHL SUB DUP6 AND PUSH1 0x4 DUP3 ADD MSTORE PUSH1 0x24 DUP2 ADD DUP3 SWAP1 MSTORE PUSH1 0x44 DUP2 ADD DUP4 SWAP1 MSTORE PUSH1 0x64 ADD PUSH3 0x209 JUMP JUMPDEST PUSH1 0x1 PUSH1 0x1 PUSH1 0xA0 SHL SUB DUP5 AND PUSH0 SWAP1 DUP2 MSTORE PUSH1 0x20 DUP2 SWAP1 MSTORE PUSH1 0x40 SWAP1 KECCAK256 SWAP1 DUP3 SWAP1 SUB SWAP1 SSTORE JUMPDEST PUSH1 0x1 PUSH1 0x1 PUSH1 0xA0 SHL SUB DUP3 AND PUSH3 0x2E1 JUMPI PUSH1 0x2 DUP1 SLOAD DUP3 SWAP1 SUB SWAP1 SSTORE PUSH3 0x2FF JUMP JUMPDEST PUSH1 0x1 PUSH1 0x1 PUSH1 0xA0 SHL SUB DUP3 AND PUSH0 SWAP1 DUP2 MSTORE PUSH1 0x20 DUP2 SWAP1 MSTORE PUSH1 0x40 SWAP1 KECCAK256 DUP1 SLOAD DUP3 ADD SWAP1 SSTORE JUMPDEST DUP2 PUSH1 0x1 PUSH1 0x1 PUSH1 0xA0 SHL SUB AND DUP4 PUSH1 0x1 PUSH1 0x1 PUSH1 0xA0 SHL SUB AND PUSH32 0xDDF252AD1BE2C89B69C2B068FC378DAA952BA7F163C4A11628F55A4DF523B3EF DUP4 PUSH1 0x40 MLOAD PUSH3 0x345 SWAP2 DUP2 MSTORE PUSH1 0x20 ADD SWAP1 JUMP JUMPDEST PUSH1 0x40 MLOAD DUP1 SWAP2 SUB SWAP1 LOG3 POP POP POP JUMP JUMPDEST PUSH4 0x4E487B71 PUSH1 0xE0 SHL PUSH0 MSTORE PUSH1 0x41 PUSH1 0x4 MSTORE PUSH1 0x24 PUSH0 REVERT JUMPDEST PUSH1 0x1 DUP2 DUP2 SHR SWAP1 DUP3 AND DUP1 PUSH3 0x37B JUMPI PUSH1 0x7F DUP3 AND SWAP2 POP JUMPDEST PUSH1 0x20 DUP3 LT DUP2 SUB PUSH3 0x39A JUMPI PUSH4 0x4E487B71 PUSH1 0xE0 SHL PUSH0 MSTORE PUSH1 0x22 PUSH1 0x4 MSTORE PUSH1 0x24 PUSH0 REVERT JUMPDEST POP SWAP2 SWAP1 POP JUMP JUMPDEST PUSH1 0x1F DUP3 GT ISZERO PUSH3 0x3ED JUMPI PUSH0 DUP2 DUP2 MSTORE PUSH1 0x20 DUP2 KECCAK256 PUSH1 0x1F DUP6 ADD PUSH1 0x5 SHR DUP2 ADD PUSH1 0x20 DUP7 LT ISZERO PUSH3 0x3C8 JUMPI POP DUP1 JUMPDEST PUSH1 0x1F DUP6 ADD PUSH1 0x5 SHR DUP3 ADD SWAP2 POP JUMPDEST DUP2 DUP2 LT ISZERO PUSH3 0x3E9 JUMPI DUP3 DUP2 SSTORE PUSH1 0x1 ADD PUSH3 0x3D4 JUMP JUMPDEST POP POP POP JUMPDEST POP POP POP JUMP JUMPDEST DUP2 MLOAD PUSH1 0x1 PUSH1 0x1 PUSH1 0x40 SHL SUB DUP2 GT ISZERO PUSH3 0x40E JUMPI PUSH3 0x40E PUSH3 0x352 JUMP JUMPDEST PUSH3 0x426 DUP2 PUSH3 0x41F DUP5 SLOAD PUSH3 0x366 JUMP JUMPDEST DUP5 PUSH3 0x3A0 JUMP JUMPDEST PUSH1 0x20 DUP1 PUSH1 0x1F DUP4 GT PUSH1 0x1 DUP2 EQ PUSH3 0x45C JUMPI PUSH0 DUP5 ISZERO PUSH3 0x444 JUMPI POP DUP6 DUP4 ADD MLOAD JUMPDEST PUSH0 NOT PUSH1 0x3 DUP7 SWAP1 SHL SHR NOT AND PUSH1 0x1 DUP6 SWAP1 SHL OR DUP6 SSTORE PUSH3 0x3E9 JUMP JUMPDEST PUSH0 DUP6 DUP2 MSTORE PUSH1 0x20 DUP2 KECCAK256 PUSH1 0x1F NOT DUP7 AND SWAP2 JUMPDEST DUP3 DUP2 LT ISZERO PUSH3 0x48C JUMPI DUP9 DUP7 ADD MLOAD DUP3 SSTORE SWAP5 DUP5 ADD SWAP5 PUSH1 0x1 SWAP1 SWAP2 ADD SWAP1 DUP5 ADD PUSH3 0x46B JUMP JUMPDEST POP DUP6 DUP3 LT ISZERO PUSH3 0x4AA JUMPI DUP8 DUP6 ADD MLOAD PUSH0 NOT PUSH1 0x3 DUP9 SWAP1 SHL PUSH1 0xF8 AND SHR NOT AND DUP2 SSTORE JUMPDEST POP POP POP POP POP PUSH1 0x1 SWAP1 DUP2 SHL ADD SWAP1 SSTORE POP JUMP JUMPDEST PUSH4 0x4E487B71 PUSH1 0xE0 SHL PUSH0 MSTORE PUSH1 0x11 PUSH1 0x4 MSTORE PUSH1 0x24 PUSH0 REVERT JUMPDEST PUSH1 0x1 DUP2 DUP2 JUMPDEST DUP1 DUP6 GT ISZERO PUSH3 0x50E JUMPI DUP2 PUSH0 NOT DIV DUP3 GT ISZERO PUSH3 0x4F2 JUMPI PUSH3 0x4F2 PUSH3 0x4BA JUMP JUMPDEST DUP1 DUP6 AND ISZERO PUSH3 0x500 JUMPI SWAP2 DUP2 MUL SWAP2 JUMPDEST SWAP4 DUP5 SHR SWAP4 SWAP1 DUP1 MUL SWAP1 PUSH3 0x4D3 JUMP JUMPDEST POP SWAP3 POP SWAP3 SWAP1 POP JUMP JUMPDEST PUSH0 DUP3 PUSH3 0x526 JUMPI POP PUSH1 0x1 PUSH3 0x5C3 JUMP JUMPDEST DUP2 PUSH3 0x534 JUMPI POP PUSH0 PUSH3 0x5C3 JUMP JUMPDEST DUP2 PUSH1 0x1 DUP2 EQ PUSH3 0x54D JUMPI PUSH1 0x2 DUP2 EQ PUSH3 0x558 JUMPI PUSH3 0x578 JUMP JUMPDEST PUSH1 0x1 SWAP2 POP POP PUSH3 0x5C3 JUMP JUMPDEST PUSH1 0xFF DUP5 GT ISZERO PUSH3 0x56C JUMPI PUSH3 0x56C PUSH3 0x4BA JUMP JUMPDEST POP POP PUSH1 0x1 DUP3 SHL PUSH3 0x5C3 JUMP JUMPDEST POP PUSH1 0x20 DUP4 LT PUSH2 0x133 DUP4 LT AND PUSH1 0x4E DUP5 LT PUSH1 0xB DUP5 LT AND OR ISZERO PUSH3 0x59D JUMPI POP DUP2 DUP2 EXP PUSH3 0x5C3 JUMP JUMPDEST PUSH3 0x5A9 DUP4 DUP4 PUSH3 0x4CE JUMP JUMPDEST DUP1 PUSH0 NOT DIV DUP3 GT ISZERO PUSH3 0x5BF JUMPI PUSH3 0x5BF PUSH3 0x4BA JUMP JUMPDEST MUL SWAP1 POP JUMPDEST SWAP3 SWAP2 POP POP JUMP JUMPDEST PUSH0 PUSH3 0x5D6 DUP4 DUP4 PUSH3 0x516 JUMP JUMPDEST SWAP4 SWAP3 POP POP POP JUMP JUMPDEST DUP1 DUP3 MUL DUP2 ISZERO DUP3 DUP3 DIV DUP5 EQ OR PUSH3 0x5C3 JUMPI PUSH3 0x5C3 PUSH3 0x4BA JUMP JUMPDEST PUSH4 0x4E487B71 PUSH1 0xE0 SHL PUSH0 MSTORE PUSH1 0x12 PUSH1 0x4 MSTORE PUSH1 0x24 PUSH0 REVERT JUMPDEST PUSH0 DUP3 PUSH3 0x61C JUMPI PUSH3 0x61C PUSH3 0x5F7 JUMP JUMPDEST POP MOD SWAP1 JUMP JUMPDEST DUP2 DUP2 SUB DUP2 DUP2 GT ISZERO PUSH3 0x5C3 JUMPI PUSH3 0x5C3 PUSH3 0x4BA JUMP JUMPDEST PUSH0 DUP3 PUSH3 0x648 JUMPI PUSH3 0x648 PUSH3 0x5F7 JUMP JUMPDEST POP DIV SWAP1 JUMP JUMPDEST DUP1 DUP3 ADD DUP1 DUP3 GT ISZERO PUSH3 0x5C3 JUMPI PUSH3 0x5C3 PUSH3 0x4BA JUMP JUMPDEST PUSH2 0x1A2A DUP1 PUSH3 0x671 PUSH0 CODECOPY PUSH0 RETURN INVALID PUSH1 0x80 PUSH1 0x40 MSTORE PUSH1 0x4 CALLDATASIZE LT PUSH2 0x198 JUMPI PUSH0 CALLDATALOAD PUSH1 0xE0 SHR DUP1 PUSH4 0x70A08231 GT PUSH2 0xE7 JUMPI DUP1 PUSH4 0xA9059CBB GT PUSH2 0x87 JUMPI DUP1 PUSH4 0xDD62ED3E GT PUSH2 0x62 JUMPI DUP1 PUSH4 0xDD62ED3E EQ PUSH2 0x48D JUMPI DUP1 PUSH4 0xF2FDE38B EQ PUSH2 0x4D1 JUMPI DUP1 PUSH4 0xF66608FE EQ PUSH2 0x4F0 JUMPI DUP1 PUSH4 0xFDEB889F EQ PUSH2 0x504 JUMPI PUSH0 DUP1 REVERT JUMPDEST DUP1 PUSH4 0xA9059CBB EQ PUSH2 0x41A JUMPI DUP1 PUSH4 0xCBA0E996 EQ PUSH2 0x439 JUMPI DUP1 PUSH4 0xD12DC1C1 EQ PUSH2 0x470 JUMPI PUSH0 DUP1 REVERT JUMPDEST DUP1 PUSH4 0x8873B15F GT PUSH2 0xC2 JUMPI DUP1 PUSH4 0x8873B15F EQ PUSH2 0x392 JUMPI DUP1 PUSH4 0x8DA5CB5B EQ PUSH2 0x3B1 JUMPI DUP1 PUSH4 0x95D89B41 EQ PUSH2 0x3E7 JUMPI DUP1 PUSH4 0xA8B08982 EQ PUSH2 0x3FB JUMPI PUSH0 DUP1 REVERT JUMPDEST DUP1 PUSH4 0x70A08231 EQ PUSH2 0x34B JUMPI DUP1 PUSH4 0x715018A6 EQ PUSH2 0x36A JUMPI DUP1 PUSH4 0x83AD7994 EQ PUSH2 0x37E JUMPI PUSH0 DUP1 REVERT JUMPDEST DUP1 PUSH4 0x32035504 GT PUSH2 0x152 JUMPI DUP1 PUSH4 0x5342ACB4 GT PUSH2 0x12D JUMPI DUP1 PUSH4 0x5342ACB4 EQ PUSH2 0x2CD JUMPI DUP1 PUSH4 0x5C7FFC88 EQ PUSH2 0x304 JUMPI DUP1 PUSH4 0x6049876E EQ PUSH2 0x318 JUMPI DUP1 PUSH4 0x60C3AE84 EQ PUSH2 0x337 JUMPI PUSH0 DUP1 REVERT JUMPDEST DUP1 PUSH4 0x32035504 EQ PUSH2 0x27B JUMPI DUP1 PUSH4 0x437823EC EQ PUSH2 0x28F JUMPI DUP1 PUSH4 0x4549B039 EQ PUSH2 0x2AE JUMPI PUSH0 DUP1 REVERT JUMPDEST DUP1 PUSH4 0x53AB182 EQ PUSH2 0x1A3 JUMPI DUP1 PUSH4 0x6FDDE03 EQ PUSH2 0x1C4 JUMPI DUP1 PUSH4 0x95EA7B3 EQ PUSH2 0x1EE JUMPI DUP1 PUSH4 0x18160DDD EQ PUSH2 0x21D JUMPI DUP1 PUSH4 0x23B872DD EQ PUSH2 0x23B JUMPI DUP1 PUSH4 0x313CE567 EQ PUSH2 0x25A JUMPI PUSH0 DUP1 REVERT JUMPDEST CALLDATASIZE PUSH2 0x19F JUMPI STOP JUMPDEST PUSH0 DUP1 REVERT JUMPDEST CALLVALUE DUP1 ISZERO PUSH2 0x1AE JUMPI PUSH0 DUP1 REVERT JUMPDEST POP PUSH2 0x1C2 PUSH2 0x1BD CALLDATASIZE PUSH1 0x4 PUSH2 0x17B2 JUMP JUMPDEST PUSH2 0x523 JUMP JUMPDEST STOP JUMPDEST CALLVALUE DUP1 ISZERO PUSH2 0x1CF JUMPI PUSH0 DUP1 REVERT JUMPDEST POP PUSH2 0x1D8 PUSH2 0x60E JUMP JUMPDEST PUSH1 0x40 MLOAD PUSH2 0x1E5 SWAP2 SWAP1 PUSH2 0x17C9 JUMP JUMPDEST PUSH1 0x40 MLOAD DUP1 SWAP2 SUB SWAP1 RETURN JUMPDEST CALLVALUE DUP1 ISZERO PUSH2 0x1F9 JUMPI PUSH0 DUP1 REVERT JUMPDEST POP PUSH2 0x20D PUSH2 0x208 CALLDATASIZE PUSH1 0x4 PUSH2 0x182F JUMP JUMPDEST PUSH2 0x69E JUMP JUMPDEST PUSH1 0x40 MLOAD SWAP1 ISZERO ISZERO DUP2 MSTORE PUSH1 0x20 ADD PUSH2 0x1E5 JUMP JUMPDEST CALLVALUE DUP1 ISZERO PUSH2 0x228 JUMPI PUSH0 DUP1 REVERT JUMPDEST POP PUSH1 0xB SLOAD JUMPDEST PUSH1 0x40 MLOAD SWAP1 DUP2 MSTORE PUSH1 0x20 ADD PUSH2 0x1E5 JUMP JUMPDEST CALLVALUE DUP1 ISZERO PUSH2 0x246 JUMPI PUSH0 DUP1 REVERT JUMPDEST POP PUSH2 0x20D PUSH2 0x255 CALLDATASIZE PUSH1 0x4 PUSH2 0x1857 JUMP JUMPDEST PUSH2 0x6B7 JUMP JUMPDEST CALLVALUE DUP1 ISZERO PUSH2 0x265 JUMPI PUSH0 DUP1 REVERT JUMPDEST POP PUSH1 0xA SLOAD PUSH1 0x40 MLOAD PUSH1 0xFF SWAP1 SWAP2 AND DUP2 MSTORE PUSH1 0x20 ADD PUSH2 0x1E5 JUMP JUMPDEST CALLVALUE DUP1 ISZERO PUSH2 0x286 JUMPI PUSH0 DUP1 REVERT JUMPDEST POP PUSH1 0xD SLOAD PUSH2 0x22D JUMP JUMPDEST CALLVALUE DUP1 ISZERO PUSH2 0x29A JUMPI PUSH0 DUP1 REVERT JUMPDEST POP PUSH2 0x1C2 PUSH2 0x2A9 CALLDATASIZE PUSH1 0x4 PUSH2 0x1890 JUMP JUMPDEST PUSH2 0x6DA JUMP JUMPDEST CALLVALUE DUP1 ISZERO PUSH2 0x2B9 JUMPI PUSH0 DUP1 REVERT JUMPDEST POP PUSH2 0x22D PUSH2 0x2C8 CALLDATASIZE PUSH1 0x4 PUSH2 0x18A9 JUMP JUMPDEST PUSH2 0x721 JUMP JUMPDEST CALLVALUE DUP1 ISZERO PUSH2 0x2D8 JUMPI PUSH0 DUP1 REVERT JUMPDEST POP PUSH2 0x20D PUSH2 0x2E7 CALLDATASIZE PUSH1 0x4 PUSH2 0x1890 JUMP JUMPDEST PUSH1 0x1 PUSH1 0x1 PUSH1 0xA0 SHL SUB AND PUSH0 SWAP1 DUP2 MSTORE PUSH1 0x7 PUSH1 0x20 MSTORE PUSH1 0x40 SWAP1 KECCAK256 SLOAD PUSH1 0xFF AND SWAP1 JUMP JUMPDEST CALLVALUE DUP1 ISZERO PUSH2 0x30F JUMPI PUSH0 DUP1 REVERT JUMPDEST POP PUSH2 0x1C2 PUSH2 0x7A7 JUMP JUMPDEST CALLVALUE DUP1 ISZERO PUSH2 0x323 JUMPI PUSH0 DUP1 REVERT JUMPDEST POP PUSH2 0x1C2 PUSH2 0x332 CALLDATASIZE PUSH1 0x4 PUSH2 0x1890 JUMP JUMPDEST PUSH2 0x7D8 JUMP JUMPDEST CALLVALUE DUP1 ISZERO PUSH2 0x342 JUMPI PUSH0 DUP1 REVERT JUMPDEST POP PUSH2 0x1C2 PUSH2 0x91D JUMP JUMPDEST CALLVALUE DUP1 ISZERO PUSH2 0x356 JUMPI PUSH0 DUP1 REVERT JUMPDEST POP PUSH2 0x22D PUSH2 0x365 CALLDATASIZE PUSH1 0x4 PUSH2 0x1890 JUMP JUMPDEST PUSH2 0x94A JUMP JUMPDEST CALLVALUE DUP1 ISZERO PUSH2 0x375 JUMPI PUSH0 DUP1 REVERT JUMPDEST POP PUSH2 0x1C2 PUSH2 0x9A6 JUMP JUMPDEST CALLVALUE DUP1 ISZERO PUSH2 0x389 JUMPI PUSH0 DUP1 REVERT JUMPDEST POP PUSH1 0xE SLOAD PUSH2 0x22D JUMP JUMPDEST CALLVALUE DUP1 ISZERO PUSH2 0x39D JUMPI PUSH0 DUP1 REVERT JUMPDEST POP PUSH2 0x1C2 PUSH2 0x3AC CALLDATASIZE PUSH1 0x4 PUSH2 0x1890 JUMP JUMPDEST PUSH2 0xA2B JUMP JUMPDEST CALLVALUE DUP1 ISZERO PUSH2 0x3BC JUMPI PUSH0 DUP1 REVERT JUMPDEST POP PUSH1 0xA SLOAD PUSH2 0x100 SWAP1 DIV PUSH1 0x1 PUSH1 0x1 PUSH1 0xA0 SHL SUB AND JUMPDEST PUSH1 0x40 MLOAD PUSH1 0x1 PUSH1 0x1 PUSH1 0xA0 SHL SUB SWAP1 SWAP2 AND DUP2 MSTORE PUSH1 0x20 ADD PUSH2 0x1E5 JUMP JUMPDEST CALLVALUE DUP1 ISZERO PUSH2 0x3F2 JUMPI PUSH0 DUP1 REVERT JUMPDEST POP PUSH2 0x1D8 PUSH2 0xA6C JUMP JUMPDEST CALLVALUE DUP1 ISZERO PUSH2 0x406 JUMPI PUSH0 DUP1 REVERT JUMPDEST POP PUSH1 0x13 SLOAD PUSH2 0x3CF SWAP1 PUSH1 0x1 PUSH1 0x1 PUSH1 0xA0 SHL SUB AND DUP2 JUMP JUMPDEST CALLVALUE DUP1 ISZERO PUSH2 0x425 JUMPI PUSH0 DUP1 REVERT JUMPDEST POP PUSH2 0x20D PUSH2 0x434 CALLDATASIZE PUSH1 0x4 PUSH2 0x182F JUMP JUMPDEST PUSH2 0xA7B JUMP JUMPDEST CALLVALUE DUP1 ISZERO PUSH2 0x444 JUMPI PUSH0 DUP1 REVERT JUMPDEST POP PUSH2 0x20D PUSH2 0x453 CALLDATASIZE PUSH1 0x4 PUSH2 0x1890 JUMP JUMPDEST PUSH1 0x1 PUSH1 0x1 PUSH1 0xA0 SHL SUB AND PUSH0 SWAP1 DUP2 MSTORE PUSH1 0x8 PUSH1 0x20 MSTORE PUSH1 0x40 SWAP1 KECCAK256 SLOAD PUSH1 0xFF AND SWAP1 JUMP JUMPDEST CALLVALUE DUP1 ISZERO PUSH2 0x47B JUMPI PUSH0 DUP1 REVERT JUMPDEST POP PUSH1 0x12 SLOAD PUSH1 0x1 PUSH1 0x1 PUSH1 0xA0 SHL SUB AND PUSH2 0x3CF JUMP JUMPDEST CALLVALUE DUP1 ISZERO PUSH2 0x498 JUMPI PUSH0 DUP1 REVERT JUMPDEST POP PUSH2 0x22D PUSH2 0x4A7 CALLDATASIZE PUSH1 0x4 PUSH2 0x18DB JUMP JUMPDEST PUSH1 0x1 PUSH1 0x1 PUSH1 0xA0 SHL SUB SWAP2 DUP3 AND PUSH0 SWAP1 DUP2 MSTORE PUSH1 0x1 PUSH1 0x20 SWAP1 DUP2 MSTORE PUSH1 0x40 DUP1 DUP4 KECCAK256 SWAP4 SWAP1 SWAP5 AND DUP3 MSTORE SWAP2 SWAP1 SWAP2 MSTORE KECCAK256 SLOAD SWAP1 JUMP JUMPDEST CALLVALUE DUP1 ISZERO PUSH2 0x4DC JUMPI PUSH0 DUP1 REVERT JUMPDEST POP PUSH2 0x1C2 PUSH2 0x4EB CALLDATASIZE PUSH1 0x4 PUSH2 0x1890 JUMP JUMPDEST PUSH2 0xA88 JUMP JUMPDEST CALLVALUE DUP1 ISZERO PUSH2 0x4FB JUMPI PUSH0 DUP1 REVERT JUMPDEST POP PUSH1 0x10 SLOAD PUSH2 0x22D JUMP JUMPDEST CALLVALUE DUP1 ISZERO PUSH2 0x50F JUMPI PUSH0 DUP1 REVERT JUMPDEST POP PUSH2 0x1C2 PUSH2 0x51E CALLDATASIZE PUSH1 0x4 PUSH2 0x1890 JUMP JUMPDEST PUSH2 0xACE JUMP JUMPDEST CALLER PUSH0 DUP2 DUP2 MSTORE PUSH1 0x8 PUSH1 0x20 MSTORE PUSH1 0x40 SWAP1 KECCAK256 SLOAD PUSH1 0xFF AND ISZERO PUSH2 0x59C JUMPI PUSH1 0x40 MLOAD PUSH3 0x461BCD PUSH1 0xE5 SHL DUP2 MSTORE PUSH1 0x20 PUSH1 0x4 DUP3 ADD MSTORE PUSH1 0x2C PUSH1 0x24 DUP3 ADD MSTORE PUSH32 0x4578636C75646564206164647265737365732063616E6E6F742063616C6C2074 PUSH1 0x44 DUP3 ADD MSTORE PUSH12 0x3434B990333AB731BA34B7B7 PUSH1 0xA1 SHL PUSH1 0x64 DUP3 ADD MSTORE PUSH1 0x84 ADD JUMPDEST PUSH1 0x40 MLOAD DUP1 SWAP2 SUB SWAP1 REVERT JUMPDEST PUSH0 PUSH2 0x5A6 DUP4 PUSH2 0xC74 JUMP JUMPDEST POP POP POP PUSH1 0x1 PUSH1 0x1 PUSH1 0xA0 SHL SUB DUP4 AND PUSH0 SWAP1 DUP2 MSTORE PUSH1 0x5 PUSH1 0x20 MSTORE PUSH1 0x40 SWAP1 KECCAK256 SLOAD SWAP1 SWAP2 POP PUSH2 0x5CF SWAP1 DUP3 SWAP1 PUSH2 0x1920 JUMP JUMPDEST PUSH1 0x1 PUSH1 0x1 PUSH1 0xA0 SHL SUB DUP4 AND PUSH0 SWAP1 DUP2 MSTORE PUSH1 0x5 PUSH1 0x20 MSTORE PUSH1 0x40 SWAP1 KECCAK256 SSTORE PUSH1 0xC SLOAD PUSH2 0x5F5 SWAP1 DUP3 SWAP1 PUSH2 0x1920 JUMP JUMPDEST PUSH1 0xC SSTORE PUSH1 0xD SLOAD PUSH2 0x606 SWAP1 DUP5 SWAP1 PUSH2 0x1933 JUMP JUMPDEST PUSH1 0xD SSTORE POP POP POP JUMP JUMPDEST PUSH1 0x60 PUSH1 0x3 DUP1 SLOAD PUSH2 0x61D SWAP1 PUSH2 0x1946 JUMP JUMPDEST DUP1 PUSH1 0x1F ADD PUSH1 0x20 DUP1 SWAP2 DIV MUL PUSH1 0x20 ADD PUSH1 0x40 MLOAD SWAP1 DUP2 ADD PUSH1 0x40 MSTORE DUP1 SWAP3 SWAP2 SWAP1 DUP2 DUP2 MSTORE PUSH1 0x20 ADD DUP3 DUP1 SLOAD PUSH2 0x649 SWAP1 PUSH2 0x1946 JUMP JUMPDEST DUP1 ISZERO PUSH2 0x694 JUMPI DUP1 PUSH1 0x1F LT PUSH2 0x66B JUMPI PUSH2 0x100 DUP1 DUP4 SLOAD DIV MUL DUP4 MSTORE SWAP2 PUSH1 0x20 ADD SWAP2 PUSH2 0x694 JUMP JUMPDEST DUP3 ADD SWAP2 SWAP1 PUSH0 MSTORE PUSH1 0x20 PUSH0 KECCAK256 SWAP1 JUMPDEST DUP2 SLOAD DUP2 MSTORE SWAP1 PUSH1 0x1 ADD SWAP1 PUSH1 0x20 ADD DUP1 DUP4 GT PUSH2 0x677 JUMPI DUP3 SWAP1 SUB PUSH1 0x1F AND DUP3 ADD SWAP2 JUMPDEST POP POP POP POP POP SWAP1 POP SWAP1 JUMP JUMPDEST PUSH0 CALLER PUSH2 0x6AB DUP2 DUP6 DUP6 PUSH2 0xCC5 JUMP JUMPDEST PUSH1 0x1 SWAP2 POP POP JUMPDEST SWAP3 SWAP2 POP POP JUMP JUMPDEST PUSH0 CALLER PUSH2 0x6C4 DUP6 DUP3 DUP6 PUSH2 0xCD7 JUMP JUMPDEST PUSH2 0x6CF DUP6 DUP6 DUP6 PUSH2 0xD53 JUMP JUMPDEST POP PUSH1 0x1 SWAP5 SWAP4 POP POP POP POP JUMP JUMPDEST PUSH1 0xA SLOAD CALLER SWAP1 PUSH2 0x100 SWAP1 DIV PUSH1 0x1 PUSH1 0x1 PUSH1 0xA0 SHL SUB AND PUSH1 0x1 PUSH1 0x1 PUSH1 0xA0 SHL SUB AND SUB PUSH2 0x71E JUMPI PUSH1 0x1 PUSH1 0x1 PUSH1 0xA0 SHL SUB DUP2 AND PUSH0 SWAP1 DUP2 MSTORE PUSH1 0x7 PUSH1 0x20 MSTORE PUSH1 0x40 SWAP1 KECCAK256 DUP1 SLOAD PUSH1 0xFF NOT AND PUSH1 0x1 OR SWAP1 SSTORE JUMPDEST POP JUMP JUMPDEST PUSH0 PUSH1 0xB SLOAD DUP4 GT ISZERO PUSH2 0x774 JUMPI PUSH1 0x40 MLOAD PUSH3 0x461BCD PUSH1 0xE5 SHL DUP2 MSTORE PUSH1 0x20 PUSH1 0x4 DUP3 ADD MSTORE PUSH1 0x1F PUSH1 0x24 DUP3 ADD MSTORE PUSH32 0x416D6F756E74206D757374206265206C657373207468616E20737570706C7900 PUSH1 0x44 DUP3 ADD MSTORE PUSH1 0x64 ADD PUSH2 0x593 JUMP JUMPDEST DUP2 PUSH2 0x790 JUMPI PUSH0 PUSH2 0x783 DUP5 PUSH2 0xC74 JUMP JUMPDEST POP SWAP2 SWAP4 POP PUSH2 0x6B1 SWAP3 POP POP POP JUMP JUMPDEST PUSH0 PUSH2 0x79A DUP5 PUSH2 0xC74 JUMP JUMPDEST POP SWAP1 SWAP4 POP PUSH2 0x6B1 SWAP3 POP POP POP JUMP JUMPDEST PUSH1 0xA SLOAD CALLER SWAP1 PUSH2 0x100 SWAP1 DIV PUSH1 0x1 PUSH1 0x1 PUSH1 0xA0 SHL SUB AND PUSH1 0x1 PUSH1 0x1 PUSH1 0xA0 SHL SUB AND SUB PUSH2 0x7D6 JUMPI PUSH1 0x15 DUP1 SLOAD PUSH1 0xFF NOT AND PUSH1 0x1 OR SWAP1 SSTORE JUMPDEST JUMP JUMPDEST PUSH1 0xA SLOAD CALLER SWAP1 PUSH2 0x100 SWAP1 DIV PUSH1 0x1 PUSH1 0x1 PUSH1 0xA0 SHL SUB AND PUSH1 0x1 PUSH1 0x1 PUSH1 0xA0 SHL SUB AND SUB PUSH2 0x71E JUMPI PUSH1 0x1 PUSH1 0x1 PUSH1 0xA0 SHL SUB DUP2 AND PUSH0 SWAP1 DUP2 MSTORE PUSH1 0x8 PUSH1 0x20 MSTORE PUSH1 0x40 SWAP1 KECCAK256 SLOAD PUSH1 0xFF AND ISZERO PUSH2 0x861 JUMPI PUSH1 0x40 MLOAD PUSH3 0x461BCD PUSH1 0xE5 SHL DUP2 MSTORE PUSH1 0x20 PUSH1 0x4 DUP3 ADD MSTORE PUSH1 0x1B PUSH1 0x24 DUP3 ADD MSTORE PUSH32 0x4163636F756E7420697320616C7265616479206578636C756465640000000000 PUSH1 0x44 DUP3 ADD MSTORE PUSH1 0x64 ADD PUSH2 0x593 JUMP JUMPDEST PUSH1 0x1 PUSH1 0x1 PUSH1 0xA0 SHL SUB DUP2 AND PUSH0 SWAP1 DUP2 MSTORE PUSH1 0x5 PUSH1 0x20 MSTORE PUSH1 0x40 SWAP1 KECCAK256 SLOAD ISZERO PUSH2 0x8B8 JUMPI PUSH1 0x1 PUSH1 0x1 PUSH1 0xA0 SHL SUB DUP2 AND PUSH0 SWAP1 DUP2 MSTORE PUSH1 0x5 PUSH1 0x20 MSTORE PUSH1 0x40 SWAP1 KECCAK256 SLOAD PUSH2 0x89F SWAP1 PUSH2 0xF8A JUMP JUMPDEST PUSH1 0x1 PUSH1 0x1 PUSH1 0xA0 SHL SUB DUP3 AND PUSH0 SWAP1 DUP2 MSTORE PUSH1 0x6 PUSH1 0x20 MSTORE PUSH1 0x40 SWAP1 KECCAK256 SSTORE JUMPDEST PUSH1 0x1 PUSH1 0x1 PUSH1 0xA0 SHL SUB AND PUSH0 DUP2 DUP2 MSTORE PUSH1 0x8 PUSH1 0x20 MSTORE PUSH1 0x40 DUP2 KECCAK256 DUP1 SLOAD PUSH1 0xFF NOT AND PUSH1 0x1 SWAP1 DUP2 OR SWAP1 SWAP2 SSTORE PUSH1 0x9 DUP1 SLOAD SWAP2 DUP3 ADD DUP2 SSTORE SWAP1 SWAP2 MSTORE PUSH32 0x6E1540171B6C0C960B71A7020D9F60077F6AF931A8BBF590DA0223DACF75C7AF ADD DUP1 SLOAD PUSH1 0x1 PUSH1 0x1 PUSH1 0xA0 SHL SUB NOT AND SWAP1 SWAP2 OR SWAP1 SSTORE JUMP JUMPDEST PUSH1 0xA SLOAD CALLER SWAP1 PUSH2 0x100 SWAP1 DIV PUSH1 0x1 PUSH1 0x1 PUSH1 0xA0 SHL SUB AND PUSH1 0x1 PUSH1 0x1 PUSH1 0xA0 SHL SUB AND SUB PUSH2 0x7D6 JUMPI PUSH1 0x15 DUP1 SLOAD PUSH1 0xFF NOT AND SWAP1 SSTORE JUMP JUMPDEST PUSH1 0x1 PUSH1 0x1 PUSH1 0xA0 SHL SUB DUP2 AND PUSH0 SWAP1 DUP2 MSTORE PUSH1 0x8 PUSH1 0x20 MSTORE PUSH1 0x40 DUP2 KECCAK256 SLOAD PUSH1 0xFF AND ISZERO PUSH2 0x985 JUMPI POP PUSH1 0x1 PUSH1 0x1 PUSH1 0xA0 SHL SUB AND PUSH0 SWAP1 DUP2 MSTORE PUSH1 0x6 PUSH1 0x20 MSTORE PUSH1 0x40 SWAP1 KECCAK256 SLOAD SWAP1 JUMP JUMPDEST PUSH1 0x1 PUSH1 0x1 PUSH1 0xA0 SHL SUB DUP3 AND PUSH0 SWAP1 DUP2 MSTORE PUSH1 0x5 PUSH1 0x20 MSTORE PUSH1 0x40 SWAP1 KECCAK256 SLOAD PUSH2 0x6B1 SWAP1 PUSH2 0xF8A JUMP JUMPDEST PUSH1 0xA SLOAD CALLER SWAP1 PUSH2 0x100 SWAP1 DIV PUSH1 0x1 PUSH1 0x1 PUSH1 0xA0 SHL SUB AND PUSH1 0x1 PUSH1 0x1 PUSH1 0xA0 SHL SUB AND SUB PUSH2 0x7D6 JUMPI PUSH1 0xA SLOAD PUSH2 0x100 SWAP1 DIV PUSH1 0x1 PUSH1 0x1 PUSH1 0xA0 SHL SUB AND PUSH2 0xA18 JUMPI PUSH1 0x40 MLOAD PUSH3 0x461BCD PUSH1 0xE5 SHL DUP2 MSTORE PUSH1 0x20 PUSH1 0x4 DUP3 ADD MSTORE PUSH1 0x11 PUSH1 0x24 DUP3 ADD MSTORE PUSH17 0x185B1C9958591E481C995B9BDD5B98D959 PUSH1 0x7A SHL PUSH1 0x44 DUP3 ADD MSTORE PUSH1 0x64 ADD PUSH2 0x593 JUMP JUMPDEST PUSH1 0xA DUP1 SLOAD PUSH2 0x100 PUSH1 0x1 PUSH1 0xA8 SHL SUB NOT AND SWAP1 SSTORE JUMP JUMPDEST PUSH1 0xA SLOAD CALLER SWAP1 PUSH2 0x100 SWAP1 DIV PUSH1 0x1 PUSH1 0x1 PUSH1 0xA0 SHL SUB AND PUSH1 0x1 PUSH1 0x1 PUSH1 0xA0 SHL SUB AND SUB PUSH2 0x71E JUMPI PUSH1 0x13 DUP1 SLOAD PUSH1 0x1 PUSH1 0x1 PUSH1 0xA0 SHL SUB DUP4 AND PUSH1 0x1 PUSH1 0x1 PUSH1 0xA0 SHL SUB NOT SWAP1 SWAP2 AND OR SWAP1 SSTORE POP JUMP JUMPDEST PUSH1 0x60 PUSH1 0x4 DUP1 SLOAD PUSH2 0x61D SWAP1 PUSH2 0x1946 JUMP JUMPDEST PUSH0 CALLER PUSH2 0x6AB DUP2 DUP6 DUP6 PUSH2 0xD53 JUMP JUMPDEST PUSH1 0xA SLOAD CALLER SWAP1 PUSH2 0x100 SWAP1 DIV PUSH1 0x1 PUSH1 0x1 PUSH1 0xA0 SHL SUB AND PUSH1 0x1 PUSH1 0x1 PUSH1 0xA0 SHL SUB AND SUB PUSH2 0x71E JUMPI PUSH1 0xA DUP1 SLOAD PUSH1 0x1 PUSH1 0x1 PUSH1 0xA0 SHL SUB DUP4 AND PUSH2 0x100 MUL PUSH2 0x100 PUSH1 0x1 PUSH1 0xA8 SHL SUB NOT SWAP1 SWAP2 AND OR SWAP1 SSTORE POP JUMP JUMPDEST PUSH1 0xA SLOAD CALLER SWAP1 PUSH2 0x100 SWAP1 DIV PUSH1 0x1 PUSH1 0x1 PUSH1 0xA0 SHL SUB AND PUSH1 0x1 PUSH1 0x1 PUSH1 0xA0 SHL SUB AND SUB PUSH2 0x71E JUMPI PUSH1 0x1 PUSH1 0x1 PUSH1 0xA0 SHL SUB DUP2 AND PUSH0 SWAP1 DUP2 MSTORE PUSH1 0x8 PUSH1 0x20 MSTORE PUSH1 0x40 SWAP1 KECCAK256 SLOAD PUSH1 0xFF AND PUSH2 0xB56 JUMPI PUSH1 0x40 MLOAD PUSH3 0x461BCD PUSH1 0xE5 SHL DUP2 MSTORE PUSH1 0x20 PUSH1 0x4 DUP3 ADD MSTORE PUSH1 0x1B PUSH1 0x24 DUP3 ADD MSTORE PUSH32 0x4163636F756E7420697320616C726561647920696E636C756465640000000000 PUSH1 0x44 DUP3 ADD MSTORE PUSH1 0x64 ADD PUSH2 0x593 JUMP JUMPDEST PUSH0 JUMPDEST PUSH1 0x9 SLOAD DUP2 LT ISZERO PUSH2 0xC70 JUMPI DUP2 PUSH1 0x1 PUSH1 0x1 PUSH1 0xA0 SHL SUB AND PUSH1 0x9 DUP3 DUP2 SLOAD DUP2 LT PUSH2 0xB7F JUMPI PUSH2 0xB7F PUSH2 0x197E JUMP JUMPDEST PUSH0 SWAP2 DUP3 MSTORE PUSH1 0x20 SWAP1 SWAP2 KECCAK256 ADD SLOAD PUSH1 0x1 PUSH1 0x1 PUSH1 0xA0 SHL SUB AND SUB PUSH2 0xC5E JUMPI PUSH1 0x9 DUP1 SLOAD PUSH2 0xBA8 SWAP1 PUSH1 0x1 SWAP1 PUSH2 0x1920 JUMP JUMPDEST DUP2 SLOAD DUP2 LT PUSH2 0xBB8 JUMPI PUSH2 0xBB8 PUSH2 0x197E JUMP JUMPDEST PUSH0 SWAP2 DUP3 MSTORE PUSH1 0x20 SWAP1 SWAP2 KECCAK256 ADD SLOAD PUSH1 0x9 DUP1 SLOAD PUSH1 0x1 PUSH1 0x1 PUSH1 0xA0 SHL SUB SWAP1 SWAP3 AND SWAP2 DUP4 SWAP1 DUP2 LT PUSH2 0xBE3 JUMPI PUSH2 0xBE3 PUSH2 0x197E JUMP JUMPDEST PUSH0 SWAP2 DUP3 MSTORE PUSH1 0x20 DUP1 DUP4 KECCAK256 SWAP2 SWAP1 SWAP2 ADD DUP1 SLOAD PUSH1 0x1 PUSH1 0x1 PUSH1 0xA0 SHL SUB NOT AND PUSH1 0x1 PUSH1 0x1 PUSH1 0xA0 SHL SUB SWAP5 DUP6 AND OR SWAP1 SSTORE SWAP2 DUP5 AND DUP2 MSTORE PUSH1 0x6 DUP3 MSTORE PUSH1 0x40 DUP1 DUP3 KECCAK256 DUP3 SWAP1 SSTORE PUSH1 0x8 SWAP1 SWAP3 MSTORE KECCAK256 DUP1 SLOAD PUSH1 0xFF NOT AND SWAP1 SSTORE PUSH1 0x9 DUP1 SLOAD DUP1 PUSH2 0xC3A JUMPI PUSH2 0xC3A PUSH2 0x1992 JUMP JUMPDEST PUSH0 DUP3 DUP2 MSTORE PUSH1 0x20 SWAP1 KECCAK256 DUP2 ADD PUSH0 NOT SWAP1 DUP2 ADD DUP1 SLOAD PUSH1 0x1 PUSH1 0x1 PUSH1 0xA0 SHL SUB NOT AND SWAP1 SSTORE ADD SWAP1 SSTORE POP POP JUMP JUMPDEST DUP1 PUSH2 0xC68 DUP2 PUSH2 0x19A6 JUMP JUMPDEST SWAP2 POP POP PUSH2 0xB58 JUMP JUMPDEST POP POP JUMP JUMPDEST PUSH0 DUP1 PUSH0 DUP1 PUSH0 PUSH2 0xC82 DUP7 PUSH2 0x100C JUMP JUMPDEST SWAP1 POP PUSH0 PUSH2 0xC8F DUP3 DUP9 PUSH2 0x1920 JUMP JUMPDEST SWAP1 POP PUSH0 PUSH2 0xC9A PUSH2 0x103F JUMP JUMPDEST SWAP1 POP PUSH0 PUSH2 0xCA7 DUP3 DUP5 PUSH2 0x19BE JUMP JUMPDEST SWAP1 POP PUSH0 PUSH2 0xCB4 DUP4 DUP12 PUSH2 0x19BE JUMP JUMPDEST SWAP11 SWAP2 SWAP10 POP SWAP3 SWAP8 POP SWAP1 SWAP6 POP SWAP4 POP POP POP POP JUMP JUMPDEST PUSH2 0xCD2 DUP4 DUP4 DUP4 PUSH1 0x1 PUSH2 0x1060 JUMP JUMPDEST POP POP POP JUMP JUMPDEST PUSH1 0x1 PUSH1 0x1 PUSH1 0xA0 SHL SUB DUP4 DUP2 AND PUSH0 SWAP1 DUP2 MSTORE PUSH1 0x1 PUSH1 0x20 SWAP1 DUP2 MSTORE PUSH1 0x40 DUP1 DUP4 KECCAK256 SWAP4 DUP7 AND DUP4 MSTORE SWAP3 SWAP1 MSTORE KECCAK256 SLOAD PUSH0 NOT DUP2 LT ISZERO PUSH2 0xD4D JUMPI DUP2 DUP2 LT ISZERO PUSH2 0xD3F JUMPI PUSH1 0x40 MLOAD PUSH4 0x7DC7A0D9 PUSH1 0xE1 SHL DUP2 MSTORE PUSH1 0x1 PUSH1 0x1 PUSH1 0xA0 SHL SUB DUP5 AND PUSH1 0x4 DUP3 ADD MSTORE PUSH1 0x24 DUP2 ADD DUP3 SWAP1 MSTORE PUSH1 0x44 DUP2 ADD DUP4 SWAP1 MSTORE PUSH1 0x64 ADD PUSH2 0x593 JUMP JUMPDEST PUSH2 0xD4D DUP5 DUP5 DUP5 DUP5 SUB PUSH0 PUSH2 0x1060 JUMP JUMPDEST POP POP POP POP JUMP JUMPDEST PUSH1 0x1 PUSH1 0x1 PUSH1 0xA0 SHL SUB DUP4 AND PUSH2 0xDB7 JUMPI PUSH1 0x40 MLOAD PUSH3 0x461BCD PUSH1 0xE5 SHL DUP2 MSTORE PUSH1 0x20 PUSH1 0x4 DUP3 ADD MSTORE PUSH1 0x25 PUSH1 0x24 DUP3 ADD MSTORE PUSH32 0x45524332303A207472616E736665722066726F6D20746865207A65726F206164 PUSH1 0x44 DUP3 ADD MSTORE PUSH5 0x6472657373 PUSH1 0xD8 SHL PUSH1 0x64 DUP3 ADD MSTORE PUSH1 0x84 ADD PUSH2 0x593 JUMP JUMPDEST PUSH1 0x1 PUSH1 0x1 PUSH1 0xA0 SHL SUB DUP3 AND PUSH2 0xE19 JUMPI PUSH1 0x40 MLOAD PUSH3 0x461BCD PUSH1 0xE5 SHL DUP2 MSTORE PUSH1 0x20 PUSH1 0x4 DUP3 ADD MSTORE PUSH1 0x23 PUSH1 0x24 DUP3 ADD MSTORE PUSH32 0x45524332303A207472616E7366657220746F20746865207A65726F2061646472 PUSH1 0x44 DUP3 ADD MSTORE PUSH3 0x657373 PUSH1 0xE8 SHL PUSH1 0x64 DUP3 ADD MSTORE PUSH1 0x84 ADD PUSH2 0x593 JUMP JUMPDEST PUSH0 PUSH2 0xE23 DUP5 PUSH2 0x94A JUMP JUMPDEST SWAP1 POP DUP2 DUP2 LT ISZERO PUSH2 0xE84 JUMPI PUSH1 0x40 MLOAD PUSH3 0x461BCD PUSH1 0xE5 SHL DUP2 MSTORE PUSH1 0x20 PUSH1 0x4 DUP3 ADD MSTORE PUSH1 0x26 PUSH1 0x24 DUP3 ADD MSTORE PUSH32 0x45524332303A207472616E7366657220616D6F756E7420657863656564732062 PUSH1 0x44 DUP3 ADD MSTORE PUSH6 0x616C616E6365 PUSH1 0xD0 SHL PUSH1 0x64 DUP3 ADD MSTORE PUSH1 0x84 ADD PUSH2 0x593 JUMP JUMPDEST PUSH1 0xA SLOAD PUSH1 0x1 PUSH1 0x1 PUSH1 0xA0 SHL SUB DUP6 DUP2 AND PUSH2 0x100 SWAP1 SWAP3 DIV AND EQ DUP1 ISZERO SWAP1 PUSH2 0xEB5 JUMPI POP PUSH1 0x12 SLOAD PUSH1 0x1 PUSH1 0x1 PUSH1 0xA0 SHL SUB DUP6 DUP2 AND SWAP2 AND EQ ISZERO JUMPDEST DUP1 ISZERO PUSH2 0xEC3 JUMPI POP PUSH1 0x15 SLOAD PUSH1 0xFF AND JUMPDEST ISZERO PUSH2 0xF20 JUMPI PUSH1 0x14 SLOAD DUP3 PUSH2 0xED5 DUP6 PUSH2 0x94A JUMP JUMPDEST PUSH2 0xEDF SWAP2 SWAP1 PUSH2 0x1933 JUMP JUMPDEST GT ISZERO PUSH2 0xF20 JUMPI PUSH1 0x40 MLOAD PUSH3 0x461BCD PUSH1 0xE5 SHL DUP2 MSTORE PUSH1 0x20 PUSH1 0x4 DUP3 ADD MSTORE PUSH1 0x10 PUSH1 0x24 DUP3 ADD MSTORE PUSH16 0x5768616C652064657465637465642121 PUSH1 0x80 SHL PUSH1 0x44 DUP3 ADD MSTORE PUSH1 0x64 ADD PUSH2 0x593 JUMP JUMPDEST PUSH1 0x13 SLOAD PUSH0 SWAP1 PUSH1 0x1 PUSH1 0x1 PUSH1 0xA0 SHL SUB DUP7 DUP2 AND SWAP2 AND EQ DUP1 PUSH2 0xF4B JUMPI POP PUSH1 0x13 SLOAD PUSH1 0x1 PUSH1 0x1 PUSH1 0xA0 SHL SUB DUP6 DUP2 AND SWAP2 AND EQ JUMPDEST ISZERO PUSH2 0xF54 JUMPI POP PUSH1 0x1 JUMPDEST PUSH1 0x1 PUSH1 0x1 PUSH1 0xA0 SHL SUB DUP6 AND PUSH0 SWAP1 DUP2 MSTORE PUSH1 0x7 PUSH1 0x20 MSTORE PUSH1 0x40 SWAP1 KECCAK256 SLOAD PUSH1 0xFF AND ISZERO PUSH2 0xF77 JUMPI POP PUSH0 JUMPDEST PUSH2 0xF83 DUP6 DUP6 DUP6 DUP5 PUSH2 0x1132 JUMP JUMPDEST POP POP POP POP POP JUMP JUMPDEST PUSH0 PUSH1 0xC SLOAD DUP3 GT ISZERO PUSH2 0xFF0 JUMPI PUSH1 0x40 MLOAD PUSH3 0x461BCD PUSH1 0xE5 SHL DUP2 MSTORE PUSH1 0x20 PUSH1 0x4 DUP3 ADD MSTORE PUSH1 0x2A PUSH1 0x24 DUP3 ADD MSTORE PUSH32 0x416D6F756E74206D757374206265206C657373207468616E20746F74616C2072 PUSH1 0x44 DUP3 ADD MSTORE PUSH10 0x65666C656374696F6E73 PUSH1 0xB0 SHL PUSH1 0x64 DUP3 ADD MSTORE PUSH1 0x84 ADD PUSH2 0x593 JUMP JUMPDEST PUSH0 PUSH2 0xFF9 PUSH2 0x103F JUMP JUMPDEST SWAP1 POP PUSH2 0x1005 DUP2 DUP5 PUSH2 0x19D5 JUMP JUMPDEST SWAP4 SWAP3 POP POP POP JUMP JUMPDEST PUSH0 DUP1 PUSH1 0x10 SLOAD PUSH1 0xE SLOAD PUSH2 0x101E SWAP2 SWAP1 PUSH2 0x1933 JUMP JUMPDEST SWAP1 POP PUSH0 PUSH1 0x64 PUSH2 0x102D DUP4 DUP7 PUSH2 0x19BE JUMP JUMPDEST PUSH2 0x1037 SWAP2 SWAP1 PUSH2 0x19D5 JUMP JUMPDEST SWAP5 SWAP4 POP POP POP POP JUMP JUMPDEST PUSH0 DUP1 PUSH0 PUSH2 0x104A PUSH2 0x12A1 JUMP JUMPDEST SWAP1 SWAP3 POP SWAP1 POP PUSH2 0x1059 DUP2 DUP4 PUSH2 0x19D5 JUMP JUMPDEST SWAP3 POP POP POP SWAP1 JUMP JUMPDEST PUSH1 0x1 PUSH1 0x1 PUSH1 0xA0 SHL SUB DUP5 AND PUSH2 0x1089 JUMPI PUSH1 0x40 MLOAD PUSH4 0xE602DF05 PUSH1 0xE0 SHL DUP2 MSTORE PUSH0 PUSH1 0x4 DUP3 ADD MSTORE PUSH1 0x24 ADD PUSH2 0x593 JUMP JUMPDEST PUSH1 0x1 PUSH1 0x1 PUSH1 0xA0 SHL SUB DUP4 AND PUSH2 0x10B2 JUMPI PUSH1 0x40 MLOAD PUSH4 0x4A1406B1 PUSH1 0xE1 SHL DUP2 MSTORE PUSH0 PUSH1 0x4 DUP3 ADD MSTORE PUSH1 0x24 ADD PUSH2 0x593 JUMP JUMPDEST PUSH1 0x1 PUSH1 0x1 PUSH1 0xA0 SHL SUB DUP1 DUP6 AND PUSH0 SWAP1 DUP2 MSTORE PUSH1 0x1 PUSH1 0x20 SWAP1 DUP2 MSTORE PUSH1 0x40 DUP1 DUP4 KECCAK256 SWAP4 DUP8 AND DUP4 MSTORE SWAP3 SWAP1 MSTORE KECCAK256 DUP3 SWAP1 SSTORE DUP1 ISZERO PUSH2 0xD4D JUMPI DUP3 PUSH1 0x1 PUSH1 0x1 PUSH1 0xA0 SHL SUB AND DUP5 PUSH1 0x1 PUSH1 0x1 PUSH1 0xA0 SHL SUB AND PUSH32 0x8C5BE1E5EBEC7D5BD14F71427D1E84F3DD0314C0F7B2291E5B200AC8C7C3B925 DUP5 PUSH1 0x40 MLOAD PUSH2 0x1124 SWAP2 DUP2 MSTORE PUSH1 0x20 ADD SWAP1 JUMP JUMPDEST PUSH1 0x40 MLOAD DUP1 SWAP2 SUB SWAP1 LOG3 POP POP POP POP JUMP JUMPDEST DUP1 PUSH2 0x113F JUMPI PUSH2 0x113F PUSH2 0x141B JUMP JUMPDEST PUSH1 0x1 PUSH1 0x1 PUSH1 0xA0 SHL SUB DUP5 AND PUSH0 SWAP1 DUP2 MSTORE PUSH1 0x8 PUSH1 0x20 MSTORE PUSH1 0x40 SWAP1 KECCAK256 SLOAD PUSH1 0xFF AND DUP1 ISZERO PUSH2 0x117E JUMPI POP PUSH1 0x1 PUSH1 0x1 PUSH1 0xA0 SHL SUB DUP4 AND PUSH0 SWAP1 DUP2 MSTORE PUSH1 0x8 PUSH1 0x20 MSTORE PUSH1 0x40 SWAP1 KECCAK256 SLOAD PUSH1 0xFF AND ISZERO JUMPDEST ISZERO PUSH2 0x1193 JUMPI PUSH2 0x118E DUP5 DUP5 DUP5 PUSH2 0x1448 JUMP JUMPDEST PUSH2 0x128B JUMP JUMPDEST PUSH1 0x1 PUSH1 0x1 PUSH1 0xA0 SHL SUB DUP5 AND PUSH0 SWAP1 DUP2 MSTORE PUSH1 0x8 PUSH1 0x20 MSTORE PUSH1 0x40 SWAP1 KECCAK256 SLOAD PUSH1 0xFF AND ISZERO DUP1 ISZERO PUSH2 0x11D2 JUMPI POP PUSH1 0x1 PUSH1 0x1 PUSH1 0xA0 SHL SUB DUP4 AND PUSH0 SWAP1 DUP2 MSTORE PUSH1 0x8 PUSH1 0x20 MSTORE PUSH1 0x40 SWAP1 KECCAK256 SLOAD PUSH1 0xFF AND JUMPDEST ISZERO PUSH2 0x11E2 JUMPI PUSH2 0x118E DUP5 DUP5 DUP5 PUSH2 0x1563 JUMP JUMPDEST PUSH1 0x1 PUSH1 0x1 PUSH1 0xA0 SHL SUB DUP5 AND PUSH0 SWAP1 DUP2 MSTORE PUSH1 0x8 PUSH1 0x20 MSTORE PUSH1 0x40 SWAP1 KECCAK256 SLOAD PUSH1 0xFF AND ISZERO DUP1 ISZERO PUSH2 0x1222 JUMPI POP PUSH1 0x1 PUSH1 0x1 PUSH1 0xA0 SHL SUB DUP4 AND PUSH0 SWAP1 DUP2 MSTORE PUSH1 0x8 PUSH1 0x20 MSTORE PUSH1 0x40 SWAP1 KECCAK256 SLOAD PUSH1 0xFF AND ISZERO JUMPDEST ISZERO PUSH2 0x1232 JUMPI PUSH2 0x118E DUP5 DUP5 DUP5 PUSH2 0x1602 JUMP JUMPDEST PUSH1 0x1 PUSH1 0x1 PUSH1 0xA0 SHL SUB DUP5 AND PUSH0 SWAP1 DUP2 MSTORE PUSH1 0x8 PUSH1 0x20 MSTORE PUSH1 0x40 SWAP1 KECCAK256 SLOAD PUSH1 0xFF AND DUP1 ISZERO PUSH2 0x1270 JUMPI POP PUSH1 0x1 PUSH1 0x1 PUSH1 0xA0 SHL SUB DUP4 AND PUSH0 SWAP1 DUP2 MSTORE PUSH1 0x8 PUSH1 0x20 MSTORE PUSH1 0x40 SWAP1 KECCAK256 SLOAD PUSH1 0xFF AND JUMPDEST ISZERO PUSH2 0x1280 JUMPI PUSH2 0x118E DUP5 DUP5 DUP5 PUSH2 0x163C JUMP JUMPDEST PUSH2 0x128B DUP5 DUP5 DUP5 PUSH2 0x1602 JUMP JUMPDEST DUP1 PUSH2 0xD4D JUMPI PUSH2 0xD4D PUSH1 0xF SLOAD PUSH1 0xE SSTORE PUSH1 0x11 SLOAD PUSH1 0x10 SSTORE JUMP JUMPDEST PUSH1 0xC SLOAD PUSH1 0xB SLOAD PUSH0 SWAP2 DUP3 SWAP2 DUP3 JUMPDEST PUSH1 0x9 SLOAD DUP2 LT ISZERO PUSH2 0x13EA JUMPI DUP3 PUSH1 0x5 PUSH0 PUSH1 0x9 DUP5 DUP2 SLOAD DUP2 LT PUSH2 0x12CE JUMPI PUSH2 0x12CE PUSH2 0x197E JUMP JUMPDEST PUSH0 SWAP2 DUP3 MSTORE PUSH1 0x20 DUP1 DUP4 KECCAK256 SWAP1 SWAP2 ADD SLOAD PUSH1 0x1 PUSH1 0x1 PUSH1 0xA0 SHL SUB AND DUP4 MSTORE DUP3 ADD SWAP3 SWAP1 SWAP3 MSTORE PUSH1 0x40 ADD SWAP1 KECCAK256 SLOAD GT DUP1 PUSH2 0x1336 JUMPI POP DUP2 PUSH1 0x6 PUSH0 PUSH1 0x9 DUP5 DUP2 SLOAD DUP2 LT PUSH2 0x1310 JUMPI PUSH2 0x1310 PUSH2 0x197E JUMP JUMPDEST PUSH0 SWAP2 DUP3 MSTORE PUSH1 0x20 DUP1 DUP4 KECCAK256 SWAP1 SWAP2 ADD SLOAD PUSH1 0x1 PUSH1 0x1 PUSH1 0xA0 SHL SUB AND DUP4 MSTORE DUP3 ADD SWAP3 SWAP1 SWAP3 MSTORE PUSH1 0x40 ADD SWAP1 KECCAK256 SLOAD GT JUMPDEST ISZERO PUSH2 0x134C JUMPI PUSH1 0xC SLOAD PUSH1 0xB SLOAD SWAP5 POP SWAP5 POP POP POP POP SWAP1 SWAP2 JUMP JUMPDEST PUSH1 0x5 PUSH0 PUSH1 0x9 DUP4 DUP2 SLOAD DUP2 LT PUSH2 0x1362 JUMPI PUSH2 0x1362 PUSH2 0x197E JUMP JUMPDEST PUSH0 SWAP2 DUP3 MSTORE PUSH1 0x20 DUP1 DUP4 KECCAK256 SWAP1 SWAP2 ADD SLOAD PUSH1 0x1 PUSH1 0x1 PUSH1 0xA0 SHL SUB AND DUP4 MSTORE DUP3 ADD SWAP3 SWAP1 SWAP3 MSTORE PUSH1 0x40 ADD SWAP1 KECCAK256 SLOAD PUSH2 0x1390 SWAP1 DUP5 PUSH2 0x1920 JUMP JUMPDEST SWAP3 POP PUSH1 0x6 PUSH0 PUSH1 0x9 DUP4 DUP2 SLOAD DUP2 LT PUSH2 0x13A8 JUMPI PUSH2 0x13A8 PUSH2 0x197E JUMP JUMPDEST PUSH0 SWAP2 DUP3 MSTORE PUSH1 0x20 DUP1 DUP4 KECCAK256 SWAP1 SWAP2 ADD SLOAD PUSH1 0x1 PUSH1 0x1 PUSH1 0xA0 SHL SUB AND DUP4 MSTORE DUP3 ADD SWAP3 SWAP1 SWAP3 MSTORE PUSH1 0x40 ADD SWAP1 KECCAK256 SLOAD PUSH2 0x13D6 SWAP1 DUP4 PUSH2 0x1920 JUMP JUMPDEST SWAP2 POP DUP1 PUSH2 0x13E2 DUP2 PUSH2 0x19A6 JUMP JUMPDEST SWAP2 POP POP PUSH2 0x12AD JUMP JUMPDEST POP PUSH1 0xB SLOAD PUSH1 0xC SLOAD PUSH2 0x13FB SWAP2 SWAP1 PUSH2 0x19D5 JUMP JUMPDEST DUP3 LT ISZERO PUSH2 0x1412 JUMPI PUSH1 0xC SLOAD PUSH1 0xB SLOAD SWAP4 POP SWAP4 POP POP POP SWAP1 SWAP2 JUMP JUMPDEST SWAP1 SWAP4 SWAP1 SWAP3 POP SWAP1 POP JUMP JUMPDEST PUSH1 0xE SLOAD ISZERO DUP1 ISZERO PUSH2 0x142B JUMPI POP PUSH1 0x10 SLOAD ISZERO JUMPDEST ISZERO PUSH2 0x1432 JUMPI JUMP JUMPDEST PUSH1 0xE DUP1 SLOAD PUSH1 0xF SSTORE PUSH1 0x10 DUP1 SLOAD PUSH1 0x11 SSTORE PUSH0 SWAP2 DUP3 SWAP1 SSTORE SSTORE JUMP JUMPDEST PUSH0 DUP1 PUSH0 DUP1 PUSH2 0x1455 DUP6 PUSH2 0xC74 JUMP JUMPDEST PUSH1 0x1 PUSH1 0x1 PUSH1 0xA0 SHL SUB DUP12 AND PUSH0 SWAP1 DUP2 MSTORE PUSH1 0x6 PUSH1 0x20 MSTORE PUSH1 0x40 SWAP1 KECCAK256 SLOAD SWAP4 SWAP8 POP SWAP2 SWAP6 POP SWAP4 POP SWAP2 POP PUSH2 0x1482 SWAP1 DUP7 SWAP1 PUSH2 0x1920 JUMP JUMPDEST PUSH1 0x1 PUSH1 0x1 PUSH1 0xA0 SHL SUB DUP9 AND PUSH0 SWAP1 DUP2 MSTORE PUSH1 0x6 PUSH1 0x20 SWAP1 DUP2 MSTORE PUSH1 0x40 DUP1 DUP4 KECCAK256 SWAP4 SWAP1 SWAP4 SSTORE PUSH1 0x5 SWAP1 MSTORE KECCAK256 SLOAD PUSH2 0x14B1 SWAP1 DUP6 SWAP1 PUSH2 0x1920 JUMP JUMPDEST PUSH1 0x1 PUSH1 0x1 PUSH1 0xA0 SHL SUB DUP1 DUP10 AND PUSH0 SWAP1 DUP2 MSTORE PUSH1 0x5 PUSH1 0x20 MSTORE PUSH1 0x40 DUP1 DUP3 KECCAK256 SWAP4 SWAP1 SWAP4 SSTORE SWAP1 DUP9 AND DUP2 MSTORE KECCAK256 SLOAD PUSH2 0x14E0 SWAP1 DUP5 SWAP1 PUSH2 0x1933 JUMP JUMPDEST PUSH1 0x1 PUSH1 0x1 PUSH1 0xA0 SHL SUB DUP8 AND PUSH0 SWAP1 DUP2 MSTORE PUSH1 0x5 PUSH1 0x20 MSTORE PUSH1 0x40 SWAP1 KECCAK256 SSTORE PUSH2 0x1503 DUP8 DUP7 DUP4 PUSH2 0x16A5 JUMP JUMPDEST PUSH2 0x150D DUP6 DUP3 PUSH2 0x1760 JUMP JUMPDEST DUP6 PUSH1 0x1 PUSH1 0x1 PUSH1 0xA0 SHL SUB AND DUP8 PUSH1 0x1 PUSH1 0x1 PUSH1 0xA0 SHL SUB AND PUSH32 0xDDF252AD1BE2C89B69C2B068FC378DAA952BA7F163C4A11628F55A4DF523B3EF DUP5 PUSH1 0x40 MLOAD PUSH2 0x1552 SWAP2 DUP2 MSTORE PUSH1 0x20 ADD SWAP1 JUMP JUMPDEST PUSH1 0x40 MLOAD DUP1 SWAP2 SUB SWAP1 LOG3 POP POP POP POP POP POP POP JUMP JUMPDEST PUSH0 DUP1 PUSH0 DUP1 PUSH2 0x1570 DUP6 PUSH2 0xC74 JUMP JUMPDEST PUSH1 0x1 PUSH1 0x1 PUSH1 0xA0 SHL SUB DUP12 AND PUSH0 SWAP1 DUP2 MSTORE PUSH1 0x5 PUSH1 0x20 MSTORE PUSH1 0x40 SWAP1 KECCAK256 SLOAD SWAP4 SWAP8 POP SWAP2 SWAP6 POP SWAP4 POP SWAP2 POP PUSH2 0x159D SWAP1 DUP6 SWAP1 PUSH2 0x1920 JUMP JUMPDEST PUSH1 0x1 PUSH1 0x1 PUSH1 0xA0 SHL SUB DUP1 DUP10 AND PUSH0 SWAP1 DUP2 MSTORE PUSH1 0x5 PUSH1 0x20 SWAP1 DUP2 MSTORE PUSH1 0x40 DUP1 DUP4 KECCAK256 SWAP5 SWAP1 SWAP5 SSTORE SWAP2 DUP10 AND DUP2 MSTORE PUSH1 0x6 SWAP1 SWAP2 MSTORE KECCAK256 SLOAD PUSH2 0x15D3 SWAP1 DUP4 SWAP1 PUSH2 0x1933 JUMP JUMPDEST PUSH1 0x1 PUSH1 0x1 PUSH1 0xA0 SHL SUB DUP8 AND PUSH0 SWAP1 DUP2 MSTORE PUSH1 0x6 PUSH1 0x20 SWAP1 DUP2 MSTORE PUSH1 0x40 DUP1 DUP4 KECCAK256 SWAP4 SWAP1 SWAP4 SSTORE PUSH1 0x5 SWAP1 MSTORE KECCAK256 SLOAD PUSH2 0x14E0 SWAP1 DUP5 SWAP1 PUSH2 0x1933 JUMP JUMPDEST PUSH0 DUP1 PUSH0 DUP1 PUSH2 0x160F DUP6 PUSH2 0xC74 JUMP JUMPDEST PUSH1 0x1 PUSH1 0x1 PUSH1 0xA0 SHL SUB DUP12 AND PUSH0 SWAP1 DUP2 MSTORE PUSH1 0x5 PUSH1 0x20 MSTORE PUSH1 0x40 SWAP1 KECCAK256 SLOAD SWAP4 SWAP8 POP SWAP2 SWAP6 POP SWAP4 POP SWAP2 POP PUSH2 0x14B1 SWAP1 DUP6 SWAP1 PUSH2 0x1920 JUMP JUMPDEST PUSH0 DUP1 PUSH0 DUP1 PUSH2 0x1649 DUP6 PUSH2 0xC74 JUMP JUMPDEST PUSH1 0x1 PUSH1 0x1 PUSH1 0xA0 SHL SUB DUP12 AND PUSH0 SWAP1 DUP2 MSTORE PUSH1 0x6 PUSH1 0x20 MSTORE PUSH1 0x40 SWAP1 KECCAK256 SLOAD SWAP4 SWAP8 POP SWAP2 SWAP6 POP SWAP4 POP SWAP2 POP PUSH2 0x1676 SWAP1 DUP7 SWAP1 PUSH2 0x1920 JUMP JUMPDEST PUSH1 0x1 PUSH1 0x1 PUSH1 0xA0 SHL SUB DUP9 AND PUSH0 SWAP1 DUP2 MSTORE PUSH1 0x6 PUSH1 0x20 SWAP1 DUP2 MSTORE PUSH1 0x40 DUP1 DUP4 KECCAK256 SWAP4 SWAP1 SWAP4 SSTORE PUSH1 0x5 SWAP1 MSTORE KECCAK256 SLOAD PUSH2 0x159D SWAP1 DUP6 SWAP1 PUSH2 0x1920 JUMP JUMPDEST PUSH0 PUSH1 0x64 PUSH1 0x10 SLOAD DUP5 PUSH2 0x16B6 SWAP2 SWAP1 PUSH2 0x19BE JUMP JUMPDEST PUSH2 0x16C0 SWAP2 SWAP1 PUSH2 0x19D5 JUMP JUMPDEST SWAP1 POP DUP1 ISZERO PUSH2 0xD4D JUMPI PUSH0 PUSH2 0x16D3 DUP4 DUP4 PUSH2 0x19BE JUMP JUMPDEST PUSH1 0x12 SLOAD PUSH1 0x1 PUSH1 0x1 PUSH1 0xA0 SHL SUB AND PUSH0 SWAP1 DUP2 MSTORE PUSH1 0x5 PUSH1 0x20 MSTORE PUSH1 0x40 SWAP1 KECCAK256 SLOAD SWAP1 SWAP2 POP PUSH2 0x16FB SWAP1 DUP3 SWAP1 PUSH2 0x1933 JUMP JUMPDEST PUSH1 0x12 DUP1 SLOAD PUSH1 0x1 PUSH1 0x1 PUSH1 0xA0 SHL SUB SWAP1 DUP2 AND PUSH0 SWAP1 DUP2 MSTORE PUSH1 0x5 PUSH1 0x20 SWAP1 DUP2 MSTORE PUSH1 0x40 SWAP2 DUP3 SWAP1 KECCAK256 SWAP5 SWAP1 SWAP5 SSTORE SWAP2 SLOAD SWAP2 MLOAD DUP6 DUP2 MSTORE SWAP2 DUP2 AND SWAP3 SWAP1 DUP9 AND SWAP2 PUSH32 0xDDF252AD1BE2C89B69C2B068FC378DAA952BA7F163C4A11628F55A4DF523B3EF SWAP2 ADD PUSH1 0x40 MLOAD DUP1 SWAP2 SUB SWAP1 LOG3 POP POP POP POP POP JUMP JUMPDEST PUSH0 PUSH1 0x64 PUSH1 0xE SLOAD DUP5 PUSH2 0x1771 SWAP2 SWAP1 PUSH2 0x19BE JUMP JUMPDEST PUSH2 0x177B SWAP2 SWAP1 PUSH2 0x19D5 JUMP JUMPDEST SWAP1 POP PUSH0 PUSH2 0x1788 DUP4 DUP4 PUSH2 0x19BE JUMP JUMPDEST SWAP1 POP DUP1 PUSH1 0xC SLOAD PUSH2 0x1798 SWAP2 SWAP1 PUSH2 0x1920 JUMP JUMPDEST PUSH1 0xC SSTORE PUSH1 0xD SLOAD PUSH2 0x17A9 SWAP1 DUP4 SWAP1 PUSH2 0x1933 JUMP JUMPDEST PUSH1 0xD SSTORE POP POP POP POP JUMP JUMPDEST PUSH0 PUSH1 0x20 DUP3 DUP5 SUB SLT ISZERO PUSH2 0x17C2 JUMPI PUSH0 DUP1 REVERT JUMPDEST POP CALLDATALOAD SWAP2 SWAP1 POP JUMP JUMPDEST PUSH0 PUSH1 0x20 DUP1 DUP4 MSTORE DUP4 MLOAD DUP1 DUP3 DUP6 ADD MSTORE PUSH0 JUMPDEST DUP2 DUP2 LT ISZERO PUSH2 0x17F4 JUMPI DUP6 DUP2 ADD DUP4 ADD MLOAD DUP6 DUP3 ADD PUSH1 0x40 ADD MSTORE DUP3 ADD PUSH2 0x17D8 JUMP JUMPDEST POP PUSH0 PUSH1 0x40 DUP3 DUP7 ADD ADD MSTORE PUSH1 0x40 PUSH1 0x1F NOT PUSH1 0x1F DUP4 ADD AND DUP6 ADD ADD SWAP3 POP POP POP SWAP3 SWAP2 POP POP JUMP JUMPDEST DUP1 CALLDATALOAD PUSH1 0x1 PUSH1 0x1 PUSH1 0xA0 SHL SUB DUP2 AND DUP2 EQ PUSH2 0x182A JUMPI PUSH0 DUP1 REVERT JUMPDEST SWAP2 SWAP1 POP JUMP JUMPDEST PUSH0 DUP1 PUSH1 0x40 DUP4 DUP6 SUB SLT ISZERO PUSH2 0x1840 JUMPI PUSH0 DUP1 REVERT JUMPDEST PUSH2 0x1849 DUP4 PUSH2 0x1814 JUMP JUMPDEST SWAP5 PUSH1 0x20 SWAP4 SWAP1 SWAP4 ADD CALLDATALOAD SWAP4 POP POP POP JUMP JUMPDEST PUSH0 DUP1 PUSH0 PUSH1 0x60 DUP5 DUP7 SUB SLT ISZERO PUSH2 0x1869 JUMPI PUSH0 DUP1 REVERT JUMPDEST PUSH2 0x1872 DUP5 PUSH2 0x1814 JUMP JUMPDEST SWAP3 POP PUSH2 0x1880 PUSH1 0x20 DUP6 ADD PUSH2 0x1814 JUMP JUMPDEST SWAP2 POP PUSH1 0x40 DUP5 ADD CALLDATALOAD SWAP1 POP SWAP3 POP SWAP3 POP SWAP3 JUMP JUMPDEST PUSH0 PUSH1 0x20 DUP3 DUP5 SUB SLT ISZERO PUSH2 0x18A0 JUMPI PUSH0 DUP1 REVERT JUMPDEST PUSH2 0x1005 DUP3 PUSH2 0x1814 JUMP JUMPDEST PUSH0 DUP1 PUSH1 0x40 DUP4 DUP6 SUB SLT ISZERO PUSH2 0x18BA JUMPI PUSH0 DUP1 REVERT JUMPDEST DUP3 CALLDATALOAD SWAP2 POP PUSH1 0x20 DUP4 ADD CALLDATALOAD DUP1 ISZERO ISZERO DUP2 EQ PUSH2 0x18D0 JUMPI PUSH0 DUP1 REVERT JUMPDEST DUP1 SWAP2 POP POP SWAP3 POP SWAP3 SWAP1 POP JUMP JUMPDEST PUSH0 DUP1 PUSH1 0x40 DUP4 DUP6 SUB SLT ISZERO PUSH2 0x18EC JUMPI PUSH0 DUP1 REVERT JUMPDEST PUSH2 0x18F5 DUP4 PUSH2 0x1814 JUMP JUMPDEST SWAP2 POP PUSH2 0x1903 PUSH1 0x20 DUP5 ADD PUSH2 0x1814 JUMP JUMPDEST SWAP1 POP SWAP3 POP SWAP3 SWAP1 POP JUMP JUMPDEST PUSH4 0x4E487B71 PUSH1 0xE0 SHL PUSH0 MSTORE PUSH1 0x11 PUSH1 0x4 MSTORE PUSH1 0x24 PUSH0 REVERT JUMPDEST DUP2 DUP2 SUB DUP2 DUP2 GT ISZERO PUSH2 0x6B1 JUMPI PUSH2 0x6B1 PUSH2 0x190C JUMP JUMPDEST DUP1 DUP3 ADD DUP1 DUP3 GT ISZERO PUSH2 0x6B1 JUMPI PUSH2 0x6B1 PUSH2 0x190C JUMP JUMPDEST PUSH1 0x1 DUP2 DUP2 SHR SWAP1 DUP3 AND DUP1 PUSH2 0x195A JUMPI PUSH1 0x7F DUP3 AND SWAP2 POP JUMPDEST PUSH1 0x20 DUP3 LT DUP2 SUB PUSH2 0x1978 JUMPI PUSH4 0x4E487B71 PUSH1 0xE0 SHL PUSH0 MSTORE PUSH1 0x22 PUSH1 0x4 MSTORE PUSH1 0x24 PUSH0 REVERT JUMPDEST POP SWAP2 SWAP1 POP JUMP JUMPDEST PUSH4 0x4E487B71 PUSH1 0xE0 SHL PUSH0 MSTORE PUSH1 0x32 PUSH1 0x4 MSTORE PUSH1 0x24 PUSH0 REVERT JUMPDEST PUSH4 0x4E487B71 PUSH1 0xE0 SHL PUSH0 MSTORE PUSH1 0x31 PUSH1 0x4 MSTORE PUSH1 0x24 PUSH0 REVERT JUMPDEST PUSH0 PUSH1 0x1 DUP3 ADD PUSH2 0x19B7 JUMPI PUSH2 0x19B7 PUSH2 0x190C JUMP JUMPDEST POP PUSH1 0x1 ADD SWAP1 JUMP JUMPDEST DUP1 DUP3 MUL DUP2 ISZERO DUP3 DUP3 DIV DUP5 EQ OR PUSH2 0x6B1 JUMPI PUSH2 0x6B1 PUSH2 0x190C JUMP JUMPDEST PUSH0 DUP3 PUSH2 0x19EF JUMPI PUSH4 0x4E487B71 PUSH1 0xE0 SHL PUSH0 MSTORE PUSH1 0x12 PUSH1 0x4 MSTORE PUSH1 0x24 PUSH0 REVERT JUMPDEST POP DIV SWAP1 JUMP INVALID LOG2 PUSH5 0x6970667358 0x22 SLT KECCAK256 0xAB DUP6 CREATE SLOAD 0x2C 0xD1 SHR MLOAD RETURN 0xE1 DUP13 DUP1 CALLDATACOPY 0xBD 0x49 CALLCODE DUP15 DUP3 DUP16 DUP3 0xB9 ISZERO 0xF7 KECCAK256 DUP13 0xE 0xC 0xF6 REVERT 0xCF 0xB5 CALLER PUSH5 0x736F6C6343 STOP ADDMOD EQ STOP CALLER "
		},
		"gasEstimates": {
			"creation": {
				"codeDepositCost": "1339600",
				"executionCost": "infinite",
				"totalCost": "infinite"
			},
			"external": {
				"allowance(address,address)": "infinite",
				"approve(address,uint256)": "24780",
				"balanceOf(address)": "infinite",
				"changePairAddress(address)": "26778",
				"decimals()": "2422",
				"disbleAntiWhale()": "26643",
				"enableAntiWhale()": "26606",
				"excludeAccountFromReward(address)": "infinite",
				"excludeFromFee(address)": "26852",
				"getMarketingAndDevelopmentAccount()": "2419",
				"getTaxFee()": "2379",
				"includeAccountinReward(address)": "infinite",
				"isExcluded(address)": "2613",
				"isExcludedFromFee(address)": "2591",
				"name()": "infinite",
				"owner()": "2397",
				"pairAddress()": "2447",
				"reflect(uint256)": "infinite",
				"reflectionFee()": "2381",
				"reflectionFromToken(uint256,bool)": "infinite",
				"renounceOwnership()": "28758",
				"symbol()": "infinite",
				"totalFeesRedistributed()": "2337",
				"totalSupply()": "2370",
				"transfer(address,uint256)": "infinite",
				"transferFrom(address,address,uint256)": "infinite",
				"transferOwnership(address)": "26807"
			},
			"internal": {
				"_getCompleteTaxValue(uint256)": "infinite",
				"_getCurrentSupply()": "infinite",
				"_getRate()": "infinite",
				"_getTransferValues(uint256)": "infinite",
				"_reflectFee(uint256,uint256)": "infinite",
				"_tokenTransfer(address,address,uint256,bool)": "infinite",
				"_transfer(address,address,uint256)": "infinite",
				"_transferBothExcluded(address,address,uint256)": "infinite",
				"_transferFromExcluded(address,address,uint256)": "infinite",
				"_transferStandard(address,address,uint256)": "infinite",
				"_transferToExcluded(address,address,uint256)": "infinite",
				"removeAllFee()": "62689",
				"restoreAllFee()": "infinite",
				"taxFeeTransfer(address,uint256,uint256)": "infinite",
				"tokenFromReflection(uint256)": "infinite"
			}
		},
		"methodIdentifiers": {
			"allowance(address,address)": "dd62ed3e",
			"approve(address,uint256)": "095ea7b3",
			"balanceOf(address)": "70a08231",
			"changePairAddress(address)": "8873b15f",
			"decimals()": "313ce567",
			"disbleAntiWhale()": "60c3ae84",
			"enableAntiWhale()": "5c7ffc88",
			"excludeAccountFromReward(address)": "6049876e",
			"excludeFromFee(address)": "437823ec",
			"getMarketingAndDevelopmentAccount()": "d12dc1c1",
			"getTaxFee()": "f66608fe",
			"includeAccountinReward(address)": "fdeb889f",
			"isExcluded(address)": "cba0e996",
			"isExcludedFromFee(address)": "5342acb4",
			"name()": "06fdde03",
			"owner()": "8da5cb5b",
			"pairAddress()": "a8b08982",
			"reflect(uint256)": "053ab182",
			"reflectionFee()": "83ad7994",
			"reflectionFromToken(uint256,bool)": "4549b039",
			"renounceOwnership()": "715018a6",
			"symbol()": "95d89b41",
			"totalFeesRedistributed()": "32035504",
			"totalSupply()": "18160ddd",
			"transfer(address,uint256)": "a9059cbb",
			"transferFrom(address,address,uint256)": "23b872dd",
			"transferOwnership(address)": "f2fde38b"
		}
	},
	"abi": [
		{
			"inputs": [],
			"stateMutability": "nonpayable",
			"type": "constructor"
		},
		{
			"inputs": [
				{
					"internalType": "address",
					"name": "spender",
					"type": "address"
				},
				{
					"internalType": "uint256",
					"name": "allowance",
					"type": "uint256"
				},
				{
					"internalType": "uint256",
					"name": "needed",
					"type": "uint256"
				}
			],
			"name": "ERC20InsufficientAllowance",
			"type": "error"
		},
		{
			"inputs": [
				{
					"internalType": "address",
					"name": "sender",
					"type": "address"
				},
				{
					"internalType": "uint256",
					"name": "balance",
					"type": "uint256"
				},
				{
					"internalType": "uint256",
					"name": "needed",
					"type": "uint256"
				}
			],
			"name": "ERC20InsufficientBalance",
			"type": "error"
		},
		{
			"inputs": [
				{
					"internalType": "address",
					"name": "approver",
					"type": "address"
				}
			],
			"name": "ERC20InvalidApprover",
			"type": "error"
		},
		{
			"inputs": [
				{
					"internalType": "address",
					"name": "receiver",
					"type": "address"
				}
			],
			"name": "ERC20InvalidReceiver",
			"type": "error"
		},
		{
			"inputs": [
				{
					"internalType": "address",
					"name": "sender",
					"type": "address"
				}
			],
			"name": "ERC20InvalidSender",
			"type": "error"
		},
		{
			"inputs": [
				{
					"internalType": "address",
					"name": "spender",
					"type": "address"
				}
			],
			"name": "ERC20InvalidSpender",
			"type": "error"
		},
		{
			"anonymous": false,
			"inputs": [
				{
					"indexed": true,
					"internalType": "address",
					"name": "owner",
					"type": "address"
				},
				{
					"indexed": true,
					"internalType": "address",
					"name": "spender",
					"type": "address"
				},
				{
					"indexed": false,
					"internalType": "uint256",
					"name": "value",
					"type": "uint256"
				}
			],
			"name": "Approval",
			"type": "event"
		},
		{
			"anonymous": false,
			"inputs": [
				{
					"indexed": true,
					"internalType": "address",
					"name": "from",
					"type": "address"
				},
				{
					"indexed": true,
					"internalType": "address",
					"name": "to",
					"type": "address"
				},
				{
					"indexed": false,
					"internalType": "uint256",
					"name": "value",
					"type": "uint256"
				}
			],
			"name": "Transfer",
			"type": "event"
		},
		{
			"inputs": [
				{
					"internalType": "address",
					"name": "owner",
					"type": "address"
				},
				{
					"internalType": "address",
					"name": "spender",
					"type": "address"
				}
			],
			"name": "allowance",
			"outputs": [
				{
					"internalType": "uint256",
					"name": "",
					"type": "uint256"
				}
			],
			"stateMutability": "view",
			"type": "function"
		},
		{
			"inputs": [
				{
					"internalType": "address",
					"name": "spender",
					"type": "address"
				},
				{
					"internalType": "uint256",
					"name": "value",
					"type": "uint256"
				}
			],
			"name": "approve",
			"outputs": [
				{
					"internalType": "bool",
					"name": "",
					"type": "bool"
				}
			],
			"stateMutability": "nonpayable",
			"type": "function"
		},
		{
			"inputs": [
				{
					"internalType": "address",
					"name": "sender",
					"type": "address"
				}
			],
			"name": "balanceOf",
			"outputs": [
				{
					"internalType": "uint256",
					"name": "",
					"type": "uint256"
				}
			],
			"stateMutability": "view",
			"type": "function"
		},
		{
			"inputs": [
				{
					"internalType": "address",
					"name": "_pairAddress",
					"type": "address"
				}
			],
			"name": "changePairAddress",
			"outputs": [],
			"stateMutability": "nonpayable",
			"type": "function"
		},
		{
			"inputs": [],
			"name": "decimals",
			"outputs": [
				{
					"internalType": "uint8",
					"name": "",
					"type": "uint8"
				}
			],
			"stateMutability": "view",
			"type": "function"
		},
		{
			"inputs": [],
			"name": "disbleAntiWhale",
			"outputs": [],
			"stateMutability": "nonpayable",
			"type": "function"
		},
		{
			"inputs": [],
			"name": "enableAntiWhale",
			"outputs": [],
			"stateMutability": "nonpayable",
			"type": "function"
		},
		{
			"inputs": [
				{
					"internalType": "address",
					"name": "account",
					"type": "address"
				}
			],
			"name": "excludeAccountFromReward",
			"outputs": [],
			"stateMutability": "nonpayable",
			"type": "function"
		},
		{
			"inputs": [
				{
					"internalType": "address",
					"name": "account",
					"type": "address"
				}
			],
			"name": "excludeFromFee",
			"outputs": [],
			"stateMutability": "nonpayable",
			"type": "function"
		},
		{
			"inputs": [],
			"name": "getMarketingAndDevelopmentAccount",
			"outputs": [
				{
					"internalType": "address",
					"name": "",
					"type": "address"
				}
			],
			"stateMutability": "view",
			"type": "function"
		},
		{
			"inputs": [],
			"name": "getTaxFee",
			"outputs": [
				{
					"internalType": "uint256",
					"name": "",
					"type": "uint256"
				}
			],
			"stateMutability": "view",
			"type": "function"
		},
		{
			"inputs": [
				{
					"internalType": "address",
					"name": "account",
					"type": "address"
				}
			],
			"name": "includeAccountinReward",
			"outputs": [],
			"stateMutability": "nonpayable",
			"type": "function"
		},
		{
			"inputs": [
				{
					"internalType": "address",
					"name": "account",
					"type": "address"
				}
			],
			"name": "isExcluded",
			"outputs": [
				{
					"internalType": "bool",
					"name": "",
					"type": "bool"
				}
			],
			"stateMutability": "view",
			"type": "function"
		},
		{
			"inputs": [
				{
					"internalType": "address",
					"name": "account",
					"type": "address"
				}
			],
			"name": "isExcludedFromFee",
			"outputs": [
				{
					"internalType": "bool",
					"name": "",
					"type": "bool"
				}
			],
			"stateMutability": "view",
			"type": "function"
		},
		{
			"inputs": [],
			"name": "name",
			"outputs": [
				{
					"internalType": "string",
					"name": "",
					"type": "string"
				}
			],
			"stateMutability": "view",
			"type": "function"
		},
		{
			"inputs": [],
			"name": "owner",
			"outputs": [
				{
					"internalType": "address",
					"name": "",
					"type": "address"
				}
			],
			"stateMutability": "view",
			"type": "function"
		},
		{
			"inputs": [],
			"name": "pairAddress",
			"outputs": [
				{
					"internalType": "address",
					"name": "",
					"type": "address"
				}
			],
			"stateMutability": "view",
			"type": "function"
		},
		{
			"inputs": [
				{
					"internalType": "uint256",
					"name": "tAmount",
					"type": "uint256"
				}
			],
			"name": "reflect",
			"outputs": [],
			"stateMutability": "nonpayable",
			"type": "function"
		},
		{
			"inputs": [],
			"name": "reflectionFee",
			"outputs": [
				{
					"internalType": "uint256",
					"name": "",
					"type": "uint256"
				}
			],
			"stateMutability": "view",
			"type": "function"
		},
		{
			"inputs": [
				{
					"internalType": "uint256",
					"name": "tAmount",
					"type": "uint256"
				},
				{
					"internalType": "bool",
					"name": "deductTransferFee",
					"type": "bool"
				}
			],
			"name": "reflectionFromToken",
			"outputs": [
				{
					"internalType": "uint256",
					"name": "",
					"type": "uint256"
				}
			],
			"stateMutability": "view",
			"type": "function"
		},
		{
			"inputs": [],
			"name": "renounceOwnership",
			"outputs": [],
			"stateMutability": "nonpayable",
			"type": "function"
		},
		{
			"inputs": [],
			"name": "symbol",
			"outputs": [
				{
					"internalType": "string",
					"name": "",
					"type": "string"
				}
			],
			"stateMutability": "view",
			"type": "function"
		},
		{
			"inputs": [],
			"name": "totalFeesRedistributed",
			"outputs": [
				{
					"internalType": "uint256",
					"name": "",
					"type": "uint256"
				}
			],
			"stateMutability": "view",
			"type": "function"
		},
		{
			"inputs": [],
			"name": "totalSupply",
			"outputs": [
				{
					"internalType": "uint256",
					"name": "",
					"type": "uint256"
				}
			],
			"stateMutability": "view",
			"type": "function"
		},
		{
			"inputs": [
				{
					"internalType": "address",
					"name": "to",
					"type": "address"
				},
				{
					"internalType": "uint256",
					"name": "value",
					"type": "uint256"
				}
			],
			"name": "transfer",
			"outputs": [
				{
					"internalType": "bool",
					"name": "",
					"type": "bool"
				}
			],
			"stateMutability": "nonpayable",
			"type": "function"
		},
		{
			"inputs": [
				{
					"internalType": "address",
					"name": "from",
					"type": "address"
				},
				{
					"internalType": "address",
					"name": "to",
					"type": "address"
				},
				{
					"internalType": "uint256",
					"name": "value",
					"type": "uint256"
				}
			],
			"name": "transferFrom",
			"outputs": [
				{
					"internalType": "bool",
					"name": "",
					"type": "bool"
				}
			],
			"stateMutability": "nonpayable",
			"type": "function"
		},
		{
			"inputs": [
				{
					"internalType": "address",
					"name": "newOwner",
					"type": "address"
				}
			],
			"name": "transferOwnership",
			"outputs": [],
			"stateMutability": "nonpayable",
			"type": "function"
		},
		{
			"stateMutability": "payable",
			"type": "receive"
		}
	]
}